{
	"digital_contract.sol": {
		"ContractManager": {
			"abi": [
				{
					"anonymous": false,
					"inputs": [
						{
							"indexed": true,
							"internalType": "uint256",
							"name": "contractId",
							"type": "uint256"
						},
						{
							"indexed": false,
							"internalType": "address",
							"name": "creator",
							"type": "address"
						},
						{
							"indexed": false,
							"internalType": "address",
							"name": "counterparty",
							"type": "address"
						}
					],
					"name": "ContractCreated",
					"type": "event"
				},
				{
					"anonymous": false,
					"inputs": [
						{
							"indexed": true,
							"internalType": "uint256",
							"name": "contractId",
							"type": "uint256"
						}
					],
					"name": "ContractDeactivated",
					"type": "event"
				},
				{
					"anonymous": false,
					"inputs": [
						{
							"indexed": true,
							"internalType": "uint256",
							"name": "contractId",
							"type": "uint256"
						}
					],
					"name": "ContractSigned",
					"type": "event"
				},
				{
					"anonymous": false,
					"inputs": [
						{
							"indexed": true,
							"internalType": "uint256",
							"name": "contractId",
							"type": "uint256"
						}
					],
					"name": "DeliveryApproved",
					"type": "event"
				},
				{
					"anonymous": false,
					"inputs": [
						{
							"indexed": true,
							"internalType": "uint256",
							"name": "contractId",
							"type": "uint256"
						}
					],
					"name": "DeliveryConfirmed",
					"type": "event"
				},
				{
					"anonymous": false,
					"inputs": [
						{
							"indexed": true,
							"internalType": "uint256",
							"name": "contractId",
							"type": "uint256"
						},
						{
							"indexed": true,
							"internalType": "address",
							"name": "account",
							"type": "address"
						},
						{
							"indexed": false,
							"internalType": "uint256",
							"name": "amount",
							"type": "uint256"
						}
					],
					"name": "FundsWithdrawn",
					"type": "event"
				},
				{
					"anonymous": false,
					"inputs": [
						{
							"indexed": true,
							"internalType": "address",
							"name": "oracle",
							"type": "address"
						}
					],
					"name": "OracleSet",
					"type": "event"
				},
				{
					"anonymous": false,
					"inputs": [
						{
							"indexed": true,
							"internalType": "uint256",
							"name": "contractId",
							"type": "uint256"
						},
						{
							"indexed": true,
							"internalType": "address",
							"name": "to",
							"type": "address"
						},
						{
							"indexed": false,
							"internalType": "uint256",
							"name": "amount",
							"type": "uint256"
						}
					],
					"name": "PaymentReleased",
					"type": "event"
				},
				{
					"anonymous": false,
					"inputs": [
						{
							"indexed": true,
							"internalType": "uint256",
							"name": "contractId",
							"type": "uint256"
						},
						{
							"indexed": false,
							"internalType": "bytes32",
							"name": "trackingHash",
							"type": "bytes32"
						}
					],
					"name": "TrackingHashSet",
					"type": "event"
				},
				{
					"inputs": [
						{
							"internalType": "uint256",
							"name": "_contractId",
							"type": "uint256"
						}
					],
					"name": "approveDeliveryAsCreator",
					"outputs": [],
					"stateMutability": "nonpayable",
					"type": "function"
				},
				{
					"inputs": [
						{
							"internalType": "uint256",
							"name": "_contractId",
							"type": "uint256"
						}
					],
					"name": "confirmCompletion",
					"outputs": [],
					"stateMutability": "nonpayable",
					"type": "function"
				},
				{
					"inputs": [
						{
							"internalType": "uint256",
							"name": "_contractId",
							"type": "uint256"
						},
						{
							"internalType": "string",
							"name": "_trackingNumber",
							"type": "string"
						}
					],
					"name": "confirmDeliveryByOracle",
					"outputs": [],
					"stateMutability": "nonpayable",
					"type": "function"
				},
				{
					"inputs": [],
					"name": "contractCounter",
					"outputs": [
						{
							"internalType": "uint256",
							"name": "",
							"type": "uint256"
						}
					],
					"stateMutability": "view",
					"type": "function"
				},
				{
					"inputs": [
						{
							"internalType": "uint256",
							"name": "",
							"type": "uint256"
						}
					],
					"name": "contracts",
					"outputs": [
						{
							"internalType": "uint256",
							"name": "id",
							"type": "uint256"
						},
						{
							"internalType": "uint256",
							"name": "amount",
							"type": "uint256"
						},
						{
							"internalType": "address payable",
							"name": "creator",
							"type": "address"
						},
						{
							"internalType": "address payable",
							"name": "counterparty",
							"type": "address"
						},
						{
							"internalType": "enum ContractManager.ContractStatus",
							"name": "status",
							"type": "uint8"
						},
						{
							"internalType": "string",
							"name": "contractIPFSHash",
							"type": "string"
						},
						{
							"internalType": "bytes32",
							"name": "deliveryTrackingHash",
							"type": "bytes32"
						},
						{
							"internalType": "bool",
							"name": "deliveryRequired",
							"type": "bool"
						},
						{
							"internalType": "bool",
							"name": "deliveryConfirmed",
							"type": "bool"
						},
						{
							"internalType": "bool",
							"name": "deliveryApprovedByCreator",
							"type": "bool"
						},
						{
							"internalType": "uint256",
							"name": "oracleConfirmationTime",
							"type": "uint256"
						}
					],
					"stateMutability": "view",
					"type": "function"
				},
				{
					"inputs": [
						{
							"internalType": "address payable",
							"name": "_counterparty",
							"type": "address"
						},
						{
							"internalType": "string",
							"name": "_contractIPFSHash",
							"type": "string"
						},
						{
							"internalType": "uint256",
							"name": "_amount",
							"type": "uint256"
						}
					],
					"name": "createContract",
					"outputs": [],
					"stateMutability": "payable",
					"type": "function"
				},
				{
					"inputs": [
						{
							"internalType": "uint256",
							"name": "_contractId",
							"type": "uint256"
						}
					],
					"name": "deactivateContract",
					"outputs": [],
					"stateMutability": "nonpayable",
					"type": "function"
				},
				{
					"inputs": [
						{
							"internalType": "uint256",
							"name": "_contractId",
							"type": "uint256"
						}
					],
					"name": "forceApproveDeliveryAfterTimeout",
					"outputs": [],
					"stateMutability": "nonpayable",
					"type": "function"
				},
				{
					"inputs": [
						{
							"internalType": "uint256",
							"name": "_contractId",
							"type": "uint256"
						}
					],
					"name": "getContractIPFSHash",
					"outputs": [
						{
							"internalType": "string",
							"name": "",
							"type": "string"
						}
					],
					"stateMutability": "view",
					"type": "function"
				},
				{
					"inputs": [
						{
							"internalType": "uint256",
							"name": "_contractId",
							"type": "uint256"
						}
					],
					"name": "getContractStatus",
					"outputs": [
						{
							"internalType": "enum ContractManager.ContractStatus",
							"name": "",
							"type": "uint8"
						}
					],
					"stateMutability": "view",
					"type": "function"
				},
				{
					"inputs": [],
					"name": "oracle",
					"outputs": [
						{
							"internalType": "address",
							"name": "",
							"type": "address"
						}
					],
					"stateMutability": "view",
					"type": "function"
				},
				{
					"inputs": [],
					"name": "oracleSet",
					"outputs": [
						{
							"internalType": "bool",
							"name": "",
							"type": "bool"
						}
					],
					"stateMutability": "view",
					"type": "function"
				},
				{
					"inputs": [
						{
							"internalType": "address",
							"name": "",
							"type": "address"
						}
					],
					"name": "pendingWithdrawals",
					"outputs": [
						{
							"internalType": "uint256",
							"name": "",
							"type": "uint256"
						}
					],
					"stateMutability": "view",
					"type": "function"
				},
				{
					"inputs": [
						{
							"internalType": "uint256",
							"name": "_contractId",
							"type": "uint256"
						},
						{
							"internalType": "string",
							"name": "_trackingNumber",
							"type": "string"
						}
					],
					"name": "setDeliveryTracking",
					"outputs": [],
					"stateMutability": "nonpayable",
					"type": "function"
				},
				{
					"inputs": [
						{
							"internalType": "address",
							"name": "_oracle",
							"type": "address"
						}
					],
					"name": "setOracle",
					"outputs": [],
					"stateMutability": "nonpayable",
					"type": "function"
				},
				{
					"inputs": [
						{
							"internalType": "uint256",
							"name": "_contractId",
							"type": "uint256"
						}
					],
					"name": "signContract",
					"outputs": [],
					"stateMutability": "nonpayable",
					"type": "function"
				},
				{
					"inputs": [
						{
							"internalType": "uint256",
							"name": "_contractId",
							"type": "uint256"
						}
					],
					"name": "withdrawFundsFrom",
					"outputs": [],
					"stateMutability": "nonpayable",
					"type": "function"
				}
			],
			"devdoc": {
				"kind": "dev",
				"methods": {},
				"version": 1
			},
			"evm": {
				"assembly": "    /* \"digital_contract.sol\":93:8363  contract ContractManager is ReentrancyGuard {... */\n  mstore(0x40, 0x80)\n  callvalue\n  dup1\n  iszero\n  tag_1\n  jumpi\n  revert(0x00, 0x00)\ntag_1:\n  pop\n    /* \"@openzeppelin/contracts/security/ReentrancyGuard.sol\":1716:1717  1 */\n  0x01\n    /* \"@openzeppelin/contracts/security/ReentrancyGuard.sol\":1821:1828  _status */\n  0x00\n    /* \"@openzeppelin/contracts/security/ReentrancyGuard.sol\":1821:1843  _status = _NOT_ENTERED */\n  dup2\n  swap1\n  sstore\n  pop\n    /* \"digital_contract.sol\":93:8363  contract ContractManager is ReentrancyGuard {... */\n  dataSize(sub_0)\n  dup1\n  dataOffset(sub_0)\n  0x00\n  codecopy\n  0x00\n  return\nstop\n\nsub_0: assembly {\n        /* \"digital_contract.sol\":93:8363  contract ContractManager is ReentrancyGuard {... */\n      mstore(0x40, 0x80)\n      jumpi(tag_1, lt(calldatasize, 0x04))\n      shr(0xe0, calldataload(0x00))\n      dup1\n      0x7dc0d1d0\n      gt\n      tag_19\n      jumpi\n      dup1\n      0xa069bc25\n      gt\n      tag_20\n      jumpi\n      dup1\n      0xa069bc25\n      eq\n      tag_14\n      jumpi\n      dup1\n      0xc43bf3c2\n      eq\n      tag_15\n      jumpi\n      dup1\n      0xdf5c2980\n      eq\n      tag_16\n      jumpi\n      dup1\n      0xedb3b27a\n      eq\n      tag_17\n      jumpi\n      dup1\n      0xf3f43703\n      eq\n      tag_18\n      jumpi\n      jump(tag_1)\n    tag_20:\n      dup1\n      0x7dc0d1d0\n      eq\n      tag_10\n      jumpi\n      dup1\n      0x94aeb613\n      eq\n      tag_11\n      jumpi\n      dup1\n      0x9537e8d1\n      eq\n      tag_12\n      jumpi\n      dup1\n      0x9ce5b6ca\n      eq\n      tag_13\n      jumpi\n      jump(tag_1)\n    tag_19:\n      dup1\n      0x22a45cd0\n      gt\n      tag_21\n      jumpi\n      dup1\n      0x22a45cd0\n      eq\n      tag_6\n      jumpi\n      dup1\n      0x474da79a\n      eq\n      tag_7\n      jumpi\n      dup1\n      0x54b7b6d3\n      eq\n      tag_8\n      jumpi\n      dup1\n      0x7adbf973\n      eq\n      tag_9\n      jumpi\n      jump(tag_1)\n    tag_21:\n      dup1\n      0x032ca42d\n      eq\n      tag_2\n      jumpi\n      dup1\n      0x067bd3b4\n      eq\n      tag_3\n      jumpi\n      dup1\n      0x17b18458\n      eq\n      tag_4\n      jumpi\n      dup1\n      0x1ed4af8c\n      eq\n      tag_5\n      jumpi\n    tag_1:\n      revert(0x00, 0x00)\n        /* \"digital_contract.sol\":4629:5431  function approveDeliveryAsCreator(uint256 _contractId) public onlyCreator(_contractId) {... */\n    tag_2:\n      callvalue\n      dup1\n      iszero\n      tag_22\n      jumpi\n      revert(0x00, 0x00)\n    tag_22:\n      pop\n      tag_23\n      0x04\n      dup1\n      calldatasize\n      sub\n      dup2\n      add\n      swap1\n      tag_24\n      swap2\n      swap1\n      tag_25\n      jump\t// in\n    tag_24:\n      tag_26\n      jump\t// in\n    tag_23:\n      stop\n        /* \"digital_contract.sol\":740:770  uint256 public contractCounter */\n    tag_3:\n      callvalue\n      dup1\n      iszero\n      tag_27\n      jumpi\n      revert(0x00, 0x00)\n    tag_27:\n      pop\n      tag_28\n      tag_29\n      jump\t// in\n    tag_28:\n      mload(0x40)\n      tag_30\n      swap2\n      swap1\n      tag_31\n      jump\t// in\n    tag_30:\n      mload(0x40)\n      dup1\n      swap2\n      sub\n      swap1\n      return\n        /* \"digital_contract.sol\":8061:8201  function getContractStatus(uint256 _contractId) public view returns (ContractStatus) {... */\n    tag_4:\n      callvalue\n      dup1\n      iszero\n      tag_32\n      jumpi\n      revert(0x00, 0x00)\n    tag_32:\n      pop\n      tag_33\n      0x04\n      dup1\n      calldatasize\n      sub\n      dup2\n      add\n      swap1\n      tag_34\n      swap2\n      swap1\n      tag_25\n      jump\t// in\n    tag_34:\n      tag_35\n      jump\t// in\n    tag_33:\n      mload(0x40)\n      tag_36\n      swap2\n      swap1\n      tag_37\n      jump\t// in\n    tag_36:\n      mload(0x40)\n      dup1\n      swap2\n      sub\n      swap1\n      return\n        /* \"digital_contract.sol\":8209:8360  function getContractIPFSHash(uint256 _contractId) public view returns (string memory) {... */\n    tag_5:\n      callvalue\n      dup1\n      iszero\n      tag_38\n      jumpi\n      revert(0x00, 0x00)\n    tag_38:\n      pop\n      tag_39\n      0x04\n      dup1\n      calldatasize\n      sub\n      dup2\n      add\n      swap1\n      tag_40\n      swap2\n      swap1\n      tag_25\n      jump\t// in\n    tag_40:\n      tag_41\n      jump\t// in\n    tag_39:\n      mload(0x40)\n      tag_42\n      swap2\n      swap1\n      tag_43\n      jump\t// in\n    tag_42:\n      mload(0x40)\n      dup1\n      swap2\n      sub\n      swap1\n      return\n        /* \"digital_contract.sol\":7577:8053  function deactivateContract(uint256 _contractId) public onlyCreator(_contractId) {... */\n    tag_6:\n      callvalue\n      dup1\n      iszero\n      tag_44\n      jumpi\n      revert(0x00, 0x00)\n    tag_44:\n      pop\n      tag_45\n      0x04\n      dup1\n      calldatasize\n      sub\n      dup2\n      add\n      swap1\n      tag_46\n      swap2\n      swap1\n      tag_25\n      jump\t// in\n    tag_46:\n      tag_47\n      jump\t// in\n    tag_45:\n      stop\n        /* \"digital_contract.sol\":681:733  mapping(uint256 => ManagedContract) public contracts */\n    tag_7:\n      callvalue\n      dup1\n      iszero\n      tag_48\n      jumpi\n      revert(0x00, 0x00)\n    tag_48:\n      pop\n      tag_49\n      0x04\n      dup1\n      calldatasize\n      sub\n      dup2\n      add\n      swap1\n      tag_50\n      swap2\n      swap1\n      tag_25\n      jump\t// in\n    tag_50:\n      tag_51\n      jump\t// in\n    tag_49:\n      mload(0x40)\n      tag_52\n      swap12\n      swap11\n      swap10\n      swap9\n      swap8\n      swap7\n      swap6\n      swap5\n      swap4\n      swap3\n      swap2\n      swap1\n      tag_53\n      jump\t// in\n    tag_52:\n      mload(0x40)\n      dup1\n      swap2\n      sub\n      swap1\n      return\n        /* \"digital_contract.sol\":3347:3898  function setDeliveryTracking(uint256 _contractId, string memory _trackingNumber) public onlyCounterparty(_contractId) {... */\n    tag_8:\n      callvalue\n      dup1\n      iszero\n      tag_54\n      jumpi\n      revert(0x00, 0x00)\n    tag_54:\n      pop\n      tag_55\n      0x04\n      dup1\n      calldatasize\n      sub\n      dup2\n      add\n      swap1\n      tag_56\n      swap2\n      swap1\n      tag_57\n      jump\t// in\n    tag_56:\n      tag_58\n      jump\t// in\n    tag_55:\n      stop\n        /* \"digital_contract.sol\":1897:2149  function setOracle(address _oracle) public {... */\n    tag_9:\n      callvalue\n      dup1\n      iszero\n      tag_59\n      jumpi\n      revert(0x00, 0x00)\n    tag_59:\n      pop\n      tag_60\n      0x04\n      dup1\n      calldatasize\n      sub\n      dup2\n      add\n      swap1\n      tag_61\n      swap2\n      swap1\n      tag_62\n      jump\t// in\n    tag_61:\n      tag_63\n      jump\t// in\n    tag_60:\n      stop\n        /* \"digital_contract.sol\":623:644  address public oracle */\n    tag_10:\n      callvalue\n      dup1\n      iszero\n      tag_64\n      jumpi\n      revert(0x00, 0x00)\n    tag_64:\n      pop\n      tag_65\n      tag_66\n      jump\t// in\n    tag_65:\n      mload(0x40)\n      tag_67\n      swap2\n      swap1\n      tag_68\n      jump\t// in\n    tag_67:\n      mload(0x40)\n      dup1\n      swap2\n      sub\n      swap1\n      return\n        /* \"digital_contract.sol\":6375:6905  function confirmCompletion(uint256 _contractId) public nonReentrant onlyCreator(_contractId) {... */\n    tag_11:\n      callvalue\n      dup1\n      iszero\n      tag_69\n      jumpi\n      revert(0x00, 0x00)\n    tag_69:\n      pop\n      tag_70\n      0x04\n      dup1\n      calldatasize\n      sub\n      dup2\n      add\n      swap1\n      tag_71\n      swap2\n      swap1\n      tag_25\n      jump\t// in\n    tag_71:\n      tag_72\n      jump\t// in\n    tag_70:\n      stop\n        /* \"digital_contract.sol\":3009:3339  function signContract(uint256 _contractId) public onlyCounterparty(_contractId) {... */\n    tag_12:\n      callvalue\n      dup1\n      iszero\n      tag_73\n      jumpi\n      revert(0x00, 0x00)\n    tag_73:\n      pop\n      tag_74\n      0x04\n      dup1\n      calldatasize\n      sub\n      dup2\n      add\n      swap1\n      tag_75\n      swap2\n      swap1\n      tag_25\n      jump\t// in\n    tag_75:\n      tag_76\n      jump\t// in\n    tag_74:\n      stop\n        /* \"digital_contract.sol\":2157:3001  function createContract(... */\n    tag_13:\n      tag_77\n      0x04\n      dup1\n      calldatasize\n      sub\n      dup2\n      add\n      swap1\n      tag_78\n      swap2\n      swap1\n      tag_79\n      jump\t// in\n    tag_78:\n      tag_80\n      jump\t// in\n    tag_77:\n      stop\n        /* \"digital_contract.sol\":5439:6367  function forceApproveDeliveryAfterTimeout(uint256 _contractId) public nonReentrant onlyCounterparty(_contractId) {... */\n    tag_14:\n      callvalue\n      dup1\n      iszero\n      tag_81\n      jumpi\n      revert(0x00, 0x00)\n    tag_81:\n      pop\n      tag_82\n      0x04\n      dup1\n      calldatasize\n      sub\n      dup2\n      add\n      swap1\n      tag_83\n      swap2\n      swap1\n      tag_25\n      jump\t// in\n    tag_83:\n      tag_84\n      jump\t// in\n    tag_82:\n      stop\n        /* \"digital_contract.sol\":3906:4621  function confirmDeliveryByOracle(uint256 _contractId, string memory _trackingNumber) public nonReentrant onlyOracle {... */\n    tag_15:\n      callvalue\n      dup1\n      iszero\n      tag_85\n      jumpi\n      revert(0x00, 0x00)\n    tag_85:\n      pop\n      tag_86\n      0x04\n      dup1\n      calldatasize\n      sub\n      dup2\n      add\n      swap1\n      tag_87\n      swap2\n      swap1\n      tag_57\n      jump\t// in\n    tag_87:\n      tag_88\n      jump\t// in\n    tag_86:\n      stop\n        /* \"digital_contract.sol\":6913:7569  function withdrawFundsFrom(uint256 _contractId) public nonReentrant {... */\n    tag_16:\n      callvalue\n      dup1\n      iszero\n      tag_89\n      jumpi\n      revert(0x00, 0x00)\n    tag_89:\n      pop\n      tag_90\n      0x04\n      dup1\n      calldatasize\n      sub\n      dup2\n      add\n      swap1\n      tag_91\n      swap2\n      swap1\n      tag_25\n      jump\t// in\n    tag_91:\n      tag_92\n      jump\t// in\n    tag_90:\n      stop\n        /* \"digital_contract.sol\":651:672  bool public oracleSet */\n    tag_17:\n      callvalue\n      dup1\n      iszero\n      tag_93\n      jumpi\n      revert(0x00, 0x00)\n    tag_93:\n      pop\n      tag_94\n      tag_95\n      jump\t// in\n    tag_94:\n      mload(0x40)\n      tag_96\n      swap2\n      swap1\n      tag_97\n      jump\t// in\n    tag_96:\n      mload(0x40)\n      dup1\n      swap2\n      sub\n      swap1\n      return\n        /* \"digital_contract.sol\":779:832  mapping(address => uint256) public pendingWithdrawals */\n    tag_18:\n      callvalue\n      dup1\n      iszero\n      tag_98\n      jumpi\n      revert(0x00, 0x00)\n    tag_98:\n      pop\n      tag_99\n      0x04\n      dup1\n      calldatasize\n      sub\n      dup2\n      add\n      swap1\n      tag_100\n      swap2\n      swap1\n      tag_62\n      jump\t// in\n    tag_100:\n      tag_101\n      jump\t// in\n    tag_99:\n      mload(0x40)\n      tag_102\n      swap2\n      swap1\n      tag_31\n      jump\t// in\n    tag_102:\n      mload(0x40)\n      dup1\n      swap2\n      sub\n      swap1\n      return\n        /* \"digital_contract.sol\":4629:5431  function approveDeliveryAsCreator(uint256 _contractId) public onlyCreator(_contractId) {... */\n    tag_26:\n        /* \"digital_contract.sol\":4703:4714  _contractId */\n      dup1\n        /* \"digital_contract.sol\":1555:1564  contracts */\n      0x02\n        /* \"digital_contract.sol\":1555:1577  contracts[_contractId] */\n      0x00\n        /* \"digital_contract.sol\":1565:1576  _contractId */\n      dup3\n        /* \"digital_contract.sol\":1555:1577  contracts[_contractId] */\n      dup2\n      mstore\n      0x20\n      add\n      swap1\n      dup2\n      mstore\n      0x20\n      add\n      0x00\n      keccak256\n        /* \"digital_contract.sol\":1555:1585  contracts[_contractId].creator */\n      0x02\n      add\n      0x00\n      swap1\n      sload\n      swap1\n      0x0100\n      exp\n      swap1\n      div\n      0xffffffffffffffffffffffffffffffffffffffff\n      and\n        /* \"digital_contract.sol\":1541:1585  msg.sender == contracts[_contractId].creator */\n      0xffffffffffffffffffffffffffffffffffffffff\n      and\n        /* \"digital_contract.sol\":1541:1551  msg.sender */\n      caller\n        /* \"digital_contract.sol\":1541:1585  msg.sender == contracts[_contractId].creator */\n      0xffffffffffffffffffffffffffffffffffffffff\n      and\n      eq\n        /* \"digital_contract.sol\":1533:1601  require(msg.sender == contracts[_contractId].creator, \"Not creator\") */\n      tag_104\n      jumpi\n      mload(0x40)\n      0x08c379a000000000000000000000000000000000000000000000000000000000\n      dup2\n      mstore\n      0x04\n      add\n      tag_105\n      swap1\n      tag_106\n      jump\t// in\n    tag_105:\n      mload(0x40)\n      dup1\n      swap2\n      sub\n      swap1\n      revert\n    tag_104:\n        /* \"digital_contract.sol\":4727:4760  ManagedContract storage mContract */\n      0x00\n        /* \"digital_contract.sol\":4763:4772  contracts */\n      0x02\n        /* \"digital_contract.sol\":4763:4785  contracts[_contractId] */\n      0x00\n        /* \"digital_contract.sol\":4773:4784  _contractId */\n      dup5\n        /* \"digital_contract.sol\":4763:4785  contracts[_contractId] */\n      dup2\n      mstore\n      0x20\n      add\n      swap1\n      dup2\n      mstore\n      0x20\n      add\n      0x00\n      keccak256\n        /* \"digital_contract.sol\":4727:4785  ManagedContract storage mContract = contracts[_contractId] */\n      swap1\n      pop\n        /* \"digital_contract.sol\":4804:4813  mContract */\n      dup1\n        /* \"digital_contract.sol\":4804:4830  mContract.deliveryRequired */\n      0x06\n      add\n      0x00\n      swap1\n      sload\n      swap1\n      0x0100\n      exp\n      swap1\n      div\n      0xff\n      and\n        /* \"digital_contract.sol\":4796:4846  require(mContract.deliveryRequired, \"No delivery\") */\n      tag_108\n      jumpi\n      mload(0x40)\n      0x08c379a000000000000000000000000000000000000000000000000000000000\n      dup2\n      mstore\n      0x04\n      add\n      tag_109\n      swap1\n      tag_110\n      jump\t// in\n    tag_109:\n      mload(0x40)\n      dup1\n      swap2\n      sub\n      swap1\n      revert\n    tag_108:\n        /* \"digital_contract.sol\":4885:4906  ContractStatus.Signed */\n      0x01\n        /* \"digital_contract.sol\":4865:4906  mContract.status == ContractStatus.Signed */\n      0x03\n      dup2\n      gt\n      iszero\n      tag_111\n      jumpi\n      tag_112\n      tag_113\n      jump\t// in\n    tag_112:\n    tag_111:\n        /* \"digital_contract.sol\":4865:4874  mContract */\n      dup2\n        /* \"digital_contract.sol\":4865:4881  mContract.status */\n      0x03\n      add\n      0x14\n      swap1\n      sload\n      swap1\n      0x0100\n      exp\n      swap1\n      div\n      0xff\n      and\n        /* \"digital_contract.sol\":4865:4906  mContract.status == ContractStatus.Signed */\n      0x03\n      dup2\n      gt\n      iszero\n      tag_114\n      jumpi\n      tag_115\n      tag_113\n      jump\t// in\n    tag_115:\n    tag_114:\n      eq\n        /* \"digital_contract.sol\":4857:4921  require(mContract.status == ContractStatus.Signed, \"Not Signed\") */\n      tag_116\n      jumpi\n      mload(0x40)\n      0x08c379a000000000000000000000000000000000000000000000000000000000\n      dup2\n      mstore\n      0x04\n      add\n      tag_117\n      swap1\n      tag_118\n      jump\t// in\n    tag_117:\n      mload(0x40)\n      dup1\n      swap2\n      sub\n      swap1\n      revert\n    tag_116:\n        /* \"digital_contract.sol\":4940:4949  mContract */\n      dup1\n        /* \"digital_contract.sol\":4940:4967  mContract.deliveryConfirmed */\n      0x06\n      add\n      0x01\n      swap1\n      sload\n      swap1\n      0x0100\n      exp\n      swap1\n      div\n      0xff\n      and\n        /* \"digital_contract.sol\":4932:4988  require(mContract.deliveryConfirmed, \"Delivery missing\") */\n      tag_119\n      jumpi\n      mload(0x40)\n      0x08c379a000000000000000000000000000000000000000000000000000000000\n      dup2\n      mstore\n      0x04\n      add\n      tag_120\n      swap1\n      tag_121\n      jump\t// in\n    tag_120:\n      mload(0x40)\n      dup1\n      swap2\n      sub\n      swap1\n      revert\n    tag_119:\n        /* \"digital_contract.sol\":5008:5017  mContract */\n      dup1\n        /* \"digital_contract.sol\":5008:5043  mContract.deliveryApprovedByCreator */\n      0x06\n      add\n      0x02\n      swap1\n      sload\n      swap1\n      0x0100\n      exp\n      swap1\n      div\n      0xff\n      and\n        /* \"digital_contract.sol\":5007:5043  !mContract.deliveryApprovedByCreator */\n      iszero\n        /* \"digital_contract.sol\":4999:5064  require(!mContract.deliveryApprovedByCreator, \"Already approved\") */\n      tag_122\n      jumpi\n      mload(0x40)\n      0x08c379a000000000000000000000000000000000000000000000000000000000\n      dup2\n      mstore\n      0x04\n      add\n      tag_123\n      swap1\n      tag_124\n      jump\t// in\n    tag_123:\n      mload(0x40)\n      dup1\n      swap2\n      sub\n      swap1\n      revert\n    tag_122:\n        /* \"digital_contract.sol\":5115:5119  true */\n      0x01\n        /* \"digital_contract.sol\":5077:5086  mContract */\n      dup2\n        /* \"digital_contract.sol\":5077:5112  mContract.deliveryApprovedByCreator */\n      0x06\n      add\n      0x02\n        /* \"digital_contract.sol\":5077:5119  mContract.deliveryApprovedByCreator = true */\n      0x0100\n      exp\n      dup2\n      sload\n      dup2\n      0xff\n      mul\n      not\n      and\n      swap1\n      dup4\n      iszero\n      iszero\n      mul\n      or\n      swap1\n      sstore\n      pop\n        /* \"digital_contract.sol\":5149:5173  ContractStatus.Completed */\n      0x02\n        /* \"digital_contract.sol\":5130:5139  mContract */\n      dup2\n        /* \"digital_contract.sol\":5130:5146  mContract.status */\n      0x03\n      add\n      0x14\n        /* \"digital_contract.sol\":5130:5173  mContract.status = ContractStatus.Completed */\n      0x0100\n      exp\n      dup2\n      sload\n      dup2\n      0xff\n      mul\n      not\n      and\n      swap1\n      dup4\n      0x03\n      dup2\n      gt\n      iszero\n      tag_125\n      jumpi\n      tag_126\n      tag_113\n      jump\t// in\n    tag_126:\n    tag_125:\n      mul\n      or\n      swap1\n      sstore\n      pop\n        /* \"digital_contract.sol\":5274:5283  mContract */\n      dup1\n        /* \"digital_contract.sol\":5274:5290  mContract.amount */\n      0x01\n      add\n      sload\n        /* \"digital_contract.sol\":5229:5247  pendingWithdrawals */\n      0x04\n        /* \"digital_contract.sol\":5229:5271  pendingWithdrawals[mContract.counterparty] */\n      0x00\n        /* \"digital_contract.sol\":5248:5257  mContract */\n      dup4\n        /* \"digital_contract.sol\":5248:5270  mContract.counterparty */\n      0x03\n      add\n      0x00\n      swap1\n      sload\n      swap1\n      0x0100\n      exp\n      swap1\n      div\n      0xffffffffffffffffffffffffffffffffffffffff\n      and\n        /* \"digital_contract.sol\":5229:5271  pendingWithdrawals[mContract.counterparty] */\n      0xffffffffffffffffffffffffffffffffffffffff\n      and\n      0xffffffffffffffffffffffffffffffffffffffff\n      and\n      dup2\n      mstore\n      0x20\n      add\n      swap1\n      dup2\n      mstore\n      0x20\n      add\n      0x00\n      keccak256\n      sload\n        /* \"digital_contract.sol\":5229:5290  pendingWithdrawals[mContract.counterparty] + mContract.amount */\n      tag_127\n      swap2\n      swap1\n      tag_128\n      jump\t// in\n    tag_127:\n        /* \"digital_contract.sol\":5184:5202  pendingWithdrawals */\n      0x04\n        /* \"digital_contract.sol\":5184:5226  pendingWithdrawals[mContract.counterparty] */\n      0x00\n        /* \"digital_contract.sol\":5203:5212  mContract */\n      dup4\n        /* \"digital_contract.sol\":5203:5225  mContract.counterparty */\n      0x03\n      add\n      0x00\n      swap1\n      sload\n      swap1\n      0x0100\n      exp\n      swap1\n      div\n      0xffffffffffffffffffffffffffffffffffffffff\n      and\n        /* \"digital_contract.sol\":5184:5226  pendingWithdrawals[mContract.counterparty] */\n      0xffffffffffffffffffffffffffffffffffffffff\n      and\n      0xffffffffffffffffffffffffffffffffffffffff\n      and\n      dup2\n      mstore\n      0x20\n      add\n      swap1\n      dup2\n      mstore\n      0x20\n      add\n      0x00\n      keccak256\n        /* \"digital_contract.sol\":5184:5290  pendingWithdrawals[mContract.counterparty] = pendingWithdrawals[mContract.counterparty] + mContract.amount */\n      dup2\n      swap1\n      sstore\n      pop\n        /* \"digital_contract.sol\":5325:5336  _contractId */\n      dup3\n        /* \"digital_contract.sol\":5308:5337  DeliveryApproved(_contractId) */\n      0x5c1e662f72ee6c85181b65fac5beb0390932b8c472f05b257151d041ac9ddffa\n      mload(0x40)\n      mload(0x40)\n      dup1\n      swap2\n      sub\n      swap1\n      log2\n        /* \"digital_contract.sol\":5382:5391  mContract */\n      dup1\n        /* \"digital_contract.sol\":5382:5404  mContract.counterparty */\n      0x03\n      add\n      0x00\n      swap1\n      sload\n      swap1\n      0x0100\n      exp\n      swap1\n      div\n      0xffffffffffffffffffffffffffffffffffffffff\n      and\n        /* \"digital_contract.sol\":5353:5423  PaymentReleased(_contractId, mContract.counterparty, mContract.amount) */\n      0xffffffffffffffffffffffffffffffffffffffff\n      and\n        /* \"digital_contract.sol\":5369:5380  _contractId */\n      dup4\n        /* \"digital_contract.sol\":5353:5423  PaymentReleased(_contractId, mContract.counterparty, mContract.amount) */\n      0x21d71db5be59bb9fa133895586b7404307dd33fb93b16db09dc6f1d9d7d231b0\n        /* \"digital_contract.sol\":5406:5415  mContract */\n      dup4\n        /* \"digital_contract.sol\":5406:5422  mContract.amount */\n      0x01\n      add\n      sload\n        /* \"digital_contract.sol\":5353:5423  PaymentReleased(_contractId, mContract.counterparty, mContract.amount) */\n      mload(0x40)\n      tag_129\n      swap2\n      swap1\n      tag_31\n      jump\t// in\n    tag_129:\n      mload(0x40)\n      dup1\n      swap2\n      sub\n      swap1\n      log3\n        /* \"digital_contract.sol\":4716:5431  {... */\n      pop\n        /* \"digital_contract.sol\":4629:5431  function approveDeliveryAsCreator(uint256 _contractId) public onlyCreator(_contractId) {... */\n      pop\n      pop\n      jump\t// out\n        /* \"digital_contract.sol\":740:770  uint256 public contractCounter */\n    tag_29:\n      sload(0x03)\n      dup2\n      jump\t// out\n        /* \"digital_contract.sol\":8061:8201  function getContractStatus(uint256 _contractId) public view returns (ContractStatus) {... */\n    tag_35:\n        /* \"digital_contract.sol\":8130:8144  ContractStatus */\n      0x00\n        /* \"digital_contract.sol\":8164:8173  contracts */\n      0x02\n        /* \"digital_contract.sol\":8164:8186  contracts[_contractId] */\n      0x00\n        /* \"digital_contract.sol\":8174:8185  _contractId */\n      dup4\n        /* \"digital_contract.sol\":8164:8186  contracts[_contractId] */\n      dup2\n      mstore\n      0x20\n      add\n      swap1\n      dup2\n      mstore\n      0x20\n      add\n      0x00\n      keccak256\n        /* \"digital_contract.sol\":8164:8193  contracts[_contractId].status */\n      0x03\n      add\n      0x14\n      swap1\n      sload\n      swap1\n      0x0100\n      exp\n      swap1\n      div\n      0xff\n      and\n        /* \"digital_contract.sol\":8157:8193  return contracts[_contractId].status */\n      swap1\n      pop\n        /* \"digital_contract.sol\":8061:8201  function getContractStatus(uint256 _contractId) public view returns (ContractStatus) {... */\n      swap2\n      swap1\n      pop\n      jump\t// out\n        /* \"digital_contract.sol\":8209:8360  function getContractIPFSHash(uint256 _contractId) public view returns (string memory) {... */\n    tag_41:\n        /* \"digital_contract.sol\":8280:8293  string memory */\n      0x60\n        /* \"digital_contract.sol\":8313:8322  contracts */\n      0x02\n        /* \"digital_contract.sol\":8313:8335  contracts[_contractId] */\n      0x00\n        /* \"digital_contract.sol\":8323:8334  _contractId */\n      dup4\n        /* \"digital_contract.sol\":8313:8335  contracts[_contractId] */\n      dup2\n      mstore\n      0x20\n      add\n      swap1\n      dup2\n      mstore\n      0x20\n      add\n      0x00\n      keccak256\n        /* \"digital_contract.sol\":8313:8352  contracts[_contractId].contractIPFSHash */\n      0x04\n      add\n        /* \"digital_contract.sol\":8306:8352  return contracts[_contractId].contractIPFSHash */\n      dup1\n      sload\n      tag_132\n      swap1\n      tag_133\n      jump\t// in\n    tag_132:\n      dup1\n      0x1f\n      add\n      0x20\n      dup1\n      swap2\n      div\n      mul\n      0x20\n      add\n      mload(0x40)\n      swap1\n      dup2\n      add\n      0x40\n      mstore\n      dup1\n      swap3\n      swap2\n      swap1\n      dup2\n      dup2\n      mstore\n      0x20\n      add\n      dup3\n      dup1\n      sload\n      tag_134\n      swap1\n      tag_133\n      jump\t// in\n    tag_134:\n      dup1\n      iszero\n      tag_135\n      jumpi\n      dup1\n      0x1f\n      lt\n      tag_136\n      jumpi\n      0x0100\n      dup1\n      dup4\n      sload\n      div\n      mul\n      dup4\n      mstore\n      swap2\n      0x20\n      add\n      swap2\n      jump(tag_135)\n    tag_136:\n      dup3\n      add\n      swap2\n      swap1\n      0x00\n      mstore\n      keccak256(0x00, 0x20)\n      swap1\n    tag_137:\n      dup2\n      sload\n      dup2\n      mstore\n      swap1\n      0x01\n      add\n      swap1\n      0x20\n      add\n      dup1\n      dup4\n      gt\n      tag_137\n      jumpi\n      dup3\n      swap1\n      sub\n      0x1f\n      and\n      dup3\n      add\n      swap2\n    tag_135:\n      pop\n      pop\n      pop\n      pop\n      pop\n      swap1\n      pop\n        /* \"digital_contract.sol\":8209:8360  function getContractIPFSHash(uint256 _contractId) public view returns (string memory) {... */\n      swap2\n      swap1\n      pop\n      jump\t// out\n        /* \"digital_contract.sol\":7577:8053  function deactivateContract(uint256 _contractId) public onlyCreator(_contractId) {... */\n    tag_47:\n        /* \"digital_contract.sol\":7645:7656  _contractId */\n      dup1\n        /* \"digital_contract.sol\":1555:1564  contracts */\n      0x02\n        /* \"digital_contract.sol\":1555:1577  contracts[_contractId] */\n      0x00\n        /* \"digital_contract.sol\":1565:1576  _contractId */\n      dup3\n        /* \"digital_contract.sol\":1555:1577  contracts[_contractId] */\n      dup2\n      mstore\n      0x20\n      add\n      swap1\n      dup2\n      mstore\n      0x20\n      add\n      0x00\n      keccak256\n        /* \"digital_contract.sol\":1555:1585  contracts[_contractId].creator */\n      0x02\n      add\n      0x00\n      swap1\n      sload\n      swap1\n      0x0100\n      exp\n      swap1\n      div\n      0xffffffffffffffffffffffffffffffffffffffff\n      and\n        /* \"digital_contract.sol\":1541:1585  msg.sender == contracts[_contractId].creator */\n      0xffffffffffffffffffffffffffffffffffffffff\n      and\n        /* \"digital_contract.sol\":1541:1551  msg.sender */\n      caller\n        /* \"digital_contract.sol\":1541:1585  msg.sender == contracts[_contractId].creator */\n      0xffffffffffffffffffffffffffffffffffffffff\n      and\n      eq\n        /* \"digital_contract.sol\":1533:1601  require(msg.sender == contracts[_contractId].creator, \"Not creator\") */\n      tag_139\n      jumpi\n      mload(0x40)\n      0x08c379a000000000000000000000000000000000000000000000000000000000\n      dup2\n      mstore\n      0x04\n      add\n      tag_140\n      swap1\n      tag_106\n      jump\t// in\n    tag_140:\n      mload(0x40)\n      dup1\n      swap2\n      sub\n      swap1\n      revert\n    tag_139:\n        /* \"digital_contract.sol\":7669:7702  ManagedContract storage mContract */\n      0x00\n        /* \"digital_contract.sol\":7705:7714  contracts */\n      0x02\n        /* \"digital_contract.sol\":7705:7727  contracts[_contractId] */\n      0x00\n        /* \"digital_contract.sol\":7715:7726  _contractId */\n      dup5\n        /* \"digital_contract.sol\":7705:7727  contracts[_contractId] */\n      dup2\n      mstore\n      0x20\n      add\n      swap1\n      dup2\n      mstore\n      0x20\n      add\n      0x00\n      keccak256\n        /* \"digital_contract.sol\":7669:7727  ManagedContract storage mContract = contracts[_contractId] */\n      swap1\n      pop\n        /* \"digital_contract.sol\":7766:7790  ContractStatus.Completed */\n      0x02\n        /* \"digital_contract.sol\":7746:7790  mContract.status != ContractStatus.Completed */\n      0x03\n      dup2\n      gt\n      iszero\n      tag_142\n      jumpi\n      tag_143\n      tag_113\n      jump\t// in\n    tag_143:\n    tag_142:\n        /* \"digital_contract.sol\":7746:7755  mContract */\n      dup2\n        /* \"digital_contract.sol\":7746:7762  mContract.status */\n      0x03\n      add\n      0x14\n      swap1\n      sload\n      swap1\n      0x0100\n      exp\n      swap1\n      div\n      0xff\n      and\n        /* \"digital_contract.sol\":7746:7790  mContract.status != ContractStatus.Completed */\n      0x03\n      dup2\n      gt\n      iszero\n      tag_144\n      jumpi\n      tag_145\n      tag_113\n      jump\t// in\n    tag_145:\n    tag_144:\n      sub\n        /* \"digital_contract.sol\":7738:7812  require(mContract.status != ContractStatus.Completed, \"Already completed\") */\n      tag_146\n      jumpi\n      mload(0x40)\n      0x08c379a000000000000000000000000000000000000000000000000000000000\n      dup2\n      mstore\n      0x04\n      add\n      tag_147\n      swap1\n      tag_148\n      jump\t// in\n    tag_147:\n      mload(0x40)\n      dup1\n      swap2\n      sub\n      swap1\n      revert\n    tag_146:\n        /* \"digital_contract.sol\":7851:7875  ContractStatus.Cancelled */\n      0x03\n        /* \"digital_contract.sol\":7831:7875  mContract.status != ContractStatus.Cancelled */\n      dup1\n      dup2\n      gt\n      iszero\n      tag_149\n      jumpi\n      tag_150\n      tag_113\n      jump\t// in\n    tag_150:\n    tag_149:\n        /* \"digital_contract.sol\":7831:7840  mContract */\n      dup2\n        /* \"digital_contract.sol\":7831:7847  mContract.status */\n      0x03\n      add\n      0x14\n      swap1\n      sload\n      swap1\n      0x0100\n      exp\n      swap1\n      div\n      0xff\n      and\n        /* \"digital_contract.sol\":7831:7875  mContract.status != ContractStatus.Cancelled */\n      0x03\n      dup2\n      gt\n      iszero\n      tag_151\n      jumpi\n      tag_152\n      tag_113\n      jump\t// in\n    tag_152:\n    tag_151:\n      sub\n        /* \"digital_contract.sol\":7823:7897  require(mContract.status != ContractStatus.Cancelled, \"Already cancelled\") */\n      tag_153\n      jumpi\n      mload(0x40)\n      0x08c379a000000000000000000000000000000000000000000000000000000000\n      dup2\n      mstore\n      0x04\n      add\n      tag_154\n      swap1\n      tag_155\n      jump\t// in\n    tag_154:\n      mload(0x40)\n      dup1\n      swap2\n      sub\n      swap1\n      revert\n    tag_153:\n        /* \"digital_contract.sol\":7910:7941  mContract.contractIPFSHash = \"\" */\n      mload(0x40)\n      dup1\n      0x20\n      add\n      0x40\n      mstore\n      dup1\n      0x00\n      dup2\n      mstore\n      pop\n        /* \"digital_contract.sol\":7910:7919  mContract */\n      dup2\n        /* \"digital_contract.sol\":7910:7936  mContract.contractIPFSHash */\n      0x04\n      add\n        /* \"digital_contract.sol\":7910:7941  mContract.contractIPFSHash = \"\" */\n      swap1\n      dup2\n      tag_156\n      swap2\n      swap1\n      tag_157\n      jump\t// in\n    tag_156:\n      pop\n        /* \"digital_contract.sol\":7971:7995  ContractStatus.Cancelled */\n      0x03\n        /* \"digital_contract.sol\":7952:7961  mContract */\n      dup2\n        /* \"digital_contract.sol\":7952:7968  mContract.status */\n      0x03\n      add\n      0x14\n        /* \"digital_contract.sol\":7952:7995  mContract.status = ContractStatus.Cancelled */\n      0x0100\n      exp\n      dup2\n      sload\n      dup2\n      0xff\n      mul\n      not\n      and\n      swap1\n      dup4\n      0x03\n      dup2\n      gt\n      iszero\n      tag_158\n      jumpi\n      tag_159\n      tag_113\n      jump\t// in\n    tag_159:\n    tag_158:\n      mul\n      or\n      swap1\n      sstore\n      pop\n        /* \"digital_contract.sol\":8033:8044  _contractId */\n      dup3\n        /* \"digital_contract.sol\":8013:8045  ContractDeactivated(_contractId) */\n      0x741b099f015e1976cfa72a7448a8fb1d54eab1d616241b562cfbe603a2b61b42\n      mload(0x40)\n      mload(0x40)\n      dup1\n      swap2\n      sub\n      swap1\n      log2\n        /* \"digital_contract.sol\":7658:8053  {... */\n      pop\n        /* \"digital_contract.sol\":7577:8053  function deactivateContract(uint256 _contractId) public onlyCreator(_contractId) {... */\n      pop\n      pop\n      jump\t// out\n        /* \"digital_contract.sol\":681:733  mapping(uint256 => ManagedContract) public contracts */\n    tag_51:\n      mstore(0x20, 0x02)\n      dup1\n      0x00\n      mstore\n      keccak256(0x00, 0x40)\n      0x00\n      swap2\n      pop\n      swap1\n      pop\n      dup1\n      0x00\n      add\n      sload\n      swap1\n      dup1\n      0x01\n      add\n      sload\n      swap1\n      dup1\n      0x02\n      add\n      0x00\n      swap1\n      sload\n      swap1\n      0x0100\n      exp\n      swap1\n      div\n      0xffffffffffffffffffffffffffffffffffffffff\n      and\n      swap1\n      dup1\n      0x03\n      add\n      0x00\n      swap1\n      sload\n      swap1\n      0x0100\n      exp\n      swap1\n      div\n      0xffffffffffffffffffffffffffffffffffffffff\n      and\n      swap1\n      dup1\n      0x03\n      add\n      0x14\n      swap1\n      sload\n      swap1\n      0x0100\n      exp\n      swap1\n      div\n      0xff\n      and\n      swap1\n      dup1\n      0x04\n      add\n      dup1\n      sload\n      tag_160\n      swap1\n      tag_133\n      jump\t// in\n    tag_160:\n      dup1\n      0x1f\n      add\n      0x20\n      dup1\n      swap2\n      div\n      mul\n      0x20\n      add\n      mload(0x40)\n      swap1\n      dup2\n      add\n      0x40\n      mstore\n      dup1\n      swap3\n      swap2\n      swap1\n      dup2\n      dup2\n      mstore\n      0x20\n      add\n      dup3\n      dup1\n      sload\n      tag_161\n      swap1\n      tag_133\n      jump\t// in\n    tag_161:\n      dup1\n      iszero\n      tag_162\n      jumpi\n      dup1\n      0x1f\n      lt\n      tag_163\n      jumpi\n      0x0100\n      dup1\n      dup4\n      sload\n      div\n      mul\n      dup4\n      mstore\n      swap2\n      0x20\n      add\n      swap2\n      jump(tag_162)\n    tag_163:\n      dup3\n      add\n      swap2\n      swap1\n      0x00\n      mstore\n      keccak256(0x00, 0x20)\n      swap1\n    tag_164:\n      dup2\n      sload\n      dup2\n      mstore\n      swap1\n      0x01\n      add\n      swap1\n      0x20\n      add\n      dup1\n      dup4\n      gt\n      tag_164\n      jumpi\n      dup3\n      swap1\n      sub\n      0x1f\n      and\n      dup3\n      add\n      swap2\n    tag_162:\n      pop\n      pop\n      pop\n      pop\n      pop\n      swap1\n      dup1\n      0x05\n      add\n      sload\n      swap1\n      dup1\n      0x06\n      add\n      0x00\n      swap1\n      sload\n      swap1\n      0x0100\n      exp\n      swap1\n      div\n      0xff\n      and\n      swap1\n      dup1\n      0x06\n      add\n      0x01\n      swap1\n      sload\n      swap1\n      0x0100\n      exp\n      swap1\n      div\n      0xff\n      and\n      swap1\n      dup1\n      0x06\n      add\n      0x02\n      swap1\n      sload\n      swap1\n      0x0100\n      exp\n      swap1\n      div\n      0xff\n      and\n      swap1\n      dup1\n      0x07\n      add\n      sload\n      swap1\n      pop\n      dup12\n      jump\t// out\n        /* \"digital_contract.sol\":3347:3898  function setDeliveryTracking(uint256 _contractId, string memory _trackingNumber) public onlyCounterparty(_contractId) {... */\n    tag_58:\n        /* \"digital_contract.sol\":3452:3463  _contractId */\n      dup2\n        /* \"digital_contract.sol\":1709:1718  contracts */\n      0x02\n        /* \"digital_contract.sol\":1709:1731  contracts[_contractId] */\n      0x00\n        /* \"digital_contract.sol\":1719:1730  _contractId */\n      dup3\n        /* \"digital_contract.sol\":1709:1731  contracts[_contractId] */\n      dup2\n      mstore\n      0x20\n      add\n      swap1\n      dup2\n      mstore\n      0x20\n      add\n      0x00\n      keccak256\n        /* \"digital_contract.sol\":1709:1744  contracts[_contractId].counterparty */\n      0x03\n      add\n      0x00\n      swap1\n      sload\n      swap1\n      0x0100\n      exp\n      swap1\n      div\n      0xffffffffffffffffffffffffffffffffffffffff\n      and\n        /* \"digital_contract.sol\":1695:1744  msg.sender == contracts[_contractId].counterparty */\n      0xffffffffffffffffffffffffffffffffffffffff\n      and\n        /* \"digital_contract.sol\":1695:1705  msg.sender */\n      caller\n        /* \"digital_contract.sol\":1695:1744  msg.sender == contracts[_contractId].counterparty */\n      0xffffffffffffffffffffffffffffffffffffffff\n      and\n      eq\n        /* \"digital_contract.sol\":1687:1765  require(msg.sender == contracts[_contractId].counterparty, \"Not counterparty\") */\n      tag_166\n      jumpi\n      mload(0x40)\n      0x08c379a000000000000000000000000000000000000000000000000000000000\n      dup2\n      mstore\n      0x04\n      add\n      tag_167\n      swap1\n      tag_168\n      jump\t// in\n    tag_167:\n      mload(0x40)\n      dup1\n      swap2\n      sub\n      swap1\n      revert\n    tag_166:\n        /* \"digital_contract.sol\":3476:3509  ManagedContract storage mContract */\n      0x00\n        /* \"digital_contract.sol\":3512:3521  contracts */\n      0x02\n        /* \"digital_contract.sol\":3512:3534  contracts[_contractId] */\n      0x00\n        /* \"digital_contract.sol\":3522:3533  _contractId */\n      dup6\n        /* \"digital_contract.sol\":3512:3534  contracts[_contractId] */\n      dup2\n      mstore\n      0x20\n      add\n      swap1\n      dup2\n      mstore\n      0x20\n      add\n      0x00\n      keccak256\n        /* \"digital_contract.sol\":3476:3534  ManagedContract storage mContract = contracts[_contractId] */\n      swap1\n      pop\n        /* \"digital_contract.sol\":3573:3594  ContractStatus.Signed */\n      0x01\n        /* \"digital_contract.sol\":3553:3594  mContract.status == ContractStatus.Signed */\n      0x03\n      dup2\n      gt\n      iszero\n      tag_170\n      jumpi\n      tag_171\n      tag_113\n      jump\t// in\n    tag_171:\n    tag_170:\n        /* \"digital_contract.sol\":3553:3562  mContract */\n      dup2\n        /* \"digital_contract.sol\":3553:3569  mContract.status */\n      0x03\n      add\n      0x14\n      swap1\n      sload\n      swap1\n      0x0100\n      exp\n      swap1\n      div\n      0xff\n      and\n        /* \"digital_contract.sol\":3553:3594  mContract.status == ContractStatus.Signed */\n      0x03\n      dup2\n      gt\n      iszero\n      tag_172\n      jumpi\n      tag_173\n      tag_113\n      jump\t// in\n    tag_173:\n    tag_172:\n      eq\n        /* \"digital_contract.sol\":3545:3609  require(mContract.status == ContractStatus.Signed, \"Not Signed\") */\n      tag_174\n      jumpi\n      mload(0x40)\n      0x08c379a000000000000000000000000000000000000000000000000000000000\n      dup2\n      mstore\n      0x04\n      add\n      tag_175\n      swap1\n      tag_118\n      jump\t// in\n    tag_175:\n      mload(0x40)\n      dup1\n      swap2\n      sub\n      swap1\n      revert\n    tag_174:\n        /* \"digital_contract.sol\":3629:3638  mContract */\n      dup1\n        /* \"digital_contract.sol\":3629:3655  mContract.deliveryRequired */\n      0x06\n      add\n      0x00\n      swap1\n      sload\n      swap1\n      0x0100\n      exp\n      swap1\n      div\n      0xff\n      and\n        /* \"digital_contract.sol\":3628:3655  !mContract.deliveryRequired */\n      iszero\n        /* \"digital_contract.sol\":3620:3671  require(!mContract.deliveryRequired, \"Already set\") */\n      tag_176\n      jumpi\n      mload(0x40)\n      0x08c379a000000000000000000000000000000000000000000000000000000000\n      dup2\n      mstore\n      0x04\n      add\n      tag_177\n      swap1\n      tag_178\n      jump\t// in\n    tag_177:\n      mload(0x40)\n      dup1\n      swap2\n      sub\n      swap1\n      revert\n    tag_176:\n        /* \"digital_contract.sol\":3738:3749  _contractId */\n      dup4\n        /* \"digital_contract.sol\":3751:3766  _trackingNumber */\n      dup4\n        /* \"digital_contract.sol\":3727:3767  abi.encode(_contractId, _trackingNumber) */\n      add(0x20, mload(0x40))\n      tag_179\n      swap3\n      swap2\n      swap1\n      tag_180\n      jump\t// in\n    tag_179:\n      mload(0x40)\n      0x20\n      dup2\n      dup4\n      sub\n      sub\n      dup2\n      mstore\n      swap1\n      0x40\n      mstore\n        /* \"digital_contract.sol\":3717:3768  keccak256(abi.encode(_contractId, _trackingNumber)) */\n      dup1\n      mload\n      swap1\n      0x20\n      add\n      keccak256\n        /* \"digital_contract.sol\":3684:3693  mContract */\n      dup2\n        /* \"digital_contract.sol\":3684:3714  mContract.deliveryTrackingHash */\n      0x05\n      add\n        /* \"digital_contract.sol\":3684:3768  mContract.deliveryTrackingHash = keccak256(abi.encode(_contractId, _trackingNumber)) */\n      dup2\n      swap1\n      sstore\n      pop\n        /* \"digital_contract.sol\":3808:3812  true */\n      0x01\n        /* \"digital_contract.sol\":3779:3788  mContract */\n      dup2\n        /* \"digital_contract.sol\":3779:3805  mContract.deliveryRequired */\n      0x06\n      add\n      0x00\n        /* \"digital_contract.sol\":3779:3812  mContract.deliveryRequired = true */\n      0x0100\n      exp\n      dup2\n      sload\n      dup2\n      0xff\n      mul\n      not\n      and\n      swap1\n      dup4\n      iszero\n      iszero\n      mul\n      or\n      swap1\n      sstore\n      pop\n        /* \"digital_contract.sol\":3846:3857  _contractId */\n      dup4\n        /* \"digital_contract.sol\":3830:3890  TrackingHashSet(_contractId, mContract.deliveryTrackingHash) */\n      0x4b70739c5f0bd46e19773020c599342cdbdc3ac59b5e0abfdd9c1bb441be59c8\n        /* \"digital_contract.sol\":3859:3868  mContract */\n      dup3\n        /* \"digital_contract.sol\":3859:3889  mContract.deliveryTrackingHash */\n      0x05\n      add\n      sload\n        /* \"digital_contract.sol\":3830:3890  TrackingHashSet(_contractId, mContract.deliveryTrackingHash) */\n      mload(0x40)\n      tag_181\n      swap2\n      swap1\n      tag_182\n      jump\t// in\n    tag_181:\n      mload(0x40)\n      dup1\n      swap2\n      sub\n      swap1\n      log2\n        /* \"digital_contract.sol\":3465:3898  {... */\n      pop\n        /* \"digital_contract.sol\":3347:3898  function setDeliveryTracking(uint256 _contractId, string memory _trackingNumber) public onlyCounterparty(_contractId) {... */\n      pop\n      pop\n      pop\n      jump\t// out\n        /* \"digital_contract.sol\":1897:2149  function setOracle(address _oracle) public {... */\n    tag_63:\n        /* \"digital_contract.sol\":1960:1969  oracleSet */\n      0x01\n      0x14\n      swap1\n      sload\n      swap1\n      0x0100\n      exp\n      swap1\n      div\n      0xff\n      and\n        /* \"digital_contract.sol\":1959:1969  !oracleSet */\n      iszero\n        /* \"digital_contract.sol\":1951:1992  require(!oracleSet, \"Oracle already set\") */\n      tag_184\n      jumpi\n      mload(0x40)\n      0x08c379a000000000000000000000000000000000000000000000000000000000\n      dup2\n      mstore\n      0x04\n      add\n      tag_185\n      swap1\n      tag_186\n      jump\t// in\n    tag_185:\n      mload(0x40)\n      dup1\n      swap2\n      sub\n      swap1\n      revert\n    tag_184:\n        /* \"digital_contract.sol\":2030:2031  0 */\n      0x00\n        /* \"digital_contract.sol\":2011:2032  _oracle != address(0) */\n      0xffffffffffffffffffffffffffffffffffffffff\n      and\n        /* \"digital_contract.sol\":2011:2018  _oracle */\n      dup2\n        /* \"digital_contract.sol\":2011:2032  _oracle != address(0) */\n      0xffffffffffffffffffffffffffffffffffffffff\n      and\n      sub\n        /* \"digital_contract.sol\":2003:2051  require(_oracle != address(0), \"Invalid oracle\") */\n      tag_187\n      jumpi\n      mload(0x40)\n      0x08c379a000000000000000000000000000000000000000000000000000000000\n      dup2\n      mstore\n      0x04\n      add\n      tag_188\n      swap1\n      tag_189\n      jump\t// in\n    tag_188:\n      mload(0x40)\n      dup1\n      swap2\n      sub\n      swap1\n      revert\n    tag_187:\n        /* \"digital_contract.sol\":2073:2080  _oracle */\n      dup1\n        /* \"digital_contract.sol\":2064:2070  oracle */\n      0x01\n      0x00\n        /* \"digital_contract.sol\":2064:2080  oracle = _oracle */\n      0x0100\n      exp\n      dup2\n      sload\n      dup2\n      0xffffffffffffffffffffffffffffffffffffffff\n      mul\n      not\n      and\n      swap1\n      dup4\n      0xffffffffffffffffffffffffffffffffffffffff\n      and\n      mul\n      or\n      swap1\n      sstore\n      pop\n        /* \"digital_contract.sol\":2103:2107  true */\n      0x01\n        /* \"digital_contract.sol\":2091:2100  oracleSet */\n      dup1\n      0x14\n        /* \"digital_contract.sol\":2091:2107  oracleSet = true */\n      0x0100\n      exp\n      dup2\n      sload\n      dup2\n      0xff\n      mul\n      not\n      and\n      swap1\n      dup4\n      iszero\n      iszero\n      mul\n      or\n      swap1\n      sstore\n      pop\n        /* \"digital_contract.sol\":2133:2140  _oracle */\n      dup1\n        /* \"digital_contract.sol\":2123:2141  OracleSet(_oracle) */\n      0xffffffffffffffffffffffffffffffffffffffff\n      and\n      0x3f32684a32a11dabdbb8c0177de80aa3ae36a004d75210335b49e544e48cd0aa\n      mload(0x40)\n      mload(0x40)\n      dup1\n      swap2\n      sub\n      swap1\n      log2\n        /* \"digital_contract.sol\":1897:2149  function setOracle(address _oracle) public {... */\n      pop\n      jump\t// out\n        /* \"digital_contract.sol\":623:644  address public oracle */\n    tag_66:\n      0x01\n      0x00\n      swap1\n      sload\n      swap1\n      0x0100\n      exp\n      swap1\n      div\n      0xffffffffffffffffffffffffffffffffffffffff\n      and\n      dup2\n      jump\t// out\n        /* \"digital_contract.sol\":6375:6905  function confirmCompletion(uint256 _contractId) public nonReentrant onlyCreator(_contractId) {... */\n    tag_72:\n        /* \"@openzeppelin/contracts/security/ReentrancyGuard.sol\":2261:2282  _nonReentrantBefore() */\n      tag_191\n        /* \"@openzeppelin/contracts/security/ReentrancyGuard.sol\":2261:2280  _nonReentrantBefore */\n      tag_192\n        /* \"@openzeppelin/contracts/security/ReentrancyGuard.sol\":2261:2282  _nonReentrantBefore() */\n      jump\t// in\n    tag_191:\n        /* \"digital_contract.sol\":6455:6466  _contractId */\n      dup1\n        /* \"digital_contract.sol\":1555:1564  contracts */\n      0x02\n        /* \"digital_contract.sol\":1555:1577  contracts[_contractId] */\n      0x00\n        /* \"digital_contract.sol\":1565:1576  _contractId */\n      dup3\n        /* \"digital_contract.sol\":1555:1577  contracts[_contractId] */\n      dup2\n      mstore\n      0x20\n      add\n      swap1\n      dup2\n      mstore\n      0x20\n      add\n      0x00\n      keccak256\n        /* \"digital_contract.sol\":1555:1585  contracts[_contractId].creator */\n      0x02\n      add\n      0x00\n      swap1\n      sload\n      swap1\n      0x0100\n      exp\n      swap1\n      div\n      0xffffffffffffffffffffffffffffffffffffffff\n      and\n        /* \"digital_contract.sol\":1541:1585  msg.sender == contracts[_contractId].creator */\n      0xffffffffffffffffffffffffffffffffffffffff\n      and\n        /* \"digital_contract.sol\":1541:1551  msg.sender */\n      caller\n        /* \"digital_contract.sol\":1541:1585  msg.sender == contracts[_contractId].creator */\n      0xffffffffffffffffffffffffffffffffffffffff\n      and\n      eq\n        /* \"digital_contract.sol\":1533:1601  require(msg.sender == contracts[_contractId].creator, \"Not creator\") */\n      tag_194\n      jumpi\n      mload(0x40)\n      0x08c379a000000000000000000000000000000000000000000000000000000000\n      dup2\n      mstore\n      0x04\n      add\n      tag_195\n      swap1\n      tag_106\n      jump\t// in\n    tag_195:\n      mload(0x40)\n      dup1\n      swap2\n      sub\n      swap1\n      revert\n    tag_194:\n        /* \"digital_contract.sol\":6479:6512  ManagedContract storage mContract */\n      0x00\n        /* \"digital_contract.sol\":6515:6524  contracts */\n      0x02\n        /* \"digital_contract.sol\":6515:6537  contracts[_contractId] */\n      0x00\n        /* \"digital_contract.sol\":6525:6536  _contractId */\n      dup5\n        /* \"digital_contract.sol\":6515:6537  contracts[_contractId] */\n      dup2\n      mstore\n      0x20\n      add\n      swap1\n      dup2\n      mstore\n      0x20\n      add\n      0x00\n      keccak256\n        /* \"digital_contract.sol\":6479:6537  ManagedContract storage mContract = contracts[_contractId] */\n      swap1\n      pop\n        /* \"digital_contract.sol\":6576:6597  ContractStatus.Signed */\n      0x01\n        /* \"digital_contract.sol\":6556:6597  mContract.status == ContractStatus.Signed */\n      0x03\n      dup2\n      gt\n      iszero\n      tag_197\n      jumpi\n      tag_198\n      tag_113\n      jump\t// in\n    tag_198:\n    tag_197:\n        /* \"digital_contract.sol\":6556:6565  mContract */\n      dup2\n        /* \"digital_contract.sol\":6556:6572  mContract.status */\n      0x03\n      add\n      0x14\n      swap1\n      sload\n      swap1\n      0x0100\n      exp\n      swap1\n      div\n      0xff\n      and\n        /* \"digital_contract.sol\":6556:6597  mContract.status == ContractStatus.Signed */\n      0x03\n      dup2\n      gt\n      iszero\n      tag_199\n      jumpi\n      tag_200\n      tag_113\n      jump\t// in\n    tag_200:\n    tag_199:\n      eq\n        /* \"digital_contract.sol\":6548:6612  require(mContract.status == ContractStatus.Signed, \"Not Signed\") */\n      tag_201\n      jumpi\n      mload(0x40)\n      0x08c379a000000000000000000000000000000000000000000000000000000000\n      dup2\n      mstore\n      0x04\n      add\n      tag_202\n      swap1\n      tag_118\n      jump\t// in\n    tag_202:\n      mload(0x40)\n      dup1\n      swap2\n      sub\n      swap1\n      revert\n    tag_201:\n        /* \"digital_contract.sol\":6632:6641  mContract */\n      dup1\n        /* \"digital_contract.sol\":6632:6658  mContract.deliveryRequired */\n      0x06\n      add\n      0x00\n      swap1\n      sload\n      swap1\n      0x0100\n      exp\n      swap1\n      div\n      0xff\n      and\n        /* \"digital_contract.sol\":6631:6658  !mContract.deliveryRequired */\n      iszero\n        /* \"digital_contract.sol\":6623:6680  require(!mContract.deliveryRequired, \"Use delivery flow\") */\n      tag_203\n      jumpi\n      mload(0x40)\n      0x08c379a000000000000000000000000000000000000000000000000000000000\n      dup2\n      mstore\n      0x04\n      add\n      tag_204\n      swap1\n      tag_205\n      jump\t// in\n    tag_204:\n      mload(0x40)\n      dup1\n      swap2\n      sub\n      swap1\n      revert\n    tag_203:\n        /* \"digital_contract.sol\":6712:6736  ContractStatus.Completed */\n      0x02\n        /* \"digital_contract.sol\":6693:6702  mContract */\n      dup2\n        /* \"digital_contract.sol\":6693:6709  mContract.status */\n      0x03\n      add\n      0x14\n        /* \"digital_contract.sol\":6693:6736  mContract.status = ContractStatus.Completed */\n      0x0100\n      exp\n      dup2\n      sload\n      dup2\n      0xff\n      mul\n      not\n      and\n      swap1\n      dup4\n      0x03\n      dup2\n      gt\n      iszero\n      tag_206\n      jumpi\n      tag_207\n      tag_113\n      jump\t// in\n    tag_207:\n    tag_206:\n      mul\n      or\n      swap1\n      sstore\n      pop\n        /* \"digital_contract.sol\":6793:6802  mContract */\n      dup1\n        /* \"digital_contract.sol\":6793:6809  mContract.amount */\n      0x01\n      add\n      sload\n        /* \"digital_contract.sol\":6747:6765  pendingWithdrawals */\n      0x04\n        /* \"digital_contract.sol\":6747:6789  pendingWithdrawals[mContract.counterparty] */\n      0x00\n        /* \"digital_contract.sol\":6766:6775  mContract */\n      dup4\n        /* \"digital_contract.sol\":6766:6788  mContract.counterparty */\n      0x03\n      add\n      0x00\n      swap1\n      sload\n      swap1\n      0x0100\n      exp\n      swap1\n      div\n      0xffffffffffffffffffffffffffffffffffffffff\n      and\n        /* \"digital_contract.sol\":6747:6789  pendingWithdrawals[mContract.counterparty] */\n      0xffffffffffffffffffffffffffffffffffffffff\n      and\n      0xffffffffffffffffffffffffffffffffffffffff\n      and\n      dup2\n      mstore\n      0x20\n      add\n      swap1\n      dup2\n      mstore\n      0x20\n      add\n      0x00\n      keccak256\n      0x00\n        /* \"digital_contract.sol\":6747:6809  pendingWithdrawals[mContract.counterparty] += mContract.amount */\n      dup3\n      dup3\n      sload\n      tag_208\n      swap2\n      swap1\n      tag_128\n      jump\t// in\n    tag_208:\n      swap3\n      pop\n      pop\n      dup2\n      swap1\n      sstore\n      pop\n        /* \"digital_contract.sol\":6856:6865  mContract */\n      dup1\n        /* \"digital_contract.sol\":6856:6878  mContract.counterparty */\n      0x03\n      add\n      0x00\n      swap1\n      sload\n      swap1\n      0x0100\n      exp\n      swap1\n      div\n      0xffffffffffffffffffffffffffffffffffffffff\n      and\n        /* \"digital_contract.sol\":6827:6897  PaymentReleased(_contractId, mContract.counterparty, mContract.amount) */\n      0xffffffffffffffffffffffffffffffffffffffff\n      and\n        /* \"digital_contract.sol\":6843:6854  _contractId */\n      dup4\n        /* \"digital_contract.sol\":6827:6897  PaymentReleased(_contractId, mContract.counterparty, mContract.amount) */\n      0x21d71db5be59bb9fa133895586b7404307dd33fb93b16db09dc6f1d9d7d231b0\n        /* \"digital_contract.sol\":6880:6889  mContract */\n      dup4\n        /* \"digital_contract.sol\":6880:6896  mContract.amount */\n      0x01\n      add\n      sload\n        /* \"digital_contract.sol\":6827:6897  PaymentReleased(_contractId, mContract.counterparty, mContract.amount) */\n      mload(0x40)\n      tag_209\n      swap2\n      swap1\n      tag_31\n      jump\t// in\n    tag_209:\n      mload(0x40)\n      dup1\n      swap2\n      sub\n      swap1\n      log3\n        /* \"digital_contract.sol\":6468:6905  {... */\n      pop\n        /* \"@openzeppelin/contracts/security/ReentrancyGuard.sol\":2292:2293  _ */\n      pop\n        /* \"@openzeppelin/contracts/security/ReentrancyGuard.sol\":2303:2323  _nonReentrantAfter() */\n      tag_210\n        /* \"@openzeppelin/contracts/security/ReentrancyGuard.sol\":2303:2321  _nonReentrantAfter */\n      tag_211\n        /* \"@openzeppelin/contracts/security/ReentrancyGuard.sol\":2303:2323  _nonReentrantAfter() */\n      jump\t// in\n    tag_210:\n        /* \"digital_contract.sol\":6375:6905  function confirmCompletion(uint256 _contractId) public nonReentrant onlyCreator(_contractId) {... */\n      pop\n      jump\t// out\n        /* \"digital_contract.sol\":3009:3339  function signContract(uint256 _contractId) public onlyCounterparty(_contractId) {... */\n    tag_76:\n        /* \"digital_contract.sol\":3076:3087  _contractId */\n      dup1\n        /* \"digital_contract.sol\":1709:1718  contracts */\n      0x02\n        /* \"digital_contract.sol\":1709:1731  contracts[_contractId] */\n      0x00\n        /* \"digital_contract.sol\":1719:1730  _contractId */\n      dup3\n        /* \"digital_contract.sol\":1709:1731  contracts[_contractId] */\n      dup2\n      mstore\n      0x20\n      add\n      swap1\n      dup2\n      mstore\n      0x20\n      add\n      0x00\n      keccak256\n        /* \"digital_contract.sol\":1709:1744  contracts[_contractId].counterparty */\n      0x03\n      add\n      0x00\n      swap1\n      sload\n      swap1\n      0x0100\n      exp\n      swap1\n      div\n      0xffffffffffffffffffffffffffffffffffffffff\n      and\n        /* \"digital_contract.sol\":1695:1744  msg.sender == contracts[_contractId].counterparty */\n      0xffffffffffffffffffffffffffffffffffffffff\n      and\n        /* \"digital_contract.sol\":1695:1705  msg.sender */\n      caller\n        /* \"digital_contract.sol\":1695:1744  msg.sender == contracts[_contractId].counterparty */\n      0xffffffffffffffffffffffffffffffffffffffff\n      and\n      eq\n        /* \"digital_contract.sol\":1687:1765  require(msg.sender == contracts[_contractId].counterparty, \"Not counterparty\") */\n      tag_213\n      jumpi\n      mload(0x40)\n      0x08c379a000000000000000000000000000000000000000000000000000000000\n      dup2\n      mstore\n      0x04\n      add\n      tag_214\n      swap1\n      tag_168\n      jump\t// in\n    tag_214:\n      mload(0x40)\n      dup1\n      swap2\n      sub\n      swap1\n      revert\n    tag_213:\n        /* \"digital_contract.sol\":3100:3133  ManagedContract storage mContract */\n      0x00\n        /* \"digital_contract.sol\":3136:3145  contracts */\n      0x02\n        /* \"digital_contract.sol\":3136:3158  contracts[_contractId] */\n      0x00\n        /* \"digital_contract.sol\":3146:3157  _contractId */\n      dup5\n        /* \"digital_contract.sol\":3136:3158  contracts[_contractId] */\n      dup2\n      mstore\n      0x20\n      add\n      swap1\n      dup2\n      mstore\n      0x20\n      add\n      0x00\n      keccak256\n        /* \"digital_contract.sol\":3100:3158  ManagedContract storage mContract = contracts[_contractId] */\n      swap1\n      pop\n        /* \"digital_contract.sol\":3197:3219  ContractStatus.Created */\n      0x00\n        /* \"digital_contract.sol\":3177:3219  mContract.status == ContractStatus.Created */\n      0x03\n      dup2\n      gt\n      iszero\n      tag_216\n      jumpi\n      tag_217\n      tag_113\n      jump\t// in\n    tag_217:\n    tag_216:\n        /* \"digital_contract.sol\":3177:3186  mContract */\n      dup2\n        /* \"digital_contract.sol\":3177:3193  mContract.status */\n      0x03\n      add\n      0x14\n      swap1\n      sload\n      swap1\n      0x0100\n      exp\n      swap1\n      div\n      0xff\n      and\n        /* \"digital_contract.sol\":3177:3219  mContract.status == ContractStatus.Created */\n      0x03\n      dup2\n      gt\n      iszero\n      tag_218\n      jumpi\n      tag_219\n      tag_113\n      jump\t// in\n    tag_219:\n    tag_218:\n      eq\n        /* \"digital_contract.sol\":3169:3235  require(mContract.status == ContractStatus.Created, \"Not Created\") */\n      tag_220\n      jumpi\n      mload(0x40)\n      0x08c379a000000000000000000000000000000000000000000000000000000000\n      dup2\n      mstore\n      0x04\n      add\n      tag_221\n      swap1\n      tag_222\n      jump\t// in\n    tag_221:\n      mload(0x40)\n      dup1\n      swap2\n      sub\n      swap1\n      revert\n    tag_220:\n        /* \"digital_contract.sol\":3267:3288  ContractStatus.Signed */\n      0x01\n        /* \"digital_contract.sol\":3248:3257  mContract */\n      dup2\n        /* \"digital_contract.sol\":3248:3264  mContract.status */\n      0x03\n      add\n      0x14\n        /* \"digital_contract.sol\":3248:3288  mContract.status = ContractStatus.Signed */\n      0x0100\n      exp\n      dup2\n      sload\n      dup2\n      0xff\n      mul\n      not\n      and\n      swap1\n      dup4\n      0x03\n      dup2\n      gt\n      iszero\n      tag_223\n      jumpi\n      tag_224\n      tag_113\n      jump\t// in\n    tag_224:\n    tag_223:\n      mul\n      or\n      swap1\n      sstore\n      pop\n        /* \"digital_contract.sol\":3319:3330  _contractId */\n      dup3\n        /* \"digital_contract.sol\":3304:3331  ContractSigned(_contractId) */\n      0xaf3c49f5413fd292e2325b0fe214de144a222b00cb6ec21214fdc04b5d6c5913\n      mload(0x40)\n      mload(0x40)\n      dup1\n      swap2\n      sub\n      swap1\n      log2\n        /* \"digital_contract.sol\":3089:3339  {... */\n      pop\n        /* \"digital_contract.sol\":3009:3339  function signContract(uint256 _contractId) public onlyCounterparty(_contractId) {... */\n      pop\n      pop\n      jump\t// out\n        /* \"digital_contract.sol\":2157:3001  function createContract(... */\n    tag_80:\n        /* \"digital_contract.sol\":2355:2356  0 */\n      0x00\n        /* \"digital_contract.sol\":2330:2357  _counterparty != address(0) */\n      0xffffffffffffffffffffffffffffffffffffffff\n      and\n        /* \"digital_contract.sol\":2330:2343  _counterparty */\n      dup4\n        /* \"digital_contract.sol\":2330:2357  _counterparty != address(0) */\n      0xffffffffffffffffffffffffffffffffffffffff\n      and\n      sub\n        /* \"digital_contract.sol\":2322:2380  require(_counterparty != address(0), \"0 addr not allowed\") */\n      tag_226\n      jumpi\n      mload(0x40)\n      0x08c379a000000000000000000000000000000000000000000000000000000000\n      dup2\n      mstore\n      0x04\n      add\n      tag_227\n      swap1\n      tag_228\n      jump\t// in\n    tag_227:\n      mload(0x40)\n      dup1\n      swap2\n      sub\n      swap1\n      revert\n    tag_226:\n        /* \"digital_contract.sol\":2412:2419  _amount */\n      dup1\n        /* \"digital_contract.sol\":2399:2408  msg.value */\n      callvalue\n        /* \"digital_contract.sol\":2399:2419  msg.value == _amount */\n      eq\n        /* \"digital_contract.sol\":2391:2436  require(msg.value == _amount, \"ETH mismatch\") */\n      tag_229\n      jumpi\n      mload(0x40)\n      0x08c379a000000000000000000000000000000000000000000000000000000000\n      dup2\n      mstore\n      0x04\n      add\n      tag_230\n      swap1\n      tag_231\n      jump\t// in\n    tag_230:\n      mload(0x40)\n      dup1\n      swap2\n      sub\n      swap1\n      revert\n    tag_229:\n        /* \"digital_contract.sol\":2489:2491  10 */\n      0x0a\n        /* \"digital_contract.sol\":2461:2478  _contractIPFSHash */\n      dup3\n        /* \"digital_contract.sol\":2455:2486  bytes(_contractIPFSHash).length */\n      mload\n        /* \"digital_contract.sol\":2455:2491  bytes(_contractIPFSHash).length > 10 */\n      gt\n        /* \"digital_contract.sol\":2447:2513  require(bytes(_contractIPFSHash).length > 10, \"Invalid IPFS hash\") */\n      tag_232\n      jumpi\n      mload(0x40)\n      0x08c379a000000000000000000000000000000000000000000000000000000000\n      dup2\n      mstore\n      0x04\n      add\n      tag_233\n      swap1\n      tag_234\n      jump\t// in\n    tag_233:\n      mload(0x40)\n      dup1\n      swap2\n      sub\n      swap1\n      revert\n    tag_232:\n        /* \"digital_contract.sol\":2526:2541  contractCounter */\n      0x03\n      0x00\n        /* \"digital_contract.sol\":2526:2543  contractCounter++ */\n      dup2\n      sload\n      dup1\n      swap3\n      swap2\n      swap1\n      tag_235\n      swap1\n      tag_236\n      jump\t// in\n    tag_235:\n      swap2\n      swap1\n      pop\n      sstore\n      pop\n        /* \"digital_contract.sol\":2554:2589  ManagedContract storage newContract */\n      0x00\n        /* \"digital_contract.sol\":2592:2601  contracts */\n      0x02\n        /* \"digital_contract.sol\":2592:2618  contracts[contractCounter] */\n      0x00\n        /* \"digital_contract.sol\":2602:2617  contractCounter */\n      sload(0x03)\n        /* \"digital_contract.sol\":2592:2618  contracts[contractCounter] */\n      dup2\n      mstore\n      0x20\n      add\n      swap1\n      dup2\n      mstore\n      0x20\n      add\n      0x00\n      keccak256\n        /* \"digital_contract.sol\":2554:2618  ManagedContract storage newContract = contracts[contractCounter] */\n      swap1\n      pop\n        /* \"digital_contract.sol\":2646:2661  contractCounter */\n      sload(0x03)\n        /* \"digital_contract.sol\":2629:2640  newContract */\n      dup2\n        /* \"digital_contract.sol\":2629:2643  newContract.id */\n      0x00\n      add\n        /* \"digital_contract.sol\":2629:2661  newContract.id = contractCounter */\n      dup2\n      swap1\n      sstore\n      pop\n        /* \"digital_contract.sol\":2693:2700  _amount */\n      dup2\n        /* \"digital_contract.sol\":2672:2683  newContract */\n      dup2\n        /* \"digital_contract.sol\":2672:2690  newContract.amount */\n      0x01\n      add\n        /* \"digital_contract.sol\":2672:2700  newContract.amount = _amount */\n      dup2\n      swap1\n      sstore\n      pop\n        /* \"digital_contract.sol\":2741:2751  msg.sender */\n      caller\n        /* \"digital_contract.sol\":2711:2722  newContract */\n      dup2\n        /* \"digital_contract.sol\":2711:2730  newContract.creator */\n      0x02\n      add\n      0x00\n        /* \"digital_contract.sol\":2711:2752  newContract.creator = payable(msg.sender) */\n      0x0100\n      exp\n      dup2\n      sload\n      dup2\n      0xffffffffffffffffffffffffffffffffffffffff\n      mul\n      not\n      and\n      swap1\n      dup4\n      0xffffffffffffffffffffffffffffffffffffffff\n      and\n      mul\n      or\n      swap1\n      sstore\n      pop\n        /* \"digital_contract.sol\":2790:2803  _counterparty */\n      dup4\n        /* \"digital_contract.sol\":2763:2774  newContract */\n      dup2\n        /* \"digital_contract.sol\":2763:2787  newContract.counterparty */\n      0x03\n      add\n      0x00\n        /* \"digital_contract.sol\":2763:2803  newContract.counterparty = _counterparty */\n      0x0100\n      exp\n      dup2\n      sload\n      dup2\n      0xffffffffffffffffffffffffffffffffffffffff\n      mul\n      not\n      and\n      swap1\n      dup4\n      0xffffffffffffffffffffffffffffffffffffffff\n      and\n      mul\n      or\n      swap1\n      sstore\n      pop\n        /* \"digital_contract.sol\":2835:2857  ContractStatus.Created */\n      0x00\n        /* \"digital_contract.sol\":2814:2825  newContract */\n      dup2\n        /* \"digital_contract.sol\":2814:2832  newContract.status */\n      0x03\n      add\n      0x14\n        /* \"digital_contract.sol\":2814:2857  newContract.status = ContractStatus.Created */\n      0x0100\n      exp\n      dup2\n      sload\n      dup2\n      0xff\n      mul\n      not\n      and\n      swap1\n      dup4\n      0x03\n      dup2\n      gt\n      iszero\n      tag_237\n      jumpi\n      tag_238\n      tag_113\n      jump\t// in\n    tag_238:\n    tag_237:\n      mul\n      or\n      swap1\n      sstore\n      pop\n        /* \"digital_contract.sol\":2899:2916  _contractIPFSHash */\n      dup3\n        /* \"digital_contract.sol\":2868:2879  newContract */\n      dup2\n        /* \"digital_contract.sol\":2868:2896  newContract.contractIPFSHash */\n      0x04\n      add\n        /* \"digital_contract.sol\":2868:2916  newContract.contractIPFSHash = _contractIPFSHash */\n      swap1\n      dup2\n      tag_239\n      swap2\n      swap1\n      tag_157\n      jump\t// in\n    tag_239:\n      pop\n        /* \"digital_contract.sol\":2950:2965  contractCounter */\n      sload(0x03)\n        /* \"digital_contract.sol\":2934:2993  ContractCreated(contractCounter, msg.sender, _counterparty) */\n      0x56560a52c047ed21fd801bf0f345b23d9af696f7922ff8e63101af5d48caddab\n        /* \"digital_contract.sol\":2967:2977  msg.sender */\n      caller\n        /* \"digital_contract.sol\":2979:2992  _counterparty */\n      dup7\n        /* \"digital_contract.sol\":2934:2993  ContractCreated(contractCounter, msg.sender, _counterparty) */\n      mload(0x40)\n      tag_240\n      swap3\n      swap2\n      swap1\n      tag_241\n      jump\t// in\n    tag_240:\n      mload(0x40)\n      dup1\n      swap2\n      sub\n      swap1\n      log2\n        /* \"digital_contract.sol\":2311:3001  {... */\n      pop\n        /* \"digital_contract.sol\":2157:3001  function createContract(... */\n      pop\n      pop\n      pop\n      jump\t// out\n        /* \"digital_contract.sol\":5439:6367  function forceApproveDeliveryAfterTimeout(uint256 _contractId) public nonReentrant onlyCounterparty(_contractId) {... */\n    tag_84:\n        /* \"@openzeppelin/contracts/security/ReentrancyGuard.sol\":2261:2282  _nonReentrantBefore() */\n      tag_243\n        /* \"@openzeppelin/contracts/security/ReentrancyGuard.sol\":2261:2280  _nonReentrantBefore */\n      tag_192\n        /* \"@openzeppelin/contracts/security/ReentrancyGuard.sol\":2261:2282  _nonReentrantBefore() */\n      jump\t// in\n    tag_243:\n        /* \"digital_contract.sol\":5539:5550  _contractId */\n      dup1\n        /* \"digital_contract.sol\":1709:1718  contracts */\n      0x02\n        /* \"digital_contract.sol\":1709:1731  contracts[_contractId] */\n      0x00\n        /* \"digital_contract.sol\":1719:1730  _contractId */\n      dup3\n        /* \"digital_contract.sol\":1709:1731  contracts[_contractId] */\n      dup2\n      mstore\n      0x20\n      add\n      swap1\n      dup2\n      mstore\n      0x20\n      add\n      0x00\n      keccak256\n        /* \"digital_contract.sol\":1709:1744  contracts[_contractId].counterparty */\n      0x03\n      add\n      0x00\n      swap1\n      sload\n      swap1\n      0x0100\n      exp\n      swap1\n      div\n      0xffffffffffffffffffffffffffffffffffffffff\n      and\n        /* \"digital_contract.sol\":1695:1744  msg.sender == contracts[_contractId].counterparty */\n      0xffffffffffffffffffffffffffffffffffffffff\n      and\n        /* \"digital_contract.sol\":1695:1705  msg.sender */\n      caller\n        /* \"digital_contract.sol\":1695:1744  msg.sender == contracts[_contractId].counterparty */\n      0xffffffffffffffffffffffffffffffffffffffff\n      and\n      eq\n        /* \"digital_contract.sol\":1687:1765  require(msg.sender == contracts[_contractId].counterparty, \"Not counterparty\") */\n      tag_245\n      jumpi\n      mload(0x40)\n      0x08c379a000000000000000000000000000000000000000000000000000000000\n      dup2\n      mstore\n      0x04\n      add\n      tag_246\n      swap1\n      tag_168\n      jump\t// in\n    tag_246:\n      mload(0x40)\n      dup1\n      swap2\n      sub\n      swap1\n      revert\n    tag_245:\n        /* \"digital_contract.sol\":5563:5596  ManagedContract storage mContract */\n      0x00\n        /* \"digital_contract.sol\":5599:5608  contracts */\n      0x02\n        /* \"digital_contract.sol\":5599:5621  contracts[_contractId] */\n      0x00\n        /* \"digital_contract.sol\":5609:5620  _contractId */\n      dup5\n        /* \"digital_contract.sol\":5599:5621  contracts[_contractId] */\n      dup2\n      mstore\n      0x20\n      add\n      swap1\n      dup2\n      mstore\n      0x20\n      add\n      0x00\n      keccak256\n        /* \"digital_contract.sol\":5563:5621  ManagedContract storage mContract = contracts[_contractId] */\n      swap1\n      pop\n        /* \"digital_contract.sol\":5640:5649  mContract */\n      dup1\n        /* \"digital_contract.sol\":5640:5666  mContract.deliveryRequired */\n      0x06\n      add\n      0x00\n      swap1\n      sload\n      swap1\n      0x0100\n      exp\n      swap1\n      div\n      0xff\n      and\n        /* \"digital_contract.sol\":5632:5682  require(mContract.deliveryRequired, \"No delivery\") */\n      tag_248\n      jumpi\n      mload(0x40)\n      0x08c379a000000000000000000000000000000000000000000000000000000000\n      dup2\n      mstore\n      0x04\n      add\n      tag_249\n      swap1\n      tag_110\n      jump\t// in\n    tag_249:\n      mload(0x40)\n      dup1\n      swap2\n      sub\n      swap1\n      revert\n    tag_248:\n        /* \"digital_contract.sol\":5721:5742  ContractStatus.Signed */\n      0x01\n        /* \"digital_contract.sol\":5701:5742  mContract.status == ContractStatus.Signed */\n      0x03\n      dup2\n      gt\n      iszero\n      tag_250\n      jumpi\n      tag_251\n      tag_113\n      jump\t// in\n    tag_251:\n    tag_250:\n        /* \"digital_contract.sol\":5701:5710  mContract */\n      dup2\n        /* \"digital_contract.sol\":5701:5717  mContract.status */\n      0x03\n      add\n      0x14\n      swap1\n      sload\n      swap1\n      0x0100\n      exp\n      swap1\n      div\n      0xff\n      and\n        /* \"digital_contract.sol\":5701:5742  mContract.status == ContractStatus.Signed */\n      0x03\n      dup2\n      gt\n      iszero\n      tag_252\n      jumpi\n      tag_253\n      tag_113\n      jump\t// in\n    tag_253:\n    tag_252:\n      eq\n        /* \"digital_contract.sol\":5693:5757  require(mContract.status == ContractStatus.Signed, \"Not Signed\") */\n      tag_254\n      jumpi\n      mload(0x40)\n      0x08c379a000000000000000000000000000000000000000000000000000000000\n      dup2\n      mstore\n      0x04\n      add\n      tag_255\n      swap1\n      tag_118\n      jump\t// in\n    tag_255:\n      mload(0x40)\n      dup1\n      swap2\n      sub\n      swap1\n      revert\n    tag_254:\n        /* \"digital_contract.sol\":5776:5785  mContract */\n      dup1\n        /* \"digital_contract.sol\":5776:5803  mContract.deliveryConfirmed */\n      0x06\n      add\n      0x01\n      swap1\n      sload\n      swap1\n      0x0100\n      exp\n      swap1\n      div\n      0xff\n      and\n        /* \"digital_contract.sol\":5768:5821  require(mContract.deliveryConfirmed, \"Not confirmed\") */\n      tag_256\n      jumpi\n      mload(0x40)\n      0x08c379a000000000000000000000000000000000000000000000000000000000\n      dup2\n      mstore\n      0x04\n      add\n      tag_257\n      swap1\n      tag_258\n      jump\t// in\n    tag_257:\n      mload(0x40)\n      dup1\n      swap2\n      sub\n      swap1\n      revert\n    tag_256:\n        /* \"digital_contract.sol\":5841:5850  mContract */\n      dup1\n        /* \"digital_contract.sol\":5841:5876  mContract.deliveryApprovedByCreator */\n      0x06\n      add\n      0x02\n      swap1\n      sload\n      swap1\n      0x0100\n      exp\n      swap1\n      div\n      0xff\n      and\n        /* \"digital_contract.sol\":5840:5876  !mContract.deliveryApprovedByCreator */\n      iszero\n        /* \"digital_contract.sol\":5832:5897  require(!mContract.deliveryApprovedByCreator, \"Already approved\") */\n      tag_259\n      jumpi\n      mload(0x40)\n      0x08c379a000000000000000000000000000000000000000000000000000000000\n      dup2\n      mstore\n      0x04\n      add\n      tag_260\n      swap1\n      tag_124\n      jump\t// in\n    tag_260:\n      mload(0x40)\n      dup1\n      swap2\n      sub\n      swap1\n      revert\n    tag_259:\n        /* \"digital_contract.sol\":5970:5976  7 days */\n      0x093a80\n        /* \"digital_contract.sol\":5935:5944  mContract */\n      dup2\n        /* \"digital_contract.sol\":5935:5967  mContract.oracleConfirmationTime */\n      0x07\n      add\n      sload\n        /* \"digital_contract.sol\":5935:5976  mContract.oracleConfirmationTime + 7 days */\n      tag_261\n      swap2\n      swap1\n      tag_128\n      jump\t// in\n    tag_261:\n        /* \"digital_contract.sol\":5916:5931  block.timestamp */\n      timestamp\n        /* \"digital_contract.sol\":5916:5976  block.timestamp >= mContract.oracleConfirmationTime + 7 days */\n      lt\n      iszero\n        /* \"digital_contract.sol\":5908:6000  require(block.timestamp >= mContract.oracleConfirmationTime + 7 days, \"Timeout not reached\") */\n      tag_262\n      jumpi\n      mload(0x40)\n      0x08c379a000000000000000000000000000000000000000000000000000000000\n      dup2\n      mstore\n      0x04\n      add\n      tag_263\n      swap1\n      tag_264\n      jump\t// in\n    tag_263:\n      mload(0x40)\n      dup1\n      swap2\n      sub\n      swap1\n      revert\n    tag_262:\n        /* \"digital_contract.sol\":6051:6055  true */\n      0x01\n        /* \"digital_contract.sol\":6013:6022  mContract */\n      dup2\n        /* \"digital_contract.sol\":6013:6048  mContract.deliveryApprovedByCreator */\n      0x06\n      add\n      0x02\n        /* \"digital_contract.sol\":6013:6055  mContract.deliveryApprovedByCreator = true */\n      0x0100\n      exp\n      dup2\n      sload\n      dup2\n      0xff\n      mul\n      not\n      and\n      swap1\n      dup4\n      iszero\n      iszero\n      mul\n      or\n      swap1\n      sstore\n      pop\n        /* \"digital_contract.sol\":6085:6109  ContractStatus.Completed */\n      0x02\n        /* \"digital_contract.sol\":6066:6075  mContract */\n      dup2\n        /* \"digital_contract.sol\":6066:6082  mContract.status */\n      0x03\n      add\n      0x14\n        /* \"digital_contract.sol\":6066:6109  mContract.status = ContractStatus.Completed */\n      0x0100\n      exp\n      dup2\n      sload\n      dup2\n      0xff\n      mul\n      not\n      and\n      swap1\n      dup4\n      0x03\n      dup2\n      gt\n      iszero\n      tag_265\n      jumpi\n      tag_266\n      tag_113\n      jump\t// in\n    tag_266:\n    tag_265:\n      mul\n      or\n      swap1\n      sstore\n      pop\n        /* \"digital_contract.sol\":6210:6219  mContract */\n      dup1\n        /* \"digital_contract.sol\":6210:6226  mContract.amount */\n      0x01\n      add\n      sload\n        /* \"digital_contract.sol\":6165:6183  pendingWithdrawals */\n      0x04\n        /* \"digital_contract.sol\":6165:6207  pendingWithdrawals[mContract.counterparty] */\n      0x00\n        /* \"digital_contract.sol\":6184:6193  mContract */\n      dup4\n        /* \"digital_contract.sol\":6184:6206  mContract.counterparty */\n      0x03\n      add\n      0x00\n      swap1\n      sload\n      swap1\n      0x0100\n      exp\n      swap1\n      div\n      0xffffffffffffffffffffffffffffffffffffffff\n      and\n        /* \"digital_contract.sol\":6165:6207  pendingWithdrawals[mContract.counterparty] */\n      0xffffffffffffffffffffffffffffffffffffffff\n      and\n      0xffffffffffffffffffffffffffffffffffffffff\n      and\n      dup2\n      mstore\n      0x20\n      add\n      swap1\n      dup2\n      mstore\n      0x20\n      add\n      0x00\n      keccak256\n      sload\n        /* \"digital_contract.sol\":6165:6226  pendingWithdrawals[mContract.counterparty] + mContract.amount */\n      tag_267\n      swap2\n      swap1\n      tag_128\n      jump\t// in\n    tag_267:\n        /* \"digital_contract.sol\":6120:6138  pendingWithdrawals */\n      0x04\n        /* \"digital_contract.sol\":6120:6162  pendingWithdrawals[mContract.counterparty] */\n      0x00\n        /* \"digital_contract.sol\":6139:6148  mContract */\n      dup4\n        /* \"digital_contract.sol\":6139:6161  mContract.counterparty */\n      0x03\n      add\n      0x00\n      swap1\n      sload\n      swap1\n      0x0100\n      exp\n      swap1\n      div\n      0xffffffffffffffffffffffffffffffffffffffff\n      and\n        /* \"digital_contract.sol\":6120:6162  pendingWithdrawals[mContract.counterparty] */\n      0xffffffffffffffffffffffffffffffffffffffff\n      and\n      0xffffffffffffffffffffffffffffffffffffffff\n      and\n      dup2\n      mstore\n      0x20\n      add\n      swap1\n      dup2\n      mstore\n      0x20\n      add\n      0x00\n      keccak256\n        /* \"digital_contract.sol\":6120:6226  pendingWithdrawals[mContract.counterparty] = pendingWithdrawals[mContract.counterparty] + mContract.amount */\n      dup2\n      swap1\n      sstore\n      pop\n        /* \"digital_contract.sol\":6261:6272  _contractId */\n      dup3\n        /* \"digital_contract.sol\":6244:6273  DeliveryApproved(_contractId) */\n      0x5c1e662f72ee6c85181b65fac5beb0390932b8c472f05b257151d041ac9ddffa\n      mload(0x40)\n      mload(0x40)\n      dup1\n      swap2\n      sub\n      swap1\n      log2\n        /* \"digital_contract.sol\":6318:6327  mContract */\n      dup1\n        /* \"digital_contract.sol\":6318:6340  mContract.counterparty */\n      0x03\n      add\n      0x00\n      swap1\n      sload\n      swap1\n      0x0100\n      exp\n      swap1\n      div\n      0xffffffffffffffffffffffffffffffffffffffff\n      and\n        /* \"digital_contract.sol\":6289:6359  PaymentReleased(_contractId, mContract.counterparty, mContract.amount) */\n      0xffffffffffffffffffffffffffffffffffffffff\n      and\n        /* \"digital_contract.sol\":6305:6316  _contractId */\n      dup4\n        /* \"digital_contract.sol\":6289:6359  PaymentReleased(_contractId, mContract.counterparty, mContract.amount) */\n      0x21d71db5be59bb9fa133895586b7404307dd33fb93b16db09dc6f1d9d7d231b0\n        /* \"digital_contract.sol\":6342:6351  mContract */\n      dup4\n        /* \"digital_contract.sol\":6342:6358  mContract.amount */\n      0x01\n      add\n      sload\n        /* \"digital_contract.sol\":6289:6359  PaymentReleased(_contractId, mContract.counterparty, mContract.amount) */\n      mload(0x40)\n      tag_268\n      swap2\n      swap1\n      tag_31\n      jump\t// in\n    tag_268:\n      mload(0x40)\n      dup1\n      swap2\n      sub\n      swap1\n      log3\n        /* \"digital_contract.sol\":5552:6367  {... */\n      pop\n        /* \"@openzeppelin/contracts/security/ReentrancyGuard.sol\":2292:2293  _ */\n      pop\n        /* \"@openzeppelin/contracts/security/ReentrancyGuard.sol\":2303:2323  _nonReentrantAfter() */\n      tag_269\n        /* \"@openzeppelin/contracts/security/ReentrancyGuard.sol\":2303:2321  _nonReentrantAfter */\n      tag_211\n        /* \"@openzeppelin/contracts/security/ReentrancyGuard.sol\":2303:2323  _nonReentrantAfter() */\n      jump\t// in\n    tag_269:\n        /* \"digital_contract.sol\":5439:6367  function forceApproveDeliveryAfterTimeout(uint256 _contractId) public nonReentrant onlyCounterparty(_contractId) {... */\n      pop\n      jump\t// out\n        /* \"digital_contract.sol\":3906:4621  function confirmDeliveryByOracle(uint256 _contractId, string memory _trackingNumber) public nonReentrant onlyOracle {... */\n    tag_88:\n        /* \"@openzeppelin/contracts/security/ReentrancyGuard.sol\":2261:2282  _nonReentrantBefore() */\n      tag_271\n        /* \"@openzeppelin/contracts/security/ReentrancyGuard.sol\":2261:2280  _nonReentrantBefore */\n      tag_192\n        /* \"@openzeppelin/contracts/security/ReentrancyGuard.sol\":2261:2282  _nonReentrantBefore() */\n      jump\t// in\n    tag_271:\n        /* \"digital_contract.sol\":1848:1854  oracle */\n      0x01\n      0x00\n      swap1\n      sload\n      swap1\n      0x0100\n      exp\n      swap1\n      div\n      0xffffffffffffffffffffffffffffffffffffffff\n      and\n        /* \"digital_contract.sol\":1834:1854  msg.sender == oracle */\n      0xffffffffffffffffffffffffffffffffffffffff\n      and\n        /* \"digital_contract.sol\":1834:1844  msg.sender */\n      caller\n        /* \"digital_contract.sol\":1834:1854  msg.sender == oracle */\n      0xffffffffffffffffffffffffffffffffffffffff\n      and\n      eq\n        /* \"digital_contract.sol\":1826:1869  require(msg.sender == oracle, \"Not oracle\") */\n      tag_273\n      jumpi\n      mload(0x40)\n      0x08c379a000000000000000000000000000000000000000000000000000000000\n      dup2\n      mstore\n      0x04\n      add\n      tag_274\n      swap1\n      tag_275\n      jump\t// in\n    tag_274:\n      mload(0x40)\n      dup1\n      swap2\n      sub\n      swap1\n      revert\n    tag_273:\n        /* \"digital_contract.sol\":4033:4066  ManagedContract storage mContract */\n      0x00\n        /* \"digital_contract.sol\":4069:4078  contracts */\n      0x02\n        /* \"digital_contract.sol\":4069:4091  contracts[_contractId] */\n      0x00\n        /* \"digital_contract.sol\":4079:4090  _contractId */\n      dup5\n        /* \"digital_contract.sol\":4069:4091  contracts[_contractId] */\n      dup2\n      mstore\n      0x20\n      add\n      swap1\n      dup2\n      mstore\n      0x20\n      add\n      0x00\n      keccak256\n        /* \"digital_contract.sol\":4033:4091  ManagedContract storage mContract = contracts[_contractId] */\n      swap1\n      pop\n        /* \"digital_contract.sol\":4110:4119  mContract */\n      dup1\n        /* \"digital_contract.sol\":4110:4136  mContract.deliveryRequired */\n      0x06\n      add\n      0x00\n      swap1\n      sload\n      swap1\n      0x0100\n      exp\n      swap1\n      div\n      0xff\n      and\n        /* \"digital_contract.sol\":4102:4152  require(mContract.deliveryRequired, \"No delivery\") */\n      tag_277\n      jumpi\n      mload(0x40)\n      0x08c379a000000000000000000000000000000000000000000000000000000000\n      dup2\n      mstore\n      0x04\n      add\n      tag_278\n      swap1\n      tag_110\n      jump\t// in\n    tag_278:\n      mload(0x40)\n      dup1\n      swap2\n      sub\n      swap1\n      revert\n    tag_277:\n        /* \"digital_contract.sol\":4191:4212  ContractStatus.Signed */\n      0x01\n        /* \"digital_contract.sol\":4171:4212  mContract.status == ContractStatus.Signed */\n      0x03\n      dup2\n      gt\n      iszero\n      tag_279\n      jumpi\n      tag_280\n      tag_113\n      jump\t// in\n    tag_280:\n    tag_279:\n        /* \"digital_contract.sol\":4171:4180  mContract */\n      dup2\n        /* \"digital_contract.sol\":4171:4187  mContract.status */\n      0x03\n      add\n      0x14\n      swap1\n      sload\n      swap1\n      0x0100\n      exp\n      swap1\n      div\n      0xff\n      and\n        /* \"digital_contract.sol\":4171:4212  mContract.status == ContractStatus.Signed */\n      0x03\n      dup2\n      gt\n      iszero\n      tag_281\n      jumpi\n      tag_282\n      tag_113\n      jump\t// in\n    tag_282:\n    tag_281:\n      eq\n        /* \"digital_contract.sol\":4163:4227  require(mContract.status == ContractStatus.Signed, \"Not Signed\") */\n      tag_283\n      jumpi\n      mload(0x40)\n      0x08c379a000000000000000000000000000000000000000000000000000000000\n      dup2\n      mstore\n      0x04\n      add\n      tag_284\n      swap1\n      tag_118\n      jump\t// in\n    tag_284:\n      mload(0x40)\n      dup1\n      swap2\n      sub\n      swap1\n      revert\n    tag_283:\n        /* \"digital_contract.sol\":4247:4256  mContract */\n      dup1\n        /* \"digital_contract.sol\":4247:4274  mContract.deliveryConfirmed */\n      0x06\n      add\n      0x01\n      swap1\n      sload\n      swap1\n      0x0100\n      exp\n      swap1\n      div\n      0xff\n      and\n        /* \"digital_contract.sol\":4246:4274  !mContract.deliveryConfirmed */\n      iszero\n        /* \"digital_contract.sol\":4238:4296  require(!mContract.deliveryConfirmed, \"Already confirmed\") */\n      tag_285\n      jumpi\n      mload(0x40)\n      0x08c379a000000000000000000000000000000000000000000000000000000000\n      dup2\n      mstore\n      0x04\n      add\n      tag_286\n      swap1\n      tag_287\n      jump\t// in\n    tag_286:\n      mload(0x40)\n      dup1\n      swap2\n      sub\n      swap1\n      revert\n    tag_285:\n        /* \"digital_contract.sol\":4386:4397  _contractId */\n      dup3\n        /* \"digital_contract.sol\":4399:4414  _trackingNumber */\n      dup3\n        /* \"digital_contract.sol\":4375:4415  abi.encode(_contractId, _trackingNumber) */\n      add(0x20, mload(0x40))\n      tag_288\n      swap3\n      swap2\n      swap1\n      tag_180\n      jump\t// in\n    tag_288:\n      mload(0x40)\n      0x20\n      dup2\n      dup4\n      sub\n      sub\n      dup2\n      mstore\n      swap1\n      0x40\n      mstore\n        /* \"digital_contract.sol\":4365:4416  keccak256(abi.encode(_contractId, _trackingNumber)) */\n      dup1\n      mload\n      swap1\n      0x20\n      add\n      keccak256\n        /* \"digital_contract.sol\":4331:4340  mContract */\n      dup2\n        /* \"digital_contract.sol\":4331:4361  mContract.deliveryTrackingHash */\n      0x05\n      add\n      sload\n        /* \"digital_contract.sol\":4331:4416  mContract.deliveryTrackingHash == keccak256(abi.encode(_contractId, _trackingNumber)) */\n      eq\n        /* \"digital_contract.sol\":4309:4457  require(... */\n      tag_289\n      jumpi\n      mload(0x40)\n      0x08c379a000000000000000000000000000000000000000000000000000000000\n      dup2\n      mstore\n      0x04\n      add\n      tag_290\n      swap1\n      tag_291\n      jump\t// in\n    tag_290:\n      mload(0x40)\n      dup1\n      swap2\n      sub\n      swap1\n      revert\n    tag_289:\n        /* \"digital_contract.sol\":4500:4504  true */\n      0x01\n        /* \"digital_contract.sol\":4470:4479  mContract */\n      dup2\n        /* \"digital_contract.sol\":4470:4497  mContract.deliveryConfirmed */\n      0x06\n      add\n      0x01\n        /* \"digital_contract.sol\":4470:4504  mContract.deliveryConfirmed = true */\n      0x0100\n      exp\n      dup2\n      sload\n      dup2\n      0xff\n      mul\n      not\n      and\n      swap1\n      dup4\n      iszero\n      iszero\n      mul\n      or\n      swap1\n      sstore\n      pop\n        /* \"digital_contract.sol\":4550:4565  block.timestamp */\n      timestamp\n        /* \"digital_contract.sol\":4515:4524  mContract */\n      dup2\n        /* \"digital_contract.sol\":4515:4547  mContract.oracleConfirmationTime */\n      0x07\n      add\n        /* \"digital_contract.sol\":4515:4565  mContract.oracleConfirmationTime = block.timestamp */\n      dup2\n      swap1\n      sstore\n      pop\n        /* \"digital_contract.sol\":4601:4612  _contractId */\n      dup3\n        /* \"digital_contract.sol\":4583:4613  DeliveryConfirmed(_contractId) */\n      0x375b4005eeae25d0e37d56e1b3841d3bb394b277efa2548de3293f5dcb7a3493\n      mload(0x40)\n      mload(0x40)\n      dup1\n      swap2\n      sub\n      swap1\n      log2\n        /* \"digital_contract.sol\":4022:4621  {... */\n      pop\n        /* \"@openzeppelin/contracts/security/ReentrancyGuard.sol\":2303:2323  _nonReentrantAfter() */\n      tag_292\n        /* \"@openzeppelin/contracts/security/ReentrancyGuard.sol\":2303:2321  _nonReentrantAfter */\n      tag_211\n        /* \"@openzeppelin/contracts/security/ReentrancyGuard.sol\":2303:2323  _nonReentrantAfter() */\n      jump\t// in\n    tag_292:\n        /* \"digital_contract.sol\":3906:4621  function confirmDeliveryByOracle(uint256 _contractId, string memory _trackingNumber) public nonReentrant onlyOracle {... */\n      pop\n      pop\n      jump\t// out\n        /* \"digital_contract.sol\":6913:7569  function withdrawFundsFrom(uint256 _contractId) public nonReentrant {... */\n    tag_92:\n        /* \"@openzeppelin/contracts/security/ReentrancyGuard.sol\":2261:2282  _nonReentrantBefore() */\n      tag_294\n        /* \"@openzeppelin/contracts/security/ReentrancyGuard.sol\":2261:2280  _nonReentrantBefore */\n      tag_192\n        /* \"@openzeppelin/contracts/security/ReentrancyGuard.sol\":2261:2282  _nonReentrantBefore() */\n      jump\t// in\n    tag_294:\n        /* \"digital_contract.sol\":6992:7025  ManagedContract storage mContract */\n      0x00\n        /* \"digital_contract.sol\":7028:7037  contracts */\n      0x02\n        /* \"digital_contract.sol\":7028:7050  contracts[_contractId] */\n      0x00\n        /* \"digital_contract.sol\":7038:7049  _contractId */\n      dup4\n        /* \"digital_contract.sol\":7028:7050  contracts[_contractId] */\n      dup2\n      mstore\n      0x20\n      add\n      swap1\n      dup2\n      mstore\n      0x20\n      add\n      0x00\n      keccak256\n        /* \"digital_contract.sol\":6992:7050  ManagedContract storage mContract = contracts[_contractId] */\n      swap1\n      pop\n        /* \"digital_contract.sol\":7089:7113  ContractStatus.Completed */\n      0x02\n        /* \"digital_contract.sol\":7069:7113  mContract.status == ContractStatus.Completed */\n      0x03\n      dup2\n      gt\n      iszero\n      tag_296\n      jumpi\n      tag_297\n      tag_113\n      jump\t// in\n    tag_297:\n    tag_296:\n        /* \"digital_contract.sol\":7069:7078  mContract */\n      dup2\n        /* \"digital_contract.sol\":7069:7085  mContract.status */\n      0x03\n      add\n      0x14\n      swap1\n      sload\n      swap1\n      0x0100\n      exp\n      swap1\n      div\n      0xff\n      and\n        /* \"digital_contract.sol\":7069:7113  mContract.status == ContractStatus.Completed */\n      0x03\n      dup2\n      gt\n      iszero\n      tag_298\n      jumpi\n      tag_299\n      tag_113\n      jump\t// in\n    tag_299:\n    tag_298:\n      eq\n        /* \"digital_contract.sol\":7061:7131  require(mContract.status == ContractStatus.Completed, \"Not completed\") */\n      tag_300\n      jumpi\n      mload(0x40)\n      0x08c379a000000000000000000000000000000000000000000000000000000000\n      dup2\n      mstore\n      0x04\n      add\n      tag_301\n      swap1\n      tag_302\n      jump\t// in\n    tag_301:\n      mload(0x40)\n      dup1\n      swap2\n      sub\n      swap1\n      revert\n    tag_300:\n        /* \"digital_contract.sol\":7176:7186  msg.sender */\n      caller\n        /* \"digital_contract.sol\":7150:7186  mContract.counterparty == msg.sender */\n      0xffffffffffffffffffffffffffffffffffffffff\n      and\n        /* \"digital_contract.sol\":7150:7159  mContract */\n      dup2\n        /* \"digital_contract.sol\":7150:7172  mContract.counterparty */\n      0x03\n      add\n      0x00\n      swap1\n      sload\n      swap1\n      0x0100\n      exp\n      swap1\n      div\n      0xffffffffffffffffffffffffffffffffffffffff\n      and\n        /* \"digital_contract.sol\":7150:7186  mContract.counterparty == msg.sender */\n      0xffffffffffffffffffffffffffffffffffffffff\n      and\n      eq\n        /* \"digital_contract.sol\":7142:7204  require(mContract.counterparty == msg.sender, \"Not recipient\") */\n      tag_303\n      jumpi\n      mload(0x40)\n      0x08c379a000000000000000000000000000000000000000000000000000000000\n      dup2\n      mstore\n      0x04\n      add\n      tag_304\n      swap1\n      tag_305\n      jump\t// in\n    tag_304:\n      mload(0x40)\n      dup1\n      swap2\n      sub\n      swap1\n      revert\n    tag_303:\n        /* \"digital_contract.sol\":7217:7231  uint256 amount */\n      0x00\n        /* \"digital_contract.sol\":7234:7243  mContract */\n      dup2\n        /* \"digital_contract.sol\":7234:7250  mContract.amount */\n      0x01\n      add\n      sload\n        /* \"digital_contract.sol\":7217:7250  uint256 amount = mContract.amount */\n      swap1\n      pop\n        /* \"digital_contract.sol\":7303:7309  amount */\n      dup1\n        /* \"digital_contract.sol\":7269:7287  pendingWithdrawals */\n      0x04\n        /* \"digital_contract.sol\":7269:7299  pendingWithdrawals[msg.sender] */\n      0x00\n        /* \"digital_contract.sol\":7288:7298  msg.sender */\n      caller\n        /* \"digital_contract.sol\":7269:7299  pendingWithdrawals[msg.sender] */\n      0xffffffffffffffffffffffffffffffffffffffff\n      and\n      0xffffffffffffffffffffffffffffffffffffffff\n      and\n      dup2\n      mstore\n      0x20\n      add\n      swap1\n      dup2\n      mstore\n      0x20\n      add\n      0x00\n      keccak256\n      sload\n        /* \"digital_contract.sol\":7269:7309  pendingWithdrawals[msg.sender] >= amount */\n      lt\n      iszero\n        /* \"digital_contract.sol\":7261:7324  require(pendingWithdrawals[msg.sender] >= amount, \"No balance\") */\n      tag_306\n      jumpi\n      mload(0x40)\n      0x08c379a000000000000000000000000000000000000000000000000000000000\n      dup2\n      mstore\n      0x04\n      add\n      tag_307\n      swap1\n      tag_308\n      jump\t// in\n    tag_307:\n      mload(0x40)\n      dup1\n      swap2\n      sub\n      swap1\n      revert\n    tag_306:\n        /* \"digital_contract.sol\":7371:7377  amount */\n      dup1\n        /* \"digital_contract.sol\":7337:7355  pendingWithdrawals */\n      0x04\n        /* \"digital_contract.sol\":7337:7367  pendingWithdrawals[msg.sender] */\n      0x00\n        /* \"digital_contract.sol\":7356:7366  msg.sender */\n      caller\n        /* \"digital_contract.sol\":7337:7367  pendingWithdrawals[msg.sender] */\n      0xffffffffffffffffffffffffffffffffffffffff\n      and\n      0xffffffffffffffffffffffffffffffffffffffff\n      and\n      dup2\n      mstore\n      0x20\n      add\n      swap1\n      dup2\n      mstore\n      0x20\n      add\n      0x00\n      keccak256\n      0x00\n        /* \"digital_contract.sol\":7337:7377  pendingWithdrawals[msg.sender] -= amount */\n      dup3\n      dup3\n      sload\n      tag_309\n      swap2\n      swap1\n      tag_310\n      jump\t// in\n    tag_309:\n      swap3\n      pop\n      pop\n      dup2\n      swap1\n      sstore\n      pop\n        /* \"digital_contract.sol\":7389:7401  bool success */\n      0x00\n        /* \"digital_contract.sol\":7415:7425  msg.sender */\n      caller\n        /* \"digital_contract.sol\":7407:7431  payable(msg.sender).call */\n      0xffffffffffffffffffffffffffffffffffffffff\n      and\n        /* \"digital_contract.sol\":7439:7445  amount */\n      dup3\n        /* \"digital_contract.sol\":7407:7450  payable(msg.sender).call{value: amount}(\"\") */\n      mload(0x40)\n      tag_311\n      swap1\n      tag_312\n      jump\t// in\n    tag_311:\n      0x00\n      mload(0x40)\n      dup1\n      dup4\n      sub\n      dup2\n      dup6\n      dup8\n      gas\n      call\n      swap3\n      pop\n      pop\n      pop\n      returndatasize\n      dup1\n      0x00\n      dup2\n      eq\n      tag_315\n      jumpi\n      mload(0x40)\n      swap2\n      pop\n      and(add(returndatasize, 0x3f), not(0x1f))\n      dup3\n      add\n      0x40\n      mstore\n      returndatasize\n      dup3\n      mstore\n      returndatasize\n      0x00\n      0x20\n      dup5\n      add\n      returndatacopy\n      jump(tag_314)\n    tag_315:\n      0x60\n      swap2\n      pop\n    tag_314:\n      pop\n        /* \"digital_contract.sol\":7388:7450  (bool success, ) = payable(msg.sender).call{value: amount}(\"\") */\n      pop\n      swap1\n      pop\n        /* \"digital_contract.sol\":7469:7476  success */\n      dup1\n        /* \"digital_contract.sol\":7461:7496  require(success, \"Withdraw failed\") */\n      tag_316\n      jumpi\n      mload(0x40)\n      0x08c379a000000000000000000000000000000000000000000000000000000000\n      dup2\n      mstore\n      0x04\n      add\n      tag_317\n      swap1\n      tag_318\n      jump\t// in\n    tag_317:\n      mload(0x40)\n      dup1\n      swap2\n      sub\n      swap1\n      revert\n    tag_316:\n        /* \"digital_contract.sol\":7542:7552  msg.sender */\n      caller\n        /* \"digital_contract.sol\":7514:7561  FundsWithdrawn(_contractId, msg.sender, amount) */\n      0xffffffffffffffffffffffffffffffffffffffff\n      and\n        /* \"digital_contract.sol\":7529:7540  _contractId */\n      dup5\n        /* \"digital_contract.sol\":7514:7561  FundsWithdrawn(_contractId, msg.sender, amount) */\n      0xf440aec6b52895984d061d622e6edeba6210f7c3e059be920663140c084560d7\n        /* \"digital_contract.sol\":7554:7560  amount */\n      dup5\n        /* \"digital_contract.sol\":7514:7561  FundsWithdrawn(_contractId, msg.sender, amount) */\n      mload(0x40)\n      tag_319\n      swap2\n      swap1\n      tag_31\n      jump\t// in\n    tag_319:\n      mload(0x40)\n      dup1\n      swap2\n      sub\n      swap1\n      log3\n        /* \"digital_contract.sol\":6981:7569  {... */\n      pop\n      pop\n      pop\n        /* \"@openzeppelin/contracts/security/ReentrancyGuard.sol\":2303:2323  _nonReentrantAfter() */\n      tag_320\n        /* \"@openzeppelin/contracts/security/ReentrancyGuard.sol\":2303:2321  _nonReentrantAfter */\n      tag_211\n        /* \"@openzeppelin/contracts/security/ReentrancyGuard.sol\":2303:2323  _nonReentrantAfter() */\n      jump\t// in\n    tag_320:\n        /* \"digital_contract.sol\":6913:7569  function withdrawFundsFrom(uint256 _contractId) public nonReentrant {... */\n      pop\n      jump\t// out\n        /* \"digital_contract.sol\":651:672  bool public oracleSet */\n    tag_95:\n      0x01\n      0x14\n      swap1\n      sload\n      swap1\n      0x0100\n      exp\n      swap1\n      div\n      0xff\n      and\n      dup2\n      jump\t// out\n        /* \"digital_contract.sol\":779:832  mapping(address => uint256) public pendingWithdrawals */\n    tag_101:\n      mstore(0x20, 0x04)\n      dup1\n      0x00\n      mstore\n      keccak256(0x00, 0x40)\n      0x00\n      swap2\n      pop\n      swap1\n      pop\n      sload\n      dup2\n      jump\t// out\n        /* \"@openzeppelin/contracts/security/ReentrancyGuard.sol\":2336:2623  function _nonReentrantBefore() private {... */\n    tag_192:\n        /* \"@openzeppelin/contracts/security/ReentrancyGuard.sol\":1759:1760  2 */\n      0x02\n        /* \"@openzeppelin/contracts/security/ReentrancyGuard.sol\":2468:2475  _status */\n      sload(0x00)\n        /* \"@openzeppelin/contracts/security/ReentrancyGuard.sol\":2468:2487  _status != _ENTERED */\n      sub\n        /* \"@openzeppelin/contracts/security/ReentrancyGuard.sol\":2460:2523  require(_status != _ENTERED, \"ReentrancyGuard: reentrant call\") */\n      tag_322\n      jumpi\n      mload(0x40)\n      0x08c379a000000000000000000000000000000000000000000000000000000000\n      dup2\n      mstore\n      0x04\n      add\n      tag_323\n      swap1\n      tag_324\n      jump\t// in\n    tag_323:\n      mload(0x40)\n      dup1\n      swap2\n      sub\n      swap1\n      revert\n    tag_322:\n        /* \"@openzeppelin/contracts/security/ReentrancyGuard.sol\":1759:1760  2 */\n      0x02\n        /* \"@openzeppelin/contracts/security/ReentrancyGuard.sol\":2598:2605  _status */\n      0x00\n        /* \"@openzeppelin/contracts/security/ReentrancyGuard.sol\":2598:2616  _status = _ENTERED */\n      dup2\n      swap1\n      sstore\n      pop\n        /* \"@openzeppelin/contracts/security/ReentrancyGuard.sol\":2336:2623  function _nonReentrantBefore() private {... */\n      jump\t// out\n        /* \"@openzeppelin/contracts/security/ReentrancyGuard.sol\":2629:2838  function _nonReentrantAfter() private {... */\n    tag_211:\n        /* \"@openzeppelin/contracts/security/ReentrancyGuard.sol\":1716:1717  1 */\n      0x01\n        /* \"@openzeppelin/contracts/security/ReentrancyGuard.sol\":2809:2816  _status */\n      0x00\n        /* \"@openzeppelin/contracts/security/ReentrancyGuard.sol\":2809:2831  _status = _NOT_ENTERED */\n      dup2\n      swap1\n      sstore\n      pop\n        /* \"@openzeppelin/contracts/security/ReentrancyGuard.sol\":2629:2838  function _nonReentrantAfter() private {... */\n      jump\t// out\n        /* \"#utility.yul\":7:82   */\n    tag_326:\n        /* \"#utility.yul\":40:46   */\n      0x00\n        /* \"#utility.yul\":73:75   */\n      0x40\n        /* \"#utility.yul\":67:76   */\n      mload\n        /* \"#utility.yul\":57:76   */\n      swap1\n      pop\n        /* \"#utility.yul\":7:82   */\n      swap1\n      jump\t// out\n        /* \"#utility.yul\":88:205   */\n    tag_327:\n        /* \"#utility.yul\":197:198   */\n      0x00\n        /* \"#utility.yul\":194:195   */\n      0x00\n        /* \"#utility.yul\":187:199   */\n      revert\n        /* \"#utility.yul\":211:328   */\n    tag_328:\n        /* \"#utility.yul\":320:321   */\n      0x00\n        /* \"#utility.yul\":317:318   */\n      0x00\n        /* \"#utility.yul\":310:322   */\n      revert\n        /* \"#utility.yul\":334:411   */\n    tag_329:\n        /* \"#utility.yul\":371:378   */\n      0x00\n        /* \"#utility.yul\":400:405   */\n      dup2\n        /* \"#utility.yul\":389:405   */\n      swap1\n      pop\n        /* \"#utility.yul\":334:411   */\n      swap2\n      swap1\n      pop\n      jump\t// out\n        /* \"#utility.yul\":417:539   */\n    tag_330:\n        /* \"#utility.yul\":490:514   */\n      tag_446\n        /* \"#utility.yul\":508:513   */\n      dup2\n        /* \"#utility.yul\":490:514   */\n      tag_329\n      jump\t// in\n    tag_446:\n        /* \"#utility.yul\":483:488   */\n      dup2\n        /* \"#utility.yul\":480:515   */\n      eq\n        /* \"#utility.yul\":470:533   */\n      tag_447\n      jumpi\n        /* \"#utility.yul\":529:530   */\n      0x00\n        /* \"#utility.yul\":526:527   */\n      0x00\n        /* \"#utility.yul\":519:531   */\n      revert\n        /* \"#utility.yul\":470:533   */\n    tag_447:\n        /* \"#utility.yul\":417:539   */\n      pop\n      jump\t// out\n        /* \"#utility.yul\":545:684   */\n    tag_331:\n        /* \"#utility.yul\":591:596   */\n      0x00\n        /* \"#utility.yul\":629:635   */\n      dup2\n        /* \"#utility.yul\":616:636   */\n      calldataload\n        /* \"#utility.yul\":607:636   */\n      swap1\n      pop\n        /* \"#utility.yul\":645:678   */\n      tag_449\n        /* \"#utility.yul\":672:677   */\n      dup2\n        /* \"#utility.yul\":645:678   */\n      tag_330\n      jump\t// in\n    tag_449:\n        /* \"#utility.yul\":545:684   */\n      swap3\n      swap2\n      pop\n      pop\n      jump\t// out\n        /* \"#utility.yul\":690:1019   */\n    tag_25:\n        /* \"#utility.yul\":749:755   */\n      0x00\n        /* \"#utility.yul\":798:800   */\n      0x20\n        /* \"#utility.yul\":786:795   */\n      dup3\n        /* \"#utility.yul\":777:784   */\n      dup5\n        /* \"#utility.yul\":773:796   */\n      sub\n        /* \"#utility.yul\":769:801   */\n      slt\n        /* \"#utility.yul\":766:885   */\n      iszero\n      tag_451\n      jumpi\n        /* \"#utility.yul\":804:883   */\n      tag_452\n      tag_327\n      jump\t// in\n    tag_452:\n        /* \"#utility.yul\":766:885   */\n    tag_451:\n        /* \"#utility.yul\":924:925   */\n      0x00\n        /* \"#utility.yul\":949:1002   */\n      tag_453\n        /* \"#utility.yul\":994:1001   */\n      dup5\n        /* \"#utility.yul\":985:991   */\n      dup3\n        /* \"#utility.yul\":974:983   */\n      dup6\n        /* \"#utility.yul\":970:992   */\n      add\n        /* \"#utility.yul\":949:1002   */\n      tag_331\n      jump\t// in\n    tag_453:\n        /* \"#utility.yul\":939:1002   */\n      swap2\n      pop\n        /* \"#utility.yul\":895:1012   */\n      pop\n        /* \"#utility.yul\":690:1019   */\n      swap3\n      swap2\n      pop\n      pop\n      jump\t// out\n        /* \"#utility.yul\":1025:1143   */\n    tag_332:\n        /* \"#utility.yul\":1112:1136   */\n      tag_455\n        /* \"#utility.yul\":1130:1135   */\n      dup2\n        /* \"#utility.yul\":1112:1136   */\n      tag_329\n      jump\t// in\n    tag_455:\n        /* \"#utility.yul\":1107:1110   */\n      dup3\n        /* \"#utility.yul\":1100:1137   */\n      mstore\n        /* \"#utility.yul\":1025:1143   */\n      pop\n      pop\n      jump\t// out\n        /* \"#utility.yul\":1149:1371   */\n    tag_31:\n        /* \"#utility.yul\":1242:1246   */\n      0x00\n        /* \"#utility.yul\":1280:1282   */\n      0x20\n        /* \"#utility.yul\":1269:1278   */\n      dup3\n        /* \"#utility.yul\":1265:1283   */\n      add\n        /* \"#utility.yul\":1257:1283   */\n      swap1\n      pop\n        /* \"#utility.yul\":1293:1364   */\n      tag_457\n        /* \"#utility.yul\":1361:1362   */\n      0x00\n        /* \"#utility.yul\":1350:1359   */\n      dup4\n        /* \"#utility.yul\":1346:1363   */\n      add\n        /* \"#utility.yul\":1337:1343   */\n      dup5\n        /* \"#utility.yul\":1293:1364   */\n      tag_332\n      jump\t// in\n    tag_457:\n        /* \"#utility.yul\":1149:1371   */\n      swap3\n      swap2\n      pop\n      pop\n      jump\t// out\n        /* \"#utility.yul\":1377:1557   */\n    tag_113:\n        /* \"#utility.yul\":1425:1502   */\n      0x4e487b7100000000000000000000000000000000000000000000000000000000\n        /* \"#utility.yul\":1422:1423   */\n      0x00\n        /* \"#utility.yul\":1415:1503   */\n      mstore\n        /* \"#utility.yul\":1522:1526   */\n      0x21\n        /* \"#utility.yul\":1519:1520   */\n      0x04\n        /* \"#utility.yul\":1512:1527   */\n      mstore\n        /* \"#utility.yul\":1546:1550   */\n      0x24\n        /* \"#utility.yul\":1543:1544   */\n      0x00\n        /* \"#utility.yul\":1536:1551   */\n      revert\n        /* \"#utility.yul\":1563:1685   */\n    tag_333:\n        /* \"#utility.yul\":1653:1654   */\n      0x04\n        /* \"#utility.yul\":1646:1651   */\n      dup2\n        /* \"#utility.yul\":1643:1655   */\n      lt\n        /* \"#utility.yul\":1633:1679   */\n      tag_460\n      jumpi\n        /* \"#utility.yul\":1659:1677   */\n      tag_461\n      tag_113\n      jump\t// in\n    tag_461:\n        /* \"#utility.yul\":1633:1679   */\n    tag_460:\n        /* \"#utility.yul\":1563:1685   */\n      pop\n      jump\t// out\n        /* \"#utility.yul\":1691:1836   */\n    tag_334:\n        /* \"#utility.yul\":1745:1752   */\n      0x00\n        /* \"#utility.yul\":1774:1779   */\n      dup2\n        /* \"#utility.yul\":1763:1779   */\n      swap1\n      pop\n        /* \"#utility.yul\":1780:1830   */\n      tag_463\n        /* \"#utility.yul\":1824:1829   */\n      dup3\n        /* \"#utility.yul\":1780:1830   */\n      tag_333\n      jump\t// in\n    tag_463:\n        /* \"#utility.yul\":1691:1836   */\n      swap2\n      swap1\n      pop\n      jump\t// out\n        /* \"#utility.yul\":1842:1987   */\n    tag_335:\n        /* \"#utility.yul\":1907:1916   */\n      0x00\n        /* \"#utility.yul\":1940:1981   */\n      tag_465\n        /* \"#utility.yul\":1975:1980   */\n      dup3\n        /* \"#utility.yul\":1940:1981   */\n      tag_334\n      jump\t// in\n    tag_465:\n        /* \"#utility.yul\":1927:1981   */\n      swap1\n      pop\n        /* \"#utility.yul\":1842:1987   */\n      swap2\n      swap1\n      pop\n      jump\t// out\n        /* \"#utility.yul\":1993:2154   */\n    tag_336:\n        /* \"#utility.yul\":2095:2147   */\n      tag_467\n        /* \"#utility.yul\":2141:2146   */\n      dup2\n        /* \"#utility.yul\":2095:2147   */\n      tag_335\n      jump\t// in\n    tag_467:\n        /* \"#utility.yul\":2090:2093   */\n      dup3\n        /* \"#utility.yul\":2083:2148   */\n      mstore\n        /* \"#utility.yul\":1993:2154   */\n      pop\n      pop\n      jump\t// out\n        /* \"#utility.yul\":2160:2412   */\n    tag_37:\n        /* \"#utility.yul\":2268:2272   */\n      0x00\n        /* \"#utility.yul\":2306:2308   */\n      0x20\n        /* \"#utility.yul\":2295:2304   */\n      dup3\n        /* \"#utility.yul\":2291:2309   */\n      add\n        /* \"#utility.yul\":2283:2309   */\n      swap1\n      pop\n        /* \"#utility.yul\":2319:2405   */\n      tag_469\n        /* \"#utility.yul\":2402:2403   */\n      0x00\n        /* \"#utility.yul\":2391:2400   */\n      dup4\n        /* \"#utility.yul\":2387:2404   */\n      add\n        /* \"#utility.yul\":2378:2384   */\n      dup5\n        /* \"#utility.yul\":2319:2405   */\n      tag_336\n      jump\t// in\n    tag_469:\n        /* \"#utility.yul\":2160:2412   */\n      swap3\n      swap2\n      pop\n      pop\n      jump\t// out\n        /* \"#utility.yul\":2418:2517   */\n    tag_337:\n        /* \"#utility.yul\":2470:2476   */\n      0x00\n        /* \"#utility.yul\":2504:2509   */\n      dup2\n        /* \"#utility.yul\":2498:2510   */\n      mload\n        /* \"#utility.yul\":2488:2510   */\n      swap1\n      pop\n        /* \"#utility.yul\":2418:2517   */\n      swap2\n      swap1\n      pop\n      jump\t// out\n        /* \"#utility.yul\":2523:2692   */\n    tag_338:\n        /* \"#utility.yul\":2607:2618   */\n      0x00\n        /* \"#utility.yul\":2641:2647   */\n      dup3\n        /* \"#utility.yul\":2636:2639   */\n      dup3\n        /* \"#utility.yul\":2629:2648   */\n      mstore\n        /* \"#utility.yul\":2681:2685   */\n      0x20\n        /* \"#utility.yul\":2676:2679   */\n      dup3\n        /* \"#utility.yul\":2672:2686   */\n      add\n        /* \"#utility.yul\":2657:2686   */\n      swap1\n      pop\n        /* \"#utility.yul\":2523:2692   */\n      swap3\n      swap2\n      pop\n      pop\n      jump\t// out\n        /* \"#utility.yul\":2698:2837   */\n    tag_339:\n        /* \"#utility.yul\":2787:2793   */\n      dup3\n        /* \"#utility.yul\":2782:2785   */\n      dup2\n        /* \"#utility.yul\":2777:2780   */\n      dup4\n        /* \"#utility.yul\":2771:2794   */\n      mcopy\n        /* \"#utility.yul\":2828:2829   */\n      0x00\n        /* \"#utility.yul\":2819:2825   */\n      dup4\n        /* \"#utility.yul\":2814:2817   */\n      dup4\n        /* \"#utility.yul\":2810:2826   */\n      add\n        /* \"#utility.yul\":2803:2830   */\n      mstore\n        /* \"#utility.yul\":2698:2837   */\n      pop\n      pop\n      pop\n      jump\t// out\n        /* \"#utility.yul\":2843:2945   */\n    tag_340:\n        /* \"#utility.yul\":2884:2890   */\n      0x00\n        /* \"#utility.yul\":2935:2937   */\n      0x1f\n        /* \"#utility.yul\":2931:2938   */\n      not\n        /* \"#utility.yul\":2926:2928   */\n      0x1f\n        /* \"#utility.yul\":2919:2924   */\n      dup4\n        /* \"#utility.yul\":2915:2929   */\n      add\n        /* \"#utility.yul\":2911:2939   */\n      and\n        /* \"#utility.yul\":2901:2939   */\n      swap1\n      pop\n        /* \"#utility.yul\":2843:2945   */\n      swap2\n      swap1\n      pop\n      jump\t// out\n        /* \"#utility.yul\":2951:3328   */\n    tag_341:\n        /* \"#utility.yul\":3039:3042   */\n      0x00\n        /* \"#utility.yul\":3067:3106   */\n      tag_475\n        /* \"#utility.yul\":3100:3105   */\n      dup3\n        /* \"#utility.yul\":3067:3106   */\n      tag_337\n      jump\t// in\n    tag_475:\n        /* \"#utility.yul\":3122:3193   */\n      tag_476\n        /* \"#utility.yul\":3186:3192   */\n      dup2\n        /* \"#utility.yul\":3181:3184   */\n      dup6\n        /* \"#utility.yul\":3122:3193   */\n      tag_338\n      jump\t// in\n    tag_476:\n        /* \"#utility.yul\":3115:3193   */\n      swap4\n      pop\n        /* \"#utility.yul\":3202:3267   */\n      tag_477\n        /* \"#utility.yul\":3260:3266   */\n      dup2\n        /* \"#utility.yul\":3255:3258   */\n      dup6\n        /* \"#utility.yul\":3248:3252   */\n      0x20\n        /* \"#utility.yul\":3241:3246   */\n      dup7\n        /* \"#utility.yul\":3237:3253   */\n      add\n        /* \"#utility.yul\":3202:3267   */\n      tag_339\n      jump\t// in\n    tag_477:\n        /* \"#utility.yul\":3292:3321   */\n      tag_478\n        /* \"#utility.yul\":3314:3320   */\n      dup2\n        /* \"#utility.yul\":3292:3321   */\n      tag_340\n      jump\t// in\n    tag_478:\n        /* \"#utility.yul\":3287:3290   */\n      dup5\n        /* \"#utility.yul\":3283:3322   */\n      add\n        /* \"#utility.yul\":3276:3322   */\n      swap2\n      pop\n        /* \"#utility.yul\":3043:3328   */\n      pop\n        /* \"#utility.yul\":2951:3328   */\n      swap3\n      swap2\n      pop\n      pop\n      jump\t// out\n        /* \"#utility.yul\":3334:3647   */\n    tag_43:\n        /* \"#utility.yul\":3447:3451   */\n      0x00\n        /* \"#utility.yul\":3485:3487   */\n      0x20\n        /* \"#utility.yul\":3474:3483   */\n      dup3\n        /* \"#utility.yul\":3470:3488   */\n      add\n        /* \"#utility.yul\":3462:3488   */\n      swap1\n      pop\n        /* \"#utility.yul\":3534:3543   */\n      dup2\n        /* \"#utility.yul\":3528:3532   */\n      dup2\n        /* \"#utility.yul\":3524:3544   */\n      sub\n        /* \"#utility.yul\":3520:3521   */\n      0x00\n        /* \"#utility.yul\":3509:3518   */\n      dup4\n        /* \"#utility.yul\":3505:3522   */\n      add\n        /* \"#utility.yul\":3498:3545   */\n      mstore\n        /* \"#utility.yul\":3562:3640   */\n      tag_480\n        /* \"#utility.yul\":3635:3639   */\n      dup2\n        /* \"#utility.yul\":3626:3632   */\n      dup5\n        /* \"#utility.yul\":3562:3640   */\n      tag_341\n      jump\t// in\n    tag_480:\n        /* \"#utility.yul\":3554:3640   */\n      swap1\n      pop\n        /* \"#utility.yul\":3334:3647   */\n      swap3\n      swap2\n      pop\n      pop\n      jump\t// out\n        /* \"#utility.yul\":3653:3779   */\n    tag_342:\n        /* \"#utility.yul\":3690:3697   */\n      0x00\n        /* \"#utility.yul\":3730:3772   */\n      0xffffffffffffffffffffffffffffffffffffffff\n        /* \"#utility.yul\":3723:3728   */\n      dup3\n        /* \"#utility.yul\":3719:3773   */\n      and\n        /* \"#utility.yul\":3708:3773   */\n      swap1\n      pop\n        /* \"#utility.yul\":3653:3779   */\n      swap2\n      swap1\n      pop\n      jump\t// out\n        /* \"#utility.yul\":3785:3889   */\n    tag_343:\n        /* \"#utility.yul\":3830:3837   */\n      0x00\n        /* \"#utility.yul\":3859:3883   */\n      tag_483\n        /* \"#utility.yul\":3877:3882   */\n      dup3\n        /* \"#utility.yul\":3859:3883   */\n      tag_342\n      jump\t// in\n    tag_483:\n        /* \"#utility.yul\":3848:3883   */\n      swap1\n      pop\n        /* \"#utility.yul\":3785:3889   */\n      swap2\n      swap1\n      pop\n      jump\t// out\n        /* \"#utility.yul\":3895:4037   */\n    tag_344:\n        /* \"#utility.yul\":3998:4030   */\n      tag_485\n        /* \"#utility.yul\":4024:4029   */\n      dup2\n        /* \"#utility.yul\":3998:4030   */\n      tag_343\n      jump\t// in\n    tag_485:\n        /* \"#utility.yul\":3993:3996   */\n      dup3\n        /* \"#utility.yul\":3986:4031   */\n      mstore\n        /* \"#utility.yul\":3895:4037   */\n      pop\n      pop\n      jump\t// out\n        /* \"#utility.yul\":4043:4120   */\n    tag_345:\n        /* \"#utility.yul\":4080:4087   */\n      0x00\n        /* \"#utility.yul\":4109:4114   */\n      dup2\n        /* \"#utility.yul\":4098:4114   */\n      swap1\n      pop\n        /* \"#utility.yul\":4043:4120   */\n      swap2\n      swap1\n      pop\n      jump\t// out\n        /* \"#utility.yul\":4126:4244   */\n    tag_346:\n        /* \"#utility.yul\":4213:4237   */\n      tag_488\n        /* \"#utility.yul\":4231:4236   */\n      dup2\n        /* \"#utility.yul\":4213:4237   */\n      tag_345\n      jump\t// in\n    tag_488:\n        /* \"#utility.yul\":4208:4211   */\n      dup3\n        /* \"#utility.yul\":4201:4238   */\n      mstore\n        /* \"#utility.yul\":4126:4244   */\n      pop\n      pop\n      jump\t// out\n        /* \"#utility.yul\":4250:4340   */\n    tag_347:\n        /* \"#utility.yul\":4284:4291   */\n      0x00\n        /* \"#utility.yul\":4327:4332   */\n      dup2\n        /* \"#utility.yul\":4320:4333   */\n      iszero\n        /* \"#utility.yul\":4313:4334   */\n      iszero\n        /* \"#utility.yul\":4302:4334   */\n      swap1\n      pop\n        /* \"#utility.yul\":4250:4340   */\n      swap2\n      swap1\n      pop\n      jump\t// out\n        /* \"#utility.yul\":4346:4455   */\n    tag_348:\n        /* \"#utility.yul\":4427:4448   */\n      tag_491\n        /* \"#utility.yul\":4442:4447   */\n      dup2\n        /* \"#utility.yul\":4427:4448   */\n      tag_347\n      jump\t// in\n    tag_491:\n        /* \"#utility.yul\":4422:4425   */\n      dup3\n        /* \"#utility.yul\":4415:4449   */\n      mstore\n        /* \"#utility.yul\":4346:4455   */\n      pop\n      pop\n      jump\t// out\n        /* \"#utility.yul\":4461:5942   */\n    tag_53:\n        /* \"#utility.yul\":4884:4888   */\n      0x00\n        /* \"#utility.yul\":4922:4925   */\n      0x0160\n        /* \"#utility.yul\":4911:4920   */\n      dup3\n        /* \"#utility.yul\":4907:4926   */\n      add\n        /* \"#utility.yul\":4899:4926   */\n      swap1\n      pop\n        /* \"#utility.yul\":4936:5007   */\n      tag_493\n        /* \"#utility.yul\":5004:5005   */\n      0x00\n        /* \"#utility.yul\":4993:5002   */\n      dup4\n        /* \"#utility.yul\":4989:5006   */\n      add\n        /* \"#utility.yul\":4980:4986   */\n      dup15\n        /* \"#utility.yul\":4936:5007   */\n      tag_332\n      jump\t// in\n    tag_493:\n        /* \"#utility.yul\":5017:5089   */\n      tag_494\n        /* \"#utility.yul\":5085:5087   */\n      0x20\n        /* \"#utility.yul\":5074:5083   */\n      dup4\n        /* \"#utility.yul\":5070:5088   */\n      add\n        /* \"#utility.yul\":5061:5067   */\n      dup14\n        /* \"#utility.yul\":5017:5089   */\n      tag_332\n      jump\t// in\n    tag_494:\n        /* \"#utility.yul\":5099:5187   */\n      tag_495\n        /* \"#utility.yul\":5183:5185   */\n      0x40\n        /* \"#utility.yul\":5172:5181   */\n      dup4\n        /* \"#utility.yul\":5168:5186   */\n      add\n        /* \"#utility.yul\":5159:5165   */\n      dup13\n        /* \"#utility.yul\":5099:5187   */\n      tag_344\n      jump\t// in\n    tag_495:\n        /* \"#utility.yul\":5197:5285   */\n      tag_496\n        /* \"#utility.yul\":5281:5283   */\n      0x60\n        /* \"#utility.yul\":5270:5279   */\n      dup4\n        /* \"#utility.yul\":5266:5284   */\n      add\n        /* \"#utility.yul\":5257:5263   */\n      dup12\n        /* \"#utility.yul\":5197:5285   */\n      tag_344\n      jump\t// in\n    tag_496:\n        /* \"#utility.yul\":5295:5383   */\n      tag_497\n        /* \"#utility.yul\":5378:5381   */\n      0x80\n        /* \"#utility.yul\":5367:5376   */\n      dup4\n        /* \"#utility.yul\":5363:5382   */\n      add\n        /* \"#utility.yul\":5354:5360   */\n      dup11\n        /* \"#utility.yul\":5295:5383   */\n      tag_336\n      jump\t// in\n    tag_497:\n        /* \"#utility.yul\":5431:5440   */\n      dup2\n        /* \"#utility.yul\":5425:5429   */\n      dup2\n        /* \"#utility.yul\":5421:5441   */\n      sub\n        /* \"#utility.yul\":5415:5418   */\n      0xa0\n        /* \"#utility.yul\":5404:5413   */\n      dup4\n        /* \"#utility.yul\":5400:5419   */\n      add\n        /* \"#utility.yul\":5393:5442   */\n      mstore\n        /* \"#utility.yul\":5459:5537   */\n      tag_498\n        /* \"#utility.yul\":5532:5536   */\n      dup2\n        /* \"#utility.yul\":5523:5529   */\n      dup10\n        /* \"#utility.yul\":5459:5537   */\n      tag_341\n      jump\t// in\n    tag_498:\n        /* \"#utility.yul\":5451:5537   */\n      swap1\n      pop\n        /* \"#utility.yul\":5547:5620   */\n      tag_499\n        /* \"#utility.yul\":5615:5618   */\n      0xc0\n        /* \"#utility.yul\":5604:5613   */\n      dup4\n        /* \"#utility.yul\":5600:5619   */\n      add\n        /* \"#utility.yul\":5591:5597   */\n      dup9\n        /* \"#utility.yul\":5547:5620   */\n      tag_346\n      jump\t// in\n    tag_499:\n        /* \"#utility.yul\":5630:5697   */\n      tag_500\n        /* \"#utility.yul\":5692:5695   */\n      0xe0\n        /* \"#utility.yul\":5681:5690   */\n      dup4\n        /* \"#utility.yul\":5677:5696   */\n      add\n        /* \"#utility.yul\":5668:5674   */\n      dup8\n        /* \"#utility.yul\":5630:5697   */\n      tag_348\n      jump\t// in\n    tag_500:\n        /* \"#utility.yul\":5707:5774   */\n      tag_501\n        /* \"#utility.yul\":5769:5772   */\n      0x0100\n        /* \"#utility.yul\":5758:5767   */\n      dup4\n        /* \"#utility.yul\":5754:5773   */\n      add\n        /* \"#utility.yul\":5745:5751   */\n      dup7\n        /* \"#utility.yul\":5707:5774   */\n      tag_348\n      jump\t// in\n    tag_501:\n        /* \"#utility.yul\":5784:5851   */\n      tag_502\n        /* \"#utility.yul\":5846:5849   */\n      0x0120\n        /* \"#utility.yul\":5835:5844   */\n      dup4\n        /* \"#utility.yul\":5831:5850   */\n      add\n        /* \"#utility.yul\":5822:5828   */\n      dup6\n        /* \"#utility.yul\":5784:5851   */\n      tag_348\n      jump\t// in\n    tag_502:\n        /* \"#utility.yul\":5861:5935   */\n      tag_503\n        /* \"#utility.yul\":5930:5933   */\n      0x0140\n        /* \"#utility.yul\":5919:5928   */\n      dup4\n        /* \"#utility.yul\":5915:5934   */\n      add\n        /* \"#utility.yul\":5905:5912   */\n      dup5\n        /* \"#utility.yul\":5861:5935   */\n      tag_332\n      jump\t// in\n    tag_503:\n        /* \"#utility.yul\":4461:5942   */\n      swap13\n      swap12\n      pop\n      pop\n      pop\n      pop\n      pop\n      pop\n      pop\n      pop\n      pop\n      pop\n      pop\n      pop\n      jump\t// out\n        /* \"#utility.yul\":5948:6065   */\n    tag_349:\n        /* \"#utility.yul\":6057:6058   */\n      0x00\n        /* \"#utility.yul\":6054:6055   */\n      0x00\n        /* \"#utility.yul\":6047:6059   */\n      revert\n        /* \"#utility.yul\":6071:6188   */\n    tag_350:\n        /* \"#utility.yul\":6180:6181   */\n      0x00\n        /* \"#utility.yul\":6177:6178   */\n      0x00\n        /* \"#utility.yul\":6170:6182   */\n      revert\n        /* \"#utility.yul\":6194:6374   */\n    tag_351:\n        /* \"#utility.yul\":6242:6319   */\n      0x4e487b7100000000000000000000000000000000000000000000000000000000\n        /* \"#utility.yul\":6239:6240   */\n      0x00\n        /* \"#utility.yul\":6232:6320   */\n      mstore\n        /* \"#utility.yul\":6339:6343   */\n      0x41\n        /* \"#utility.yul\":6336:6337   */\n      0x04\n        /* \"#utility.yul\":6329:6344   */\n      mstore\n        /* \"#utility.yul\":6363:6367   */\n      0x24\n        /* \"#utility.yul\":6360:6361   */\n      0x00\n        /* \"#utility.yul\":6353:6368   */\n      revert\n        /* \"#utility.yul\":6380:6661   */\n    tag_352:\n        /* \"#utility.yul\":6463:6490   */\n      tag_508\n        /* \"#utility.yul\":6485:6489   */\n      dup3\n        /* \"#utility.yul\":6463:6490   */\n      tag_340\n      jump\t// in\n    tag_508:\n        /* \"#utility.yul\":6455:6461   */\n      dup2\n        /* \"#utility.yul\":6451:6491   */\n      add\n        /* \"#utility.yul\":6593:6599   */\n      dup2\n        /* \"#utility.yul\":6581:6591   */\n      dup2\n        /* \"#utility.yul\":6578:6600   */\n      lt\n        /* \"#utility.yul\":6557:6575   */\n      0xffffffffffffffff\n        /* \"#utility.yul\":6545:6555   */\n      dup3\n        /* \"#utility.yul\":6542:6576   */\n      gt\n        /* \"#utility.yul\":6539:6601   */\n      or\n        /* \"#utility.yul\":6536:6624   */\n      iszero\n      tag_509\n      jumpi\n        /* \"#utility.yul\":6604:6622   */\n      tag_510\n      tag_351\n      jump\t// in\n    tag_510:\n        /* \"#utility.yul\":6536:6624   */\n    tag_509:\n        /* \"#utility.yul\":6644:6654   */\n      dup1\n        /* \"#utility.yul\":6640:6642   */\n      0x40\n        /* \"#utility.yul\":6633:6655   */\n      mstore\n        /* \"#utility.yul\":6423:6661   */\n      pop\n        /* \"#utility.yul\":6380:6661   */\n      pop\n      pop\n      jump\t// out\n        /* \"#utility.yul\":6667:6796   */\n    tag_353:\n        /* \"#utility.yul\":6701:6707   */\n      0x00\n        /* \"#utility.yul\":6728:6748   */\n      tag_512\n      tag_326\n      jump\t// in\n    tag_512:\n        /* \"#utility.yul\":6718:6748   */\n      swap1\n      pop\n        /* \"#utility.yul\":6757:6790   */\n      tag_513\n        /* \"#utility.yul\":6785:6789   */\n      dup3\n        /* \"#utility.yul\":6777:6783   */\n      dup3\n        /* \"#utility.yul\":6757:6790   */\n      tag_352\n      jump\t// in\n    tag_513:\n        /* \"#utility.yul\":6667:6796   */\n      swap2\n      swap1\n      pop\n      jump\t// out\n        /* \"#utility.yul\":6802:7110   */\n    tag_354:\n        /* \"#utility.yul\":6864:6868   */\n      0x00\n        /* \"#utility.yul\":6954:6972   */\n      0xffffffffffffffff\n        /* \"#utility.yul\":6946:6952   */\n      dup3\n        /* \"#utility.yul\":6943:6973   */\n      gt\n        /* \"#utility.yul\":6940:6996   */\n      iszero\n      tag_515\n      jumpi\n        /* \"#utility.yul\":6976:6994   */\n      tag_516\n      tag_351\n      jump\t// in\n    tag_516:\n        /* \"#utility.yul\":6940:6996   */\n    tag_515:\n        /* \"#utility.yul\":7014:7043   */\n      tag_517\n        /* \"#utility.yul\":7036:7042   */\n      dup3\n        /* \"#utility.yul\":7014:7043   */\n      tag_340\n      jump\t// in\n    tag_517:\n        /* \"#utility.yul\":7006:7043   */\n      swap1\n      pop\n        /* \"#utility.yul\":7098:7102   */\n      0x20\n        /* \"#utility.yul\":7092:7096   */\n      dup2\n        /* \"#utility.yul\":7088:7103   */\n      add\n        /* \"#utility.yul\":7080:7103   */\n      swap1\n      pop\n        /* \"#utility.yul\":6802:7110   */\n      swap2\n      swap1\n      pop\n      jump\t// out\n        /* \"#utility.yul\":7116:7264   */\n    tag_355:\n        /* \"#utility.yul\":7214:7220   */\n      dup3\n        /* \"#utility.yul\":7209:7212   */\n      dup2\n        /* \"#utility.yul\":7204:7207   */\n      dup4\n        /* \"#utility.yul\":7191:7221   */\n      calldatacopy\n        /* \"#utility.yul\":7255:7256   */\n      0x00\n        /* \"#utility.yul\":7246:7252   */\n      dup4\n        /* \"#utility.yul\":7241:7244   */\n      dup4\n        /* \"#utility.yul\":7237:7253   */\n      add\n        /* \"#utility.yul\":7230:7257   */\n      mstore\n        /* \"#utility.yul\":7116:7264   */\n      pop\n      pop\n      pop\n      jump\t// out\n        /* \"#utility.yul\":7270:7695   */\n    tag_356:\n        /* \"#utility.yul\":7348:7353   */\n      0x00\n        /* \"#utility.yul\":7373:7439   */\n      tag_520\n        /* \"#utility.yul\":7389:7438   */\n      tag_521\n        /* \"#utility.yul\":7431:7437   */\n      dup5\n        /* \"#utility.yul\":7389:7438   */\n      tag_354\n      jump\t// in\n    tag_521:\n        /* \"#utility.yul\":7373:7439   */\n      tag_353\n      jump\t// in\n    tag_520:\n        /* \"#utility.yul\":7364:7439   */\n      swap1\n      pop\n        /* \"#utility.yul\":7462:7468   */\n      dup3\n        /* \"#utility.yul\":7455:7460   */\n      dup2\n        /* \"#utility.yul\":7448:7469   */\n      mstore\n        /* \"#utility.yul\":7500:7504   */\n      0x20\n        /* \"#utility.yul\":7493:7498   */\n      dup2\n        /* \"#utility.yul\":7489:7505   */\n      add\n        /* \"#utility.yul\":7538:7541   */\n      dup5\n        /* \"#utility.yul\":7529:7535   */\n      dup5\n        /* \"#utility.yul\":7524:7527   */\n      dup5\n        /* \"#utility.yul\":7520:7536   */\n      add\n        /* \"#utility.yul\":7517:7542   */\n      gt\n        /* \"#utility.yul\":7514:7626   */\n      iszero\n      tag_522\n      jumpi\n        /* \"#utility.yul\":7545:7624   */\n      tag_523\n      tag_350\n      jump\t// in\n    tag_523:\n        /* \"#utility.yul\":7514:7626   */\n    tag_522:\n        /* \"#utility.yul\":7635:7689   */\n      tag_524\n        /* \"#utility.yul\":7682:7688   */\n      dup5\n        /* \"#utility.yul\":7677:7680   */\n      dup3\n        /* \"#utility.yul\":7672:7675   */\n      dup6\n        /* \"#utility.yul\":7635:7689   */\n      tag_355\n      jump\t// in\n    tag_524:\n        /* \"#utility.yul\":7354:7695   */\n      pop\n        /* \"#utility.yul\":7270:7695   */\n      swap4\n      swap3\n      pop\n      pop\n      pop\n      jump\t// out\n        /* \"#utility.yul\":7715:8055   */\n    tag_357:\n        /* \"#utility.yul\":7771:7776   */\n      0x00\n        /* \"#utility.yul\":7820:7823   */\n      dup3\n        /* \"#utility.yul\":7813:7817   */\n      0x1f\n        /* \"#utility.yul\":7805:7811   */\n      dup4\n        /* \"#utility.yul\":7801:7818   */\n      add\n        /* \"#utility.yul\":7797:7824   */\n      slt\n        /* \"#utility.yul\":7787:7909   */\n      tag_526\n      jumpi\n        /* \"#utility.yul\":7828:7907   */\n      tag_527\n      tag_349\n      jump\t// in\n    tag_527:\n        /* \"#utility.yul\":7787:7909   */\n    tag_526:\n        /* \"#utility.yul\":7945:7951   */\n      dup2\n        /* \"#utility.yul\":7932:7952   */\n      calldataload\n        /* \"#utility.yul\":7970:8049   */\n      tag_528\n        /* \"#utility.yul\":8045:8048   */\n      dup5\n        /* \"#utility.yul\":8037:8043   */\n      dup3\n        /* \"#utility.yul\":8030:8034   */\n      0x20\n        /* \"#utility.yul\":8022:8028   */\n      dup7\n        /* \"#utility.yul\":8018:8035   */\n      add\n        /* \"#utility.yul\":7970:8049   */\n      tag_356\n      jump\t// in\n    tag_528:\n        /* \"#utility.yul\":7961:8049   */\n      swap2\n      pop\n        /* \"#utility.yul\":7777:8055   */\n      pop\n        /* \"#utility.yul\":7715:8055   */\n      swap3\n      swap2\n      pop\n      pop\n      jump\t// out\n        /* \"#utility.yul\":8061:8715   */\n    tag_57:\n        /* \"#utility.yul\":8139:8145   */\n      0x00\n        /* \"#utility.yul\":8147:8153   */\n      0x00\n        /* \"#utility.yul\":8196:8198   */\n      0x40\n        /* \"#utility.yul\":8184:8193   */\n      dup4\n        /* \"#utility.yul\":8175:8182   */\n      dup6\n        /* \"#utility.yul\":8171:8194   */\n      sub\n        /* \"#utility.yul\":8167:8199   */\n      slt\n        /* \"#utility.yul\":8164:8283   */\n      iszero\n      tag_530\n      jumpi\n        /* \"#utility.yul\":8202:8281   */\n      tag_531\n      tag_327\n      jump\t// in\n    tag_531:\n        /* \"#utility.yul\":8164:8283   */\n    tag_530:\n        /* \"#utility.yul\":8322:8323   */\n      0x00\n        /* \"#utility.yul\":8347:8400   */\n      tag_532\n        /* \"#utility.yul\":8392:8399   */\n      dup6\n        /* \"#utility.yul\":8383:8389   */\n      dup3\n        /* \"#utility.yul\":8372:8381   */\n      dup7\n        /* \"#utility.yul\":8368:8390   */\n      add\n        /* \"#utility.yul\":8347:8400   */\n      tag_331\n      jump\t// in\n    tag_532:\n        /* \"#utility.yul\":8337:8400   */\n      swap3\n      pop\n        /* \"#utility.yul\":8293:8410   */\n      pop\n        /* \"#utility.yul\":8477:8479   */\n      0x20\n        /* \"#utility.yul\":8466:8475   */\n      dup4\n        /* \"#utility.yul\":8462:8480   */\n      add\n        /* \"#utility.yul\":8449:8481   */\n      calldataload\n        /* \"#utility.yul\":8508:8526   */\n      0xffffffffffffffff\n        /* \"#utility.yul\":8500:8506   */\n      dup2\n        /* \"#utility.yul\":8497:8527   */\n      gt\n        /* \"#utility.yul\":8494:8611   */\n      iszero\n      tag_533\n      jumpi\n        /* \"#utility.yul\":8530:8609   */\n      tag_534\n      tag_328\n      jump\t// in\n    tag_534:\n        /* \"#utility.yul\":8494:8611   */\n    tag_533:\n        /* \"#utility.yul\":8635:8698   */\n      tag_535\n        /* \"#utility.yul\":8690:8697   */\n      dup6\n        /* \"#utility.yul\":8681:8687   */\n      dup3\n        /* \"#utility.yul\":8670:8679   */\n      dup7\n        /* \"#utility.yul\":8666:8688   */\n      add\n        /* \"#utility.yul\":8635:8698   */\n      tag_357\n      jump\t// in\n    tag_535:\n        /* \"#utility.yul\":8625:8698   */\n      swap2\n      pop\n        /* \"#utility.yul\":8420:8708   */\n      pop\n        /* \"#utility.yul\":8061:8715   */\n      swap3\n      pop\n      swap3\n      swap1\n      pop\n      jump\t// out\n        /* \"#utility.yul\":8721:8817   */\n    tag_358:\n        /* \"#utility.yul\":8758:8765   */\n      0x00\n        /* \"#utility.yul\":8787:8811   */\n      tag_537\n        /* \"#utility.yul\":8805:8810   */\n      dup3\n        /* \"#utility.yul\":8787:8811   */\n      tag_342\n      jump\t// in\n    tag_537:\n        /* \"#utility.yul\":8776:8811   */\n      swap1\n      pop\n        /* \"#utility.yul\":8721:8817   */\n      swap2\n      swap1\n      pop\n      jump\t// out\n        /* \"#utility.yul\":8823:8945   */\n    tag_359:\n        /* \"#utility.yul\":8896:8920   */\n      tag_539\n        /* \"#utility.yul\":8914:8919   */\n      dup2\n        /* \"#utility.yul\":8896:8920   */\n      tag_358\n      jump\t// in\n    tag_539:\n        /* \"#utility.yul\":8889:8894   */\n      dup2\n        /* \"#utility.yul\":8886:8921   */\n      eq\n        /* \"#utility.yul\":8876:8939   */\n      tag_540\n      jumpi\n        /* \"#utility.yul\":8935:8936   */\n      0x00\n        /* \"#utility.yul\":8932:8933   */\n      0x00\n        /* \"#utility.yul\":8925:8937   */\n      revert\n        /* \"#utility.yul\":8876:8939   */\n    tag_540:\n        /* \"#utility.yul\":8823:8945   */\n      pop\n      jump\t// out\n        /* \"#utility.yul\":8951:9090   */\n    tag_360:\n        /* \"#utility.yul\":8997:9002   */\n      0x00\n        /* \"#utility.yul\":9035:9041   */\n      dup2\n        /* \"#utility.yul\":9022:9042   */\n      calldataload\n        /* \"#utility.yul\":9013:9042   */\n      swap1\n      pop\n        /* \"#utility.yul\":9051:9084   */\n      tag_542\n        /* \"#utility.yul\":9078:9083   */\n      dup2\n        /* \"#utility.yul\":9051:9084   */\n      tag_359\n      jump\t// in\n    tag_542:\n        /* \"#utility.yul\":8951:9090   */\n      swap3\n      swap2\n      pop\n      pop\n      jump\t// out\n        /* \"#utility.yul\":9096:9425   */\n    tag_62:\n        /* \"#utility.yul\":9155:9161   */\n      0x00\n        /* \"#utility.yul\":9204:9206   */\n      0x20\n        /* \"#utility.yul\":9192:9201   */\n      dup3\n        /* \"#utility.yul\":9183:9190   */\n      dup5\n        /* \"#utility.yul\":9179:9202   */\n      sub\n        /* \"#utility.yul\":9175:9207   */\n      slt\n        /* \"#utility.yul\":9172:9291   */\n      iszero\n      tag_544\n      jumpi\n        /* \"#utility.yul\":9210:9289   */\n      tag_545\n      tag_327\n      jump\t// in\n    tag_545:\n        /* \"#utility.yul\":9172:9291   */\n    tag_544:\n        /* \"#utility.yul\":9330:9331   */\n      0x00\n        /* \"#utility.yul\":9355:9408   */\n      tag_546\n        /* \"#utility.yul\":9400:9407   */\n      dup5\n        /* \"#utility.yul\":9391:9397   */\n      dup3\n        /* \"#utility.yul\":9380:9389   */\n      dup6\n        /* \"#utility.yul\":9376:9398   */\n      add\n        /* \"#utility.yul\":9355:9408   */\n      tag_360\n      jump\t// in\n    tag_546:\n        /* \"#utility.yul\":9345:9408   */\n      swap2\n      pop\n        /* \"#utility.yul\":9301:9418   */\n      pop\n        /* \"#utility.yul\":9096:9425   */\n      swap3\n      swap2\n      pop\n      pop\n      jump\t// out\n        /* \"#utility.yul\":9431:9549   */\n    tag_361:\n        /* \"#utility.yul\":9518:9542   */\n      tag_548\n        /* \"#utility.yul\":9536:9541   */\n      dup2\n        /* \"#utility.yul\":9518:9542   */\n      tag_358\n      jump\t// in\n    tag_548:\n        /* \"#utility.yul\":9513:9516   */\n      dup3\n        /* \"#utility.yul\":9506:9543   */\n      mstore\n        /* \"#utility.yul\":9431:9549   */\n      pop\n      pop\n      jump\t// out\n        /* \"#utility.yul\":9555:9777   */\n    tag_68:\n        /* \"#utility.yul\":9648:9652   */\n      0x00\n        /* \"#utility.yul\":9686:9688   */\n      0x20\n        /* \"#utility.yul\":9675:9684   */\n      dup3\n        /* \"#utility.yul\":9671:9689   */\n      add\n        /* \"#utility.yul\":9663:9689   */\n      swap1\n      pop\n        /* \"#utility.yul\":9699:9770   */\n      tag_550\n        /* \"#utility.yul\":9767:9768   */\n      0x00\n        /* \"#utility.yul\":9756:9765   */\n      dup4\n        /* \"#utility.yul\":9752:9769   */\n      add\n        /* \"#utility.yul\":9743:9749   */\n      dup5\n        /* \"#utility.yul\":9699:9770   */\n      tag_361\n      jump\t// in\n    tag_550:\n        /* \"#utility.yul\":9555:9777   */\n      swap3\n      swap2\n      pop\n      pop\n      jump\t// out\n        /* \"#utility.yul\":9783:9921   */\n    tag_362:\n        /* \"#utility.yul\":9864:9896   */\n      tag_552\n        /* \"#utility.yul\":9890:9895   */\n      dup2\n        /* \"#utility.yul\":9864:9896   */\n      tag_343\n      jump\t// in\n    tag_552:\n        /* \"#utility.yul\":9857:9862   */\n      dup2\n        /* \"#utility.yul\":9854:9897   */\n      eq\n        /* \"#utility.yul\":9844:9915   */\n      tag_553\n      jumpi\n        /* \"#utility.yul\":9911:9912   */\n      0x00\n        /* \"#utility.yul\":9908:9909   */\n      0x00\n        /* \"#utility.yul\":9901:9913   */\n      revert\n        /* \"#utility.yul\":9844:9915   */\n    tag_553:\n        /* \"#utility.yul\":9783:9921   */\n      pop\n      jump\t// out\n        /* \"#utility.yul\":9927:10082   */\n    tag_363:\n        /* \"#utility.yul\":9981:9986   */\n      0x00\n        /* \"#utility.yul\":10019:10025   */\n      dup2\n        /* \"#utility.yul\":10006:10026   */\n      calldataload\n        /* \"#utility.yul\":9997:10026   */\n      swap1\n      pop\n        /* \"#utility.yul\":10035:10076   */\n      tag_555\n        /* \"#utility.yul\":10070:10075   */\n      dup2\n        /* \"#utility.yul\":10035:10076   */\n      tag_362\n      jump\t// in\n    tag_555:\n        /* \"#utility.yul\":9927:10082   */\n      swap3\n      swap2\n      pop\n      pop\n      jump\t// out\n        /* \"#utility.yul\":10088:10903   */\n    tag_79:\n        /* \"#utility.yul\":10183:10189   */\n      0x00\n        /* \"#utility.yul\":10191:10197   */\n      0x00\n        /* \"#utility.yul\":10199:10205   */\n      0x00\n        /* \"#utility.yul\":10248:10250   */\n      0x60\n        /* \"#utility.yul\":10236:10245   */\n      dup5\n        /* \"#utility.yul\":10227:10234   */\n      dup7\n        /* \"#utility.yul\":10223:10246   */\n      sub\n        /* \"#utility.yul\":10219:10251   */\n      slt\n        /* \"#utility.yul\":10216:10335   */\n      iszero\n      tag_557\n      jumpi\n        /* \"#utility.yul\":10254:10333   */\n      tag_558\n      tag_327\n      jump\t// in\n    tag_558:\n        /* \"#utility.yul\":10216:10335   */\n    tag_557:\n        /* \"#utility.yul\":10374:10375   */\n      0x00\n        /* \"#utility.yul\":10399:10460   */\n      tag_559\n        /* \"#utility.yul\":10452:10459   */\n      dup7\n        /* \"#utility.yul\":10443:10449   */\n      dup3\n        /* \"#utility.yul\":10432:10441   */\n      dup8\n        /* \"#utility.yul\":10428:10450   */\n      add\n        /* \"#utility.yul\":10399:10460   */\n      tag_363\n      jump\t// in\n    tag_559:\n        /* \"#utility.yul\":10389:10460   */\n      swap4\n      pop\n        /* \"#utility.yul\":10345:10470   */\n      pop\n        /* \"#utility.yul\":10537:10539   */\n      0x20\n        /* \"#utility.yul\":10526:10535   */\n      dup5\n        /* \"#utility.yul\":10522:10540   */\n      add\n        /* \"#utility.yul\":10509:10541   */\n      calldataload\n        /* \"#utility.yul\":10568:10586   */\n      0xffffffffffffffff\n        /* \"#utility.yul\":10560:10566   */\n      dup2\n        /* \"#utility.yul\":10557:10587   */\n      gt\n        /* \"#utility.yul\":10554:10671   */\n      iszero\n      tag_560\n      jumpi\n        /* \"#utility.yul\":10590:10669   */\n      tag_561\n      tag_328\n      jump\t// in\n    tag_561:\n        /* \"#utility.yul\":10554:10671   */\n    tag_560:\n        /* \"#utility.yul\":10695:10758   */\n      tag_562\n        /* \"#utility.yul\":10750:10757   */\n      dup7\n        /* \"#utility.yul\":10741:10747   */\n      dup3\n        /* \"#utility.yul\":10730:10739   */\n      dup8\n        /* \"#utility.yul\":10726:10748   */\n      add\n        /* \"#utility.yul\":10695:10758   */\n      tag_357\n      jump\t// in\n    tag_562:\n        /* \"#utility.yul\":10685:10758   */\n      swap3\n      pop\n        /* \"#utility.yul\":10480:10768   */\n      pop\n        /* \"#utility.yul\":10807:10809   */\n      0x40\n        /* \"#utility.yul\":10833:10886   */\n      tag_563\n        /* \"#utility.yul\":10878:10885   */\n      dup7\n        /* \"#utility.yul\":10869:10875   */\n      dup3\n        /* \"#utility.yul\":10858:10867   */\n      dup8\n        /* \"#utility.yul\":10854:10876   */\n      add\n        /* \"#utility.yul\":10833:10886   */\n      tag_331\n      jump\t// in\n    tag_563:\n        /* \"#utility.yul\":10823:10886   */\n      swap2\n      pop\n        /* \"#utility.yul\":10778:10896   */\n      pop\n        /* \"#utility.yul\":10088:10903   */\n      swap3\n      pop\n      swap3\n      pop\n      swap3\n      jump\t// out\n        /* \"#utility.yul\":10909:11119   */\n    tag_97:\n        /* \"#utility.yul\":10996:11000   */\n      0x00\n        /* \"#utility.yul\":11034:11036   */\n      0x20\n        /* \"#utility.yul\":11023:11032   */\n      dup3\n        /* \"#utility.yul\":11019:11037   */\n      add\n        /* \"#utility.yul\":11011:11037   */\n      swap1\n      pop\n        /* \"#utility.yul\":11047:11112   */\n      tag_565\n        /* \"#utility.yul\":11109:11110   */\n      0x00\n        /* \"#utility.yul\":11098:11107   */\n      dup4\n        /* \"#utility.yul\":11094:11111   */\n      add\n        /* \"#utility.yul\":11085:11091   */\n      dup5\n        /* \"#utility.yul\":11047:11112   */\n      tag_348\n      jump\t// in\n    tag_565:\n        /* \"#utility.yul\":10909:11119   */\n      swap3\n      swap2\n      pop\n      pop\n      jump\t// out\n        /* \"#utility.yul\":11125:11286   */\n    tag_364:\n        /* \"#utility.yul\":11265:11278   */\n      0x4e6f742063726561746f72000000000000000000000000000000000000000000\n        /* \"#utility.yul\":11261:11262   */\n      0x00\n        /* \"#utility.yul\":11253:11259   */\n      dup3\n        /* \"#utility.yul\":11249:11263   */\n      add\n        /* \"#utility.yul\":11242:11279   */\n      mstore\n        /* \"#utility.yul\":11125:11286   */\n      pop\n      jump\t// out\n        /* \"#utility.yul\":11292:11658   */\n    tag_365:\n        /* \"#utility.yul\":11434:11437   */\n      0x00\n        /* \"#utility.yul\":11455:11522   */\n      tag_568\n        /* \"#utility.yul\":11519:11521   */\n      0x0b\n        /* \"#utility.yul\":11514:11517   */\n      dup4\n        /* \"#utility.yul\":11455:11522   */\n      tag_338\n      jump\t// in\n    tag_568:\n        /* \"#utility.yul\":11448:11522   */\n      swap2\n      pop\n        /* \"#utility.yul\":11531:11624   */\n      tag_569\n        /* \"#utility.yul\":11620:11623   */\n      dup3\n        /* \"#utility.yul\":11531:11624   */\n      tag_364\n      jump\t// in\n    tag_569:\n        /* \"#utility.yul\":11649:11651   */\n      0x20\n        /* \"#utility.yul\":11644:11647   */\n      dup3\n        /* \"#utility.yul\":11640:11652   */\n      add\n        /* \"#utility.yul\":11633:11652   */\n      swap1\n      pop\n        /* \"#utility.yul\":11292:11658   */\n      swap2\n      swap1\n      pop\n      jump\t// out\n        /* \"#utility.yul\":11664:12083   */\n    tag_106:\n        /* \"#utility.yul\":11830:11834   */\n      0x00\n        /* \"#utility.yul\":11868:11870   */\n      0x20\n        /* \"#utility.yul\":11857:11866   */\n      dup3\n        /* \"#utility.yul\":11853:11871   */\n      add\n        /* \"#utility.yul\":11845:11871   */\n      swap1\n      pop\n        /* \"#utility.yul\":11917:11926   */\n      dup2\n        /* \"#utility.yul\":11911:11915   */\n      dup2\n        /* \"#utility.yul\":11907:11927   */\n      sub\n        /* \"#utility.yul\":11903:11904   */\n      0x00\n        /* \"#utility.yul\":11892:11901   */\n      dup4\n        /* \"#utility.yul\":11888:11905   */\n      add\n        /* \"#utility.yul\":11881:11928   */\n      mstore\n        /* \"#utility.yul\":11945:12076   */\n      tag_571\n        /* \"#utility.yul\":12071:12075   */\n      dup2\n        /* \"#utility.yul\":11945:12076   */\n      tag_365\n      jump\t// in\n    tag_571:\n        /* \"#utility.yul\":11937:12076   */\n      swap1\n      pop\n        /* \"#utility.yul\":11664:12083   */\n      swap2\n      swap1\n      pop\n      jump\t// out\n        /* \"#utility.yul\":12089:12250   */\n    tag_366:\n        /* \"#utility.yul\":12229:12242   */\n      0x4e6f2064656c6976657279000000000000000000000000000000000000000000\n        /* \"#utility.yul\":12225:12226   */\n      0x00\n        /* \"#utility.yul\":12217:12223   */\n      dup3\n        /* \"#utility.yul\":12213:12227   */\n      add\n        /* \"#utility.yul\":12206:12243   */\n      mstore\n        /* \"#utility.yul\":12089:12250   */\n      pop\n      jump\t// out\n        /* \"#utility.yul\":12256:12622   */\n    tag_367:\n        /* \"#utility.yul\":12398:12401   */\n      0x00\n        /* \"#utility.yul\":12419:12486   */\n      tag_574\n        /* \"#utility.yul\":12483:12485   */\n      0x0b\n        /* \"#utility.yul\":12478:12481   */\n      dup4\n        /* \"#utility.yul\":12419:12486   */\n      tag_338\n      jump\t// in\n    tag_574:\n        /* \"#utility.yul\":12412:12486   */\n      swap2\n      pop\n        /* \"#utility.yul\":12495:12588   */\n      tag_575\n        /* \"#utility.yul\":12584:12587   */\n      dup3\n        /* \"#utility.yul\":12495:12588   */\n      tag_366\n      jump\t// in\n    tag_575:\n        /* \"#utility.yul\":12613:12615   */\n      0x20\n        /* \"#utility.yul\":12608:12611   */\n      dup3\n        /* \"#utility.yul\":12604:12616   */\n      add\n        /* \"#utility.yul\":12597:12616   */\n      swap1\n      pop\n        /* \"#utility.yul\":12256:12622   */\n      swap2\n      swap1\n      pop\n      jump\t// out\n        /* \"#utility.yul\":12628:13047   */\n    tag_110:\n        /* \"#utility.yul\":12794:12798   */\n      0x00\n        /* \"#utility.yul\":12832:12834   */\n      0x20\n        /* \"#utility.yul\":12821:12830   */\n      dup3\n        /* \"#utility.yul\":12817:12835   */\n      add\n        /* \"#utility.yul\":12809:12835   */\n      swap1\n      pop\n        /* \"#utility.yul\":12881:12890   */\n      dup2\n        /* \"#utility.yul\":12875:12879   */\n      dup2\n        /* \"#utility.yul\":12871:12891   */\n      sub\n        /* \"#utility.yul\":12867:12868   */\n      0x00\n        /* \"#utility.yul\":12856:12865   */\n      dup4\n        /* \"#utility.yul\":12852:12869   */\n      add\n        /* \"#utility.yul\":12845:12892   */\n      mstore\n        /* \"#utility.yul\":12909:13040   */\n      tag_577\n        /* \"#utility.yul\":13035:13039   */\n      dup2\n        /* \"#utility.yul\":12909:13040   */\n      tag_367\n      jump\t// in\n    tag_577:\n        /* \"#utility.yul\":12901:13040   */\n      swap1\n      pop\n        /* \"#utility.yul\":12628:13047   */\n      swap2\n      swap1\n      pop\n      jump\t// out\n        /* \"#utility.yul\":13053:13213   */\n    tag_368:\n        /* \"#utility.yul\":13193:13205   */\n      0x4e6f74205369676e656400000000000000000000000000000000000000000000\n        /* \"#utility.yul\":13189:13190   */\n      0x00\n        /* \"#utility.yul\":13181:13187   */\n      dup3\n        /* \"#utility.yul\":13177:13191   */\n      add\n        /* \"#utility.yul\":13170:13206   */\n      mstore\n        /* \"#utility.yul\":13053:13213   */\n      pop\n      jump\t// out\n        /* \"#utility.yul\":13219:13585   */\n    tag_369:\n        /* \"#utility.yul\":13361:13364   */\n      0x00\n        /* \"#utility.yul\":13382:13449   */\n      tag_580\n        /* \"#utility.yul\":13446:13448   */\n      0x0a\n        /* \"#utility.yul\":13441:13444   */\n      dup4\n        /* \"#utility.yul\":13382:13449   */\n      tag_338\n      jump\t// in\n    tag_580:\n        /* \"#utility.yul\":13375:13449   */\n      swap2\n      pop\n        /* \"#utility.yul\":13458:13551   */\n      tag_581\n        /* \"#utility.yul\":13547:13550   */\n      dup3\n        /* \"#utility.yul\":13458:13551   */\n      tag_368\n      jump\t// in\n    tag_581:\n        /* \"#utility.yul\":13576:13578   */\n      0x20\n        /* \"#utility.yul\":13571:13574   */\n      dup3\n        /* \"#utility.yul\":13567:13579   */\n      add\n        /* \"#utility.yul\":13560:13579   */\n      swap1\n      pop\n        /* \"#utility.yul\":13219:13585   */\n      swap2\n      swap1\n      pop\n      jump\t// out\n        /* \"#utility.yul\":13591:14010   */\n    tag_118:\n        /* \"#utility.yul\":13757:13761   */\n      0x00\n        /* \"#utility.yul\":13795:13797   */\n      0x20\n        /* \"#utility.yul\":13784:13793   */\n      dup3\n        /* \"#utility.yul\":13780:13798   */\n      add\n        /* \"#utility.yul\":13772:13798   */\n      swap1\n      pop\n        /* \"#utility.yul\":13844:13853   */\n      dup2\n        /* \"#utility.yul\":13838:13842   */\n      dup2\n        /* \"#utility.yul\":13834:13854   */\n      sub\n        /* \"#utility.yul\":13830:13831   */\n      0x00\n        /* \"#utility.yul\":13819:13828   */\n      dup4\n        /* \"#utility.yul\":13815:13832   */\n      add\n        /* \"#utility.yul\":13808:13855   */\n      mstore\n        /* \"#utility.yul\":13872:14003   */\n      tag_583\n        /* \"#utility.yul\":13998:14002   */\n      dup2\n        /* \"#utility.yul\":13872:14003   */\n      tag_369\n      jump\t// in\n    tag_583:\n        /* \"#utility.yul\":13864:14003   */\n      swap1\n      pop\n        /* \"#utility.yul\":13591:14010   */\n      swap2\n      swap1\n      pop\n      jump\t// out\n        /* \"#utility.yul\":14016:14182   */\n    tag_370:\n        /* \"#utility.yul\":14156:14174   */\n      0x44656c6976657279206d697373696e6700000000000000000000000000000000\n        /* \"#utility.yul\":14152:14153   */\n      0x00\n        /* \"#utility.yul\":14144:14150   */\n      dup3\n        /* \"#utility.yul\":14140:14154   */\n      add\n        /* \"#utility.yul\":14133:14175   */\n      mstore\n        /* \"#utility.yul\":14016:14182   */\n      pop\n      jump\t// out\n        /* \"#utility.yul\":14188:14554   */\n    tag_371:\n        /* \"#utility.yul\":14330:14333   */\n      0x00\n        /* \"#utility.yul\":14351:14418   */\n      tag_586\n        /* \"#utility.yul\":14415:14417   */\n      0x10\n        /* \"#utility.yul\":14410:14413   */\n      dup4\n        /* \"#utility.yul\":14351:14418   */\n      tag_338\n      jump\t// in\n    tag_586:\n        /* \"#utility.yul\":14344:14418   */\n      swap2\n      pop\n        /* \"#utility.yul\":14427:14520   */\n      tag_587\n        /* \"#utility.yul\":14516:14519   */\n      dup3\n        /* \"#utility.yul\":14427:14520   */\n      tag_370\n      jump\t// in\n    tag_587:\n        /* \"#utility.yul\":14545:14547   */\n      0x20\n        /* \"#utility.yul\":14540:14543   */\n      dup3\n        /* \"#utility.yul\":14536:14548   */\n      add\n        /* \"#utility.yul\":14529:14548   */\n      swap1\n      pop\n        /* \"#utility.yul\":14188:14554   */\n      swap2\n      swap1\n      pop\n      jump\t// out\n        /* \"#utility.yul\":14560:14979   */\n    tag_121:\n        /* \"#utility.yul\":14726:14730   */\n      0x00\n        /* \"#utility.yul\":14764:14766   */\n      0x20\n        /* \"#utility.yul\":14753:14762   */\n      dup3\n        /* \"#utility.yul\":14749:14767   */\n      add\n        /* \"#utility.yul\":14741:14767   */\n      swap1\n      pop\n        /* \"#utility.yul\":14813:14822   */\n      dup2\n        /* \"#utility.yul\":14807:14811   */\n      dup2\n        /* \"#utility.yul\":14803:14823   */\n      sub\n        /* \"#utility.yul\":14799:14800   */\n      0x00\n        /* \"#utility.yul\":14788:14797   */\n      dup4\n        /* \"#utility.yul\":14784:14801   */\n      add\n        /* \"#utility.yul\":14777:14824   */\n      mstore\n        /* \"#utility.yul\":14841:14972   */\n      tag_589\n        /* \"#utility.yul\":14967:14971   */\n      dup2\n        /* \"#utility.yul\":14841:14972   */\n      tag_371\n      jump\t// in\n    tag_589:\n        /* \"#utility.yul\":14833:14972   */\n      swap1\n      pop\n        /* \"#utility.yul\":14560:14979   */\n      swap2\n      swap1\n      pop\n      jump\t// out\n        /* \"#utility.yul\":14985:15151   */\n    tag_372:\n        /* \"#utility.yul\":15125:15143   */\n      0x416c726561647920617070726f76656400000000000000000000000000000000\n        /* \"#utility.yul\":15121:15122   */\n      0x00\n        /* \"#utility.yul\":15113:15119   */\n      dup3\n        /* \"#utility.yul\":15109:15123   */\n      add\n        /* \"#utility.yul\":15102:15144   */\n      mstore\n        /* \"#utility.yul\":14985:15151   */\n      pop\n      jump\t// out\n        /* \"#utility.yul\":15157:15523   */\n    tag_373:\n        /* \"#utility.yul\":15299:15302   */\n      0x00\n        /* \"#utility.yul\":15320:15387   */\n      tag_592\n        /* \"#utility.yul\":15384:15386   */\n      0x10\n        /* \"#utility.yul\":15379:15382   */\n      dup4\n        /* \"#utility.yul\":15320:15387   */\n      tag_338\n      jump\t// in\n    tag_592:\n        /* \"#utility.yul\":15313:15387   */\n      swap2\n      pop\n        /* \"#utility.yul\":15396:15489   */\n      tag_593\n        /* \"#utility.yul\":15485:15488   */\n      dup3\n        /* \"#utility.yul\":15396:15489   */\n      tag_372\n      jump\t// in\n    tag_593:\n        /* \"#utility.yul\":15514:15516   */\n      0x20\n        /* \"#utility.yul\":15509:15512   */\n      dup3\n        /* \"#utility.yul\":15505:15517   */\n      add\n        /* \"#utility.yul\":15498:15517   */\n      swap1\n      pop\n        /* \"#utility.yul\":15157:15523   */\n      swap2\n      swap1\n      pop\n      jump\t// out\n        /* \"#utility.yul\":15529:15948   */\n    tag_124:\n        /* \"#utility.yul\":15695:15699   */\n      0x00\n        /* \"#utility.yul\":15733:15735   */\n      0x20\n        /* \"#utility.yul\":15722:15731   */\n      dup3\n        /* \"#utility.yul\":15718:15736   */\n      add\n        /* \"#utility.yul\":15710:15736   */\n      swap1\n      pop\n        /* \"#utility.yul\":15782:15791   */\n      dup2\n        /* \"#utility.yul\":15776:15780   */\n      dup2\n        /* \"#utility.yul\":15772:15792   */\n      sub\n        /* \"#utility.yul\":15768:15769   */\n      0x00\n        /* \"#utility.yul\":15757:15766   */\n      dup4\n        /* \"#utility.yul\":15753:15770   */\n      add\n        /* \"#utility.yul\":15746:15793   */\n      mstore\n        /* \"#utility.yul\":15810:15941   */\n      tag_595\n        /* \"#utility.yul\":15936:15940   */\n      dup2\n        /* \"#utility.yul\":15810:15941   */\n      tag_373\n      jump\t// in\n    tag_595:\n        /* \"#utility.yul\":15802:15941   */\n      swap1\n      pop\n        /* \"#utility.yul\":15529:15948   */\n      swap2\n      swap1\n      pop\n      jump\t// out\n        /* \"#utility.yul\":15954:16134   */\n    tag_374:\n        /* \"#utility.yul\":16002:16079   */\n      0x4e487b7100000000000000000000000000000000000000000000000000000000\n        /* \"#utility.yul\":15999:16000   */\n      0x00\n        /* \"#utility.yul\":15992:16080   */\n      mstore\n        /* \"#utility.yul\":16099:16103   */\n      0x11\n        /* \"#utility.yul\":16096:16097   */\n      0x04\n        /* \"#utility.yul\":16089:16104   */\n      mstore\n        /* \"#utility.yul\":16123:16127   */\n      0x24\n        /* \"#utility.yul\":16120:16121   */\n      0x00\n        /* \"#utility.yul\":16113:16128   */\n      revert\n        /* \"#utility.yul\":16140:16331   */\n    tag_128:\n        /* \"#utility.yul\":16180:16183   */\n      0x00\n        /* \"#utility.yul\":16199:16219   */\n      tag_598\n        /* \"#utility.yul\":16217:16218   */\n      dup3\n        /* \"#utility.yul\":16199:16219   */\n      tag_329\n      jump\t// in\n    tag_598:\n        /* \"#utility.yul\":16194:16219   */\n      swap2\n      pop\n        /* \"#utility.yul\":16233:16253   */\n      tag_599\n        /* \"#utility.yul\":16251:16252   */\n      dup4\n        /* \"#utility.yul\":16233:16253   */\n      tag_329\n      jump\t// in\n    tag_599:\n        /* \"#utility.yul\":16228:16253   */\n      swap3\n      pop\n        /* \"#utility.yul\":16276:16277   */\n      dup3\n        /* \"#utility.yul\":16273:16274   */\n      dup3\n        /* \"#utility.yul\":16269:16278   */\n      add\n        /* \"#utility.yul\":16262:16278   */\n      swap1\n      pop\n        /* \"#utility.yul\":16297:16300   */\n      dup1\n        /* \"#utility.yul\":16294:16295   */\n      dup3\n        /* \"#utility.yul\":16291:16301   */\n      gt\n        /* \"#utility.yul\":16288:16324   */\n      iszero\n      tag_600\n      jumpi\n        /* \"#utility.yul\":16304:16322   */\n      tag_601\n      tag_374\n      jump\t// in\n    tag_601:\n        /* \"#utility.yul\":16288:16324   */\n    tag_600:\n        /* \"#utility.yul\":16140:16331   */\n      swap3\n      swap2\n      pop\n      pop\n      jump\t// out\n        /* \"#utility.yul\":16337:16517   */\n    tag_375:\n        /* \"#utility.yul\":16385:16462   */\n      0x4e487b7100000000000000000000000000000000000000000000000000000000\n        /* \"#utility.yul\":16382:16383   */\n      0x00\n        /* \"#utility.yul\":16375:16463   */\n      mstore\n        /* \"#utility.yul\":16482:16486   */\n      0x22\n        /* \"#utility.yul\":16479:16480   */\n      0x04\n        /* \"#utility.yul\":16472:16487   */\n      mstore\n        /* \"#utility.yul\":16506:16510   */\n      0x24\n        /* \"#utility.yul\":16503:16504   */\n      0x00\n        /* \"#utility.yul\":16496:16511   */\n      revert\n        /* \"#utility.yul\":16523:16843   */\n    tag_133:\n        /* \"#utility.yul\":16567:16573   */\n      0x00\n        /* \"#utility.yul\":16604:16605   */\n      0x02\n        /* \"#utility.yul\":16598:16602   */\n      dup3\n        /* \"#utility.yul\":16594:16606   */\n      div\n        /* \"#utility.yul\":16584:16606   */\n      swap1\n      pop\n        /* \"#utility.yul\":16651:16652   */\n      0x01\n        /* \"#utility.yul\":16645:16649   */\n      dup3\n        /* \"#utility.yul\":16641:16653   */\n      and\n        /* \"#utility.yul\":16672:16690   */\n      dup1\n        /* \"#utility.yul\":16662:16743   */\n      tag_604\n      jumpi\n        /* \"#utility.yul\":16728:16732   */\n      0x7f\n        /* \"#utility.yul\":16720:16726   */\n      dup3\n        /* \"#utility.yul\":16716:16733   */\n      and\n        /* \"#utility.yul\":16706:16733   */\n      swap2\n      pop\n        /* \"#utility.yul\":16662:16743   */\n    tag_604:\n        /* \"#utility.yul\":16790:16792   */\n      0x20\n        /* \"#utility.yul\":16782:16788   */\n      dup3\n        /* \"#utility.yul\":16779:16793   */\n      lt\n        /* \"#utility.yul\":16759:16777   */\n      dup2\n        /* \"#utility.yul\":16756:16794   */\n      sub\n        /* \"#utility.yul\":16753:16837   */\n      tag_605\n      jumpi\n        /* \"#utility.yul\":16809:16827   */\n      tag_606\n      tag_375\n      jump\t// in\n    tag_606:\n        /* \"#utility.yul\":16753:16837   */\n    tag_605:\n        /* \"#utility.yul\":16574:16843   */\n      pop\n        /* \"#utility.yul\":16523:16843   */\n      swap2\n      swap1\n      pop\n      jump\t// out\n        /* \"#utility.yul\":16849:17016   */\n    tag_376:\n        /* \"#utility.yul\":16989:17008   */\n      0x416c726561647920636f6d706c65746564000000000000000000000000000000\n        /* \"#utility.yul\":16985:16986   */\n      0x00\n        /* \"#utility.yul\":16977:16983   */\n      dup3\n        /* \"#utility.yul\":16973:16987   */\n      add\n        /* \"#utility.yul\":16966:17009   */\n      mstore\n        /* \"#utility.yul\":16849:17016   */\n      pop\n      jump\t// out\n        /* \"#utility.yul\":17022:17388   */\n    tag_377:\n        /* \"#utility.yul\":17164:17167   */\n      0x00\n        /* \"#utility.yul\":17185:17252   */\n      tag_609\n        /* \"#utility.yul\":17249:17251   */\n      0x11\n        /* \"#utility.yul\":17244:17247   */\n      dup4\n        /* \"#utility.yul\":17185:17252   */\n      tag_338\n      jump\t// in\n    tag_609:\n        /* \"#utility.yul\":17178:17252   */\n      swap2\n      pop\n        /* \"#utility.yul\":17261:17354   */\n      tag_610\n        /* \"#utility.yul\":17350:17353   */\n      dup3\n        /* \"#utility.yul\":17261:17354   */\n      tag_376\n      jump\t// in\n    tag_610:\n        /* \"#utility.yul\":17379:17381   */\n      0x20\n        /* \"#utility.yul\":17374:17377   */\n      dup3\n        /* \"#utility.yul\":17370:17382   */\n      add\n        /* \"#utility.yul\":17363:17382   */\n      swap1\n      pop\n        /* \"#utility.yul\":17022:17388   */\n      swap2\n      swap1\n      pop\n      jump\t// out\n        /* \"#utility.yul\":17394:17813   */\n    tag_148:\n        /* \"#utility.yul\":17560:17564   */\n      0x00\n        /* \"#utility.yul\":17598:17600   */\n      0x20\n        /* \"#utility.yul\":17587:17596   */\n      dup3\n        /* \"#utility.yul\":17583:17601   */\n      add\n        /* \"#utility.yul\":17575:17601   */\n      swap1\n      pop\n        /* \"#utility.yul\":17647:17656   */\n      dup2\n        /* \"#utility.yul\":17641:17645   */\n      dup2\n        /* \"#utility.yul\":17637:17657   */\n      sub\n        /* \"#utility.yul\":17633:17634   */\n      0x00\n        /* \"#utility.yul\":17622:17631   */\n      dup4\n        /* \"#utility.yul\":17618:17635   */\n      add\n        /* \"#utility.yul\":17611:17658   */\n      mstore\n        /* \"#utility.yul\":17675:17806   */\n      tag_612\n        /* \"#utility.yul\":17801:17805   */\n      dup2\n        /* \"#utility.yul\":17675:17806   */\n      tag_377\n      jump\t// in\n    tag_612:\n        /* \"#utility.yul\":17667:17806   */\n      swap1\n      pop\n        /* \"#utility.yul\":17394:17813   */\n      swap2\n      swap1\n      pop\n      jump\t// out\n        /* \"#utility.yul\":17819:17986   */\n    tag_378:\n        /* \"#utility.yul\":17959:17978   */\n      0x416c72656164792063616e63656c6c6564000000000000000000000000000000\n        /* \"#utility.yul\":17955:17956   */\n      0x00\n        /* \"#utility.yul\":17947:17953   */\n      dup3\n        /* \"#utility.yul\":17943:17957   */\n      add\n        /* \"#utility.yul\":17936:17979   */\n      mstore\n        /* \"#utility.yul\":17819:17986   */\n      pop\n      jump\t// out\n        /* \"#utility.yul\":17992:18358   */\n    tag_379:\n        /* \"#utility.yul\":18134:18137   */\n      0x00\n        /* \"#utility.yul\":18155:18222   */\n      tag_615\n        /* \"#utility.yul\":18219:18221   */\n      0x11\n        /* \"#utility.yul\":18214:18217   */\n      dup4\n        /* \"#utility.yul\":18155:18222   */\n      tag_338\n      jump\t// in\n    tag_615:\n        /* \"#utility.yul\":18148:18222   */\n      swap2\n      pop\n        /* \"#utility.yul\":18231:18324   */\n      tag_616\n        /* \"#utility.yul\":18320:18323   */\n      dup3\n        /* \"#utility.yul\":18231:18324   */\n      tag_378\n      jump\t// in\n    tag_616:\n        /* \"#utility.yul\":18349:18351   */\n      0x20\n        /* \"#utility.yul\":18344:18347   */\n      dup3\n        /* \"#utility.yul\":18340:18352   */\n      add\n        /* \"#utility.yul\":18333:18352   */\n      swap1\n      pop\n        /* \"#utility.yul\":17992:18358   */\n      swap2\n      swap1\n      pop\n      jump\t// out\n        /* \"#utility.yul\":18364:18783   */\n    tag_155:\n        /* \"#utility.yul\":18530:18534   */\n      0x00\n        /* \"#utility.yul\":18568:18570   */\n      0x20\n        /* \"#utility.yul\":18557:18566   */\n      dup3\n        /* \"#utility.yul\":18553:18571   */\n      add\n        /* \"#utility.yul\":18545:18571   */\n      swap1\n      pop\n        /* \"#utility.yul\":18617:18626   */\n      dup2\n        /* \"#utility.yul\":18611:18615   */\n      dup2\n        /* \"#utility.yul\":18607:18627   */\n      sub\n        /* \"#utility.yul\":18603:18604   */\n      0x00\n        /* \"#utility.yul\":18592:18601   */\n      dup4\n        /* \"#utility.yul\":18588:18605   */\n      add\n        /* \"#utility.yul\":18581:18628   */\n      mstore\n        /* \"#utility.yul\":18645:18776   */\n      tag_618\n        /* \"#utility.yul\":18771:18775   */\n      dup2\n        /* \"#utility.yul\":18645:18776   */\n      tag_379\n      jump\t// in\n    tag_618:\n        /* \"#utility.yul\":18637:18776   */\n      swap1\n      pop\n        /* \"#utility.yul\":18364:18783   */\n      swap2\n      swap1\n      pop\n      jump\t// out\n        /* \"#utility.yul\":18789:18930   */\n    tag_380:\n        /* \"#utility.yul\":18838:18842   */\n      0x00\n        /* \"#utility.yul\":18861:18864   */\n      dup2\n        /* \"#utility.yul\":18853:18864   */\n      swap1\n      pop\n        /* \"#utility.yul\":18884:18887   */\n      dup2\n        /* \"#utility.yul\":18881:18882   */\n      0x00\n        /* \"#utility.yul\":18874:18888   */\n      mstore\n        /* \"#utility.yul\":18918:18922   */\n      0x20\n        /* \"#utility.yul\":18915:18916   */\n      0x00\n        /* \"#utility.yul\":18905:18923   */\n      keccak256\n        /* \"#utility.yul\":18897:18923   */\n      swap1\n      pop\n        /* \"#utility.yul\":18789:18930   */\n      swap2\n      swap1\n      pop\n      jump\t// out\n        /* \"#utility.yul\":18936:19029   */\n    tag_381:\n        /* \"#utility.yul\":18973:18979   */\n      0x00\n        /* \"#utility.yul\":19020:19022   */\n      0x20\n        /* \"#utility.yul\":19015:19017   */\n      0x1f\n        /* \"#utility.yul\":19008:19013   */\n      dup4\n        /* \"#utility.yul\":19004:19018   */\n      add\n        /* \"#utility.yul\":19000:19023   */\n      div\n        /* \"#utility.yul\":18990:19023   */\n      swap1\n      pop\n        /* \"#utility.yul\":18936:19029   */\n      swap2\n      swap1\n      pop\n      jump\t// out\n        /* \"#utility.yul\":19035:19142   */\n    tag_382:\n        /* \"#utility.yul\":19079:19087   */\n      0x00\n        /* \"#utility.yul\":19129:19134   */\n      dup3\n        /* \"#utility.yul\":19123:19127   */\n      dup3\n        /* \"#utility.yul\":19119:19135   */\n      shl\n        /* \"#utility.yul\":19098:19135   */\n      swap1\n      pop\n        /* \"#utility.yul\":19035:19142   */\n      swap3\n      swap2\n      pop\n      pop\n      jump\t// out\n        /* \"#utility.yul\":19148:19541   */\n    tag_383:\n        /* \"#utility.yul\":19217:19223   */\n      0x00\n        /* \"#utility.yul\":19267:19268   */\n      0x08\n        /* \"#utility.yul\":19255:19265   */\n      dup4\n        /* \"#utility.yul\":19251:19269   */\n      mul\n        /* \"#utility.yul\":19290:19387   */\n      tag_623\n        /* \"#utility.yul\":19320:19386   */\n      0xffffffffffffffffffffffffffffffffffffffffffffffffffffffffffffffff\n        /* \"#utility.yul\":19309:19318   */\n      dup3\n        /* \"#utility.yul\":19290:19387   */\n      tag_382\n      jump\t// in\n    tag_623:\n        /* \"#utility.yul\":19408:19447   */\n      tag_624\n        /* \"#utility.yul\":19438:19446   */\n      dup7\n        /* \"#utility.yul\":19427:19436   */\n      dup4\n        /* \"#utility.yul\":19408:19447   */\n      tag_382\n      jump\t// in\n    tag_624:\n        /* \"#utility.yul\":19396:19447   */\n      swap6\n      pop\n        /* \"#utility.yul\":19480:19484   */\n      dup1\n        /* \"#utility.yul\":19476:19485   */\n      not\n        /* \"#utility.yul\":19469:19474   */\n      dup5\n        /* \"#utility.yul\":19465:19486   */\n      and\n        /* \"#utility.yul\":19456:19486   */\n      swap4\n      pop\n        /* \"#utility.yul\":19529:19533   */\n      dup1\n        /* \"#utility.yul\":19519:19527   */\n      dup7\n        /* \"#utility.yul\":19515:19534   */\n      and\n        /* \"#utility.yul\":19508:19513   */\n      dup5\n        /* \"#utility.yul\":19505:19535   */\n      or\n        /* \"#utility.yul\":19495:19535   */\n      swap3\n      pop\n        /* \"#utility.yul\":19224:19541   */\n      pop\n      pop\n        /* \"#utility.yul\":19148:19541   */\n      swap4\n      swap3\n      pop\n      pop\n      pop\n      jump\t// out\n        /* \"#utility.yul\":19547:19607   */\n    tag_384:\n        /* \"#utility.yul\":19575:19578   */\n      0x00\n        /* \"#utility.yul\":19596:19601   */\n      dup2\n        /* \"#utility.yul\":19589:19601   */\n      swap1\n      pop\n        /* \"#utility.yul\":19547:19607   */\n      swap2\n      swap1\n      pop\n      jump\t// out\n        /* \"#utility.yul\":19613:19755   */\n    tag_385:\n        /* \"#utility.yul\":19663:19672   */\n      0x00\n        /* \"#utility.yul\":19696:19749   */\n      tag_627\n        /* \"#utility.yul\":19714:19748   */\n      tag_628\n        /* \"#utility.yul\":19723:19747   */\n      tag_629\n        /* \"#utility.yul\":19741:19746   */\n      dup5\n        /* \"#utility.yul\":19723:19747   */\n      tag_329\n      jump\t// in\n    tag_629:\n        /* \"#utility.yul\":19714:19748   */\n      tag_384\n      jump\t// in\n    tag_628:\n        /* \"#utility.yul\":19696:19749   */\n      tag_329\n      jump\t// in\n    tag_627:\n        /* \"#utility.yul\":19683:19749   */\n      swap1\n      pop\n        /* \"#utility.yul\":19613:19755   */\n      swap2\n      swap1\n      pop\n      jump\t// out\n        /* \"#utility.yul\":19761:19836   */\n    tag_386:\n        /* \"#utility.yul\":19804:19807   */\n      0x00\n        /* \"#utility.yul\":19825:19830   */\n      dup2\n        /* \"#utility.yul\":19818:19830   */\n      swap1\n      pop\n        /* \"#utility.yul\":19761:19836   */\n      swap2\n      swap1\n      pop\n      jump\t// out\n        /* \"#utility.yul\":19842:20111   */\n    tag_387:\n        /* \"#utility.yul\":19952:19991   */\n      tag_632\n        /* \"#utility.yul\":19983:19990   */\n      dup4\n        /* \"#utility.yul\":19952:19991   */\n      tag_385\n      jump\t// in\n    tag_632:\n        /* \"#utility.yul\":20013:20104   */\n      tag_633\n        /* \"#utility.yul\":20062:20103   */\n      tag_634\n        /* \"#utility.yul\":20086:20102   */\n      dup3\n        /* \"#utility.yul\":20062:20103   */\n      tag_386\n      jump\t// in\n    tag_634:\n        /* \"#utility.yul\":20054:20060   */\n      dup5\n        /* \"#utility.yul\":20047:20051   */\n      dup5\n        /* \"#utility.yul\":20041:20052   */\n      sload\n        /* \"#utility.yul\":20013:20104   */\n      tag_383\n      jump\t// in\n    tag_633:\n        /* \"#utility.yul\":20007:20011   */\n      dup3\n        /* \"#utility.yul\":20000:20105   */\n      sstore\n        /* \"#utility.yul\":19918:20111   */\n      pop\n        /* \"#utility.yul\":19842:20111   */\n      pop\n      pop\n      pop\n      jump\t// out\n        /* \"#utility.yul\":20117:20190   */\n    tag_388:\n        /* \"#utility.yul\":20162:20165   */\n      0x00\n        /* \"#utility.yul\":20183:20184   */\n      0x00\n        /* \"#utility.yul\":20176:20184   */\n      swap1\n      pop\n        /* \"#utility.yul\":20117:20190   */\n      swap1\n      jump\t// out\n        /* \"#utility.yul\":20196:20385   */\n    tag_389:\n        /* \"#utility.yul\":20273:20305   */\n      tag_637\n      tag_388\n      jump\t// in\n    tag_637:\n        /* \"#utility.yul\":20314:20379   */\n      tag_638\n        /* \"#utility.yul\":20372:20378   */\n      dup2\n        /* \"#utility.yul\":20364:20370   */\n      dup5\n        /* \"#utility.yul\":20358:20362   */\n      dup5\n        /* \"#utility.yul\":20314:20379   */\n      tag_387\n      jump\t// in\n    tag_638:\n        /* \"#utility.yul\":20249:20385   */\n      pop\n        /* \"#utility.yul\":20196:20385   */\n      pop\n      pop\n      jump\t// out\n        /* \"#utility.yul\":20391:20577   */\n    tag_390:\n        /* \"#utility.yul\":20451:20571   */\n    tag_640:\n        /* \"#utility.yul\":20468:20471   */\n      dup2\n        /* \"#utility.yul\":20461:20466   */\n      dup2\n        /* \"#utility.yul\":20458:20472   */\n      lt\n        /* \"#utility.yul\":20451:20571   */\n      iszero\n      tag_642\n      jumpi\n        /* \"#utility.yul\":20522:20561   */\n      tag_643\n        /* \"#utility.yul\":20559:20560   */\n      0x00\n        /* \"#utility.yul\":20552:20557   */\n      dup3\n        /* \"#utility.yul\":20522:20561   */\n      tag_389\n      jump\t// in\n    tag_643:\n        /* \"#utility.yul\":20495:20496   */\n      0x01\n        /* \"#utility.yul\":20488:20493   */\n      dup2\n        /* \"#utility.yul\":20484:20497   */\n      add\n        /* \"#utility.yul\":20475:20497   */\n      swap1\n      pop\n        /* \"#utility.yul\":20451:20571   */\n      jump(tag_640)\n    tag_642:\n        /* \"#utility.yul\":20391:20577   */\n      pop\n      pop\n      jump\t// out\n        /* \"#utility.yul\":20583:21126   */\n    tag_391:\n        /* \"#utility.yul\":20684:20686   */\n      0x1f\n        /* \"#utility.yul\":20679:20682   */\n      dup3\n        /* \"#utility.yul\":20676:20687   */\n      gt\n        /* \"#utility.yul\":20673:21119   */\n      iszero\n      tag_645\n      jumpi\n        /* \"#utility.yul\":20718:20756   */\n      tag_646\n        /* \"#utility.yul\":20750:20755   */\n      dup2\n        /* \"#utility.yul\":20718:20756   */\n      tag_380\n      jump\t// in\n    tag_646:\n        /* \"#utility.yul\":20802:20831   */\n      tag_647\n        /* \"#utility.yul\":20820:20830   */\n      dup5\n        /* \"#utility.yul\":20802:20831   */\n      tag_381\n      jump\t// in\n    tag_647:\n        /* \"#utility.yul\":20792:20800   */\n      dup2\n        /* \"#utility.yul\":20788:20832   */\n      add\n        /* \"#utility.yul\":20985:20987   */\n      0x20\n        /* \"#utility.yul\":20973:20983   */\n      dup6\n        /* \"#utility.yul\":20970:20988   */\n      lt\n        /* \"#utility.yul\":20967:21016   */\n      iszero\n      tag_648\n      jumpi\n        /* \"#utility.yul\":21006:21014   */\n      dup2\n        /* \"#utility.yul\":20991:21014   */\n      swap1\n      pop\n        /* \"#utility.yul\":20967:21016   */\n    tag_648:\n        /* \"#utility.yul\":21029:21109   */\n      tag_649\n        /* \"#utility.yul\":21085:21107   */\n      tag_650\n        /* \"#utility.yul\":21103:21106   */\n      dup6\n        /* \"#utility.yul\":21085:21107   */\n      tag_381\n      jump\t// in\n    tag_650:\n        /* \"#utility.yul\":21075:21083   */\n      dup4\n        /* \"#utility.yul\":21071:21108   */\n      add\n        /* \"#utility.yul\":21058:21069   */\n      dup3\n        /* \"#utility.yul\":21029:21109   */\n      tag_390\n      jump\t// in\n    tag_649:\n        /* \"#utility.yul\":20688:21119   */\n      pop\n      pop\n        /* \"#utility.yul\":20673:21119   */\n    tag_645:\n        /* \"#utility.yul\":20583:21126   */\n      pop\n      pop\n      pop\n      jump\t// out\n        /* \"#utility.yul\":21132:21249   */\n    tag_392:\n        /* \"#utility.yul\":21186:21194   */\n      0x00\n        /* \"#utility.yul\":21236:21241   */\n      dup3\n        /* \"#utility.yul\":21230:21234   */\n      dup3\n        /* \"#utility.yul\":21226:21242   */\n      shr\n        /* \"#utility.yul\":21205:21242   */\n      swap1\n      pop\n        /* \"#utility.yul\":21132:21249   */\n      swap3\n      swap2\n      pop\n      pop\n      jump\t// out\n        /* \"#utility.yul\":21255:21424   */\n    tag_393:\n        /* \"#utility.yul\":21299:21305   */\n      0x00\n        /* \"#utility.yul\":21332:21383   */\n      tag_653\n        /* \"#utility.yul\":21380:21381   */\n      0x00\n        /* \"#utility.yul\":21376:21382   */\n      not\n        /* \"#utility.yul\":21368:21373   */\n      dup5\n        /* \"#utility.yul\":21365:21366   */\n      0x08\n        /* \"#utility.yul\":21361:21374   */\n      mul\n        /* \"#utility.yul\":21332:21383   */\n      tag_392\n      jump\t// in\n    tag_653:\n        /* \"#utility.yul\":21328:21384   */\n      not\n        /* \"#utility.yul\":21413:21417   */\n      dup1\n        /* \"#utility.yul\":21407:21411   */\n      dup4\n        /* \"#utility.yul\":21403:21418   */\n      and\n        /* \"#utility.yul\":21393:21418   */\n      swap2\n      pop\n        /* \"#utility.yul\":21306:21424   */\n      pop\n        /* \"#utility.yul\":21255:21424   */\n      swap3\n      swap2\n      pop\n      pop\n      jump\t// out\n        /* \"#utility.yul\":21429:21724   */\n    tag_394:\n        /* \"#utility.yul\":21505:21509   */\n      0x00\n        /* \"#utility.yul\":21651:21680   */\n      tag_655\n        /* \"#utility.yul\":21676:21679   */\n      dup4\n        /* \"#utility.yul\":21670:21674   */\n      dup4\n        /* \"#utility.yul\":21651:21680   */\n      tag_393\n      jump\t// in\n    tag_655:\n        /* \"#utility.yul\":21643:21680   */\n      swap2\n      pop\n        /* \"#utility.yul\":21713:21716   */\n      dup3\n        /* \"#utility.yul\":21710:21711   */\n      0x02\n        /* \"#utility.yul\":21706:21717   */\n      mul\n        /* \"#utility.yul\":21700:21704   */\n      dup3\n        /* \"#utility.yul\":21697:21718   */\n      or\n        /* \"#utility.yul\":21689:21718   */\n      swap1\n      pop\n        /* \"#utility.yul\":21429:21724   */\n      swap3\n      swap2\n      pop\n      pop\n      jump\t// out\n        /* \"#utility.yul\":21729:23124   */\n    tag_157:\n        /* \"#utility.yul\":21846:21883   */\n      tag_657\n        /* \"#utility.yul\":21879:21882   */\n      dup3\n        /* \"#utility.yul\":21846:21883   */\n      tag_337\n      jump\t// in\n    tag_657:\n        /* \"#utility.yul\":21948:21966   */\n      0xffffffffffffffff\n        /* \"#utility.yul\":21940:21946   */\n      dup2\n        /* \"#utility.yul\":21937:21967   */\n      gt\n        /* \"#utility.yul\":21934:21990   */\n      iszero\n      tag_658\n      jumpi\n        /* \"#utility.yul\":21970:21988   */\n      tag_659\n      tag_351\n      jump\t// in\n    tag_659:\n        /* \"#utility.yul\":21934:21990   */\n    tag_658:\n        /* \"#utility.yul\":22014:22052   */\n      tag_660\n        /* \"#utility.yul\":22046:22050   */\n      dup3\n        /* \"#utility.yul\":22040:22051   */\n      sload\n        /* \"#utility.yul\":22014:22052   */\n      tag_133\n      jump\t// in\n    tag_660:\n        /* \"#utility.yul\":22099:22166   */\n      tag_661\n        /* \"#utility.yul\":22159:22165   */\n      dup3\n        /* \"#utility.yul\":22151:22157   */\n      dup3\n        /* \"#utility.yul\":22145:22149   */\n      dup6\n        /* \"#utility.yul\":22099:22166   */\n      tag_391\n      jump\t// in\n    tag_661:\n        /* \"#utility.yul\":22193:22194   */\n      0x00\n        /* \"#utility.yul\":22217:22221   */\n      0x20\n        /* \"#utility.yul\":22204:22221   */\n      swap1\n      pop\n        /* \"#utility.yul\":22249:22251   */\n      0x1f\n        /* \"#utility.yul\":22241:22247   */\n      dup4\n        /* \"#utility.yul\":22238:22252   */\n      gt\n        /* \"#utility.yul\":22266:22267   */\n      0x01\n        /* \"#utility.yul\":22261:22879   */\n      dup2\n      eq\n      tag_663\n      jumpi\n        /* \"#utility.yul\":22923:22924   */\n      0x00\n        /* \"#utility.yul\":22940:22946   */\n      dup5\n        /* \"#utility.yul\":22937:23014   */\n      iszero\n      tag_664\n      jumpi\n        /* \"#utility.yul\":22989:22998   */\n      dup3\n        /* \"#utility.yul\":22984:22987   */\n      dup8\n        /* \"#utility.yul\":22980:22999   */\n      add\n        /* \"#utility.yul\":22974:23000   */\n      mload\n        /* \"#utility.yul\":22965:23000   */\n      swap1\n      pop\n        /* \"#utility.yul\":22937:23014   */\n    tag_664:\n        /* \"#utility.yul\":23040:23107   */\n      tag_665\n        /* \"#utility.yul\":23100:23106   */\n      dup6\n        /* \"#utility.yul\":23093:23098   */\n      dup3\n        /* \"#utility.yul\":23040:23107   */\n      tag_394\n      jump\t// in\n    tag_665:\n        /* \"#utility.yul\":23034:23038   */\n      dup7\n        /* \"#utility.yul\":23027:23108   */\n      sstore\n        /* \"#utility.yul\":22896:23118   */\n      pop\n        /* \"#utility.yul\":22231:23118   */\n      jump(tag_662)\n        /* \"#utility.yul\":22261:22879   */\n    tag_663:\n        /* \"#utility.yul\":22313:22317   */\n      0x1f\n        /* \"#utility.yul\":22309:22318   */\n      not\n        /* \"#utility.yul\":22301:22307   */\n      dup5\n        /* \"#utility.yul\":22297:22319   */\n      and\n        /* \"#utility.yul\":22347:22384   */\n      tag_666\n        /* \"#utility.yul\":22379:22383   */\n      dup7\n        /* \"#utility.yul\":22347:22384   */\n      tag_380\n      jump\t// in\n    tag_666:\n        /* \"#utility.yul\":22406:22407   */\n      0x00\n        /* \"#utility.yul\":22420:22628   */\n    tag_667:\n        /* \"#utility.yul\":22434:22441   */\n      dup3\n        /* \"#utility.yul\":22431:22432   */\n      dup2\n        /* \"#utility.yul\":22428:22442   */\n      lt\n        /* \"#utility.yul\":22420:22628   */\n      iszero\n      tag_669\n      jumpi\n        /* \"#utility.yul\":22513:22522   */\n      dup5\n        /* \"#utility.yul\":22508:22511   */\n      dup10\n        /* \"#utility.yul\":22504:22523   */\n      add\n        /* \"#utility.yul\":22498:22524   */\n      mload\n        /* \"#utility.yul\":22490:22496   */\n      dup3\n        /* \"#utility.yul\":22483:22525   */\n      sstore\n        /* \"#utility.yul\":22564:22565   */\n      0x01\n        /* \"#utility.yul\":22556:22562   */\n      dup3\n        /* \"#utility.yul\":22552:22566   */\n      add\n        /* \"#utility.yul\":22542:22566   */\n      swap2\n      pop\n        /* \"#utility.yul\":22611:22613   */\n      0x20\n        /* \"#utility.yul\":22600:22609   */\n      dup6\n        /* \"#utility.yul\":22596:22614   */\n      add\n        /* \"#utility.yul\":22583:22614   */\n      swap5\n      pop\n        /* \"#utility.yul\":22457:22461   */\n      0x20\n        /* \"#utility.yul\":22454:22455   */\n      dup2\n        /* \"#utility.yul\":22450:22462   */\n      add\n        /* \"#utility.yul\":22445:22462   */\n      swap1\n      pop\n        /* \"#utility.yul\":22420:22628   */\n      jump(tag_667)\n    tag_669:\n        /* \"#utility.yul\":22656:22662   */\n      dup7\n        /* \"#utility.yul\":22647:22654   */\n      dup4\n        /* \"#utility.yul\":22644:22663   */\n      lt\n        /* \"#utility.yul\":22641:22820   */\n      iszero\n      tag_670\n      jumpi\n        /* \"#utility.yul\":22714:22723   */\n      dup5\n        /* \"#utility.yul\":22709:22712   */\n      dup10\n        /* \"#utility.yul\":22705:22724   */\n      add\n        /* \"#utility.yul\":22699:22725   */\n      mload\n        /* \"#utility.yul\":22757:22805   */\n      tag_671\n        /* \"#utility.yul\":22799:22803   */\n      0x1f\n        /* \"#utility.yul\":22791:22797   */\n      dup10\n        /* \"#utility.yul\":22787:22804   */\n      and\n        /* \"#utility.yul\":22776:22785   */\n      dup3\n        /* \"#utility.yul\":22757:22805   */\n      tag_393\n      jump\t// in\n    tag_671:\n        /* \"#utility.yul\":22749:22755   */\n      dup4\n        /* \"#utility.yul\":22742:22806   */\n      sstore\n        /* \"#utility.yul\":22664:22820   */\n      pop\n        /* \"#utility.yul\":22641:22820   */\n    tag_670:\n        /* \"#utility.yul\":22866:22867   */\n      0x01\n        /* \"#utility.yul\":22862:22863   */\n      0x02\n        /* \"#utility.yul\":22854:22860   */\n      dup9\n        /* \"#utility.yul\":22850:22864   */\n      mul\n        /* \"#utility.yul\":22846:22868   */\n      add\n        /* \"#utility.yul\":22840:22844   */\n      dup9\n        /* \"#utility.yul\":22833:22869   */\n      sstore\n        /* \"#utility.yul\":22268:22879   */\n      pop\n      pop\n      pop\n        /* \"#utility.yul\":22231:23118   */\n    tag_662:\n      pop\n        /* \"#utility.yul\":21821:23124   */\n      pop\n      pop\n      pop\n        /* \"#utility.yul\":21729:23124   */\n      pop\n      pop\n      jump\t// out\n        /* \"#utility.yul\":23130:23296   */\n    tag_395:\n        /* \"#utility.yul\":23270:23288   */\n      0x4e6f7420636f756e746572706172747900000000000000000000000000000000\n        /* \"#utility.yul\":23266:23267   */\n      0x00\n        /* \"#utility.yul\":23258:23264   */\n      dup3\n        /* \"#utility.yul\":23254:23268   */\n      add\n        /* \"#utility.yul\":23247:23289   */\n      mstore\n        /* \"#utility.yul\":23130:23296   */\n      pop\n      jump\t// out\n        /* \"#utility.yul\":23302:23668   */\n    tag_396:\n        /* \"#utility.yul\":23444:23447   */\n      0x00\n        /* \"#utility.yul\":23465:23532   */\n      tag_674\n        /* \"#utility.yul\":23529:23531   */\n      0x10\n        /* \"#utility.yul\":23524:23527   */\n      dup4\n        /* \"#utility.yul\":23465:23532   */\n      tag_338\n      jump\t// in\n    tag_674:\n        /* \"#utility.yul\":23458:23532   */\n      swap2\n      pop\n        /* \"#utility.yul\":23541:23634   */\n      tag_675\n        /* \"#utility.yul\":23630:23633   */\n      dup3\n        /* \"#utility.yul\":23541:23634   */\n      tag_395\n      jump\t// in\n    tag_675:\n        /* \"#utility.yul\":23659:23661   */\n      0x20\n        /* \"#utility.yul\":23654:23657   */\n      dup3\n        /* \"#utility.yul\":23650:23662   */\n      add\n        /* \"#utility.yul\":23643:23662   */\n      swap1\n      pop\n        /* \"#utility.yul\":23302:23668   */\n      swap2\n      swap1\n      pop\n      jump\t// out\n        /* \"#utility.yul\":23674:24093   */\n    tag_168:\n        /* \"#utility.yul\":23840:23844   */\n      0x00\n        /* \"#utility.yul\":23878:23880   */\n      0x20\n        /* \"#utility.yul\":23867:23876   */\n      dup3\n        /* \"#utility.yul\":23863:23881   */\n      add\n        /* \"#utility.yul\":23855:23881   */\n      swap1\n      pop\n        /* \"#utility.yul\":23927:23936   */\n      dup2\n        /* \"#utility.yul\":23921:23925   */\n      dup2\n        /* \"#utility.yul\":23917:23937   */\n      sub\n        /* \"#utility.yul\":23913:23914   */\n      0x00\n        /* \"#utility.yul\":23902:23911   */\n      dup4\n        /* \"#utility.yul\":23898:23915   */\n      add\n        /* \"#utility.yul\":23891:23938   */\n      mstore\n        /* \"#utility.yul\":23955:24086   */\n      tag_677\n        /* \"#utility.yul\":24081:24085   */\n      dup2\n        /* \"#utility.yul\":23955:24086   */\n      tag_396\n      jump\t// in\n    tag_677:\n        /* \"#utility.yul\":23947:24086   */\n      swap1\n      pop\n        /* \"#utility.yul\":23674:24093   */\n      swap2\n      swap1\n      pop\n      jump\t// out\n        /* \"#utility.yul\":24099:24260   */\n    tag_397:\n        /* \"#utility.yul\":24239:24252   */\n      0x416c726561647920736574000000000000000000000000000000000000000000\n        /* \"#utility.yul\":24235:24236   */\n      0x00\n        /* \"#utility.yul\":24227:24233   */\n      dup3\n        /* \"#utility.yul\":24223:24237   */\n      add\n        /* \"#utility.yul\":24216:24253   */\n      mstore\n        /* \"#utility.yul\":24099:24260   */\n      pop\n      jump\t// out\n        /* \"#utility.yul\":24266:24632   */\n    tag_398:\n        /* \"#utility.yul\":24408:24411   */\n      0x00\n        /* \"#utility.yul\":24429:24496   */\n      tag_680\n        /* \"#utility.yul\":24493:24495   */\n      0x0b\n        /* \"#utility.yul\":24488:24491   */\n      dup4\n        /* \"#utility.yul\":24429:24496   */\n      tag_338\n      jump\t// in\n    tag_680:\n        /* \"#utility.yul\":24422:24496   */\n      swap2\n      pop\n        /* \"#utility.yul\":24505:24598   */\n      tag_681\n        /* \"#utility.yul\":24594:24597   */\n      dup3\n        /* \"#utility.yul\":24505:24598   */\n      tag_397\n      jump\t// in\n    tag_681:\n        /* \"#utility.yul\":24623:24625   */\n      0x20\n        /* \"#utility.yul\":24618:24621   */\n      dup3\n        /* \"#utility.yul\":24614:24626   */\n      add\n        /* \"#utility.yul\":24607:24626   */\n      swap1\n      pop\n        /* \"#utility.yul\":24266:24632   */\n      swap2\n      swap1\n      pop\n      jump\t// out\n        /* \"#utility.yul\":24638:25057   */\n    tag_178:\n        /* \"#utility.yul\":24804:24808   */\n      0x00\n        /* \"#utility.yul\":24842:24844   */\n      0x20\n        /* \"#utility.yul\":24831:24840   */\n      dup3\n        /* \"#utility.yul\":24827:24845   */\n      add\n        /* \"#utility.yul\":24819:24845   */\n      swap1\n      pop\n        /* \"#utility.yul\":24891:24900   */\n      dup2\n        /* \"#utility.yul\":24885:24889   */\n      dup2\n        /* \"#utility.yul\":24881:24901   */\n      sub\n        /* \"#utility.yul\":24877:24878   */\n      0x00\n        /* \"#utility.yul\":24866:24875   */\n      dup4\n        /* \"#utility.yul\":24862:24879   */\n      add\n        /* \"#utility.yul\":24855:24902   */\n      mstore\n        /* \"#utility.yul\":24919:25050   */\n      tag_683\n        /* \"#utility.yul\":25045:25049   */\n      dup2\n        /* \"#utility.yul\":24919:25050   */\n      tag_398\n      jump\t// in\n    tag_683:\n        /* \"#utility.yul\":24911:25050   */\n      swap1\n      pop\n        /* \"#utility.yul\":24638:25057   */\n      swap2\n      swap1\n      pop\n      jump\t// out\n        /* \"#utility.yul\":25063:25486   */\n    tag_180:\n        /* \"#utility.yul\":25204:25208   */\n      0x00\n        /* \"#utility.yul\":25242:25244   */\n      0x40\n        /* \"#utility.yul\":25231:25240   */\n      dup3\n        /* \"#utility.yul\":25227:25245   */\n      add\n        /* \"#utility.yul\":25219:25245   */\n      swap1\n      pop\n        /* \"#utility.yul\":25255:25326   */\n      tag_685\n        /* \"#utility.yul\":25323:25324   */\n      0x00\n        /* \"#utility.yul\":25312:25321   */\n      dup4\n        /* \"#utility.yul\":25308:25325   */\n      add\n        /* \"#utility.yul\":25299:25305   */\n      dup6\n        /* \"#utility.yul\":25255:25326   */\n      tag_332\n      jump\t// in\n    tag_685:\n        /* \"#utility.yul\":25373:25382   */\n      dup2\n        /* \"#utility.yul\":25367:25371   */\n      dup2\n        /* \"#utility.yul\":25363:25383   */\n      sub\n        /* \"#utility.yul\":25358:25360   */\n      0x20\n        /* \"#utility.yul\":25347:25356   */\n      dup4\n        /* \"#utility.yul\":25343:25361   */\n      add\n        /* \"#utility.yul\":25336:25384   */\n      mstore\n        /* \"#utility.yul\":25401:25479   */\n      tag_686\n        /* \"#utility.yul\":25474:25478   */\n      dup2\n        /* \"#utility.yul\":25465:25471   */\n      dup5\n        /* \"#utility.yul\":25401:25479   */\n      tag_341\n      jump\t// in\n    tag_686:\n        /* \"#utility.yul\":25393:25479   */\n      swap1\n      pop\n        /* \"#utility.yul\":25063:25486   */\n      swap4\n      swap3\n      pop\n      pop\n      pop\n      jump\t// out\n        /* \"#utility.yul\":25492:25714   */\n    tag_182:\n        /* \"#utility.yul\":25585:25589   */\n      0x00\n        /* \"#utility.yul\":25623:25625   */\n      0x20\n        /* \"#utility.yul\":25612:25621   */\n      dup3\n        /* \"#utility.yul\":25608:25626   */\n      add\n        /* \"#utility.yul\":25600:25626   */\n      swap1\n      pop\n        /* \"#utility.yul\":25636:25707   */\n      tag_688\n        /* \"#utility.yul\":25704:25705   */\n      0x00\n        /* \"#utility.yul\":25693:25702   */\n      dup4\n        /* \"#utility.yul\":25689:25706   */\n      add\n        /* \"#utility.yul\":25680:25686   */\n      dup5\n        /* \"#utility.yul\":25636:25707   */\n      tag_346\n      jump\t// in\n    tag_688:\n        /* \"#utility.yul\":25492:25714   */\n      swap3\n      swap2\n      pop\n      pop\n      jump\t// out\n        /* \"#utility.yul\":25720:25888   */\n    tag_399:\n        /* \"#utility.yul\":25860:25880   */\n      0x4f7261636c6520616c7265616479207365740000000000000000000000000000\n        /* \"#utility.yul\":25856:25857   */\n      0x00\n        /* \"#utility.yul\":25848:25854   */\n      dup3\n        /* \"#utility.yul\":25844:25858   */\n      add\n        /* \"#utility.yul\":25837:25881   */\n      mstore\n        /* \"#utility.yul\":25720:25888   */\n      pop\n      jump\t// out\n        /* \"#utility.yul\":25894:26260   */\n    tag_400:\n        /* \"#utility.yul\":26036:26039   */\n      0x00\n        /* \"#utility.yul\":26057:26124   */\n      tag_691\n        /* \"#utility.yul\":26121:26123   */\n      0x12\n        /* \"#utility.yul\":26116:26119   */\n      dup4\n        /* \"#utility.yul\":26057:26124   */\n      tag_338\n      jump\t// in\n    tag_691:\n        /* \"#utility.yul\":26050:26124   */\n      swap2\n      pop\n        /* \"#utility.yul\":26133:26226   */\n      tag_692\n        /* \"#utility.yul\":26222:26225   */\n      dup3\n        /* \"#utility.yul\":26133:26226   */\n      tag_399\n      jump\t// in\n    tag_692:\n        /* \"#utility.yul\":26251:26253   */\n      0x20\n        /* \"#utility.yul\":26246:26249   */\n      dup3\n        /* \"#utility.yul\":26242:26254   */\n      add\n        /* \"#utility.yul\":26235:26254   */\n      swap1\n      pop\n        /* \"#utility.yul\":25894:26260   */\n      swap2\n      swap1\n      pop\n      jump\t// out\n        /* \"#utility.yul\":26266:26685   */\n    tag_186:\n        /* \"#utility.yul\":26432:26436   */\n      0x00\n        /* \"#utility.yul\":26470:26472   */\n      0x20\n        /* \"#utility.yul\":26459:26468   */\n      dup3\n        /* \"#utility.yul\":26455:26473   */\n      add\n        /* \"#utility.yul\":26447:26473   */\n      swap1\n      pop\n        /* \"#utility.yul\":26519:26528   */\n      dup2\n        /* \"#utility.yul\":26513:26517   */\n      dup2\n        /* \"#utility.yul\":26509:26529   */\n      sub\n        /* \"#utility.yul\":26505:26506   */\n      0x00\n        /* \"#utility.yul\":26494:26503   */\n      dup4\n        /* \"#utility.yul\":26490:26507   */\n      add\n        /* \"#utility.yul\":26483:26530   */\n      mstore\n        /* \"#utility.yul\":26547:26678   */\n      tag_694\n        /* \"#utility.yul\":26673:26677   */\n      dup2\n        /* \"#utility.yul\":26547:26678   */\n      tag_400\n      jump\t// in\n    tag_694:\n        /* \"#utility.yul\":26539:26678   */\n      swap1\n      pop\n        /* \"#utility.yul\":26266:26685   */\n      swap2\n      swap1\n      pop\n      jump\t// out\n        /* \"#utility.yul\":26691:26855   */\n    tag_401:\n        /* \"#utility.yul\":26831:26847   */\n      0x496e76616c6964206f7261636c65000000000000000000000000000000000000\n        /* \"#utility.yul\":26827:26828   */\n      0x00\n        /* \"#utility.yul\":26819:26825   */\n      dup3\n        /* \"#utility.yul\":26815:26829   */\n      add\n        /* \"#utility.yul\":26808:26848   */\n      mstore\n        /* \"#utility.yul\":26691:26855   */\n      pop\n      jump\t// out\n        /* \"#utility.yul\":26861:27227   */\n    tag_402:\n        /* \"#utility.yul\":27003:27006   */\n      0x00\n        /* \"#utility.yul\":27024:27091   */\n      tag_697\n        /* \"#utility.yul\":27088:27090   */\n      0x0e\n        /* \"#utility.yul\":27083:27086   */\n      dup4\n        /* \"#utility.yul\":27024:27091   */\n      tag_338\n      jump\t// in\n    tag_697:\n        /* \"#utility.yul\":27017:27091   */\n      swap2\n      pop\n        /* \"#utility.yul\":27100:27193   */\n      tag_698\n        /* \"#utility.yul\":27189:27192   */\n      dup3\n        /* \"#utility.yul\":27100:27193   */\n      tag_401\n      jump\t// in\n    tag_698:\n        /* \"#utility.yul\":27218:27220   */\n      0x20\n        /* \"#utility.yul\":27213:27216   */\n      dup3\n        /* \"#utility.yul\":27209:27221   */\n      add\n        /* \"#utility.yul\":27202:27221   */\n      swap1\n      pop\n        /* \"#utility.yul\":26861:27227   */\n      swap2\n      swap1\n      pop\n      jump\t// out\n        /* \"#utility.yul\":27233:27652   */\n    tag_189:\n        /* \"#utility.yul\":27399:27403   */\n      0x00\n        /* \"#utility.yul\":27437:27439   */\n      0x20\n        /* \"#utility.yul\":27426:27435   */\n      dup3\n        /* \"#utility.yul\":27422:27440   */\n      add\n        /* \"#utility.yul\":27414:27440   */\n      swap1\n      pop\n        /* \"#utility.yul\":27486:27495   */\n      dup2\n        /* \"#utility.yul\":27480:27484   */\n      dup2\n        /* \"#utility.yul\":27476:27496   */\n      sub\n        /* \"#utility.yul\":27472:27473   */\n      0x00\n        /* \"#utility.yul\":27461:27470   */\n      dup4\n        /* \"#utility.yul\":27457:27474   */\n      add\n        /* \"#utility.yul\":27450:27497   */\n      mstore\n        /* \"#utility.yul\":27514:27645   */\n      tag_700\n        /* \"#utility.yul\":27640:27644   */\n      dup2\n        /* \"#utility.yul\":27514:27645   */\n      tag_402\n      jump\t// in\n    tag_700:\n        /* \"#utility.yul\":27506:27645   */\n      swap1\n      pop\n        /* \"#utility.yul\":27233:27652   */\n      swap2\n      swap1\n      pop\n      jump\t// out\n        /* \"#utility.yul\":27658:27825   */\n    tag_403:\n        /* \"#utility.yul\":27798:27817   */\n      0x5573652064656c697665727920666c6f77000000000000000000000000000000\n        /* \"#utility.yul\":27794:27795   */\n      0x00\n        /* \"#utility.yul\":27786:27792   */\n      dup3\n        /* \"#utility.yul\":27782:27796   */\n      add\n        /* \"#utility.yul\":27775:27818   */\n      mstore\n        /* \"#utility.yul\":27658:27825   */\n      pop\n      jump\t// out\n        /* \"#utility.yul\":27831:28197   */\n    tag_404:\n        /* \"#utility.yul\":27973:27976   */\n      0x00\n        /* \"#utility.yul\":27994:28061   */\n      tag_703\n        /* \"#utility.yul\":28058:28060   */\n      0x11\n        /* \"#utility.yul\":28053:28056   */\n      dup4\n        /* \"#utility.yul\":27994:28061   */\n      tag_338\n      jump\t// in\n    tag_703:\n        /* \"#utility.yul\":27987:28061   */\n      swap2\n      pop\n        /* \"#utility.yul\":28070:28163   */\n      tag_704\n        /* \"#utility.yul\":28159:28162   */\n      dup3\n        /* \"#utility.yul\":28070:28163   */\n      tag_403\n      jump\t// in\n    tag_704:\n        /* \"#utility.yul\":28188:28190   */\n      0x20\n        /* \"#utility.yul\":28183:28186   */\n      dup3\n        /* \"#utility.yul\":28179:28191   */\n      add\n        /* \"#utility.yul\":28172:28191   */\n      swap1\n      pop\n        /* \"#utility.yul\":27831:28197   */\n      swap2\n      swap1\n      pop\n      jump\t// out\n        /* \"#utility.yul\":28203:28622   */\n    tag_205:\n        /* \"#utility.yul\":28369:28373   */\n      0x00\n        /* \"#utility.yul\":28407:28409   */\n      0x20\n        /* \"#utility.yul\":28396:28405   */\n      dup3\n        /* \"#utility.yul\":28392:28410   */\n      add\n        /* \"#utility.yul\":28384:28410   */\n      swap1\n      pop\n        /* \"#utility.yul\":28456:28465   */\n      dup2\n        /* \"#utility.yul\":28450:28454   */\n      dup2\n        /* \"#utility.yul\":28446:28466   */\n      sub\n        /* \"#utility.yul\":28442:28443   */\n      0x00\n        /* \"#utility.yul\":28431:28440   */\n      dup4\n        /* \"#utility.yul\":28427:28444   */\n      add\n        /* \"#utility.yul\":28420:28467   */\n      mstore\n        /* \"#utility.yul\":28484:28615   */\n      tag_706\n        /* \"#utility.yul\":28610:28614   */\n      dup2\n        /* \"#utility.yul\":28484:28615   */\n      tag_404\n      jump\t// in\n    tag_706:\n        /* \"#utility.yul\":28476:28615   */\n      swap1\n      pop\n        /* \"#utility.yul\":28203:28622   */\n      swap2\n      swap1\n      pop\n      jump\t// out\n        /* \"#utility.yul\":28628:28789   */\n    tag_405:\n        /* \"#utility.yul\":28768:28781   */\n      0x4e6f742043726561746564000000000000000000000000000000000000000000\n        /* \"#utility.yul\":28764:28765   */\n      0x00\n        /* \"#utility.yul\":28756:28762   */\n      dup3\n        /* \"#utility.yul\":28752:28766   */\n      add\n        /* \"#utility.yul\":28745:28782   */\n      mstore\n        /* \"#utility.yul\":28628:28789   */\n      pop\n      jump\t// out\n        /* \"#utility.yul\":28795:29161   */\n    tag_406:\n        /* \"#utility.yul\":28937:28940   */\n      0x00\n        /* \"#utility.yul\":28958:29025   */\n      tag_709\n        /* \"#utility.yul\":29022:29024   */\n      0x0b\n        /* \"#utility.yul\":29017:29020   */\n      dup4\n        /* \"#utility.yul\":28958:29025   */\n      tag_338\n      jump\t// in\n    tag_709:\n        /* \"#utility.yul\":28951:29025   */\n      swap2\n      pop\n        /* \"#utility.yul\":29034:29127   */\n      tag_710\n        /* \"#utility.yul\":29123:29126   */\n      dup3\n        /* \"#utility.yul\":29034:29127   */\n      tag_405\n      jump\t// in\n    tag_710:\n        /* \"#utility.yul\":29152:29154   */\n      0x20\n        /* \"#utility.yul\":29147:29150   */\n      dup3\n        /* \"#utility.yul\":29143:29155   */\n      add\n        /* \"#utility.yul\":29136:29155   */\n      swap1\n      pop\n        /* \"#utility.yul\":28795:29161   */\n      swap2\n      swap1\n      pop\n      jump\t// out\n        /* \"#utility.yul\":29167:29586   */\n    tag_222:\n        /* \"#utility.yul\":29333:29337   */\n      0x00\n        /* \"#utility.yul\":29371:29373   */\n      0x20\n        /* \"#utility.yul\":29360:29369   */\n      dup3\n        /* \"#utility.yul\":29356:29374   */\n      add\n        /* \"#utility.yul\":29348:29374   */\n      swap1\n      pop\n        /* \"#utility.yul\":29420:29429   */\n      dup2\n        /* \"#utility.yul\":29414:29418   */\n      dup2\n        /* \"#utility.yul\":29410:29430   */\n      sub\n        /* \"#utility.yul\":29406:29407   */\n      0x00\n        /* \"#utility.yul\":29395:29404   */\n      dup4\n        /* \"#utility.yul\":29391:29408   */\n      add\n        /* \"#utility.yul\":29384:29431   */\n      mstore\n        /* \"#utility.yul\":29448:29579   */\n      tag_712\n        /* \"#utility.yul\":29574:29578   */\n      dup2\n        /* \"#utility.yul\":29448:29579   */\n      tag_406\n      jump\t// in\n    tag_712:\n        /* \"#utility.yul\":29440:29579   */\n      swap1\n      pop\n        /* \"#utility.yul\":29167:29586   */\n      swap2\n      swap1\n      pop\n      jump\t// out\n        /* \"#utility.yul\":29592:29760   */\n    tag_407:\n        /* \"#utility.yul\":29732:29752   */\n      0x302061646472206e6f7420616c6c6f7765640000000000000000000000000000\n        /* \"#utility.yul\":29728:29729   */\n      0x00\n        /* \"#utility.yul\":29720:29726   */\n      dup3\n        /* \"#utility.yul\":29716:29730   */\n      add\n        /* \"#utility.yul\":29709:29753   */\n      mstore\n        /* \"#utility.yul\":29592:29760   */\n      pop\n      jump\t// out\n        /* \"#utility.yul\":29766:30132   */\n    tag_408:\n        /* \"#utility.yul\":29908:29911   */\n      0x00\n        /* \"#utility.yul\":29929:29996   */\n      tag_715\n        /* \"#utility.yul\":29993:29995   */\n      0x12\n        /* \"#utility.yul\":29988:29991   */\n      dup4\n        /* \"#utility.yul\":29929:29996   */\n      tag_338\n      jump\t// in\n    tag_715:\n        /* \"#utility.yul\":29922:29996   */\n      swap2\n      pop\n        /* \"#utility.yul\":30005:30098   */\n      tag_716\n        /* \"#utility.yul\":30094:30097   */\n      dup3\n        /* \"#utility.yul\":30005:30098   */\n      tag_407\n      jump\t// in\n    tag_716:\n        /* \"#utility.yul\":30123:30125   */\n      0x20\n        /* \"#utility.yul\":30118:30121   */\n      dup3\n        /* \"#utility.yul\":30114:30126   */\n      add\n        /* \"#utility.yul\":30107:30126   */\n      swap1\n      pop\n        /* \"#utility.yul\":29766:30132   */\n      swap2\n      swap1\n      pop\n      jump\t// out\n        /* \"#utility.yul\":30138:30557   */\n    tag_228:\n        /* \"#utility.yul\":30304:30308   */\n      0x00\n        /* \"#utility.yul\":30342:30344   */\n      0x20\n        /* \"#utility.yul\":30331:30340   */\n      dup3\n        /* \"#utility.yul\":30327:30345   */\n      add\n        /* \"#utility.yul\":30319:30345   */\n      swap1\n      pop\n        /* \"#utility.yul\":30391:30400   */\n      dup2\n        /* \"#utility.yul\":30385:30389   */\n      dup2\n        /* \"#utility.yul\":30381:30401   */\n      sub\n        /* \"#utility.yul\":30377:30378   */\n      0x00\n        /* \"#utility.yul\":30366:30375   */\n      dup4\n        /* \"#utility.yul\":30362:30379   */\n      add\n        /* \"#utility.yul\":30355:30402   */\n      mstore\n        /* \"#utility.yul\":30419:30550   */\n      tag_718\n        /* \"#utility.yul\":30545:30549   */\n      dup2\n        /* \"#utility.yul\":30419:30550   */\n      tag_408\n      jump\t// in\n    tag_718:\n        /* \"#utility.yul\":30411:30550   */\n      swap1\n      pop\n        /* \"#utility.yul\":30138:30557   */\n      swap2\n      swap1\n      pop\n      jump\t// out\n        /* \"#utility.yul\":30563:30725   */\n    tag_409:\n        /* \"#utility.yul\":30703:30717   */\n      0x455448206d69736d617463680000000000000000000000000000000000000000\n        /* \"#utility.yul\":30699:30700   */\n      0x00\n        /* \"#utility.yul\":30691:30697   */\n      dup3\n        /* \"#utility.yul\":30687:30701   */\n      add\n        /* \"#utility.yul\":30680:30718   */\n      mstore\n        /* \"#utility.yul\":30563:30725   */\n      pop\n      jump\t// out\n        /* \"#utility.yul\":30731:31097   */\n    tag_410:\n        /* \"#utility.yul\":30873:30876   */\n      0x00\n        /* \"#utility.yul\":30894:30961   */\n      tag_721\n        /* \"#utility.yul\":30958:30960   */\n      0x0c\n        /* \"#utility.yul\":30953:30956   */\n      dup4\n        /* \"#utility.yul\":30894:30961   */\n      tag_338\n      jump\t// in\n    tag_721:\n        /* \"#utility.yul\":30887:30961   */\n      swap2\n      pop\n        /* \"#utility.yul\":30970:31063   */\n      tag_722\n        /* \"#utility.yul\":31059:31062   */\n      dup3\n        /* \"#utility.yul\":30970:31063   */\n      tag_409\n      jump\t// in\n    tag_722:\n        /* \"#utility.yul\":31088:31090   */\n      0x20\n        /* \"#utility.yul\":31083:31086   */\n      dup3\n        /* \"#utility.yul\":31079:31091   */\n      add\n        /* \"#utility.yul\":31072:31091   */\n      swap1\n      pop\n        /* \"#utility.yul\":30731:31097   */\n      swap2\n      swap1\n      pop\n      jump\t// out\n        /* \"#utility.yul\":31103:31522   */\n    tag_231:\n        /* \"#utility.yul\":31269:31273   */\n      0x00\n        /* \"#utility.yul\":31307:31309   */\n      0x20\n        /* \"#utility.yul\":31296:31305   */\n      dup3\n        /* \"#utility.yul\":31292:31310   */\n      add\n        /* \"#utility.yul\":31284:31310   */\n      swap1\n      pop\n        /* \"#utility.yul\":31356:31365   */\n      dup2\n        /* \"#utility.yul\":31350:31354   */\n      dup2\n        /* \"#utility.yul\":31346:31366   */\n      sub\n        /* \"#utility.yul\":31342:31343   */\n      0x00\n        /* \"#utility.yul\":31331:31340   */\n      dup4\n        /* \"#utility.yul\":31327:31344   */\n      add\n        /* \"#utility.yul\":31320:31367   */\n      mstore\n        /* \"#utility.yul\":31384:31515   */\n      tag_724\n        /* \"#utility.yul\":31510:31514   */\n      dup2\n        /* \"#utility.yul\":31384:31515   */\n      tag_410\n      jump\t// in\n    tag_724:\n        /* \"#utility.yul\":31376:31515   */\n      swap1\n      pop\n        /* \"#utility.yul\":31103:31522   */\n      swap2\n      swap1\n      pop\n      jump\t// out\n        /* \"#utility.yul\":31528:31695   */\n    tag_411:\n        /* \"#utility.yul\":31668:31687   */\n      0x496e76616c696420495046532068617368000000000000000000000000000000\n        /* \"#utility.yul\":31664:31665   */\n      0x00\n        /* \"#utility.yul\":31656:31662   */\n      dup3\n        /* \"#utility.yul\":31652:31666   */\n      add\n        /* \"#utility.yul\":31645:31688   */\n      mstore\n        /* \"#utility.yul\":31528:31695   */\n      pop\n      jump\t// out\n        /* \"#utility.yul\":31701:32067   */\n    tag_412:\n        /* \"#utility.yul\":31843:31846   */\n      0x00\n        /* \"#utility.yul\":31864:31931   */\n      tag_727\n        /* \"#utility.yul\":31928:31930   */\n      0x11\n        /* \"#utility.yul\":31923:31926   */\n      dup4\n        /* \"#utility.yul\":31864:31931   */\n      tag_338\n      jump\t// in\n    tag_727:\n        /* \"#utility.yul\":31857:31931   */\n      swap2\n      pop\n        /* \"#utility.yul\":31940:32033   */\n      tag_728\n        /* \"#utility.yul\":32029:32032   */\n      dup3\n        /* \"#utility.yul\":31940:32033   */\n      tag_411\n      jump\t// in\n    tag_728:\n        /* \"#utility.yul\":32058:32060   */\n      0x20\n        /* \"#utility.yul\":32053:32056   */\n      dup3\n        /* \"#utility.yul\":32049:32061   */\n      add\n        /* \"#utility.yul\":32042:32061   */\n      swap1\n      pop\n        /* \"#utility.yul\":31701:32067   */\n      swap2\n      swap1\n      pop\n      jump\t// out\n        /* \"#utility.yul\":32073:32492   */\n    tag_234:\n        /* \"#utility.yul\":32239:32243   */\n      0x00\n        /* \"#utility.yul\":32277:32279   */\n      0x20\n        /* \"#utility.yul\":32266:32275   */\n      dup3\n        /* \"#utility.yul\":32262:32280   */\n      add\n        /* \"#utility.yul\":32254:32280   */\n      swap1\n      pop\n        /* \"#utility.yul\":32326:32335   */\n      dup2\n        /* \"#utility.yul\":32320:32324   */\n      dup2\n        /* \"#utility.yul\":32316:32336   */\n      sub\n        /* \"#utility.yul\":32312:32313   */\n      0x00\n        /* \"#utility.yul\":32301:32310   */\n      dup4\n        /* \"#utility.yul\":32297:32314   */\n      add\n        /* \"#utility.yul\":32290:32337   */\n      mstore\n        /* \"#utility.yul\":32354:32485   */\n      tag_730\n        /* \"#utility.yul\":32480:32484   */\n      dup2\n        /* \"#utility.yul\":32354:32485   */\n      tag_412\n      jump\t// in\n    tag_730:\n        /* \"#utility.yul\":32346:32485   */\n      swap1\n      pop\n        /* \"#utility.yul\":32073:32492   */\n      swap2\n      swap1\n      pop\n      jump\t// out\n        /* \"#utility.yul\":32498:32731   */\n    tag_236:\n        /* \"#utility.yul\":32537:32540   */\n      0x00\n        /* \"#utility.yul\":32560:32584   */\n      tag_732\n        /* \"#utility.yul\":32578:32583   */\n      dup3\n        /* \"#utility.yul\":32560:32584   */\n      tag_329\n      jump\t// in\n    tag_732:\n        /* \"#utility.yul\":32551:32584   */\n      swap2\n      pop\n        /* \"#utility.yul\":32606:32672   */\n      0xffffffffffffffffffffffffffffffffffffffffffffffffffffffffffffffff\n        /* \"#utility.yul\":32599:32604   */\n      dup3\n        /* \"#utility.yul\":32596:32673   */\n      sub\n        /* \"#utility.yul\":32593:32696   */\n      tag_733\n      jumpi\n        /* \"#utility.yul\":32676:32694   */\n      tag_734\n      tag_374\n      jump\t// in\n    tag_734:\n        /* \"#utility.yul\":32593:32696   */\n    tag_733:\n        /* \"#utility.yul\":32723:32724   */\n      0x01\n        /* \"#utility.yul\":32716:32721   */\n      dup3\n        /* \"#utility.yul\":32712:32725   */\n      add\n        /* \"#utility.yul\":32705:32725   */\n      swap1\n      pop\n        /* \"#utility.yul\":32498:32731   */\n      swap2\n      swap1\n      pop\n      jump\t// out\n        /* \"#utility.yul\":32737:32879   */\n    tag_413:\n        /* \"#utility.yul\":32787:32796   */\n      0x00\n        /* \"#utility.yul\":32820:32873   */\n      tag_736\n        /* \"#utility.yul\":32838:32872   */\n      tag_737\n        /* \"#utility.yul\":32847:32871   */\n      tag_738\n        /* \"#utility.yul\":32865:32870   */\n      dup5\n        /* \"#utility.yul\":32847:32871   */\n      tag_342\n      jump\t// in\n    tag_738:\n        /* \"#utility.yul\":32838:32872   */\n      tag_384\n      jump\t// in\n    tag_737:\n        /* \"#utility.yul\":32820:32873   */\n      tag_342\n      jump\t// in\n    tag_736:\n        /* \"#utility.yul\":32807:32873   */\n      swap1\n      pop\n        /* \"#utility.yul\":32737:32879   */\n      swap2\n      swap1\n      pop\n      jump\t// out\n        /* \"#utility.yul\":32885:33011   */\n    tag_414:\n        /* \"#utility.yul\":32935:32944   */\n      0x00\n        /* \"#utility.yul\":32968:33005   */\n      tag_740\n        /* \"#utility.yul\":32999:33004   */\n      dup3\n        /* \"#utility.yul\":32968:33005   */\n      tag_413\n      jump\t// in\n    tag_740:\n        /* \"#utility.yul\":32955:33005   */\n      swap1\n      pop\n        /* \"#utility.yul\":32885:33011   */\n      swap2\n      swap1\n      pop\n      jump\t// out\n        /* \"#utility.yul\":33017:33151   */\n    tag_415:\n        /* \"#utility.yul\":33075:33084   */\n      0x00\n        /* \"#utility.yul\":33108:33145   */\n      tag_742\n        /* \"#utility.yul\":33139:33144   */\n      dup3\n        /* \"#utility.yul\":33108:33145   */\n      tag_414\n      jump\t// in\n    tag_742:\n        /* \"#utility.yul\":33095:33145   */\n      swap1\n      pop\n        /* \"#utility.yul\":33017:33151   */\n      swap2\n      swap1\n      pop\n      jump\t// out\n        /* \"#utility.yul\":33157:33304   */\n    tag_416:\n        /* \"#utility.yul\":33252:33297   */\n      tag_744\n        /* \"#utility.yul\":33291:33296   */\n      dup2\n        /* \"#utility.yul\":33252:33297   */\n      tag_415\n      jump\t// in\n    tag_744:\n        /* \"#utility.yul\":33247:33250   */\n      dup3\n        /* \"#utility.yul\":33240:33298   */\n      mstore\n        /* \"#utility.yul\":33157:33304   */\n      pop\n      pop\n      jump\t// out\n        /* \"#utility.yul\":33310:33658   */\n    tag_241:\n        /* \"#utility.yul\":33439:33443   */\n      0x00\n        /* \"#utility.yul\":33477:33479   */\n      0x40\n        /* \"#utility.yul\":33466:33475   */\n      dup3\n        /* \"#utility.yul\":33462:33480   */\n      add\n        /* \"#utility.yul\":33454:33480   */\n      swap1\n      pop\n        /* \"#utility.yul\":33490:33561   */\n      tag_746\n        /* \"#utility.yul\":33558:33559   */\n      0x00\n        /* \"#utility.yul\":33547:33556   */\n      dup4\n        /* \"#utility.yul\":33543:33560   */\n      add\n        /* \"#utility.yul\":33534:33540   */\n      dup6\n        /* \"#utility.yul\":33490:33561   */\n      tag_361\n      jump\t// in\n    tag_746:\n        /* \"#utility.yul\":33571:33651   */\n      tag_747\n        /* \"#utility.yul\":33647:33649   */\n      0x20\n        /* \"#utility.yul\":33636:33645   */\n      dup4\n        /* \"#utility.yul\":33632:33650   */\n      add\n        /* \"#utility.yul\":33623:33629   */\n      dup5\n        /* \"#utility.yul\":33571:33651   */\n      tag_416\n      jump\t// in\n    tag_747:\n        /* \"#utility.yul\":33310:33658   */\n      swap4\n      swap3\n      pop\n      pop\n      pop\n      jump\t// out\n        /* \"#utility.yul\":33664:33827   */\n    tag_417:\n        /* \"#utility.yul\":33804:33819   */\n      0x4e6f7420636f6e6669726d656400000000000000000000000000000000000000\n        /* \"#utility.yul\":33800:33801   */\n      0x00\n        /* \"#utility.yul\":33792:33798   */\n      dup3\n        /* \"#utility.yul\":33788:33802   */\n      add\n        /* \"#utility.yul\":33781:33820   */\n      mstore\n        /* \"#utility.yul\":33664:33827   */\n      pop\n      jump\t// out\n        /* \"#utility.yul\":33833:34199   */\n    tag_418:\n        /* \"#utility.yul\":33975:33978   */\n      0x00\n        /* \"#utility.yul\":33996:34063   */\n      tag_750\n        /* \"#utility.yul\":34060:34062   */\n      0x0d\n        /* \"#utility.yul\":34055:34058   */\n      dup4\n        /* \"#utility.yul\":33996:34063   */\n      tag_338\n      jump\t// in\n    tag_750:\n        /* \"#utility.yul\":33989:34063   */\n      swap2\n      pop\n        /* \"#utility.yul\":34072:34165   */\n      tag_751\n        /* \"#utility.yul\":34161:34164   */\n      dup3\n        /* \"#utility.yul\":34072:34165   */\n      tag_417\n      jump\t// in\n    tag_751:\n        /* \"#utility.yul\":34190:34192   */\n      0x20\n        /* \"#utility.yul\":34185:34188   */\n      dup3\n        /* \"#utility.yul\":34181:34193   */\n      add\n        /* \"#utility.yul\":34174:34193   */\n      swap1\n      pop\n        /* \"#utility.yul\":33833:34199   */\n      swap2\n      swap1\n      pop\n      jump\t// out\n        /* \"#utility.yul\":34205:34624   */\n    tag_258:\n        /* \"#utility.yul\":34371:34375   */\n      0x00\n        /* \"#utility.yul\":34409:34411   */\n      0x20\n        /* \"#utility.yul\":34398:34407   */\n      dup3\n        /* \"#utility.yul\":34394:34412   */\n      add\n        /* \"#utility.yul\":34386:34412   */\n      swap1\n      pop\n        /* \"#utility.yul\":34458:34467   */\n      dup2\n        /* \"#utility.yul\":34452:34456   */\n      dup2\n        /* \"#utility.yul\":34448:34468   */\n      sub\n        /* \"#utility.yul\":34444:34445   */\n      0x00\n        /* \"#utility.yul\":34433:34442   */\n      dup4\n        /* \"#utility.yul\":34429:34446   */\n      add\n        /* \"#utility.yul\":34422:34469   */\n      mstore\n        /* \"#utility.yul\":34486:34617   */\n      tag_753\n        /* \"#utility.yul\":34612:34616   */\n      dup2\n        /* \"#utility.yul\":34486:34617   */\n      tag_418\n      jump\t// in\n    tag_753:\n        /* \"#utility.yul\":34478:34617   */\n      swap1\n      pop\n        /* \"#utility.yul\":34205:34624   */\n      swap2\n      swap1\n      pop\n      jump\t// out\n        /* \"#utility.yul\":34630:34799   */\n    tag_419:\n        /* \"#utility.yul\":34770:34791   */\n      0x54696d656f7574206e6f74207265616368656400000000000000000000000000\n        /* \"#utility.yul\":34766:34767   */\n      0x00\n        /* \"#utility.yul\":34758:34764   */\n      dup3\n        /* \"#utility.yul\":34754:34768   */\n      add\n        /* \"#utility.yul\":34747:34792   */\n      mstore\n        /* \"#utility.yul\":34630:34799   */\n      pop\n      jump\t// out\n        /* \"#utility.yul\":34805:35171   */\n    tag_420:\n        /* \"#utility.yul\":34947:34950   */\n      0x00\n        /* \"#utility.yul\":34968:35035   */\n      tag_756\n        /* \"#utility.yul\":35032:35034   */\n      0x13\n        /* \"#utility.yul\":35027:35030   */\n      dup4\n        /* \"#utility.yul\":34968:35035   */\n      tag_338\n      jump\t// in\n    tag_756:\n        /* \"#utility.yul\":34961:35035   */\n      swap2\n      pop\n        /* \"#utility.yul\":35044:35137   */\n      tag_757\n        /* \"#utility.yul\":35133:35136   */\n      dup3\n        /* \"#utility.yul\":35044:35137   */\n      tag_419\n      jump\t// in\n    tag_757:\n        /* \"#utility.yul\":35162:35164   */\n      0x20\n        /* \"#utility.yul\":35157:35160   */\n      dup3\n        /* \"#utility.yul\":35153:35165   */\n      add\n        /* \"#utility.yul\":35146:35165   */\n      swap1\n      pop\n        /* \"#utility.yul\":34805:35171   */\n      swap2\n      swap1\n      pop\n      jump\t// out\n        /* \"#utility.yul\":35177:35596   */\n    tag_264:\n        /* \"#utility.yul\":35343:35347   */\n      0x00\n        /* \"#utility.yul\":35381:35383   */\n      0x20\n        /* \"#utility.yul\":35370:35379   */\n      dup3\n        /* \"#utility.yul\":35366:35384   */\n      add\n        /* \"#utility.yul\":35358:35384   */\n      swap1\n      pop\n        /* \"#utility.yul\":35430:35439   */\n      dup2\n        /* \"#utility.yul\":35424:35428   */\n      dup2\n        /* \"#utility.yul\":35420:35440   */\n      sub\n        /* \"#utility.yul\":35416:35417   */\n      0x00\n        /* \"#utility.yul\":35405:35414   */\n      dup4\n        /* \"#utility.yul\":35401:35418   */\n      add\n        /* \"#utility.yul\":35394:35441   */\n      mstore\n        /* \"#utility.yul\":35458:35589   */\n      tag_759\n        /* \"#utility.yul\":35584:35588   */\n      dup2\n        /* \"#utility.yul\":35458:35589   */\n      tag_420\n      jump\t// in\n    tag_759:\n        /* \"#utility.yul\":35450:35589   */\n      swap1\n      pop\n        /* \"#utility.yul\":35177:35596   */\n      swap2\n      swap1\n      pop\n      jump\t// out\n        /* \"#utility.yul\":35602:35762   */\n    tag_421:\n        /* \"#utility.yul\":35742:35754   */\n      0x4e6f74206f7261636c6500000000000000000000000000000000000000000000\n        /* \"#utility.yul\":35738:35739   */\n      0x00\n        /* \"#utility.yul\":35730:35736   */\n      dup3\n        /* \"#utility.yul\":35726:35740   */\n      add\n        /* \"#utility.yul\":35719:35755   */\n      mstore\n        /* \"#utility.yul\":35602:35762   */\n      pop\n      jump\t// out\n        /* \"#utility.yul\":35768:36134   */\n    tag_422:\n        /* \"#utility.yul\":35910:35913   */\n      0x00\n        /* \"#utility.yul\":35931:35998   */\n      tag_762\n        /* \"#utility.yul\":35995:35997   */\n      0x0a\n        /* \"#utility.yul\":35990:35993   */\n      dup4\n        /* \"#utility.yul\":35931:35998   */\n      tag_338\n      jump\t// in\n    tag_762:\n        /* \"#utility.yul\":35924:35998   */\n      swap2\n      pop\n        /* \"#utility.yul\":36007:36100   */\n      tag_763\n        /* \"#utility.yul\":36096:36099   */\n      dup3\n        /* \"#utility.yul\":36007:36100   */\n      tag_421\n      jump\t// in\n    tag_763:\n        /* \"#utility.yul\":36125:36127   */\n      0x20\n        /* \"#utility.yul\":36120:36123   */\n      dup3\n        /* \"#utility.yul\":36116:36128   */\n      add\n        /* \"#utility.yul\":36109:36128   */\n      swap1\n      pop\n        /* \"#utility.yul\":35768:36134   */\n      swap2\n      swap1\n      pop\n      jump\t// out\n        /* \"#utility.yul\":36140:36559   */\n    tag_275:\n        /* \"#utility.yul\":36306:36310   */\n      0x00\n        /* \"#utility.yul\":36344:36346   */\n      0x20\n        /* \"#utility.yul\":36333:36342   */\n      dup3\n        /* \"#utility.yul\":36329:36347   */\n      add\n        /* \"#utility.yul\":36321:36347   */\n      swap1\n      pop\n        /* \"#utility.yul\":36393:36402   */\n      dup2\n        /* \"#utility.yul\":36387:36391   */\n      dup2\n        /* \"#utility.yul\":36383:36403   */\n      sub\n        /* \"#utility.yul\":36379:36380   */\n      0x00\n        /* \"#utility.yul\":36368:36377   */\n      dup4\n        /* \"#utility.yul\":36364:36381   */\n      add\n        /* \"#utility.yul\":36357:36404   */\n      mstore\n        /* \"#utility.yul\":36421:36552   */\n      tag_765\n        /* \"#utility.yul\":36547:36551   */\n      dup2\n        /* \"#utility.yul\":36421:36552   */\n      tag_422\n      jump\t// in\n    tag_765:\n        /* \"#utility.yul\":36413:36552   */\n      swap1\n      pop\n        /* \"#utility.yul\":36140:36559   */\n      swap2\n      swap1\n      pop\n      jump\t// out\n        /* \"#utility.yul\":36565:36732   */\n    tag_423:\n        /* \"#utility.yul\":36705:36724   */\n      0x416c726561647920636f6e6669726d6564000000000000000000000000000000\n        /* \"#utility.yul\":36701:36702   */\n      0x00\n        /* \"#utility.yul\":36693:36699   */\n      dup3\n        /* \"#utility.yul\":36689:36703   */\n      add\n        /* \"#utility.yul\":36682:36725   */\n      mstore\n        /* \"#utility.yul\":36565:36732   */\n      pop\n      jump\t// out\n        /* \"#utility.yul\":36738:37104   */\n    tag_424:\n        /* \"#utility.yul\":36880:36883   */\n      0x00\n        /* \"#utility.yul\":36901:36968   */\n      tag_768\n        /* \"#utility.yul\":36965:36967   */\n      0x11\n        /* \"#utility.yul\":36960:36963   */\n      dup4\n        /* \"#utility.yul\":36901:36968   */\n      tag_338\n      jump\t// in\n    tag_768:\n        /* \"#utility.yul\":36894:36968   */\n      swap2\n      pop\n        /* \"#utility.yul\":36977:37070   */\n      tag_769\n        /* \"#utility.yul\":37066:37069   */\n      dup3\n        /* \"#utility.yul\":36977:37070   */\n      tag_423\n      jump\t// in\n    tag_769:\n        /* \"#utility.yul\":37095:37097   */\n      0x20\n        /* \"#utility.yul\":37090:37093   */\n      dup3\n        /* \"#utility.yul\":37086:37098   */\n      add\n        /* \"#utility.yul\":37079:37098   */\n      swap1\n      pop\n        /* \"#utility.yul\":36738:37104   */\n      swap2\n      swap1\n      pop\n      jump\t// out\n        /* \"#utility.yul\":37110:37529   */\n    tag_287:\n        /* \"#utility.yul\":37276:37280   */\n      0x00\n        /* \"#utility.yul\":37314:37316   */\n      0x20\n        /* \"#utility.yul\":37303:37312   */\n      dup3\n        /* \"#utility.yul\":37299:37317   */\n      add\n        /* \"#utility.yul\":37291:37317   */\n      swap1\n      pop\n        /* \"#utility.yul\":37363:37372   */\n      dup2\n        /* \"#utility.yul\":37357:37361   */\n      dup2\n        /* \"#utility.yul\":37353:37373   */\n      sub\n        /* \"#utility.yul\":37349:37350   */\n      0x00\n        /* \"#utility.yul\":37338:37347   */\n      dup4\n        /* \"#utility.yul\":37334:37351   */\n      add\n        /* \"#utility.yul\":37327:37374   */\n      mstore\n        /* \"#utility.yul\":37391:37522   */\n      tag_771\n        /* \"#utility.yul\":37517:37521   */\n      dup2\n        /* \"#utility.yul\":37391:37522   */\n      tag_424\n      jump\t// in\n    tag_771:\n        /* \"#utility.yul\":37383:37522   */\n      swap1\n      pop\n        /* \"#utility.yul\":37110:37529   */\n      swap2\n      swap1\n      pop\n      jump\t// out\n        /* \"#utility.yul\":37535:37698   */\n    tag_425:\n        /* \"#utility.yul\":37675:37690   */\n      0x48617368206d69736d6174636800000000000000000000000000000000000000\n        /* \"#utility.yul\":37671:37672   */\n      0x00\n        /* \"#utility.yul\":37663:37669   */\n      dup3\n        /* \"#utility.yul\":37659:37673   */\n      add\n        /* \"#utility.yul\":37652:37691   */\n      mstore\n        /* \"#utility.yul\":37535:37698   */\n      pop\n      jump\t// out\n        /* \"#utility.yul\":37704:38070   */\n    tag_426:\n        /* \"#utility.yul\":37846:37849   */\n      0x00\n        /* \"#utility.yul\":37867:37934   */\n      tag_774\n        /* \"#utility.yul\":37931:37933   */\n      0x0d\n        /* \"#utility.yul\":37926:37929   */\n      dup4\n        /* \"#utility.yul\":37867:37934   */\n      tag_338\n      jump\t// in\n    tag_774:\n        /* \"#utility.yul\":37860:37934   */\n      swap2\n      pop\n        /* \"#utility.yul\":37943:38036   */\n      tag_775\n        /* \"#utility.yul\":38032:38035   */\n      dup3\n        /* \"#utility.yul\":37943:38036   */\n      tag_425\n      jump\t// in\n    tag_775:\n        /* \"#utility.yul\":38061:38063   */\n      0x20\n        /* \"#utility.yul\":38056:38059   */\n      dup3\n        /* \"#utility.yul\":38052:38064   */\n      add\n        /* \"#utility.yul\":38045:38064   */\n      swap1\n      pop\n        /* \"#utility.yul\":37704:38070   */\n      swap2\n      swap1\n      pop\n      jump\t// out\n        /* \"#utility.yul\":38076:38495   */\n    tag_291:\n        /* \"#utility.yul\":38242:38246   */\n      0x00\n        /* \"#utility.yul\":38280:38282   */\n      0x20\n        /* \"#utility.yul\":38269:38278   */\n      dup3\n        /* \"#utility.yul\":38265:38283   */\n      add\n        /* \"#utility.yul\":38257:38283   */\n      swap1\n      pop\n        /* \"#utility.yul\":38329:38338   */\n      dup2\n        /* \"#utility.yul\":38323:38327   */\n      dup2\n        /* \"#utility.yul\":38319:38339   */\n      sub\n        /* \"#utility.yul\":38315:38316   */\n      0x00\n        /* \"#utility.yul\":38304:38313   */\n      dup4\n        /* \"#utility.yul\":38300:38317   */\n      add\n        /* \"#utility.yul\":38293:38340   */\n      mstore\n        /* \"#utility.yul\":38357:38488   */\n      tag_777\n        /* \"#utility.yul\":38483:38487   */\n      dup2\n        /* \"#utility.yul\":38357:38488   */\n      tag_426\n      jump\t// in\n    tag_777:\n        /* \"#utility.yul\":38349:38488   */\n      swap1\n      pop\n        /* \"#utility.yul\":38076:38495   */\n      swap2\n      swap1\n      pop\n      jump\t// out\n        /* \"#utility.yul\":38501:38664   */\n    tag_427:\n        /* \"#utility.yul\":38641:38656   */\n      0x4e6f7420636f6d706c6574656400000000000000000000000000000000000000\n        /* \"#utility.yul\":38637:38638   */\n      0x00\n        /* \"#utility.yul\":38629:38635   */\n      dup3\n        /* \"#utility.yul\":38625:38639   */\n      add\n        /* \"#utility.yul\":38618:38657   */\n      mstore\n        /* \"#utility.yul\":38501:38664   */\n      pop\n      jump\t// out\n        /* \"#utility.yul\":38670:39036   */\n    tag_428:\n        /* \"#utility.yul\":38812:38815   */\n      0x00\n        /* \"#utility.yul\":38833:38900   */\n      tag_780\n        /* \"#utility.yul\":38897:38899   */\n      0x0d\n        /* \"#utility.yul\":38892:38895   */\n      dup4\n        /* \"#utility.yul\":38833:38900   */\n      tag_338\n      jump\t// in\n    tag_780:\n        /* \"#utility.yul\":38826:38900   */\n      swap2\n      pop\n        /* \"#utility.yul\":38909:39002   */\n      tag_781\n        /* \"#utility.yul\":38998:39001   */\n      dup3\n        /* \"#utility.yul\":38909:39002   */\n      tag_427\n      jump\t// in\n    tag_781:\n        /* \"#utility.yul\":39027:39029   */\n      0x20\n        /* \"#utility.yul\":39022:39025   */\n      dup3\n        /* \"#utility.yul\":39018:39030   */\n      add\n        /* \"#utility.yul\":39011:39030   */\n      swap1\n      pop\n        /* \"#utility.yul\":38670:39036   */\n      swap2\n      swap1\n      pop\n      jump\t// out\n        /* \"#utility.yul\":39042:39461   */\n    tag_302:\n        /* \"#utility.yul\":39208:39212   */\n      0x00\n        /* \"#utility.yul\":39246:39248   */\n      0x20\n        /* \"#utility.yul\":39235:39244   */\n      dup3\n        /* \"#utility.yul\":39231:39249   */\n      add\n        /* \"#utility.yul\":39223:39249   */\n      swap1\n      pop\n        /* \"#utility.yul\":39295:39304   */\n      dup2\n        /* \"#utility.yul\":39289:39293   */\n      dup2\n        /* \"#utility.yul\":39285:39305   */\n      sub\n        /* \"#utility.yul\":39281:39282   */\n      0x00\n        /* \"#utility.yul\":39270:39279   */\n      dup4\n        /* \"#utility.yul\":39266:39283   */\n      add\n        /* \"#utility.yul\":39259:39306   */\n      mstore\n        /* \"#utility.yul\":39323:39454   */\n      tag_783\n        /* \"#utility.yul\":39449:39453   */\n      dup2\n        /* \"#utility.yul\":39323:39454   */\n      tag_428\n      jump\t// in\n    tag_783:\n        /* \"#utility.yul\":39315:39454   */\n      swap1\n      pop\n        /* \"#utility.yul\":39042:39461   */\n      swap2\n      swap1\n      pop\n      jump\t// out\n        /* \"#utility.yul\":39467:39630   */\n    tag_429:\n        /* \"#utility.yul\":39607:39622   */\n      0x4e6f7420726563697069656e7400000000000000000000000000000000000000\n        /* \"#utility.yul\":39603:39604   */\n      0x00\n        /* \"#utility.yul\":39595:39601   */\n      dup3\n        /* \"#utility.yul\":39591:39605   */\n      add\n        /* \"#utility.yul\":39584:39623   */\n      mstore\n        /* \"#utility.yul\":39467:39630   */\n      pop\n      jump\t// out\n        /* \"#utility.yul\":39636:40002   */\n    tag_430:\n        /* \"#utility.yul\":39778:39781   */\n      0x00\n        /* \"#utility.yul\":39799:39866   */\n      tag_786\n        /* \"#utility.yul\":39863:39865   */\n      0x0d\n        /* \"#utility.yul\":39858:39861   */\n      dup4\n        /* \"#utility.yul\":39799:39866   */\n      tag_338\n      jump\t// in\n    tag_786:\n        /* \"#utility.yul\":39792:39866   */\n      swap2\n      pop\n        /* \"#utility.yul\":39875:39968   */\n      tag_787\n        /* \"#utility.yul\":39964:39967   */\n      dup3\n        /* \"#utility.yul\":39875:39968   */\n      tag_429\n      jump\t// in\n    tag_787:\n        /* \"#utility.yul\":39993:39995   */\n      0x20\n        /* \"#utility.yul\":39988:39991   */\n      dup3\n        /* \"#utility.yul\":39984:39996   */\n      add\n        /* \"#utility.yul\":39977:39996   */\n      swap1\n      pop\n        /* \"#utility.yul\":39636:40002   */\n      swap2\n      swap1\n      pop\n      jump\t// out\n        /* \"#utility.yul\":40008:40427   */\n    tag_305:\n        /* \"#utility.yul\":40174:40178   */\n      0x00\n        /* \"#utility.yul\":40212:40214   */\n      0x20\n        /* \"#utility.yul\":40201:40210   */\n      dup3\n        /* \"#utility.yul\":40197:40215   */\n      add\n        /* \"#utility.yul\":40189:40215   */\n      swap1\n      pop\n        /* \"#utility.yul\":40261:40270   */\n      dup2\n        /* \"#utility.yul\":40255:40259   */\n      dup2\n        /* \"#utility.yul\":40251:40271   */\n      sub\n        /* \"#utility.yul\":40247:40248   */\n      0x00\n        /* \"#utility.yul\":40236:40245   */\n      dup4\n        /* \"#utility.yul\":40232:40249   */\n      add\n        /* \"#utility.yul\":40225:40272   */\n      mstore\n        /* \"#utility.yul\":40289:40420   */\n      tag_789\n        /* \"#utility.yul\":40415:40419   */\n      dup2\n        /* \"#utility.yul\":40289:40420   */\n      tag_430\n      jump\t// in\n    tag_789:\n        /* \"#utility.yul\":40281:40420   */\n      swap1\n      pop\n        /* \"#utility.yul\":40008:40427   */\n      swap2\n      swap1\n      pop\n      jump\t// out\n        /* \"#utility.yul\":40433:40593   */\n    tag_431:\n        /* \"#utility.yul\":40573:40585   */\n      0x4e6f2062616c616e636500000000000000000000000000000000000000000000\n        /* \"#utility.yul\":40569:40570   */\n      0x00\n        /* \"#utility.yul\":40561:40567   */\n      dup3\n        /* \"#utility.yul\":40557:40571   */\n      add\n        /* \"#utility.yul\":40550:40586   */\n      mstore\n        /* \"#utility.yul\":40433:40593   */\n      pop\n      jump\t// out\n        /* \"#utility.yul\":40599:40965   */\n    tag_432:\n        /* \"#utility.yul\":40741:40744   */\n      0x00\n        /* \"#utility.yul\":40762:40829   */\n      tag_792\n        /* \"#utility.yul\":40826:40828   */\n      0x0a\n        /* \"#utility.yul\":40821:40824   */\n      dup4\n        /* \"#utility.yul\":40762:40829   */\n      tag_338\n      jump\t// in\n    tag_792:\n        /* \"#utility.yul\":40755:40829   */\n      swap2\n      pop\n        /* \"#utility.yul\":40838:40931   */\n      tag_793\n        /* \"#utility.yul\":40927:40930   */\n      dup3\n        /* \"#utility.yul\":40838:40931   */\n      tag_431\n      jump\t// in\n    tag_793:\n        /* \"#utility.yul\":40956:40958   */\n      0x20\n        /* \"#utility.yul\":40951:40954   */\n      dup3\n        /* \"#utility.yul\":40947:40959   */\n      add\n        /* \"#utility.yul\":40940:40959   */\n      swap1\n      pop\n        /* \"#utility.yul\":40599:40965   */\n      swap2\n      swap1\n      pop\n      jump\t// out\n        /* \"#utility.yul\":40971:41390   */\n    tag_308:\n        /* \"#utility.yul\":41137:41141   */\n      0x00\n        /* \"#utility.yul\":41175:41177   */\n      0x20\n        /* \"#utility.yul\":41164:41173   */\n      dup3\n        /* \"#utility.yul\":41160:41178   */\n      add\n        /* \"#utility.yul\":41152:41178   */\n      swap1\n      pop\n        /* \"#utility.yul\":41224:41233   */\n      dup2\n        /* \"#utility.yul\":41218:41222   */\n      dup2\n        /* \"#utility.yul\":41214:41234   */\n      sub\n        /* \"#utility.yul\":41210:41211   */\n      0x00\n        /* \"#utility.yul\":41199:41208   */\n      dup4\n        /* \"#utility.yul\":41195:41212   */\n      add\n        /* \"#utility.yul\":41188:41235   */\n      mstore\n        /* \"#utility.yul\":41252:41383   */\n      tag_795\n        /* \"#utility.yul\":41378:41382   */\n      dup2\n        /* \"#utility.yul\":41252:41383   */\n      tag_432\n      jump\t// in\n    tag_795:\n        /* \"#utility.yul\":41244:41383   */\n      swap1\n      pop\n        /* \"#utility.yul\":40971:41390   */\n      swap2\n      swap1\n      pop\n      jump\t// out\n        /* \"#utility.yul\":41396:41590   */\n    tag_310:\n        /* \"#utility.yul\":41436:41440   */\n      0x00\n        /* \"#utility.yul\":41456:41476   */\n      tag_797\n        /* \"#utility.yul\":41474:41475   */\n      dup3\n        /* \"#utility.yul\":41456:41476   */\n      tag_329\n      jump\t// in\n    tag_797:\n        /* \"#utility.yul\":41451:41476   */\n      swap2\n      pop\n        /* \"#utility.yul\":41490:41510   */\n      tag_798\n        /* \"#utility.yul\":41508:41509   */\n      dup4\n        /* \"#utility.yul\":41490:41510   */\n      tag_329\n      jump\t// in\n    tag_798:\n        /* \"#utility.yul\":41485:41510   */\n      swap3\n      pop\n        /* \"#utility.yul\":41534:41535   */\n      dup3\n        /* \"#utility.yul\":41531:41532   */\n      dup3\n        /* \"#utility.yul\":41527:41536   */\n      sub\n        /* \"#utility.yul\":41519:41536   */\n      swap1\n      pop\n        /* \"#utility.yul\":41558:41559   */\n      dup2\n        /* \"#utility.yul\":41552:41556   */\n      dup2\n        /* \"#utility.yul\":41549:41560   */\n      gt\n        /* \"#utility.yul\":41546:41583   */\n      iszero\n      tag_799\n      jumpi\n        /* \"#utility.yul\":41563:41581   */\n      tag_800\n      tag_374\n      jump\t// in\n    tag_800:\n        /* \"#utility.yul\":41546:41583   */\n    tag_799:\n        /* \"#utility.yul\":41396:41590   */\n      swap3\n      swap2\n      pop\n      pop\n      jump\t// out\n        /* \"#utility.yul\":41596:41743   */\n    tag_433:\n        /* \"#utility.yul\":41697:41708   */\n      0x00\n        /* \"#utility.yul\":41734:41737   */\n      dup2\n        /* \"#utility.yul\":41719:41737   */\n      swap1\n      pop\n        /* \"#utility.yul\":41596:41743   */\n      swap3\n      swap2\n      pop\n      pop\n      jump\t// out\n        /* \"#utility.yul\":41749:41863   */\n    tag_434:\n      pop\n      jump\t// out\n        /* \"#utility.yul\":41869:42267   */\n    tag_435:\n        /* \"#utility.yul\":42028:42031   */\n      0x00\n        /* \"#utility.yul\":42049:42132   */\n      tag_804\n        /* \"#utility.yul\":42130:42131   */\n      0x00\n        /* \"#utility.yul\":42125:42128   */\n      dup4\n        /* \"#utility.yul\":42049:42132   */\n      tag_433\n      jump\t// in\n    tag_804:\n        /* \"#utility.yul\":42042:42132   */\n      swap2\n      pop\n        /* \"#utility.yul\":42141:42234   */\n      tag_805\n        /* \"#utility.yul\":42230:42233   */\n      dup3\n        /* \"#utility.yul\":42141:42234   */\n      tag_434\n      jump\t// in\n    tag_805:\n        /* \"#utility.yul\":42259:42260   */\n      0x00\n        /* \"#utility.yul\":42254:42257   */\n      dup3\n        /* \"#utility.yul\":42250:42261   */\n      add\n        /* \"#utility.yul\":42243:42261   */\n      swap1\n      pop\n        /* \"#utility.yul\":41869:42267   */\n      swap2\n      swap1\n      pop\n      jump\t// out\n        /* \"#utility.yul\":42273:42652   */\n    tag_312:\n        /* \"#utility.yul\":42457:42460   */\n      0x00\n        /* \"#utility.yul\":42479:42626   */\n      tag_807\n        /* \"#utility.yul\":42622:42625   */\n      dup3\n        /* \"#utility.yul\":42479:42626   */\n      tag_435\n      jump\t// in\n    tag_807:\n        /* \"#utility.yul\":42472:42626   */\n      swap2\n      pop\n        /* \"#utility.yul\":42643:42646   */\n      dup2\n        /* \"#utility.yul\":42636:42646   */\n      swap1\n      pop\n        /* \"#utility.yul\":42273:42652   */\n      swap2\n      swap1\n      pop\n      jump\t// out\n        /* \"#utility.yul\":42658:42823   */\n    tag_436:\n        /* \"#utility.yul\":42798:42815   */\n      0x5769746864726177206661696c65640000000000000000000000000000000000\n        /* \"#utility.yul\":42794:42795   */\n      0x00\n        /* \"#utility.yul\":42786:42792   */\n      dup3\n        /* \"#utility.yul\":42782:42796   */\n      add\n        /* \"#utility.yul\":42775:42816   */\n      mstore\n        /* \"#utility.yul\":42658:42823   */\n      pop\n      jump\t// out\n        /* \"#utility.yul\":42829:43195   */\n    tag_437:\n        /* \"#utility.yul\":42971:42974   */\n      0x00\n        /* \"#utility.yul\":42992:43059   */\n      tag_810\n        /* \"#utility.yul\":43056:43058   */\n      0x0f\n        /* \"#utility.yul\":43051:43054   */\n      dup4\n        /* \"#utility.yul\":42992:43059   */\n      tag_338\n      jump\t// in\n    tag_810:\n        /* \"#utility.yul\":42985:43059   */\n      swap2\n      pop\n        /* \"#utility.yul\":43068:43161   */\n      tag_811\n        /* \"#utility.yul\":43157:43160   */\n      dup3\n        /* \"#utility.yul\":43068:43161   */\n      tag_436\n      jump\t// in\n    tag_811:\n        /* \"#utility.yul\":43186:43188   */\n      0x20\n        /* \"#utility.yul\":43181:43184   */\n      dup3\n        /* \"#utility.yul\":43177:43189   */\n      add\n        /* \"#utility.yul\":43170:43189   */\n      swap1\n      pop\n        /* \"#utility.yul\":42829:43195   */\n      swap2\n      swap1\n      pop\n      jump\t// out\n        /* \"#utility.yul\":43201:43620   */\n    tag_318:\n        /* \"#utility.yul\":43367:43371   */\n      0x00\n        /* \"#utility.yul\":43405:43407   */\n      0x20\n        /* \"#utility.yul\":43394:43403   */\n      dup3\n        /* \"#utility.yul\":43390:43408   */\n      add\n        /* \"#utility.yul\":43382:43408   */\n      swap1\n      pop\n        /* \"#utility.yul\":43454:43463   */\n      dup2\n        /* \"#utility.yul\":43448:43452   */\n      dup2\n        /* \"#utility.yul\":43444:43464   */\n      sub\n        /* \"#utility.yul\":43440:43441   */\n      0x00\n        /* \"#utility.yul\":43429:43438   */\n      dup4\n        /* \"#utility.yul\":43425:43442   */\n      add\n        /* \"#utility.yul\":43418:43465   */\n      mstore\n        /* \"#utility.yul\":43482:43613   */\n      tag_813\n        /* \"#utility.yul\":43608:43612   */\n      dup2\n        /* \"#utility.yul\":43482:43613   */\n      tag_437\n      jump\t// in\n    tag_813:\n        /* \"#utility.yul\":43474:43613   */\n      swap1\n      pop\n        /* \"#utility.yul\":43201:43620   */\n      swap2\n      swap1\n      pop\n      jump\t// out\n        /* \"#utility.yul\":43626:43807   */\n    tag_438:\n        /* \"#utility.yul\":43766:43799   */\n      0x5265656e7472616e637947756172643a207265656e7472616e742063616c6c00\n        /* \"#utility.yul\":43762:43763   */\n      0x00\n        /* \"#utility.yul\":43754:43760   */\n      dup3\n        /* \"#utility.yul\":43750:43764   */\n      add\n        /* \"#utility.yul\":43743:43800   */\n      mstore\n        /* \"#utility.yul\":43626:43807   */\n      pop\n      jump\t// out\n        /* \"#utility.yul\":43813:44179   */\n    tag_439:\n        /* \"#utility.yul\":43955:43958   */\n      0x00\n        /* \"#utility.yul\":43976:44043   */\n      tag_816\n        /* \"#utility.yul\":44040:44042   */\n      0x1f\n        /* \"#utility.yul\":44035:44038   */\n      dup4\n        /* \"#utility.yul\":43976:44043   */\n      tag_338\n      jump\t// in\n    tag_816:\n        /* \"#utility.yul\":43969:44043   */\n      swap2\n      pop\n        /* \"#utility.yul\":44052:44145   */\n      tag_817\n        /* \"#utility.yul\":44141:44144   */\n      dup3\n        /* \"#utility.yul\":44052:44145   */\n      tag_438\n      jump\t// in\n    tag_817:\n        /* \"#utility.yul\":44170:44172   */\n      0x20\n        /* \"#utility.yul\":44165:44168   */\n      dup3\n        /* \"#utility.yul\":44161:44173   */\n      add\n        /* \"#utility.yul\":44154:44173   */\n      swap1\n      pop\n        /* \"#utility.yul\":43813:44179   */\n      swap2\n      swap1\n      pop\n      jump\t// out\n        /* \"#utility.yul\":44185:44604   */\n    tag_324:\n        /* \"#utility.yul\":44351:44355   */\n      0x00\n        /* \"#utility.yul\":44389:44391   */\n      0x20\n        /* \"#utility.yul\":44378:44387   */\n      dup3\n        /* \"#utility.yul\":44374:44392   */\n      add\n        /* \"#utility.yul\":44366:44392   */\n      swap1\n      pop\n        /* \"#utility.yul\":44438:44447   */\n      dup2\n        /* \"#utility.yul\":44432:44436   */\n      dup2\n        /* \"#utility.yul\":44428:44448   */\n      sub\n        /* \"#utility.yul\":44424:44425   */\n      0x00\n        /* \"#utility.yul\":44413:44422   */\n      dup4\n        /* \"#utility.yul\":44409:44426   */\n      add\n        /* \"#utility.yul\":44402:44449   */\n      mstore\n        /* \"#utility.yul\":44466:44597   */\n      tag_819\n        /* \"#utility.yul\":44592:44596   */\n      dup2\n        /* \"#utility.yul\":44466:44597   */\n      tag_439\n      jump\t// in\n    tag_819:\n        /* \"#utility.yul\":44458:44597   */\n      swap1\n      pop\n        /* \"#utility.yul\":44185:44604   */\n      swap2\n      swap1\n      pop\n      jump\t// out\n\n    auxdata: 0xa2646970667358221220737f05334e9d76dec58bc020484904a6d5f1cc06f66d1c2fd4685de35503852b64736f6c634300081e0033\n}\n",
				"bytecode": {
					"linkReferences": {},
					"object": "6080604052348015600e575f5ffd5b5060015f81905550613595806100235f395ff3fe6080604052600436106100fd575f3560e01c80637dc0d1d011610094578063a069bc2511610063578063a069bc251461031f578063c43bf3c214610347578063df5c29801461036f578063edb3b27a14610397578063f3f43703146103c1576100fd565b80637dc0d1d01461028957806394aeb613146102b35780639537e8d1146102db5780639ce5b6ca14610303576100fd565b806322a45cd0116100d057806322a45cd0146101cb578063474da79a146101f357806354b7b6d3146102395780637adbf97314610261576100fd565b8063032ca42d14610101578063067bd3b41461012957806317b18458146101535780631ed4af8c1461018f575b5f5ffd5b34801561010c575f5ffd5b50610127600480360381019061012291906120d5565b6103fd565b005b348015610134575f5ffd5b5061013d6107e4565b60405161014a919061210f565b60405180910390f35b34801561015e575f5ffd5b50610179600480360381019061017491906120d5565b6107ea565b604051610186919061219b565b60405180910390f35b34801561019a575f5ffd5b506101b560048036038101906101b091906120d5565b610814565b6040516101c29190612224565b60405180910390f35b3480156101d6575f5ffd5b506101f160048036038101906101ec91906120d5565b6108b8565b005b3480156101fe575f5ffd5b50610219600480360381019061021491906120d5565b610adc565b6040516102309b9a999897969594939291906122b5565b60405180910390f35b348015610244575f5ffd5b5061025f600480360381019061025a9190612491565b610c29565b005b34801561026c575f5ffd5b5061028760048036038101906102829190612526565b610e37565b005b348015610294575f5ffd5b5061029d610f95565b6040516102aa9190612560565b60405180910390f35b3480156102be575f5ffd5b506102d960048036038101906102d491906120d5565b610fba565b005b3480156102e6575f5ffd5b5061030160048036038101906102fc91906120d5565b61126b565b005b61031d600480360381019061031891906125a3565b6113f7565b005b34801561032a575f5ffd5b50610345600480360381019061034091906120d5565b61162f565b005b348015610352575f5ffd5b5061036d60048036038101906103689190612491565b611a7b565b005b34801561037a575f5ffd5b50610395600480360381019061039091906120d5565b611d0e565b005b3480156103a2575f5ffd5b506103ab612013565b6040516103b8919061260f565b60405180910390f35b3480156103cc575f5ffd5b506103e760048036038101906103e29190612526565b612026565b6040516103f4919061210f565b60405180910390f35b8060025f8281526020019081526020015f206002015f9054906101000a900473ffffffffffffffffffffffffffffffffffffffff1673ffffffffffffffffffffffffffffffffffffffff163373ffffffffffffffffffffffffffffffffffffffff161461049f576040517f08c379a000000000000000000000000000000000000000000000000000000000815260040161049690612672565b60405180910390fd5b5f60025f8481526020019081526020015f209050806006015f9054906101000a900460ff16610503576040517f08c379a00000000000000000000000000000000000000000000000000000000081526004016104fa906126da565b60405180910390fd5b6001600381111561051757610516612128565b5b8160030160149054906101000a900460ff16600381111561053b5761053a612128565b5b1461057b576040517f08c379a000000000000000000000000000000000000000000000000000000000815260040161057290612742565b60405180910390fd5b8060060160019054906101000a900460ff166105cc576040517f08c379a00000000000000000000000000000000000000000000000000000000081526004016105c3906127aa565b60405180910390fd5b8060060160029054906101000a900460ff161561061e576040517f08c379a000000000000000000000000000000000000000000000000000000000815260040161061590612812565b60405180910390fd5b60018160060160026101000a81548160ff02191690831515021790555060028160030160146101000a81548160ff0219169083600381111561066357610662612128565b5b0217905550806001015460045f836003015f9054906101000a900473ffffffffffffffffffffffffffffffffffffffff1673ffffffffffffffffffffffffffffffffffffffff1673ffffffffffffffffffffffffffffffffffffffff1681526020019081526020015f20546106d8919061285d565b60045f836003015f9054906101000a900473ffffffffffffffffffffffffffffffffffffffff1673ffffffffffffffffffffffffffffffffffffffff1673ffffffffffffffffffffffffffffffffffffffff1681526020019081526020015f2081905550827f5c1e662f72ee6c85181b65fac5beb0390932b8c472f05b257151d041ac9ddffa60405160405180910390a2806003015f9054906101000a900473ffffffffffffffffffffffffffffffffffffffff1673ffffffffffffffffffffffffffffffffffffffff16837f21d71db5be59bb9fa133895586b7404307dd33fb93b16db09dc6f1d9d7d231b083600101546040516107d7919061210f565b60405180910390a3505050565b60035481565b5f60025f8381526020019081526020015f2060030160149054906101000a900460ff169050919050565b606060025f8381526020019081526020015f206004018054610835906128bd565b80601f0160208091040260200160405190810160405280929190818152602001828054610861906128bd565b80156108ac5780601f10610883576101008083540402835291602001916108ac565b820191905f5260205f20905b81548152906001019060200180831161088f57829003601f168201915b50505050509050919050565b8060025f8281526020019081526020015f206002015f9054906101000a900473ffffffffffffffffffffffffffffffffffffffff1673ffffffffffffffffffffffffffffffffffffffff163373ffffffffffffffffffffffffffffffffffffffff161461095a576040517f08c379a000000000000000000000000000000000000000000000000000000000815260040161095190612672565b60405180910390fd5b5f60025f8481526020019081526020015f2090506002600381111561098257610981612128565b5b8160030160149054906101000a900460ff1660038111156109a6576109a5612128565b5b036109e6576040517f08c379a00000000000000000000000000000000000000000000000000000000081526004016109dd90612937565b60405180910390fd5b6003808111156109f9576109f8612128565b5b8160030160149054906101000a900460ff166003811115610a1d57610a1c612128565b5b03610a5d576040517f08c379a0000000000000000000000000000000000000000000000000000000008152600401610a549061299f565b60405180910390fd5b60405180602001604052805f815250816004019081610a7c9190612b5d565b5060038160030160146101000a81548160ff02191690836003811115610aa557610aa4612128565b5b0217905550827f741b099f015e1976cfa72a7448a8fb1d54eab1d616241b562cfbe603a2b61b4260405160405180910390a2505050565b6002602052805f5260405f205f91509050805f015490806001015490806002015f9054906101000a900473ffffffffffffffffffffffffffffffffffffffff1690806003015f9054906101000a900473ffffffffffffffffffffffffffffffffffffffff16908060030160149054906101000a900460ff1690806004018054610b64906128bd565b80601f0160208091040260200160405190810160405280929190818152602001828054610b90906128bd565b8015610bdb5780601f10610bb257610100808354040283529160200191610bdb565b820191905f5260205f20905b815481529060010190602001808311610bbe57829003601f168201915b505050505090806005015490806006015f9054906101000a900460ff16908060060160019054906101000a900460ff16908060060160029054906101000a900460ff1690806007015490508b565b8160025f8281526020019081526020015f206003015f9054906101000a900473ffffffffffffffffffffffffffffffffffffffff1673ffffffffffffffffffffffffffffffffffffffff163373ffffffffffffffffffffffffffffffffffffffff1614610ccb576040517f08c379a0000000000000000000000000000000000000000000000000000000008152600401610cc290612c76565b60405180910390fd5b5f60025f8581526020019081526020015f20905060016003811115610cf357610cf2612128565b5b8160030160149054906101000a900460ff166003811115610d1757610d16612128565b5b14610d57576040517f08c379a0000000000000000000000000000000000000000000000000000000008152600401610d4e90612742565b60405180910390fd5b806006015f9054906101000a900460ff1615610da8576040517f08c379a0000000000000000000000000000000000000000000000000000000008152600401610d9f90612cde565b60405180910390fd5b8383604051602001610dbb929190612cfc565b6040516020818303038152906040528051906020012081600501819055506001816006015f6101000a81548160ff021916908315150217905550837f4b70739c5f0bd46e19773020c599342cdbdc3ac59b5e0abfdd9c1bb441be59c88260050154604051610e299190612d2a565b60405180910390a250505050565b600160149054906101000a900460ff1615610e87576040517f08c379a0000000000000000000000000000000000000000000000000000000008152600401610e7e90612d8d565b60405180910390fd5b5f73ffffffffffffffffffffffffffffffffffffffff168173ffffffffffffffffffffffffffffffffffffffff1603610ef5576040517f08c379a0000000000000000000000000000000000000000000000000000000008152600401610eec90612df5565b60405180910390fd5b8060015f6101000a81548173ffffffffffffffffffffffffffffffffffffffff021916908373ffffffffffffffffffffffffffffffffffffffff16021790555060018060146101000a81548160ff0219169083151502179055508073ffffffffffffffffffffffffffffffffffffffff167f3f32684a32a11dabdbb8c0177de80aa3ae36a004d75210335b49e544e48cd0aa60405160405180910390a250565b60015f9054906101000a900473ffffffffffffffffffffffffffffffffffffffff1681565b610fc261203b565b8060025f8281526020019081526020015f206002015f9054906101000a900473ffffffffffffffffffffffffffffffffffffffff1673ffffffffffffffffffffffffffffffffffffffff163373ffffffffffffffffffffffffffffffffffffffff1614611064576040517f08c379a000000000000000000000000000000000000000000000000000000000815260040161105b90612672565b60405180910390fd5b5f60025f8481526020019081526020015f2090506001600381111561108c5761108b612128565b5b8160030160149054906101000a900460ff1660038111156110b0576110af612128565b5b146110f0576040517f08c379a00000000000000000000000000000000000000000000000000000000081526004016110e790612742565b60405180910390fd5b806006015f9054906101000a900460ff1615611141576040517f08c379a000000000000000000000000000000000000000000000000000000000815260040161113890612e5d565b60405180910390fd5b60028160030160146101000a81548160ff0219169083600381111561116957611168612128565b5b0217905550806001015460045f836003015f9054906101000a900473ffffffffffffffffffffffffffffffffffffffff1673ffffffffffffffffffffffffffffffffffffffff1673ffffffffffffffffffffffffffffffffffffffff1681526020019081526020015f205f8282546111e1919061285d565b92505081905550806003015f9054906101000a900473ffffffffffffffffffffffffffffffffffffffff1673ffffffffffffffffffffffffffffffffffffffff16837f21d71db5be59bb9fa133895586b7404307dd33fb93b16db09dc6f1d9d7d231b08360010154604051611256919061210f565b60405180910390a35050611268612088565b50565b8060025f8281526020019081526020015f206003015f9054906101000a900473ffffffffffffffffffffffffffffffffffffffff1673ffffffffffffffffffffffffffffffffffffffff163373ffffffffffffffffffffffffffffffffffffffff161461130d576040517f08c379a000000000000000000000000000000000000000000000000000000000815260040161130490612c76565b60405180910390fd5b5f60025f8481526020019081526020015f2090505f600381111561133457611333612128565b5b8160030160149054906101000a900460ff16600381111561135857611357612128565b5b14611398576040517f08c379a000000000000000000000000000000000000000000000000000000000815260040161138f90612ec5565b60405180910390fd5b60018160030160146101000a81548160ff021916908360038111156113c0576113bf612128565b5b0217905550827faf3c49f5413fd292e2325b0fe214de144a222b00cb6ec21214fdc04b5d6c591360405160405180910390a2505050565b5f73ffffffffffffffffffffffffffffffffffffffff168373ffffffffffffffffffffffffffffffffffffffff1603611465576040517f08c379a000000000000000000000000000000000000000000000000000000000815260040161145c90612f2d565b60405180910390fd5b8034146114a7576040517f08c379a000000000000000000000000000000000000000000000000000000000815260040161149e90612f95565b60405180910390fd5b600a8251116114eb576040517f08c379a00000000000000000000000000000000000000000000000000000000081526004016114e290612ffd565b60405180910390fd5b60035f8154809291906114fd9061301b565b91905055505f60025f60035481526020019081526020015f209050600354815f018190555081816001018190555033816002015f6101000a81548173ffffffffffffffffffffffffffffffffffffffff021916908373ffffffffffffffffffffffffffffffffffffffff16021790555083816003015f6101000a81548173ffffffffffffffffffffffffffffffffffffffff021916908373ffffffffffffffffffffffffffffffffffffffff1602179055505f8160030160146101000a81548160ff021916908360038111156115d6576115d5612128565b5b0217905550828160040190816115ec9190612b5d565b506003547f56560a52c047ed21fd801bf0f345b23d9af696f7922ff8e63101af5d48caddab33866040516116219291906130b4565b60405180910390a250505050565b61163761203b565b8060025f8281526020019081526020015f206003015f9054906101000a900473ffffffffffffffffffffffffffffffffffffffff1673ffffffffffffffffffffffffffffffffffffffff163373ffffffffffffffffffffffffffffffffffffffff16146116d9576040517f08c379a00000000000000000000000000000000000000000000000000000000081526004016116d090612c76565b60405180910390fd5b5f60025f8481526020019081526020015f209050806006015f9054906101000a900460ff1661173d576040517f08c379a0000000000000000000000000000000000000000000000000000000008152600401611734906126da565b60405180910390fd5b6001600381111561175157611750612128565b5b8160030160149054906101000a900460ff16600381111561177557611774612128565b5b146117b5576040517f08c379a00000000000000000000000000000000000000000000000000000000081526004016117ac90612742565b60405180910390fd5b8060060160019054906101000a900460ff16611806576040517f08c379a00000000000000000000000000000000000000000000000000000000081526004016117fd90613125565b60405180910390fd5b8060060160029054906101000a900460ff1615611858576040517f08c379a000000000000000000000000000000000000000000000000000000000815260040161184f90612812565b60405180910390fd5b62093a80816007015461186b919061285d565b4210156118ad576040517f08c379a00000000000000000000000000000000000000000000000000000000081526004016118a49061318d565b60405180910390fd5b60018160060160026101000a81548160ff02191690831515021790555060028160030160146101000a81548160ff021916908360038111156118f2576118f1612128565b5b0217905550806001015460045f836003015f9054906101000a900473ffffffffffffffffffffffffffffffffffffffff1673ffffffffffffffffffffffffffffffffffffffff1673ffffffffffffffffffffffffffffffffffffffff1681526020019081526020015f2054611967919061285d565b60045f836003015f9054906101000a900473ffffffffffffffffffffffffffffffffffffffff1673ffffffffffffffffffffffffffffffffffffffff1673ffffffffffffffffffffffffffffffffffffffff1681526020019081526020015f2081905550827f5c1e662f72ee6c85181b65fac5beb0390932b8c472f05b257151d041ac9ddffa60405160405180910390a2806003015f9054906101000a900473ffffffffffffffffffffffffffffffffffffffff1673ffffffffffffffffffffffffffffffffffffffff16837f21d71db5be59bb9fa133895586b7404307dd33fb93b16db09dc6f1d9d7d231b08360010154604051611a66919061210f565b60405180910390a35050611a78612088565b50565b611a8361203b565b60015f9054906101000a900473ffffffffffffffffffffffffffffffffffffffff1673ffffffffffffffffffffffffffffffffffffffff163373ffffffffffffffffffffffffffffffffffffffff1614611b12576040517f08c379a0000000000000000000000000000000000000000000000000000000008152600401611b09906131f5565b60405180910390fd5b5f60025f8481526020019081526020015f209050806006015f9054906101000a900460ff16611b76576040517f08c379a0000000000000000000000000000000000000000000000000000000008152600401611b6d906126da565b60405180910390fd5b60016003811115611b8a57611b89612128565b5b8160030160149054906101000a900460ff166003811115611bae57611bad612128565b5b14611bee576040517f08c379a0000000000000000000000000000000000000000000000000000000008152600401611be590612742565b60405180910390fd5b8060060160019054906101000a900460ff1615611c40576040517f08c379a0000000000000000000000000000000000000000000000000000000008152600401611c379061325d565b60405180910390fd5b8282604051602001611c53929190612cfc565b60405160208183030381529060405280519060200120816005015414611cae576040517f08c379a0000000000000000000000000000000000000000000000000000000008152600401611ca5906132c5565b60405180910390fd5b60018160060160016101000a81548160ff021916908315150217905550428160070181905550827f375b4005eeae25d0e37d56e1b3841d3bb394b277efa2548de3293f5dcb7a349360405160405180910390a250611d0a612088565b5050565b611d1661203b565b5f60025f8381526020019081526020015f20905060026003811115611d3e57611d3d612128565b5b8160030160149054906101000a900460ff166003811115611d6257611d61612128565b5b14611da2576040517f08c379a0000000000000000000000000000000000000000000000000000000008152600401611d999061332d565b60405180910390fd5b3373ffffffffffffffffffffffffffffffffffffffff16816003015f9054906101000a900473ffffffffffffffffffffffffffffffffffffffff1673ffffffffffffffffffffffffffffffffffffffff1614611e33576040517f08c379a0000000000000000000000000000000000000000000000000000000008152600401611e2a90613395565b60405180910390fd5b5f816001015490508060045f3373ffffffffffffffffffffffffffffffffffffffff1673ffffffffffffffffffffffffffffffffffffffff1681526020019081526020015f20541015611ebb576040517f08c379a0000000000000000000000000000000000000000000000000000000008152600401611eb2906133fd565b60405180910390fd5b8060045f3373ffffffffffffffffffffffffffffffffffffffff1673ffffffffffffffffffffffffffffffffffffffff1681526020019081526020015f205f828254611f07919061341b565b925050819055505f3373ffffffffffffffffffffffffffffffffffffffff1682604051611f339061347b565b5f6040518083038185875af1925050503d805f8114611f6d576040519150601f19603f3d011682016040523d82523d5f602084013e611f72565b606091505b5050905080611fb6576040517f08c379a0000000000000000000000000000000000000000000000000000000008152600401611fad906134d9565b60405180910390fd5b3373ffffffffffffffffffffffffffffffffffffffff16847ff440aec6b52895984d061d622e6edeba6210f7c3e059be920663140c084560d784604051611ffd919061210f565b60405180910390a3505050612010612088565b50565b600160149054906101000a900460ff1681565b6004602052805f5260405f205f915090505481565b60025f540361207f576040517f08c379a000000000000000000000000000000000000000000000000000000000815260040161207690613541565b60405180910390fd5b60025f81905550565b60015f81905550565b5f604051905090565b5f5ffd5b5f5ffd5b5f819050919050565b6120b4816120a2565b81146120be575f5ffd5b50565b5f813590506120cf816120ab565b92915050565b5f602082840312156120ea576120e961209a565b5b5f6120f7848285016120c1565b91505092915050565b612109816120a2565b82525050565b5f6020820190506121225f830184612100565b92915050565b7f4e487b71000000000000000000000000000000000000000000000000000000005f52602160045260245ffd5b6004811061216657612165612128565b5b50565b5f81905061217682612155565b919050565b5f61218582612169565b9050919050565b6121958161217b565b82525050565b5f6020820190506121ae5f83018461218c565b92915050565b5f81519050919050565b5f82825260208201905092915050565b8281835e5f83830152505050565b5f601f19601f8301169050919050565b5f6121f6826121b4565b61220081856121be565b93506122108185602086016121ce565b612219816121dc565b840191505092915050565b5f6020820190508181035f83015261223c81846121ec565b905092915050565b5f73ffffffffffffffffffffffffffffffffffffffff82169050919050565b5f61226d82612244565b9050919050565b61227d81612263565b82525050565b5f819050919050565b61229581612283565b82525050565b5f8115159050919050565b6122af8161229b565b82525050565b5f610160820190506122c95f83018e612100565b6122d6602083018d612100565b6122e3604083018c612274565b6122f0606083018b612274565b6122fd608083018a61218c565b81810360a083015261230f81896121ec565b905061231e60c083018861228c565b61232b60e08301876122a6565b6123396101008301866122a6565b6123476101208301856122a6565b612355610140830184612100565b9c9b505050505050505050505050565b5f5ffd5b5f5ffd5b7f4e487b71000000000000000000000000000000000000000000000000000000005f52604160045260245ffd5b6123a3826121dc565b810181811067ffffffffffffffff821117156123c2576123c161236d565b5b80604052505050565b5f6123d4612091565b90506123e0828261239a565b919050565b5f67ffffffffffffffff8211156123ff576123fe61236d565b5b612408826121dc565b9050602081019050919050565b828183375f83830152505050565b5f612435612430846123e5565b6123cb565b90508281526020810184848401111561245157612450612369565b5b61245c848285612415565b509392505050565b5f82601f83011261247857612477612365565b5b8135612488848260208601612423565b91505092915050565b5f5f604083850312156124a7576124a661209a565b5b5f6124b4858286016120c1565b925050602083013567ffffffffffffffff8111156124d5576124d461209e565b5b6124e185828601612464565b9150509250929050565b5f6124f582612244565b9050919050565b612505816124eb565b811461250f575f5ffd5b50565b5f81359050612520816124fc565b92915050565b5f6020828403121561253b5761253a61209a565b5b5f61254884828501612512565b91505092915050565b61255a816124eb565b82525050565b5f6020820190506125735f830184612551565b92915050565b61258281612263565b811461258c575f5ffd5b50565b5f8135905061259d81612579565b92915050565b5f5f5f606084860312156125ba576125b961209a565b5b5f6125c78682870161258f565b935050602084013567ffffffffffffffff8111156125e8576125e761209e565b5b6125f486828701612464565b9250506040612605868287016120c1565b9150509250925092565b5f6020820190506126225f8301846122a6565b92915050565b7f4e6f742063726561746f720000000000000000000000000000000000000000005f82015250565b5f61265c600b836121be565b915061266782612628565b602082019050919050565b5f6020820190508181035f83015261268981612650565b9050919050565b7f4e6f2064656c69766572790000000000000000000000000000000000000000005f82015250565b5f6126c4600b836121be565b91506126cf82612690565b602082019050919050565b5f6020820190508181035f8301526126f1816126b8565b9050919050565b7f4e6f74205369676e6564000000000000000000000000000000000000000000005f82015250565b5f61272c600a836121be565b9150612737826126f8565b602082019050919050565b5f6020820190508181035f83015261275981612720565b9050919050565b7f44656c6976657279206d697373696e67000000000000000000000000000000005f82015250565b5f6127946010836121be565b915061279f82612760565b602082019050919050565b5f6020820190508181035f8301526127c181612788565b9050919050565b7f416c726561647920617070726f766564000000000000000000000000000000005f82015250565b5f6127fc6010836121be565b9150612807826127c8565b602082019050919050565b5f6020820190508181035f830152612829816127f0565b9050919050565b7f4e487b71000000000000000000000000000000000000000000000000000000005f52601160045260245ffd5b5f612867826120a2565b9150612872836120a2565b925082820190508082111561288a57612889612830565b5b92915050565b7f4e487b71000000000000000000000000000000000000000000000000000000005f52602260045260245ffd5b5f60028204905060018216806128d457607f821691505b6020821081036128e7576128e6612890565b5b50919050565b7f416c726561647920636f6d706c657465640000000000000000000000000000005f82015250565b5f6129216011836121be565b915061292c826128ed565b602082019050919050565b5f6020820190508181035f83015261294e81612915565b9050919050565b7f416c72656164792063616e63656c6c65640000000000000000000000000000005f82015250565b5f6129896011836121be565b915061299482612955565b602082019050919050565b5f6020820190508181035f8301526129b68161297d565b9050919050565b5f819050815f5260205f209050919050565b5f6020601f8301049050919050565b5f82821b905092915050565b5f60088302612a197fffffffffffffffffffffffffffffffffffffffffffffffffffffffffffffffff826129de565b612a2386836129de565b95508019841693508086168417925050509392505050565b5f819050919050565b5f612a5e612a59612a54846120a2565b612a3b565b6120a2565b9050919050565b5f819050919050565b612a7783612a44565b612a8b612a8382612a65565b8484546129ea565b825550505050565b5f5f905090565b612aa2612a93565b612aad818484612a6e565b505050565b5b81811015612ad057612ac55f82612a9a565b600181019050612ab3565b5050565b601f821115612b1557612ae6816129bd565b612aef846129cf565b81016020851015612afe578190505b612b12612b0a856129cf565b830182612ab2565b50505b505050565b5f82821c905092915050565b5f612b355f1984600802612b1a565b1980831691505092915050565b5f612b4d8383612b26565b9150826002028217905092915050565b612b66826121b4565b67ffffffffffffffff811115612b7f57612b7e61236d565b5b612b8982546128bd565b612b94828285612ad4565b5f60209050601f831160018114612bc5575f8415612bb3578287015190505b612bbd8582612b42565b865550612c24565b601f198416612bd3866129bd565b5f5b82811015612bfa57848901518255600182019150602085019450602081019050612bd5565b86831015612c175784890151612c13601f891682612b26565b8355505b6001600288020188555050505b505050505050565b7f4e6f7420636f756e7465727061727479000000000000000000000000000000005f82015250565b5f612c606010836121be565b9150612c6b82612c2c565b602082019050919050565b5f6020820190508181035f830152612c8d81612c54565b9050919050565b7f416c7265616479207365740000000000000000000000000000000000000000005f82015250565b5f612cc8600b836121be565b9150612cd382612c94565b602082019050919050565b5f6020820190508181035f830152612cf581612cbc565b9050919050565b5f604082019050612d0f5f830185612100565b8181036020830152612d2181846121ec565b90509392505050565b5f602082019050612d3d5f83018461228c565b92915050565b7f4f7261636c6520616c72656164792073657400000000000000000000000000005f82015250565b5f612d776012836121be565b9150612d8282612d43565b602082019050919050565b5f6020820190508181035f830152612da481612d6b565b9050919050565b7f496e76616c6964206f7261636c650000000000000000000000000000000000005f82015250565b5f612ddf600e836121be565b9150612dea82612dab565b602082019050919050565b5f6020820190508181035f830152612e0c81612dd3565b9050919050565b7f5573652064656c697665727920666c6f770000000000000000000000000000005f82015250565b5f612e476011836121be565b9150612e5282612e13565b602082019050919050565b5f6020820190508181035f830152612e7481612e3b565b9050919050565b7f4e6f7420437265617465640000000000000000000000000000000000000000005f82015250565b5f612eaf600b836121be565b9150612eba82612e7b565b602082019050919050565b5f6020820190508181035f830152612edc81612ea3565b9050919050565b7f302061646472206e6f7420616c6c6f77656400000000000000000000000000005f82015250565b5f612f176012836121be565b9150612f2282612ee3565b602082019050919050565b5f6020820190508181035f830152612f4481612f0b565b9050919050565b7f455448206d69736d6174636800000000000000000000000000000000000000005f82015250565b5f612f7f600c836121be565b9150612f8a82612f4b565b602082019050919050565b5f6020820190508181035f830152612fac81612f73565b9050919050565b7f496e76616c6964204950465320686173680000000000000000000000000000005f82015250565b5f612fe76011836121be565b9150612ff282612fb3565b602082019050919050565b5f6020820190508181035f83015261301481612fdb565b9050919050565b5f613025826120a2565b91507fffffffffffffffffffffffffffffffffffffffffffffffffffffffffffffffff820361305757613056612830565b5b600182019050919050565b5f61307c61307761307284612244565b612a3b565b612244565b9050919050565b5f61308d82613062565b9050919050565b5f61309e82613083565b9050919050565b6130ae81613094565b82525050565b5f6040820190506130c75f830185612551565b6130d460208301846130a5565b9392505050565b7f4e6f7420636f6e6669726d6564000000000000000000000000000000000000005f82015250565b5f61310f600d836121be565b915061311a826130db565b602082019050919050565b5f6020820190508181035f83015261313c81613103565b9050919050565b7f54696d656f7574206e6f742072656163686564000000000000000000000000005f82015250565b5f6131776013836121be565b915061318282613143565b602082019050919050565b5f6020820190508181035f8301526131a48161316b565b9050919050565b7f4e6f74206f7261636c65000000000000000000000000000000000000000000005f82015250565b5f6131df600a836121be565b91506131ea826131ab565b602082019050919050565b5f6020820190508181035f83015261320c816131d3565b9050919050565b7f416c726561647920636f6e6669726d65640000000000000000000000000000005f82015250565b5f6132476011836121be565b915061325282613213565b602082019050919050565b5f6020820190508181035f8301526132748161323b565b9050919050565b7f48617368206d69736d61746368000000000000000000000000000000000000005f82015250565b5f6132af600d836121be565b91506132ba8261327b565b602082019050919050565b5f6020820190508181035f8301526132dc816132a3565b9050919050565b7f4e6f7420636f6d706c65746564000000000000000000000000000000000000005f82015250565b5f613317600d836121be565b9150613322826132e3565b602082019050919050565b5f6020820190508181035f8301526133448161330b565b9050919050565b7f4e6f7420726563697069656e74000000000000000000000000000000000000005f82015250565b5f61337f600d836121be565b915061338a8261334b565b602082019050919050565b5f6020820190508181035f8301526133ac81613373565b9050919050565b7f4e6f2062616c616e6365000000000000000000000000000000000000000000005f82015250565b5f6133e7600a836121be565b91506133f2826133b3565b602082019050919050565b5f6020820190508181035f830152613414816133db565b9050919050565b5f613425826120a2565b9150613430836120a2565b925082820390508181111561344857613447612830565b5b92915050565b5f81905092915050565b50565b5f6134665f8361344e565b915061347182613458565b5f82019050919050565b5f6134858261345b565b9150819050919050565b7f5769746864726177206661696c656400000000000000000000000000000000005f82015250565b5f6134c3600f836121be565b91506134ce8261348f565b602082019050919050565b5f6020820190508181035f8301526134f0816134b7565b9050919050565b7f5265656e7472616e637947756172643a207265656e7472616e742063616c6c005f82015250565b5f61352b601f836121be565b9150613536826134f7565b602082019050919050565b5f6020820190508181035f8301526135588161351f565b905091905056fea2646970667358221220737f05334e9d76dec58bc020484904a6d5f1cc06f66d1c2fd4685de35503852b64736f6c634300081e0033",
					"opcodes": "PUSH1 0x80 PUSH1 0x40 MSTORE CALLVALUE DUP1 ISZERO PUSH1 0xE JUMPI PUSH0 PUSH0 REVERT JUMPDEST POP PUSH1 0x1 PUSH0 DUP2 SWAP1 SSTORE POP PUSH2 0x3595 DUP1 PUSH2 0x23 PUSH0 CODECOPY PUSH0 RETURN INVALID PUSH1 0x80 PUSH1 0x40 MSTORE PUSH1 0x4 CALLDATASIZE LT PUSH2 0xFD JUMPI PUSH0 CALLDATALOAD PUSH1 0xE0 SHR DUP1 PUSH4 0x7DC0D1D0 GT PUSH2 0x94 JUMPI DUP1 PUSH4 0xA069BC25 GT PUSH2 0x63 JUMPI DUP1 PUSH4 0xA069BC25 EQ PUSH2 0x31F JUMPI DUP1 PUSH4 0xC43BF3C2 EQ PUSH2 0x347 JUMPI DUP1 PUSH4 0xDF5C2980 EQ PUSH2 0x36F JUMPI DUP1 PUSH4 0xEDB3B27A EQ PUSH2 0x397 JUMPI DUP1 PUSH4 0xF3F43703 EQ PUSH2 0x3C1 JUMPI PUSH2 0xFD JUMP JUMPDEST DUP1 PUSH4 0x7DC0D1D0 EQ PUSH2 0x289 JUMPI DUP1 PUSH4 0x94AEB613 EQ PUSH2 0x2B3 JUMPI DUP1 PUSH4 0x9537E8D1 EQ PUSH2 0x2DB JUMPI DUP1 PUSH4 0x9CE5B6CA EQ PUSH2 0x303 JUMPI PUSH2 0xFD JUMP JUMPDEST DUP1 PUSH4 0x22A45CD0 GT PUSH2 0xD0 JUMPI DUP1 PUSH4 0x22A45CD0 EQ PUSH2 0x1CB JUMPI DUP1 PUSH4 0x474DA79A EQ PUSH2 0x1F3 JUMPI DUP1 PUSH4 0x54B7B6D3 EQ PUSH2 0x239 JUMPI DUP1 PUSH4 0x7ADBF973 EQ PUSH2 0x261 JUMPI PUSH2 0xFD JUMP JUMPDEST DUP1 PUSH4 0x32CA42D EQ PUSH2 0x101 JUMPI DUP1 PUSH4 0x67BD3B4 EQ PUSH2 0x129 JUMPI DUP1 PUSH4 0x17B18458 EQ PUSH2 0x153 JUMPI DUP1 PUSH4 0x1ED4AF8C EQ PUSH2 0x18F JUMPI JUMPDEST PUSH0 PUSH0 REVERT JUMPDEST CALLVALUE DUP1 ISZERO PUSH2 0x10C JUMPI PUSH0 PUSH0 REVERT JUMPDEST POP PUSH2 0x127 PUSH1 0x4 DUP1 CALLDATASIZE SUB DUP2 ADD SWAP1 PUSH2 0x122 SWAP2 SWAP1 PUSH2 0x20D5 JUMP JUMPDEST PUSH2 0x3FD JUMP JUMPDEST STOP JUMPDEST CALLVALUE DUP1 ISZERO PUSH2 0x134 JUMPI PUSH0 PUSH0 REVERT JUMPDEST POP PUSH2 0x13D PUSH2 0x7E4 JUMP JUMPDEST PUSH1 0x40 MLOAD PUSH2 0x14A SWAP2 SWAP1 PUSH2 0x210F JUMP JUMPDEST PUSH1 0x40 MLOAD DUP1 SWAP2 SUB SWAP1 RETURN JUMPDEST CALLVALUE DUP1 ISZERO PUSH2 0x15E JUMPI PUSH0 PUSH0 REVERT JUMPDEST POP PUSH2 0x179 PUSH1 0x4 DUP1 CALLDATASIZE SUB DUP2 ADD SWAP1 PUSH2 0x174 SWAP2 SWAP1 PUSH2 0x20D5 JUMP JUMPDEST PUSH2 0x7EA JUMP JUMPDEST PUSH1 0x40 MLOAD PUSH2 0x186 SWAP2 SWAP1 PUSH2 0x219B JUMP JUMPDEST PUSH1 0x40 MLOAD DUP1 SWAP2 SUB SWAP1 RETURN JUMPDEST CALLVALUE DUP1 ISZERO PUSH2 0x19A JUMPI PUSH0 PUSH0 REVERT JUMPDEST POP PUSH2 0x1B5 PUSH1 0x4 DUP1 CALLDATASIZE SUB DUP2 ADD SWAP1 PUSH2 0x1B0 SWAP2 SWAP1 PUSH2 0x20D5 JUMP JUMPDEST PUSH2 0x814 JUMP JUMPDEST PUSH1 0x40 MLOAD PUSH2 0x1C2 SWAP2 SWAP1 PUSH2 0x2224 JUMP JUMPDEST PUSH1 0x40 MLOAD DUP1 SWAP2 SUB SWAP1 RETURN JUMPDEST CALLVALUE DUP1 ISZERO PUSH2 0x1D6 JUMPI PUSH0 PUSH0 REVERT JUMPDEST POP PUSH2 0x1F1 PUSH1 0x4 DUP1 CALLDATASIZE SUB DUP2 ADD SWAP1 PUSH2 0x1EC SWAP2 SWAP1 PUSH2 0x20D5 JUMP JUMPDEST PUSH2 0x8B8 JUMP JUMPDEST STOP JUMPDEST CALLVALUE DUP1 ISZERO PUSH2 0x1FE JUMPI PUSH0 PUSH0 REVERT JUMPDEST POP PUSH2 0x219 PUSH1 0x4 DUP1 CALLDATASIZE SUB DUP2 ADD SWAP1 PUSH2 0x214 SWAP2 SWAP1 PUSH2 0x20D5 JUMP JUMPDEST PUSH2 0xADC JUMP JUMPDEST PUSH1 0x40 MLOAD PUSH2 0x230 SWAP12 SWAP11 SWAP10 SWAP9 SWAP8 SWAP7 SWAP6 SWAP5 SWAP4 SWAP3 SWAP2 SWAP1 PUSH2 0x22B5 JUMP JUMPDEST PUSH1 0x40 MLOAD DUP1 SWAP2 SUB SWAP1 RETURN JUMPDEST CALLVALUE DUP1 ISZERO PUSH2 0x244 JUMPI PUSH0 PUSH0 REVERT JUMPDEST POP PUSH2 0x25F PUSH1 0x4 DUP1 CALLDATASIZE SUB DUP2 ADD SWAP1 PUSH2 0x25A SWAP2 SWAP1 PUSH2 0x2491 JUMP JUMPDEST PUSH2 0xC29 JUMP JUMPDEST STOP JUMPDEST CALLVALUE DUP1 ISZERO PUSH2 0x26C JUMPI PUSH0 PUSH0 REVERT JUMPDEST POP PUSH2 0x287 PUSH1 0x4 DUP1 CALLDATASIZE SUB DUP2 ADD SWAP1 PUSH2 0x282 SWAP2 SWAP1 PUSH2 0x2526 JUMP JUMPDEST PUSH2 0xE37 JUMP JUMPDEST STOP JUMPDEST CALLVALUE DUP1 ISZERO PUSH2 0x294 JUMPI PUSH0 PUSH0 REVERT JUMPDEST POP PUSH2 0x29D PUSH2 0xF95 JUMP JUMPDEST PUSH1 0x40 MLOAD PUSH2 0x2AA SWAP2 SWAP1 PUSH2 0x2560 JUMP JUMPDEST PUSH1 0x40 MLOAD DUP1 SWAP2 SUB SWAP1 RETURN JUMPDEST CALLVALUE DUP1 ISZERO PUSH2 0x2BE JUMPI PUSH0 PUSH0 REVERT JUMPDEST POP PUSH2 0x2D9 PUSH1 0x4 DUP1 CALLDATASIZE SUB DUP2 ADD SWAP1 PUSH2 0x2D4 SWAP2 SWAP1 PUSH2 0x20D5 JUMP JUMPDEST PUSH2 0xFBA JUMP JUMPDEST STOP JUMPDEST CALLVALUE DUP1 ISZERO PUSH2 0x2E6 JUMPI PUSH0 PUSH0 REVERT JUMPDEST POP PUSH2 0x301 PUSH1 0x4 DUP1 CALLDATASIZE SUB DUP2 ADD SWAP1 PUSH2 0x2FC SWAP2 SWAP1 PUSH2 0x20D5 JUMP JUMPDEST PUSH2 0x126B JUMP JUMPDEST STOP JUMPDEST PUSH2 0x31D PUSH1 0x4 DUP1 CALLDATASIZE SUB DUP2 ADD SWAP1 PUSH2 0x318 SWAP2 SWAP1 PUSH2 0x25A3 JUMP JUMPDEST PUSH2 0x13F7 JUMP JUMPDEST STOP JUMPDEST CALLVALUE DUP1 ISZERO PUSH2 0x32A JUMPI PUSH0 PUSH0 REVERT JUMPDEST POP PUSH2 0x345 PUSH1 0x4 DUP1 CALLDATASIZE SUB DUP2 ADD SWAP1 PUSH2 0x340 SWAP2 SWAP1 PUSH2 0x20D5 JUMP JUMPDEST PUSH2 0x162F JUMP JUMPDEST STOP JUMPDEST CALLVALUE DUP1 ISZERO PUSH2 0x352 JUMPI PUSH0 PUSH0 REVERT JUMPDEST POP PUSH2 0x36D PUSH1 0x4 DUP1 CALLDATASIZE SUB DUP2 ADD SWAP1 PUSH2 0x368 SWAP2 SWAP1 PUSH2 0x2491 JUMP JUMPDEST PUSH2 0x1A7B JUMP JUMPDEST STOP JUMPDEST CALLVALUE DUP1 ISZERO PUSH2 0x37A JUMPI PUSH0 PUSH0 REVERT JUMPDEST POP PUSH2 0x395 PUSH1 0x4 DUP1 CALLDATASIZE SUB DUP2 ADD SWAP1 PUSH2 0x390 SWAP2 SWAP1 PUSH2 0x20D5 JUMP JUMPDEST PUSH2 0x1D0E JUMP JUMPDEST STOP JUMPDEST CALLVALUE DUP1 ISZERO PUSH2 0x3A2 JUMPI PUSH0 PUSH0 REVERT JUMPDEST POP PUSH2 0x3AB PUSH2 0x2013 JUMP JUMPDEST PUSH1 0x40 MLOAD PUSH2 0x3B8 SWAP2 SWAP1 PUSH2 0x260F JUMP JUMPDEST PUSH1 0x40 MLOAD DUP1 SWAP2 SUB SWAP1 RETURN JUMPDEST CALLVALUE DUP1 ISZERO PUSH2 0x3CC JUMPI PUSH0 PUSH0 REVERT JUMPDEST POP PUSH2 0x3E7 PUSH1 0x4 DUP1 CALLDATASIZE SUB DUP2 ADD SWAP1 PUSH2 0x3E2 SWAP2 SWAP1 PUSH2 0x2526 JUMP JUMPDEST PUSH2 0x2026 JUMP JUMPDEST PUSH1 0x40 MLOAD PUSH2 0x3F4 SWAP2 SWAP1 PUSH2 0x210F JUMP JUMPDEST PUSH1 0x40 MLOAD DUP1 SWAP2 SUB SWAP1 RETURN JUMPDEST DUP1 PUSH1 0x2 PUSH0 DUP3 DUP2 MSTORE PUSH1 0x20 ADD SWAP1 DUP2 MSTORE PUSH1 0x20 ADD PUSH0 KECCAK256 PUSH1 0x2 ADD PUSH0 SWAP1 SLOAD SWAP1 PUSH2 0x100 EXP SWAP1 DIV PUSH20 0xFFFFFFFFFFFFFFFFFFFFFFFFFFFFFFFFFFFFFFFF AND PUSH20 0xFFFFFFFFFFFFFFFFFFFFFFFFFFFFFFFFFFFFFFFF AND CALLER PUSH20 0xFFFFFFFFFFFFFFFFFFFFFFFFFFFFFFFFFFFFFFFF AND EQ PUSH2 0x49F JUMPI PUSH1 0x40 MLOAD PUSH32 0x8C379A000000000000000000000000000000000000000000000000000000000 DUP2 MSTORE PUSH1 0x4 ADD PUSH2 0x496 SWAP1 PUSH2 0x2672 JUMP JUMPDEST PUSH1 0x40 MLOAD DUP1 SWAP2 SUB SWAP1 REVERT JUMPDEST PUSH0 PUSH1 0x2 PUSH0 DUP5 DUP2 MSTORE PUSH1 0x20 ADD SWAP1 DUP2 MSTORE PUSH1 0x20 ADD PUSH0 KECCAK256 SWAP1 POP DUP1 PUSH1 0x6 ADD PUSH0 SWAP1 SLOAD SWAP1 PUSH2 0x100 EXP SWAP1 DIV PUSH1 0xFF AND PUSH2 0x503 JUMPI PUSH1 0x40 MLOAD PUSH32 0x8C379A000000000000000000000000000000000000000000000000000000000 DUP2 MSTORE PUSH1 0x4 ADD PUSH2 0x4FA SWAP1 PUSH2 0x26DA JUMP JUMPDEST PUSH1 0x40 MLOAD DUP1 SWAP2 SUB SWAP1 REVERT JUMPDEST PUSH1 0x1 PUSH1 0x3 DUP2 GT ISZERO PUSH2 0x517 JUMPI PUSH2 0x516 PUSH2 0x2128 JUMP JUMPDEST JUMPDEST DUP2 PUSH1 0x3 ADD PUSH1 0x14 SWAP1 SLOAD SWAP1 PUSH2 0x100 EXP SWAP1 DIV PUSH1 0xFF AND PUSH1 0x3 DUP2 GT ISZERO PUSH2 0x53B JUMPI PUSH2 0x53A PUSH2 0x2128 JUMP JUMPDEST JUMPDEST EQ PUSH2 0x57B JUMPI PUSH1 0x40 MLOAD PUSH32 0x8C379A000000000000000000000000000000000000000000000000000000000 DUP2 MSTORE PUSH1 0x4 ADD PUSH2 0x572 SWAP1 PUSH2 0x2742 JUMP JUMPDEST PUSH1 0x40 MLOAD DUP1 SWAP2 SUB SWAP1 REVERT JUMPDEST DUP1 PUSH1 0x6 ADD PUSH1 0x1 SWAP1 SLOAD SWAP1 PUSH2 0x100 EXP SWAP1 DIV PUSH1 0xFF AND PUSH2 0x5CC JUMPI PUSH1 0x40 MLOAD PUSH32 0x8C379A000000000000000000000000000000000000000000000000000000000 DUP2 MSTORE PUSH1 0x4 ADD PUSH2 0x5C3 SWAP1 PUSH2 0x27AA JUMP JUMPDEST PUSH1 0x40 MLOAD DUP1 SWAP2 SUB SWAP1 REVERT JUMPDEST DUP1 PUSH1 0x6 ADD PUSH1 0x2 SWAP1 SLOAD SWAP1 PUSH2 0x100 EXP SWAP1 DIV PUSH1 0xFF AND ISZERO PUSH2 0x61E JUMPI PUSH1 0x40 MLOAD PUSH32 0x8C379A000000000000000000000000000000000000000000000000000000000 DUP2 MSTORE PUSH1 0x4 ADD PUSH2 0x615 SWAP1 PUSH2 0x2812 JUMP JUMPDEST PUSH1 0x40 MLOAD DUP1 SWAP2 SUB SWAP1 REVERT JUMPDEST PUSH1 0x1 DUP2 PUSH1 0x6 ADD PUSH1 0x2 PUSH2 0x100 EXP DUP2 SLOAD DUP2 PUSH1 0xFF MUL NOT AND SWAP1 DUP4 ISZERO ISZERO MUL OR SWAP1 SSTORE POP PUSH1 0x2 DUP2 PUSH1 0x3 ADD PUSH1 0x14 PUSH2 0x100 EXP DUP2 SLOAD DUP2 PUSH1 0xFF MUL NOT AND SWAP1 DUP4 PUSH1 0x3 DUP2 GT ISZERO PUSH2 0x663 JUMPI PUSH2 0x662 PUSH2 0x2128 JUMP JUMPDEST JUMPDEST MUL OR SWAP1 SSTORE POP DUP1 PUSH1 0x1 ADD SLOAD PUSH1 0x4 PUSH0 DUP4 PUSH1 0x3 ADD PUSH0 SWAP1 SLOAD SWAP1 PUSH2 0x100 EXP SWAP1 DIV PUSH20 0xFFFFFFFFFFFFFFFFFFFFFFFFFFFFFFFFFFFFFFFF AND PUSH20 0xFFFFFFFFFFFFFFFFFFFFFFFFFFFFFFFFFFFFFFFF AND PUSH20 0xFFFFFFFFFFFFFFFFFFFFFFFFFFFFFFFFFFFFFFFF AND DUP2 MSTORE PUSH1 0x20 ADD SWAP1 DUP2 MSTORE PUSH1 0x20 ADD PUSH0 KECCAK256 SLOAD PUSH2 0x6D8 SWAP2 SWAP1 PUSH2 0x285D JUMP JUMPDEST PUSH1 0x4 PUSH0 DUP4 PUSH1 0x3 ADD PUSH0 SWAP1 SLOAD SWAP1 PUSH2 0x100 EXP SWAP1 DIV PUSH20 0xFFFFFFFFFFFFFFFFFFFFFFFFFFFFFFFFFFFFFFFF AND PUSH20 0xFFFFFFFFFFFFFFFFFFFFFFFFFFFFFFFFFFFFFFFF AND PUSH20 0xFFFFFFFFFFFFFFFFFFFFFFFFFFFFFFFFFFFFFFFF AND DUP2 MSTORE PUSH1 0x20 ADD SWAP1 DUP2 MSTORE PUSH1 0x20 ADD PUSH0 KECCAK256 DUP2 SWAP1 SSTORE POP DUP3 PUSH32 0x5C1E662F72EE6C85181B65FAC5BEB0390932B8C472F05B257151D041AC9DDFFA PUSH1 0x40 MLOAD PUSH1 0x40 MLOAD DUP1 SWAP2 SUB SWAP1 LOG2 DUP1 PUSH1 0x3 ADD PUSH0 SWAP1 SLOAD SWAP1 PUSH2 0x100 EXP SWAP1 DIV PUSH20 0xFFFFFFFFFFFFFFFFFFFFFFFFFFFFFFFFFFFFFFFF AND PUSH20 0xFFFFFFFFFFFFFFFFFFFFFFFFFFFFFFFFFFFFFFFF AND DUP4 PUSH32 0x21D71DB5BE59BB9FA133895586B7404307DD33FB93B16DB09DC6F1D9D7D231B0 DUP4 PUSH1 0x1 ADD SLOAD PUSH1 0x40 MLOAD PUSH2 0x7D7 SWAP2 SWAP1 PUSH2 0x210F JUMP JUMPDEST PUSH1 0x40 MLOAD DUP1 SWAP2 SUB SWAP1 LOG3 POP POP POP JUMP JUMPDEST PUSH1 0x3 SLOAD DUP2 JUMP JUMPDEST PUSH0 PUSH1 0x2 PUSH0 DUP4 DUP2 MSTORE PUSH1 0x20 ADD SWAP1 DUP2 MSTORE PUSH1 0x20 ADD PUSH0 KECCAK256 PUSH1 0x3 ADD PUSH1 0x14 SWAP1 SLOAD SWAP1 PUSH2 0x100 EXP SWAP1 DIV PUSH1 0xFF AND SWAP1 POP SWAP2 SWAP1 POP JUMP JUMPDEST PUSH1 0x60 PUSH1 0x2 PUSH0 DUP4 DUP2 MSTORE PUSH1 0x20 ADD SWAP1 DUP2 MSTORE PUSH1 0x20 ADD PUSH0 KECCAK256 PUSH1 0x4 ADD DUP1 SLOAD PUSH2 0x835 SWAP1 PUSH2 0x28BD JUMP JUMPDEST DUP1 PUSH1 0x1F ADD PUSH1 0x20 DUP1 SWAP2 DIV MUL PUSH1 0x20 ADD PUSH1 0x40 MLOAD SWAP1 DUP2 ADD PUSH1 0x40 MSTORE DUP1 SWAP3 SWAP2 SWAP1 DUP2 DUP2 MSTORE PUSH1 0x20 ADD DUP3 DUP1 SLOAD PUSH2 0x861 SWAP1 PUSH2 0x28BD JUMP JUMPDEST DUP1 ISZERO PUSH2 0x8AC JUMPI DUP1 PUSH1 0x1F LT PUSH2 0x883 JUMPI PUSH2 0x100 DUP1 DUP4 SLOAD DIV MUL DUP4 MSTORE SWAP2 PUSH1 0x20 ADD SWAP2 PUSH2 0x8AC JUMP JUMPDEST DUP3 ADD SWAP2 SWAP1 PUSH0 MSTORE PUSH1 0x20 PUSH0 KECCAK256 SWAP1 JUMPDEST DUP2 SLOAD DUP2 MSTORE SWAP1 PUSH1 0x1 ADD SWAP1 PUSH1 0x20 ADD DUP1 DUP4 GT PUSH2 0x88F JUMPI DUP3 SWAP1 SUB PUSH1 0x1F AND DUP3 ADD SWAP2 JUMPDEST POP POP POP POP POP SWAP1 POP SWAP2 SWAP1 POP JUMP JUMPDEST DUP1 PUSH1 0x2 PUSH0 DUP3 DUP2 MSTORE PUSH1 0x20 ADD SWAP1 DUP2 MSTORE PUSH1 0x20 ADD PUSH0 KECCAK256 PUSH1 0x2 ADD PUSH0 SWAP1 SLOAD SWAP1 PUSH2 0x100 EXP SWAP1 DIV PUSH20 0xFFFFFFFFFFFFFFFFFFFFFFFFFFFFFFFFFFFFFFFF AND PUSH20 0xFFFFFFFFFFFFFFFFFFFFFFFFFFFFFFFFFFFFFFFF AND CALLER PUSH20 0xFFFFFFFFFFFFFFFFFFFFFFFFFFFFFFFFFFFFFFFF AND EQ PUSH2 0x95A JUMPI PUSH1 0x40 MLOAD PUSH32 0x8C379A000000000000000000000000000000000000000000000000000000000 DUP2 MSTORE PUSH1 0x4 ADD PUSH2 0x951 SWAP1 PUSH2 0x2672 JUMP JUMPDEST PUSH1 0x40 MLOAD DUP1 SWAP2 SUB SWAP1 REVERT JUMPDEST PUSH0 PUSH1 0x2 PUSH0 DUP5 DUP2 MSTORE PUSH1 0x20 ADD SWAP1 DUP2 MSTORE PUSH1 0x20 ADD PUSH0 KECCAK256 SWAP1 POP PUSH1 0x2 PUSH1 0x3 DUP2 GT ISZERO PUSH2 0x982 JUMPI PUSH2 0x981 PUSH2 0x2128 JUMP JUMPDEST JUMPDEST DUP2 PUSH1 0x3 ADD PUSH1 0x14 SWAP1 SLOAD SWAP1 PUSH2 0x100 EXP SWAP1 DIV PUSH1 0xFF AND PUSH1 0x3 DUP2 GT ISZERO PUSH2 0x9A6 JUMPI PUSH2 0x9A5 PUSH2 0x2128 JUMP JUMPDEST JUMPDEST SUB PUSH2 0x9E6 JUMPI PUSH1 0x40 MLOAD PUSH32 0x8C379A000000000000000000000000000000000000000000000000000000000 DUP2 MSTORE PUSH1 0x4 ADD PUSH2 0x9DD SWAP1 PUSH2 0x2937 JUMP JUMPDEST PUSH1 0x40 MLOAD DUP1 SWAP2 SUB SWAP1 REVERT JUMPDEST PUSH1 0x3 DUP1 DUP2 GT ISZERO PUSH2 0x9F9 JUMPI PUSH2 0x9F8 PUSH2 0x2128 JUMP JUMPDEST JUMPDEST DUP2 PUSH1 0x3 ADD PUSH1 0x14 SWAP1 SLOAD SWAP1 PUSH2 0x100 EXP SWAP1 DIV PUSH1 0xFF AND PUSH1 0x3 DUP2 GT ISZERO PUSH2 0xA1D JUMPI PUSH2 0xA1C PUSH2 0x2128 JUMP JUMPDEST JUMPDEST SUB PUSH2 0xA5D JUMPI PUSH1 0x40 MLOAD PUSH32 0x8C379A000000000000000000000000000000000000000000000000000000000 DUP2 MSTORE PUSH1 0x4 ADD PUSH2 0xA54 SWAP1 PUSH2 0x299F JUMP JUMPDEST PUSH1 0x40 MLOAD DUP1 SWAP2 SUB SWAP1 REVERT JUMPDEST PUSH1 0x40 MLOAD DUP1 PUSH1 0x20 ADD PUSH1 0x40 MSTORE DUP1 PUSH0 DUP2 MSTORE POP DUP2 PUSH1 0x4 ADD SWAP1 DUP2 PUSH2 0xA7C SWAP2 SWAP1 PUSH2 0x2B5D JUMP JUMPDEST POP PUSH1 0x3 DUP2 PUSH1 0x3 ADD PUSH1 0x14 PUSH2 0x100 EXP DUP2 SLOAD DUP2 PUSH1 0xFF MUL NOT AND SWAP1 DUP4 PUSH1 0x3 DUP2 GT ISZERO PUSH2 0xAA5 JUMPI PUSH2 0xAA4 PUSH2 0x2128 JUMP JUMPDEST JUMPDEST MUL OR SWAP1 SSTORE POP DUP3 PUSH32 0x741B099F015E1976CFA72A7448A8FB1D54EAB1D616241B562CFBE603A2B61B42 PUSH1 0x40 MLOAD PUSH1 0x40 MLOAD DUP1 SWAP2 SUB SWAP1 LOG2 POP POP POP JUMP JUMPDEST PUSH1 0x2 PUSH1 0x20 MSTORE DUP1 PUSH0 MSTORE PUSH1 0x40 PUSH0 KECCAK256 PUSH0 SWAP2 POP SWAP1 POP DUP1 PUSH0 ADD SLOAD SWAP1 DUP1 PUSH1 0x1 ADD SLOAD SWAP1 DUP1 PUSH1 0x2 ADD PUSH0 SWAP1 SLOAD SWAP1 PUSH2 0x100 EXP SWAP1 DIV PUSH20 0xFFFFFFFFFFFFFFFFFFFFFFFFFFFFFFFFFFFFFFFF AND SWAP1 DUP1 PUSH1 0x3 ADD PUSH0 SWAP1 SLOAD SWAP1 PUSH2 0x100 EXP SWAP1 DIV PUSH20 0xFFFFFFFFFFFFFFFFFFFFFFFFFFFFFFFFFFFFFFFF AND SWAP1 DUP1 PUSH1 0x3 ADD PUSH1 0x14 SWAP1 SLOAD SWAP1 PUSH2 0x100 EXP SWAP1 DIV PUSH1 0xFF AND SWAP1 DUP1 PUSH1 0x4 ADD DUP1 SLOAD PUSH2 0xB64 SWAP1 PUSH2 0x28BD JUMP JUMPDEST DUP1 PUSH1 0x1F ADD PUSH1 0x20 DUP1 SWAP2 DIV MUL PUSH1 0x20 ADD PUSH1 0x40 MLOAD SWAP1 DUP2 ADD PUSH1 0x40 MSTORE DUP1 SWAP3 SWAP2 SWAP1 DUP2 DUP2 MSTORE PUSH1 0x20 ADD DUP3 DUP1 SLOAD PUSH2 0xB90 SWAP1 PUSH2 0x28BD JUMP JUMPDEST DUP1 ISZERO PUSH2 0xBDB JUMPI DUP1 PUSH1 0x1F LT PUSH2 0xBB2 JUMPI PUSH2 0x100 DUP1 DUP4 SLOAD DIV MUL DUP4 MSTORE SWAP2 PUSH1 0x20 ADD SWAP2 PUSH2 0xBDB JUMP JUMPDEST DUP3 ADD SWAP2 SWAP1 PUSH0 MSTORE PUSH1 0x20 PUSH0 KECCAK256 SWAP1 JUMPDEST DUP2 SLOAD DUP2 MSTORE SWAP1 PUSH1 0x1 ADD SWAP1 PUSH1 0x20 ADD DUP1 DUP4 GT PUSH2 0xBBE JUMPI DUP3 SWAP1 SUB PUSH1 0x1F AND DUP3 ADD SWAP2 JUMPDEST POP POP POP POP POP SWAP1 DUP1 PUSH1 0x5 ADD SLOAD SWAP1 DUP1 PUSH1 0x6 ADD PUSH0 SWAP1 SLOAD SWAP1 PUSH2 0x100 EXP SWAP1 DIV PUSH1 0xFF AND SWAP1 DUP1 PUSH1 0x6 ADD PUSH1 0x1 SWAP1 SLOAD SWAP1 PUSH2 0x100 EXP SWAP1 DIV PUSH1 0xFF AND SWAP1 DUP1 PUSH1 0x6 ADD PUSH1 0x2 SWAP1 SLOAD SWAP1 PUSH2 0x100 EXP SWAP1 DIV PUSH1 0xFF AND SWAP1 DUP1 PUSH1 0x7 ADD SLOAD SWAP1 POP DUP12 JUMP JUMPDEST DUP2 PUSH1 0x2 PUSH0 DUP3 DUP2 MSTORE PUSH1 0x20 ADD SWAP1 DUP2 MSTORE PUSH1 0x20 ADD PUSH0 KECCAK256 PUSH1 0x3 ADD PUSH0 SWAP1 SLOAD SWAP1 PUSH2 0x100 EXP SWAP1 DIV PUSH20 0xFFFFFFFFFFFFFFFFFFFFFFFFFFFFFFFFFFFFFFFF AND PUSH20 0xFFFFFFFFFFFFFFFFFFFFFFFFFFFFFFFFFFFFFFFF AND CALLER PUSH20 0xFFFFFFFFFFFFFFFFFFFFFFFFFFFFFFFFFFFFFFFF AND EQ PUSH2 0xCCB JUMPI PUSH1 0x40 MLOAD PUSH32 0x8C379A000000000000000000000000000000000000000000000000000000000 DUP2 MSTORE PUSH1 0x4 ADD PUSH2 0xCC2 SWAP1 PUSH2 0x2C76 JUMP JUMPDEST PUSH1 0x40 MLOAD DUP1 SWAP2 SUB SWAP1 REVERT JUMPDEST PUSH0 PUSH1 0x2 PUSH0 DUP6 DUP2 MSTORE PUSH1 0x20 ADD SWAP1 DUP2 MSTORE PUSH1 0x20 ADD PUSH0 KECCAK256 SWAP1 POP PUSH1 0x1 PUSH1 0x3 DUP2 GT ISZERO PUSH2 0xCF3 JUMPI PUSH2 0xCF2 PUSH2 0x2128 JUMP JUMPDEST JUMPDEST DUP2 PUSH1 0x3 ADD PUSH1 0x14 SWAP1 SLOAD SWAP1 PUSH2 0x100 EXP SWAP1 DIV PUSH1 0xFF AND PUSH1 0x3 DUP2 GT ISZERO PUSH2 0xD17 JUMPI PUSH2 0xD16 PUSH2 0x2128 JUMP JUMPDEST JUMPDEST EQ PUSH2 0xD57 JUMPI PUSH1 0x40 MLOAD PUSH32 0x8C379A000000000000000000000000000000000000000000000000000000000 DUP2 MSTORE PUSH1 0x4 ADD PUSH2 0xD4E SWAP1 PUSH2 0x2742 JUMP JUMPDEST PUSH1 0x40 MLOAD DUP1 SWAP2 SUB SWAP1 REVERT JUMPDEST DUP1 PUSH1 0x6 ADD PUSH0 SWAP1 SLOAD SWAP1 PUSH2 0x100 EXP SWAP1 DIV PUSH1 0xFF AND ISZERO PUSH2 0xDA8 JUMPI PUSH1 0x40 MLOAD PUSH32 0x8C379A000000000000000000000000000000000000000000000000000000000 DUP2 MSTORE PUSH1 0x4 ADD PUSH2 0xD9F SWAP1 PUSH2 0x2CDE JUMP JUMPDEST PUSH1 0x40 MLOAD DUP1 SWAP2 SUB SWAP1 REVERT JUMPDEST DUP4 DUP4 PUSH1 0x40 MLOAD PUSH1 0x20 ADD PUSH2 0xDBB SWAP3 SWAP2 SWAP1 PUSH2 0x2CFC JUMP JUMPDEST PUSH1 0x40 MLOAD PUSH1 0x20 DUP2 DUP4 SUB SUB DUP2 MSTORE SWAP1 PUSH1 0x40 MSTORE DUP1 MLOAD SWAP1 PUSH1 0x20 ADD KECCAK256 DUP2 PUSH1 0x5 ADD DUP2 SWAP1 SSTORE POP PUSH1 0x1 DUP2 PUSH1 0x6 ADD PUSH0 PUSH2 0x100 EXP DUP2 SLOAD DUP2 PUSH1 0xFF MUL NOT AND SWAP1 DUP4 ISZERO ISZERO MUL OR SWAP1 SSTORE POP DUP4 PUSH32 0x4B70739C5F0BD46E19773020C599342CDBDC3AC59B5E0ABFDD9C1BB441BE59C8 DUP3 PUSH1 0x5 ADD SLOAD PUSH1 0x40 MLOAD PUSH2 0xE29 SWAP2 SWAP1 PUSH2 0x2D2A JUMP JUMPDEST PUSH1 0x40 MLOAD DUP1 SWAP2 SUB SWAP1 LOG2 POP POP POP POP JUMP JUMPDEST PUSH1 0x1 PUSH1 0x14 SWAP1 SLOAD SWAP1 PUSH2 0x100 EXP SWAP1 DIV PUSH1 0xFF AND ISZERO PUSH2 0xE87 JUMPI PUSH1 0x40 MLOAD PUSH32 0x8C379A000000000000000000000000000000000000000000000000000000000 DUP2 MSTORE PUSH1 0x4 ADD PUSH2 0xE7E SWAP1 PUSH2 0x2D8D JUMP JUMPDEST PUSH1 0x40 MLOAD DUP1 SWAP2 SUB SWAP1 REVERT JUMPDEST PUSH0 PUSH20 0xFFFFFFFFFFFFFFFFFFFFFFFFFFFFFFFFFFFFFFFF AND DUP2 PUSH20 0xFFFFFFFFFFFFFFFFFFFFFFFFFFFFFFFFFFFFFFFF AND SUB PUSH2 0xEF5 JUMPI PUSH1 0x40 MLOAD PUSH32 0x8C379A000000000000000000000000000000000000000000000000000000000 DUP2 MSTORE PUSH1 0x4 ADD PUSH2 0xEEC SWAP1 PUSH2 0x2DF5 JUMP JUMPDEST PUSH1 0x40 MLOAD DUP1 SWAP2 SUB SWAP1 REVERT JUMPDEST DUP1 PUSH1 0x1 PUSH0 PUSH2 0x100 EXP DUP2 SLOAD DUP2 PUSH20 0xFFFFFFFFFFFFFFFFFFFFFFFFFFFFFFFFFFFFFFFF MUL NOT AND SWAP1 DUP4 PUSH20 0xFFFFFFFFFFFFFFFFFFFFFFFFFFFFFFFFFFFFFFFF AND MUL OR SWAP1 SSTORE POP PUSH1 0x1 DUP1 PUSH1 0x14 PUSH2 0x100 EXP DUP2 SLOAD DUP2 PUSH1 0xFF MUL NOT AND SWAP1 DUP4 ISZERO ISZERO MUL OR SWAP1 SSTORE POP DUP1 PUSH20 0xFFFFFFFFFFFFFFFFFFFFFFFFFFFFFFFFFFFFFFFF AND PUSH32 0x3F32684A32A11DABDBB8C0177DE80AA3AE36A004D75210335B49E544E48CD0AA PUSH1 0x40 MLOAD PUSH1 0x40 MLOAD DUP1 SWAP2 SUB SWAP1 LOG2 POP JUMP JUMPDEST PUSH1 0x1 PUSH0 SWAP1 SLOAD SWAP1 PUSH2 0x100 EXP SWAP1 DIV PUSH20 0xFFFFFFFFFFFFFFFFFFFFFFFFFFFFFFFFFFFFFFFF AND DUP2 JUMP JUMPDEST PUSH2 0xFC2 PUSH2 0x203B JUMP JUMPDEST DUP1 PUSH1 0x2 PUSH0 DUP3 DUP2 MSTORE PUSH1 0x20 ADD SWAP1 DUP2 MSTORE PUSH1 0x20 ADD PUSH0 KECCAK256 PUSH1 0x2 ADD PUSH0 SWAP1 SLOAD SWAP1 PUSH2 0x100 EXP SWAP1 DIV PUSH20 0xFFFFFFFFFFFFFFFFFFFFFFFFFFFFFFFFFFFFFFFF AND PUSH20 0xFFFFFFFFFFFFFFFFFFFFFFFFFFFFFFFFFFFFFFFF AND CALLER PUSH20 0xFFFFFFFFFFFFFFFFFFFFFFFFFFFFFFFFFFFFFFFF AND EQ PUSH2 0x1064 JUMPI PUSH1 0x40 MLOAD PUSH32 0x8C379A000000000000000000000000000000000000000000000000000000000 DUP2 MSTORE PUSH1 0x4 ADD PUSH2 0x105B SWAP1 PUSH2 0x2672 JUMP JUMPDEST PUSH1 0x40 MLOAD DUP1 SWAP2 SUB SWAP1 REVERT JUMPDEST PUSH0 PUSH1 0x2 PUSH0 DUP5 DUP2 MSTORE PUSH1 0x20 ADD SWAP1 DUP2 MSTORE PUSH1 0x20 ADD PUSH0 KECCAK256 SWAP1 POP PUSH1 0x1 PUSH1 0x3 DUP2 GT ISZERO PUSH2 0x108C JUMPI PUSH2 0x108B PUSH2 0x2128 JUMP JUMPDEST JUMPDEST DUP2 PUSH1 0x3 ADD PUSH1 0x14 SWAP1 SLOAD SWAP1 PUSH2 0x100 EXP SWAP1 DIV PUSH1 0xFF AND PUSH1 0x3 DUP2 GT ISZERO PUSH2 0x10B0 JUMPI PUSH2 0x10AF PUSH2 0x2128 JUMP JUMPDEST JUMPDEST EQ PUSH2 0x10F0 JUMPI PUSH1 0x40 MLOAD PUSH32 0x8C379A000000000000000000000000000000000000000000000000000000000 DUP2 MSTORE PUSH1 0x4 ADD PUSH2 0x10E7 SWAP1 PUSH2 0x2742 JUMP JUMPDEST PUSH1 0x40 MLOAD DUP1 SWAP2 SUB SWAP1 REVERT JUMPDEST DUP1 PUSH1 0x6 ADD PUSH0 SWAP1 SLOAD SWAP1 PUSH2 0x100 EXP SWAP1 DIV PUSH1 0xFF AND ISZERO PUSH2 0x1141 JUMPI PUSH1 0x40 MLOAD PUSH32 0x8C379A000000000000000000000000000000000000000000000000000000000 DUP2 MSTORE PUSH1 0x4 ADD PUSH2 0x1138 SWAP1 PUSH2 0x2E5D JUMP JUMPDEST PUSH1 0x40 MLOAD DUP1 SWAP2 SUB SWAP1 REVERT JUMPDEST PUSH1 0x2 DUP2 PUSH1 0x3 ADD PUSH1 0x14 PUSH2 0x100 EXP DUP2 SLOAD DUP2 PUSH1 0xFF MUL NOT AND SWAP1 DUP4 PUSH1 0x3 DUP2 GT ISZERO PUSH2 0x1169 JUMPI PUSH2 0x1168 PUSH2 0x2128 JUMP JUMPDEST JUMPDEST MUL OR SWAP1 SSTORE POP DUP1 PUSH1 0x1 ADD SLOAD PUSH1 0x4 PUSH0 DUP4 PUSH1 0x3 ADD PUSH0 SWAP1 SLOAD SWAP1 PUSH2 0x100 EXP SWAP1 DIV PUSH20 0xFFFFFFFFFFFFFFFFFFFFFFFFFFFFFFFFFFFFFFFF AND PUSH20 0xFFFFFFFFFFFFFFFFFFFFFFFFFFFFFFFFFFFFFFFF AND PUSH20 0xFFFFFFFFFFFFFFFFFFFFFFFFFFFFFFFFFFFFFFFF AND DUP2 MSTORE PUSH1 0x20 ADD SWAP1 DUP2 MSTORE PUSH1 0x20 ADD PUSH0 KECCAK256 PUSH0 DUP3 DUP3 SLOAD PUSH2 0x11E1 SWAP2 SWAP1 PUSH2 0x285D JUMP JUMPDEST SWAP3 POP POP DUP2 SWAP1 SSTORE POP DUP1 PUSH1 0x3 ADD PUSH0 SWAP1 SLOAD SWAP1 PUSH2 0x100 EXP SWAP1 DIV PUSH20 0xFFFFFFFFFFFFFFFFFFFFFFFFFFFFFFFFFFFFFFFF AND PUSH20 0xFFFFFFFFFFFFFFFFFFFFFFFFFFFFFFFFFFFFFFFF AND DUP4 PUSH32 0x21D71DB5BE59BB9FA133895586B7404307DD33FB93B16DB09DC6F1D9D7D231B0 DUP4 PUSH1 0x1 ADD SLOAD PUSH1 0x40 MLOAD PUSH2 0x1256 SWAP2 SWAP1 PUSH2 0x210F JUMP JUMPDEST PUSH1 0x40 MLOAD DUP1 SWAP2 SUB SWAP1 LOG3 POP POP PUSH2 0x1268 PUSH2 0x2088 JUMP JUMPDEST POP JUMP JUMPDEST DUP1 PUSH1 0x2 PUSH0 DUP3 DUP2 MSTORE PUSH1 0x20 ADD SWAP1 DUP2 MSTORE PUSH1 0x20 ADD PUSH0 KECCAK256 PUSH1 0x3 ADD PUSH0 SWAP1 SLOAD SWAP1 PUSH2 0x100 EXP SWAP1 DIV PUSH20 0xFFFFFFFFFFFFFFFFFFFFFFFFFFFFFFFFFFFFFFFF AND PUSH20 0xFFFFFFFFFFFFFFFFFFFFFFFFFFFFFFFFFFFFFFFF AND CALLER PUSH20 0xFFFFFFFFFFFFFFFFFFFFFFFFFFFFFFFFFFFFFFFF AND EQ PUSH2 0x130D JUMPI PUSH1 0x40 MLOAD PUSH32 0x8C379A000000000000000000000000000000000000000000000000000000000 DUP2 MSTORE PUSH1 0x4 ADD PUSH2 0x1304 SWAP1 PUSH2 0x2C76 JUMP JUMPDEST PUSH1 0x40 MLOAD DUP1 SWAP2 SUB SWAP1 REVERT JUMPDEST PUSH0 PUSH1 0x2 PUSH0 DUP5 DUP2 MSTORE PUSH1 0x20 ADD SWAP1 DUP2 MSTORE PUSH1 0x20 ADD PUSH0 KECCAK256 SWAP1 POP PUSH0 PUSH1 0x3 DUP2 GT ISZERO PUSH2 0x1334 JUMPI PUSH2 0x1333 PUSH2 0x2128 JUMP JUMPDEST JUMPDEST DUP2 PUSH1 0x3 ADD PUSH1 0x14 SWAP1 SLOAD SWAP1 PUSH2 0x100 EXP SWAP1 DIV PUSH1 0xFF AND PUSH1 0x3 DUP2 GT ISZERO PUSH2 0x1358 JUMPI PUSH2 0x1357 PUSH2 0x2128 JUMP JUMPDEST JUMPDEST EQ PUSH2 0x1398 JUMPI PUSH1 0x40 MLOAD PUSH32 0x8C379A000000000000000000000000000000000000000000000000000000000 DUP2 MSTORE PUSH1 0x4 ADD PUSH2 0x138F SWAP1 PUSH2 0x2EC5 JUMP JUMPDEST PUSH1 0x40 MLOAD DUP1 SWAP2 SUB SWAP1 REVERT JUMPDEST PUSH1 0x1 DUP2 PUSH1 0x3 ADD PUSH1 0x14 PUSH2 0x100 EXP DUP2 SLOAD DUP2 PUSH1 0xFF MUL NOT AND SWAP1 DUP4 PUSH1 0x3 DUP2 GT ISZERO PUSH2 0x13C0 JUMPI PUSH2 0x13BF PUSH2 0x2128 JUMP JUMPDEST JUMPDEST MUL OR SWAP1 SSTORE POP DUP3 PUSH32 0xAF3C49F5413FD292E2325B0FE214DE144A222B00CB6EC21214FDC04B5D6C5913 PUSH1 0x40 MLOAD PUSH1 0x40 MLOAD DUP1 SWAP2 SUB SWAP1 LOG2 POP POP POP JUMP JUMPDEST PUSH0 PUSH20 0xFFFFFFFFFFFFFFFFFFFFFFFFFFFFFFFFFFFFFFFF AND DUP4 PUSH20 0xFFFFFFFFFFFFFFFFFFFFFFFFFFFFFFFFFFFFFFFF AND SUB PUSH2 0x1465 JUMPI PUSH1 0x40 MLOAD PUSH32 0x8C379A000000000000000000000000000000000000000000000000000000000 DUP2 MSTORE PUSH1 0x4 ADD PUSH2 0x145C SWAP1 PUSH2 0x2F2D JUMP JUMPDEST PUSH1 0x40 MLOAD DUP1 SWAP2 SUB SWAP1 REVERT JUMPDEST DUP1 CALLVALUE EQ PUSH2 0x14A7 JUMPI PUSH1 0x40 MLOAD PUSH32 0x8C379A000000000000000000000000000000000000000000000000000000000 DUP2 MSTORE PUSH1 0x4 ADD PUSH2 0x149E SWAP1 PUSH2 0x2F95 JUMP JUMPDEST PUSH1 0x40 MLOAD DUP1 SWAP2 SUB SWAP1 REVERT JUMPDEST PUSH1 0xA DUP3 MLOAD GT PUSH2 0x14EB JUMPI PUSH1 0x40 MLOAD PUSH32 0x8C379A000000000000000000000000000000000000000000000000000000000 DUP2 MSTORE PUSH1 0x4 ADD PUSH2 0x14E2 SWAP1 PUSH2 0x2FFD JUMP JUMPDEST PUSH1 0x40 MLOAD DUP1 SWAP2 SUB SWAP1 REVERT JUMPDEST PUSH1 0x3 PUSH0 DUP2 SLOAD DUP1 SWAP3 SWAP2 SWAP1 PUSH2 0x14FD SWAP1 PUSH2 0x301B JUMP JUMPDEST SWAP2 SWAP1 POP SSTORE POP PUSH0 PUSH1 0x2 PUSH0 PUSH1 0x3 SLOAD DUP2 MSTORE PUSH1 0x20 ADD SWAP1 DUP2 MSTORE PUSH1 0x20 ADD PUSH0 KECCAK256 SWAP1 POP PUSH1 0x3 SLOAD DUP2 PUSH0 ADD DUP2 SWAP1 SSTORE POP DUP2 DUP2 PUSH1 0x1 ADD DUP2 SWAP1 SSTORE POP CALLER DUP2 PUSH1 0x2 ADD PUSH0 PUSH2 0x100 EXP DUP2 SLOAD DUP2 PUSH20 0xFFFFFFFFFFFFFFFFFFFFFFFFFFFFFFFFFFFFFFFF MUL NOT AND SWAP1 DUP4 PUSH20 0xFFFFFFFFFFFFFFFFFFFFFFFFFFFFFFFFFFFFFFFF AND MUL OR SWAP1 SSTORE POP DUP4 DUP2 PUSH1 0x3 ADD PUSH0 PUSH2 0x100 EXP DUP2 SLOAD DUP2 PUSH20 0xFFFFFFFFFFFFFFFFFFFFFFFFFFFFFFFFFFFFFFFF MUL NOT AND SWAP1 DUP4 PUSH20 0xFFFFFFFFFFFFFFFFFFFFFFFFFFFFFFFFFFFFFFFF AND MUL OR SWAP1 SSTORE POP PUSH0 DUP2 PUSH1 0x3 ADD PUSH1 0x14 PUSH2 0x100 EXP DUP2 SLOAD DUP2 PUSH1 0xFF MUL NOT AND SWAP1 DUP4 PUSH1 0x3 DUP2 GT ISZERO PUSH2 0x15D6 JUMPI PUSH2 0x15D5 PUSH2 0x2128 JUMP JUMPDEST JUMPDEST MUL OR SWAP1 SSTORE POP DUP3 DUP2 PUSH1 0x4 ADD SWAP1 DUP2 PUSH2 0x15EC SWAP2 SWAP1 PUSH2 0x2B5D JUMP JUMPDEST POP PUSH1 0x3 SLOAD PUSH32 0x56560A52C047ED21FD801BF0F345B23D9AF696F7922FF8E63101AF5D48CADDAB CALLER DUP7 PUSH1 0x40 MLOAD PUSH2 0x1621 SWAP3 SWAP2 SWAP1 PUSH2 0x30B4 JUMP JUMPDEST PUSH1 0x40 MLOAD DUP1 SWAP2 SUB SWAP1 LOG2 POP POP POP POP JUMP JUMPDEST PUSH2 0x1637 PUSH2 0x203B JUMP JUMPDEST DUP1 PUSH1 0x2 PUSH0 DUP3 DUP2 MSTORE PUSH1 0x20 ADD SWAP1 DUP2 MSTORE PUSH1 0x20 ADD PUSH0 KECCAK256 PUSH1 0x3 ADD PUSH0 SWAP1 SLOAD SWAP1 PUSH2 0x100 EXP SWAP1 DIV PUSH20 0xFFFFFFFFFFFFFFFFFFFFFFFFFFFFFFFFFFFFFFFF AND PUSH20 0xFFFFFFFFFFFFFFFFFFFFFFFFFFFFFFFFFFFFFFFF AND CALLER PUSH20 0xFFFFFFFFFFFFFFFFFFFFFFFFFFFFFFFFFFFFFFFF AND EQ PUSH2 0x16D9 JUMPI PUSH1 0x40 MLOAD PUSH32 0x8C379A000000000000000000000000000000000000000000000000000000000 DUP2 MSTORE PUSH1 0x4 ADD PUSH2 0x16D0 SWAP1 PUSH2 0x2C76 JUMP JUMPDEST PUSH1 0x40 MLOAD DUP1 SWAP2 SUB SWAP1 REVERT JUMPDEST PUSH0 PUSH1 0x2 PUSH0 DUP5 DUP2 MSTORE PUSH1 0x20 ADD SWAP1 DUP2 MSTORE PUSH1 0x20 ADD PUSH0 KECCAK256 SWAP1 POP DUP1 PUSH1 0x6 ADD PUSH0 SWAP1 SLOAD SWAP1 PUSH2 0x100 EXP SWAP1 DIV PUSH1 0xFF AND PUSH2 0x173D JUMPI PUSH1 0x40 MLOAD PUSH32 0x8C379A000000000000000000000000000000000000000000000000000000000 DUP2 MSTORE PUSH1 0x4 ADD PUSH2 0x1734 SWAP1 PUSH2 0x26DA JUMP JUMPDEST PUSH1 0x40 MLOAD DUP1 SWAP2 SUB SWAP1 REVERT JUMPDEST PUSH1 0x1 PUSH1 0x3 DUP2 GT ISZERO PUSH2 0x1751 JUMPI PUSH2 0x1750 PUSH2 0x2128 JUMP JUMPDEST JUMPDEST DUP2 PUSH1 0x3 ADD PUSH1 0x14 SWAP1 SLOAD SWAP1 PUSH2 0x100 EXP SWAP1 DIV PUSH1 0xFF AND PUSH1 0x3 DUP2 GT ISZERO PUSH2 0x1775 JUMPI PUSH2 0x1774 PUSH2 0x2128 JUMP JUMPDEST JUMPDEST EQ PUSH2 0x17B5 JUMPI PUSH1 0x40 MLOAD PUSH32 0x8C379A000000000000000000000000000000000000000000000000000000000 DUP2 MSTORE PUSH1 0x4 ADD PUSH2 0x17AC SWAP1 PUSH2 0x2742 JUMP JUMPDEST PUSH1 0x40 MLOAD DUP1 SWAP2 SUB SWAP1 REVERT JUMPDEST DUP1 PUSH1 0x6 ADD PUSH1 0x1 SWAP1 SLOAD SWAP1 PUSH2 0x100 EXP SWAP1 DIV PUSH1 0xFF AND PUSH2 0x1806 JUMPI PUSH1 0x40 MLOAD PUSH32 0x8C379A000000000000000000000000000000000000000000000000000000000 DUP2 MSTORE PUSH1 0x4 ADD PUSH2 0x17FD SWAP1 PUSH2 0x3125 JUMP JUMPDEST PUSH1 0x40 MLOAD DUP1 SWAP2 SUB SWAP1 REVERT JUMPDEST DUP1 PUSH1 0x6 ADD PUSH1 0x2 SWAP1 SLOAD SWAP1 PUSH2 0x100 EXP SWAP1 DIV PUSH1 0xFF AND ISZERO PUSH2 0x1858 JUMPI PUSH1 0x40 MLOAD PUSH32 0x8C379A000000000000000000000000000000000000000000000000000000000 DUP2 MSTORE PUSH1 0x4 ADD PUSH2 0x184F SWAP1 PUSH2 0x2812 JUMP JUMPDEST PUSH1 0x40 MLOAD DUP1 SWAP2 SUB SWAP1 REVERT JUMPDEST PUSH3 0x93A80 DUP2 PUSH1 0x7 ADD SLOAD PUSH2 0x186B SWAP2 SWAP1 PUSH2 0x285D JUMP JUMPDEST TIMESTAMP LT ISZERO PUSH2 0x18AD JUMPI PUSH1 0x40 MLOAD PUSH32 0x8C379A000000000000000000000000000000000000000000000000000000000 DUP2 MSTORE PUSH1 0x4 ADD PUSH2 0x18A4 SWAP1 PUSH2 0x318D JUMP JUMPDEST PUSH1 0x40 MLOAD DUP1 SWAP2 SUB SWAP1 REVERT JUMPDEST PUSH1 0x1 DUP2 PUSH1 0x6 ADD PUSH1 0x2 PUSH2 0x100 EXP DUP2 SLOAD DUP2 PUSH1 0xFF MUL NOT AND SWAP1 DUP4 ISZERO ISZERO MUL OR SWAP1 SSTORE POP PUSH1 0x2 DUP2 PUSH1 0x3 ADD PUSH1 0x14 PUSH2 0x100 EXP DUP2 SLOAD DUP2 PUSH1 0xFF MUL NOT AND SWAP1 DUP4 PUSH1 0x3 DUP2 GT ISZERO PUSH2 0x18F2 JUMPI PUSH2 0x18F1 PUSH2 0x2128 JUMP JUMPDEST JUMPDEST MUL OR SWAP1 SSTORE POP DUP1 PUSH1 0x1 ADD SLOAD PUSH1 0x4 PUSH0 DUP4 PUSH1 0x3 ADD PUSH0 SWAP1 SLOAD SWAP1 PUSH2 0x100 EXP SWAP1 DIV PUSH20 0xFFFFFFFFFFFFFFFFFFFFFFFFFFFFFFFFFFFFFFFF AND PUSH20 0xFFFFFFFFFFFFFFFFFFFFFFFFFFFFFFFFFFFFFFFF AND PUSH20 0xFFFFFFFFFFFFFFFFFFFFFFFFFFFFFFFFFFFFFFFF AND DUP2 MSTORE PUSH1 0x20 ADD SWAP1 DUP2 MSTORE PUSH1 0x20 ADD PUSH0 KECCAK256 SLOAD PUSH2 0x1967 SWAP2 SWAP1 PUSH2 0x285D JUMP JUMPDEST PUSH1 0x4 PUSH0 DUP4 PUSH1 0x3 ADD PUSH0 SWAP1 SLOAD SWAP1 PUSH2 0x100 EXP SWAP1 DIV PUSH20 0xFFFFFFFFFFFFFFFFFFFFFFFFFFFFFFFFFFFFFFFF AND PUSH20 0xFFFFFFFFFFFFFFFFFFFFFFFFFFFFFFFFFFFFFFFF AND PUSH20 0xFFFFFFFFFFFFFFFFFFFFFFFFFFFFFFFFFFFFFFFF AND DUP2 MSTORE PUSH1 0x20 ADD SWAP1 DUP2 MSTORE PUSH1 0x20 ADD PUSH0 KECCAK256 DUP2 SWAP1 SSTORE POP DUP3 PUSH32 0x5C1E662F72EE6C85181B65FAC5BEB0390932B8C472F05B257151D041AC9DDFFA PUSH1 0x40 MLOAD PUSH1 0x40 MLOAD DUP1 SWAP2 SUB SWAP1 LOG2 DUP1 PUSH1 0x3 ADD PUSH0 SWAP1 SLOAD SWAP1 PUSH2 0x100 EXP SWAP1 DIV PUSH20 0xFFFFFFFFFFFFFFFFFFFFFFFFFFFFFFFFFFFFFFFF AND PUSH20 0xFFFFFFFFFFFFFFFFFFFFFFFFFFFFFFFFFFFFFFFF AND DUP4 PUSH32 0x21D71DB5BE59BB9FA133895586B7404307DD33FB93B16DB09DC6F1D9D7D231B0 DUP4 PUSH1 0x1 ADD SLOAD PUSH1 0x40 MLOAD PUSH2 0x1A66 SWAP2 SWAP1 PUSH2 0x210F JUMP JUMPDEST PUSH1 0x40 MLOAD DUP1 SWAP2 SUB SWAP1 LOG3 POP POP PUSH2 0x1A78 PUSH2 0x2088 JUMP JUMPDEST POP JUMP JUMPDEST PUSH2 0x1A83 PUSH2 0x203B JUMP JUMPDEST PUSH1 0x1 PUSH0 SWAP1 SLOAD SWAP1 PUSH2 0x100 EXP SWAP1 DIV PUSH20 0xFFFFFFFFFFFFFFFFFFFFFFFFFFFFFFFFFFFFFFFF AND PUSH20 0xFFFFFFFFFFFFFFFFFFFFFFFFFFFFFFFFFFFFFFFF AND CALLER PUSH20 0xFFFFFFFFFFFFFFFFFFFFFFFFFFFFFFFFFFFFFFFF AND EQ PUSH2 0x1B12 JUMPI PUSH1 0x40 MLOAD PUSH32 0x8C379A000000000000000000000000000000000000000000000000000000000 DUP2 MSTORE PUSH1 0x4 ADD PUSH2 0x1B09 SWAP1 PUSH2 0x31F5 JUMP JUMPDEST PUSH1 0x40 MLOAD DUP1 SWAP2 SUB SWAP1 REVERT JUMPDEST PUSH0 PUSH1 0x2 PUSH0 DUP5 DUP2 MSTORE PUSH1 0x20 ADD SWAP1 DUP2 MSTORE PUSH1 0x20 ADD PUSH0 KECCAK256 SWAP1 POP DUP1 PUSH1 0x6 ADD PUSH0 SWAP1 SLOAD SWAP1 PUSH2 0x100 EXP SWAP1 DIV PUSH1 0xFF AND PUSH2 0x1B76 JUMPI PUSH1 0x40 MLOAD PUSH32 0x8C379A000000000000000000000000000000000000000000000000000000000 DUP2 MSTORE PUSH1 0x4 ADD PUSH2 0x1B6D SWAP1 PUSH2 0x26DA JUMP JUMPDEST PUSH1 0x40 MLOAD DUP1 SWAP2 SUB SWAP1 REVERT JUMPDEST PUSH1 0x1 PUSH1 0x3 DUP2 GT ISZERO PUSH2 0x1B8A JUMPI PUSH2 0x1B89 PUSH2 0x2128 JUMP JUMPDEST JUMPDEST DUP2 PUSH1 0x3 ADD PUSH1 0x14 SWAP1 SLOAD SWAP1 PUSH2 0x100 EXP SWAP1 DIV PUSH1 0xFF AND PUSH1 0x3 DUP2 GT ISZERO PUSH2 0x1BAE JUMPI PUSH2 0x1BAD PUSH2 0x2128 JUMP JUMPDEST JUMPDEST EQ PUSH2 0x1BEE JUMPI PUSH1 0x40 MLOAD PUSH32 0x8C379A000000000000000000000000000000000000000000000000000000000 DUP2 MSTORE PUSH1 0x4 ADD PUSH2 0x1BE5 SWAP1 PUSH2 0x2742 JUMP JUMPDEST PUSH1 0x40 MLOAD DUP1 SWAP2 SUB SWAP1 REVERT JUMPDEST DUP1 PUSH1 0x6 ADD PUSH1 0x1 SWAP1 SLOAD SWAP1 PUSH2 0x100 EXP SWAP1 DIV PUSH1 0xFF AND ISZERO PUSH2 0x1C40 JUMPI PUSH1 0x40 MLOAD PUSH32 0x8C379A000000000000000000000000000000000000000000000000000000000 DUP2 MSTORE PUSH1 0x4 ADD PUSH2 0x1C37 SWAP1 PUSH2 0x325D JUMP JUMPDEST PUSH1 0x40 MLOAD DUP1 SWAP2 SUB SWAP1 REVERT JUMPDEST DUP3 DUP3 PUSH1 0x40 MLOAD PUSH1 0x20 ADD PUSH2 0x1C53 SWAP3 SWAP2 SWAP1 PUSH2 0x2CFC JUMP JUMPDEST PUSH1 0x40 MLOAD PUSH1 0x20 DUP2 DUP4 SUB SUB DUP2 MSTORE SWAP1 PUSH1 0x40 MSTORE DUP1 MLOAD SWAP1 PUSH1 0x20 ADD KECCAK256 DUP2 PUSH1 0x5 ADD SLOAD EQ PUSH2 0x1CAE JUMPI PUSH1 0x40 MLOAD PUSH32 0x8C379A000000000000000000000000000000000000000000000000000000000 DUP2 MSTORE PUSH1 0x4 ADD PUSH2 0x1CA5 SWAP1 PUSH2 0x32C5 JUMP JUMPDEST PUSH1 0x40 MLOAD DUP1 SWAP2 SUB SWAP1 REVERT JUMPDEST PUSH1 0x1 DUP2 PUSH1 0x6 ADD PUSH1 0x1 PUSH2 0x100 EXP DUP2 SLOAD DUP2 PUSH1 0xFF MUL NOT AND SWAP1 DUP4 ISZERO ISZERO MUL OR SWAP1 SSTORE POP TIMESTAMP DUP2 PUSH1 0x7 ADD DUP2 SWAP1 SSTORE POP DUP3 PUSH32 0x375B4005EEAE25D0E37D56E1B3841D3BB394B277EFA2548DE3293F5DCB7A3493 PUSH1 0x40 MLOAD PUSH1 0x40 MLOAD DUP1 SWAP2 SUB SWAP1 LOG2 POP PUSH2 0x1D0A PUSH2 0x2088 JUMP JUMPDEST POP POP JUMP JUMPDEST PUSH2 0x1D16 PUSH2 0x203B JUMP JUMPDEST PUSH0 PUSH1 0x2 PUSH0 DUP4 DUP2 MSTORE PUSH1 0x20 ADD SWAP1 DUP2 MSTORE PUSH1 0x20 ADD PUSH0 KECCAK256 SWAP1 POP PUSH1 0x2 PUSH1 0x3 DUP2 GT ISZERO PUSH2 0x1D3E JUMPI PUSH2 0x1D3D PUSH2 0x2128 JUMP JUMPDEST JUMPDEST DUP2 PUSH1 0x3 ADD PUSH1 0x14 SWAP1 SLOAD SWAP1 PUSH2 0x100 EXP SWAP1 DIV PUSH1 0xFF AND PUSH1 0x3 DUP2 GT ISZERO PUSH2 0x1D62 JUMPI PUSH2 0x1D61 PUSH2 0x2128 JUMP JUMPDEST JUMPDEST EQ PUSH2 0x1DA2 JUMPI PUSH1 0x40 MLOAD PUSH32 0x8C379A000000000000000000000000000000000000000000000000000000000 DUP2 MSTORE PUSH1 0x4 ADD PUSH2 0x1D99 SWAP1 PUSH2 0x332D JUMP JUMPDEST PUSH1 0x40 MLOAD DUP1 SWAP2 SUB SWAP1 REVERT JUMPDEST CALLER PUSH20 0xFFFFFFFFFFFFFFFFFFFFFFFFFFFFFFFFFFFFFFFF AND DUP2 PUSH1 0x3 ADD PUSH0 SWAP1 SLOAD SWAP1 PUSH2 0x100 EXP SWAP1 DIV PUSH20 0xFFFFFFFFFFFFFFFFFFFFFFFFFFFFFFFFFFFFFFFF AND PUSH20 0xFFFFFFFFFFFFFFFFFFFFFFFFFFFFFFFFFFFFFFFF AND EQ PUSH2 0x1E33 JUMPI PUSH1 0x40 MLOAD PUSH32 0x8C379A000000000000000000000000000000000000000000000000000000000 DUP2 MSTORE PUSH1 0x4 ADD PUSH2 0x1E2A SWAP1 PUSH2 0x3395 JUMP JUMPDEST PUSH1 0x40 MLOAD DUP1 SWAP2 SUB SWAP1 REVERT JUMPDEST PUSH0 DUP2 PUSH1 0x1 ADD SLOAD SWAP1 POP DUP1 PUSH1 0x4 PUSH0 CALLER PUSH20 0xFFFFFFFFFFFFFFFFFFFFFFFFFFFFFFFFFFFFFFFF AND PUSH20 0xFFFFFFFFFFFFFFFFFFFFFFFFFFFFFFFFFFFFFFFF AND DUP2 MSTORE PUSH1 0x20 ADD SWAP1 DUP2 MSTORE PUSH1 0x20 ADD PUSH0 KECCAK256 SLOAD LT ISZERO PUSH2 0x1EBB JUMPI PUSH1 0x40 MLOAD PUSH32 0x8C379A000000000000000000000000000000000000000000000000000000000 DUP2 MSTORE PUSH1 0x4 ADD PUSH2 0x1EB2 SWAP1 PUSH2 0x33FD JUMP JUMPDEST PUSH1 0x40 MLOAD DUP1 SWAP2 SUB SWAP1 REVERT JUMPDEST DUP1 PUSH1 0x4 PUSH0 CALLER PUSH20 0xFFFFFFFFFFFFFFFFFFFFFFFFFFFFFFFFFFFFFFFF AND PUSH20 0xFFFFFFFFFFFFFFFFFFFFFFFFFFFFFFFFFFFFFFFF AND DUP2 MSTORE PUSH1 0x20 ADD SWAP1 DUP2 MSTORE PUSH1 0x20 ADD PUSH0 KECCAK256 PUSH0 DUP3 DUP3 SLOAD PUSH2 0x1F07 SWAP2 SWAP1 PUSH2 0x341B JUMP JUMPDEST SWAP3 POP POP DUP2 SWAP1 SSTORE POP PUSH0 CALLER PUSH20 0xFFFFFFFFFFFFFFFFFFFFFFFFFFFFFFFFFFFFFFFF AND DUP3 PUSH1 0x40 MLOAD PUSH2 0x1F33 SWAP1 PUSH2 0x347B JUMP JUMPDEST PUSH0 PUSH1 0x40 MLOAD DUP1 DUP4 SUB DUP2 DUP6 DUP8 GAS CALL SWAP3 POP POP POP RETURNDATASIZE DUP1 PUSH0 DUP2 EQ PUSH2 0x1F6D JUMPI PUSH1 0x40 MLOAD SWAP2 POP PUSH1 0x1F NOT PUSH1 0x3F RETURNDATASIZE ADD AND DUP3 ADD PUSH1 0x40 MSTORE RETURNDATASIZE DUP3 MSTORE RETURNDATASIZE PUSH0 PUSH1 0x20 DUP5 ADD RETURNDATACOPY PUSH2 0x1F72 JUMP JUMPDEST PUSH1 0x60 SWAP2 POP JUMPDEST POP POP SWAP1 POP DUP1 PUSH2 0x1FB6 JUMPI PUSH1 0x40 MLOAD PUSH32 0x8C379A000000000000000000000000000000000000000000000000000000000 DUP2 MSTORE PUSH1 0x4 ADD PUSH2 0x1FAD SWAP1 PUSH2 0x34D9 JUMP JUMPDEST PUSH1 0x40 MLOAD DUP1 SWAP2 SUB SWAP1 REVERT JUMPDEST CALLER PUSH20 0xFFFFFFFFFFFFFFFFFFFFFFFFFFFFFFFFFFFFFFFF AND DUP5 PUSH32 0xF440AEC6B52895984D061D622E6EDEBA6210F7C3E059BE920663140C084560D7 DUP5 PUSH1 0x40 MLOAD PUSH2 0x1FFD SWAP2 SWAP1 PUSH2 0x210F JUMP JUMPDEST PUSH1 0x40 MLOAD DUP1 SWAP2 SUB SWAP1 LOG3 POP POP POP PUSH2 0x2010 PUSH2 0x2088 JUMP JUMPDEST POP JUMP JUMPDEST PUSH1 0x1 PUSH1 0x14 SWAP1 SLOAD SWAP1 PUSH2 0x100 EXP SWAP1 DIV PUSH1 0xFF AND DUP2 JUMP JUMPDEST PUSH1 0x4 PUSH1 0x20 MSTORE DUP1 PUSH0 MSTORE PUSH1 0x40 PUSH0 KECCAK256 PUSH0 SWAP2 POP SWAP1 POP SLOAD DUP2 JUMP JUMPDEST PUSH1 0x2 PUSH0 SLOAD SUB PUSH2 0x207F JUMPI PUSH1 0x40 MLOAD PUSH32 0x8C379A000000000000000000000000000000000000000000000000000000000 DUP2 MSTORE PUSH1 0x4 ADD PUSH2 0x2076 SWAP1 PUSH2 0x3541 JUMP JUMPDEST PUSH1 0x40 MLOAD DUP1 SWAP2 SUB SWAP1 REVERT JUMPDEST PUSH1 0x2 PUSH0 DUP2 SWAP1 SSTORE POP JUMP JUMPDEST PUSH1 0x1 PUSH0 DUP2 SWAP1 SSTORE POP JUMP JUMPDEST PUSH0 PUSH1 0x40 MLOAD SWAP1 POP SWAP1 JUMP JUMPDEST PUSH0 PUSH0 REVERT JUMPDEST PUSH0 PUSH0 REVERT JUMPDEST PUSH0 DUP2 SWAP1 POP SWAP2 SWAP1 POP JUMP JUMPDEST PUSH2 0x20B4 DUP2 PUSH2 0x20A2 JUMP JUMPDEST DUP2 EQ PUSH2 0x20BE JUMPI PUSH0 PUSH0 REVERT JUMPDEST POP JUMP JUMPDEST PUSH0 DUP2 CALLDATALOAD SWAP1 POP PUSH2 0x20CF DUP2 PUSH2 0x20AB JUMP JUMPDEST SWAP3 SWAP2 POP POP JUMP JUMPDEST PUSH0 PUSH1 0x20 DUP3 DUP5 SUB SLT ISZERO PUSH2 0x20EA JUMPI PUSH2 0x20E9 PUSH2 0x209A JUMP JUMPDEST JUMPDEST PUSH0 PUSH2 0x20F7 DUP5 DUP3 DUP6 ADD PUSH2 0x20C1 JUMP JUMPDEST SWAP2 POP POP SWAP3 SWAP2 POP POP JUMP JUMPDEST PUSH2 0x2109 DUP2 PUSH2 0x20A2 JUMP JUMPDEST DUP3 MSTORE POP POP JUMP JUMPDEST PUSH0 PUSH1 0x20 DUP3 ADD SWAP1 POP PUSH2 0x2122 PUSH0 DUP4 ADD DUP5 PUSH2 0x2100 JUMP JUMPDEST SWAP3 SWAP2 POP POP JUMP JUMPDEST PUSH32 0x4E487B7100000000000000000000000000000000000000000000000000000000 PUSH0 MSTORE PUSH1 0x21 PUSH1 0x4 MSTORE PUSH1 0x24 PUSH0 REVERT JUMPDEST PUSH1 0x4 DUP2 LT PUSH2 0x2166 JUMPI PUSH2 0x2165 PUSH2 0x2128 JUMP JUMPDEST JUMPDEST POP JUMP JUMPDEST PUSH0 DUP2 SWAP1 POP PUSH2 0x2176 DUP3 PUSH2 0x2155 JUMP JUMPDEST SWAP2 SWAP1 POP JUMP JUMPDEST PUSH0 PUSH2 0x2185 DUP3 PUSH2 0x2169 JUMP JUMPDEST SWAP1 POP SWAP2 SWAP1 POP JUMP JUMPDEST PUSH2 0x2195 DUP2 PUSH2 0x217B JUMP JUMPDEST DUP3 MSTORE POP POP JUMP JUMPDEST PUSH0 PUSH1 0x20 DUP3 ADD SWAP1 POP PUSH2 0x21AE PUSH0 DUP4 ADD DUP5 PUSH2 0x218C JUMP JUMPDEST SWAP3 SWAP2 POP POP JUMP JUMPDEST PUSH0 DUP2 MLOAD SWAP1 POP SWAP2 SWAP1 POP JUMP JUMPDEST PUSH0 DUP3 DUP3 MSTORE PUSH1 0x20 DUP3 ADD SWAP1 POP SWAP3 SWAP2 POP POP JUMP JUMPDEST DUP3 DUP2 DUP4 MCOPY PUSH0 DUP4 DUP4 ADD MSTORE POP POP POP JUMP JUMPDEST PUSH0 PUSH1 0x1F NOT PUSH1 0x1F DUP4 ADD AND SWAP1 POP SWAP2 SWAP1 POP JUMP JUMPDEST PUSH0 PUSH2 0x21F6 DUP3 PUSH2 0x21B4 JUMP JUMPDEST PUSH2 0x2200 DUP2 DUP6 PUSH2 0x21BE JUMP JUMPDEST SWAP4 POP PUSH2 0x2210 DUP2 DUP6 PUSH1 0x20 DUP7 ADD PUSH2 0x21CE JUMP JUMPDEST PUSH2 0x2219 DUP2 PUSH2 0x21DC JUMP JUMPDEST DUP5 ADD SWAP2 POP POP SWAP3 SWAP2 POP POP JUMP JUMPDEST PUSH0 PUSH1 0x20 DUP3 ADD SWAP1 POP DUP2 DUP2 SUB PUSH0 DUP4 ADD MSTORE PUSH2 0x223C DUP2 DUP5 PUSH2 0x21EC JUMP JUMPDEST SWAP1 POP SWAP3 SWAP2 POP POP JUMP JUMPDEST PUSH0 PUSH20 0xFFFFFFFFFFFFFFFFFFFFFFFFFFFFFFFFFFFFFFFF DUP3 AND SWAP1 POP SWAP2 SWAP1 POP JUMP JUMPDEST PUSH0 PUSH2 0x226D DUP3 PUSH2 0x2244 JUMP JUMPDEST SWAP1 POP SWAP2 SWAP1 POP JUMP JUMPDEST PUSH2 0x227D DUP2 PUSH2 0x2263 JUMP JUMPDEST DUP3 MSTORE POP POP JUMP JUMPDEST PUSH0 DUP2 SWAP1 POP SWAP2 SWAP1 POP JUMP JUMPDEST PUSH2 0x2295 DUP2 PUSH2 0x2283 JUMP JUMPDEST DUP3 MSTORE POP POP JUMP JUMPDEST PUSH0 DUP2 ISZERO ISZERO SWAP1 POP SWAP2 SWAP1 POP JUMP JUMPDEST PUSH2 0x22AF DUP2 PUSH2 0x229B JUMP JUMPDEST DUP3 MSTORE POP POP JUMP JUMPDEST PUSH0 PUSH2 0x160 DUP3 ADD SWAP1 POP PUSH2 0x22C9 PUSH0 DUP4 ADD DUP15 PUSH2 0x2100 JUMP JUMPDEST PUSH2 0x22D6 PUSH1 0x20 DUP4 ADD DUP14 PUSH2 0x2100 JUMP JUMPDEST PUSH2 0x22E3 PUSH1 0x40 DUP4 ADD DUP13 PUSH2 0x2274 JUMP JUMPDEST PUSH2 0x22F0 PUSH1 0x60 DUP4 ADD DUP12 PUSH2 0x2274 JUMP JUMPDEST PUSH2 0x22FD PUSH1 0x80 DUP4 ADD DUP11 PUSH2 0x218C JUMP JUMPDEST DUP2 DUP2 SUB PUSH1 0xA0 DUP4 ADD MSTORE PUSH2 0x230F DUP2 DUP10 PUSH2 0x21EC JUMP JUMPDEST SWAP1 POP PUSH2 0x231E PUSH1 0xC0 DUP4 ADD DUP9 PUSH2 0x228C JUMP JUMPDEST PUSH2 0x232B PUSH1 0xE0 DUP4 ADD DUP8 PUSH2 0x22A6 JUMP JUMPDEST PUSH2 0x2339 PUSH2 0x100 DUP4 ADD DUP7 PUSH2 0x22A6 JUMP JUMPDEST PUSH2 0x2347 PUSH2 0x120 DUP4 ADD DUP6 PUSH2 0x22A6 JUMP JUMPDEST PUSH2 0x2355 PUSH2 0x140 DUP4 ADD DUP5 PUSH2 0x2100 JUMP JUMPDEST SWAP13 SWAP12 POP POP POP POP POP POP POP POP POP POP POP POP JUMP JUMPDEST PUSH0 PUSH0 REVERT JUMPDEST PUSH0 PUSH0 REVERT JUMPDEST PUSH32 0x4E487B7100000000000000000000000000000000000000000000000000000000 PUSH0 MSTORE PUSH1 0x41 PUSH1 0x4 MSTORE PUSH1 0x24 PUSH0 REVERT JUMPDEST PUSH2 0x23A3 DUP3 PUSH2 0x21DC JUMP JUMPDEST DUP2 ADD DUP2 DUP2 LT PUSH8 0xFFFFFFFFFFFFFFFF DUP3 GT OR ISZERO PUSH2 0x23C2 JUMPI PUSH2 0x23C1 PUSH2 0x236D JUMP JUMPDEST JUMPDEST DUP1 PUSH1 0x40 MSTORE POP POP POP JUMP JUMPDEST PUSH0 PUSH2 0x23D4 PUSH2 0x2091 JUMP JUMPDEST SWAP1 POP PUSH2 0x23E0 DUP3 DUP3 PUSH2 0x239A JUMP JUMPDEST SWAP2 SWAP1 POP JUMP JUMPDEST PUSH0 PUSH8 0xFFFFFFFFFFFFFFFF DUP3 GT ISZERO PUSH2 0x23FF JUMPI PUSH2 0x23FE PUSH2 0x236D JUMP JUMPDEST JUMPDEST PUSH2 0x2408 DUP3 PUSH2 0x21DC JUMP JUMPDEST SWAP1 POP PUSH1 0x20 DUP2 ADD SWAP1 POP SWAP2 SWAP1 POP JUMP JUMPDEST DUP3 DUP2 DUP4 CALLDATACOPY PUSH0 DUP4 DUP4 ADD MSTORE POP POP POP JUMP JUMPDEST PUSH0 PUSH2 0x2435 PUSH2 0x2430 DUP5 PUSH2 0x23E5 JUMP JUMPDEST PUSH2 0x23CB JUMP JUMPDEST SWAP1 POP DUP3 DUP2 MSTORE PUSH1 0x20 DUP2 ADD DUP5 DUP5 DUP5 ADD GT ISZERO PUSH2 0x2451 JUMPI PUSH2 0x2450 PUSH2 0x2369 JUMP JUMPDEST JUMPDEST PUSH2 0x245C DUP5 DUP3 DUP6 PUSH2 0x2415 JUMP JUMPDEST POP SWAP4 SWAP3 POP POP POP JUMP JUMPDEST PUSH0 DUP3 PUSH1 0x1F DUP4 ADD SLT PUSH2 0x2478 JUMPI PUSH2 0x2477 PUSH2 0x2365 JUMP JUMPDEST JUMPDEST DUP2 CALLDATALOAD PUSH2 0x2488 DUP5 DUP3 PUSH1 0x20 DUP7 ADD PUSH2 0x2423 JUMP JUMPDEST SWAP2 POP POP SWAP3 SWAP2 POP POP JUMP JUMPDEST PUSH0 PUSH0 PUSH1 0x40 DUP4 DUP6 SUB SLT ISZERO PUSH2 0x24A7 JUMPI PUSH2 0x24A6 PUSH2 0x209A JUMP JUMPDEST JUMPDEST PUSH0 PUSH2 0x24B4 DUP6 DUP3 DUP7 ADD PUSH2 0x20C1 JUMP JUMPDEST SWAP3 POP POP PUSH1 0x20 DUP4 ADD CALLDATALOAD PUSH8 0xFFFFFFFFFFFFFFFF DUP2 GT ISZERO PUSH2 0x24D5 JUMPI PUSH2 0x24D4 PUSH2 0x209E JUMP JUMPDEST JUMPDEST PUSH2 0x24E1 DUP6 DUP3 DUP7 ADD PUSH2 0x2464 JUMP JUMPDEST SWAP2 POP POP SWAP3 POP SWAP3 SWAP1 POP JUMP JUMPDEST PUSH0 PUSH2 0x24F5 DUP3 PUSH2 0x2244 JUMP JUMPDEST SWAP1 POP SWAP2 SWAP1 POP JUMP JUMPDEST PUSH2 0x2505 DUP2 PUSH2 0x24EB JUMP JUMPDEST DUP2 EQ PUSH2 0x250F JUMPI PUSH0 PUSH0 REVERT JUMPDEST POP JUMP JUMPDEST PUSH0 DUP2 CALLDATALOAD SWAP1 POP PUSH2 0x2520 DUP2 PUSH2 0x24FC JUMP JUMPDEST SWAP3 SWAP2 POP POP JUMP JUMPDEST PUSH0 PUSH1 0x20 DUP3 DUP5 SUB SLT ISZERO PUSH2 0x253B JUMPI PUSH2 0x253A PUSH2 0x209A JUMP JUMPDEST JUMPDEST PUSH0 PUSH2 0x2548 DUP5 DUP3 DUP6 ADD PUSH2 0x2512 JUMP JUMPDEST SWAP2 POP POP SWAP3 SWAP2 POP POP JUMP JUMPDEST PUSH2 0x255A DUP2 PUSH2 0x24EB JUMP JUMPDEST DUP3 MSTORE POP POP JUMP JUMPDEST PUSH0 PUSH1 0x20 DUP3 ADD SWAP1 POP PUSH2 0x2573 PUSH0 DUP4 ADD DUP5 PUSH2 0x2551 JUMP JUMPDEST SWAP3 SWAP2 POP POP JUMP JUMPDEST PUSH2 0x2582 DUP2 PUSH2 0x2263 JUMP JUMPDEST DUP2 EQ PUSH2 0x258C JUMPI PUSH0 PUSH0 REVERT JUMPDEST POP JUMP JUMPDEST PUSH0 DUP2 CALLDATALOAD SWAP1 POP PUSH2 0x259D DUP2 PUSH2 0x2579 JUMP JUMPDEST SWAP3 SWAP2 POP POP JUMP JUMPDEST PUSH0 PUSH0 PUSH0 PUSH1 0x60 DUP5 DUP7 SUB SLT ISZERO PUSH2 0x25BA JUMPI PUSH2 0x25B9 PUSH2 0x209A JUMP JUMPDEST JUMPDEST PUSH0 PUSH2 0x25C7 DUP7 DUP3 DUP8 ADD PUSH2 0x258F JUMP JUMPDEST SWAP4 POP POP PUSH1 0x20 DUP5 ADD CALLDATALOAD PUSH8 0xFFFFFFFFFFFFFFFF DUP2 GT ISZERO PUSH2 0x25E8 JUMPI PUSH2 0x25E7 PUSH2 0x209E JUMP JUMPDEST JUMPDEST PUSH2 0x25F4 DUP7 DUP3 DUP8 ADD PUSH2 0x2464 JUMP JUMPDEST SWAP3 POP POP PUSH1 0x40 PUSH2 0x2605 DUP7 DUP3 DUP8 ADD PUSH2 0x20C1 JUMP JUMPDEST SWAP2 POP POP SWAP3 POP SWAP3 POP SWAP3 JUMP JUMPDEST PUSH0 PUSH1 0x20 DUP3 ADD SWAP1 POP PUSH2 0x2622 PUSH0 DUP4 ADD DUP5 PUSH2 0x22A6 JUMP JUMPDEST SWAP3 SWAP2 POP POP JUMP JUMPDEST PUSH32 0x4E6F742063726561746F72000000000000000000000000000000000000000000 PUSH0 DUP3 ADD MSTORE POP JUMP JUMPDEST PUSH0 PUSH2 0x265C PUSH1 0xB DUP4 PUSH2 0x21BE JUMP JUMPDEST SWAP2 POP PUSH2 0x2667 DUP3 PUSH2 0x2628 JUMP JUMPDEST PUSH1 0x20 DUP3 ADD SWAP1 POP SWAP2 SWAP1 POP JUMP JUMPDEST PUSH0 PUSH1 0x20 DUP3 ADD SWAP1 POP DUP2 DUP2 SUB PUSH0 DUP4 ADD MSTORE PUSH2 0x2689 DUP2 PUSH2 0x2650 JUMP JUMPDEST SWAP1 POP SWAP2 SWAP1 POP JUMP JUMPDEST PUSH32 0x4E6F2064656C6976657279000000000000000000000000000000000000000000 PUSH0 DUP3 ADD MSTORE POP JUMP JUMPDEST PUSH0 PUSH2 0x26C4 PUSH1 0xB DUP4 PUSH2 0x21BE JUMP JUMPDEST SWAP2 POP PUSH2 0x26CF DUP3 PUSH2 0x2690 JUMP JUMPDEST PUSH1 0x20 DUP3 ADD SWAP1 POP SWAP2 SWAP1 POP JUMP JUMPDEST PUSH0 PUSH1 0x20 DUP3 ADD SWAP1 POP DUP2 DUP2 SUB PUSH0 DUP4 ADD MSTORE PUSH2 0x26F1 DUP2 PUSH2 0x26B8 JUMP JUMPDEST SWAP1 POP SWAP2 SWAP1 POP JUMP JUMPDEST PUSH32 0x4E6F74205369676E656400000000000000000000000000000000000000000000 PUSH0 DUP3 ADD MSTORE POP JUMP JUMPDEST PUSH0 PUSH2 0x272C PUSH1 0xA DUP4 PUSH2 0x21BE JUMP JUMPDEST SWAP2 POP PUSH2 0x2737 DUP3 PUSH2 0x26F8 JUMP JUMPDEST PUSH1 0x20 DUP3 ADD SWAP1 POP SWAP2 SWAP1 POP JUMP JUMPDEST PUSH0 PUSH1 0x20 DUP3 ADD SWAP1 POP DUP2 DUP2 SUB PUSH0 DUP4 ADD MSTORE PUSH2 0x2759 DUP2 PUSH2 0x2720 JUMP JUMPDEST SWAP1 POP SWAP2 SWAP1 POP JUMP JUMPDEST PUSH32 0x44656C6976657279206D697373696E6700000000000000000000000000000000 PUSH0 DUP3 ADD MSTORE POP JUMP JUMPDEST PUSH0 PUSH2 0x2794 PUSH1 0x10 DUP4 PUSH2 0x21BE JUMP JUMPDEST SWAP2 POP PUSH2 0x279F DUP3 PUSH2 0x2760 JUMP JUMPDEST PUSH1 0x20 DUP3 ADD SWAP1 POP SWAP2 SWAP1 POP JUMP JUMPDEST PUSH0 PUSH1 0x20 DUP3 ADD SWAP1 POP DUP2 DUP2 SUB PUSH0 DUP4 ADD MSTORE PUSH2 0x27C1 DUP2 PUSH2 0x2788 JUMP JUMPDEST SWAP1 POP SWAP2 SWAP1 POP JUMP JUMPDEST PUSH32 0x416C726561647920617070726F76656400000000000000000000000000000000 PUSH0 DUP3 ADD MSTORE POP JUMP JUMPDEST PUSH0 PUSH2 0x27FC PUSH1 0x10 DUP4 PUSH2 0x21BE JUMP JUMPDEST SWAP2 POP PUSH2 0x2807 DUP3 PUSH2 0x27C8 JUMP JUMPDEST PUSH1 0x20 DUP3 ADD SWAP1 POP SWAP2 SWAP1 POP JUMP JUMPDEST PUSH0 PUSH1 0x20 DUP3 ADD SWAP1 POP DUP2 DUP2 SUB PUSH0 DUP4 ADD MSTORE PUSH2 0x2829 DUP2 PUSH2 0x27F0 JUMP JUMPDEST SWAP1 POP SWAP2 SWAP1 POP JUMP JUMPDEST PUSH32 0x4E487B7100000000000000000000000000000000000000000000000000000000 PUSH0 MSTORE PUSH1 0x11 PUSH1 0x4 MSTORE PUSH1 0x24 PUSH0 REVERT JUMPDEST PUSH0 PUSH2 0x2867 DUP3 PUSH2 0x20A2 JUMP JUMPDEST SWAP2 POP PUSH2 0x2872 DUP4 PUSH2 0x20A2 JUMP JUMPDEST SWAP3 POP DUP3 DUP3 ADD SWAP1 POP DUP1 DUP3 GT ISZERO PUSH2 0x288A JUMPI PUSH2 0x2889 PUSH2 0x2830 JUMP JUMPDEST JUMPDEST SWAP3 SWAP2 POP POP JUMP JUMPDEST PUSH32 0x4E487B7100000000000000000000000000000000000000000000000000000000 PUSH0 MSTORE PUSH1 0x22 PUSH1 0x4 MSTORE PUSH1 0x24 PUSH0 REVERT JUMPDEST PUSH0 PUSH1 0x2 DUP3 DIV SWAP1 POP PUSH1 0x1 DUP3 AND DUP1 PUSH2 0x28D4 JUMPI PUSH1 0x7F DUP3 AND SWAP2 POP JUMPDEST PUSH1 0x20 DUP3 LT DUP2 SUB PUSH2 0x28E7 JUMPI PUSH2 0x28E6 PUSH2 0x2890 JUMP JUMPDEST JUMPDEST POP SWAP2 SWAP1 POP JUMP JUMPDEST PUSH32 0x416C726561647920636F6D706C65746564000000000000000000000000000000 PUSH0 DUP3 ADD MSTORE POP JUMP JUMPDEST PUSH0 PUSH2 0x2921 PUSH1 0x11 DUP4 PUSH2 0x21BE JUMP JUMPDEST SWAP2 POP PUSH2 0x292C DUP3 PUSH2 0x28ED JUMP JUMPDEST PUSH1 0x20 DUP3 ADD SWAP1 POP SWAP2 SWAP1 POP JUMP JUMPDEST PUSH0 PUSH1 0x20 DUP3 ADD SWAP1 POP DUP2 DUP2 SUB PUSH0 DUP4 ADD MSTORE PUSH2 0x294E DUP2 PUSH2 0x2915 JUMP JUMPDEST SWAP1 POP SWAP2 SWAP1 POP JUMP JUMPDEST PUSH32 0x416C72656164792063616E63656C6C6564000000000000000000000000000000 PUSH0 DUP3 ADD MSTORE POP JUMP JUMPDEST PUSH0 PUSH2 0x2989 PUSH1 0x11 DUP4 PUSH2 0x21BE JUMP JUMPDEST SWAP2 POP PUSH2 0x2994 DUP3 PUSH2 0x2955 JUMP JUMPDEST PUSH1 0x20 DUP3 ADD SWAP1 POP SWAP2 SWAP1 POP JUMP JUMPDEST PUSH0 PUSH1 0x20 DUP3 ADD SWAP1 POP DUP2 DUP2 SUB PUSH0 DUP4 ADD MSTORE PUSH2 0x29B6 DUP2 PUSH2 0x297D JUMP JUMPDEST SWAP1 POP SWAP2 SWAP1 POP JUMP JUMPDEST PUSH0 DUP2 SWAP1 POP DUP2 PUSH0 MSTORE PUSH1 0x20 PUSH0 KECCAK256 SWAP1 POP SWAP2 SWAP1 POP JUMP JUMPDEST PUSH0 PUSH1 0x20 PUSH1 0x1F DUP4 ADD DIV SWAP1 POP SWAP2 SWAP1 POP JUMP JUMPDEST PUSH0 DUP3 DUP3 SHL SWAP1 POP SWAP3 SWAP2 POP POP JUMP JUMPDEST PUSH0 PUSH1 0x8 DUP4 MUL PUSH2 0x2A19 PUSH32 0xFFFFFFFFFFFFFFFFFFFFFFFFFFFFFFFFFFFFFFFFFFFFFFFFFFFFFFFFFFFFFFFF DUP3 PUSH2 0x29DE JUMP JUMPDEST PUSH2 0x2A23 DUP7 DUP4 PUSH2 0x29DE JUMP JUMPDEST SWAP6 POP DUP1 NOT DUP5 AND SWAP4 POP DUP1 DUP7 AND DUP5 OR SWAP3 POP POP POP SWAP4 SWAP3 POP POP POP JUMP JUMPDEST PUSH0 DUP2 SWAP1 POP SWAP2 SWAP1 POP JUMP JUMPDEST PUSH0 PUSH2 0x2A5E PUSH2 0x2A59 PUSH2 0x2A54 DUP5 PUSH2 0x20A2 JUMP JUMPDEST PUSH2 0x2A3B JUMP JUMPDEST PUSH2 0x20A2 JUMP JUMPDEST SWAP1 POP SWAP2 SWAP1 POP JUMP JUMPDEST PUSH0 DUP2 SWAP1 POP SWAP2 SWAP1 POP JUMP JUMPDEST PUSH2 0x2A77 DUP4 PUSH2 0x2A44 JUMP JUMPDEST PUSH2 0x2A8B PUSH2 0x2A83 DUP3 PUSH2 0x2A65 JUMP JUMPDEST DUP5 DUP5 SLOAD PUSH2 0x29EA JUMP JUMPDEST DUP3 SSTORE POP POP POP POP JUMP JUMPDEST PUSH0 PUSH0 SWAP1 POP SWAP1 JUMP JUMPDEST PUSH2 0x2AA2 PUSH2 0x2A93 JUMP JUMPDEST PUSH2 0x2AAD DUP2 DUP5 DUP5 PUSH2 0x2A6E JUMP JUMPDEST POP POP POP JUMP JUMPDEST JUMPDEST DUP2 DUP2 LT ISZERO PUSH2 0x2AD0 JUMPI PUSH2 0x2AC5 PUSH0 DUP3 PUSH2 0x2A9A JUMP JUMPDEST PUSH1 0x1 DUP2 ADD SWAP1 POP PUSH2 0x2AB3 JUMP JUMPDEST POP POP JUMP JUMPDEST PUSH1 0x1F DUP3 GT ISZERO PUSH2 0x2B15 JUMPI PUSH2 0x2AE6 DUP2 PUSH2 0x29BD JUMP JUMPDEST PUSH2 0x2AEF DUP5 PUSH2 0x29CF JUMP JUMPDEST DUP2 ADD PUSH1 0x20 DUP6 LT ISZERO PUSH2 0x2AFE JUMPI DUP2 SWAP1 POP JUMPDEST PUSH2 0x2B12 PUSH2 0x2B0A DUP6 PUSH2 0x29CF JUMP JUMPDEST DUP4 ADD DUP3 PUSH2 0x2AB2 JUMP JUMPDEST POP POP JUMPDEST POP POP POP JUMP JUMPDEST PUSH0 DUP3 DUP3 SHR SWAP1 POP SWAP3 SWAP2 POP POP JUMP JUMPDEST PUSH0 PUSH2 0x2B35 PUSH0 NOT DUP5 PUSH1 0x8 MUL PUSH2 0x2B1A JUMP JUMPDEST NOT DUP1 DUP4 AND SWAP2 POP POP SWAP3 SWAP2 POP POP JUMP JUMPDEST PUSH0 PUSH2 0x2B4D DUP4 DUP4 PUSH2 0x2B26 JUMP JUMPDEST SWAP2 POP DUP3 PUSH1 0x2 MUL DUP3 OR SWAP1 POP SWAP3 SWAP2 POP POP JUMP JUMPDEST PUSH2 0x2B66 DUP3 PUSH2 0x21B4 JUMP JUMPDEST PUSH8 0xFFFFFFFFFFFFFFFF DUP2 GT ISZERO PUSH2 0x2B7F JUMPI PUSH2 0x2B7E PUSH2 0x236D JUMP JUMPDEST JUMPDEST PUSH2 0x2B89 DUP3 SLOAD PUSH2 0x28BD JUMP JUMPDEST PUSH2 0x2B94 DUP3 DUP3 DUP6 PUSH2 0x2AD4 JUMP JUMPDEST PUSH0 PUSH1 0x20 SWAP1 POP PUSH1 0x1F DUP4 GT PUSH1 0x1 DUP2 EQ PUSH2 0x2BC5 JUMPI PUSH0 DUP5 ISZERO PUSH2 0x2BB3 JUMPI DUP3 DUP8 ADD MLOAD SWAP1 POP JUMPDEST PUSH2 0x2BBD DUP6 DUP3 PUSH2 0x2B42 JUMP JUMPDEST DUP7 SSTORE POP PUSH2 0x2C24 JUMP JUMPDEST PUSH1 0x1F NOT DUP5 AND PUSH2 0x2BD3 DUP7 PUSH2 0x29BD JUMP JUMPDEST PUSH0 JUMPDEST DUP3 DUP2 LT ISZERO PUSH2 0x2BFA JUMPI DUP5 DUP10 ADD MLOAD DUP3 SSTORE PUSH1 0x1 DUP3 ADD SWAP2 POP PUSH1 0x20 DUP6 ADD SWAP5 POP PUSH1 0x20 DUP2 ADD SWAP1 POP PUSH2 0x2BD5 JUMP JUMPDEST DUP7 DUP4 LT ISZERO PUSH2 0x2C17 JUMPI DUP5 DUP10 ADD MLOAD PUSH2 0x2C13 PUSH1 0x1F DUP10 AND DUP3 PUSH2 0x2B26 JUMP JUMPDEST DUP4 SSTORE POP JUMPDEST PUSH1 0x1 PUSH1 0x2 DUP9 MUL ADD DUP9 SSTORE POP POP POP JUMPDEST POP POP POP POP POP POP JUMP JUMPDEST PUSH32 0x4E6F7420636F756E746572706172747900000000000000000000000000000000 PUSH0 DUP3 ADD MSTORE POP JUMP JUMPDEST PUSH0 PUSH2 0x2C60 PUSH1 0x10 DUP4 PUSH2 0x21BE JUMP JUMPDEST SWAP2 POP PUSH2 0x2C6B DUP3 PUSH2 0x2C2C JUMP JUMPDEST PUSH1 0x20 DUP3 ADD SWAP1 POP SWAP2 SWAP1 POP JUMP JUMPDEST PUSH0 PUSH1 0x20 DUP3 ADD SWAP1 POP DUP2 DUP2 SUB PUSH0 DUP4 ADD MSTORE PUSH2 0x2C8D DUP2 PUSH2 0x2C54 JUMP JUMPDEST SWAP1 POP SWAP2 SWAP1 POP JUMP JUMPDEST PUSH32 0x416C726561647920736574000000000000000000000000000000000000000000 PUSH0 DUP3 ADD MSTORE POP JUMP JUMPDEST PUSH0 PUSH2 0x2CC8 PUSH1 0xB DUP4 PUSH2 0x21BE JUMP JUMPDEST SWAP2 POP PUSH2 0x2CD3 DUP3 PUSH2 0x2C94 JUMP JUMPDEST PUSH1 0x20 DUP3 ADD SWAP1 POP SWAP2 SWAP1 POP JUMP JUMPDEST PUSH0 PUSH1 0x20 DUP3 ADD SWAP1 POP DUP2 DUP2 SUB PUSH0 DUP4 ADD MSTORE PUSH2 0x2CF5 DUP2 PUSH2 0x2CBC JUMP JUMPDEST SWAP1 POP SWAP2 SWAP1 POP JUMP JUMPDEST PUSH0 PUSH1 0x40 DUP3 ADD SWAP1 POP PUSH2 0x2D0F PUSH0 DUP4 ADD DUP6 PUSH2 0x2100 JUMP JUMPDEST DUP2 DUP2 SUB PUSH1 0x20 DUP4 ADD MSTORE PUSH2 0x2D21 DUP2 DUP5 PUSH2 0x21EC JUMP JUMPDEST SWAP1 POP SWAP4 SWAP3 POP POP POP JUMP JUMPDEST PUSH0 PUSH1 0x20 DUP3 ADD SWAP1 POP PUSH2 0x2D3D PUSH0 DUP4 ADD DUP5 PUSH2 0x228C JUMP JUMPDEST SWAP3 SWAP2 POP POP JUMP JUMPDEST PUSH32 0x4F7261636C6520616C7265616479207365740000000000000000000000000000 PUSH0 DUP3 ADD MSTORE POP JUMP JUMPDEST PUSH0 PUSH2 0x2D77 PUSH1 0x12 DUP4 PUSH2 0x21BE JUMP JUMPDEST SWAP2 POP PUSH2 0x2D82 DUP3 PUSH2 0x2D43 JUMP JUMPDEST PUSH1 0x20 DUP3 ADD SWAP1 POP SWAP2 SWAP1 POP JUMP JUMPDEST PUSH0 PUSH1 0x20 DUP3 ADD SWAP1 POP DUP2 DUP2 SUB PUSH0 DUP4 ADD MSTORE PUSH2 0x2DA4 DUP2 PUSH2 0x2D6B JUMP JUMPDEST SWAP1 POP SWAP2 SWAP1 POP JUMP JUMPDEST PUSH32 0x496E76616C6964206F7261636C65000000000000000000000000000000000000 PUSH0 DUP3 ADD MSTORE POP JUMP JUMPDEST PUSH0 PUSH2 0x2DDF PUSH1 0xE DUP4 PUSH2 0x21BE JUMP JUMPDEST SWAP2 POP PUSH2 0x2DEA DUP3 PUSH2 0x2DAB JUMP JUMPDEST PUSH1 0x20 DUP3 ADD SWAP1 POP SWAP2 SWAP1 POP JUMP JUMPDEST PUSH0 PUSH1 0x20 DUP3 ADD SWAP1 POP DUP2 DUP2 SUB PUSH0 DUP4 ADD MSTORE PUSH2 0x2E0C DUP2 PUSH2 0x2DD3 JUMP JUMPDEST SWAP1 POP SWAP2 SWAP1 POP JUMP JUMPDEST PUSH32 0x5573652064656C697665727920666C6F77000000000000000000000000000000 PUSH0 DUP3 ADD MSTORE POP JUMP JUMPDEST PUSH0 PUSH2 0x2E47 PUSH1 0x11 DUP4 PUSH2 0x21BE JUMP JUMPDEST SWAP2 POP PUSH2 0x2E52 DUP3 PUSH2 0x2E13 JUMP JUMPDEST PUSH1 0x20 DUP3 ADD SWAP1 POP SWAP2 SWAP1 POP JUMP JUMPDEST PUSH0 PUSH1 0x20 DUP3 ADD SWAP1 POP DUP2 DUP2 SUB PUSH0 DUP4 ADD MSTORE PUSH2 0x2E74 DUP2 PUSH2 0x2E3B JUMP JUMPDEST SWAP1 POP SWAP2 SWAP1 POP JUMP JUMPDEST PUSH32 0x4E6F742043726561746564000000000000000000000000000000000000000000 PUSH0 DUP3 ADD MSTORE POP JUMP JUMPDEST PUSH0 PUSH2 0x2EAF PUSH1 0xB DUP4 PUSH2 0x21BE JUMP JUMPDEST SWAP2 POP PUSH2 0x2EBA DUP3 PUSH2 0x2E7B JUMP JUMPDEST PUSH1 0x20 DUP3 ADD SWAP1 POP SWAP2 SWAP1 POP JUMP JUMPDEST PUSH0 PUSH1 0x20 DUP3 ADD SWAP1 POP DUP2 DUP2 SUB PUSH0 DUP4 ADD MSTORE PUSH2 0x2EDC DUP2 PUSH2 0x2EA3 JUMP JUMPDEST SWAP1 POP SWAP2 SWAP1 POP JUMP JUMPDEST PUSH32 0x302061646472206E6F7420616C6C6F7765640000000000000000000000000000 PUSH0 DUP3 ADD MSTORE POP JUMP JUMPDEST PUSH0 PUSH2 0x2F17 PUSH1 0x12 DUP4 PUSH2 0x21BE JUMP JUMPDEST SWAP2 POP PUSH2 0x2F22 DUP3 PUSH2 0x2EE3 JUMP JUMPDEST PUSH1 0x20 DUP3 ADD SWAP1 POP SWAP2 SWAP1 POP JUMP JUMPDEST PUSH0 PUSH1 0x20 DUP3 ADD SWAP1 POP DUP2 DUP2 SUB PUSH0 DUP4 ADD MSTORE PUSH2 0x2F44 DUP2 PUSH2 0x2F0B JUMP JUMPDEST SWAP1 POP SWAP2 SWAP1 POP JUMP JUMPDEST PUSH32 0x455448206D69736D617463680000000000000000000000000000000000000000 PUSH0 DUP3 ADD MSTORE POP JUMP JUMPDEST PUSH0 PUSH2 0x2F7F PUSH1 0xC DUP4 PUSH2 0x21BE JUMP JUMPDEST SWAP2 POP PUSH2 0x2F8A DUP3 PUSH2 0x2F4B JUMP JUMPDEST PUSH1 0x20 DUP3 ADD SWAP1 POP SWAP2 SWAP1 POP JUMP JUMPDEST PUSH0 PUSH1 0x20 DUP3 ADD SWAP1 POP DUP2 DUP2 SUB PUSH0 DUP4 ADD MSTORE PUSH2 0x2FAC DUP2 PUSH2 0x2F73 JUMP JUMPDEST SWAP1 POP SWAP2 SWAP1 POP JUMP JUMPDEST PUSH32 0x496E76616C696420495046532068617368000000000000000000000000000000 PUSH0 DUP3 ADD MSTORE POP JUMP JUMPDEST PUSH0 PUSH2 0x2FE7 PUSH1 0x11 DUP4 PUSH2 0x21BE JUMP JUMPDEST SWAP2 POP PUSH2 0x2FF2 DUP3 PUSH2 0x2FB3 JUMP JUMPDEST PUSH1 0x20 DUP3 ADD SWAP1 POP SWAP2 SWAP1 POP JUMP JUMPDEST PUSH0 PUSH1 0x20 DUP3 ADD SWAP1 POP DUP2 DUP2 SUB PUSH0 DUP4 ADD MSTORE PUSH2 0x3014 DUP2 PUSH2 0x2FDB JUMP JUMPDEST SWAP1 POP SWAP2 SWAP1 POP JUMP JUMPDEST PUSH0 PUSH2 0x3025 DUP3 PUSH2 0x20A2 JUMP JUMPDEST SWAP2 POP PUSH32 0xFFFFFFFFFFFFFFFFFFFFFFFFFFFFFFFFFFFFFFFFFFFFFFFFFFFFFFFFFFFFFFFF DUP3 SUB PUSH2 0x3057 JUMPI PUSH2 0x3056 PUSH2 0x2830 JUMP JUMPDEST JUMPDEST PUSH1 0x1 DUP3 ADD SWAP1 POP SWAP2 SWAP1 POP JUMP JUMPDEST PUSH0 PUSH2 0x307C PUSH2 0x3077 PUSH2 0x3072 DUP5 PUSH2 0x2244 JUMP JUMPDEST PUSH2 0x2A3B JUMP JUMPDEST PUSH2 0x2244 JUMP JUMPDEST SWAP1 POP SWAP2 SWAP1 POP JUMP JUMPDEST PUSH0 PUSH2 0x308D DUP3 PUSH2 0x3062 JUMP JUMPDEST SWAP1 POP SWAP2 SWAP1 POP JUMP JUMPDEST PUSH0 PUSH2 0x309E DUP3 PUSH2 0x3083 JUMP JUMPDEST SWAP1 POP SWAP2 SWAP1 POP JUMP JUMPDEST PUSH2 0x30AE DUP2 PUSH2 0x3094 JUMP JUMPDEST DUP3 MSTORE POP POP JUMP JUMPDEST PUSH0 PUSH1 0x40 DUP3 ADD SWAP1 POP PUSH2 0x30C7 PUSH0 DUP4 ADD DUP6 PUSH2 0x2551 JUMP JUMPDEST PUSH2 0x30D4 PUSH1 0x20 DUP4 ADD DUP5 PUSH2 0x30A5 JUMP JUMPDEST SWAP4 SWAP3 POP POP POP JUMP JUMPDEST PUSH32 0x4E6F7420636F6E6669726D656400000000000000000000000000000000000000 PUSH0 DUP3 ADD MSTORE POP JUMP JUMPDEST PUSH0 PUSH2 0x310F PUSH1 0xD DUP4 PUSH2 0x21BE JUMP JUMPDEST SWAP2 POP PUSH2 0x311A DUP3 PUSH2 0x30DB JUMP JUMPDEST PUSH1 0x20 DUP3 ADD SWAP1 POP SWAP2 SWAP1 POP JUMP JUMPDEST PUSH0 PUSH1 0x20 DUP3 ADD SWAP1 POP DUP2 DUP2 SUB PUSH0 DUP4 ADD MSTORE PUSH2 0x313C DUP2 PUSH2 0x3103 JUMP JUMPDEST SWAP1 POP SWAP2 SWAP1 POP JUMP JUMPDEST PUSH32 0x54696D656F7574206E6F74207265616368656400000000000000000000000000 PUSH0 DUP3 ADD MSTORE POP JUMP JUMPDEST PUSH0 PUSH2 0x3177 PUSH1 0x13 DUP4 PUSH2 0x21BE JUMP JUMPDEST SWAP2 POP PUSH2 0x3182 DUP3 PUSH2 0x3143 JUMP JUMPDEST PUSH1 0x20 DUP3 ADD SWAP1 POP SWAP2 SWAP1 POP JUMP JUMPDEST PUSH0 PUSH1 0x20 DUP3 ADD SWAP1 POP DUP2 DUP2 SUB PUSH0 DUP4 ADD MSTORE PUSH2 0x31A4 DUP2 PUSH2 0x316B JUMP JUMPDEST SWAP1 POP SWAP2 SWAP1 POP JUMP JUMPDEST PUSH32 0x4E6F74206F7261636C6500000000000000000000000000000000000000000000 PUSH0 DUP3 ADD MSTORE POP JUMP JUMPDEST PUSH0 PUSH2 0x31DF PUSH1 0xA DUP4 PUSH2 0x21BE JUMP JUMPDEST SWAP2 POP PUSH2 0x31EA DUP3 PUSH2 0x31AB JUMP JUMPDEST PUSH1 0x20 DUP3 ADD SWAP1 POP SWAP2 SWAP1 POP JUMP JUMPDEST PUSH0 PUSH1 0x20 DUP3 ADD SWAP1 POP DUP2 DUP2 SUB PUSH0 DUP4 ADD MSTORE PUSH2 0x320C DUP2 PUSH2 0x31D3 JUMP JUMPDEST SWAP1 POP SWAP2 SWAP1 POP JUMP JUMPDEST PUSH32 0x416C726561647920636F6E6669726D6564000000000000000000000000000000 PUSH0 DUP3 ADD MSTORE POP JUMP JUMPDEST PUSH0 PUSH2 0x3247 PUSH1 0x11 DUP4 PUSH2 0x21BE JUMP JUMPDEST SWAP2 POP PUSH2 0x3252 DUP3 PUSH2 0x3213 JUMP JUMPDEST PUSH1 0x20 DUP3 ADD SWAP1 POP SWAP2 SWAP1 POP JUMP JUMPDEST PUSH0 PUSH1 0x20 DUP3 ADD SWAP1 POP DUP2 DUP2 SUB PUSH0 DUP4 ADD MSTORE PUSH2 0x3274 DUP2 PUSH2 0x323B JUMP JUMPDEST SWAP1 POP SWAP2 SWAP1 POP JUMP JUMPDEST PUSH32 0x48617368206D69736D6174636800000000000000000000000000000000000000 PUSH0 DUP3 ADD MSTORE POP JUMP JUMPDEST PUSH0 PUSH2 0x32AF PUSH1 0xD DUP4 PUSH2 0x21BE JUMP JUMPDEST SWAP2 POP PUSH2 0x32BA DUP3 PUSH2 0x327B JUMP JUMPDEST PUSH1 0x20 DUP3 ADD SWAP1 POP SWAP2 SWAP1 POP JUMP JUMPDEST PUSH0 PUSH1 0x20 DUP3 ADD SWAP1 POP DUP2 DUP2 SUB PUSH0 DUP4 ADD MSTORE PUSH2 0x32DC DUP2 PUSH2 0x32A3 JUMP JUMPDEST SWAP1 POP SWAP2 SWAP1 POP JUMP JUMPDEST PUSH32 0x4E6F7420636F6D706C6574656400000000000000000000000000000000000000 PUSH0 DUP3 ADD MSTORE POP JUMP JUMPDEST PUSH0 PUSH2 0x3317 PUSH1 0xD DUP4 PUSH2 0x21BE JUMP JUMPDEST SWAP2 POP PUSH2 0x3322 DUP3 PUSH2 0x32E3 JUMP JUMPDEST PUSH1 0x20 DUP3 ADD SWAP1 POP SWAP2 SWAP1 POP JUMP JUMPDEST PUSH0 PUSH1 0x20 DUP3 ADD SWAP1 POP DUP2 DUP2 SUB PUSH0 DUP4 ADD MSTORE PUSH2 0x3344 DUP2 PUSH2 0x330B JUMP JUMPDEST SWAP1 POP SWAP2 SWAP1 POP JUMP JUMPDEST PUSH32 0x4E6F7420726563697069656E7400000000000000000000000000000000000000 PUSH0 DUP3 ADD MSTORE POP JUMP JUMPDEST PUSH0 PUSH2 0x337F PUSH1 0xD DUP4 PUSH2 0x21BE JUMP JUMPDEST SWAP2 POP PUSH2 0x338A DUP3 PUSH2 0x334B JUMP JUMPDEST PUSH1 0x20 DUP3 ADD SWAP1 POP SWAP2 SWAP1 POP JUMP JUMPDEST PUSH0 PUSH1 0x20 DUP3 ADD SWAP1 POP DUP2 DUP2 SUB PUSH0 DUP4 ADD MSTORE PUSH2 0x33AC DUP2 PUSH2 0x3373 JUMP JUMPDEST SWAP1 POP SWAP2 SWAP1 POP JUMP JUMPDEST PUSH32 0x4E6F2062616C616E636500000000000000000000000000000000000000000000 PUSH0 DUP3 ADD MSTORE POP JUMP JUMPDEST PUSH0 PUSH2 0x33E7 PUSH1 0xA DUP4 PUSH2 0x21BE JUMP JUMPDEST SWAP2 POP PUSH2 0x33F2 DUP3 PUSH2 0x33B3 JUMP JUMPDEST PUSH1 0x20 DUP3 ADD SWAP1 POP SWAP2 SWAP1 POP JUMP JUMPDEST PUSH0 PUSH1 0x20 DUP3 ADD SWAP1 POP DUP2 DUP2 SUB PUSH0 DUP4 ADD MSTORE PUSH2 0x3414 DUP2 PUSH2 0x33DB JUMP JUMPDEST SWAP1 POP SWAP2 SWAP1 POP JUMP JUMPDEST PUSH0 PUSH2 0x3425 DUP3 PUSH2 0x20A2 JUMP JUMPDEST SWAP2 POP PUSH2 0x3430 DUP4 PUSH2 0x20A2 JUMP JUMPDEST SWAP3 POP DUP3 DUP3 SUB SWAP1 POP DUP2 DUP2 GT ISZERO PUSH2 0x3448 JUMPI PUSH2 0x3447 PUSH2 0x2830 JUMP JUMPDEST JUMPDEST SWAP3 SWAP2 POP POP JUMP JUMPDEST PUSH0 DUP2 SWAP1 POP SWAP3 SWAP2 POP POP JUMP JUMPDEST POP JUMP JUMPDEST PUSH0 PUSH2 0x3466 PUSH0 DUP4 PUSH2 0x344E JUMP JUMPDEST SWAP2 POP PUSH2 0x3471 DUP3 PUSH2 0x3458 JUMP JUMPDEST PUSH0 DUP3 ADD SWAP1 POP SWAP2 SWAP1 POP JUMP JUMPDEST PUSH0 PUSH2 0x3485 DUP3 PUSH2 0x345B JUMP JUMPDEST SWAP2 POP DUP2 SWAP1 POP SWAP2 SWAP1 POP JUMP JUMPDEST PUSH32 0x5769746864726177206661696C65640000000000000000000000000000000000 PUSH0 DUP3 ADD MSTORE POP JUMP JUMPDEST PUSH0 PUSH2 0x34C3 PUSH1 0xF DUP4 PUSH2 0x21BE JUMP JUMPDEST SWAP2 POP PUSH2 0x34CE DUP3 PUSH2 0x348F JUMP JUMPDEST PUSH1 0x20 DUP3 ADD SWAP1 POP SWAP2 SWAP1 POP JUMP JUMPDEST PUSH0 PUSH1 0x20 DUP3 ADD SWAP1 POP DUP2 DUP2 SUB PUSH0 DUP4 ADD MSTORE PUSH2 0x34F0 DUP2 PUSH2 0x34B7 JUMP JUMPDEST SWAP1 POP SWAP2 SWAP1 POP JUMP JUMPDEST PUSH32 0x5265656E7472616E637947756172643A207265656E7472616E742063616C6C00 PUSH0 DUP3 ADD MSTORE POP JUMP JUMPDEST PUSH0 PUSH2 0x352B PUSH1 0x1F DUP4 PUSH2 0x21BE JUMP JUMPDEST SWAP2 POP PUSH2 0x3536 DUP3 PUSH2 0x34F7 JUMP JUMPDEST PUSH1 0x20 DUP3 ADD SWAP1 POP SWAP2 SWAP1 POP JUMP JUMPDEST PUSH0 PUSH1 0x20 DUP3 ADD SWAP1 POP DUP2 DUP2 SUB PUSH0 DUP4 ADD MSTORE PUSH2 0x3558 DUP2 PUSH2 0x351F JUMP JUMPDEST SWAP1 POP SWAP2 SWAP1 POP JUMP INVALID LOG2 PUSH5 0x6970667358 0x22 SLT KECCAK256 PUSH20 0x7F05334E9D76DEC58BC020484904A6D5F1CC06F6 PUSH14 0x1C2FD4685DE35503852B64736F6C PUSH4 0x4300081E STOP CALLER "
				},
				"gasEstimates": {
					"creation": {
						"codeDepositCost": "2743400",
						"executionCost": "25095",
						"totalCost": "2768495"
					},
					"external": {
						"approveDeliveryAsCreator(uint256)": "infinite",
						"confirmCompletion(uint256)": "infinite",
						"confirmDeliveryByOracle(uint256,string)": "infinite",
						"contractCounter()": "2471",
						"contracts(uint256)": "infinite",
						"createContract(address,string,uint256)": "infinite",
						"deactivateContract(uint256)": "infinite",
						"forceApproveDeliveryAfterTimeout(uint256)": "infinite",
						"getContractIPFSHash(uint256)": "infinite",
						"getContractStatus(uint256)": "3023",
						"oracle()": "2531",
						"oracleSet()": "2605",
						"pendingWithdrawals(address)": "2912",
						"setDeliveryTracking(uint256,string)": "infinite",
						"setOracle(address)": "52522",
						"signContract(uint256)": "30576",
						"withdrawFundsFrom(uint256)": "infinite"
					}
				},
				"methodIdentifiers": {
					"approveDeliveryAsCreator(uint256)": "032ca42d",
					"confirmCompletion(uint256)": "94aeb613",
					"confirmDeliveryByOracle(uint256,string)": "c43bf3c2",
					"contractCounter()": "067bd3b4",
					"contracts(uint256)": "474da79a",
					"createContract(address,string,uint256)": "9ce5b6ca",
					"deactivateContract(uint256)": "22a45cd0",
					"forceApproveDeliveryAfterTimeout(uint256)": "a069bc25",
					"getContractIPFSHash(uint256)": "1ed4af8c",
					"getContractStatus(uint256)": "17b18458",
					"oracle()": "7dc0d1d0",
					"oracleSet()": "edb3b27a",
					"pendingWithdrawals(address)": "f3f43703",
					"setDeliveryTracking(uint256,string)": "54b7b6d3",
					"setOracle(address)": "7adbf973",
					"signContract(uint256)": "9537e8d1",
					"withdrawFundsFrom(uint256)": "df5c2980"
				}
			},
			"storageLayout": {
				"storage": [
					{
						"astId": 10,
						"contract": "digital_contract.sol:ContractManager",
						"label": "_status",
						"offset": 0,
						"slot": "0",
						"type": "t_uint256"
					},
					{
						"astId": 100,
						"contract": "digital_contract.sol:ContractManager",
						"label": "oracle",
						"offset": 0,
						"slot": "1",
						"type": "t_address"
					},
					{
						"astId": 102,
						"contract": "digital_contract.sol:ContractManager",
						"label": "oracleSet",
						"offset": 20,
						"slot": "1",
						"type": "t_bool"
					},
					{
						"astId": 107,
						"contract": "digital_contract.sol:ContractManager",
						"label": "contracts",
						"offset": 0,
						"slot": "2",
						"type": "t_mapping(t_uint256,t_struct(ManagedContract)98_storage)"
					},
					{
						"astId": 109,
						"contract": "digital_contract.sol:ContractManager",
						"label": "contractCounter",
						"offset": 0,
						"slot": "3",
						"type": "t_uint256"
					},
					{
						"astId": 113,
						"contract": "digital_contract.sol:ContractManager",
						"label": "pendingWithdrawals",
						"offset": 0,
						"slot": "4",
						"type": "t_mapping(t_address,t_uint256)"
					}
				],
				"types": {
					"t_address": {
						"encoding": "inplace",
						"label": "address",
						"numberOfBytes": "20"
					},
					"t_address_payable": {
						"encoding": "inplace",
						"label": "address payable",
						"numberOfBytes": "20"
					},
					"t_bool": {
						"encoding": "inplace",
						"label": "bool",
						"numberOfBytes": "1"
					},
					"t_bytes32": {
						"encoding": "inplace",
						"label": "bytes32",
						"numberOfBytes": "32"
					},
					"t_enum(ContractStatus)74": {
						"encoding": "inplace",
						"label": "enum ContractManager.ContractStatus",
						"numberOfBytes": "1"
					},
					"t_mapping(t_address,t_uint256)": {
						"encoding": "mapping",
						"key": "t_address",
						"label": "mapping(address => uint256)",
						"numberOfBytes": "32",
						"value": "t_uint256"
					},
					"t_mapping(t_uint256,t_struct(ManagedContract)98_storage)": {
						"encoding": "mapping",
						"key": "t_uint256",
						"label": "mapping(uint256 => struct ContractManager.ManagedContract)",
						"numberOfBytes": "32",
						"value": "t_struct(ManagedContract)98_storage"
					},
					"t_string_storage": {
						"encoding": "bytes",
						"label": "string",
						"numberOfBytes": "32"
					},
					"t_struct(ManagedContract)98_storage": {
						"encoding": "inplace",
						"label": "struct ContractManager.ManagedContract",
						"members": [
							{
								"astId": 76,
								"contract": "digital_contract.sol:ContractManager",
								"label": "id",
								"offset": 0,
								"slot": "0",
								"type": "t_uint256"
							},
							{
								"astId": 78,
								"contract": "digital_contract.sol:ContractManager",
								"label": "amount",
								"offset": 0,
								"slot": "1",
								"type": "t_uint256"
							},
							{
								"astId": 80,
								"contract": "digital_contract.sol:ContractManager",
								"label": "creator",
								"offset": 0,
								"slot": "2",
								"type": "t_address_payable"
							},
							{
								"astId": 82,
								"contract": "digital_contract.sol:ContractManager",
								"label": "counterparty",
								"offset": 0,
								"slot": "3",
								"type": "t_address_payable"
							},
							{
								"astId": 85,
								"contract": "digital_contract.sol:ContractManager",
								"label": "status",
								"offset": 20,
								"slot": "3",
								"type": "t_enum(ContractStatus)74"
							},
							{
								"astId": 87,
								"contract": "digital_contract.sol:ContractManager",
								"label": "contractIPFSHash",
								"offset": 0,
								"slot": "4",
								"type": "t_string_storage"
							},
							{
								"astId": 89,
								"contract": "digital_contract.sol:ContractManager",
								"label": "deliveryTrackingHash",
								"offset": 0,
								"slot": "5",
								"type": "t_bytes32"
							},
							{
								"astId": 91,
								"contract": "digital_contract.sol:ContractManager",
								"label": "deliveryRequired",
								"offset": 0,
								"slot": "6",
								"type": "t_bool"
							},
							{
								"astId": 93,
								"contract": "digital_contract.sol:ContractManager",
								"label": "deliveryConfirmed",
								"offset": 1,
								"slot": "6",
								"type": "t_bool"
							},
							{
								"astId": 95,
								"contract": "digital_contract.sol:ContractManager",
								"label": "deliveryApprovedByCreator",
								"offset": 2,
								"slot": "6",
								"type": "t_bool"
							},
							{
								"astId": 97,
								"contract": "digital_contract.sol:ContractManager",
								"label": "oracleConfirmationTime",
								"offset": 0,
								"slot": "7",
								"type": "t_uint256"
							}
						],
						"numberOfBytes": "256"
					},
					"t_uint256": {
						"encoding": "inplace",
						"label": "uint256",
						"numberOfBytes": "32"
					}
				}
			},
			"userdoc": {
				"kind": "user",
				"methods": {},
				"version": 1
			}
		}
	}
}