{
	"digital_contract.sol": {
		"ContractManager": {
			"abi": [
				{
					"anonymous": false,
					"inputs": [
						{
							"indexed": true,
							"internalType": "uint256",
							"name": "contractId",
							"type": "uint256"
						},
						{
							"indexed": false,
							"internalType": "address",
							"name": "creator",
							"type": "address"
						},
						{
							"indexed": false,
							"internalType": "address",
							"name": "counterparty",
							"type": "address"
						}
					],
					"name": "ContractCreated",
					"type": "event"
				},
				{
					"anonymous": false,
					"inputs": [
						{
							"indexed": true,
							"internalType": "uint256",
							"name": "contractId",
							"type": "uint256"
						}
					],
					"name": "ContractDeactivated",
					"type": "event"
				},
				{
					"anonymous": false,
					"inputs": [
						{
							"indexed": true,
							"internalType": "uint256",
							"name": "contractId",
							"type": "uint256"
						}
					],
					"name": "ContractSigned",
					"type": "event"
				},
				{
					"anonymous": false,
					"inputs": [
						{
							"indexed": true,
							"internalType": "uint256",
							"name": "contractId",
							"type": "uint256"
						}
					],
					"name": "DeliveryApproved",
					"type": "event"
				},
				{
					"anonymous": false,
					"inputs": [
						{
							"indexed": true,
							"internalType": "uint256",
							"name": "contractId",
							"type": "uint256"
						}
					],
					"name": "DeliveryConfirmed",
					"type": "event"
				},
				{
					"anonymous": false,
					"inputs": [
						{
							"indexed": true,
							"internalType": "uint256",
							"name": "contractId",
							"type": "uint256"
						},
						{
							"indexed": true,
							"internalType": "address",
							"name": "account",
							"type": "address"
						},
						{
							"indexed": false,
							"internalType": "uint256",
							"name": "amount",
							"type": "uint256"
						}
					],
					"name": "FundsWithdrawn",
					"type": "event"
				},
				{
					"anonymous": false,
					"inputs": [
						{
							"indexed": true,
							"internalType": "address",
							"name": "oracle",
							"type": "address"
						}
					],
					"name": "OracleSet",
					"type": "event"
				},
				{
					"anonymous": false,
					"inputs": [
						{
							"indexed": true,
							"internalType": "uint256",
							"name": "contractId",
							"type": "uint256"
						},
						{
							"indexed": true,
							"internalType": "address",
							"name": "to",
							"type": "address"
						},
						{
							"indexed": false,
							"internalType": "uint256",
							"name": "amount",
							"type": "uint256"
						}
					],
					"name": "PaymentReleased",
					"type": "event"
				},
				{
					"anonymous": false,
					"inputs": [
						{
							"indexed": true,
							"internalType": "uint256",
							"name": "contractId",
							"type": "uint256"
						},
						{
							"indexed": false,
							"internalType": "bytes32",
							"name": "trackingHash",
							"type": "bytes32"
						}
					],
					"name": "TrackingHashSet",
					"type": "event"
				},
				{
					"inputs": [
						{
							"internalType": "uint256",
							"name": "_contractId",
							"type": "uint256"
						}
					],
					"name": "approveDeliveryAsCreator",
					"outputs": [],
					"stateMutability": "nonpayable",
					"type": "function"
				},
				{
					"inputs": [
						{
							"internalType": "uint256",
							"name": "_contractId",
							"type": "uint256"
						}
					],
					"name": "confirmCompletion",
					"outputs": [],
					"stateMutability": "nonpayable",
					"type": "function"
				},
				{
					"inputs": [
						{
							"internalType": "uint256",
							"name": "_contractId",
							"type": "uint256"
						},
						{
							"internalType": "string",
							"name": "_trackingNumber",
							"type": "string"
						}
					],
					"name": "confirmDeliveryByOracle",
					"outputs": [],
					"stateMutability": "nonpayable",
					"type": "function"
				},
				{
					"inputs": [],
					"name": "contractCounter",
					"outputs": [
						{
							"internalType": "uint256",
							"name": "",
							"type": "uint256"
						}
					],
					"stateMutability": "view",
					"type": "function"
				},
				{
					"inputs": [
						{
							"internalType": "uint256",
							"name": "",
							"type": "uint256"
						}
					],
					"name": "contracts",
					"outputs": [
						{
							"internalType": "uint256",
							"name": "id",
							"type": "uint256"
						},
						{
							"internalType": "uint256",
							"name": "amount",
							"type": "uint256"
						},
						{
							"internalType": "address payable",
							"name": "creator",
							"type": "address"
						},
						{
							"internalType": "address payable",
							"name": "counterparty",
							"type": "address"
						},
						{
							"internalType": "enum ContractManager.ContractStatus",
							"name": "status",
							"type": "uint8"
						},
						{
							"internalType": "string",
							"name": "contractHash",
							"type": "string"
						},
						{
							"internalType": "bytes32",
							"name": "deliveryTrackingHash",
							"type": "bytes32"
						},
						{
							"internalType": "bool",
							"name": "deliveryRequired",
							"type": "bool"
						},
						{
							"internalType": "bool",
							"name": "deliveryConfirmed",
							"type": "bool"
						},
						{
							"internalType": "bool",
							"name": "deliveryApprovedByCreator",
							"type": "bool"
						}
					],
					"stateMutability": "view",
					"type": "function"
				},
				{
					"inputs": [
						{
							"internalType": "address payable",
							"name": "_counterparty",
							"type": "address"
						},
						{
							"internalType": "string",
							"name": "_contractHash",
							"type": "string"
						},
						{
							"internalType": "uint256",
							"name": "_amount",
							"type": "uint256"
						}
					],
					"name": "createContract",
					"outputs": [],
					"stateMutability": "payable",
					"type": "function"
				},
				{
					"inputs": [
						{
							"internalType": "uint256",
							"name": "_contractId",
							"type": "uint256"
						}
					],
					"name": "deactivateContract",
					"outputs": [],
					"stateMutability": "nonpayable",
					"type": "function"
				},
				{
					"inputs": [
						{
							"internalType": "uint256",
							"name": "_contractId",
							"type": "uint256"
						}
					],
					"name": "getContractHash",
					"outputs": [
						{
							"internalType": "string",
							"name": "",
							"type": "string"
						}
					],
					"stateMutability": "view",
					"type": "function"
				},
				{
					"inputs": [
						{
							"internalType": "uint256",
							"name": "_contractId",
							"type": "uint256"
						}
					],
					"name": "getContractStatus",
					"outputs": [
						{
							"internalType": "enum ContractManager.ContractStatus",
							"name": "",
							"type": "uint8"
						}
					],
					"stateMutability": "view",
					"type": "function"
				},
				{
					"inputs": [],
					"name": "oracle",
					"outputs": [
						{
							"internalType": "address",
							"name": "",
							"type": "address"
						}
					],
					"stateMutability": "view",
					"type": "function"
				},
				{
					"inputs": [],
					"name": "oracleSet",
					"outputs": [
						{
							"internalType": "bool",
							"name": "",
							"type": "bool"
						}
					],
					"stateMutability": "view",
					"type": "function"
				},
				{
					"inputs": [
						{
							"internalType": "address",
							"name": "",
							"type": "address"
						}
					],
					"name": "pendingWithdrawals",
					"outputs": [
						{
							"internalType": "uint256",
							"name": "",
							"type": "uint256"
						}
					],
					"stateMutability": "view",
					"type": "function"
				},
				{
					"inputs": [
						{
							"internalType": "uint256",
							"name": "_contractId",
							"type": "uint256"
						},
						{
							"internalType": "string",
							"name": "_trackingNumber",
							"type": "string"
						}
					],
					"name": "setDeliveryTracking",
					"outputs": [],
					"stateMutability": "nonpayable",
					"type": "function"
				},
				{
					"inputs": [
						{
							"internalType": "address",
							"name": "_oracle",
							"type": "address"
						}
					],
					"name": "setOracle",
					"outputs": [],
					"stateMutability": "nonpayable",
					"type": "function"
				},
				{
					"inputs": [
						{
							"internalType": "uint256",
							"name": "_contractId",
							"type": "uint256"
						}
					],
					"name": "signContract",
					"outputs": [],
					"stateMutability": "nonpayable",
					"type": "function"
				},
				{
					"inputs": [
						{
							"internalType": "uint256",
							"name": "_contractId",
							"type": "uint256"
						}
					],
					"name": "withdrawFundsFrom",
					"outputs": [],
					"stateMutability": "nonpayable",
					"type": "function"
				}
			],
			"devdoc": {
				"kind": "dev",
				"methods": {},
				"version": 1
			},
			"evm": {
				"assembly": "    /* \"digital_contract.sol\":126:7495  contract ContractManager is ReentrancyGuard {... */\n  mstore(0x40, 0x80)\n  callvalue\n  dup1\n  iszero\n  tag_1\n  jumpi\n  revert(0x00, 0x00)\ntag_1:\n  pop\n    /* \"@openzeppelin/contracts/security/ReentrancyGuard.sol\":1716:1717  1 */\n  0x01\n    /* \"@openzeppelin/contracts/security/ReentrancyGuard.sol\":1821:1828  _status */\n  0x00\n    /* \"@openzeppelin/contracts/security/ReentrancyGuard.sol\":1821:1843  _status = _NOT_ENTERED */\n  dup2\n  swap1\n  sstore\n  pop\n    /* \"digital_contract.sol\":126:7495  contract ContractManager is ReentrancyGuard {... */\n  dataSize(sub_0)\n  dup1\n  dataOffset(sub_0)\n  0x00\n  codecopy\n  0x00\n  return\nstop\n\nsub_0: assembly {\n        /* \"digital_contract.sol\":126:7495  contract ContractManager is ReentrancyGuard {... */\n      mstore(0x40, 0x80)\n      jumpi(tag_1, lt(calldatasize, 0x04))\n      shr(0xe0, calldataload(0x00))\n      dup1\n      0x7dc0d1d0\n      gt\n      tag_18\n      jumpi\n      dup1\n      0xc43bf3c2\n      gt\n      tag_19\n      jumpi\n      dup1\n      0xc43bf3c2\n      eq\n      tag_14\n      jumpi\n      dup1\n      0xdf5c2980\n      eq\n      tag_15\n      jumpi\n      dup1\n      0xedb3b27a\n      eq\n      tag_16\n      jumpi\n      dup1\n      0xf3f43703\n      eq\n      tag_17\n      jumpi\n      jump(tag_1)\n    tag_19:\n      dup1\n      0x7dc0d1d0\n      eq\n      tag_10\n      jumpi\n      dup1\n      0x94aeb613\n      eq\n      tag_11\n      jumpi\n      dup1\n      0x9537e8d1\n      eq\n      tag_12\n      jumpi\n      dup1\n      0x9ce5b6ca\n      eq\n      tag_13\n      jumpi\n      jump(tag_1)\n    tag_18:\n      dup1\n      0x22a45cd0\n      gt\n      tag_20\n      jumpi\n      dup1\n      0x22a45cd0\n      eq\n      tag_6\n      jumpi\n      dup1\n      0x474da79a\n      eq\n      tag_7\n      jumpi\n      dup1\n      0x54b7b6d3\n      eq\n      tag_8\n      jumpi\n      dup1\n      0x7adbf973\n      eq\n      tag_9\n      jumpi\n      jump(tag_1)\n    tag_20:\n      dup1\n      0x032ca42d\n      eq\n      tag_2\n      jumpi\n      dup1\n      0x067bd3b4\n      eq\n      tag_3\n      jumpi\n      dup1\n      0x0e9f0816\n      eq\n      tag_4\n      jumpi\n      dup1\n      0x17b18458\n      eq\n      tag_5\n      jumpi\n    tag_1:\n      revert(0x00, 0x00)\n        /* \"digital_contract.sol\":4592:5394  function approveDeliveryAsCreator(uint256 _contractId) public onlyCreator(_contractId) {... */\n    tag_2:\n      callvalue\n      dup1\n      iszero\n      tag_21\n      jumpi\n      revert(0x00, 0x00)\n    tag_21:\n      pop\n      tag_22\n      0x04\n      dup1\n      calldatasize\n      sub\n      dup2\n      add\n      swap1\n      tag_23\n      swap2\n      swap1\n      tag_24\n      jump\t// in\n    tag_23:\n      tag_25\n      jump\t// in\n    tag_22:\n      stop\n        /* \"digital_contract.sol\":728:758  uint256 public contractCounter */\n    tag_3:\n      callvalue\n      dup1\n      iszero\n      tag_26\n      jumpi\n      revert(0x00, 0x00)\n    tag_26:\n      pop\n      tag_27\n      tag_28\n      jump\t// in\n    tag_27:\n      mload(0x40)\n      tag_29\n      swap2\n      swap1\n      tag_30\n      jump\t// in\n    tag_29:\n      mload(0x40)\n      dup1\n      swap2\n      sub\n      swap1\n      return\n        /* \"digital_contract.sol\":7349:7492  function getContractHash(uint256 _contractId) public view returns (string memory) {... */\n    tag_4:\n      callvalue\n      dup1\n      iszero\n      tag_31\n      jumpi\n      revert(0x00, 0x00)\n    tag_31:\n      pop\n      tag_32\n      0x04\n      dup1\n      calldatasize\n      sub\n      dup2\n      add\n      swap1\n      tag_33\n      swap2\n      swap1\n      tag_24\n      jump\t// in\n    tag_33:\n      tag_34\n      jump\t// in\n    tag_32:\n      mload(0x40)\n      tag_35\n      swap2\n      swap1\n      tag_36\n      jump\t// in\n    tag_35:\n      mload(0x40)\n      dup1\n      swap2\n      sub\n      swap1\n      return\n        /* \"digital_contract.sol\":7201:7341  function getContractStatus(uint256 _contractId) public view returns (ContractStatus) {... */\n    tag_5:\n      callvalue\n      dup1\n      iszero\n      tag_37\n      jumpi\n      revert(0x00, 0x00)\n    tag_37:\n      pop\n      tag_38\n      0x04\n      dup1\n      calldatasize\n      sub\n      dup2\n      add\n      swap1\n      tag_39\n      swap2\n      swap1\n      tag_24\n      jump\t// in\n    tag_39:\n      tag_40\n      jump\t// in\n    tag_38:\n      mload(0x40)\n      tag_41\n      swap2\n      swap1\n      tag_42\n      jump\t// in\n    tag_41:\n      mload(0x40)\n      dup1\n      swap2\n      sub\n      swap1\n      return\n        /* \"digital_contract.sol\":6675:7193  function deactivateContract(uint256 _contractId) public onlyCreator(_contractId) {... */\n    tag_6:\n      callvalue\n      dup1\n      iszero\n      tag_43\n      jumpi\n      revert(0x00, 0x00)\n    tag_43:\n      pop\n      tag_44\n      0x04\n      dup1\n      calldatasize\n      sub\n      dup2\n      add\n      swap1\n      tag_45\n      swap2\n      swap1\n      tag_24\n      jump\t// in\n    tag_45:\n      tag_46\n      jump\t// in\n    tag_44:\n      stop\n        /* \"digital_contract.sol\":669:721  mapping(uint256 => ManagedContract) public contracts */\n    tag_7:\n      callvalue\n      dup1\n      iszero\n      tag_47\n      jumpi\n      revert(0x00, 0x00)\n    tag_47:\n      pop\n      tag_48\n      0x04\n      dup1\n      calldatasize\n      sub\n      dup2\n      add\n      swap1\n      tag_49\n      swap2\n      swap1\n      tag_24\n      jump\t// in\n    tag_49:\n      tag_50\n      jump\t// in\n    tag_48:\n      mload(0x40)\n      tag_51\n      swap11\n      swap10\n      swap9\n      swap8\n      swap7\n      swap6\n      swap5\n      swap4\n      swap3\n      swap2\n      swap1\n      tag_52\n      jump\t// in\n    tag_51:\n      mload(0x40)\n      dup1\n      swap2\n      sub\n      swap1\n      return\n        /* \"digital_contract.sol\":3373:3924  function setDeliveryTracking(uint256 _contractId, string memory _trackingNumber) public onlyCounterparty(_contractId) {... */\n    tag_8:\n      callvalue\n      dup1\n      iszero\n      tag_53\n      jumpi\n      revert(0x00, 0x00)\n    tag_53:\n      pop\n      tag_54\n      0x04\n      dup1\n      calldatasize\n      sub\n      dup2\n      add\n      swap1\n      tag_55\n      swap2\n      swap1\n      tag_56\n      jump\t// in\n    tag_55:\n      tag_57\n      jump\t// in\n    tag_54:\n      stop\n        /* \"digital_contract.sol\":1885:2187  function setOracle(address _oracle) public {... */\n    tag_9:\n      callvalue\n      dup1\n      iszero\n      tag_58\n      jumpi\n      revert(0x00, 0x00)\n    tag_58:\n      pop\n      tag_59\n      0x04\n      dup1\n      calldatasize\n      sub\n      dup2\n      add\n      swap1\n      tag_60\n      swap2\n      swap1\n      tag_61\n      jump\t// in\n    tag_60:\n      tag_62\n      jump\t// in\n    tag_59:\n      stop\n        /* \"digital_contract.sol\":611:632  address public oracle */\n    tag_10:\n      callvalue\n      dup1\n      iszero\n      tag_63\n      jumpi\n      revert(0x00, 0x00)\n    tag_63:\n      pop\n      tag_64\n      tag_65\n      jump\t// in\n    tag_64:\n      mload(0x40)\n      tag_66\n      swap2\n      swap1\n      tag_67\n      jump\t// in\n    tag_66:\n      mload(0x40)\n      dup1\n      swap2\n      sub\n      swap1\n      return\n        /* \"digital_contract.sol\":5402:5976  function confirmCompletion(uint256 _contractId) public nonReentrant onlyCreator(_contractId) {... */\n    tag_11:\n      callvalue\n      dup1\n      iszero\n      tag_68\n      jumpi\n      revert(0x00, 0x00)\n    tag_68:\n      pop\n      tag_69\n      0x04\n      dup1\n      calldatasize\n      sub\n      dup2\n      add\n      swap1\n      tag_70\n      swap2\n      swap1\n      tag_24\n      jump\t// in\n    tag_70:\n      tag_71\n      jump\t// in\n    tag_69:\n      stop\n        /* \"digital_contract.sol\":3035:3365  function signContract(uint256 _contractId) public onlyCounterparty(_contractId) {... */\n    tag_12:\n      callvalue\n      dup1\n      iszero\n      tag_72\n      jumpi\n      revert(0x00, 0x00)\n    tag_72:\n      pop\n      tag_73\n      0x04\n      dup1\n      calldatasize\n      sub\n      dup2\n      add\n      swap1\n      tag_74\n      swap2\n      swap1\n      tag_24\n      jump\t// in\n    tag_74:\n      tag_75\n      jump\t// in\n    tag_73:\n      stop\n        /* \"digital_contract.sol\":2195:3027  function createContract(... */\n    tag_13:\n      tag_76\n      0x04\n      dup1\n      calldatasize\n      sub\n      dup2\n      add\n      swap1\n      tag_77\n      swap2\n      swap1\n      tag_78\n      jump\t// in\n    tag_77:\n      tag_79\n      jump\t// in\n    tag_76:\n      stop\n        /* \"digital_contract.sol\":3932:4584  function confirmDeliveryByOracle(uint256 _contractId, string memory _trackingNumber) public nonReentrant onlyOracle {... */\n    tag_14:\n      callvalue\n      dup1\n      iszero\n      tag_80\n      jumpi\n      revert(0x00, 0x00)\n    tag_80:\n      pop\n      tag_81\n      0x04\n      dup1\n      calldatasize\n      sub\n      dup2\n      add\n      swap1\n      tag_82\n      swap2\n      swap1\n      tag_56\n      jump\t// in\n    tag_82:\n      tag_83\n      jump\t// in\n    tag_81:\n      stop\n        /* \"digital_contract.sol\":5984:6667  function withdrawFundsFrom(uint256 _contractId) public nonReentrant {... */\n    tag_15:\n      callvalue\n      dup1\n      iszero\n      tag_84\n      jumpi\n      revert(0x00, 0x00)\n    tag_84:\n      pop\n      tag_85\n      0x04\n      dup1\n      calldatasize\n      sub\n      dup2\n      add\n      swap1\n      tag_86\n      swap2\n      swap1\n      tag_24\n      jump\t// in\n    tag_86:\n      tag_87\n      jump\t// in\n    tag_85:\n      stop\n        /* \"digital_contract.sol\":639:660  bool public oracleSet */\n    tag_16:\n      callvalue\n      dup1\n      iszero\n      tag_88\n      jumpi\n      revert(0x00, 0x00)\n    tag_88:\n      pop\n      tag_89\n      tag_90\n      jump\t// in\n    tag_89:\n      mload(0x40)\n      tag_91\n      swap2\n      swap1\n      tag_92\n      jump\t// in\n    tag_91:\n      mload(0x40)\n      dup1\n      swap2\n      sub\n      swap1\n      return\n        /* \"digital_contract.sol\":767:820  mapping(address => uint256) public pendingWithdrawals */\n    tag_17:\n      callvalue\n      dup1\n      iszero\n      tag_93\n      jumpi\n      revert(0x00, 0x00)\n    tag_93:\n      pop\n      tag_94\n      0x04\n      dup1\n      calldatasize\n      sub\n      dup2\n      add\n      swap1\n      tag_95\n      swap2\n      swap1\n      tag_61\n      jump\t// in\n    tag_95:\n      tag_96\n      jump\t// in\n    tag_94:\n      mload(0x40)\n      tag_97\n      swap2\n      swap1\n      tag_30\n      jump\t// in\n    tag_97:\n      mload(0x40)\n      dup1\n      swap2\n      sub\n      swap1\n      return\n        /* \"digital_contract.sol\":4592:5394  function approveDeliveryAsCreator(uint256 _contractId) public onlyCreator(_contractId) {... */\n    tag_25:\n        /* \"digital_contract.sol\":4666:4677  _contractId */\n      dup1\n        /* \"digital_contract.sol\":1543:1552  contracts */\n      0x02\n        /* \"digital_contract.sol\":1543:1565  contracts[_contractId] */\n      0x00\n        /* \"digital_contract.sol\":1553:1564  _contractId */\n      dup3\n        /* \"digital_contract.sol\":1543:1565  contracts[_contractId] */\n      dup2\n      mstore\n      0x20\n      add\n      swap1\n      dup2\n      mstore\n      0x20\n      add\n      0x00\n      keccak256\n        /* \"digital_contract.sol\":1543:1573  contracts[_contractId].creator */\n      0x02\n      add\n      0x00\n      swap1\n      sload\n      swap1\n      0x0100\n      exp\n      swap1\n      div\n      0xffffffffffffffffffffffffffffffffffffffff\n      and\n        /* \"digital_contract.sol\":1529:1573  msg.sender == contracts[_contractId].creator */\n      0xffffffffffffffffffffffffffffffffffffffff\n      and\n        /* \"digital_contract.sol\":1529:1539  msg.sender */\n      caller\n        /* \"digital_contract.sol\":1529:1573  msg.sender == contracts[_contractId].creator */\n      0xffffffffffffffffffffffffffffffffffffffff\n      and\n      eq\n        /* \"digital_contract.sol\":1521:1589  require(msg.sender == contracts[_contractId].creator, \"Not creator\") */\n      tag_99\n      jumpi\n      mload(0x40)\n      0x08c379a000000000000000000000000000000000000000000000000000000000\n      dup2\n      mstore\n      0x04\n      add\n      tag_100\n      swap1\n      tag_101\n      jump\t// in\n    tag_100:\n      mload(0x40)\n      dup1\n      swap2\n      sub\n      swap1\n      revert\n    tag_99:\n        /* \"digital_contract.sol\":4690:4723  ManagedContract storage mContract */\n      0x00\n        /* \"digital_contract.sol\":4726:4735  contracts */\n      0x02\n        /* \"digital_contract.sol\":4726:4748  contracts[_contractId] */\n      0x00\n        /* \"digital_contract.sol\":4736:4747  _contractId */\n      dup5\n        /* \"digital_contract.sol\":4726:4748  contracts[_contractId] */\n      dup2\n      mstore\n      0x20\n      add\n      swap1\n      dup2\n      mstore\n      0x20\n      add\n      0x00\n      keccak256\n        /* \"digital_contract.sol\":4690:4748  ManagedContract storage mContract = contracts[_contractId] */\n      swap1\n      pop\n        /* \"digital_contract.sol\":4767:4776  mContract */\n      dup1\n        /* \"digital_contract.sol\":4767:4793  mContract.deliveryRequired */\n      0x06\n      add\n      0x00\n      swap1\n      sload\n      swap1\n      0x0100\n      exp\n      swap1\n      div\n      0xff\n      and\n        /* \"digital_contract.sol\":4759:4809  require(mContract.deliveryRequired, \"No delivery\") */\n      tag_103\n      jumpi\n      mload(0x40)\n      0x08c379a000000000000000000000000000000000000000000000000000000000\n      dup2\n      mstore\n      0x04\n      add\n      tag_104\n      swap1\n      tag_105\n      jump\t// in\n    tag_104:\n      mload(0x40)\n      dup1\n      swap2\n      sub\n      swap1\n      revert\n    tag_103:\n        /* \"digital_contract.sol\":4848:4869  ContractStatus.Signed */\n      0x01\n        /* \"digital_contract.sol\":4828:4869  mContract.status == ContractStatus.Signed */\n      0x03\n      dup2\n      gt\n      iszero\n      tag_106\n      jumpi\n      tag_107\n      tag_108\n      jump\t// in\n    tag_107:\n    tag_106:\n        /* \"digital_contract.sol\":4828:4837  mContract */\n      dup2\n        /* \"digital_contract.sol\":4828:4844  mContract.status */\n      0x03\n      add\n      0x14\n      swap1\n      sload\n      swap1\n      0x0100\n      exp\n      swap1\n      div\n      0xff\n      and\n        /* \"digital_contract.sol\":4828:4869  mContract.status == ContractStatus.Signed */\n      0x03\n      dup2\n      gt\n      iszero\n      tag_109\n      jumpi\n      tag_110\n      tag_108\n      jump\t// in\n    tag_110:\n    tag_109:\n      eq\n        /* \"digital_contract.sol\":4820:4884  require(mContract.status == ContractStatus.Signed, \"Not Signed\") */\n      tag_111\n      jumpi\n      mload(0x40)\n      0x08c379a000000000000000000000000000000000000000000000000000000000\n      dup2\n      mstore\n      0x04\n      add\n      tag_112\n      swap1\n      tag_113\n      jump\t// in\n    tag_112:\n      mload(0x40)\n      dup1\n      swap2\n      sub\n      swap1\n      revert\n    tag_111:\n        /* \"digital_contract.sol\":4903:4912  mContract */\n      dup1\n        /* \"digital_contract.sol\":4903:4930  mContract.deliveryConfirmed */\n      0x06\n      add\n      0x01\n      swap1\n      sload\n      swap1\n      0x0100\n      exp\n      swap1\n      div\n      0xff\n      and\n        /* \"digital_contract.sol\":4895:4951  require(mContract.deliveryConfirmed, \"Delivery missing\") */\n      tag_114\n      jumpi\n      mload(0x40)\n      0x08c379a000000000000000000000000000000000000000000000000000000000\n      dup2\n      mstore\n      0x04\n      add\n      tag_115\n      swap1\n      tag_116\n      jump\t// in\n    tag_115:\n      mload(0x40)\n      dup1\n      swap2\n      sub\n      swap1\n      revert\n    tag_114:\n        /* \"digital_contract.sol\":4971:4980  mContract */\n      dup1\n        /* \"digital_contract.sol\":4971:5006  mContract.deliveryApprovedByCreator */\n      0x06\n      add\n      0x02\n      swap1\n      sload\n      swap1\n      0x0100\n      exp\n      swap1\n      div\n      0xff\n      and\n        /* \"digital_contract.sol\":4970:5006  !mContract.deliveryApprovedByCreator */\n      iszero\n        /* \"digital_contract.sol\":4962:5027  require(!mContract.deliveryApprovedByCreator, \"Already approved\") */\n      tag_117\n      jumpi\n      mload(0x40)\n      0x08c379a000000000000000000000000000000000000000000000000000000000\n      dup2\n      mstore\n      0x04\n      add\n      tag_118\n      swap1\n      tag_119\n      jump\t// in\n    tag_118:\n      mload(0x40)\n      dup1\n      swap2\n      sub\n      swap1\n      revert\n    tag_117:\n        /* \"digital_contract.sol\":5078:5082  true */\n      0x01\n        /* \"digital_contract.sol\":5040:5049  mContract */\n      dup2\n        /* \"digital_contract.sol\":5040:5075  mContract.deliveryApprovedByCreator */\n      0x06\n      add\n      0x02\n        /* \"digital_contract.sol\":5040:5082  mContract.deliveryApprovedByCreator = true */\n      0x0100\n      exp\n      dup2\n      sload\n      dup2\n      0xff\n      mul\n      not\n      and\n      swap1\n      dup4\n      iszero\n      iszero\n      mul\n      or\n      swap1\n      sstore\n      pop\n        /* \"digital_contract.sol\":5112:5136  ContractStatus.Completed */\n      0x02\n        /* \"digital_contract.sol\":5093:5102  mContract */\n      dup2\n        /* \"digital_contract.sol\":5093:5109  mContract.status */\n      0x03\n      add\n      0x14\n        /* \"digital_contract.sol\":5093:5136  mContract.status = ContractStatus.Completed */\n      0x0100\n      exp\n      dup2\n      sload\n      dup2\n      0xff\n      mul\n      not\n      and\n      swap1\n      dup4\n      0x03\n      dup2\n      gt\n      iszero\n      tag_120\n      jumpi\n      tag_121\n      tag_108\n      jump\t// in\n    tag_121:\n    tag_120:\n      mul\n      or\n      swap1\n      sstore\n      pop\n        /* \"digital_contract.sol\":5237:5246  mContract */\n      dup1\n        /* \"digital_contract.sol\":5237:5253  mContract.amount */\n      0x01\n      add\n      sload\n        /* \"digital_contract.sol\":5192:5210  pendingWithdrawals */\n      0x04\n        /* \"digital_contract.sol\":5192:5234  pendingWithdrawals[mContract.counterparty] */\n      0x00\n        /* \"digital_contract.sol\":5211:5220  mContract */\n      dup4\n        /* \"digital_contract.sol\":5211:5233  mContract.counterparty */\n      0x03\n      add\n      0x00\n      swap1\n      sload\n      swap1\n      0x0100\n      exp\n      swap1\n      div\n      0xffffffffffffffffffffffffffffffffffffffff\n      and\n        /* \"digital_contract.sol\":5192:5234  pendingWithdrawals[mContract.counterparty] */\n      0xffffffffffffffffffffffffffffffffffffffff\n      and\n      0xffffffffffffffffffffffffffffffffffffffff\n      and\n      dup2\n      mstore\n      0x20\n      add\n      swap1\n      dup2\n      mstore\n      0x20\n      add\n      0x00\n      keccak256\n      sload\n        /* \"digital_contract.sol\":5192:5253  pendingWithdrawals[mContract.counterparty] + mContract.amount */\n      tag_122\n      swap2\n      swap1\n      tag_123\n      jump\t// in\n    tag_122:\n        /* \"digital_contract.sol\":5147:5165  pendingWithdrawals */\n      0x04\n        /* \"digital_contract.sol\":5147:5189  pendingWithdrawals[mContract.counterparty] */\n      0x00\n        /* \"digital_contract.sol\":5166:5175  mContract */\n      dup4\n        /* \"digital_contract.sol\":5166:5188  mContract.counterparty */\n      0x03\n      add\n      0x00\n      swap1\n      sload\n      swap1\n      0x0100\n      exp\n      swap1\n      div\n      0xffffffffffffffffffffffffffffffffffffffff\n      and\n        /* \"digital_contract.sol\":5147:5189  pendingWithdrawals[mContract.counterparty] */\n      0xffffffffffffffffffffffffffffffffffffffff\n      and\n      0xffffffffffffffffffffffffffffffffffffffff\n      and\n      dup2\n      mstore\n      0x20\n      add\n      swap1\n      dup2\n      mstore\n      0x20\n      add\n      0x00\n      keccak256\n        /* \"digital_contract.sol\":5147:5253  pendingWithdrawals[mContract.counterparty] = pendingWithdrawals[mContract.counterparty] + mContract.amount */\n      dup2\n      swap1\n      sstore\n      pop\n        /* \"digital_contract.sol\":5288:5299  _contractId */\n      dup3\n        /* \"digital_contract.sol\":5271:5300  DeliveryApproved(_contractId) */\n      0x5c1e662f72ee6c85181b65fac5beb0390932b8c472f05b257151d041ac9ddffa\n      mload(0x40)\n      mload(0x40)\n      dup1\n      swap2\n      sub\n      swap1\n      log2\n        /* \"digital_contract.sol\":5345:5354  mContract */\n      dup1\n        /* \"digital_contract.sol\":5345:5367  mContract.counterparty */\n      0x03\n      add\n      0x00\n      swap1\n      sload\n      swap1\n      0x0100\n      exp\n      swap1\n      div\n      0xffffffffffffffffffffffffffffffffffffffff\n      and\n        /* \"digital_contract.sol\":5316:5386  PaymentReleased(_contractId, mContract.counterparty, mContract.amount) */\n      0xffffffffffffffffffffffffffffffffffffffff\n      and\n        /* \"digital_contract.sol\":5332:5343  _contractId */\n      dup4\n        /* \"digital_contract.sol\":5316:5386  PaymentReleased(_contractId, mContract.counterparty, mContract.amount) */\n      0x21d71db5be59bb9fa133895586b7404307dd33fb93b16db09dc6f1d9d7d231b0\n        /* \"digital_contract.sol\":5369:5378  mContract */\n      dup4\n        /* \"digital_contract.sol\":5369:5385  mContract.amount */\n      0x01\n      add\n      sload\n        /* \"digital_contract.sol\":5316:5386  PaymentReleased(_contractId, mContract.counterparty, mContract.amount) */\n      mload(0x40)\n      tag_124\n      swap2\n      swap1\n      tag_30\n      jump\t// in\n    tag_124:\n      mload(0x40)\n      dup1\n      swap2\n      sub\n      swap1\n      log3\n        /* \"digital_contract.sol\":4679:5394  {... */\n      pop\n        /* \"digital_contract.sol\":4592:5394  function approveDeliveryAsCreator(uint256 _contractId) public onlyCreator(_contractId) {... */\n      pop\n      pop\n      jump\t// out\n        /* \"digital_contract.sol\":728:758  uint256 public contractCounter */\n    tag_28:\n      sload(0x03)\n      dup2\n      jump\t// out\n        /* \"digital_contract.sol\":7349:7492  function getContractHash(uint256 _contractId) public view returns (string memory) {... */\n    tag_34:\n        /* \"digital_contract.sol\":7416:7429  string memory */\n      0x60\n        /* \"digital_contract.sol\":7449:7458  contracts */\n      0x02\n        /* \"digital_contract.sol\":7449:7471  contracts[_contractId] */\n      0x00\n        /* \"digital_contract.sol\":7459:7470  _contractId */\n      dup4\n        /* \"digital_contract.sol\":7449:7471  contracts[_contractId] */\n      dup2\n      mstore\n      0x20\n      add\n      swap1\n      dup2\n      mstore\n      0x20\n      add\n      0x00\n      keccak256\n        /* \"digital_contract.sol\":7449:7484  contracts[_contractId].contractHash */\n      0x04\n      add\n        /* \"digital_contract.sol\":7442:7484  return contracts[_contractId].contractHash */\n      dup1\n      sload\n      tag_126\n      swap1\n      tag_127\n      jump\t// in\n    tag_126:\n      dup1\n      0x1f\n      add\n      0x20\n      dup1\n      swap2\n      div\n      mul\n      0x20\n      add\n      mload(0x40)\n      swap1\n      dup2\n      add\n      0x40\n      mstore\n      dup1\n      swap3\n      swap2\n      swap1\n      dup2\n      dup2\n      mstore\n      0x20\n      add\n      dup3\n      dup1\n      sload\n      tag_128\n      swap1\n      tag_127\n      jump\t// in\n    tag_128:\n      dup1\n      iszero\n      tag_129\n      jumpi\n      dup1\n      0x1f\n      lt\n      tag_130\n      jumpi\n      0x0100\n      dup1\n      dup4\n      sload\n      div\n      mul\n      dup4\n      mstore\n      swap2\n      0x20\n      add\n      swap2\n      jump(tag_129)\n    tag_130:\n      dup3\n      add\n      swap2\n      swap1\n      0x00\n      mstore\n      keccak256(0x00, 0x20)\n      swap1\n    tag_131:\n      dup2\n      sload\n      dup2\n      mstore\n      swap1\n      0x01\n      add\n      swap1\n      0x20\n      add\n      dup1\n      dup4\n      gt\n      tag_131\n      jumpi\n      dup3\n      swap1\n      sub\n      0x1f\n      and\n      dup3\n      add\n      swap2\n    tag_129:\n      pop\n      pop\n      pop\n      pop\n      pop\n      swap1\n      pop\n        /* \"digital_contract.sol\":7349:7492  function getContractHash(uint256 _contractId) public view returns (string memory) {... */\n      swap2\n      swap1\n      pop\n      jump\t// out\n        /* \"digital_contract.sol\":7201:7341  function getContractStatus(uint256 _contractId) public view returns (ContractStatus) {... */\n    tag_40:\n        /* \"digital_contract.sol\":7270:7284  ContractStatus */\n      0x00\n        /* \"digital_contract.sol\":7304:7313  contracts */\n      0x02\n        /* \"digital_contract.sol\":7304:7326  contracts[_contractId] */\n      0x00\n        /* \"digital_contract.sol\":7314:7325  _contractId */\n      dup4\n        /* \"digital_contract.sol\":7304:7326  contracts[_contractId] */\n      dup2\n      mstore\n      0x20\n      add\n      swap1\n      dup2\n      mstore\n      0x20\n      add\n      0x00\n      keccak256\n        /* \"digital_contract.sol\":7304:7333  contracts[_contractId].status */\n      0x03\n      add\n      0x14\n      swap1\n      sload\n      swap1\n      0x0100\n      exp\n      swap1\n      div\n      0xff\n      and\n        /* \"digital_contract.sol\":7297:7333  return contracts[_contractId].status */\n      swap1\n      pop\n        /* \"digital_contract.sol\":7201:7341  function getContractStatus(uint256 _contractId) public view returns (ContractStatus) {... */\n      swap2\n      swap1\n      pop\n      jump\t// out\n        /* \"digital_contract.sol\":6675:7193  function deactivateContract(uint256 _contractId) public onlyCreator(_contractId) {... */\n    tag_46:\n        /* \"digital_contract.sol\":6743:6754  _contractId */\n      dup1\n        /* \"digital_contract.sol\":1543:1552  contracts */\n      0x02\n        /* \"digital_contract.sol\":1543:1565  contracts[_contractId] */\n      0x00\n        /* \"digital_contract.sol\":1553:1564  _contractId */\n      dup3\n        /* \"digital_contract.sol\":1543:1565  contracts[_contractId] */\n      dup2\n      mstore\n      0x20\n      add\n      swap1\n      dup2\n      mstore\n      0x20\n      add\n      0x00\n      keccak256\n        /* \"digital_contract.sol\":1543:1573  contracts[_contractId].creator */\n      0x02\n      add\n      0x00\n      swap1\n      sload\n      swap1\n      0x0100\n      exp\n      swap1\n      div\n      0xffffffffffffffffffffffffffffffffffffffff\n      and\n        /* \"digital_contract.sol\":1529:1573  msg.sender == contracts[_contractId].creator */\n      0xffffffffffffffffffffffffffffffffffffffff\n      and\n        /* \"digital_contract.sol\":1529:1539  msg.sender */\n      caller\n        /* \"digital_contract.sol\":1529:1573  msg.sender == contracts[_contractId].creator */\n      0xffffffffffffffffffffffffffffffffffffffff\n      and\n      eq\n        /* \"digital_contract.sol\":1521:1589  require(msg.sender == contracts[_contractId].creator, \"Not creator\") */\n      tag_134\n      jumpi\n      mload(0x40)\n      0x08c379a000000000000000000000000000000000000000000000000000000000\n      dup2\n      mstore\n      0x04\n      add\n      tag_135\n      swap1\n      tag_101\n      jump\t// in\n    tag_135:\n      mload(0x40)\n      dup1\n      swap2\n      sub\n      swap1\n      revert\n    tag_134:\n        /* \"digital_contract.sol\":6767:6800  ManagedContract storage mContract */\n      0x00\n        /* \"digital_contract.sol\":6803:6812  contracts */\n      0x02\n        /* \"digital_contract.sol\":6803:6825  contracts[_contractId] */\n      0x00\n        /* \"digital_contract.sol\":6813:6824  _contractId */\n      dup5\n        /* \"digital_contract.sol\":6803:6825  contracts[_contractId] */\n      dup2\n      mstore\n      0x20\n      add\n      swap1\n      dup2\n      mstore\n      0x20\n      add\n      0x00\n      keccak256\n        /* \"digital_contract.sol\":6767:6825  ManagedContract storage mContract = contracts[_contractId] */\n      swap1\n      pop\n        /* \"digital_contract.sol\":6864:6888  ContractStatus.Completed */\n      0x02\n        /* \"digital_contract.sol\":6844:6888  mContract.status != ContractStatus.Completed */\n      0x03\n      dup2\n      gt\n      iszero\n      tag_137\n      jumpi\n      tag_138\n      tag_108\n      jump\t// in\n    tag_138:\n    tag_137:\n        /* \"digital_contract.sol\":6844:6853  mContract */\n      dup2\n        /* \"digital_contract.sol\":6844:6860  mContract.status */\n      0x03\n      add\n      0x14\n      swap1\n      sload\n      swap1\n      0x0100\n      exp\n      swap1\n      div\n      0xff\n      and\n        /* \"digital_contract.sol\":6844:6888  mContract.status != ContractStatus.Completed */\n      0x03\n      dup2\n      gt\n      iszero\n      tag_139\n      jumpi\n      tag_140\n      tag_108\n      jump\t// in\n    tag_140:\n    tag_139:\n      sub\n        /* \"digital_contract.sol\":6836:6910  require(mContract.status != ContractStatus.Completed, \"Already completed\") */\n      tag_141\n      jumpi\n      mload(0x40)\n      0x08c379a000000000000000000000000000000000000000000000000000000000\n      dup2\n      mstore\n      0x04\n      add\n      tag_142\n      swap1\n      tag_143\n      jump\t// in\n    tag_142:\n      mload(0x40)\n      dup1\n      swap2\n      sub\n      swap1\n      revert\n    tag_141:\n        /* \"digital_contract.sol\":6949:6973  ContractStatus.Cancelled */\n      0x03\n        /* \"digital_contract.sol\":6929:6973  mContract.status != ContractStatus.Cancelled */\n      dup1\n      dup2\n      gt\n      iszero\n      tag_144\n      jumpi\n      tag_145\n      tag_108\n      jump\t// in\n    tag_145:\n    tag_144:\n        /* \"digital_contract.sol\":6929:6938  mContract */\n      dup2\n        /* \"digital_contract.sol\":6929:6945  mContract.status */\n      0x03\n      add\n      0x14\n      swap1\n      sload\n      swap1\n      0x0100\n      exp\n      swap1\n      div\n      0xff\n      and\n        /* \"digital_contract.sol\":6929:6973  mContract.status != ContractStatus.Cancelled */\n      0x03\n      dup2\n      gt\n      iszero\n      tag_146\n      jumpi\n      tag_147\n      tag_108\n      jump\t// in\n    tag_147:\n    tag_146:\n      sub\n        /* \"digital_contract.sol\":6921:6995  require(mContract.status != ContractStatus.Cancelled, \"Already cancelled\") */\n      tag_148\n      jumpi\n      mload(0x40)\n      0x08c379a000000000000000000000000000000000000000000000000000000000\n      dup2\n      mstore\n      0x04\n      add\n      tag_149\n      swap1\n      tag_150\n      jump\t// in\n    tag_149:\n      mload(0x40)\n      dup1\n      swap2\n      sub\n      swap1\n      revert\n    tag_148:\n        /* \"digital_contract.sol\":7008:7035  mContract.contractHash = \"\" */\n      mload(0x40)\n      dup1\n      0x20\n      add\n      0x40\n      mstore\n      dup1\n      0x00\n      dup2\n      mstore\n      pop\n        /* \"digital_contract.sol\":7008:7017  mContract */\n      dup2\n        /* \"digital_contract.sol\":7008:7030  mContract.contractHash */\n      0x04\n      add\n        /* \"digital_contract.sol\":7008:7035  mContract.contractHash = \"\" */\n      swap1\n      dup2\n      tag_151\n      swap2\n      swap1\n      tag_152\n      jump\t// in\n    tag_151:\n      pop\n        /* \"digital_contract.sol\":7046:7081  mContract.deliveryTrackingHash = \"\" */\n      0x00\n        /* \"digital_contract.sol\":7046:7055  mContract */\n      dup2\n        /* \"digital_contract.sol\":7046:7076  mContract.deliveryTrackingHash */\n      0x05\n      add\n        /* \"digital_contract.sol\":7046:7081  mContract.deliveryTrackingHash = \"\" */\n      dup2\n      swap1\n      sstore\n      pop\n        /* \"digital_contract.sol\":7111:7135  ContractStatus.Cancelled */\n      0x03\n        /* \"digital_contract.sol\":7092:7101  mContract */\n      dup2\n        /* \"digital_contract.sol\":7092:7108  mContract.status */\n      0x03\n      add\n      0x14\n        /* \"digital_contract.sol\":7092:7135  mContract.status = ContractStatus.Cancelled */\n      0x0100\n      exp\n      dup2\n      sload\n      dup2\n      0xff\n      mul\n      not\n      and\n      swap1\n      dup4\n      0x03\n      dup2\n      gt\n      iszero\n      tag_153\n      jumpi\n      tag_154\n      tag_108\n      jump\t// in\n    tag_154:\n    tag_153:\n      mul\n      or\n      swap1\n      sstore\n      pop\n        /* \"digital_contract.sol\":7173:7184  _contractId */\n      dup3\n        /* \"digital_contract.sol\":7153:7185  ContractDeactivated(_contractId) */\n      0x741b099f015e1976cfa72a7448a8fb1d54eab1d616241b562cfbe603a2b61b42\n      mload(0x40)\n      mload(0x40)\n      dup1\n      swap2\n      sub\n      swap1\n      log2\n        /* \"digital_contract.sol\":6756:7193  {... */\n      pop\n        /* \"digital_contract.sol\":6675:7193  function deactivateContract(uint256 _contractId) public onlyCreator(_contractId) {... */\n      pop\n      pop\n      jump\t// out\n        /* \"digital_contract.sol\":669:721  mapping(uint256 => ManagedContract) public contracts */\n    tag_50:\n      mstore(0x20, 0x02)\n      dup1\n      0x00\n      mstore\n      keccak256(0x00, 0x40)\n      0x00\n      swap2\n      pop\n      swap1\n      pop\n      dup1\n      0x00\n      add\n      sload\n      swap1\n      dup1\n      0x01\n      add\n      sload\n      swap1\n      dup1\n      0x02\n      add\n      0x00\n      swap1\n      sload\n      swap1\n      0x0100\n      exp\n      swap1\n      div\n      0xffffffffffffffffffffffffffffffffffffffff\n      and\n      swap1\n      dup1\n      0x03\n      add\n      0x00\n      swap1\n      sload\n      swap1\n      0x0100\n      exp\n      swap1\n      div\n      0xffffffffffffffffffffffffffffffffffffffff\n      and\n      swap1\n      dup1\n      0x03\n      add\n      0x14\n      swap1\n      sload\n      swap1\n      0x0100\n      exp\n      swap1\n      div\n      0xff\n      and\n      swap1\n      dup1\n      0x04\n      add\n      dup1\n      sload\n      tag_155\n      swap1\n      tag_127\n      jump\t// in\n    tag_155:\n      dup1\n      0x1f\n      add\n      0x20\n      dup1\n      swap2\n      div\n      mul\n      0x20\n      add\n      mload(0x40)\n      swap1\n      dup2\n      add\n      0x40\n      mstore\n      dup1\n      swap3\n      swap2\n      swap1\n      dup2\n      dup2\n      mstore\n      0x20\n      add\n      dup3\n      dup1\n      sload\n      tag_156\n      swap1\n      tag_127\n      jump\t// in\n    tag_156:\n      dup1\n      iszero\n      tag_157\n      jumpi\n      dup1\n      0x1f\n      lt\n      tag_158\n      jumpi\n      0x0100\n      dup1\n      dup4\n      sload\n      div\n      mul\n      dup4\n      mstore\n      swap2\n      0x20\n      add\n      swap2\n      jump(tag_157)\n    tag_158:\n      dup3\n      add\n      swap2\n      swap1\n      0x00\n      mstore\n      keccak256(0x00, 0x20)\n      swap1\n    tag_159:\n      dup2\n      sload\n      dup2\n      mstore\n      swap1\n      0x01\n      add\n      swap1\n      0x20\n      add\n      dup1\n      dup4\n      gt\n      tag_159\n      jumpi\n      dup3\n      swap1\n      sub\n      0x1f\n      and\n      dup3\n      add\n      swap2\n    tag_157:\n      pop\n      pop\n      pop\n      pop\n      pop\n      swap1\n      dup1\n      0x05\n      add\n      sload\n      swap1\n      dup1\n      0x06\n      add\n      0x00\n      swap1\n      sload\n      swap1\n      0x0100\n      exp\n      swap1\n      div\n      0xff\n      and\n      swap1\n      dup1\n      0x06\n      add\n      0x01\n      swap1\n      sload\n      swap1\n      0x0100\n      exp\n      swap1\n      div\n      0xff\n      and\n      swap1\n      dup1\n      0x06\n      add\n      0x02\n      swap1\n      sload\n      swap1\n      0x0100\n      exp\n      swap1\n      div\n      0xff\n      and\n      swap1\n      pop\n      dup11\n      jump\t// out\n        /* \"digital_contract.sol\":3373:3924  function setDeliveryTracking(uint256 _contractId, string memory _trackingNumber) public onlyCounterparty(_contractId) {... */\n    tag_57:\n        /* \"digital_contract.sol\":3478:3489  _contractId */\n      dup2\n        /* \"digital_contract.sol\":1697:1706  contracts */\n      0x02\n        /* \"digital_contract.sol\":1697:1719  contracts[_contractId] */\n      0x00\n        /* \"digital_contract.sol\":1707:1718  _contractId */\n      dup3\n        /* \"digital_contract.sol\":1697:1719  contracts[_contractId] */\n      dup2\n      mstore\n      0x20\n      add\n      swap1\n      dup2\n      mstore\n      0x20\n      add\n      0x00\n      keccak256\n        /* \"digital_contract.sol\":1697:1732  contracts[_contractId].counterparty */\n      0x03\n      add\n      0x00\n      swap1\n      sload\n      swap1\n      0x0100\n      exp\n      swap1\n      div\n      0xffffffffffffffffffffffffffffffffffffffff\n      and\n        /* \"digital_contract.sol\":1683:1732  msg.sender == contracts[_contractId].counterparty */\n      0xffffffffffffffffffffffffffffffffffffffff\n      and\n        /* \"digital_contract.sol\":1683:1693  msg.sender */\n      caller\n        /* \"digital_contract.sol\":1683:1732  msg.sender == contracts[_contractId].counterparty */\n      0xffffffffffffffffffffffffffffffffffffffff\n      and\n      eq\n        /* \"digital_contract.sol\":1675:1753  require(msg.sender == contracts[_contractId].counterparty, \"Not counterparty\") */\n      tag_161\n      jumpi\n      mload(0x40)\n      0x08c379a000000000000000000000000000000000000000000000000000000000\n      dup2\n      mstore\n      0x04\n      add\n      tag_162\n      swap1\n      tag_163\n      jump\t// in\n    tag_162:\n      mload(0x40)\n      dup1\n      swap2\n      sub\n      swap1\n      revert\n    tag_161:\n        /* \"digital_contract.sol\":3502:3535  ManagedContract storage mContract */\n      0x00\n        /* \"digital_contract.sol\":3538:3547  contracts */\n      0x02\n        /* \"digital_contract.sol\":3538:3560  contracts[_contractId] */\n      0x00\n        /* \"digital_contract.sol\":3548:3559  _contractId */\n      dup6\n        /* \"digital_contract.sol\":3538:3560  contracts[_contractId] */\n      dup2\n      mstore\n      0x20\n      add\n      swap1\n      dup2\n      mstore\n      0x20\n      add\n      0x00\n      keccak256\n        /* \"digital_contract.sol\":3502:3560  ManagedContract storage mContract = contracts[_contractId] */\n      swap1\n      pop\n        /* \"digital_contract.sol\":3599:3620  ContractStatus.Signed */\n      0x01\n        /* \"digital_contract.sol\":3579:3620  mContract.status == ContractStatus.Signed */\n      0x03\n      dup2\n      gt\n      iszero\n      tag_165\n      jumpi\n      tag_166\n      tag_108\n      jump\t// in\n    tag_166:\n    tag_165:\n        /* \"digital_contract.sol\":3579:3588  mContract */\n      dup2\n        /* \"digital_contract.sol\":3579:3595  mContract.status */\n      0x03\n      add\n      0x14\n      swap1\n      sload\n      swap1\n      0x0100\n      exp\n      swap1\n      div\n      0xff\n      and\n        /* \"digital_contract.sol\":3579:3620  mContract.status == ContractStatus.Signed */\n      0x03\n      dup2\n      gt\n      iszero\n      tag_167\n      jumpi\n      tag_168\n      tag_108\n      jump\t// in\n    tag_168:\n    tag_167:\n      eq\n        /* \"digital_contract.sol\":3571:3635  require(mContract.status == ContractStatus.Signed, \"Not Signed\") */\n      tag_169\n      jumpi\n      mload(0x40)\n      0x08c379a000000000000000000000000000000000000000000000000000000000\n      dup2\n      mstore\n      0x04\n      add\n      tag_170\n      swap1\n      tag_113\n      jump\t// in\n    tag_170:\n      mload(0x40)\n      dup1\n      swap2\n      sub\n      swap1\n      revert\n    tag_169:\n        /* \"digital_contract.sol\":3655:3664  mContract */\n      dup1\n        /* \"digital_contract.sol\":3655:3681  mContract.deliveryRequired */\n      0x06\n      add\n      0x00\n      swap1\n      sload\n      swap1\n      0x0100\n      exp\n      swap1\n      div\n      0xff\n      and\n        /* \"digital_contract.sol\":3654:3681  !mContract.deliveryRequired */\n      iszero\n        /* \"digital_contract.sol\":3646:3697  require(!mContract.deliveryRequired, \"Already set\") */\n      tag_171\n      jumpi\n      mload(0x40)\n      0x08c379a000000000000000000000000000000000000000000000000000000000\n      dup2\n      mstore\n      0x04\n      add\n      tag_172\n      swap1\n      tag_173\n      jump\t// in\n    tag_172:\n      mload(0x40)\n      dup1\n      swap2\n      sub\n      swap1\n      revert\n    tag_171:\n        /* \"digital_contract.sol\":3764:3775  _contractId */\n      dup4\n        /* \"digital_contract.sol\":3777:3792  _trackingNumber */\n      dup4\n        /* \"digital_contract.sol\":3753:3793  abi.encode(_contractId, _trackingNumber) */\n      add(0x20, mload(0x40))\n      tag_174\n      swap3\n      swap2\n      swap1\n      tag_175\n      jump\t// in\n    tag_174:\n      mload(0x40)\n      0x20\n      dup2\n      dup4\n      sub\n      sub\n      dup2\n      mstore\n      swap1\n      0x40\n      mstore\n        /* \"digital_contract.sol\":3743:3794  keccak256(abi.encode(_contractId, _trackingNumber)) */\n      dup1\n      mload\n      swap1\n      0x20\n      add\n      keccak256\n        /* \"digital_contract.sol\":3710:3719  mContract */\n      dup2\n        /* \"digital_contract.sol\":3710:3740  mContract.deliveryTrackingHash */\n      0x05\n      add\n        /* \"digital_contract.sol\":3710:3794  mContract.deliveryTrackingHash = keccak256(abi.encode(_contractId, _trackingNumber)) */\n      dup2\n      swap1\n      sstore\n      pop\n        /* \"digital_contract.sol\":3834:3838  true */\n      0x01\n        /* \"digital_contract.sol\":3805:3814  mContract */\n      dup2\n        /* \"digital_contract.sol\":3805:3831  mContract.deliveryRequired */\n      0x06\n      add\n      0x00\n        /* \"digital_contract.sol\":3805:3838  mContract.deliveryRequired = true */\n      0x0100\n      exp\n      dup2\n      sload\n      dup2\n      0xff\n      mul\n      not\n      and\n      swap1\n      dup4\n      iszero\n      iszero\n      mul\n      or\n      swap1\n      sstore\n      pop\n        /* \"digital_contract.sol\":3872:3883  _contractId */\n      dup4\n        /* \"digital_contract.sol\":3856:3916  TrackingHashSet(_contractId, mContract.deliveryTrackingHash) */\n      0x4b70739c5f0bd46e19773020c599342cdbdc3ac59b5e0abfdd9c1bb441be59c8\n        /* \"digital_contract.sol\":3885:3894  mContract */\n      dup3\n        /* \"digital_contract.sol\":3885:3915  mContract.deliveryTrackingHash */\n      0x05\n      add\n      sload\n        /* \"digital_contract.sol\":3856:3916  TrackingHashSet(_contractId, mContract.deliveryTrackingHash) */\n      mload(0x40)\n      tag_176\n      swap2\n      swap1\n      tag_177\n      jump\t// in\n    tag_176:\n      mload(0x40)\n      dup1\n      swap2\n      sub\n      swap1\n      log2\n        /* \"digital_contract.sol\":3491:3924  {... */\n      pop\n        /* \"digital_contract.sol\":3373:3924  function setDeliveryTracking(uint256 _contractId, string memory _trackingNumber) public onlyCounterparty(_contractId) {... */\n      pop\n      pop\n      pop\n      jump\t// out\n        /* \"digital_contract.sol\":1885:2187  function setOracle(address _oracle) public {... */\n    tag_62:\n        /* \"digital_contract.sol\":1948:1957  oracleSet */\n      0x01\n      0x14\n      swap1\n      sload\n      swap1\n      0x0100\n      exp\n      swap1\n      div\n      0xff\n      and\n        /* \"digital_contract.sol\":1947:1957  !oracleSet */\n      iszero\n        /* \"digital_contract.sol\":1939:1980  require(!oracleSet, \"Oracle already set\") */\n      tag_179\n      jumpi\n      mload(0x40)\n      0x08c379a000000000000000000000000000000000000000000000000000000000\n      dup2\n      mstore\n      0x04\n      add\n      tag_180\n      swap1\n      tag_181\n      jump\t// in\n    tag_180:\n      mload(0x40)\n      dup1\n      swap2\n      sub\n      swap1\n      revert\n    tag_179:\n        /* \"digital_contract.sol\":2018:2019  0 */\n      0x00\n        /* \"digital_contract.sol\":1999:2020  _oracle != address(0) */\n      0xffffffffffffffffffffffffffffffffffffffff\n      and\n        /* \"digital_contract.sol\":1999:2006  _oracle */\n      dup2\n        /* \"digital_contract.sol\":1999:2020  _oracle != address(0) */\n      0xffffffffffffffffffffffffffffffffffffffff\n      and\n      sub\n        /* \"digital_contract.sol\":1991:2039  require(_oracle != address(0), \"Invalid oracle\") */\n      tag_182\n      jumpi\n      mload(0x40)\n      0x08c379a000000000000000000000000000000000000000000000000000000000\n      dup2\n      mstore\n      0x04\n      add\n      tag_183\n      swap1\n      tag_184\n      jump\t// in\n    tag_183:\n      mload(0x40)\n      dup1\n      swap2\n      sub\n      swap1\n      revert\n    tag_182:\n        /* \"digital_contract.sol\":2057:2066  oracleSet */\n      0x01\n      0x14\n      swap1\n      sload\n      swap1\n      0x0100\n      exp\n      swap1\n      div\n      0xff\n      and\n        /* \"digital_contract.sol\":2052:2180  if (!oracleSet) {... */\n      tag_185\n      jumpi\n        /* \"digital_contract.sol\":2092:2099  _oracle */\n      dup1\n        /* \"digital_contract.sol\":2083:2089  oracle */\n      0x01\n      0x00\n        /* \"digital_contract.sol\":2083:2099  oracle = _oracle */\n      0x0100\n      exp\n      dup2\n      sload\n      dup2\n      0xffffffffffffffffffffffffffffffffffffffff\n      mul\n      not\n      and\n      swap1\n      dup4\n      0xffffffffffffffffffffffffffffffffffffffff\n      and\n      mul\n      or\n      swap1\n      sstore\n      pop\n        /* \"digital_contract.sol\":2126:2130  true */\n      0x01\n        /* \"digital_contract.sol\":2114:2123  oracleSet */\n      dup1\n      0x14\n        /* \"digital_contract.sol\":2114:2130  oracleSet = true */\n      0x0100\n      exp\n      dup2\n      sload\n      dup2\n      0xff\n      mul\n      not\n      and\n      swap1\n      dup4\n      iszero\n      iszero\n      mul\n      or\n      swap1\n      sstore\n      pop\n        /* \"digital_contract.sol\":2160:2167  _oracle */\n      dup1\n        /* \"digital_contract.sol\":2150:2168  OracleSet(_oracle) */\n      0xffffffffffffffffffffffffffffffffffffffff\n      and\n      0x3f32684a32a11dabdbb8c0177de80aa3ae36a004d75210335b49e544e48cd0aa\n      mload(0x40)\n      mload(0x40)\n      dup1\n      swap2\n      sub\n      swap1\n      log2\n        /* \"digital_contract.sol\":2052:2180  if (!oracleSet) {... */\n    tag_185:\n        /* \"digital_contract.sol\":1885:2187  function setOracle(address _oracle) public {... */\n      pop\n      jump\t// out\n        /* \"digital_contract.sol\":611:632  address public oracle */\n    tag_65:\n      0x01\n      0x00\n      swap1\n      sload\n      swap1\n      0x0100\n      exp\n      swap1\n      div\n      0xffffffffffffffffffffffffffffffffffffffff\n      and\n      dup2\n      jump\t// out\n        /* \"digital_contract.sol\":5402:5976  function confirmCompletion(uint256 _contractId) public nonReentrant onlyCreator(_contractId) {... */\n    tag_71:\n        /* \"@openzeppelin/contracts/security/ReentrancyGuard.sol\":2261:2282  _nonReentrantBefore() */\n      tag_187\n        /* \"@openzeppelin/contracts/security/ReentrancyGuard.sol\":2261:2280  _nonReentrantBefore */\n      tag_188\n        /* \"@openzeppelin/contracts/security/ReentrancyGuard.sol\":2261:2282  _nonReentrantBefore() */\n      jump\t// in\n    tag_187:\n        /* \"digital_contract.sol\":5482:5493  _contractId */\n      dup1\n        /* \"digital_contract.sol\":1543:1552  contracts */\n      0x02\n        /* \"digital_contract.sol\":1543:1565  contracts[_contractId] */\n      0x00\n        /* \"digital_contract.sol\":1553:1564  _contractId */\n      dup3\n        /* \"digital_contract.sol\":1543:1565  contracts[_contractId] */\n      dup2\n      mstore\n      0x20\n      add\n      swap1\n      dup2\n      mstore\n      0x20\n      add\n      0x00\n      keccak256\n        /* \"digital_contract.sol\":1543:1573  contracts[_contractId].creator */\n      0x02\n      add\n      0x00\n      swap1\n      sload\n      swap1\n      0x0100\n      exp\n      swap1\n      div\n      0xffffffffffffffffffffffffffffffffffffffff\n      and\n        /* \"digital_contract.sol\":1529:1573  msg.sender == contracts[_contractId].creator */\n      0xffffffffffffffffffffffffffffffffffffffff\n      and\n        /* \"digital_contract.sol\":1529:1539  msg.sender */\n      caller\n        /* \"digital_contract.sol\":1529:1573  msg.sender == contracts[_contractId].creator */\n      0xffffffffffffffffffffffffffffffffffffffff\n      and\n      eq\n        /* \"digital_contract.sol\":1521:1589  require(msg.sender == contracts[_contractId].creator, \"Not creator\") */\n      tag_190\n      jumpi\n      mload(0x40)\n      0x08c379a000000000000000000000000000000000000000000000000000000000\n      dup2\n      mstore\n      0x04\n      add\n      tag_191\n      swap1\n      tag_101\n      jump\t// in\n    tag_191:\n      mload(0x40)\n      dup1\n      swap2\n      sub\n      swap1\n      revert\n    tag_190:\n        /* \"digital_contract.sol\":5506:5539  ManagedContract storage mContract */\n      0x00\n        /* \"digital_contract.sol\":5542:5551  contracts */\n      0x02\n        /* \"digital_contract.sol\":5542:5564  contracts[_contractId] */\n      0x00\n        /* \"digital_contract.sol\":5552:5563  _contractId */\n      dup5\n        /* \"digital_contract.sol\":5542:5564  contracts[_contractId] */\n      dup2\n      mstore\n      0x20\n      add\n      swap1\n      dup2\n      mstore\n      0x20\n      add\n      0x00\n      keccak256\n        /* \"digital_contract.sol\":5506:5564  ManagedContract storage mContract = contracts[_contractId] */\n      swap1\n      pop\n        /* \"digital_contract.sol\":5603:5624  ContractStatus.Signed */\n      0x01\n        /* \"digital_contract.sol\":5583:5624  mContract.status == ContractStatus.Signed */\n      0x03\n      dup2\n      gt\n      iszero\n      tag_193\n      jumpi\n      tag_194\n      tag_108\n      jump\t// in\n    tag_194:\n    tag_193:\n        /* \"digital_contract.sol\":5583:5592  mContract */\n      dup2\n        /* \"digital_contract.sol\":5583:5599  mContract.status */\n      0x03\n      add\n      0x14\n      swap1\n      sload\n      swap1\n      0x0100\n      exp\n      swap1\n      div\n      0xff\n      and\n        /* \"digital_contract.sol\":5583:5624  mContract.status == ContractStatus.Signed */\n      0x03\n      dup2\n      gt\n      iszero\n      tag_195\n      jumpi\n      tag_196\n      tag_108\n      jump\t// in\n    tag_196:\n    tag_195:\n      eq\n        /* \"digital_contract.sol\":5575:5639  require(mContract.status == ContractStatus.Signed, \"Not Signed\") */\n      tag_197\n      jumpi\n      mload(0x40)\n      0x08c379a000000000000000000000000000000000000000000000000000000000\n      dup2\n      mstore\n      0x04\n      add\n      tag_198\n      swap1\n      tag_113\n      jump\t// in\n    tag_198:\n      mload(0x40)\n      dup1\n      swap2\n      sub\n      swap1\n      revert\n    tag_197:\n        /* \"digital_contract.sol\":5659:5668  mContract */\n      dup1\n        /* \"digital_contract.sol\":5659:5685  mContract.deliveryRequired */\n      0x06\n      add\n      0x00\n      swap1\n      sload\n      swap1\n      0x0100\n      exp\n      swap1\n      div\n      0xff\n      and\n        /* \"digital_contract.sol\":5658:5685  !mContract.deliveryRequired */\n      iszero\n        /* \"digital_contract.sol\":5650:5707  require(!mContract.deliveryRequired, \"Use delivery flow\") */\n      tag_199\n      jumpi\n      mload(0x40)\n      0x08c379a000000000000000000000000000000000000000000000000000000000\n      dup2\n      mstore\n      0x04\n      add\n      tag_200\n      swap1\n      tag_201\n      jump\t// in\n    tag_200:\n      mload(0x40)\n      dup1\n      swap2\n      sub\n      swap1\n      revert\n    tag_199:\n        /* \"digital_contract.sol\":5739:5763  ContractStatus.Completed */\n      0x02\n        /* \"digital_contract.sol\":5720:5729  mContract */\n      dup2\n        /* \"digital_contract.sol\":5720:5736  mContract.status */\n      0x03\n      add\n      0x14\n        /* \"digital_contract.sol\":5720:5763  mContract.status = ContractStatus.Completed */\n      0x0100\n      exp\n      dup2\n      sload\n      dup2\n      0xff\n      mul\n      not\n      and\n      swap1\n      dup4\n      0x03\n      dup2\n      gt\n      iszero\n      tag_202\n      jumpi\n      tag_203\n      tag_108\n      jump\t// in\n    tag_203:\n    tag_202:\n      mul\n      or\n      swap1\n      sstore\n      pop\n        /* \"digital_contract.sol\":5864:5873  mContract */\n      dup1\n        /* \"digital_contract.sol\":5864:5880  mContract.amount */\n      0x01\n      add\n      sload\n        /* \"digital_contract.sol\":5819:5837  pendingWithdrawals */\n      0x04\n        /* \"digital_contract.sol\":5819:5861  pendingWithdrawals[mContract.counterparty] */\n      0x00\n        /* \"digital_contract.sol\":5838:5847  mContract */\n      dup4\n        /* \"digital_contract.sol\":5838:5860  mContract.counterparty */\n      0x03\n      add\n      0x00\n      swap1\n      sload\n      swap1\n      0x0100\n      exp\n      swap1\n      div\n      0xffffffffffffffffffffffffffffffffffffffff\n      and\n        /* \"digital_contract.sol\":5819:5861  pendingWithdrawals[mContract.counterparty] */\n      0xffffffffffffffffffffffffffffffffffffffff\n      and\n      0xffffffffffffffffffffffffffffffffffffffff\n      and\n      dup2\n      mstore\n      0x20\n      add\n      swap1\n      dup2\n      mstore\n      0x20\n      add\n      0x00\n      keccak256\n      sload\n        /* \"digital_contract.sol\":5819:5880  pendingWithdrawals[mContract.counterparty] + mContract.amount */\n      tag_204\n      swap2\n      swap1\n      tag_123\n      jump\t// in\n    tag_204:\n        /* \"digital_contract.sol\":5774:5792  pendingWithdrawals */\n      0x04\n        /* \"digital_contract.sol\":5774:5816  pendingWithdrawals[mContract.counterparty] */\n      0x00\n        /* \"digital_contract.sol\":5793:5802  mContract */\n      dup4\n        /* \"digital_contract.sol\":5793:5815  mContract.counterparty */\n      0x03\n      add\n      0x00\n      swap1\n      sload\n      swap1\n      0x0100\n      exp\n      swap1\n      div\n      0xffffffffffffffffffffffffffffffffffffffff\n      and\n        /* \"digital_contract.sol\":5774:5816  pendingWithdrawals[mContract.counterparty] */\n      0xffffffffffffffffffffffffffffffffffffffff\n      and\n      0xffffffffffffffffffffffffffffffffffffffff\n      and\n      dup2\n      mstore\n      0x20\n      add\n      swap1\n      dup2\n      mstore\n      0x20\n      add\n      0x00\n      keccak256\n        /* \"digital_contract.sol\":5774:5880  pendingWithdrawals[mContract.counterparty] = pendingWithdrawals[mContract.counterparty] + mContract.amount */\n      dup2\n      swap1\n      sstore\n      pop\n        /* \"digital_contract.sol\":5927:5936  mContract */\n      dup1\n        /* \"digital_contract.sol\":5927:5949  mContract.counterparty */\n      0x03\n      add\n      0x00\n      swap1\n      sload\n      swap1\n      0x0100\n      exp\n      swap1\n      div\n      0xffffffffffffffffffffffffffffffffffffffff\n      and\n        /* \"digital_contract.sol\":5898:5968  PaymentReleased(_contractId, mContract.counterparty, mContract.amount) */\n      0xffffffffffffffffffffffffffffffffffffffff\n      and\n        /* \"digital_contract.sol\":5914:5925  _contractId */\n      dup4\n        /* \"digital_contract.sol\":5898:5968  PaymentReleased(_contractId, mContract.counterparty, mContract.amount) */\n      0x21d71db5be59bb9fa133895586b7404307dd33fb93b16db09dc6f1d9d7d231b0\n        /* \"digital_contract.sol\":5951:5960  mContract */\n      dup4\n        /* \"digital_contract.sol\":5951:5967  mContract.amount */\n      0x01\n      add\n      sload\n        /* \"digital_contract.sol\":5898:5968  PaymentReleased(_contractId, mContract.counterparty, mContract.amount) */\n      mload(0x40)\n      tag_205\n      swap2\n      swap1\n      tag_30\n      jump\t// in\n    tag_205:\n      mload(0x40)\n      dup1\n      swap2\n      sub\n      swap1\n      log3\n        /* \"digital_contract.sol\":5495:5976  {... */\n      pop\n        /* \"@openzeppelin/contracts/security/ReentrancyGuard.sol\":2292:2293  _ */\n      pop\n        /* \"@openzeppelin/contracts/security/ReentrancyGuard.sol\":2303:2323  _nonReentrantAfter() */\n      tag_206\n        /* \"@openzeppelin/contracts/security/ReentrancyGuard.sol\":2303:2321  _nonReentrantAfter */\n      tag_207\n        /* \"@openzeppelin/contracts/security/ReentrancyGuard.sol\":2303:2323  _nonReentrantAfter() */\n      jump\t// in\n    tag_206:\n        /* \"digital_contract.sol\":5402:5976  function confirmCompletion(uint256 _contractId) public nonReentrant onlyCreator(_contractId) {... */\n      pop\n      jump\t// out\n        /* \"digital_contract.sol\":3035:3365  function signContract(uint256 _contractId) public onlyCounterparty(_contractId) {... */\n    tag_75:\n        /* \"digital_contract.sol\":3102:3113  _contractId */\n      dup1\n        /* \"digital_contract.sol\":1697:1706  contracts */\n      0x02\n        /* \"digital_contract.sol\":1697:1719  contracts[_contractId] */\n      0x00\n        /* \"digital_contract.sol\":1707:1718  _contractId */\n      dup3\n        /* \"digital_contract.sol\":1697:1719  contracts[_contractId] */\n      dup2\n      mstore\n      0x20\n      add\n      swap1\n      dup2\n      mstore\n      0x20\n      add\n      0x00\n      keccak256\n        /* \"digital_contract.sol\":1697:1732  contracts[_contractId].counterparty */\n      0x03\n      add\n      0x00\n      swap1\n      sload\n      swap1\n      0x0100\n      exp\n      swap1\n      div\n      0xffffffffffffffffffffffffffffffffffffffff\n      and\n        /* \"digital_contract.sol\":1683:1732  msg.sender == contracts[_contractId].counterparty */\n      0xffffffffffffffffffffffffffffffffffffffff\n      and\n        /* \"digital_contract.sol\":1683:1693  msg.sender */\n      caller\n        /* \"digital_contract.sol\":1683:1732  msg.sender == contracts[_contractId].counterparty */\n      0xffffffffffffffffffffffffffffffffffffffff\n      and\n      eq\n        /* \"digital_contract.sol\":1675:1753  require(msg.sender == contracts[_contractId].counterparty, \"Not counterparty\") */\n      tag_209\n      jumpi\n      mload(0x40)\n      0x08c379a000000000000000000000000000000000000000000000000000000000\n      dup2\n      mstore\n      0x04\n      add\n      tag_210\n      swap1\n      tag_163\n      jump\t// in\n    tag_210:\n      mload(0x40)\n      dup1\n      swap2\n      sub\n      swap1\n      revert\n    tag_209:\n        /* \"digital_contract.sol\":3126:3159  ManagedContract storage mContract */\n      0x00\n        /* \"digital_contract.sol\":3162:3171  contracts */\n      0x02\n        /* \"digital_contract.sol\":3162:3184  contracts[_contractId] */\n      0x00\n        /* \"digital_contract.sol\":3172:3183  _contractId */\n      dup5\n        /* \"digital_contract.sol\":3162:3184  contracts[_contractId] */\n      dup2\n      mstore\n      0x20\n      add\n      swap1\n      dup2\n      mstore\n      0x20\n      add\n      0x00\n      keccak256\n        /* \"digital_contract.sol\":3126:3184  ManagedContract storage mContract = contracts[_contractId] */\n      swap1\n      pop\n        /* \"digital_contract.sol\":3223:3245  ContractStatus.Created */\n      0x00\n        /* \"digital_contract.sol\":3203:3245  mContract.status == ContractStatus.Created */\n      0x03\n      dup2\n      gt\n      iszero\n      tag_212\n      jumpi\n      tag_213\n      tag_108\n      jump\t// in\n    tag_213:\n    tag_212:\n        /* \"digital_contract.sol\":3203:3212  mContract */\n      dup2\n        /* \"digital_contract.sol\":3203:3219  mContract.status */\n      0x03\n      add\n      0x14\n      swap1\n      sload\n      swap1\n      0x0100\n      exp\n      swap1\n      div\n      0xff\n      and\n        /* \"digital_contract.sol\":3203:3245  mContract.status == ContractStatus.Created */\n      0x03\n      dup2\n      gt\n      iszero\n      tag_214\n      jumpi\n      tag_215\n      tag_108\n      jump\t// in\n    tag_215:\n    tag_214:\n      eq\n        /* \"digital_contract.sol\":3195:3261  require(mContract.status == ContractStatus.Created, \"Not Created\") */\n      tag_216\n      jumpi\n      mload(0x40)\n      0x08c379a000000000000000000000000000000000000000000000000000000000\n      dup2\n      mstore\n      0x04\n      add\n      tag_217\n      swap1\n      tag_218\n      jump\t// in\n    tag_217:\n      mload(0x40)\n      dup1\n      swap2\n      sub\n      swap1\n      revert\n    tag_216:\n        /* \"digital_contract.sol\":3293:3314  ContractStatus.Signed */\n      0x01\n        /* \"digital_contract.sol\":3274:3283  mContract */\n      dup2\n        /* \"digital_contract.sol\":3274:3290  mContract.status */\n      0x03\n      add\n      0x14\n        /* \"digital_contract.sol\":3274:3314  mContract.status = ContractStatus.Signed */\n      0x0100\n      exp\n      dup2\n      sload\n      dup2\n      0xff\n      mul\n      not\n      and\n      swap1\n      dup4\n      0x03\n      dup2\n      gt\n      iszero\n      tag_219\n      jumpi\n      tag_220\n      tag_108\n      jump\t// in\n    tag_220:\n    tag_219:\n      mul\n      or\n      swap1\n      sstore\n      pop\n        /* \"digital_contract.sol\":3345:3356  _contractId */\n      dup3\n        /* \"digital_contract.sol\":3330:3357  ContractSigned(_contractId) */\n      0xaf3c49f5413fd292e2325b0fe214de144a222b00cb6ec21214fdc04b5d6c5913\n      mload(0x40)\n      mload(0x40)\n      dup1\n      swap2\n      sub\n      swap1\n      log2\n        /* \"digital_contract.sol\":3115:3365  {... */\n      pop\n        /* \"digital_contract.sol\":3035:3365  function signContract(uint256 _contractId) public onlyCounterparty(_contractId) {... */\n      pop\n      pop\n      jump\t// out\n        /* \"digital_contract.sol\":2195:3027  function createContract(... */\n    tag_79:\n        /* \"digital_contract.sol\":2389:2390  0 */\n      0x00\n        /* \"digital_contract.sol\":2364:2391  _counterparty != address(0) */\n      0xffffffffffffffffffffffffffffffffffffffff\n      and\n        /* \"digital_contract.sol\":2364:2377  _counterparty */\n      dup4\n        /* \"digital_contract.sol\":2364:2391  _counterparty != address(0) */\n      0xffffffffffffffffffffffffffffffffffffffff\n      and\n      sub\n        /* \"digital_contract.sol\":2356:2414  require(_counterparty != address(0), \"0 addr not allowed\") */\n      tag_222\n      jumpi\n      mload(0x40)\n      0x08c379a000000000000000000000000000000000000000000000000000000000\n      dup2\n      mstore\n      0x04\n      add\n      tag_223\n      swap1\n      tag_224\n      jump\t// in\n    tag_223:\n      mload(0x40)\n      dup1\n      swap2\n      sub\n      swap1\n      revert\n    tag_222:\n        /* \"digital_contract.sol\":2446:2453  _amount */\n      dup1\n        /* \"digital_contract.sol\":2433:2442  msg.value */\n      callvalue\n        /* \"digital_contract.sol\":2433:2453  msg.value == _amount */\n      eq\n        /* \"digital_contract.sol\":2425:2470  require(msg.value == _amount, \"ETH mismatch\") */\n      tag_225\n      jumpi\n      mload(0x40)\n      0x08c379a000000000000000000000000000000000000000000000000000000000\n      dup2\n      mstore\n      0x04\n      add\n      tag_226\n      swap1\n      tag_227\n      jump\t// in\n    tag_226:\n      mload(0x40)\n      dup1\n      swap2\n      sub\n      swap1\n      revert\n    tag_225:\n        /* \"digital_contract.sol\":2519:2521  10 */\n      0x0a\n        /* \"digital_contract.sol\":2495:2508  _contractHash */\n      dup3\n        /* \"digital_contract.sol\":2489:2516  bytes(_contractHash).length */\n      mload\n        /* \"digital_contract.sol\":2489:2521  bytes(_contractHash).length > 10 */\n      gt\n        /* \"digital_contract.sol\":2481:2547  require(bytes(_contractHash).length > 10, \"Invalid contract hash\") */\n      tag_228\n      jumpi\n      mload(0x40)\n      0x08c379a000000000000000000000000000000000000000000000000000000000\n      dup2\n      mstore\n      0x04\n      add\n      tag_229\n      swap1\n      tag_230\n      jump\t// in\n    tag_229:\n      mload(0x40)\n      dup1\n      swap2\n      sub\n      swap1\n      revert\n    tag_228:\n        /* \"digital_contract.sol\":2560:2575  contractCounter */\n      0x03\n      0x00\n        /* \"digital_contract.sol\":2560:2577  contractCounter++ */\n      dup2\n      sload\n      dup1\n      swap3\n      swap2\n      swap1\n      tag_231\n      swap1\n      tag_232\n      jump\t// in\n    tag_231:\n      swap2\n      swap1\n      pop\n      sstore\n      pop\n        /* \"digital_contract.sol\":2588:2623  ManagedContract storage newContract */\n      0x00\n        /* \"digital_contract.sol\":2626:2635  contracts */\n      0x02\n        /* \"digital_contract.sol\":2626:2652  contracts[contractCounter] */\n      0x00\n        /* \"digital_contract.sol\":2636:2651  contractCounter */\n      sload(0x03)\n        /* \"digital_contract.sol\":2626:2652  contracts[contractCounter] */\n      dup2\n      mstore\n      0x20\n      add\n      swap1\n      dup2\n      mstore\n      0x20\n      add\n      0x00\n      keccak256\n        /* \"digital_contract.sol\":2588:2652  ManagedContract storage newContract = contracts[contractCounter] */\n      swap1\n      pop\n        /* \"digital_contract.sol\":2680:2695  contractCounter */\n      sload(0x03)\n        /* \"digital_contract.sol\":2663:2674  newContract */\n      dup2\n        /* \"digital_contract.sol\":2663:2677  newContract.id */\n      0x00\n      add\n        /* \"digital_contract.sol\":2663:2695  newContract.id = contractCounter */\n      dup2\n      swap1\n      sstore\n      pop\n        /* \"digital_contract.sol\":2727:2734  _amount */\n      dup2\n        /* \"digital_contract.sol\":2706:2717  newContract */\n      dup2\n        /* \"digital_contract.sol\":2706:2724  newContract.amount */\n      0x01\n      add\n        /* \"digital_contract.sol\":2706:2734  newContract.amount = _amount */\n      dup2\n      swap1\n      sstore\n      pop\n        /* \"digital_contract.sol\":2775:2785  msg.sender */\n      caller\n        /* \"digital_contract.sol\":2745:2756  newContract */\n      dup2\n        /* \"digital_contract.sol\":2745:2764  newContract.creator */\n      0x02\n      add\n      0x00\n        /* \"digital_contract.sol\":2745:2786  newContract.creator = payable(msg.sender) */\n      0x0100\n      exp\n      dup2\n      sload\n      dup2\n      0xffffffffffffffffffffffffffffffffffffffff\n      mul\n      not\n      and\n      swap1\n      dup4\n      0xffffffffffffffffffffffffffffffffffffffff\n      and\n      mul\n      or\n      swap1\n      sstore\n      pop\n        /* \"digital_contract.sol\":2824:2837  _counterparty */\n      dup4\n        /* \"digital_contract.sol\":2797:2808  newContract */\n      dup2\n        /* \"digital_contract.sol\":2797:2821  newContract.counterparty */\n      0x03\n      add\n      0x00\n        /* \"digital_contract.sol\":2797:2837  newContract.counterparty = _counterparty */\n      0x0100\n      exp\n      dup2\n      sload\n      dup2\n      0xffffffffffffffffffffffffffffffffffffffff\n      mul\n      not\n      and\n      swap1\n      dup4\n      0xffffffffffffffffffffffffffffffffffffffff\n      and\n      mul\n      or\n      swap1\n      sstore\n      pop\n        /* \"digital_contract.sol\":2869:2891  ContractStatus.Created */\n      0x00\n        /* \"digital_contract.sol\":2848:2859  newContract */\n      dup2\n        /* \"digital_contract.sol\":2848:2866  newContract.status */\n      0x03\n      add\n      0x14\n        /* \"digital_contract.sol\":2848:2891  newContract.status = ContractStatus.Created */\n      0x0100\n      exp\n      dup2\n      sload\n      dup2\n      0xff\n      mul\n      not\n      and\n      swap1\n      dup4\n      0x03\n      dup2\n      gt\n      iszero\n      tag_233\n      jumpi\n      tag_234\n      tag_108\n      jump\t// in\n    tag_234:\n    tag_233:\n      mul\n      or\n      swap1\n      sstore\n      pop\n        /* \"digital_contract.sol\":2929:2942  _contractHash */\n      dup3\n        /* \"digital_contract.sol\":2902:2913  newContract */\n      dup2\n        /* \"digital_contract.sol\":2902:2926  newContract.contractHash */\n      0x04\n      add\n        /* \"digital_contract.sol\":2902:2942  newContract.contractHash = _contractHash */\n      swap1\n      dup2\n      tag_235\n      swap2\n      swap1\n      tag_152\n      jump\t// in\n    tag_235:\n      pop\n        /* \"digital_contract.sol\":2976:2991  contractCounter */\n      sload(0x03)\n        /* \"digital_contract.sol\":2960:3019  ContractCreated(contractCounter, msg.sender, _counterparty) */\n      0x56560a52c047ed21fd801bf0f345b23d9af696f7922ff8e63101af5d48caddab\n        /* \"digital_contract.sol\":2993:3003  msg.sender */\n      caller\n        /* \"digital_contract.sol\":3005:3018  _counterparty */\n      dup7\n        /* \"digital_contract.sol\":2960:3019  ContractCreated(contractCounter, msg.sender, _counterparty) */\n      mload(0x40)\n      tag_236\n      swap3\n      swap2\n      swap1\n      tag_237\n      jump\t// in\n    tag_236:\n      mload(0x40)\n      dup1\n      swap2\n      sub\n      swap1\n      log2\n        /* \"digital_contract.sol\":2345:3027  {... */\n      pop\n        /* \"digital_contract.sol\":2195:3027  function createContract(... */\n      pop\n      pop\n      pop\n      jump\t// out\n        /* \"digital_contract.sol\":3932:4584  function confirmDeliveryByOracle(uint256 _contractId, string memory _trackingNumber) public nonReentrant onlyOracle {... */\n    tag_83:\n        /* \"@openzeppelin/contracts/security/ReentrancyGuard.sol\":2261:2282  _nonReentrantBefore() */\n      tag_239\n        /* \"@openzeppelin/contracts/security/ReentrancyGuard.sol\":2261:2280  _nonReentrantBefore */\n      tag_188\n        /* \"@openzeppelin/contracts/security/ReentrancyGuard.sol\":2261:2282  _nonReentrantBefore() */\n      jump\t// in\n    tag_239:\n        /* \"digital_contract.sol\":1836:1842  oracle */\n      0x01\n      0x00\n      swap1\n      sload\n      swap1\n      0x0100\n      exp\n      swap1\n      div\n      0xffffffffffffffffffffffffffffffffffffffff\n      and\n        /* \"digital_contract.sol\":1822:1842  msg.sender == oracle */\n      0xffffffffffffffffffffffffffffffffffffffff\n      and\n        /* \"digital_contract.sol\":1822:1832  msg.sender */\n      caller\n        /* \"digital_contract.sol\":1822:1842  msg.sender == oracle */\n      0xffffffffffffffffffffffffffffffffffffffff\n      and\n      eq\n        /* \"digital_contract.sol\":1814:1857  require(msg.sender == oracle, \"Not oracle\") */\n      tag_241\n      jumpi\n      mload(0x40)\n      0x08c379a000000000000000000000000000000000000000000000000000000000\n      dup2\n      mstore\n      0x04\n      add\n      tag_242\n      swap1\n      tag_243\n      jump\t// in\n    tag_242:\n      mload(0x40)\n      dup1\n      swap2\n      sub\n      swap1\n      revert\n    tag_241:\n        /* \"digital_contract.sol\":4059:4092  ManagedContract storage mContract */\n      0x00\n        /* \"digital_contract.sol\":4095:4104  contracts */\n      0x02\n        /* \"digital_contract.sol\":4095:4117  contracts[_contractId] */\n      0x00\n        /* \"digital_contract.sol\":4105:4116  _contractId */\n      dup5\n        /* \"digital_contract.sol\":4095:4117  contracts[_contractId] */\n      dup2\n      mstore\n      0x20\n      add\n      swap1\n      dup2\n      mstore\n      0x20\n      add\n      0x00\n      keccak256\n        /* \"digital_contract.sol\":4059:4117  ManagedContract storage mContract = contracts[_contractId] */\n      swap1\n      pop\n        /* \"digital_contract.sol\":4136:4145  mContract */\n      dup1\n        /* \"digital_contract.sol\":4136:4162  mContract.deliveryRequired */\n      0x06\n      add\n      0x00\n      swap1\n      sload\n      swap1\n      0x0100\n      exp\n      swap1\n      div\n      0xff\n      and\n        /* \"digital_contract.sol\":4128:4178  require(mContract.deliveryRequired, \"No delivery\") */\n      tag_245\n      jumpi\n      mload(0x40)\n      0x08c379a000000000000000000000000000000000000000000000000000000000\n      dup2\n      mstore\n      0x04\n      add\n      tag_246\n      swap1\n      tag_105\n      jump\t// in\n    tag_246:\n      mload(0x40)\n      dup1\n      swap2\n      sub\n      swap1\n      revert\n    tag_245:\n        /* \"digital_contract.sol\":4217:4238  ContractStatus.Signed */\n      0x01\n        /* \"digital_contract.sol\":4197:4238  mContract.status == ContractStatus.Signed */\n      0x03\n      dup2\n      gt\n      iszero\n      tag_247\n      jumpi\n      tag_248\n      tag_108\n      jump\t// in\n    tag_248:\n    tag_247:\n        /* \"digital_contract.sol\":4197:4206  mContract */\n      dup2\n        /* \"digital_contract.sol\":4197:4213  mContract.status */\n      0x03\n      add\n      0x14\n      swap1\n      sload\n      swap1\n      0x0100\n      exp\n      swap1\n      div\n      0xff\n      and\n        /* \"digital_contract.sol\":4197:4238  mContract.status == ContractStatus.Signed */\n      0x03\n      dup2\n      gt\n      iszero\n      tag_249\n      jumpi\n      tag_250\n      tag_108\n      jump\t// in\n    tag_250:\n    tag_249:\n      eq\n        /* \"digital_contract.sol\":4189:4253  require(mContract.status == ContractStatus.Signed, \"Not Signed\") */\n      tag_251\n      jumpi\n      mload(0x40)\n      0x08c379a000000000000000000000000000000000000000000000000000000000\n      dup2\n      mstore\n      0x04\n      add\n      tag_252\n      swap1\n      tag_113\n      jump\t// in\n    tag_252:\n      mload(0x40)\n      dup1\n      swap2\n      sub\n      swap1\n      revert\n    tag_251:\n        /* \"digital_contract.sol\":4273:4282  mContract */\n      dup1\n        /* \"digital_contract.sol\":4273:4300  mContract.deliveryConfirmed */\n      0x06\n      add\n      0x01\n      swap1\n      sload\n      swap1\n      0x0100\n      exp\n      swap1\n      div\n      0xff\n      and\n        /* \"digital_contract.sol\":4272:4300  !mContract.deliveryConfirmed */\n      iszero\n        /* \"digital_contract.sol\":4264:4322  require(!mContract.deliveryConfirmed, \"Already confirmed\") */\n      tag_253\n      jumpi\n      mload(0x40)\n      0x08c379a000000000000000000000000000000000000000000000000000000000\n      dup2\n      mstore\n      0x04\n      add\n      tag_254\n      swap1\n      tag_255\n      jump\t// in\n    tag_254:\n      mload(0x40)\n      dup1\n      swap2\n      sub\n      swap1\n      revert\n    tag_253:\n        /* \"digital_contract.sol\":4412:4423  _contractId */\n      dup3\n        /* \"digital_contract.sol\":4425:4440  _trackingNumber */\n      dup3\n        /* \"digital_contract.sol\":4401:4441  abi.encode(_contractId, _trackingNumber) */\n      add(0x20, mload(0x40))\n      tag_256\n      swap3\n      swap2\n      swap1\n      tag_175\n      jump\t// in\n    tag_256:\n      mload(0x40)\n      0x20\n      dup2\n      dup4\n      sub\n      sub\n      dup2\n      mstore\n      swap1\n      0x40\n      mstore\n        /* \"digital_contract.sol\":4391:4442  keccak256(abi.encode(_contractId, _trackingNumber)) */\n      dup1\n      mload\n      swap1\n      0x20\n      add\n      keccak256\n        /* \"digital_contract.sol\":4357:4366  mContract */\n      dup2\n        /* \"digital_contract.sol\":4357:4387  mContract.deliveryTrackingHash */\n      0x05\n      add\n      sload\n        /* \"digital_contract.sol\":4357:4442  mContract.deliveryTrackingHash == keccak256(abi.encode(_contractId, _trackingNumber)) */\n      eq\n        /* \"digital_contract.sol\":4335:4483  require(... */\n      tag_257\n      jumpi\n      mload(0x40)\n      0x08c379a000000000000000000000000000000000000000000000000000000000\n      dup2\n      mstore\n      0x04\n      add\n      tag_258\n      swap1\n      tag_259\n      jump\t// in\n    tag_258:\n      mload(0x40)\n      dup1\n      swap2\n      sub\n      swap1\n      revert\n    tag_257:\n        /* \"digital_contract.sol\":4526:4530  true */\n      0x01\n        /* \"digital_contract.sol\":4496:4505  mContract */\n      dup2\n        /* \"digital_contract.sol\":4496:4523  mContract.deliveryConfirmed */\n      0x06\n      add\n      0x01\n        /* \"digital_contract.sol\":4496:4530  mContract.deliveryConfirmed = true */\n      0x0100\n      exp\n      dup2\n      sload\n      dup2\n      0xff\n      mul\n      not\n      and\n      swap1\n      dup4\n      iszero\n      iszero\n      mul\n      or\n      swap1\n      sstore\n      pop\n        /* \"digital_contract.sol\":4564:4575  _contractId */\n      dup3\n        /* \"digital_contract.sol\":4546:4576  DeliveryConfirmed(_contractId) */\n      0x375b4005eeae25d0e37d56e1b3841d3bb394b277efa2548de3293f5dcb7a3493\n      mload(0x40)\n      mload(0x40)\n      dup1\n      swap2\n      sub\n      swap1\n      log2\n        /* \"digital_contract.sol\":4048:4584  {... */\n      pop\n        /* \"@openzeppelin/contracts/security/ReentrancyGuard.sol\":2303:2323  _nonReentrantAfter() */\n      tag_260\n        /* \"@openzeppelin/contracts/security/ReentrancyGuard.sol\":2303:2321  _nonReentrantAfter */\n      tag_207\n        /* \"@openzeppelin/contracts/security/ReentrancyGuard.sol\":2303:2323  _nonReentrantAfter() */\n      jump\t// in\n    tag_260:\n        /* \"digital_contract.sol\":3932:4584  function confirmDeliveryByOracle(uint256 _contractId, string memory _trackingNumber) public nonReentrant onlyOracle {... */\n      pop\n      pop\n      jump\t// out\n        /* \"digital_contract.sol\":5984:6667  function withdrawFundsFrom(uint256 _contractId) public nonReentrant {... */\n    tag_87:\n        /* \"@openzeppelin/contracts/security/ReentrancyGuard.sol\":2261:2282  _nonReentrantBefore() */\n      tag_262\n        /* \"@openzeppelin/contracts/security/ReentrancyGuard.sol\":2261:2280  _nonReentrantBefore */\n      tag_188\n        /* \"@openzeppelin/contracts/security/ReentrancyGuard.sol\":2261:2282  _nonReentrantBefore() */\n      jump\t// in\n    tag_262:\n        /* \"digital_contract.sol\":6063:6096  ManagedContract storage mContract */\n      0x00\n        /* \"digital_contract.sol\":6099:6108  contracts */\n      0x02\n        /* \"digital_contract.sol\":6099:6121  contracts[_contractId] */\n      0x00\n        /* \"digital_contract.sol\":6109:6120  _contractId */\n      dup4\n        /* \"digital_contract.sol\":6099:6121  contracts[_contractId] */\n      dup2\n      mstore\n      0x20\n      add\n      swap1\n      dup2\n      mstore\n      0x20\n      add\n      0x00\n      keccak256\n        /* \"digital_contract.sol\":6063:6121  ManagedContract storage mContract = contracts[_contractId] */\n      swap1\n      pop\n        /* \"digital_contract.sol\":6160:6184  ContractStatus.Completed */\n      0x02\n        /* \"digital_contract.sol\":6140:6184  mContract.status == ContractStatus.Completed */\n      0x03\n      dup2\n      gt\n      iszero\n      tag_264\n      jumpi\n      tag_265\n      tag_108\n      jump\t// in\n    tag_265:\n    tag_264:\n        /* \"digital_contract.sol\":6140:6149  mContract */\n      dup2\n        /* \"digital_contract.sol\":6140:6156  mContract.status */\n      0x03\n      add\n      0x14\n      swap1\n      sload\n      swap1\n      0x0100\n      exp\n      swap1\n      div\n      0xff\n      and\n        /* \"digital_contract.sol\":6140:6184  mContract.status == ContractStatus.Completed */\n      0x03\n      dup2\n      gt\n      iszero\n      tag_266\n      jumpi\n      tag_267\n      tag_108\n      jump\t// in\n    tag_267:\n    tag_266:\n      eq\n        /* \"digital_contract.sol\":6132:6202  require(mContract.status == ContractStatus.Completed, \"Not completed\") */\n      tag_268\n      jumpi\n      mload(0x40)\n      0x08c379a000000000000000000000000000000000000000000000000000000000\n      dup2\n      mstore\n      0x04\n      add\n      tag_269\n      swap1\n      tag_270\n      jump\t// in\n    tag_269:\n      mload(0x40)\n      dup1\n      swap2\n      sub\n      swap1\n      revert\n    tag_268:\n        /* \"digital_contract.sol\":6247:6257  msg.sender */\n      caller\n        /* \"digital_contract.sol\":6221:6257  mContract.counterparty == msg.sender */\n      0xffffffffffffffffffffffffffffffffffffffff\n      and\n        /* \"digital_contract.sol\":6221:6230  mContract */\n      dup2\n        /* \"digital_contract.sol\":6221:6243  mContract.counterparty */\n      0x03\n      add\n      0x00\n      swap1\n      sload\n      swap1\n      0x0100\n      exp\n      swap1\n      div\n      0xffffffffffffffffffffffffffffffffffffffff\n      and\n        /* \"digital_contract.sol\":6221:6257  mContract.counterparty == msg.sender */\n      0xffffffffffffffffffffffffffffffffffffffff\n      and\n      eq\n        /* \"digital_contract.sol\":6213:6275  require(mContract.counterparty == msg.sender, \"Not recipient\") */\n      tag_271\n      jumpi\n      mload(0x40)\n      0x08c379a000000000000000000000000000000000000000000000000000000000\n      dup2\n      mstore\n      0x04\n      add\n      tag_272\n      swap1\n      tag_273\n      jump\t// in\n    tag_272:\n      mload(0x40)\n      dup1\n      swap2\n      sub\n      swap1\n      revert\n    tag_271:\n        /* \"digital_contract.sol\":6288:6302  uint256 amount */\n      0x00\n        /* \"digital_contract.sol\":6305:6314  mContract */\n      dup2\n        /* \"digital_contract.sol\":6305:6321  mContract.amount */\n      0x01\n      add\n      sload\n        /* \"digital_contract.sol\":6288:6321  uint256 amount = mContract.amount */\n      swap1\n      pop\n        /* \"digital_contract.sol\":6374:6375  0 */\n      0x00\n        /* \"digital_contract.sol\":6340:6358  pendingWithdrawals */\n      0x04\n        /* \"digital_contract.sol\":6340:6370  pendingWithdrawals[msg.sender] */\n      0x00\n        /* \"digital_contract.sol\":6359:6369  msg.sender */\n      caller\n        /* \"digital_contract.sol\":6340:6370  pendingWithdrawals[msg.sender] */\n      0xffffffffffffffffffffffffffffffffffffffff\n      and\n      0xffffffffffffffffffffffffffffffffffffffff\n      and\n      dup2\n      mstore\n      0x20\n      add\n      swap1\n      dup2\n      mstore\n      0x20\n      add\n      0x00\n      keccak256\n      sload\n        /* \"digital_contract.sol\":6340:6375  pendingWithdrawals[msg.sender] != 0 */\n      sub\n        /* \"digital_contract.sol\":6332:6390  require(pendingWithdrawals[msg.sender] != 0, \"No balance\") */\n      tag_274\n      jumpi\n      mload(0x40)\n      0x08c379a000000000000000000000000000000000000000000000000000000000\n      dup2\n      mstore\n      0x04\n      add\n      tag_275\n      swap1\n      tag_276\n      jump\t// in\n    tag_275:\n      mload(0x40)\n      dup1\n      swap2\n      sub\n      swap1\n      revert\n    tag_274:\n        /* \"digital_contract.sol\":6469:6475  amount */\n      dup1\n        /* \"digital_contract.sol\":6436:6454  pendingWithdrawals */\n      0x04\n        /* \"digital_contract.sol\":6436:6466  pendingWithdrawals[msg.sender] */\n      0x00\n        /* \"digital_contract.sol\":6455:6465  msg.sender */\n      caller\n        /* \"digital_contract.sol\":6436:6466  pendingWithdrawals[msg.sender] */\n      0xffffffffffffffffffffffffffffffffffffffff\n      and\n      0xffffffffffffffffffffffffffffffffffffffff\n      and\n      dup2\n      mstore\n      0x20\n      add\n      swap1\n      dup2\n      mstore\n      0x20\n      add\n      0x00\n      keccak256\n      sload\n        /* \"digital_contract.sol\":6436:6475  pendingWithdrawals[msg.sender] - amount */\n      tag_277\n      swap2\n      swap1\n      tag_278\n      jump\t// in\n    tag_277:\n        /* \"digital_contract.sol\":6403:6421  pendingWithdrawals */\n      0x04\n        /* \"digital_contract.sol\":6403:6433  pendingWithdrawals[msg.sender] */\n      0x00\n        /* \"digital_contract.sol\":6422:6432  msg.sender */\n      caller\n        /* \"digital_contract.sol\":6403:6433  pendingWithdrawals[msg.sender] */\n      0xffffffffffffffffffffffffffffffffffffffff\n      and\n      0xffffffffffffffffffffffffffffffffffffffff\n      and\n      dup2\n      mstore\n      0x20\n      add\n      swap1\n      dup2\n      mstore\n      0x20\n      add\n      0x00\n      keccak256\n        /* \"digital_contract.sol\":6403:6475  pendingWithdrawals[msg.sender] = pendingWithdrawals[msg.sender] - amount */\n      dup2\n      swap1\n      sstore\n      pop\n        /* \"digital_contract.sol\":6487:6499  bool success */\n      0x00\n        /* \"digital_contract.sol\":6513:6523  msg.sender */\n      caller\n        /* \"digital_contract.sol\":6505:6529  payable(msg.sender).call */\n      0xffffffffffffffffffffffffffffffffffffffff\n      and\n        /* \"digital_contract.sol\":6537:6543  amount */\n      dup3\n        /* \"digital_contract.sol\":6505:6548  payable(msg.sender).call{value: amount}(\"\") */\n      mload(0x40)\n      tag_279\n      swap1\n      tag_280\n      jump\t// in\n    tag_279:\n      0x00\n      mload(0x40)\n      dup1\n      dup4\n      sub\n      dup2\n      dup6\n      dup8\n      gas\n      call\n      swap3\n      pop\n      pop\n      pop\n      returndatasize\n      dup1\n      0x00\n      dup2\n      eq\n      tag_283\n      jumpi\n      mload(0x40)\n      swap2\n      pop\n      and(add(returndatasize, 0x3f), not(0x1f))\n      dup3\n      add\n      0x40\n      mstore\n      returndatasize\n      dup3\n      mstore\n      returndatasize\n      0x00\n      0x20\n      dup5\n      add\n      returndatacopy\n      jump(tag_282)\n    tag_283:\n      0x60\n      swap2\n      pop\n    tag_282:\n      pop\n        /* \"digital_contract.sol\":6486:6548  (bool success, ) = payable(msg.sender).call{value: amount}(\"\") */\n      pop\n      swap1\n      pop\n        /* \"digital_contract.sol\":6567:6574  success */\n      dup1\n        /* \"digital_contract.sol\":6559:6594  require(success, \"Withdraw failed\") */\n      tag_284\n      jumpi\n      mload(0x40)\n      0x08c379a000000000000000000000000000000000000000000000000000000000\n      dup2\n      mstore\n      0x04\n      add\n      tag_285\n      swap1\n      tag_286\n      jump\t// in\n    tag_285:\n      mload(0x40)\n      dup1\n      swap2\n      sub\n      swap1\n      revert\n    tag_284:\n        /* \"digital_contract.sol\":6640:6650  msg.sender */\n      caller\n        /* \"digital_contract.sol\":6612:6659  FundsWithdrawn(_contractId, msg.sender, amount) */\n      0xffffffffffffffffffffffffffffffffffffffff\n      and\n        /* \"digital_contract.sol\":6627:6638  _contractId */\n      dup5\n        /* \"digital_contract.sol\":6612:6659  FundsWithdrawn(_contractId, msg.sender, amount) */\n      0xf440aec6b52895984d061d622e6edeba6210f7c3e059be920663140c084560d7\n        /* \"digital_contract.sol\":6652:6658  amount */\n      dup5\n        /* \"digital_contract.sol\":6612:6659  FundsWithdrawn(_contractId, msg.sender, amount) */\n      mload(0x40)\n      tag_287\n      swap2\n      swap1\n      tag_30\n      jump\t// in\n    tag_287:\n      mload(0x40)\n      dup1\n      swap2\n      sub\n      swap1\n      log3\n        /* \"digital_contract.sol\":6052:6667  {... */\n      pop\n      pop\n      pop\n        /* \"@openzeppelin/contracts/security/ReentrancyGuard.sol\":2303:2323  _nonReentrantAfter() */\n      tag_288\n        /* \"@openzeppelin/contracts/security/ReentrancyGuard.sol\":2303:2321  _nonReentrantAfter */\n      tag_207\n        /* \"@openzeppelin/contracts/security/ReentrancyGuard.sol\":2303:2323  _nonReentrantAfter() */\n      jump\t// in\n    tag_288:\n        /* \"digital_contract.sol\":5984:6667  function withdrawFundsFrom(uint256 _contractId) public nonReentrant {... */\n      pop\n      jump\t// out\n        /* \"digital_contract.sol\":639:660  bool public oracleSet */\n    tag_90:\n      0x01\n      0x14\n      swap1\n      sload\n      swap1\n      0x0100\n      exp\n      swap1\n      div\n      0xff\n      and\n      dup2\n      jump\t// out\n        /* \"digital_contract.sol\":767:820  mapping(address => uint256) public pendingWithdrawals */\n    tag_96:\n      mstore(0x20, 0x04)\n      dup1\n      0x00\n      mstore\n      keccak256(0x00, 0x40)\n      0x00\n      swap2\n      pop\n      swap1\n      pop\n      sload\n      dup2\n      jump\t// out\n        /* \"@openzeppelin/contracts/security/ReentrancyGuard.sol\":2336:2623  function _nonReentrantBefore() private {... */\n    tag_188:\n        /* \"@openzeppelin/contracts/security/ReentrancyGuard.sol\":1759:1760  2 */\n      0x02\n        /* \"@openzeppelin/contracts/security/ReentrancyGuard.sol\":2468:2475  _status */\n      sload(0x00)\n        /* \"@openzeppelin/contracts/security/ReentrancyGuard.sol\":2468:2487  _status != _ENTERED */\n      sub\n        /* \"@openzeppelin/contracts/security/ReentrancyGuard.sol\":2460:2523  require(_status != _ENTERED, \"ReentrancyGuard: reentrant call\") */\n      tag_290\n      jumpi\n      mload(0x40)\n      0x08c379a000000000000000000000000000000000000000000000000000000000\n      dup2\n      mstore\n      0x04\n      add\n      tag_291\n      swap1\n      tag_292\n      jump\t// in\n    tag_291:\n      mload(0x40)\n      dup1\n      swap2\n      sub\n      swap1\n      revert\n    tag_290:\n        /* \"@openzeppelin/contracts/security/ReentrancyGuard.sol\":1759:1760  2 */\n      0x02\n        /* \"@openzeppelin/contracts/security/ReentrancyGuard.sol\":2598:2605  _status */\n      0x00\n        /* \"@openzeppelin/contracts/security/ReentrancyGuard.sol\":2598:2616  _status = _ENTERED */\n      dup2\n      swap1\n      sstore\n      pop\n        /* \"@openzeppelin/contracts/security/ReentrancyGuard.sol\":2336:2623  function _nonReentrantBefore() private {... */\n      jump\t// out\n        /* \"@openzeppelin/contracts/security/ReentrancyGuard.sol\":2629:2838  function _nonReentrantAfter() private {... */\n    tag_207:\n        /* \"@openzeppelin/contracts/security/ReentrancyGuard.sol\":1716:1717  1 */\n      0x01\n        /* \"@openzeppelin/contracts/security/ReentrancyGuard.sol\":2809:2816  _status */\n      0x00\n        /* \"@openzeppelin/contracts/security/ReentrancyGuard.sol\":2809:2831  _status = _NOT_ENTERED */\n      dup2\n      swap1\n      sstore\n      pop\n        /* \"@openzeppelin/contracts/security/ReentrancyGuard.sol\":2629:2838  function _nonReentrantAfter() private {... */\n      jump\t// out\n        /* \"#utility.yul\":7:82   */\n    tag_294:\n        /* \"#utility.yul\":40:46   */\n      0x00\n        /* \"#utility.yul\":73:75   */\n      0x40\n        /* \"#utility.yul\":67:76   */\n      mload\n        /* \"#utility.yul\":57:76   */\n      swap1\n      pop\n        /* \"#utility.yul\":7:82   */\n      swap1\n      jump\t// out\n        /* \"#utility.yul\":88:205   */\n    tag_295:\n        /* \"#utility.yul\":197:198   */\n      0x00\n        /* \"#utility.yul\":194:195   */\n      0x00\n        /* \"#utility.yul\":187:199   */\n      revert\n        /* \"#utility.yul\":211:328   */\n    tag_296:\n        /* \"#utility.yul\":320:321   */\n      0x00\n        /* \"#utility.yul\":317:318   */\n      0x00\n        /* \"#utility.yul\":310:322   */\n      revert\n        /* \"#utility.yul\":334:411   */\n    tag_297:\n        /* \"#utility.yul\":371:378   */\n      0x00\n        /* \"#utility.yul\":400:405   */\n      dup2\n        /* \"#utility.yul\":389:405   */\n      swap1\n      pop\n        /* \"#utility.yul\":334:411   */\n      swap2\n      swap1\n      pop\n      jump\t// out\n        /* \"#utility.yul\":417:539   */\n    tag_298:\n        /* \"#utility.yul\":490:514   */\n      tag_410\n        /* \"#utility.yul\":508:513   */\n      dup2\n        /* \"#utility.yul\":490:514   */\n      tag_297\n      jump\t// in\n    tag_410:\n        /* \"#utility.yul\":483:488   */\n      dup2\n        /* \"#utility.yul\":480:515   */\n      eq\n        /* \"#utility.yul\":470:533   */\n      tag_411\n      jumpi\n        /* \"#utility.yul\":529:530   */\n      0x00\n        /* \"#utility.yul\":526:527   */\n      0x00\n        /* \"#utility.yul\":519:531   */\n      revert\n        /* \"#utility.yul\":470:533   */\n    tag_411:\n        /* \"#utility.yul\":417:539   */\n      pop\n      jump\t// out\n        /* \"#utility.yul\":545:684   */\n    tag_299:\n        /* \"#utility.yul\":591:596   */\n      0x00\n        /* \"#utility.yul\":629:635   */\n      dup2\n        /* \"#utility.yul\":616:636   */\n      calldataload\n        /* \"#utility.yul\":607:636   */\n      swap1\n      pop\n        /* \"#utility.yul\":645:678   */\n      tag_413\n        /* \"#utility.yul\":672:677   */\n      dup2\n        /* \"#utility.yul\":645:678   */\n      tag_298\n      jump\t// in\n    tag_413:\n        /* \"#utility.yul\":545:684   */\n      swap3\n      swap2\n      pop\n      pop\n      jump\t// out\n        /* \"#utility.yul\":690:1019   */\n    tag_24:\n        /* \"#utility.yul\":749:755   */\n      0x00\n        /* \"#utility.yul\":798:800   */\n      0x20\n        /* \"#utility.yul\":786:795   */\n      dup3\n        /* \"#utility.yul\":777:784   */\n      dup5\n        /* \"#utility.yul\":773:796   */\n      sub\n        /* \"#utility.yul\":769:801   */\n      slt\n        /* \"#utility.yul\":766:885   */\n      iszero\n      tag_415\n      jumpi\n        /* \"#utility.yul\":804:883   */\n      tag_416\n      tag_295\n      jump\t// in\n    tag_416:\n        /* \"#utility.yul\":766:885   */\n    tag_415:\n        /* \"#utility.yul\":924:925   */\n      0x00\n        /* \"#utility.yul\":949:1002   */\n      tag_417\n        /* \"#utility.yul\":994:1001   */\n      dup5\n        /* \"#utility.yul\":985:991   */\n      dup3\n        /* \"#utility.yul\":974:983   */\n      dup6\n        /* \"#utility.yul\":970:992   */\n      add\n        /* \"#utility.yul\":949:1002   */\n      tag_299\n      jump\t// in\n    tag_417:\n        /* \"#utility.yul\":939:1002   */\n      swap2\n      pop\n        /* \"#utility.yul\":895:1012   */\n      pop\n        /* \"#utility.yul\":690:1019   */\n      swap3\n      swap2\n      pop\n      pop\n      jump\t// out\n        /* \"#utility.yul\":1025:1143   */\n    tag_300:\n        /* \"#utility.yul\":1112:1136   */\n      tag_419\n        /* \"#utility.yul\":1130:1135   */\n      dup2\n        /* \"#utility.yul\":1112:1136   */\n      tag_297\n      jump\t// in\n    tag_419:\n        /* \"#utility.yul\":1107:1110   */\n      dup3\n        /* \"#utility.yul\":1100:1137   */\n      mstore\n        /* \"#utility.yul\":1025:1143   */\n      pop\n      pop\n      jump\t// out\n        /* \"#utility.yul\":1149:1371   */\n    tag_30:\n        /* \"#utility.yul\":1242:1246   */\n      0x00\n        /* \"#utility.yul\":1280:1282   */\n      0x20\n        /* \"#utility.yul\":1269:1278   */\n      dup3\n        /* \"#utility.yul\":1265:1283   */\n      add\n        /* \"#utility.yul\":1257:1283   */\n      swap1\n      pop\n        /* \"#utility.yul\":1293:1364   */\n      tag_421\n        /* \"#utility.yul\":1361:1362   */\n      0x00\n        /* \"#utility.yul\":1350:1359   */\n      dup4\n        /* \"#utility.yul\":1346:1363   */\n      add\n        /* \"#utility.yul\":1337:1343   */\n      dup5\n        /* \"#utility.yul\":1293:1364   */\n      tag_300\n      jump\t// in\n    tag_421:\n        /* \"#utility.yul\":1149:1371   */\n      swap3\n      swap2\n      pop\n      pop\n      jump\t// out\n        /* \"#utility.yul\":1377:1476   */\n    tag_301:\n        /* \"#utility.yul\":1429:1435   */\n      0x00\n        /* \"#utility.yul\":1463:1468   */\n      dup2\n        /* \"#utility.yul\":1457:1469   */\n      mload\n        /* \"#utility.yul\":1447:1469   */\n      swap1\n      pop\n        /* \"#utility.yul\":1377:1476   */\n      swap2\n      swap1\n      pop\n      jump\t// out\n        /* \"#utility.yul\":1482:1651   */\n    tag_302:\n        /* \"#utility.yul\":1566:1577   */\n      0x00\n        /* \"#utility.yul\":1600:1606   */\n      dup3\n        /* \"#utility.yul\":1595:1598   */\n      dup3\n        /* \"#utility.yul\":1588:1607   */\n      mstore\n        /* \"#utility.yul\":1640:1644   */\n      0x20\n        /* \"#utility.yul\":1635:1638   */\n      dup3\n        /* \"#utility.yul\":1631:1645   */\n      add\n        /* \"#utility.yul\":1616:1645   */\n      swap1\n      pop\n        /* \"#utility.yul\":1482:1651   */\n      swap3\n      swap2\n      pop\n      pop\n      jump\t// out\n        /* \"#utility.yul\":1657:1796   */\n    tag_303:\n        /* \"#utility.yul\":1746:1752   */\n      dup3\n        /* \"#utility.yul\":1741:1744   */\n      dup2\n        /* \"#utility.yul\":1736:1739   */\n      dup4\n        /* \"#utility.yul\":1730:1753   */\n      mcopy\n        /* \"#utility.yul\":1787:1788   */\n      0x00\n        /* \"#utility.yul\":1778:1784   */\n      dup4\n        /* \"#utility.yul\":1773:1776   */\n      dup4\n        /* \"#utility.yul\":1769:1785   */\n      add\n        /* \"#utility.yul\":1762:1789   */\n      mstore\n        /* \"#utility.yul\":1657:1796   */\n      pop\n      pop\n      pop\n      jump\t// out\n        /* \"#utility.yul\":1802:1904   */\n    tag_304:\n        /* \"#utility.yul\":1843:1849   */\n      0x00\n        /* \"#utility.yul\":1894:1896   */\n      0x1f\n        /* \"#utility.yul\":1890:1897   */\n      not\n        /* \"#utility.yul\":1885:1887   */\n      0x1f\n        /* \"#utility.yul\":1878:1883   */\n      dup4\n        /* \"#utility.yul\":1874:1888   */\n      add\n        /* \"#utility.yul\":1870:1898   */\n      and\n        /* \"#utility.yul\":1860:1898   */\n      swap1\n      pop\n        /* \"#utility.yul\":1802:1904   */\n      swap2\n      swap1\n      pop\n      jump\t// out\n        /* \"#utility.yul\":1910:2287   */\n    tag_305:\n        /* \"#utility.yul\":1998:2001   */\n      0x00\n        /* \"#utility.yul\":2026:2065   */\n      tag_427\n        /* \"#utility.yul\":2059:2064   */\n      dup3\n        /* \"#utility.yul\":2026:2065   */\n      tag_301\n      jump\t// in\n    tag_427:\n        /* \"#utility.yul\":2081:2152   */\n      tag_428\n        /* \"#utility.yul\":2145:2151   */\n      dup2\n        /* \"#utility.yul\":2140:2143   */\n      dup6\n        /* \"#utility.yul\":2081:2152   */\n      tag_302\n      jump\t// in\n    tag_428:\n        /* \"#utility.yul\":2074:2152   */\n      swap4\n      pop\n        /* \"#utility.yul\":2161:2226   */\n      tag_429\n        /* \"#utility.yul\":2219:2225   */\n      dup2\n        /* \"#utility.yul\":2214:2217   */\n      dup6\n        /* \"#utility.yul\":2207:2211   */\n      0x20\n        /* \"#utility.yul\":2200:2205   */\n      dup7\n        /* \"#utility.yul\":2196:2212   */\n      add\n        /* \"#utility.yul\":2161:2226   */\n      tag_303\n      jump\t// in\n    tag_429:\n        /* \"#utility.yul\":2251:2280   */\n      tag_430\n        /* \"#utility.yul\":2273:2279   */\n      dup2\n        /* \"#utility.yul\":2251:2280   */\n      tag_304\n      jump\t// in\n    tag_430:\n        /* \"#utility.yul\":2246:2249   */\n      dup5\n        /* \"#utility.yul\":2242:2281   */\n      add\n        /* \"#utility.yul\":2235:2281   */\n      swap2\n      pop\n        /* \"#utility.yul\":2002:2287   */\n      pop\n        /* \"#utility.yul\":1910:2287   */\n      swap3\n      swap2\n      pop\n      pop\n      jump\t// out\n        /* \"#utility.yul\":2293:2606   */\n    tag_36:\n        /* \"#utility.yul\":2406:2410   */\n      0x00\n        /* \"#utility.yul\":2444:2446   */\n      0x20\n        /* \"#utility.yul\":2433:2442   */\n      dup3\n        /* \"#utility.yul\":2429:2447   */\n      add\n        /* \"#utility.yul\":2421:2447   */\n      swap1\n      pop\n        /* \"#utility.yul\":2493:2502   */\n      dup2\n        /* \"#utility.yul\":2487:2491   */\n      dup2\n        /* \"#utility.yul\":2483:2503   */\n      sub\n        /* \"#utility.yul\":2479:2480   */\n      0x00\n        /* \"#utility.yul\":2468:2477   */\n      dup4\n        /* \"#utility.yul\":2464:2481   */\n      add\n        /* \"#utility.yul\":2457:2504   */\n      mstore\n        /* \"#utility.yul\":2521:2599   */\n      tag_432\n        /* \"#utility.yul\":2594:2598   */\n      dup2\n        /* \"#utility.yul\":2585:2591   */\n      dup5\n        /* \"#utility.yul\":2521:2599   */\n      tag_305\n      jump\t// in\n    tag_432:\n        /* \"#utility.yul\":2513:2599   */\n      swap1\n      pop\n        /* \"#utility.yul\":2293:2606   */\n      swap3\n      swap2\n      pop\n      pop\n      jump\t// out\n        /* \"#utility.yul\":2612:2792   */\n    tag_108:\n        /* \"#utility.yul\":2660:2737   */\n      0x4e487b7100000000000000000000000000000000000000000000000000000000\n        /* \"#utility.yul\":2657:2658   */\n      0x00\n        /* \"#utility.yul\":2650:2738   */\n      mstore\n        /* \"#utility.yul\":2757:2761   */\n      0x21\n        /* \"#utility.yul\":2754:2755   */\n      0x04\n        /* \"#utility.yul\":2747:2762   */\n      mstore\n        /* \"#utility.yul\":2781:2785   */\n      0x24\n        /* \"#utility.yul\":2778:2779   */\n      0x00\n        /* \"#utility.yul\":2771:2786   */\n      revert\n        /* \"#utility.yul\":2798:2920   */\n    tag_306:\n        /* \"#utility.yul\":2888:2889   */\n      0x04\n        /* \"#utility.yul\":2881:2886   */\n      dup2\n        /* \"#utility.yul\":2878:2890   */\n      lt\n        /* \"#utility.yul\":2868:2914   */\n      tag_435\n      jumpi\n        /* \"#utility.yul\":2894:2912   */\n      tag_436\n      tag_108\n      jump\t// in\n    tag_436:\n        /* \"#utility.yul\":2868:2914   */\n    tag_435:\n        /* \"#utility.yul\":2798:2920   */\n      pop\n      jump\t// out\n        /* \"#utility.yul\":2926:3071   */\n    tag_307:\n        /* \"#utility.yul\":2980:2987   */\n      0x00\n        /* \"#utility.yul\":3009:3014   */\n      dup2\n        /* \"#utility.yul\":2998:3014   */\n      swap1\n      pop\n        /* \"#utility.yul\":3015:3065   */\n      tag_438\n        /* \"#utility.yul\":3059:3064   */\n      dup3\n        /* \"#utility.yul\":3015:3065   */\n      tag_306\n      jump\t// in\n    tag_438:\n        /* \"#utility.yul\":2926:3071   */\n      swap2\n      swap1\n      pop\n      jump\t// out\n        /* \"#utility.yul\":3077:3222   */\n    tag_308:\n        /* \"#utility.yul\":3142:3151   */\n      0x00\n        /* \"#utility.yul\":3175:3216   */\n      tag_440\n        /* \"#utility.yul\":3210:3215   */\n      dup3\n        /* \"#utility.yul\":3175:3216   */\n      tag_307\n      jump\t// in\n    tag_440:\n        /* \"#utility.yul\":3162:3216   */\n      swap1\n      pop\n        /* \"#utility.yul\":3077:3222   */\n      swap2\n      swap1\n      pop\n      jump\t// out\n        /* \"#utility.yul\":3228:3389   */\n    tag_309:\n        /* \"#utility.yul\":3330:3382   */\n      tag_442\n        /* \"#utility.yul\":3376:3381   */\n      dup2\n        /* \"#utility.yul\":3330:3382   */\n      tag_308\n      jump\t// in\n    tag_442:\n        /* \"#utility.yul\":3325:3328   */\n      dup3\n        /* \"#utility.yul\":3318:3383   */\n      mstore\n        /* \"#utility.yul\":3228:3389   */\n      pop\n      pop\n      jump\t// out\n        /* \"#utility.yul\":3395:3647   */\n    tag_42:\n        /* \"#utility.yul\":3503:3507   */\n      0x00\n        /* \"#utility.yul\":3541:3543   */\n      0x20\n        /* \"#utility.yul\":3530:3539   */\n      dup3\n        /* \"#utility.yul\":3526:3544   */\n      add\n        /* \"#utility.yul\":3518:3544   */\n      swap1\n      pop\n        /* \"#utility.yul\":3554:3640   */\n      tag_444\n        /* \"#utility.yul\":3637:3638   */\n      0x00\n        /* \"#utility.yul\":3626:3635   */\n      dup4\n        /* \"#utility.yul\":3622:3639   */\n      add\n        /* \"#utility.yul\":3613:3619   */\n      dup5\n        /* \"#utility.yul\":3554:3640   */\n      tag_309\n      jump\t// in\n    tag_444:\n        /* \"#utility.yul\":3395:3647   */\n      swap3\n      swap2\n      pop\n      pop\n      jump\t// out\n        /* \"#utility.yul\":3653:3779   */\n    tag_310:\n        /* \"#utility.yul\":3690:3697   */\n      0x00\n        /* \"#utility.yul\":3730:3772   */\n      0xffffffffffffffffffffffffffffffffffffffff\n        /* \"#utility.yul\":3723:3728   */\n      dup3\n        /* \"#utility.yul\":3719:3773   */\n      and\n        /* \"#utility.yul\":3708:3773   */\n      swap1\n      pop\n        /* \"#utility.yul\":3653:3779   */\n      swap2\n      swap1\n      pop\n      jump\t// out\n        /* \"#utility.yul\":3785:3889   */\n    tag_311:\n        /* \"#utility.yul\":3830:3837   */\n      0x00\n        /* \"#utility.yul\":3859:3883   */\n      tag_447\n        /* \"#utility.yul\":3877:3882   */\n      dup3\n        /* \"#utility.yul\":3859:3883   */\n      tag_310\n      jump\t// in\n    tag_447:\n        /* \"#utility.yul\":3848:3883   */\n      swap1\n      pop\n        /* \"#utility.yul\":3785:3889   */\n      swap2\n      swap1\n      pop\n      jump\t// out\n        /* \"#utility.yul\":3895:4037   */\n    tag_312:\n        /* \"#utility.yul\":3998:4030   */\n      tag_449\n        /* \"#utility.yul\":4024:4029   */\n      dup2\n        /* \"#utility.yul\":3998:4030   */\n      tag_311\n      jump\t// in\n    tag_449:\n        /* \"#utility.yul\":3993:3996   */\n      dup3\n        /* \"#utility.yul\":3986:4031   */\n      mstore\n        /* \"#utility.yul\":3895:4037   */\n      pop\n      pop\n      jump\t// out\n        /* \"#utility.yul\":4043:4120   */\n    tag_313:\n        /* \"#utility.yul\":4080:4087   */\n      0x00\n        /* \"#utility.yul\":4109:4114   */\n      dup2\n        /* \"#utility.yul\":4098:4114   */\n      swap1\n      pop\n        /* \"#utility.yul\":4043:4120   */\n      swap2\n      swap1\n      pop\n      jump\t// out\n        /* \"#utility.yul\":4126:4244   */\n    tag_314:\n        /* \"#utility.yul\":4213:4237   */\n      tag_452\n        /* \"#utility.yul\":4231:4236   */\n      dup2\n        /* \"#utility.yul\":4213:4237   */\n      tag_313\n      jump\t// in\n    tag_452:\n        /* \"#utility.yul\":4208:4211   */\n      dup3\n        /* \"#utility.yul\":4201:4238   */\n      mstore\n        /* \"#utility.yul\":4126:4244   */\n      pop\n      pop\n      jump\t// out\n        /* \"#utility.yul\":4250:4340   */\n    tag_315:\n        /* \"#utility.yul\":4284:4291   */\n      0x00\n        /* \"#utility.yul\":4327:4332   */\n      dup2\n        /* \"#utility.yul\":4320:4333   */\n      iszero\n        /* \"#utility.yul\":4313:4334   */\n      iszero\n        /* \"#utility.yul\":4302:4334   */\n      swap1\n      pop\n        /* \"#utility.yul\":4250:4340   */\n      swap2\n      swap1\n      pop\n      jump\t// out\n        /* \"#utility.yul\":4346:4455   */\n    tag_316:\n        /* \"#utility.yul\":4427:4448   */\n      tag_455\n        /* \"#utility.yul\":4442:4447   */\n      dup2\n        /* \"#utility.yul\":4427:4448   */\n      tag_315\n      jump\t// in\n    tag_455:\n        /* \"#utility.yul\":4422:4425   */\n      dup3\n        /* \"#utility.yul\":4415:4449   */\n      mstore\n        /* \"#utility.yul\":4346:4455   */\n      pop\n      pop\n      jump\t// out\n        /* \"#utility.yul\":4461:5829   */\n    tag_52:\n        /* \"#utility.yul\":4855:4859   */\n      0x00\n        /* \"#utility.yul\":4893:4896   */\n      0x0140\n        /* \"#utility.yul\":4882:4891   */\n      dup3\n        /* \"#utility.yul\":4878:4897   */\n      add\n        /* \"#utility.yul\":4870:4897   */\n      swap1\n      pop\n        /* \"#utility.yul\":4907:4978   */\n      tag_457\n        /* \"#utility.yul\":4975:4976   */\n      0x00\n        /* \"#utility.yul\":4964:4973   */\n      dup4\n        /* \"#utility.yul\":4960:4977   */\n      add\n        /* \"#utility.yul\":4951:4957   */\n      dup14\n        /* \"#utility.yul\":4907:4978   */\n      tag_300\n      jump\t// in\n    tag_457:\n        /* \"#utility.yul\":4988:5060   */\n      tag_458\n        /* \"#utility.yul\":5056:5058   */\n      0x20\n        /* \"#utility.yul\":5045:5054   */\n      dup4\n        /* \"#utility.yul\":5041:5059   */\n      add\n        /* \"#utility.yul\":5032:5038   */\n      dup13\n        /* \"#utility.yul\":4988:5060   */\n      tag_300\n      jump\t// in\n    tag_458:\n        /* \"#utility.yul\":5070:5158   */\n      tag_459\n        /* \"#utility.yul\":5154:5156   */\n      0x40\n        /* \"#utility.yul\":5143:5152   */\n      dup4\n        /* \"#utility.yul\":5139:5157   */\n      add\n        /* \"#utility.yul\":5130:5136   */\n      dup12\n        /* \"#utility.yul\":5070:5158   */\n      tag_312\n      jump\t// in\n    tag_459:\n        /* \"#utility.yul\":5168:5256   */\n      tag_460\n        /* \"#utility.yul\":5252:5254   */\n      0x60\n        /* \"#utility.yul\":5241:5250   */\n      dup4\n        /* \"#utility.yul\":5237:5255   */\n      add\n        /* \"#utility.yul\":5228:5234   */\n      dup11\n        /* \"#utility.yul\":5168:5256   */\n      tag_312\n      jump\t// in\n    tag_460:\n        /* \"#utility.yul\":5266:5354   */\n      tag_461\n        /* \"#utility.yul\":5349:5352   */\n      0x80\n        /* \"#utility.yul\":5338:5347   */\n      dup4\n        /* \"#utility.yul\":5334:5353   */\n      add\n        /* \"#utility.yul\":5325:5331   */\n      dup10\n        /* \"#utility.yul\":5266:5354   */\n      tag_309\n      jump\t// in\n    tag_461:\n        /* \"#utility.yul\":5402:5411   */\n      dup2\n        /* \"#utility.yul\":5396:5400   */\n      dup2\n        /* \"#utility.yul\":5392:5412   */\n      sub\n        /* \"#utility.yul\":5386:5389   */\n      0xa0\n        /* \"#utility.yul\":5375:5384   */\n      dup4\n        /* \"#utility.yul\":5371:5390   */\n      add\n        /* \"#utility.yul\":5364:5413   */\n      mstore\n        /* \"#utility.yul\":5430:5508   */\n      tag_462\n        /* \"#utility.yul\":5503:5507   */\n      dup2\n        /* \"#utility.yul\":5494:5500   */\n      dup9\n        /* \"#utility.yul\":5430:5508   */\n      tag_305\n      jump\t// in\n    tag_462:\n        /* \"#utility.yul\":5422:5508   */\n      swap1\n      pop\n        /* \"#utility.yul\":5518:5591   */\n      tag_463\n        /* \"#utility.yul\":5586:5589   */\n      0xc0\n        /* \"#utility.yul\":5575:5584   */\n      dup4\n        /* \"#utility.yul\":5571:5590   */\n      add\n        /* \"#utility.yul\":5562:5568   */\n      dup8\n        /* \"#utility.yul\":5518:5591   */\n      tag_314\n      jump\t// in\n    tag_463:\n        /* \"#utility.yul\":5601:5668   */\n      tag_464\n        /* \"#utility.yul\":5663:5666   */\n      0xe0\n        /* \"#utility.yul\":5652:5661   */\n      dup4\n        /* \"#utility.yul\":5648:5667   */\n      add\n        /* \"#utility.yul\":5639:5645   */\n      dup7\n        /* \"#utility.yul\":5601:5668   */\n      tag_316\n      jump\t// in\n    tag_464:\n        /* \"#utility.yul\":5678:5745   */\n      tag_465\n        /* \"#utility.yul\":5740:5743   */\n      0x0100\n        /* \"#utility.yul\":5729:5738   */\n      dup4\n        /* \"#utility.yul\":5725:5744   */\n      add\n        /* \"#utility.yul\":5716:5722   */\n      dup6\n        /* \"#utility.yul\":5678:5745   */\n      tag_316\n      jump\t// in\n    tag_465:\n        /* \"#utility.yul\":5755:5822   */\n      tag_466\n        /* \"#utility.yul\":5817:5820   */\n      0x0120\n        /* \"#utility.yul\":5806:5815   */\n      dup4\n        /* \"#utility.yul\":5802:5821   */\n      add\n        /* \"#utility.yul\":5793:5799   */\n      dup5\n        /* \"#utility.yul\":5755:5822   */\n      tag_316\n      jump\t// in\n    tag_466:\n        /* \"#utility.yul\":4461:5829   */\n      swap12\n      swap11\n      pop\n      pop\n      pop\n      pop\n      pop\n      pop\n      pop\n      pop\n      pop\n      pop\n      pop\n      jump\t// out\n        /* \"#utility.yul\":5835:5952   */\n    tag_317:\n        /* \"#utility.yul\":5944:5945   */\n      0x00\n        /* \"#utility.yul\":5941:5942   */\n      0x00\n        /* \"#utility.yul\":5934:5946   */\n      revert\n        /* \"#utility.yul\":5958:6075   */\n    tag_318:\n        /* \"#utility.yul\":6067:6068   */\n      0x00\n        /* \"#utility.yul\":6064:6065   */\n      0x00\n        /* \"#utility.yul\":6057:6069   */\n      revert\n        /* \"#utility.yul\":6081:6261   */\n    tag_319:\n        /* \"#utility.yul\":6129:6206   */\n      0x4e487b7100000000000000000000000000000000000000000000000000000000\n        /* \"#utility.yul\":6126:6127   */\n      0x00\n        /* \"#utility.yul\":6119:6207   */\n      mstore\n        /* \"#utility.yul\":6226:6230   */\n      0x41\n        /* \"#utility.yul\":6223:6224   */\n      0x04\n        /* \"#utility.yul\":6216:6231   */\n      mstore\n        /* \"#utility.yul\":6250:6254   */\n      0x24\n        /* \"#utility.yul\":6247:6248   */\n      0x00\n        /* \"#utility.yul\":6240:6255   */\n      revert\n        /* \"#utility.yul\":6267:6548   */\n    tag_320:\n        /* \"#utility.yul\":6350:6377   */\n      tag_471\n        /* \"#utility.yul\":6372:6376   */\n      dup3\n        /* \"#utility.yul\":6350:6377   */\n      tag_304\n      jump\t// in\n    tag_471:\n        /* \"#utility.yul\":6342:6348   */\n      dup2\n        /* \"#utility.yul\":6338:6378   */\n      add\n        /* \"#utility.yul\":6480:6486   */\n      dup2\n        /* \"#utility.yul\":6468:6478   */\n      dup2\n        /* \"#utility.yul\":6465:6487   */\n      lt\n        /* \"#utility.yul\":6444:6462   */\n      0xffffffffffffffff\n        /* \"#utility.yul\":6432:6442   */\n      dup3\n        /* \"#utility.yul\":6429:6463   */\n      gt\n        /* \"#utility.yul\":6426:6488   */\n      or\n        /* \"#utility.yul\":6423:6511   */\n      iszero\n      tag_472\n      jumpi\n        /* \"#utility.yul\":6491:6509   */\n      tag_473\n      tag_319\n      jump\t// in\n    tag_473:\n        /* \"#utility.yul\":6423:6511   */\n    tag_472:\n        /* \"#utility.yul\":6531:6541   */\n      dup1\n        /* \"#utility.yul\":6527:6529   */\n      0x40\n        /* \"#utility.yul\":6520:6542   */\n      mstore\n        /* \"#utility.yul\":6310:6548   */\n      pop\n        /* \"#utility.yul\":6267:6548   */\n      pop\n      pop\n      jump\t// out\n        /* \"#utility.yul\":6554:6683   */\n    tag_321:\n        /* \"#utility.yul\":6588:6594   */\n      0x00\n        /* \"#utility.yul\":6615:6635   */\n      tag_475\n      tag_294\n      jump\t// in\n    tag_475:\n        /* \"#utility.yul\":6605:6635   */\n      swap1\n      pop\n        /* \"#utility.yul\":6644:6677   */\n      tag_476\n        /* \"#utility.yul\":6672:6676   */\n      dup3\n        /* \"#utility.yul\":6664:6670   */\n      dup3\n        /* \"#utility.yul\":6644:6677   */\n      tag_320\n      jump\t// in\n    tag_476:\n        /* \"#utility.yul\":6554:6683   */\n      swap2\n      swap1\n      pop\n      jump\t// out\n        /* \"#utility.yul\":6689:6997   */\n    tag_322:\n        /* \"#utility.yul\":6751:6755   */\n      0x00\n        /* \"#utility.yul\":6841:6859   */\n      0xffffffffffffffff\n        /* \"#utility.yul\":6833:6839   */\n      dup3\n        /* \"#utility.yul\":6830:6860   */\n      gt\n        /* \"#utility.yul\":6827:6883   */\n      iszero\n      tag_478\n      jumpi\n        /* \"#utility.yul\":6863:6881   */\n      tag_479\n      tag_319\n      jump\t// in\n    tag_479:\n        /* \"#utility.yul\":6827:6883   */\n    tag_478:\n        /* \"#utility.yul\":6901:6930   */\n      tag_480\n        /* \"#utility.yul\":6923:6929   */\n      dup3\n        /* \"#utility.yul\":6901:6930   */\n      tag_304\n      jump\t// in\n    tag_480:\n        /* \"#utility.yul\":6893:6930   */\n      swap1\n      pop\n        /* \"#utility.yul\":6985:6989   */\n      0x20\n        /* \"#utility.yul\":6979:6983   */\n      dup2\n        /* \"#utility.yul\":6975:6990   */\n      add\n        /* \"#utility.yul\":6967:6990   */\n      swap1\n      pop\n        /* \"#utility.yul\":6689:6997   */\n      swap2\n      swap1\n      pop\n      jump\t// out\n        /* \"#utility.yul\":7003:7151   */\n    tag_323:\n        /* \"#utility.yul\":7101:7107   */\n      dup3\n        /* \"#utility.yul\":7096:7099   */\n      dup2\n        /* \"#utility.yul\":7091:7094   */\n      dup4\n        /* \"#utility.yul\":7078:7108   */\n      calldatacopy\n        /* \"#utility.yul\":7142:7143   */\n      0x00\n        /* \"#utility.yul\":7133:7139   */\n      dup4\n        /* \"#utility.yul\":7128:7131   */\n      dup4\n        /* \"#utility.yul\":7124:7140   */\n      add\n        /* \"#utility.yul\":7117:7144   */\n      mstore\n        /* \"#utility.yul\":7003:7151   */\n      pop\n      pop\n      pop\n      jump\t// out\n        /* \"#utility.yul\":7157:7582   */\n    tag_324:\n        /* \"#utility.yul\":7235:7240   */\n      0x00\n        /* \"#utility.yul\":7260:7326   */\n      tag_483\n        /* \"#utility.yul\":7276:7325   */\n      tag_484\n        /* \"#utility.yul\":7318:7324   */\n      dup5\n        /* \"#utility.yul\":7276:7325   */\n      tag_322\n      jump\t// in\n    tag_484:\n        /* \"#utility.yul\":7260:7326   */\n      tag_321\n      jump\t// in\n    tag_483:\n        /* \"#utility.yul\":7251:7326   */\n      swap1\n      pop\n        /* \"#utility.yul\":7349:7355   */\n      dup3\n        /* \"#utility.yul\":7342:7347   */\n      dup2\n        /* \"#utility.yul\":7335:7356   */\n      mstore\n        /* \"#utility.yul\":7387:7391   */\n      0x20\n        /* \"#utility.yul\":7380:7385   */\n      dup2\n        /* \"#utility.yul\":7376:7392   */\n      add\n        /* \"#utility.yul\":7425:7428   */\n      dup5\n        /* \"#utility.yul\":7416:7422   */\n      dup5\n        /* \"#utility.yul\":7411:7414   */\n      dup5\n        /* \"#utility.yul\":7407:7423   */\n      add\n        /* \"#utility.yul\":7404:7429   */\n      gt\n        /* \"#utility.yul\":7401:7513   */\n      iszero\n      tag_485\n      jumpi\n        /* \"#utility.yul\":7432:7511   */\n      tag_486\n      tag_318\n      jump\t// in\n    tag_486:\n        /* \"#utility.yul\":7401:7513   */\n    tag_485:\n        /* \"#utility.yul\":7522:7576   */\n      tag_487\n        /* \"#utility.yul\":7569:7575   */\n      dup5\n        /* \"#utility.yul\":7564:7567   */\n      dup3\n        /* \"#utility.yul\":7559:7562   */\n      dup6\n        /* \"#utility.yul\":7522:7576   */\n      tag_323\n      jump\t// in\n    tag_487:\n        /* \"#utility.yul\":7241:7582   */\n      pop\n        /* \"#utility.yul\":7157:7582   */\n      swap4\n      swap3\n      pop\n      pop\n      pop\n      jump\t// out\n        /* \"#utility.yul\":7602:7942   */\n    tag_325:\n        /* \"#utility.yul\":7658:7663   */\n      0x00\n        /* \"#utility.yul\":7707:7710   */\n      dup3\n        /* \"#utility.yul\":7700:7704   */\n      0x1f\n        /* \"#utility.yul\":7692:7698   */\n      dup4\n        /* \"#utility.yul\":7688:7705   */\n      add\n        /* \"#utility.yul\":7684:7711   */\n      slt\n        /* \"#utility.yul\":7674:7796   */\n      tag_489\n      jumpi\n        /* \"#utility.yul\":7715:7794   */\n      tag_490\n      tag_317\n      jump\t// in\n    tag_490:\n        /* \"#utility.yul\":7674:7796   */\n    tag_489:\n        /* \"#utility.yul\":7832:7838   */\n      dup2\n        /* \"#utility.yul\":7819:7839   */\n      calldataload\n        /* \"#utility.yul\":7857:7936   */\n      tag_491\n        /* \"#utility.yul\":7932:7935   */\n      dup5\n        /* \"#utility.yul\":7924:7930   */\n      dup3\n        /* \"#utility.yul\":7917:7921   */\n      0x20\n        /* \"#utility.yul\":7909:7915   */\n      dup7\n        /* \"#utility.yul\":7905:7922   */\n      add\n        /* \"#utility.yul\":7857:7936   */\n      tag_324\n      jump\t// in\n    tag_491:\n        /* \"#utility.yul\":7848:7936   */\n      swap2\n      pop\n        /* \"#utility.yul\":7664:7942   */\n      pop\n        /* \"#utility.yul\":7602:7942   */\n      swap3\n      swap2\n      pop\n      pop\n      jump\t// out\n        /* \"#utility.yul\":7948:8602   */\n    tag_56:\n        /* \"#utility.yul\":8026:8032   */\n      0x00\n        /* \"#utility.yul\":8034:8040   */\n      0x00\n        /* \"#utility.yul\":8083:8085   */\n      0x40\n        /* \"#utility.yul\":8071:8080   */\n      dup4\n        /* \"#utility.yul\":8062:8069   */\n      dup6\n        /* \"#utility.yul\":8058:8081   */\n      sub\n        /* \"#utility.yul\":8054:8086   */\n      slt\n        /* \"#utility.yul\":8051:8170   */\n      iszero\n      tag_493\n      jumpi\n        /* \"#utility.yul\":8089:8168   */\n      tag_494\n      tag_295\n      jump\t// in\n    tag_494:\n        /* \"#utility.yul\":8051:8170   */\n    tag_493:\n        /* \"#utility.yul\":8209:8210   */\n      0x00\n        /* \"#utility.yul\":8234:8287   */\n      tag_495\n        /* \"#utility.yul\":8279:8286   */\n      dup6\n        /* \"#utility.yul\":8270:8276   */\n      dup3\n        /* \"#utility.yul\":8259:8268   */\n      dup7\n        /* \"#utility.yul\":8255:8277   */\n      add\n        /* \"#utility.yul\":8234:8287   */\n      tag_299\n      jump\t// in\n    tag_495:\n        /* \"#utility.yul\":8224:8287   */\n      swap3\n      pop\n        /* \"#utility.yul\":8180:8297   */\n      pop\n        /* \"#utility.yul\":8364:8366   */\n      0x20\n        /* \"#utility.yul\":8353:8362   */\n      dup4\n        /* \"#utility.yul\":8349:8367   */\n      add\n        /* \"#utility.yul\":8336:8368   */\n      calldataload\n        /* \"#utility.yul\":8395:8413   */\n      0xffffffffffffffff\n        /* \"#utility.yul\":8387:8393   */\n      dup2\n        /* \"#utility.yul\":8384:8414   */\n      gt\n        /* \"#utility.yul\":8381:8498   */\n      iszero\n      tag_496\n      jumpi\n        /* \"#utility.yul\":8417:8496   */\n      tag_497\n      tag_296\n      jump\t// in\n    tag_497:\n        /* \"#utility.yul\":8381:8498   */\n    tag_496:\n        /* \"#utility.yul\":8522:8585   */\n      tag_498\n        /* \"#utility.yul\":8577:8584   */\n      dup6\n        /* \"#utility.yul\":8568:8574   */\n      dup3\n        /* \"#utility.yul\":8557:8566   */\n      dup7\n        /* \"#utility.yul\":8553:8575   */\n      add\n        /* \"#utility.yul\":8522:8585   */\n      tag_325\n      jump\t// in\n    tag_498:\n        /* \"#utility.yul\":8512:8585   */\n      swap2\n      pop\n        /* \"#utility.yul\":8307:8595   */\n      pop\n        /* \"#utility.yul\":7948:8602   */\n      swap3\n      pop\n      swap3\n      swap1\n      pop\n      jump\t// out\n        /* \"#utility.yul\":8608:8704   */\n    tag_326:\n        /* \"#utility.yul\":8645:8652   */\n      0x00\n        /* \"#utility.yul\":8674:8698   */\n      tag_500\n        /* \"#utility.yul\":8692:8697   */\n      dup3\n        /* \"#utility.yul\":8674:8698   */\n      tag_310\n      jump\t// in\n    tag_500:\n        /* \"#utility.yul\":8663:8698   */\n      swap1\n      pop\n        /* \"#utility.yul\":8608:8704   */\n      swap2\n      swap1\n      pop\n      jump\t// out\n        /* \"#utility.yul\":8710:8832   */\n    tag_327:\n        /* \"#utility.yul\":8783:8807   */\n      tag_502\n        /* \"#utility.yul\":8801:8806   */\n      dup2\n        /* \"#utility.yul\":8783:8807   */\n      tag_326\n      jump\t// in\n    tag_502:\n        /* \"#utility.yul\":8776:8781   */\n      dup2\n        /* \"#utility.yul\":8773:8808   */\n      eq\n        /* \"#utility.yul\":8763:8826   */\n      tag_503\n      jumpi\n        /* \"#utility.yul\":8822:8823   */\n      0x00\n        /* \"#utility.yul\":8819:8820   */\n      0x00\n        /* \"#utility.yul\":8812:8824   */\n      revert\n        /* \"#utility.yul\":8763:8826   */\n    tag_503:\n        /* \"#utility.yul\":8710:8832   */\n      pop\n      jump\t// out\n        /* \"#utility.yul\":8838:8977   */\n    tag_328:\n        /* \"#utility.yul\":8884:8889   */\n      0x00\n        /* \"#utility.yul\":8922:8928   */\n      dup2\n        /* \"#utility.yul\":8909:8929   */\n      calldataload\n        /* \"#utility.yul\":8900:8929   */\n      swap1\n      pop\n        /* \"#utility.yul\":8938:8971   */\n      tag_505\n        /* \"#utility.yul\":8965:8970   */\n      dup2\n        /* \"#utility.yul\":8938:8971   */\n      tag_327\n      jump\t// in\n    tag_505:\n        /* \"#utility.yul\":8838:8977   */\n      swap3\n      swap2\n      pop\n      pop\n      jump\t// out\n        /* \"#utility.yul\":8983:9312   */\n    tag_61:\n        /* \"#utility.yul\":9042:9048   */\n      0x00\n        /* \"#utility.yul\":9091:9093   */\n      0x20\n        /* \"#utility.yul\":9079:9088   */\n      dup3\n        /* \"#utility.yul\":9070:9077   */\n      dup5\n        /* \"#utility.yul\":9066:9089   */\n      sub\n        /* \"#utility.yul\":9062:9094   */\n      slt\n        /* \"#utility.yul\":9059:9178   */\n      iszero\n      tag_507\n      jumpi\n        /* \"#utility.yul\":9097:9176   */\n      tag_508\n      tag_295\n      jump\t// in\n    tag_508:\n        /* \"#utility.yul\":9059:9178   */\n    tag_507:\n        /* \"#utility.yul\":9217:9218   */\n      0x00\n        /* \"#utility.yul\":9242:9295   */\n      tag_509\n        /* \"#utility.yul\":9287:9294   */\n      dup5\n        /* \"#utility.yul\":9278:9284   */\n      dup3\n        /* \"#utility.yul\":9267:9276   */\n      dup6\n        /* \"#utility.yul\":9263:9285   */\n      add\n        /* \"#utility.yul\":9242:9295   */\n      tag_328\n      jump\t// in\n    tag_509:\n        /* \"#utility.yul\":9232:9295   */\n      swap2\n      pop\n        /* \"#utility.yul\":9188:9305   */\n      pop\n        /* \"#utility.yul\":8983:9312   */\n      swap3\n      swap2\n      pop\n      pop\n      jump\t// out\n        /* \"#utility.yul\":9318:9436   */\n    tag_329:\n        /* \"#utility.yul\":9405:9429   */\n      tag_511\n        /* \"#utility.yul\":9423:9428   */\n      dup2\n        /* \"#utility.yul\":9405:9429   */\n      tag_326\n      jump\t// in\n    tag_511:\n        /* \"#utility.yul\":9400:9403   */\n      dup3\n        /* \"#utility.yul\":9393:9430   */\n      mstore\n        /* \"#utility.yul\":9318:9436   */\n      pop\n      pop\n      jump\t// out\n        /* \"#utility.yul\":9442:9664   */\n    tag_67:\n        /* \"#utility.yul\":9535:9539   */\n      0x00\n        /* \"#utility.yul\":9573:9575   */\n      0x20\n        /* \"#utility.yul\":9562:9571   */\n      dup3\n        /* \"#utility.yul\":9558:9576   */\n      add\n        /* \"#utility.yul\":9550:9576   */\n      swap1\n      pop\n        /* \"#utility.yul\":9586:9657   */\n      tag_513\n        /* \"#utility.yul\":9654:9655   */\n      0x00\n        /* \"#utility.yul\":9643:9652   */\n      dup4\n        /* \"#utility.yul\":9639:9656   */\n      add\n        /* \"#utility.yul\":9630:9636   */\n      dup5\n        /* \"#utility.yul\":9586:9657   */\n      tag_329\n      jump\t// in\n    tag_513:\n        /* \"#utility.yul\":9442:9664   */\n      swap3\n      swap2\n      pop\n      pop\n      jump\t// out\n        /* \"#utility.yul\":9670:9808   */\n    tag_330:\n        /* \"#utility.yul\":9751:9783   */\n      tag_515\n        /* \"#utility.yul\":9777:9782   */\n      dup2\n        /* \"#utility.yul\":9751:9783   */\n      tag_311\n      jump\t// in\n    tag_515:\n        /* \"#utility.yul\":9744:9749   */\n      dup2\n        /* \"#utility.yul\":9741:9784   */\n      eq\n        /* \"#utility.yul\":9731:9802   */\n      tag_516\n      jumpi\n        /* \"#utility.yul\":9798:9799   */\n      0x00\n        /* \"#utility.yul\":9795:9796   */\n      0x00\n        /* \"#utility.yul\":9788:9800   */\n      revert\n        /* \"#utility.yul\":9731:9802   */\n    tag_516:\n        /* \"#utility.yul\":9670:9808   */\n      pop\n      jump\t// out\n        /* \"#utility.yul\":9814:9969   */\n    tag_331:\n        /* \"#utility.yul\":9868:9873   */\n      0x00\n        /* \"#utility.yul\":9906:9912   */\n      dup2\n        /* \"#utility.yul\":9893:9913   */\n      calldataload\n        /* \"#utility.yul\":9884:9913   */\n      swap1\n      pop\n        /* \"#utility.yul\":9922:9963   */\n      tag_518\n        /* \"#utility.yul\":9957:9962   */\n      dup2\n        /* \"#utility.yul\":9922:9963   */\n      tag_330\n      jump\t// in\n    tag_518:\n        /* \"#utility.yul\":9814:9969   */\n      swap3\n      swap2\n      pop\n      pop\n      jump\t// out\n        /* \"#utility.yul\":9975:10790   */\n    tag_78:\n        /* \"#utility.yul\":10070:10076   */\n      0x00\n        /* \"#utility.yul\":10078:10084   */\n      0x00\n        /* \"#utility.yul\":10086:10092   */\n      0x00\n        /* \"#utility.yul\":10135:10137   */\n      0x60\n        /* \"#utility.yul\":10123:10132   */\n      dup5\n        /* \"#utility.yul\":10114:10121   */\n      dup7\n        /* \"#utility.yul\":10110:10133   */\n      sub\n        /* \"#utility.yul\":10106:10138   */\n      slt\n        /* \"#utility.yul\":10103:10222   */\n      iszero\n      tag_520\n      jumpi\n        /* \"#utility.yul\":10141:10220   */\n      tag_521\n      tag_295\n      jump\t// in\n    tag_521:\n        /* \"#utility.yul\":10103:10222   */\n    tag_520:\n        /* \"#utility.yul\":10261:10262   */\n      0x00\n        /* \"#utility.yul\":10286:10347   */\n      tag_522\n        /* \"#utility.yul\":10339:10346   */\n      dup7\n        /* \"#utility.yul\":10330:10336   */\n      dup3\n        /* \"#utility.yul\":10319:10328   */\n      dup8\n        /* \"#utility.yul\":10315:10337   */\n      add\n        /* \"#utility.yul\":10286:10347   */\n      tag_331\n      jump\t// in\n    tag_522:\n        /* \"#utility.yul\":10276:10347   */\n      swap4\n      pop\n        /* \"#utility.yul\":10232:10357   */\n      pop\n        /* \"#utility.yul\":10424:10426   */\n      0x20\n        /* \"#utility.yul\":10413:10422   */\n      dup5\n        /* \"#utility.yul\":10409:10427   */\n      add\n        /* \"#utility.yul\":10396:10428   */\n      calldataload\n        /* \"#utility.yul\":10455:10473   */\n      0xffffffffffffffff\n        /* \"#utility.yul\":10447:10453   */\n      dup2\n        /* \"#utility.yul\":10444:10474   */\n      gt\n        /* \"#utility.yul\":10441:10558   */\n      iszero\n      tag_523\n      jumpi\n        /* \"#utility.yul\":10477:10556   */\n      tag_524\n      tag_296\n      jump\t// in\n    tag_524:\n        /* \"#utility.yul\":10441:10558   */\n    tag_523:\n        /* \"#utility.yul\":10582:10645   */\n      tag_525\n        /* \"#utility.yul\":10637:10644   */\n      dup7\n        /* \"#utility.yul\":10628:10634   */\n      dup3\n        /* \"#utility.yul\":10617:10626   */\n      dup8\n        /* \"#utility.yul\":10613:10635   */\n      add\n        /* \"#utility.yul\":10582:10645   */\n      tag_325\n      jump\t// in\n    tag_525:\n        /* \"#utility.yul\":10572:10645   */\n      swap3\n      pop\n        /* \"#utility.yul\":10367:10655   */\n      pop\n        /* \"#utility.yul\":10694:10696   */\n      0x40\n        /* \"#utility.yul\":10720:10773   */\n      tag_526\n        /* \"#utility.yul\":10765:10772   */\n      dup7\n        /* \"#utility.yul\":10756:10762   */\n      dup3\n        /* \"#utility.yul\":10745:10754   */\n      dup8\n        /* \"#utility.yul\":10741:10763   */\n      add\n        /* \"#utility.yul\":10720:10773   */\n      tag_299\n      jump\t// in\n    tag_526:\n        /* \"#utility.yul\":10710:10773   */\n      swap2\n      pop\n        /* \"#utility.yul\":10665:10783   */\n      pop\n        /* \"#utility.yul\":9975:10790   */\n      swap3\n      pop\n      swap3\n      pop\n      swap3\n      jump\t// out\n        /* \"#utility.yul\":10796:11006   */\n    tag_92:\n        /* \"#utility.yul\":10883:10887   */\n      0x00\n        /* \"#utility.yul\":10921:10923   */\n      0x20\n        /* \"#utility.yul\":10910:10919   */\n      dup3\n        /* \"#utility.yul\":10906:10924   */\n      add\n        /* \"#utility.yul\":10898:10924   */\n      swap1\n      pop\n        /* \"#utility.yul\":10934:10999   */\n      tag_528\n        /* \"#utility.yul\":10996:10997   */\n      0x00\n        /* \"#utility.yul\":10985:10994   */\n      dup4\n        /* \"#utility.yul\":10981:10998   */\n      add\n        /* \"#utility.yul\":10972:10978   */\n      dup5\n        /* \"#utility.yul\":10934:10999   */\n      tag_316\n      jump\t// in\n    tag_528:\n        /* \"#utility.yul\":10796:11006   */\n      swap3\n      swap2\n      pop\n      pop\n      jump\t// out\n        /* \"#utility.yul\":11012:11173   */\n    tag_332:\n        /* \"#utility.yul\":11152:11165   */\n      0x4e6f742063726561746f72000000000000000000000000000000000000000000\n        /* \"#utility.yul\":11148:11149   */\n      0x00\n        /* \"#utility.yul\":11140:11146   */\n      dup3\n        /* \"#utility.yul\":11136:11150   */\n      add\n        /* \"#utility.yul\":11129:11166   */\n      mstore\n        /* \"#utility.yul\":11012:11173   */\n      pop\n      jump\t// out\n        /* \"#utility.yul\":11179:11545   */\n    tag_333:\n        /* \"#utility.yul\":11321:11324   */\n      0x00\n        /* \"#utility.yul\":11342:11409   */\n      tag_531\n        /* \"#utility.yul\":11406:11408   */\n      0x0b\n        /* \"#utility.yul\":11401:11404   */\n      dup4\n        /* \"#utility.yul\":11342:11409   */\n      tag_302\n      jump\t// in\n    tag_531:\n        /* \"#utility.yul\":11335:11409   */\n      swap2\n      pop\n        /* \"#utility.yul\":11418:11511   */\n      tag_532\n        /* \"#utility.yul\":11507:11510   */\n      dup3\n        /* \"#utility.yul\":11418:11511   */\n      tag_332\n      jump\t// in\n    tag_532:\n        /* \"#utility.yul\":11536:11538   */\n      0x20\n        /* \"#utility.yul\":11531:11534   */\n      dup3\n        /* \"#utility.yul\":11527:11539   */\n      add\n        /* \"#utility.yul\":11520:11539   */\n      swap1\n      pop\n        /* \"#utility.yul\":11179:11545   */\n      swap2\n      swap1\n      pop\n      jump\t// out\n        /* \"#utility.yul\":11551:11970   */\n    tag_101:\n        /* \"#utility.yul\":11717:11721   */\n      0x00\n        /* \"#utility.yul\":11755:11757   */\n      0x20\n        /* \"#utility.yul\":11744:11753   */\n      dup3\n        /* \"#utility.yul\":11740:11758   */\n      add\n        /* \"#utility.yul\":11732:11758   */\n      swap1\n      pop\n        /* \"#utility.yul\":11804:11813   */\n      dup2\n        /* \"#utility.yul\":11798:11802   */\n      dup2\n        /* \"#utility.yul\":11794:11814   */\n      sub\n        /* \"#utility.yul\":11790:11791   */\n      0x00\n        /* \"#utility.yul\":11779:11788   */\n      dup4\n        /* \"#utility.yul\":11775:11792   */\n      add\n        /* \"#utility.yul\":11768:11815   */\n      mstore\n        /* \"#utility.yul\":11832:11963   */\n      tag_534\n        /* \"#utility.yul\":11958:11962   */\n      dup2\n        /* \"#utility.yul\":11832:11963   */\n      tag_333\n      jump\t// in\n    tag_534:\n        /* \"#utility.yul\":11824:11963   */\n      swap1\n      pop\n        /* \"#utility.yul\":11551:11970   */\n      swap2\n      swap1\n      pop\n      jump\t// out\n        /* \"#utility.yul\":11976:12137   */\n    tag_334:\n        /* \"#utility.yul\":12116:12129   */\n      0x4e6f2064656c6976657279000000000000000000000000000000000000000000\n        /* \"#utility.yul\":12112:12113   */\n      0x00\n        /* \"#utility.yul\":12104:12110   */\n      dup3\n        /* \"#utility.yul\":12100:12114   */\n      add\n        /* \"#utility.yul\":12093:12130   */\n      mstore\n        /* \"#utility.yul\":11976:12137   */\n      pop\n      jump\t// out\n        /* \"#utility.yul\":12143:12509   */\n    tag_335:\n        /* \"#utility.yul\":12285:12288   */\n      0x00\n        /* \"#utility.yul\":12306:12373   */\n      tag_537\n        /* \"#utility.yul\":12370:12372   */\n      0x0b\n        /* \"#utility.yul\":12365:12368   */\n      dup4\n        /* \"#utility.yul\":12306:12373   */\n      tag_302\n      jump\t// in\n    tag_537:\n        /* \"#utility.yul\":12299:12373   */\n      swap2\n      pop\n        /* \"#utility.yul\":12382:12475   */\n      tag_538\n        /* \"#utility.yul\":12471:12474   */\n      dup3\n        /* \"#utility.yul\":12382:12475   */\n      tag_334\n      jump\t// in\n    tag_538:\n        /* \"#utility.yul\":12500:12502   */\n      0x20\n        /* \"#utility.yul\":12495:12498   */\n      dup3\n        /* \"#utility.yul\":12491:12503   */\n      add\n        /* \"#utility.yul\":12484:12503   */\n      swap1\n      pop\n        /* \"#utility.yul\":12143:12509   */\n      swap2\n      swap1\n      pop\n      jump\t// out\n        /* \"#utility.yul\":12515:12934   */\n    tag_105:\n        /* \"#utility.yul\":12681:12685   */\n      0x00\n        /* \"#utility.yul\":12719:12721   */\n      0x20\n        /* \"#utility.yul\":12708:12717   */\n      dup3\n        /* \"#utility.yul\":12704:12722   */\n      add\n        /* \"#utility.yul\":12696:12722   */\n      swap1\n      pop\n        /* \"#utility.yul\":12768:12777   */\n      dup2\n        /* \"#utility.yul\":12762:12766   */\n      dup2\n        /* \"#utility.yul\":12758:12778   */\n      sub\n        /* \"#utility.yul\":12754:12755   */\n      0x00\n        /* \"#utility.yul\":12743:12752   */\n      dup4\n        /* \"#utility.yul\":12739:12756   */\n      add\n        /* \"#utility.yul\":12732:12779   */\n      mstore\n        /* \"#utility.yul\":12796:12927   */\n      tag_540\n        /* \"#utility.yul\":12922:12926   */\n      dup2\n        /* \"#utility.yul\":12796:12927   */\n      tag_335\n      jump\t// in\n    tag_540:\n        /* \"#utility.yul\":12788:12927   */\n      swap1\n      pop\n        /* \"#utility.yul\":12515:12934   */\n      swap2\n      swap1\n      pop\n      jump\t// out\n        /* \"#utility.yul\":12940:13100   */\n    tag_336:\n        /* \"#utility.yul\":13080:13092   */\n      0x4e6f74205369676e656400000000000000000000000000000000000000000000\n        /* \"#utility.yul\":13076:13077   */\n      0x00\n        /* \"#utility.yul\":13068:13074   */\n      dup3\n        /* \"#utility.yul\":13064:13078   */\n      add\n        /* \"#utility.yul\":13057:13093   */\n      mstore\n        /* \"#utility.yul\":12940:13100   */\n      pop\n      jump\t// out\n        /* \"#utility.yul\":13106:13472   */\n    tag_337:\n        /* \"#utility.yul\":13248:13251   */\n      0x00\n        /* \"#utility.yul\":13269:13336   */\n      tag_543\n        /* \"#utility.yul\":13333:13335   */\n      0x0a\n        /* \"#utility.yul\":13328:13331   */\n      dup4\n        /* \"#utility.yul\":13269:13336   */\n      tag_302\n      jump\t// in\n    tag_543:\n        /* \"#utility.yul\":13262:13336   */\n      swap2\n      pop\n        /* \"#utility.yul\":13345:13438   */\n      tag_544\n        /* \"#utility.yul\":13434:13437   */\n      dup3\n        /* \"#utility.yul\":13345:13438   */\n      tag_336\n      jump\t// in\n    tag_544:\n        /* \"#utility.yul\":13463:13465   */\n      0x20\n        /* \"#utility.yul\":13458:13461   */\n      dup3\n        /* \"#utility.yul\":13454:13466   */\n      add\n        /* \"#utility.yul\":13447:13466   */\n      swap1\n      pop\n        /* \"#utility.yul\":13106:13472   */\n      swap2\n      swap1\n      pop\n      jump\t// out\n        /* \"#utility.yul\":13478:13897   */\n    tag_113:\n        /* \"#utility.yul\":13644:13648   */\n      0x00\n        /* \"#utility.yul\":13682:13684   */\n      0x20\n        /* \"#utility.yul\":13671:13680   */\n      dup3\n        /* \"#utility.yul\":13667:13685   */\n      add\n        /* \"#utility.yul\":13659:13685   */\n      swap1\n      pop\n        /* \"#utility.yul\":13731:13740   */\n      dup2\n        /* \"#utility.yul\":13725:13729   */\n      dup2\n        /* \"#utility.yul\":13721:13741   */\n      sub\n        /* \"#utility.yul\":13717:13718   */\n      0x00\n        /* \"#utility.yul\":13706:13715   */\n      dup4\n        /* \"#utility.yul\":13702:13719   */\n      add\n        /* \"#utility.yul\":13695:13742   */\n      mstore\n        /* \"#utility.yul\":13759:13890   */\n      tag_546\n        /* \"#utility.yul\":13885:13889   */\n      dup2\n        /* \"#utility.yul\":13759:13890   */\n      tag_337\n      jump\t// in\n    tag_546:\n        /* \"#utility.yul\":13751:13890   */\n      swap1\n      pop\n        /* \"#utility.yul\":13478:13897   */\n      swap2\n      swap1\n      pop\n      jump\t// out\n        /* \"#utility.yul\":13903:14069   */\n    tag_338:\n        /* \"#utility.yul\":14043:14061   */\n      0x44656c6976657279206d697373696e6700000000000000000000000000000000\n        /* \"#utility.yul\":14039:14040   */\n      0x00\n        /* \"#utility.yul\":14031:14037   */\n      dup3\n        /* \"#utility.yul\":14027:14041   */\n      add\n        /* \"#utility.yul\":14020:14062   */\n      mstore\n        /* \"#utility.yul\":13903:14069   */\n      pop\n      jump\t// out\n        /* \"#utility.yul\":14075:14441   */\n    tag_339:\n        /* \"#utility.yul\":14217:14220   */\n      0x00\n        /* \"#utility.yul\":14238:14305   */\n      tag_549\n        /* \"#utility.yul\":14302:14304   */\n      0x10\n        /* \"#utility.yul\":14297:14300   */\n      dup4\n        /* \"#utility.yul\":14238:14305   */\n      tag_302\n      jump\t// in\n    tag_549:\n        /* \"#utility.yul\":14231:14305   */\n      swap2\n      pop\n        /* \"#utility.yul\":14314:14407   */\n      tag_550\n        /* \"#utility.yul\":14403:14406   */\n      dup3\n        /* \"#utility.yul\":14314:14407   */\n      tag_338\n      jump\t// in\n    tag_550:\n        /* \"#utility.yul\":14432:14434   */\n      0x20\n        /* \"#utility.yul\":14427:14430   */\n      dup3\n        /* \"#utility.yul\":14423:14435   */\n      add\n        /* \"#utility.yul\":14416:14435   */\n      swap1\n      pop\n        /* \"#utility.yul\":14075:14441   */\n      swap2\n      swap1\n      pop\n      jump\t// out\n        /* \"#utility.yul\":14447:14866   */\n    tag_116:\n        /* \"#utility.yul\":14613:14617   */\n      0x00\n        /* \"#utility.yul\":14651:14653   */\n      0x20\n        /* \"#utility.yul\":14640:14649   */\n      dup3\n        /* \"#utility.yul\":14636:14654   */\n      add\n        /* \"#utility.yul\":14628:14654   */\n      swap1\n      pop\n        /* \"#utility.yul\":14700:14709   */\n      dup2\n        /* \"#utility.yul\":14694:14698   */\n      dup2\n        /* \"#utility.yul\":14690:14710   */\n      sub\n        /* \"#utility.yul\":14686:14687   */\n      0x00\n        /* \"#utility.yul\":14675:14684   */\n      dup4\n        /* \"#utility.yul\":14671:14688   */\n      add\n        /* \"#utility.yul\":14664:14711   */\n      mstore\n        /* \"#utility.yul\":14728:14859   */\n      tag_552\n        /* \"#utility.yul\":14854:14858   */\n      dup2\n        /* \"#utility.yul\":14728:14859   */\n      tag_339\n      jump\t// in\n    tag_552:\n        /* \"#utility.yul\":14720:14859   */\n      swap1\n      pop\n        /* \"#utility.yul\":14447:14866   */\n      swap2\n      swap1\n      pop\n      jump\t// out\n        /* \"#utility.yul\":14872:15038   */\n    tag_340:\n        /* \"#utility.yul\":15012:15030   */\n      0x416c726561647920617070726f76656400000000000000000000000000000000\n        /* \"#utility.yul\":15008:15009   */\n      0x00\n        /* \"#utility.yul\":15000:15006   */\n      dup3\n        /* \"#utility.yul\":14996:15010   */\n      add\n        /* \"#utility.yul\":14989:15031   */\n      mstore\n        /* \"#utility.yul\":14872:15038   */\n      pop\n      jump\t// out\n        /* \"#utility.yul\":15044:15410   */\n    tag_341:\n        /* \"#utility.yul\":15186:15189   */\n      0x00\n        /* \"#utility.yul\":15207:15274   */\n      tag_555\n        /* \"#utility.yul\":15271:15273   */\n      0x10\n        /* \"#utility.yul\":15266:15269   */\n      dup4\n        /* \"#utility.yul\":15207:15274   */\n      tag_302\n      jump\t// in\n    tag_555:\n        /* \"#utility.yul\":15200:15274   */\n      swap2\n      pop\n        /* \"#utility.yul\":15283:15376   */\n      tag_556\n        /* \"#utility.yul\":15372:15375   */\n      dup3\n        /* \"#utility.yul\":15283:15376   */\n      tag_340\n      jump\t// in\n    tag_556:\n        /* \"#utility.yul\":15401:15403   */\n      0x20\n        /* \"#utility.yul\":15396:15399   */\n      dup3\n        /* \"#utility.yul\":15392:15404   */\n      add\n        /* \"#utility.yul\":15385:15404   */\n      swap1\n      pop\n        /* \"#utility.yul\":15044:15410   */\n      swap2\n      swap1\n      pop\n      jump\t// out\n        /* \"#utility.yul\":15416:15835   */\n    tag_119:\n        /* \"#utility.yul\":15582:15586   */\n      0x00\n        /* \"#utility.yul\":15620:15622   */\n      0x20\n        /* \"#utility.yul\":15609:15618   */\n      dup3\n        /* \"#utility.yul\":15605:15623   */\n      add\n        /* \"#utility.yul\":15597:15623   */\n      swap1\n      pop\n        /* \"#utility.yul\":15669:15678   */\n      dup2\n        /* \"#utility.yul\":15663:15667   */\n      dup2\n        /* \"#utility.yul\":15659:15679   */\n      sub\n        /* \"#utility.yul\":15655:15656   */\n      0x00\n        /* \"#utility.yul\":15644:15653   */\n      dup4\n        /* \"#utility.yul\":15640:15657   */\n      add\n        /* \"#utility.yul\":15633:15680   */\n      mstore\n        /* \"#utility.yul\":15697:15828   */\n      tag_558\n        /* \"#utility.yul\":15823:15827   */\n      dup2\n        /* \"#utility.yul\":15697:15828   */\n      tag_341\n      jump\t// in\n    tag_558:\n        /* \"#utility.yul\":15689:15828   */\n      swap1\n      pop\n        /* \"#utility.yul\":15416:15835   */\n      swap2\n      swap1\n      pop\n      jump\t// out\n        /* \"#utility.yul\":15841:16021   */\n    tag_342:\n        /* \"#utility.yul\":15889:15966   */\n      0x4e487b7100000000000000000000000000000000000000000000000000000000\n        /* \"#utility.yul\":15886:15887   */\n      0x00\n        /* \"#utility.yul\":15879:15967   */\n      mstore\n        /* \"#utility.yul\":15986:15990   */\n      0x11\n        /* \"#utility.yul\":15983:15984   */\n      0x04\n        /* \"#utility.yul\":15976:15991   */\n      mstore\n        /* \"#utility.yul\":16010:16014   */\n      0x24\n        /* \"#utility.yul\":16007:16008   */\n      0x00\n        /* \"#utility.yul\":16000:16015   */\n      revert\n        /* \"#utility.yul\":16027:16218   */\n    tag_123:\n        /* \"#utility.yul\":16067:16070   */\n      0x00\n        /* \"#utility.yul\":16086:16106   */\n      tag_561\n        /* \"#utility.yul\":16104:16105   */\n      dup3\n        /* \"#utility.yul\":16086:16106   */\n      tag_297\n      jump\t// in\n    tag_561:\n        /* \"#utility.yul\":16081:16106   */\n      swap2\n      pop\n        /* \"#utility.yul\":16120:16140   */\n      tag_562\n        /* \"#utility.yul\":16138:16139   */\n      dup4\n        /* \"#utility.yul\":16120:16140   */\n      tag_297\n      jump\t// in\n    tag_562:\n        /* \"#utility.yul\":16115:16140   */\n      swap3\n      pop\n        /* \"#utility.yul\":16163:16164   */\n      dup3\n        /* \"#utility.yul\":16160:16161   */\n      dup3\n        /* \"#utility.yul\":16156:16165   */\n      add\n        /* \"#utility.yul\":16149:16165   */\n      swap1\n      pop\n        /* \"#utility.yul\":16184:16187   */\n      dup1\n        /* \"#utility.yul\":16181:16182   */\n      dup3\n        /* \"#utility.yul\":16178:16188   */\n      gt\n        /* \"#utility.yul\":16175:16211   */\n      iszero\n      tag_563\n      jumpi\n        /* \"#utility.yul\":16191:16209   */\n      tag_564\n      tag_342\n      jump\t// in\n    tag_564:\n        /* \"#utility.yul\":16175:16211   */\n    tag_563:\n        /* \"#utility.yul\":16027:16218   */\n      swap3\n      swap2\n      pop\n      pop\n      jump\t// out\n        /* \"#utility.yul\":16224:16404   */\n    tag_343:\n        /* \"#utility.yul\":16272:16349   */\n      0x4e487b7100000000000000000000000000000000000000000000000000000000\n        /* \"#utility.yul\":16269:16270   */\n      0x00\n        /* \"#utility.yul\":16262:16350   */\n      mstore\n        /* \"#utility.yul\":16369:16373   */\n      0x22\n        /* \"#utility.yul\":16366:16367   */\n      0x04\n        /* \"#utility.yul\":16359:16374   */\n      mstore\n        /* \"#utility.yul\":16393:16397   */\n      0x24\n        /* \"#utility.yul\":16390:16391   */\n      0x00\n        /* \"#utility.yul\":16383:16398   */\n      revert\n        /* \"#utility.yul\":16410:16730   */\n    tag_127:\n        /* \"#utility.yul\":16454:16460   */\n      0x00\n        /* \"#utility.yul\":16491:16492   */\n      0x02\n        /* \"#utility.yul\":16485:16489   */\n      dup3\n        /* \"#utility.yul\":16481:16493   */\n      div\n        /* \"#utility.yul\":16471:16493   */\n      swap1\n      pop\n        /* \"#utility.yul\":16538:16539   */\n      0x01\n        /* \"#utility.yul\":16532:16536   */\n      dup3\n        /* \"#utility.yul\":16528:16540   */\n      and\n        /* \"#utility.yul\":16559:16577   */\n      dup1\n        /* \"#utility.yul\":16549:16630   */\n      tag_567\n      jumpi\n        /* \"#utility.yul\":16615:16619   */\n      0x7f\n        /* \"#utility.yul\":16607:16613   */\n      dup3\n        /* \"#utility.yul\":16603:16620   */\n      and\n        /* \"#utility.yul\":16593:16620   */\n      swap2\n      pop\n        /* \"#utility.yul\":16549:16630   */\n    tag_567:\n        /* \"#utility.yul\":16677:16679   */\n      0x20\n        /* \"#utility.yul\":16669:16675   */\n      dup3\n        /* \"#utility.yul\":16666:16680   */\n      lt\n        /* \"#utility.yul\":16646:16664   */\n      dup2\n        /* \"#utility.yul\":16643:16681   */\n      sub\n        /* \"#utility.yul\":16640:16724   */\n      tag_568\n      jumpi\n        /* \"#utility.yul\":16696:16714   */\n      tag_569\n      tag_343\n      jump\t// in\n    tag_569:\n        /* \"#utility.yul\":16640:16724   */\n    tag_568:\n        /* \"#utility.yul\":16461:16730   */\n      pop\n        /* \"#utility.yul\":16410:16730   */\n      swap2\n      swap1\n      pop\n      jump\t// out\n        /* \"#utility.yul\":16736:16903   */\n    tag_344:\n        /* \"#utility.yul\":16876:16895   */\n      0x416c726561647920636f6d706c65746564000000000000000000000000000000\n        /* \"#utility.yul\":16872:16873   */\n      0x00\n        /* \"#utility.yul\":16864:16870   */\n      dup3\n        /* \"#utility.yul\":16860:16874   */\n      add\n        /* \"#utility.yul\":16853:16896   */\n      mstore\n        /* \"#utility.yul\":16736:16903   */\n      pop\n      jump\t// out\n        /* \"#utility.yul\":16909:17275   */\n    tag_345:\n        /* \"#utility.yul\":17051:17054   */\n      0x00\n        /* \"#utility.yul\":17072:17139   */\n      tag_572\n        /* \"#utility.yul\":17136:17138   */\n      0x11\n        /* \"#utility.yul\":17131:17134   */\n      dup4\n        /* \"#utility.yul\":17072:17139   */\n      tag_302\n      jump\t// in\n    tag_572:\n        /* \"#utility.yul\":17065:17139   */\n      swap2\n      pop\n        /* \"#utility.yul\":17148:17241   */\n      tag_573\n        /* \"#utility.yul\":17237:17240   */\n      dup3\n        /* \"#utility.yul\":17148:17241   */\n      tag_344\n      jump\t// in\n    tag_573:\n        /* \"#utility.yul\":17266:17268   */\n      0x20\n        /* \"#utility.yul\":17261:17264   */\n      dup3\n        /* \"#utility.yul\":17257:17269   */\n      add\n        /* \"#utility.yul\":17250:17269   */\n      swap1\n      pop\n        /* \"#utility.yul\":16909:17275   */\n      swap2\n      swap1\n      pop\n      jump\t// out\n        /* \"#utility.yul\":17281:17700   */\n    tag_143:\n        /* \"#utility.yul\":17447:17451   */\n      0x00\n        /* \"#utility.yul\":17485:17487   */\n      0x20\n        /* \"#utility.yul\":17474:17483   */\n      dup3\n        /* \"#utility.yul\":17470:17488   */\n      add\n        /* \"#utility.yul\":17462:17488   */\n      swap1\n      pop\n        /* \"#utility.yul\":17534:17543   */\n      dup2\n        /* \"#utility.yul\":17528:17532   */\n      dup2\n        /* \"#utility.yul\":17524:17544   */\n      sub\n        /* \"#utility.yul\":17520:17521   */\n      0x00\n        /* \"#utility.yul\":17509:17518   */\n      dup4\n        /* \"#utility.yul\":17505:17522   */\n      add\n        /* \"#utility.yul\":17498:17545   */\n      mstore\n        /* \"#utility.yul\":17562:17693   */\n      tag_575\n        /* \"#utility.yul\":17688:17692   */\n      dup2\n        /* \"#utility.yul\":17562:17693   */\n      tag_345\n      jump\t// in\n    tag_575:\n        /* \"#utility.yul\":17554:17693   */\n      swap1\n      pop\n        /* \"#utility.yul\":17281:17700   */\n      swap2\n      swap1\n      pop\n      jump\t// out\n        /* \"#utility.yul\":17706:17873   */\n    tag_346:\n        /* \"#utility.yul\":17846:17865   */\n      0x416c72656164792063616e63656c6c6564000000000000000000000000000000\n        /* \"#utility.yul\":17842:17843   */\n      0x00\n        /* \"#utility.yul\":17834:17840   */\n      dup3\n        /* \"#utility.yul\":17830:17844   */\n      add\n        /* \"#utility.yul\":17823:17866   */\n      mstore\n        /* \"#utility.yul\":17706:17873   */\n      pop\n      jump\t// out\n        /* \"#utility.yul\":17879:18245   */\n    tag_347:\n        /* \"#utility.yul\":18021:18024   */\n      0x00\n        /* \"#utility.yul\":18042:18109   */\n      tag_578\n        /* \"#utility.yul\":18106:18108   */\n      0x11\n        /* \"#utility.yul\":18101:18104   */\n      dup4\n        /* \"#utility.yul\":18042:18109   */\n      tag_302\n      jump\t// in\n    tag_578:\n        /* \"#utility.yul\":18035:18109   */\n      swap2\n      pop\n        /* \"#utility.yul\":18118:18211   */\n      tag_579\n        /* \"#utility.yul\":18207:18210   */\n      dup3\n        /* \"#utility.yul\":18118:18211   */\n      tag_346\n      jump\t// in\n    tag_579:\n        /* \"#utility.yul\":18236:18238   */\n      0x20\n        /* \"#utility.yul\":18231:18234   */\n      dup3\n        /* \"#utility.yul\":18227:18239   */\n      add\n        /* \"#utility.yul\":18220:18239   */\n      swap1\n      pop\n        /* \"#utility.yul\":17879:18245   */\n      swap2\n      swap1\n      pop\n      jump\t// out\n        /* \"#utility.yul\":18251:18670   */\n    tag_150:\n        /* \"#utility.yul\":18417:18421   */\n      0x00\n        /* \"#utility.yul\":18455:18457   */\n      0x20\n        /* \"#utility.yul\":18444:18453   */\n      dup3\n        /* \"#utility.yul\":18440:18458   */\n      add\n        /* \"#utility.yul\":18432:18458   */\n      swap1\n      pop\n        /* \"#utility.yul\":18504:18513   */\n      dup2\n        /* \"#utility.yul\":18498:18502   */\n      dup2\n        /* \"#utility.yul\":18494:18514   */\n      sub\n        /* \"#utility.yul\":18490:18491   */\n      0x00\n        /* \"#utility.yul\":18479:18488   */\n      dup4\n        /* \"#utility.yul\":18475:18492   */\n      add\n        /* \"#utility.yul\":18468:18515   */\n      mstore\n        /* \"#utility.yul\":18532:18663   */\n      tag_581\n        /* \"#utility.yul\":18658:18662   */\n      dup2\n        /* \"#utility.yul\":18532:18663   */\n      tag_347\n      jump\t// in\n    tag_581:\n        /* \"#utility.yul\":18524:18663   */\n      swap1\n      pop\n        /* \"#utility.yul\":18251:18670   */\n      swap2\n      swap1\n      pop\n      jump\t// out\n        /* \"#utility.yul\":18676:18817   */\n    tag_348:\n        /* \"#utility.yul\":18725:18729   */\n      0x00\n        /* \"#utility.yul\":18748:18751   */\n      dup2\n        /* \"#utility.yul\":18740:18751   */\n      swap1\n      pop\n        /* \"#utility.yul\":18771:18774   */\n      dup2\n        /* \"#utility.yul\":18768:18769   */\n      0x00\n        /* \"#utility.yul\":18761:18775   */\n      mstore\n        /* \"#utility.yul\":18805:18809   */\n      0x20\n        /* \"#utility.yul\":18802:18803   */\n      0x00\n        /* \"#utility.yul\":18792:18810   */\n      keccak256\n        /* \"#utility.yul\":18784:18810   */\n      swap1\n      pop\n        /* \"#utility.yul\":18676:18817   */\n      swap2\n      swap1\n      pop\n      jump\t// out\n        /* \"#utility.yul\":18823:18916   */\n    tag_349:\n        /* \"#utility.yul\":18860:18866   */\n      0x00\n        /* \"#utility.yul\":18907:18909   */\n      0x20\n        /* \"#utility.yul\":18902:18904   */\n      0x1f\n        /* \"#utility.yul\":18895:18900   */\n      dup4\n        /* \"#utility.yul\":18891:18905   */\n      add\n        /* \"#utility.yul\":18887:18910   */\n      div\n        /* \"#utility.yul\":18877:18910   */\n      swap1\n      pop\n        /* \"#utility.yul\":18823:18916   */\n      swap2\n      swap1\n      pop\n      jump\t// out\n        /* \"#utility.yul\":18922:19029   */\n    tag_350:\n        /* \"#utility.yul\":18966:18974   */\n      0x00\n        /* \"#utility.yul\":19016:19021   */\n      dup3\n        /* \"#utility.yul\":19010:19014   */\n      dup3\n        /* \"#utility.yul\":19006:19022   */\n      shl\n        /* \"#utility.yul\":18985:19022   */\n      swap1\n      pop\n        /* \"#utility.yul\":18922:19029   */\n      swap3\n      swap2\n      pop\n      pop\n      jump\t// out\n        /* \"#utility.yul\":19035:19428   */\n    tag_351:\n        /* \"#utility.yul\":19104:19110   */\n      0x00\n        /* \"#utility.yul\":19154:19155   */\n      0x08\n        /* \"#utility.yul\":19142:19152   */\n      dup4\n        /* \"#utility.yul\":19138:19156   */\n      mul\n        /* \"#utility.yul\":19177:19274   */\n      tag_586\n        /* \"#utility.yul\":19207:19273   */\n      0xffffffffffffffffffffffffffffffffffffffffffffffffffffffffffffffff\n        /* \"#utility.yul\":19196:19205   */\n      dup3\n        /* \"#utility.yul\":19177:19274   */\n      tag_350\n      jump\t// in\n    tag_586:\n        /* \"#utility.yul\":19295:19334   */\n      tag_587\n        /* \"#utility.yul\":19325:19333   */\n      dup7\n        /* \"#utility.yul\":19314:19323   */\n      dup4\n        /* \"#utility.yul\":19295:19334   */\n      tag_350\n      jump\t// in\n    tag_587:\n        /* \"#utility.yul\":19283:19334   */\n      swap6\n      pop\n        /* \"#utility.yul\":19367:19371   */\n      dup1\n        /* \"#utility.yul\":19363:19372   */\n      not\n        /* \"#utility.yul\":19356:19361   */\n      dup5\n        /* \"#utility.yul\":19352:19373   */\n      and\n        /* \"#utility.yul\":19343:19373   */\n      swap4\n      pop\n        /* \"#utility.yul\":19416:19420   */\n      dup1\n        /* \"#utility.yul\":19406:19414   */\n      dup7\n        /* \"#utility.yul\":19402:19421   */\n      and\n        /* \"#utility.yul\":19395:19400   */\n      dup5\n        /* \"#utility.yul\":19392:19422   */\n      or\n        /* \"#utility.yul\":19382:19422   */\n      swap3\n      pop\n        /* \"#utility.yul\":19111:19428   */\n      pop\n      pop\n        /* \"#utility.yul\":19035:19428   */\n      swap4\n      swap3\n      pop\n      pop\n      pop\n      jump\t// out\n        /* \"#utility.yul\":19434:19494   */\n    tag_352:\n        /* \"#utility.yul\":19462:19465   */\n      0x00\n        /* \"#utility.yul\":19483:19488   */\n      dup2\n        /* \"#utility.yul\":19476:19488   */\n      swap1\n      pop\n        /* \"#utility.yul\":19434:19494   */\n      swap2\n      swap1\n      pop\n      jump\t// out\n        /* \"#utility.yul\":19500:19642   */\n    tag_353:\n        /* \"#utility.yul\":19550:19559   */\n      0x00\n        /* \"#utility.yul\":19583:19636   */\n      tag_590\n        /* \"#utility.yul\":19601:19635   */\n      tag_591\n        /* \"#utility.yul\":19610:19634   */\n      tag_592\n        /* \"#utility.yul\":19628:19633   */\n      dup5\n        /* \"#utility.yul\":19610:19634   */\n      tag_297\n      jump\t// in\n    tag_592:\n        /* \"#utility.yul\":19601:19635   */\n      tag_352\n      jump\t// in\n    tag_591:\n        /* \"#utility.yul\":19583:19636   */\n      tag_297\n      jump\t// in\n    tag_590:\n        /* \"#utility.yul\":19570:19636   */\n      swap1\n      pop\n        /* \"#utility.yul\":19500:19642   */\n      swap2\n      swap1\n      pop\n      jump\t// out\n        /* \"#utility.yul\":19648:19723   */\n    tag_354:\n        /* \"#utility.yul\":19691:19694   */\n      0x00\n        /* \"#utility.yul\":19712:19717   */\n      dup2\n        /* \"#utility.yul\":19705:19717   */\n      swap1\n      pop\n        /* \"#utility.yul\":19648:19723   */\n      swap2\n      swap1\n      pop\n      jump\t// out\n        /* \"#utility.yul\":19729:19998   */\n    tag_355:\n        /* \"#utility.yul\":19839:19878   */\n      tag_595\n        /* \"#utility.yul\":19870:19877   */\n      dup4\n        /* \"#utility.yul\":19839:19878   */\n      tag_353\n      jump\t// in\n    tag_595:\n        /* \"#utility.yul\":19900:19991   */\n      tag_596\n        /* \"#utility.yul\":19949:19990   */\n      tag_597\n        /* \"#utility.yul\":19973:19989   */\n      dup3\n        /* \"#utility.yul\":19949:19990   */\n      tag_354\n      jump\t// in\n    tag_597:\n        /* \"#utility.yul\":19941:19947   */\n      dup5\n        /* \"#utility.yul\":19934:19938   */\n      dup5\n        /* \"#utility.yul\":19928:19939   */\n      sload\n        /* \"#utility.yul\":19900:19991   */\n      tag_351\n      jump\t// in\n    tag_596:\n        /* \"#utility.yul\":19894:19898   */\n      dup3\n        /* \"#utility.yul\":19887:19992   */\n      sstore\n        /* \"#utility.yul\":19805:19998   */\n      pop\n        /* \"#utility.yul\":19729:19998   */\n      pop\n      pop\n      pop\n      jump\t// out\n        /* \"#utility.yul\":20004:20077   */\n    tag_356:\n        /* \"#utility.yul\":20049:20052   */\n      0x00\n        /* \"#utility.yul\":20070:20071   */\n      0x00\n        /* \"#utility.yul\":20063:20071   */\n      swap1\n      pop\n        /* \"#utility.yul\":20004:20077   */\n      swap1\n      jump\t// out\n        /* \"#utility.yul\":20083:20272   */\n    tag_357:\n        /* \"#utility.yul\":20160:20192   */\n      tag_600\n      tag_356\n      jump\t// in\n    tag_600:\n        /* \"#utility.yul\":20201:20266   */\n      tag_601\n        /* \"#utility.yul\":20259:20265   */\n      dup2\n        /* \"#utility.yul\":20251:20257   */\n      dup5\n        /* \"#utility.yul\":20245:20249   */\n      dup5\n        /* \"#utility.yul\":20201:20266   */\n      tag_355\n      jump\t// in\n    tag_601:\n        /* \"#utility.yul\":20136:20272   */\n      pop\n        /* \"#utility.yul\":20083:20272   */\n      pop\n      pop\n      jump\t// out\n        /* \"#utility.yul\":20278:20464   */\n    tag_358:\n        /* \"#utility.yul\":20338:20458   */\n    tag_603:\n        /* \"#utility.yul\":20355:20358   */\n      dup2\n        /* \"#utility.yul\":20348:20353   */\n      dup2\n        /* \"#utility.yul\":20345:20359   */\n      lt\n        /* \"#utility.yul\":20338:20458   */\n      iszero\n      tag_605\n      jumpi\n        /* \"#utility.yul\":20409:20448   */\n      tag_606\n        /* \"#utility.yul\":20446:20447   */\n      0x00\n        /* \"#utility.yul\":20439:20444   */\n      dup3\n        /* \"#utility.yul\":20409:20448   */\n      tag_357\n      jump\t// in\n    tag_606:\n        /* \"#utility.yul\":20382:20383   */\n      0x01\n        /* \"#utility.yul\":20375:20380   */\n      dup2\n        /* \"#utility.yul\":20371:20384   */\n      add\n        /* \"#utility.yul\":20362:20384   */\n      swap1\n      pop\n        /* \"#utility.yul\":20338:20458   */\n      jump(tag_603)\n    tag_605:\n        /* \"#utility.yul\":20278:20464   */\n      pop\n      pop\n      jump\t// out\n        /* \"#utility.yul\":20470:21013   */\n    tag_359:\n        /* \"#utility.yul\":20571:20573   */\n      0x1f\n        /* \"#utility.yul\":20566:20569   */\n      dup3\n        /* \"#utility.yul\":20563:20574   */\n      gt\n        /* \"#utility.yul\":20560:21006   */\n      iszero\n      tag_608\n      jumpi\n        /* \"#utility.yul\":20605:20643   */\n      tag_609\n        /* \"#utility.yul\":20637:20642   */\n      dup2\n        /* \"#utility.yul\":20605:20643   */\n      tag_348\n      jump\t// in\n    tag_609:\n        /* \"#utility.yul\":20689:20718   */\n      tag_610\n        /* \"#utility.yul\":20707:20717   */\n      dup5\n        /* \"#utility.yul\":20689:20718   */\n      tag_349\n      jump\t// in\n    tag_610:\n        /* \"#utility.yul\":20679:20687   */\n      dup2\n        /* \"#utility.yul\":20675:20719   */\n      add\n        /* \"#utility.yul\":20872:20874   */\n      0x20\n        /* \"#utility.yul\":20860:20870   */\n      dup6\n        /* \"#utility.yul\":20857:20875   */\n      lt\n        /* \"#utility.yul\":20854:20903   */\n      iszero\n      tag_611\n      jumpi\n        /* \"#utility.yul\":20893:20901   */\n      dup2\n        /* \"#utility.yul\":20878:20901   */\n      swap1\n      pop\n        /* \"#utility.yul\":20854:20903   */\n    tag_611:\n        /* \"#utility.yul\":20916:20996   */\n      tag_612\n        /* \"#utility.yul\":20972:20994   */\n      tag_613\n        /* \"#utility.yul\":20990:20993   */\n      dup6\n        /* \"#utility.yul\":20972:20994   */\n      tag_349\n      jump\t// in\n    tag_613:\n        /* \"#utility.yul\":20962:20970   */\n      dup4\n        /* \"#utility.yul\":20958:20995   */\n      add\n        /* \"#utility.yul\":20945:20956   */\n      dup3\n        /* \"#utility.yul\":20916:20996   */\n      tag_358\n      jump\t// in\n    tag_612:\n        /* \"#utility.yul\":20575:21006   */\n      pop\n      pop\n        /* \"#utility.yul\":20560:21006   */\n    tag_608:\n        /* \"#utility.yul\":20470:21013   */\n      pop\n      pop\n      pop\n      jump\t// out\n        /* \"#utility.yul\":21019:21136   */\n    tag_360:\n        /* \"#utility.yul\":21073:21081   */\n      0x00\n        /* \"#utility.yul\":21123:21128   */\n      dup3\n        /* \"#utility.yul\":21117:21121   */\n      dup3\n        /* \"#utility.yul\":21113:21129   */\n      shr\n        /* \"#utility.yul\":21092:21129   */\n      swap1\n      pop\n        /* \"#utility.yul\":21019:21136   */\n      swap3\n      swap2\n      pop\n      pop\n      jump\t// out\n        /* \"#utility.yul\":21142:21311   */\n    tag_361:\n        /* \"#utility.yul\":21186:21192   */\n      0x00\n        /* \"#utility.yul\":21219:21270   */\n      tag_616\n        /* \"#utility.yul\":21267:21268   */\n      0x00\n        /* \"#utility.yul\":21263:21269   */\n      not\n        /* \"#utility.yul\":21255:21260   */\n      dup5\n        /* \"#utility.yul\":21252:21253   */\n      0x08\n        /* \"#utility.yul\":21248:21261   */\n      mul\n        /* \"#utility.yul\":21219:21270   */\n      tag_360\n      jump\t// in\n    tag_616:\n        /* \"#utility.yul\":21215:21271   */\n      not\n        /* \"#utility.yul\":21300:21304   */\n      dup1\n        /* \"#utility.yul\":21294:21298   */\n      dup4\n        /* \"#utility.yul\":21290:21305   */\n      and\n        /* \"#utility.yul\":21280:21305   */\n      swap2\n      pop\n        /* \"#utility.yul\":21193:21311   */\n      pop\n        /* \"#utility.yul\":21142:21311   */\n      swap3\n      swap2\n      pop\n      pop\n      jump\t// out\n        /* \"#utility.yul\":21316:21611   */\n    tag_362:\n        /* \"#utility.yul\":21392:21396   */\n      0x00\n        /* \"#utility.yul\":21538:21567   */\n      tag_618\n        /* \"#utility.yul\":21563:21566   */\n      dup4\n        /* \"#utility.yul\":21557:21561   */\n      dup4\n        /* \"#utility.yul\":21538:21567   */\n      tag_361\n      jump\t// in\n    tag_618:\n        /* \"#utility.yul\":21530:21567   */\n      swap2\n      pop\n        /* \"#utility.yul\":21600:21603   */\n      dup3\n        /* \"#utility.yul\":21597:21598   */\n      0x02\n        /* \"#utility.yul\":21593:21604   */\n      mul\n        /* \"#utility.yul\":21587:21591   */\n      dup3\n        /* \"#utility.yul\":21584:21605   */\n      or\n        /* \"#utility.yul\":21576:21605   */\n      swap1\n      pop\n        /* \"#utility.yul\":21316:21611   */\n      swap3\n      swap2\n      pop\n      pop\n      jump\t// out\n        /* \"#utility.yul\":21616:23011   */\n    tag_152:\n        /* \"#utility.yul\":21733:21770   */\n      tag_620\n        /* \"#utility.yul\":21766:21769   */\n      dup3\n        /* \"#utility.yul\":21733:21770   */\n      tag_301\n      jump\t// in\n    tag_620:\n        /* \"#utility.yul\":21835:21853   */\n      0xffffffffffffffff\n        /* \"#utility.yul\":21827:21833   */\n      dup2\n        /* \"#utility.yul\":21824:21854   */\n      gt\n        /* \"#utility.yul\":21821:21877   */\n      iszero\n      tag_621\n      jumpi\n        /* \"#utility.yul\":21857:21875   */\n      tag_622\n      tag_319\n      jump\t// in\n    tag_622:\n        /* \"#utility.yul\":21821:21877   */\n    tag_621:\n        /* \"#utility.yul\":21901:21939   */\n      tag_623\n        /* \"#utility.yul\":21933:21937   */\n      dup3\n        /* \"#utility.yul\":21927:21938   */\n      sload\n        /* \"#utility.yul\":21901:21939   */\n      tag_127\n      jump\t// in\n    tag_623:\n        /* \"#utility.yul\":21986:22053   */\n      tag_624\n        /* \"#utility.yul\":22046:22052   */\n      dup3\n        /* \"#utility.yul\":22038:22044   */\n      dup3\n        /* \"#utility.yul\":22032:22036   */\n      dup6\n        /* \"#utility.yul\":21986:22053   */\n      tag_359\n      jump\t// in\n    tag_624:\n        /* \"#utility.yul\":22080:22081   */\n      0x00\n        /* \"#utility.yul\":22104:22108   */\n      0x20\n        /* \"#utility.yul\":22091:22108   */\n      swap1\n      pop\n        /* \"#utility.yul\":22136:22138   */\n      0x1f\n        /* \"#utility.yul\":22128:22134   */\n      dup4\n        /* \"#utility.yul\":22125:22139   */\n      gt\n        /* \"#utility.yul\":22153:22154   */\n      0x01\n        /* \"#utility.yul\":22148:22766   */\n      dup2\n      eq\n      tag_626\n      jumpi\n        /* \"#utility.yul\":22810:22811   */\n      0x00\n        /* \"#utility.yul\":22827:22833   */\n      dup5\n        /* \"#utility.yul\":22824:22901   */\n      iszero\n      tag_627\n      jumpi\n        /* \"#utility.yul\":22876:22885   */\n      dup3\n        /* \"#utility.yul\":22871:22874   */\n      dup8\n        /* \"#utility.yul\":22867:22886   */\n      add\n        /* \"#utility.yul\":22861:22887   */\n      mload\n        /* \"#utility.yul\":22852:22887   */\n      swap1\n      pop\n        /* \"#utility.yul\":22824:22901   */\n    tag_627:\n        /* \"#utility.yul\":22927:22994   */\n      tag_628\n        /* \"#utility.yul\":22987:22993   */\n      dup6\n        /* \"#utility.yul\":22980:22985   */\n      dup3\n        /* \"#utility.yul\":22927:22994   */\n      tag_362\n      jump\t// in\n    tag_628:\n        /* \"#utility.yul\":22921:22925   */\n      dup7\n        /* \"#utility.yul\":22914:22995   */\n      sstore\n        /* \"#utility.yul\":22783:23005   */\n      pop\n        /* \"#utility.yul\":22118:23005   */\n      jump(tag_625)\n        /* \"#utility.yul\":22148:22766   */\n    tag_626:\n        /* \"#utility.yul\":22200:22204   */\n      0x1f\n        /* \"#utility.yul\":22196:22205   */\n      not\n        /* \"#utility.yul\":22188:22194   */\n      dup5\n        /* \"#utility.yul\":22184:22206   */\n      and\n        /* \"#utility.yul\":22234:22271   */\n      tag_629\n        /* \"#utility.yul\":22266:22270   */\n      dup7\n        /* \"#utility.yul\":22234:22271   */\n      tag_348\n      jump\t// in\n    tag_629:\n        /* \"#utility.yul\":22293:22294   */\n      0x00\n        /* \"#utility.yul\":22307:22515   */\n    tag_630:\n        /* \"#utility.yul\":22321:22328   */\n      dup3\n        /* \"#utility.yul\":22318:22319   */\n      dup2\n        /* \"#utility.yul\":22315:22329   */\n      lt\n        /* \"#utility.yul\":22307:22515   */\n      iszero\n      tag_632\n      jumpi\n        /* \"#utility.yul\":22400:22409   */\n      dup5\n        /* \"#utility.yul\":22395:22398   */\n      dup10\n        /* \"#utility.yul\":22391:22410   */\n      add\n        /* \"#utility.yul\":22385:22411   */\n      mload\n        /* \"#utility.yul\":22377:22383   */\n      dup3\n        /* \"#utility.yul\":22370:22412   */\n      sstore\n        /* \"#utility.yul\":22451:22452   */\n      0x01\n        /* \"#utility.yul\":22443:22449   */\n      dup3\n        /* \"#utility.yul\":22439:22453   */\n      add\n        /* \"#utility.yul\":22429:22453   */\n      swap2\n      pop\n        /* \"#utility.yul\":22498:22500   */\n      0x20\n        /* \"#utility.yul\":22487:22496   */\n      dup6\n        /* \"#utility.yul\":22483:22501   */\n      add\n        /* \"#utility.yul\":22470:22501   */\n      swap5\n      pop\n        /* \"#utility.yul\":22344:22348   */\n      0x20\n        /* \"#utility.yul\":22341:22342   */\n      dup2\n        /* \"#utility.yul\":22337:22349   */\n      add\n        /* \"#utility.yul\":22332:22349   */\n      swap1\n      pop\n        /* \"#utility.yul\":22307:22515   */\n      jump(tag_630)\n    tag_632:\n        /* \"#utility.yul\":22543:22549   */\n      dup7\n        /* \"#utility.yul\":22534:22541   */\n      dup4\n        /* \"#utility.yul\":22531:22550   */\n      lt\n        /* \"#utility.yul\":22528:22707   */\n      iszero\n      tag_633\n      jumpi\n        /* \"#utility.yul\":22601:22610   */\n      dup5\n        /* \"#utility.yul\":22596:22599   */\n      dup10\n        /* \"#utility.yul\":22592:22611   */\n      add\n        /* \"#utility.yul\":22586:22612   */\n      mload\n        /* \"#utility.yul\":22644:22692   */\n      tag_634\n        /* \"#utility.yul\":22686:22690   */\n      0x1f\n        /* \"#utility.yul\":22678:22684   */\n      dup10\n        /* \"#utility.yul\":22674:22691   */\n      and\n        /* \"#utility.yul\":22663:22672   */\n      dup3\n        /* \"#utility.yul\":22644:22692   */\n      tag_361\n      jump\t// in\n    tag_634:\n        /* \"#utility.yul\":22636:22642   */\n      dup4\n        /* \"#utility.yul\":22629:22693   */\n      sstore\n        /* \"#utility.yul\":22551:22707   */\n      pop\n        /* \"#utility.yul\":22528:22707   */\n    tag_633:\n        /* \"#utility.yul\":22753:22754   */\n      0x01\n        /* \"#utility.yul\":22749:22750   */\n      0x02\n        /* \"#utility.yul\":22741:22747   */\n      dup9\n        /* \"#utility.yul\":22737:22751   */\n      mul\n        /* \"#utility.yul\":22733:22755   */\n      add\n        /* \"#utility.yul\":22727:22731   */\n      dup9\n        /* \"#utility.yul\":22720:22756   */\n      sstore\n        /* \"#utility.yul\":22155:22766   */\n      pop\n      pop\n      pop\n        /* \"#utility.yul\":22118:23005   */\n    tag_625:\n      pop\n        /* \"#utility.yul\":21708:23011   */\n      pop\n      pop\n      pop\n        /* \"#utility.yul\":21616:23011   */\n      pop\n      pop\n      jump\t// out\n        /* \"#utility.yul\":23017:23183   */\n    tag_363:\n        /* \"#utility.yul\":23157:23175   */\n      0x4e6f7420636f756e746572706172747900000000000000000000000000000000\n        /* \"#utility.yul\":23153:23154   */\n      0x00\n        /* \"#utility.yul\":23145:23151   */\n      dup3\n        /* \"#utility.yul\":23141:23155   */\n      add\n        /* \"#utility.yul\":23134:23176   */\n      mstore\n        /* \"#utility.yul\":23017:23183   */\n      pop\n      jump\t// out\n        /* \"#utility.yul\":23189:23555   */\n    tag_364:\n        /* \"#utility.yul\":23331:23334   */\n      0x00\n        /* \"#utility.yul\":23352:23419   */\n      tag_637\n        /* \"#utility.yul\":23416:23418   */\n      0x10\n        /* \"#utility.yul\":23411:23414   */\n      dup4\n        /* \"#utility.yul\":23352:23419   */\n      tag_302\n      jump\t// in\n    tag_637:\n        /* \"#utility.yul\":23345:23419   */\n      swap2\n      pop\n        /* \"#utility.yul\":23428:23521   */\n      tag_638\n        /* \"#utility.yul\":23517:23520   */\n      dup3\n        /* \"#utility.yul\":23428:23521   */\n      tag_363\n      jump\t// in\n    tag_638:\n        /* \"#utility.yul\":23546:23548   */\n      0x20\n        /* \"#utility.yul\":23541:23544   */\n      dup3\n        /* \"#utility.yul\":23537:23549   */\n      add\n        /* \"#utility.yul\":23530:23549   */\n      swap1\n      pop\n        /* \"#utility.yul\":23189:23555   */\n      swap2\n      swap1\n      pop\n      jump\t// out\n        /* \"#utility.yul\":23561:23980   */\n    tag_163:\n        /* \"#utility.yul\":23727:23731   */\n      0x00\n        /* \"#utility.yul\":23765:23767   */\n      0x20\n        /* \"#utility.yul\":23754:23763   */\n      dup3\n        /* \"#utility.yul\":23750:23768   */\n      add\n        /* \"#utility.yul\":23742:23768   */\n      swap1\n      pop\n        /* \"#utility.yul\":23814:23823   */\n      dup2\n        /* \"#utility.yul\":23808:23812   */\n      dup2\n        /* \"#utility.yul\":23804:23824   */\n      sub\n        /* \"#utility.yul\":23800:23801   */\n      0x00\n        /* \"#utility.yul\":23789:23798   */\n      dup4\n        /* \"#utility.yul\":23785:23802   */\n      add\n        /* \"#utility.yul\":23778:23825   */\n      mstore\n        /* \"#utility.yul\":23842:23973   */\n      tag_640\n        /* \"#utility.yul\":23968:23972   */\n      dup2\n        /* \"#utility.yul\":23842:23973   */\n      tag_364\n      jump\t// in\n    tag_640:\n        /* \"#utility.yul\":23834:23973   */\n      swap1\n      pop\n        /* \"#utility.yul\":23561:23980   */\n      swap2\n      swap1\n      pop\n      jump\t// out\n        /* \"#utility.yul\":23986:24147   */\n    tag_365:\n        /* \"#utility.yul\":24126:24139   */\n      0x416c726561647920736574000000000000000000000000000000000000000000\n        /* \"#utility.yul\":24122:24123   */\n      0x00\n        /* \"#utility.yul\":24114:24120   */\n      dup3\n        /* \"#utility.yul\":24110:24124   */\n      add\n        /* \"#utility.yul\":24103:24140   */\n      mstore\n        /* \"#utility.yul\":23986:24147   */\n      pop\n      jump\t// out\n        /* \"#utility.yul\":24153:24519   */\n    tag_366:\n        /* \"#utility.yul\":24295:24298   */\n      0x00\n        /* \"#utility.yul\":24316:24383   */\n      tag_643\n        /* \"#utility.yul\":24380:24382   */\n      0x0b\n        /* \"#utility.yul\":24375:24378   */\n      dup4\n        /* \"#utility.yul\":24316:24383   */\n      tag_302\n      jump\t// in\n    tag_643:\n        /* \"#utility.yul\":24309:24383   */\n      swap2\n      pop\n        /* \"#utility.yul\":24392:24485   */\n      tag_644\n        /* \"#utility.yul\":24481:24484   */\n      dup3\n        /* \"#utility.yul\":24392:24485   */\n      tag_365\n      jump\t// in\n    tag_644:\n        /* \"#utility.yul\":24510:24512   */\n      0x20\n        /* \"#utility.yul\":24505:24508   */\n      dup3\n        /* \"#utility.yul\":24501:24513   */\n      add\n        /* \"#utility.yul\":24494:24513   */\n      swap1\n      pop\n        /* \"#utility.yul\":24153:24519   */\n      swap2\n      swap1\n      pop\n      jump\t// out\n        /* \"#utility.yul\":24525:24944   */\n    tag_173:\n        /* \"#utility.yul\":24691:24695   */\n      0x00\n        /* \"#utility.yul\":24729:24731   */\n      0x20\n        /* \"#utility.yul\":24718:24727   */\n      dup3\n        /* \"#utility.yul\":24714:24732   */\n      add\n        /* \"#utility.yul\":24706:24732   */\n      swap1\n      pop\n        /* \"#utility.yul\":24778:24787   */\n      dup2\n        /* \"#utility.yul\":24772:24776   */\n      dup2\n        /* \"#utility.yul\":24768:24788   */\n      sub\n        /* \"#utility.yul\":24764:24765   */\n      0x00\n        /* \"#utility.yul\":24753:24762   */\n      dup4\n        /* \"#utility.yul\":24749:24766   */\n      add\n        /* \"#utility.yul\":24742:24789   */\n      mstore\n        /* \"#utility.yul\":24806:24937   */\n      tag_646\n        /* \"#utility.yul\":24932:24936   */\n      dup2\n        /* \"#utility.yul\":24806:24937   */\n      tag_366\n      jump\t// in\n    tag_646:\n        /* \"#utility.yul\":24798:24937   */\n      swap1\n      pop\n        /* \"#utility.yul\":24525:24944   */\n      swap2\n      swap1\n      pop\n      jump\t// out\n        /* \"#utility.yul\":24950:25373   */\n    tag_175:\n        /* \"#utility.yul\":25091:25095   */\n      0x00\n        /* \"#utility.yul\":25129:25131   */\n      0x40\n        /* \"#utility.yul\":25118:25127   */\n      dup3\n        /* \"#utility.yul\":25114:25132   */\n      add\n        /* \"#utility.yul\":25106:25132   */\n      swap1\n      pop\n        /* \"#utility.yul\":25142:25213   */\n      tag_648\n        /* \"#utility.yul\":25210:25211   */\n      0x00\n        /* \"#utility.yul\":25199:25208   */\n      dup4\n        /* \"#utility.yul\":25195:25212   */\n      add\n        /* \"#utility.yul\":25186:25192   */\n      dup6\n        /* \"#utility.yul\":25142:25213   */\n      tag_300\n      jump\t// in\n    tag_648:\n        /* \"#utility.yul\":25260:25269   */\n      dup2\n        /* \"#utility.yul\":25254:25258   */\n      dup2\n        /* \"#utility.yul\":25250:25270   */\n      sub\n        /* \"#utility.yul\":25245:25247   */\n      0x20\n        /* \"#utility.yul\":25234:25243   */\n      dup4\n        /* \"#utility.yul\":25230:25248   */\n      add\n        /* \"#utility.yul\":25223:25271   */\n      mstore\n        /* \"#utility.yul\":25288:25366   */\n      tag_649\n        /* \"#utility.yul\":25361:25365   */\n      dup2\n        /* \"#utility.yul\":25352:25358   */\n      dup5\n        /* \"#utility.yul\":25288:25366   */\n      tag_305\n      jump\t// in\n    tag_649:\n        /* \"#utility.yul\":25280:25366   */\n      swap1\n      pop\n        /* \"#utility.yul\":24950:25373   */\n      swap4\n      swap3\n      pop\n      pop\n      pop\n      jump\t// out\n        /* \"#utility.yul\":25379:25601   */\n    tag_177:\n        /* \"#utility.yul\":25472:25476   */\n      0x00\n        /* \"#utility.yul\":25510:25512   */\n      0x20\n        /* \"#utility.yul\":25499:25508   */\n      dup3\n        /* \"#utility.yul\":25495:25513   */\n      add\n        /* \"#utility.yul\":25487:25513   */\n      swap1\n      pop\n        /* \"#utility.yul\":25523:25594   */\n      tag_651\n        /* \"#utility.yul\":25591:25592   */\n      0x00\n        /* \"#utility.yul\":25580:25589   */\n      dup4\n        /* \"#utility.yul\":25576:25593   */\n      add\n        /* \"#utility.yul\":25567:25573   */\n      dup5\n        /* \"#utility.yul\":25523:25594   */\n      tag_314\n      jump\t// in\n    tag_651:\n        /* \"#utility.yul\":25379:25601   */\n      swap3\n      swap2\n      pop\n      pop\n      jump\t// out\n        /* \"#utility.yul\":25607:25775   */\n    tag_367:\n        /* \"#utility.yul\":25747:25767   */\n      0x4f7261636c6520616c7265616479207365740000000000000000000000000000\n        /* \"#utility.yul\":25743:25744   */\n      0x00\n        /* \"#utility.yul\":25735:25741   */\n      dup3\n        /* \"#utility.yul\":25731:25745   */\n      add\n        /* \"#utility.yul\":25724:25768   */\n      mstore\n        /* \"#utility.yul\":25607:25775   */\n      pop\n      jump\t// out\n        /* \"#utility.yul\":25781:26147   */\n    tag_368:\n        /* \"#utility.yul\":25923:25926   */\n      0x00\n        /* \"#utility.yul\":25944:26011   */\n      tag_654\n        /* \"#utility.yul\":26008:26010   */\n      0x12\n        /* \"#utility.yul\":26003:26006   */\n      dup4\n        /* \"#utility.yul\":25944:26011   */\n      tag_302\n      jump\t// in\n    tag_654:\n        /* \"#utility.yul\":25937:26011   */\n      swap2\n      pop\n        /* \"#utility.yul\":26020:26113   */\n      tag_655\n        /* \"#utility.yul\":26109:26112   */\n      dup3\n        /* \"#utility.yul\":26020:26113   */\n      tag_367\n      jump\t// in\n    tag_655:\n        /* \"#utility.yul\":26138:26140   */\n      0x20\n        /* \"#utility.yul\":26133:26136   */\n      dup3\n        /* \"#utility.yul\":26129:26141   */\n      add\n        /* \"#utility.yul\":26122:26141   */\n      swap1\n      pop\n        /* \"#utility.yul\":25781:26147   */\n      swap2\n      swap1\n      pop\n      jump\t// out\n        /* \"#utility.yul\":26153:26572   */\n    tag_181:\n        /* \"#utility.yul\":26319:26323   */\n      0x00\n        /* \"#utility.yul\":26357:26359   */\n      0x20\n        /* \"#utility.yul\":26346:26355   */\n      dup3\n        /* \"#utility.yul\":26342:26360   */\n      add\n        /* \"#utility.yul\":26334:26360   */\n      swap1\n      pop\n        /* \"#utility.yul\":26406:26415   */\n      dup2\n        /* \"#utility.yul\":26400:26404   */\n      dup2\n        /* \"#utility.yul\":26396:26416   */\n      sub\n        /* \"#utility.yul\":26392:26393   */\n      0x00\n        /* \"#utility.yul\":26381:26390   */\n      dup4\n        /* \"#utility.yul\":26377:26394   */\n      add\n        /* \"#utility.yul\":26370:26417   */\n      mstore\n        /* \"#utility.yul\":26434:26565   */\n      tag_657\n        /* \"#utility.yul\":26560:26564   */\n      dup2\n        /* \"#utility.yul\":26434:26565   */\n      tag_368\n      jump\t// in\n    tag_657:\n        /* \"#utility.yul\":26426:26565   */\n      swap1\n      pop\n        /* \"#utility.yul\":26153:26572   */\n      swap2\n      swap1\n      pop\n      jump\t// out\n        /* \"#utility.yul\":26578:26742   */\n    tag_369:\n        /* \"#utility.yul\":26718:26734   */\n      0x496e76616c6964206f7261636c65000000000000000000000000000000000000\n        /* \"#utility.yul\":26714:26715   */\n      0x00\n        /* \"#utility.yul\":26706:26712   */\n      dup3\n        /* \"#utility.yul\":26702:26716   */\n      add\n        /* \"#utility.yul\":26695:26735   */\n      mstore\n        /* \"#utility.yul\":26578:26742   */\n      pop\n      jump\t// out\n        /* \"#utility.yul\":26748:27114   */\n    tag_370:\n        /* \"#utility.yul\":26890:26893   */\n      0x00\n        /* \"#utility.yul\":26911:26978   */\n      tag_660\n        /* \"#utility.yul\":26975:26977   */\n      0x0e\n        /* \"#utility.yul\":26970:26973   */\n      dup4\n        /* \"#utility.yul\":26911:26978   */\n      tag_302\n      jump\t// in\n    tag_660:\n        /* \"#utility.yul\":26904:26978   */\n      swap2\n      pop\n        /* \"#utility.yul\":26987:27080   */\n      tag_661\n        /* \"#utility.yul\":27076:27079   */\n      dup3\n        /* \"#utility.yul\":26987:27080   */\n      tag_369\n      jump\t// in\n    tag_661:\n        /* \"#utility.yul\":27105:27107   */\n      0x20\n        /* \"#utility.yul\":27100:27103   */\n      dup3\n        /* \"#utility.yul\":27096:27108   */\n      add\n        /* \"#utility.yul\":27089:27108   */\n      swap1\n      pop\n        /* \"#utility.yul\":26748:27114   */\n      swap2\n      swap1\n      pop\n      jump\t// out\n        /* \"#utility.yul\":27120:27539   */\n    tag_184:\n        /* \"#utility.yul\":27286:27290   */\n      0x00\n        /* \"#utility.yul\":27324:27326   */\n      0x20\n        /* \"#utility.yul\":27313:27322   */\n      dup3\n        /* \"#utility.yul\":27309:27327   */\n      add\n        /* \"#utility.yul\":27301:27327   */\n      swap1\n      pop\n        /* \"#utility.yul\":27373:27382   */\n      dup2\n        /* \"#utility.yul\":27367:27371   */\n      dup2\n        /* \"#utility.yul\":27363:27383   */\n      sub\n        /* \"#utility.yul\":27359:27360   */\n      0x00\n        /* \"#utility.yul\":27348:27357   */\n      dup4\n        /* \"#utility.yul\":27344:27361   */\n      add\n        /* \"#utility.yul\":27337:27384   */\n      mstore\n        /* \"#utility.yul\":27401:27532   */\n      tag_663\n        /* \"#utility.yul\":27527:27531   */\n      dup2\n        /* \"#utility.yul\":27401:27532   */\n      tag_370\n      jump\t// in\n    tag_663:\n        /* \"#utility.yul\":27393:27532   */\n      swap1\n      pop\n        /* \"#utility.yul\":27120:27539   */\n      swap2\n      swap1\n      pop\n      jump\t// out\n        /* \"#utility.yul\":27545:27712   */\n    tag_371:\n        /* \"#utility.yul\":27685:27704   */\n      0x5573652064656c697665727920666c6f77000000000000000000000000000000\n        /* \"#utility.yul\":27681:27682   */\n      0x00\n        /* \"#utility.yul\":27673:27679   */\n      dup3\n        /* \"#utility.yul\":27669:27683   */\n      add\n        /* \"#utility.yul\":27662:27705   */\n      mstore\n        /* \"#utility.yul\":27545:27712   */\n      pop\n      jump\t// out\n        /* \"#utility.yul\":27718:28084   */\n    tag_372:\n        /* \"#utility.yul\":27860:27863   */\n      0x00\n        /* \"#utility.yul\":27881:27948   */\n      tag_666\n        /* \"#utility.yul\":27945:27947   */\n      0x11\n        /* \"#utility.yul\":27940:27943   */\n      dup4\n        /* \"#utility.yul\":27881:27948   */\n      tag_302\n      jump\t// in\n    tag_666:\n        /* \"#utility.yul\":27874:27948   */\n      swap2\n      pop\n        /* \"#utility.yul\":27957:28050   */\n      tag_667\n        /* \"#utility.yul\":28046:28049   */\n      dup3\n        /* \"#utility.yul\":27957:28050   */\n      tag_371\n      jump\t// in\n    tag_667:\n        /* \"#utility.yul\":28075:28077   */\n      0x20\n        /* \"#utility.yul\":28070:28073   */\n      dup3\n        /* \"#utility.yul\":28066:28078   */\n      add\n        /* \"#utility.yul\":28059:28078   */\n      swap1\n      pop\n        /* \"#utility.yul\":27718:28084   */\n      swap2\n      swap1\n      pop\n      jump\t// out\n        /* \"#utility.yul\":28090:28509   */\n    tag_201:\n        /* \"#utility.yul\":28256:28260   */\n      0x00\n        /* \"#utility.yul\":28294:28296   */\n      0x20\n        /* \"#utility.yul\":28283:28292   */\n      dup3\n        /* \"#utility.yul\":28279:28297   */\n      add\n        /* \"#utility.yul\":28271:28297   */\n      swap1\n      pop\n        /* \"#utility.yul\":28343:28352   */\n      dup2\n        /* \"#utility.yul\":28337:28341   */\n      dup2\n        /* \"#utility.yul\":28333:28353   */\n      sub\n        /* \"#utility.yul\":28329:28330   */\n      0x00\n        /* \"#utility.yul\":28318:28327   */\n      dup4\n        /* \"#utility.yul\":28314:28331   */\n      add\n        /* \"#utility.yul\":28307:28354   */\n      mstore\n        /* \"#utility.yul\":28371:28502   */\n      tag_669\n        /* \"#utility.yul\":28497:28501   */\n      dup2\n        /* \"#utility.yul\":28371:28502   */\n      tag_372\n      jump\t// in\n    tag_669:\n        /* \"#utility.yul\":28363:28502   */\n      swap1\n      pop\n        /* \"#utility.yul\":28090:28509   */\n      swap2\n      swap1\n      pop\n      jump\t// out\n        /* \"#utility.yul\":28515:28676   */\n    tag_373:\n        /* \"#utility.yul\":28655:28668   */\n      0x4e6f742043726561746564000000000000000000000000000000000000000000\n        /* \"#utility.yul\":28651:28652   */\n      0x00\n        /* \"#utility.yul\":28643:28649   */\n      dup3\n        /* \"#utility.yul\":28639:28653   */\n      add\n        /* \"#utility.yul\":28632:28669   */\n      mstore\n        /* \"#utility.yul\":28515:28676   */\n      pop\n      jump\t// out\n        /* \"#utility.yul\":28682:29048   */\n    tag_374:\n        /* \"#utility.yul\":28824:28827   */\n      0x00\n        /* \"#utility.yul\":28845:28912   */\n      tag_672\n        /* \"#utility.yul\":28909:28911   */\n      0x0b\n        /* \"#utility.yul\":28904:28907   */\n      dup4\n        /* \"#utility.yul\":28845:28912   */\n      tag_302\n      jump\t// in\n    tag_672:\n        /* \"#utility.yul\":28838:28912   */\n      swap2\n      pop\n        /* \"#utility.yul\":28921:29014   */\n      tag_673\n        /* \"#utility.yul\":29010:29013   */\n      dup3\n        /* \"#utility.yul\":28921:29014   */\n      tag_373\n      jump\t// in\n    tag_673:\n        /* \"#utility.yul\":29039:29041   */\n      0x20\n        /* \"#utility.yul\":29034:29037   */\n      dup3\n        /* \"#utility.yul\":29030:29042   */\n      add\n        /* \"#utility.yul\":29023:29042   */\n      swap1\n      pop\n        /* \"#utility.yul\":28682:29048   */\n      swap2\n      swap1\n      pop\n      jump\t// out\n        /* \"#utility.yul\":29054:29473   */\n    tag_218:\n        /* \"#utility.yul\":29220:29224   */\n      0x00\n        /* \"#utility.yul\":29258:29260   */\n      0x20\n        /* \"#utility.yul\":29247:29256   */\n      dup3\n        /* \"#utility.yul\":29243:29261   */\n      add\n        /* \"#utility.yul\":29235:29261   */\n      swap1\n      pop\n        /* \"#utility.yul\":29307:29316   */\n      dup2\n        /* \"#utility.yul\":29301:29305   */\n      dup2\n        /* \"#utility.yul\":29297:29317   */\n      sub\n        /* \"#utility.yul\":29293:29294   */\n      0x00\n        /* \"#utility.yul\":29282:29291   */\n      dup4\n        /* \"#utility.yul\":29278:29295   */\n      add\n        /* \"#utility.yul\":29271:29318   */\n      mstore\n        /* \"#utility.yul\":29335:29466   */\n      tag_675\n        /* \"#utility.yul\":29461:29465   */\n      dup2\n        /* \"#utility.yul\":29335:29466   */\n      tag_374\n      jump\t// in\n    tag_675:\n        /* \"#utility.yul\":29327:29466   */\n      swap1\n      pop\n        /* \"#utility.yul\":29054:29473   */\n      swap2\n      swap1\n      pop\n      jump\t// out\n        /* \"#utility.yul\":29479:29647   */\n    tag_375:\n        /* \"#utility.yul\":29619:29639   */\n      0x302061646472206e6f7420616c6c6f7765640000000000000000000000000000\n        /* \"#utility.yul\":29615:29616   */\n      0x00\n        /* \"#utility.yul\":29607:29613   */\n      dup3\n        /* \"#utility.yul\":29603:29617   */\n      add\n        /* \"#utility.yul\":29596:29640   */\n      mstore\n        /* \"#utility.yul\":29479:29647   */\n      pop\n      jump\t// out\n        /* \"#utility.yul\":29653:30019   */\n    tag_376:\n        /* \"#utility.yul\":29795:29798   */\n      0x00\n        /* \"#utility.yul\":29816:29883   */\n      tag_678\n        /* \"#utility.yul\":29880:29882   */\n      0x12\n        /* \"#utility.yul\":29875:29878   */\n      dup4\n        /* \"#utility.yul\":29816:29883   */\n      tag_302\n      jump\t// in\n    tag_678:\n        /* \"#utility.yul\":29809:29883   */\n      swap2\n      pop\n        /* \"#utility.yul\":29892:29985   */\n      tag_679\n        /* \"#utility.yul\":29981:29984   */\n      dup3\n        /* \"#utility.yul\":29892:29985   */\n      tag_375\n      jump\t// in\n    tag_679:\n        /* \"#utility.yul\":30010:30012   */\n      0x20\n        /* \"#utility.yul\":30005:30008   */\n      dup3\n        /* \"#utility.yul\":30001:30013   */\n      add\n        /* \"#utility.yul\":29994:30013   */\n      swap1\n      pop\n        /* \"#utility.yul\":29653:30019   */\n      swap2\n      swap1\n      pop\n      jump\t// out\n        /* \"#utility.yul\":30025:30444   */\n    tag_224:\n        /* \"#utility.yul\":30191:30195   */\n      0x00\n        /* \"#utility.yul\":30229:30231   */\n      0x20\n        /* \"#utility.yul\":30218:30227   */\n      dup3\n        /* \"#utility.yul\":30214:30232   */\n      add\n        /* \"#utility.yul\":30206:30232   */\n      swap1\n      pop\n        /* \"#utility.yul\":30278:30287   */\n      dup2\n        /* \"#utility.yul\":30272:30276   */\n      dup2\n        /* \"#utility.yul\":30268:30288   */\n      sub\n        /* \"#utility.yul\":30264:30265   */\n      0x00\n        /* \"#utility.yul\":30253:30262   */\n      dup4\n        /* \"#utility.yul\":30249:30266   */\n      add\n        /* \"#utility.yul\":30242:30289   */\n      mstore\n        /* \"#utility.yul\":30306:30437   */\n      tag_681\n        /* \"#utility.yul\":30432:30436   */\n      dup2\n        /* \"#utility.yul\":30306:30437   */\n      tag_376\n      jump\t// in\n    tag_681:\n        /* \"#utility.yul\":30298:30437   */\n      swap1\n      pop\n        /* \"#utility.yul\":30025:30444   */\n      swap2\n      swap1\n      pop\n      jump\t// out\n        /* \"#utility.yul\":30450:30612   */\n    tag_377:\n        /* \"#utility.yul\":30590:30604   */\n      0x455448206d69736d617463680000000000000000000000000000000000000000\n        /* \"#utility.yul\":30586:30587   */\n      0x00\n        /* \"#utility.yul\":30578:30584   */\n      dup3\n        /* \"#utility.yul\":30574:30588   */\n      add\n        /* \"#utility.yul\":30567:30605   */\n      mstore\n        /* \"#utility.yul\":30450:30612   */\n      pop\n      jump\t// out\n        /* \"#utility.yul\":30618:30984   */\n    tag_378:\n        /* \"#utility.yul\":30760:30763   */\n      0x00\n        /* \"#utility.yul\":30781:30848   */\n      tag_684\n        /* \"#utility.yul\":30845:30847   */\n      0x0c\n        /* \"#utility.yul\":30840:30843   */\n      dup4\n        /* \"#utility.yul\":30781:30848   */\n      tag_302\n      jump\t// in\n    tag_684:\n        /* \"#utility.yul\":30774:30848   */\n      swap2\n      pop\n        /* \"#utility.yul\":30857:30950   */\n      tag_685\n        /* \"#utility.yul\":30946:30949   */\n      dup3\n        /* \"#utility.yul\":30857:30950   */\n      tag_377\n      jump\t// in\n    tag_685:\n        /* \"#utility.yul\":30975:30977   */\n      0x20\n        /* \"#utility.yul\":30970:30973   */\n      dup3\n        /* \"#utility.yul\":30966:30978   */\n      add\n        /* \"#utility.yul\":30959:30978   */\n      swap1\n      pop\n        /* \"#utility.yul\":30618:30984   */\n      swap2\n      swap1\n      pop\n      jump\t// out\n        /* \"#utility.yul\":30990:31409   */\n    tag_227:\n        /* \"#utility.yul\":31156:31160   */\n      0x00\n        /* \"#utility.yul\":31194:31196   */\n      0x20\n        /* \"#utility.yul\":31183:31192   */\n      dup3\n        /* \"#utility.yul\":31179:31197   */\n      add\n        /* \"#utility.yul\":31171:31197   */\n      swap1\n      pop\n        /* \"#utility.yul\":31243:31252   */\n      dup2\n        /* \"#utility.yul\":31237:31241   */\n      dup2\n        /* \"#utility.yul\":31233:31253   */\n      sub\n        /* \"#utility.yul\":31229:31230   */\n      0x00\n        /* \"#utility.yul\":31218:31227   */\n      dup4\n        /* \"#utility.yul\":31214:31231   */\n      add\n        /* \"#utility.yul\":31207:31254   */\n      mstore\n        /* \"#utility.yul\":31271:31402   */\n      tag_687\n        /* \"#utility.yul\":31397:31401   */\n      dup2\n        /* \"#utility.yul\":31271:31402   */\n      tag_378\n      jump\t// in\n    tag_687:\n        /* \"#utility.yul\":31263:31402   */\n      swap1\n      pop\n        /* \"#utility.yul\":30990:31409   */\n      swap2\n      swap1\n      pop\n      jump\t// out\n        /* \"#utility.yul\":31415:31586   */\n    tag_379:\n        /* \"#utility.yul\":31555:31578   */\n      0x496e76616c696420636f6e747261637420686173680000000000000000000000\n        /* \"#utility.yul\":31551:31552   */\n      0x00\n        /* \"#utility.yul\":31543:31549   */\n      dup3\n        /* \"#utility.yul\":31539:31553   */\n      add\n        /* \"#utility.yul\":31532:31579   */\n      mstore\n        /* \"#utility.yul\":31415:31586   */\n      pop\n      jump\t// out\n        /* \"#utility.yul\":31592:31958   */\n    tag_380:\n        /* \"#utility.yul\":31734:31737   */\n      0x00\n        /* \"#utility.yul\":31755:31822   */\n      tag_690\n        /* \"#utility.yul\":31819:31821   */\n      0x15\n        /* \"#utility.yul\":31814:31817   */\n      dup4\n        /* \"#utility.yul\":31755:31822   */\n      tag_302\n      jump\t// in\n    tag_690:\n        /* \"#utility.yul\":31748:31822   */\n      swap2\n      pop\n        /* \"#utility.yul\":31831:31924   */\n      tag_691\n        /* \"#utility.yul\":31920:31923   */\n      dup3\n        /* \"#utility.yul\":31831:31924   */\n      tag_379\n      jump\t// in\n    tag_691:\n        /* \"#utility.yul\":31949:31951   */\n      0x20\n        /* \"#utility.yul\":31944:31947   */\n      dup3\n        /* \"#utility.yul\":31940:31952   */\n      add\n        /* \"#utility.yul\":31933:31952   */\n      swap1\n      pop\n        /* \"#utility.yul\":31592:31958   */\n      swap2\n      swap1\n      pop\n      jump\t// out\n        /* \"#utility.yul\":31964:32383   */\n    tag_230:\n        /* \"#utility.yul\":32130:32134   */\n      0x00\n        /* \"#utility.yul\":32168:32170   */\n      0x20\n        /* \"#utility.yul\":32157:32166   */\n      dup3\n        /* \"#utility.yul\":32153:32171   */\n      add\n        /* \"#utility.yul\":32145:32171   */\n      swap1\n      pop\n        /* \"#utility.yul\":32217:32226   */\n      dup2\n        /* \"#utility.yul\":32211:32215   */\n      dup2\n        /* \"#utility.yul\":32207:32227   */\n      sub\n        /* \"#utility.yul\":32203:32204   */\n      0x00\n        /* \"#utility.yul\":32192:32201   */\n      dup4\n        /* \"#utility.yul\":32188:32205   */\n      add\n        /* \"#utility.yul\":32181:32228   */\n      mstore\n        /* \"#utility.yul\":32245:32376   */\n      tag_693\n        /* \"#utility.yul\":32371:32375   */\n      dup2\n        /* \"#utility.yul\":32245:32376   */\n      tag_380\n      jump\t// in\n    tag_693:\n        /* \"#utility.yul\":32237:32376   */\n      swap1\n      pop\n        /* \"#utility.yul\":31964:32383   */\n      swap2\n      swap1\n      pop\n      jump\t// out\n        /* \"#utility.yul\":32389:32622   */\n    tag_232:\n        /* \"#utility.yul\":32428:32431   */\n      0x00\n        /* \"#utility.yul\":32451:32475   */\n      tag_695\n        /* \"#utility.yul\":32469:32474   */\n      dup3\n        /* \"#utility.yul\":32451:32475   */\n      tag_297\n      jump\t// in\n    tag_695:\n        /* \"#utility.yul\":32442:32475   */\n      swap2\n      pop\n        /* \"#utility.yul\":32497:32563   */\n      0xffffffffffffffffffffffffffffffffffffffffffffffffffffffffffffffff\n        /* \"#utility.yul\":32490:32495   */\n      dup3\n        /* \"#utility.yul\":32487:32564   */\n      sub\n        /* \"#utility.yul\":32484:32587   */\n      tag_696\n      jumpi\n        /* \"#utility.yul\":32567:32585   */\n      tag_697\n      tag_342\n      jump\t// in\n    tag_697:\n        /* \"#utility.yul\":32484:32587   */\n    tag_696:\n        /* \"#utility.yul\":32614:32615   */\n      0x01\n        /* \"#utility.yul\":32607:32612   */\n      dup3\n        /* \"#utility.yul\":32603:32616   */\n      add\n        /* \"#utility.yul\":32596:32616   */\n      swap1\n      pop\n        /* \"#utility.yul\":32389:32622   */\n      swap2\n      swap1\n      pop\n      jump\t// out\n        /* \"#utility.yul\":32628:32770   */\n    tag_381:\n        /* \"#utility.yul\":32678:32687   */\n      0x00\n        /* \"#utility.yul\":32711:32764   */\n      tag_699\n        /* \"#utility.yul\":32729:32763   */\n      tag_700\n        /* \"#utility.yul\":32738:32762   */\n      tag_701\n        /* \"#utility.yul\":32756:32761   */\n      dup5\n        /* \"#utility.yul\":32738:32762   */\n      tag_310\n      jump\t// in\n    tag_701:\n        /* \"#utility.yul\":32729:32763   */\n      tag_352\n      jump\t// in\n    tag_700:\n        /* \"#utility.yul\":32711:32764   */\n      tag_310\n      jump\t// in\n    tag_699:\n        /* \"#utility.yul\":32698:32764   */\n      swap1\n      pop\n        /* \"#utility.yul\":32628:32770   */\n      swap2\n      swap1\n      pop\n      jump\t// out\n        /* \"#utility.yul\":32776:32902   */\n    tag_382:\n        /* \"#utility.yul\":32826:32835   */\n      0x00\n        /* \"#utility.yul\":32859:32896   */\n      tag_703\n        /* \"#utility.yul\":32890:32895   */\n      dup3\n        /* \"#utility.yul\":32859:32896   */\n      tag_381\n      jump\t// in\n    tag_703:\n        /* \"#utility.yul\":32846:32896   */\n      swap1\n      pop\n        /* \"#utility.yul\":32776:32902   */\n      swap2\n      swap1\n      pop\n      jump\t// out\n        /* \"#utility.yul\":32908:33042   */\n    tag_383:\n        /* \"#utility.yul\":32966:32975   */\n      0x00\n        /* \"#utility.yul\":32999:33036   */\n      tag_705\n        /* \"#utility.yul\":33030:33035   */\n      dup3\n        /* \"#utility.yul\":32999:33036   */\n      tag_382\n      jump\t// in\n    tag_705:\n        /* \"#utility.yul\":32986:33036   */\n      swap1\n      pop\n        /* \"#utility.yul\":32908:33042   */\n      swap2\n      swap1\n      pop\n      jump\t// out\n        /* \"#utility.yul\":33048:33195   */\n    tag_384:\n        /* \"#utility.yul\":33143:33188   */\n      tag_707\n        /* \"#utility.yul\":33182:33187   */\n      dup2\n        /* \"#utility.yul\":33143:33188   */\n      tag_383\n      jump\t// in\n    tag_707:\n        /* \"#utility.yul\":33138:33141   */\n      dup3\n        /* \"#utility.yul\":33131:33189   */\n      mstore\n        /* \"#utility.yul\":33048:33195   */\n      pop\n      pop\n      jump\t// out\n        /* \"#utility.yul\":33201:33549   */\n    tag_237:\n        /* \"#utility.yul\":33330:33334   */\n      0x00\n        /* \"#utility.yul\":33368:33370   */\n      0x40\n        /* \"#utility.yul\":33357:33366   */\n      dup3\n        /* \"#utility.yul\":33353:33371   */\n      add\n        /* \"#utility.yul\":33345:33371   */\n      swap1\n      pop\n        /* \"#utility.yul\":33381:33452   */\n      tag_709\n        /* \"#utility.yul\":33449:33450   */\n      0x00\n        /* \"#utility.yul\":33438:33447   */\n      dup4\n        /* \"#utility.yul\":33434:33451   */\n      add\n        /* \"#utility.yul\":33425:33431   */\n      dup6\n        /* \"#utility.yul\":33381:33452   */\n      tag_329\n      jump\t// in\n    tag_709:\n        /* \"#utility.yul\":33462:33542   */\n      tag_710\n        /* \"#utility.yul\":33538:33540   */\n      0x20\n        /* \"#utility.yul\":33527:33536   */\n      dup4\n        /* \"#utility.yul\":33523:33541   */\n      add\n        /* \"#utility.yul\":33514:33520   */\n      dup5\n        /* \"#utility.yul\":33462:33542   */\n      tag_384\n      jump\t// in\n    tag_710:\n        /* \"#utility.yul\":33201:33549   */\n      swap4\n      swap3\n      pop\n      pop\n      pop\n      jump\t// out\n        /* \"#utility.yul\":33555:33715   */\n    tag_385:\n        /* \"#utility.yul\":33695:33707   */\n      0x4e6f74206f7261636c6500000000000000000000000000000000000000000000\n        /* \"#utility.yul\":33691:33692   */\n      0x00\n        /* \"#utility.yul\":33683:33689   */\n      dup3\n        /* \"#utility.yul\":33679:33693   */\n      add\n        /* \"#utility.yul\":33672:33708   */\n      mstore\n        /* \"#utility.yul\":33555:33715   */\n      pop\n      jump\t// out\n        /* \"#utility.yul\":33721:34087   */\n    tag_386:\n        /* \"#utility.yul\":33863:33866   */\n      0x00\n        /* \"#utility.yul\":33884:33951   */\n      tag_713\n        /* \"#utility.yul\":33948:33950   */\n      0x0a\n        /* \"#utility.yul\":33943:33946   */\n      dup4\n        /* \"#utility.yul\":33884:33951   */\n      tag_302\n      jump\t// in\n    tag_713:\n        /* \"#utility.yul\":33877:33951   */\n      swap2\n      pop\n        /* \"#utility.yul\":33960:34053   */\n      tag_714\n        /* \"#utility.yul\":34049:34052   */\n      dup3\n        /* \"#utility.yul\":33960:34053   */\n      tag_385\n      jump\t// in\n    tag_714:\n        /* \"#utility.yul\":34078:34080   */\n      0x20\n        /* \"#utility.yul\":34073:34076   */\n      dup3\n        /* \"#utility.yul\":34069:34081   */\n      add\n        /* \"#utility.yul\":34062:34081   */\n      swap1\n      pop\n        /* \"#utility.yul\":33721:34087   */\n      swap2\n      swap1\n      pop\n      jump\t// out\n        /* \"#utility.yul\":34093:34512   */\n    tag_243:\n        /* \"#utility.yul\":34259:34263   */\n      0x00\n        /* \"#utility.yul\":34297:34299   */\n      0x20\n        /* \"#utility.yul\":34286:34295   */\n      dup3\n        /* \"#utility.yul\":34282:34300   */\n      add\n        /* \"#utility.yul\":34274:34300   */\n      swap1\n      pop\n        /* \"#utility.yul\":34346:34355   */\n      dup2\n        /* \"#utility.yul\":34340:34344   */\n      dup2\n        /* \"#utility.yul\":34336:34356   */\n      sub\n        /* \"#utility.yul\":34332:34333   */\n      0x00\n        /* \"#utility.yul\":34321:34330   */\n      dup4\n        /* \"#utility.yul\":34317:34334   */\n      add\n        /* \"#utility.yul\":34310:34357   */\n      mstore\n        /* \"#utility.yul\":34374:34505   */\n      tag_716\n        /* \"#utility.yul\":34500:34504   */\n      dup2\n        /* \"#utility.yul\":34374:34505   */\n      tag_386\n      jump\t// in\n    tag_716:\n        /* \"#utility.yul\":34366:34505   */\n      swap1\n      pop\n        /* \"#utility.yul\":34093:34512   */\n      swap2\n      swap1\n      pop\n      jump\t// out\n        /* \"#utility.yul\":34518:34685   */\n    tag_387:\n        /* \"#utility.yul\":34658:34677   */\n      0x416c726561647920636f6e6669726d6564000000000000000000000000000000\n        /* \"#utility.yul\":34654:34655   */\n      0x00\n        /* \"#utility.yul\":34646:34652   */\n      dup3\n        /* \"#utility.yul\":34642:34656   */\n      add\n        /* \"#utility.yul\":34635:34678   */\n      mstore\n        /* \"#utility.yul\":34518:34685   */\n      pop\n      jump\t// out\n        /* \"#utility.yul\":34691:35057   */\n    tag_388:\n        /* \"#utility.yul\":34833:34836   */\n      0x00\n        /* \"#utility.yul\":34854:34921   */\n      tag_719\n        /* \"#utility.yul\":34918:34920   */\n      0x11\n        /* \"#utility.yul\":34913:34916   */\n      dup4\n        /* \"#utility.yul\":34854:34921   */\n      tag_302\n      jump\t// in\n    tag_719:\n        /* \"#utility.yul\":34847:34921   */\n      swap2\n      pop\n        /* \"#utility.yul\":34930:35023   */\n      tag_720\n        /* \"#utility.yul\":35019:35022   */\n      dup3\n        /* \"#utility.yul\":34930:35023   */\n      tag_387\n      jump\t// in\n    tag_720:\n        /* \"#utility.yul\":35048:35050   */\n      0x20\n        /* \"#utility.yul\":35043:35046   */\n      dup3\n        /* \"#utility.yul\":35039:35051   */\n      add\n        /* \"#utility.yul\":35032:35051   */\n      swap1\n      pop\n        /* \"#utility.yul\":34691:35057   */\n      swap2\n      swap1\n      pop\n      jump\t// out\n        /* \"#utility.yul\":35063:35482   */\n    tag_255:\n        /* \"#utility.yul\":35229:35233   */\n      0x00\n        /* \"#utility.yul\":35267:35269   */\n      0x20\n        /* \"#utility.yul\":35256:35265   */\n      dup3\n        /* \"#utility.yul\":35252:35270   */\n      add\n        /* \"#utility.yul\":35244:35270   */\n      swap1\n      pop\n        /* \"#utility.yul\":35316:35325   */\n      dup2\n        /* \"#utility.yul\":35310:35314   */\n      dup2\n        /* \"#utility.yul\":35306:35326   */\n      sub\n        /* \"#utility.yul\":35302:35303   */\n      0x00\n        /* \"#utility.yul\":35291:35300   */\n      dup4\n        /* \"#utility.yul\":35287:35304   */\n      add\n        /* \"#utility.yul\":35280:35327   */\n      mstore\n        /* \"#utility.yul\":35344:35475   */\n      tag_722\n        /* \"#utility.yul\":35470:35474   */\n      dup2\n        /* \"#utility.yul\":35344:35475   */\n      tag_388\n      jump\t// in\n    tag_722:\n        /* \"#utility.yul\":35336:35475   */\n      swap1\n      pop\n        /* \"#utility.yul\":35063:35482   */\n      swap2\n      swap1\n      pop\n      jump\t// out\n        /* \"#utility.yul\":35488:35651   */\n    tag_389:\n        /* \"#utility.yul\":35628:35643   */\n      0x48617368206d69736d6174636800000000000000000000000000000000000000\n        /* \"#utility.yul\":35624:35625   */\n      0x00\n        /* \"#utility.yul\":35616:35622   */\n      dup3\n        /* \"#utility.yul\":35612:35626   */\n      add\n        /* \"#utility.yul\":35605:35644   */\n      mstore\n        /* \"#utility.yul\":35488:35651   */\n      pop\n      jump\t// out\n        /* \"#utility.yul\":35657:36023   */\n    tag_390:\n        /* \"#utility.yul\":35799:35802   */\n      0x00\n        /* \"#utility.yul\":35820:35887   */\n      tag_725\n        /* \"#utility.yul\":35884:35886   */\n      0x0d\n        /* \"#utility.yul\":35879:35882   */\n      dup4\n        /* \"#utility.yul\":35820:35887   */\n      tag_302\n      jump\t// in\n    tag_725:\n        /* \"#utility.yul\":35813:35887   */\n      swap2\n      pop\n        /* \"#utility.yul\":35896:35989   */\n      tag_726\n        /* \"#utility.yul\":35985:35988   */\n      dup3\n        /* \"#utility.yul\":35896:35989   */\n      tag_389\n      jump\t// in\n    tag_726:\n        /* \"#utility.yul\":36014:36016   */\n      0x20\n        /* \"#utility.yul\":36009:36012   */\n      dup3\n        /* \"#utility.yul\":36005:36017   */\n      add\n        /* \"#utility.yul\":35998:36017   */\n      swap1\n      pop\n        /* \"#utility.yul\":35657:36023   */\n      swap2\n      swap1\n      pop\n      jump\t// out\n        /* \"#utility.yul\":36029:36448   */\n    tag_259:\n        /* \"#utility.yul\":36195:36199   */\n      0x00\n        /* \"#utility.yul\":36233:36235   */\n      0x20\n        /* \"#utility.yul\":36222:36231   */\n      dup3\n        /* \"#utility.yul\":36218:36236   */\n      add\n        /* \"#utility.yul\":36210:36236   */\n      swap1\n      pop\n        /* \"#utility.yul\":36282:36291   */\n      dup2\n        /* \"#utility.yul\":36276:36280   */\n      dup2\n        /* \"#utility.yul\":36272:36292   */\n      sub\n        /* \"#utility.yul\":36268:36269   */\n      0x00\n        /* \"#utility.yul\":36257:36266   */\n      dup4\n        /* \"#utility.yul\":36253:36270   */\n      add\n        /* \"#utility.yul\":36246:36293   */\n      mstore\n        /* \"#utility.yul\":36310:36441   */\n      tag_728\n        /* \"#utility.yul\":36436:36440   */\n      dup2\n        /* \"#utility.yul\":36310:36441   */\n      tag_390\n      jump\t// in\n    tag_728:\n        /* \"#utility.yul\":36302:36441   */\n      swap1\n      pop\n        /* \"#utility.yul\":36029:36448   */\n      swap2\n      swap1\n      pop\n      jump\t// out\n        /* \"#utility.yul\":36454:36617   */\n    tag_391:\n        /* \"#utility.yul\":36594:36609   */\n      0x4e6f7420636f6d706c6574656400000000000000000000000000000000000000\n        /* \"#utility.yul\":36590:36591   */\n      0x00\n        /* \"#utility.yul\":36582:36588   */\n      dup3\n        /* \"#utility.yul\":36578:36592   */\n      add\n        /* \"#utility.yul\":36571:36610   */\n      mstore\n        /* \"#utility.yul\":36454:36617   */\n      pop\n      jump\t// out\n        /* \"#utility.yul\":36623:36989   */\n    tag_392:\n        /* \"#utility.yul\":36765:36768   */\n      0x00\n        /* \"#utility.yul\":36786:36853   */\n      tag_731\n        /* \"#utility.yul\":36850:36852   */\n      0x0d\n        /* \"#utility.yul\":36845:36848   */\n      dup4\n        /* \"#utility.yul\":36786:36853   */\n      tag_302\n      jump\t// in\n    tag_731:\n        /* \"#utility.yul\":36779:36853   */\n      swap2\n      pop\n        /* \"#utility.yul\":36862:36955   */\n      tag_732\n        /* \"#utility.yul\":36951:36954   */\n      dup3\n        /* \"#utility.yul\":36862:36955   */\n      tag_391\n      jump\t// in\n    tag_732:\n        /* \"#utility.yul\":36980:36982   */\n      0x20\n        /* \"#utility.yul\":36975:36978   */\n      dup3\n        /* \"#utility.yul\":36971:36983   */\n      add\n        /* \"#utility.yul\":36964:36983   */\n      swap1\n      pop\n        /* \"#utility.yul\":36623:36989   */\n      swap2\n      swap1\n      pop\n      jump\t// out\n        /* \"#utility.yul\":36995:37414   */\n    tag_270:\n        /* \"#utility.yul\":37161:37165   */\n      0x00\n        /* \"#utility.yul\":37199:37201   */\n      0x20\n        /* \"#utility.yul\":37188:37197   */\n      dup3\n        /* \"#utility.yul\":37184:37202   */\n      add\n        /* \"#utility.yul\":37176:37202   */\n      swap1\n      pop\n        /* \"#utility.yul\":37248:37257   */\n      dup2\n        /* \"#utility.yul\":37242:37246   */\n      dup2\n        /* \"#utility.yul\":37238:37258   */\n      sub\n        /* \"#utility.yul\":37234:37235   */\n      0x00\n        /* \"#utility.yul\":37223:37232   */\n      dup4\n        /* \"#utility.yul\":37219:37236   */\n      add\n        /* \"#utility.yul\":37212:37259   */\n      mstore\n        /* \"#utility.yul\":37276:37407   */\n      tag_734\n        /* \"#utility.yul\":37402:37406   */\n      dup2\n        /* \"#utility.yul\":37276:37407   */\n      tag_392\n      jump\t// in\n    tag_734:\n        /* \"#utility.yul\":37268:37407   */\n      swap1\n      pop\n        /* \"#utility.yul\":36995:37414   */\n      swap2\n      swap1\n      pop\n      jump\t// out\n        /* \"#utility.yul\":37420:37583   */\n    tag_393:\n        /* \"#utility.yul\":37560:37575   */\n      0x4e6f7420726563697069656e7400000000000000000000000000000000000000\n        /* \"#utility.yul\":37556:37557   */\n      0x00\n        /* \"#utility.yul\":37548:37554   */\n      dup3\n        /* \"#utility.yul\":37544:37558   */\n      add\n        /* \"#utility.yul\":37537:37576   */\n      mstore\n        /* \"#utility.yul\":37420:37583   */\n      pop\n      jump\t// out\n        /* \"#utility.yul\":37589:37955   */\n    tag_394:\n        /* \"#utility.yul\":37731:37734   */\n      0x00\n        /* \"#utility.yul\":37752:37819   */\n      tag_737\n        /* \"#utility.yul\":37816:37818   */\n      0x0d\n        /* \"#utility.yul\":37811:37814   */\n      dup4\n        /* \"#utility.yul\":37752:37819   */\n      tag_302\n      jump\t// in\n    tag_737:\n        /* \"#utility.yul\":37745:37819   */\n      swap2\n      pop\n        /* \"#utility.yul\":37828:37921   */\n      tag_738\n        /* \"#utility.yul\":37917:37920   */\n      dup3\n        /* \"#utility.yul\":37828:37921   */\n      tag_393\n      jump\t// in\n    tag_738:\n        /* \"#utility.yul\":37946:37948   */\n      0x20\n        /* \"#utility.yul\":37941:37944   */\n      dup3\n        /* \"#utility.yul\":37937:37949   */\n      add\n        /* \"#utility.yul\":37930:37949   */\n      swap1\n      pop\n        /* \"#utility.yul\":37589:37955   */\n      swap2\n      swap1\n      pop\n      jump\t// out\n        /* \"#utility.yul\":37961:38380   */\n    tag_273:\n        /* \"#utility.yul\":38127:38131   */\n      0x00\n        /* \"#utility.yul\":38165:38167   */\n      0x20\n        /* \"#utility.yul\":38154:38163   */\n      dup3\n        /* \"#utility.yul\":38150:38168   */\n      add\n        /* \"#utility.yul\":38142:38168   */\n      swap1\n      pop\n        /* \"#utility.yul\":38214:38223   */\n      dup2\n        /* \"#utility.yul\":38208:38212   */\n      dup2\n        /* \"#utility.yul\":38204:38224   */\n      sub\n        /* \"#utility.yul\":38200:38201   */\n      0x00\n        /* \"#utility.yul\":38189:38198   */\n      dup4\n        /* \"#utility.yul\":38185:38202   */\n      add\n        /* \"#utility.yul\":38178:38225   */\n      mstore\n        /* \"#utility.yul\":38242:38373   */\n      tag_740\n        /* \"#utility.yul\":38368:38372   */\n      dup2\n        /* \"#utility.yul\":38242:38373   */\n      tag_394\n      jump\t// in\n    tag_740:\n        /* \"#utility.yul\":38234:38373   */\n      swap1\n      pop\n        /* \"#utility.yul\":37961:38380   */\n      swap2\n      swap1\n      pop\n      jump\t// out\n        /* \"#utility.yul\":38386:38546   */\n    tag_395:\n        /* \"#utility.yul\":38526:38538   */\n      0x4e6f2062616c616e636500000000000000000000000000000000000000000000\n        /* \"#utility.yul\":38522:38523   */\n      0x00\n        /* \"#utility.yul\":38514:38520   */\n      dup3\n        /* \"#utility.yul\":38510:38524   */\n      add\n        /* \"#utility.yul\":38503:38539   */\n      mstore\n        /* \"#utility.yul\":38386:38546   */\n      pop\n      jump\t// out\n        /* \"#utility.yul\":38552:38918   */\n    tag_396:\n        /* \"#utility.yul\":38694:38697   */\n      0x00\n        /* \"#utility.yul\":38715:38782   */\n      tag_743\n        /* \"#utility.yul\":38779:38781   */\n      0x0a\n        /* \"#utility.yul\":38774:38777   */\n      dup4\n        /* \"#utility.yul\":38715:38782   */\n      tag_302\n      jump\t// in\n    tag_743:\n        /* \"#utility.yul\":38708:38782   */\n      swap2\n      pop\n        /* \"#utility.yul\":38791:38884   */\n      tag_744\n        /* \"#utility.yul\":38880:38883   */\n      dup3\n        /* \"#utility.yul\":38791:38884   */\n      tag_395\n      jump\t// in\n    tag_744:\n        /* \"#utility.yul\":38909:38911   */\n      0x20\n        /* \"#utility.yul\":38904:38907   */\n      dup3\n        /* \"#utility.yul\":38900:38912   */\n      add\n        /* \"#utility.yul\":38893:38912   */\n      swap1\n      pop\n        /* \"#utility.yul\":38552:38918   */\n      swap2\n      swap1\n      pop\n      jump\t// out\n        /* \"#utility.yul\":38924:39343   */\n    tag_276:\n        /* \"#utility.yul\":39090:39094   */\n      0x00\n        /* \"#utility.yul\":39128:39130   */\n      0x20\n        /* \"#utility.yul\":39117:39126   */\n      dup3\n        /* \"#utility.yul\":39113:39131   */\n      add\n        /* \"#utility.yul\":39105:39131   */\n      swap1\n      pop\n        /* \"#utility.yul\":39177:39186   */\n      dup2\n        /* \"#utility.yul\":39171:39175   */\n      dup2\n        /* \"#utility.yul\":39167:39187   */\n      sub\n        /* \"#utility.yul\":39163:39164   */\n      0x00\n        /* \"#utility.yul\":39152:39161   */\n      dup4\n        /* \"#utility.yul\":39148:39165   */\n      add\n        /* \"#utility.yul\":39141:39188   */\n      mstore\n        /* \"#utility.yul\":39205:39336   */\n      tag_746\n        /* \"#utility.yul\":39331:39335   */\n      dup2\n        /* \"#utility.yul\":39205:39336   */\n      tag_396\n      jump\t// in\n    tag_746:\n        /* \"#utility.yul\":39197:39336   */\n      swap1\n      pop\n        /* \"#utility.yul\":38924:39343   */\n      swap2\n      swap1\n      pop\n      jump\t// out\n        /* \"#utility.yul\":39349:39543   */\n    tag_278:\n        /* \"#utility.yul\":39389:39393   */\n      0x00\n        /* \"#utility.yul\":39409:39429   */\n      tag_748\n        /* \"#utility.yul\":39427:39428   */\n      dup3\n        /* \"#utility.yul\":39409:39429   */\n      tag_297\n      jump\t// in\n    tag_748:\n        /* \"#utility.yul\":39404:39429   */\n      swap2\n      pop\n        /* \"#utility.yul\":39443:39463   */\n      tag_749\n        /* \"#utility.yul\":39461:39462   */\n      dup4\n        /* \"#utility.yul\":39443:39463   */\n      tag_297\n      jump\t// in\n    tag_749:\n        /* \"#utility.yul\":39438:39463   */\n      swap3\n      pop\n        /* \"#utility.yul\":39487:39488   */\n      dup3\n        /* \"#utility.yul\":39484:39485   */\n      dup3\n        /* \"#utility.yul\":39480:39489   */\n      sub\n        /* \"#utility.yul\":39472:39489   */\n      swap1\n      pop\n        /* \"#utility.yul\":39511:39512   */\n      dup2\n        /* \"#utility.yul\":39505:39509   */\n      dup2\n        /* \"#utility.yul\":39502:39513   */\n      gt\n        /* \"#utility.yul\":39499:39536   */\n      iszero\n      tag_750\n      jumpi\n        /* \"#utility.yul\":39516:39534   */\n      tag_751\n      tag_342\n      jump\t// in\n    tag_751:\n        /* \"#utility.yul\":39499:39536   */\n    tag_750:\n        /* \"#utility.yul\":39349:39543   */\n      swap3\n      swap2\n      pop\n      pop\n      jump\t// out\n        /* \"#utility.yul\":39549:39696   */\n    tag_397:\n        /* \"#utility.yul\":39650:39661   */\n      0x00\n        /* \"#utility.yul\":39687:39690   */\n      dup2\n        /* \"#utility.yul\":39672:39690   */\n      swap1\n      pop\n        /* \"#utility.yul\":39549:39696   */\n      swap3\n      swap2\n      pop\n      pop\n      jump\t// out\n        /* \"#utility.yul\":39702:39816   */\n    tag_398:\n      pop\n      jump\t// out\n        /* \"#utility.yul\":39822:40220   */\n    tag_399:\n        /* \"#utility.yul\":39981:39984   */\n      0x00\n        /* \"#utility.yul\":40002:40085   */\n      tag_755\n        /* \"#utility.yul\":40083:40084   */\n      0x00\n        /* \"#utility.yul\":40078:40081   */\n      dup4\n        /* \"#utility.yul\":40002:40085   */\n      tag_397\n      jump\t// in\n    tag_755:\n        /* \"#utility.yul\":39995:40085   */\n      swap2\n      pop\n        /* \"#utility.yul\":40094:40187   */\n      tag_756\n        /* \"#utility.yul\":40183:40186   */\n      dup3\n        /* \"#utility.yul\":40094:40187   */\n      tag_398\n      jump\t// in\n    tag_756:\n        /* \"#utility.yul\":40212:40213   */\n      0x00\n        /* \"#utility.yul\":40207:40210   */\n      dup3\n        /* \"#utility.yul\":40203:40214   */\n      add\n        /* \"#utility.yul\":40196:40214   */\n      swap1\n      pop\n        /* \"#utility.yul\":39822:40220   */\n      swap2\n      swap1\n      pop\n      jump\t// out\n        /* \"#utility.yul\":40226:40605   */\n    tag_280:\n        /* \"#utility.yul\":40410:40413   */\n      0x00\n        /* \"#utility.yul\":40432:40579   */\n      tag_758\n        /* \"#utility.yul\":40575:40578   */\n      dup3\n        /* \"#utility.yul\":40432:40579   */\n      tag_399\n      jump\t// in\n    tag_758:\n        /* \"#utility.yul\":40425:40579   */\n      swap2\n      pop\n        /* \"#utility.yul\":40596:40599   */\n      dup2\n        /* \"#utility.yul\":40589:40599   */\n      swap1\n      pop\n        /* \"#utility.yul\":40226:40605   */\n      swap2\n      swap1\n      pop\n      jump\t// out\n        /* \"#utility.yul\":40611:40776   */\n    tag_400:\n        /* \"#utility.yul\":40751:40768   */\n      0x5769746864726177206661696c65640000000000000000000000000000000000\n        /* \"#utility.yul\":40747:40748   */\n      0x00\n        /* \"#utility.yul\":40739:40745   */\n      dup3\n        /* \"#utility.yul\":40735:40749   */\n      add\n        /* \"#utility.yul\":40728:40769   */\n      mstore\n        /* \"#utility.yul\":40611:40776   */\n      pop\n      jump\t// out\n        /* \"#utility.yul\":40782:41148   */\n    tag_401:\n        /* \"#utility.yul\":40924:40927   */\n      0x00\n        /* \"#utility.yul\":40945:41012   */\n      tag_761\n        /* \"#utility.yul\":41009:41011   */\n      0x0f\n        /* \"#utility.yul\":41004:41007   */\n      dup4\n        /* \"#utility.yul\":40945:41012   */\n      tag_302\n      jump\t// in\n    tag_761:\n        /* \"#utility.yul\":40938:41012   */\n      swap2\n      pop\n        /* \"#utility.yul\":41021:41114   */\n      tag_762\n        /* \"#utility.yul\":41110:41113   */\n      dup3\n        /* \"#utility.yul\":41021:41114   */\n      tag_400\n      jump\t// in\n    tag_762:\n        /* \"#utility.yul\":41139:41141   */\n      0x20\n        /* \"#utility.yul\":41134:41137   */\n      dup3\n        /* \"#utility.yul\":41130:41142   */\n      add\n        /* \"#utility.yul\":41123:41142   */\n      swap1\n      pop\n        /* \"#utility.yul\":40782:41148   */\n      swap2\n      swap1\n      pop\n      jump\t// out\n        /* \"#utility.yul\":41154:41573   */\n    tag_286:\n        /* \"#utility.yul\":41320:41324   */\n      0x00\n        /* \"#utility.yul\":41358:41360   */\n      0x20\n        /* \"#utility.yul\":41347:41356   */\n      dup3\n        /* \"#utility.yul\":41343:41361   */\n      add\n        /* \"#utility.yul\":41335:41361   */\n      swap1\n      pop\n        /* \"#utility.yul\":41407:41416   */\n      dup2\n        /* \"#utility.yul\":41401:41405   */\n      dup2\n        /* \"#utility.yul\":41397:41417   */\n      sub\n        /* \"#utility.yul\":41393:41394   */\n      0x00\n        /* \"#utility.yul\":41382:41391   */\n      dup4\n        /* \"#utility.yul\":41378:41395   */\n      add\n        /* \"#utility.yul\":41371:41418   */\n      mstore\n        /* \"#utility.yul\":41435:41566   */\n      tag_764\n        /* \"#utility.yul\":41561:41565   */\n      dup2\n        /* \"#utility.yul\":41435:41566   */\n      tag_401\n      jump\t// in\n    tag_764:\n        /* \"#utility.yul\":41427:41566   */\n      swap1\n      pop\n        /* \"#utility.yul\":41154:41573   */\n      swap2\n      swap1\n      pop\n      jump\t// out\n        /* \"#utility.yul\":41579:41760   */\n    tag_402:\n        /* \"#utility.yul\":41719:41752   */\n      0x5265656e7472616e637947756172643a207265656e7472616e742063616c6c00\n        /* \"#utility.yul\":41715:41716   */\n      0x00\n        /* \"#utility.yul\":41707:41713   */\n      dup3\n        /* \"#utility.yul\":41703:41717   */\n      add\n        /* \"#utility.yul\":41696:41753   */\n      mstore\n        /* \"#utility.yul\":41579:41760   */\n      pop\n      jump\t// out\n        /* \"#utility.yul\":41766:42132   */\n    tag_403:\n        /* \"#utility.yul\":41908:41911   */\n      0x00\n        /* \"#utility.yul\":41929:41996   */\n      tag_767\n        /* \"#utility.yul\":41993:41995   */\n      0x1f\n        /* \"#utility.yul\":41988:41991   */\n      dup4\n        /* \"#utility.yul\":41929:41996   */\n      tag_302\n      jump\t// in\n    tag_767:\n        /* \"#utility.yul\":41922:41996   */\n      swap2\n      pop\n        /* \"#utility.yul\":42005:42098   */\n      tag_768\n        /* \"#utility.yul\":42094:42097   */\n      dup3\n        /* \"#utility.yul\":42005:42098   */\n      tag_402\n      jump\t// in\n    tag_768:\n        /* \"#utility.yul\":42123:42125   */\n      0x20\n        /* \"#utility.yul\":42118:42121   */\n      dup3\n        /* \"#utility.yul\":42114:42126   */\n      add\n        /* \"#utility.yul\":42107:42126   */\n      swap1\n      pop\n        /* \"#utility.yul\":41766:42132   */\n      swap2\n      swap1\n      pop\n      jump\t// out\n        /* \"#utility.yul\":42138:42557   */\n    tag_292:\n        /* \"#utility.yul\":42304:42308   */\n      0x00\n        /* \"#utility.yul\":42342:42344   */\n      0x20\n        /* \"#utility.yul\":42331:42340   */\n      dup3\n        /* \"#utility.yul\":42327:42345   */\n      add\n        /* \"#utility.yul\":42319:42345   */\n      swap1\n      pop\n        /* \"#utility.yul\":42391:42400   */\n      dup2\n        /* \"#utility.yul\":42385:42389   */\n      dup2\n        /* \"#utility.yul\":42381:42401   */\n      sub\n        /* \"#utility.yul\":42377:42378   */\n      0x00\n        /* \"#utility.yul\":42366:42375   */\n      dup4\n        /* \"#utility.yul\":42362:42379   */\n      add\n        /* \"#utility.yul\":42355:42402   */\n      mstore\n        /* \"#utility.yul\":42419:42550   */\n      tag_770\n        /* \"#utility.yul\":42545:42549   */\n      dup2\n        /* \"#utility.yul\":42419:42550   */\n      tag_403\n      jump\t// in\n    tag_770:\n        /* \"#utility.yul\":42411:42550   */\n      swap1\n      pop\n        /* \"#utility.yul\":42138:42557   */\n      swap2\n      swap1\n      pop\n      jump\t// out\n\n    auxdata: 0xa2646970667358221220b58e72a855a0f2c905c5e2e60e14427e9b407c42b50588c93b63145d247655dd64736f6c634300081e0033\n}\n",
				"bytecode": {
					"linkReferences": {},
					"object": "6080604052348015600e575f5ffd5b5060015f819055506130d5806100235f395ff3fe6080604052600436106100f2575f3560e01c80637dc0d1d011610089578063c43bf3c211610058578063c43bf3c214610313578063df5c29801461033b578063edb3b27a14610363578063f3f437031461038d576100f2565b80637dc0d1d01461027d57806394aeb613146102a75780639537e8d1146102cf5780639ce5b6ca146102f7576100f2565b806322a45cd0116100c557806322a45cd0146101c0578063474da79a146101e857806354b7b6d31461022d5780637adbf97314610255576100f2565b8063032ca42d146100f6578063067bd3b41461011e5780630e9f08161461014857806317b1845814610184575b5f5ffd5b348015610101575f5ffd5b5061011c60048036038101906101179190611cf4565b6103c9565b005b348015610129575f5ffd5b506101326107b0565b60405161013f9190611d2e565b60405180910390f35b348015610153575f5ffd5b5061016e60048036038101906101699190611cf4565b6107b6565b60405161017b9190611db7565b60405180910390f35b34801561018f575f5ffd5b506101aa60048036038101906101a59190611cf4565b61085a565b6040516101b79190611e4a565b60405180910390f35b3480156101cb575f5ffd5b506101e660048036038101906101e19190611cf4565b610884565b005b3480156101f3575f5ffd5b5061020e60048036038101906102099190611cf4565b610ab1565b6040516102249a99989796959493929190611ed4565b60405180910390f35b348015610238575f5ffd5b50610253600480360381019061024e91906120a1565b610bf8565b005b348015610260575f5ffd5b5061027b60048036038101906102769190612136565b610e06565b005b348015610288575f5ffd5b50610291610f79565b60405161029e9190612170565b60405180910390f35b3480156102b2575f5ffd5b506102cd60048036038101906102c89190611cf4565b610f9e565b005b3480156102da575f5ffd5b506102f560048036038101906102f09190611cf4565b6112a9565b005b610311600480360381019061030c91906121b3565b611435565b005b34801561031e575f5ffd5b50610339600480360381019061033491906120a1565b61166d565b005b348015610346575f5ffd5b50610361600480360381019061035c9190611cf4565b6118f7565b005b34801561036e575f5ffd5b50610377611c32565b604051610384919061221f565b60405180910390f35b348015610398575f5ffd5b506103b360048036038101906103ae9190612136565b611c45565b6040516103c09190611d2e565b60405180910390f35b8060025f8281526020019081526020015f206002015f9054906101000a900473ffffffffffffffffffffffffffffffffffffffff1673ffffffffffffffffffffffffffffffffffffffff163373ffffffffffffffffffffffffffffffffffffffff161461046b576040517f08c379a000000000000000000000000000000000000000000000000000000000815260040161046290612282565b60405180910390fd5b5f60025f8481526020019081526020015f209050806006015f9054906101000a900460ff166104cf576040517f08c379a00000000000000000000000000000000000000000000000000000000081526004016104c6906122ea565b60405180910390fd5b600160038111156104e3576104e2611dd7565b5b8160030160149054906101000a900460ff16600381111561050757610506611dd7565b5b14610547576040517f08c379a000000000000000000000000000000000000000000000000000000000815260040161053e90612352565b60405180910390fd5b8060060160019054906101000a900460ff16610598576040517f08c379a000000000000000000000000000000000000000000000000000000000815260040161058f906123ba565b60405180910390fd5b8060060160029054906101000a900460ff16156105ea576040517f08c379a00000000000000000000000000000000000000000000000000000000081526004016105e190612422565b60405180910390fd5b60018160060160026101000a81548160ff02191690831515021790555060028160030160146101000a81548160ff0219169083600381111561062f5761062e611dd7565b5b0217905550806001015460045f836003015f9054906101000a900473ffffffffffffffffffffffffffffffffffffffff1673ffffffffffffffffffffffffffffffffffffffff1673ffffffffffffffffffffffffffffffffffffffff1681526020019081526020015f20546106a4919061246d565b60045f836003015f9054906101000a900473ffffffffffffffffffffffffffffffffffffffff1673ffffffffffffffffffffffffffffffffffffffff1673ffffffffffffffffffffffffffffffffffffffff1681526020019081526020015f2081905550827f5c1e662f72ee6c85181b65fac5beb0390932b8c472f05b257151d041ac9ddffa60405160405180910390a2806003015f9054906101000a900473ffffffffffffffffffffffffffffffffffffffff1673ffffffffffffffffffffffffffffffffffffffff16837f21d71db5be59bb9fa133895586b7404307dd33fb93b16db09dc6f1d9d7d231b083600101546040516107a39190611d2e565b60405180910390a3505050565b60035481565b606060025f8381526020019081526020015f2060040180546107d7906124cd565b80601f0160208091040260200160405190810160405280929190818152602001828054610803906124cd565b801561084e5780601f106108255761010080835404028352916020019161084e565b820191905f5260205f20905b81548152906001019060200180831161083157829003601f168201915b50505050509050919050565b5f60025f8381526020019081526020015f2060030160149054906101000a900460ff169050919050565b8060025f8281526020019081526020015f206002015f9054906101000a900473ffffffffffffffffffffffffffffffffffffffff1673ffffffffffffffffffffffffffffffffffffffff163373ffffffffffffffffffffffffffffffffffffffff1614610926576040517f08c379a000000000000000000000000000000000000000000000000000000000815260040161091d90612282565b60405180910390fd5b5f60025f8481526020019081526020015f2090506002600381111561094e5761094d611dd7565b5b8160030160149054906101000a900460ff16600381111561097257610971611dd7565b5b036109b2576040517f08c379a00000000000000000000000000000000000000000000000000000000081526004016109a990612547565b60405180910390fd5b6003808111156109c5576109c4611dd7565b5b8160030160149054906101000a900460ff1660038111156109e9576109e8611dd7565b5b03610a29576040517f08c379a0000000000000000000000000000000000000000000000000000000008152600401610a20906125af565b60405180910390fd5b60405180602001604052805f815250816004019081610a48919061276d565b505f816005018190555060038160030160146101000a81548160ff02191690836003811115610a7a57610a79611dd7565b5b0217905550827f741b099f015e1976cfa72a7448a8fb1d54eab1d616241b562cfbe603a2b61b4260405160405180910390a2505050565b6002602052805f5260405f205f91509050805f015490806001015490806002015f9054906101000a900473ffffffffffffffffffffffffffffffffffffffff1690806003015f9054906101000a900473ffffffffffffffffffffffffffffffffffffffff16908060030160149054906101000a900460ff1690806004018054610b39906124cd565b80601f0160208091040260200160405190810160405280929190818152602001828054610b65906124cd565b8015610bb05780601f10610b8757610100808354040283529160200191610bb0565b820191905f5260205f20905b815481529060010190602001808311610b9357829003601f168201915b505050505090806005015490806006015f9054906101000a900460ff16908060060160019054906101000a900460ff16908060060160029054906101000a900460ff1690508a565b8160025f8281526020019081526020015f206003015f9054906101000a900473ffffffffffffffffffffffffffffffffffffffff1673ffffffffffffffffffffffffffffffffffffffff163373ffffffffffffffffffffffffffffffffffffffff1614610c9a576040517f08c379a0000000000000000000000000000000000000000000000000000000008152600401610c9190612886565b60405180910390fd5b5f60025f8581526020019081526020015f20905060016003811115610cc257610cc1611dd7565b5b8160030160149054906101000a900460ff166003811115610ce657610ce5611dd7565b5b14610d26576040517f08c379a0000000000000000000000000000000000000000000000000000000008152600401610d1d90612352565b60405180910390fd5b806006015f9054906101000a900460ff1615610d77576040517f08c379a0000000000000000000000000000000000000000000000000000000008152600401610d6e906128ee565b60405180910390fd5b8383604051602001610d8a92919061290c565b6040516020818303038152906040528051906020012081600501819055506001816006015f6101000a81548160ff021916908315150217905550837f4b70739c5f0bd46e19773020c599342cdbdc3ac59b5e0abfdd9c1bb441be59c88260050154604051610df8919061293a565b60405180910390a250505050565b600160149054906101000a900460ff1615610e56576040517f08c379a0000000000000000000000000000000000000000000000000000000008152600401610e4d9061299d565b60405180910390fd5b5f73ffffffffffffffffffffffffffffffffffffffff168173ffffffffffffffffffffffffffffffffffffffff1603610ec4576040517f08c379a0000000000000000000000000000000000000000000000000000000008152600401610ebb90612a05565b60405180910390fd5b600160149054906101000a900460ff16610f76578060015f6101000a81548173ffffffffffffffffffffffffffffffffffffffff021916908373ffffffffffffffffffffffffffffffffffffffff16021790555060018060146101000a81548160ff0219169083151502179055508073ffffffffffffffffffffffffffffffffffffffff167f3f32684a32a11dabdbb8c0177de80aa3ae36a004d75210335b49e544e48cd0aa60405160405180910390a25b50565b60015f9054906101000a900473ffffffffffffffffffffffffffffffffffffffff1681565b610fa6611c5a565b8060025f8281526020019081526020015f206002015f9054906101000a900473ffffffffffffffffffffffffffffffffffffffff1673ffffffffffffffffffffffffffffffffffffffff163373ffffffffffffffffffffffffffffffffffffffff1614611048576040517f08c379a000000000000000000000000000000000000000000000000000000000815260040161103f90612282565b60405180910390fd5b5f60025f8481526020019081526020015f209050600160038111156110705761106f611dd7565b5b8160030160149054906101000a900460ff16600381111561109457611093611dd7565b5b146110d4576040517f08c379a00000000000000000000000000000000000000000000000000000000081526004016110cb90612352565b60405180910390fd5b806006015f9054906101000a900460ff1615611125576040517f08c379a000000000000000000000000000000000000000000000000000000000815260040161111c90612a6d565b60405180910390fd5b60028160030160146101000a81548160ff0219169083600381111561114d5761114c611dd7565b5b0217905550806001015460045f836003015f9054906101000a900473ffffffffffffffffffffffffffffffffffffffff1673ffffffffffffffffffffffffffffffffffffffff1673ffffffffffffffffffffffffffffffffffffffff1681526020019081526020015f20546111c2919061246d565b60045f836003015f9054906101000a900473ffffffffffffffffffffffffffffffffffffffff1673ffffffffffffffffffffffffffffffffffffffff1673ffffffffffffffffffffffffffffffffffffffff1681526020019081526020015f2081905550806003015f9054906101000a900473ffffffffffffffffffffffffffffffffffffffff1673ffffffffffffffffffffffffffffffffffffffff16837f21d71db5be59bb9fa133895586b7404307dd33fb93b16db09dc6f1d9d7d231b083600101546040516112949190611d2e565b60405180910390a350506112a6611ca7565b50565b8060025f8281526020019081526020015f206003015f9054906101000a900473ffffffffffffffffffffffffffffffffffffffff1673ffffffffffffffffffffffffffffffffffffffff163373ffffffffffffffffffffffffffffffffffffffff161461134b576040517f08c379a000000000000000000000000000000000000000000000000000000000815260040161134290612886565b60405180910390fd5b5f60025f8481526020019081526020015f2090505f600381111561137257611371611dd7565b5b8160030160149054906101000a900460ff16600381111561139657611395611dd7565b5b146113d6576040517f08c379a00000000000000000000000000000000000000000000000000000000081526004016113cd90612ad5565b60405180910390fd5b60018160030160146101000a81548160ff021916908360038111156113fe576113fd611dd7565b5b0217905550827faf3c49f5413fd292e2325b0fe214de144a222b00cb6ec21214fdc04b5d6c591360405160405180910390a2505050565b5f73ffffffffffffffffffffffffffffffffffffffff168373ffffffffffffffffffffffffffffffffffffffff16036114a3576040517f08c379a000000000000000000000000000000000000000000000000000000000815260040161149a90612b3d565b60405180910390fd5b8034146114e5576040517f08c379a00000000000000000000000000000000000000000000000000000000081526004016114dc90612ba5565b60405180910390fd5b600a825111611529576040517f08c379a000000000000000000000000000000000000000000000000000000000815260040161152090612c0d565b60405180910390fd5b60035f81548092919061153b90612c2b565b91905055505f60025f60035481526020019081526020015f209050600354815f018190555081816001018190555033816002015f6101000a81548173ffffffffffffffffffffffffffffffffffffffff021916908373ffffffffffffffffffffffffffffffffffffffff16021790555083816003015f6101000a81548173ffffffffffffffffffffffffffffffffffffffff021916908373ffffffffffffffffffffffffffffffffffffffff1602179055505f8160030160146101000a81548160ff0219169083600381111561161457611613611dd7565b5b02179055508281600401908161162a919061276d565b506003547f56560a52c047ed21fd801bf0f345b23d9af696f7922ff8e63101af5d48caddab338660405161165f929190612cc4565b60405180910390a250505050565b611675611c5a565b60015f9054906101000a900473ffffffffffffffffffffffffffffffffffffffff1673ffffffffffffffffffffffffffffffffffffffff163373ffffffffffffffffffffffffffffffffffffffff1614611704576040517f08c379a00000000000000000000000000000000000000000000000000000000081526004016116fb90612d35565b60405180910390fd5b5f60025f8481526020019081526020015f209050806006015f9054906101000a900460ff16611768576040517f08c379a000000000000000000000000000000000000000000000000000000000815260040161175f906122ea565b60405180910390fd5b6001600381111561177c5761177b611dd7565b5b8160030160149054906101000a900460ff1660038111156117a05761179f611dd7565b5b146117e0576040517f08c379a00000000000000000000000000000000000000000000000000000000081526004016117d790612352565b60405180910390fd5b8060060160019054906101000a900460ff1615611832576040517f08c379a000000000000000000000000000000000000000000000000000000000815260040161182990612d9d565b60405180910390fd5b828260405160200161184592919061290c565b604051602081830303815290604052805190602001208160050154146118a0576040517f08c379a000000000000000000000000000000000000000000000000000000000815260040161189790612e05565b60405180910390fd5b60018160060160016101000a81548160ff021916908315150217905550827f375b4005eeae25d0e37d56e1b3841d3bb394b277efa2548de3293f5dcb7a349360405160405180910390a2506118f3611ca7565b5050565b6118ff611c5a565b5f60025f8381526020019081526020015f2090506002600381111561192757611926611dd7565b5b8160030160149054906101000a900460ff16600381111561194b5761194a611dd7565b5b1461198b576040517f08c379a000000000000000000000000000000000000000000000000000000000815260040161198290612e6d565b60405180910390fd5b3373ffffffffffffffffffffffffffffffffffffffff16816003015f9054906101000a900473ffffffffffffffffffffffffffffffffffffffff1673ffffffffffffffffffffffffffffffffffffffff1614611a1c576040517f08c379a0000000000000000000000000000000000000000000000000000000008152600401611a1390612ed5565b60405180910390fd5b5f816001015490505f60045f3373ffffffffffffffffffffffffffffffffffffffff1673ffffffffffffffffffffffffffffffffffffffff1681526020019081526020015f205403611aa3576040517f08c379a0000000000000000000000000000000000000000000000000000000008152600401611a9a90612f3d565b60405180910390fd5b8060045f3373ffffffffffffffffffffffffffffffffffffffff1673ffffffffffffffffffffffffffffffffffffffff1681526020019081526020015f2054611aec9190612f5b565b60045f3373ffffffffffffffffffffffffffffffffffffffff1673ffffffffffffffffffffffffffffffffffffffff1681526020019081526020015f20819055505f3373ffffffffffffffffffffffffffffffffffffffff1682604051611b5290612fbb565b5f6040518083038185875af1925050503d805f8114611b8c576040519150601f19603f3d011682016040523d82523d5f602084013e611b91565b606091505b5050905080611bd5576040517f08c379a0000000000000000000000000000000000000000000000000000000008152600401611bcc90613019565b60405180910390fd5b3373ffffffffffffffffffffffffffffffffffffffff16847ff440aec6b52895984d061d622e6edeba6210f7c3e059be920663140c084560d784604051611c1c9190611d2e565b60405180910390a3505050611c2f611ca7565b50565b600160149054906101000a900460ff1681565b6004602052805f5260405f205f915090505481565b60025f5403611c9e576040517f08c379a0000000000000000000000000000000000000000000000000000000008152600401611c9590613081565b60405180910390fd5b60025f81905550565b60015f81905550565b5f604051905090565b5f5ffd5b5f5ffd5b5f819050919050565b611cd381611cc1565b8114611cdd575f5ffd5b50565b5f81359050611cee81611cca565b92915050565b5f60208284031215611d0957611d08611cb9565b5b5f611d1684828501611ce0565b91505092915050565b611d2881611cc1565b82525050565b5f602082019050611d415f830184611d1f565b92915050565b5f81519050919050565b5f82825260208201905092915050565b8281835e5f83830152505050565b5f601f19601f8301169050919050565b5f611d8982611d47565b611d938185611d51565b9350611da3818560208601611d61565b611dac81611d6f565b840191505092915050565b5f6020820190508181035f830152611dcf8184611d7f565b905092915050565b7f4e487b71000000000000000000000000000000000000000000000000000000005f52602160045260245ffd5b60048110611e1557611e14611dd7565b5b50565b5f819050611e2582611e04565b919050565b5f611e3482611e18565b9050919050565b611e4481611e2a565b82525050565b5f602082019050611e5d5f830184611e3b565b92915050565b5f73ffffffffffffffffffffffffffffffffffffffff82169050919050565b5f611e8c82611e63565b9050919050565b611e9c81611e82565b82525050565b5f819050919050565b611eb481611ea2565b82525050565b5f8115159050919050565b611ece81611eba565b82525050565b5f61014082019050611ee85f83018d611d1f565b611ef5602083018c611d1f565b611f02604083018b611e93565b611f0f606083018a611e93565b611f1c6080830189611e3b565b81810360a0830152611f2e8188611d7f565b9050611f3d60c0830187611eab565b611f4a60e0830186611ec5565b611f58610100830185611ec5565b611f66610120830184611ec5565b9b9a5050505050505050505050565b5f5ffd5b5f5ffd5b7f4e487b71000000000000000000000000000000000000000000000000000000005f52604160045260245ffd5b611fb382611d6f565b810181811067ffffffffffffffff82111715611fd257611fd1611f7d565b5b80604052505050565b5f611fe4611cb0565b9050611ff08282611faa565b919050565b5f67ffffffffffffffff82111561200f5761200e611f7d565b5b61201882611d6f565b9050602081019050919050565b828183375f83830152505050565b5f61204561204084611ff5565b611fdb565b90508281526020810184848401111561206157612060611f79565b5b61206c848285612025565b509392505050565b5f82601f83011261208857612087611f75565b5b8135612098848260208601612033565b91505092915050565b5f5f604083850312156120b7576120b6611cb9565b5b5f6120c485828601611ce0565b925050602083013567ffffffffffffffff8111156120e5576120e4611cbd565b5b6120f185828601612074565b9150509250929050565b5f61210582611e63565b9050919050565b612115816120fb565b811461211f575f5ffd5b50565b5f813590506121308161210c565b92915050565b5f6020828403121561214b5761214a611cb9565b5b5f61215884828501612122565b91505092915050565b61216a816120fb565b82525050565b5f6020820190506121835f830184612161565b92915050565b61219281611e82565b811461219c575f5ffd5b50565b5f813590506121ad81612189565b92915050565b5f5f5f606084860312156121ca576121c9611cb9565b5b5f6121d78682870161219f565b935050602084013567ffffffffffffffff8111156121f8576121f7611cbd565b5b61220486828701612074565b925050604061221586828701611ce0565b9150509250925092565b5f6020820190506122325f830184611ec5565b92915050565b7f4e6f742063726561746f720000000000000000000000000000000000000000005f82015250565b5f61226c600b83611d51565b915061227782612238565b602082019050919050565b5f6020820190508181035f83015261229981612260565b9050919050565b7f4e6f2064656c69766572790000000000000000000000000000000000000000005f82015250565b5f6122d4600b83611d51565b91506122df826122a0565b602082019050919050565b5f6020820190508181035f830152612301816122c8565b9050919050565b7f4e6f74205369676e6564000000000000000000000000000000000000000000005f82015250565b5f61233c600a83611d51565b915061234782612308565b602082019050919050565b5f6020820190508181035f83015261236981612330565b9050919050565b7f44656c6976657279206d697373696e67000000000000000000000000000000005f82015250565b5f6123a4601083611d51565b91506123af82612370565b602082019050919050565b5f6020820190508181035f8301526123d181612398565b9050919050565b7f416c726561647920617070726f766564000000000000000000000000000000005f82015250565b5f61240c601083611d51565b9150612417826123d8565b602082019050919050565b5f6020820190508181035f83015261243981612400565b9050919050565b7f4e487b71000000000000000000000000000000000000000000000000000000005f52601160045260245ffd5b5f61247782611cc1565b915061248283611cc1565b925082820190508082111561249a57612499612440565b5b92915050565b7f4e487b71000000000000000000000000000000000000000000000000000000005f52602260045260245ffd5b5f60028204905060018216806124e457607f821691505b6020821081036124f7576124f66124a0565b5b50919050565b7f416c726561647920636f6d706c657465640000000000000000000000000000005f82015250565b5f612531601183611d51565b915061253c826124fd565b602082019050919050565b5f6020820190508181035f83015261255e81612525565b9050919050565b7f416c72656164792063616e63656c6c65640000000000000000000000000000005f82015250565b5f612599601183611d51565b91506125a482612565565b602082019050919050565b5f6020820190508181035f8301526125c68161258d565b9050919050565b5f819050815f5260205f209050919050565b5f6020601f8301049050919050565b5f82821b905092915050565b5f600883026126297fffffffffffffffffffffffffffffffffffffffffffffffffffffffffffffffff826125ee565b61263386836125ee565b95508019841693508086168417925050509392505050565b5f819050919050565b5f61266e61266961266484611cc1565b61264b565b611cc1565b9050919050565b5f819050919050565b61268783612654565b61269b61269382612675565b8484546125fa565b825550505050565b5f5f905090565b6126b26126a3565b6126bd81848461267e565b505050565b5b818110156126e0576126d55f826126aa565b6001810190506126c3565b5050565b601f821115612725576126f6816125cd565b6126ff846125df565b8101602085101561270e578190505b61272261271a856125df565b8301826126c2565b50505b505050565b5f82821c905092915050565b5f6127455f198460080261272a565b1980831691505092915050565b5f61275d8383612736565b9150826002028217905092915050565b61277682611d47565b67ffffffffffffffff81111561278f5761278e611f7d565b5b61279982546124cd565b6127a48282856126e4565b5f60209050601f8311600181146127d5575f84156127c3578287015190505b6127cd8582612752565b865550612834565b601f1984166127e3866125cd565b5f5b8281101561280a578489015182556001820191506020850194506020810190506127e5565b868310156128275784890151612823601f891682612736565b8355505b6001600288020188555050505b505050505050565b7f4e6f7420636f756e7465727061727479000000000000000000000000000000005f82015250565b5f612870601083611d51565b915061287b8261283c565b602082019050919050565b5f6020820190508181035f83015261289d81612864565b9050919050565b7f416c7265616479207365740000000000000000000000000000000000000000005f82015250565b5f6128d8600b83611d51565b91506128e3826128a4565b602082019050919050565b5f6020820190508181035f830152612905816128cc565b9050919050565b5f60408201905061291f5f830185611d1f565b81810360208301526129318184611d7f565b90509392505050565b5f60208201905061294d5f830184611eab565b92915050565b7f4f7261636c6520616c72656164792073657400000000000000000000000000005f82015250565b5f612987601283611d51565b915061299282612953565b602082019050919050565b5f6020820190508181035f8301526129b48161297b565b9050919050565b7f496e76616c6964206f7261636c650000000000000000000000000000000000005f82015250565b5f6129ef600e83611d51565b91506129fa826129bb565b602082019050919050565b5f6020820190508181035f830152612a1c816129e3565b9050919050565b7f5573652064656c697665727920666c6f770000000000000000000000000000005f82015250565b5f612a57601183611d51565b9150612a6282612a23565b602082019050919050565b5f6020820190508181035f830152612a8481612a4b565b9050919050565b7f4e6f7420437265617465640000000000000000000000000000000000000000005f82015250565b5f612abf600b83611d51565b9150612aca82612a8b565b602082019050919050565b5f6020820190508181035f830152612aec81612ab3565b9050919050565b7f302061646472206e6f7420616c6c6f77656400000000000000000000000000005f82015250565b5f612b27601283611d51565b9150612b3282612af3565b602082019050919050565b5f6020820190508181035f830152612b5481612b1b565b9050919050565b7f455448206d69736d6174636800000000000000000000000000000000000000005f82015250565b5f612b8f600c83611d51565b9150612b9a82612b5b565b602082019050919050565b5f6020820190508181035f830152612bbc81612b83565b9050919050565b7f496e76616c696420636f6e7472616374206861736800000000000000000000005f82015250565b5f612bf7601583611d51565b9150612c0282612bc3565b602082019050919050565b5f6020820190508181035f830152612c2481612beb565b9050919050565b5f612c3582611cc1565b91507fffffffffffffffffffffffffffffffffffffffffffffffffffffffffffffffff8203612c6757612c66612440565b5b600182019050919050565b5f612c8c612c87612c8284611e63565b61264b565b611e63565b9050919050565b5f612c9d82612c72565b9050919050565b5f612cae82612c93565b9050919050565b612cbe81612ca4565b82525050565b5f604082019050612cd75f830185612161565b612ce46020830184612cb5565b9392505050565b7f4e6f74206f7261636c65000000000000000000000000000000000000000000005f82015250565b5f612d1f600a83611d51565b9150612d2a82612ceb565b602082019050919050565b5f6020820190508181035f830152612d4c81612d13565b9050919050565b7f416c726561647920636f6e6669726d65640000000000000000000000000000005f82015250565b5f612d87601183611d51565b9150612d9282612d53565b602082019050919050565b5f6020820190508181035f830152612db481612d7b565b9050919050565b7f48617368206d69736d61746368000000000000000000000000000000000000005f82015250565b5f612def600d83611d51565b9150612dfa82612dbb565b602082019050919050565b5f6020820190508181035f830152612e1c81612de3565b9050919050565b7f4e6f7420636f6d706c65746564000000000000000000000000000000000000005f82015250565b5f612e57600d83611d51565b9150612e6282612e23565b602082019050919050565b5f6020820190508181035f830152612e8481612e4b565b9050919050565b7f4e6f7420726563697069656e74000000000000000000000000000000000000005f82015250565b5f612ebf600d83611d51565b9150612eca82612e8b565b602082019050919050565b5f6020820190508181035f830152612eec81612eb3565b9050919050565b7f4e6f2062616c616e6365000000000000000000000000000000000000000000005f82015250565b5f612f27600a83611d51565b9150612f3282612ef3565b602082019050919050565b5f6020820190508181035f830152612f5481612f1b565b9050919050565b5f612f6582611cc1565b9150612f7083611cc1565b9250828203905081811115612f8857612f87612440565b5b92915050565b5f81905092915050565b50565b5f612fa65f83612f8e565b9150612fb182612f98565b5f82019050919050565b5f612fc582612f9b565b9150819050919050565b7f5769746864726177206661696c656400000000000000000000000000000000005f82015250565b5f613003600f83611d51565b915061300e82612fcf565b602082019050919050565b5f6020820190508181035f83015261303081612ff7565b9050919050565b7f5265656e7472616e637947756172643a207265656e7472616e742063616c6c005f82015250565b5f61306b601f83611d51565b915061307682613037565b602082019050919050565b5f6020820190508181035f8301526130988161305f565b905091905056fea2646970667358221220b58e72a855a0f2c905c5e2e60e14427e9b407c42b50588c93b63145d247655dd64736f6c634300081e0033",
					"opcodes": "PUSH1 0x80 PUSH1 0x40 MSTORE CALLVALUE DUP1 ISZERO PUSH1 0xE JUMPI PUSH0 PUSH0 REVERT JUMPDEST POP PUSH1 0x1 PUSH0 DUP2 SWAP1 SSTORE POP PUSH2 0x30D5 DUP1 PUSH2 0x23 PUSH0 CODECOPY PUSH0 RETURN INVALID PUSH1 0x80 PUSH1 0x40 MSTORE PUSH1 0x4 CALLDATASIZE LT PUSH2 0xF2 JUMPI PUSH0 CALLDATALOAD PUSH1 0xE0 SHR DUP1 PUSH4 0x7DC0D1D0 GT PUSH2 0x89 JUMPI DUP1 PUSH4 0xC43BF3C2 GT PUSH2 0x58 JUMPI DUP1 PUSH4 0xC43BF3C2 EQ PUSH2 0x313 JUMPI DUP1 PUSH4 0xDF5C2980 EQ PUSH2 0x33B JUMPI DUP1 PUSH4 0xEDB3B27A EQ PUSH2 0x363 JUMPI DUP1 PUSH4 0xF3F43703 EQ PUSH2 0x38D JUMPI PUSH2 0xF2 JUMP JUMPDEST DUP1 PUSH4 0x7DC0D1D0 EQ PUSH2 0x27D JUMPI DUP1 PUSH4 0x94AEB613 EQ PUSH2 0x2A7 JUMPI DUP1 PUSH4 0x9537E8D1 EQ PUSH2 0x2CF JUMPI DUP1 PUSH4 0x9CE5B6CA EQ PUSH2 0x2F7 JUMPI PUSH2 0xF2 JUMP JUMPDEST DUP1 PUSH4 0x22A45CD0 GT PUSH2 0xC5 JUMPI DUP1 PUSH4 0x22A45CD0 EQ PUSH2 0x1C0 JUMPI DUP1 PUSH4 0x474DA79A EQ PUSH2 0x1E8 JUMPI DUP1 PUSH4 0x54B7B6D3 EQ PUSH2 0x22D JUMPI DUP1 PUSH4 0x7ADBF973 EQ PUSH2 0x255 JUMPI PUSH2 0xF2 JUMP JUMPDEST DUP1 PUSH4 0x32CA42D EQ PUSH2 0xF6 JUMPI DUP1 PUSH4 0x67BD3B4 EQ PUSH2 0x11E JUMPI DUP1 PUSH4 0xE9F0816 EQ PUSH2 0x148 JUMPI DUP1 PUSH4 0x17B18458 EQ PUSH2 0x184 JUMPI JUMPDEST PUSH0 PUSH0 REVERT JUMPDEST CALLVALUE DUP1 ISZERO PUSH2 0x101 JUMPI PUSH0 PUSH0 REVERT JUMPDEST POP PUSH2 0x11C PUSH1 0x4 DUP1 CALLDATASIZE SUB DUP2 ADD SWAP1 PUSH2 0x117 SWAP2 SWAP1 PUSH2 0x1CF4 JUMP JUMPDEST PUSH2 0x3C9 JUMP JUMPDEST STOP JUMPDEST CALLVALUE DUP1 ISZERO PUSH2 0x129 JUMPI PUSH0 PUSH0 REVERT JUMPDEST POP PUSH2 0x132 PUSH2 0x7B0 JUMP JUMPDEST PUSH1 0x40 MLOAD PUSH2 0x13F SWAP2 SWAP1 PUSH2 0x1D2E JUMP JUMPDEST PUSH1 0x40 MLOAD DUP1 SWAP2 SUB SWAP1 RETURN JUMPDEST CALLVALUE DUP1 ISZERO PUSH2 0x153 JUMPI PUSH0 PUSH0 REVERT JUMPDEST POP PUSH2 0x16E PUSH1 0x4 DUP1 CALLDATASIZE SUB DUP2 ADD SWAP1 PUSH2 0x169 SWAP2 SWAP1 PUSH2 0x1CF4 JUMP JUMPDEST PUSH2 0x7B6 JUMP JUMPDEST PUSH1 0x40 MLOAD PUSH2 0x17B SWAP2 SWAP1 PUSH2 0x1DB7 JUMP JUMPDEST PUSH1 0x40 MLOAD DUP1 SWAP2 SUB SWAP1 RETURN JUMPDEST CALLVALUE DUP1 ISZERO PUSH2 0x18F JUMPI PUSH0 PUSH0 REVERT JUMPDEST POP PUSH2 0x1AA PUSH1 0x4 DUP1 CALLDATASIZE SUB DUP2 ADD SWAP1 PUSH2 0x1A5 SWAP2 SWAP1 PUSH2 0x1CF4 JUMP JUMPDEST PUSH2 0x85A JUMP JUMPDEST PUSH1 0x40 MLOAD PUSH2 0x1B7 SWAP2 SWAP1 PUSH2 0x1E4A JUMP JUMPDEST PUSH1 0x40 MLOAD DUP1 SWAP2 SUB SWAP1 RETURN JUMPDEST CALLVALUE DUP1 ISZERO PUSH2 0x1CB JUMPI PUSH0 PUSH0 REVERT JUMPDEST POP PUSH2 0x1E6 PUSH1 0x4 DUP1 CALLDATASIZE SUB DUP2 ADD SWAP1 PUSH2 0x1E1 SWAP2 SWAP1 PUSH2 0x1CF4 JUMP JUMPDEST PUSH2 0x884 JUMP JUMPDEST STOP JUMPDEST CALLVALUE DUP1 ISZERO PUSH2 0x1F3 JUMPI PUSH0 PUSH0 REVERT JUMPDEST POP PUSH2 0x20E PUSH1 0x4 DUP1 CALLDATASIZE SUB DUP2 ADD SWAP1 PUSH2 0x209 SWAP2 SWAP1 PUSH2 0x1CF4 JUMP JUMPDEST PUSH2 0xAB1 JUMP JUMPDEST PUSH1 0x40 MLOAD PUSH2 0x224 SWAP11 SWAP10 SWAP9 SWAP8 SWAP7 SWAP6 SWAP5 SWAP4 SWAP3 SWAP2 SWAP1 PUSH2 0x1ED4 JUMP JUMPDEST PUSH1 0x40 MLOAD DUP1 SWAP2 SUB SWAP1 RETURN JUMPDEST CALLVALUE DUP1 ISZERO PUSH2 0x238 JUMPI PUSH0 PUSH0 REVERT JUMPDEST POP PUSH2 0x253 PUSH1 0x4 DUP1 CALLDATASIZE SUB DUP2 ADD SWAP1 PUSH2 0x24E SWAP2 SWAP1 PUSH2 0x20A1 JUMP JUMPDEST PUSH2 0xBF8 JUMP JUMPDEST STOP JUMPDEST CALLVALUE DUP1 ISZERO PUSH2 0x260 JUMPI PUSH0 PUSH0 REVERT JUMPDEST POP PUSH2 0x27B PUSH1 0x4 DUP1 CALLDATASIZE SUB DUP2 ADD SWAP1 PUSH2 0x276 SWAP2 SWAP1 PUSH2 0x2136 JUMP JUMPDEST PUSH2 0xE06 JUMP JUMPDEST STOP JUMPDEST CALLVALUE DUP1 ISZERO PUSH2 0x288 JUMPI PUSH0 PUSH0 REVERT JUMPDEST POP PUSH2 0x291 PUSH2 0xF79 JUMP JUMPDEST PUSH1 0x40 MLOAD PUSH2 0x29E SWAP2 SWAP1 PUSH2 0x2170 JUMP JUMPDEST PUSH1 0x40 MLOAD DUP1 SWAP2 SUB SWAP1 RETURN JUMPDEST CALLVALUE DUP1 ISZERO PUSH2 0x2B2 JUMPI PUSH0 PUSH0 REVERT JUMPDEST POP PUSH2 0x2CD PUSH1 0x4 DUP1 CALLDATASIZE SUB DUP2 ADD SWAP1 PUSH2 0x2C8 SWAP2 SWAP1 PUSH2 0x1CF4 JUMP JUMPDEST PUSH2 0xF9E JUMP JUMPDEST STOP JUMPDEST CALLVALUE DUP1 ISZERO PUSH2 0x2DA JUMPI PUSH0 PUSH0 REVERT JUMPDEST POP PUSH2 0x2F5 PUSH1 0x4 DUP1 CALLDATASIZE SUB DUP2 ADD SWAP1 PUSH2 0x2F0 SWAP2 SWAP1 PUSH2 0x1CF4 JUMP JUMPDEST PUSH2 0x12A9 JUMP JUMPDEST STOP JUMPDEST PUSH2 0x311 PUSH1 0x4 DUP1 CALLDATASIZE SUB DUP2 ADD SWAP1 PUSH2 0x30C SWAP2 SWAP1 PUSH2 0x21B3 JUMP JUMPDEST PUSH2 0x1435 JUMP JUMPDEST STOP JUMPDEST CALLVALUE DUP1 ISZERO PUSH2 0x31E JUMPI PUSH0 PUSH0 REVERT JUMPDEST POP PUSH2 0x339 PUSH1 0x4 DUP1 CALLDATASIZE SUB DUP2 ADD SWAP1 PUSH2 0x334 SWAP2 SWAP1 PUSH2 0x20A1 JUMP JUMPDEST PUSH2 0x166D JUMP JUMPDEST STOP JUMPDEST CALLVALUE DUP1 ISZERO PUSH2 0x346 JUMPI PUSH0 PUSH0 REVERT JUMPDEST POP PUSH2 0x361 PUSH1 0x4 DUP1 CALLDATASIZE SUB DUP2 ADD SWAP1 PUSH2 0x35C SWAP2 SWAP1 PUSH2 0x1CF4 JUMP JUMPDEST PUSH2 0x18F7 JUMP JUMPDEST STOP JUMPDEST CALLVALUE DUP1 ISZERO PUSH2 0x36E JUMPI PUSH0 PUSH0 REVERT JUMPDEST POP PUSH2 0x377 PUSH2 0x1C32 JUMP JUMPDEST PUSH1 0x40 MLOAD PUSH2 0x384 SWAP2 SWAP1 PUSH2 0x221F JUMP JUMPDEST PUSH1 0x40 MLOAD DUP1 SWAP2 SUB SWAP1 RETURN JUMPDEST CALLVALUE DUP1 ISZERO PUSH2 0x398 JUMPI PUSH0 PUSH0 REVERT JUMPDEST POP PUSH2 0x3B3 PUSH1 0x4 DUP1 CALLDATASIZE SUB DUP2 ADD SWAP1 PUSH2 0x3AE SWAP2 SWAP1 PUSH2 0x2136 JUMP JUMPDEST PUSH2 0x1C45 JUMP JUMPDEST PUSH1 0x40 MLOAD PUSH2 0x3C0 SWAP2 SWAP1 PUSH2 0x1D2E JUMP JUMPDEST PUSH1 0x40 MLOAD DUP1 SWAP2 SUB SWAP1 RETURN JUMPDEST DUP1 PUSH1 0x2 PUSH0 DUP3 DUP2 MSTORE PUSH1 0x20 ADD SWAP1 DUP2 MSTORE PUSH1 0x20 ADD PUSH0 KECCAK256 PUSH1 0x2 ADD PUSH0 SWAP1 SLOAD SWAP1 PUSH2 0x100 EXP SWAP1 DIV PUSH20 0xFFFFFFFFFFFFFFFFFFFFFFFFFFFFFFFFFFFFFFFF AND PUSH20 0xFFFFFFFFFFFFFFFFFFFFFFFFFFFFFFFFFFFFFFFF AND CALLER PUSH20 0xFFFFFFFFFFFFFFFFFFFFFFFFFFFFFFFFFFFFFFFF AND EQ PUSH2 0x46B JUMPI PUSH1 0x40 MLOAD PUSH32 0x8C379A000000000000000000000000000000000000000000000000000000000 DUP2 MSTORE PUSH1 0x4 ADD PUSH2 0x462 SWAP1 PUSH2 0x2282 JUMP JUMPDEST PUSH1 0x40 MLOAD DUP1 SWAP2 SUB SWAP1 REVERT JUMPDEST PUSH0 PUSH1 0x2 PUSH0 DUP5 DUP2 MSTORE PUSH1 0x20 ADD SWAP1 DUP2 MSTORE PUSH1 0x20 ADD PUSH0 KECCAK256 SWAP1 POP DUP1 PUSH1 0x6 ADD PUSH0 SWAP1 SLOAD SWAP1 PUSH2 0x100 EXP SWAP1 DIV PUSH1 0xFF AND PUSH2 0x4CF JUMPI PUSH1 0x40 MLOAD PUSH32 0x8C379A000000000000000000000000000000000000000000000000000000000 DUP2 MSTORE PUSH1 0x4 ADD PUSH2 0x4C6 SWAP1 PUSH2 0x22EA JUMP JUMPDEST PUSH1 0x40 MLOAD DUP1 SWAP2 SUB SWAP1 REVERT JUMPDEST PUSH1 0x1 PUSH1 0x3 DUP2 GT ISZERO PUSH2 0x4E3 JUMPI PUSH2 0x4E2 PUSH2 0x1DD7 JUMP JUMPDEST JUMPDEST DUP2 PUSH1 0x3 ADD PUSH1 0x14 SWAP1 SLOAD SWAP1 PUSH2 0x100 EXP SWAP1 DIV PUSH1 0xFF AND PUSH1 0x3 DUP2 GT ISZERO PUSH2 0x507 JUMPI PUSH2 0x506 PUSH2 0x1DD7 JUMP JUMPDEST JUMPDEST EQ PUSH2 0x547 JUMPI PUSH1 0x40 MLOAD PUSH32 0x8C379A000000000000000000000000000000000000000000000000000000000 DUP2 MSTORE PUSH1 0x4 ADD PUSH2 0x53E SWAP1 PUSH2 0x2352 JUMP JUMPDEST PUSH1 0x40 MLOAD DUP1 SWAP2 SUB SWAP1 REVERT JUMPDEST DUP1 PUSH1 0x6 ADD PUSH1 0x1 SWAP1 SLOAD SWAP1 PUSH2 0x100 EXP SWAP1 DIV PUSH1 0xFF AND PUSH2 0x598 JUMPI PUSH1 0x40 MLOAD PUSH32 0x8C379A000000000000000000000000000000000000000000000000000000000 DUP2 MSTORE PUSH1 0x4 ADD PUSH2 0x58F SWAP1 PUSH2 0x23BA JUMP JUMPDEST PUSH1 0x40 MLOAD DUP1 SWAP2 SUB SWAP1 REVERT JUMPDEST DUP1 PUSH1 0x6 ADD PUSH1 0x2 SWAP1 SLOAD SWAP1 PUSH2 0x100 EXP SWAP1 DIV PUSH1 0xFF AND ISZERO PUSH2 0x5EA JUMPI PUSH1 0x40 MLOAD PUSH32 0x8C379A000000000000000000000000000000000000000000000000000000000 DUP2 MSTORE PUSH1 0x4 ADD PUSH2 0x5E1 SWAP1 PUSH2 0x2422 JUMP JUMPDEST PUSH1 0x40 MLOAD DUP1 SWAP2 SUB SWAP1 REVERT JUMPDEST PUSH1 0x1 DUP2 PUSH1 0x6 ADD PUSH1 0x2 PUSH2 0x100 EXP DUP2 SLOAD DUP2 PUSH1 0xFF MUL NOT AND SWAP1 DUP4 ISZERO ISZERO MUL OR SWAP1 SSTORE POP PUSH1 0x2 DUP2 PUSH1 0x3 ADD PUSH1 0x14 PUSH2 0x100 EXP DUP2 SLOAD DUP2 PUSH1 0xFF MUL NOT AND SWAP1 DUP4 PUSH1 0x3 DUP2 GT ISZERO PUSH2 0x62F JUMPI PUSH2 0x62E PUSH2 0x1DD7 JUMP JUMPDEST JUMPDEST MUL OR SWAP1 SSTORE POP DUP1 PUSH1 0x1 ADD SLOAD PUSH1 0x4 PUSH0 DUP4 PUSH1 0x3 ADD PUSH0 SWAP1 SLOAD SWAP1 PUSH2 0x100 EXP SWAP1 DIV PUSH20 0xFFFFFFFFFFFFFFFFFFFFFFFFFFFFFFFFFFFFFFFF AND PUSH20 0xFFFFFFFFFFFFFFFFFFFFFFFFFFFFFFFFFFFFFFFF AND PUSH20 0xFFFFFFFFFFFFFFFFFFFFFFFFFFFFFFFFFFFFFFFF AND DUP2 MSTORE PUSH1 0x20 ADD SWAP1 DUP2 MSTORE PUSH1 0x20 ADD PUSH0 KECCAK256 SLOAD PUSH2 0x6A4 SWAP2 SWAP1 PUSH2 0x246D JUMP JUMPDEST PUSH1 0x4 PUSH0 DUP4 PUSH1 0x3 ADD PUSH0 SWAP1 SLOAD SWAP1 PUSH2 0x100 EXP SWAP1 DIV PUSH20 0xFFFFFFFFFFFFFFFFFFFFFFFFFFFFFFFFFFFFFFFF AND PUSH20 0xFFFFFFFFFFFFFFFFFFFFFFFFFFFFFFFFFFFFFFFF AND PUSH20 0xFFFFFFFFFFFFFFFFFFFFFFFFFFFFFFFFFFFFFFFF AND DUP2 MSTORE PUSH1 0x20 ADD SWAP1 DUP2 MSTORE PUSH1 0x20 ADD PUSH0 KECCAK256 DUP2 SWAP1 SSTORE POP DUP3 PUSH32 0x5C1E662F72EE6C85181B65FAC5BEB0390932B8C472F05B257151D041AC9DDFFA PUSH1 0x40 MLOAD PUSH1 0x40 MLOAD DUP1 SWAP2 SUB SWAP1 LOG2 DUP1 PUSH1 0x3 ADD PUSH0 SWAP1 SLOAD SWAP1 PUSH2 0x100 EXP SWAP1 DIV PUSH20 0xFFFFFFFFFFFFFFFFFFFFFFFFFFFFFFFFFFFFFFFF AND PUSH20 0xFFFFFFFFFFFFFFFFFFFFFFFFFFFFFFFFFFFFFFFF AND DUP4 PUSH32 0x21D71DB5BE59BB9FA133895586B7404307DD33FB93B16DB09DC6F1D9D7D231B0 DUP4 PUSH1 0x1 ADD SLOAD PUSH1 0x40 MLOAD PUSH2 0x7A3 SWAP2 SWAP1 PUSH2 0x1D2E JUMP JUMPDEST PUSH1 0x40 MLOAD DUP1 SWAP2 SUB SWAP1 LOG3 POP POP POP JUMP JUMPDEST PUSH1 0x3 SLOAD DUP2 JUMP JUMPDEST PUSH1 0x60 PUSH1 0x2 PUSH0 DUP4 DUP2 MSTORE PUSH1 0x20 ADD SWAP1 DUP2 MSTORE PUSH1 0x20 ADD PUSH0 KECCAK256 PUSH1 0x4 ADD DUP1 SLOAD PUSH2 0x7D7 SWAP1 PUSH2 0x24CD JUMP JUMPDEST DUP1 PUSH1 0x1F ADD PUSH1 0x20 DUP1 SWAP2 DIV MUL PUSH1 0x20 ADD PUSH1 0x40 MLOAD SWAP1 DUP2 ADD PUSH1 0x40 MSTORE DUP1 SWAP3 SWAP2 SWAP1 DUP2 DUP2 MSTORE PUSH1 0x20 ADD DUP3 DUP1 SLOAD PUSH2 0x803 SWAP1 PUSH2 0x24CD JUMP JUMPDEST DUP1 ISZERO PUSH2 0x84E JUMPI DUP1 PUSH1 0x1F LT PUSH2 0x825 JUMPI PUSH2 0x100 DUP1 DUP4 SLOAD DIV MUL DUP4 MSTORE SWAP2 PUSH1 0x20 ADD SWAP2 PUSH2 0x84E JUMP JUMPDEST DUP3 ADD SWAP2 SWAP1 PUSH0 MSTORE PUSH1 0x20 PUSH0 KECCAK256 SWAP1 JUMPDEST DUP2 SLOAD DUP2 MSTORE SWAP1 PUSH1 0x1 ADD SWAP1 PUSH1 0x20 ADD DUP1 DUP4 GT PUSH2 0x831 JUMPI DUP3 SWAP1 SUB PUSH1 0x1F AND DUP3 ADD SWAP2 JUMPDEST POP POP POP POP POP SWAP1 POP SWAP2 SWAP1 POP JUMP JUMPDEST PUSH0 PUSH1 0x2 PUSH0 DUP4 DUP2 MSTORE PUSH1 0x20 ADD SWAP1 DUP2 MSTORE PUSH1 0x20 ADD PUSH0 KECCAK256 PUSH1 0x3 ADD PUSH1 0x14 SWAP1 SLOAD SWAP1 PUSH2 0x100 EXP SWAP1 DIV PUSH1 0xFF AND SWAP1 POP SWAP2 SWAP1 POP JUMP JUMPDEST DUP1 PUSH1 0x2 PUSH0 DUP3 DUP2 MSTORE PUSH1 0x20 ADD SWAP1 DUP2 MSTORE PUSH1 0x20 ADD PUSH0 KECCAK256 PUSH1 0x2 ADD PUSH0 SWAP1 SLOAD SWAP1 PUSH2 0x100 EXP SWAP1 DIV PUSH20 0xFFFFFFFFFFFFFFFFFFFFFFFFFFFFFFFFFFFFFFFF AND PUSH20 0xFFFFFFFFFFFFFFFFFFFFFFFFFFFFFFFFFFFFFFFF AND CALLER PUSH20 0xFFFFFFFFFFFFFFFFFFFFFFFFFFFFFFFFFFFFFFFF AND EQ PUSH2 0x926 JUMPI PUSH1 0x40 MLOAD PUSH32 0x8C379A000000000000000000000000000000000000000000000000000000000 DUP2 MSTORE PUSH1 0x4 ADD PUSH2 0x91D SWAP1 PUSH2 0x2282 JUMP JUMPDEST PUSH1 0x40 MLOAD DUP1 SWAP2 SUB SWAP1 REVERT JUMPDEST PUSH0 PUSH1 0x2 PUSH0 DUP5 DUP2 MSTORE PUSH1 0x20 ADD SWAP1 DUP2 MSTORE PUSH1 0x20 ADD PUSH0 KECCAK256 SWAP1 POP PUSH1 0x2 PUSH1 0x3 DUP2 GT ISZERO PUSH2 0x94E JUMPI PUSH2 0x94D PUSH2 0x1DD7 JUMP JUMPDEST JUMPDEST DUP2 PUSH1 0x3 ADD PUSH1 0x14 SWAP1 SLOAD SWAP1 PUSH2 0x100 EXP SWAP1 DIV PUSH1 0xFF AND PUSH1 0x3 DUP2 GT ISZERO PUSH2 0x972 JUMPI PUSH2 0x971 PUSH2 0x1DD7 JUMP JUMPDEST JUMPDEST SUB PUSH2 0x9B2 JUMPI PUSH1 0x40 MLOAD PUSH32 0x8C379A000000000000000000000000000000000000000000000000000000000 DUP2 MSTORE PUSH1 0x4 ADD PUSH2 0x9A9 SWAP1 PUSH2 0x2547 JUMP JUMPDEST PUSH1 0x40 MLOAD DUP1 SWAP2 SUB SWAP1 REVERT JUMPDEST PUSH1 0x3 DUP1 DUP2 GT ISZERO PUSH2 0x9C5 JUMPI PUSH2 0x9C4 PUSH2 0x1DD7 JUMP JUMPDEST JUMPDEST DUP2 PUSH1 0x3 ADD PUSH1 0x14 SWAP1 SLOAD SWAP1 PUSH2 0x100 EXP SWAP1 DIV PUSH1 0xFF AND PUSH1 0x3 DUP2 GT ISZERO PUSH2 0x9E9 JUMPI PUSH2 0x9E8 PUSH2 0x1DD7 JUMP JUMPDEST JUMPDEST SUB PUSH2 0xA29 JUMPI PUSH1 0x40 MLOAD PUSH32 0x8C379A000000000000000000000000000000000000000000000000000000000 DUP2 MSTORE PUSH1 0x4 ADD PUSH2 0xA20 SWAP1 PUSH2 0x25AF JUMP JUMPDEST PUSH1 0x40 MLOAD DUP1 SWAP2 SUB SWAP1 REVERT JUMPDEST PUSH1 0x40 MLOAD DUP1 PUSH1 0x20 ADD PUSH1 0x40 MSTORE DUP1 PUSH0 DUP2 MSTORE POP DUP2 PUSH1 0x4 ADD SWAP1 DUP2 PUSH2 0xA48 SWAP2 SWAP1 PUSH2 0x276D JUMP JUMPDEST POP PUSH0 DUP2 PUSH1 0x5 ADD DUP2 SWAP1 SSTORE POP PUSH1 0x3 DUP2 PUSH1 0x3 ADD PUSH1 0x14 PUSH2 0x100 EXP DUP2 SLOAD DUP2 PUSH1 0xFF MUL NOT AND SWAP1 DUP4 PUSH1 0x3 DUP2 GT ISZERO PUSH2 0xA7A JUMPI PUSH2 0xA79 PUSH2 0x1DD7 JUMP JUMPDEST JUMPDEST MUL OR SWAP1 SSTORE POP DUP3 PUSH32 0x741B099F015E1976CFA72A7448A8FB1D54EAB1D616241B562CFBE603A2B61B42 PUSH1 0x40 MLOAD PUSH1 0x40 MLOAD DUP1 SWAP2 SUB SWAP1 LOG2 POP POP POP JUMP JUMPDEST PUSH1 0x2 PUSH1 0x20 MSTORE DUP1 PUSH0 MSTORE PUSH1 0x40 PUSH0 KECCAK256 PUSH0 SWAP2 POP SWAP1 POP DUP1 PUSH0 ADD SLOAD SWAP1 DUP1 PUSH1 0x1 ADD SLOAD SWAP1 DUP1 PUSH1 0x2 ADD PUSH0 SWAP1 SLOAD SWAP1 PUSH2 0x100 EXP SWAP1 DIV PUSH20 0xFFFFFFFFFFFFFFFFFFFFFFFFFFFFFFFFFFFFFFFF AND SWAP1 DUP1 PUSH1 0x3 ADD PUSH0 SWAP1 SLOAD SWAP1 PUSH2 0x100 EXP SWAP1 DIV PUSH20 0xFFFFFFFFFFFFFFFFFFFFFFFFFFFFFFFFFFFFFFFF AND SWAP1 DUP1 PUSH1 0x3 ADD PUSH1 0x14 SWAP1 SLOAD SWAP1 PUSH2 0x100 EXP SWAP1 DIV PUSH1 0xFF AND SWAP1 DUP1 PUSH1 0x4 ADD DUP1 SLOAD PUSH2 0xB39 SWAP1 PUSH2 0x24CD JUMP JUMPDEST DUP1 PUSH1 0x1F ADD PUSH1 0x20 DUP1 SWAP2 DIV MUL PUSH1 0x20 ADD PUSH1 0x40 MLOAD SWAP1 DUP2 ADD PUSH1 0x40 MSTORE DUP1 SWAP3 SWAP2 SWAP1 DUP2 DUP2 MSTORE PUSH1 0x20 ADD DUP3 DUP1 SLOAD PUSH2 0xB65 SWAP1 PUSH2 0x24CD JUMP JUMPDEST DUP1 ISZERO PUSH2 0xBB0 JUMPI DUP1 PUSH1 0x1F LT PUSH2 0xB87 JUMPI PUSH2 0x100 DUP1 DUP4 SLOAD DIV MUL DUP4 MSTORE SWAP2 PUSH1 0x20 ADD SWAP2 PUSH2 0xBB0 JUMP JUMPDEST DUP3 ADD SWAP2 SWAP1 PUSH0 MSTORE PUSH1 0x20 PUSH0 KECCAK256 SWAP1 JUMPDEST DUP2 SLOAD DUP2 MSTORE SWAP1 PUSH1 0x1 ADD SWAP1 PUSH1 0x20 ADD DUP1 DUP4 GT PUSH2 0xB93 JUMPI DUP3 SWAP1 SUB PUSH1 0x1F AND DUP3 ADD SWAP2 JUMPDEST POP POP POP POP POP SWAP1 DUP1 PUSH1 0x5 ADD SLOAD SWAP1 DUP1 PUSH1 0x6 ADD PUSH0 SWAP1 SLOAD SWAP1 PUSH2 0x100 EXP SWAP1 DIV PUSH1 0xFF AND SWAP1 DUP1 PUSH1 0x6 ADD PUSH1 0x1 SWAP1 SLOAD SWAP1 PUSH2 0x100 EXP SWAP1 DIV PUSH1 0xFF AND SWAP1 DUP1 PUSH1 0x6 ADD PUSH1 0x2 SWAP1 SLOAD SWAP1 PUSH2 0x100 EXP SWAP1 DIV PUSH1 0xFF AND SWAP1 POP DUP11 JUMP JUMPDEST DUP2 PUSH1 0x2 PUSH0 DUP3 DUP2 MSTORE PUSH1 0x20 ADD SWAP1 DUP2 MSTORE PUSH1 0x20 ADD PUSH0 KECCAK256 PUSH1 0x3 ADD PUSH0 SWAP1 SLOAD SWAP1 PUSH2 0x100 EXP SWAP1 DIV PUSH20 0xFFFFFFFFFFFFFFFFFFFFFFFFFFFFFFFFFFFFFFFF AND PUSH20 0xFFFFFFFFFFFFFFFFFFFFFFFFFFFFFFFFFFFFFFFF AND CALLER PUSH20 0xFFFFFFFFFFFFFFFFFFFFFFFFFFFFFFFFFFFFFFFF AND EQ PUSH2 0xC9A JUMPI PUSH1 0x40 MLOAD PUSH32 0x8C379A000000000000000000000000000000000000000000000000000000000 DUP2 MSTORE PUSH1 0x4 ADD PUSH2 0xC91 SWAP1 PUSH2 0x2886 JUMP JUMPDEST PUSH1 0x40 MLOAD DUP1 SWAP2 SUB SWAP1 REVERT JUMPDEST PUSH0 PUSH1 0x2 PUSH0 DUP6 DUP2 MSTORE PUSH1 0x20 ADD SWAP1 DUP2 MSTORE PUSH1 0x20 ADD PUSH0 KECCAK256 SWAP1 POP PUSH1 0x1 PUSH1 0x3 DUP2 GT ISZERO PUSH2 0xCC2 JUMPI PUSH2 0xCC1 PUSH2 0x1DD7 JUMP JUMPDEST JUMPDEST DUP2 PUSH1 0x3 ADD PUSH1 0x14 SWAP1 SLOAD SWAP1 PUSH2 0x100 EXP SWAP1 DIV PUSH1 0xFF AND PUSH1 0x3 DUP2 GT ISZERO PUSH2 0xCE6 JUMPI PUSH2 0xCE5 PUSH2 0x1DD7 JUMP JUMPDEST JUMPDEST EQ PUSH2 0xD26 JUMPI PUSH1 0x40 MLOAD PUSH32 0x8C379A000000000000000000000000000000000000000000000000000000000 DUP2 MSTORE PUSH1 0x4 ADD PUSH2 0xD1D SWAP1 PUSH2 0x2352 JUMP JUMPDEST PUSH1 0x40 MLOAD DUP1 SWAP2 SUB SWAP1 REVERT JUMPDEST DUP1 PUSH1 0x6 ADD PUSH0 SWAP1 SLOAD SWAP1 PUSH2 0x100 EXP SWAP1 DIV PUSH1 0xFF AND ISZERO PUSH2 0xD77 JUMPI PUSH1 0x40 MLOAD PUSH32 0x8C379A000000000000000000000000000000000000000000000000000000000 DUP2 MSTORE PUSH1 0x4 ADD PUSH2 0xD6E SWAP1 PUSH2 0x28EE JUMP JUMPDEST PUSH1 0x40 MLOAD DUP1 SWAP2 SUB SWAP1 REVERT JUMPDEST DUP4 DUP4 PUSH1 0x40 MLOAD PUSH1 0x20 ADD PUSH2 0xD8A SWAP3 SWAP2 SWAP1 PUSH2 0x290C JUMP JUMPDEST PUSH1 0x40 MLOAD PUSH1 0x20 DUP2 DUP4 SUB SUB DUP2 MSTORE SWAP1 PUSH1 0x40 MSTORE DUP1 MLOAD SWAP1 PUSH1 0x20 ADD KECCAK256 DUP2 PUSH1 0x5 ADD DUP2 SWAP1 SSTORE POP PUSH1 0x1 DUP2 PUSH1 0x6 ADD PUSH0 PUSH2 0x100 EXP DUP2 SLOAD DUP2 PUSH1 0xFF MUL NOT AND SWAP1 DUP4 ISZERO ISZERO MUL OR SWAP1 SSTORE POP DUP4 PUSH32 0x4B70739C5F0BD46E19773020C599342CDBDC3AC59B5E0ABFDD9C1BB441BE59C8 DUP3 PUSH1 0x5 ADD SLOAD PUSH1 0x40 MLOAD PUSH2 0xDF8 SWAP2 SWAP1 PUSH2 0x293A JUMP JUMPDEST PUSH1 0x40 MLOAD DUP1 SWAP2 SUB SWAP1 LOG2 POP POP POP POP JUMP JUMPDEST PUSH1 0x1 PUSH1 0x14 SWAP1 SLOAD SWAP1 PUSH2 0x100 EXP SWAP1 DIV PUSH1 0xFF AND ISZERO PUSH2 0xE56 JUMPI PUSH1 0x40 MLOAD PUSH32 0x8C379A000000000000000000000000000000000000000000000000000000000 DUP2 MSTORE PUSH1 0x4 ADD PUSH2 0xE4D SWAP1 PUSH2 0x299D JUMP JUMPDEST PUSH1 0x40 MLOAD DUP1 SWAP2 SUB SWAP1 REVERT JUMPDEST PUSH0 PUSH20 0xFFFFFFFFFFFFFFFFFFFFFFFFFFFFFFFFFFFFFFFF AND DUP2 PUSH20 0xFFFFFFFFFFFFFFFFFFFFFFFFFFFFFFFFFFFFFFFF AND SUB PUSH2 0xEC4 JUMPI PUSH1 0x40 MLOAD PUSH32 0x8C379A000000000000000000000000000000000000000000000000000000000 DUP2 MSTORE PUSH1 0x4 ADD PUSH2 0xEBB SWAP1 PUSH2 0x2A05 JUMP JUMPDEST PUSH1 0x40 MLOAD DUP1 SWAP2 SUB SWAP1 REVERT JUMPDEST PUSH1 0x1 PUSH1 0x14 SWAP1 SLOAD SWAP1 PUSH2 0x100 EXP SWAP1 DIV PUSH1 0xFF AND PUSH2 0xF76 JUMPI DUP1 PUSH1 0x1 PUSH0 PUSH2 0x100 EXP DUP2 SLOAD DUP2 PUSH20 0xFFFFFFFFFFFFFFFFFFFFFFFFFFFFFFFFFFFFFFFF MUL NOT AND SWAP1 DUP4 PUSH20 0xFFFFFFFFFFFFFFFFFFFFFFFFFFFFFFFFFFFFFFFF AND MUL OR SWAP1 SSTORE POP PUSH1 0x1 DUP1 PUSH1 0x14 PUSH2 0x100 EXP DUP2 SLOAD DUP2 PUSH1 0xFF MUL NOT AND SWAP1 DUP4 ISZERO ISZERO MUL OR SWAP1 SSTORE POP DUP1 PUSH20 0xFFFFFFFFFFFFFFFFFFFFFFFFFFFFFFFFFFFFFFFF AND PUSH32 0x3F32684A32A11DABDBB8C0177DE80AA3AE36A004D75210335B49E544E48CD0AA PUSH1 0x40 MLOAD PUSH1 0x40 MLOAD DUP1 SWAP2 SUB SWAP1 LOG2 JUMPDEST POP JUMP JUMPDEST PUSH1 0x1 PUSH0 SWAP1 SLOAD SWAP1 PUSH2 0x100 EXP SWAP1 DIV PUSH20 0xFFFFFFFFFFFFFFFFFFFFFFFFFFFFFFFFFFFFFFFF AND DUP2 JUMP JUMPDEST PUSH2 0xFA6 PUSH2 0x1C5A JUMP JUMPDEST DUP1 PUSH1 0x2 PUSH0 DUP3 DUP2 MSTORE PUSH1 0x20 ADD SWAP1 DUP2 MSTORE PUSH1 0x20 ADD PUSH0 KECCAK256 PUSH1 0x2 ADD PUSH0 SWAP1 SLOAD SWAP1 PUSH2 0x100 EXP SWAP1 DIV PUSH20 0xFFFFFFFFFFFFFFFFFFFFFFFFFFFFFFFFFFFFFFFF AND PUSH20 0xFFFFFFFFFFFFFFFFFFFFFFFFFFFFFFFFFFFFFFFF AND CALLER PUSH20 0xFFFFFFFFFFFFFFFFFFFFFFFFFFFFFFFFFFFFFFFF AND EQ PUSH2 0x1048 JUMPI PUSH1 0x40 MLOAD PUSH32 0x8C379A000000000000000000000000000000000000000000000000000000000 DUP2 MSTORE PUSH1 0x4 ADD PUSH2 0x103F SWAP1 PUSH2 0x2282 JUMP JUMPDEST PUSH1 0x40 MLOAD DUP1 SWAP2 SUB SWAP1 REVERT JUMPDEST PUSH0 PUSH1 0x2 PUSH0 DUP5 DUP2 MSTORE PUSH1 0x20 ADD SWAP1 DUP2 MSTORE PUSH1 0x20 ADD PUSH0 KECCAK256 SWAP1 POP PUSH1 0x1 PUSH1 0x3 DUP2 GT ISZERO PUSH2 0x1070 JUMPI PUSH2 0x106F PUSH2 0x1DD7 JUMP JUMPDEST JUMPDEST DUP2 PUSH1 0x3 ADD PUSH1 0x14 SWAP1 SLOAD SWAP1 PUSH2 0x100 EXP SWAP1 DIV PUSH1 0xFF AND PUSH1 0x3 DUP2 GT ISZERO PUSH2 0x1094 JUMPI PUSH2 0x1093 PUSH2 0x1DD7 JUMP JUMPDEST JUMPDEST EQ PUSH2 0x10D4 JUMPI PUSH1 0x40 MLOAD PUSH32 0x8C379A000000000000000000000000000000000000000000000000000000000 DUP2 MSTORE PUSH1 0x4 ADD PUSH2 0x10CB SWAP1 PUSH2 0x2352 JUMP JUMPDEST PUSH1 0x40 MLOAD DUP1 SWAP2 SUB SWAP1 REVERT JUMPDEST DUP1 PUSH1 0x6 ADD PUSH0 SWAP1 SLOAD SWAP1 PUSH2 0x100 EXP SWAP1 DIV PUSH1 0xFF AND ISZERO PUSH2 0x1125 JUMPI PUSH1 0x40 MLOAD PUSH32 0x8C379A000000000000000000000000000000000000000000000000000000000 DUP2 MSTORE PUSH1 0x4 ADD PUSH2 0x111C SWAP1 PUSH2 0x2A6D JUMP JUMPDEST PUSH1 0x40 MLOAD DUP1 SWAP2 SUB SWAP1 REVERT JUMPDEST PUSH1 0x2 DUP2 PUSH1 0x3 ADD PUSH1 0x14 PUSH2 0x100 EXP DUP2 SLOAD DUP2 PUSH1 0xFF MUL NOT AND SWAP1 DUP4 PUSH1 0x3 DUP2 GT ISZERO PUSH2 0x114D JUMPI PUSH2 0x114C PUSH2 0x1DD7 JUMP JUMPDEST JUMPDEST MUL OR SWAP1 SSTORE POP DUP1 PUSH1 0x1 ADD SLOAD PUSH1 0x4 PUSH0 DUP4 PUSH1 0x3 ADD PUSH0 SWAP1 SLOAD SWAP1 PUSH2 0x100 EXP SWAP1 DIV PUSH20 0xFFFFFFFFFFFFFFFFFFFFFFFFFFFFFFFFFFFFFFFF AND PUSH20 0xFFFFFFFFFFFFFFFFFFFFFFFFFFFFFFFFFFFFFFFF AND PUSH20 0xFFFFFFFFFFFFFFFFFFFFFFFFFFFFFFFFFFFFFFFF AND DUP2 MSTORE PUSH1 0x20 ADD SWAP1 DUP2 MSTORE PUSH1 0x20 ADD PUSH0 KECCAK256 SLOAD PUSH2 0x11C2 SWAP2 SWAP1 PUSH2 0x246D JUMP JUMPDEST PUSH1 0x4 PUSH0 DUP4 PUSH1 0x3 ADD PUSH0 SWAP1 SLOAD SWAP1 PUSH2 0x100 EXP SWAP1 DIV PUSH20 0xFFFFFFFFFFFFFFFFFFFFFFFFFFFFFFFFFFFFFFFF AND PUSH20 0xFFFFFFFFFFFFFFFFFFFFFFFFFFFFFFFFFFFFFFFF AND PUSH20 0xFFFFFFFFFFFFFFFFFFFFFFFFFFFFFFFFFFFFFFFF AND DUP2 MSTORE PUSH1 0x20 ADD SWAP1 DUP2 MSTORE PUSH1 0x20 ADD PUSH0 KECCAK256 DUP2 SWAP1 SSTORE POP DUP1 PUSH1 0x3 ADD PUSH0 SWAP1 SLOAD SWAP1 PUSH2 0x100 EXP SWAP1 DIV PUSH20 0xFFFFFFFFFFFFFFFFFFFFFFFFFFFFFFFFFFFFFFFF AND PUSH20 0xFFFFFFFFFFFFFFFFFFFFFFFFFFFFFFFFFFFFFFFF AND DUP4 PUSH32 0x21D71DB5BE59BB9FA133895586B7404307DD33FB93B16DB09DC6F1D9D7D231B0 DUP4 PUSH1 0x1 ADD SLOAD PUSH1 0x40 MLOAD PUSH2 0x1294 SWAP2 SWAP1 PUSH2 0x1D2E JUMP JUMPDEST PUSH1 0x40 MLOAD DUP1 SWAP2 SUB SWAP1 LOG3 POP POP PUSH2 0x12A6 PUSH2 0x1CA7 JUMP JUMPDEST POP JUMP JUMPDEST DUP1 PUSH1 0x2 PUSH0 DUP3 DUP2 MSTORE PUSH1 0x20 ADD SWAP1 DUP2 MSTORE PUSH1 0x20 ADD PUSH0 KECCAK256 PUSH1 0x3 ADD PUSH0 SWAP1 SLOAD SWAP1 PUSH2 0x100 EXP SWAP1 DIV PUSH20 0xFFFFFFFFFFFFFFFFFFFFFFFFFFFFFFFFFFFFFFFF AND PUSH20 0xFFFFFFFFFFFFFFFFFFFFFFFFFFFFFFFFFFFFFFFF AND CALLER PUSH20 0xFFFFFFFFFFFFFFFFFFFFFFFFFFFFFFFFFFFFFFFF AND EQ PUSH2 0x134B JUMPI PUSH1 0x40 MLOAD PUSH32 0x8C379A000000000000000000000000000000000000000000000000000000000 DUP2 MSTORE PUSH1 0x4 ADD PUSH2 0x1342 SWAP1 PUSH2 0x2886 JUMP JUMPDEST PUSH1 0x40 MLOAD DUP1 SWAP2 SUB SWAP1 REVERT JUMPDEST PUSH0 PUSH1 0x2 PUSH0 DUP5 DUP2 MSTORE PUSH1 0x20 ADD SWAP1 DUP2 MSTORE PUSH1 0x20 ADD PUSH0 KECCAK256 SWAP1 POP PUSH0 PUSH1 0x3 DUP2 GT ISZERO PUSH2 0x1372 JUMPI PUSH2 0x1371 PUSH2 0x1DD7 JUMP JUMPDEST JUMPDEST DUP2 PUSH1 0x3 ADD PUSH1 0x14 SWAP1 SLOAD SWAP1 PUSH2 0x100 EXP SWAP1 DIV PUSH1 0xFF AND PUSH1 0x3 DUP2 GT ISZERO PUSH2 0x1396 JUMPI PUSH2 0x1395 PUSH2 0x1DD7 JUMP JUMPDEST JUMPDEST EQ PUSH2 0x13D6 JUMPI PUSH1 0x40 MLOAD PUSH32 0x8C379A000000000000000000000000000000000000000000000000000000000 DUP2 MSTORE PUSH1 0x4 ADD PUSH2 0x13CD SWAP1 PUSH2 0x2AD5 JUMP JUMPDEST PUSH1 0x40 MLOAD DUP1 SWAP2 SUB SWAP1 REVERT JUMPDEST PUSH1 0x1 DUP2 PUSH1 0x3 ADD PUSH1 0x14 PUSH2 0x100 EXP DUP2 SLOAD DUP2 PUSH1 0xFF MUL NOT AND SWAP1 DUP4 PUSH1 0x3 DUP2 GT ISZERO PUSH2 0x13FE JUMPI PUSH2 0x13FD PUSH2 0x1DD7 JUMP JUMPDEST JUMPDEST MUL OR SWAP1 SSTORE POP DUP3 PUSH32 0xAF3C49F5413FD292E2325B0FE214DE144A222B00CB6EC21214FDC04B5D6C5913 PUSH1 0x40 MLOAD PUSH1 0x40 MLOAD DUP1 SWAP2 SUB SWAP1 LOG2 POP POP POP JUMP JUMPDEST PUSH0 PUSH20 0xFFFFFFFFFFFFFFFFFFFFFFFFFFFFFFFFFFFFFFFF AND DUP4 PUSH20 0xFFFFFFFFFFFFFFFFFFFFFFFFFFFFFFFFFFFFFFFF AND SUB PUSH2 0x14A3 JUMPI PUSH1 0x40 MLOAD PUSH32 0x8C379A000000000000000000000000000000000000000000000000000000000 DUP2 MSTORE PUSH1 0x4 ADD PUSH2 0x149A SWAP1 PUSH2 0x2B3D JUMP JUMPDEST PUSH1 0x40 MLOAD DUP1 SWAP2 SUB SWAP1 REVERT JUMPDEST DUP1 CALLVALUE EQ PUSH2 0x14E5 JUMPI PUSH1 0x40 MLOAD PUSH32 0x8C379A000000000000000000000000000000000000000000000000000000000 DUP2 MSTORE PUSH1 0x4 ADD PUSH2 0x14DC SWAP1 PUSH2 0x2BA5 JUMP JUMPDEST PUSH1 0x40 MLOAD DUP1 SWAP2 SUB SWAP1 REVERT JUMPDEST PUSH1 0xA DUP3 MLOAD GT PUSH2 0x1529 JUMPI PUSH1 0x40 MLOAD PUSH32 0x8C379A000000000000000000000000000000000000000000000000000000000 DUP2 MSTORE PUSH1 0x4 ADD PUSH2 0x1520 SWAP1 PUSH2 0x2C0D JUMP JUMPDEST PUSH1 0x40 MLOAD DUP1 SWAP2 SUB SWAP1 REVERT JUMPDEST PUSH1 0x3 PUSH0 DUP2 SLOAD DUP1 SWAP3 SWAP2 SWAP1 PUSH2 0x153B SWAP1 PUSH2 0x2C2B JUMP JUMPDEST SWAP2 SWAP1 POP SSTORE POP PUSH0 PUSH1 0x2 PUSH0 PUSH1 0x3 SLOAD DUP2 MSTORE PUSH1 0x20 ADD SWAP1 DUP2 MSTORE PUSH1 0x20 ADD PUSH0 KECCAK256 SWAP1 POP PUSH1 0x3 SLOAD DUP2 PUSH0 ADD DUP2 SWAP1 SSTORE POP DUP2 DUP2 PUSH1 0x1 ADD DUP2 SWAP1 SSTORE POP CALLER DUP2 PUSH1 0x2 ADD PUSH0 PUSH2 0x100 EXP DUP2 SLOAD DUP2 PUSH20 0xFFFFFFFFFFFFFFFFFFFFFFFFFFFFFFFFFFFFFFFF MUL NOT AND SWAP1 DUP4 PUSH20 0xFFFFFFFFFFFFFFFFFFFFFFFFFFFFFFFFFFFFFFFF AND MUL OR SWAP1 SSTORE POP DUP4 DUP2 PUSH1 0x3 ADD PUSH0 PUSH2 0x100 EXP DUP2 SLOAD DUP2 PUSH20 0xFFFFFFFFFFFFFFFFFFFFFFFFFFFFFFFFFFFFFFFF MUL NOT AND SWAP1 DUP4 PUSH20 0xFFFFFFFFFFFFFFFFFFFFFFFFFFFFFFFFFFFFFFFF AND MUL OR SWAP1 SSTORE POP PUSH0 DUP2 PUSH1 0x3 ADD PUSH1 0x14 PUSH2 0x100 EXP DUP2 SLOAD DUP2 PUSH1 0xFF MUL NOT AND SWAP1 DUP4 PUSH1 0x3 DUP2 GT ISZERO PUSH2 0x1614 JUMPI PUSH2 0x1613 PUSH2 0x1DD7 JUMP JUMPDEST JUMPDEST MUL OR SWAP1 SSTORE POP DUP3 DUP2 PUSH1 0x4 ADD SWAP1 DUP2 PUSH2 0x162A SWAP2 SWAP1 PUSH2 0x276D JUMP JUMPDEST POP PUSH1 0x3 SLOAD PUSH32 0x56560A52C047ED21FD801BF0F345B23D9AF696F7922FF8E63101AF5D48CADDAB CALLER DUP7 PUSH1 0x40 MLOAD PUSH2 0x165F SWAP3 SWAP2 SWAP1 PUSH2 0x2CC4 JUMP JUMPDEST PUSH1 0x40 MLOAD DUP1 SWAP2 SUB SWAP1 LOG2 POP POP POP POP JUMP JUMPDEST PUSH2 0x1675 PUSH2 0x1C5A JUMP JUMPDEST PUSH1 0x1 PUSH0 SWAP1 SLOAD SWAP1 PUSH2 0x100 EXP SWAP1 DIV PUSH20 0xFFFFFFFFFFFFFFFFFFFFFFFFFFFFFFFFFFFFFFFF AND PUSH20 0xFFFFFFFFFFFFFFFFFFFFFFFFFFFFFFFFFFFFFFFF AND CALLER PUSH20 0xFFFFFFFFFFFFFFFFFFFFFFFFFFFFFFFFFFFFFFFF AND EQ PUSH2 0x1704 JUMPI PUSH1 0x40 MLOAD PUSH32 0x8C379A000000000000000000000000000000000000000000000000000000000 DUP2 MSTORE PUSH1 0x4 ADD PUSH2 0x16FB SWAP1 PUSH2 0x2D35 JUMP JUMPDEST PUSH1 0x40 MLOAD DUP1 SWAP2 SUB SWAP1 REVERT JUMPDEST PUSH0 PUSH1 0x2 PUSH0 DUP5 DUP2 MSTORE PUSH1 0x20 ADD SWAP1 DUP2 MSTORE PUSH1 0x20 ADD PUSH0 KECCAK256 SWAP1 POP DUP1 PUSH1 0x6 ADD PUSH0 SWAP1 SLOAD SWAP1 PUSH2 0x100 EXP SWAP1 DIV PUSH1 0xFF AND PUSH2 0x1768 JUMPI PUSH1 0x40 MLOAD PUSH32 0x8C379A000000000000000000000000000000000000000000000000000000000 DUP2 MSTORE PUSH1 0x4 ADD PUSH2 0x175F SWAP1 PUSH2 0x22EA JUMP JUMPDEST PUSH1 0x40 MLOAD DUP1 SWAP2 SUB SWAP1 REVERT JUMPDEST PUSH1 0x1 PUSH1 0x3 DUP2 GT ISZERO PUSH2 0x177C JUMPI PUSH2 0x177B PUSH2 0x1DD7 JUMP JUMPDEST JUMPDEST DUP2 PUSH1 0x3 ADD PUSH1 0x14 SWAP1 SLOAD SWAP1 PUSH2 0x100 EXP SWAP1 DIV PUSH1 0xFF AND PUSH1 0x3 DUP2 GT ISZERO PUSH2 0x17A0 JUMPI PUSH2 0x179F PUSH2 0x1DD7 JUMP JUMPDEST JUMPDEST EQ PUSH2 0x17E0 JUMPI PUSH1 0x40 MLOAD PUSH32 0x8C379A000000000000000000000000000000000000000000000000000000000 DUP2 MSTORE PUSH1 0x4 ADD PUSH2 0x17D7 SWAP1 PUSH2 0x2352 JUMP JUMPDEST PUSH1 0x40 MLOAD DUP1 SWAP2 SUB SWAP1 REVERT JUMPDEST DUP1 PUSH1 0x6 ADD PUSH1 0x1 SWAP1 SLOAD SWAP1 PUSH2 0x100 EXP SWAP1 DIV PUSH1 0xFF AND ISZERO PUSH2 0x1832 JUMPI PUSH1 0x40 MLOAD PUSH32 0x8C379A000000000000000000000000000000000000000000000000000000000 DUP2 MSTORE PUSH1 0x4 ADD PUSH2 0x1829 SWAP1 PUSH2 0x2D9D JUMP JUMPDEST PUSH1 0x40 MLOAD DUP1 SWAP2 SUB SWAP1 REVERT JUMPDEST DUP3 DUP3 PUSH1 0x40 MLOAD PUSH1 0x20 ADD PUSH2 0x1845 SWAP3 SWAP2 SWAP1 PUSH2 0x290C JUMP JUMPDEST PUSH1 0x40 MLOAD PUSH1 0x20 DUP2 DUP4 SUB SUB DUP2 MSTORE SWAP1 PUSH1 0x40 MSTORE DUP1 MLOAD SWAP1 PUSH1 0x20 ADD KECCAK256 DUP2 PUSH1 0x5 ADD SLOAD EQ PUSH2 0x18A0 JUMPI PUSH1 0x40 MLOAD PUSH32 0x8C379A000000000000000000000000000000000000000000000000000000000 DUP2 MSTORE PUSH1 0x4 ADD PUSH2 0x1897 SWAP1 PUSH2 0x2E05 JUMP JUMPDEST PUSH1 0x40 MLOAD DUP1 SWAP2 SUB SWAP1 REVERT JUMPDEST PUSH1 0x1 DUP2 PUSH1 0x6 ADD PUSH1 0x1 PUSH2 0x100 EXP DUP2 SLOAD DUP2 PUSH1 0xFF MUL NOT AND SWAP1 DUP4 ISZERO ISZERO MUL OR SWAP1 SSTORE POP DUP3 PUSH32 0x375B4005EEAE25D0E37D56E1B3841D3BB394B277EFA2548DE3293F5DCB7A3493 PUSH1 0x40 MLOAD PUSH1 0x40 MLOAD DUP1 SWAP2 SUB SWAP1 LOG2 POP PUSH2 0x18F3 PUSH2 0x1CA7 JUMP JUMPDEST POP POP JUMP JUMPDEST PUSH2 0x18FF PUSH2 0x1C5A JUMP JUMPDEST PUSH0 PUSH1 0x2 PUSH0 DUP4 DUP2 MSTORE PUSH1 0x20 ADD SWAP1 DUP2 MSTORE PUSH1 0x20 ADD PUSH0 KECCAK256 SWAP1 POP PUSH1 0x2 PUSH1 0x3 DUP2 GT ISZERO PUSH2 0x1927 JUMPI PUSH2 0x1926 PUSH2 0x1DD7 JUMP JUMPDEST JUMPDEST DUP2 PUSH1 0x3 ADD PUSH1 0x14 SWAP1 SLOAD SWAP1 PUSH2 0x100 EXP SWAP1 DIV PUSH1 0xFF AND PUSH1 0x3 DUP2 GT ISZERO PUSH2 0x194B JUMPI PUSH2 0x194A PUSH2 0x1DD7 JUMP JUMPDEST JUMPDEST EQ PUSH2 0x198B JUMPI PUSH1 0x40 MLOAD PUSH32 0x8C379A000000000000000000000000000000000000000000000000000000000 DUP2 MSTORE PUSH1 0x4 ADD PUSH2 0x1982 SWAP1 PUSH2 0x2E6D JUMP JUMPDEST PUSH1 0x40 MLOAD DUP1 SWAP2 SUB SWAP1 REVERT JUMPDEST CALLER PUSH20 0xFFFFFFFFFFFFFFFFFFFFFFFFFFFFFFFFFFFFFFFF AND DUP2 PUSH1 0x3 ADD PUSH0 SWAP1 SLOAD SWAP1 PUSH2 0x100 EXP SWAP1 DIV PUSH20 0xFFFFFFFFFFFFFFFFFFFFFFFFFFFFFFFFFFFFFFFF AND PUSH20 0xFFFFFFFFFFFFFFFFFFFFFFFFFFFFFFFFFFFFFFFF AND EQ PUSH2 0x1A1C JUMPI PUSH1 0x40 MLOAD PUSH32 0x8C379A000000000000000000000000000000000000000000000000000000000 DUP2 MSTORE PUSH1 0x4 ADD PUSH2 0x1A13 SWAP1 PUSH2 0x2ED5 JUMP JUMPDEST PUSH1 0x40 MLOAD DUP1 SWAP2 SUB SWAP1 REVERT JUMPDEST PUSH0 DUP2 PUSH1 0x1 ADD SLOAD SWAP1 POP PUSH0 PUSH1 0x4 PUSH0 CALLER PUSH20 0xFFFFFFFFFFFFFFFFFFFFFFFFFFFFFFFFFFFFFFFF AND PUSH20 0xFFFFFFFFFFFFFFFFFFFFFFFFFFFFFFFFFFFFFFFF AND DUP2 MSTORE PUSH1 0x20 ADD SWAP1 DUP2 MSTORE PUSH1 0x20 ADD PUSH0 KECCAK256 SLOAD SUB PUSH2 0x1AA3 JUMPI PUSH1 0x40 MLOAD PUSH32 0x8C379A000000000000000000000000000000000000000000000000000000000 DUP2 MSTORE PUSH1 0x4 ADD PUSH2 0x1A9A SWAP1 PUSH2 0x2F3D JUMP JUMPDEST PUSH1 0x40 MLOAD DUP1 SWAP2 SUB SWAP1 REVERT JUMPDEST DUP1 PUSH1 0x4 PUSH0 CALLER PUSH20 0xFFFFFFFFFFFFFFFFFFFFFFFFFFFFFFFFFFFFFFFF AND PUSH20 0xFFFFFFFFFFFFFFFFFFFFFFFFFFFFFFFFFFFFFFFF AND DUP2 MSTORE PUSH1 0x20 ADD SWAP1 DUP2 MSTORE PUSH1 0x20 ADD PUSH0 KECCAK256 SLOAD PUSH2 0x1AEC SWAP2 SWAP1 PUSH2 0x2F5B JUMP JUMPDEST PUSH1 0x4 PUSH0 CALLER PUSH20 0xFFFFFFFFFFFFFFFFFFFFFFFFFFFFFFFFFFFFFFFF AND PUSH20 0xFFFFFFFFFFFFFFFFFFFFFFFFFFFFFFFFFFFFFFFF AND DUP2 MSTORE PUSH1 0x20 ADD SWAP1 DUP2 MSTORE PUSH1 0x20 ADD PUSH0 KECCAK256 DUP2 SWAP1 SSTORE POP PUSH0 CALLER PUSH20 0xFFFFFFFFFFFFFFFFFFFFFFFFFFFFFFFFFFFFFFFF AND DUP3 PUSH1 0x40 MLOAD PUSH2 0x1B52 SWAP1 PUSH2 0x2FBB JUMP JUMPDEST PUSH0 PUSH1 0x40 MLOAD DUP1 DUP4 SUB DUP2 DUP6 DUP8 GAS CALL SWAP3 POP POP POP RETURNDATASIZE DUP1 PUSH0 DUP2 EQ PUSH2 0x1B8C JUMPI PUSH1 0x40 MLOAD SWAP2 POP PUSH1 0x1F NOT PUSH1 0x3F RETURNDATASIZE ADD AND DUP3 ADD PUSH1 0x40 MSTORE RETURNDATASIZE DUP3 MSTORE RETURNDATASIZE PUSH0 PUSH1 0x20 DUP5 ADD RETURNDATACOPY PUSH2 0x1B91 JUMP JUMPDEST PUSH1 0x60 SWAP2 POP JUMPDEST POP POP SWAP1 POP DUP1 PUSH2 0x1BD5 JUMPI PUSH1 0x40 MLOAD PUSH32 0x8C379A000000000000000000000000000000000000000000000000000000000 DUP2 MSTORE PUSH1 0x4 ADD PUSH2 0x1BCC SWAP1 PUSH2 0x3019 JUMP JUMPDEST PUSH1 0x40 MLOAD DUP1 SWAP2 SUB SWAP1 REVERT JUMPDEST CALLER PUSH20 0xFFFFFFFFFFFFFFFFFFFFFFFFFFFFFFFFFFFFFFFF AND DUP5 PUSH32 0xF440AEC6B52895984D061D622E6EDEBA6210F7C3E059BE920663140C084560D7 DUP5 PUSH1 0x40 MLOAD PUSH2 0x1C1C SWAP2 SWAP1 PUSH2 0x1D2E JUMP JUMPDEST PUSH1 0x40 MLOAD DUP1 SWAP2 SUB SWAP1 LOG3 POP POP POP PUSH2 0x1C2F PUSH2 0x1CA7 JUMP JUMPDEST POP JUMP JUMPDEST PUSH1 0x1 PUSH1 0x14 SWAP1 SLOAD SWAP1 PUSH2 0x100 EXP SWAP1 DIV PUSH1 0xFF AND DUP2 JUMP JUMPDEST PUSH1 0x4 PUSH1 0x20 MSTORE DUP1 PUSH0 MSTORE PUSH1 0x40 PUSH0 KECCAK256 PUSH0 SWAP2 POP SWAP1 POP SLOAD DUP2 JUMP JUMPDEST PUSH1 0x2 PUSH0 SLOAD SUB PUSH2 0x1C9E JUMPI PUSH1 0x40 MLOAD PUSH32 0x8C379A000000000000000000000000000000000000000000000000000000000 DUP2 MSTORE PUSH1 0x4 ADD PUSH2 0x1C95 SWAP1 PUSH2 0x3081 JUMP JUMPDEST PUSH1 0x40 MLOAD DUP1 SWAP2 SUB SWAP1 REVERT JUMPDEST PUSH1 0x2 PUSH0 DUP2 SWAP1 SSTORE POP JUMP JUMPDEST PUSH1 0x1 PUSH0 DUP2 SWAP1 SSTORE POP JUMP JUMPDEST PUSH0 PUSH1 0x40 MLOAD SWAP1 POP SWAP1 JUMP JUMPDEST PUSH0 PUSH0 REVERT JUMPDEST PUSH0 PUSH0 REVERT JUMPDEST PUSH0 DUP2 SWAP1 POP SWAP2 SWAP1 POP JUMP JUMPDEST PUSH2 0x1CD3 DUP2 PUSH2 0x1CC1 JUMP JUMPDEST DUP2 EQ PUSH2 0x1CDD JUMPI PUSH0 PUSH0 REVERT JUMPDEST POP JUMP JUMPDEST PUSH0 DUP2 CALLDATALOAD SWAP1 POP PUSH2 0x1CEE DUP2 PUSH2 0x1CCA JUMP JUMPDEST SWAP3 SWAP2 POP POP JUMP JUMPDEST PUSH0 PUSH1 0x20 DUP3 DUP5 SUB SLT ISZERO PUSH2 0x1D09 JUMPI PUSH2 0x1D08 PUSH2 0x1CB9 JUMP JUMPDEST JUMPDEST PUSH0 PUSH2 0x1D16 DUP5 DUP3 DUP6 ADD PUSH2 0x1CE0 JUMP JUMPDEST SWAP2 POP POP SWAP3 SWAP2 POP POP JUMP JUMPDEST PUSH2 0x1D28 DUP2 PUSH2 0x1CC1 JUMP JUMPDEST DUP3 MSTORE POP POP JUMP JUMPDEST PUSH0 PUSH1 0x20 DUP3 ADD SWAP1 POP PUSH2 0x1D41 PUSH0 DUP4 ADD DUP5 PUSH2 0x1D1F JUMP JUMPDEST SWAP3 SWAP2 POP POP JUMP JUMPDEST PUSH0 DUP2 MLOAD SWAP1 POP SWAP2 SWAP1 POP JUMP JUMPDEST PUSH0 DUP3 DUP3 MSTORE PUSH1 0x20 DUP3 ADD SWAP1 POP SWAP3 SWAP2 POP POP JUMP JUMPDEST DUP3 DUP2 DUP4 MCOPY PUSH0 DUP4 DUP4 ADD MSTORE POP POP POP JUMP JUMPDEST PUSH0 PUSH1 0x1F NOT PUSH1 0x1F DUP4 ADD AND SWAP1 POP SWAP2 SWAP1 POP JUMP JUMPDEST PUSH0 PUSH2 0x1D89 DUP3 PUSH2 0x1D47 JUMP JUMPDEST PUSH2 0x1D93 DUP2 DUP6 PUSH2 0x1D51 JUMP JUMPDEST SWAP4 POP PUSH2 0x1DA3 DUP2 DUP6 PUSH1 0x20 DUP7 ADD PUSH2 0x1D61 JUMP JUMPDEST PUSH2 0x1DAC DUP2 PUSH2 0x1D6F JUMP JUMPDEST DUP5 ADD SWAP2 POP POP SWAP3 SWAP2 POP POP JUMP JUMPDEST PUSH0 PUSH1 0x20 DUP3 ADD SWAP1 POP DUP2 DUP2 SUB PUSH0 DUP4 ADD MSTORE PUSH2 0x1DCF DUP2 DUP5 PUSH2 0x1D7F JUMP JUMPDEST SWAP1 POP SWAP3 SWAP2 POP POP JUMP JUMPDEST PUSH32 0x4E487B7100000000000000000000000000000000000000000000000000000000 PUSH0 MSTORE PUSH1 0x21 PUSH1 0x4 MSTORE PUSH1 0x24 PUSH0 REVERT JUMPDEST PUSH1 0x4 DUP2 LT PUSH2 0x1E15 JUMPI PUSH2 0x1E14 PUSH2 0x1DD7 JUMP JUMPDEST JUMPDEST POP JUMP JUMPDEST PUSH0 DUP2 SWAP1 POP PUSH2 0x1E25 DUP3 PUSH2 0x1E04 JUMP JUMPDEST SWAP2 SWAP1 POP JUMP JUMPDEST PUSH0 PUSH2 0x1E34 DUP3 PUSH2 0x1E18 JUMP JUMPDEST SWAP1 POP SWAP2 SWAP1 POP JUMP JUMPDEST PUSH2 0x1E44 DUP2 PUSH2 0x1E2A JUMP JUMPDEST DUP3 MSTORE POP POP JUMP JUMPDEST PUSH0 PUSH1 0x20 DUP3 ADD SWAP1 POP PUSH2 0x1E5D PUSH0 DUP4 ADD DUP5 PUSH2 0x1E3B JUMP JUMPDEST SWAP3 SWAP2 POP POP JUMP JUMPDEST PUSH0 PUSH20 0xFFFFFFFFFFFFFFFFFFFFFFFFFFFFFFFFFFFFFFFF DUP3 AND SWAP1 POP SWAP2 SWAP1 POP JUMP JUMPDEST PUSH0 PUSH2 0x1E8C DUP3 PUSH2 0x1E63 JUMP JUMPDEST SWAP1 POP SWAP2 SWAP1 POP JUMP JUMPDEST PUSH2 0x1E9C DUP2 PUSH2 0x1E82 JUMP JUMPDEST DUP3 MSTORE POP POP JUMP JUMPDEST PUSH0 DUP2 SWAP1 POP SWAP2 SWAP1 POP JUMP JUMPDEST PUSH2 0x1EB4 DUP2 PUSH2 0x1EA2 JUMP JUMPDEST DUP3 MSTORE POP POP JUMP JUMPDEST PUSH0 DUP2 ISZERO ISZERO SWAP1 POP SWAP2 SWAP1 POP JUMP JUMPDEST PUSH2 0x1ECE DUP2 PUSH2 0x1EBA JUMP JUMPDEST DUP3 MSTORE POP POP JUMP JUMPDEST PUSH0 PUSH2 0x140 DUP3 ADD SWAP1 POP PUSH2 0x1EE8 PUSH0 DUP4 ADD DUP14 PUSH2 0x1D1F JUMP JUMPDEST PUSH2 0x1EF5 PUSH1 0x20 DUP4 ADD DUP13 PUSH2 0x1D1F JUMP JUMPDEST PUSH2 0x1F02 PUSH1 0x40 DUP4 ADD DUP12 PUSH2 0x1E93 JUMP JUMPDEST PUSH2 0x1F0F PUSH1 0x60 DUP4 ADD DUP11 PUSH2 0x1E93 JUMP JUMPDEST PUSH2 0x1F1C PUSH1 0x80 DUP4 ADD DUP10 PUSH2 0x1E3B JUMP JUMPDEST DUP2 DUP2 SUB PUSH1 0xA0 DUP4 ADD MSTORE PUSH2 0x1F2E DUP2 DUP9 PUSH2 0x1D7F JUMP JUMPDEST SWAP1 POP PUSH2 0x1F3D PUSH1 0xC0 DUP4 ADD DUP8 PUSH2 0x1EAB JUMP JUMPDEST PUSH2 0x1F4A PUSH1 0xE0 DUP4 ADD DUP7 PUSH2 0x1EC5 JUMP JUMPDEST PUSH2 0x1F58 PUSH2 0x100 DUP4 ADD DUP6 PUSH2 0x1EC5 JUMP JUMPDEST PUSH2 0x1F66 PUSH2 0x120 DUP4 ADD DUP5 PUSH2 0x1EC5 JUMP JUMPDEST SWAP12 SWAP11 POP POP POP POP POP POP POP POP POP POP POP JUMP JUMPDEST PUSH0 PUSH0 REVERT JUMPDEST PUSH0 PUSH0 REVERT JUMPDEST PUSH32 0x4E487B7100000000000000000000000000000000000000000000000000000000 PUSH0 MSTORE PUSH1 0x41 PUSH1 0x4 MSTORE PUSH1 0x24 PUSH0 REVERT JUMPDEST PUSH2 0x1FB3 DUP3 PUSH2 0x1D6F JUMP JUMPDEST DUP2 ADD DUP2 DUP2 LT PUSH8 0xFFFFFFFFFFFFFFFF DUP3 GT OR ISZERO PUSH2 0x1FD2 JUMPI PUSH2 0x1FD1 PUSH2 0x1F7D JUMP JUMPDEST JUMPDEST DUP1 PUSH1 0x40 MSTORE POP POP POP JUMP JUMPDEST PUSH0 PUSH2 0x1FE4 PUSH2 0x1CB0 JUMP JUMPDEST SWAP1 POP PUSH2 0x1FF0 DUP3 DUP3 PUSH2 0x1FAA JUMP JUMPDEST SWAP2 SWAP1 POP JUMP JUMPDEST PUSH0 PUSH8 0xFFFFFFFFFFFFFFFF DUP3 GT ISZERO PUSH2 0x200F JUMPI PUSH2 0x200E PUSH2 0x1F7D JUMP JUMPDEST JUMPDEST PUSH2 0x2018 DUP3 PUSH2 0x1D6F JUMP JUMPDEST SWAP1 POP PUSH1 0x20 DUP2 ADD SWAP1 POP SWAP2 SWAP1 POP JUMP JUMPDEST DUP3 DUP2 DUP4 CALLDATACOPY PUSH0 DUP4 DUP4 ADD MSTORE POP POP POP JUMP JUMPDEST PUSH0 PUSH2 0x2045 PUSH2 0x2040 DUP5 PUSH2 0x1FF5 JUMP JUMPDEST PUSH2 0x1FDB JUMP JUMPDEST SWAP1 POP DUP3 DUP2 MSTORE PUSH1 0x20 DUP2 ADD DUP5 DUP5 DUP5 ADD GT ISZERO PUSH2 0x2061 JUMPI PUSH2 0x2060 PUSH2 0x1F79 JUMP JUMPDEST JUMPDEST PUSH2 0x206C DUP5 DUP3 DUP6 PUSH2 0x2025 JUMP JUMPDEST POP SWAP4 SWAP3 POP POP POP JUMP JUMPDEST PUSH0 DUP3 PUSH1 0x1F DUP4 ADD SLT PUSH2 0x2088 JUMPI PUSH2 0x2087 PUSH2 0x1F75 JUMP JUMPDEST JUMPDEST DUP2 CALLDATALOAD PUSH2 0x2098 DUP5 DUP3 PUSH1 0x20 DUP7 ADD PUSH2 0x2033 JUMP JUMPDEST SWAP2 POP POP SWAP3 SWAP2 POP POP JUMP JUMPDEST PUSH0 PUSH0 PUSH1 0x40 DUP4 DUP6 SUB SLT ISZERO PUSH2 0x20B7 JUMPI PUSH2 0x20B6 PUSH2 0x1CB9 JUMP JUMPDEST JUMPDEST PUSH0 PUSH2 0x20C4 DUP6 DUP3 DUP7 ADD PUSH2 0x1CE0 JUMP JUMPDEST SWAP3 POP POP PUSH1 0x20 DUP4 ADD CALLDATALOAD PUSH8 0xFFFFFFFFFFFFFFFF DUP2 GT ISZERO PUSH2 0x20E5 JUMPI PUSH2 0x20E4 PUSH2 0x1CBD JUMP JUMPDEST JUMPDEST PUSH2 0x20F1 DUP6 DUP3 DUP7 ADD PUSH2 0x2074 JUMP JUMPDEST SWAP2 POP POP SWAP3 POP SWAP3 SWAP1 POP JUMP JUMPDEST PUSH0 PUSH2 0x2105 DUP3 PUSH2 0x1E63 JUMP JUMPDEST SWAP1 POP SWAP2 SWAP1 POP JUMP JUMPDEST PUSH2 0x2115 DUP2 PUSH2 0x20FB JUMP JUMPDEST DUP2 EQ PUSH2 0x211F JUMPI PUSH0 PUSH0 REVERT JUMPDEST POP JUMP JUMPDEST PUSH0 DUP2 CALLDATALOAD SWAP1 POP PUSH2 0x2130 DUP2 PUSH2 0x210C JUMP JUMPDEST SWAP3 SWAP2 POP POP JUMP JUMPDEST PUSH0 PUSH1 0x20 DUP3 DUP5 SUB SLT ISZERO PUSH2 0x214B JUMPI PUSH2 0x214A PUSH2 0x1CB9 JUMP JUMPDEST JUMPDEST PUSH0 PUSH2 0x2158 DUP5 DUP3 DUP6 ADD PUSH2 0x2122 JUMP JUMPDEST SWAP2 POP POP SWAP3 SWAP2 POP POP JUMP JUMPDEST PUSH2 0x216A DUP2 PUSH2 0x20FB JUMP JUMPDEST DUP3 MSTORE POP POP JUMP JUMPDEST PUSH0 PUSH1 0x20 DUP3 ADD SWAP1 POP PUSH2 0x2183 PUSH0 DUP4 ADD DUP5 PUSH2 0x2161 JUMP JUMPDEST SWAP3 SWAP2 POP POP JUMP JUMPDEST PUSH2 0x2192 DUP2 PUSH2 0x1E82 JUMP JUMPDEST DUP2 EQ PUSH2 0x219C JUMPI PUSH0 PUSH0 REVERT JUMPDEST POP JUMP JUMPDEST PUSH0 DUP2 CALLDATALOAD SWAP1 POP PUSH2 0x21AD DUP2 PUSH2 0x2189 JUMP JUMPDEST SWAP3 SWAP2 POP POP JUMP JUMPDEST PUSH0 PUSH0 PUSH0 PUSH1 0x60 DUP5 DUP7 SUB SLT ISZERO PUSH2 0x21CA JUMPI PUSH2 0x21C9 PUSH2 0x1CB9 JUMP JUMPDEST JUMPDEST PUSH0 PUSH2 0x21D7 DUP7 DUP3 DUP8 ADD PUSH2 0x219F JUMP JUMPDEST SWAP4 POP POP PUSH1 0x20 DUP5 ADD CALLDATALOAD PUSH8 0xFFFFFFFFFFFFFFFF DUP2 GT ISZERO PUSH2 0x21F8 JUMPI PUSH2 0x21F7 PUSH2 0x1CBD JUMP JUMPDEST JUMPDEST PUSH2 0x2204 DUP7 DUP3 DUP8 ADD PUSH2 0x2074 JUMP JUMPDEST SWAP3 POP POP PUSH1 0x40 PUSH2 0x2215 DUP7 DUP3 DUP8 ADD PUSH2 0x1CE0 JUMP JUMPDEST SWAP2 POP POP SWAP3 POP SWAP3 POP SWAP3 JUMP JUMPDEST PUSH0 PUSH1 0x20 DUP3 ADD SWAP1 POP PUSH2 0x2232 PUSH0 DUP4 ADD DUP5 PUSH2 0x1EC5 JUMP JUMPDEST SWAP3 SWAP2 POP POP JUMP JUMPDEST PUSH32 0x4E6F742063726561746F72000000000000000000000000000000000000000000 PUSH0 DUP3 ADD MSTORE POP JUMP JUMPDEST PUSH0 PUSH2 0x226C PUSH1 0xB DUP4 PUSH2 0x1D51 JUMP JUMPDEST SWAP2 POP PUSH2 0x2277 DUP3 PUSH2 0x2238 JUMP JUMPDEST PUSH1 0x20 DUP3 ADD SWAP1 POP SWAP2 SWAP1 POP JUMP JUMPDEST PUSH0 PUSH1 0x20 DUP3 ADD SWAP1 POP DUP2 DUP2 SUB PUSH0 DUP4 ADD MSTORE PUSH2 0x2299 DUP2 PUSH2 0x2260 JUMP JUMPDEST SWAP1 POP SWAP2 SWAP1 POP JUMP JUMPDEST PUSH32 0x4E6F2064656C6976657279000000000000000000000000000000000000000000 PUSH0 DUP3 ADD MSTORE POP JUMP JUMPDEST PUSH0 PUSH2 0x22D4 PUSH1 0xB DUP4 PUSH2 0x1D51 JUMP JUMPDEST SWAP2 POP PUSH2 0x22DF DUP3 PUSH2 0x22A0 JUMP JUMPDEST PUSH1 0x20 DUP3 ADD SWAP1 POP SWAP2 SWAP1 POP JUMP JUMPDEST PUSH0 PUSH1 0x20 DUP3 ADD SWAP1 POP DUP2 DUP2 SUB PUSH0 DUP4 ADD MSTORE PUSH2 0x2301 DUP2 PUSH2 0x22C8 JUMP JUMPDEST SWAP1 POP SWAP2 SWAP1 POP JUMP JUMPDEST PUSH32 0x4E6F74205369676E656400000000000000000000000000000000000000000000 PUSH0 DUP3 ADD MSTORE POP JUMP JUMPDEST PUSH0 PUSH2 0x233C PUSH1 0xA DUP4 PUSH2 0x1D51 JUMP JUMPDEST SWAP2 POP PUSH2 0x2347 DUP3 PUSH2 0x2308 JUMP JUMPDEST PUSH1 0x20 DUP3 ADD SWAP1 POP SWAP2 SWAP1 POP JUMP JUMPDEST PUSH0 PUSH1 0x20 DUP3 ADD SWAP1 POP DUP2 DUP2 SUB PUSH0 DUP4 ADD MSTORE PUSH2 0x2369 DUP2 PUSH2 0x2330 JUMP JUMPDEST SWAP1 POP SWAP2 SWAP1 POP JUMP JUMPDEST PUSH32 0x44656C6976657279206D697373696E6700000000000000000000000000000000 PUSH0 DUP3 ADD MSTORE POP JUMP JUMPDEST PUSH0 PUSH2 0x23A4 PUSH1 0x10 DUP4 PUSH2 0x1D51 JUMP JUMPDEST SWAP2 POP PUSH2 0x23AF DUP3 PUSH2 0x2370 JUMP JUMPDEST PUSH1 0x20 DUP3 ADD SWAP1 POP SWAP2 SWAP1 POP JUMP JUMPDEST PUSH0 PUSH1 0x20 DUP3 ADD SWAP1 POP DUP2 DUP2 SUB PUSH0 DUP4 ADD MSTORE PUSH2 0x23D1 DUP2 PUSH2 0x2398 JUMP JUMPDEST SWAP1 POP SWAP2 SWAP1 POP JUMP JUMPDEST PUSH32 0x416C726561647920617070726F76656400000000000000000000000000000000 PUSH0 DUP3 ADD MSTORE POP JUMP JUMPDEST PUSH0 PUSH2 0x240C PUSH1 0x10 DUP4 PUSH2 0x1D51 JUMP JUMPDEST SWAP2 POP PUSH2 0x2417 DUP3 PUSH2 0x23D8 JUMP JUMPDEST PUSH1 0x20 DUP3 ADD SWAP1 POP SWAP2 SWAP1 POP JUMP JUMPDEST PUSH0 PUSH1 0x20 DUP3 ADD SWAP1 POP DUP2 DUP2 SUB PUSH0 DUP4 ADD MSTORE PUSH2 0x2439 DUP2 PUSH2 0x2400 JUMP JUMPDEST SWAP1 POP SWAP2 SWAP1 POP JUMP JUMPDEST PUSH32 0x4E487B7100000000000000000000000000000000000000000000000000000000 PUSH0 MSTORE PUSH1 0x11 PUSH1 0x4 MSTORE PUSH1 0x24 PUSH0 REVERT JUMPDEST PUSH0 PUSH2 0x2477 DUP3 PUSH2 0x1CC1 JUMP JUMPDEST SWAP2 POP PUSH2 0x2482 DUP4 PUSH2 0x1CC1 JUMP JUMPDEST SWAP3 POP DUP3 DUP3 ADD SWAP1 POP DUP1 DUP3 GT ISZERO PUSH2 0x249A JUMPI PUSH2 0x2499 PUSH2 0x2440 JUMP JUMPDEST JUMPDEST SWAP3 SWAP2 POP POP JUMP JUMPDEST PUSH32 0x4E487B7100000000000000000000000000000000000000000000000000000000 PUSH0 MSTORE PUSH1 0x22 PUSH1 0x4 MSTORE PUSH1 0x24 PUSH0 REVERT JUMPDEST PUSH0 PUSH1 0x2 DUP3 DIV SWAP1 POP PUSH1 0x1 DUP3 AND DUP1 PUSH2 0x24E4 JUMPI PUSH1 0x7F DUP3 AND SWAP2 POP JUMPDEST PUSH1 0x20 DUP3 LT DUP2 SUB PUSH2 0x24F7 JUMPI PUSH2 0x24F6 PUSH2 0x24A0 JUMP JUMPDEST JUMPDEST POP SWAP2 SWAP1 POP JUMP JUMPDEST PUSH32 0x416C726561647920636F6D706C65746564000000000000000000000000000000 PUSH0 DUP3 ADD MSTORE POP JUMP JUMPDEST PUSH0 PUSH2 0x2531 PUSH1 0x11 DUP4 PUSH2 0x1D51 JUMP JUMPDEST SWAP2 POP PUSH2 0x253C DUP3 PUSH2 0x24FD JUMP JUMPDEST PUSH1 0x20 DUP3 ADD SWAP1 POP SWAP2 SWAP1 POP JUMP JUMPDEST PUSH0 PUSH1 0x20 DUP3 ADD SWAP1 POP DUP2 DUP2 SUB PUSH0 DUP4 ADD MSTORE PUSH2 0x255E DUP2 PUSH2 0x2525 JUMP JUMPDEST SWAP1 POP SWAP2 SWAP1 POP JUMP JUMPDEST PUSH32 0x416C72656164792063616E63656C6C6564000000000000000000000000000000 PUSH0 DUP3 ADD MSTORE POP JUMP JUMPDEST PUSH0 PUSH2 0x2599 PUSH1 0x11 DUP4 PUSH2 0x1D51 JUMP JUMPDEST SWAP2 POP PUSH2 0x25A4 DUP3 PUSH2 0x2565 JUMP JUMPDEST PUSH1 0x20 DUP3 ADD SWAP1 POP SWAP2 SWAP1 POP JUMP JUMPDEST PUSH0 PUSH1 0x20 DUP3 ADD SWAP1 POP DUP2 DUP2 SUB PUSH0 DUP4 ADD MSTORE PUSH2 0x25C6 DUP2 PUSH2 0x258D JUMP JUMPDEST SWAP1 POP SWAP2 SWAP1 POP JUMP JUMPDEST PUSH0 DUP2 SWAP1 POP DUP2 PUSH0 MSTORE PUSH1 0x20 PUSH0 KECCAK256 SWAP1 POP SWAP2 SWAP1 POP JUMP JUMPDEST PUSH0 PUSH1 0x20 PUSH1 0x1F DUP4 ADD DIV SWAP1 POP SWAP2 SWAP1 POP JUMP JUMPDEST PUSH0 DUP3 DUP3 SHL SWAP1 POP SWAP3 SWAP2 POP POP JUMP JUMPDEST PUSH0 PUSH1 0x8 DUP4 MUL PUSH2 0x2629 PUSH32 0xFFFFFFFFFFFFFFFFFFFFFFFFFFFFFFFFFFFFFFFFFFFFFFFFFFFFFFFFFFFFFFFF DUP3 PUSH2 0x25EE JUMP JUMPDEST PUSH2 0x2633 DUP7 DUP4 PUSH2 0x25EE JUMP JUMPDEST SWAP6 POP DUP1 NOT DUP5 AND SWAP4 POP DUP1 DUP7 AND DUP5 OR SWAP3 POP POP POP SWAP4 SWAP3 POP POP POP JUMP JUMPDEST PUSH0 DUP2 SWAP1 POP SWAP2 SWAP1 POP JUMP JUMPDEST PUSH0 PUSH2 0x266E PUSH2 0x2669 PUSH2 0x2664 DUP5 PUSH2 0x1CC1 JUMP JUMPDEST PUSH2 0x264B JUMP JUMPDEST PUSH2 0x1CC1 JUMP JUMPDEST SWAP1 POP SWAP2 SWAP1 POP JUMP JUMPDEST PUSH0 DUP2 SWAP1 POP SWAP2 SWAP1 POP JUMP JUMPDEST PUSH2 0x2687 DUP4 PUSH2 0x2654 JUMP JUMPDEST PUSH2 0x269B PUSH2 0x2693 DUP3 PUSH2 0x2675 JUMP JUMPDEST DUP5 DUP5 SLOAD PUSH2 0x25FA JUMP JUMPDEST DUP3 SSTORE POP POP POP POP JUMP JUMPDEST PUSH0 PUSH0 SWAP1 POP SWAP1 JUMP JUMPDEST PUSH2 0x26B2 PUSH2 0x26A3 JUMP JUMPDEST PUSH2 0x26BD DUP2 DUP5 DUP5 PUSH2 0x267E JUMP JUMPDEST POP POP POP JUMP JUMPDEST JUMPDEST DUP2 DUP2 LT ISZERO PUSH2 0x26E0 JUMPI PUSH2 0x26D5 PUSH0 DUP3 PUSH2 0x26AA JUMP JUMPDEST PUSH1 0x1 DUP2 ADD SWAP1 POP PUSH2 0x26C3 JUMP JUMPDEST POP POP JUMP JUMPDEST PUSH1 0x1F DUP3 GT ISZERO PUSH2 0x2725 JUMPI PUSH2 0x26F6 DUP2 PUSH2 0x25CD JUMP JUMPDEST PUSH2 0x26FF DUP5 PUSH2 0x25DF JUMP JUMPDEST DUP2 ADD PUSH1 0x20 DUP6 LT ISZERO PUSH2 0x270E JUMPI DUP2 SWAP1 POP JUMPDEST PUSH2 0x2722 PUSH2 0x271A DUP6 PUSH2 0x25DF JUMP JUMPDEST DUP4 ADD DUP3 PUSH2 0x26C2 JUMP JUMPDEST POP POP JUMPDEST POP POP POP JUMP JUMPDEST PUSH0 DUP3 DUP3 SHR SWAP1 POP SWAP3 SWAP2 POP POP JUMP JUMPDEST PUSH0 PUSH2 0x2745 PUSH0 NOT DUP5 PUSH1 0x8 MUL PUSH2 0x272A JUMP JUMPDEST NOT DUP1 DUP4 AND SWAP2 POP POP SWAP3 SWAP2 POP POP JUMP JUMPDEST PUSH0 PUSH2 0x275D DUP4 DUP4 PUSH2 0x2736 JUMP JUMPDEST SWAP2 POP DUP3 PUSH1 0x2 MUL DUP3 OR SWAP1 POP SWAP3 SWAP2 POP POP JUMP JUMPDEST PUSH2 0x2776 DUP3 PUSH2 0x1D47 JUMP JUMPDEST PUSH8 0xFFFFFFFFFFFFFFFF DUP2 GT ISZERO PUSH2 0x278F JUMPI PUSH2 0x278E PUSH2 0x1F7D JUMP JUMPDEST JUMPDEST PUSH2 0x2799 DUP3 SLOAD PUSH2 0x24CD JUMP JUMPDEST PUSH2 0x27A4 DUP3 DUP3 DUP6 PUSH2 0x26E4 JUMP JUMPDEST PUSH0 PUSH1 0x20 SWAP1 POP PUSH1 0x1F DUP4 GT PUSH1 0x1 DUP2 EQ PUSH2 0x27D5 JUMPI PUSH0 DUP5 ISZERO PUSH2 0x27C3 JUMPI DUP3 DUP8 ADD MLOAD SWAP1 POP JUMPDEST PUSH2 0x27CD DUP6 DUP3 PUSH2 0x2752 JUMP JUMPDEST DUP7 SSTORE POP PUSH2 0x2834 JUMP JUMPDEST PUSH1 0x1F NOT DUP5 AND PUSH2 0x27E3 DUP7 PUSH2 0x25CD JUMP JUMPDEST PUSH0 JUMPDEST DUP3 DUP2 LT ISZERO PUSH2 0x280A JUMPI DUP5 DUP10 ADD MLOAD DUP3 SSTORE PUSH1 0x1 DUP3 ADD SWAP2 POP PUSH1 0x20 DUP6 ADD SWAP5 POP PUSH1 0x20 DUP2 ADD SWAP1 POP PUSH2 0x27E5 JUMP JUMPDEST DUP7 DUP4 LT ISZERO PUSH2 0x2827 JUMPI DUP5 DUP10 ADD MLOAD PUSH2 0x2823 PUSH1 0x1F DUP10 AND DUP3 PUSH2 0x2736 JUMP JUMPDEST DUP4 SSTORE POP JUMPDEST PUSH1 0x1 PUSH1 0x2 DUP9 MUL ADD DUP9 SSTORE POP POP POP JUMPDEST POP POP POP POP POP POP JUMP JUMPDEST PUSH32 0x4E6F7420636F756E746572706172747900000000000000000000000000000000 PUSH0 DUP3 ADD MSTORE POP JUMP JUMPDEST PUSH0 PUSH2 0x2870 PUSH1 0x10 DUP4 PUSH2 0x1D51 JUMP JUMPDEST SWAP2 POP PUSH2 0x287B DUP3 PUSH2 0x283C JUMP JUMPDEST PUSH1 0x20 DUP3 ADD SWAP1 POP SWAP2 SWAP1 POP JUMP JUMPDEST PUSH0 PUSH1 0x20 DUP3 ADD SWAP1 POP DUP2 DUP2 SUB PUSH0 DUP4 ADD MSTORE PUSH2 0x289D DUP2 PUSH2 0x2864 JUMP JUMPDEST SWAP1 POP SWAP2 SWAP1 POP JUMP JUMPDEST PUSH32 0x416C726561647920736574000000000000000000000000000000000000000000 PUSH0 DUP3 ADD MSTORE POP JUMP JUMPDEST PUSH0 PUSH2 0x28D8 PUSH1 0xB DUP4 PUSH2 0x1D51 JUMP JUMPDEST SWAP2 POP PUSH2 0x28E3 DUP3 PUSH2 0x28A4 JUMP JUMPDEST PUSH1 0x20 DUP3 ADD SWAP1 POP SWAP2 SWAP1 POP JUMP JUMPDEST PUSH0 PUSH1 0x20 DUP3 ADD SWAP1 POP DUP2 DUP2 SUB PUSH0 DUP4 ADD MSTORE PUSH2 0x2905 DUP2 PUSH2 0x28CC JUMP JUMPDEST SWAP1 POP SWAP2 SWAP1 POP JUMP JUMPDEST PUSH0 PUSH1 0x40 DUP3 ADD SWAP1 POP PUSH2 0x291F PUSH0 DUP4 ADD DUP6 PUSH2 0x1D1F JUMP JUMPDEST DUP2 DUP2 SUB PUSH1 0x20 DUP4 ADD MSTORE PUSH2 0x2931 DUP2 DUP5 PUSH2 0x1D7F JUMP JUMPDEST SWAP1 POP SWAP4 SWAP3 POP POP POP JUMP JUMPDEST PUSH0 PUSH1 0x20 DUP3 ADD SWAP1 POP PUSH2 0x294D PUSH0 DUP4 ADD DUP5 PUSH2 0x1EAB JUMP JUMPDEST SWAP3 SWAP2 POP POP JUMP JUMPDEST PUSH32 0x4F7261636C6520616C7265616479207365740000000000000000000000000000 PUSH0 DUP3 ADD MSTORE POP JUMP JUMPDEST PUSH0 PUSH2 0x2987 PUSH1 0x12 DUP4 PUSH2 0x1D51 JUMP JUMPDEST SWAP2 POP PUSH2 0x2992 DUP3 PUSH2 0x2953 JUMP JUMPDEST PUSH1 0x20 DUP3 ADD SWAP1 POP SWAP2 SWAP1 POP JUMP JUMPDEST PUSH0 PUSH1 0x20 DUP3 ADD SWAP1 POP DUP2 DUP2 SUB PUSH0 DUP4 ADD MSTORE PUSH2 0x29B4 DUP2 PUSH2 0x297B JUMP JUMPDEST SWAP1 POP SWAP2 SWAP1 POP JUMP JUMPDEST PUSH32 0x496E76616C6964206F7261636C65000000000000000000000000000000000000 PUSH0 DUP3 ADD MSTORE POP JUMP JUMPDEST PUSH0 PUSH2 0x29EF PUSH1 0xE DUP4 PUSH2 0x1D51 JUMP JUMPDEST SWAP2 POP PUSH2 0x29FA DUP3 PUSH2 0x29BB JUMP JUMPDEST PUSH1 0x20 DUP3 ADD SWAP1 POP SWAP2 SWAP1 POP JUMP JUMPDEST PUSH0 PUSH1 0x20 DUP3 ADD SWAP1 POP DUP2 DUP2 SUB PUSH0 DUP4 ADD MSTORE PUSH2 0x2A1C DUP2 PUSH2 0x29E3 JUMP JUMPDEST SWAP1 POP SWAP2 SWAP1 POP JUMP JUMPDEST PUSH32 0x5573652064656C697665727920666C6F77000000000000000000000000000000 PUSH0 DUP3 ADD MSTORE POP JUMP JUMPDEST PUSH0 PUSH2 0x2A57 PUSH1 0x11 DUP4 PUSH2 0x1D51 JUMP JUMPDEST SWAP2 POP PUSH2 0x2A62 DUP3 PUSH2 0x2A23 JUMP JUMPDEST PUSH1 0x20 DUP3 ADD SWAP1 POP SWAP2 SWAP1 POP JUMP JUMPDEST PUSH0 PUSH1 0x20 DUP3 ADD SWAP1 POP DUP2 DUP2 SUB PUSH0 DUP4 ADD MSTORE PUSH2 0x2A84 DUP2 PUSH2 0x2A4B JUMP JUMPDEST SWAP1 POP SWAP2 SWAP1 POP JUMP JUMPDEST PUSH32 0x4E6F742043726561746564000000000000000000000000000000000000000000 PUSH0 DUP3 ADD MSTORE POP JUMP JUMPDEST PUSH0 PUSH2 0x2ABF PUSH1 0xB DUP4 PUSH2 0x1D51 JUMP JUMPDEST SWAP2 POP PUSH2 0x2ACA DUP3 PUSH2 0x2A8B JUMP JUMPDEST PUSH1 0x20 DUP3 ADD SWAP1 POP SWAP2 SWAP1 POP JUMP JUMPDEST PUSH0 PUSH1 0x20 DUP3 ADD SWAP1 POP DUP2 DUP2 SUB PUSH0 DUP4 ADD MSTORE PUSH2 0x2AEC DUP2 PUSH2 0x2AB3 JUMP JUMPDEST SWAP1 POP SWAP2 SWAP1 POP JUMP JUMPDEST PUSH32 0x302061646472206E6F7420616C6C6F7765640000000000000000000000000000 PUSH0 DUP3 ADD MSTORE POP JUMP JUMPDEST PUSH0 PUSH2 0x2B27 PUSH1 0x12 DUP4 PUSH2 0x1D51 JUMP JUMPDEST SWAP2 POP PUSH2 0x2B32 DUP3 PUSH2 0x2AF3 JUMP JUMPDEST PUSH1 0x20 DUP3 ADD SWAP1 POP SWAP2 SWAP1 POP JUMP JUMPDEST PUSH0 PUSH1 0x20 DUP3 ADD SWAP1 POP DUP2 DUP2 SUB PUSH0 DUP4 ADD MSTORE PUSH2 0x2B54 DUP2 PUSH2 0x2B1B JUMP JUMPDEST SWAP1 POP SWAP2 SWAP1 POP JUMP JUMPDEST PUSH32 0x455448206D69736D617463680000000000000000000000000000000000000000 PUSH0 DUP3 ADD MSTORE POP JUMP JUMPDEST PUSH0 PUSH2 0x2B8F PUSH1 0xC DUP4 PUSH2 0x1D51 JUMP JUMPDEST SWAP2 POP PUSH2 0x2B9A DUP3 PUSH2 0x2B5B JUMP JUMPDEST PUSH1 0x20 DUP3 ADD SWAP1 POP SWAP2 SWAP1 POP JUMP JUMPDEST PUSH0 PUSH1 0x20 DUP3 ADD SWAP1 POP DUP2 DUP2 SUB PUSH0 DUP4 ADD MSTORE PUSH2 0x2BBC DUP2 PUSH2 0x2B83 JUMP JUMPDEST SWAP1 POP SWAP2 SWAP1 POP JUMP JUMPDEST PUSH32 0x496E76616C696420636F6E747261637420686173680000000000000000000000 PUSH0 DUP3 ADD MSTORE POP JUMP JUMPDEST PUSH0 PUSH2 0x2BF7 PUSH1 0x15 DUP4 PUSH2 0x1D51 JUMP JUMPDEST SWAP2 POP PUSH2 0x2C02 DUP3 PUSH2 0x2BC3 JUMP JUMPDEST PUSH1 0x20 DUP3 ADD SWAP1 POP SWAP2 SWAP1 POP JUMP JUMPDEST PUSH0 PUSH1 0x20 DUP3 ADD SWAP1 POP DUP2 DUP2 SUB PUSH0 DUP4 ADD MSTORE PUSH2 0x2C24 DUP2 PUSH2 0x2BEB JUMP JUMPDEST SWAP1 POP SWAP2 SWAP1 POP JUMP JUMPDEST PUSH0 PUSH2 0x2C35 DUP3 PUSH2 0x1CC1 JUMP JUMPDEST SWAP2 POP PUSH32 0xFFFFFFFFFFFFFFFFFFFFFFFFFFFFFFFFFFFFFFFFFFFFFFFFFFFFFFFFFFFFFFFF DUP3 SUB PUSH2 0x2C67 JUMPI PUSH2 0x2C66 PUSH2 0x2440 JUMP JUMPDEST JUMPDEST PUSH1 0x1 DUP3 ADD SWAP1 POP SWAP2 SWAP1 POP JUMP JUMPDEST PUSH0 PUSH2 0x2C8C PUSH2 0x2C87 PUSH2 0x2C82 DUP5 PUSH2 0x1E63 JUMP JUMPDEST PUSH2 0x264B JUMP JUMPDEST PUSH2 0x1E63 JUMP JUMPDEST SWAP1 POP SWAP2 SWAP1 POP JUMP JUMPDEST PUSH0 PUSH2 0x2C9D DUP3 PUSH2 0x2C72 JUMP JUMPDEST SWAP1 POP SWAP2 SWAP1 POP JUMP JUMPDEST PUSH0 PUSH2 0x2CAE DUP3 PUSH2 0x2C93 JUMP JUMPDEST SWAP1 POP SWAP2 SWAP1 POP JUMP JUMPDEST PUSH2 0x2CBE DUP2 PUSH2 0x2CA4 JUMP JUMPDEST DUP3 MSTORE POP POP JUMP JUMPDEST PUSH0 PUSH1 0x40 DUP3 ADD SWAP1 POP PUSH2 0x2CD7 PUSH0 DUP4 ADD DUP6 PUSH2 0x2161 JUMP JUMPDEST PUSH2 0x2CE4 PUSH1 0x20 DUP4 ADD DUP5 PUSH2 0x2CB5 JUMP JUMPDEST SWAP4 SWAP3 POP POP POP JUMP JUMPDEST PUSH32 0x4E6F74206F7261636C6500000000000000000000000000000000000000000000 PUSH0 DUP3 ADD MSTORE POP JUMP JUMPDEST PUSH0 PUSH2 0x2D1F PUSH1 0xA DUP4 PUSH2 0x1D51 JUMP JUMPDEST SWAP2 POP PUSH2 0x2D2A DUP3 PUSH2 0x2CEB JUMP JUMPDEST PUSH1 0x20 DUP3 ADD SWAP1 POP SWAP2 SWAP1 POP JUMP JUMPDEST PUSH0 PUSH1 0x20 DUP3 ADD SWAP1 POP DUP2 DUP2 SUB PUSH0 DUP4 ADD MSTORE PUSH2 0x2D4C DUP2 PUSH2 0x2D13 JUMP JUMPDEST SWAP1 POP SWAP2 SWAP1 POP JUMP JUMPDEST PUSH32 0x416C726561647920636F6E6669726D6564000000000000000000000000000000 PUSH0 DUP3 ADD MSTORE POP JUMP JUMPDEST PUSH0 PUSH2 0x2D87 PUSH1 0x11 DUP4 PUSH2 0x1D51 JUMP JUMPDEST SWAP2 POP PUSH2 0x2D92 DUP3 PUSH2 0x2D53 JUMP JUMPDEST PUSH1 0x20 DUP3 ADD SWAP1 POP SWAP2 SWAP1 POP JUMP JUMPDEST PUSH0 PUSH1 0x20 DUP3 ADD SWAP1 POP DUP2 DUP2 SUB PUSH0 DUP4 ADD MSTORE PUSH2 0x2DB4 DUP2 PUSH2 0x2D7B JUMP JUMPDEST SWAP1 POP SWAP2 SWAP1 POP JUMP JUMPDEST PUSH32 0x48617368206D69736D6174636800000000000000000000000000000000000000 PUSH0 DUP3 ADD MSTORE POP JUMP JUMPDEST PUSH0 PUSH2 0x2DEF PUSH1 0xD DUP4 PUSH2 0x1D51 JUMP JUMPDEST SWAP2 POP PUSH2 0x2DFA DUP3 PUSH2 0x2DBB JUMP JUMPDEST PUSH1 0x20 DUP3 ADD SWAP1 POP SWAP2 SWAP1 POP JUMP JUMPDEST PUSH0 PUSH1 0x20 DUP3 ADD SWAP1 POP DUP2 DUP2 SUB PUSH0 DUP4 ADD MSTORE PUSH2 0x2E1C DUP2 PUSH2 0x2DE3 JUMP JUMPDEST SWAP1 POP SWAP2 SWAP1 POP JUMP JUMPDEST PUSH32 0x4E6F7420636F6D706C6574656400000000000000000000000000000000000000 PUSH0 DUP3 ADD MSTORE POP JUMP JUMPDEST PUSH0 PUSH2 0x2E57 PUSH1 0xD DUP4 PUSH2 0x1D51 JUMP JUMPDEST SWAP2 POP PUSH2 0x2E62 DUP3 PUSH2 0x2E23 JUMP JUMPDEST PUSH1 0x20 DUP3 ADD SWAP1 POP SWAP2 SWAP1 POP JUMP JUMPDEST PUSH0 PUSH1 0x20 DUP3 ADD SWAP1 POP DUP2 DUP2 SUB PUSH0 DUP4 ADD MSTORE PUSH2 0x2E84 DUP2 PUSH2 0x2E4B JUMP JUMPDEST SWAP1 POP SWAP2 SWAP1 POP JUMP JUMPDEST PUSH32 0x4E6F7420726563697069656E7400000000000000000000000000000000000000 PUSH0 DUP3 ADD MSTORE POP JUMP JUMPDEST PUSH0 PUSH2 0x2EBF PUSH1 0xD DUP4 PUSH2 0x1D51 JUMP JUMPDEST SWAP2 POP PUSH2 0x2ECA DUP3 PUSH2 0x2E8B JUMP JUMPDEST PUSH1 0x20 DUP3 ADD SWAP1 POP SWAP2 SWAP1 POP JUMP JUMPDEST PUSH0 PUSH1 0x20 DUP3 ADD SWAP1 POP DUP2 DUP2 SUB PUSH0 DUP4 ADD MSTORE PUSH2 0x2EEC DUP2 PUSH2 0x2EB3 JUMP JUMPDEST SWAP1 POP SWAP2 SWAP1 POP JUMP JUMPDEST PUSH32 0x4E6F2062616C616E636500000000000000000000000000000000000000000000 PUSH0 DUP3 ADD MSTORE POP JUMP JUMPDEST PUSH0 PUSH2 0x2F27 PUSH1 0xA DUP4 PUSH2 0x1D51 JUMP JUMPDEST SWAP2 POP PUSH2 0x2F32 DUP3 PUSH2 0x2EF3 JUMP JUMPDEST PUSH1 0x20 DUP3 ADD SWAP1 POP SWAP2 SWAP1 POP JUMP JUMPDEST PUSH0 PUSH1 0x20 DUP3 ADD SWAP1 POP DUP2 DUP2 SUB PUSH0 DUP4 ADD MSTORE PUSH2 0x2F54 DUP2 PUSH2 0x2F1B JUMP JUMPDEST SWAP1 POP SWAP2 SWAP1 POP JUMP JUMPDEST PUSH0 PUSH2 0x2F65 DUP3 PUSH2 0x1CC1 JUMP JUMPDEST SWAP2 POP PUSH2 0x2F70 DUP4 PUSH2 0x1CC1 JUMP JUMPDEST SWAP3 POP DUP3 DUP3 SUB SWAP1 POP DUP2 DUP2 GT ISZERO PUSH2 0x2F88 JUMPI PUSH2 0x2F87 PUSH2 0x2440 JUMP JUMPDEST JUMPDEST SWAP3 SWAP2 POP POP JUMP JUMPDEST PUSH0 DUP2 SWAP1 POP SWAP3 SWAP2 POP POP JUMP JUMPDEST POP JUMP JUMPDEST PUSH0 PUSH2 0x2FA6 PUSH0 DUP4 PUSH2 0x2F8E JUMP JUMPDEST SWAP2 POP PUSH2 0x2FB1 DUP3 PUSH2 0x2F98 JUMP JUMPDEST PUSH0 DUP3 ADD SWAP1 POP SWAP2 SWAP1 POP JUMP JUMPDEST PUSH0 PUSH2 0x2FC5 DUP3 PUSH2 0x2F9B JUMP JUMPDEST SWAP2 POP DUP2 SWAP1 POP SWAP2 SWAP1 POP JUMP JUMPDEST PUSH32 0x5769746864726177206661696C65640000000000000000000000000000000000 PUSH0 DUP3 ADD MSTORE POP JUMP JUMPDEST PUSH0 PUSH2 0x3003 PUSH1 0xF DUP4 PUSH2 0x1D51 JUMP JUMPDEST SWAP2 POP PUSH2 0x300E DUP3 PUSH2 0x2FCF JUMP JUMPDEST PUSH1 0x20 DUP3 ADD SWAP1 POP SWAP2 SWAP1 POP JUMP JUMPDEST PUSH0 PUSH1 0x20 DUP3 ADD SWAP1 POP DUP2 DUP2 SUB PUSH0 DUP4 ADD MSTORE PUSH2 0x3030 DUP2 PUSH2 0x2FF7 JUMP JUMPDEST SWAP1 POP SWAP2 SWAP1 POP JUMP JUMPDEST PUSH32 0x5265656E7472616E637947756172643A207265656E7472616E742063616C6C00 PUSH0 DUP3 ADD MSTORE POP JUMP JUMPDEST PUSH0 PUSH2 0x306B PUSH1 0x1F DUP4 PUSH2 0x1D51 JUMP JUMPDEST SWAP2 POP PUSH2 0x3076 DUP3 PUSH2 0x3037 JUMP JUMPDEST PUSH1 0x20 DUP3 ADD SWAP1 POP SWAP2 SWAP1 POP JUMP JUMPDEST PUSH0 PUSH1 0x20 DUP3 ADD SWAP1 POP DUP2 DUP2 SUB PUSH0 DUP4 ADD MSTORE PUSH2 0x3098 DUP2 PUSH2 0x305F JUMP JUMPDEST SWAP1 POP SWAP2 SWAP1 POP JUMP INVALID LOG2 PUSH5 0x6970667358 0x22 SLT KECCAK256 0xB5 DUP15 PUSH19 0xA855A0F2C905C5E2E60E14427E9B407C42B505 DUP9 0xC9 EXTCODESIZE PUSH4 0x145D2476 SSTORE 0xDD PUSH5 0x736F6C6343 STOP ADDMOD 0x1E STOP CALLER "
				},
				"gasEstimates": {
					"creation": {
						"codeDepositCost": "2500200",
						"executionCost": "24806",
						"totalCost": "2525006"
					},
					"external": {
						"approveDeliveryAsCreator(uint256)": "infinite",
						"confirmCompletion(uint256)": "infinite",
						"confirmDeliveryByOracle(uint256,string)": "infinite",
						"contractCounter()": "2471",
						"contracts(uint256)": "infinite",
						"createContract(address,string,uint256)": "infinite",
						"deactivateContract(uint256)": "infinite",
						"getContractHash(uint256)": "infinite",
						"getContractStatus(uint256)": "3045",
						"oracle()": "2531",
						"oracleSet()": "2583",
						"pendingWithdrawals(address)": "2890",
						"setDeliveryTracking(uint256,string)": "infinite",
						"setOracle(address)": "54725",
						"signContract(uint256)": "30576",
						"withdrawFundsFrom(uint256)": "infinite"
					}
				},
				"methodIdentifiers": {
					"approveDeliveryAsCreator(uint256)": "032ca42d",
					"confirmCompletion(uint256)": "94aeb613",
					"confirmDeliveryByOracle(uint256,string)": "c43bf3c2",
					"contractCounter()": "067bd3b4",
					"contracts(uint256)": "474da79a",
					"createContract(address,string,uint256)": "9ce5b6ca",
					"deactivateContract(uint256)": "22a45cd0",
					"getContractHash(uint256)": "0e9f0816",
					"getContractStatus(uint256)": "17b18458",
					"oracle()": "7dc0d1d0",
					"oracleSet()": "edb3b27a",
					"pendingWithdrawals(address)": "f3f43703",
					"setDeliveryTracking(uint256,string)": "54b7b6d3",
					"setOracle(address)": "7adbf973",
					"signContract(uint256)": "9537e8d1",
					"withdrawFundsFrom(uint256)": "df5c2980"
				}
			},
			"storageLayout": {
				"storage": [
					{
						"astId": 10,
						"contract": "digital_contract.sol:ContractManager",
						"label": "_status",
						"offset": 0,
						"slot": "0",
						"type": "t_uint256"
					},
					{
						"astId": 98,
						"contract": "digital_contract.sol:ContractManager",
						"label": "oracle",
						"offset": 0,
						"slot": "1",
						"type": "t_address"
					},
					{
						"astId": 100,
						"contract": "digital_contract.sol:ContractManager",
						"label": "oracleSet",
						"offset": 20,
						"slot": "1",
						"type": "t_bool"
					},
					{
						"astId": 105,
						"contract": "digital_contract.sol:ContractManager",
						"label": "contracts",
						"offset": 0,
						"slot": "2",
						"type": "t_mapping(t_uint256,t_struct(ManagedContract)96_storage)"
					},
					{
						"astId": 107,
						"contract": "digital_contract.sol:ContractManager",
						"label": "contractCounter",
						"offset": 0,
						"slot": "3",
						"type": "t_uint256"
					},
					{
						"astId": 111,
						"contract": "digital_contract.sol:ContractManager",
						"label": "pendingWithdrawals",
						"offset": 0,
						"slot": "4",
						"type": "t_mapping(t_address,t_uint256)"
					}
				],
				"types": {
					"t_address": {
						"encoding": "inplace",
						"label": "address",
						"numberOfBytes": "20"
					},
					"t_address_payable": {
						"encoding": "inplace",
						"label": "address payable",
						"numberOfBytes": "20"
					},
					"t_bool": {
						"encoding": "inplace",
						"label": "bool",
						"numberOfBytes": "1"
					},
					"t_bytes32": {
						"encoding": "inplace",
						"label": "bytes32",
						"numberOfBytes": "32"
					},
					"t_enum(ContractStatus)74": {
						"encoding": "inplace",
						"label": "enum ContractManager.ContractStatus",
						"numberOfBytes": "1"
					},
					"t_mapping(t_address,t_uint256)": {
						"encoding": "mapping",
						"key": "t_address",
						"label": "mapping(address => uint256)",
						"numberOfBytes": "32",
						"value": "t_uint256"
					},
					"t_mapping(t_uint256,t_struct(ManagedContract)96_storage)": {
						"encoding": "mapping",
						"key": "t_uint256",
						"label": "mapping(uint256 => struct ContractManager.ManagedContract)",
						"numberOfBytes": "32",
						"value": "t_struct(ManagedContract)96_storage"
					},
					"t_string_storage": {
						"encoding": "bytes",
						"label": "string",
						"numberOfBytes": "32"
					},
					"t_struct(ManagedContract)96_storage": {
						"encoding": "inplace",
						"label": "struct ContractManager.ManagedContract",
						"members": [
							{
								"astId": 76,
								"contract": "digital_contract.sol:ContractManager",
								"label": "id",
								"offset": 0,
								"slot": "0",
								"type": "t_uint256"
							},
							{
								"astId": 78,
								"contract": "digital_contract.sol:ContractManager",
								"label": "amount",
								"offset": 0,
								"slot": "1",
								"type": "t_uint256"
							},
							{
								"astId": 80,
								"contract": "digital_contract.sol:ContractManager",
								"label": "creator",
								"offset": 0,
								"slot": "2",
								"type": "t_address_payable"
							},
							{
								"astId": 82,
								"contract": "digital_contract.sol:ContractManager",
								"label": "counterparty",
								"offset": 0,
								"slot": "3",
								"type": "t_address_payable"
							},
							{
								"astId": 85,
								"contract": "digital_contract.sol:ContractManager",
								"label": "status",
								"offset": 20,
								"slot": "3",
								"type": "t_enum(ContractStatus)74"
							},
							{
								"astId": 87,
								"contract": "digital_contract.sol:ContractManager",
								"label": "contractHash",
								"offset": 0,
								"slot": "4",
								"type": "t_string_storage"
							},
							{
								"astId": 89,
								"contract": "digital_contract.sol:ContractManager",
								"label": "deliveryTrackingHash",
								"offset": 0,
								"slot": "5",
								"type": "t_bytes32"
							},
							{
								"astId": 91,
								"contract": "digital_contract.sol:ContractManager",
								"label": "deliveryRequired",
								"offset": 0,
								"slot": "6",
								"type": "t_bool"
							},
							{
								"astId": 93,
								"contract": "digital_contract.sol:ContractManager",
								"label": "deliveryConfirmed",
								"offset": 1,
								"slot": "6",
								"type": "t_bool"
							},
							{
								"astId": 95,
								"contract": "digital_contract.sol:ContractManager",
								"label": "deliveryApprovedByCreator",
								"offset": 2,
								"slot": "6",
								"type": "t_bool"
							}
						],
						"numberOfBytes": "224"
					},
					"t_uint256": {
						"encoding": "inplace",
						"label": "uint256",
						"numberOfBytes": "32"
					}
				}
			},
			"userdoc": {
				"kind": "user",
				"methods": {},
				"version": 1
			}
		}
	}
}