{
	"single_digital_contract.sol": {
		"ContractInstance": {
			"abi": [
				{
					"inputs": [
						{
							"internalType": "address payable",
							"name": "_counterparty",
							"type": "address"
						},
						{
							"internalType": "bytes32",
							"name": "_contractHash",
							"type": "bytes32"
						}
					],
					"stateMutability": "payable",
					"type": "constructor"
				},
				{
					"anonymous": false,
					"inputs": [
						{
							"indexed": true,
							"internalType": "address",
							"name": "creator",
							"type": "address"
						},
						{
							"indexed": true,
							"internalType": "address",
							"name": "counterparty",
							"type": "address"
						}
					],
					"name": "ContractCreated",
					"type": "event"
				},
				{
					"anonymous": false,
					"inputs": [],
					"name": "ContractDeactivated",
					"type": "event"
				},
				{
					"anonymous": false,
					"inputs": [],
					"name": "ContractSigned",
					"type": "event"
				},
				{
					"anonymous": false,
					"inputs": [],
					"name": "DeliveryApproved",
					"type": "event"
				},
				{
					"anonymous": false,
					"inputs": [],
					"name": "DeliveryConfirmed",
					"type": "event"
				},
				{
					"anonymous": false,
					"inputs": [
						{
							"indexed": true,
							"internalType": "address",
							"name": "account",
							"type": "address"
						},
						{
							"indexed": false,
							"internalType": "uint256",
							"name": "amount",
							"type": "uint256"
						}
					],
					"name": "FundsWithdrawn",
					"type": "event"
				},
				{
					"anonymous": false,
					"inputs": [
						{
							"indexed": true,
							"internalType": "address",
							"name": "oracle",
							"type": "address"
						}
					],
					"name": "OracleSet",
					"type": "event"
				},
				{
					"anonymous": false,
					"inputs": [
						{
							"indexed": true,
							"internalType": "address",
							"name": "to",
							"type": "address"
						},
						{
							"indexed": false,
							"internalType": "uint256",
							"name": "amount",
							"type": "uint256"
						}
					],
					"name": "PaymentReleased",
					"type": "event"
				},
				{
					"anonymous": false,
					"inputs": [
						{
							"indexed": false,
							"internalType": "bytes32",
							"name": "trackingHash",
							"type": "bytes32"
						}
					],
					"name": "TrackingHashSet",
					"type": "event"
				},
				{
					"inputs": [],
					"name": "amount",
					"outputs": [
						{
							"internalType": "uint256",
							"name": "",
							"type": "uint256"
						}
					],
					"stateMutability": "view",
					"type": "function"
				},
				{
					"inputs": [],
					"name": "approveDeliveryAsCreator",
					"outputs": [],
					"stateMutability": "nonpayable",
					"type": "function"
				},
				{
					"inputs": [],
					"name": "confirmCompletion",
					"outputs": [],
					"stateMutability": "nonpayable",
					"type": "function"
				},
				{
					"inputs": [
						{
							"internalType": "bytes32",
							"name": "_trackingNumberHash",
							"type": "bytes32"
						}
					],
					"name": "confirmDeliveryByOracle",
					"outputs": [],
					"stateMutability": "nonpayable",
					"type": "function"
				},
				{
					"inputs": [],
					"name": "contractHash",
					"outputs": [
						{
							"internalType": "bytes32",
							"name": "",
							"type": "bytes32"
						}
					],
					"stateMutability": "view",
					"type": "function"
				},
				{
					"inputs": [],
					"name": "counterparty",
					"outputs": [
						{
							"internalType": "address payable",
							"name": "",
							"type": "address"
						}
					],
					"stateMutability": "view",
					"type": "function"
				},
				{
					"inputs": [],
					"name": "creator",
					"outputs": [
						{
							"internalType": "address payable",
							"name": "",
							"type": "address"
						}
					],
					"stateMutability": "view",
					"type": "function"
				},
				{
					"inputs": [],
					"name": "deactivateContract",
					"outputs": [],
					"stateMutability": "nonpayable",
					"type": "function"
				},
				{
					"inputs": [],
					"name": "deliveryRequired",
					"outputs": [
						{
							"internalType": "bool",
							"name": "",
							"type": "bool"
						}
					],
					"stateMutability": "view",
					"type": "function"
				},
				{
					"inputs": [],
					"name": "deliveryTrackingHash",
					"outputs": [
						{
							"internalType": "bytes32",
							"name": "",
							"type": "bytes32"
						}
					],
					"stateMutability": "view",
					"type": "function"
				},
				{
					"inputs": [],
					"name": "getContractStatus",
					"outputs": [
						{
							"internalType": "enum ContractInstance.ContractStatus",
							"name": "",
							"type": "uint8"
						}
					],
					"stateMutability": "view",
					"type": "function"
				},
				{
					"inputs": [],
					"name": "oracle",
					"outputs": [
						{
							"internalType": "address",
							"name": "",
							"type": "address"
						}
					],
					"stateMutability": "view",
					"type": "function"
				},
				{
					"inputs": [],
					"name": "oracleSet",
					"outputs": [
						{
							"internalType": "bool",
							"name": "",
							"type": "bool"
						}
					],
					"stateMutability": "view",
					"type": "function"
				},
				{
					"inputs": [
						{
							"internalType": "bytes32",
							"name": "_trackingNumberHash",
							"type": "bytes32"
						}
					],
					"name": "setDeliveryTracking",
					"outputs": [],
					"stateMutability": "nonpayable",
					"type": "function"
				},
				{
					"inputs": [
						{
							"internalType": "address",
							"name": "_oracle",
							"type": "address"
						}
					],
					"name": "setOracle",
					"outputs": [],
					"stateMutability": "nonpayable",
					"type": "function"
				},
				{
					"inputs": [],
					"name": "signContract",
					"outputs": [],
					"stateMutability": "nonpayable",
					"type": "function"
				},
				{
					"inputs": [],
					"name": "status",
					"outputs": [
						{
							"internalType": "enum ContractInstance.ContractStatus",
							"name": "",
							"type": "uint8"
						}
					],
					"stateMutability": "view",
					"type": "function"
				},
				{
					"inputs": [],
					"name": "withdrawFunds",
					"outputs": [],
					"stateMutability": "nonpayable",
					"type": "function"
				},
				{
					"inputs": [],
					"name": "withdrawn",
					"outputs": [
						{
							"internalType": "bool",
							"name": "",
							"type": "bool"
						}
					],
					"stateMutability": "view",
					"type": "function"
				}
			],
			"devdoc": {
				"kind": "dev",
				"methods": {},
				"version": 1
			},
			"evm": {
				"assembly": "    /* \"single_digital_contract.sol\":126:4709  contract ContractInstance is ReentrancyGuard {... */\n  mstore(0x40, 0x80)\n    /* \"single_digital_contract.sol\":1507:1979  constructor(... */\n  mload(0x40)\n  sub(codesize, bytecodeSize)\n  dup1\n  bytecodeSize\n  dup4\n  codecopy\n  dup2\n  dup2\n  add\n  0x40\n  mstore\n  dup2\n  add\n  swap1\n  tag_1\n  swap2\n  swap1\n  tag_2\n  jump\t// in\ntag_1:\n    /* \"@openzeppelin/contracts/security/ReentrancyGuard.sol\":1716:1717  1 */\n  0x01\n    /* \"@openzeppelin/contracts/security/ReentrancyGuard.sol\":1821:1828  _status */\n  0x00\n    /* \"@openzeppelin/contracts/security/ReentrancyGuard.sol\":1821:1843  _status = _NOT_ENTERED */\n  dup2\n  swap1\n  sstore\n  pop\n    /* \"single_digital_contract.sol\":1650:1651  0 */\n  0x00\n    /* \"single_digital_contract.sol\":1625:1652  _counterparty != address(0) */\n  0xffffffffffffffffffffffffffffffffffffffff\n  and\n    /* \"single_digital_contract.sol\":1625:1638  _counterparty */\n  dup3\n    /* \"single_digital_contract.sol\":1625:1652  _counterparty != address(0) */\n  0xffffffffffffffffffffffffffffffffffffffff\n  and\n  sub\n    /* \"single_digital_contract.sol\":1617:1675  require(_counterparty != address(0), \"0 addr not allowed\") */\n  tag_7\n  jumpi\n  mload(0x40)\n  0x08c379a000000000000000000000000000000000000000000000000000000000\n  dup2\n  mstore\n  0x04\n  add\n  tag_8\n  swap1\n  tag_9\n  jump\t// in\ntag_8:\n  mload(0x40)\n  dup1\n  swap2\n  sub\n  swap1\n  revert\ntag_7:\n    /* \"single_digital_contract.sol\":1706:1707  0 */\n  0x00\n    /* \"single_digital_contract.sol\":1694:1703  msg.value */\n  callvalue\n    /* \"single_digital_contract.sol\":1694:1707  msg.value > 0 */\n  gt\n    /* \"single_digital_contract.sol\":1686:1724  require(msg.value > 0, \"ETH required\") */\n  tag_10\n  jumpi\n  mload(0x40)\n  0x08c379a000000000000000000000000000000000000000000000000000000000\n  dup2\n  mstore\n  0x04\n  add\n  tag_11\n  swap1\n  tag_12\n  jump\t// in\ntag_11:\n  mload(0x40)\n  dup1\n  swap2\n  sub\n  swap1\n  revert\ntag_10:\n    /* \"single_digital_contract.sol\":1755:1765  msg.sender */\n  caller\n    /* \"single_digital_contract.sol\":1737:1744  creator */\n  0x01\n  0x00\n    /* \"single_digital_contract.sol\":1737:1766  creator = payable(msg.sender) */\n  0x0100\n  exp\n  dup2\n  sload\n  dup2\n  0xffffffffffffffffffffffffffffffffffffffff\n  mul\n  not\n  and\n  swap1\n  dup4\n  0xffffffffffffffffffffffffffffffffffffffff\n  and\n  mul\n  or\n  swap1\n  sstore\n  pop\n    /* \"single_digital_contract.sol\":1792:1805  _counterparty */\n  dup2\n    /* \"single_digital_contract.sol\":1777:1789  counterparty */\n  0x02\n  0x00\n    /* \"single_digital_contract.sol\":1777:1805  counterparty = _counterparty */\n  0x0100\n  exp\n  dup2\n  sload\n  dup2\n  0xffffffffffffffffffffffffffffffffffffffff\n  mul\n  not\n  and\n  swap1\n  dup4\n  0xffffffffffffffffffffffffffffffffffffffff\n  and\n  mul\n  or\n  swap1\n  sstore\n  pop\n    /* \"single_digital_contract.sol\":1825:1834  msg.value */\n  callvalue\n    /* \"single_digital_contract.sol\":1816:1822  amount */\n  0x04\n    /* \"single_digital_contract.sol\":1816:1834  amount = msg.value */\n  dup2\n  swap1\n  sstore\n  pop\n    /* \"single_digital_contract.sol\":1860:1873  _contractHash */\n  dup1\n    /* \"single_digital_contract.sol\":1845:1857  contractHash */\n  0x06\n    /* \"single_digital_contract.sol\":1845:1873  contractHash = _contractHash */\n  dup2\n  swap1\n  sstore\n  pop\n    /* \"single_digital_contract.sol\":1893:1915  ContractStatus.Created */\n  0x00\n    /* \"single_digital_contract.sol\":1884:1890  status */\n  0x05\n  0x00\n    /* \"single_digital_contract.sol\":1884:1915  status = ContractStatus.Created */\n  0x0100\n  exp\n  dup2\n  sload\n  dup2\n  0xff\n  mul\n  not\n  and\n  swap1\n  dup4\n  0x07\n  dup2\n  gt\n  iszero\n  tag_13\n  jumpi\n  tag_14\n  tag_15\n  jump\t// in\ntag_14:\ntag_13:\n  mul\n  or\n  swap1\n  sstore\n  pop\n    /* \"single_digital_contract.sol\":1958:1970  counterparty */\n  0x02\n  0x00\n  swap1\n  sload\n  swap1\n  0x0100\n  exp\n  swap1\n  div\n  0xffffffffffffffffffffffffffffffffffffffff\n  and\n    /* \"single_digital_contract.sol\":1933:1971  ContractCreated(creator, counterparty) */\n  0xffffffffffffffffffffffffffffffffffffffff\n  and\n    /* \"single_digital_contract.sol\":1949:1956  creator */\n  0x01\n  0x00\n  swap1\n  sload\n  swap1\n  0x0100\n  exp\n  swap1\n  div\n  0xffffffffffffffffffffffffffffffffffffffff\n  and\n    /* \"single_digital_contract.sol\":1933:1971  ContractCreated(creator, counterparty) */\n  0xffffffffffffffffffffffffffffffffffffffff\n  and\n  0x2d49c67975aadd2d389580b368cfff5b49965b0bd5da33c144922ce01e7a4d7b\n  mload(0x40)\n  mload(0x40)\n  dup1\n  swap2\n  sub\n  swap1\n  log3\n    /* \"single_digital_contract.sol\":1507:1979  constructor(... */\n  pop\n  pop\n    /* \"single_digital_contract.sol\":126:4709  contract ContractInstance is ReentrancyGuard {... */\n  jump(tag_16)\n    /* \"#utility.yul\":88:205   */\ntag_18:\n    /* \"#utility.yul\":197:198   */\n  0x00\n    /* \"#utility.yul\":194:195   */\n  0x00\n    /* \"#utility.yul\":187:199   */\n  revert\n    /* \"#utility.yul\":334:460   */\ntag_20:\n    /* \"#utility.yul\":371:378   */\n  0x00\n    /* \"#utility.yul\":411:453   */\n  0xffffffffffffffffffffffffffffffffffffffff\n    /* \"#utility.yul\":404:409   */\n  dup3\n    /* \"#utility.yul\":400:454   */\n  and\n    /* \"#utility.yul\":389:454   */\n  swap1\n  pop\n    /* \"#utility.yul\":334:460   */\n  swap2\n  swap1\n  pop\n  jump\t// out\n    /* \"#utility.yul\":466:570   */\ntag_21:\n    /* \"#utility.yul\":511:518   */\n  0x00\n    /* \"#utility.yul\":540:564   */\n  tag_38\n    /* \"#utility.yul\":558:563   */\n  dup3\n    /* \"#utility.yul\":540:564   */\n  tag_20\n  jump\t// in\ntag_38:\n    /* \"#utility.yul\":529:564   */\n  swap1\n  pop\n    /* \"#utility.yul\":466:570   */\n  swap2\n  swap1\n  pop\n  jump\t// out\n    /* \"#utility.yul\":576:714   */\ntag_22:\n    /* \"#utility.yul\":657:689   */\n  tag_40\n    /* \"#utility.yul\":683:688   */\n  dup2\n    /* \"#utility.yul\":657:689   */\n  tag_21\n  jump\t// in\ntag_40:\n    /* \"#utility.yul\":650:655   */\n  dup2\n    /* \"#utility.yul\":647:690   */\n  eq\n    /* \"#utility.yul\":637:708   */\n  tag_41\n  jumpi\n    /* \"#utility.yul\":704:705   */\n  0x00\n    /* \"#utility.yul\":701:702   */\n  0x00\n    /* \"#utility.yul\":694:706   */\n  revert\n    /* \"#utility.yul\":637:708   */\ntag_41:\n    /* \"#utility.yul\":576:714   */\n  pop\n  jump\t// out\n    /* \"#utility.yul\":720:879   */\ntag_23:\n    /* \"#utility.yul\":785:790   */\n  0x00\n    /* \"#utility.yul\":816:822   */\n  dup2\n    /* \"#utility.yul\":810:823   */\n  mload\n    /* \"#utility.yul\":801:823   */\n  swap1\n  pop\n    /* \"#utility.yul\":832:873   */\n  tag_43\n    /* \"#utility.yul\":867:872   */\n  dup2\n    /* \"#utility.yul\":832:873   */\n  tag_22\n  jump\t// in\ntag_43:\n    /* \"#utility.yul\":720:879   */\n  swap3\n  swap2\n  pop\n  pop\n  jump\t// out\n    /* \"#utility.yul\":885:962   */\ntag_24:\n    /* \"#utility.yul\":922:929   */\n  0x00\n    /* \"#utility.yul\":951:956   */\n  dup2\n    /* \"#utility.yul\":940:956   */\n  swap1\n  pop\n    /* \"#utility.yul\":885:962   */\n  swap2\n  swap1\n  pop\n  jump\t// out\n    /* \"#utility.yul\":968:1090   */\ntag_25:\n    /* \"#utility.yul\":1041:1065   */\n  tag_46\n    /* \"#utility.yul\":1059:1064   */\n  dup2\n    /* \"#utility.yul\":1041:1065   */\n  tag_24\n  jump\t// in\ntag_46:\n    /* \"#utility.yul\":1034:1039   */\n  dup2\n    /* \"#utility.yul\":1031:1066   */\n  eq\n    /* \"#utility.yul\":1021:1084   */\n  tag_47\n  jumpi\n    /* \"#utility.yul\":1080:1081   */\n  0x00\n    /* \"#utility.yul\":1077:1078   */\n  0x00\n    /* \"#utility.yul\":1070:1082   */\n  revert\n    /* \"#utility.yul\":1021:1084   */\ntag_47:\n    /* \"#utility.yul\":968:1090   */\n  pop\n  jump\t// out\n    /* \"#utility.yul\":1096:1239   */\ntag_26:\n    /* \"#utility.yul\":1153:1158   */\n  0x00\n    /* \"#utility.yul\":1184:1190   */\n  dup2\n    /* \"#utility.yul\":1178:1191   */\n  mload\n    /* \"#utility.yul\":1169:1191   */\n  swap1\n  pop\n    /* \"#utility.yul\":1200:1233   */\n  tag_49\n    /* \"#utility.yul\":1227:1232   */\n  dup2\n    /* \"#utility.yul\":1200:1233   */\n  tag_25\n  jump\t// in\ntag_49:\n    /* \"#utility.yul\":1096:1239   */\n  swap3\n  swap2\n  pop\n  pop\n  jump\t// out\n    /* \"#utility.yul\":1245:1768   */\ntag_2:\n    /* \"#utility.yul\":1332:1338   */\n  0x00\n    /* \"#utility.yul\":1340:1346   */\n  0x00\n    /* \"#utility.yul\":1389:1391   */\n  0x40\n    /* \"#utility.yul\":1377:1386   */\n  dup4\n    /* \"#utility.yul\":1368:1375   */\n  dup6\n    /* \"#utility.yul\":1364:1387   */\n  sub\n    /* \"#utility.yul\":1360:1392   */\n  slt\n    /* \"#utility.yul\":1357:1476   */\n  iszero\n  tag_51\n  jumpi\n    /* \"#utility.yul\":1395:1474   */\n  tag_52\n  tag_18\n  jump\t// in\ntag_52:\n    /* \"#utility.yul\":1357:1476   */\ntag_51:\n    /* \"#utility.yul\":1515:1516   */\n  0x00\n    /* \"#utility.yul\":1540:1612   */\n  tag_53\n    /* \"#utility.yul\":1604:1611   */\n  dup6\n    /* \"#utility.yul\":1595:1601   */\n  dup3\n    /* \"#utility.yul\":1584:1593   */\n  dup7\n    /* \"#utility.yul\":1580:1602   */\n  add\n    /* \"#utility.yul\":1540:1612   */\n  tag_23\n  jump\t// in\ntag_53:\n    /* \"#utility.yul\":1530:1612   */\n  swap3\n  pop\n    /* \"#utility.yul\":1486:1622   */\n  pop\n    /* \"#utility.yul\":1661:1663   */\n  0x20\n    /* \"#utility.yul\":1687:1751   */\n  tag_54\n    /* \"#utility.yul\":1743:1750   */\n  dup6\n    /* \"#utility.yul\":1734:1740   */\n  dup3\n    /* \"#utility.yul\":1723:1732   */\n  dup7\n    /* \"#utility.yul\":1719:1741   */\n  add\n    /* \"#utility.yul\":1687:1751   */\n  tag_26\n  jump\t// in\ntag_54:\n    /* \"#utility.yul\":1677:1751   */\n  swap2\n  pop\n    /* \"#utility.yul\":1632:1761   */\n  pop\n    /* \"#utility.yul\":1245:1768   */\n  swap3\n  pop\n  swap3\n  swap1\n  pop\n  jump\t// out\n    /* \"#utility.yul\":1774:1943   */\ntag_27:\n    /* \"#utility.yul\":1858:1869   */\n  0x00\n    /* \"#utility.yul\":1892:1898   */\n  dup3\n    /* \"#utility.yul\":1887:1890   */\n  dup3\n    /* \"#utility.yul\":1880:1899   */\n  mstore\n    /* \"#utility.yul\":1932:1936   */\n  0x20\n    /* \"#utility.yul\":1927:1930   */\n  dup3\n    /* \"#utility.yul\":1923:1937   */\n  add\n    /* \"#utility.yul\":1908:1937   */\n  swap1\n  pop\n    /* \"#utility.yul\":1774:1943   */\n  swap3\n  swap2\n  pop\n  pop\n  jump\t// out\n    /* \"#utility.yul\":1949:2117   */\ntag_28:\n    /* \"#utility.yul\":2089:2109   */\n  0x302061646472206e6f7420616c6c6f7765640000000000000000000000000000\n    /* \"#utility.yul\":2085:2086   */\n  0x00\n    /* \"#utility.yul\":2077:2083   */\n  dup3\n    /* \"#utility.yul\":2073:2087   */\n  add\n    /* \"#utility.yul\":2066:2110   */\n  mstore\n    /* \"#utility.yul\":1949:2117   */\n  pop\n  jump\t// out\n    /* \"#utility.yul\":2123:2489   */\ntag_29:\n    /* \"#utility.yul\":2265:2268   */\n  0x00\n    /* \"#utility.yul\":2286:2353   */\n  tag_58\n    /* \"#utility.yul\":2350:2352   */\n  0x12\n    /* \"#utility.yul\":2345:2348   */\n  dup4\n    /* \"#utility.yul\":2286:2353   */\n  tag_27\n  jump\t// in\ntag_58:\n    /* \"#utility.yul\":2279:2353   */\n  swap2\n  pop\n    /* \"#utility.yul\":2362:2455   */\n  tag_59\n    /* \"#utility.yul\":2451:2454   */\n  dup3\n    /* \"#utility.yul\":2362:2455   */\n  tag_28\n  jump\t// in\ntag_59:\n    /* \"#utility.yul\":2480:2482   */\n  0x20\n    /* \"#utility.yul\":2475:2478   */\n  dup3\n    /* \"#utility.yul\":2471:2483   */\n  add\n    /* \"#utility.yul\":2464:2483   */\n  swap1\n  pop\n    /* \"#utility.yul\":2123:2489   */\n  swap2\n  swap1\n  pop\n  jump\t// out\n    /* \"#utility.yul\":2495:2914   */\ntag_9:\n    /* \"#utility.yul\":2661:2665   */\n  0x00\n    /* \"#utility.yul\":2699:2701   */\n  0x20\n    /* \"#utility.yul\":2688:2697   */\n  dup3\n    /* \"#utility.yul\":2684:2702   */\n  add\n    /* \"#utility.yul\":2676:2702   */\n  swap1\n  pop\n    /* \"#utility.yul\":2748:2757   */\n  dup2\n    /* \"#utility.yul\":2742:2746   */\n  dup2\n    /* \"#utility.yul\":2738:2758   */\n  sub\n    /* \"#utility.yul\":2734:2735   */\n  0x00\n    /* \"#utility.yul\":2723:2732   */\n  dup4\n    /* \"#utility.yul\":2719:2736   */\n  add\n    /* \"#utility.yul\":2712:2759   */\n  mstore\n    /* \"#utility.yul\":2776:2907   */\n  tag_61\n    /* \"#utility.yul\":2902:2906   */\n  dup2\n    /* \"#utility.yul\":2776:2907   */\n  tag_29\n  jump\t// in\ntag_61:\n    /* \"#utility.yul\":2768:2907   */\n  swap1\n  pop\n    /* \"#utility.yul\":2495:2914   */\n  swap2\n  swap1\n  pop\n  jump\t// out\n    /* \"#utility.yul\":2920:3082   */\ntag_30:\n    /* \"#utility.yul\":3060:3074   */\n  0x4554482072657175697265640000000000000000000000000000000000000000\n    /* \"#utility.yul\":3056:3057   */\n  0x00\n    /* \"#utility.yul\":3048:3054   */\n  dup3\n    /* \"#utility.yul\":3044:3058   */\n  add\n    /* \"#utility.yul\":3037:3075   */\n  mstore\n    /* \"#utility.yul\":2920:3082   */\n  pop\n  jump\t// out\n    /* \"#utility.yul\":3088:3454   */\ntag_31:\n    /* \"#utility.yul\":3230:3233   */\n  0x00\n    /* \"#utility.yul\":3251:3318   */\n  tag_64\n    /* \"#utility.yul\":3315:3317   */\n  0x0c\n    /* \"#utility.yul\":3310:3313   */\n  dup4\n    /* \"#utility.yul\":3251:3318   */\n  tag_27\n  jump\t// in\ntag_64:\n    /* \"#utility.yul\":3244:3318   */\n  swap2\n  pop\n    /* \"#utility.yul\":3327:3420   */\n  tag_65\n    /* \"#utility.yul\":3416:3419   */\n  dup3\n    /* \"#utility.yul\":3327:3420   */\n  tag_30\n  jump\t// in\ntag_65:\n    /* \"#utility.yul\":3445:3447   */\n  0x20\n    /* \"#utility.yul\":3440:3443   */\n  dup3\n    /* \"#utility.yul\":3436:3448   */\n  add\n    /* \"#utility.yul\":3429:3448   */\n  swap1\n  pop\n    /* \"#utility.yul\":3088:3454   */\n  swap2\n  swap1\n  pop\n  jump\t// out\n    /* \"#utility.yul\":3460:3879   */\ntag_12:\n    /* \"#utility.yul\":3626:3630   */\n  0x00\n    /* \"#utility.yul\":3664:3666   */\n  0x20\n    /* \"#utility.yul\":3653:3662   */\n  dup3\n    /* \"#utility.yul\":3649:3667   */\n  add\n    /* \"#utility.yul\":3641:3667   */\n  swap1\n  pop\n    /* \"#utility.yul\":3713:3722   */\n  dup2\n    /* \"#utility.yul\":3707:3711   */\n  dup2\n    /* \"#utility.yul\":3703:3723   */\n  sub\n    /* \"#utility.yul\":3699:3700   */\n  0x00\n    /* \"#utility.yul\":3688:3697   */\n  dup4\n    /* \"#utility.yul\":3684:3701   */\n  add\n    /* \"#utility.yul\":3677:3724   */\n  mstore\n    /* \"#utility.yul\":3741:3872   */\n  tag_67\n    /* \"#utility.yul\":3867:3871   */\n  dup2\n    /* \"#utility.yul\":3741:3872   */\n  tag_31\n  jump\t// in\ntag_67:\n    /* \"#utility.yul\":3733:3872   */\n  swap1\n  pop\n    /* \"#utility.yul\":3460:3879   */\n  swap2\n  swap1\n  pop\n  jump\t// out\n    /* \"#utility.yul\":3885:4065   */\ntag_15:\n    /* \"#utility.yul\":3933:4010   */\n  0x4e487b7100000000000000000000000000000000000000000000000000000000\n    /* \"#utility.yul\":3930:3931   */\n  0x00\n    /* \"#utility.yul\":3923:4011   */\n  mstore\n    /* \"#utility.yul\":4030:4034   */\n  0x21\n    /* \"#utility.yul\":4027:4028   */\n  0x04\n    /* \"#utility.yul\":4020:4035   */\n  mstore\n    /* \"#utility.yul\":4054:4058   */\n  0x24\n    /* \"#utility.yul\":4051:4052   */\n  0x00\n    /* \"#utility.yul\":4044:4059   */\n  revert\n    /* \"single_digital_contract.sol\":126:4709  contract ContractInstance is ReentrancyGuard {... */\ntag_16:\n  dataSize(sub_0)\n  dup1\n  dataOffset(sub_0)\n  0x00\n  codecopy\n  0x00\n  return\nstop\n\nsub_0: assembly {\n        /* \"single_digital_contract.sol\":126:4709  contract ContractInstance is ReentrancyGuard {... */\n      mstore(0x40, 0x80)\n      callvalue\n      dup1\n      iszero\n      tag_1\n      jumpi\n      revert(0x00, 0x00)\n    tag_1:\n      pop\n      jumpi(tag_2, lt(calldatasize, 0x04))\n      shr(0xe0, calldataload(0x00))\n      dup1\n      0xa06aa1ab\n      gt\n      tag_22\n      jumpi\n      dup1\n      0xc3df6546\n      gt\n      tag_23\n      jumpi\n      dup1\n      0xc3df6546\n      eq\n      tag_17\n      jumpi\n      dup1\n      0xc80ec522\n      eq\n      tag_18\n      jumpi\n      dup1\n      0xd556c4c3\n      eq\n      tag_19\n      jumpi\n      dup1\n      0xde8a8435\n      eq\n      tag_20\n      jumpi\n      dup1\n      0xedb3b27a\n      eq\n      tag_21\n      jumpi\n      jump(tag_2)\n    tag_23:\n      dup1\n      0xa06aa1ab\n      eq\n      tag_12\n      jumpi\n      dup1\n      0xaa8c217c\n      eq\n      tag_13\n      jumpi\n      dup1\n      0xb8b4f1a0\n      eq\n      tag_14\n      jumpi\n      dup1\n      0xbca353be\n      eq\n      tag_15\n      jumpi\n      dup1\n      0xc032846b\n      eq\n      tag_16\n      jumpi\n      jump(tag_2)\n    tag_22:\n      dup1\n      0x3ae11dbf\n      gt\n      tag_24\n      jumpi\n      dup1\n      0x3ae11dbf\n      eq\n      tag_7\n      jumpi\n      dup1\n      0x61150abc\n      eq\n      tag_8\n      jumpi\n      dup1\n      0x7adbf973\n      eq\n      tag_9\n      jumpi\n      dup1\n      0x7dc0d1d0\n      eq\n      tag_10\n      jumpi\n      dup1\n      0x904c6094\n      eq\n      tag_11\n      jumpi\n      jump(tag_2)\n    tag_24:\n      dup1\n      0x02d05d3f\n      eq\n      tag_3\n      jumpi\n      dup1\n      0x200d2ed2\n      eq\n      tag_4\n      jumpi\n      dup1\n      0x24600fc3\n      eq\n      tag_5\n      jumpi\n      dup1\n      0x2723facc\n      eq\n      tag_6\n      jumpi\n    tag_2:\n      revert(0x00, 0x00)\n        /* \"single_digital_contract.sol\":394:424  address payable public creator */\n    tag_3:\n      tag_25\n      tag_26\n      jump\t// in\n    tag_25:\n      mload(0x40)\n      tag_27\n      swap2\n      swap1\n      tag_28\n      jump\t// in\n    tag_27:\n      mload(0x40)\n      dup1\n      swap2\n      sub\n      swap1\n      return\n        /* \"single_digital_contract.sol\":559:587  ContractStatus public status */\n    tag_4:\n      tag_29\n      tag_30\n      jump\t// in\n    tag_29:\n      mload(0x40)\n      tag_31\n      swap2\n      swap1\n      tag_32\n      jump\t// in\n    tag_31:\n      mload(0x40)\n      dup1\n      swap2\n      sub\n      swap1\n      return\n        /* \"single_digital_contract.sol\":3844:4310  function withdrawFunds() public nonReentrant onlyCounterparty {... */\n    tag_5:\n      tag_33\n      tag_34\n      jump\t// in\n    tag_33:\n      stop\n        /* \"single_digital_contract.sol\":2463:2859  function setDeliveryTracking(bytes32 _trackingNumberHash) public onlyCounterparty {... */\n    tag_6:\n      tag_35\n      0x04\n      dup1\n      calldatasize\n      sub\n      dup2\n      add\n      swap1\n      tag_36\n      swap2\n      swap1\n      tag_37\n      jump\t// in\n    tag_36:\n      tag_38\n      jump\t// in\n    tag_35:\n      stop\n        /* \"single_digital_contract.sol\":2867:3247  function confirmDeliveryByOracle(bytes32 _trackingNumberHash) public onlyOracle {... */\n    tag_7:\n      tag_39\n      0x04\n      dup1\n      calldatasize\n      sub\n      dup2\n      add\n      swap1\n      tag_40\n      swap2\n      swap1\n      tag_37\n      jump\t// in\n    tag_40:\n      tag_41\n      jump\t// in\n    tag_39:\n      stop\n        /* \"single_digital_contract.sol\":3255:3536  function approveDeliveryAsCreator() public onlyCreator {... */\n    tag_8:\n      tag_42\n      tag_43\n      jump\t// in\n    tag_42:\n      stop\n        /* \"single_digital_contract.sol\":1987:2251  function setOracle(address _oracle) public onlyCreator {... */\n    tag_9:\n      tag_44\n      0x04\n      dup1\n      calldatasize\n      sub\n      dup2\n      add\n      swap1\n      tag_45\n      swap2\n      swap1\n      tag_46\n      jump\t// in\n    tag_45:\n      tag_47\n      jump\t// in\n    tag_44:\n      stop\n        /* \"single_digital_contract.sol\":473:494  address public oracle */\n    tag_10:\n      tag_48\n      tag_49\n      jump\t// in\n    tag_48:\n      mload(0x40)\n      tag_50\n      swap2\n      swap1\n      tag_51\n      jump\t// in\n    tag_50:\n      mload(0x40)\n      dup1\n      swap2\n      sub\n      swap1\n      return\n        /* \"single_digital_contract.sol\":594:621  bytes32 public contractHash */\n    tag_11:\n      tag_52\n      tag_53\n      jump\t// in\n    tag_52:\n      mload(0x40)\n      tag_54\n      swap2\n      swap1\n      tag_55\n      jump\t// in\n    tag_54:\n      mload(0x40)\n      dup1\n      swap2\n      sub\n      swap1\n      return\n        /* \"single_digital_contract.sol\":3544:3836  function confirmCompletion() public onlyCreator {... */\n    tag_12:\n      tag_56\n      tag_57\n      jump\t// in\n    tag_56:\n      stop\n        /* \"single_digital_contract.sol\":531:552  uint256 public amount */\n    tag_13:\n      tag_58\n      tag_59\n      jump\t// in\n    tag_58:\n      mload(0x40)\n      tag_60\n      swap2\n      swap1\n      tag_61\n      jump\t// in\n    tag_60:\n      mload(0x40)\n      dup1\n      swap2\n      sub\n      swap1\n      return\n        /* \"single_digital_contract.sol\":2259:2455  function signContract() public onlyCounterparty {... */\n    tag_14:\n      tag_62\n      tag_63\n      jump\t// in\n    tag_62:\n      stop\n        /* \"single_digital_contract.sol\":4318:4600  function deactivateContract() public onlyCreator {... */\n    tag_15:\n      tag_64\n      tag_65\n      jump\t// in\n    tag_64:\n      stop\n        /* \"single_digital_contract.sol\":4608:4706  function getContractStatus() public view returns (ContractStatus) {... */\n    tag_16:\n      tag_66\n      tag_67\n      jump\t// in\n    tag_66:\n      mload(0x40)\n      tag_68\n      swap2\n      swap1\n      tag_32\n      jump\t// in\n    tag_68:\n      mload(0x40)\n      dup1\n      swap2\n      sub\n      swap1\n      return\n        /* \"single_digital_contract.sol\":431:466  address payable public counterparty */\n    tag_17:\n      tag_69\n      tag_70\n      jump\t// in\n    tag_69:\n      mload(0x40)\n      tag_71\n      swap2\n      swap1\n      tag_28\n      jump\t// in\n    tag_71:\n      mload(0x40)\n      dup1\n      swap2\n      sub\n      swap1\n      return\n        /* \"single_digital_contract.sol\":705:726  bool public withdrawn */\n    tag_18:\n      tag_72\n      tag_73\n      jump\t// in\n    tag_72:\n      mload(0x40)\n      tag_74\n      swap2\n      swap1\n      tag_75\n      jump\t// in\n    tag_74:\n      mload(0x40)\n      dup1\n      swap2\n      sub\n      swap1\n      return\n        /* \"single_digital_contract.sol\":670:698  bool public deliveryRequired */\n    tag_19:\n      tag_76\n      tag_77\n      jump\t// in\n    tag_76:\n      mload(0x40)\n      tag_78\n      swap2\n      swap1\n      tag_75\n      jump\t// in\n    tag_78:\n      mload(0x40)\n      dup1\n      swap2\n      sub\n      swap1\n      return\n        /* \"single_digital_contract.sol\":628:663  bytes32 public deliveryTrackingHash */\n    tag_20:\n      tag_79\n      tag_80\n      jump\t// in\n    tag_79:\n      mload(0x40)\n      tag_81\n      swap2\n      swap1\n      tag_55\n      jump\t// in\n    tag_81:\n      mload(0x40)\n      dup1\n      swap2\n      sub\n      swap1\n      return\n        /* \"single_digital_contract.sol\":501:522  bool public oracleSet */\n    tag_21:\n      tag_82\n      tag_83\n      jump\t// in\n    tag_82:\n      mload(0x40)\n      tag_84\n      swap2\n      swap1\n      tag_75\n      jump\t// in\n    tag_84:\n      mload(0x40)\n      dup1\n      swap2\n      sub\n      swap1\n      return\n        /* \"single_digital_contract.sol\":394:424  address payable public creator */\n    tag_26:\n      0x01\n      0x00\n      swap1\n      sload\n      swap1\n      0x0100\n      exp\n      swap1\n      div\n      0xffffffffffffffffffffffffffffffffffffffff\n      and\n      dup2\n      jump\t// out\n        /* \"single_digital_contract.sol\":559:587  ContractStatus public status */\n    tag_30:\n      0x05\n      0x00\n      swap1\n      sload\n      swap1\n      0x0100\n      exp\n      swap1\n      div\n      0xff\n      and\n      dup2\n      jump\t// out\n        /* \"single_digital_contract.sol\":3844:4310  function withdrawFunds() public nonReentrant onlyCounterparty {... */\n    tag_34:\n        /* \"@openzeppelin/contracts/security/ReentrancyGuard.sol\":2261:2282  _nonReentrantBefore() */\n      tag_86\n        /* \"@openzeppelin/contracts/security/ReentrancyGuard.sol\":2261:2280  _nonReentrantBefore */\n      tag_87\n        /* \"@openzeppelin/contracts/security/ReentrancyGuard.sol\":2261:2282  _nonReentrantBefore() */\n      jump\t// in\n    tag_86:\n        /* \"single_digital_contract.sol\":1342:1354  counterparty */\n      0x02\n      0x00\n      swap1\n      sload\n      swap1\n      0x0100\n      exp\n      swap1\n      div\n      0xffffffffffffffffffffffffffffffffffffffff\n      and\n        /* \"single_digital_contract.sol\":1328:1354  msg.sender == counterparty */\n      0xffffffffffffffffffffffffffffffffffffffff\n      and\n        /* \"single_digital_contract.sol\":1328:1338  msg.sender */\n      caller\n        /* \"single_digital_contract.sol\":1328:1354  msg.sender == counterparty */\n      0xffffffffffffffffffffffffffffffffffffffff\n      and\n      eq\n        /* \"single_digital_contract.sol\":1320:1375  require(msg.sender == counterparty, \"Not counterparty\") */\n      tag_89\n      jumpi\n      mload(0x40)\n      0x08c379a000000000000000000000000000000000000000000000000000000000\n      dup2\n      mstore\n      0x04\n      add\n      tag_90\n      swap1\n      tag_91\n      jump\t// in\n    tag_90:\n      mload(0x40)\n      dup1\n      swap2\n      sub\n      swap1\n      revert\n    tag_89:\n        /* \"single_digital_contract.sol\":3949:3982  ContractStatus.AgreementFulfilled */\n      0x05\n        /* \"single_digital_contract.sol\":3939:3982  status == ContractStatus.AgreementFulfilled */\n      0x07\n      dup2\n      gt\n      iszero\n      tag_93\n      jumpi\n      tag_94\n      tag_95\n      jump\t// in\n    tag_94:\n    tag_93:\n        /* \"single_digital_contract.sol\":3939:3945  status */\n      0x05\n      0x00\n      swap1\n      sload\n      swap1\n      0x0100\n      exp\n      swap1\n      div\n      0xff\n      and\n        /* \"single_digital_contract.sol\":3939:3982  status == ContractStatus.AgreementFulfilled */\n      0x07\n      dup2\n      gt\n      iszero\n      tag_96\n      jumpi\n      tag_97\n      tag_95\n      jump\t// in\n    tag_97:\n    tag_96:\n      eq\n        /* \"single_digital_contract.sol\":3939:4040  status == ContractStatus.AgreementFulfilled ||... */\n      dup1\n      tag_98\n      jumpi\n      pop\n        /* \"single_digital_contract.sol\":4009:4040  ContractStatus.DeliveryApproved */\n      0x04\n        /* \"single_digital_contract.sol\":3999:4040  status == ContractStatus.DeliveryApproved */\n      0x07\n      dup2\n      gt\n      iszero\n      tag_99\n      jumpi\n      tag_100\n      tag_95\n      jump\t// in\n    tag_100:\n    tag_99:\n        /* \"single_digital_contract.sol\":3999:4005  status */\n      0x05\n      0x00\n      swap1\n      sload\n      swap1\n      0x0100\n      exp\n      swap1\n      div\n      0xff\n      and\n        /* \"single_digital_contract.sol\":3999:4040  status == ContractStatus.DeliveryApproved */\n      0x07\n      dup2\n      gt\n      iszero\n      tag_101\n      jumpi\n      tag_102\n      tag_95\n      jump\t// in\n    tag_102:\n    tag_101:\n      eq\n        /* \"single_digital_contract.sol\":3939:4040  status == ContractStatus.AgreementFulfilled ||... */\n    tag_98:\n        /* \"single_digital_contract.sol\":3917:4084  require(... */\n      tag_103\n      jumpi\n      mload(0x40)\n      0x08c379a000000000000000000000000000000000000000000000000000000000\n      dup2\n      mstore\n      0x04\n      add\n      tag_104\n      swap1\n      tag_105\n      jump\t// in\n    tag_104:\n      mload(0x40)\n      dup1\n      swap2\n      sub\n      swap1\n      revert\n    tag_103:\n        /* \"single_digital_contract.sol\":4104:4113  withdrawn */\n      0x08\n      0x01\n      swap1\n      sload\n      swap1\n      0x0100\n      exp\n      swap1\n      div\n      0xff\n      and\n        /* \"single_digital_contract.sol\":4103:4113  !withdrawn */\n      iszero\n        /* \"single_digital_contract.sol\":4095:4135  require(!withdrawn, \"Already withdrawn\") */\n      tag_106\n      jumpi\n      mload(0x40)\n      0x08c379a000000000000000000000000000000000000000000000000000000000\n      dup2\n      mstore\n      0x04\n      add\n      tag_107\n      swap1\n      tag_108\n      jump\t// in\n    tag_107:\n      mload(0x40)\n      dup1\n      swap2\n      sub\n      swap1\n      revert\n    tag_106:\n        /* \"single_digital_contract.sol\":4160:4164  true */\n      0x01\n        /* \"single_digital_contract.sol\":4148:4157  withdrawn */\n      0x08\n      0x01\n        /* \"single_digital_contract.sol\":4148:4164  withdrawn = true */\n      0x0100\n      exp\n      dup2\n      sload\n      dup2\n      0xff\n      mul\n      not\n      and\n      swap1\n      dup4\n      iszero\n      iszero\n      mul\n      or\n      swap1\n      sstore\n      pop\n        /* \"single_digital_contract.sol\":4184:4208  ContractStatus.Completed */\n      0x06\n        /* \"single_digital_contract.sol\":4175:4181  status */\n      0x05\n      0x00\n        /* \"single_digital_contract.sol\":4175:4208  status = ContractStatus.Completed */\n      0x0100\n      exp\n      dup2\n      sload\n      dup2\n      0xff\n      mul\n      not\n      and\n      swap1\n      dup4\n      0x07\n      dup2\n      gt\n      iszero\n      tag_109\n      jumpi\n      tag_110\n      tag_95\n      jump\t// in\n    tag_110:\n    tag_109:\n      mul\n      or\n      swap1\n      sstore\n      pop\n        /* \"single_digital_contract.sol\":4221:4233  counterparty */\n      0x02\n      0x00\n      swap1\n      sload\n      swap1\n      0x0100\n      exp\n      swap1\n      div\n      0xffffffffffffffffffffffffffffffffffffffff\n      and\n        /* \"single_digital_contract.sol\":4221:4242  counterparty.transfer */\n      0xffffffffffffffffffffffffffffffffffffffff\n      and\n        /* \"single_digital_contract.sol\":4221:4250  counterparty.transfer(amount) */\n      0x08fc\n        /* \"single_digital_contract.sol\":4243:4249  amount */\n      sload(0x04)\n        /* \"single_digital_contract.sol\":4221:4250  counterparty.transfer(amount) */\n      swap1\n      dup2\n      iszero\n      mul\n      swap1\n      mload(0x40)\n      0x00\n      mload(0x40)\n      dup1\n      dup4\n      sub\n      dup2\n      dup6\n      dup9\n      dup9\n      call\n      swap4\n      pop\n      pop\n      pop\n      pop\n      iszero\n      dup1\n      iszero\n      tag_112\n      jumpi\n      returndatacopy(0x00, 0x00, returndatasize)\n      revert(0x00, returndatasize)\n    tag_112:\n      pop\n        /* \"single_digital_contract.sol\":4281:4293  counterparty */\n      0x02\n      0x00\n      swap1\n      sload\n      swap1\n      0x0100\n      exp\n      swap1\n      div\n      0xffffffffffffffffffffffffffffffffffffffff\n      and\n        /* \"single_digital_contract.sol\":4266:4302  FundsWithdrawn(counterparty, amount) */\n      0xffffffffffffffffffffffffffffffffffffffff\n      and\n      0xeaff4b37086828766ad3268786972c0cd24259d4c87a80f9d3963a3c3d999b0d\n        /* \"single_digital_contract.sol\":4295:4301  amount */\n      sload(0x04)\n        /* \"single_digital_contract.sol\":4266:4302  FundsWithdrawn(counterparty, amount) */\n      mload(0x40)\n      tag_113\n      swap2\n      swap1\n      tag_61\n      jump\t// in\n    tag_113:\n      mload(0x40)\n      dup1\n      swap2\n      sub\n      swap1\n      log2\n        /* \"@openzeppelin/contracts/security/ReentrancyGuard.sol\":2303:2323  _nonReentrantAfter() */\n      tag_114\n        /* \"@openzeppelin/contracts/security/ReentrancyGuard.sol\":2303:2321  _nonReentrantAfter */\n      tag_115\n        /* \"@openzeppelin/contracts/security/ReentrancyGuard.sol\":2303:2323  _nonReentrantAfter() */\n      jump\t// in\n    tag_114:\n        /* \"single_digital_contract.sol\":3844:4310  function withdrawFunds() public nonReentrant onlyCounterparty {... */\n      jump\t// out\n        /* \"single_digital_contract.sol\":2463:2859  function setDeliveryTracking(bytes32 _trackingNumberHash) public onlyCounterparty {... */\n    tag_38:\n        /* \"single_digital_contract.sol\":1342:1354  counterparty */\n      0x02\n      0x00\n      swap1\n      sload\n      swap1\n      0x0100\n      exp\n      swap1\n      div\n      0xffffffffffffffffffffffffffffffffffffffff\n      and\n        /* \"single_digital_contract.sol\":1328:1354  msg.sender == counterparty */\n      0xffffffffffffffffffffffffffffffffffffffff\n      and\n        /* \"single_digital_contract.sol\":1328:1338  msg.sender */\n      caller\n        /* \"single_digital_contract.sol\":1328:1354  msg.sender == counterparty */\n      0xffffffffffffffffffffffffffffffffffffffff\n      and\n      eq\n        /* \"single_digital_contract.sol\":1320:1375  require(msg.sender == counterparty, \"Not counterparty\") */\n      tag_117\n      jumpi\n      mload(0x40)\n      0x08c379a000000000000000000000000000000000000000000000000000000000\n      dup2\n      mstore\n      0x04\n      add\n      tag_118\n      swap1\n      tag_91\n      jump\t// in\n    tag_118:\n      mload(0x40)\n      dup1\n      swap2\n      sub\n      swap1\n      revert\n    tag_117:\n        /* \"single_digital_contract.sol\":2574:2595  ContractStatus.Signed */\n      0x01\n        /* \"single_digital_contract.sol\":2564:2595  status == ContractStatus.Signed */\n      0x07\n      dup2\n      gt\n      iszero\n      tag_120\n      jumpi\n      tag_121\n      tag_95\n      jump\t// in\n    tag_121:\n    tag_120:\n        /* \"single_digital_contract.sol\":2564:2570  status */\n      0x05\n      0x00\n      swap1\n      sload\n      swap1\n      0x0100\n      exp\n      swap1\n      div\n      0xff\n      and\n        /* \"single_digital_contract.sol\":2564:2595  status == ContractStatus.Signed */\n      0x07\n      dup2\n      gt\n      iszero\n      tag_122\n      jumpi\n      tag_123\n      tag_95\n      jump\t// in\n    tag_123:\n    tag_122:\n      eq\n        /* \"single_digital_contract.sol\":2556:2610  require(status == ContractStatus.Signed, \"Not Signed\") */\n      tag_124\n      jumpi\n      mload(0x40)\n      0x08c379a000000000000000000000000000000000000000000000000000000000\n      dup2\n      mstore\n      0x04\n      add\n      tag_125\n      swap1\n      tag_126\n      jump\t// in\n    tag_125:\n      mload(0x40)\n      dup1\n      swap2\n      sub\n      swap1\n      revert\n    tag_124:\n        /* \"single_digital_contract.sol\":2630:2646  deliveryRequired */\n      0x08\n      0x00\n      swap1\n      sload\n      swap1\n      0x0100\n      exp\n      swap1\n      div\n      0xff\n      and\n        /* \"single_digital_contract.sol\":2629:2646  !deliveryRequired */\n      iszero\n        /* \"single_digital_contract.sol\":2621:2662  require(!deliveryRequired, \"Already set\") */\n      tag_127\n      jumpi\n      mload(0x40)\n      0x08c379a000000000000000000000000000000000000000000000000000000000\n      dup2\n      mstore\n      0x04\n      add\n      tag_128\n      swap1\n      tag_129\n      jump\t// in\n    tag_128:\n      mload(0x40)\n      dup1\n      swap2\n      sub\n      swap1\n      revert\n    tag_127:\n        /* \"single_digital_contract.sol\":2698:2717  _trackingNumberHash */\n      dup1\n        /* \"single_digital_contract.sol\":2675:2695  deliveryTrackingHash */\n      0x07\n        /* \"single_digital_contract.sol\":2675:2717  deliveryTrackingHash = _trackingNumberHash */\n      dup2\n      swap1\n      sstore\n      pop\n        /* \"single_digital_contract.sol\":2747:2751  true */\n      0x01\n        /* \"single_digital_contract.sol\":2728:2744  deliveryRequired */\n      0x08\n      0x00\n        /* \"single_digital_contract.sol\":2728:2751  deliveryRequired = true */\n      0x0100\n      exp\n      dup2\n      sload\n      dup2\n      0xff\n      mul\n      not\n      and\n      swap1\n      dup4\n      iszero\n      iszero\n      mul\n      or\n      swap1\n      sstore\n      pop\n        /* \"single_digital_contract.sol\":2771:2797  ContractStatus.DeliverySet */\n      0x02\n        /* \"single_digital_contract.sol\":2762:2768  status */\n      0x05\n      0x00\n        /* \"single_digital_contract.sol\":2762:2797  status = ContractStatus.DeliverySet */\n      0x0100\n      exp\n      dup2\n      sload\n      dup2\n      0xff\n      mul\n      not\n      and\n      swap1\n      dup4\n      0x07\n      dup2\n      gt\n      iszero\n      tag_130\n      jumpi\n      tag_131\n      tag_95\n      jump\t// in\n    tag_131:\n    tag_130:\n      mul\n      or\n      swap1\n      sstore\n      pop\n        /* \"single_digital_contract.sol\":2815:2851  TrackingHashSet(_trackingNumberHash) */\n      0x38bb74aee35525ad6f921035a12a3d9a215b349edc85b7d0a474443be9f78d4b\n        /* \"single_digital_contract.sol\":2831:2850  _trackingNumberHash */\n      dup2\n        /* \"single_digital_contract.sol\":2815:2851  TrackingHashSet(_trackingNumberHash) */\n      mload(0x40)\n      tag_132\n      swap2\n      swap1\n      tag_55\n      jump\t// in\n    tag_132:\n      mload(0x40)\n      dup1\n      swap2\n      sub\n      swap1\n      log1\n        /* \"single_digital_contract.sol\":2463:2859  function setDeliveryTracking(bytes32 _trackingNumberHash) public onlyCounterparty {... */\n      pop\n      jump\t// out\n        /* \"single_digital_contract.sol\":2867:3247  function confirmDeliveryByOracle(bytes32 _trackingNumberHash) public onlyOracle {... */\n    tag_41:\n        /* \"single_digital_contract.sol\":1458:1464  oracle */\n      0x03\n      0x00\n      swap1\n      sload\n      swap1\n      0x0100\n      exp\n      swap1\n      div\n      0xffffffffffffffffffffffffffffffffffffffff\n      and\n        /* \"single_digital_contract.sol\":1444:1464  msg.sender == oracle */\n      0xffffffffffffffffffffffffffffffffffffffff\n      and\n        /* \"single_digital_contract.sol\":1444:1454  msg.sender */\n      caller\n        /* \"single_digital_contract.sol\":1444:1464  msg.sender == oracle */\n      0xffffffffffffffffffffffffffffffffffffffff\n      and\n      eq\n        /* \"single_digital_contract.sol\":1436:1479  require(msg.sender == oracle, \"Not oracle\") */\n      tag_134\n      jumpi\n      mload(0x40)\n      0x08c379a000000000000000000000000000000000000000000000000000000000\n      dup2\n      mstore\n      0x04\n      add\n      tag_135\n      swap1\n      tag_136\n      jump\t// in\n    tag_135:\n      mload(0x40)\n      dup1\n      swap2\n      sub\n      swap1\n      revert\n    tag_134:\n        /* \"single_digital_contract.sol\":2976:3002  ContractStatus.DeliverySet */\n      0x02\n        /* \"single_digital_contract.sol\":2966:3002  status == ContractStatus.DeliverySet */\n      0x07\n      dup2\n      gt\n      iszero\n      tag_138\n      jumpi\n      tag_139\n      tag_95\n      jump\t// in\n    tag_139:\n    tag_138:\n        /* \"single_digital_contract.sol\":2966:2972  status */\n      0x05\n      0x00\n      swap1\n      sload\n      swap1\n      0x0100\n      exp\n      swap1\n      div\n      0xff\n      and\n        /* \"single_digital_contract.sol\":2966:3002  status == ContractStatus.DeliverySet */\n      0x07\n      dup2\n      gt\n      iszero\n      tag_140\n      jumpi\n      tag_141\n      tag_95\n      jump\t// in\n    tag_141:\n    tag_140:\n      eq\n        /* \"single_digital_contract.sol\":2958:3019  require(status == ContractStatus.DeliverySet, \"Wrong status\") */\n      tag_142\n      jumpi\n      mload(0x40)\n      0x08c379a000000000000000000000000000000000000000000000000000000000\n      dup2\n      mstore\n      0x04\n      add\n      tag_143\n      swap1\n      tag_144\n      jump\t// in\n    tag_143:\n      mload(0x40)\n      dup1\n      swap2\n      sub\n      swap1\n      revert\n    tag_142:\n        /* \"single_digital_contract.sol\":3038:3054  deliveryRequired */\n      0x08\n      0x00\n      swap1\n      sload\n      swap1\n      0x0100\n      exp\n      swap1\n      div\n      0xff\n      and\n        /* \"single_digital_contract.sol\":3030:3070  require(deliveryRequired, \"No delivery\") */\n      tag_145\n      jumpi\n      mload(0x40)\n      0x08c379a000000000000000000000000000000000000000000000000000000000\n      dup2\n      mstore\n      0x04\n      add\n      tag_146\n      swap1\n      tag_147\n      jump\t// in\n    tag_146:\n      mload(0x40)\n      dup1\n      swap2\n      sub\n      swap1\n      revert\n    tag_145:\n        /* \"single_digital_contract.sol\":3113:3132  _trackingNumberHash */\n      dup1\n        /* \"single_digital_contract.sol\":3089:3109  deliveryTrackingHash */\n      sload(0x07)\n        /* \"single_digital_contract.sol\":3089:3132  deliveryTrackingHash == _trackingNumberHash */\n      eq\n        /* \"single_digital_contract.sol\":3081:3150  require(deliveryTrackingHash == _trackingNumberHash, \"Hash mismatch\") */\n      tag_148\n      jumpi\n      mload(0x40)\n      0x08c379a000000000000000000000000000000000000000000000000000000000\n      dup2\n      mstore\n      0x04\n      add\n      tag_149\n      swap1\n      tag_150\n      jump\t// in\n    tag_149:\n      mload(0x40)\n      dup1\n      swap2\n      sub\n      swap1\n      revert\n    tag_148:\n        /* \"single_digital_contract.sol\":3172:3204  ContractStatus.DeliveryConfirmed */\n      0x03\n        /* \"single_digital_contract.sol\":3163:3169  status */\n      0x05\n      0x00\n        /* \"single_digital_contract.sol\":3163:3204  status = ContractStatus.DeliveryConfirmed */\n      0x0100\n      exp\n      dup2\n      sload\n      dup2\n      0xff\n      mul\n      not\n      and\n      swap1\n      dup4\n      0x07\n      dup2\n      gt\n      iszero\n      tag_151\n      jumpi\n      tag_152\n      tag_95\n      jump\t// in\n    tag_152:\n    tag_151:\n      mul\n      or\n      swap1\n      sstore\n      pop\n        /* \"single_digital_contract.sol\":3220:3239  DeliveryConfirmed() */\n      0x4cfed5a6b337f78f2df5b8499b67efc08ce0d2cbed5d1be5c62bb6e0295e8785\n      mload(0x40)\n      mload(0x40)\n      dup1\n      swap2\n      sub\n      swap1\n      log1\n        /* \"single_digital_contract.sol\":2867:3247  function confirmDeliveryByOracle(bytes32 _trackingNumberHash) public onlyOracle {... */\n      pop\n      jump\t// out\n        /* \"single_digital_contract.sol\":3255:3536  function approveDeliveryAsCreator() public onlyCreator {... */\n    tag_43:\n        /* \"single_digital_contract.sol\":1230:1237  creator */\n      0x01\n      0x00\n      swap1\n      sload\n      swap1\n      0x0100\n      exp\n      swap1\n      div\n      0xffffffffffffffffffffffffffffffffffffffff\n      and\n        /* \"single_digital_contract.sol\":1216:1237  msg.sender == creator */\n      0xffffffffffffffffffffffffffffffffffffffff\n      and\n        /* \"single_digital_contract.sol\":1216:1226  msg.sender */\n      caller\n        /* \"single_digital_contract.sol\":1216:1237  msg.sender == creator */\n      0xffffffffffffffffffffffffffffffffffffffff\n      and\n      eq\n        /* \"single_digital_contract.sol\":1208:1253  require(msg.sender == creator, \"Not creator\") */\n      tag_154\n      jumpi\n      mload(0x40)\n      0x08c379a000000000000000000000000000000000000000000000000000000000\n      dup2\n      mstore\n      0x04\n      add\n      tag_155\n      swap1\n      tag_156\n      jump\t// in\n    tag_155:\n      mload(0x40)\n      dup1\n      swap2\n      sub\n      swap1\n      revert\n    tag_154:\n        /* \"single_digital_contract.sol\":3339:3371  ContractStatus.DeliveryConfirmed */\n      0x03\n        /* \"single_digital_contract.sol\":3329:3371  status == ContractStatus.DeliveryConfirmed */\n      0x07\n      dup2\n      gt\n      iszero\n      tag_158\n      jumpi\n      tag_159\n      tag_95\n      jump\t// in\n    tag_159:\n    tag_158:\n        /* \"single_digital_contract.sol\":3329:3335  status */\n      0x05\n      0x00\n      swap1\n      sload\n      swap1\n      0x0100\n      exp\n      swap1\n      div\n      0xff\n      and\n        /* \"single_digital_contract.sol\":3329:3371  status == ContractStatus.DeliveryConfirmed */\n      0x07\n      dup2\n      gt\n      iszero\n      tag_160\n      jumpi\n      tag_161\n      tag_95\n      jump\t// in\n    tag_161:\n    tag_160:\n      eq\n        /* \"single_digital_contract.sol\":3321:3388  require(status == ContractStatus.DeliveryConfirmed, \"Wrong status\") */\n      tag_162\n      jumpi\n      mload(0x40)\n      0x08c379a000000000000000000000000000000000000000000000000000000000\n      dup2\n      mstore\n      0x04\n      add\n      tag_163\n      swap1\n      tag_144\n      jump\t// in\n    tag_163:\n      mload(0x40)\n      dup1\n      swap2\n      sub\n      swap1\n      revert\n    tag_162:\n        /* \"single_digital_contract.sol\":3410:3441  ContractStatus.DeliveryApproved */\n      0x04\n        /* \"single_digital_contract.sol\":3401:3407  status */\n      0x05\n      0x00\n        /* \"single_digital_contract.sol\":3401:3441  status = ContractStatus.DeliveryApproved */\n      0x0100\n      exp\n      dup2\n      sload\n      dup2\n      0xff\n      mul\n      not\n      and\n      swap1\n      dup4\n      0x07\n      dup2\n      gt\n      iszero\n      tag_164\n      jumpi\n      tag_165\n      tag_95\n      jump\t// in\n    tag_165:\n    tag_164:\n      mul\n      or\n      swap1\n      sstore\n      pop\n        /* \"single_digital_contract.sol\":3457:3475  DeliveryApproved() */\n      0x5e6503d0ab32f3f8277c0fd77503f7dec641b04440d3f18dae0a517eeee8deba\n      mload(0x40)\n      mload(0x40)\n      dup1\n      swap2\n      sub\n      swap1\n      log1\n        /* \"single_digital_contract.sol\":3507:3519  counterparty */\n      0x02\n      0x00\n      swap1\n      sload\n      swap1\n      0x0100\n      exp\n      swap1\n      div\n      0xffffffffffffffffffffffffffffffffffffffff\n      and\n        /* \"single_digital_contract.sol\":3491:3528  PaymentReleased(counterparty, amount) */\n      0xffffffffffffffffffffffffffffffffffffffff\n      and\n      0xdf20fd1e76bc69d672e4814fafb2c449bba3a5369d8359adf9e05e6fde87b056\n        /* \"single_digital_contract.sol\":3521:3527  amount */\n      sload(0x04)\n        /* \"single_digital_contract.sol\":3491:3528  PaymentReleased(counterparty, amount) */\n      mload(0x40)\n      tag_166\n      swap2\n      swap1\n      tag_61\n      jump\t// in\n    tag_166:\n      mload(0x40)\n      dup1\n      swap2\n      sub\n      swap1\n      log2\n        /* \"single_digital_contract.sol\":3255:3536  function approveDeliveryAsCreator() public onlyCreator {... */\n      jump\t// out\n        /* \"single_digital_contract.sol\":1987:2251  function setOracle(address _oracle) public onlyCreator {... */\n    tag_47:\n        /* \"single_digital_contract.sol\":1230:1237  creator */\n      0x01\n      0x00\n      swap1\n      sload\n      swap1\n      0x0100\n      exp\n      swap1\n      div\n      0xffffffffffffffffffffffffffffffffffffffff\n      and\n        /* \"single_digital_contract.sol\":1216:1237  msg.sender == creator */\n      0xffffffffffffffffffffffffffffffffffffffff\n      and\n        /* \"single_digital_contract.sol\":1216:1226  msg.sender */\n      caller\n        /* \"single_digital_contract.sol\":1216:1237  msg.sender == creator */\n      0xffffffffffffffffffffffffffffffffffffffff\n      and\n      eq\n        /* \"single_digital_contract.sol\":1208:1253  require(msg.sender == creator, \"Not creator\") */\n      tag_168\n      jumpi\n      mload(0x40)\n      0x08c379a000000000000000000000000000000000000000000000000000000000\n      dup2\n      mstore\n      0x04\n      add\n      tag_169\n      swap1\n      tag_156\n      jump\t// in\n    tag_169:\n      mload(0x40)\n      dup1\n      swap2\n      sub\n      swap1\n      revert\n    tag_168:\n        /* \"single_digital_contract.sol\":2062:2071  oracleSet */\n      0x03\n      0x14\n      swap1\n      sload\n      swap1\n      0x0100\n      exp\n      swap1\n      div\n      0xff\n      and\n        /* \"single_digital_contract.sol\":2061:2071  !oracleSet */\n      iszero\n        /* \"single_digital_contract.sol\":2053:2094  require(!oracleSet, \"Oracle already set\") */\n      tag_171\n      jumpi\n      mload(0x40)\n      0x08c379a000000000000000000000000000000000000000000000000000000000\n      dup2\n      mstore\n      0x04\n      add\n      tag_172\n      swap1\n      tag_173\n      jump\t// in\n    tag_172:\n      mload(0x40)\n      dup1\n      swap2\n      sub\n      swap1\n      revert\n    tag_171:\n        /* \"single_digital_contract.sol\":2132:2133  0 */\n      0x00\n        /* \"single_digital_contract.sol\":2113:2134  _oracle != address(0) */\n      0xffffffffffffffffffffffffffffffffffffffff\n      and\n        /* \"single_digital_contract.sol\":2113:2120  _oracle */\n      dup2\n        /* \"single_digital_contract.sol\":2113:2134  _oracle != address(0) */\n      0xffffffffffffffffffffffffffffffffffffffff\n      and\n      sub\n        /* \"single_digital_contract.sol\":2105:2153  require(_oracle != address(0), \"Invalid oracle\") */\n      tag_174\n      jumpi\n      mload(0x40)\n      0x08c379a000000000000000000000000000000000000000000000000000000000\n      dup2\n      mstore\n      0x04\n      add\n      tag_175\n      swap1\n      tag_176\n      jump\t// in\n    tag_175:\n      mload(0x40)\n      dup1\n      swap2\n      sub\n      swap1\n      revert\n    tag_174:\n        /* \"single_digital_contract.sol\":2175:2182  _oracle */\n      dup1\n        /* \"single_digital_contract.sol\":2166:2172  oracle */\n      0x03\n      0x00\n        /* \"single_digital_contract.sol\":2166:2182  oracle = _oracle */\n      0x0100\n      exp\n      dup2\n      sload\n      dup2\n      0xffffffffffffffffffffffffffffffffffffffff\n      mul\n      not\n      and\n      swap1\n      dup4\n      0xffffffffffffffffffffffffffffffffffffffff\n      and\n      mul\n      or\n      swap1\n      sstore\n      pop\n        /* \"single_digital_contract.sol\":2205:2209  true */\n      0x01\n        /* \"single_digital_contract.sol\":2193:2202  oracleSet */\n      0x03\n      0x14\n        /* \"single_digital_contract.sol\":2193:2209  oracleSet = true */\n      0x0100\n      exp\n      dup2\n      sload\n      dup2\n      0xff\n      mul\n      not\n      and\n      swap1\n      dup4\n      iszero\n      iszero\n      mul\n      or\n      swap1\n      sstore\n      pop\n        /* \"single_digital_contract.sol\":2235:2242  _oracle */\n      dup1\n        /* \"single_digital_contract.sol\":2225:2243  OracleSet(_oracle) */\n      0xffffffffffffffffffffffffffffffffffffffff\n      and\n      0x3f32684a32a11dabdbb8c0177de80aa3ae36a004d75210335b49e544e48cd0aa\n      mload(0x40)\n      mload(0x40)\n      dup1\n      swap2\n      sub\n      swap1\n      log2\n        /* \"single_digital_contract.sol\":1987:2251  function setOracle(address _oracle) public onlyCreator {... */\n      pop\n      jump\t// out\n        /* \"single_digital_contract.sol\":473:494  address public oracle */\n    tag_49:\n      0x03\n      0x00\n      swap1\n      sload\n      swap1\n      0x0100\n      exp\n      swap1\n      div\n      0xffffffffffffffffffffffffffffffffffffffff\n      and\n      dup2\n      jump\t// out\n        /* \"single_digital_contract.sol\":594:621  bytes32 public contractHash */\n    tag_53:\n      sload(0x06)\n      dup2\n      jump\t// out\n        /* \"single_digital_contract.sol\":3544:3836  function confirmCompletion() public onlyCreator {... */\n    tag_57:\n        /* \"single_digital_contract.sol\":1230:1237  creator */\n      0x01\n      0x00\n      swap1\n      sload\n      swap1\n      0x0100\n      exp\n      swap1\n      div\n      0xffffffffffffffffffffffffffffffffffffffff\n      and\n        /* \"single_digital_contract.sol\":1216:1237  msg.sender == creator */\n      0xffffffffffffffffffffffffffffffffffffffff\n      and\n        /* \"single_digital_contract.sol\":1216:1226  msg.sender */\n      caller\n        /* \"single_digital_contract.sol\":1216:1237  msg.sender == creator */\n      0xffffffffffffffffffffffffffffffffffffffff\n      and\n      eq\n        /* \"single_digital_contract.sol\":1208:1253  require(msg.sender == creator, \"Not creator\") */\n      tag_178\n      jumpi\n      mload(0x40)\n      0x08c379a000000000000000000000000000000000000000000000000000000000\n      dup2\n      mstore\n      0x04\n      add\n      tag_179\n      swap1\n      tag_156\n      jump\t// in\n    tag_179:\n      mload(0x40)\n      dup1\n      swap2\n      sub\n      swap1\n      revert\n    tag_178:\n        /* \"single_digital_contract.sol\":3621:3642  ContractStatus.Signed */\n      0x01\n        /* \"single_digital_contract.sol\":3611:3642  status == ContractStatus.Signed */\n      0x07\n      dup2\n      gt\n      iszero\n      tag_181\n      jumpi\n      tag_182\n      tag_95\n      jump\t// in\n    tag_182:\n    tag_181:\n        /* \"single_digital_contract.sol\":3611:3617  status */\n      0x05\n      0x00\n      swap1\n      sload\n      swap1\n      0x0100\n      exp\n      swap1\n      div\n      0xff\n      and\n        /* \"single_digital_contract.sol\":3611:3642  status == ContractStatus.Signed */\n      0x07\n      dup2\n      gt\n      iszero\n      tag_183\n      jumpi\n      tag_184\n      tag_95\n      jump\t// in\n    tag_184:\n    tag_183:\n      eq\n        /* \"single_digital_contract.sol\":3603:3657  require(status == ContractStatus.Signed, \"Not signed\") */\n      tag_185\n      jumpi\n      mload(0x40)\n      0x08c379a000000000000000000000000000000000000000000000000000000000\n      dup2\n      mstore\n      0x04\n      add\n      tag_186\n      swap1\n      tag_187\n      jump\t// in\n    tag_186:\n      mload(0x40)\n      dup1\n      swap2\n      sub\n      swap1\n      revert\n    tag_185:\n        /* \"single_digital_contract.sol\":3677:3693  deliveryRequired */\n      0x08\n      0x00\n      swap1\n      sload\n      swap1\n      0x0100\n      exp\n      swap1\n      div\n      0xff\n      and\n        /* \"single_digital_contract.sol\":3676:3693  !deliveryRequired */\n      iszero\n        /* \"single_digital_contract.sol\":3668:3720  require(!deliveryRequired, \"Delivery flow required\") */\n      tag_188\n      jumpi\n      mload(0x40)\n      0x08c379a000000000000000000000000000000000000000000000000000000000\n      dup2\n      mstore\n      0x04\n      add\n      tag_189\n      swap1\n      tag_190\n      jump\t// in\n    tag_189:\n      mload(0x40)\n      dup1\n      swap2\n      sub\n      swap1\n      revert\n    tag_188:\n        /* \"single_digital_contract.sol\":3742:3775  ContractStatus.AgreementFulfilled */\n      0x05\n        /* \"single_digital_contract.sol\":3733:3739  status */\n      dup1\n      0x00\n        /* \"single_digital_contract.sol\":3733:3775  status = ContractStatus.AgreementFulfilled */\n      0x0100\n      exp\n      dup2\n      sload\n      dup2\n      0xff\n      mul\n      not\n      and\n      swap1\n      dup4\n      0x07\n      dup2\n      gt\n      iszero\n      tag_191\n      jumpi\n      tag_192\n      tag_95\n      jump\t// in\n    tag_192:\n    tag_191:\n      mul\n      or\n      swap1\n      sstore\n      pop\n        /* \"single_digital_contract.sol\":3807:3819  counterparty */\n      0x02\n      0x00\n      swap1\n      sload\n      swap1\n      0x0100\n      exp\n      swap1\n      div\n      0xffffffffffffffffffffffffffffffffffffffff\n      and\n        /* \"single_digital_contract.sol\":3791:3828  PaymentReleased(counterparty, amount) */\n      0xffffffffffffffffffffffffffffffffffffffff\n      and\n      0xdf20fd1e76bc69d672e4814fafb2c449bba3a5369d8359adf9e05e6fde87b056\n        /* \"single_digital_contract.sol\":3821:3827  amount */\n      sload(0x04)\n        /* \"single_digital_contract.sol\":3791:3828  PaymentReleased(counterparty, amount) */\n      mload(0x40)\n      tag_193\n      swap2\n      swap1\n      tag_61\n      jump\t// in\n    tag_193:\n      mload(0x40)\n      dup1\n      swap2\n      sub\n      swap1\n      log2\n        /* \"single_digital_contract.sol\":3544:3836  function confirmCompletion() public onlyCreator {... */\n      jump\t// out\n        /* \"single_digital_contract.sol\":531:552  uint256 public amount */\n    tag_59:\n      sload(0x04)\n      dup2\n      jump\t// out\n        /* \"single_digital_contract.sol\":2259:2455  function signContract() public onlyCounterparty {... */\n    tag_63:\n        /* \"single_digital_contract.sol\":1342:1354  counterparty */\n      0x02\n      0x00\n      swap1\n      sload\n      swap1\n      0x0100\n      exp\n      swap1\n      div\n      0xffffffffffffffffffffffffffffffffffffffff\n      and\n        /* \"single_digital_contract.sol\":1328:1354  msg.sender == counterparty */\n      0xffffffffffffffffffffffffffffffffffffffff\n      and\n        /* \"single_digital_contract.sol\":1328:1338  msg.sender */\n      caller\n        /* \"single_digital_contract.sol\":1328:1354  msg.sender == counterparty */\n      0xffffffffffffffffffffffffffffffffffffffff\n      and\n      eq\n        /* \"single_digital_contract.sol\":1320:1375  require(msg.sender == counterparty, \"Not counterparty\") */\n      tag_195\n      jumpi\n      mload(0x40)\n      0x08c379a000000000000000000000000000000000000000000000000000000000\n      dup2\n      mstore\n      0x04\n      add\n      tag_196\n      swap1\n      tag_91\n      jump\t// in\n    tag_196:\n      mload(0x40)\n      dup1\n      swap2\n      sub\n      swap1\n      revert\n    tag_195:\n        /* \"single_digital_contract.sol\":2336:2358  ContractStatus.Created */\n      0x00\n        /* \"single_digital_contract.sol\":2326:2358  status == ContractStatus.Created */\n      0x07\n      dup2\n      gt\n      iszero\n      tag_198\n      jumpi\n      tag_199\n      tag_95\n      jump\t// in\n    tag_199:\n    tag_198:\n        /* \"single_digital_contract.sol\":2326:2332  status */\n      0x05\n      0x00\n      swap1\n      sload\n      swap1\n      0x0100\n      exp\n      swap1\n      div\n      0xff\n      and\n        /* \"single_digital_contract.sol\":2326:2358  status == ContractStatus.Created */\n      0x07\n      dup2\n      gt\n      iszero\n      tag_200\n      jumpi\n      tag_201\n      tag_95\n      jump\t// in\n    tag_201:\n    tag_200:\n      eq\n        /* \"single_digital_contract.sol\":2318:2374  require(status == ContractStatus.Created, \"Not Created\") */\n      tag_202\n      jumpi\n      mload(0x40)\n      0x08c379a000000000000000000000000000000000000000000000000000000000\n      dup2\n      mstore\n      0x04\n      add\n      tag_203\n      swap1\n      tag_204\n      jump\t// in\n    tag_203:\n      mload(0x40)\n      dup1\n      swap2\n      sub\n      swap1\n      revert\n    tag_202:\n        /* \"single_digital_contract.sol\":2394:2415  ContractStatus.Signed */\n      0x01\n        /* \"single_digital_contract.sol\":2385:2391  status */\n      0x05\n      0x00\n        /* \"single_digital_contract.sol\":2385:2415  status = ContractStatus.Signed */\n      0x0100\n      exp\n      dup2\n      sload\n      dup2\n      0xff\n      mul\n      not\n      and\n      swap1\n      dup4\n      0x07\n      dup2\n      gt\n      iszero\n      tag_205\n      jumpi\n      tag_206\n      tag_95\n      jump\t// in\n    tag_206:\n    tag_205:\n      mul\n      or\n      swap1\n      sstore\n      pop\n        /* \"single_digital_contract.sol\":2431:2447  ContractSigned() */\n      0x986d851566001b0dbaded1a1f6815819b285e1dd1ac5dc1626f32903036d2f2b\n      mload(0x40)\n      mload(0x40)\n      dup1\n      swap2\n      sub\n      swap1\n      log1\n        /* \"single_digital_contract.sol\":2259:2455  function signContract() public onlyCounterparty {... */\n      jump\t// out\n        /* \"single_digital_contract.sol\":4318:4600  function deactivateContract() public onlyCreator {... */\n    tag_65:\n        /* \"single_digital_contract.sol\":1230:1237  creator */\n      0x01\n      0x00\n      swap1\n      sload\n      swap1\n      0x0100\n      exp\n      swap1\n      div\n      0xffffffffffffffffffffffffffffffffffffffff\n      and\n        /* \"single_digital_contract.sol\":1216:1237  msg.sender == creator */\n      0xffffffffffffffffffffffffffffffffffffffff\n      and\n        /* \"single_digital_contract.sol\":1216:1226  msg.sender */\n      caller\n        /* \"single_digital_contract.sol\":1216:1237  msg.sender == creator */\n      0xffffffffffffffffffffffffffffffffffffffff\n      and\n      eq\n        /* \"single_digital_contract.sol\":1208:1253  require(msg.sender == creator, \"Not creator\") */\n      tag_208\n      jumpi\n      mload(0x40)\n      0x08c379a000000000000000000000000000000000000000000000000000000000\n      dup2\n      mstore\n      0x04\n      add\n      tag_209\n      swap1\n      tag_156\n      jump\t// in\n    tag_209:\n      mload(0x40)\n      dup1\n      swap2\n      sub\n      swap1\n      revert\n    tag_208:\n        /* \"single_digital_contract.sol\":4396:4420  ContractStatus.Completed */\n      0x06\n        /* \"single_digital_contract.sol\":4386:4420  status == ContractStatus.Completed */\n      0x07\n      dup2\n      gt\n      iszero\n      tag_211\n      jumpi\n      tag_212\n      tag_95\n      jump\t// in\n    tag_212:\n    tag_211:\n        /* \"single_digital_contract.sol\":4386:4392  status */\n      0x05\n      0x00\n      swap1\n      sload\n      swap1\n      0x0100\n      exp\n      swap1\n      div\n      0xff\n      and\n        /* \"single_digital_contract.sol\":4386:4420  status == ContractStatus.Completed */\n      0x07\n      dup2\n      gt\n      iszero\n      tag_213\n      jumpi\n      tag_214\n      tag_95\n      jump\t// in\n    tag_214:\n    tag_213:\n      eq\n        /* \"single_digital_contract.sol\":4378:4439  require(status == ContractStatus.Completed, \"Only Completed\") */\n      tag_215\n      jumpi\n      mload(0x40)\n      0x08c379a000000000000000000000000000000000000000000000000000000000\n      dup2\n      mstore\n      0x04\n      add\n      tag_216\n      swap1\n      tag_217\n      jump\t// in\n    tag_216:\n      mload(0x40)\n      dup1\n      swap2\n      sub\n      swap1\n      revert\n    tag_215:\n        /* \"single_digital_contract.sol\":4459:4471  contractHash */\n      0x06\n        /* \"single_digital_contract.sol\":4452:4471  delete contractHash */\n      0x00\n      swap1\n      sstore\n        /* \"single_digital_contract.sol\":4489:4509  deliveryTrackingHash */\n      0x07\n        /* \"single_digital_contract.sol\":4482:4509  delete deliveryTrackingHash */\n      0x00\n      swap1\n      sstore\n        /* \"single_digital_contract.sol\":4529:4553  ContractStatus.Cancelled */\n      0x07\n        /* \"single_digital_contract.sol\":4520:4526  status */\n      0x05\n      0x00\n        /* \"single_digital_contract.sol\":4520:4553  status = ContractStatus.Cancelled */\n      0x0100\n      exp\n      dup2\n      sload\n      dup2\n      0xff\n      mul\n      not\n      and\n      swap1\n      dup4\n      0x07\n      dup2\n      gt\n      iszero\n      tag_218\n      jumpi\n      tag_219\n      tag_95\n      jump\t// in\n    tag_219:\n    tag_218:\n      mul\n      or\n      swap1\n      sstore\n      pop\n        /* \"single_digital_contract.sol\":4571:4592  ContractDeactivated() */\n      0x8c8771d60e1ae6b90556d35dc2f79a3190d6b4088c05d7ca8cabbb9e9061f3e5\n      mload(0x40)\n      mload(0x40)\n      dup1\n      swap2\n      sub\n      swap1\n      log1\n        /* \"single_digital_contract.sol\":4318:4600  function deactivateContract() public onlyCreator {... */\n      jump\t// out\n        /* \"single_digital_contract.sol\":4608:4706  function getContractStatus() public view returns (ContractStatus) {... */\n    tag_67:\n        /* \"single_digital_contract.sol\":4658:4672  ContractStatus */\n      0x00\n        /* \"single_digital_contract.sol\":4692:4698  status */\n      0x05\n      0x00\n      swap1\n      sload\n      swap1\n      0x0100\n      exp\n      swap1\n      div\n      0xff\n      and\n        /* \"single_digital_contract.sol\":4685:4698  return status */\n      swap1\n      pop\n        /* \"single_digital_contract.sol\":4608:4706  function getContractStatus() public view returns (ContractStatus) {... */\n      swap1\n      jump\t// out\n        /* \"single_digital_contract.sol\":431:466  address payable public counterparty */\n    tag_70:\n      0x02\n      0x00\n      swap1\n      sload\n      swap1\n      0x0100\n      exp\n      swap1\n      div\n      0xffffffffffffffffffffffffffffffffffffffff\n      and\n      dup2\n      jump\t// out\n        /* \"single_digital_contract.sol\":705:726  bool public withdrawn */\n    tag_73:\n      0x08\n      0x01\n      swap1\n      sload\n      swap1\n      0x0100\n      exp\n      swap1\n      div\n      0xff\n      and\n      dup2\n      jump\t// out\n        /* \"single_digital_contract.sol\":670:698  bool public deliveryRequired */\n    tag_77:\n      0x08\n      0x00\n      swap1\n      sload\n      swap1\n      0x0100\n      exp\n      swap1\n      div\n      0xff\n      and\n      dup2\n      jump\t// out\n        /* \"single_digital_contract.sol\":628:663  bytes32 public deliveryTrackingHash */\n    tag_80:\n      sload(0x07)\n      dup2\n      jump\t// out\n        /* \"single_digital_contract.sol\":501:522  bool public oracleSet */\n    tag_83:\n      0x03\n      0x14\n      swap1\n      sload\n      swap1\n      0x0100\n      exp\n      swap1\n      div\n      0xff\n      and\n      dup2\n      jump\t// out\n        /* \"@openzeppelin/contracts/security/ReentrancyGuard.sol\":2336:2623  function _nonReentrantBefore() private {... */\n    tag_87:\n        /* \"@openzeppelin/contracts/security/ReentrancyGuard.sol\":1759:1760  2 */\n      0x02\n        /* \"@openzeppelin/contracts/security/ReentrancyGuard.sol\":2468:2475  _status */\n      sload(0x00)\n        /* \"@openzeppelin/contracts/security/ReentrancyGuard.sol\":2468:2487  _status != _ENTERED */\n      sub\n        /* \"@openzeppelin/contracts/security/ReentrancyGuard.sol\":2460:2523  require(_status != _ENTERED, \"ReentrancyGuard: reentrant call\") */\n      tag_222\n      jumpi\n      mload(0x40)\n      0x08c379a000000000000000000000000000000000000000000000000000000000\n      dup2\n      mstore\n      0x04\n      add\n      tag_223\n      swap1\n      tag_224\n      jump\t// in\n    tag_223:\n      mload(0x40)\n      dup1\n      swap2\n      sub\n      swap1\n      revert\n    tag_222:\n        /* \"@openzeppelin/contracts/security/ReentrancyGuard.sol\":1759:1760  2 */\n      0x02\n        /* \"@openzeppelin/contracts/security/ReentrancyGuard.sol\":2598:2605  _status */\n      0x00\n        /* \"@openzeppelin/contracts/security/ReentrancyGuard.sol\":2598:2616  _status = _ENTERED */\n      dup2\n      swap1\n      sstore\n      pop\n        /* \"@openzeppelin/contracts/security/ReentrancyGuard.sol\":2336:2623  function _nonReentrantBefore() private {... */\n      jump\t// out\n        /* \"@openzeppelin/contracts/security/ReentrancyGuard.sol\":2629:2838  function _nonReentrantAfter() private {... */\n    tag_115:\n        /* \"@openzeppelin/contracts/security/ReentrancyGuard.sol\":1716:1717  1 */\n      0x01\n        /* \"@openzeppelin/contracts/security/ReentrancyGuard.sol\":2809:2816  _status */\n      0x00\n        /* \"@openzeppelin/contracts/security/ReentrancyGuard.sol\":2809:2831  _status = _NOT_ENTERED */\n      dup2\n      swap1\n      sstore\n      pop\n        /* \"@openzeppelin/contracts/security/ReentrancyGuard.sol\":2629:2838  function _nonReentrantAfter() private {... */\n      jump\t// out\n        /* \"#utility.yul\":7:133   */\n    tag_226:\n        /* \"#utility.yul\":44:51   */\n      0x00\n        /* \"#utility.yul\":84:126   */\n      0xffffffffffffffffffffffffffffffffffffffff\n        /* \"#utility.yul\":77:82   */\n      dup3\n        /* \"#utility.yul\":73:127   */\n      and\n        /* \"#utility.yul\":62:127   */\n      swap1\n      pop\n        /* \"#utility.yul\":7:133   */\n      swap2\n      swap1\n      pop\n      jump\t// out\n        /* \"#utility.yul\":139:243   */\n    tag_227:\n        /* \"#utility.yul\":184:191   */\n      0x00\n        /* \"#utility.yul\":213:237   */\n      tag_286\n        /* \"#utility.yul\":231:236   */\n      dup3\n        /* \"#utility.yul\":213:237   */\n      tag_226\n      jump\t// in\n    tag_286:\n        /* \"#utility.yul\":202:237   */\n      swap1\n      pop\n        /* \"#utility.yul\":139:243   */\n      swap2\n      swap1\n      pop\n      jump\t// out\n        /* \"#utility.yul\":249:391   */\n    tag_228:\n        /* \"#utility.yul\":352:384   */\n      tag_288\n        /* \"#utility.yul\":378:383   */\n      dup2\n        /* \"#utility.yul\":352:384   */\n      tag_227\n      jump\t// in\n    tag_288:\n        /* \"#utility.yul\":347:350   */\n      dup3\n        /* \"#utility.yul\":340:385   */\n      mstore\n        /* \"#utility.yul\":249:391   */\n      pop\n      pop\n      jump\t// out\n        /* \"#utility.yul\":397:651   */\n    tag_28:\n        /* \"#utility.yul\":506:510   */\n      0x00\n        /* \"#utility.yul\":544:546   */\n      0x20\n        /* \"#utility.yul\":533:542   */\n      dup3\n        /* \"#utility.yul\":529:547   */\n      add\n        /* \"#utility.yul\":521:547   */\n      swap1\n      pop\n        /* \"#utility.yul\":557:644   */\n      tag_290\n        /* \"#utility.yul\":641:642   */\n      0x00\n        /* \"#utility.yul\":630:639   */\n      dup4\n        /* \"#utility.yul\":626:643   */\n      add\n        /* \"#utility.yul\":617:623   */\n      dup5\n        /* \"#utility.yul\":557:644   */\n      tag_228\n      jump\t// in\n    tag_290:\n        /* \"#utility.yul\":397:651   */\n      swap3\n      swap2\n      pop\n      pop\n      jump\t// out\n        /* \"#utility.yul\":657:837   */\n    tag_95:\n        /* \"#utility.yul\":705:782   */\n      0x4e487b7100000000000000000000000000000000000000000000000000000000\n        /* \"#utility.yul\":702:703   */\n      0x00\n        /* \"#utility.yul\":695:783   */\n      mstore\n        /* \"#utility.yul\":802:806   */\n      0x21\n        /* \"#utility.yul\":799:800   */\n      0x04\n        /* \"#utility.yul\":792:807   */\n      mstore\n        /* \"#utility.yul\":826:830   */\n      0x24\n        /* \"#utility.yul\":823:824   */\n      0x00\n        /* \"#utility.yul\":816:831   */\n      revert\n        /* \"#utility.yul\":843:965   */\n    tag_229:\n        /* \"#utility.yul\":933:934   */\n      0x08\n        /* \"#utility.yul\":926:931   */\n      dup2\n        /* \"#utility.yul\":923:935   */\n      lt\n        /* \"#utility.yul\":913:959   */\n      tag_293\n      jumpi\n        /* \"#utility.yul\":939:957   */\n      tag_294\n      tag_95\n      jump\t// in\n    tag_294:\n        /* \"#utility.yul\":913:959   */\n    tag_293:\n        /* \"#utility.yul\":843:965   */\n      pop\n      jump\t// out\n        /* \"#utility.yul\":971:1116   */\n    tag_230:\n        /* \"#utility.yul\":1025:1032   */\n      0x00\n        /* \"#utility.yul\":1054:1059   */\n      dup2\n        /* \"#utility.yul\":1043:1059   */\n      swap1\n      pop\n        /* \"#utility.yul\":1060:1110   */\n      tag_296\n        /* \"#utility.yul\":1104:1109   */\n      dup3\n        /* \"#utility.yul\":1060:1110   */\n      tag_229\n      jump\t// in\n    tag_296:\n        /* \"#utility.yul\":971:1116   */\n      swap2\n      swap1\n      pop\n      jump\t// out\n        /* \"#utility.yul\":1122:1267   */\n    tag_231:\n        /* \"#utility.yul\":1187:1196   */\n      0x00\n        /* \"#utility.yul\":1220:1261   */\n      tag_298\n        /* \"#utility.yul\":1255:1260   */\n      dup3\n        /* \"#utility.yul\":1220:1261   */\n      tag_230\n      jump\t// in\n    tag_298:\n        /* \"#utility.yul\":1207:1261   */\n      swap1\n      pop\n        /* \"#utility.yul\":1122:1267   */\n      swap2\n      swap1\n      pop\n      jump\t// out\n        /* \"#utility.yul\":1273:1434   */\n    tag_232:\n        /* \"#utility.yul\":1375:1427   */\n      tag_300\n        /* \"#utility.yul\":1421:1426   */\n      dup2\n        /* \"#utility.yul\":1375:1427   */\n      tag_231\n      jump\t// in\n    tag_300:\n        /* \"#utility.yul\":1370:1373   */\n      dup3\n        /* \"#utility.yul\":1363:1428   */\n      mstore\n        /* \"#utility.yul\":1273:1434   */\n      pop\n      pop\n      jump\t// out\n        /* \"#utility.yul\":1440:1692   */\n    tag_32:\n        /* \"#utility.yul\":1548:1552   */\n      0x00\n        /* \"#utility.yul\":1586:1588   */\n      0x20\n        /* \"#utility.yul\":1575:1584   */\n      dup3\n        /* \"#utility.yul\":1571:1589   */\n      add\n        /* \"#utility.yul\":1563:1589   */\n      swap1\n      pop\n        /* \"#utility.yul\":1599:1685   */\n      tag_302\n        /* \"#utility.yul\":1682:1683   */\n      0x00\n        /* \"#utility.yul\":1671:1680   */\n      dup4\n        /* \"#utility.yul\":1667:1684   */\n      add\n        /* \"#utility.yul\":1658:1664   */\n      dup5\n        /* \"#utility.yul\":1599:1685   */\n      tag_232\n      jump\t// in\n    tag_302:\n        /* \"#utility.yul\":1440:1692   */\n      swap3\n      swap2\n      pop\n      pop\n      jump\t// out\n        /* \"#utility.yul\":1779:1896   */\n    tag_234:\n        /* \"#utility.yul\":1888:1889   */\n      0x00\n        /* \"#utility.yul\":1885:1886   */\n      0x00\n        /* \"#utility.yul\":1878:1890   */\n      revert\n        /* \"#utility.yul\":2025:2102   */\n    tag_236:\n        /* \"#utility.yul\":2062:2069   */\n      0x00\n        /* \"#utility.yul\":2091:2096   */\n      dup2\n        /* \"#utility.yul\":2080:2096   */\n      swap1\n      pop\n        /* \"#utility.yul\":2025:2102   */\n      swap2\n      swap1\n      pop\n      jump\t// out\n        /* \"#utility.yul\":2108:2230   */\n    tag_237:\n        /* \"#utility.yul\":2181:2205   */\n      tag_308\n        /* \"#utility.yul\":2199:2204   */\n      dup2\n        /* \"#utility.yul\":2181:2205   */\n      tag_236\n      jump\t// in\n    tag_308:\n        /* \"#utility.yul\":2174:2179   */\n      dup2\n        /* \"#utility.yul\":2171:2206   */\n      eq\n        /* \"#utility.yul\":2161:2224   */\n      tag_309\n      jumpi\n        /* \"#utility.yul\":2220:2221   */\n      0x00\n        /* \"#utility.yul\":2217:2218   */\n      0x00\n        /* \"#utility.yul\":2210:2222   */\n      revert\n        /* \"#utility.yul\":2161:2224   */\n    tag_309:\n        /* \"#utility.yul\":2108:2230   */\n      pop\n      jump\t// out\n        /* \"#utility.yul\":2236:2375   */\n    tag_238:\n        /* \"#utility.yul\":2282:2287   */\n      0x00\n        /* \"#utility.yul\":2320:2326   */\n      dup2\n        /* \"#utility.yul\":2307:2327   */\n      calldataload\n        /* \"#utility.yul\":2298:2327   */\n      swap1\n      pop\n        /* \"#utility.yul\":2336:2369   */\n      tag_311\n        /* \"#utility.yul\":2363:2368   */\n      dup2\n        /* \"#utility.yul\":2336:2369   */\n      tag_237\n      jump\t// in\n    tag_311:\n        /* \"#utility.yul\":2236:2375   */\n      swap3\n      swap2\n      pop\n      pop\n      jump\t// out\n        /* \"#utility.yul\":2381:2710   */\n    tag_37:\n        /* \"#utility.yul\":2440:2446   */\n      0x00\n        /* \"#utility.yul\":2489:2491   */\n      0x20\n        /* \"#utility.yul\":2477:2486   */\n      dup3\n        /* \"#utility.yul\":2468:2475   */\n      dup5\n        /* \"#utility.yul\":2464:2487   */\n      sub\n        /* \"#utility.yul\":2460:2492   */\n      slt\n        /* \"#utility.yul\":2457:2576   */\n      iszero\n      tag_313\n      jumpi\n        /* \"#utility.yul\":2495:2574   */\n      tag_314\n      tag_234\n      jump\t// in\n    tag_314:\n        /* \"#utility.yul\":2457:2576   */\n    tag_313:\n        /* \"#utility.yul\":2615:2616   */\n      0x00\n        /* \"#utility.yul\":2640:2693   */\n      tag_315\n        /* \"#utility.yul\":2685:2692   */\n      dup5\n        /* \"#utility.yul\":2676:2682   */\n      dup3\n        /* \"#utility.yul\":2665:2674   */\n      dup6\n        /* \"#utility.yul\":2661:2683   */\n      add\n        /* \"#utility.yul\":2640:2693   */\n      tag_238\n      jump\t// in\n    tag_315:\n        /* \"#utility.yul\":2630:2693   */\n      swap2\n      pop\n        /* \"#utility.yul\":2586:2703   */\n      pop\n        /* \"#utility.yul\":2381:2710   */\n      swap3\n      swap2\n      pop\n      pop\n      jump\t// out\n        /* \"#utility.yul\":2716:2812   */\n    tag_239:\n        /* \"#utility.yul\":2753:2760   */\n      0x00\n        /* \"#utility.yul\":2782:2806   */\n      tag_317\n        /* \"#utility.yul\":2800:2805   */\n      dup3\n        /* \"#utility.yul\":2782:2806   */\n      tag_226\n      jump\t// in\n    tag_317:\n        /* \"#utility.yul\":2771:2806   */\n      swap1\n      pop\n        /* \"#utility.yul\":2716:2812   */\n      swap2\n      swap1\n      pop\n      jump\t// out\n        /* \"#utility.yul\":2818:2940   */\n    tag_240:\n        /* \"#utility.yul\":2891:2915   */\n      tag_319\n        /* \"#utility.yul\":2909:2914   */\n      dup2\n        /* \"#utility.yul\":2891:2915   */\n      tag_239\n      jump\t// in\n    tag_319:\n        /* \"#utility.yul\":2884:2889   */\n      dup2\n        /* \"#utility.yul\":2881:2916   */\n      eq\n        /* \"#utility.yul\":2871:2934   */\n      tag_320\n      jumpi\n        /* \"#utility.yul\":2930:2931   */\n      0x00\n        /* \"#utility.yul\":2927:2928   */\n      0x00\n        /* \"#utility.yul\":2920:2932   */\n      revert\n        /* \"#utility.yul\":2871:2934   */\n    tag_320:\n        /* \"#utility.yul\":2818:2940   */\n      pop\n      jump\t// out\n        /* \"#utility.yul\":2946:3085   */\n    tag_241:\n        /* \"#utility.yul\":2992:2997   */\n      0x00\n        /* \"#utility.yul\":3030:3036   */\n      dup2\n        /* \"#utility.yul\":3017:3037   */\n      calldataload\n        /* \"#utility.yul\":3008:3037   */\n      swap1\n      pop\n        /* \"#utility.yul\":3046:3079   */\n      tag_322\n        /* \"#utility.yul\":3073:3078   */\n      dup2\n        /* \"#utility.yul\":3046:3079   */\n      tag_240\n      jump\t// in\n    tag_322:\n        /* \"#utility.yul\":2946:3085   */\n      swap3\n      swap2\n      pop\n      pop\n      jump\t// out\n        /* \"#utility.yul\":3091:3420   */\n    tag_46:\n        /* \"#utility.yul\":3150:3156   */\n      0x00\n        /* \"#utility.yul\":3199:3201   */\n      0x20\n        /* \"#utility.yul\":3187:3196   */\n      dup3\n        /* \"#utility.yul\":3178:3185   */\n      dup5\n        /* \"#utility.yul\":3174:3197   */\n      sub\n        /* \"#utility.yul\":3170:3202   */\n      slt\n        /* \"#utility.yul\":3167:3286   */\n      iszero\n      tag_324\n      jumpi\n        /* \"#utility.yul\":3205:3284   */\n      tag_325\n      tag_234\n      jump\t// in\n    tag_325:\n        /* \"#utility.yul\":3167:3286   */\n    tag_324:\n        /* \"#utility.yul\":3325:3326   */\n      0x00\n        /* \"#utility.yul\":3350:3403   */\n      tag_326\n        /* \"#utility.yul\":3395:3402   */\n      dup5\n        /* \"#utility.yul\":3386:3392   */\n      dup3\n        /* \"#utility.yul\":3375:3384   */\n      dup6\n        /* \"#utility.yul\":3371:3393   */\n      add\n        /* \"#utility.yul\":3350:3403   */\n      tag_241\n      jump\t// in\n    tag_326:\n        /* \"#utility.yul\":3340:3403   */\n      swap2\n      pop\n        /* \"#utility.yul\":3296:3413   */\n      pop\n        /* \"#utility.yul\":3091:3420   */\n      swap3\n      swap2\n      pop\n      pop\n      jump\t// out\n        /* \"#utility.yul\":3426:3544   */\n    tag_242:\n        /* \"#utility.yul\":3513:3537   */\n      tag_328\n        /* \"#utility.yul\":3531:3536   */\n      dup2\n        /* \"#utility.yul\":3513:3537   */\n      tag_239\n      jump\t// in\n    tag_328:\n        /* \"#utility.yul\":3508:3511   */\n      dup3\n        /* \"#utility.yul\":3501:3538   */\n      mstore\n        /* \"#utility.yul\":3426:3544   */\n      pop\n      pop\n      jump\t// out\n        /* \"#utility.yul\":3550:3772   */\n    tag_51:\n        /* \"#utility.yul\":3643:3647   */\n      0x00\n        /* \"#utility.yul\":3681:3683   */\n      0x20\n        /* \"#utility.yul\":3670:3679   */\n      dup3\n        /* \"#utility.yul\":3666:3684   */\n      add\n        /* \"#utility.yul\":3658:3684   */\n      swap1\n      pop\n        /* \"#utility.yul\":3694:3765   */\n      tag_330\n        /* \"#utility.yul\":3762:3763   */\n      0x00\n        /* \"#utility.yul\":3751:3760   */\n      dup4\n        /* \"#utility.yul\":3747:3764   */\n      add\n        /* \"#utility.yul\":3738:3744   */\n      dup5\n        /* \"#utility.yul\":3694:3765   */\n      tag_242\n      jump\t// in\n    tag_330:\n        /* \"#utility.yul\":3550:3772   */\n      swap3\n      swap2\n      pop\n      pop\n      jump\t// out\n        /* \"#utility.yul\":3778:3896   */\n    tag_243:\n        /* \"#utility.yul\":3865:3889   */\n      tag_332\n        /* \"#utility.yul\":3883:3888   */\n      dup2\n        /* \"#utility.yul\":3865:3889   */\n      tag_236\n      jump\t// in\n    tag_332:\n        /* \"#utility.yul\":3860:3863   */\n      dup3\n        /* \"#utility.yul\":3853:3890   */\n      mstore\n        /* \"#utility.yul\":3778:3896   */\n      pop\n      pop\n      jump\t// out\n        /* \"#utility.yul\":3902:4124   */\n    tag_55:\n        /* \"#utility.yul\":3995:3999   */\n      0x00\n        /* \"#utility.yul\":4033:4035   */\n      0x20\n        /* \"#utility.yul\":4022:4031   */\n      dup3\n        /* \"#utility.yul\":4018:4036   */\n      add\n        /* \"#utility.yul\":4010:4036   */\n      swap1\n      pop\n        /* \"#utility.yul\":4046:4117   */\n      tag_334\n        /* \"#utility.yul\":4114:4115   */\n      0x00\n        /* \"#utility.yul\":4103:4112   */\n      dup4\n        /* \"#utility.yul\":4099:4116   */\n      add\n        /* \"#utility.yul\":4090:4096   */\n      dup5\n        /* \"#utility.yul\":4046:4117   */\n      tag_243\n      jump\t// in\n    tag_334:\n        /* \"#utility.yul\":3902:4124   */\n      swap3\n      swap2\n      pop\n      pop\n      jump\t// out\n        /* \"#utility.yul\":4130:4207   */\n    tag_244:\n        /* \"#utility.yul\":4167:4174   */\n      0x00\n        /* \"#utility.yul\":4196:4201   */\n      dup2\n        /* \"#utility.yul\":4185:4201   */\n      swap1\n      pop\n        /* \"#utility.yul\":4130:4207   */\n      swap2\n      swap1\n      pop\n      jump\t// out\n        /* \"#utility.yul\":4213:4331   */\n    tag_245:\n        /* \"#utility.yul\":4300:4324   */\n      tag_337\n        /* \"#utility.yul\":4318:4323   */\n      dup2\n        /* \"#utility.yul\":4300:4324   */\n      tag_244\n      jump\t// in\n    tag_337:\n        /* \"#utility.yul\":4295:4298   */\n      dup3\n        /* \"#utility.yul\":4288:4325   */\n      mstore\n        /* \"#utility.yul\":4213:4331   */\n      pop\n      pop\n      jump\t// out\n        /* \"#utility.yul\":4337:4559   */\n    tag_61:\n        /* \"#utility.yul\":4430:4434   */\n      0x00\n        /* \"#utility.yul\":4468:4470   */\n      0x20\n        /* \"#utility.yul\":4457:4466   */\n      dup3\n        /* \"#utility.yul\":4453:4471   */\n      add\n        /* \"#utility.yul\":4445:4471   */\n      swap1\n      pop\n        /* \"#utility.yul\":4481:4552   */\n      tag_339\n        /* \"#utility.yul\":4549:4550   */\n      0x00\n        /* \"#utility.yul\":4538:4547   */\n      dup4\n        /* \"#utility.yul\":4534:4551   */\n      add\n        /* \"#utility.yul\":4525:4531   */\n      dup5\n        /* \"#utility.yul\":4481:4552   */\n      tag_245\n      jump\t// in\n    tag_339:\n        /* \"#utility.yul\":4337:4559   */\n      swap3\n      swap2\n      pop\n      pop\n      jump\t// out\n        /* \"#utility.yul\":4565:4655   */\n    tag_246:\n        /* \"#utility.yul\":4599:4606   */\n      0x00\n        /* \"#utility.yul\":4642:4647   */\n      dup2\n        /* \"#utility.yul\":4635:4648   */\n      iszero\n        /* \"#utility.yul\":4628:4649   */\n      iszero\n        /* \"#utility.yul\":4617:4649   */\n      swap1\n      pop\n        /* \"#utility.yul\":4565:4655   */\n      swap2\n      swap1\n      pop\n      jump\t// out\n        /* \"#utility.yul\":4661:4770   */\n    tag_247:\n        /* \"#utility.yul\":4742:4763   */\n      tag_342\n        /* \"#utility.yul\":4757:4762   */\n      dup2\n        /* \"#utility.yul\":4742:4763   */\n      tag_246\n      jump\t// in\n    tag_342:\n        /* \"#utility.yul\":4737:4740   */\n      dup3\n        /* \"#utility.yul\":4730:4764   */\n      mstore\n        /* \"#utility.yul\":4661:4770   */\n      pop\n      pop\n      jump\t// out\n        /* \"#utility.yul\":4776:4986   */\n    tag_75:\n        /* \"#utility.yul\":4863:4867   */\n      0x00\n        /* \"#utility.yul\":4901:4903   */\n      0x20\n        /* \"#utility.yul\":4890:4899   */\n      dup3\n        /* \"#utility.yul\":4886:4904   */\n      add\n        /* \"#utility.yul\":4878:4904   */\n      swap1\n      pop\n        /* \"#utility.yul\":4914:4979   */\n      tag_344\n        /* \"#utility.yul\":4976:4977   */\n      0x00\n        /* \"#utility.yul\":4965:4974   */\n      dup4\n        /* \"#utility.yul\":4961:4978   */\n      add\n        /* \"#utility.yul\":4952:4958   */\n      dup5\n        /* \"#utility.yul\":4914:4979   */\n      tag_247\n      jump\t// in\n    tag_344:\n        /* \"#utility.yul\":4776:4986   */\n      swap3\n      swap2\n      pop\n      pop\n      jump\t// out\n        /* \"#utility.yul\":4992:5161   */\n    tag_248:\n        /* \"#utility.yul\":5076:5087   */\n      0x00\n        /* \"#utility.yul\":5110:5116   */\n      dup3\n        /* \"#utility.yul\":5105:5108   */\n      dup3\n        /* \"#utility.yul\":5098:5117   */\n      mstore\n        /* \"#utility.yul\":5150:5154   */\n      0x20\n        /* \"#utility.yul\":5145:5148   */\n      dup3\n        /* \"#utility.yul\":5141:5155   */\n      add\n        /* \"#utility.yul\":5126:5155   */\n      swap1\n      pop\n        /* \"#utility.yul\":4992:5161   */\n      swap3\n      swap2\n      pop\n      pop\n      jump\t// out\n        /* \"#utility.yul\":5167:5333   */\n    tag_249:\n        /* \"#utility.yul\":5307:5325   */\n      0x4e6f7420636f756e746572706172747900000000000000000000000000000000\n        /* \"#utility.yul\":5303:5304   */\n      0x00\n        /* \"#utility.yul\":5295:5301   */\n      dup3\n        /* \"#utility.yul\":5291:5305   */\n      add\n        /* \"#utility.yul\":5284:5326   */\n      mstore\n        /* \"#utility.yul\":5167:5333   */\n      pop\n      jump\t// out\n        /* \"#utility.yul\":5339:5705   */\n    tag_250:\n        /* \"#utility.yul\":5481:5484   */\n      0x00\n        /* \"#utility.yul\":5502:5569   */\n      tag_348\n        /* \"#utility.yul\":5566:5568   */\n      0x10\n        /* \"#utility.yul\":5561:5564   */\n      dup4\n        /* \"#utility.yul\":5502:5569   */\n      tag_248\n      jump\t// in\n    tag_348:\n        /* \"#utility.yul\":5495:5569   */\n      swap2\n      pop\n        /* \"#utility.yul\":5578:5671   */\n      tag_349\n        /* \"#utility.yul\":5667:5670   */\n      dup3\n        /* \"#utility.yul\":5578:5671   */\n      tag_249\n      jump\t// in\n    tag_349:\n        /* \"#utility.yul\":5696:5698   */\n      0x20\n        /* \"#utility.yul\":5691:5694   */\n      dup3\n        /* \"#utility.yul\":5687:5699   */\n      add\n        /* \"#utility.yul\":5680:5699   */\n      swap1\n      pop\n        /* \"#utility.yul\":5339:5705   */\n      swap2\n      swap1\n      pop\n      jump\t// out\n        /* \"#utility.yul\":5711:6130   */\n    tag_91:\n        /* \"#utility.yul\":5877:5881   */\n      0x00\n        /* \"#utility.yul\":5915:5917   */\n      0x20\n        /* \"#utility.yul\":5904:5913   */\n      dup3\n        /* \"#utility.yul\":5900:5918   */\n      add\n        /* \"#utility.yul\":5892:5918   */\n      swap1\n      pop\n        /* \"#utility.yul\":5964:5973   */\n      dup2\n        /* \"#utility.yul\":5958:5962   */\n      dup2\n        /* \"#utility.yul\":5954:5974   */\n      sub\n        /* \"#utility.yul\":5950:5951   */\n      0x00\n        /* \"#utility.yul\":5939:5948   */\n      dup4\n        /* \"#utility.yul\":5935:5952   */\n      add\n        /* \"#utility.yul\":5928:5975   */\n      mstore\n        /* \"#utility.yul\":5992:6123   */\n      tag_351\n        /* \"#utility.yul\":6118:6122   */\n      dup2\n        /* \"#utility.yul\":5992:6123   */\n      tag_250\n      jump\t// in\n    tag_351:\n        /* \"#utility.yul\":5984:6123   */\n      swap1\n      pop\n        /* \"#utility.yul\":5711:6130   */\n      swap2\n      swap1\n      pop\n      jump\t// out\n        /* \"#utility.yul\":6136:6302   */\n    tag_251:\n        /* \"#utility.yul\":6276:6294   */\n      0x4e6f7420776974686472617761626c6500000000000000000000000000000000\n        /* \"#utility.yul\":6272:6273   */\n      0x00\n        /* \"#utility.yul\":6264:6270   */\n      dup3\n        /* \"#utility.yul\":6260:6274   */\n      add\n        /* \"#utility.yul\":6253:6295   */\n      mstore\n        /* \"#utility.yul\":6136:6302   */\n      pop\n      jump\t// out\n        /* \"#utility.yul\":6308:6674   */\n    tag_252:\n        /* \"#utility.yul\":6450:6453   */\n      0x00\n        /* \"#utility.yul\":6471:6538   */\n      tag_354\n        /* \"#utility.yul\":6535:6537   */\n      0x10\n        /* \"#utility.yul\":6530:6533   */\n      dup4\n        /* \"#utility.yul\":6471:6538   */\n      tag_248\n      jump\t// in\n    tag_354:\n        /* \"#utility.yul\":6464:6538   */\n      swap2\n      pop\n        /* \"#utility.yul\":6547:6640   */\n      tag_355\n        /* \"#utility.yul\":6636:6639   */\n      dup3\n        /* \"#utility.yul\":6547:6640   */\n      tag_251\n      jump\t// in\n    tag_355:\n        /* \"#utility.yul\":6665:6667   */\n      0x20\n        /* \"#utility.yul\":6660:6663   */\n      dup3\n        /* \"#utility.yul\":6656:6668   */\n      add\n        /* \"#utility.yul\":6649:6668   */\n      swap1\n      pop\n        /* \"#utility.yul\":6308:6674   */\n      swap2\n      swap1\n      pop\n      jump\t// out\n        /* \"#utility.yul\":6680:7099   */\n    tag_105:\n        /* \"#utility.yul\":6846:6850   */\n      0x00\n        /* \"#utility.yul\":6884:6886   */\n      0x20\n        /* \"#utility.yul\":6873:6882   */\n      dup3\n        /* \"#utility.yul\":6869:6887   */\n      add\n        /* \"#utility.yul\":6861:6887   */\n      swap1\n      pop\n        /* \"#utility.yul\":6933:6942   */\n      dup2\n        /* \"#utility.yul\":6927:6931   */\n      dup2\n        /* \"#utility.yul\":6923:6943   */\n      sub\n        /* \"#utility.yul\":6919:6920   */\n      0x00\n        /* \"#utility.yul\":6908:6917   */\n      dup4\n        /* \"#utility.yul\":6904:6921   */\n      add\n        /* \"#utility.yul\":6897:6944   */\n      mstore\n        /* \"#utility.yul\":6961:7092   */\n      tag_357\n        /* \"#utility.yul\":7087:7091   */\n      dup2\n        /* \"#utility.yul\":6961:7092   */\n      tag_252\n      jump\t// in\n    tag_357:\n        /* \"#utility.yul\":6953:7092   */\n      swap1\n      pop\n        /* \"#utility.yul\":6680:7099   */\n      swap2\n      swap1\n      pop\n      jump\t// out\n        /* \"#utility.yul\":7105:7272   */\n    tag_253:\n        /* \"#utility.yul\":7245:7264   */\n      0x416c72656164792077697468647261776e000000000000000000000000000000\n        /* \"#utility.yul\":7241:7242   */\n      0x00\n        /* \"#utility.yul\":7233:7239   */\n      dup3\n        /* \"#utility.yul\":7229:7243   */\n      add\n        /* \"#utility.yul\":7222:7265   */\n      mstore\n        /* \"#utility.yul\":7105:7272   */\n      pop\n      jump\t// out\n        /* \"#utility.yul\":7278:7644   */\n    tag_254:\n        /* \"#utility.yul\":7420:7423   */\n      0x00\n        /* \"#utility.yul\":7441:7508   */\n      tag_360\n        /* \"#utility.yul\":7505:7507   */\n      0x11\n        /* \"#utility.yul\":7500:7503   */\n      dup4\n        /* \"#utility.yul\":7441:7508   */\n      tag_248\n      jump\t// in\n    tag_360:\n        /* \"#utility.yul\":7434:7508   */\n      swap2\n      pop\n        /* \"#utility.yul\":7517:7610   */\n      tag_361\n        /* \"#utility.yul\":7606:7609   */\n      dup3\n        /* \"#utility.yul\":7517:7610   */\n      tag_253\n      jump\t// in\n    tag_361:\n        /* \"#utility.yul\":7635:7637   */\n      0x20\n        /* \"#utility.yul\":7630:7633   */\n      dup3\n        /* \"#utility.yul\":7626:7638   */\n      add\n        /* \"#utility.yul\":7619:7638   */\n      swap1\n      pop\n        /* \"#utility.yul\":7278:7644   */\n      swap2\n      swap1\n      pop\n      jump\t// out\n        /* \"#utility.yul\":7650:8069   */\n    tag_108:\n        /* \"#utility.yul\":7816:7820   */\n      0x00\n        /* \"#utility.yul\":7854:7856   */\n      0x20\n        /* \"#utility.yul\":7843:7852   */\n      dup3\n        /* \"#utility.yul\":7839:7857   */\n      add\n        /* \"#utility.yul\":7831:7857   */\n      swap1\n      pop\n        /* \"#utility.yul\":7903:7912   */\n      dup2\n        /* \"#utility.yul\":7897:7901   */\n      dup2\n        /* \"#utility.yul\":7893:7913   */\n      sub\n        /* \"#utility.yul\":7889:7890   */\n      0x00\n        /* \"#utility.yul\":7878:7887   */\n      dup4\n        /* \"#utility.yul\":7874:7891   */\n      add\n        /* \"#utility.yul\":7867:7914   */\n      mstore\n        /* \"#utility.yul\":7931:8062   */\n      tag_363\n        /* \"#utility.yul\":8057:8061   */\n      dup2\n        /* \"#utility.yul\":7931:8062   */\n      tag_254\n      jump\t// in\n    tag_363:\n        /* \"#utility.yul\":7923:8062   */\n      swap1\n      pop\n        /* \"#utility.yul\":7650:8069   */\n      swap2\n      swap1\n      pop\n      jump\t// out\n        /* \"#utility.yul\":8075:8235   */\n    tag_255:\n        /* \"#utility.yul\":8215:8227   */\n      0x4e6f74205369676e656400000000000000000000000000000000000000000000\n        /* \"#utility.yul\":8211:8212   */\n      0x00\n        /* \"#utility.yul\":8203:8209   */\n      dup3\n        /* \"#utility.yul\":8199:8213   */\n      add\n        /* \"#utility.yul\":8192:8228   */\n      mstore\n        /* \"#utility.yul\":8075:8235   */\n      pop\n      jump\t// out\n        /* \"#utility.yul\":8241:8607   */\n    tag_256:\n        /* \"#utility.yul\":8383:8386   */\n      0x00\n        /* \"#utility.yul\":8404:8471   */\n      tag_366\n        /* \"#utility.yul\":8468:8470   */\n      0x0a\n        /* \"#utility.yul\":8463:8466   */\n      dup4\n        /* \"#utility.yul\":8404:8471   */\n      tag_248\n      jump\t// in\n    tag_366:\n        /* \"#utility.yul\":8397:8471   */\n      swap2\n      pop\n        /* \"#utility.yul\":8480:8573   */\n      tag_367\n        /* \"#utility.yul\":8569:8572   */\n      dup3\n        /* \"#utility.yul\":8480:8573   */\n      tag_255\n      jump\t// in\n    tag_367:\n        /* \"#utility.yul\":8598:8600   */\n      0x20\n        /* \"#utility.yul\":8593:8596   */\n      dup3\n        /* \"#utility.yul\":8589:8601   */\n      add\n        /* \"#utility.yul\":8582:8601   */\n      swap1\n      pop\n        /* \"#utility.yul\":8241:8607   */\n      swap2\n      swap1\n      pop\n      jump\t// out\n        /* \"#utility.yul\":8613:9032   */\n    tag_126:\n        /* \"#utility.yul\":8779:8783   */\n      0x00\n        /* \"#utility.yul\":8817:8819   */\n      0x20\n        /* \"#utility.yul\":8806:8815   */\n      dup3\n        /* \"#utility.yul\":8802:8820   */\n      add\n        /* \"#utility.yul\":8794:8820   */\n      swap1\n      pop\n        /* \"#utility.yul\":8866:8875   */\n      dup2\n        /* \"#utility.yul\":8860:8864   */\n      dup2\n        /* \"#utility.yul\":8856:8876   */\n      sub\n        /* \"#utility.yul\":8852:8853   */\n      0x00\n        /* \"#utility.yul\":8841:8850   */\n      dup4\n        /* \"#utility.yul\":8837:8854   */\n      add\n        /* \"#utility.yul\":8830:8877   */\n      mstore\n        /* \"#utility.yul\":8894:9025   */\n      tag_369\n        /* \"#utility.yul\":9020:9024   */\n      dup2\n        /* \"#utility.yul\":8894:9025   */\n      tag_256\n      jump\t// in\n    tag_369:\n        /* \"#utility.yul\":8886:9025   */\n      swap1\n      pop\n        /* \"#utility.yul\":8613:9032   */\n      swap2\n      swap1\n      pop\n      jump\t// out\n        /* \"#utility.yul\":9038:9199   */\n    tag_257:\n        /* \"#utility.yul\":9178:9191   */\n      0x416c726561647920736574000000000000000000000000000000000000000000\n        /* \"#utility.yul\":9174:9175   */\n      0x00\n        /* \"#utility.yul\":9166:9172   */\n      dup3\n        /* \"#utility.yul\":9162:9176   */\n      add\n        /* \"#utility.yul\":9155:9192   */\n      mstore\n        /* \"#utility.yul\":9038:9199   */\n      pop\n      jump\t// out\n        /* \"#utility.yul\":9205:9571   */\n    tag_258:\n        /* \"#utility.yul\":9347:9350   */\n      0x00\n        /* \"#utility.yul\":9368:9435   */\n      tag_372\n        /* \"#utility.yul\":9432:9434   */\n      0x0b\n        /* \"#utility.yul\":9427:9430   */\n      dup4\n        /* \"#utility.yul\":9368:9435   */\n      tag_248\n      jump\t// in\n    tag_372:\n        /* \"#utility.yul\":9361:9435   */\n      swap2\n      pop\n        /* \"#utility.yul\":9444:9537   */\n      tag_373\n        /* \"#utility.yul\":9533:9536   */\n      dup3\n        /* \"#utility.yul\":9444:9537   */\n      tag_257\n      jump\t// in\n    tag_373:\n        /* \"#utility.yul\":9562:9564   */\n      0x20\n        /* \"#utility.yul\":9557:9560   */\n      dup3\n        /* \"#utility.yul\":9553:9565   */\n      add\n        /* \"#utility.yul\":9546:9565   */\n      swap1\n      pop\n        /* \"#utility.yul\":9205:9571   */\n      swap2\n      swap1\n      pop\n      jump\t// out\n        /* \"#utility.yul\":9577:9996   */\n    tag_129:\n        /* \"#utility.yul\":9743:9747   */\n      0x00\n        /* \"#utility.yul\":9781:9783   */\n      0x20\n        /* \"#utility.yul\":9770:9779   */\n      dup3\n        /* \"#utility.yul\":9766:9784   */\n      add\n        /* \"#utility.yul\":9758:9784   */\n      swap1\n      pop\n        /* \"#utility.yul\":9830:9839   */\n      dup2\n        /* \"#utility.yul\":9824:9828   */\n      dup2\n        /* \"#utility.yul\":9820:9840   */\n      sub\n        /* \"#utility.yul\":9816:9817   */\n      0x00\n        /* \"#utility.yul\":9805:9814   */\n      dup4\n        /* \"#utility.yul\":9801:9818   */\n      add\n        /* \"#utility.yul\":9794:9841   */\n      mstore\n        /* \"#utility.yul\":9858:9989   */\n      tag_375\n        /* \"#utility.yul\":9984:9988   */\n      dup2\n        /* \"#utility.yul\":9858:9989   */\n      tag_258\n      jump\t// in\n    tag_375:\n        /* \"#utility.yul\":9850:9989   */\n      swap1\n      pop\n        /* \"#utility.yul\":9577:9996   */\n      swap2\n      swap1\n      pop\n      jump\t// out\n        /* \"#utility.yul\":10002:10162   */\n    tag_259:\n        /* \"#utility.yul\":10142:10154   */\n      0x4e6f74206f7261636c6500000000000000000000000000000000000000000000\n        /* \"#utility.yul\":10138:10139   */\n      0x00\n        /* \"#utility.yul\":10130:10136   */\n      dup3\n        /* \"#utility.yul\":10126:10140   */\n      add\n        /* \"#utility.yul\":10119:10155   */\n      mstore\n        /* \"#utility.yul\":10002:10162   */\n      pop\n      jump\t// out\n        /* \"#utility.yul\":10168:10534   */\n    tag_260:\n        /* \"#utility.yul\":10310:10313   */\n      0x00\n        /* \"#utility.yul\":10331:10398   */\n      tag_378\n        /* \"#utility.yul\":10395:10397   */\n      0x0a\n        /* \"#utility.yul\":10390:10393   */\n      dup4\n        /* \"#utility.yul\":10331:10398   */\n      tag_248\n      jump\t// in\n    tag_378:\n        /* \"#utility.yul\":10324:10398   */\n      swap2\n      pop\n        /* \"#utility.yul\":10407:10500   */\n      tag_379\n        /* \"#utility.yul\":10496:10499   */\n      dup3\n        /* \"#utility.yul\":10407:10500   */\n      tag_259\n      jump\t// in\n    tag_379:\n        /* \"#utility.yul\":10525:10527   */\n      0x20\n        /* \"#utility.yul\":10520:10523   */\n      dup3\n        /* \"#utility.yul\":10516:10528   */\n      add\n        /* \"#utility.yul\":10509:10528   */\n      swap1\n      pop\n        /* \"#utility.yul\":10168:10534   */\n      swap2\n      swap1\n      pop\n      jump\t// out\n        /* \"#utility.yul\":10540:10959   */\n    tag_136:\n        /* \"#utility.yul\":10706:10710   */\n      0x00\n        /* \"#utility.yul\":10744:10746   */\n      0x20\n        /* \"#utility.yul\":10733:10742   */\n      dup3\n        /* \"#utility.yul\":10729:10747   */\n      add\n        /* \"#utility.yul\":10721:10747   */\n      swap1\n      pop\n        /* \"#utility.yul\":10793:10802   */\n      dup2\n        /* \"#utility.yul\":10787:10791   */\n      dup2\n        /* \"#utility.yul\":10783:10803   */\n      sub\n        /* \"#utility.yul\":10779:10780   */\n      0x00\n        /* \"#utility.yul\":10768:10777   */\n      dup4\n        /* \"#utility.yul\":10764:10781   */\n      add\n        /* \"#utility.yul\":10757:10804   */\n      mstore\n        /* \"#utility.yul\":10821:10952   */\n      tag_381\n        /* \"#utility.yul\":10947:10951   */\n      dup2\n        /* \"#utility.yul\":10821:10952   */\n      tag_260\n      jump\t// in\n    tag_381:\n        /* \"#utility.yul\":10813:10952   */\n      swap1\n      pop\n        /* \"#utility.yul\":10540:10959   */\n      swap2\n      swap1\n      pop\n      jump\t// out\n        /* \"#utility.yul\":10965:11127   */\n    tag_261:\n        /* \"#utility.yul\":11105:11119   */\n      0x57726f6e67207374617475730000000000000000000000000000000000000000\n        /* \"#utility.yul\":11101:11102   */\n      0x00\n        /* \"#utility.yul\":11093:11099   */\n      dup3\n        /* \"#utility.yul\":11089:11103   */\n      add\n        /* \"#utility.yul\":11082:11120   */\n      mstore\n        /* \"#utility.yul\":10965:11127   */\n      pop\n      jump\t// out\n        /* \"#utility.yul\":11133:11499   */\n    tag_262:\n        /* \"#utility.yul\":11275:11278   */\n      0x00\n        /* \"#utility.yul\":11296:11363   */\n      tag_384\n        /* \"#utility.yul\":11360:11362   */\n      0x0c\n        /* \"#utility.yul\":11355:11358   */\n      dup4\n        /* \"#utility.yul\":11296:11363   */\n      tag_248\n      jump\t// in\n    tag_384:\n        /* \"#utility.yul\":11289:11363   */\n      swap2\n      pop\n        /* \"#utility.yul\":11372:11465   */\n      tag_385\n        /* \"#utility.yul\":11461:11464   */\n      dup3\n        /* \"#utility.yul\":11372:11465   */\n      tag_261\n      jump\t// in\n    tag_385:\n        /* \"#utility.yul\":11490:11492   */\n      0x20\n        /* \"#utility.yul\":11485:11488   */\n      dup3\n        /* \"#utility.yul\":11481:11493   */\n      add\n        /* \"#utility.yul\":11474:11493   */\n      swap1\n      pop\n        /* \"#utility.yul\":11133:11499   */\n      swap2\n      swap1\n      pop\n      jump\t// out\n        /* \"#utility.yul\":11505:11924   */\n    tag_144:\n        /* \"#utility.yul\":11671:11675   */\n      0x00\n        /* \"#utility.yul\":11709:11711   */\n      0x20\n        /* \"#utility.yul\":11698:11707   */\n      dup3\n        /* \"#utility.yul\":11694:11712   */\n      add\n        /* \"#utility.yul\":11686:11712   */\n      swap1\n      pop\n        /* \"#utility.yul\":11758:11767   */\n      dup2\n        /* \"#utility.yul\":11752:11756   */\n      dup2\n        /* \"#utility.yul\":11748:11768   */\n      sub\n        /* \"#utility.yul\":11744:11745   */\n      0x00\n        /* \"#utility.yul\":11733:11742   */\n      dup4\n        /* \"#utility.yul\":11729:11746   */\n      add\n        /* \"#utility.yul\":11722:11769   */\n      mstore\n        /* \"#utility.yul\":11786:11917   */\n      tag_387\n        /* \"#utility.yul\":11912:11916   */\n      dup2\n        /* \"#utility.yul\":11786:11917   */\n      tag_262\n      jump\t// in\n    tag_387:\n        /* \"#utility.yul\":11778:11917   */\n      swap1\n      pop\n        /* \"#utility.yul\":11505:11924   */\n      swap2\n      swap1\n      pop\n      jump\t// out\n        /* \"#utility.yul\":11930:12091   */\n    tag_263:\n        /* \"#utility.yul\":12070:12083   */\n      0x4e6f2064656c6976657279000000000000000000000000000000000000000000\n        /* \"#utility.yul\":12066:12067   */\n      0x00\n        /* \"#utility.yul\":12058:12064   */\n      dup3\n        /* \"#utility.yul\":12054:12068   */\n      add\n        /* \"#utility.yul\":12047:12084   */\n      mstore\n        /* \"#utility.yul\":11930:12091   */\n      pop\n      jump\t// out\n        /* \"#utility.yul\":12097:12463   */\n    tag_264:\n        /* \"#utility.yul\":12239:12242   */\n      0x00\n        /* \"#utility.yul\":12260:12327   */\n      tag_390\n        /* \"#utility.yul\":12324:12326   */\n      0x0b\n        /* \"#utility.yul\":12319:12322   */\n      dup4\n        /* \"#utility.yul\":12260:12327   */\n      tag_248\n      jump\t// in\n    tag_390:\n        /* \"#utility.yul\":12253:12327   */\n      swap2\n      pop\n        /* \"#utility.yul\":12336:12429   */\n      tag_391\n        /* \"#utility.yul\":12425:12428   */\n      dup3\n        /* \"#utility.yul\":12336:12429   */\n      tag_263\n      jump\t// in\n    tag_391:\n        /* \"#utility.yul\":12454:12456   */\n      0x20\n        /* \"#utility.yul\":12449:12452   */\n      dup3\n        /* \"#utility.yul\":12445:12457   */\n      add\n        /* \"#utility.yul\":12438:12457   */\n      swap1\n      pop\n        /* \"#utility.yul\":12097:12463   */\n      swap2\n      swap1\n      pop\n      jump\t// out\n        /* \"#utility.yul\":12469:12888   */\n    tag_147:\n        /* \"#utility.yul\":12635:12639   */\n      0x00\n        /* \"#utility.yul\":12673:12675   */\n      0x20\n        /* \"#utility.yul\":12662:12671   */\n      dup3\n        /* \"#utility.yul\":12658:12676   */\n      add\n        /* \"#utility.yul\":12650:12676   */\n      swap1\n      pop\n        /* \"#utility.yul\":12722:12731   */\n      dup2\n        /* \"#utility.yul\":12716:12720   */\n      dup2\n        /* \"#utility.yul\":12712:12732   */\n      sub\n        /* \"#utility.yul\":12708:12709   */\n      0x00\n        /* \"#utility.yul\":12697:12706   */\n      dup4\n        /* \"#utility.yul\":12693:12710   */\n      add\n        /* \"#utility.yul\":12686:12733   */\n      mstore\n        /* \"#utility.yul\":12750:12881   */\n      tag_393\n        /* \"#utility.yul\":12876:12880   */\n      dup2\n        /* \"#utility.yul\":12750:12881   */\n      tag_264\n      jump\t// in\n    tag_393:\n        /* \"#utility.yul\":12742:12881   */\n      swap1\n      pop\n        /* \"#utility.yul\":12469:12888   */\n      swap2\n      swap1\n      pop\n      jump\t// out\n        /* \"#utility.yul\":12894:13057   */\n    tag_265:\n        /* \"#utility.yul\":13034:13049   */\n      0x48617368206d69736d6174636800000000000000000000000000000000000000\n        /* \"#utility.yul\":13030:13031   */\n      0x00\n        /* \"#utility.yul\":13022:13028   */\n      dup3\n        /* \"#utility.yul\":13018:13032   */\n      add\n        /* \"#utility.yul\":13011:13050   */\n      mstore\n        /* \"#utility.yul\":12894:13057   */\n      pop\n      jump\t// out\n        /* \"#utility.yul\":13063:13429   */\n    tag_266:\n        /* \"#utility.yul\":13205:13208   */\n      0x00\n        /* \"#utility.yul\":13226:13293   */\n      tag_396\n        /* \"#utility.yul\":13290:13292   */\n      0x0d\n        /* \"#utility.yul\":13285:13288   */\n      dup4\n        /* \"#utility.yul\":13226:13293   */\n      tag_248\n      jump\t// in\n    tag_396:\n        /* \"#utility.yul\":13219:13293   */\n      swap2\n      pop\n        /* \"#utility.yul\":13302:13395   */\n      tag_397\n        /* \"#utility.yul\":13391:13394   */\n      dup3\n        /* \"#utility.yul\":13302:13395   */\n      tag_265\n      jump\t// in\n    tag_397:\n        /* \"#utility.yul\":13420:13422   */\n      0x20\n        /* \"#utility.yul\":13415:13418   */\n      dup3\n        /* \"#utility.yul\":13411:13423   */\n      add\n        /* \"#utility.yul\":13404:13423   */\n      swap1\n      pop\n        /* \"#utility.yul\":13063:13429   */\n      swap2\n      swap1\n      pop\n      jump\t// out\n        /* \"#utility.yul\":13435:13854   */\n    tag_150:\n        /* \"#utility.yul\":13601:13605   */\n      0x00\n        /* \"#utility.yul\":13639:13641   */\n      0x20\n        /* \"#utility.yul\":13628:13637   */\n      dup3\n        /* \"#utility.yul\":13624:13642   */\n      add\n        /* \"#utility.yul\":13616:13642   */\n      swap1\n      pop\n        /* \"#utility.yul\":13688:13697   */\n      dup2\n        /* \"#utility.yul\":13682:13686   */\n      dup2\n        /* \"#utility.yul\":13678:13698   */\n      sub\n        /* \"#utility.yul\":13674:13675   */\n      0x00\n        /* \"#utility.yul\":13663:13672   */\n      dup4\n        /* \"#utility.yul\":13659:13676   */\n      add\n        /* \"#utility.yul\":13652:13699   */\n      mstore\n        /* \"#utility.yul\":13716:13847   */\n      tag_399\n        /* \"#utility.yul\":13842:13846   */\n      dup2\n        /* \"#utility.yul\":13716:13847   */\n      tag_266\n      jump\t// in\n    tag_399:\n        /* \"#utility.yul\":13708:13847   */\n      swap1\n      pop\n        /* \"#utility.yul\":13435:13854   */\n      swap2\n      swap1\n      pop\n      jump\t// out\n        /* \"#utility.yul\":13860:14021   */\n    tag_267:\n        /* \"#utility.yul\":14000:14013   */\n      0x4e6f742063726561746f72000000000000000000000000000000000000000000\n        /* \"#utility.yul\":13996:13997   */\n      0x00\n        /* \"#utility.yul\":13988:13994   */\n      dup3\n        /* \"#utility.yul\":13984:13998   */\n      add\n        /* \"#utility.yul\":13977:14014   */\n      mstore\n        /* \"#utility.yul\":13860:14021   */\n      pop\n      jump\t// out\n        /* \"#utility.yul\":14027:14393   */\n    tag_268:\n        /* \"#utility.yul\":14169:14172   */\n      0x00\n        /* \"#utility.yul\":14190:14257   */\n      tag_402\n        /* \"#utility.yul\":14254:14256   */\n      0x0b\n        /* \"#utility.yul\":14249:14252   */\n      dup4\n        /* \"#utility.yul\":14190:14257   */\n      tag_248\n      jump\t// in\n    tag_402:\n        /* \"#utility.yul\":14183:14257   */\n      swap2\n      pop\n        /* \"#utility.yul\":14266:14359   */\n      tag_403\n        /* \"#utility.yul\":14355:14358   */\n      dup3\n        /* \"#utility.yul\":14266:14359   */\n      tag_267\n      jump\t// in\n    tag_403:\n        /* \"#utility.yul\":14384:14386   */\n      0x20\n        /* \"#utility.yul\":14379:14382   */\n      dup3\n        /* \"#utility.yul\":14375:14387   */\n      add\n        /* \"#utility.yul\":14368:14387   */\n      swap1\n      pop\n        /* \"#utility.yul\":14027:14393   */\n      swap2\n      swap1\n      pop\n      jump\t// out\n        /* \"#utility.yul\":14399:14818   */\n    tag_156:\n        /* \"#utility.yul\":14565:14569   */\n      0x00\n        /* \"#utility.yul\":14603:14605   */\n      0x20\n        /* \"#utility.yul\":14592:14601   */\n      dup3\n        /* \"#utility.yul\":14588:14606   */\n      add\n        /* \"#utility.yul\":14580:14606   */\n      swap1\n      pop\n        /* \"#utility.yul\":14652:14661   */\n      dup2\n        /* \"#utility.yul\":14646:14650   */\n      dup2\n        /* \"#utility.yul\":14642:14662   */\n      sub\n        /* \"#utility.yul\":14638:14639   */\n      0x00\n        /* \"#utility.yul\":14627:14636   */\n      dup4\n        /* \"#utility.yul\":14623:14640   */\n      add\n        /* \"#utility.yul\":14616:14663   */\n      mstore\n        /* \"#utility.yul\":14680:14811   */\n      tag_405\n        /* \"#utility.yul\":14806:14810   */\n      dup2\n        /* \"#utility.yul\":14680:14811   */\n      tag_268\n      jump\t// in\n    tag_405:\n        /* \"#utility.yul\":14672:14811   */\n      swap1\n      pop\n        /* \"#utility.yul\":14399:14818   */\n      swap2\n      swap1\n      pop\n      jump\t// out\n        /* \"#utility.yul\":14824:14992   */\n    tag_269:\n        /* \"#utility.yul\":14964:14984   */\n      0x4f7261636c6520616c7265616479207365740000000000000000000000000000\n        /* \"#utility.yul\":14960:14961   */\n      0x00\n        /* \"#utility.yul\":14952:14958   */\n      dup3\n        /* \"#utility.yul\":14948:14962   */\n      add\n        /* \"#utility.yul\":14941:14985   */\n      mstore\n        /* \"#utility.yul\":14824:14992   */\n      pop\n      jump\t// out\n        /* \"#utility.yul\":14998:15364   */\n    tag_270:\n        /* \"#utility.yul\":15140:15143   */\n      0x00\n        /* \"#utility.yul\":15161:15228   */\n      tag_408\n        /* \"#utility.yul\":15225:15227   */\n      0x12\n        /* \"#utility.yul\":15220:15223   */\n      dup4\n        /* \"#utility.yul\":15161:15228   */\n      tag_248\n      jump\t// in\n    tag_408:\n        /* \"#utility.yul\":15154:15228   */\n      swap2\n      pop\n        /* \"#utility.yul\":15237:15330   */\n      tag_409\n        /* \"#utility.yul\":15326:15329   */\n      dup3\n        /* \"#utility.yul\":15237:15330   */\n      tag_269\n      jump\t// in\n    tag_409:\n        /* \"#utility.yul\":15355:15357   */\n      0x20\n        /* \"#utility.yul\":15350:15353   */\n      dup3\n        /* \"#utility.yul\":15346:15358   */\n      add\n        /* \"#utility.yul\":15339:15358   */\n      swap1\n      pop\n        /* \"#utility.yul\":14998:15364   */\n      swap2\n      swap1\n      pop\n      jump\t// out\n        /* \"#utility.yul\":15370:15789   */\n    tag_173:\n        /* \"#utility.yul\":15536:15540   */\n      0x00\n        /* \"#utility.yul\":15574:15576   */\n      0x20\n        /* \"#utility.yul\":15563:15572   */\n      dup3\n        /* \"#utility.yul\":15559:15577   */\n      add\n        /* \"#utility.yul\":15551:15577   */\n      swap1\n      pop\n        /* \"#utility.yul\":15623:15632   */\n      dup2\n        /* \"#utility.yul\":15617:15621   */\n      dup2\n        /* \"#utility.yul\":15613:15633   */\n      sub\n        /* \"#utility.yul\":15609:15610   */\n      0x00\n        /* \"#utility.yul\":15598:15607   */\n      dup4\n        /* \"#utility.yul\":15594:15611   */\n      add\n        /* \"#utility.yul\":15587:15634   */\n      mstore\n        /* \"#utility.yul\":15651:15782   */\n      tag_411\n        /* \"#utility.yul\":15777:15781   */\n      dup2\n        /* \"#utility.yul\":15651:15782   */\n      tag_270\n      jump\t// in\n    tag_411:\n        /* \"#utility.yul\":15643:15782   */\n      swap1\n      pop\n        /* \"#utility.yul\":15370:15789   */\n      swap2\n      swap1\n      pop\n      jump\t// out\n        /* \"#utility.yul\":15795:15959   */\n    tag_271:\n        /* \"#utility.yul\":15935:15951   */\n      0x496e76616c6964206f7261636c65000000000000000000000000000000000000\n        /* \"#utility.yul\":15931:15932   */\n      0x00\n        /* \"#utility.yul\":15923:15929   */\n      dup3\n        /* \"#utility.yul\":15919:15933   */\n      add\n        /* \"#utility.yul\":15912:15952   */\n      mstore\n        /* \"#utility.yul\":15795:15959   */\n      pop\n      jump\t// out\n        /* \"#utility.yul\":15965:16331   */\n    tag_272:\n        /* \"#utility.yul\":16107:16110   */\n      0x00\n        /* \"#utility.yul\":16128:16195   */\n      tag_414\n        /* \"#utility.yul\":16192:16194   */\n      0x0e\n        /* \"#utility.yul\":16187:16190   */\n      dup4\n        /* \"#utility.yul\":16128:16195   */\n      tag_248\n      jump\t// in\n    tag_414:\n        /* \"#utility.yul\":16121:16195   */\n      swap2\n      pop\n        /* \"#utility.yul\":16204:16297   */\n      tag_415\n        /* \"#utility.yul\":16293:16296   */\n      dup3\n        /* \"#utility.yul\":16204:16297   */\n      tag_271\n      jump\t// in\n    tag_415:\n        /* \"#utility.yul\":16322:16324   */\n      0x20\n        /* \"#utility.yul\":16317:16320   */\n      dup3\n        /* \"#utility.yul\":16313:16325   */\n      add\n        /* \"#utility.yul\":16306:16325   */\n      swap1\n      pop\n        /* \"#utility.yul\":15965:16331   */\n      swap2\n      swap1\n      pop\n      jump\t// out\n        /* \"#utility.yul\":16337:16756   */\n    tag_176:\n        /* \"#utility.yul\":16503:16507   */\n      0x00\n        /* \"#utility.yul\":16541:16543   */\n      0x20\n        /* \"#utility.yul\":16530:16539   */\n      dup3\n        /* \"#utility.yul\":16526:16544   */\n      add\n        /* \"#utility.yul\":16518:16544   */\n      swap1\n      pop\n        /* \"#utility.yul\":16590:16599   */\n      dup2\n        /* \"#utility.yul\":16584:16588   */\n      dup2\n        /* \"#utility.yul\":16580:16600   */\n      sub\n        /* \"#utility.yul\":16576:16577   */\n      0x00\n        /* \"#utility.yul\":16565:16574   */\n      dup4\n        /* \"#utility.yul\":16561:16578   */\n      add\n        /* \"#utility.yul\":16554:16601   */\n      mstore\n        /* \"#utility.yul\":16618:16749   */\n      tag_417\n        /* \"#utility.yul\":16744:16748   */\n      dup2\n        /* \"#utility.yul\":16618:16749   */\n      tag_272\n      jump\t// in\n    tag_417:\n        /* \"#utility.yul\":16610:16749   */\n      swap1\n      pop\n        /* \"#utility.yul\":16337:16756   */\n      swap2\n      swap1\n      pop\n      jump\t// out\n        /* \"#utility.yul\":16762:16922   */\n    tag_273:\n        /* \"#utility.yul\":16902:16914   */\n      0x4e6f74207369676e656400000000000000000000000000000000000000000000\n        /* \"#utility.yul\":16898:16899   */\n      0x00\n        /* \"#utility.yul\":16890:16896   */\n      dup3\n        /* \"#utility.yul\":16886:16900   */\n      add\n        /* \"#utility.yul\":16879:16915   */\n      mstore\n        /* \"#utility.yul\":16762:16922   */\n      pop\n      jump\t// out\n        /* \"#utility.yul\":16928:17294   */\n    tag_274:\n        /* \"#utility.yul\":17070:17073   */\n      0x00\n        /* \"#utility.yul\":17091:17158   */\n      tag_420\n        /* \"#utility.yul\":17155:17157   */\n      0x0a\n        /* \"#utility.yul\":17150:17153   */\n      dup4\n        /* \"#utility.yul\":17091:17158   */\n      tag_248\n      jump\t// in\n    tag_420:\n        /* \"#utility.yul\":17084:17158   */\n      swap2\n      pop\n        /* \"#utility.yul\":17167:17260   */\n      tag_421\n        /* \"#utility.yul\":17256:17259   */\n      dup3\n        /* \"#utility.yul\":17167:17260   */\n      tag_273\n      jump\t// in\n    tag_421:\n        /* \"#utility.yul\":17285:17287   */\n      0x20\n        /* \"#utility.yul\":17280:17283   */\n      dup3\n        /* \"#utility.yul\":17276:17288   */\n      add\n        /* \"#utility.yul\":17269:17288   */\n      swap1\n      pop\n        /* \"#utility.yul\":16928:17294   */\n      swap2\n      swap1\n      pop\n      jump\t// out\n        /* \"#utility.yul\":17300:17719   */\n    tag_187:\n        /* \"#utility.yul\":17466:17470   */\n      0x00\n        /* \"#utility.yul\":17504:17506   */\n      0x20\n        /* \"#utility.yul\":17493:17502   */\n      dup3\n        /* \"#utility.yul\":17489:17507   */\n      add\n        /* \"#utility.yul\":17481:17507   */\n      swap1\n      pop\n        /* \"#utility.yul\":17553:17562   */\n      dup2\n        /* \"#utility.yul\":17547:17551   */\n      dup2\n        /* \"#utility.yul\":17543:17563   */\n      sub\n        /* \"#utility.yul\":17539:17540   */\n      0x00\n        /* \"#utility.yul\":17528:17537   */\n      dup4\n        /* \"#utility.yul\":17524:17541   */\n      add\n        /* \"#utility.yul\":17517:17564   */\n      mstore\n        /* \"#utility.yul\":17581:17712   */\n      tag_423\n        /* \"#utility.yul\":17707:17711   */\n      dup2\n        /* \"#utility.yul\":17581:17712   */\n      tag_274\n      jump\t// in\n    tag_423:\n        /* \"#utility.yul\":17573:17712   */\n      swap1\n      pop\n        /* \"#utility.yul\":17300:17719   */\n      swap2\n      swap1\n      pop\n      jump\t// out\n        /* \"#utility.yul\":17725:17897   */\n    tag_275:\n        /* \"#utility.yul\":17865:17889   */\n      0x44656c697665727920666c6f7720726571756972656400000000000000000000\n        /* \"#utility.yul\":17861:17862   */\n      0x00\n        /* \"#utility.yul\":17853:17859   */\n      dup3\n        /* \"#utility.yul\":17849:17863   */\n      add\n        /* \"#utility.yul\":17842:17890   */\n      mstore\n        /* \"#utility.yul\":17725:17897   */\n      pop\n      jump\t// out\n        /* \"#utility.yul\":17903:18269   */\n    tag_276:\n        /* \"#utility.yul\":18045:18048   */\n      0x00\n        /* \"#utility.yul\":18066:18133   */\n      tag_426\n        /* \"#utility.yul\":18130:18132   */\n      0x16\n        /* \"#utility.yul\":18125:18128   */\n      dup4\n        /* \"#utility.yul\":18066:18133   */\n      tag_248\n      jump\t// in\n    tag_426:\n        /* \"#utility.yul\":18059:18133   */\n      swap2\n      pop\n        /* \"#utility.yul\":18142:18235   */\n      tag_427\n        /* \"#utility.yul\":18231:18234   */\n      dup3\n        /* \"#utility.yul\":18142:18235   */\n      tag_275\n      jump\t// in\n    tag_427:\n        /* \"#utility.yul\":18260:18262   */\n      0x20\n        /* \"#utility.yul\":18255:18258   */\n      dup3\n        /* \"#utility.yul\":18251:18263   */\n      add\n        /* \"#utility.yul\":18244:18263   */\n      swap1\n      pop\n        /* \"#utility.yul\":17903:18269   */\n      swap2\n      swap1\n      pop\n      jump\t// out\n        /* \"#utility.yul\":18275:18694   */\n    tag_190:\n        /* \"#utility.yul\":18441:18445   */\n      0x00\n        /* \"#utility.yul\":18479:18481   */\n      0x20\n        /* \"#utility.yul\":18468:18477   */\n      dup3\n        /* \"#utility.yul\":18464:18482   */\n      add\n        /* \"#utility.yul\":18456:18482   */\n      swap1\n      pop\n        /* \"#utility.yul\":18528:18537   */\n      dup2\n        /* \"#utility.yul\":18522:18526   */\n      dup2\n        /* \"#utility.yul\":18518:18538   */\n      sub\n        /* \"#utility.yul\":18514:18515   */\n      0x00\n        /* \"#utility.yul\":18503:18512   */\n      dup4\n        /* \"#utility.yul\":18499:18516   */\n      add\n        /* \"#utility.yul\":18492:18539   */\n      mstore\n        /* \"#utility.yul\":18556:18687   */\n      tag_429\n        /* \"#utility.yul\":18682:18686   */\n      dup2\n        /* \"#utility.yul\":18556:18687   */\n      tag_276\n      jump\t// in\n    tag_429:\n        /* \"#utility.yul\":18548:18687   */\n      swap1\n      pop\n        /* \"#utility.yul\":18275:18694   */\n      swap2\n      swap1\n      pop\n      jump\t// out\n        /* \"#utility.yul\":18700:18861   */\n    tag_277:\n        /* \"#utility.yul\":18840:18853   */\n      0x4e6f742043726561746564000000000000000000000000000000000000000000\n        /* \"#utility.yul\":18836:18837   */\n      0x00\n        /* \"#utility.yul\":18828:18834   */\n      dup3\n        /* \"#utility.yul\":18824:18838   */\n      add\n        /* \"#utility.yul\":18817:18854   */\n      mstore\n        /* \"#utility.yul\":18700:18861   */\n      pop\n      jump\t// out\n        /* \"#utility.yul\":18867:19233   */\n    tag_278:\n        /* \"#utility.yul\":19009:19012   */\n      0x00\n        /* \"#utility.yul\":19030:19097   */\n      tag_432\n        /* \"#utility.yul\":19094:19096   */\n      0x0b\n        /* \"#utility.yul\":19089:19092   */\n      dup4\n        /* \"#utility.yul\":19030:19097   */\n      tag_248\n      jump\t// in\n    tag_432:\n        /* \"#utility.yul\":19023:19097   */\n      swap2\n      pop\n        /* \"#utility.yul\":19106:19199   */\n      tag_433\n        /* \"#utility.yul\":19195:19198   */\n      dup3\n        /* \"#utility.yul\":19106:19199   */\n      tag_277\n      jump\t// in\n    tag_433:\n        /* \"#utility.yul\":19224:19226   */\n      0x20\n        /* \"#utility.yul\":19219:19222   */\n      dup3\n        /* \"#utility.yul\":19215:19227   */\n      add\n        /* \"#utility.yul\":19208:19227   */\n      swap1\n      pop\n        /* \"#utility.yul\":18867:19233   */\n      swap2\n      swap1\n      pop\n      jump\t// out\n        /* \"#utility.yul\":19239:19658   */\n    tag_204:\n        /* \"#utility.yul\":19405:19409   */\n      0x00\n        /* \"#utility.yul\":19443:19445   */\n      0x20\n        /* \"#utility.yul\":19432:19441   */\n      dup3\n        /* \"#utility.yul\":19428:19446   */\n      add\n        /* \"#utility.yul\":19420:19446   */\n      swap1\n      pop\n        /* \"#utility.yul\":19492:19501   */\n      dup2\n        /* \"#utility.yul\":19486:19490   */\n      dup2\n        /* \"#utility.yul\":19482:19502   */\n      sub\n        /* \"#utility.yul\":19478:19479   */\n      0x00\n        /* \"#utility.yul\":19467:19476   */\n      dup4\n        /* \"#utility.yul\":19463:19480   */\n      add\n        /* \"#utility.yul\":19456:19503   */\n      mstore\n        /* \"#utility.yul\":19520:19651   */\n      tag_435\n        /* \"#utility.yul\":19646:19650   */\n      dup2\n        /* \"#utility.yul\":19520:19651   */\n      tag_278\n      jump\t// in\n    tag_435:\n        /* \"#utility.yul\":19512:19651   */\n      swap1\n      pop\n        /* \"#utility.yul\":19239:19658   */\n      swap2\n      swap1\n      pop\n      jump\t// out\n        /* \"#utility.yul\":19664:19828   */\n    tag_279:\n        /* \"#utility.yul\":19804:19820   */\n      0x4f6e6c7920436f6d706c65746564000000000000000000000000000000000000\n        /* \"#utility.yul\":19800:19801   */\n      0x00\n        /* \"#utility.yul\":19792:19798   */\n      dup3\n        /* \"#utility.yul\":19788:19802   */\n      add\n        /* \"#utility.yul\":19781:19821   */\n      mstore\n        /* \"#utility.yul\":19664:19828   */\n      pop\n      jump\t// out\n        /* \"#utility.yul\":19834:20200   */\n    tag_280:\n        /* \"#utility.yul\":19976:19979   */\n      0x00\n        /* \"#utility.yul\":19997:20064   */\n      tag_438\n        /* \"#utility.yul\":20061:20063   */\n      0x0e\n        /* \"#utility.yul\":20056:20059   */\n      dup4\n        /* \"#utility.yul\":19997:20064   */\n      tag_248\n      jump\t// in\n    tag_438:\n        /* \"#utility.yul\":19990:20064   */\n      swap2\n      pop\n        /* \"#utility.yul\":20073:20166   */\n      tag_439\n        /* \"#utility.yul\":20162:20165   */\n      dup3\n        /* \"#utility.yul\":20073:20166   */\n      tag_279\n      jump\t// in\n    tag_439:\n        /* \"#utility.yul\":20191:20193   */\n      0x20\n        /* \"#utility.yul\":20186:20189   */\n      dup3\n        /* \"#utility.yul\":20182:20194   */\n      add\n        /* \"#utility.yul\":20175:20194   */\n      swap1\n      pop\n        /* \"#utility.yul\":19834:20200   */\n      swap2\n      swap1\n      pop\n      jump\t// out\n        /* \"#utility.yul\":20206:20625   */\n    tag_217:\n        /* \"#utility.yul\":20372:20376   */\n      0x00\n        /* \"#utility.yul\":20410:20412   */\n      0x20\n        /* \"#utility.yul\":20399:20408   */\n      dup3\n        /* \"#utility.yul\":20395:20413   */\n      add\n        /* \"#utility.yul\":20387:20413   */\n      swap1\n      pop\n        /* \"#utility.yul\":20459:20468   */\n      dup2\n        /* \"#utility.yul\":20453:20457   */\n      dup2\n        /* \"#utility.yul\":20449:20469   */\n      sub\n        /* \"#utility.yul\":20445:20446   */\n      0x00\n        /* \"#utility.yul\":20434:20443   */\n      dup4\n        /* \"#utility.yul\":20430:20447   */\n      add\n        /* \"#utility.yul\":20423:20470   */\n      mstore\n        /* \"#utility.yul\":20487:20618   */\n      tag_441\n        /* \"#utility.yul\":20613:20617   */\n      dup2\n        /* \"#utility.yul\":20487:20618   */\n      tag_280\n      jump\t// in\n    tag_441:\n        /* \"#utility.yul\":20479:20618   */\n      swap1\n      pop\n        /* \"#utility.yul\":20206:20625   */\n      swap2\n      swap1\n      pop\n      jump\t// out\n        /* \"#utility.yul\":20631:20812   */\n    tag_281:\n        /* \"#utility.yul\":20771:20804   */\n      0x5265656e7472616e637947756172643a207265656e7472616e742063616c6c00\n        /* \"#utility.yul\":20767:20768   */\n      0x00\n        /* \"#utility.yul\":20759:20765   */\n      dup3\n        /* \"#utility.yul\":20755:20769   */\n      add\n        /* \"#utility.yul\":20748:20805   */\n      mstore\n        /* \"#utility.yul\":20631:20812   */\n      pop\n      jump\t// out\n        /* \"#utility.yul\":20818:21184   */\n    tag_282:\n        /* \"#utility.yul\":20960:20963   */\n      0x00\n        /* \"#utility.yul\":20981:21048   */\n      tag_444\n        /* \"#utility.yul\":21045:21047   */\n      0x1f\n        /* \"#utility.yul\":21040:21043   */\n      dup4\n        /* \"#utility.yul\":20981:21048   */\n      tag_248\n      jump\t// in\n    tag_444:\n        /* \"#utility.yul\":20974:21048   */\n      swap2\n      pop\n        /* \"#utility.yul\":21057:21150   */\n      tag_445\n        /* \"#utility.yul\":21146:21149   */\n      dup3\n        /* \"#utility.yul\":21057:21150   */\n      tag_281\n      jump\t// in\n    tag_445:\n        /* \"#utility.yul\":21175:21177   */\n      0x20\n        /* \"#utility.yul\":21170:21173   */\n      dup3\n        /* \"#utility.yul\":21166:21178   */\n      add\n        /* \"#utility.yul\":21159:21178   */\n      swap1\n      pop\n        /* \"#utility.yul\":20818:21184   */\n      swap2\n      swap1\n      pop\n      jump\t// out\n        /* \"#utility.yul\":21190:21609   */\n    tag_224:\n        /* \"#utility.yul\":21356:21360   */\n      0x00\n        /* \"#utility.yul\":21394:21396   */\n      0x20\n        /* \"#utility.yul\":21383:21392   */\n      dup3\n        /* \"#utility.yul\":21379:21397   */\n      add\n        /* \"#utility.yul\":21371:21397   */\n      swap1\n      pop\n        /* \"#utility.yul\":21443:21452   */\n      dup2\n        /* \"#utility.yul\":21437:21441   */\n      dup2\n        /* \"#utility.yul\":21433:21453   */\n      sub\n        /* \"#utility.yul\":21429:21430   */\n      0x00\n        /* \"#utility.yul\":21418:21427   */\n      dup4\n        /* \"#utility.yul\":21414:21431   */\n      add\n        /* \"#utility.yul\":21407:21454   */\n      mstore\n        /* \"#utility.yul\":21471:21602   */\n      tag_447\n        /* \"#utility.yul\":21597:21601   */\n      dup2\n        /* \"#utility.yul\":21471:21602   */\n      tag_282\n      jump\t// in\n    tag_447:\n        /* \"#utility.yul\":21463:21602   */\n      swap1\n      pop\n        /* \"#utility.yul\":21190:21609   */\n      swap2\n      swap1\n      pop\n      jump\t// out\n\n    auxdata: 0xa2646970667358221220134746476809914c9699a13ab4f60a8e9fd1be2a2d37af2a37b9e0269702156d64736f6c634300081e0033\n}\n",
				"bytecode": {
					"linkReferences": {},
					"object": "60806040526040516120c83803806120c8833981810160405281019061002591906102c7565b60015f819055505f73ffffffffffffffffffffffffffffffffffffffff168273ffffffffffffffffffffffffffffffffffffffff160361009a576040517f08c379a00000000000000000000000000000000000000000000000000000000081526004016100919061035f565b60405180910390fd5b5f34116100dc576040517f08c379a00000000000000000000000000000000000000000000000000000000081526004016100d3906103c7565b60405180910390fd5b3360015f6101000a81548173ffffffffffffffffffffffffffffffffffffffff021916908373ffffffffffffffffffffffffffffffffffffffff1602179055508160025f6101000a81548173ffffffffffffffffffffffffffffffffffffffff021916908373ffffffffffffffffffffffffffffffffffffffff16021790555034600481905550806006819055505f60055f6101000a81548160ff0219169083600781111561018e5761018d6103e5565b5b021790555060025f9054906101000a900473ffffffffffffffffffffffffffffffffffffffff1673ffffffffffffffffffffffffffffffffffffffff1660015f9054906101000a900473ffffffffffffffffffffffffffffffffffffffff1673ffffffffffffffffffffffffffffffffffffffff167f2d49c67975aadd2d389580b368cfff5b49965b0bd5da33c144922ce01e7a4d7b60405160405180910390a35050610412565b5f5ffd5b5f73ffffffffffffffffffffffffffffffffffffffff82169050919050565b5f6102638261023a565b9050919050565b61027381610259565b811461027d575f5ffd5b50565b5f8151905061028e8161026a565b92915050565b5f819050919050565b6102a681610294565b81146102b0575f5ffd5b50565b5f815190506102c18161029d565b92915050565b5f5f604083850312156102dd576102dc610236565b5b5f6102ea85828601610280565b92505060206102fb858286016102b3565b9150509250929050565b5f82825260208201905092915050565b7f302061646472206e6f7420616c6c6f77656400000000000000000000000000005f82015250565b5f610349601283610305565b915061035482610315565b602082019050919050565b5f6020820190508181035f8301526103768161033d565b9050919050565b7f45544820726571756972656400000000000000000000000000000000000000005f82015250565b5f6103b1600c83610305565b91506103bc8261037d565b602082019050919050565b5f6020820190508181035f8301526103de816103a5565b9050919050565b7f4e487b71000000000000000000000000000000000000000000000000000000005f52602160045260245ffd5b611ca98061041f5f395ff3fe608060405234801561000f575f5ffd5b506004361061011f575f3560e01c8063a06aa1ab116100ab578063c3df65461161006f578063c3df65461461025d578063c80ec5221461027b578063d556c4c314610299578063de8a8435146102b7578063edb3b27a146102d55761011f565b8063a06aa1ab14610203578063aa8c217c1461020d578063b8b4f1a01461022b578063bca353be14610235578063c032846b1461023f5761011f565b80633ae11dbf116100f25780633ae11dbf1461018557806361150abc146101a15780637adbf973146101ab5780637dc0d1d0146101c7578063904c6094146101e55761011f565b806302d05d3f14610123578063200d2ed21461014157806324600fc31461015f5780632723facc14610169575b5f5ffd5b61012b6102f3565b604051610138919061135a565b60405180910390f35b610149610318565b60405161015691906113e6565b60405180910390f35b61016761032a565b005b610183600480360381019061017e9190611436565b6105ea565b005b61019f600480360381019061019a9190611436565b6107c2565b005b6101a96109b1565b005b6101c560048036038101906101c0919061149c565b610b7e565b005b6101cf610d6c565b6040516101dc91906114d6565b60405180910390f35b6101ed610d91565b6040516101fa91906114fe565b60405180910390f35b61020b610d97565b005b610215610f86565b604051610222919061152f565b60405180910390f35b610233610f8c565b005b61023d6110e7565b005b61024761124d565b60405161025491906113e6565b60405180910390f35b610265611262565b604051610272919061135a565b60405180910390f35b610283611287565b6040516102909190611562565b60405180910390f35b6102a161129a565b6040516102ae9190611562565b60405180910390f35b6102bf6112ac565b6040516102cc91906114fe565b60405180910390f35b6102dd6112b2565b6040516102ea9190611562565b60405180910390f35b60015f9054906101000a900473ffffffffffffffffffffffffffffffffffffffff1681565b60055f9054906101000a900460ff1681565b6103326112c5565b60025f9054906101000a900473ffffffffffffffffffffffffffffffffffffffff1673ffffffffffffffffffffffffffffffffffffffff163373ffffffffffffffffffffffffffffffffffffffff16146103c1576040517f08c379a00000000000000000000000000000000000000000000000000000000081526004016103b8906115d5565b60405180910390fd5b600560078111156103d5576103d4611373565b5b60055f9054906101000a900460ff1660078111156103f6576103f5611373565b5b148061043457506004600781111561041157610410611373565b5b60055f9054906101000a900460ff16600781111561043257610431611373565b5b145b610473576040517f08c379a000000000000000000000000000000000000000000000000000000000815260040161046a9061163d565b60405180910390fd5b600860019054906101000a900460ff16156104c3576040517f08c379a00000000000000000000000000000000000000000000000000000000081526004016104ba906116a5565b60405180910390fd5b6001600860016101000a81548160ff021916908315150217905550600660055f6101000a81548160ff0219169083600781111561050357610502611373565b5b021790555060025f9054906101000a900473ffffffffffffffffffffffffffffffffffffffff1673ffffffffffffffffffffffffffffffffffffffff166108fc60045490811502906040515f60405180830381858888f1935050505015801561056e573d5f5f3e3d5ffd5b5060025f9054906101000a900473ffffffffffffffffffffffffffffffffffffffff1673ffffffffffffffffffffffffffffffffffffffff167feaff4b37086828766ad3268786972c0cd24259d4c87a80f9d3963a3c3d999b0d6004546040516105d8919061152f565b60405180910390a26105e8611312565b565b60025f9054906101000a900473ffffffffffffffffffffffffffffffffffffffff1673ffffffffffffffffffffffffffffffffffffffff163373ffffffffffffffffffffffffffffffffffffffff1614610679576040517f08c379a0000000000000000000000000000000000000000000000000000000008152600401610670906115d5565b60405180910390fd5b6001600781111561068d5761068c611373565b5b60055f9054906101000a900460ff1660078111156106ae576106ad611373565b5b146106ee576040517f08c379a00000000000000000000000000000000000000000000000000000000081526004016106e59061170d565b60405180910390fd5b60085f9054906101000a900460ff161561073d576040517f08c379a000000000000000000000000000000000000000000000000000000000815260040161073490611775565b60405180910390fd5b80600781905550600160085f6101000a81548160ff021916908315150217905550600260055f6101000a81548160ff0219169083600781111561078357610782611373565b5b02179055507f38bb74aee35525ad6f921035a12a3d9a215b349edc85b7d0a474443be9f78d4b816040516107b791906114fe565b60405180910390a150565b60035f9054906101000a900473ffffffffffffffffffffffffffffffffffffffff1673ffffffffffffffffffffffffffffffffffffffff163373ffffffffffffffffffffffffffffffffffffffff1614610851576040517f08c379a0000000000000000000000000000000000000000000000000000000008152600401610848906117dd565b60405180910390fd5b6002600781111561086557610864611373565b5b60055f9054906101000a900460ff16600781111561088657610885611373565b5b146108c6576040517f08c379a00000000000000000000000000000000000000000000000000000000081526004016108bd90611845565b60405180910390fd5b60085f9054906101000a900460ff16610914576040517f08c379a000000000000000000000000000000000000000000000000000000000815260040161090b906118ad565b60405180910390fd5b8060075414610958576040517f08c379a000000000000000000000000000000000000000000000000000000000815260040161094f90611915565b60405180910390fd5b600360055f6101000a81548160ff0219169083600781111561097d5761097c611373565b5b02179055507f4cfed5a6b337f78f2df5b8499b67efc08ce0d2cbed5d1be5c62bb6e0295e878560405160405180910390a150565b60015f9054906101000a900473ffffffffffffffffffffffffffffffffffffffff1673ffffffffffffffffffffffffffffffffffffffff163373ffffffffffffffffffffffffffffffffffffffff1614610a40576040517f08c379a0000000000000000000000000000000000000000000000000000000008152600401610a379061197d565b60405180910390fd5b60036007811115610a5457610a53611373565b5b60055f9054906101000a900460ff166007811115610a7557610a74611373565b5b14610ab5576040517f08c379a0000000000000000000000000000000000000000000000000000000008152600401610aac90611845565b60405180910390fd5b600460055f6101000a81548160ff02191690836007811115610ada57610ad9611373565b5b02179055507f5e6503d0ab32f3f8277c0fd77503f7dec641b04440d3f18dae0a517eeee8deba60405160405180910390a160025f9054906101000a900473ffffffffffffffffffffffffffffffffffffffff1673ffffffffffffffffffffffffffffffffffffffff167fdf20fd1e76bc69d672e4814fafb2c449bba3a5369d8359adf9e05e6fde87b056600454604051610b74919061152f565b60405180910390a2565b60015f9054906101000a900473ffffffffffffffffffffffffffffffffffffffff1673ffffffffffffffffffffffffffffffffffffffff163373ffffffffffffffffffffffffffffffffffffffff1614610c0d576040517f08c379a0000000000000000000000000000000000000000000000000000000008152600401610c049061197d565b60405180910390fd5b600360149054906101000a900460ff1615610c5d576040517f08c379a0000000000000000000000000000000000000000000000000000000008152600401610c54906119e5565b60405180910390fd5b5f73ffffffffffffffffffffffffffffffffffffffff168173ffffffffffffffffffffffffffffffffffffffff1603610ccb576040517f08c379a0000000000000000000000000000000000000000000000000000000008152600401610cc290611a4d565b60405180910390fd5b8060035f6101000a81548173ffffffffffffffffffffffffffffffffffffffff021916908373ffffffffffffffffffffffffffffffffffffffff1602179055506001600360146101000a81548160ff0219169083151502179055508073ffffffffffffffffffffffffffffffffffffffff167f3f32684a32a11dabdbb8c0177de80aa3ae36a004d75210335b49e544e48cd0aa60405160405180910390a250565b60035f9054906101000a900473ffffffffffffffffffffffffffffffffffffffff1681565b60065481565b60015f9054906101000a900473ffffffffffffffffffffffffffffffffffffffff1673ffffffffffffffffffffffffffffffffffffffff163373ffffffffffffffffffffffffffffffffffffffff1614610e26576040517f08c379a0000000000000000000000000000000000000000000000000000000008152600401610e1d9061197d565b60405180910390fd5b60016007811115610e3a57610e39611373565b5b60055f9054906101000a900460ff166007811115610e5b57610e5a611373565b5b14610e9b576040517f08c379a0000000000000000000000000000000000000000000000000000000008152600401610e9290611ab5565b60405180910390fd5b60085f9054906101000a900460ff1615610eea576040517f08c379a0000000000000000000000000000000000000000000000000000000008152600401610ee190611b1d565b60405180910390fd5b6005805f6101000a81548160ff02191690836007811115610f0e57610f0d611373565b5b021790555060025f9054906101000a900473ffffffffffffffffffffffffffffffffffffffff1673ffffffffffffffffffffffffffffffffffffffff167fdf20fd1e76bc69d672e4814fafb2c449bba3a5369d8359adf9e05e6fde87b056600454604051610f7c919061152f565b60405180910390a2565b60045481565b60025f9054906101000a900473ffffffffffffffffffffffffffffffffffffffff1673ffffffffffffffffffffffffffffffffffffffff163373ffffffffffffffffffffffffffffffffffffffff161461101b576040517f08c379a0000000000000000000000000000000000000000000000000000000008152600401611012906115d5565b60405180910390fd5b5f600781111561102e5761102d611373565b5b60055f9054906101000a900460ff16600781111561104f5761104e611373565b5b1461108f576040517f08c379a000000000000000000000000000000000000000000000000000000000815260040161108690611b85565b60405180910390fd5b600160055f6101000a81548160ff021916908360078111156110b4576110b3611373565b5b02179055507f986d851566001b0dbaded1a1f6815819b285e1dd1ac5dc1626f32903036d2f2b60405160405180910390a1565b60015f9054906101000a900473ffffffffffffffffffffffffffffffffffffffff1673ffffffffffffffffffffffffffffffffffffffff163373ffffffffffffffffffffffffffffffffffffffff1614611176576040517f08c379a000000000000000000000000000000000000000000000000000000000815260040161116d9061197d565b60405180910390fd5b6006600781111561118a57611189611373565b5b60055f9054906101000a900460ff1660078111156111ab576111aa611373565b5b146111eb576040517f08c379a00000000000000000000000000000000000000000000000000000000081526004016111e290611bed565b60405180910390fd5b60065f905560075f9055600760055f6101000a81548160ff0219169083600781111561121a57611219611373565b5b02179055507f8c8771d60e1ae6b90556d35dc2f79a3190d6b4088c05d7ca8cabbb9e9061f3e560405160405180910390a1565b5f60055f9054906101000a900460ff16905090565b60025f9054906101000a900473ffffffffffffffffffffffffffffffffffffffff1681565b600860019054906101000a900460ff1681565b60085f9054906101000a900460ff1681565b60075481565b600360149054906101000a900460ff1681565b60025f5403611309576040517f08c379a000000000000000000000000000000000000000000000000000000000815260040161130090611c55565b60405180910390fd5b60025f81905550565b60015f81905550565b5f73ffffffffffffffffffffffffffffffffffffffff82169050919050565b5f6113448261131b565b9050919050565b6113548161133a565b82525050565b5f60208201905061136d5f83018461134b565b92915050565b7f4e487b71000000000000000000000000000000000000000000000000000000005f52602160045260245ffd5b600881106113b1576113b0611373565b5b50565b5f8190506113c1826113a0565b919050565b5f6113d0826113b4565b9050919050565b6113e0816113c6565b82525050565b5f6020820190506113f95f8301846113d7565b92915050565b5f5ffd5b5f819050919050565b61141581611403565b811461141f575f5ffd5b50565b5f813590506114308161140c565b92915050565b5f6020828403121561144b5761144a6113ff565b5b5f61145884828501611422565b91505092915050565b5f61146b8261131b565b9050919050565b61147b81611461565b8114611485575f5ffd5b50565b5f8135905061149681611472565b92915050565b5f602082840312156114b1576114b06113ff565b5b5f6114be84828501611488565b91505092915050565b6114d081611461565b82525050565b5f6020820190506114e95f8301846114c7565b92915050565b6114f881611403565b82525050565b5f6020820190506115115f8301846114ef565b92915050565b5f819050919050565b61152981611517565b82525050565b5f6020820190506115425f830184611520565b92915050565b5f8115159050919050565b61155c81611548565b82525050565b5f6020820190506115755f830184611553565b92915050565b5f82825260208201905092915050565b7f4e6f7420636f756e7465727061727479000000000000000000000000000000005f82015250565b5f6115bf60108361157b565b91506115ca8261158b565b602082019050919050565b5f6020820190508181035f8301526115ec816115b3565b9050919050565b7f4e6f7420776974686472617761626c65000000000000000000000000000000005f82015250565b5f61162760108361157b565b9150611632826115f3565b602082019050919050565b5f6020820190508181035f8301526116548161161b565b9050919050565b7f416c72656164792077697468647261776e0000000000000000000000000000005f82015250565b5f61168f60118361157b565b915061169a8261165b565b602082019050919050565b5f6020820190508181035f8301526116bc81611683565b9050919050565b7f4e6f74205369676e6564000000000000000000000000000000000000000000005f82015250565b5f6116f7600a8361157b565b9150611702826116c3565b602082019050919050565b5f6020820190508181035f830152611724816116eb565b9050919050565b7f416c7265616479207365740000000000000000000000000000000000000000005f82015250565b5f61175f600b8361157b565b915061176a8261172b565b602082019050919050565b5f6020820190508181035f83015261178c81611753565b9050919050565b7f4e6f74206f7261636c65000000000000000000000000000000000000000000005f82015250565b5f6117c7600a8361157b565b91506117d282611793565b602082019050919050565b5f6020820190508181035f8301526117f4816117bb565b9050919050565b7f57726f6e672073746174757300000000000000000000000000000000000000005f82015250565b5f61182f600c8361157b565b915061183a826117fb565b602082019050919050565b5f6020820190508181035f83015261185c81611823565b9050919050565b7f4e6f2064656c69766572790000000000000000000000000000000000000000005f82015250565b5f611897600b8361157b565b91506118a282611863565b602082019050919050565b5f6020820190508181035f8301526118c48161188b565b9050919050565b7f48617368206d69736d61746368000000000000000000000000000000000000005f82015250565b5f6118ff600d8361157b565b915061190a826118cb565b602082019050919050565b5f6020820190508181035f83015261192c816118f3565b9050919050565b7f4e6f742063726561746f720000000000000000000000000000000000000000005f82015250565b5f611967600b8361157b565b915061197282611933565b602082019050919050565b5f6020820190508181035f8301526119948161195b565b9050919050565b7f4f7261636c6520616c72656164792073657400000000000000000000000000005f82015250565b5f6119cf60128361157b565b91506119da8261199b565b602082019050919050565b5f6020820190508181035f8301526119fc816119c3565b9050919050565b7f496e76616c6964206f7261636c650000000000000000000000000000000000005f82015250565b5f611a37600e8361157b565b9150611a4282611a03565b602082019050919050565b5f6020820190508181035f830152611a6481611a2b565b9050919050565b7f4e6f74207369676e6564000000000000000000000000000000000000000000005f82015250565b5f611a9f600a8361157b565b9150611aaa82611a6b565b602082019050919050565b5f6020820190508181035f830152611acc81611a93565b9050919050565b7f44656c697665727920666c6f77207265717569726564000000000000000000005f82015250565b5f611b0760168361157b565b9150611b1282611ad3565b602082019050919050565b5f6020820190508181035f830152611b3481611afb565b9050919050565b7f4e6f7420437265617465640000000000000000000000000000000000000000005f82015250565b5f611b6f600b8361157b565b9150611b7a82611b3b565b602082019050919050565b5f6020820190508181035f830152611b9c81611b63565b9050919050565b7f4f6e6c7920436f6d706c657465640000000000000000000000000000000000005f82015250565b5f611bd7600e8361157b565b9150611be282611ba3565b602082019050919050565b5f6020820190508181035f830152611c0481611bcb565b9050919050565b7f5265656e7472616e637947756172643a207265656e7472616e742063616c6c005f82015250565b5f611c3f601f8361157b565b9150611c4a82611c0b565b602082019050919050565b5f6020820190508181035f830152611c6c81611c33565b905091905056fea2646970667358221220134746476809914c9699a13ab4f60a8e9fd1be2a2d37af2a37b9e0269702156d64736f6c634300081e0033",
					"opcodes": "PUSH1 0x80 PUSH1 0x40 MSTORE PUSH1 0x40 MLOAD PUSH2 0x20C8 CODESIZE SUB DUP1 PUSH2 0x20C8 DUP4 CODECOPY DUP2 DUP2 ADD PUSH1 0x40 MSTORE DUP2 ADD SWAP1 PUSH2 0x25 SWAP2 SWAP1 PUSH2 0x2C7 JUMP JUMPDEST PUSH1 0x1 PUSH0 DUP2 SWAP1 SSTORE POP PUSH0 PUSH20 0xFFFFFFFFFFFFFFFFFFFFFFFFFFFFFFFFFFFFFFFF AND DUP3 PUSH20 0xFFFFFFFFFFFFFFFFFFFFFFFFFFFFFFFFFFFFFFFF AND SUB PUSH2 0x9A JUMPI PUSH1 0x40 MLOAD PUSH32 0x8C379A000000000000000000000000000000000000000000000000000000000 DUP2 MSTORE PUSH1 0x4 ADD PUSH2 0x91 SWAP1 PUSH2 0x35F JUMP JUMPDEST PUSH1 0x40 MLOAD DUP1 SWAP2 SUB SWAP1 REVERT JUMPDEST PUSH0 CALLVALUE GT PUSH2 0xDC JUMPI PUSH1 0x40 MLOAD PUSH32 0x8C379A000000000000000000000000000000000000000000000000000000000 DUP2 MSTORE PUSH1 0x4 ADD PUSH2 0xD3 SWAP1 PUSH2 0x3C7 JUMP JUMPDEST PUSH1 0x40 MLOAD DUP1 SWAP2 SUB SWAP1 REVERT JUMPDEST CALLER PUSH1 0x1 PUSH0 PUSH2 0x100 EXP DUP2 SLOAD DUP2 PUSH20 0xFFFFFFFFFFFFFFFFFFFFFFFFFFFFFFFFFFFFFFFF MUL NOT AND SWAP1 DUP4 PUSH20 0xFFFFFFFFFFFFFFFFFFFFFFFFFFFFFFFFFFFFFFFF AND MUL OR SWAP1 SSTORE POP DUP2 PUSH1 0x2 PUSH0 PUSH2 0x100 EXP DUP2 SLOAD DUP2 PUSH20 0xFFFFFFFFFFFFFFFFFFFFFFFFFFFFFFFFFFFFFFFF MUL NOT AND SWAP1 DUP4 PUSH20 0xFFFFFFFFFFFFFFFFFFFFFFFFFFFFFFFFFFFFFFFF AND MUL OR SWAP1 SSTORE POP CALLVALUE PUSH1 0x4 DUP2 SWAP1 SSTORE POP DUP1 PUSH1 0x6 DUP2 SWAP1 SSTORE POP PUSH0 PUSH1 0x5 PUSH0 PUSH2 0x100 EXP DUP2 SLOAD DUP2 PUSH1 0xFF MUL NOT AND SWAP1 DUP4 PUSH1 0x7 DUP2 GT ISZERO PUSH2 0x18E JUMPI PUSH2 0x18D PUSH2 0x3E5 JUMP JUMPDEST JUMPDEST MUL OR SWAP1 SSTORE POP PUSH1 0x2 PUSH0 SWAP1 SLOAD SWAP1 PUSH2 0x100 EXP SWAP1 DIV PUSH20 0xFFFFFFFFFFFFFFFFFFFFFFFFFFFFFFFFFFFFFFFF AND PUSH20 0xFFFFFFFFFFFFFFFFFFFFFFFFFFFFFFFFFFFFFFFF AND PUSH1 0x1 PUSH0 SWAP1 SLOAD SWAP1 PUSH2 0x100 EXP SWAP1 DIV PUSH20 0xFFFFFFFFFFFFFFFFFFFFFFFFFFFFFFFFFFFFFFFF AND PUSH20 0xFFFFFFFFFFFFFFFFFFFFFFFFFFFFFFFFFFFFFFFF AND PUSH32 0x2D49C67975AADD2D389580B368CFFF5B49965B0BD5DA33C144922CE01E7A4D7B PUSH1 0x40 MLOAD PUSH1 0x40 MLOAD DUP1 SWAP2 SUB SWAP1 LOG3 POP POP PUSH2 0x412 JUMP JUMPDEST PUSH0 PUSH0 REVERT JUMPDEST PUSH0 PUSH20 0xFFFFFFFFFFFFFFFFFFFFFFFFFFFFFFFFFFFFFFFF DUP3 AND SWAP1 POP SWAP2 SWAP1 POP JUMP JUMPDEST PUSH0 PUSH2 0x263 DUP3 PUSH2 0x23A JUMP JUMPDEST SWAP1 POP SWAP2 SWAP1 POP JUMP JUMPDEST PUSH2 0x273 DUP2 PUSH2 0x259 JUMP JUMPDEST DUP2 EQ PUSH2 0x27D JUMPI PUSH0 PUSH0 REVERT JUMPDEST POP JUMP JUMPDEST PUSH0 DUP2 MLOAD SWAP1 POP PUSH2 0x28E DUP2 PUSH2 0x26A JUMP JUMPDEST SWAP3 SWAP2 POP POP JUMP JUMPDEST PUSH0 DUP2 SWAP1 POP SWAP2 SWAP1 POP JUMP JUMPDEST PUSH2 0x2A6 DUP2 PUSH2 0x294 JUMP JUMPDEST DUP2 EQ PUSH2 0x2B0 JUMPI PUSH0 PUSH0 REVERT JUMPDEST POP JUMP JUMPDEST PUSH0 DUP2 MLOAD SWAP1 POP PUSH2 0x2C1 DUP2 PUSH2 0x29D JUMP JUMPDEST SWAP3 SWAP2 POP POP JUMP JUMPDEST PUSH0 PUSH0 PUSH1 0x40 DUP4 DUP6 SUB SLT ISZERO PUSH2 0x2DD JUMPI PUSH2 0x2DC PUSH2 0x236 JUMP JUMPDEST JUMPDEST PUSH0 PUSH2 0x2EA DUP6 DUP3 DUP7 ADD PUSH2 0x280 JUMP JUMPDEST SWAP3 POP POP PUSH1 0x20 PUSH2 0x2FB DUP6 DUP3 DUP7 ADD PUSH2 0x2B3 JUMP JUMPDEST SWAP2 POP POP SWAP3 POP SWAP3 SWAP1 POP JUMP JUMPDEST PUSH0 DUP3 DUP3 MSTORE PUSH1 0x20 DUP3 ADD SWAP1 POP SWAP3 SWAP2 POP POP JUMP JUMPDEST PUSH32 0x302061646472206E6F7420616C6C6F7765640000000000000000000000000000 PUSH0 DUP3 ADD MSTORE POP JUMP JUMPDEST PUSH0 PUSH2 0x349 PUSH1 0x12 DUP4 PUSH2 0x305 JUMP JUMPDEST SWAP2 POP PUSH2 0x354 DUP3 PUSH2 0x315 JUMP JUMPDEST PUSH1 0x20 DUP3 ADD SWAP1 POP SWAP2 SWAP1 POP JUMP JUMPDEST PUSH0 PUSH1 0x20 DUP3 ADD SWAP1 POP DUP2 DUP2 SUB PUSH0 DUP4 ADD MSTORE PUSH2 0x376 DUP2 PUSH2 0x33D JUMP JUMPDEST SWAP1 POP SWAP2 SWAP1 POP JUMP JUMPDEST PUSH32 0x4554482072657175697265640000000000000000000000000000000000000000 PUSH0 DUP3 ADD MSTORE POP JUMP JUMPDEST PUSH0 PUSH2 0x3B1 PUSH1 0xC DUP4 PUSH2 0x305 JUMP JUMPDEST SWAP2 POP PUSH2 0x3BC DUP3 PUSH2 0x37D JUMP JUMPDEST PUSH1 0x20 DUP3 ADD SWAP1 POP SWAP2 SWAP1 POP JUMP JUMPDEST PUSH0 PUSH1 0x20 DUP3 ADD SWAP1 POP DUP2 DUP2 SUB PUSH0 DUP4 ADD MSTORE PUSH2 0x3DE DUP2 PUSH2 0x3A5 JUMP JUMPDEST SWAP1 POP SWAP2 SWAP1 POP JUMP JUMPDEST PUSH32 0x4E487B7100000000000000000000000000000000000000000000000000000000 PUSH0 MSTORE PUSH1 0x21 PUSH1 0x4 MSTORE PUSH1 0x24 PUSH0 REVERT JUMPDEST PUSH2 0x1CA9 DUP1 PUSH2 0x41F PUSH0 CODECOPY PUSH0 RETURN INVALID PUSH1 0x80 PUSH1 0x40 MSTORE CALLVALUE DUP1 ISZERO PUSH2 0xF JUMPI PUSH0 PUSH0 REVERT JUMPDEST POP PUSH1 0x4 CALLDATASIZE LT PUSH2 0x11F JUMPI PUSH0 CALLDATALOAD PUSH1 0xE0 SHR DUP1 PUSH4 0xA06AA1AB GT PUSH2 0xAB JUMPI DUP1 PUSH4 0xC3DF6546 GT PUSH2 0x6F JUMPI DUP1 PUSH4 0xC3DF6546 EQ PUSH2 0x25D JUMPI DUP1 PUSH4 0xC80EC522 EQ PUSH2 0x27B JUMPI DUP1 PUSH4 0xD556C4C3 EQ PUSH2 0x299 JUMPI DUP1 PUSH4 0xDE8A8435 EQ PUSH2 0x2B7 JUMPI DUP1 PUSH4 0xEDB3B27A EQ PUSH2 0x2D5 JUMPI PUSH2 0x11F JUMP JUMPDEST DUP1 PUSH4 0xA06AA1AB EQ PUSH2 0x203 JUMPI DUP1 PUSH4 0xAA8C217C EQ PUSH2 0x20D JUMPI DUP1 PUSH4 0xB8B4F1A0 EQ PUSH2 0x22B JUMPI DUP1 PUSH4 0xBCA353BE EQ PUSH2 0x235 JUMPI DUP1 PUSH4 0xC032846B EQ PUSH2 0x23F JUMPI PUSH2 0x11F JUMP JUMPDEST DUP1 PUSH4 0x3AE11DBF GT PUSH2 0xF2 JUMPI DUP1 PUSH4 0x3AE11DBF EQ PUSH2 0x185 JUMPI DUP1 PUSH4 0x61150ABC EQ PUSH2 0x1A1 JUMPI DUP1 PUSH4 0x7ADBF973 EQ PUSH2 0x1AB JUMPI DUP1 PUSH4 0x7DC0D1D0 EQ PUSH2 0x1C7 JUMPI DUP1 PUSH4 0x904C6094 EQ PUSH2 0x1E5 JUMPI PUSH2 0x11F JUMP JUMPDEST DUP1 PUSH4 0x2D05D3F EQ PUSH2 0x123 JUMPI DUP1 PUSH4 0x200D2ED2 EQ PUSH2 0x141 JUMPI DUP1 PUSH4 0x24600FC3 EQ PUSH2 0x15F JUMPI DUP1 PUSH4 0x2723FACC EQ PUSH2 0x169 JUMPI JUMPDEST PUSH0 PUSH0 REVERT JUMPDEST PUSH2 0x12B PUSH2 0x2F3 JUMP JUMPDEST PUSH1 0x40 MLOAD PUSH2 0x138 SWAP2 SWAP1 PUSH2 0x135A JUMP JUMPDEST PUSH1 0x40 MLOAD DUP1 SWAP2 SUB SWAP1 RETURN JUMPDEST PUSH2 0x149 PUSH2 0x318 JUMP JUMPDEST PUSH1 0x40 MLOAD PUSH2 0x156 SWAP2 SWAP1 PUSH2 0x13E6 JUMP JUMPDEST PUSH1 0x40 MLOAD DUP1 SWAP2 SUB SWAP1 RETURN JUMPDEST PUSH2 0x167 PUSH2 0x32A JUMP JUMPDEST STOP JUMPDEST PUSH2 0x183 PUSH1 0x4 DUP1 CALLDATASIZE SUB DUP2 ADD SWAP1 PUSH2 0x17E SWAP2 SWAP1 PUSH2 0x1436 JUMP JUMPDEST PUSH2 0x5EA JUMP JUMPDEST STOP JUMPDEST PUSH2 0x19F PUSH1 0x4 DUP1 CALLDATASIZE SUB DUP2 ADD SWAP1 PUSH2 0x19A SWAP2 SWAP1 PUSH2 0x1436 JUMP JUMPDEST PUSH2 0x7C2 JUMP JUMPDEST STOP JUMPDEST PUSH2 0x1A9 PUSH2 0x9B1 JUMP JUMPDEST STOP JUMPDEST PUSH2 0x1C5 PUSH1 0x4 DUP1 CALLDATASIZE SUB DUP2 ADD SWAP1 PUSH2 0x1C0 SWAP2 SWAP1 PUSH2 0x149C JUMP JUMPDEST PUSH2 0xB7E JUMP JUMPDEST STOP JUMPDEST PUSH2 0x1CF PUSH2 0xD6C JUMP JUMPDEST PUSH1 0x40 MLOAD PUSH2 0x1DC SWAP2 SWAP1 PUSH2 0x14D6 JUMP JUMPDEST PUSH1 0x40 MLOAD DUP1 SWAP2 SUB SWAP1 RETURN JUMPDEST PUSH2 0x1ED PUSH2 0xD91 JUMP JUMPDEST PUSH1 0x40 MLOAD PUSH2 0x1FA SWAP2 SWAP1 PUSH2 0x14FE JUMP JUMPDEST PUSH1 0x40 MLOAD DUP1 SWAP2 SUB SWAP1 RETURN JUMPDEST PUSH2 0x20B PUSH2 0xD97 JUMP JUMPDEST STOP JUMPDEST PUSH2 0x215 PUSH2 0xF86 JUMP JUMPDEST PUSH1 0x40 MLOAD PUSH2 0x222 SWAP2 SWAP1 PUSH2 0x152F JUMP JUMPDEST PUSH1 0x40 MLOAD DUP1 SWAP2 SUB SWAP1 RETURN JUMPDEST PUSH2 0x233 PUSH2 0xF8C JUMP JUMPDEST STOP JUMPDEST PUSH2 0x23D PUSH2 0x10E7 JUMP JUMPDEST STOP JUMPDEST PUSH2 0x247 PUSH2 0x124D JUMP JUMPDEST PUSH1 0x40 MLOAD PUSH2 0x254 SWAP2 SWAP1 PUSH2 0x13E6 JUMP JUMPDEST PUSH1 0x40 MLOAD DUP1 SWAP2 SUB SWAP1 RETURN JUMPDEST PUSH2 0x265 PUSH2 0x1262 JUMP JUMPDEST PUSH1 0x40 MLOAD PUSH2 0x272 SWAP2 SWAP1 PUSH2 0x135A JUMP JUMPDEST PUSH1 0x40 MLOAD DUP1 SWAP2 SUB SWAP1 RETURN JUMPDEST PUSH2 0x283 PUSH2 0x1287 JUMP JUMPDEST PUSH1 0x40 MLOAD PUSH2 0x290 SWAP2 SWAP1 PUSH2 0x1562 JUMP JUMPDEST PUSH1 0x40 MLOAD DUP1 SWAP2 SUB SWAP1 RETURN JUMPDEST PUSH2 0x2A1 PUSH2 0x129A JUMP JUMPDEST PUSH1 0x40 MLOAD PUSH2 0x2AE SWAP2 SWAP1 PUSH2 0x1562 JUMP JUMPDEST PUSH1 0x40 MLOAD DUP1 SWAP2 SUB SWAP1 RETURN JUMPDEST PUSH2 0x2BF PUSH2 0x12AC JUMP JUMPDEST PUSH1 0x40 MLOAD PUSH2 0x2CC SWAP2 SWAP1 PUSH2 0x14FE JUMP JUMPDEST PUSH1 0x40 MLOAD DUP1 SWAP2 SUB SWAP1 RETURN JUMPDEST PUSH2 0x2DD PUSH2 0x12B2 JUMP JUMPDEST PUSH1 0x40 MLOAD PUSH2 0x2EA SWAP2 SWAP1 PUSH2 0x1562 JUMP JUMPDEST PUSH1 0x40 MLOAD DUP1 SWAP2 SUB SWAP1 RETURN JUMPDEST PUSH1 0x1 PUSH0 SWAP1 SLOAD SWAP1 PUSH2 0x100 EXP SWAP1 DIV PUSH20 0xFFFFFFFFFFFFFFFFFFFFFFFFFFFFFFFFFFFFFFFF AND DUP2 JUMP JUMPDEST PUSH1 0x5 PUSH0 SWAP1 SLOAD SWAP1 PUSH2 0x100 EXP SWAP1 DIV PUSH1 0xFF AND DUP2 JUMP JUMPDEST PUSH2 0x332 PUSH2 0x12C5 JUMP JUMPDEST PUSH1 0x2 PUSH0 SWAP1 SLOAD SWAP1 PUSH2 0x100 EXP SWAP1 DIV PUSH20 0xFFFFFFFFFFFFFFFFFFFFFFFFFFFFFFFFFFFFFFFF AND PUSH20 0xFFFFFFFFFFFFFFFFFFFFFFFFFFFFFFFFFFFFFFFF AND CALLER PUSH20 0xFFFFFFFFFFFFFFFFFFFFFFFFFFFFFFFFFFFFFFFF AND EQ PUSH2 0x3C1 JUMPI PUSH1 0x40 MLOAD PUSH32 0x8C379A000000000000000000000000000000000000000000000000000000000 DUP2 MSTORE PUSH1 0x4 ADD PUSH2 0x3B8 SWAP1 PUSH2 0x15D5 JUMP JUMPDEST PUSH1 0x40 MLOAD DUP1 SWAP2 SUB SWAP1 REVERT JUMPDEST PUSH1 0x5 PUSH1 0x7 DUP2 GT ISZERO PUSH2 0x3D5 JUMPI PUSH2 0x3D4 PUSH2 0x1373 JUMP JUMPDEST JUMPDEST PUSH1 0x5 PUSH0 SWAP1 SLOAD SWAP1 PUSH2 0x100 EXP SWAP1 DIV PUSH1 0xFF AND PUSH1 0x7 DUP2 GT ISZERO PUSH2 0x3F6 JUMPI PUSH2 0x3F5 PUSH2 0x1373 JUMP JUMPDEST JUMPDEST EQ DUP1 PUSH2 0x434 JUMPI POP PUSH1 0x4 PUSH1 0x7 DUP2 GT ISZERO PUSH2 0x411 JUMPI PUSH2 0x410 PUSH2 0x1373 JUMP JUMPDEST JUMPDEST PUSH1 0x5 PUSH0 SWAP1 SLOAD SWAP1 PUSH2 0x100 EXP SWAP1 DIV PUSH1 0xFF AND PUSH1 0x7 DUP2 GT ISZERO PUSH2 0x432 JUMPI PUSH2 0x431 PUSH2 0x1373 JUMP JUMPDEST JUMPDEST EQ JUMPDEST PUSH2 0x473 JUMPI PUSH1 0x40 MLOAD PUSH32 0x8C379A000000000000000000000000000000000000000000000000000000000 DUP2 MSTORE PUSH1 0x4 ADD PUSH2 0x46A SWAP1 PUSH2 0x163D JUMP JUMPDEST PUSH1 0x40 MLOAD DUP1 SWAP2 SUB SWAP1 REVERT JUMPDEST PUSH1 0x8 PUSH1 0x1 SWAP1 SLOAD SWAP1 PUSH2 0x100 EXP SWAP1 DIV PUSH1 0xFF AND ISZERO PUSH2 0x4C3 JUMPI PUSH1 0x40 MLOAD PUSH32 0x8C379A000000000000000000000000000000000000000000000000000000000 DUP2 MSTORE PUSH1 0x4 ADD PUSH2 0x4BA SWAP1 PUSH2 0x16A5 JUMP JUMPDEST PUSH1 0x40 MLOAD DUP1 SWAP2 SUB SWAP1 REVERT JUMPDEST PUSH1 0x1 PUSH1 0x8 PUSH1 0x1 PUSH2 0x100 EXP DUP2 SLOAD DUP2 PUSH1 0xFF MUL NOT AND SWAP1 DUP4 ISZERO ISZERO MUL OR SWAP1 SSTORE POP PUSH1 0x6 PUSH1 0x5 PUSH0 PUSH2 0x100 EXP DUP2 SLOAD DUP2 PUSH1 0xFF MUL NOT AND SWAP1 DUP4 PUSH1 0x7 DUP2 GT ISZERO PUSH2 0x503 JUMPI PUSH2 0x502 PUSH2 0x1373 JUMP JUMPDEST JUMPDEST MUL OR SWAP1 SSTORE POP PUSH1 0x2 PUSH0 SWAP1 SLOAD SWAP1 PUSH2 0x100 EXP SWAP1 DIV PUSH20 0xFFFFFFFFFFFFFFFFFFFFFFFFFFFFFFFFFFFFFFFF AND PUSH20 0xFFFFFFFFFFFFFFFFFFFFFFFFFFFFFFFFFFFFFFFF AND PUSH2 0x8FC PUSH1 0x4 SLOAD SWAP1 DUP2 ISZERO MUL SWAP1 PUSH1 0x40 MLOAD PUSH0 PUSH1 0x40 MLOAD DUP1 DUP4 SUB DUP2 DUP6 DUP9 DUP9 CALL SWAP4 POP POP POP POP ISZERO DUP1 ISZERO PUSH2 0x56E JUMPI RETURNDATASIZE PUSH0 PUSH0 RETURNDATACOPY RETURNDATASIZE PUSH0 REVERT JUMPDEST POP PUSH1 0x2 PUSH0 SWAP1 SLOAD SWAP1 PUSH2 0x100 EXP SWAP1 DIV PUSH20 0xFFFFFFFFFFFFFFFFFFFFFFFFFFFFFFFFFFFFFFFF AND PUSH20 0xFFFFFFFFFFFFFFFFFFFFFFFFFFFFFFFFFFFFFFFF AND PUSH32 0xEAFF4B37086828766AD3268786972C0CD24259D4C87A80F9D3963A3C3D999B0D PUSH1 0x4 SLOAD PUSH1 0x40 MLOAD PUSH2 0x5D8 SWAP2 SWAP1 PUSH2 0x152F JUMP JUMPDEST PUSH1 0x40 MLOAD DUP1 SWAP2 SUB SWAP1 LOG2 PUSH2 0x5E8 PUSH2 0x1312 JUMP JUMPDEST JUMP JUMPDEST PUSH1 0x2 PUSH0 SWAP1 SLOAD SWAP1 PUSH2 0x100 EXP SWAP1 DIV PUSH20 0xFFFFFFFFFFFFFFFFFFFFFFFFFFFFFFFFFFFFFFFF AND PUSH20 0xFFFFFFFFFFFFFFFFFFFFFFFFFFFFFFFFFFFFFFFF AND CALLER PUSH20 0xFFFFFFFFFFFFFFFFFFFFFFFFFFFFFFFFFFFFFFFF AND EQ PUSH2 0x679 JUMPI PUSH1 0x40 MLOAD PUSH32 0x8C379A000000000000000000000000000000000000000000000000000000000 DUP2 MSTORE PUSH1 0x4 ADD PUSH2 0x670 SWAP1 PUSH2 0x15D5 JUMP JUMPDEST PUSH1 0x40 MLOAD DUP1 SWAP2 SUB SWAP1 REVERT JUMPDEST PUSH1 0x1 PUSH1 0x7 DUP2 GT ISZERO PUSH2 0x68D JUMPI PUSH2 0x68C PUSH2 0x1373 JUMP JUMPDEST JUMPDEST PUSH1 0x5 PUSH0 SWAP1 SLOAD SWAP1 PUSH2 0x100 EXP SWAP1 DIV PUSH1 0xFF AND PUSH1 0x7 DUP2 GT ISZERO PUSH2 0x6AE JUMPI PUSH2 0x6AD PUSH2 0x1373 JUMP JUMPDEST JUMPDEST EQ PUSH2 0x6EE JUMPI PUSH1 0x40 MLOAD PUSH32 0x8C379A000000000000000000000000000000000000000000000000000000000 DUP2 MSTORE PUSH1 0x4 ADD PUSH2 0x6E5 SWAP1 PUSH2 0x170D JUMP JUMPDEST PUSH1 0x40 MLOAD DUP1 SWAP2 SUB SWAP1 REVERT JUMPDEST PUSH1 0x8 PUSH0 SWAP1 SLOAD SWAP1 PUSH2 0x100 EXP SWAP1 DIV PUSH1 0xFF AND ISZERO PUSH2 0x73D JUMPI PUSH1 0x40 MLOAD PUSH32 0x8C379A000000000000000000000000000000000000000000000000000000000 DUP2 MSTORE PUSH1 0x4 ADD PUSH2 0x734 SWAP1 PUSH2 0x1775 JUMP JUMPDEST PUSH1 0x40 MLOAD DUP1 SWAP2 SUB SWAP1 REVERT JUMPDEST DUP1 PUSH1 0x7 DUP2 SWAP1 SSTORE POP PUSH1 0x1 PUSH1 0x8 PUSH0 PUSH2 0x100 EXP DUP2 SLOAD DUP2 PUSH1 0xFF MUL NOT AND SWAP1 DUP4 ISZERO ISZERO MUL OR SWAP1 SSTORE POP PUSH1 0x2 PUSH1 0x5 PUSH0 PUSH2 0x100 EXP DUP2 SLOAD DUP2 PUSH1 0xFF MUL NOT AND SWAP1 DUP4 PUSH1 0x7 DUP2 GT ISZERO PUSH2 0x783 JUMPI PUSH2 0x782 PUSH2 0x1373 JUMP JUMPDEST JUMPDEST MUL OR SWAP1 SSTORE POP PUSH32 0x38BB74AEE35525AD6F921035A12A3D9A215B349EDC85B7D0A474443BE9F78D4B DUP2 PUSH1 0x40 MLOAD PUSH2 0x7B7 SWAP2 SWAP1 PUSH2 0x14FE JUMP JUMPDEST PUSH1 0x40 MLOAD DUP1 SWAP2 SUB SWAP1 LOG1 POP JUMP JUMPDEST PUSH1 0x3 PUSH0 SWAP1 SLOAD SWAP1 PUSH2 0x100 EXP SWAP1 DIV PUSH20 0xFFFFFFFFFFFFFFFFFFFFFFFFFFFFFFFFFFFFFFFF AND PUSH20 0xFFFFFFFFFFFFFFFFFFFFFFFFFFFFFFFFFFFFFFFF AND CALLER PUSH20 0xFFFFFFFFFFFFFFFFFFFFFFFFFFFFFFFFFFFFFFFF AND EQ PUSH2 0x851 JUMPI PUSH1 0x40 MLOAD PUSH32 0x8C379A000000000000000000000000000000000000000000000000000000000 DUP2 MSTORE PUSH1 0x4 ADD PUSH2 0x848 SWAP1 PUSH2 0x17DD JUMP JUMPDEST PUSH1 0x40 MLOAD DUP1 SWAP2 SUB SWAP1 REVERT JUMPDEST PUSH1 0x2 PUSH1 0x7 DUP2 GT ISZERO PUSH2 0x865 JUMPI PUSH2 0x864 PUSH2 0x1373 JUMP JUMPDEST JUMPDEST PUSH1 0x5 PUSH0 SWAP1 SLOAD SWAP1 PUSH2 0x100 EXP SWAP1 DIV PUSH1 0xFF AND PUSH1 0x7 DUP2 GT ISZERO PUSH2 0x886 JUMPI PUSH2 0x885 PUSH2 0x1373 JUMP JUMPDEST JUMPDEST EQ PUSH2 0x8C6 JUMPI PUSH1 0x40 MLOAD PUSH32 0x8C379A000000000000000000000000000000000000000000000000000000000 DUP2 MSTORE PUSH1 0x4 ADD PUSH2 0x8BD SWAP1 PUSH2 0x1845 JUMP JUMPDEST PUSH1 0x40 MLOAD DUP1 SWAP2 SUB SWAP1 REVERT JUMPDEST PUSH1 0x8 PUSH0 SWAP1 SLOAD SWAP1 PUSH2 0x100 EXP SWAP1 DIV PUSH1 0xFF AND PUSH2 0x914 JUMPI PUSH1 0x40 MLOAD PUSH32 0x8C379A000000000000000000000000000000000000000000000000000000000 DUP2 MSTORE PUSH1 0x4 ADD PUSH2 0x90B SWAP1 PUSH2 0x18AD JUMP JUMPDEST PUSH1 0x40 MLOAD DUP1 SWAP2 SUB SWAP1 REVERT JUMPDEST DUP1 PUSH1 0x7 SLOAD EQ PUSH2 0x958 JUMPI PUSH1 0x40 MLOAD PUSH32 0x8C379A000000000000000000000000000000000000000000000000000000000 DUP2 MSTORE PUSH1 0x4 ADD PUSH2 0x94F SWAP1 PUSH2 0x1915 JUMP JUMPDEST PUSH1 0x40 MLOAD DUP1 SWAP2 SUB SWAP1 REVERT JUMPDEST PUSH1 0x3 PUSH1 0x5 PUSH0 PUSH2 0x100 EXP DUP2 SLOAD DUP2 PUSH1 0xFF MUL NOT AND SWAP1 DUP4 PUSH1 0x7 DUP2 GT ISZERO PUSH2 0x97D JUMPI PUSH2 0x97C PUSH2 0x1373 JUMP JUMPDEST JUMPDEST MUL OR SWAP1 SSTORE POP PUSH32 0x4CFED5A6B337F78F2DF5B8499B67EFC08CE0D2CBED5D1BE5C62BB6E0295E8785 PUSH1 0x40 MLOAD PUSH1 0x40 MLOAD DUP1 SWAP2 SUB SWAP1 LOG1 POP JUMP JUMPDEST PUSH1 0x1 PUSH0 SWAP1 SLOAD SWAP1 PUSH2 0x100 EXP SWAP1 DIV PUSH20 0xFFFFFFFFFFFFFFFFFFFFFFFFFFFFFFFFFFFFFFFF AND PUSH20 0xFFFFFFFFFFFFFFFFFFFFFFFFFFFFFFFFFFFFFFFF AND CALLER PUSH20 0xFFFFFFFFFFFFFFFFFFFFFFFFFFFFFFFFFFFFFFFF AND EQ PUSH2 0xA40 JUMPI PUSH1 0x40 MLOAD PUSH32 0x8C379A000000000000000000000000000000000000000000000000000000000 DUP2 MSTORE PUSH1 0x4 ADD PUSH2 0xA37 SWAP1 PUSH2 0x197D JUMP JUMPDEST PUSH1 0x40 MLOAD DUP1 SWAP2 SUB SWAP1 REVERT JUMPDEST PUSH1 0x3 PUSH1 0x7 DUP2 GT ISZERO PUSH2 0xA54 JUMPI PUSH2 0xA53 PUSH2 0x1373 JUMP JUMPDEST JUMPDEST PUSH1 0x5 PUSH0 SWAP1 SLOAD SWAP1 PUSH2 0x100 EXP SWAP1 DIV PUSH1 0xFF AND PUSH1 0x7 DUP2 GT ISZERO PUSH2 0xA75 JUMPI PUSH2 0xA74 PUSH2 0x1373 JUMP JUMPDEST JUMPDEST EQ PUSH2 0xAB5 JUMPI PUSH1 0x40 MLOAD PUSH32 0x8C379A000000000000000000000000000000000000000000000000000000000 DUP2 MSTORE PUSH1 0x4 ADD PUSH2 0xAAC SWAP1 PUSH2 0x1845 JUMP JUMPDEST PUSH1 0x40 MLOAD DUP1 SWAP2 SUB SWAP1 REVERT JUMPDEST PUSH1 0x4 PUSH1 0x5 PUSH0 PUSH2 0x100 EXP DUP2 SLOAD DUP2 PUSH1 0xFF MUL NOT AND SWAP1 DUP4 PUSH1 0x7 DUP2 GT ISZERO PUSH2 0xADA JUMPI PUSH2 0xAD9 PUSH2 0x1373 JUMP JUMPDEST JUMPDEST MUL OR SWAP1 SSTORE POP PUSH32 0x5E6503D0AB32F3F8277C0FD77503F7DEC641B04440D3F18DAE0A517EEEE8DEBA PUSH1 0x40 MLOAD PUSH1 0x40 MLOAD DUP1 SWAP2 SUB SWAP1 LOG1 PUSH1 0x2 PUSH0 SWAP1 SLOAD SWAP1 PUSH2 0x100 EXP SWAP1 DIV PUSH20 0xFFFFFFFFFFFFFFFFFFFFFFFFFFFFFFFFFFFFFFFF AND PUSH20 0xFFFFFFFFFFFFFFFFFFFFFFFFFFFFFFFFFFFFFFFF AND PUSH32 0xDF20FD1E76BC69D672E4814FAFB2C449BBA3A5369D8359ADF9E05E6FDE87B056 PUSH1 0x4 SLOAD PUSH1 0x40 MLOAD PUSH2 0xB74 SWAP2 SWAP1 PUSH2 0x152F JUMP JUMPDEST PUSH1 0x40 MLOAD DUP1 SWAP2 SUB SWAP1 LOG2 JUMP JUMPDEST PUSH1 0x1 PUSH0 SWAP1 SLOAD SWAP1 PUSH2 0x100 EXP SWAP1 DIV PUSH20 0xFFFFFFFFFFFFFFFFFFFFFFFFFFFFFFFFFFFFFFFF AND PUSH20 0xFFFFFFFFFFFFFFFFFFFFFFFFFFFFFFFFFFFFFFFF AND CALLER PUSH20 0xFFFFFFFFFFFFFFFFFFFFFFFFFFFFFFFFFFFFFFFF AND EQ PUSH2 0xC0D JUMPI PUSH1 0x40 MLOAD PUSH32 0x8C379A000000000000000000000000000000000000000000000000000000000 DUP2 MSTORE PUSH1 0x4 ADD PUSH2 0xC04 SWAP1 PUSH2 0x197D JUMP JUMPDEST PUSH1 0x40 MLOAD DUP1 SWAP2 SUB SWAP1 REVERT JUMPDEST PUSH1 0x3 PUSH1 0x14 SWAP1 SLOAD SWAP1 PUSH2 0x100 EXP SWAP1 DIV PUSH1 0xFF AND ISZERO PUSH2 0xC5D JUMPI PUSH1 0x40 MLOAD PUSH32 0x8C379A000000000000000000000000000000000000000000000000000000000 DUP2 MSTORE PUSH1 0x4 ADD PUSH2 0xC54 SWAP1 PUSH2 0x19E5 JUMP JUMPDEST PUSH1 0x40 MLOAD DUP1 SWAP2 SUB SWAP1 REVERT JUMPDEST PUSH0 PUSH20 0xFFFFFFFFFFFFFFFFFFFFFFFFFFFFFFFFFFFFFFFF AND DUP2 PUSH20 0xFFFFFFFFFFFFFFFFFFFFFFFFFFFFFFFFFFFFFFFF AND SUB PUSH2 0xCCB JUMPI PUSH1 0x40 MLOAD PUSH32 0x8C379A000000000000000000000000000000000000000000000000000000000 DUP2 MSTORE PUSH1 0x4 ADD PUSH2 0xCC2 SWAP1 PUSH2 0x1A4D JUMP JUMPDEST PUSH1 0x40 MLOAD DUP1 SWAP2 SUB SWAP1 REVERT JUMPDEST DUP1 PUSH1 0x3 PUSH0 PUSH2 0x100 EXP DUP2 SLOAD DUP2 PUSH20 0xFFFFFFFFFFFFFFFFFFFFFFFFFFFFFFFFFFFFFFFF MUL NOT AND SWAP1 DUP4 PUSH20 0xFFFFFFFFFFFFFFFFFFFFFFFFFFFFFFFFFFFFFFFF AND MUL OR SWAP1 SSTORE POP PUSH1 0x1 PUSH1 0x3 PUSH1 0x14 PUSH2 0x100 EXP DUP2 SLOAD DUP2 PUSH1 0xFF MUL NOT AND SWAP1 DUP4 ISZERO ISZERO MUL OR SWAP1 SSTORE POP DUP1 PUSH20 0xFFFFFFFFFFFFFFFFFFFFFFFFFFFFFFFFFFFFFFFF AND PUSH32 0x3F32684A32A11DABDBB8C0177DE80AA3AE36A004D75210335B49E544E48CD0AA PUSH1 0x40 MLOAD PUSH1 0x40 MLOAD DUP1 SWAP2 SUB SWAP1 LOG2 POP JUMP JUMPDEST PUSH1 0x3 PUSH0 SWAP1 SLOAD SWAP1 PUSH2 0x100 EXP SWAP1 DIV PUSH20 0xFFFFFFFFFFFFFFFFFFFFFFFFFFFFFFFFFFFFFFFF AND DUP2 JUMP JUMPDEST PUSH1 0x6 SLOAD DUP2 JUMP JUMPDEST PUSH1 0x1 PUSH0 SWAP1 SLOAD SWAP1 PUSH2 0x100 EXP SWAP1 DIV PUSH20 0xFFFFFFFFFFFFFFFFFFFFFFFFFFFFFFFFFFFFFFFF AND PUSH20 0xFFFFFFFFFFFFFFFFFFFFFFFFFFFFFFFFFFFFFFFF AND CALLER PUSH20 0xFFFFFFFFFFFFFFFFFFFFFFFFFFFFFFFFFFFFFFFF AND EQ PUSH2 0xE26 JUMPI PUSH1 0x40 MLOAD PUSH32 0x8C379A000000000000000000000000000000000000000000000000000000000 DUP2 MSTORE PUSH1 0x4 ADD PUSH2 0xE1D SWAP1 PUSH2 0x197D JUMP JUMPDEST PUSH1 0x40 MLOAD DUP1 SWAP2 SUB SWAP1 REVERT JUMPDEST PUSH1 0x1 PUSH1 0x7 DUP2 GT ISZERO PUSH2 0xE3A JUMPI PUSH2 0xE39 PUSH2 0x1373 JUMP JUMPDEST JUMPDEST PUSH1 0x5 PUSH0 SWAP1 SLOAD SWAP1 PUSH2 0x100 EXP SWAP1 DIV PUSH1 0xFF AND PUSH1 0x7 DUP2 GT ISZERO PUSH2 0xE5B JUMPI PUSH2 0xE5A PUSH2 0x1373 JUMP JUMPDEST JUMPDEST EQ PUSH2 0xE9B JUMPI PUSH1 0x40 MLOAD PUSH32 0x8C379A000000000000000000000000000000000000000000000000000000000 DUP2 MSTORE PUSH1 0x4 ADD PUSH2 0xE92 SWAP1 PUSH2 0x1AB5 JUMP JUMPDEST PUSH1 0x40 MLOAD DUP1 SWAP2 SUB SWAP1 REVERT JUMPDEST PUSH1 0x8 PUSH0 SWAP1 SLOAD SWAP1 PUSH2 0x100 EXP SWAP1 DIV PUSH1 0xFF AND ISZERO PUSH2 0xEEA JUMPI PUSH1 0x40 MLOAD PUSH32 0x8C379A000000000000000000000000000000000000000000000000000000000 DUP2 MSTORE PUSH1 0x4 ADD PUSH2 0xEE1 SWAP1 PUSH2 0x1B1D JUMP JUMPDEST PUSH1 0x40 MLOAD DUP1 SWAP2 SUB SWAP1 REVERT JUMPDEST PUSH1 0x5 DUP1 PUSH0 PUSH2 0x100 EXP DUP2 SLOAD DUP2 PUSH1 0xFF MUL NOT AND SWAP1 DUP4 PUSH1 0x7 DUP2 GT ISZERO PUSH2 0xF0E JUMPI PUSH2 0xF0D PUSH2 0x1373 JUMP JUMPDEST JUMPDEST MUL OR SWAP1 SSTORE POP PUSH1 0x2 PUSH0 SWAP1 SLOAD SWAP1 PUSH2 0x100 EXP SWAP1 DIV PUSH20 0xFFFFFFFFFFFFFFFFFFFFFFFFFFFFFFFFFFFFFFFF AND PUSH20 0xFFFFFFFFFFFFFFFFFFFFFFFFFFFFFFFFFFFFFFFF AND PUSH32 0xDF20FD1E76BC69D672E4814FAFB2C449BBA3A5369D8359ADF9E05E6FDE87B056 PUSH1 0x4 SLOAD PUSH1 0x40 MLOAD PUSH2 0xF7C SWAP2 SWAP1 PUSH2 0x152F JUMP JUMPDEST PUSH1 0x40 MLOAD DUP1 SWAP2 SUB SWAP1 LOG2 JUMP JUMPDEST PUSH1 0x4 SLOAD DUP2 JUMP JUMPDEST PUSH1 0x2 PUSH0 SWAP1 SLOAD SWAP1 PUSH2 0x100 EXP SWAP1 DIV PUSH20 0xFFFFFFFFFFFFFFFFFFFFFFFFFFFFFFFFFFFFFFFF AND PUSH20 0xFFFFFFFFFFFFFFFFFFFFFFFFFFFFFFFFFFFFFFFF AND CALLER PUSH20 0xFFFFFFFFFFFFFFFFFFFFFFFFFFFFFFFFFFFFFFFF AND EQ PUSH2 0x101B JUMPI PUSH1 0x40 MLOAD PUSH32 0x8C379A000000000000000000000000000000000000000000000000000000000 DUP2 MSTORE PUSH1 0x4 ADD PUSH2 0x1012 SWAP1 PUSH2 0x15D5 JUMP JUMPDEST PUSH1 0x40 MLOAD DUP1 SWAP2 SUB SWAP1 REVERT JUMPDEST PUSH0 PUSH1 0x7 DUP2 GT ISZERO PUSH2 0x102E JUMPI PUSH2 0x102D PUSH2 0x1373 JUMP JUMPDEST JUMPDEST PUSH1 0x5 PUSH0 SWAP1 SLOAD SWAP1 PUSH2 0x100 EXP SWAP1 DIV PUSH1 0xFF AND PUSH1 0x7 DUP2 GT ISZERO PUSH2 0x104F JUMPI PUSH2 0x104E PUSH2 0x1373 JUMP JUMPDEST JUMPDEST EQ PUSH2 0x108F JUMPI PUSH1 0x40 MLOAD PUSH32 0x8C379A000000000000000000000000000000000000000000000000000000000 DUP2 MSTORE PUSH1 0x4 ADD PUSH2 0x1086 SWAP1 PUSH2 0x1B85 JUMP JUMPDEST PUSH1 0x40 MLOAD DUP1 SWAP2 SUB SWAP1 REVERT JUMPDEST PUSH1 0x1 PUSH1 0x5 PUSH0 PUSH2 0x100 EXP DUP2 SLOAD DUP2 PUSH1 0xFF MUL NOT AND SWAP1 DUP4 PUSH1 0x7 DUP2 GT ISZERO PUSH2 0x10B4 JUMPI PUSH2 0x10B3 PUSH2 0x1373 JUMP JUMPDEST JUMPDEST MUL OR SWAP1 SSTORE POP PUSH32 0x986D851566001B0DBADED1A1F6815819B285E1DD1AC5DC1626F32903036D2F2B PUSH1 0x40 MLOAD PUSH1 0x40 MLOAD DUP1 SWAP2 SUB SWAP1 LOG1 JUMP JUMPDEST PUSH1 0x1 PUSH0 SWAP1 SLOAD SWAP1 PUSH2 0x100 EXP SWAP1 DIV PUSH20 0xFFFFFFFFFFFFFFFFFFFFFFFFFFFFFFFFFFFFFFFF AND PUSH20 0xFFFFFFFFFFFFFFFFFFFFFFFFFFFFFFFFFFFFFFFF AND CALLER PUSH20 0xFFFFFFFFFFFFFFFFFFFFFFFFFFFFFFFFFFFFFFFF AND EQ PUSH2 0x1176 JUMPI PUSH1 0x40 MLOAD PUSH32 0x8C379A000000000000000000000000000000000000000000000000000000000 DUP2 MSTORE PUSH1 0x4 ADD PUSH2 0x116D SWAP1 PUSH2 0x197D JUMP JUMPDEST PUSH1 0x40 MLOAD DUP1 SWAP2 SUB SWAP1 REVERT JUMPDEST PUSH1 0x6 PUSH1 0x7 DUP2 GT ISZERO PUSH2 0x118A JUMPI PUSH2 0x1189 PUSH2 0x1373 JUMP JUMPDEST JUMPDEST PUSH1 0x5 PUSH0 SWAP1 SLOAD SWAP1 PUSH2 0x100 EXP SWAP1 DIV PUSH1 0xFF AND PUSH1 0x7 DUP2 GT ISZERO PUSH2 0x11AB JUMPI PUSH2 0x11AA PUSH2 0x1373 JUMP JUMPDEST JUMPDEST EQ PUSH2 0x11EB JUMPI PUSH1 0x40 MLOAD PUSH32 0x8C379A000000000000000000000000000000000000000000000000000000000 DUP2 MSTORE PUSH1 0x4 ADD PUSH2 0x11E2 SWAP1 PUSH2 0x1BED JUMP JUMPDEST PUSH1 0x40 MLOAD DUP1 SWAP2 SUB SWAP1 REVERT JUMPDEST PUSH1 0x6 PUSH0 SWAP1 SSTORE PUSH1 0x7 PUSH0 SWAP1 SSTORE PUSH1 0x7 PUSH1 0x5 PUSH0 PUSH2 0x100 EXP DUP2 SLOAD DUP2 PUSH1 0xFF MUL NOT AND SWAP1 DUP4 PUSH1 0x7 DUP2 GT ISZERO PUSH2 0x121A JUMPI PUSH2 0x1219 PUSH2 0x1373 JUMP JUMPDEST JUMPDEST MUL OR SWAP1 SSTORE POP PUSH32 0x8C8771D60E1AE6B90556D35DC2F79A3190D6B4088C05D7CA8CABBB9E9061F3E5 PUSH1 0x40 MLOAD PUSH1 0x40 MLOAD DUP1 SWAP2 SUB SWAP1 LOG1 JUMP JUMPDEST PUSH0 PUSH1 0x5 PUSH0 SWAP1 SLOAD SWAP1 PUSH2 0x100 EXP SWAP1 DIV PUSH1 0xFF AND SWAP1 POP SWAP1 JUMP JUMPDEST PUSH1 0x2 PUSH0 SWAP1 SLOAD SWAP1 PUSH2 0x100 EXP SWAP1 DIV PUSH20 0xFFFFFFFFFFFFFFFFFFFFFFFFFFFFFFFFFFFFFFFF AND DUP2 JUMP JUMPDEST PUSH1 0x8 PUSH1 0x1 SWAP1 SLOAD SWAP1 PUSH2 0x100 EXP SWAP1 DIV PUSH1 0xFF AND DUP2 JUMP JUMPDEST PUSH1 0x8 PUSH0 SWAP1 SLOAD SWAP1 PUSH2 0x100 EXP SWAP1 DIV PUSH1 0xFF AND DUP2 JUMP JUMPDEST PUSH1 0x7 SLOAD DUP2 JUMP JUMPDEST PUSH1 0x3 PUSH1 0x14 SWAP1 SLOAD SWAP1 PUSH2 0x100 EXP SWAP1 DIV PUSH1 0xFF AND DUP2 JUMP JUMPDEST PUSH1 0x2 PUSH0 SLOAD SUB PUSH2 0x1309 JUMPI PUSH1 0x40 MLOAD PUSH32 0x8C379A000000000000000000000000000000000000000000000000000000000 DUP2 MSTORE PUSH1 0x4 ADD PUSH2 0x1300 SWAP1 PUSH2 0x1C55 JUMP JUMPDEST PUSH1 0x40 MLOAD DUP1 SWAP2 SUB SWAP1 REVERT JUMPDEST PUSH1 0x2 PUSH0 DUP2 SWAP1 SSTORE POP JUMP JUMPDEST PUSH1 0x1 PUSH0 DUP2 SWAP1 SSTORE POP JUMP JUMPDEST PUSH0 PUSH20 0xFFFFFFFFFFFFFFFFFFFFFFFFFFFFFFFFFFFFFFFF DUP3 AND SWAP1 POP SWAP2 SWAP1 POP JUMP JUMPDEST PUSH0 PUSH2 0x1344 DUP3 PUSH2 0x131B JUMP JUMPDEST SWAP1 POP SWAP2 SWAP1 POP JUMP JUMPDEST PUSH2 0x1354 DUP2 PUSH2 0x133A JUMP JUMPDEST DUP3 MSTORE POP POP JUMP JUMPDEST PUSH0 PUSH1 0x20 DUP3 ADD SWAP1 POP PUSH2 0x136D PUSH0 DUP4 ADD DUP5 PUSH2 0x134B JUMP JUMPDEST SWAP3 SWAP2 POP POP JUMP JUMPDEST PUSH32 0x4E487B7100000000000000000000000000000000000000000000000000000000 PUSH0 MSTORE PUSH1 0x21 PUSH1 0x4 MSTORE PUSH1 0x24 PUSH0 REVERT JUMPDEST PUSH1 0x8 DUP2 LT PUSH2 0x13B1 JUMPI PUSH2 0x13B0 PUSH2 0x1373 JUMP JUMPDEST JUMPDEST POP JUMP JUMPDEST PUSH0 DUP2 SWAP1 POP PUSH2 0x13C1 DUP3 PUSH2 0x13A0 JUMP JUMPDEST SWAP2 SWAP1 POP JUMP JUMPDEST PUSH0 PUSH2 0x13D0 DUP3 PUSH2 0x13B4 JUMP JUMPDEST SWAP1 POP SWAP2 SWAP1 POP JUMP JUMPDEST PUSH2 0x13E0 DUP2 PUSH2 0x13C6 JUMP JUMPDEST DUP3 MSTORE POP POP JUMP JUMPDEST PUSH0 PUSH1 0x20 DUP3 ADD SWAP1 POP PUSH2 0x13F9 PUSH0 DUP4 ADD DUP5 PUSH2 0x13D7 JUMP JUMPDEST SWAP3 SWAP2 POP POP JUMP JUMPDEST PUSH0 PUSH0 REVERT JUMPDEST PUSH0 DUP2 SWAP1 POP SWAP2 SWAP1 POP JUMP JUMPDEST PUSH2 0x1415 DUP2 PUSH2 0x1403 JUMP JUMPDEST DUP2 EQ PUSH2 0x141F JUMPI PUSH0 PUSH0 REVERT JUMPDEST POP JUMP JUMPDEST PUSH0 DUP2 CALLDATALOAD SWAP1 POP PUSH2 0x1430 DUP2 PUSH2 0x140C JUMP JUMPDEST SWAP3 SWAP2 POP POP JUMP JUMPDEST PUSH0 PUSH1 0x20 DUP3 DUP5 SUB SLT ISZERO PUSH2 0x144B JUMPI PUSH2 0x144A PUSH2 0x13FF JUMP JUMPDEST JUMPDEST PUSH0 PUSH2 0x1458 DUP5 DUP3 DUP6 ADD PUSH2 0x1422 JUMP JUMPDEST SWAP2 POP POP SWAP3 SWAP2 POP POP JUMP JUMPDEST PUSH0 PUSH2 0x146B DUP3 PUSH2 0x131B JUMP JUMPDEST SWAP1 POP SWAP2 SWAP1 POP JUMP JUMPDEST PUSH2 0x147B DUP2 PUSH2 0x1461 JUMP JUMPDEST DUP2 EQ PUSH2 0x1485 JUMPI PUSH0 PUSH0 REVERT JUMPDEST POP JUMP JUMPDEST PUSH0 DUP2 CALLDATALOAD SWAP1 POP PUSH2 0x1496 DUP2 PUSH2 0x1472 JUMP JUMPDEST SWAP3 SWAP2 POP POP JUMP JUMPDEST PUSH0 PUSH1 0x20 DUP3 DUP5 SUB SLT ISZERO PUSH2 0x14B1 JUMPI PUSH2 0x14B0 PUSH2 0x13FF JUMP JUMPDEST JUMPDEST PUSH0 PUSH2 0x14BE DUP5 DUP3 DUP6 ADD PUSH2 0x1488 JUMP JUMPDEST SWAP2 POP POP SWAP3 SWAP2 POP POP JUMP JUMPDEST PUSH2 0x14D0 DUP2 PUSH2 0x1461 JUMP JUMPDEST DUP3 MSTORE POP POP JUMP JUMPDEST PUSH0 PUSH1 0x20 DUP3 ADD SWAP1 POP PUSH2 0x14E9 PUSH0 DUP4 ADD DUP5 PUSH2 0x14C7 JUMP JUMPDEST SWAP3 SWAP2 POP POP JUMP JUMPDEST PUSH2 0x14F8 DUP2 PUSH2 0x1403 JUMP JUMPDEST DUP3 MSTORE POP POP JUMP JUMPDEST PUSH0 PUSH1 0x20 DUP3 ADD SWAP1 POP PUSH2 0x1511 PUSH0 DUP4 ADD DUP5 PUSH2 0x14EF JUMP JUMPDEST SWAP3 SWAP2 POP POP JUMP JUMPDEST PUSH0 DUP2 SWAP1 POP SWAP2 SWAP1 POP JUMP JUMPDEST PUSH2 0x1529 DUP2 PUSH2 0x1517 JUMP JUMPDEST DUP3 MSTORE POP POP JUMP JUMPDEST PUSH0 PUSH1 0x20 DUP3 ADD SWAP1 POP PUSH2 0x1542 PUSH0 DUP4 ADD DUP5 PUSH2 0x1520 JUMP JUMPDEST SWAP3 SWAP2 POP POP JUMP JUMPDEST PUSH0 DUP2 ISZERO ISZERO SWAP1 POP SWAP2 SWAP1 POP JUMP JUMPDEST PUSH2 0x155C DUP2 PUSH2 0x1548 JUMP JUMPDEST DUP3 MSTORE POP POP JUMP JUMPDEST PUSH0 PUSH1 0x20 DUP3 ADD SWAP1 POP PUSH2 0x1575 PUSH0 DUP4 ADD DUP5 PUSH2 0x1553 JUMP JUMPDEST SWAP3 SWAP2 POP POP JUMP JUMPDEST PUSH0 DUP3 DUP3 MSTORE PUSH1 0x20 DUP3 ADD SWAP1 POP SWAP3 SWAP2 POP POP JUMP JUMPDEST PUSH32 0x4E6F7420636F756E746572706172747900000000000000000000000000000000 PUSH0 DUP3 ADD MSTORE POP JUMP JUMPDEST PUSH0 PUSH2 0x15BF PUSH1 0x10 DUP4 PUSH2 0x157B JUMP JUMPDEST SWAP2 POP PUSH2 0x15CA DUP3 PUSH2 0x158B JUMP JUMPDEST PUSH1 0x20 DUP3 ADD SWAP1 POP SWAP2 SWAP1 POP JUMP JUMPDEST PUSH0 PUSH1 0x20 DUP3 ADD SWAP1 POP DUP2 DUP2 SUB PUSH0 DUP4 ADD MSTORE PUSH2 0x15EC DUP2 PUSH2 0x15B3 JUMP JUMPDEST SWAP1 POP SWAP2 SWAP1 POP JUMP JUMPDEST PUSH32 0x4E6F7420776974686472617761626C6500000000000000000000000000000000 PUSH0 DUP3 ADD MSTORE POP JUMP JUMPDEST PUSH0 PUSH2 0x1627 PUSH1 0x10 DUP4 PUSH2 0x157B JUMP JUMPDEST SWAP2 POP PUSH2 0x1632 DUP3 PUSH2 0x15F3 JUMP JUMPDEST PUSH1 0x20 DUP3 ADD SWAP1 POP SWAP2 SWAP1 POP JUMP JUMPDEST PUSH0 PUSH1 0x20 DUP3 ADD SWAP1 POP DUP2 DUP2 SUB PUSH0 DUP4 ADD MSTORE PUSH2 0x1654 DUP2 PUSH2 0x161B JUMP JUMPDEST SWAP1 POP SWAP2 SWAP1 POP JUMP JUMPDEST PUSH32 0x416C72656164792077697468647261776E000000000000000000000000000000 PUSH0 DUP3 ADD MSTORE POP JUMP JUMPDEST PUSH0 PUSH2 0x168F PUSH1 0x11 DUP4 PUSH2 0x157B JUMP JUMPDEST SWAP2 POP PUSH2 0x169A DUP3 PUSH2 0x165B JUMP JUMPDEST PUSH1 0x20 DUP3 ADD SWAP1 POP SWAP2 SWAP1 POP JUMP JUMPDEST PUSH0 PUSH1 0x20 DUP3 ADD SWAP1 POP DUP2 DUP2 SUB PUSH0 DUP4 ADD MSTORE PUSH2 0x16BC DUP2 PUSH2 0x1683 JUMP JUMPDEST SWAP1 POP SWAP2 SWAP1 POP JUMP JUMPDEST PUSH32 0x4E6F74205369676E656400000000000000000000000000000000000000000000 PUSH0 DUP3 ADD MSTORE POP JUMP JUMPDEST PUSH0 PUSH2 0x16F7 PUSH1 0xA DUP4 PUSH2 0x157B JUMP JUMPDEST SWAP2 POP PUSH2 0x1702 DUP3 PUSH2 0x16C3 JUMP JUMPDEST PUSH1 0x20 DUP3 ADD SWAP1 POP SWAP2 SWAP1 POP JUMP JUMPDEST PUSH0 PUSH1 0x20 DUP3 ADD SWAP1 POP DUP2 DUP2 SUB PUSH0 DUP4 ADD MSTORE PUSH2 0x1724 DUP2 PUSH2 0x16EB JUMP JUMPDEST SWAP1 POP SWAP2 SWAP1 POP JUMP JUMPDEST PUSH32 0x416C726561647920736574000000000000000000000000000000000000000000 PUSH0 DUP3 ADD MSTORE POP JUMP JUMPDEST PUSH0 PUSH2 0x175F PUSH1 0xB DUP4 PUSH2 0x157B JUMP JUMPDEST SWAP2 POP PUSH2 0x176A DUP3 PUSH2 0x172B JUMP JUMPDEST PUSH1 0x20 DUP3 ADD SWAP1 POP SWAP2 SWAP1 POP JUMP JUMPDEST PUSH0 PUSH1 0x20 DUP3 ADD SWAP1 POP DUP2 DUP2 SUB PUSH0 DUP4 ADD MSTORE PUSH2 0x178C DUP2 PUSH2 0x1753 JUMP JUMPDEST SWAP1 POP SWAP2 SWAP1 POP JUMP JUMPDEST PUSH32 0x4E6F74206F7261636C6500000000000000000000000000000000000000000000 PUSH0 DUP3 ADD MSTORE POP JUMP JUMPDEST PUSH0 PUSH2 0x17C7 PUSH1 0xA DUP4 PUSH2 0x157B JUMP JUMPDEST SWAP2 POP PUSH2 0x17D2 DUP3 PUSH2 0x1793 JUMP JUMPDEST PUSH1 0x20 DUP3 ADD SWAP1 POP SWAP2 SWAP1 POP JUMP JUMPDEST PUSH0 PUSH1 0x20 DUP3 ADD SWAP1 POP DUP2 DUP2 SUB PUSH0 DUP4 ADD MSTORE PUSH2 0x17F4 DUP2 PUSH2 0x17BB JUMP JUMPDEST SWAP1 POP SWAP2 SWAP1 POP JUMP JUMPDEST PUSH32 0x57726F6E67207374617475730000000000000000000000000000000000000000 PUSH0 DUP3 ADD MSTORE POP JUMP JUMPDEST PUSH0 PUSH2 0x182F PUSH1 0xC DUP4 PUSH2 0x157B JUMP JUMPDEST SWAP2 POP PUSH2 0x183A DUP3 PUSH2 0x17FB JUMP JUMPDEST PUSH1 0x20 DUP3 ADD SWAP1 POP SWAP2 SWAP1 POP JUMP JUMPDEST PUSH0 PUSH1 0x20 DUP3 ADD SWAP1 POP DUP2 DUP2 SUB PUSH0 DUP4 ADD MSTORE PUSH2 0x185C DUP2 PUSH2 0x1823 JUMP JUMPDEST SWAP1 POP SWAP2 SWAP1 POP JUMP JUMPDEST PUSH32 0x4E6F2064656C6976657279000000000000000000000000000000000000000000 PUSH0 DUP3 ADD MSTORE POP JUMP JUMPDEST PUSH0 PUSH2 0x1897 PUSH1 0xB DUP4 PUSH2 0x157B JUMP JUMPDEST SWAP2 POP PUSH2 0x18A2 DUP3 PUSH2 0x1863 JUMP JUMPDEST PUSH1 0x20 DUP3 ADD SWAP1 POP SWAP2 SWAP1 POP JUMP JUMPDEST PUSH0 PUSH1 0x20 DUP3 ADD SWAP1 POP DUP2 DUP2 SUB PUSH0 DUP4 ADD MSTORE PUSH2 0x18C4 DUP2 PUSH2 0x188B JUMP JUMPDEST SWAP1 POP SWAP2 SWAP1 POP JUMP JUMPDEST PUSH32 0x48617368206D69736D6174636800000000000000000000000000000000000000 PUSH0 DUP3 ADD MSTORE POP JUMP JUMPDEST PUSH0 PUSH2 0x18FF PUSH1 0xD DUP4 PUSH2 0x157B JUMP JUMPDEST SWAP2 POP PUSH2 0x190A DUP3 PUSH2 0x18CB JUMP JUMPDEST PUSH1 0x20 DUP3 ADD SWAP1 POP SWAP2 SWAP1 POP JUMP JUMPDEST PUSH0 PUSH1 0x20 DUP3 ADD SWAP1 POP DUP2 DUP2 SUB PUSH0 DUP4 ADD MSTORE PUSH2 0x192C DUP2 PUSH2 0x18F3 JUMP JUMPDEST SWAP1 POP SWAP2 SWAP1 POP JUMP JUMPDEST PUSH32 0x4E6F742063726561746F72000000000000000000000000000000000000000000 PUSH0 DUP3 ADD MSTORE POP JUMP JUMPDEST PUSH0 PUSH2 0x1967 PUSH1 0xB DUP4 PUSH2 0x157B JUMP JUMPDEST SWAP2 POP PUSH2 0x1972 DUP3 PUSH2 0x1933 JUMP JUMPDEST PUSH1 0x20 DUP3 ADD SWAP1 POP SWAP2 SWAP1 POP JUMP JUMPDEST PUSH0 PUSH1 0x20 DUP3 ADD SWAP1 POP DUP2 DUP2 SUB PUSH0 DUP4 ADD MSTORE PUSH2 0x1994 DUP2 PUSH2 0x195B JUMP JUMPDEST SWAP1 POP SWAP2 SWAP1 POP JUMP JUMPDEST PUSH32 0x4F7261636C6520616C7265616479207365740000000000000000000000000000 PUSH0 DUP3 ADD MSTORE POP JUMP JUMPDEST PUSH0 PUSH2 0x19CF PUSH1 0x12 DUP4 PUSH2 0x157B JUMP JUMPDEST SWAP2 POP PUSH2 0x19DA DUP3 PUSH2 0x199B JUMP JUMPDEST PUSH1 0x20 DUP3 ADD SWAP1 POP SWAP2 SWAP1 POP JUMP JUMPDEST PUSH0 PUSH1 0x20 DUP3 ADD SWAP1 POP DUP2 DUP2 SUB PUSH0 DUP4 ADD MSTORE PUSH2 0x19FC DUP2 PUSH2 0x19C3 JUMP JUMPDEST SWAP1 POP SWAP2 SWAP1 POP JUMP JUMPDEST PUSH32 0x496E76616C6964206F7261636C65000000000000000000000000000000000000 PUSH0 DUP3 ADD MSTORE POP JUMP JUMPDEST PUSH0 PUSH2 0x1A37 PUSH1 0xE DUP4 PUSH2 0x157B JUMP JUMPDEST SWAP2 POP PUSH2 0x1A42 DUP3 PUSH2 0x1A03 JUMP JUMPDEST PUSH1 0x20 DUP3 ADD SWAP1 POP SWAP2 SWAP1 POP JUMP JUMPDEST PUSH0 PUSH1 0x20 DUP3 ADD SWAP1 POP DUP2 DUP2 SUB PUSH0 DUP4 ADD MSTORE PUSH2 0x1A64 DUP2 PUSH2 0x1A2B JUMP JUMPDEST SWAP1 POP SWAP2 SWAP1 POP JUMP JUMPDEST PUSH32 0x4E6F74207369676E656400000000000000000000000000000000000000000000 PUSH0 DUP3 ADD MSTORE POP JUMP JUMPDEST PUSH0 PUSH2 0x1A9F PUSH1 0xA DUP4 PUSH2 0x157B JUMP JUMPDEST SWAP2 POP PUSH2 0x1AAA DUP3 PUSH2 0x1A6B JUMP JUMPDEST PUSH1 0x20 DUP3 ADD SWAP1 POP SWAP2 SWAP1 POP JUMP JUMPDEST PUSH0 PUSH1 0x20 DUP3 ADD SWAP1 POP DUP2 DUP2 SUB PUSH0 DUP4 ADD MSTORE PUSH2 0x1ACC DUP2 PUSH2 0x1A93 JUMP JUMPDEST SWAP1 POP SWAP2 SWAP1 POP JUMP JUMPDEST PUSH32 0x44656C697665727920666C6F7720726571756972656400000000000000000000 PUSH0 DUP3 ADD MSTORE POP JUMP JUMPDEST PUSH0 PUSH2 0x1B07 PUSH1 0x16 DUP4 PUSH2 0x157B JUMP JUMPDEST SWAP2 POP PUSH2 0x1B12 DUP3 PUSH2 0x1AD3 JUMP JUMPDEST PUSH1 0x20 DUP3 ADD SWAP1 POP SWAP2 SWAP1 POP JUMP JUMPDEST PUSH0 PUSH1 0x20 DUP3 ADD SWAP1 POP DUP2 DUP2 SUB PUSH0 DUP4 ADD MSTORE PUSH2 0x1B34 DUP2 PUSH2 0x1AFB JUMP JUMPDEST SWAP1 POP SWAP2 SWAP1 POP JUMP JUMPDEST PUSH32 0x4E6F742043726561746564000000000000000000000000000000000000000000 PUSH0 DUP3 ADD MSTORE POP JUMP JUMPDEST PUSH0 PUSH2 0x1B6F PUSH1 0xB DUP4 PUSH2 0x157B JUMP JUMPDEST SWAP2 POP PUSH2 0x1B7A DUP3 PUSH2 0x1B3B JUMP JUMPDEST PUSH1 0x20 DUP3 ADD SWAP1 POP SWAP2 SWAP1 POP JUMP JUMPDEST PUSH0 PUSH1 0x20 DUP3 ADD SWAP1 POP DUP2 DUP2 SUB PUSH0 DUP4 ADD MSTORE PUSH2 0x1B9C DUP2 PUSH2 0x1B63 JUMP JUMPDEST SWAP1 POP SWAP2 SWAP1 POP JUMP JUMPDEST PUSH32 0x4F6E6C7920436F6D706C65746564000000000000000000000000000000000000 PUSH0 DUP3 ADD MSTORE POP JUMP JUMPDEST PUSH0 PUSH2 0x1BD7 PUSH1 0xE DUP4 PUSH2 0x157B JUMP JUMPDEST SWAP2 POP PUSH2 0x1BE2 DUP3 PUSH2 0x1BA3 JUMP JUMPDEST PUSH1 0x20 DUP3 ADD SWAP1 POP SWAP2 SWAP1 POP JUMP JUMPDEST PUSH0 PUSH1 0x20 DUP3 ADD SWAP1 POP DUP2 DUP2 SUB PUSH0 DUP4 ADD MSTORE PUSH2 0x1C04 DUP2 PUSH2 0x1BCB JUMP JUMPDEST SWAP1 POP SWAP2 SWAP1 POP JUMP JUMPDEST PUSH32 0x5265656E7472616E637947756172643A207265656E7472616E742063616C6C00 PUSH0 DUP3 ADD MSTORE POP JUMP JUMPDEST PUSH0 PUSH2 0x1C3F PUSH1 0x1F DUP4 PUSH2 0x157B JUMP JUMPDEST SWAP2 POP PUSH2 0x1C4A DUP3 PUSH2 0x1C0B JUMP JUMPDEST PUSH1 0x20 DUP3 ADD SWAP1 POP SWAP2 SWAP1 POP JUMP JUMPDEST PUSH0 PUSH1 0x20 DUP3 ADD SWAP1 POP DUP2 DUP2 SUB PUSH0 DUP4 ADD MSTORE PUSH2 0x1C6C DUP2 PUSH2 0x1C33 JUMP JUMPDEST SWAP1 POP SWAP2 SWAP1 POP JUMP INVALID LOG2 PUSH5 0x6970667358 0x22 SLT KECCAK256 SGT SELFBALANCE CHAINID SELFBALANCE PUSH9 0x9914C9699A13AB4F6 EXP DUP15 SWAP16 DATALOADN 0xBE2A 0x2D CALLDATACOPY 0xAF 0x2A CALLDATACOPY 0xB9 RJUMP 0x2697 MUL ISZERO PUSH14 0x64736F6C634300081E0033000000 "
				},
				"gasEstimates": {
					"creation": {
						"codeDepositCost": "1467400",
						"executionCost": "infinite",
						"totalCost": "infinite"
					},
					"external": {
						"amount()": "2470",
						"approveDeliveryAsCreator()": "35437",
						"confirmCompletion()": "36793",
						"confirmDeliveryByOracle(bytes32)": "34141",
						"contractHash()": "2536",
						"counterparty()": "2530",
						"creator()": "2532",
						"deactivateContract()": "39690",
						"deliveryRequired()": "2532",
						"deliveryTrackingHash()": "2513",
						"getContractStatus()": "2672",
						"oracle()": "2597",
						"oracleSet()": "2627",
						"setDeliveryTracking(bytes32)": "infinite",
						"setOracle(address)": "54669",
						"signContract()": "29651",
						"status()": "2600",
						"withdrawFunds()": "infinite",
						"withdrawn()": "2561"
					}
				},
				"methodIdentifiers": {
					"amount()": "aa8c217c",
					"approveDeliveryAsCreator()": "61150abc",
					"confirmCompletion()": "a06aa1ab",
					"confirmDeliveryByOracle(bytes32)": "3ae11dbf",
					"contractHash()": "904c6094",
					"counterparty()": "c3df6546",
					"creator()": "02d05d3f",
					"deactivateContract()": "bca353be",
					"deliveryRequired()": "d556c4c3",
					"deliveryTrackingHash()": "de8a8435",
					"getContractStatus()": "c032846b",
					"oracle()": "7dc0d1d0",
					"oracleSet()": "edb3b27a",
					"setDeliveryTracking(bytes32)": "2723facc",
					"setOracle(address)": "7adbf973",
					"signContract()": "b8b4f1a0",
					"status()": "200d2ed2",
					"withdrawFunds()": "24600fc3",
					"withdrawn()": "c80ec522"
				}
			},
			"storageLayout": {
				"storage": [
					{
						"astId": 10,
						"contract": "single_digital_contract.sol:ContractInstance",
						"label": "_status",
						"offset": 0,
						"slot": "0",
						"type": "t_uint256"
					},
					{
						"astId": 80,
						"contract": "single_digital_contract.sol:ContractInstance",
						"label": "creator",
						"offset": 0,
						"slot": "1",
						"type": "t_address_payable"
					},
					{
						"astId": 82,
						"contract": "single_digital_contract.sol:ContractInstance",
						"label": "counterparty",
						"offset": 0,
						"slot": "2",
						"type": "t_address_payable"
					},
					{
						"astId": 84,
						"contract": "single_digital_contract.sol:ContractInstance",
						"label": "oracle",
						"offset": 0,
						"slot": "3",
						"type": "t_address"
					},
					{
						"astId": 86,
						"contract": "single_digital_contract.sol:ContractInstance",
						"label": "oracleSet",
						"offset": 20,
						"slot": "3",
						"type": "t_bool"
					},
					{
						"astId": 88,
						"contract": "single_digital_contract.sol:ContractInstance",
						"label": "amount",
						"offset": 0,
						"slot": "4",
						"type": "t_uint256"
					},
					{
						"astId": 91,
						"contract": "single_digital_contract.sol:ContractInstance",
						"label": "status",
						"offset": 0,
						"slot": "5",
						"type": "t_enum(ContractStatus)78"
					},
					{
						"astId": 93,
						"contract": "single_digital_contract.sol:ContractInstance",
						"label": "contractHash",
						"offset": 0,
						"slot": "6",
						"type": "t_bytes32"
					},
					{
						"astId": 95,
						"contract": "single_digital_contract.sol:ContractInstance",
						"label": "deliveryTrackingHash",
						"offset": 0,
						"slot": "7",
						"type": "t_bytes32"
					},
					{
						"astId": 97,
						"contract": "single_digital_contract.sol:ContractInstance",
						"label": "deliveryRequired",
						"offset": 0,
						"slot": "8",
						"type": "t_bool"
					},
					{
						"astId": 99,
						"contract": "single_digital_contract.sol:ContractInstance",
						"label": "withdrawn",
						"offset": 1,
						"slot": "8",
						"type": "t_bool"
					}
				],
				"types": {
					"t_address": {
						"encoding": "inplace",
						"label": "address",
						"numberOfBytes": "20"
					},
					"t_address_payable": {
						"encoding": "inplace",
						"label": "address payable",
						"numberOfBytes": "20"
					},
					"t_bool": {
						"encoding": "inplace",
						"label": "bool",
						"numberOfBytes": "1"
					},
					"t_bytes32": {
						"encoding": "inplace",
						"label": "bytes32",
						"numberOfBytes": "32"
					},
					"t_enum(ContractStatus)78": {
						"encoding": "inplace",
						"label": "enum ContractInstance.ContractStatus",
						"numberOfBytes": "1"
					},
					"t_uint256": {
						"encoding": "inplace",
						"label": "uint256",
						"numberOfBytes": "32"
					}
				}
			},
			"userdoc": {
				"kind": "user",
				"methods": {},
				"version": 1
			}
		}
	}
}