{
	"digital_contract.sol": {
		"ContractManager": {
			"abi": [
				{
					"anonymous": false,
					"inputs": [
						{
							"indexed": true,
							"internalType": "uint256",
							"name": "contractId",
							"type": "uint256"
						},
						{
							"indexed": false,
							"internalType": "address",
							"name": "creator",
							"type": "address"
						},
						{
							"indexed": false,
							"internalType": "address",
							"name": "counterparty",
							"type": "address"
						}
					],
					"name": "ContractCreated",
					"type": "event"
				},
				{
					"anonymous": false,
					"inputs": [
						{
							"indexed": true,
							"internalType": "uint256",
							"name": "contractId",
							"type": "uint256"
						}
					],
					"name": "ContractDeactivated",
					"type": "event"
				},
				{
					"anonymous": false,
					"inputs": [
						{
							"indexed": true,
							"internalType": "uint256",
							"name": "contractId",
							"type": "uint256"
						}
					],
					"name": "ContractSigned",
					"type": "event"
				},
				{
					"anonymous": false,
					"inputs": [
						{
							"indexed": true,
							"internalType": "uint256",
							"name": "contractId",
							"type": "uint256"
						}
					],
					"name": "DeliveryApproved",
					"type": "event"
				},
				{
					"anonymous": false,
					"inputs": [
						{
							"indexed": true,
							"internalType": "uint256",
							"name": "contractId",
							"type": "uint256"
						}
					],
					"name": "DeliveryConfirmed",
					"type": "event"
				},
				{
					"anonymous": false,
					"inputs": [
						{
							"indexed": true,
							"internalType": "uint256",
							"name": "contractId",
							"type": "uint256"
						},
						{
							"indexed": true,
							"internalType": "address",
							"name": "account",
							"type": "address"
						},
						{
							"indexed": false,
							"internalType": "uint256",
							"name": "amount",
							"type": "uint256"
						}
					],
					"name": "FundsWithdrawn",
					"type": "event"
				},
				{
					"anonymous": false,
					"inputs": [
						{
							"indexed": true,
							"internalType": "address",
							"name": "oracle",
							"type": "address"
						}
					],
					"name": "OracleSet",
					"type": "event"
				},
				{
					"anonymous": false,
					"inputs": [
						{
							"indexed": true,
							"internalType": "uint256",
							"name": "contractId",
							"type": "uint256"
						},
						{
							"indexed": true,
							"internalType": "address",
							"name": "to",
							"type": "address"
						},
						{
							"indexed": false,
							"internalType": "uint256",
							"name": "amount",
							"type": "uint256"
						}
					],
					"name": "PaymentReleased",
					"type": "event"
				},
				{
					"anonymous": false,
					"inputs": [
						{
							"indexed": true,
							"internalType": "uint256",
							"name": "contractId",
							"type": "uint256"
						},
						{
							"indexed": false,
							"internalType": "bytes32",
							"name": "trackingHash",
							"type": "bytes32"
						}
					],
					"name": "TrackingHashSet",
					"type": "event"
				},
				{
					"inputs": [
						{
							"internalType": "uint256",
							"name": "_contractId",
							"type": "uint256"
						}
					],
					"name": "approveDeliveryAsCreator",
					"outputs": [],
					"stateMutability": "nonpayable",
					"type": "function"
				},
				{
					"inputs": [
						{
							"internalType": "uint256",
							"name": "_contractId",
							"type": "uint256"
						}
					],
					"name": "confirmCompletion",
					"outputs": [],
					"stateMutability": "nonpayable",
					"type": "function"
				},
				{
					"inputs": [
						{
							"internalType": "uint256",
							"name": "_contractId",
							"type": "uint256"
						},
						{
							"internalType": "bytes32",
							"name": "_trackingNumberHash",
							"type": "bytes32"
						}
					],
					"name": "confirmDeliveryByOracle",
					"outputs": [],
					"stateMutability": "nonpayable",
					"type": "function"
				},
				{
					"inputs": [],
					"name": "contractCounter",
					"outputs": [
						{
							"internalType": "uint256",
							"name": "",
							"type": "uint256"
						}
					],
					"stateMutability": "view",
					"type": "function"
				},
				{
					"inputs": [
						{
							"internalType": "uint256",
							"name": "",
							"type": "uint256"
						}
					],
					"name": "contracts",
					"outputs": [
						{
							"internalType": "uint256",
							"name": "id",
							"type": "uint256"
						},
						{
							"internalType": "uint256",
							"name": "amount",
							"type": "uint256"
						},
						{
							"internalType": "address payable",
							"name": "creator",
							"type": "address"
						},
						{
							"internalType": "address payable",
							"name": "counterparty",
							"type": "address"
						},
						{
							"internalType": "enum ContractManager.ContractStatus",
							"name": "status",
							"type": "uint8"
						},
						{
							"internalType": "bytes32",
							"name": "contractHash",
							"type": "bytes32"
						},
						{
							"internalType": "bytes32",
							"name": "deliveryTrackingHash",
							"type": "bytes32"
						},
						{
							"internalType": "bool",
							"name": "deliveryRequired",
							"type": "bool"
						}
					],
					"stateMutability": "view",
					"type": "function"
				},
				{
					"inputs": [
						{
							"internalType": "address payable",
							"name": "_counterparty",
							"type": "address"
						},
						{
							"internalType": "bytes32",
							"name": "_contractHash",
							"type": "bytes32"
						},
						{
							"internalType": "uint256",
							"name": "_amount",
							"type": "uint256"
						}
					],
					"name": "createContract",
					"outputs": [],
					"stateMutability": "payable",
					"type": "function"
				},
				{
					"inputs": [
						{
							"internalType": "uint256",
							"name": "_contractId",
							"type": "uint256"
						}
					],
					"name": "deactivateContract",
					"outputs": [],
					"stateMutability": "nonpayable",
					"type": "function"
				},
				{
					"inputs": [
						{
							"internalType": "uint256",
							"name": "_contractId",
							"type": "uint256"
						}
					],
					"name": "getContractStatus",
					"outputs": [
						{
							"internalType": "enum ContractManager.ContractStatus",
							"name": "",
							"type": "uint8"
						}
					],
					"stateMutability": "view",
					"type": "function"
				},
				{
					"inputs": [],
					"name": "oracle",
					"outputs": [
						{
							"internalType": "address",
							"name": "",
							"type": "address"
						}
					],
					"stateMutability": "view",
					"type": "function"
				},
				{
					"inputs": [],
					"name": "oracleSet",
					"outputs": [
						{
							"internalType": "bool",
							"name": "",
							"type": "bool"
						}
					],
					"stateMutability": "view",
					"type": "function"
				},
				{
					"inputs": [
						{
							"internalType": "address",
							"name": "",
							"type": "address"
						}
					],
					"name": "pendingWithdrawals",
					"outputs": [
						{
							"internalType": "uint256",
							"name": "",
							"type": "uint256"
						}
					],
					"stateMutability": "view",
					"type": "function"
				},
				{
					"inputs": [
						{
							"internalType": "uint256",
							"name": "_contractId",
							"type": "uint256"
						},
						{
							"internalType": "bytes32",
							"name": "_trackingNumberHash",
							"type": "bytes32"
						}
					],
					"name": "setDeliveryTracking",
					"outputs": [],
					"stateMutability": "nonpayable",
					"type": "function"
				},
				{
					"inputs": [
						{
							"internalType": "address",
							"name": "_oracle",
							"type": "address"
						}
					],
					"name": "setOracle",
					"outputs": [],
					"stateMutability": "nonpayable",
					"type": "function"
				},
				{
					"inputs": [
						{
							"internalType": "uint256",
							"name": "_contractId",
							"type": "uint256"
						}
					],
					"name": "signContract",
					"outputs": [],
					"stateMutability": "nonpayable",
					"type": "function"
				},
				{
					"inputs": [
						{
							"internalType": "uint256",
							"name": "_contractId",
							"type": "uint256"
						}
					],
					"name": "withdrawFundsFrom",
					"outputs": [],
					"stateMutability": "nonpayable",
					"type": "function"
				}
			],
			"devdoc": {
				"kind": "dev",
				"methods": {},
				"version": 1
			},
			"evm": {
				"assembly": "    /* \"digital_contract.sol\":126:6870  contract ContractManager is ReentrancyGuard {... */\n  mstore(0x40, 0x80)\n  callvalue\n  dup1\n  iszero\n  tag_1\n  jumpi\n  revert(0x00, 0x00)\ntag_1:\n  pop\n    /* \"@openzeppelin/contracts/security/ReentrancyGuard.sol\":1716:1717  1 */\n  0x01\n    /* \"@openzeppelin/contracts/security/ReentrancyGuard.sol\":1821:1828  _status */\n  0x00\n    /* \"@openzeppelin/contracts/security/ReentrancyGuard.sol\":1821:1843  _status = _NOT_ENTERED */\n  dup2\n  swap1\n  sstore\n  pop\n    /* \"digital_contract.sol\":126:6870  contract ContractManager is ReentrancyGuard {... */\n  dataSize(sub_0)\n  dup1\n  dataOffset(sub_0)\n  0x00\n  codecopy\n  0x00\n  return\nstop\n\nsub_0: assembly {\n        /* \"digital_contract.sol\":126:6870  contract ContractManager is ReentrancyGuard {... */\n      mstore(0x40, 0x80)\n      jumpi(tag_1, lt(calldatasize, 0x04))\n      shr(0xe0, calldataload(0x00))\n      dup1\n      0x94aeb613\n      gt\n      tag_17\n      jumpi\n      dup1\n      0xdf5c2980\n      gt\n      tag_18\n      jumpi\n      dup1\n      0xdf5c2980\n      eq\n      tag_13\n      jumpi\n      dup1\n      0xedb3b27a\n      eq\n      tag_14\n      jumpi\n      dup1\n      0xf3f43703\n      eq\n      tag_15\n      jumpi\n      dup1\n      0xf436199d\n      eq\n      tag_16\n      jumpi\n      jump(tag_1)\n    tag_18:\n      dup1\n      0x94aeb613\n      eq\n      tag_9\n      jumpi\n      dup1\n      0x9537e8d1\n      eq\n      tag_10\n      jumpi\n      dup1\n      0x9cc437ba\n      eq\n      tag_11\n      jumpi\n      dup1\n      0xa78d9bab\n      eq\n      tag_12\n      jumpi\n      jump(tag_1)\n    tag_17:\n      dup1\n      0x22a45cd0\n      gt\n      tag_19\n      jumpi\n      dup1\n      0x22a45cd0\n      eq\n      tag_5\n      jumpi\n      dup1\n      0x474da79a\n      eq\n      tag_6\n      jumpi\n      dup1\n      0x7adbf973\n      eq\n      tag_7\n      jumpi\n      dup1\n      0x7dc0d1d0\n      eq\n      tag_8\n      jumpi\n      jump(tag_1)\n    tag_19:\n      dup1\n      0x032ca42d\n      eq\n      tag_2\n      jumpi\n      dup1\n      0x067bd3b4\n      eq\n      tag_3\n      jumpi\n      dup1\n      0x17b18458\n      eq\n      tag_4\n      jumpi\n    tag_1:\n      revert(0x00, 0x00)\n        /* \"digital_contract.sol\":4463:4984  function approveDeliveryAsCreator(uint256 _contractId) public onlyCreator(_contractId) {... */\n    tag_2:\n      callvalue\n      dup1\n      iszero\n      tag_20\n      jumpi\n      revert(0x00, 0x00)\n    tag_20:\n      pop\n      tag_21\n      0x04\n      dup1\n      calldatasize\n      sub\n      dup2\n      add\n      swap1\n      tag_22\n      swap2\n      swap1\n      tag_23\n      jump\t// in\n    tag_22:\n      tag_24\n      jump\t// in\n    tag_21:\n      stop\n        /* \"digital_contract.sol\":802:832  uint256 public contractCounter */\n    tag_3:\n      callvalue\n      dup1\n      iszero\n      tag_25\n      jumpi\n      revert(0x00, 0x00)\n    tag_25:\n      pop\n      tag_26\n      tag_27\n      jump\t// in\n    tag_26:\n      mload(0x40)\n      tag_28\n      swap2\n      swap1\n      tag_29\n      jump\t// in\n    tag_28:\n      mload(0x40)\n      dup1\n      swap2\n      sub\n      swap1\n      return\n        /* \"digital_contract.sol\":6727:6867  function getContractStatus(uint256 _contractId) public view returns (ContractStatus) {... */\n    tag_4:\n      callvalue\n      dup1\n      iszero\n      tag_30\n      jumpi\n      revert(0x00, 0x00)\n    tag_30:\n      pop\n      tag_31\n      0x04\n      dup1\n      calldatasize\n      sub\n      dup2\n      add\n      swap1\n      tag_32\n      swap2\n      swap1\n      tag_23\n      jump\t// in\n    tag_32:\n      tag_33\n      jump\t// in\n    tag_31:\n      mload(0x40)\n      tag_34\n      swap2\n      swap1\n      tag_35\n      jump\t// in\n    tag_34:\n      mload(0x40)\n      dup1\n      swap2\n      sub\n      swap1\n      return\n        /* \"digital_contract.sol\":6255:6719  function deactivateContract(uint256 _contractId) public onlyCounterparty(_contractId) onlyCreator(_contractId) {... */\n    tag_5:\n      callvalue\n      dup1\n      iszero\n      tag_36\n      jumpi\n      revert(0x00, 0x00)\n    tag_36:\n      pop\n      tag_37\n      0x04\n      dup1\n      calldatasize\n      sub\n      dup2\n      add\n      swap1\n      tag_38\n      swap2\n      swap1\n      tag_23\n      jump\t// in\n    tag_38:\n      tag_39\n      jump\t// in\n    tag_37:\n      stop\n        /* \"digital_contract.sol\":743:795  mapping(uint256 => ManagedContract) public contracts */\n    tag_6:\n      callvalue\n      dup1\n      iszero\n      tag_40\n      jumpi\n      revert(0x00, 0x00)\n    tag_40:\n      pop\n      tag_41\n      0x04\n      dup1\n      calldatasize\n      sub\n      dup2\n      add\n      swap1\n      tag_42\n      swap2\n      swap1\n      tag_23\n      jump\t// in\n    tag_42:\n      tag_43\n      jump\t// in\n    tag_41:\n      mload(0x40)\n      tag_44\n      swap9\n      swap8\n      swap7\n      swap6\n      swap5\n      swap4\n      swap3\n      swap2\n      swap1\n      tag_45\n      jump\t// in\n    tag_44:\n      mload(0x40)\n      dup1\n      swap2\n      sub\n      swap1\n      return\n        /* \"digital_contract.sol\":1959:2211  function setOracle(address _oracle) public {... */\n    tag_7:\n      callvalue\n      dup1\n      iszero\n      tag_46\n      jumpi\n      revert(0x00, 0x00)\n    tag_46:\n      pop\n      tag_47\n      0x04\n      dup1\n      calldatasize\n      sub\n      dup2\n      add\n      swap1\n      tag_48\n      swap2\n      swap1\n      tag_49\n      jump\t// in\n    tag_48:\n      tag_50\n      jump\t// in\n    tag_47:\n      stop\n        /* \"digital_contract.sol\":685:706  address public oracle */\n    tag_8:\n      callvalue\n      dup1\n      iszero\n      tag_51\n      jumpi\n      revert(0x00, 0x00)\n    tag_51:\n      pop\n      tag_52\n      tag_53\n      jump\t// in\n    tag_52:\n      mload(0x40)\n      tag_54\n      swap2\n      swap1\n      tag_55\n      jump\t// in\n    tag_54:\n      mload(0x40)\n      dup1\n      swap2\n      sub\n      swap1\n      return\n        /* \"digital_contract.sol\":4992:5523  function confirmCompletion(uint256 _contractId) public onlyCreator(_contractId) {... */\n    tag_9:\n      callvalue\n      dup1\n      iszero\n      tag_56\n      jumpi\n      revert(0x00, 0x00)\n    tag_56:\n      pop\n      tag_57\n      0x04\n      dup1\n      calldatasize\n      sub\n      dup2\n      add\n      swap1\n      tag_58\n      swap2\n      swap1\n      tag_23\n      jump\t// in\n    tag_58:\n      tag_59\n      jump\t// in\n    tag_57:\n      stop\n        /* \"digital_contract.sol\":2976:3306  function signContract(uint256 _contractId) public onlyCounterparty(_contractId) {... */\n    tag_10:\n      callvalue\n      dup1\n      iszero\n      tag_60\n      jumpi\n      revert(0x00, 0x00)\n    tag_60:\n      pop\n      tag_61\n      0x04\n      dup1\n      calldatasize\n      sub\n      dup2\n      add\n      swap1\n      tag_62\n      swap2\n      swap1\n      tag_23\n      jump\t// in\n    tag_62:\n      tag_63\n      jump\t// in\n    tag_61:\n      stop\n        /* \"digital_contract.sol\":2219:2968  function createContract(... */\n    tag_11:\n      tag_64\n      0x04\n      dup1\n      calldatasize\n      sub\n      dup2\n      add\n      swap1\n      tag_65\n      swap2\n      swap1\n      tag_66\n      jump\t// in\n    tag_65:\n      tag_67\n      jump\t// in\n    tag_64:\n      stop\n        /* \"digital_contract.sol\":3895:4455  function confirmDeliveryByOracle(uint256 _contractId, bytes32 _trackingNumberHash) public onlyOracle {... */\n    tag_12:\n      callvalue\n      dup1\n      iszero\n      tag_68\n      jumpi\n      revert(0x00, 0x00)\n    tag_68:\n      pop\n      tag_69\n      0x04\n      dup1\n      calldatasize\n      sub\n      dup2\n      add\n      swap1\n      tag_70\n      swap2\n      swap1\n      tag_71\n      jump\t// in\n    tag_70:\n      tag_72\n      jump\t// in\n    tag_69:\n      stop\n        /* \"digital_contract.sol\":5531:6247  function withdrawFundsFrom(uint256 _contractId) public nonReentrant onlyCounterparty(_contractId) {... */\n    tag_13:\n      callvalue\n      dup1\n      iszero\n      tag_73\n      jumpi\n      revert(0x00, 0x00)\n    tag_73:\n      pop\n      tag_74\n      0x04\n      dup1\n      calldatasize\n      sub\n      dup2\n      add\n      swap1\n      tag_75\n      swap2\n      swap1\n      tag_23\n      jump\t// in\n    tag_75:\n      tag_76\n      jump\t// in\n    tag_74:\n      stop\n        /* \"digital_contract.sol\":713:734  bool public oracleSet */\n    tag_14:\n      callvalue\n      dup1\n      iszero\n      tag_77\n      jumpi\n      revert(0x00, 0x00)\n    tag_77:\n      pop\n      tag_78\n      tag_79\n      jump\t// in\n    tag_78:\n      mload(0x40)\n      tag_80\n      swap2\n      swap1\n      tag_81\n      jump\t// in\n    tag_80:\n      mload(0x40)\n      dup1\n      swap2\n      sub\n      swap1\n      return\n        /* \"digital_contract.sol\":841:894  mapping(address => uint256) public pendingWithdrawals */\n    tag_15:\n      callvalue\n      dup1\n      iszero\n      tag_82\n      jumpi\n      revert(0x00, 0x00)\n    tag_82:\n      pop\n      tag_83\n      0x04\n      dup1\n      calldatasize\n      sub\n      dup2\n      add\n      swap1\n      tag_84\n      swap2\n      swap1\n      tag_49\n      jump\t// in\n    tag_84:\n      tag_85\n      jump\t// in\n    tag_83:\n      mload(0x40)\n      tag_86\n      swap2\n      swap1\n      tag_29\n      jump\t// in\n    tag_86:\n      mload(0x40)\n      dup1\n      swap2\n      sub\n      swap1\n      return\n        /* \"digital_contract.sol\":3314:3887  function setDeliveryTracking(uint256 _contractId, bytes32 _trackingNumberHash) public onlyCounterparty(_contractId) {... */\n    tag_16:\n      callvalue\n      dup1\n      iszero\n      tag_87\n      jumpi\n      revert(0x00, 0x00)\n    tag_87:\n      pop\n      tag_88\n      0x04\n      dup1\n      calldatasize\n      sub\n      dup2\n      add\n      swap1\n      tag_89\n      swap2\n      swap1\n      tag_71\n      jump\t// in\n    tag_89:\n      tag_90\n      jump\t// in\n    tag_88:\n      stop\n        /* \"digital_contract.sol\":4463:4984  function approveDeliveryAsCreator(uint256 _contractId) public onlyCreator(_contractId) {... */\n    tag_24:\n        /* \"digital_contract.sol\":4537:4548  _contractId */\n      dup1\n        /* \"digital_contract.sol\":1617:1626  contracts */\n      0x02\n        /* \"digital_contract.sol\":1617:1639  contracts[_contractId] */\n      0x00\n        /* \"digital_contract.sol\":1627:1638  _contractId */\n      dup3\n        /* \"digital_contract.sol\":1617:1639  contracts[_contractId] */\n      dup2\n      mstore\n      0x20\n      add\n      swap1\n      dup2\n      mstore\n      0x20\n      add\n      0x00\n      keccak256\n        /* \"digital_contract.sol\":1617:1647  contracts[_contractId].creator */\n      0x02\n      add\n      0x00\n      swap1\n      sload\n      swap1\n      0x0100\n      exp\n      swap1\n      div\n      0xffffffffffffffffffffffffffffffffffffffff\n      and\n        /* \"digital_contract.sol\":1603:1647  msg.sender == contracts[_contractId].creator */\n      0xffffffffffffffffffffffffffffffffffffffff\n      and\n        /* \"digital_contract.sol\":1603:1613  msg.sender */\n      caller\n        /* \"digital_contract.sol\":1603:1647  msg.sender == contracts[_contractId].creator */\n      0xffffffffffffffffffffffffffffffffffffffff\n      and\n      eq\n        /* \"digital_contract.sol\":1595:1663  require(msg.sender == contracts[_contractId].creator, \"Not creator\") */\n      tag_92\n      jumpi\n      mload(0x40)\n      0x08c379a000000000000000000000000000000000000000000000000000000000\n      dup2\n      mstore\n      0x04\n      add\n      tag_93\n      swap1\n      tag_94\n      jump\t// in\n    tag_93:\n      mload(0x40)\n      dup1\n      swap2\n      sub\n      swap1\n      revert\n    tag_92:\n        /* \"digital_contract.sol\":4561:4594  ManagedContract storage mContract */\n      0x00\n        /* \"digital_contract.sol\":4597:4606  contracts */\n      0x02\n        /* \"digital_contract.sol\":4597:4619  contracts[_contractId] */\n      0x00\n        /* \"digital_contract.sol\":4607:4618  _contractId */\n      dup5\n        /* \"digital_contract.sol\":4597:4619  contracts[_contractId] */\n      dup2\n      mstore\n      0x20\n      add\n      swap1\n      dup2\n      mstore\n      0x20\n      add\n      0x00\n      keccak256\n        /* \"digital_contract.sol\":4561:4619  ManagedContract storage mContract = contracts[_contractId] */\n      swap1\n      pop\n        /* \"digital_contract.sol\":4658:4690  ContractStatus.DeliveryConfirmed */\n      0x03\n        /* \"digital_contract.sol\":4638:4690  mContract.status == ContractStatus.DeliveryConfirmed */\n      0x07\n      dup2\n      gt\n      iszero\n      tag_96\n      jumpi\n      tag_97\n      tag_98\n      jump\t// in\n    tag_97:\n    tag_96:\n        /* \"digital_contract.sol\":4638:4647  mContract */\n      dup2\n        /* \"digital_contract.sol\":4638:4654  mContract.status */\n      0x03\n      add\n      0x14\n      swap1\n      sload\n      swap1\n      0x0100\n      exp\n      swap1\n      div\n      0xff\n      and\n        /* \"digital_contract.sol\":4638:4690  mContract.status == ContractStatus.DeliveryConfirmed */\n      0x07\n      dup2\n      gt\n      iszero\n      tag_99\n      jumpi\n      tag_100\n      tag_98\n      jump\t// in\n    tag_100:\n    tag_99:\n      eq\n        /* \"digital_contract.sol\":4630:4707  require(mContract.status == ContractStatus.DeliveryConfirmed, \"Wrong status\") */\n      tag_101\n      jumpi\n      mload(0x40)\n      0x08c379a000000000000000000000000000000000000000000000000000000000\n      dup2\n      mstore\n      0x04\n      add\n      tag_102\n      swap1\n      tag_103\n      jump\t// in\n    tag_102:\n      mload(0x40)\n      dup1\n      swap2\n      sub\n      swap1\n      revert\n    tag_101:\n        /* \"digital_contract.sol\":4739:4770  ContractStatus.DeliveryApproved */\n      0x04\n        /* \"digital_contract.sol\":4720:4729  mContract */\n      dup2\n        /* \"digital_contract.sol\":4720:4736  mContract.status */\n      0x03\n      add\n      0x14\n        /* \"digital_contract.sol\":4720:4770  mContract.status = ContractStatus.DeliveryApproved */\n      0x0100\n      exp\n      dup2\n      sload\n      dup2\n      0xff\n      mul\n      not\n      and\n      swap1\n      dup4\n      0x07\n      dup2\n      gt\n      iszero\n      tag_104\n      jumpi\n      tag_105\n      tag_98\n      jump\t// in\n    tag_105:\n    tag_104:\n      mul\n      or\n      swap1\n      sstore\n      pop\n        /* \"digital_contract.sol\":4827:4836  mContract */\n      dup1\n        /* \"digital_contract.sol\":4827:4843  mContract.amount */\n      0x01\n      add\n      sload\n        /* \"digital_contract.sol\":4781:4799  pendingWithdrawals */\n      0x04\n        /* \"digital_contract.sol\":4781:4823  pendingWithdrawals[mContract.counterparty] */\n      0x00\n        /* \"digital_contract.sol\":4800:4809  mContract */\n      dup4\n        /* \"digital_contract.sol\":4800:4822  mContract.counterparty */\n      0x03\n      add\n      0x00\n      swap1\n      sload\n      swap1\n      0x0100\n      exp\n      swap1\n      div\n      0xffffffffffffffffffffffffffffffffffffffff\n      and\n        /* \"digital_contract.sol\":4781:4823  pendingWithdrawals[mContract.counterparty] */\n      0xffffffffffffffffffffffffffffffffffffffff\n      and\n      0xffffffffffffffffffffffffffffffffffffffff\n      and\n      dup2\n      mstore\n      0x20\n      add\n      swap1\n      dup2\n      mstore\n      0x20\n      add\n      0x00\n      keccak256\n      0x00\n        /* \"digital_contract.sol\":4781:4843  pendingWithdrawals[mContract.counterparty] += mContract.amount */\n      dup3\n      dup3\n      sload\n      tag_106\n      swap2\n      swap1\n      tag_107\n      jump\t// in\n    tag_106:\n      swap3\n      pop\n      pop\n      dup2\n      swap1\n      sstore\n      pop\n        /* \"digital_contract.sol\":4878:4889  _contractId */\n      dup3\n        /* \"digital_contract.sol\":4861:4890  DeliveryApproved(_contractId) */\n      0x5c1e662f72ee6c85181b65fac5beb0390932b8c472f05b257151d041ac9ddffa\n      mload(0x40)\n      mload(0x40)\n      dup1\n      swap2\n      sub\n      swap1\n      log2\n        /* \"digital_contract.sol\":4935:4944  mContract */\n      dup1\n        /* \"digital_contract.sol\":4935:4957  mContract.counterparty */\n      0x03\n      add\n      0x00\n      swap1\n      sload\n      swap1\n      0x0100\n      exp\n      swap1\n      div\n      0xffffffffffffffffffffffffffffffffffffffff\n      and\n        /* \"digital_contract.sol\":4906:4976  PaymentReleased(_contractId, mContract.counterparty, mContract.amount) */\n      0xffffffffffffffffffffffffffffffffffffffff\n      and\n        /* \"digital_contract.sol\":4922:4933  _contractId */\n      dup4\n        /* \"digital_contract.sol\":4906:4976  PaymentReleased(_contractId, mContract.counterparty, mContract.amount) */\n      0x21d71db5be59bb9fa133895586b7404307dd33fb93b16db09dc6f1d9d7d231b0\n        /* \"digital_contract.sol\":4959:4968  mContract */\n      dup4\n        /* \"digital_contract.sol\":4959:4975  mContract.amount */\n      0x01\n      add\n      sload\n        /* \"digital_contract.sol\":4906:4976  PaymentReleased(_contractId, mContract.counterparty, mContract.amount) */\n      mload(0x40)\n      tag_108\n      swap2\n      swap1\n      tag_29\n      jump\t// in\n    tag_108:\n      mload(0x40)\n      dup1\n      swap2\n      sub\n      swap1\n      log3\n        /* \"digital_contract.sol\":4550:4984  {... */\n      pop\n        /* \"digital_contract.sol\":4463:4984  function approveDeliveryAsCreator(uint256 _contractId) public onlyCreator(_contractId) {... */\n      pop\n      pop\n      jump\t// out\n        /* \"digital_contract.sol\":802:832  uint256 public contractCounter */\n    tag_27:\n      sload(0x03)\n      dup2\n      jump\t// out\n        /* \"digital_contract.sol\":6727:6867  function getContractStatus(uint256 _contractId) public view returns (ContractStatus) {... */\n    tag_33:\n        /* \"digital_contract.sol\":6796:6810  ContractStatus */\n      0x00\n        /* \"digital_contract.sol\":6830:6839  contracts */\n      0x02\n        /* \"digital_contract.sol\":6830:6852  contracts[_contractId] */\n      0x00\n        /* \"digital_contract.sol\":6840:6851  _contractId */\n      dup4\n        /* \"digital_contract.sol\":6830:6852  contracts[_contractId] */\n      dup2\n      mstore\n      0x20\n      add\n      swap1\n      dup2\n      mstore\n      0x20\n      add\n      0x00\n      keccak256\n        /* \"digital_contract.sol\":6830:6859  contracts[_contractId].status */\n      0x03\n      add\n      0x14\n      swap1\n      sload\n      swap1\n      0x0100\n      exp\n      swap1\n      div\n      0xff\n      and\n        /* \"digital_contract.sol\":6823:6859  return contracts[_contractId].status */\n      swap1\n      pop\n        /* \"digital_contract.sol\":6727:6867  function getContractStatus(uint256 _contractId) public view returns (ContractStatus) {... */\n      swap2\n      swap1\n      pop\n      jump\t// out\n        /* \"digital_contract.sol\":6255:6719  function deactivateContract(uint256 _contractId) public onlyCounterparty(_contractId) onlyCreator(_contractId) {... */\n    tag_39:\n        /* \"digital_contract.sol\":6328:6339  _contractId */\n      dup1\n        /* \"digital_contract.sol\":1771:1780  contracts */\n      0x02\n        /* \"digital_contract.sol\":1771:1793  contracts[_contractId] */\n      0x00\n        /* \"digital_contract.sol\":1781:1792  _contractId */\n      dup3\n        /* \"digital_contract.sol\":1771:1793  contracts[_contractId] */\n      dup2\n      mstore\n      0x20\n      add\n      swap1\n      dup2\n      mstore\n      0x20\n      add\n      0x00\n      keccak256\n        /* \"digital_contract.sol\":1771:1806  contracts[_contractId].counterparty */\n      0x03\n      add\n      0x00\n      swap1\n      sload\n      swap1\n      0x0100\n      exp\n      swap1\n      div\n      0xffffffffffffffffffffffffffffffffffffffff\n      and\n        /* \"digital_contract.sol\":1757:1806  msg.sender == contracts[_contractId].counterparty */\n      0xffffffffffffffffffffffffffffffffffffffff\n      and\n        /* \"digital_contract.sol\":1757:1767  msg.sender */\n      caller\n        /* \"digital_contract.sol\":1757:1806  msg.sender == contracts[_contractId].counterparty */\n      0xffffffffffffffffffffffffffffffffffffffff\n      and\n      eq\n        /* \"digital_contract.sol\":1749:1827  require(msg.sender == contracts[_contractId].counterparty, \"Not counterparty\") */\n      tag_111\n      jumpi\n      mload(0x40)\n      0x08c379a000000000000000000000000000000000000000000000000000000000\n      dup2\n      mstore\n      0x04\n      add\n      tag_112\n      swap1\n      tag_113\n      jump\t// in\n    tag_112:\n      mload(0x40)\n      dup1\n      swap2\n      sub\n      swap1\n      revert\n    tag_111:\n        /* \"digital_contract.sol\":6353:6364  _contractId */\n      dup2\n        /* \"digital_contract.sol\":1617:1626  contracts */\n      0x02\n        /* \"digital_contract.sol\":1617:1639  contracts[_contractId] */\n      0x00\n        /* \"digital_contract.sol\":1627:1638  _contractId */\n      dup3\n        /* \"digital_contract.sol\":1617:1639  contracts[_contractId] */\n      dup2\n      mstore\n      0x20\n      add\n      swap1\n      dup2\n      mstore\n      0x20\n      add\n      0x00\n      keccak256\n        /* \"digital_contract.sol\":1617:1647  contracts[_contractId].creator */\n      0x02\n      add\n      0x00\n      swap1\n      sload\n      swap1\n      0x0100\n      exp\n      swap1\n      div\n      0xffffffffffffffffffffffffffffffffffffffff\n      and\n        /* \"digital_contract.sol\":1603:1647  msg.sender == contracts[_contractId].creator */\n      0xffffffffffffffffffffffffffffffffffffffff\n      and\n        /* \"digital_contract.sol\":1603:1613  msg.sender */\n      caller\n        /* \"digital_contract.sol\":1603:1647  msg.sender == contracts[_contractId].creator */\n      0xffffffffffffffffffffffffffffffffffffffff\n      and\n      eq\n        /* \"digital_contract.sol\":1595:1663  require(msg.sender == contracts[_contractId].creator, \"Not creator\") */\n      tag_115\n      jumpi\n      mload(0x40)\n      0x08c379a000000000000000000000000000000000000000000000000000000000\n      dup2\n      mstore\n      0x04\n      add\n      tag_116\n      swap1\n      tag_94\n      jump\t// in\n    tag_116:\n      mload(0x40)\n      dup1\n      swap2\n      sub\n      swap1\n      revert\n    tag_115:\n        /* \"digital_contract.sol\":6377:6410  ManagedContract storage mContract */\n      0x00\n        /* \"digital_contract.sol\":6413:6422  contracts */\n      0x02\n        /* \"digital_contract.sol\":6413:6435  contracts[_contractId] */\n      0x00\n        /* \"digital_contract.sol\":6423:6434  _contractId */\n      dup6\n        /* \"digital_contract.sol\":6413:6435  contracts[_contractId] */\n      dup2\n      mstore\n      0x20\n      add\n      swap1\n      dup2\n      mstore\n      0x20\n      add\n      0x00\n      keccak256\n        /* \"digital_contract.sol\":6377:6435  ManagedContract storage mContract = contracts[_contractId] */\n      swap1\n      pop\n        /* \"digital_contract.sol\":6474:6498  ContractStatus.Completed */\n      0x06\n        /* \"digital_contract.sol\":6454:6498  mContract.status == ContractStatus.Completed */\n      0x07\n      dup2\n      gt\n      iszero\n      tag_118\n      jumpi\n      tag_119\n      tag_98\n      jump\t// in\n    tag_119:\n    tag_118:\n        /* \"digital_contract.sol\":6454:6463  mContract */\n      dup2\n        /* \"digital_contract.sol\":6454:6470  mContract.status */\n      0x03\n      add\n      0x14\n      swap1\n      sload\n      swap1\n      0x0100\n      exp\n      swap1\n      div\n      0xff\n      and\n        /* \"digital_contract.sol\":6454:6498  mContract.status == ContractStatus.Completed */\n      0x07\n      dup2\n      gt\n      iszero\n      tag_120\n      jumpi\n      tag_121\n      tag_98\n      jump\t// in\n    tag_121:\n    tag_120:\n      eq\n        /* \"digital_contract.sol\":6446:6517  require(mContract.status == ContractStatus.Completed, \"Only Completed\") */\n      tag_122\n      jumpi\n      mload(0x40)\n      0x08c379a000000000000000000000000000000000000000000000000000000000\n      dup2\n      mstore\n      0x04\n      add\n      tag_123\n      swap1\n      tag_124\n      jump\t// in\n    tag_123:\n      mload(0x40)\n      dup1\n      swap2\n      sub\n      swap1\n      revert\n    tag_122:\n        /* \"digital_contract.sol\":6537:6546  mContract */\n      dup1\n        /* \"digital_contract.sol\":6537:6559  mContract.contractHash */\n      0x04\n      add\n        /* \"digital_contract.sol\":6530:6559  delete mContract.contractHash */\n      0x00\n      swap1\n      sstore\n        /* \"digital_contract.sol\":6577:6586  mContract */\n      dup1\n        /* \"digital_contract.sol\":6577:6607  mContract.deliveryTrackingHash */\n      0x05\n      add\n        /* \"digital_contract.sol\":6570:6607  delete mContract.deliveryTrackingHash */\n      0x00\n      swap1\n      sstore\n        /* \"digital_contract.sol\":6637:6661  ContractStatus.Cancelled */\n      0x07\n        /* \"digital_contract.sol\":6618:6627  mContract */\n      dup2\n        /* \"digital_contract.sol\":6618:6634  mContract.status */\n      0x03\n      add\n      0x14\n        /* \"digital_contract.sol\":6618:6661  mContract.status = ContractStatus.Cancelled */\n      0x0100\n      exp\n      dup2\n      sload\n      dup2\n      0xff\n      mul\n      not\n      and\n      swap1\n      dup4\n      0x07\n      dup2\n      gt\n      iszero\n      tag_125\n      jumpi\n      tag_126\n      tag_98\n      jump\t// in\n    tag_126:\n    tag_125:\n      mul\n      or\n      swap1\n      sstore\n      pop\n        /* \"digital_contract.sol\":6699:6710  _contractId */\n      dup4\n        /* \"digital_contract.sol\":6679:6711  ContractDeactivated(_contractId) */\n      0x741b099f015e1976cfa72a7448a8fb1d54eab1d616241b562cfbe603a2b61b42\n      mload(0x40)\n      mload(0x40)\n      dup1\n      swap2\n      sub\n      swap1\n      log2\n        /* \"digital_contract.sol\":6366:6719  {... */\n      pop\n        /* \"digital_contract.sol\":1838:1839  _ */\n      pop\n        /* \"digital_contract.sol\":6255:6719  function deactivateContract(uint256 _contractId) public onlyCounterparty(_contractId) onlyCreator(_contractId) {... */\n      pop\n      pop\n      jump\t// out\n        /* \"digital_contract.sol\":743:795  mapping(uint256 => ManagedContract) public contracts */\n    tag_43:\n      mstore(0x20, 0x02)\n      dup1\n      0x00\n      mstore\n      keccak256(0x00, 0x40)\n      0x00\n      swap2\n      pop\n      swap1\n      pop\n      dup1\n      0x00\n      add\n      sload\n      swap1\n      dup1\n      0x01\n      add\n      sload\n      swap1\n      dup1\n      0x02\n      add\n      0x00\n      swap1\n      sload\n      swap1\n      0x0100\n      exp\n      swap1\n      div\n      0xffffffffffffffffffffffffffffffffffffffff\n      and\n      swap1\n      dup1\n      0x03\n      add\n      0x00\n      swap1\n      sload\n      swap1\n      0x0100\n      exp\n      swap1\n      div\n      0xffffffffffffffffffffffffffffffffffffffff\n      and\n      swap1\n      dup1\n      0x03\n      add\n      0x14\n      swap1\n      sload\n      swap1\n      0x0100\n      exp\n      swap1\n      div\n      0xff\n      and\n      swap1\n      dup1\n      0x04\n      add\n      sload\n      swap1\n      dup1\n      0x05\n      add\n      sload\n      swap1\n      dup1\n      0x06\n      add\n      0x00\n      swap1\n      sload\n      swap1\n      0x0100\n      exp\n      swap1\n      div\n      0xff\n      and\n      swap1\n      pop\n      dup9\n      jump\t// out\n        /* \"digital_contract.sol\":1959:2211  function setOracle(address _oracle) public {... */\n    tag_50:\n        /* \"digital_contract.sol\":2022:2031  oracleSet */\n      0x01\n      0x14\n      swap1\n      sload\n      swap1\n      0x0100\n      exp\n      swap1\n      div\n      0xff\n      and\n        /* \"digital_contract.sol\":2021:2031  !oracleSet */\n      iszero\n        /* \"digital_contract.sol\":2013:2054  require(!oracleSet, \"Oracle already set\") */\n      tag_128\n      jumpi\n      mload(0x40)\n      0x08c379a000000000000000000000000000000000000000000000000000000000\n      dup2\n      mstore\n      0x04\n      add\n      tag_129\n      swap1\n      tag_130\n      jump\t// in\n    tag_129:\n      mload(0x40)\n      dup1\n      swap2\n      sub\n      swap1\n      revert\n    tag_128:\n        /* \"digital_contract.sol\":2092:2093  0 */\n      0x00\n        /* \"digital_contract.sol\":2073:2094  _oracle != address(0) */\n      0xffffffffffffffffffffffffffffffffffffffff\n      and\n        /* \"digital_contract.sol\":2073:2080  _oracle */\n      dup2\n        /* \"digital_contract.sol\":2073:2094  _oracle != address(0) */\n      0xffffffffffffffffffffffffffffffffffffffff\n      and\n      sub\n        /* \"digital_contract.sol\":2065:2113  require(_oracle != address(0), \"Invalid oracle\") */\n      tag_131\n      jumpi\n      mload(0x40)\n      0x08c379a000000000000000000000000000000000000000000000000000000000\n      dup2\n      mstore\n      0x04\n      add\n      tag_132\n      swap1\n      tag_133\n      jump\t// in\n    tag_132:\n      mload(0x40)\n      dup1\n      swap2\n      sub\n      swap1\n      revert\n    tag_131:\n        /* \"digital_contract.sol\":2135:2142  _oracle */\n      dup1\n        /* \"digital_contract.sol\":2126:2132  oracle */\n      0x01\n      0x00\n        /* \"digital_contract.sol\":2126:2142  oracle = _oracle */\n      0x0100\n      exp\n      dup2\n      sload\n      dup2\n      0xffffffffffffffffffffffffffffffffffffffff\n      mul\n      not\n      and\n      swap1\n      dup4\n      0xffffffffffffffffffffffffffffffffffffffff\n      and\n      mul\n      or\n      swap1\n      sstore\n      pop\n        /* \"digital_contract.sol\":2165:2169  true */\n      0x01\n        /* \"digital_contract.sol\":2153:2162  oracleSet */\n      dup1\n      0x14\n        /* \"digital_contract.sol\":2153:2169  oracleSet = true */\n      0x0100\n      exp\n      dup2\n      sload\n      dup2\n      0xff\n      mul\n      not\n      and\n      swap1\n      dup4\n      iszero\n      iszero\n      mul\n      or\n      swap1\n      sstore\n      pop\n        /* \"digital_contract.sol\":2195:2202  _oracle */\n      dup1\n        /* \"digital_contract.sol\":2185:2203  OracleSet(_oracle) */\n      0xffffffffffffffffffffffffffffffffffffffff\n      and\n      0x3f32684a32a11dabdbb8c0177de80aa3ae36a004d75210335b49e544e48cd0aa\n      mload(0x40)\n      mload(0x40)\n      dup1\n      swap2\n      sub\n      swap1\n      log2\n        /* \"digital_contract.sol\":1959:2211  function setOracle(address _oracle) public {... */\n      pop\n      jump\t// out\n        /* \"digital_contract.sol\":685:706  address public oracle */\n    tag_53:\n      0x01\n      0x00\n      swap1\n      sload\n      swap1\n      0x0100\n      exp\n      swap1\n      div\n      0xffffffffffffffffffffffffffffffffffffffff\n      and\n      dup2\n      jump\t// out\n        /* \"digital_contract.sol\":4992:5523  function confirmCompletion(uint256 _contractId) public onlyCreator(_contractId) {... */\n    tag_59:\n        /* \"digital_contract.sol\":5059:5070  _contractId */\n      dup1\n        /* \"digital_contract.sol\":1617:1626  contracts */\n      0x02\n        /* \"digital_contract.sol\":1617:1639  contracts[_contractId] */\n      0x00\n        /* \"digital_contract.sol\":1627:1638  _contractId */\n      dup3\n        /* \"digital_contract.sol\":1617:1639  contracts[_contractId] */\n      dup2\n      mstore\n      0x20\n      add\n      swap1\n      dup2\n      mstore\n      0x20\n      add\n      0x00\n      keccak256\n        /* \"digital_contract.sol\":1617:1647  contracts[_contractId].creator */\n      0x02\n      add\n      0x00\n      swap1\n      sload\n      swap1\n      0x0100\n      exp\n      swap1\n      div\n      0xffffffffffffffffffffffffffffffffffffffff\n      and\n        /* \"digital_contract.sol\":1603:1647  msg.sender == contracts[_contractId].creator */\n      0xffffffffffffffffffffffffffffffffffffffff\n      and\n        /* \"digital_contract.sol\":1603:1613  msg.sender */\n      caller\n        /* \"digital_contract.sol\":1603:1647  msg.sender == contracts[_contractId].creator */\n      0xffffffffffffffffffffffffffffffffffffffff\n      and\n      eq\n        /* \"digital_contract.sol\":1595:1663  require(msg.sender == contracts[_contractId].creator, \"Not creator\") */\n      tag_135\n      jumpi\n      mload(0x40)\n      0x08c379a000000000000000000000000000000000000000000000000000000000\n      dup2\n      mstore\n      0x04\n      add\n      tag_136\n      swap1\n      tag_94\n      jump\t// in\n    tag_136:\n      mload(0x40)\n      dup1\n      swap2\n      sub\n      swap1\n      revert\n    tag_135:\n        /* \"digital_contract.sol\":5083:5116  ManagedContract storage mContract */\n      0x00\n        /* \"digital_contract.sol\":5119:5128  contracts */\n      0x02\n        /* \"digital_contract.sol\":5119:5141  contracts[_contractId] */\n      0x00\n        /* \"digital_contract.sol\":5129:5140  _contractId */\n      dup5\n        /* \"digital_contract.sol\":5119:5141  contracts[_contractId] */\n      dup2\n      mstore\n      0x20\n      add\n      swap1\n      dup2\n      mstore\n      0x20\n      add\n      0x00\n      keccak256\n        /* \"digital_contract.sol\":5083:5141  ManagedContract storage mContract = contracts[_contractId] */\n      swap1\n      pop\n        /* \"digital_contract.sol\":5180:5201  ContractStatus.Signed */\n      0x01\n        /* \"digital_contract.sol\":5160:5201  mContract.status == ContractStatus.Signed */\n      0x07\n      dup2\n      gt\n      iszero\n      tag_138\n      jumpi\n      tag_139\n      tag_98\n      jump\t// in\n    tag_139:\n    tag_138:\n        /* \"digital_contract.sol\":5160:5169  mContract */\n      dup2\n        /* \"digital_contract.sol\":5160:5176  mContract.status */\n      0x03\n      add\n      0x14\n      swap1\n      sload\n      swap1\n      0x0100\n      exp\n      swap1\n      div\n      0xff\n      and\n        /* \"digital_contract.sol\":5160:5201  mContract.status == ContractStatus.Signed */\n      0x07\n      dup2\n      gt\n      iszero\n      tag_140\n      jumpi\n      tag_141\n      tag_98\n      jump\t// in\n    tag_141:\n    tag_140:\n      eq\n        /* \"digital_contract.sol\":5152:5216  require(mContract.status == ContractStatus.Signed, \"Not signed\") */\n      tag_142\n      jumpi\n      mload(0x40)\n      0x08c379a000000000000000000000000000000000000000000000000000000000\n      dup2\n      mstore\n      0x04\n      add\n      tag_143\n      swap1\n      tag_144\n      jump\t// in\n    tag_143:\n      mload(0x40)\n      dup1\n      swap2\n      sub\n      swap1\n      revert\n    tag_142:\n        /* \"digital_contract.sol\":5236:5245  mContract */\n      dup1\n        /* \"digital_contract.sol\":5236:5262  mContract.deliveryRequired */\n      0x06\n      add\n      0x00\n      swap1\n      sload\n      swap1\n      0x0100\n      exp\n      swap1\n      div\n      0xff\n      and\n        /* \"digital_contract.sol\":5235:5262  !mContract.deliveryRequired */\n      iszero\n        /* \"digital_contract.sol\":5227:5289  require(!mContract.deliveryRequired, \"Delivery flow required\") */\n      tag_145\n      jumpi\n      mload(0x40)\n      0x08c379a000000000000000000000000000000000000000000000000000000000\n      dup2\n      mstore\n      0x04\n      add\n      tag_146\n      swap1\n      tag_147\n      jump\t// in\n    tag_146:\n      mload(0x40)\n      dup1\n      swap2\n      sub\n      swap1\n      revert\n    tag_145:\n        /* \"digital_contract.sol\":5321:5354  ContractStatus.AgreementFulfilled */\n      0x05\n        /* \"digital_contract.sol\":5302:5311  mContract */\n      dup2\n        /* \"digital_contract.sol\":5302:5318  mContract.status */\n      0x03\n      add\n      0x14\n        /* \"digital_contract.sol\":5302:5354  mContract.status = ContractStatus.AgreementFulfilled */\n      0x0100\n      exp\n      dup2\n      sload\n      dup2\n      0xff\n      mul\n      not\n      and\n      swap1\n      dup4\n      0x07\n      dup2\n      gt\n      iszero\n      tag_148\n      jumpi\n      tag_149\n      tag_98\n      jump\t// in\n    tag_149:\n    tag_148:\n      mul\n      or\n      swap1\n      sstore\n      pop\n        /* \"digital_contract.sol\":5411:5420  mContract */\n      dup1\n        /* \"digital_contract.sol\":5411:5427  mContract.amount */\n      0x01\n      add\n      sload\n        /* \"digital_contract.sol\":5365:5383  pendingWithdrawals */\n      0x04\n        /* \"digital_contract.sol\":5365:5407  pendingWithdrawals[mContract.counterparty] */\n      0x00\n        /* \"digital_contract.sol\":5384:5393  mContract */\n      dup4\n        /* \"digital_contract.sol\":5384:5406  mContract.counterparty */\n      0x03\n      add\n      0x00\n      swap1\n      sload\n      swap1\n      0x0100\n      exp\n      swap1\n      div\n      0xffffffffffffffffffffffffffffffffffffffff\n      and\n        /* \"digital_contract.sol\":5365:5407  pendingWithdrawals[mContract.counterparty] */\n      0xffffffffffffffffffffffffffffffffffffffff\n      and\n      0xffffffffffffffffffffffffffffffffffffffff\n      and\n      dup2\n      mstore\n      0x20\n      add\n      swap1\n      dup2\n      mstore\n      0x20\n      add\n      0x00\n      keccak256\n      0x00\n        /* \"digital_contract.sol\":5365:5427  pendingWithdrawals[mContract.counterparty] += mContract.amount */\n      dup3\n      dup3\n      sload\n      tag_150\n      swap2\n      swap1\n      tag_107\n      jump\t// in\n    tag_150:\n      swap3\n      pop\n      pop\n      dup2\n      swap1\n      sstore\n      pop\n        /* \"digital_contract.sol\":5474:5483  mContract */\n      dup1\n        /* \"digital_contract.sol\":5474:5496  mContract.counterparty */\n      0x03\n      add\n      0x00\n      swap1\n      sload\n      swap1\n      0x0100\n      exp\n      swap1\n      div\n      0xffffffffffffffffffffffffffffffffffffffff\n      and\n        /* \"digital_contract.sol\":5445:5515  PaymentReleased(_contractId, mContract.counterparty, mContract.amount) */\n      0xffffffffffffffffffffffffffffffffffffffff\n      and\n        /* \"digital_contract.sol\":5461:5472  _contractId */\n      dup4\n        /* \"digital_contract.sol\":5445:5515  PaymentReleased(_contractId, mContract.counterparty, mContract.amount) */\n      0x21d71db5be59bb9fa133895586b7404307dd33fb93b16db09dc6f1d9d7d231b0\n        /* \"digital_contract.sol\":5498:5507  mContract */\n      dup4\n        /* \"digital_contract.sol\":5498:5514  mContract.amount */\n      0x01\n      add\n      sload\n        /* \"digital_contract.sol\":5445:5515  PaymentReleased(_contractId, mContract.counterparty, mContract.amount) */\n      mload(0x40)\n      tag_151\n      swap2\n      swap1\n      tag_29\n      jump\t// in\n    tag_151:\n      mload(0x40)\n      dup1\n      swap2\n      sub\n      swap1\n      log3\n        /* \"digital_contract.sol\":5072:5523  {... */\n      pop\n        /* \"digital_contract.sol\":4992:5523  function confirmCompletion(uint256 _contractId) public onlyCreator(_contractId) {... */\n      pop\n      pop\n      jump\t// out\n        /* \"digital_contract.sol\":2976:3306  function signContract(uint256 _contractId) public onlyCounterparty(_contractId) {... */\n    tag_63:\n        /* \"digital_contract.sol\":3043:3054  _contractId */\n      dup1\n        /* \"digital_contract.sol\":1771:1780  contracts */\n      0x02\n        /* \"digital_contract.sol\":1771:1793  contracts[_contractId] */\n      0x00\n        /* \"digital_contract.sol\":1781:1792  _contractId */\n      dup3\n        /* \"digital_contract.sol\":1771:1793  contracts[_contractId] */\n      dup2\n      mstore\n      0x20\n      add\n      swap1\n      dup2\n      mstore\n      0x20\n      add\n      0x00\n      keccak256\n        /* \"digital_contract.sol\":1771:1806  contracts[_contractId].counterparty */\n      0x03\n      add\n      0x00\n      swap1\n      sload\n      swap1\n      0x0100\n      exp\n      swap1\n      div\n      0xffffffffffffffffffffffffffffffffffffffff\n      and\n        /* \"digital_contract.sol\":1757:1806  msg.sender == contracts[_contractId].counterparty */\n      0xffffffffffffffffffffffffffffffffffffffff\n      and\n        /* \"digital_contract.sol\":1757:1767  msg.sender */\n      caller\n        /* \"digital_contract.sol\":1757:1806  msg.sender == contracts[_contractId].counterparty */\n      0xffffffffffffffffffffffffffffffffffffffff\n      and\n      eq\n        /* \"digital_contract.sol\":1749:1827  require(msg.sender == contracts[_contractId].counterparty, \"Not counterparty\") */\n      tag_153\n      jumpi\n      mload(0x40)\n      0x08c379a000000000000000000000000000000000000000000000000000000000\n      dup2\n      mstore\n      0x04\n      add\n      tag_154\n      swap1\n      tag_113\n      jump\t// in\n    tag_154:\n      mload(0x40)\n      dup1\n      swap2\n      sub\n      swap1\n      revert\n    tag_153:\n        /* \"digital_contract.sol\":3067:3100  ManagedContract storage mContract */\n      0x00\n        /* \"digital_contract.sol\":3103:3112  contracts */\n      0x02\n        /* \"digital_contract.sol\":3103:3125  contracts[_contractId] */\n      0x00\n        /* \"digital_contract.sol\":3113:3124  _contractId */\n      dup5\n        /* \"digital_contract.sol\":3103:3125  contracts[_contractId] */\n      dup2\n      mstore\n      0x20\n      add\n      swap1\n      dup2\n      mstore\n      0x20\n      add\n      0x00\n      keccak256\n        /* \"digital_contract.sol\":3067:3125  ManagedContract storage mContract = contracts[_contractId] */\n      swap1\n      pop\n        /* \"digital_contract.sol\":3164:3186  ContractStatus.Created */\n      0x00\n        /* \"digital_contract.sol\":3144:3186  mContract.status == ContractStatus.Created */\n      0x07\n      dup2\n      gt\n      iszero\n      tag_156\n      jumpi\n      tag_157\n      tag_98\n      jump\t// in\n    tag_157:\n    tag_156:\n        /* \"digital_contract.sol\":3144:3153  mContract */\n      dup2\n        /* \"digital_contract.sol\":3144:3160  mContract.status */\n      0x03\n      add\n      0x14\n      swap1\n      sload\n      swap1\n      0x0100\n      exp\n      swap1\n      div\n      0xff\n      and\n        /* \"digital_contract.sol\":3144:3186  mContract.status == ContractStatus.Created */\n      0x07\n      dup2\n      gt\n      iszero\n      tag_158\n      jumpi\n      tag_159\n      tag_98\n      jump\t// in\n    tag_159:\n    tag_158:\n      eq\n        /* \"digital_contract.sol\":3136:3202  require(mContract.status == ContractStatus.Created, \"Not Created\") */\n      tag_160\n      jumpi\n      mload(0x40)\n      0x08c379a000000000000000000000000000000000000000000000000000000000\n      dup2\n      mstore\n      0x04\n      add\n      tag_161\n      swap1\n      tag_162\n      jump\t// in\n    tag_161:\n      mload(0x40)\n      dup1\n      swap2\n      sub\n      swap1\n      revert\n    tag_160:\n        /* \"digital_contract.sol\":3234:3255  ContractStatus.Signed */\n      0x01\n        /* \"digital_contract.sol\":3215:3224  mContract */\n      dup2\n        /* \"digital_contract.sol\":3215:3231  mContract.status */\n      0x03\n      add\n      0x14\n        /* \"digital_contract.sol\":3215:3255  mContract.status = ContractStatus.Signed */\n      0x0100\n      exp\n      dup2\n      sload\n      dup2\n      0xff\n      mul\n      not\n      and\n      swap1\n      dup4\n      0x07\n      dup2\n      gt\n      iszero\n      tag_163\n      jumpi\n      tag_164\n      tag_98\n      jump\t// in\n    tag_164:\n    tag_163:\n      mul\n      or\n      swap1\n      sstore\n      pop\n        /* \"digital_contract.sol\":3286:3297  _contractId */\n      dup3\n        /* \"digital_contract.sol\":3271:3298  ContractSigned(_contractId) */\n      0xaf3c49f5413fd292e2325b0fe214de144a222b00cb6ec21214fdc04b5d6c5913\n      mload(0x40)\n      mload(0x40)\n      dup1\n      swap2\n      sub\n      swap1\n      log2\n        /* \"digital_contract.sol\":3056:3306  {... */\n      pop\n        /* \"digital_contract.sol\":2976:3306  function signContract(uint256 _contractId) public onlyCounterparty(_contractId) {... */\n      pop\n      pop\n      jump\t// out\n        /* \"digital_contract.sol\":2219:2968  function createContract(... */\n    tag_67:\n        /* \"digital_contract.sol\":2407:2408  0 */\n      0x00\n        /* \"digital_contract.sol\":2382:2409  _counterparty != address(0) */\n      0xffffffffffffffffffffffffffffffffffffffff\n      and\n        /* \"digital_contract.sol\":2382:2395  _counterparty */\n      dup4\n        /* \"digital_contract.sol\":2382:2409  _counterparty != address(0) */\n      0xffffffffffffffffffffffffffffffffffffffff\n      and\n      sub\n        /* \"digital_contract.sol\":2374:2432  require(_counterparty != address(0), \"0 addr not allowed\") */\n      tag_166\n      jumpi\n      mload(0x40)\n      0x08c379a000000000000000000000000000000000000000000000000000000000\n      dup2\n      mstore\n      0x04\n      add\n      tag_167\n      swap1\n      tag_168\n      jump\t// in\n    tag_167:\n      mload(0x40)\n      dup1\n      swap2\n      sub\n      swap1\n      revert\n    tag_166:\n        /* \"digital_contract.sol\":2464:2471  _amount */\n      dup1\n        /* \"digital_contract.sol\":2451:2460  msg.value */\n      callvalue\n        /* \"digital_contract.sol\":2451:2471  msg.value == _amount */\n      eq\n        /* \"digital_contract.sol\":2443:2488  require(msg.value == _amount, \"ETH mismatch\") */\n      tag_169\n      jumpi\n      mload(0x40)\n      0x08c379a000000000000000000000000000000000000000000000000000000000\n      dup2\n      mstore\n      0x04\n      add\n      tag_170\n      swap1\n      tag_171\n      jump\t// in\n    tag_170:\n      mload(0x40)\n      dup1\n      swap2\n      sub\n      swap1\n      revert\n    tag_169:\n        /* \"digital_contract.sol\":2501:2516  contractCounter */\n      0x03\n      0x00\n        /* \"digital_contract.sol\":2501:2518  contractCounter++ */\n      dup2\n      sload\n      dup1\n      swap3\n      swap2\n      swap1\n      tag_172\n      swap1\n      tag_173\n      jump\t// in\n    tag_172:\n      swap2\n      swap1\n      pop\n      sstore\n      pop\n        /* \"digital_contract.sol\":2529:2564  ManagedContract storage newContract */\n      0x00\n        /* \"digital_contract.sol\":2567:2576  contracts */\n      0x02\n        /* \"digital_contract.sol\":2567:2593  contracts[contractCounter] */\n      0x00\n        /* \"digital_contract.sol\":2577:2592  contractCounter */\n      sload(0x03)\n        /* \"digital_contract.sol\":2567:2593  contracts[contractCounter] */\n      dup2\n      mstore\n      0x20\n      add\n      swap1\n      dup2\n      mstore\n      0x20\n      add\n      0x00\n      keccak256\n        /* \"digital_contract.sol\":2529:2593  ManagedContract storage newContract = contracts[contractCounter] */\n      swap1\n      pop\n        /* \"digital_contract.sol\":2621:2636  contractCounter */\n      sload(0x03)\n        /* \"digital_contract.sol\":2604:2615  newContract */\n      dup2\n        /* \"digital_contract.sol\":2604:2618  newContract.id */\n      0x00\n      add\n        /* \"digital_contract.sol\":2604:2636  newContract.id = contractCounter */\n      dup2\n      swap1\n      sstore\n      pop\n        /* \"digital_contract.sol\":2668:2675  _amount */\n      dup2\n        /* \"digital_contract.sol\":2647:2658  newContract */\n      dup2\n        /* \"digital_contract.sol\":2647:2665  newContract.amount */\n      0x01\n      add\n        /* \"digital_contract.sol\":2647:2675  newContract.amount = _amount */\n      dup2\n      swap1\n      sstore\n      pop\n        /* \"digital_contract.sol\":2716:2726  msg.sender */\n      caller\n        /* \"digital_contract.sol\":2686:2697  newContract */\n      dup2\n        /* \"digital_contract.sol\":2686:2705  newContract.creator */\n      0x02\n      add\n      0x00\n        /* \"digital_contract.sol\":2686:2727  newContract.creator = payable(msg.sender) */\n      0x0100\n      exp\n      dup2\n      sload\n      dup2\n      0xffffffffffffffffffffffffffffffffffffffff\n      mul\n      not\n      and\n      swap1\n      dup4\n      0xffffffffffffffffffffffffffffffffffffffff\n      and\n      mul\n      or\n      swap1\n      sstore\n      pop\n        /* \"digital_contract.sol\":2765:2778  _counterparty */\n      dup4\n        /* \"digital_contract.sol\":2738:2749  newContract */\n      dup2\n        /* \"digital_contract.sol\":2738:2762  newContract.counterparty */\n      0x03\n      add\n      0x00\n        /* \"digital_contract.sol\":2738:2778  newContract.counterparty = _counterparty */\n      0x0100\n      exp\n      dup2\n      sload\n      dup2\n      0xffffffffffffffffffffffffffffffffffffffff\n      mul\n      not\n      and\n      swap1\n      dup4\n      0xffffffffffffffffffffffffffffffffffffffff\n      and\n      mul\n      or\n      swap1\n      sstore\n      pop\n        /* \"digital_contract.sol\":2810:2832  ContractStatus.Created */\n      0x00\n        /* \"digital_contract.sol\":2789:2800  newContract */\n      dup2\n        /* \"digital_contract.sol\":2789:2807  newContract.status */\n      0x03\n      add\n      0x14\n        /* \"digital_contract.sol\":2789:2832  newContract.status = ContractStatus.Created */\n      0x0100\n      exp\n      dup2\n      sload\n      dup2\n      0xff\n      mul\n      not\n      and\n      swap1\n      dup4\n      0x07\n      dup2\n      gt\n      iszero\n      tag_174\n      jumpi\n      tag_175\n      tag_98\n      jump\t// in\n    tag_175:\n    tag_174:\n      mul\n      or\n      swap1\n      sstore\n      pop\n        /* \"digital_contract.sol\":2870:2883  _contractHash */\n      dup3\n        /* \"digital_contract.sol\":2843:2854  newContract */\n      dup2\n        /* \"digital_contract.sol\":2843:2867  newContract.contractHash */\n      0x04\n      add\n        /* \"digital_contract.sol\":2843:2883  newContract.contractHash = _contractHash */\n      dup2\n      swap1\n      sstore\n      pop\n        /* \"digital_contract.sol\":2917:2932  contractCounter */\n      sload(0x03)\n        /* \"digital_contract.sol\":2901:2960  ContractCreated(contractCounter, msg.sender, _counterparty) */\n      0x56560a52c047ed21fd801bf0f345b23d9af696f7922ff8e63101af5d48caddab\n        /* \"digital_contract.sol\":2934:2944  msg.sender */\n      caller\n        /* \"digital_contract.sol\":2946:2959  _counterparty */\n      dup7\n        /* \"digital_contract.sol\":2901:2960  ContractCreated(contractCounter, msg.sender, _counterparty) */\n      mload(0x40)\n      tag_176\n      swap3\n      swap2\n      swap1\n      tag_177\n      jump\t// in\n    tag_176:\n      mload(0x40)\n      dup1\n      swap2\n      sub\n      swap1\n      log2\n        /* \"digital_contract.sol\":2363:2968  {... */\n      pop\n        /* \"digital_contract.sol\":2219:2968  function createContract(... */\n      pop\n      pop\n      pop\n      jump\t// out\n        /* \"digital_contract.sol\":3895:4455  function confirmDeliveryByOracle(uint256 _contractId, bytes32 _trackingNumberHash) public onlyOracle {... */\n    tag_72:\n        /* \"digital_contract.sol\":1910:1916  oracle */\n      0x01\n      0x00\n      swap1\n      sload\n      swap1\n      0x0100\n      exp\n      swap1\n      div\n      0xffffffffffffffffffffffffffffffffffffffff\n      and\n        /* \"digital_contract.sol\":1896:1916  msg.sender == oracle */\n      0xffffffffffffffffffffffffffffffffffffffff\n      and\n        /* \"digital_contract.sol\":1896:1906  msg.sender */\n      caller\n        /* \"digital_contract.sol\":1896:1916  msg.sender == oracle */\n      0xffffffffffffffffffffffffffffffffffffffff\n      and\n      eq\n        /* \"digital_contract.sol\":1888:1931  require(msg.sender == oracle, \"Not oracle\") */\n      tag_179\n      jumpi\n      mload(0x40)\n      0x08c379a000000000000000000000000000000000000000000000000000000000\n      dup2\n      mstore\n      0x04\n      add\n      tag_180\n      swap1\n      tag_181\n      jump\t// in\n    tag_180:\n      mload(0x40)\n      dup1\n      swap2\n      sub\n      swap1\n      revert\n    tag_179:\n        /* \"digital_contract.sol\":4007:4040  ManagedContract storage mContract */\n      0x00\n        /* \"digital_contract.sol\":4043:4052  contracts */\n      0x02\n        /* \"digital_contract.sol\":4043:4065  contracts[_contractId] */\n      0x00\n        /* \"digital_contract.sol\":4053:4064  _contractId */\n      dup5\n        /* \"digital_contract.sol\":4043:4065  contracts[_contractId] */\n      dup2\n      mstore\n      0x20\n      add\n      swap1\n      dup2\n      mstore\n      0x20\n      add\n      0x00\n      keccak256\n        /* \"digital_contract.sol\":4007:4065  ManagedContract storage mContract = contracts[_contractId] */\n      swap1\n      pop\n        /* \"digital_contract.sol\":4104:4130  ContractStatus.DeliverySet */\n      0x02\n        /* \"digital_contract.sol\":4084:4130  mContract.status == ContractStatus.DeliverySet */\n      0x07\n      dup2\n      gt\n      iszero\n      tag_183\n      jumpi\n      tag_184\n      tag_98\n      jump\t// in\n    tag_184:\n    tag_183:\n        /* \"digital_contract.sol\":4084:4093  mContract */\n      dup2\n        /* \"digital_contract.sol\":4084:4100  mContract.status */\n      0x03\n      add\n      0x14\n      swap1\n      sload\n      swap1\n      0x0100\n      exp\n      swap1\n      div\n      0xff\n      and\n        /* \"digital_contract.sol\":4084:4130  mContract.status == ContractStatus.DeliverySet */\n      0x07\n      dup2\n      gt\n      iszero\n      tag_185\n      jumpi\n      tag_186\n      tag_98\n      jump\t// in\n    tag_186:\n    tag_185:\n      eq\n        /* \"digital_contract.sol\":4076:4147  require(mContract.status == ContractStatus.DeliverySet, \"Wrong status\") */\n      tag_187\n      jumpi\n      mload(0x40)\n      0x08c379a000000000000000000000000000000000000000000000000000000000\n      dup2\n      mstore\n      0x04\n      add\n      tag_188\n      swap1\n      tag_103\n      jump\t// in\n    tag_188:\n      mload(0x40)\n      dup1\n      swap2\n      sub\n      swap1\n      revert\n    tag_187:\n        /* \"digital_contract.sol\":4166:4175  mContract */\n      dup1\n        /* \"digital_contract.sol\":4166:4192  mContract.deliveryRequired */\n      0x06\n      add\n      0x00\n      swap1\n      sload\n      swap1\n      0x0100\n      exp\n      swap1\n      div\n      0xff\n      and\n        /* \"digital_contract.sol\":4158:4208  require(mContract.deliveryRequired, \"No delivery\") */\n      tag_189\n      jumpi\n      mload(0x40)\n      0x08c379a000000000000000000000000000000000000000000000000000000000\n      dup2\n      mstore\n      0x04\n      add\n      tag_190\n      swap1\n      tag_191\n      jump\t// in\n    tag_190:\n      mload(0x40)\n      dup1\n      swap2\n      sub\n      swap1\n      revert\n    tag_189:\n        /* \"digital_contract.sol\":4277:4296  _trackingNumberHash */\n      dup2\n        /* \"digital_contract.sol\":4243:4252  mContract */\n      dup2\n        /* \"digital_contract.sol\":4243:4273  mContract.deliveryTrackingHash */\n      0x05\n      add\n      sload\n        /* \"digital_contract.sol\":4243:4296  mContract.deliveryTrackingHash == _trackingNumberHash */\n      eq\n        /* \"digital_contract.sol\":4221:4337  require(... */\n      tag_192\n      jumpi\n      mload(0x40)\n      0x08c379a000000000000000000000000000000000000000000000000000000000\n      dup2\n      mstore\n      0x04\n      add\n      tag_193\n      swap1\n      tag_194\n      jump\t// in\n    tag_193:\n      mload(0x40)\n      dup1\n      swap2\n      sub\n      swap1\n      revert\n    tag_192:\n        /* \"digital_contract.sol\":4369:4401  ContractStatus.DeliveryConfirmed */\n      0x03\n        /* \"digital_contract.sol\":4350:4359  mContract */\n      dup2\n        /* \"digital_contract.sol\":4350:4366  mContract.status */\n      0x03\n      add\n      0x14\n        /* \"digital_contract.sol\":4350:4401  mContract.status = ContractStatus.DeliveryConfirmed */\n      0x0100\n      exp\n      dup2\n      sload\n      dup2\n      0xff\n      mul\n      not\n      and\n      swap1\n      dup4\n      0x07\n      dup2\n      gt\n      iszero\n      tag_195\n      jumpi\n      tag_196\n      tag_98\n      jump\t// in\n    tag_196:\n    tag_195:\n      mul\n      or\n      swap1\n      sstore\n      pop\n        /* \"digital_contract.sol\":4435:4446  _contractId */\n      dup3\n        /* \"digital_contract.sol\":4417:4447  DeliveryConfirmed(_contractId) */\n      0x375b4005eeae25d0e37d56e1b3841d3bb394b277efa2548de3293f5dcb7a3493\n      mload(0x40)\n      mload(0x40)\n      dup1\n      swap2\n      sub\n      swap1\n      log2\n        /* \"digital_contract.sol\":3996:4455  {... */\n      pop\n        /* \"digital_contract.sol\":3895:4455  function confirmDeliveryByOracle(uint256 _contractId, bytes32 _trackingNumberHash) public onlyOracle {... */\n      pop\n      pop\n      jump\t// out\n        /* \"digital_contract.sol\":5531:6247  function withdrawFundsFrom(uint256 _contractId) public nonReentrant onlyCounterparty(_contractId) {... */\n    tag_76:\n        /* \"@openzeppelin/contracts/security/ReentrancyGuard.sol\":2261:2282  _nonReentrantBefore() */\n      tag_198\n        /* \"@openzeppelin/contracts/security/ReentrancyGuard.sol\":2261:2280  _nonReentrantBefore */\n      tag_199\n        /* \"@openzeppelin/contracts/security/ReentrancyGuard.sol\":2261:2282  _nonReentrantBefore() */\n      jump\t// in\n    tag_198:\n        /* \"digital_contract.sol\":5616:5627  _contractId */\n      dup1\n        /* \"digital_contract.sol\":1771:1780  contracts */\n      0x02\n        /* \"digital_contract.sol\":1771:1793  contracts[_contractId] */\n      0x00\n        /* \"digital_contract.sol\":1781:1792  _contractId */\n      dup3\n        /* \"digital_contract.sol\":1771:1793  contracts[_contractId] */\n      dup2\n      mstore\n      0x20\n      add\n      swap1\n      dup2\n      mstore\n      0x20\n      add\n      0x00\n      keccak256\n        /* \"digital_contract.sol\":1771:1806  contracts[_contractId].counterparty */\n      0x03\n      add\n      0x00\n      swap1\n      sload\n      swap1\n      0x0100\n      exp\n      swap1\n      div\n      0xffffffffffffffffffffffffffffffffffffffff\n      and\n        /* \"digital_contract.sol\":1757:1806  msg.sender == contracts[_contractId].counterparty */\n      0xffffffffffffffffffffffffffffffffffffffff\n      and\n        /* \"digital_contract.sol\":1757:1767  msg.sender */\n      caller\n        /* \"digital_contract.sol\":1757:1806  msg.sender == contracts[_contractId].counterparty */\n      0xffffffffffffffffffffffffffffffffffffffff\n      and\n      eq\n        /* \"digital_contract.sol\":1749:1827  require(msg.sender == contracts[_contractId].counterparty, \"Not counterparty\") */\n      tag_201\n      jumpi\n      mload(0x40)\n      0x08c379a000000000000000000000000000000000000000000000000000000000\n      dup2\n      mstore\n      0x04\n      add\n      tag_202\n      swap1\n      tag_113\n      jump\t// in\n    tag_202:\n      mload(0x40)\n      dup1\n      swap2\n      sub\n      swap1\n      revert\n    tag_201:\n        /* \"digital_contract.sol\":5640:5673  ManagedContract storage mContract */\n      0x00\n        /* \"digital_contract.sol\":5676:5685  contracts */\n      0x02\n        /* \"digital_contract.sol\":5676:5698  contracts[_contractId] */\n      0x00\n        /* \"digital_contract.sol\":5686:5697  _contractId */\n      dup5\n        /* \"digital_contract.sol\":5676:5698  contracts[_contractId] */\n      dup2\n      mstore\n      0x20\n      add\n      swap1\n      dup2\n      mstore\n      0x20\n      add\n      0x00\n      keccak256\n        /* \"digital_contract.sol\":5640:5698  ManagedContract storage mContract = contracts[_contractId] */\n      swap1\n      pop\n        /* \"digital_contract.sol\":5751:5784  ContractStatus.AgreementFulfilled */\n      0x05\n        /* \"digital_contract.sol\":5731:5784  mContract.status == ContractStatus.AgreementFulfilled */\n      0x07\n      dup2\n      gt\n      iszero\n      tag_204\n      jumpi\n      tag_205\n      tag_98\n      jump\t// in\n    tag_205:\n    tag_204:\n        /* \"digital_contract.sol\":5731:5740  mContract */\n      dup2\n        /* \"digital_contract.sol\":5731:5747  mContract.status */\n      0x03\n      add\n      0x14\n      swap1\n      sload\n      swap1\n      0x0100\n      exp\n      swap1\n      div\n      0xff\n      and\n        /* \"digital_contract.sol\":5731:5784  mContract.status == ContractStatus.AgreementFulfilled */\n      0x07\n      dup2\n      gt\n      iszero\n      tag_206\n      jumpi\n      tag_207\n      tag_98\n      jump\t// in\n    tag_207:\n    tag_206:\n      eq\n        /* \"digital_contract.sol\":5731:5852  mContract.status == ContractStatus.AgreementFulfilled ||... */\n      dup1\n      tag_208\n      jumpi\n      pop\n        /* \"digital_contract.sol\":5821:5852  ContractStatus.DeliveryApproved */\n      0x04\n        /* \"digital_contract.sol\":5801:5852  mContract.status == ContractStatus.DeliveryApproved */\n      0x07\n      dup2\n      gt\n      iszero\n      tag_209\n      jumpi\n      tag_210\n      tag_98\n      jump\t// in\n    tag_210:\n    tag_209:\n        /* \"digital_contract.sol\":5801:5810  mContract */\n      dup2\n        /* \"digital_contract.sol\":5801:5817  mContract.status */\n      0x03\n      add\n      0x14\n      swap1\n      sload\n      swap1\n      0x0100\n      exp\n      swap1\n      div\n      0xff\n      and\n        /* \"digital_contract.sol\":5801:5852  mContract.status == ContractStatus.DeliveryApproved */\n      0x07\n      dup2\n      gt\n      iszero\n      tag_211\n      jumpi\n      tag_212\n      tag_98\n      jump\t// in\n    tag_212:\n    tag_211:\n      eq\n        /* \"digital_contract.sol\":5731:5852  mContract.status == ContractStatus.AgreementFulfilled ||... */\n    tag_208:\n        /* \"digital_contract.sol\":5709:5896  require(... */\n      tag_213\n      jumpi\n      mload(0x40)\n      0x08c379a000000000000000000000000000000000000000000000000000000000\n      dup2\n      mstore\n      0x04\n      add\n      tag_214\n      swap1\n      tag_215\n      jump\t// in\n    tag_214:\n      mload(0x40)\n      dup1\n      swap2\n      sub\n      swap1\n      revert\n    tag_213:\n        /* \"digital_contract.sol\":5909:5923  uint256 amount */\n      0x00\n        /* \"digital_contract.sol\":5926:5935  mContract */\n      dup2\n        /* \"digital_contract.sol\":5926:5942  mContract.amount */\n      0x01\n      add\n      sload\n        /* \"digital_contract.sol\":5909:5942  uint256 amount = mContract.amount */\n      swap1\n      pop\n        /* \"digital_contract.sol\":5995:6001  amount */\n      dup1\n        /* \"digital_contract.sol\":5961:5979  pendingWithdrawals */\n      0x04\n        /* \"digital_contract.sol\":5961:5991  pendingWithdrawals[msg.sender] */\n      0x00\n        /* \"digital_contract.sol\":5980:5990  msg.sender */\n      caller\n        /* \"digital_contract.sol\":5961:5991  pendingWithdrawals[msg.sender] */\n      0xffffffffffffffffffffffffffffffffffffffff\n      and\n      0xffffffffffffffffffffffffffffffffffffffff\n      and\n      dup2\n      mstore\n      0x20\n      add\n      swap1\n      dup2\n      mstore\n      0x20\n      add\n      0x00\n      keccak256\n      sload\n        /* \"digital_contract.sol\":5961:6001  pendingWithdrawals[msg.sender] >= amount */\n      lt\n      iszero\n        /* \"digital_contract.sol\":5953:6016  require(pendingWithdrawals[msg.sender] >= amount, \"No balance\") */\n      tag_216\n      jumpi\n      mload(0x40)\n      0x08c379a000000000000000000000000000000000000000000000000000000000\n      dup2\n      mstore\n      0x04\n      add\n      tag_217\n      swap1\n      tag_218\n      jump\t// in\n    tag_217:\n      mload(0x40)\n      dup1\n      swap2\n      sub\n      swap1\n      revert\n    tag_216:\n        /* \"digital_contract.sol\":6063:6069  amount */\n      dup1\n        /* \"digital_contract.sol\":6029:6047  pendingWithdrawals */\n      0x04\n        /* \"digital_contract.sol\":6029:6059  pendingWithdrawals[msg.sender] */\n      0x00\n        /* \"digital_contract.sol\":6048:6058  msg.sender */\n      caller\n        /* \"digital_contract.sol\":6029:6059  pendingWithdrawals[msg.sender] */\n      0xffffffffffffffffffffffffffffffffffffffff\n      and\n      0xffffffffffffffffffffffffffffffffffffffff\n      and\n      dup2\n      mstore\n      0x20\n      add\n      swap1\n      dup2\n      mstore\n      0x20\n      add\n      0x00\n      keccak256\n      0x00\n        /* \"digital_contract.sol\":6029:6069  pendingWithdrawals[msg.sender] -= amount */\n      dup3\n      dup3\n      sload\n      tag_219\n      swap2\n      swap1\n      tag_220\n      jump\t// in\n    tag_219:\n      swap3\n      pop\n      pop\n      dup2\n      swap1\n      sstore\n      pop\n        /* \"digital_contract.sol\":6101:6125  ContractStatus.Completed */\n      0x06\n        /* \"digital_contract.sol\":6082:6091  mContract */\n      dup3\n        /* \"digital_contract.sol\":6082:6098  mContract.status */\n      0x03\n      add\n      0x14\n        /* \"digital_contract.sol\":6082:6125  mContract.status = ContractStatus.Completed */\n      0x0100\n      exp\n      dup2\n      sload\n      dup2\n      0xff\n      mul\n      not\n      and\n      swap1\n      dup4\n      0x07\n      dup2\n      gt\n      iszero\n      tag_221\n      jumpi\n      tag_222\n      tag_98\n      jump\t// in\n    tag_222:\n    tag_221:\n      mul\n      or\n      swap1\n      sstore\n      pop\n        /* \"digital_contract.sol\":6146:6156  msg.sender */\n      caller\n        /* \"digital_contract.sol\":6138:6166  payable(msg.sender).transfer */\n      0xffffffffffffffffffffffffffffffffffffffff\n      and\n        /* \"digital_contract.sol\":6138:6174  payable(msg.sender).transfer(amount) */\n      0x08fc\n        /* \"digital_contract.sol\":6167:6173  amount */\n      dup3\n        /* \"digital_contract.sol\":6138:6174  payable(msg.sender).transfer(amount) */\n      swap1\n      dup2\n      iszero\n      mul\n      swap1\n      mload(0x40)\n      0x00\n      mload(0x40)\n      dup1\n      dup4\n      sub\n      dup2\n      dup6\n      dup9\n      dup9\n      call\n      swap4\n      pop\n      pop\n      pop\n      pop\n      iszero\n      dup1\n      iszero\n      tag_224\n      jumpi\n      returndatacopy(0x00, 0x00, returndatasize)\n      revert(0x00, returndatasize)\n    tag_224:\n      pop\n        /* \"digital_contract.sol\":6220:6230  msg.sender */\n      caller\n        /* \"digital_contract.sol\":6192:6239  FundsWithdrawn(_contractId, msg.sender, amount) */\n      0xffffffffffffffffffffffffffffffffffffffff\n      and\n        /* \"digital_contract.sol\":6207:6218  _contractId */\n      dup5\n        /* \"digital_contract.sol\":6192:6239  FundsWithdrawn(_contractId, msg.sender, amount) */\n      0xf440aec6b52895984d061d622e6edeba6210f7c3e059be920663140c084560d7\n        /* \"digital_contract.sol\":6232:6238  amount */\n      dup4\n        /* \"digital_contract.sol\":6192:6239  FundsWithdrawn(_contractId, msg.sender, amount) */\n      mload(0x40)\n      tag_225\n      swap2\n      swap1\n      tag_29\n      jump\t// in\n    tag_225:\n      mload(0x40)\n      dup1\n      swap2\n      sub\n      swap1\n      log3\n        /* \"digital_contract.sol\":5629:6247  {... */\n      pop\n      pop\n        /* \"@openzeppelin/contracts/security/ReentrancyGuard.sol\":2292:2293  _ */\n      pop\n        /* \"@openzeppelin/contracts/security/ReentrancyGuard.sol\":2303:2323  _nonReentrantAfter() */\n      tag_226\n        /* \"@openzeppelin/contracts/security/ReentrancyGuard.sol\":2303:2321  _nonReentrantAfter */\n      tag_227\n        /* \"@openzeppelin/contracts/security/ReentrancyGuard.sol\":2303:2323  _nonReentrantAfter() */\n      jump\t// in\n    tag_226:\n        /* \"digital_contract.sol\":5531:6247  function withdrawFundsFrom(uint256 _contractId) public nonReentrant onlyCounterparty(_contractId) {... */\n      pop\n      jump\t// out\n        /* \"digital_contract.sol\":713:734  bool public oracleSet */\n    tag_79:\n      0x01\n      0x14\n      swap1\n      sload\n      swap1\n      0x0100\n      exp\n      swap1\n      div\n      0xff\n      and\n      dup2\n      jump\t// out\n        /* \"digital_contract.sol\":841:894  mapping(address => uint256) public pendingWithdrawals */\n    tag_85:\n      mstore(0x20, 0x04)\n      dup1\n      0x00\n      mstore\n      keccak256(0x00, 0x40)\n      0x00\n      swap2\n      pop\n      swap1\n      pop\n      sload\n      dup2\n      jump\t// out\n        /* \"digital_contract.sol\":3314:3887  function setDeliveryTracking(uint256 _contractId, bytes32 _trackingNumberHash) public onlyCounterparty(_contractId) {... */\n    tag_90:\n        /* \"digital_contract.sol\":3417:3428  _contractId */\n      dup2\n        /* \"digital_contract.sol\":1771:1780  contracts */\n      0x02\n        /* \"digital_contract.sol\":1771:1793  contracts[_contractId] */\n      0x00\n        /* \"digital_contract.sol\":1781:1792  _contractId */\n      dup3\n        /* \"digital_contract.sol\":1771:1793  contracts[_contractId] */\n      dup2\n      mstore\n      0x20\n      add\n      swap1\n      dup2\n      mstore\n      0x20\n      add\n      0x00\n      keccak256\n        /* \"digital_contract.sol\":1771:1806  contracts[_contractId].counterparty */\n      0x03\n      add\n      0x00\n      swap1\n      sload\n      swap1\n      0x0100\n      exp\n      swap1\n      div\n      0xffffffffffffffffffffffffffffffffffffffff\n      and\n        /* \"digital_contract.sol\":1757:1806  msg.sender == contracts[_contractId].counterparty */\n      0xffffffffffffffffffffffffffffffffffffffff\n      and\n        /* \"digital_contract.sol\":1757:1767  msg.sender */\n      caller\n        /* \"digital_contract.sol\":1757:1806  msg.sender == contracts[_contractId].counterparty */\n      0xffffffffffffffffffffffffffffffffffffffff\n      and\n      eq\n        /* \"digital_contract.sol\":1749:1827  require(msg.sender == contracts[_contractId].counterparty, \"Not counterparty\") */\n      tag_229\n      jumpi\n      mload(0x40)\n      0x08c379a000000000000000000000000000000000000000000000000000000000\n      dup2\n      mstore\n      0x04\n      add\n      tag_230\n      swap1\n      tag_113\n      jump\t// in\n    tag_230:\n      mload(0x40)\n      dup1\n      swap2\n      sub\n      swap1\n      revert\n    tag_229:\n        /* \"digital_contract.sol\":3441:3474  ManagedContract storage mContract */\n      0x00\n        /* \"digital_contract.sol\":3477:3486  contracts */\n      0x02\n        /* \"digital_contract.sol\":3477:3499  contracts[_contractId] */\n      0x00\n        /* \"digital_contract.sol\":3487:3498  _contractId */\n      dup6\n        /* \"digital_contract.sol\":3477:3499  contracts[_contractId] */\n      dup2\n      mstore\n      0x20\n      add\n      swap1\n      dup2\n      mstore\n      0x20\n      add\n      0x00\n      keccak256\n        /* \"digital_contract.sol\":3441:3499  ManagedContract storage mContract = contracts[_contractId] */\n      swap1\n      pop\n        /* \"digital_contract.sol\":3538:3559  ContractStatus.Signed */\n      0x01\n        /* \"digital_contract.sol\":3518:3559  mContract.status == ContractStatus.Signed */\n      0x07\n      dup2\n      gt\n      iszero\n      tag_232\n      jumpi\n      tag_233\n      tag_98\n      jump\t// in\n    tag_233:\n    tag_232:\n        /* \"digital_contract.sol\":3518:3527  mContract */\n      dup2\n        /* \"digital_contract.sol\":3518:3534  mContract.status */\n      0x03\n      add\n      0x14\n      swap1\n      sload\n      swap1\n      0x0100\n      exp\n      swap1\n      div\n      0xff\n      and\n        /* \"digital_contract.sol\":3518:3559  mContract.status == ContractStatus.Signed */\n      0x07\n      dup2\n      gt\n      iszero\n      tag_234\n      jumpi\n      tag_235\n      tag_98\n      jump\t// in\n    tag_235:\n    tag_234:\n      eq\n        /* \"digital_contract.sol\":3510:3574  require(mContract.status == ContractStatus.Signed, \"Not Signed\") */\n      tag_236\n      jumpi\n      mload(0x40)\n      0x08c379a000000000000000000000000000000000000000000000000000000000\n      dup2\n      mstore\n      0x04\n      add\n      tag_237\n      swap1\n      tag_238\n      jump\t// in\n    tag_237:\n      mload(0x40)\n      dup1\n      swap2\n      sub\n      swap1\n      revert\n    tag_236:\n        /* \"digital_contract.sol\":3594:3603  mContract */\n      dup1\n        /* \"digital_contract.sol\":3594:3620  mContract.deliveryRequired */\n      0x06\n      add\n      0x00\n      swap1\n      sload\n      swap1\n      0x0100\n      exp\n      swap1\n      div\n      0xff\n      and\n        /* \"digital_contract.sol\":3593:3620  !mContract.deliveryRequired */\n      iszero\n        /* \"digital_contract.sol\":3585:3636  require(!mContract.deliveryRequired, \"Already set\") */\n      tag_239\n      jumpi\n      mload(0x40)\n      0x08c379a000000000000000000000000000000000000000000000000000000000\n      dup2\n      mstore\n      0x04\n      add\n      tag_240\n      swap1\n      tag_241\n      jump\t// in\n    tag_240:\n      mload(0x40)\n      dup1\n      swap2\n      sub\n      swap1\n      revert\n    tag_239:\n        /* \"digital_contract.sol\":3682:3701  _trackingNumberHash */\n      dup3\n        /* \"digital_contract.sol\":3649:3658  mContract */\n      dup2\n        /* \"digital_contract.sol\":3649:3679  mContract.deliveryTrackingHash */\n      0x05\n      add\n        /* \"digital_contract.sol\":3649:3701  mContract.deliveryTrackingHash = _trackingNumberHash */\n      dup2\n      swap1\n      sstore\n      pop\n        /* \"digital_contract.sol\":3741:3745  true */\n      0x01\n        /* \"digital_contract.sol\":3712:3721  mContract */\n      dup2\n        /* \"digital_contract.sol\":3712:3738  mContract.deliveryRequired */\n      0x06\n      add\n      0x00\n        /* \"digital_contract.sol\":3712:3745  mContract.deliveryRequired = true */\n      0x0100\n      exp\n      dup2\n      sload\n      dup2\n      0xff\n      mul\n      not\n      and\n      swap1\n      dup4\n      iszero\n      iszero\n      mul\n      or\n      swap1\n      sstore\n      pop\n        /* \"digital_contract.sol\":3775:3801  ContractStatus.DeliverySet */\n      0x02\n        /* \"digital_contract.sol\":3756:3765  mContract */\n      dup2\n        /* \"digital_contract.sol\":3756:3772  mContract.status */\n      0x03\n      add\n      0x14\n        /* \"digital_contract.sol\":3756:3801  mContract.status = ContractStatus.DeliverySet */\n      0x0100\n      exp\n      dup2\n      sload\n      dup2\n      0xff\n      mul\n      not\n      and\n      swap1\n      dup4\n      0x07\n      dup2\n      gt\n      iszero\n      tag_242\n      jumpi\n      tag_243\n      tag_98\n      jump\t// in\n    tag_243:\n    tag_242:\n      mul\n      or\n      swap1\n      sstore\n      pop\n        /* \"digital_contract.sol\":3835:3846  _contractId */\n      dup4\n        /* \"digital_contract.sol\":3819:3879  TrackingHashSet(_contractId, mContract.deliveryTrackingHash) */\n      0x4b70739c5f0bd46e19773020c599342cdbdc3ac59b5e0abfdd9c1bb441be59c8\n        /* \"digital_contract.sol\":3848:3857  mContract */\n      dup3\n        /* \"digital_contract.sol\":3848:3878  mContract.deliveryTrackingHash */\n      0x05\n      add\n      sload\n        /* \"digital_contract.sol\":3819:3879  TrackingHashSet(_contractId, mContract.deliveryTrackingHash) */\n      mload(0x40)\n      tag_244\n      swap2\n      swap1\n      tag_245\n      jump\t// in\n    tag_244:\n      mload(0x40)\n      dup1\n      swap2\n      sub\n      swap1\n      log2\n        /* \"digital_contract.sol\":3430:3887  {... */\n      pop\n        /* \"digital_contract.sol\":3314:3887  function setDeliveryTracking(uint256 _contractId, bytes32 _trackingNumberHash) public onlyCounterparty(_contractId) {... */\n      pop\n      pop\n      pop\n      jump\t// out\n        /* \"@openzeppelin/contracts/security/ReentrancyGuard.sol\":2336:2623  function _nonReentrantBefore() private {... */\n    tag_199:\n        /* \"@openzeppelin/contracts/security/ReentrancyGuard.sol\":1759:1760  2 */\n      0x02\n        /* \"@openzeppelin/contracts/security/ReentrancyGuard.sol\":2468:2475  _status */\n      sload(0x00)\n        /* \"@openzeppelin/contracts/security/ReentrancyGuard.sol\":2468:2487  _status != _ENTERED */\n      sub\n        /* \"@openzeppelin/contracts/security/ReentrancyGuard.sol\":2460:2523  require(_status != _ENTERED, \"ReentrancyGuard: reentrant call\") */\n      tag_247\n      jumpi\n      mload(0x40)\n      0x08c379a000000000000000000000000000000000000000000000000000000000\n      dup2\n      mstore\n      0x04\n      add\n      tag_248\n      swap1\n      tag_249\n      jump\t// in\n    tag_248:\n      mload(0x40)\n      dup1\n      swap2\n      sub\n      swap1\n      revert\n    tag_247:\n        /* \"@openzeppelin/contracts/security/ReentrancyGuard.sol\":1759:1760  2 */\n      0x02\n        /* \"@openzeppelin/contracts/security/ReentrancyGuard.sol\":2598:2605  _status */\n      0x00\n        /* \"@openzeppelin/contracts/security/ReentrancyGuard.sol\":2598:2616  _status = _ENTERED */\n      dup2\n      swap1\n      sstore\n      pop\n        /* \"@openzeppelin/contracts/security/ReentrancyGuard.sol\":2336:2623  function _nonReentrantBefore() private {... */\n      jump\t// out\n        /* \"@openzeppelin/contracts/security/ReentrancyGuard.sol\":2629:2838  function _nonReentrantAfter() private {... */\n    tag_227:\n        /* \"@openzeppelin/contracts/security/ReentrancyGuard.sol\":1716:1717  1 */\n      0x01\n        /* \"@openzeppelin/contracts/security/ReentrancyGuard.sol\":2809:2816  _status */\n      0x00\n        /* \"@openzeppelin/contracts/security/ReentrancyGuard.sol\":2809:2831  _status = _NOT_ENTERED */\n      dup2\n      swap1\n      sstore\n      pop\n        /* \"@openzeppelin/contracts/security/ReentrancyGuard.sol\":2629:2838  function _nonReentrantAfter() private {... */\n      jump\t// out\n        /* \"#utility.yul\":88:205   */\n    tag_252:\n        /* \"#utility.yul\":197:198   */\n      0x00\n        /* \"#utility.yul\":194:195   */\n      0x00\n        /* \"#utility.yul\":187:199   */\n      revert\n        /* \"#utility.yul\":334:411   */\n    tag_254:\n        /* \"#utility.yul\":371:378   */\n      0x00\n        /* \"#utility.yul\":400:405   */\n      dup2\n        /* \"#utility.yul\":389:405   */\n      swap1\n      pop\n        /* \"#utility.yul\":334:411   */\n      swap2\n      swap1\n      pop\n      jump\t// out\n        /* \"#utility.yul\":417:539   */\n    tag_255:\n        /* \"#utility.yul\":490:514   */\n      tag_328\n        /* \"#utility.yul\":508:513   */\n      dup2\n        /* \"#utility.yul\":490:514   */\n      tag_254\n      jump\t// in\n    tag_328:\n        /* \"#utility.yul\":483:488   */\n      dup2\n        /* \"#utility.yul\":480:515   */\n      eq\n        /* \"#utility.yul\":470:533   */\n      tag_329\n      jumpi\n        /* \"#utility.yul\":529:530   */\n      0x00\n        /* \"#utility.yul\":526:527   */\n      0x00\n        /* \"#utility.yul\":519:531   */\n      revert\n        /* \"#utility.yul\":470:533   */\n    tag_329:\n        /* \"#utility.yul\":417:539   */\n      pop\n      jump\t// out\n        /* \"#utility.yul\":545:684   */\n    tag_256:\n        /* \"#utility.yul\":591:596   */\n      0x00\n        /* \"#utility.yul\":629:635   */\n      dup2\n        /* \"#utility.yul\":616:636   */\n      calldataload\n        /* \"#utility.yul\":607:636   */\n      swap1\n      pop\n        /* \"#utility.yul\":645:678   */\n      tag_331\n        /* \"#utility.yul\":672:677   */\n      dup2\n        /* \"#utility.yul\":645:678   */\n      tag_255\n      jump\t// in\n    tag_331:\n        /* \"#utility.yul\":545:684   */\n      swap3\n      swap2\n      pop\n      pop\n      jump\t// out\n        /* \"#utility.yul\":690:1019   */\n    tag_23:\n        /* \"#utility.yul\":749:755   */\n      0x00\n        /* \"#utility.yul\":798:800   */\n      0x20\n        /* \"#utility.yul\":786:795   */\n      dup3\n        /* \"#utility.yul\":777:784   */\n      dup5\n        /* \"#utility.yul\":773:796   */\n      sub\n        /* \"#utility.yul\":769:801   */\n      slt\n        /* \"#utility.yul\":766:885   */\n      iszero\n      tag_333\n      jumpi\n        /* \"#utility.yul\":804:883   */\n      tag_334\n      tag_252\n      jump\t// in\n    tag_334:\n        /* \"#utility.yul\":766:885   */\n    tag_333:\n        /* \"#utility.yul\":924:925   */\n      0x00\n        /* \"#utility.yul\":949:1002   */\n      tag_335\n        /* \"#utility.yul\":994:1001   */\n      dup5\n        /* \"#utility.yul\":985:991   */\n      dup3\n        /* \"#utility.yul\":974:983   */\n      dup6\n        /* \"#utility.yul\":970:992   */\n      add\n        /* \"#utility.yul\":949:1002   */\n      tag_256\n      jump\t// in\n    tag_335:\n        /* \"#utility.yul\":939:1002   */\n      swap2\n      pop\n        /* \"#utility.yul\":895:1012   */\n      pop\n        /* \"#utility.yul\":690:1019   */\n      swap3\n      swap2\n      pop\n      pop\n      jump\t// out\n        /* \"#utility.yul\":1025:1143   */\n    tag_257:\n        /* \"#utility.yul\":1112:1136   */\n      tag_337\n        /* \"#utility.yul\":1130:1135   */\n      dup2\n        /* \"#utility.yul\":1112:1136   */\n      tag_254\n      jump\t// in\n    tag_337:\n        /* \"#utility.yul\":1107:1110   */\n      dup3\n        /* \"#utility.yul\":1100:1137   */\n      mstore\n        /* \"#utility.yul\":1025:1143   */\n      pop\n      pop\n      jump\t// out\n        /* \"#utility.yul\":1149:1371   */\n    tag_29:\n        /* \"#utility.yul\":1242:1246   */\n      0x00\n        /* \"#utility.yul\":1280:1282   */\n      0x20\n        /* \"#utility.yul\":1269:1278   */\n      dup3\n        /* \"#utility.yul\":1265:1283   */\n      add\n        /* \"#utility.yul\":1257:1283   */\n      swap1\n      pop\n        /* \"#utility.yul\":1293:1364   */\n      tag_339\n        /* \"#utility.yul\":1361:1362   */\n      0x00\n        /* \"#utility.yul\":1350:1359   */\n      dup4\n        /* \"#utility.yul\":1346:1363   */\n      add\n        /* \"#utility.yul\":1337:1343   */\n      dup5\n        /* \"#utility.yul\":1293:1364   */\n      tag_257\n      jump\t// in\n    tag_339:\n        /* \"#utility.yul\":1149:1371   */\n      swap3\n      swap2\n      pop\n      pop\n      jump\t// out\n        /* \"#utility.yul\":1377:1557   */\n    tag_98:\n        /* \"#utility.yul\":1425:1502   */\n      0x4e487b7100000000000000000000000000000000000000000000000000000000\n        /* \"#utility.yul\":1422:1423   */\n      0x00\n        /* \"#utility.yul\":1415:1503   */\n      mstore\n        /* \"#utility.yul\":1522:1526   */\n      0x21\n        /* \"#utility.yul\":1519:1520   */\n      0x04\n        /* \"#utility.yul\":1512:1527   */\n      mstore\n        /* \"#utility.yul\":1546:1550   */\n      0x24\n        /* \"#utility.yul\":1543:1544   */\n      0x00\n        /* \"#utility.yul\":1536:1551   */\n      revert\n        /* \"#utility.yul\":1563:1685   */\n    tag_258:\n        /* \"#utility.yul\":1653:1654   */\n      0x08\n        /* \"#utility.yul\":1646:1651   */\n      dup2\n        /* \"#utility.yul\":1643:1655   */\n      lt\n        /* \"#utility.yul\":1633:1679   */\n      tag_342\n      jumpi\n        /* \"#utility.yul\":1659:1677   */\n      tag_343\n      tag_98\n      jump\t// in\n    tag_343:\n        /* \"#utility.yul\":1633:1679   */\n    tag_342:\n        /* \"#utility.yul\":1563:1685   */\n      pop\n      jump\t// out\n        /* \"#utility.yul\":1691:1836   */\n    tag_259:\n        /* \"#utility.yul\":1745:1752   */\n      0x00\n        /* \"#utility.yul\":1774:1779   */\n      dup2\n        /* \"#utility.yul\":1763:1779   */\n      swap1\n      pop\n        /* \"#utility.yul\":1780:1830   */\n      tag_345\n        /* \"#utility.yul\":1824:1829   */\n      dup3\n        /* \"#utility.yul\":1780:1830   */\n      tag_258\n      jump\t// in\n    tag_345:\n        /* \"#utility.yul\":1691:1836   */\n      swap2\n      swap1\n      pop\n      jump\t// out\n        /* \"#utility.yul\":1842:1987   */\n    tag_260:\n        /* \"#utility.yul\":1907:1916   */\n      0x00\n        /* \"#utility.yul\":1940:1981   */\n      tag_347\n        /* \"#utility.yul\":1975:1980   */\n      dup3\n        /* \"#utility.yul\":1940:1981   */\n      tag_259\n      jump\t// in\n    tag_347:\n        /* \"#utility.yul\":1927:1981   */\n      swap1\n      pop\n        /* \"#utility.yul\":1842:1987   */\n      swap2\n      swap1\n      pop\n      jump\t// out\n        /* \"#utility.yul\":1993:2154   */\n    tag_261:\n        /* \"#utility.yul\":2095:2147   */\n      tag_349\n        /* \"#utility.yul\":2141:2146   */\n      dup2\n        /* \"#utility.yul\":2095:2147   */\n      tag_260\n      jump\t// in\n    tag_349:\n        /* \"#utility.yul\":2090:2093   */\n      dup3\n        /* \"#utility.yul\":2083:2148   */\n      mstore\n        /* \"#utility.yul\":1993:2154   */\n      pop\n      pop\n      jump\t// out\n        /* \"#utility.yul\":2160:2412   */\n    tag_35:\n        /* \"#utility.yul\":2268:2272   */\n      0x00\n        /* \"#utility.yul\":2306:2308   */\n      0x20\n        /* \"#utility.yul\":2295:2304   */\n      dup3\n        /* \"#utility.yul\":2291:2309   */\n      add\n        /* \"#utility.yul\":2283:2309   */\n      swap1\n      pop\n        /* \"#utility.yul\":2319:2405   */\n      tag_351\n        /* \"#utility.yul\":2402:2403   */\n      0x00\n        /* \"#utility.yul\":2391:2400   */\n      dup4\n        /* \"#utility.yul\":2387:2404   */\n      add\n        /* \"#utility.yul\":2378:2384   */\n      dup5\n        /* \"#utility.yul\":2319:2405   */\n      tag_261\n      jump\t// in\n    tag_351:\n        /* \"#utility.yul\":2160:2412   */\n      swap3\n      swap2\n      pop\n      pop\n      jump\t// out\n        /* \"#utility.yul\":2418:2544   */\n    tag_262:\n        /* \"#utility.yul\":2455:2462   */\n      0x00\n        /* \"#utility.yul\":2495:2537   */\n      0xffffffffffffffffffffffffffffffffffffffff\n        /* \"#utility.yul\":2488:2493   */\n      dup3\n        /* \"#utility.yul\":2484:2538   */\n      and\n        /* \"#utility.yul\":2473:2538   */\n      swap1\n      pop\n        /* \"#utility.yul\":2418:2544   */\n      swap2\n      swap1\n      pop\n      jump\t// out\n        /* \"#utility.yul\":2550:2654   */\n    tag_263:\n        /* \"#utility.yul\":2595:2602   */\n      0x00\n        /* \"#utility.yul\":2624:2648   */\n      tag_354\n        /* \"#utility.yul\":2642:2647   */\n      dup3\n        /* \"#utility.yul\":2624:2648   */\n      tag_262\n      jump\t// in\n    tag_354:\n        /* \"#utility.yul\":2613:2648   */\n      swap1\n      pop\n        /* \"#utility.yul\":2550:2654   */\n      swap2\n      swap1\n      pop\n      jump\t// out\n        /* \"#utility.yul\":2660:2802   */\n    tag_264:\n        /* \"#utility.yul\":2763:2795   */\n      tag_356\n        /* \"#utility.yul\":2789:2794   */\n      dup2\n        /* \"#utility.yul\":2763:2795   */\n      tag_263\n      jump\t// in\n    tag_356:\n        /* \"#utility.yul\":2758:2761   */\n      dup3\n        /* \"#utility.yul\":2751:2796   */\n      mstore\n        /* \"#utility.yul\":2660:2802   */\n      pop\n      pop\n      jump\t// out\n        /* \"#utility.yul\":2808:2885   */\n    tag_265:\n        /* \"#utility.yul\":2845:2852   */\n      0x00\n        /* \"#utility.yul\":2874:2879   */\n      dup2\n        /* \"#utility.yul\":2863:2879   */\n      swap1\n      pop\n        /* \"#utility.yul\":2808:2885   */\n      swap2\n      swap1\n      pop\n      jump\t// out\n        /* \"#utility.yul\":2891:3009   */\n    tag_266:\n        /* \"#utility.yul\":2978:3002   */\n      tag_359\n        /* \"#utility.yul\":2996:3001   */\n      dup2\n        /* \"#utility.yul\":2978:3002   */\n      tag_265\n      jump\t// in\n    tag_359:\n        /* \"#utility.yul\":2973:2976   */\n      dup3\n        /* \"#utility.yul\":2966:3003   */\n      mstore\n        /* \"#utility.yul\":2891:3009   */\n      pop\n      pop\n      jump\t// out\n        /* \"#utility.yul\":3015:3105   */\n    tag_267:\n        /* \"#utility.yul\":3049:3056   */\n      0x00\n        /* \"#utility.yul\":3092:3097   */\n      dup2\n        /* \"#utility.yul\":3085:3098   */\n      iszero\n        /* \"#utility.yul\":3078:3099   */\n      iszero\n        /* \"#utility.yul\":3067:3099   */\n      swap1\n      pop\n        /* \"#utility.yul\":3015:3105   */\n      swap2\n      swap1\n      pop\n      jump\t// out\n        /* \"#utility.yul\":3111:3220   */\n    tag_268:\n        /* \"#utility.yul\":3192:3213   */\n      tag_362\n        /* \"#utility.yul\":3207:3212   */\n      dup2\n        /* \"#utility.yul\":3192:3213   */\n      tag_267\n      jump\t// in\n    tag_362:\n        /* \"#utility.yul\":3187:3190   */\n      dup3\n        /* \"#utility.yul\":3180:3214   */\n      mstore\n        /* \"#utility.yul\":3111:3220   */\n      pop\n      pop\n      jump\t// out\n        /* \"#utility.yul\":3226:4305   */\n    tag_45:\n        /* \"#utility.yul\":3556:3560   */\n      0x00\n        /* \"#utility.yul\":3594:3597   */\n      0x0100\n        /* \"#utility.yul\":3583:3592   */\n      dup3\n        /* \"#utility.yul\":3579:3598   */\n      add\n        /* \"#utility.yul\":3571:3598   */\n      swap1\n      pop\n        /* \"#utility.yul\":3608:3679   */\n      tag_364\n        /* \"#utility.yul\":3676:3677   */\n      0x00\n        /* \"#utility.yul\":3665:3674   */\n      dup4\n        /* \"#utility.yul\":3661:3678   */\n      add\n        /* \"#utility.yul\":3652:3658   */\n      dup12\n        /* \"#utility.yul\":3608:3679   */\n      tag_257\n      jump\t// in\n    tag_364:\n        /* \"#utility.yul\":3689:3761   */\n      tag_365\n        /* \"#utility.yul\":3757:3759   */\n      0x20\n        /* \"#utility.yul\":3746:3755   */\n      dup4\n        /* \"#utility.yul\":3742:3760   */\n      add\n        /* \"#utility.yul\":3733:3739   */\n      dup11\n        /* \"#utility.yul\":3689:3761   */\n      tag_257\n      jump\t// in\n    tag_365:\n        /* \"#utility.yul\":3771:3859   */\n      tag_366\n        /* \"#utility.yul\":3855:3857   */\n      0x40\n        /* \"#utility.yul\":3844:3853   */\n      dup4\n        /* \"#utility.yul\":3840:3858   */\n      add\n        /* \"#utility.yul\":3831:3837   */\n      dup10\n        /* \"#utility.yul\":3771:3859   */\n      tag_264\n      jump\t// in\n    tag_366:\n        /* \"#utility.yul\":3869:3957   */\n      tag_367\n        /* \"#utility.yul\":3953:3955   */\n      0x60\n        /* \"#utility.yul\":3942:3951   */\n      dup4\n        /* \"#utility.yul\":3938:3956   */\n      add\n        /* \"#utility.yul\":3929:3935   */\n      dup9\n        /* \"#utility.yul\":3869:3957   */\n      tag_264\n      jump\t// in\n    tag_367:\n        /* \"#utility.yul\":3967:4055   */\n      tag_368\n        /* \"#utility.yul\":4050:4053   */\n      0x80\n        /* \"#utility.yul\":4039:4048   */\n      dup4\n        /* \"#utility.yul\":4035:4054   */\n      add\n        /* \"#utility.yul\":4026:4032   */\n      dup8\n        /* \"#utility.yul\":3967:4055   */\n      tag_261\n      jump\t// in\n    tag_368:\n        /* \"#utility.yul\":4065:4138   */\n      tag_369\n        /* \"#utility.yul\":4133:4136   */\n      0xa0\n        /* \"#utility.yul\":4122:4131   */\n      dup4\n        /* \"#utility.yul\":4118:4137   */\n      add\n        /* \"#utility.yul\":4109:4115   */\n      dup7\n        /* \"#utility.yul\":4065:4138   */\n      tag_266\n      jump\t// in\n    tag_369:\n        /* \"#utility.yul\":4148:4221   */\n      tag_370\n        /* \"#utility.yul\":4216:4219   */\n      0xc0\n        /* \"#utility.yul\":4205:4214   */\n      dup4\n        /* \"#utility.yul\":4201:4220   */\n      add\n        /* \"#utility.yul\":4192:4198   */\n      dup6\n        /* \"#utility.yul\":4148:4221   */\n      tag_266\n      jump\t// in\n    tag_370:\n        /* \"#utility.yul\":4231:4298   */\n      tag_371\n        /* \"#utility.yul\":4293:4296   */\n      0xe0\n        /* \"#utility.yul\":4282:4291   */\n      dup4\n        /* \"#utility.yul\":4278:4297   */\n      add\n        /* \"#utility.yul\":4269:4275   */\n      dup5\n        /* \"#utility.yul\":4231:4298   */\n      tag_268\n      jump\t// in\n    tag_371:\n        /* \"#utility.yul\":3226:4305   */\n      swap10\n      swap9\n      pop\n      pop\n      pop\n      pop\n      pop\n      pop\n      pop\n      pop\n      pop\n      jump\t// out\n        /* \"#utility.yul\":4311:4407   */\n    tag_269:\n        /* \"#utility.yul\":4348:4355   */\n      0x00\n        /* \"#utility.yul\":4377:4401   */\n      tag_373\n        /* \"#utility.yul\":4395:4400   */\n      dup3\n        /* \"#utility.yul\":4377:4401   */\n      tag_262\n      jump\t// in\n    tag_373:\n        /* \"#utility.yul\":4366:4401   */\n      swap1\n      pop\n        /* \"#utility.yul\":4311:4407   */\n      swap2\n      swap1\n      pop\n      jump\t// out\n        /* \"#utility.yul\":4413:4535   */\n    tag_270:\n        /* \"#utility.yul\":4486:4510   */\n      tag_375\n        /* \"#utility.yul\":4504:4509   */\n      dup2\n        /* \"#utility.yul\":4486:4510   */\n      tag_269\n      jump\t// in\n    tag_375:\n        /* \"#utility.yul\":4479:4484   */\n      dup2\n        /* \"#utility.yul\":4476:4511   */\n      eq\n        /* \"#utility.yul\":4466:4529   */\n      tag_376\n      jumpi\n        /* \"#utility.yul\":4525:4526   */\n      0x00\n        /* \"#utility.yul\":4522:4523   */\n      0x00\n        /* \"#utility.yul\":4515:4527   */\n      revert\n        /* \"#utility.yul\":4466:4529   */\n    tag_376:\n        /* \"#utility.yul\":4413:4535   */\n      pop\n      jump\t// out\n        /* \"#utility.yul\":4541:4680   */\n    tag_271:\n        /* \"#utility.yul\":4587:4592   */\n      0x00\n        /* \"#utility.yul\":4625:4631   */\n      dup2\n        /* \"#utility.yul\":4612:4632   */\n      calldataload\n        /* \"#utility.yul\":4603:4632   */\n      swap1\n      pop\n        /* \"#utility.yul\":4641:4674   */\n      tag_378\n        /* \"#utility.yul\":4668:4673   */\n      dup2\n        /* \"#utility.yul\":4641:4674   */\n      tag_270\n      jump\t// in\n    tag_378:\n        /* \"#utility.yul\":4541:4680   */\n      swap3\n      swap2\n      pop\n      pop\n      jump\t// out\n        /* \"#utility.yul\":4686:5015   */\n    tag_49:\n        /* \"#utility.yul\":4745:4751   */\n      0x00\n        /* \"#utility.yul\":4794:4796   */\n      0x20\n        /* \"#utility.yul\":4782:4791   */\n      dup3\n        /* \"#utility.yul\":4773:4780   */\n      dup5\n        /* \"#utility.yul\":4769:4792   */\n      sub\n        /* \"#utility.yul\":4765:4797   */\n      slt\n        /* \"#utility.yul\":4762:4881   */\n      iszero\n      tag_380\n      jumpi\n        /* \"#utility.yul\":4800:4879   */\n      tag_381\n      tag_252\n      jump\t// in\n    tag_381:\n        /* \"#utility.yul\":4762:4881   */\n    tag_380:\n        /* \"#utility.yul\":4920:4921   */\n      0x00\n        /* \"#utility.yul\":4945:4998   */\n      tag_382\n        /* \"#utility.yul\":4990:4997   */\n      dup5\n        /* \"#utility.yul\":4981:4987   */\n      dup3\n        /* \"#utility.yul\":4970:4979   */\n      dup6\n        /* \"#utility.yul\":4966:4988   */\n      add\n        /* \"#utility.yul\":4945:4998   */\n      tag_271\n      jump\t// in\n    tag_382:\n        /* \"#utility.yul\":4935:4998   */\n      swap2\n      pop\n        /* \"#utility.yul\":4891:5008   */\n      pop\n        /* \"#utility.yul\":4686:5015   */\n      swap3\n      swap2\n      pop\n      pop\n      jump\t// out\n        /* \"#utility.yul\":5021:5139   */\n    tag_272:\n        /* \"#utility.yul\":5108:5132   */\n      tag_384\n        /* \"#utility.yul\":5126:5131   */\n      dup2\n        /* \"#utility.yul\":5108:5132   */\n      tag_269\n      jump\t// in\n    tag_384:\n        /* \"#utility.yul\":5103:5106   */\n      dup3\n        /* \"#utility.yul\":5096:5133   */\n      mstore\n        /* \"#utility.yul\":5021:5139   */\n      pop\n      pop\n      jump\t// out\n        /* \"#utility.yul\":5145:5367   */\n    tag_55:\n        /* \"#utility.yul\":5238:5242   */\n      0x00\n        /* \"#utility.yul\":5276:5278   */\n      0x20\n        /* \"#utility.yul\":5265:5274   */\n      dup3\n        /* \"#utility.yul\":5261:5279   */\n      add\n        /* \"#utility.yul\":5253:5279   */\n      swap1\n      pop\n        /* \"#utility.yul\":5289:5360   */\n      tag_386\n        /* \"#utility.yul\":5357:5358   */\n      0x00\n        /* \"#utility.yul\":5346:5355   */\n      dup4\n        /* \"#utility.yul\":5342:5359   */\n      add\n        /* \"#utility.yul\":5333:5339   */\n      dup5\n        /* \"#utility.yul\":5289:5360   */\n      tag_272\n      jump\t// in\n    tag_386:\n        /* \"#utility.yul\":5145:5367   */\n      swap3\n      swap2\n      pop\n      pop\n      jump\t// out\n        /* \"#utility.yul\":5373:5511   */\n    tag_273:\n        /* \"#utility.yul\":5454:5486   */\n      tag_388\n        /* \"#utility.yul\":5480:5485   */\n      dup2\n        /* \"#utility.yul\":5454:5486   */\n      tag_263\n      jump\t// in\n    tag_388:\n        /* \"#utility.yul\":5447:5452   */\n      dup2\n        /* \"#utility.yul\":5444:5487   */\n      eq\n        /* \"#utility.yul\":5434:5505   */\n      tag_389\n      jumpi\n        /* \"#utility.yul\":5501:5502   */\n      0x00\n        /* \"#utility.yul\":5498:5499   */\n      0x00\n        /* \"#utility.yul\":5491:5503   */\n      revert\n        /* \"#utility.yul\":5434:5505   */\n    tag_389:\n        /* \"#utility.yul\":5373:5511   */\n      pop\n      jump\t// out\n        /* \"#utility.yul\":5517:5672   */\n    tag_274:\n        /* \"#utility.yul\":5571:5576   */\n      0x00\n        /* \"#utility.yul\":5609:5615   */\n      dup2\n        /* \"#utility.yul\":5596:5616   */\n      calldataload\n        /* \"#utility.yul\":5587:5616   */\n      swap1\n      pop\n        /* \"#utility.yul\":5625:5666   */\n      tag_391\n        /* \"#utility.yul\":5660:5665   */\n      dup2\n        /* \"#utility.yul\":5625:5666   */\n      tag_273\n      jump\t// in\n    tag_391:\n        /* \"#utility.yul\":5517:5672   */\n      swap3\n      swap2\n      pop\n      pop\n      jump\t// out\n        /* \"#utility.yul\":5678:5800   */\n    tag_275:\n        /* \"#utility.yul\":5751:5775   */\n      tag_393\n        /* \"#utility.yul\":5769:5774   */\n      dup2\n        /* \"#utility.yul\":5751:5775   */\n      tag_265\n      jump\t// in\n    tag_393:\n        /* \"#utility.yul\":5744:5749   */\n      dup2\n        /* \"#utility.yul\":5741:5776   */\n      eq\n        /* \"#utility.yul\":5731:5794   */\n      tag_394\n      jumpi\n        /* \"#utility.yul\":5790:5791   */\n      0x00\n        /* \"#utility.yul\":5787:5788   */\n      0x00\n        /* \"#utility.yul\":5780:5792   */\n      revert\n        /* \"#utility.yul\":5731:5794   */\n    tag_394:\n        /* \"#utility.yul\":5678:5800   */\n      pop\n      jump\t// out\n        /* \"#utility.yul\":5806:5945   */\n    tag_276:\n        /* \"#utility.yul\":5852:5857   */\n      0x00\n        /* \"#utility.yul\":5890:5896   */\n      dup2\n        /* \"#utility.yul\":5877:5897   */\n      calldataload\n        /* \"#utility.yul\":5868:5897   */\n      swap1\n      pop\n        /* \"#utility.yul\":5906:5939   */\n      tag_396\n        /* \"#utility.yul\":5933:5938   */\n      dup2\n        /* \"#utility.yul\":5906:5939   */\n      tag_275\n      jump\t// in\n    tag_396:\n        /* \"#utility.yul\":5806:5945   */\n      swap3\n      swap2\n      pop\n      pop\n      jump\t// out\n        /* \"#utility.yul\":5951:6586   */\n    tag_66:\n        /* \"#utility.yul\":6036:6042   */\n      0x00\n        /* \"#utility.yul\":6044:6050   */\n      0x00\n        /* \"#utility.yul\":6052:6058   */\n      0x00\n        /* \"#utility.yul\":6101:6103   */\n      0x60\n        /* \"#utility.yul\":6089:6098   */\n      dup5\n        /* \"#utility.yul\":6080:6087   */\n      dup7\n        /* \"#utility.yul\":6076:6099   */\n      sub\n        /* \"#utility.yul\":6072:6104   */\n      slt\n        /* \"#utility.yul\":6069:6188   */\n      iszero\n      tag_398\n      jumpi\n        /* \"#utility.yul\":6107:6186   */\n      tag_399\n      tag_252\n      jump\t// in\n    tag_399:\n        /* \"#utility.yul\":6069:6188   */\n    tag_398:\n        /* \"#utility.yul\":6227:6228   */\n      0x00\n        /* \"#utility.yul\":6252:6313   */\n      tag_400\n        /* \"#utility.yul\":6305:6312   */\n      dup7\n        /* \"#utility.yul\":6296:6302   */\n      dup3\n        /* \"#utility.yul\":6285:6294   */\n      dup8\n        /* \"#utility.yul\":6281:6303   */\n      add\n        /* \"#utility.yul\":6252:6313   */\n      tag_274\n      jump\t// in\n    tag_400:\n        /* \"#utility.yul\":6242:6313   */\n      swap4\n      pop\n        /* \"#utility.yul\":6198:6323   */\n      pop\n        /* \"#utility.yul\":6362:6364   */\n      0x20\n        /* \"#utility.yul\":6388:6441   */\n      tag_401\n        /* \"#utility.yul\":6433:6440   */\n      dup7\n        /* \"#utility.yul\":6424:6430   */\n      dup3\n        /* \"#utility.yul\":6413:6422   */\n      dup8\n        /* \"#utility.yul\":6409:6431   */\n      add\n        /* \"#utility.yul\":6388:6441   */\n      tag_276\n      jump\t// in\n    tag_401:\n        /* \"#utility.yul\":6378:6441   */\n      swap3\n      pop\n        /* \"#utility.yul\":6333:6451   */\n      pop\n        /* \"#utility.yul\":6490:6492   */\n      0x40\n        /* \"#utility.yul\":6516:6569   */\n      tag_402\n        /* \"#utility.yul\":6561:6568   */\n      dup7\n        /* \"#utility.yul\":6552:6558   */\n      dup3\n        /* \"#utility.yul\":6541:6550   */\n      dup8\n        /* \"#utility.yul\":6537:6559   */\n      add\n        /* \"#utility.yul\":6516:6569   */\n      tag_256\n      jump\t// in\n    tag_402:\n        /* \"#utility.yul\":6506:6569   */\n      swap2\n      pop\n        /* \"#utility.yul\":6461:6579   */\n      pop\n        /* \"#utility.yul\":5951:6586   */\n      swap3\n      pop\n      swap3\n      pop\n      swap3\n      jump\t// out\n        /* \"#utility.yul\":6592:7066   */\n    tag_71:\n        /* \"#utility.yul\":6660:6666   */\n      0x00\n        /* \"#utility.yul\":6668:6674   */\n      0x00\n        /* \"#utility.yul\":6717:6719   */\n      0x40\n        /* \"#utility.yul\":6705:6714   */\n      dup4\n        /* \"#utility.yul\":6696:6703   */\n      dup6\n        /* \"#utility.yul\":6692:6715   */\n      sub\n        /* \"#utility.yul\":6688:6720   */\n      slt\n        /* \"#utility.yul\":6685:6804   */\n      iszero\n      tag_404\n      jumpi\n        /* \"#utility.yul\":6723:6802   */\n      tag_405\n      tag_252\n      jump\t// in\n    tag_405:\n        /* \"#utility.yul\":6685:6804   */\n    tag_404:\n        /* \"#utility.yul\":6843:6844   */\n      0x00\n        /* \"#utility.yul\":6868:6921   */\n      tag_406\n        /* \"#utility.yul\":6913:6920   */\n      dup6\n        /* \"#utility.yul\":6904:6910   */\n      dup3\n        /* \"#utility.yul\":6893:6902   */\n      dup7\n        /* \"#utility.yul\":6889:6911   */\n      add\n        /* \"#utility.yul\":6868:6921   */\n      tag_256\n      jump\t// in\n    tag_406:\n        /* \"#utility.yul\":6858:6921   */\n      swap3\n      pop\n        /* \"#utility.yul\":6814:6931   */\n      pop\n        /* \"#utility.yul\":6970:6972   */\n      0x20\n        /* \"#utility.yul\":6996:7049   */\n      tag_407\n        /* \"#utility.yul\":7041:7048   */\n      dup6\n        /* \"#utility.yul\":7032:7038   */\n      dup3\n        /* \"#utility.yul\":7021:7030   */\n      dup7\n        /* \"#utility.yul\":7017:7039   */\n      add\n        /* \"#utility.yul\":6996:7049   */\n      tag_276\n      jump\t// in\n    tag_407:\n        /* \"#utility.yul\":6986:7049   */\n      swap2\n      pop\n        /* \"#utility.yul\":6941:7059   */\n      pop\n        /* \"#utility.yul\":6592:7066   */\n      swap3\n      pop\n      swap3\n      swap1\n      pop\n      jump\t// out\n        /* \"#utility.yul\":7072:7282   */\n    tag_81:\n        /* \"#utility.yul\":7159:7163   */\n      0x00\n        /* \"#utility.yul\":7197:7199   */\n      0x20\n        /* \"#utility.yul\":7186:7195   */\n      dup3\n        /* \"#utility.yul\":7182:7200   */\n      add\n        /* \"#utility.yul\":7174:7200   */\n      swap1\n      pop\n        /* \"#utility.yul\":7210:7275   */\n      tag_409\n        /* \"#utility.yul\":7272:7273   */\n      0x00\n        /* \"#utility.yul\":7261:7270   */\n      dup4\n        /* \"#utility.yul\":7257:7274   */\n      add\n        /* \"#utility.yul\":7248:7254   */\n      dup5\n        /* \"#utility.yul\":7210:7275   */\n      tag_268\n      jump\t// in\n    tag_409:\n        /* \"#utility.yul\":7072:7282   */\n      swap3\n      swap2\n      pop\n      pop\n      jump\t// out\n        /* \"#utility.yul\":7288:7457   */\n    tag_277:\n        /* \"#utility.yul\":7372:7383   */\n      0x00\n        /* \"#utility.yul\":7406:7412   */\n      dup3\n        /* \"#utility.yul\":7401:7404   */\n      dup3\n        /* \"#utility.yul\":7394:7413   */\n      mstore\n        /* \"#utility.yul\":7446:7450   */\n      0x20\n        /* \"#utility.yul\":7441:7444   */\n      dup3\n        /* \"#utility.yul\":7437:7451   */\n      add\n        /* \"#utility.yul\":7422:7451   */\n      swap1\n      pop\n        /* \"#utility.yul\":7288:7457   */\n      swap3\n      swap2\n      pop\n      pop\n      jump\t// out\n        /* \"#utility.yul\":7463:7624   */\n    tag_278:\n        /* \"#utility.yul\":7603:7616   */\n      0x4e6f742063726561746f72000000000000000000000000000000000000000000\n        /* \"#utility.yul\":7599:7600   */\n      0x00\n        /* \"#utility.yul\":7591:7597   */\n      dup3\n        /* \"#utility.yul\":7587:7601   */\n      add\n        /* \"#utility.yul\":7580:7617   */\n      mstore\n        /* \"#utility.yul\":7463:7624   */\n      pop\n      jump\t// out\n        /* \"#utility.yul\":7630:7996   */\n    tag_279:\n        /* \"#utility.yul\":7772:7775   */\n      0x00\n        /* \"#utility.yul\":7793:7860   */\n      tag_413\n        /* \"#utility.yul\":7857:7859   */\n      0x0b\n        /* \"#utility.yul\":7852:7855   */\n      dup4\n        /* \"#utility.yul\":7793:7860   */\n      tag_277\n      jump\t// in\n    tag_413:\n        /* \"#utility.yul\":7786:7860   */\n      swap2\n      pop\n        /* \"#utility.yul\":7869:7962   */\n      tag_414\n        /* \"#utility.yul\":7958:7961   */\n      dup3\n        /* \"#utility.yul\":7869:7962   */\n      tag_278\n      jump\t// in\n    tag_414:\n        /* \"#utility.yul\":7987:7989   */\n      0x20\n        /* \"#utility.yul\":7982:7985   */\n      dup3\n        /* \"#utility.yul\":7978:7990   */\n      add\n        /* \"#utility.yul\":7971:7990   */\n      swap1\n      pop\n        /* \"#utility.yul\":7630:7996   */\n      swap2\n      swap1\n      pop\n      jump\t// out\n        /* \"#utility.yul\":8002:8421   */\n    tag_94:\n        /* \"#utility.yul\":8168:8172   */\n      0x00\n        /* \"#utility.yul\":8206:8208   */\n      0x20\n        /* \"#utility.yul\":8195:8204   */\n      dup3\n        /* \"#utility.yul\":8191:8209   */\n      add\n        /* \"#utility.yul\":8183:8209   */\n      swap1\n      pop\n        /* \"#utility.yul\":8255:8264   */\n      dup2\n        /* \"#utility.yul\":8249:8253   */\n      dup2\n        /* \"#utility.yul\":8245:8265   */\n      sub\n        /* \"#utility.yul\":8241:8242   */\n      0x00\n        /* \"#utility.yul\":8230:8239   */\n      dup4\n        /* \"#utility.yul\":8226:8243   */\n      add\n        /* \"#utility.yul\":8219:8266   */\n      mstore\n        /* \"#utility.yul\":8283:8414   */\n      tag_416\n        /* \"#utility.yul\":8409:8413   */\n      dup2\n        /* \"#utility.yul\":8283:8414   */\n      tag_279\n      jump\t// in\n    tag_416:\n        /* \"#utility.yul\":8275:8414   */\n      swap1\n      pop\n        /* \"#utility.yul\":8002:8421   */\n      swap2\n      swap1\n      pop\n      jump\t// out\n        /* \"#utility.yul\":8427:8589   */\n    tag_280:\n        /* \"#utility.yul\":8567:8581   */\n      0x57726f6e67207374617475730000000000000000000000000000000000000000\n        /* \"#utility.yul\":8563:8564   */\n      0x00\n        /* \"#utility.yul\":8555:8561   */\n      dup3\n        /* \"#utility.yul\":8551:8565   */\n      add\n        /* \"#utility.yul\":8544:8582   */\n      mstore\n        /* \"#utility.yul\":8427:8589   */\n      pop\n      jump\t// out\n        /* \"#utility.yul\":8595:8961   */\n    tag_281:\n        /* \"#utility.yul\":8737:8740   */\n      0x00\n        /* \"#utility.yul\":8758:8825   */\n      tag_419\n        /* \"#utility.yul\":8822:8824   */\n      0x0c\n        /* \"#utility.yul\":8817:8820   */\n      dup4\n        /* \"#utility.yul\":8758:8825   */\n      tag_277\n      jump\t// in\n    tag_419:\n        /* \"#utility.yul\":8751:8825   */\n      swap2\n      pop\n        /* \"#utility.yul\":8834:8927   */\n      tag_420\n        /* \"#utility.yul\":8923:8926   */\n      dup3\n        /* \"#utility.yul\":8834:8927   */\n      tag_280\n      jump\t// in\n    tag_420:\n        /* \"#utility.yul\":8952:8954   */\n      0x20\n        /* \"#utility.yul\":8947:8950   */\n      dup3\n        /* \"#utility.yul\":8943:8955   */\n      add\n        /* \"#utility.yul\":8936:8955   */\n      swap1\n      pop\n        /* \"#utility.yul\":8595:8961   */\n      swap2\n      swap1\n      pop\n      jump\t// out\n        /* \"#utility.yul\":8967:9386   */\n    tag_103:\n        /* \"#utility.yul\":9133:9137   */\n      0x00\n        /* \"#utility.yul\":9171:9173   */\n      0x20\n        /* \"#utility.yul\":9160:9169   */\n      dup3\n        /* \"#utility.yul\":9156:9174   */\n      add\n        /* \"#utility.yul\":9148:9174   */\n      swap1\n      pop\n        /* \"#utility.yul\":9220:9229   */\n      dup2\n        /* \"#utility.yul\":9214:9218   */\n      dup2\n        /* \"#utility.yul\":9210:9230   */\n      sub\n        /* \"#utility.yul\":9206:9207   */\n      0x00\n        /* \"#utility.yul\":9195:9204   */\n      dup4\n        /* \"#utility.yul\":9191:9208   */\n      add\n        /* \"#utility.yul\":9184:9231   */\n      mstore\n        /* \"#utility.yul\":9248:9379   */\n      tag_422\n        /* \"#utility.yul\":9374:9378   */\n      dup2\n        /* \"#utility.yul\":9248:9379   */\n      tag_281\n      jump\t// in\n    tag_422:\n        /* \"#utility.yul\":9240:9379   */\n      swap1\n      pop\n        /* \"#utility.yul\":8967:9386   */\n      swap2\n      swap1\n      pop\n      jump\t// out\n        /* \"#utility.yul\":9392:9572   */\n    tag_282:\n        /* \"#utility.yul\":9440:9517   */\n      0x4e487b7100000000000000000000000000000000000000000000000000000000\n        /* \"#utility.yul\":9437:9438   */\n      0x00\n        /* \"#utility.yul\":9430:9518   */\n      mstore\n        /* \"#utility.yul\":9537:9541   */\n      0x11\n        /* \"#utility.yul\":9534:9535   */\n      0x04\n        /* \"#utility.yul\":9527:9542   */\n      mstore\n        /* \"#utility.yul\":9561:9565   */\n      0x24\n        /* \"#utility.yul\":9558:9559   */\n      0x00\n        /* \"#utility.yul\":9551:9566   */\n      revert\n        /* \"#utility.yul\":9578:9769   */\n    tag_107:\n        /* \"#utility.yul\":9618:9621   */\n      0x00\n        /* \"#utility.yul\":9637:9657   */\n      tag_425\n        /* \"#utility.yul\":9655:9656   */\n      dup3\n        /* \"#utility.yul\":9637:9657   */\n      tag_254\n      jump\t// in\n    tag_425:\n        /* \"#utility.yul\":9632:9657   */\n      swap2\n      pop\n        /* \"#utility.yul\":9671:9691   */\n      tag_426\n        /* \"#utility.yul\":9689:9690   */\n      dup4\n        /* \"#utility.yul\":9671:9691   */\n      tag_254\n      jump\t// in\n    tag_426:\n        /* \"#utility.yul\":9666:9691   */\n      swap3\n      pop\n        /* \"#utility.yul\":9714:9715   */\n      dup3\n        /* \"#utility.yul\":9711:9712   */\n      dup3\n        /* \"#utility.yul\":9707:9716   */\n      add\n        /* \"#utility.yul\":9700:9716   */\n      swap1\n      pop\n        /* \"#utility.yul\":9735:9738   */\n      dup1\n        /* \"#utility.yul\":9732:9733   */\n      dup3\n        /* \"#utility.yul\":9729:9739   */\n      gt\n        /* \"#utility.yul\":9726:9762   */\n      iszero\n      tag_427\n      jumpi\n        /* \"#utility.yul\":9742:9760   */\n      tag_428\n      tag_282\n      jump\t// in\n    tag_428:\n        /* \"#utility.yul\":9726:9762   */\n    tag_427:\n        /* \"#utility.yul\":9578:9769   */\n      swap3\n      swap2\n      pop\n      pop\n      jump\t// out\n        /* \"#utility.yul\":9775:9941   */\n    tag_283:\n        /* \"#utility.yul\":9915:9933   */\n      0x4e6f7420636f756e746572706172747900000000000000000000000000000000\n        /* \"#utility.yul\":9911:9912   */\n      0x00\n        /* \"#utility.yul\":9903:9909   */\n      dup3\n        /* \"#utility.yul\":9899:9913   */\n      add\n        /* \"#utility.yul\":9892:9934   */\n      mstore\n        /* \"#utility.yul\":9775:9941   */\n      pop\n      jump\t// out\n        /* \"#utility.yul\":9947:10313   */\n    tag_284:\n        /* \"#utility.yul\":10089:10092   */\n      0x00\n        /* \"#utility.yul\":10110:10177   */\n      tag_431\n        /* \"#utility.yul\":10174:10176   */\n      0x10\n        /* \"#utility.yul\":10169:10172   */\n      dup4\n        /* \"#utility.yul\":10110:10177   */\n      tag_277\n      jump\t// in\n    tag_431:\n        /* \"#utility.yul\":10103:10177   */\n      swap2\n      pop\n        /* \"#utility.yul\":10186:10279   */\n      tag_432\n        /* \"#utility.yul\":10275:10278   */\n      dup3\n        /* \"#utility.yul\":10186:10279   */\n      tag_283\n      jump\t// in\n    tag_432:\n        /* \"#utility.yul\":10304:10306   */\n      0x20\n        /* \"#utility.yul\":10299:10302   */\n      dup3\n        /* \"#utility.yul\":10295:10307   */\n      add\n        /* \"#utility.yul\":10288:10307   */\n      swap1\n      pop\n        /* \"#utility.yul\":9947:10313   */\n      swap2\n      swap1\n      pop\n      jump\t// out\n        /* \"#utility.yul\":10319:10738   */\n    tag_113:\n        /* \"#utility.yul\":10485:10489   */\n      0x00\n        /* \"#utility.yul\":10523:10525   */\n      0x20\n        /* \"#utility.yul\":10512:10521   */\n      dup3\n        /* \"#utility.yul\":10508:10526   */\n      add\n        /* \"#utility.yul\":10500:10526   */\n      swap1\n      pop\n        /* \"#utility.yul\":10572:10581   */\n      dup2\n        /* \"#utility.yul\":10566:10570   */\n      dup2\n        /* \"#utility.yul\":10562:10582   */\n      sub\n        /* \"#utility.yul\":10558:10559   */\n      0x00\n        /* \"#utility.yul\":10547:10556   */\n      dup4\n        /* \"#utility.yul\":10543:10560   */\n      add\n        /* \"#utility.yul\":10536:10583   */\n      mstore\n        /* \"#utility.yul\":10600:10731   */\n      tag_434\n        /* \"#utility.yul\":10726:10730   */\n      dup2\n        /* \"#utility.yul\":10600:10731   */\n      tag_284\n      jump\t// in\n    tag_434:\n        /* \"#utility.yul\":10592:10731   */\n      swap1\n      pop\n        /* \"#utility.yul\":10319:10738   */\n      swap2\n      swap1\n      pop\n      jump\t// out\n        /* \"#utility.yul\":10744:10908   */\n    tag_285:\n        /* \"#utility.yul\":10884:10900   */\n      0x4f6e6c7920436f6d706c65746564000000000000000000000000000000000000\n        /* \"#utility.yul\":10880:10881   */\n      0x00\n        /* \"#utility.yul\":10872:10878   */\n      dup3\n        /* \"#utility.yul\":10868:10882   */\n      add\n        /* \"#utility.yul\":10861:10901   */\n      mstore\n        /* \"#utility.yul\":10744:10908   */\n      pop\n      jump\t// out\n        /* \"#utility.yul\":10914:11280   */\n    tag_286:\n        /* \"#utility.yul\":11056:11059   */\n      0x00\n        /* \"#utility.yul\":11077:11144   */\n      tag_437\n        /* \"#utility.yul\":11141:11143   */\n      0x0e\n        /* \"#utility.yul\":11136:11139   */\n      dup4\n        /* \"#utility.yul\":11077:11144   */\n      tag_277\n      jump\t// in\n    tag_437:\n        /* \"#utility.yul\":11070:11144   */\n      swap2\n      pop\n        /* \"#utility.yul\":11153:11246   */\n      tag_438\n        /* \"#utility.yul\":11242:11245   */\n      dup3\n        /* \"#utility.yul\":11153:11246   */\n      tag_285\n      jump\t// in\n    tag_438:\n        /* \"#utility.yul\":11271:11273   */\n      0x20\n        /* \"#utility.yul\":11266:11269   */\n      dup3\n        /* \"#utility.yul\":11262:11274   */\n      add\n        /* \"#utility.yul\":11255:11274   */\n      swap1\n      pop\n        /* \"#utility.yul\":10914:11280   */\n      swap2\n      swap1\n      pop\n      jump\t// out\n        /* \"#utility.yul\":11286:11705   */\n    tag_124:\n        /* \"#utility.yul\":11452:11456   */\n      0x00\n        /* \"#utility.yul\":11490:11492   */\n      0x20\n        /* \"#utility.yul\":11479:11488   */\n      dup3\n        /* \"#utility.yul\":11475:11493   */\n      add\n        /* \"#utility.yul\":11467:11493   */\n      swap1\n      pop\n        /* \"#utility.yul\":11539:11548   */\n      dup2\n        /* \"#utility.yul\":11533:11537   */\n      dup2\n        /* \"#utility.yul\":11529:11549   */\n      sub\n        /* \"#utility.yul\":11525:11526   */\n      0x00\n        /* \"#utility.yul\":11514:11523   */\n      dup4\n        /* \"#utility.yul\":11510:11527   */\n      add\n        /* \"#utility.yul\":11503:11550   */\n      mstore\n        /* \"#utility.yul\":11567:11698   */\n      tag_440\n        /* \"#utility.yul\":11693:11697   */\n      dup2\n        /* \"#utility.yul\":11567:11698   */\n      tag_286\n      jump\t// in\n    tag_440:\n        /* \"#utility.yul\":11559:11698   */\n      swap1\n      pop\n        /* \"#utility.yul\":11286:11705   */\n      swap2\n      swap1\n      pop\n      jump\t// out\n        /* \"#utility.yul\":11711:11879   */\n    tag_287:\n        /* \"#utility.yul\":11851:11871   */\n      0x4f7261636c6520616c7265616479207365740000000000000000000000000000\n        /* \"#utility.yul\":11847:11848   */\n      0x00\n        /* \"#utility.yul\":11839:11845   */\n      dup3\n        /* \"#utility.yul\":11835:11849   */\n      add\n        /* \"#utility.yul\":11828:11872   */\n      mstore\n        /* \"#utility.yul\":11711:11879   */\n      pop\n      jump\t// out\n        /* \"#utility.yul\":11885:12251   */\n    tag_288:\n        /* \"#utility.yul\":12027:12030   */\n      0x00\n        /* \"#utility.yul\":12048:12115   */\n      tag_443\n        /* \"#utility.yul\":12112:12114   */\n      0x12\n        /* \"#utility.yul\":12107:12110   */\n      dup4\n        /* \"#utility.yul\":12048:12115   */\n      tag_277\n      jump\t// in\n    tag_443:\n        /* \"#utility.yul\":12041:12115   */\n      swap2\n      pop\n        /* \"#utility.yul\":12124:12217   */\n      tag_444\n        /* \"#utility.yul\":12213:12216   */\n      dup3\n        /* \"#utility.yul\":12124:12217   */\n      tag_287\n      jump\t// in\n    tag_444:\n        /* \"#utility.yul\":12242:12244   */\n      0x20\n        /* \"#utility.yul\":12237:12240   */\n      dup3\n        /* \"#utility.yul\":12233:12245   */\n      add\n        /* \"#utility.yul\":12226:12245   */\n      swap1\n      pop\n        /* \"#utility.yul\":11885:12251   */\n      swap2\n      swap1\n      pop\n      jump\t// out\n        /* \"#utility.yul\":12257:12676   */\n    tag_130:\n        /* \"#utility.yul\":12423:12427   */\n      0x00\n        /* \"#utility.yul\":12461:12463   */\n      0x20\n        /* \"#utility.yul\":12450:12459   */\n      dup3\n        /* \"#utility.yul\":12446:12464   */\n      add\n        /* \"#utility.yul\":12438:12464   */\n      swap1\n      pop\n        /* \"#utility.yul\":12510:12519   */\n      dup2\n        /* \"#utility.yul\":12504:12508   */\n      dup2\n        /* \"#utility.yul\":12500:12520   */\n      sub\n        /* \"#utility.yul\":12496:12497   */\n      0x00\n        /* \"#utility.yul\":12485:12494   */\n      dup4\n        /* \"#utility.yul\":12481:12498   */\n      add\n        /* \"#utility.yul\":12474:12521   */\n      mstore\n        /* \"#utility.yul\":12538:12669   */\n      tag_446\n        /* \"#utility.yul\":12664:12668   */\n      dup2\n        /* \"#utility.yul\":12538:12669   */\n      tag_288\n      jump\t// in\n    tag_446:\n        /* \"#utility.yul\":12530:12669   */\n      swap1\n      pop\n        /* \"#utility.yul\":12257:12676   */\n      swap2\n      swap1\n      pop\n      jump\t// out\n        /* \"#utility.yul\":12682:12846   */\n    tag_289:\n        /* \"#utility.yul\":12822:12838   */\n      0x496e76616c6964206f7261636c65000000000000000000000000000000000000\n        /* \"#utility.yul\":12818:12819   */\n      0x00\n        /* \"#utility.yul\":12810:12816   */\n      dup3\n        /* \"#utility.yul\":12806:12820   */\n      add\n        /* \"#utility.yul\":12799:12839   */\n      mstore\n        /* \"#utility.yul\":12682:12846   */\n      pop\n      jump\t// out\n        /* \"#utility.yul\":12852:13218   */\n    tag_290:\n        /* \"#utility.yul\":12994:12997   */\n      0x00\n        /* \"#utility.yul\":13015:13082   */\n      tag_449\n        /* \"#utility.yul\":13079:13081   */\n      0x0e\n        /* \"#utility.yul\":13074:13077   */\n      dup4\n        /* \"#utility.yul\":13015:13082   */\n      tag_277\n      jump\t// in\n    tag_449:\n        /* \"#utility.yul\":13008:13082   */\n      swap2\n      pop\n        /* \"#utility.yul\":13091:13184   */\n      tag_450\n        /* \"#utility.yul\":13180:13183   */\n      dup3\n        /* \"#utility.yul\":13091:13184   */\n      tag_289\n      jump\t// in\n    tag_450:\n        /* \"#utility.yul\":13209:13211   */\n      0x20\n        /* \"#utility.yul\":13204:13207   */\n      dup3\n        /* \"#utility.yul\":13200:13212   */\n      add\n        /* \"#utility.yul\":13193:13212   */\n      swap1\n      pop\n        /* \"#utility.yul\":12852:13218   */\n      swap2\n      swap1\n      pop\n      jump\t// out\n        /* \"#utility.yul\":13224:13643   */\n    tag_133:\n        /* \"#utility.yul\":13390:13394   */\n      0x00\n        /* \"#utility.yul\":13428:13430   */\n      0x20\n        /* \"#utility.yul\":13417:13426   */\n      dup3\n        /* \"#utility.yul\":13413:13431   */\n      add\n        /* \"#utility.yul\":13405:13431   */\n      swap1\n      pop\n        /* \"#utility.yul\":13477:13486   */\n      dup2\n        /* \"#utility.yul\":13471:13475   */\n      dup2\n        /* \"#utility.yul\":13467:13487   */\n      sub\n        /* \"#utility.yul\":13463:13464   */\n      0x00\n        /* \"#utility.yul\":13452:13461   */\n      dup4\n        /* \"#utility.yul\":13448:13465   */\n      add\n        /* \"#utility.yul\":13441:13488   */\n      mstore\n        /* \"#utility.yul\":13505:13636   */\n      tag_452\n        /* \"#utility.yul\":13631:13635   */\n      dup2\n        /* \"#utility.yul\":13505:13636   */\n      tag_290\n      jump\t// in\n    tag_452:\n        /* \"#utility.yul\":13497:13636   */\n      swap1\n      pop\n        /* \"#utility.yul\":13224:13643   */\n      swap2\n      swap1\n      pop\n      jump\t// out\n        /* \"#utility.yul\":13649:13809   */\n    tag_291:\n        /* \"#utility.yul\":13789:13801   */\n      0x4e6f74207369676e656400000000000000000000000000000000000000000000\n        /* \"#utility.yul\":13785:13786   */\n      0x00\n        /* \"#utility.yul\":13777:13783   */\n      dup3\n        /* \"#utility.yul\":13773:13787   */\n      add\n        /* \"#utility.yul\":13766:13802   */\n      mstore\n        /* \"#utility.yul\":13649:13809   */\n      pop\n      jump\t// out\n        /* \"#utility.yul\":13815:14181   */\n    tag_292:\n        /* \"#utility.yul\":13957:13960   */\n      0x00\n        /* \"#utility.yul\":13978:14045   */\n      tag_455\n        /* \"#utility.yul\":14042:14044   */\n      0x0a\n        /* \"#utility.yul\":14037:14040   */\n      dup4\n        /* \"#utility.yul\":13978:14045   */\n      tag_277\n      jump\t// in\n    tag_455:\n        /* \"#utility.yul\":13971:14045   */\n      swap2\n      pop\n        /* \"#utility.yul\":14054:14147   */\n      tag_456\n        /* \"#utility.yul\":14143:14146   */\n      dup3\n        /* \"#utility.yul\":14054:14147   */\n      tag_291\n      jump\t// in\n    tag_456:\n        /* \"#utility.yul\":14172:14174   */\n      0x20\n        /* \"#utility.yul\":14167:14170   */\n      dup3\n        /* \"#utility.yul\":14163:14175   */\n      add\n        /* \"#utility.yul\":14156:14175   */\n      swap1\n      pop\n        /* \"#utility.yul\":13815:14181   */\n      swap2\n      swap1\n      pop\n      jump\t// out\n        /* \"#utility.yul\":14187:14606   */\n    tag_144:\n        /* \"#utility.yul\":14353:14357   */\n      0x00\n        /* \"#utility.yul\":14391:14393   */\n      0x20\n        /* \"#utility.yul\":14380:14389   */\n      dup3\n        /* \"#utility.yul\":14376:14394   */\n      add\n        /* \"#utility.yul\":14368:14394   */\n      swap1\n      pop\n        /* \"#utility.yul\":14440:14449   */\n      dup2\n        /* \"#utility.yul\":14434:14438   */\n      dup2\n        /* \"#utility.yul\":14430:14450   */\n      sub\n        /* \"#utility.yul\":14426:14427   */\n      0x00\n        /* \"#utility.yul\":14415:14424   */\n      dup4\n        /* \"#utility.yul\":14411:14428   */\n      add\n        /* \"#utility.yul\":14404:14451   */\n      mstore\n        /* \"#utility.yul\":14468:14599   */\n      tag_458\n        /* \"#utility.yul\":14594:14598   */\n      dup2\n        /* \"#utility.yul\":14468:14599   */\n      tag_292\n      jump\t// in\n    tag_458:\n        /* \"#utility.yul\":14460:14599   */\n      swap1\n      pop\n        /* \"#utility.yul\":14187:14606   */\n      swap2\n      swap1\n      pop\n      jump\t// out\n        /* \"#utility.yul\":14612:14784   */\n    tag_293:\n        /* \"#utility.yul\":14752:14776   */\n      0x44656c697665727920666c6f7720726571756972656400000000000000000000\n        /* \"#utility.yul\":14748:14749   */\n      0x00\n        /* \"#utility.yul\":14740:14746   */\n      dup3\n        /* \"#utility.yul\":14736:14750   */\n      add\n        /* \"#utility.yul\":14729:14777   */\n      mstore\n        /* \"#utility.yul\":14612:14784   */\n      pop\n      jump\t// out\n        /* \"#utility.yul\":14790:15156   */\n    tag_294:\n        /* \"#utility.yul\":14932:14935   */\n      0x00\n        /* \"#utility.yul\":14953:15020   */\n      tag_461\n        /* \"#utility.yul\":15017:15019   */\n      0x16\n        /* \"#utility.yul\":15012:15015   */\n      dup4\n        /* \"#utility.yul\":14953:15020   */\n      tag_277\n      jump\t// in\n    tag_461:\n        /* \"#utility.yul\":14946:15020   */\n      swap2\n      pop\n        /* \"#utility.yul\":15029:15122   */\n      tag_462\n        /* \"#utility.yul\":15118:15121   */\n      dup3\n        /* \"#utility.yul\":15029:15122   */\n      tag_293\n      jump\t// in\n    tag_462:\n        /* \"#utility.yul\":15147:15149   */\n      0x20\n        /* \"#utility.yul\":15142:15145   */\n      dup3\n        /* \"#utility.yul\":15138:15150   */\n      add\n        /* \"#utility.yul\":15131:15150   */\n      swap1\n      pop\n        /* \"#utility.yul\":14790:15156   */\n      swap2\n      swap1\n      pop\n      jump\t// out\n        /* \"#utility.yul\":15162:15581   */\n    tag_147:\n        /* \"#utility.yul\":15328:15332   */\n      0x00\n        /* \"#utility.yul\":15366:15368   */\n      0x20\n        /* \"#utility.yul\":15355:15364   */\n      dup3\n        /* \"#utility.yul\":15351:15369   */\n      add\n        /* \"#utility.yul\":15343:15369   */\n      swap1\n      pop\n        /* \"#utility.yul\":15415:15424   */\n      dup2\n        /* \"#utility.yul\":15409:15413   */\n      dup2\n        /* \"#utility.yul\":15405:15425   */\n      sub\n        /* \"#utility.yul\":15401:15402   */\n      0x00\n        /* \"#utility.yul\":15390:15399   */\n      dup4\n        /* \"#utility.yul\":15386:15403   */\n      add\n        /* \"#utility.yul\":15379:15426   */\n      mstore\n        /* \"#utility.yul\":15443:15574   */\n      tag_464\n        /* \"#utility.yul\":15569:15573   */\n      dup2\n        /* \"#utility.yul\":15443:15574   */\n      tag_294\n      jump\t// in\n    tag_464:\n        /* \"#utility.yul\":15435:15574   */\n      swap1\n      pop\n        /* \"#utility.yul\":15162:15581   */\n      swap2\n      swap1\n      pop\n      jump\t// out\n        /* \"#utility.yul\":15587:15748   */\n    tag_295:\n        /* \"#utility.yul\":15727:15740   */\n      0x4e6f742043726561746564000000000000000000000000000000000000000000\n        /* \"#utility.yul\":15723:15724   */\n      0x00\n        /* \"#utility.yul\":15715:15721   */\n      dup3\n        /* \"#utility.yul\":15711:15725   */\n      add\n        /* \"#utility.yul\":15704:15741   */\n      mstore\n        /* \"#utility.yul\":15587:15748   */\n      pop\n      jump\t// out\n        /* \"#utility.yul\":15754:16120   */\n    tag_296:\n        /* \"#utility.yul\":15896:15899   */\n      0x00\n        /* \"#utility.yul\":15917:15984   */\n      tag_467\n        /* \"#utility.yul\":15981:15983   */\n      0x0b\n        /* \"#utility.yul\":15976:15979   */\n      dup4\n        /* \"#utility.yul\":15917:15984   */\n      tag_277\n      jump\t// in\n    tag_467:\n        /* \"#utility.yul\":15910:15984   */\n      swap2\n      pop\n        /* \"#utility.yul\":15993:16086   */\n      tag_468\n        /* \"#utility.yul\":16082:16085   */\n      dup3\n        /* \"#utility.yul\":15993:16086   */\n      tag_295\n      jump\t// in\n    tag_468:\n        /* \"#utility.yul\":16111:16113   */\n      0x20\n        /* \"#utility.yul\":16106:16109   */\n      dup3\n        /* \"#utility.yul\":16102:16114   */\n      add\n        /* \"#utility.yul\":16095:16114   */\n      swap1\n      pop\n        /* \"#utility.yul\":15754:16120   */\n      swap2\n      swap1\n      pop\n      jump\t// out\n        /* \"#utility.yul\":16126:16545   */\n    tag_162:\n        /* \"#utility.yul\":16292:16296   */\n      0x00\n        /* \"#utility.yul\":16330:16332   */\n      0x20\n        /* \"#utility.yul\":16319:16328   */\n      dup3\n        /* \"#utility.yul\":16315:16333   */\n      add\n        /* \"#utility.yul\":16307:16333   */\n      swap1\n      pop\n        /* \"#utility.yul\":16379:16388   */\n      dup2\n        /* \"#utility.yul\":16373:16377   */\n      dup2\n        /* \"#utility.yul\":16369:16389   */\n      sub\n        /* \"#utility.yul\":16365:16366   */\n      0x00\n        /* \"#utility.yul\":16354:16363   */\n      dup4\n        /* \"#utility.yul\":16350:16367   */\n      add\n        /* \"#utility.yul\":16343:16390   */\n      mstore\n        /* \"#utility.yul\":16407:16538   */\n      tag_470\n        /* \"#utility.yul\":16533:16537   */\n      dup2\n        /* \"#utility.yul\":16407:16538   */\n      tag_296\n      jump\t// in\n    tag_470:\n        /* \"#utility.yul\":16399:16538   */\n      swap1\n      pop\n        /* \"#utility.yul\":16126:16545   */\n      swap2\n      swap1\n      pop\n      jump\t// out\n        /* \"#utility.yul\":16551:16719   */\n    tag_297:\n        /* \"#utility.yul\":16691:16711   */\n      0x302061646472206e6f7420616c6c6f7765640000000000000000000000000000\n        /* \"#utility.yul\":16687:16688   */\n      0x00\n        /* \"#utility.yul\":16679:16685   */\n      dup3\n        /* \"#utility.yul\":16675:16689   */\n      add\n        /* \"#utility.yul\":16668:16712   */\n      mstore\n        /* \"#utility.yul\":16551:16719   */\n      pop\n      jump\t// out\n        /* \"#utility.yul\":16725:17091   */\n    tag_298:\n        /* \"#utility.yul\":16867:16870   */\n      0x00\n        /* \"#utility.yul\":16888:16955   */\n      tag_473\n        /* \"#utility.yul\":16952:16954   */\n      0x12\n        /* \"#utility.yul\":16947:16950   */\n      dup4\n        /* \"#utility.yul\":16888:16955   */\n      tag_277\n      jump\t// in\n    tag_473:\n        /* \"#utility.yul\":16881:16955   */\n      swap2\n      pop\n        /* \"#utility.yul\":16964:17057   */\n      tag_474\n        /* \"#utility.yul\":17053:17056   */\n      dup3\n        /* \"#utility.yul\":16964:17057   */\n      tag_297\n      jump\t// in\n    tag_474:\n        /* \"#utility.yul\":17082:17084   */\n      0x20\n        /* \"#utility.yul\":17077:17080   */\n      dup3\n        /* \"#utility.yul\":17073:17085   */\n      add\n        /* \"#utility.yul\":17066:17085   */\n      swap1\n      pop\n        /* \"#utility.yul\":16725:17091   */\n      swap2\n      swap1\n      pop\n      jump\t// out\n        /* \"#utility.yul\":17097:17516   */\n    tag_168:\n        /* \"#utility.yul\":17263:17267   */\n      0x00\n        /* \"#utility.yul\":17301:17303   */\n      0x20\n        /* \"#utility.yul\":17290:17299   */\n      dup3\n        /* \"#utility.yul\":17286:17304   */\n      add\n        /* \"#utility.yul\":17278:17304   */\n      swap1\n      pop\n        /* \"#utility.yul\":17350:17359   */\n      dup2\n        /* \"#utility.yul\":17344:17348   */\n      dup2\n        /* \"#utility.yul\":17340:17360   */\n      sub\n        /* \"#utility.yul\":17336:17337   */\n      0x00\n        /* \"#utility.yul\":17325:17334   */\n      dup4\n        /* \"#utility.yul\":17321:17338   */\n      add\n        /* \"#utility.yul\":17314:17361   */\n      mstore\n        /* \"#utility.yul\":17378:17509   */\n      tag_476\n        /* \"#utility.yul\":17504:17508   */\n      dup2\n        /* \"#utility.yul\":17378:17509   */\n      tag_298\n      jump\t// in\n    tag_476:\n        /* \"#utility.yul\":17370:17509   */\n      swap1\n      pop\n        /* \"#utility.yul\":17097:17516   */\n      swap2\n      swap1\n      pop\n      jump\t// out\n        /* \"#utility.yul\":17522:17684   */\n    tag_299:\n        /* \"#utility.yul\":17662:17676   */\n      0x455448206d69736d617463680000000000000000000000000000000000000000\n        /* \"#utility.yul\":17658:17659   */\n      0x00\n        /* \"#utility.yul\":17650:17656   */\n      dup3\n        /* \"#utility.yul\":17646:17660   */\n      add\n        /* \"#utility.yul\":17639:17677   */\n      mstore\n        /* \"#utility.yul\":17522:17684   */\n      pop\n      jump\t// out\n        /* \"#utility.yul\":17690:18056   */\n    tag_300:\n        /* \"#utility.yul\":17832:17835   */\n      0x00\n        /* \"#utility.yul\":17853:17920   */\n      tag_479\n        /* \"#utility.yul\":17917:17919   */\n      0x0c\n        /* \"#utility.yul\":17912:17915   */\n      dup4\n        /* \"#utility.yul\":17853:17920   */\n      tag_277\n      jump\t// in\n    tag_479:\n        /* \"#utility.yul\":17846:17920   */\n      swap2\n      pop\n        /* \"#utility.yul\":17929:18022   */\n      tag_480\n        /* \"#utility.yul\":18018:18021   */\n      dup3\n        /* \"#utility.yul\":17929:18022   */\n      tag_299\n      jump\t// in\n    tag_480:\n        /* \"#utility.yul\":18047:18049   */\n      0x20\n        /* \"#utility.yul\":18042:18045   */\n      dup3\n        /* \"#utility.yul\":18038:18050   */\n      add\n        /* \"#utility.yul\":18031:18050   */\n      swap1\n      pop\n        /* \"#utility.yul\":17690:18056   */\n      swap2\n      swap1\n      pop\n      jump\t// out\n        /* \"#utility.yul\":18062:18481   */\n    tag_171:\n        /* \"#utility.yul\":18228:18232   */\n      0x00\n        /* \"#utility.yul\":18266:18268   */\n      0x20\n        /* \"#utility.yul\":18255:18264   */\n      dup3\n        /* \"#utility.yul\":18251:18269   */\n      add\n        /* \"#utility.yul\":18243:18269   */\n      swap1\n      pop\n        /* \"#utility.yul\":18315:18324   */\n      dup2\n        /* \"#utility.yul\":18309:18313   */\n      dup2\n        /* \"#utility.yul\":18305:18325   */\n      sub\n        /* \"#utility.yul\":18301:18302   */\n      0x00\n        /* \"#utility.yul\":18290:18299   */\n      dup4\n        /* \"#utility.yul\":18286:18303   */\n      add\n        /* \"#utility.yul\":18279:18326   */\n      mstore\n        /* \"#utility.yul\":18343:18474   */\n      tag_482\n        /* \"#utility.yul\":18469:18473   */\n      dup2\n        /* \"#utility.yul\":18343:18474   */\n      tag_300\n      jump\t// in\n    tag_482:\n        /* \"#utility.yul\":18335:18474   */\n      swap1\n      pop\n        /* \"#utility.yul\":18062:18481   */\n      swap2\n      swap1\n      pop\n      jump\t// out\n        /* \"#utility.yul\":18487:18720   */\n    tag_173:\n        /* \"#utility.yul\":18526:18529   */\n      0x00\n        /* \"#utility.yul\":18549:18573   */\n      tag_484\n        /* \"#utility.yul\":18567:18572   */\n      dup3\n        /* \"#utility.yul\":18549:18573   */\n      tag_254\n      jump\t// in\n    tag_484:\n        /* \"#utility.yul\":18540:18573   */\n      swap2\n      pop\n        /* \"#utility.yul\":18595:18661   */\n      0xffffffffffffffffffffffffffffffffffffffffffffffffffffffffffffffff\n        /* \"#utility.yul\":18588:18593   */\n      dup3\n        /* \"#utility.yul\":18585:18662   */\n      sub\n        /* \"#utility.yul\":18582:18685   */\n      tag_485\n      jumpi\n        /* \"#utility.yul\":18665:18683   */\n      tag_486\n      tag_282\n      jump\t// in\n    tag_486:\n        /* \"#utility.yul\":18582:18685   */\n    tag_485:\n        /* \"#utility.yul\":18712:18713   */\n      0x01\n        /* \"#utility.yul\":18705:18710   */\n      dup3\n        /* \"#utility.yul\":18701:18714   */\n      add\n        /* \"#utility.yul\":18694:18714   */\n      swap1\n      pop\n        /* \"#utility.yul\":18487:18720   */\n      swap2\n      swap1\n      pop\n      jump\t// out\n        /* \"#utility.yul\":18726:18786   */\n    tag_301:\n        /* \"#utility.yul\":18754:18757   */\n      0x00\n        /* \"#utility.yul\":18775:18780   */\n      dup2\n        /* \"#utility.yul\":18768:18780   */\n      swap1\n      pop\n        /* \"#utility.yul\":18726:18786   */\n      swap2\n      swap1\n      pop\n      jump\t// out\n        /* \"#utility.yul\":18792:18934   */\n    tag_302:\n        /* \"#utility.yul\":18842:18851   */\n      0x00\n        /* \"#utility.yul\":18875:18928   */\n      tag_489\n        /* \"#utility.yul\":18893:18927   */\n      tag_490\n        /* \"#utility.yul\":18902:18926   */\n      tag_491\n        /* \"#utility.yul\":18920:18925   */\n      dup5\n        /* \"#utility.yul\":18902:18926   */\n      tag_262\n      jump\t// in\n    tag_491:\n        /* \"#utility.yul\":18893:18927   */\n      tag_301\n      jump\t// in\n    tag_490:\n        /* \"#utility.yul\":18875:18928   */\n      tag_262\n      jump\t// in\n    tag_489:\n        /* \"#utility.yul\":18862:18928   */\n      swap1\n      pop\n        /* \"#utility.yul\":18792:18934   */\n      swap2\n      swap1\n      pop\n      jump\t// out\n        /* \"#utility.yul\":18940:19066   */\n    tag_303:\n        /* \"#utility.yul\":18990:18999   */\n      0x00\n        /* \"#utility.yul\":19023:19060   */\n      tag_493\n        /* \"#utility.yul\":19054:19059   */\n      dup3\n        /* \"#utility.yul\":19023:19060   */\n      tag_302\n      jump\t// in\n    tag_493:\n        /* \"#utility.yul\":19010:19060   */\n      swap1\n      pop\n        /* \"#utility.yul\":18940:19066   */\n      swap2\n      swap1\n      pop\n      jump\t// out\n        /* \"#utility.yul\":19072:19206   */\n    tag_304:\n        /* \"#utility.yul\":19130:19139   */\n      0x00\n        /* \"#utility.yul\":19163:19200   */\n      tag_495\n        /* \"#utility.yul\":19194:19199   */\n      dup3\n        /* \"#utility.yul\":19163:19200   */\n      tag_303\n      jump\t// in\n    tag_495:\n        /* \"#utility.yul\":19150:19200   */\n      swap1\n      pop\n        /* \"#utility.yul\":19072:19206   */\n      swap2\n      swap1\n      pop\n      jump\t// out\n        /* \"#utility.yul\":19212:19359   */\n    tag_305:\n        /* \"#utility.yul\":19307:19352   */\n      tag_497\n        /* \"#utility.yul\":19346:19351   */\n      dup2\n        /* \"#utility.yul\":19307:19352   */\n      tag_304\n      jump\t// in\n    tag_497:\n        /* \"#utility.yul\":19302:19305   */\n      dup3\n        /* \"#utility.yul\":19295:19353   */\n      mstore\n        /* \"#utility.yul\":19212:19359   */\n      pop\n      pop\n      jump\t// out\n        /* \"#utility.yul\":19365:19713   */\n    tag_177:\n        /* \"#utility.yul\":19494:19498   */\n      0x00\n        /* \"#utility.yul\":19532:19534   */\n      0x40\n        /* \"#utility.yul\":19521:19530   */\n      dup3\n        /* \"#utility.yul\":19517:19535   */\n      add\n        /* \"#utility.yul\":19509:19535   */\n      swap1\n      pop\n        /* \"#utility.yul\":19545:19616   */\n      tag_499\n        /* \"#utility.yul\":19613:19614   */\n      0x00\n        /* \"#utility.yul\":19602:19611   */\n      dup4\n        /* \"#utility.yul\":19598:19615   */\n      add\n        /* \"#utility.yul\":19589:19595   */\n      dup6\n        /* \"#utility.yul\":19545:19616   */\n      tag_272\n      jump\t// in\n    tag_499:\n        /* \"#utility.yul\":19626:19706   */\n      tag_500\n        /* \"#utility.yul\":19702:19704   */\n      0x20\n        /* \"#utility.yul\":19691:19700   */\n      dup4\n        /* \"#utility.yul\":19687:19705   */\n      add\n        /* \"#utility.yul\":19678:19684   */\n      dup5\n        /* \"#utility.yul\":19626:19706   */\n      tag_305\n      jump\t// in\n    tag_500:\n        /* \"#utility.yul\":19365:19713   */\n      swap4\n      swap3\n      pop\n      pop\n      pop\n      jump\t// out\n        /* \"#utility.yul\":19719:19879   */\n    tag_306:\n        /* \"#utility.yul\":19859:19871   */\n      0x4e6f74206f7261636c6500000000000000000000000000000000000000000000\n        /* \"#utility.yul\":19855:19856   */\n      0x00\n        /* \"#utility.yul\":19847:19853   */\n      dup3\n        /* \"#utility.yul\":19843:19857   */\n      add\n        /* \"#utility.yul\":19836:19872   */\n      mstore\n        /* \"#utility.yul\":19719:19879   */\n      pop\n      jump\t// out\n        /* \"#utility.yul\":19885:20251   */\n    tag_307:\n        /* \"#utility.yul\":20027:20030   */\n      0x00\n        /* \"#utility.yul\":20048:20115   */\n      tag_503\n        /* \"#utility.yul\":20112:20114   */\n      0x0a\n        /* \"#utility.yul\":20107:20110   */\n      dup4\n        /* \"#utility.yul\":20048:20115   */\n      tag_277\n      jump\t// in\n    tag_503:\n        /* \"#utility.yul\":20041:20115   */\n      swap2\n      pop\n        /* \"#utility.yul\":20124:20217   */\n      tag_504\n        /* \"#utility.yul\":20213:20216   */\n      dup3\n        /* \"#utility.yul\":20124:20217   */\n      tag_306\n      jump\t// in\n    tag_504:\n        /* \"#utility.yul\":20242:20244   */\n      0x20\n        /* \"#utility.yul\":20237:20240   */\n      dup3\n        /* \"#utility.yul\":20233:20245   */\n      add\n        /* \"#utility.yul\":20226:20245   */\n      swap1\n      pop\n        /* \"#utility.yul\":19885:20251   */\n      swap2\n      swap1\n      pop\n      jump\t// out\n        /* \"#utility.yul\":20257:20676   */\n    tag_181:\n        /* \"#utility.yul\":20423:20427   */\n      0x00\n        /* \"#utility.yul\":20461:20463   */\n      0x20\n        /* \"#utility.yul\":20450:20459   */\n      dup3\n        /* \"#utility.yul\":20446:20464   */\n      add\n        /* \"#utility.yul\":20438:20464   */\n      swap1\n      pop\n        /* \"#utility.yul\":20510:20519   */\n      dup2\n        /* \"#utility.yul\":20504:20508   */\n      dup2\n        /* \"#utility.yul\":20500:20520   */\n      sub\n        /* \"#utility.yul\":20496:20497   */\n      0x00\n        /* \"#utility.yul\":20485:20494   */\n      dup4\n        /* \"#utility.yul\":20481:20498   */\n      add\n        /* \"#utility.yul\":20474:20521   */\n      mstore\n        /* \"#utility.yul\":20538:20669   */\n      tag_506\n        /* \"#utility.yul\":20664:20668   */\n      dup2\n        /* \"#utility.yul\":20538:20669   */\n      tag_307\n      jump\t// in\n    tag_506:\n        /* \"#utility.yul\":20530:20669   */\n      swap1\n      pop\n        /* \"#utility.yul\":20257:20676   */\n      swap2\n      swap1\n      pop\n      jump\t// out\n        /* \"#utility.yul\":20682:20843   */\n    tag_308:\n        /* \"#utility.yul\":20822:20835   */\n      0x4e6f2064656c6976657279000000000000000000000000000000000000000000\n        /* \"#utility.yul\":20818:20819   */\n      0x00\n        /* \"#utility.yul\":20810:20816   */\n      dup3\n        /* \"#utility.yul\":20806:20820   */\n      add\n        /* \"#utility.yul\":20799:20836   */\n      mstore\n        /* \"#utility.yul\":20682:20843   */\n      pop\n      jump\t// out\n        /* \"#utility.yul\":20849:21215   */\n    tag_309:\n        /* \"#utility.yul\":20991:20994   */\n      0x00\n        /* \"#utility.yul\":21012:21079   */\n      tag_509\n        /* \"#utility.yul\":21076:21078   */\n      0x0b\n        /* \"#utility.yul\":21071:21074   */\n      dup4\n        /* \"#utility.yul\":21012:21079   */\n      tag_277\n      jump\t// in\n    tag_509:\n        /* \"#utility.yul\":21005:21079   */\n      swap2\n      pop\n        /* \"#utility.yul\":21088:21181   */\n      tag_510\n        /* \"#utility.yul\":21177:21180   */\n      dup3\n        /* \"#utility.yul\":21088:21181   */\n      tag_308\n      jump\t// in\n    tag_510:\n        /* \"#utility.yul\":21206:21208   */\n      0x20\n        /* \"#utility.yul\":21201:21204   */\n      dup3\n        /* \"#utility.yul\":21197:21209   */\n      add\n        /* \"#utility.yul\":21190:21209   */\n      swap1\n      pop\n        /* \"#utility.yul\":20849:21215   */\n      swap2\n      swap1\n      pop\n      jump\t// out\n        /* \"#utility.yul\":21221:21640   */\n    tag_191:\n        /* \"#utility.yul\":21387:21391   */\n      0x00\n        /* \"#utility.yul\":21425:21427   */\n      0x20\n        /* \"#utility.yul\":21414:21423   */\n      dup3\n        /* \"#utility.yul\":21410:21428   */\n      add\n        /* \"#utility.yul\":21402:21428   */\n      swap1\n      pop\n        /* \"#utility.yul\":21474:21483   */\n      dup2\n        /* \"#utility.yul\":21468:21472   */\n      dup2\n        /* \"#utility.yul\":21464:21484   */\n      sub\n        /* \"#utility.yul\":21460:21461   */\n      0x00\n        /* \"#utility.yul\":21449:21458   */\n      dup4\n        /* \"#utility.yul\":21445:21462   */\n      add\n        /* \"#utility.yul\":21438:21485   */\n      mstore\n        /* \"#utility.yul\":21502:21633   */\n      tag_512\n        /* \"#utility.yul\":21628:21632   */\n      dup2\n        /* \"#utility.yul\":21502:21633   */\n      tag_309\n      jump\t// in\n    tag_512:\n        /* \"#utility.yul\":21494:21633   */\n      swap1\n      pop\n        /* \"#utility.yul\":21221:21640   */\n      swap2\n      swap1\n      pop\n      jump\t// out\n        /* \"#utility.yul\":21646:21809   */\n    tag_310:\n        /* \"#utility.yul\":21786:21801   */\n      0x48617368206d69736d6174636800000000000000000000000000000000000000\n        /* \"#utility.yul\":21782:21783   */\n      0x00\n        /* \"#utility.yul\":21774:21780   */\n      dup3\n        /* \"#utility.yul\":21770:21784   */\n      add\n        /* \"#utility.yul\":21763:21802   */\n      mstore\n        /* \"#utility.yul\":21646:21809   */\n      pop\n      jump\t// out\n        /* \"#utility.yul\":21815:22181   */\n    tag_311:\n        /* \"#utility.yul\":21957:21960   */\n      0x00\n        /* \"#utility.yul\":21978:22045   */\n      tag_515\n        /* \"#utility.yul\":22042:22044   */\n      0x0d\n        /* \"#utility.yul\":22037:22040   */\n      dup4\n        /* \"#utility.yul\":21978:22045   */\n      tag_277\n      jump\t// in\n    tag_515:\n        /* \"#utility.yul\":21971:22045   */\n      swap2\n      pop\n        /* \"#utility.yul\":22054:22147   */\n      tag_516\n        /* \"#utility.yul\":22143:22146   */\n      dup3\n        /* \"#utility.yul\":22054:22147   */\n      tag_310\n      jump\t// in\n    tag_516:\n        /* \"#utility.yul\":22172:22174   */\n      0x20\n        /* \"#utility.yul\":22167:22170   */\n      dup3\n        /* \"#utility.yul\":22163:22175   */\n      add\n        /* \"#utility.yul\":22156:22175   */\n      swap1\n      pop\n        /* \"#utility.yul\":21815:22181   */\n      swap2\n      swap1\n      pop\n      jump\t// out\n        /* \"#utility.yul\":22187:22606   */\n    tag_194:\n        /* \"#utility.yul\":22353:22357   */\n      0x00\n        /* \"#utility.yul\":22391:22393   */\n      0x20\n        /* \"#utility.yul\":22380:22389   */\n      dup3\n        /* \"#utility.yul\":22376:22394   */\n      add\n        /* \"#utility.yul\":22368:22394   */\n      swap1\n      pop\n        /* \"#utility.yul\":22440:22449   */\n      dup2\n        /* \"#utility.yul\":22434:22438   */\n      dup2\n        /* \"#utility.yul\":22430:22450   */\n      sub\n        /* \"#utility.yul\":22426:22427   */\n      0x00\n        /* \"#utility.yul\":22415:22424   */\n      dup4\n        /* \"#utility.yul\":22411:22428   */\n      add\n        /* \"#utility.yul\":22404:22451   */\n      mstore\n        /* \"#utility.yul\":22468:22599   */\n      tag_518\n        /* \"#utility.yul\":22594:22598   */\n      dup2\n        /* \"#utility.yul\":22468:22599   */\n      tag_311\n      jump\t// in\n    tag_518:\n        /* \"#utility.yul\":22460:22599   */\n      swap1\n      pop\n        /* \"#utility.yul\":22187:22606   */\n      swap2\n      swap1\n      pop\n      jump\t// out\n        /* \"#utility.yul\":22612:22778   */\n    tag_312:\n        /* \"#utility.yul\":22752:22770   */\n      0x4e6f7420776974686472617761626c6500000000000000000000000000000000\n        /* \"#utility.yul\":22748:22749   */\n      0x00\n        /* \"#utility.yul\":22740:22746   */\n      dup3\n        /* \"#utility.yul\":22736:22750   */\n      add\n        /* \"#utility.yul\":22729:22771   */\n      mstore\n        /* \"#utility.yul\":22612:22778   */\n      pop\n      jump\t// out\n        /* \"#utility.yul\":22784:23150   */\n    tag_313:\n        /* \"#utility.yul\":22926:22929   */\n      0x00\n        /* \"#utility.yul\":22947:23014   */\n      tag_521\n        /* \"#utility.yul\":23011:23013   */\n      0x10\n        /* \"#utility.yul\":23006:23009   */\n      dup4\n        /* \"#utility.yul\":22947:23014   */\n      tag_277\n      jump\t// in\n    tag_521:\n        /* \"#utility.yul\":22940:23014   */\n      swap2\n      pop\n        /* \"#utility.yul\":23023:23116   */\n      tag_522\n        /* \"#utility.yul\":23112:23115   */\n      dup3\n        /* \"#utility.yul\":23023:23116   */\n      tag_312\n      jump\t// in\n    tag_522:\n        /* \"#utility.yul\":23141:23143   */\n      0x20\n        /* \"#utility.yul\":23136:23139   */\n      dup3\n        /* \"#utility.yul\":23132:23144   */\n      add\n        /* \"#utility.yul\":23125:23144   */\n      swap1\n      pop\n        /* \"#utility.yul\":22784:23150   */\n      swap2\n      swap1\n      pop\n      jump\t// out\n        /* \"#utility.yul\":23156:23575   */\n    tag_215:\n        /* \"#utility.yul\":23322:23326   */\n      0x00\n        /* \"#utility.yul\":23360:23362   */\n      0x20\n        /* \"#utility.yul\":23349:23358   */\n      dup3\n        /* \"#utility.yul\":23345:23363   */\n      add\n        /* \"#utility.yul\":23337:23363   */\n      swap1\n      pop\n        /* \"#utility.yul\":23409:23418   */\n      dup2\n        /* \"#utility.yul\":23403:23407   */\n      dup2\n        /* \"#utility.yul\":23399:23419   */\n      sub\n        /* \"#utility.yul\":23395:23396   */\n      0x00\n        /* \"#utility.yul\":23384:23393   */\n      dup4\n        /* \"#utility.yul\":23380:23397   */\n      add\n        /* \"#utility.yul\":23373:23420   */\n      mstore\n        /* \"#utility.yul\":23437:23568   */\n      tag_524\n        /* \"#utility.yul\":23563:23567   */\n      dup2\n        /* \"#utility.yul\":23437:23568   */\n      tag_313\n      jump\t// in\n    tag_524:\n        /* \"#utility.yul\":23429:23568   */\n      swap1\n      pop\n        /* \"#utility.yul\":23156:23575   */\n      swap2\n      swap1\n      pop\n      jump\t// out\n        /* \"#utility.yul\":23581:23741   */\n    tag_314:\n        /* \"#utility.yul\":23721:23733   */\n      0x4e6f2062616c616e636500000000000000000000000000000000000000000000\n        /* \"#utility.yul\":23717:23718   */\n      0x00\n        /* \"#utility.yul\":23709:23715   */\n      dup3\n        /* \"#utility.yul\":23705:23719   */\n      add\n        /* \"#utility.yul\":23698:23734   */\n      mstore\n        /* \"#utility.yul\":23581:23741   */\n      pop\n      jump\t// out\n        /* \"#utility.yul\":23747:24113   */\n    tag_315:\n        /* \"#utility.yul\":23889:23892   */\n      0x00\n        /* \"#utility.yul\":23910:23977   */\n      tag_527\n        /* \"#utility.yul\":23974:23976   */\n      0x0a\n        /* \"#utility.yul\":23969:23972   */\n      dup4\n        /* \"#utility.yul\":23910:23977   */\n      tag_277\n      jump\t// in\n    tag_527:\n        /* \"#utility.yul\":23903:23977   */\n      swap2\n      pop\n        /* \"#utility.yul\":23986:24079   */\n      tag_528\n        /* \"#utility.yul\":24075:24078   */\n      dup3\n        /* \"#utility.yul\":23986:24079   */\n      tag_314\n      jump\t// in\n    tag_528:\n        /* \"#utility.yul\":24104:24106   */\n      0x20\n        /* \"#utility.yul\":24099:24102   */\n      dup3\n        /* \"#utility.yul\":24095:24107   */\n      add\n        /* \"#utility.yul\":24088:24107   */\n      swap1\n      pop\n        /* \"#utility.yul\":23747:24113   */\n      swap2\n      swap1\n      pop\n      jump\t// out\n        /* \"#utility.yul\":24119:24538   */\n    tag_218:\n        /* \"#utility.yul\":24285:24289   */\n      0x00\n        /* \"#utility.yul\":24323:24325   */\n      0x20\n        /* \"#utility.yul\":24312:24321   */\n      dup3\n        /* \"#utility.yul\":24308:24326   */\n      add\n        /* \"#utility.yul\":24300:24326   */\n      swap1\n      pop\n        /* \"#utility.yul\":24372:24381   */\n      dup2\n        /* \"#utility.yul\":24366:24370   */\n      dup2\n        /* \"#utility.yul\":24362:24382   */\n      sub\n        /* \"#utility.yul\":24358:24359   */\n      0x00\n        /* \"#utility.yul\":24347:24356   */\n      dup4\n        /* \"#utility.yul\":24343:24360   */\n      add\n        /* \"#utility.yul\":24336:24383   */\n      mstore\n        /* \"#utility.yul\":24400:24531   */\n      tag_530\n        /* \"#utility.yul\":24526:24530   */\n      dup2\n        /* \"#utility.yul\":24400:24531   */\n      tag_315\n      jump\t// in\n    tag_530:\n        /* \"#utility.yul\":24392:24531   */\n      swap1\n      pop\n        /* \"#utility.yul\":24119:24538   */\n      swap2\n      swap1\n      pop\n      jump\t// out\n        /* \"#utility.yul\":24544:24738   */\n    tag_220:\n        /* \"#utility.yul\":24584:24588   */\n      0x00\n        /* \"#utility.yul\":24604:24624   */\n      tag_532\n        /* \"#utility.yul\":24622:24623   */\n      dup3\n        /* \"#utility.yul\":24604:24624   */\n      tag_254\n      jump\t// in\n    tag_532:\n        /* \"#utility.yul\":24599:24624   */\n      swap2\n      pop\n        /* \"#utility.yul\":24638:24658   */\n      tag_533\n        /* \"#utility.yul\":24656:24657   */\n      dup4\n        /* \"#utility.yul\":24638:24658   */\n      tag_254\n      jump\t// in\n    tag_533:\n        /* \"#utility.yul\":24633:24658   */\n      swap3\n      pop\n        /* \"#utility.yul\":24682:24683   */\n      dup3\n        /* \"#utility.yul\":24679:24680   */\n      dup3\n        /* \"#utility.yul\":24675:24684   */\n      sub\n        /* \"#utility.yul\":24667:24684   */\n      swap1\n      pop\n        /* \"#utility.yul\":24706:24707   */\n      dup2\n        /* \"#utility.yul\":24700:24704   */\n      dup2\n        /* \"#utility.yul\":24697:24708   */\n      gt\n        /* \"#utility.yul\":24694:24731   */\n      iszero\n      tag_534\n      jumpi\n        /* \"#utility.yul\":24711:24729   */\n      tag_535\n      tag_282\n      jump\t// in\n    tag_535:\n        /* \"#utility.yul\":24694:24731   */\n    tag_534:\n        /* \"#utility.yul\":24544:24738   */\n      swap3\n      swap2\n      pop\n      pop\n      jump\t// out\n        /* \"#utility.yul\":24744:24904   */\n    tag_316:\n        /* \"#utility.yul\":24884:24896   */\n      0x4e6f74205369676e656400000000000000000000000000000000000000000000\n        /* \"#utility.yul\":24880:24881   */\n      0x00\n        /* \"#utility.yul\":24872:24878   */\n      dup3\n        /* \"#utility.yul\":24868:24882   */\n      add\n        /* \"#utility.yul\":24861:24897   */\n      mstore\n        /* \"#utility.yul\":24744:24904   */\n      pop\n      jump\t// out\n        /* \"#utility.yul\":24910:25276   */\n    tag_317:\n        /* \"#utility.yul\":25052:25055   */\n      0x00\n        /* \"#utility.yul\":25073:25140   */\n      tag_538\n        /* \"#utility.yul\":25137:25139   */\n      0x0a\n        /* \"#utility.yul\":25132:25135   */\n      dup4\n        /* \"#utility.yul\":25073:25140   */\n      tag_277\n      jump\t// in\n    tag_538:\n        /* \"#utility.yul\":25066:25140   */\n      swap2\n      pop\n        /* \"#utility.yul\":25149:25242   */\n      tag_539\n        /* \"#utility.yul\":25238:25241   */\n      dup3\n        /* \"#utility.yul\":25149:25242   */\n      tag_316\n      jump\t// in\n    tag_539:\n        /* \"#utility.yul\":25267:25269   */\n      0x20\n        /* \"#utility.yul\":25262:25265   */\n      dup3\n        /* \"#utility.yul\":25258:25270   */\n      add\n        /* \"#utility.yul\":25251:25270   */\n      swap1\n      pop\n        /* \"#utility.yul\":24910:25276   */\n      swap2\n      swap1\n      pop\n      jump\t// out\n        /* \"#utility.yul\":25282:25701   */\n    tag_238:\n        /* \"#utility.yul\":25448:25452   */\n      0x00\n        /* \"#utility.yul\":25486:25488   */\n      0x20\n        /* \"#utility.yul\":25475:25484   */\n      dup3\n        /* \"#utility.yul\":25471:25489   */\n      add\n        /* \"#utility.yul\":25463:25489   */\n      swap1\n      pop\n        /* \"#utility.yul\":25535:25544   */\n      dup2\n        /* \"#utility.yul\":25529:25533   */\n      dup2\n        /* \"#utility.yul\":25525:25545   */\n      sub\n        /* \"#utility.yul\":25521:25522   */\n      0x00\n        /* \"#utility.yul\":25510:25519   */\n      dup4\n        /* \"#utility.yul\":25506:25523   */\n      add\n        /* \"#utility.yul\":25499:25546   */\n      mstore\n        /* \"#utility.yul\":25563:25694   */\n      tag_541\n        /* \"#utility.yul\":25689:25693   */\n      dup2\n        /* \"#utility.yul\":25563:25694   */\n      tag_317\n      jump\t// in\n    tag_541:\n        /* \"#utility.yul\":25555:25694   */\n      swap1\n      pop\n        /* \"#utility.yul\":25282:25701   */\n      swap2\n      swap1\n      pop\n      jump\t// out\n        /* \"#utility.yul\":25707:25868   */\n    tag_318:\n        /* \"#utility.yul\":25847:25860   */\n      0x416c726561647920736574000000000000000000000000000000000000000000\n        /* \"#utility.yul\":25843:25844   */\n      0x00\n        /* \"#utility.yul\":25835:25841   */\n      dup3\n        /* \"#utility.yul\":25831:25845   */\n      add\n        /* \"#utility.yul\":25824:25861   */\n      mstore\n        /* \"#utility.yul\":25707:25868   */\n      pop\n      jump\t// out\n        /* \"#utility.yul\":25874:26240   */\n    tag_319:\n        /* \"#utility.yul\":26016:26019   */\n      0x00\n        /* \"#utility.yul\":26037:26104   */\n      tag_544\n        /* \"#utility.yul\":26101:26103   */\n      0x0b\n        /* \"#utility.yul\":26096:26099   */\n      dup4\n        /* \"#utility.yul\":26037:26104   */\n      tag_277\n      jump\t// in\n    tag_544:\n        /* \"#utility.yul\":26030:26104   */\n      swap2\n      pop\n        /* \"#utility.yul\":26113:26206   */\n      tag_545\n        /* \"#utility.yul\":26202:26205   */\n      dup3\n        /* \"#utility.yul\":26113:26206   */\n      tag_318\n      jump\t// in\n    tag_545:\n        /* \"#utility.yul\":26231:26233   */\n      0x20\n        /* \"#utility.yul\":26226:26229   */\n      dup3\n        /* \"#utility.yul\":26222:26234   */\n      add\n        /* \"#utility.yul\":26215:26234   */\n      swap1\n      pop\n        /* \"#utility.yul\":25874:26240   */\n      swap2\n      swap1\n      pop\n      jump\t// out\n        /* \"#utility.yul\":26246:26665   */\n    tag_241:\n        /* \"#utility.yul\":26412:26416   */\n      0x00\n        /* \"#utility.yul\":26450:26452   */\n      0x20\n        /* \"#utility.yul\":26439:26448   */\n      dup3\n        /* \"#utility.yul\":26435:26453   */\n      add\n        /* \"#utility.yul\":26427:26453   */\n      swap1\n      pop\n        /* \"#utility.yul\":26499:26508   */\n      dup2\n        /* \"#utility.yul\":26493:26497   */\n      dup2\n        /* \"#utility.yul\":26489:26509   */\n      sub\n        /* \"#utility.yul\":26485:26486   */\n      0x00\n        /* \"#utility.yul\":26474:26483   */\n      dup4\n        /* \"#utility.yul\":26470:26487   */\n      add\n        /* \"#utility.yul\":26463:26510   */\n      mstore\n        /* \"#utility.yul\":26527:26658   */\n      tag_547\n        /* \"#utility.yul\":26653:26657   */\n      dup2\n        /* \"#utility.yul\":26527:26658   */\n      tag_319\n      jump\t// in\n    tag_547:\n        /* \"#utility.yul\":26519:26658   */\n      swap1\n      pop\n        /* \"#utility.yul\":26246:26665   */\n      swap2\n      swap1\n      pop\n      jump\t// out\n        /* \"#utility.yul\":26671:26893   */\n    tag_245:\n        /* \"#utility.yul\":26764:26768   */\n      0x00\n        /* \"#utility.yul\":26802:26804   */\n      0x20\n        /* \"#utility.yul\":26791:26800   */\n      dup3\n        /* \"#utility.yul\":26787:26805   */\n      add\n        /* \"#utility.yul\":26779:26805   */\n      swap1\n      pop\n        /* \"#utility.yul\":26815:26886   */\n      tag_549\n        /* \"#utility.yul\":26883:26884   */\n      0x00\n        /* \"#utility.yul\":26872:26881   */\n      dup4\n        /* \"#utility.yul\":26868:26885   */\n      add\n        /* \"#utility.yul\":26859:26865   */\n      dup5\n        /* \"#utility.yul\":26815:26886   */\n      tag_266\n      jump\t// in\n    tag_549:\n        /* \"#utility.yul\":26671:26893   */\n      swap3\n      swap2\n      pop\n      pop\n      jump\t// out\n        /* \"#utility.yul\":26899:27080   */\n    tag_320:\n        /* \"#utility.yul\":27039:27072   */\n      0x5265656e7472616e637947756172643a207265656e7472616e742063616c6c00\n        /* \"#utility.yul\":27035:27036   */\n      0x00\n        /* \"#utility.yul\":27027:27033   */\n      dup3\n        /* \"#utility.yul\":27023:27037   */\n      add\n        /* \"#utility.yul\":27016:27073   */\n      mstore\n        /* \"#utility.yul\":26899:27080   */\n      pop\n      jump\t// out\n        /* \"#utility.yul\":27086:27452   */\n    tag_321:\n        /* \"#utility.yul\":27228:27231   */\n      0x00\n        /* \"#utility.yul\":27249:27316   */\n      tag_552\n        /* \"#utility.yul\":27313:27315   */\n      0x1f\n        /* \"#utility.yul\":27308:27311   */\n      dup4\n        /* \"#utility.yul\":27249:27316   */\n      tag_277\n      jump\t// in\n    tag_552:\n        /* \"#utility.yul\":27242:27316   */\n      swap2\n      pop\n        /* \"#utility.yul\":27325:27418   */\n      tag_553\n        /* \"#utility.yul\":27414:27417   */\n      dup3\n        /* \"#utility.yul\":27325:27418   */\n      tag_320\n      jump\t// in\n    tag_553:\n        /* \"#utility.yul\":27443:27445   */\n      0x20\n        /* \"#utility.yul\":27438:27441   */\n      dup3\n        /* \"#utility.yul\":27434:27446   */\n      add\n        /* \"#utility.yul\":27427:27446   */\n      swap1\n      pop\n        /* \"#utility.yul\":27086:27452   */\n      swap2\n      swap1\n      pop\n      jump\t// out\n        /* \"#utility.yul\":27458:27877   */\n    tag_249:\n        /* \"#utility.yul\":27624:27628   */\n      0x00\n        /* \"#utility.yul\":27662:27664   */\n      0x20\n        /* \"#utility.yul\":27651:27660   */\n      dup3\n        /* \"#utility.yul\":27647:27665   */\n      add\n        /* \"#utility.yul\":27639:27665   */\n      swap1\n      pop\n        /* \"#utility.yul\":27711:27720   */\n      dup2\n        /* \"#utility.yul\":27705:27709   */\n      dup2\n        /* \"#utility.yul\":27701:27721   */\n      sub\n        /* \"#utility.yul\":27697:27698   */\n      0x00\n        /* \"#utility.yul\":27686:27695   */\n      dup4\n        /* \"#utility.yul\":27682:27699   */\n      add\n        /* \"#utility.yul\":27675:27722   */\n      mstore\n        /* \"#utility.yul\":27739:27870   */\n      tag_555\n        /* \"#utility.yul\":27865:27869   */\n      dup2\n        /* \"#utility.yul\":27739:27870   */\n      tag_321\n      jump\t// in\n    tag_555:\n        /* \"#utility.yul\":27731:27870   */\n      swap1\n      pop\n        /* \"#utility.yul\":27458:27877   */\n      swap2\n      swap1\n      pop\n      jump\t// out\n\n    auxdata: 0xa26469706673582212209a58fd161e7ad3890141e99a7b1adbaa603be70bb63ba8a625887c3a38c68fe764736f6c634300081e0033\n}\n",
				"bytecode": {
					"linkReferences": {},
					"object": "6080604052348015600e575f5ffd5b5060015f81905550612560806100235f395ff3fe6080604052600436106100e7575f3560e01c806394aeb61311610089578063df5c298011610058578063df5c2980146102ca578063edb3b27a146102f2578063f3f437031461031c578063f436199d14610358576100e7565b806394aeb613146102365780639537e8d11461025e5780639cc437ba14610286578063a78d9bab146102a2576100e7565b806322a45cd0116100c557806322a45cd014610179578063474da79a146101a15780637adbf973146101e45780637dc0d1d01461020c576100e7565b8063032ca42d146100eb578063067bd3b41461011357806317b184581461013d575b5f5ffd5b3480156100f6575f5ffd5b50610111600480360381019061010c9190611898565b610380565b005b34801561011e575f5ffd5b506101276105fd565b60405161013491906118d2565b60405180910390f35b348015610148575f5ffd5b50610163600480360381019061015e9190611898565b610603565b604051610170919061195e565b60405180910390f35b348015610184575f5ffd5b5061019f600480360381019061019a9190611898565b61062d565b005b3480156101ac575f5ffd5b506101c760048036038101906101c29190611898565b61086b565b6040516101db9897969594939291906119e8565b60405180910390f35b3480156101ef575f5ffd5b5061020a60048036038101906102059190611a9f565b610906565b005b348015610217575f5ffd5b50610220610a64565b60405161022d9190611ad9565b60405180910390f35b348015610241575f5ffd5b5061025c60048036038101906102579190611898565b610a89565b005b348015610269575f5ffd5b50610284600480360381019061027f9190611898565b610d2a565b005b6102a0600480360381019061029b9190611b46565b610eb6565b005b3480156102ad575f5ffd5b506102c860048036038101906102c39190611b96565b6110a1565b005b3480156102d5575f5ffd5b506102f060048036038101906102eb9190611898565b6112b1565b005b3480156102fd575f5ffd5b506103066115d0565b6040516103139190611bd4565b60405180910390f35b348015610327575f5ffd5b50610342600480360381019061033d9190611a9f565b6115e3565b60405161034f91906118d2565b60405180910390f35b348015610363575f5ffd5b5061037e60048036038101906103799190611b96565b6115f8565b005b8060025f8281526020019081526020015f206002015f9054906101000a900473ffffffffffffffffffffffffffffffffffffffff1673ffffffffffffffffffffffffffffffffffffffff163373ffffffffffffffffffffffffffffffffffffffff1614610422576040517f08c379a000000000000000000000000000000000000000000000000000000000815260040161041990611c47565b60405180910390fd5b5f60025f8481526020019081526020015f2090506003600781111561044a576104496118eb565b5b8160030160149054906101000a900460ff16600781111561046e5761046d6118eb565b5b146104ae576040517f08c379a00000000000000000000000000000000000000000000000000000000081526004016104a590611caf565b60405180910390fd5b60048160030160146101000a81548160ff021916908360078111156104d6576104d56118eb565b5b0217905550806001015460045f836003015f9054906101000a900473ffffffffffffffffffffffffffffffffffffffff1673ffffffffffffffffffffffffffffffffffffffff1673ffffffffffffffffffffffffffffffffffffffff1681526020019081526020015f205f82825461054e9190611cfa565b92505081905550827f5c1e662f72ee6c85181b65fac5beb0390932b8c472f05b257151d041ac9ddffa60405160405180910390a2806003015f9054906101000a900473ffffffffffffffffffffffffffffffffffffffff1673ffffffffffffffffffffffffffffffffffffffff16837f21d71db5be59bb9fa133895586b7404307dd33fb93b16db09dc6f1d9d7d231b083600101546040516105f091906118d2565b60405180910390a3505050565b60035481565b5f60025f8381526020019081526020015f2060030160149054906101000a900460ff169050919050565b8060025f8281526020019081526020015f206003015f9054906101000a900473ffffffffffffffffffffffffffffffffffffffff1673ffffffffffffffffffffffffffffffffffffffff163373ffffffffffffffffffffffffffffffffffffffff16146106cf576040517f08c379a00000000000000000000000000000000000000000000000000000000081526004016106c690611d77565b60405180910390fd5b8160025f8281526020019081526020015f206002015f9054906101000a900473ffffffffffffffffffffffffffffffffffffffff1673ffffffffffffffffffffffffffffffffffffffff163373ffffffffffffffffffffffffffffffffffffffff1614610771576040517f08c379a000000000000000000000000000000000000000000000000000000000815260040161076890611c47565b60405180910390fd5b5f60025f8581526020019081526020015f20905060066007811115610799576107986118eb565b5b8160030160149054906101000a900460ff1660078111156107bd576107bc6118eb565b5b146107fd576040517f08c379a00000000000000000000000000000000000000000000000000000000081526004016107f490611ddf565b60405180910390fd5b806004015f9055806005015f905560078160030160146101000a81548160ff02191690836007811115610833576108326118eb565b5b0217905550837f741b099f015e1976cfa72a7448a8fb1d54eab1d616241b562cfbe603a2b61b4260405160405180910390a250505050565b6002602052805f5260405f205f91509050805f015490806001015490806002015f9054906101000a900473ffffffffffffffffffffffffffffffffffffffff1690806003015f9054906101000a900473ffffffffffffffffffffffffffffffffffffffff16908060030160149054906101000a900460ff1690806004015490806005015490806006015f9054906101000a900460ff16905088565b600160149054906101000a900460ff1615610956576040517f08c379a000000000000000000000000000000000000000000000000000000000815260040161094d90611e47565b60405180910390fd5b5f73ffffffffffffffffffffffffffffffffffffffff168173ffffffffffffffffffffffffffffffffffffffff16036109c4576040517f08c379a00000000000000000000000000000000000000000000000000000000081526004016109bb90611eaf565b60405180910390fd5b8060015f6101000a81548173ffffffffffffffffffffffffffffffffffffffff021916908373ffffffffffffffffffffffffffffffffffffffff16021790555060018060146101000a81548160ff0219169083151502179055508073ffffffffffffffffffffffffffffffffffffffff167f3f32684a32a11dabdbb8c0177de80aa3ae36a004d75210335b49e544e48cd0aa60405160405180910390a250565b60015f9054906101000a900473ffffffffffffffffffffffffffffffffffffffff1681565b8060025f8281526020019081526020015f206002015f9054906101000a900473ffffffffffffffffffffffffffffffffffffffff1673ffffffffffffffffffffffffffffffffffffffff163373ffffffffffffffffffffffffffffffffffffffff1614610b2b576040517f08c379a0000000000000000000000000000000000000000000000000000000008152600401610b2290611c47565b60405180910390fd5b5f60025f8481526020019081526020015f20905060016007811115610b5357610b526118eb565b5b8160030160149054906101000a900460ff166007811115610b7757610b766118eb565b5b14610bb7576040517f08c379a0000000000000000000000000000000000000000000000000000000008152600401610bae90611f17565b60405180910390fd5b806006015f9054906101000a900460ff1615610c08576040517f08c379a0000000000000000000000000000000000000000000000000000000008152600401610bff90611f7f565b60405180910390fd5b60058160030160146101000a81548160ff02191690836007811115610c3057610c2f6118eb565b5b0217905550806001015460045f836003015f9054906101000a900473ffffffffffffffffffffffffffffffffffffffff1673ffffffffffffffffffffffffffffffffffffffff1673ffffffffffffffffffffffffffffffffffffffff1681526020019081526020015f205f828254610ca89190611cfa565b92505081905550806003015f9054906101000a900473ffffffffffffffffffffffffffffffffffffffff1673ffffffffffffffffffffffffffffffffffffffff16837f21d71db5be59bb9fa133895586b7404307dd33fb93b16db09dc6f1d9d7d231b08360010154604051610d1d91906118d2565b60405180910390a3505050565b8060025f8281526020019081526020015f206003015f9054906101000a900473ffffffffffffffffffffffffffffffffffffffff1673ffffffffffffffffffffffffffffffffffffffff163373ffffffffffffffffffffffffffffffffffffffff1614610dcc576040517f08c379a0000000000000000000000000000000000000000000000000000000008152600401610dc390611d77565b60405180910390fd5b5f60025f8481526020019081526020015f2090505f6007811115610df357610df26118eb565b5b8160030160149054906101000a900460ff166007811115610e1757610e166118eb565b5b14610e57576040517f08c379a0000000000000000000000000000000000000000000000000000000008152600401610e4e90611fe7565b60405180910390fd5b60018160030160146101000a81548160ff02191690836007811115610e7f57610e7e6118eb565b5b0217905550827faf3c49f5413fd292e2325b0fe214de144a222b00cb6ec21214fdc04b5d6c591360405160405180910390a2505050565b5f73ffffffffffffffffffffffffffffffffffffffff168373ffffffffffffffffffffffffffffffffffffffff1603610f24576040517f08c379a0000000000000000000000000000000000000000000000000000000008152600401610f1b9061204f565b60405180910390fd5b803414610f66576040517f08c379a0000000000000000000000000000000000000000000000000000000008152600401610f5d906120b7565b60405180910390fd5b60035f815480929190610f78906120d5565b91905055505f60025f60035481526020019081526020015f209050600354815f018190555081816001018190555033816002015f6101000a81548173ffffffffffffffffffffffffffffffffffffffff021916908373ffffffffffffffffffffffffffffffffffffffff16021790555083816003015f6101000a81548173ffffffffffffffffffffffffffffffffffffffff021916908373ffffffffffffffffffffffffffffffffffffffff1602179055505f8160030160146101000a81548160ff02191690836007811115611051576110506118eb565b5b02179055508281600401819055506003547f56560a52c047ed21fd801bf0f345b23d9af696f7922ff8e63101af5d48caddab3386604051611093929190612177565b60405180910390a250505050565b60015f9054906101000a900473ffffffffffffffffffffffffffffffffffffffff1673ffffffffffffffffffffffffffffffffffffffff163373ffffffffffffffffffffffffffffffffffffffff1614611130576040517f08c379a0000000000000000000000000000000000000000000000000000000008152600401611127906121e8565b60405180910390fd5b5f60025f8481526020019081526020015f20905060026007811115611158576111576118eb565b5b8160030160149054906101000a900460ff16600781111561117c5761117b6118eb565b5b146111bc576040517f08c379a00000000000000000000000000000000000000000000000000000000081526004016111b390611caf565b60405180910390fd5b806006015f9054906101000a900460ff1661120c576040517f08c379a000000000000000000000000000000000000000000000000000000000815260040161120390612250565b60405180910390fd5b81816005015414611252576040517f08c379a0000000000000000000000000000000000000000000000000000000008152600401611249906122b8565b60405180910390fd5b60038160030160146101000a81548160ff0219169083600781111561127a576112796118eb565b5b0217905550827f375b4005eeae25d0e37d56e1b3841d3bb394b277efa2548de3293f5dcb7a349360405160405180910390a2505050565b6112b961180b565b8060025f8281526020019081526020015f206003015f9054906101000a900473ffffffffffffffffffffffffffffffffffffffff1673ffffffffffffffffffffffffffffffffffffffff163373ffffffffffffffffffffffffffffffffffffffff161461135b576040517f08c379a000000000000000000000000000000000000000000000000000000000815260040161135290611d77565b60405180910390fd5b5f60025f8481526020019081526020015f20905060056007811115611383576113826118eb565b5b8160030160149054906101000a900460ff1660078111156113a7576113a66118eb565b5b14806113e85750600460078111156113c2576113c16118eb565b5b8160030160149054906101000a900460ff1660078111156113e6576113e56118eb565b5b145b611427576040517f08c379a000000000000000000000000000000000000000000000000000000000815260040161141e90612320565b60405180910390fd5b5f816001015490508060045f3373ffffffffffffffffffffffffffffffffffffffff1673ffffffffffffffffffffffffffffffffffffffff1681526020019081526020015f205410156114af576040517f08c379a00000000000000000000000000000000000000000000000000000000081526004016114a690612388565b60405180910390fd5b8060045f3373ffffffffffffffffffffffffffffffffffffffff1673ffffffffffffffffffffffffffffffffffffffff1681526020019081526020015f205f8282546114fb91906123a6565b9250508190555060068260030160146101000a81548160ff0219169083600781111561152a576115296118eb565b5b02179055503373ffffffffffffffffffffffffffffffffffffffff166108fc8290811502906040515f60405180830381858888f19350505050158015611572573d5f5f3e3d5ffd5b503373ffffffffffffffffffffffffffffffffffffffff16847ff440aec6b52895984d061d622e6edeba6210f7c3e059be920663140c084560d7836040516115ba91906118d2565b60405180910390a35050506115cd611858565b50565b600160149054906101000a900460ff1681565b6004602052805f5260405f205f915090505481565b8160025f8281526020019081526020015f206003015f9054906101000a900473ffffffffffffffffffffffffffffffffffffffff1673ffffffffffffffffffffffffffffffffffffffff163373ffffffffffffffffffffffffffffffffffffffff161461169a576040517f08c379a000000000000000000000000000000000000000000000000000000000815260040161169190611d77565b60405180910390fd5b5f60025f8581526020019081526020015f209050600160078111156116c2576116c16118eb565b5b8160030160149054906101000a900460ff1660078111156116e6576116e56118eb565b5b14611726576040517f08c379a000000000000000000000000000000000000000000000000000000000815260040161171d90612423565b60405180910390fd5b806006015f9054906101000a900460ff1615611777576040517f08c379a000000000000000000000000000000000000000000000000000000000815260040161176e9061248b565b60405180910390fd5b8281600501819055506001816006015f6101000a81548160ff02191690831515021790555060028160030160146101000a81548160ff021916908360078111156117c4576117c36118eb565b5b0217905550837f4b70739c5f0bd46e19773020c599342cdbdc3ac59b5e0abfdd9c1bb441be59c882600501546040516117fd91906124a9565b60405180910390a250505050565b60025f540361184f576040517f08c379a00000000000000000000000000000000000000000000000000000000081526004016118469061250c565b60405180910390fd5b60025f81905550565b60015f81905550565b5f5ffd5b5f819050919050565b61187781611865565b8114611881575f5ffd5b50565b5f813590506118928161186e565b92915050565b5f602082840312156118ad576118ac611861565b5b5f6118ba84828501611884565b91505092915050565b6118cc81611865565b82525050565b5f6020820190506118e55f8301846118c3565b92915050565b7f4e487b71000000000000000000000000000000000000000000000000000000005f52602160045260245ffd5b60088110611929576119286118eb565b5b50565b5f81905061193982611918565b919050565b5f6119488261192c565b9050919050565b6119588161193e565b82525050565b5f6020820190506119715f83018461194f565b92915050565b5f73ffffffffffffffffffffffffffffffffffffffff82169050919050565b5f6119a082611977565b9050919050565b6119b081611996565b82525050565b5f819050919050565b6119c8816119b6565b82525050565b5f8115159050919050565b6119e2816119ce565b82525050565b5f610100820190506119fc5f83018b6118c3565b611a09602083018a6118c3565b611a1660408301896119a7565b611a2360608301886119a7565b611a30608083018761194f565b611a3d60a08301866119bf565b611a4a60c08301856119bf565b611a5760e08301846119d9565b9998505050505050505050565b5f611a6e82611977565b9050919050565b611a7e81611a64565b8114611a88575f5ffd5b50565b5f81359050611a9981611a75565b92915050565b5f60208284031215611ab457611ab3611861565b5b5f611ac184828501611a8b565b91505092915050565b611ad381611a64565b82525050565b5f602082019050611aec5f830184611aca565b92915050565b611afb81611996565b8114611b05575f5ffd5b50565b5f81359050611b1681611af2565b92915050565b611b25816119b6565b8114611b2f575f5ffd5b50565b5f81359050611b4081611b1c565b92915050565b5f5f5f60608486031215611b5d57611b5c611861565b5b5f611b6a86828701611b08565b9350506020611b7b86828701611b32565b9250506040611b8c86828701611884565b9150509250925092565b5f5f60408385031215611bac57611bab611861565b5b5f611bb985828601611884565b9250506020611bca85828601611b32565b9150509250929050565b5f602082019050611be75f8301846119d9565b92915050565b5f82825260208201905092915050565b7f4e6f742063726561746f720000000000000000000000000000000000000000005f82015250565b5f611c31600b83611bed565b9150611c3c82611bfd565b602082019050919050565b5f6020820190508181035f830152611c5e81611c25565b9050919050565b7f57726f6e672073746174757300000000000000000000000000000000000000005f82015250565b5f611c99600c83611bed565b9150611ca482611c65565b602082019050919050565b5f6020820190508181035f830152611cc681611c8d565b9050919050565b7f4e487b71000000000000000000000000000000000000000000000000000000005f52601160045260245ffd5b5f611d0482611865565b9150611d0f83611865565b9250828201905080821115611d2757611d26611ccd565b5b92915050565b7f4e6f7420636f756e7465727061727479000000000000000000000000000000005f82015250565b5f611d61601083611bed565b9150611d6c82611d2d565b602082019050919050565b5f6020820190508181035f830152611d8e81611d55565b9050919050565b7f4f6e6c7920436f6d706c657465640000000000000000000000000000000000005f82015250565b5f611dc9600e83611bed565b9150611dd482611d95565b602082019050919050565b5f6020820190508181035f830152611df681611dbd565b9050919050565b7f4f7261636c6520616c72656164792073657400000000000000000000000000005f82015250565b5f611e31601283611bed565b9150611e3c82611dfd565b602082019050919050565b5f6020820190508181035f830152611e5e81611e25565b9050919050565b7f496e76616c6964206f7261636c650000000000000000000000000000000000005f82015250565b5f611e99600e83611bed565b9150611ea482611e65565b602082019050919050565b5f6020820190508181035f830152611ec681611e8d565b9050919050565b7f4e6f74207369676e6564000000000000000000000000000000000000000000005f82015250565b5f611f01600a83611bed565b9150611f0c82611ecd565b602082019050919050565b5f6020820190508181035f830152611f2e81611ef5565b9050919050565b7f44656c697665727920666c6f77207265717569726564000000000000000000005f82015250565b5f611f69601683611bed565b9150611f7482611f35565b602082019050919050565b5f6020820190508181035f830152611f9681611f5d565b9050919050565b7f4e6f7420437265617465640000000000000000000000000000000000000000005f82015250565b5f611fd1600b83611bed565b9150611fdc82611f9d565b602082019050919050565b5f6020820190508181035f830152611ffe81611fc5565b9050919050565b7f302061646472206e6f7420616c6c6f77656400000000000000000000000000005f82015250565b5f612039601283611bed565b915061204482612005565b602082019050919050565b5f6020820190508181035f8301526120668161202d565b9050919050565b7f455448206d69736d6174636800000000000000000000000000000000000000005f82015250565b5f6120a1600c83611bed565b91506120ac8261206d565b602082019050919050565b5f6020820190508181035f8301526120ce81612095565b9050919050565b5f6120df82611865565b91507fffffffffffffffffffffffffffffffffffffffffffffffffffffffffffffffff820361211157612110611ccd565b5b600182019050919050565b5f819050919050565b5f61213f61213a61213584611977565b61211c565b611977565b9050919050565b5f61215082612125565b9050919050565b5f61216182612146565b9050919050565b61217181612157565b82525050565b5f60408201905061218a5f830185611aca565b6121976020830184612168565b9392505050565b7f4e6f74206f7261636c65000000000000000000000000000000000000000000005f82015250565b5f6121d2600a83611bed565b91506121dd8261219e565b602082019050919050565b5f6020820190508181035f8301526121ff816121c6565b9050919050565b7f4e6f2064656c69766572790000000000000000000000000000000000000000005f82015250565b5f61223a600b83611bed565b915061224582612206565b602082019050919050565b5f6020820190508181035f8301526122678161222e565b9050919050565b7f48617368206d69736d61746368000000000000000000000000000000000000005f82015250565b5f6122a2600d83611bed565b91506122ad8261226e565b602082019050919050565b5f6020820190508181035f8301526122cf81612296565b9050919050565b7f4e6f7420776974686472617761626c65000000000000000000000000000000005f82015250565b5f61230a601083611bed565b9150612315826122d6565b602082019050919050565b5f6020820190508181035f830152612337816122fe565b9050919050565b7f4e6f2062616c616e6365000000000000000000000000000000000000000000005f82015250565b5f612372600a83611bed565b915061237d8261233e565b602082019050919050565b5f6020820190508181035f83015261239f81612366565b9050919050565b5f6123b082611865565b91506123bb83611865565b92508282039050818111156123d3576123d2611ccd565b5b92915050565b7f4e6f74205369676e6564000000000000000000000000000000000000000000005f82015250565b5f61240d600a83611bed565b9150612418826123d9565b602082019050919050565b5f6020820190508181035f83015261243a81612401565b9050919050565b7f416c7265616479207365740000000000000000000000000000000000000000005f82015250565b5f612475600b83611bed565b915061248082612441565b602082019050919050565b5f6020820190508181035f8301526124a281612469565b9050919050565b5f6020820190506124bc5f8301846119bf565b92915050565b7f5265656e7472616e637947756172643a207265656e7472616e742063616c6c005f82015250565b5f6124f6601f83611bed565b9150612501826124c2565b602082019050919050565b5f6020820190508181035f830152612523816124ea565b905091905056fea26469706673582212209a58fd161e7ad3890141e99a7b1adbaa603be70bb63ba8a625887c3a38c68fe764736f6c634300081e0033",
					"opcodes": "PUSH1 0x80 PUSH1 0x40 MSTORE CALLVALUE DUP1 ISZERO PUSH1 0xE JUMPI PUSH0 PUSH0 REVERT JUMPDEST POP PUSH1 0x1 PUSH0 DUP2 SWAP1 SSTORE POP PUSH2 0x2560 DUP1 PUSH2 0x23 PUSH0 CODECOPY PUSH0 RETURN INVALID PUSH1 0x80 PUSH1 0x40 MSTORE PUSH1 0x4 CALLDATASIZE LT PUSH2 0xE7 JUMPI PUSH0 CALLDATALOAD PUSH1 0xE0 SHR DUP1 PUSH4 0x94AEB613 GT PUSH2 0x89 JUMPI DUP1 PUSH4 0xDF5C2980 GT PUSH2 0x58 JUMPI DUP1 PUSH4 0xDF5C2980 EQ PUSH2 0x2CA JUMPI DUP1 PUSH4 0xEDB3B27A EQ PUSH2 0x2F2 JUMPI DUP1 PUSH4 0xF3F43703 EQ PUSH2 0x31C JUMPI DUP1 PUSH4 0xF436199D EQ PUSH2 0x358 JUMPI PUSH2 0xE7 JUMP JUMPDEST DUP1 PUSH4 0x94AEB613 EQ PUSH2 0x236 JUMPI DUP1 PUSH4 0x9537E8D1 EQ PUSH2 0x25E JUMPI DUP1 PUSH4 0x9CC437BA EQ PUSH2 0x286 JUMPI DUP1 PUSH4 0xA78D9BAB EQ PUSH2 0x2A2 JUMPI PUSH2 0xE7 JUMP JUMPDEST DUP1 PUSH4 0x22A45CD0 GT PUSH2 0xC5 JUMPI DUP1 PUSH4 0x22A45CD0 EQ PUSH2 0x179 JUMPI DUP1 PUSH4 0x474DA79A EQ PUSH2 0x1A1 JUMPI DUP1 PUSH4 0x7ADBF973 EQ PUSH2 0x1E4 JUMPI DUP1 PUSH4 0x7DC0D1D0 EQ PUSH2 0x20C JUMPI PUSH2 0xE7 JUMP JUMPDEST DUP1 PUSH4 0x32CA42D EQ PUSH2 0xEB JUMPI DUP1 PUSH4 0x67BD3B4 EQ PUSH2 0x113 JUMPI DUP1 PUSH4 0x17B18458 EQ PUSH2 0x13D JUMPI JUMPDEST PUSH0 PUSH0 REVERT JUMPDEST CALLVALUE DUP1 ISZERO PUSH2 0xF6 JUMPI PUSH0 PUSH0 REVERT JUMPDEST POP PUSH2 0x111 PUSH1 0x4 DUP1 CALLDATASIZE SUB DUP2 ADD SWAP1 PUSH2 0x10C SWAP2 SWAP1 PUSH2 0x1898 JUMP JUMPDEST PUSH2 0x380 JUMP JUMPDEST STOP JUMPDEST CALLVALUE DUP1 ISZERO PUSH2 0x11E JUMPI PUSH0 PUSH0 REVERT JUMPDEST POP PUSH2 0x127 PUSH2 0x5FD JUMP JUMPDEST PUSH1 0x40 MLOAD PUSH2 0x134 SWAP2 SWAP1 PUSH2 0x18D2 JUMP JUMPDEST PUSH1 0x40 MLOAD DUP1 SWAP2 SUB SWAP1 RETURN JUMPDEST CALLVALUE DUP1 ISZERO PUSH2 0x148 JUMPI PUSH0 PUSH0 REVERT JUMPDEST POP PUSH2 0x163 PUSH1 0x4 DUP1 CALLDATASIZE SUB DUP2 ADD SWAP1 PUSH2 0x15E SWAP2 SWAP1 PUSH2 0x1898 JUMP JUMPDEST PUSH2 0x603 JUMP JUMPDEST PUSH1 0x40 MLOAD PUSH2 0x170 SWAP2 SWAP1 PUSH2 0x195E JUMP JUMPDEST PUSH1 0x40 MLOAD DUP1 SWAP2 SUB SWAP1 RETURN JUMPDEST CALLVALUE DUP1 ISZERO PUSH2 0x184 JUMPI PUSH0 PUSH0 REVERT JUMPDEST POP PUSH2 0x19F PUSH1 0x4 DUP1 CALLDATASIZE SUB DUP2 ADD SWAP1 PUSH2 0x19A SWAP2 SWAP1 PUSH2 0x1898 JUMP JUMPDEST PUSH2 0x62D JUMP JUMPDEST STOP JUMPDEST CALLVALUE DUP1 ISZERO PUSH2 0x1AC JUMPI PUSH0 PUSH0 REVERT JUMPDEST POP PUSH2 0x1C7 PUSH1 0x4 DUP1 CALLDATASIZE SUB DUP2 ADD SWAP1 PUSH2 0x1C2 SWAP2 SWAP1 PUSH2 0x1898 JUMP JUMPDEST PUSH2 0x86B JUMP JUMPDEST PUSH1 0x40 MLOAD PUSH2 0x1DB SWAP9 SWAP8 SWAP7 SWAP6 SWAP5 SWAP4 SWAP3 SWAP2 SWAP1 PUSH2 0x19E8 JUMP JUMPDEST PUSH1 0x40 MLOAD DUP1 SWAP2 SUB SWAP1 RETURN JUMPDEST CALLVALUE DUP1 ISZERO PUSH2 0x1EF JUMPI PUSH0 PUSH0 REVERT JUMPDEST POP PUSH2 0x20A PUSH1 0x4 DUP1 CALLDATASIZE SUB DUP2 ADD SWAP1 PUSH2 0x205 SWAP2 SWAP1 PUSH2 0x1A9F JUMP JUMPDEST PUSH2 0x906 JUMP JUMPDEST STOP JUMPDEST CALLVALUE DUP1 ISZERO PUSH2 0x217 JUMPI PUSH0 PUSH0 REVERT JUMPDEST POP PUSH2 0x220 PUSH2 0xA64 JUMP JUMPDEST PUSH1 0x40 MLOAD PUSH2 0x22D SWAP2 SWAP1 PUSH2 0x1AD9 JUMP JUMPDEST PUSH1 0x40 MLOAD DUP1 SWAP2 SUB SWAP1 RETURN JUMPDEST CALLVALUE DUP1 ISZERO PUSH2 0x241 JUMPI PUSH0 PUSH0 REVERT JUMPDEST POP PUSH2 0x25C PUSH1 0x4 DUP1 CALLDATASIZE SUB DUP2 ADD SWAP1 PUSH2 0x257 SWAP2 SWAP1 PUSH2 0x1898 JUMP JUMPDEST PUSH2 0xA89 JUMP JUMPDEST STOP JUMPDEST CALLVALUE DUP1 ISZERO PUSH2 0x269 JUMPI PUSH0 PUSH0 REVERT JUMPDEST POP PUSH2 0x284 PUSH1 0x4 DUP1 CALLDATASIZE SUB DUP2 ADD SWAP1 PUSH2 0x27F SWAP2 SWAP1 PUSH2 0x1898 JUMP JUMPDEST PUSH2 0xD2A JUMP JUMPDEST STOP JUMPDEST PUSH2 0x2A0 PUSH1 0x4 DUP1 CALLDATASIZE SUB DUP2 ADD SWAP1 PUSH2 0x29B SWAP2 SWAP1 PUSH2 0x1B46 JUMP JUMPDEST PUSH2 0xEB6 JUMP JUMPDEST STOP JUMPDEST CALLVALUE DUP1 ISZERO PUSH2 0x2AD JUMPI PUSH0 PUSH0 REVERT JUMPDEST POP PUSH2 0x2C8 PUSH1 0x4 DUP1 CALLDATASIZE SUB DUP2 ADD SWAP1 PUSH2 0x2C3 SWAP2 SWAP1 PUSH2 0x1B96 JUMP JUMPDEST PUSH2 0x10A1 JUMP JUMPDEST STOP JUMPDEST CALLVALUE DUP1 ISZERO PUSH2 0x2D5 JUMPI PUSH0 PUSH0 REVERT JUMPDEST POP PUSH2 0x2F0 PUSH1 0x4 DUP1 CALLDATASIZE SUB DUP2 ADD SWAP1 PUSH2 0x2EB SWAP2 SWAP1 PUSH2 0x1898 JUMP JUMPDEST PUSH2 0x12B1 JUMP JUMPDEST STOP JUMPDEST CALLVALUE DUP1 ISZERO PUSH2 0x2FD JUMPI PUSH0 PUSH0 REVERT JUMPDEST POP PUSH2 0x306 PUSH2 0x15D0 JUMP JUMPDEST PUSH1 0x40 MLOAD PUSH2 0x313 SWAP2 SWAP1 PUSH2 0x1BD4 JUMP JUMPDEST PUSH1 0x40 MLOAD DUP1 SWAP2 SUB SWAP1 RETURN JUMPDEST CALLVALUE DUP1 ISZERO PUSH2 0x327 JUMPI PUSH0 PUSH0 REVERT JUMPDEST POP PUSH2 0x342 PUSH1 0x4 DUP1 CALLDATASIZE SUB DUP2 ADD SWAP1 PUSH2 0x33D SWAP2 SWAP1 PUSH2 0x1A9F JUMP JUMPDEST PUSH2 0x15E3 JUMP JUMPDEST PUSH1 0x40 MLOAD PUSH2 0x34F SWAP2 SWAP1 PUSH2 0x18D2 JUMP JUMPDEST PUSH1 0x40 MLOAD DUP1 SWAP2 SUB SWAP1 RETURN JUMPDEST CALLVALUE DUP1 ISZERO PUSH2 0x363 JUMPI PUSH0 PUSH0 REVERT JUMPDEST POP PUSH2 0x37E PUSH1 0x4 DUP1 CALLDATASIZE SUB DUP2 ADD SWAP1 PUSH2 0x379 SWAP2 SWAP1 PUSH2 0x1B96 JUMP JUMPDEST PUSH2 0x15F8 JUMP JUMPDEST STOP JUMPDEST DUP1 PUSH1 0x2 PUSH0 DUP3 DUP2 MSTORE PUSH1 0x20 ADD SWAP1 DUP2 MSTORE PUSH1 0x20 ADD PUSH0 KECCAK256 PUSH1 0x2 ADD PUSH0 SWAP1 SLOAD SWAP1 PUSH2 0x100 EXP SWAP1 DIV PUSH20 0xFFFFFFFFFFFFFFFFFFFFFFFFFFFFFFFFFFFFFFFF AND PUSH20 0xFFFFFFFFFFFFFFFFFFFFFFFFFFFFFFFFFFFFFFFF AND CALLER PUSH20 0xFFFFFFFFFFFFFFFFFFFFFFFFFFFFFFFFFFFFFFFF AND EQ PUSH2 0x422 JUMPI PUSH1 0x40 MLOAD PUSH32 0x8C379A000000000000000000000000000000000000000000000000000000000 DUP2 MSTORE PUSH1 0x4 ADD PUSH2 0x419 SWAP1 PUSH2 0x1C47 JUMP JUMPDEST PUSH1 0x40 MLOAD DUP1 SWAP2 SUB SWAP1 REVERT JUMPDEST PUSH0 PUSH1 0x2 PUSH0 DUP5 DUP2 MSTORE PUSH1 0x20 ADD SWAP1 DUP2 MSTORE PUSH1 0x20 ADD PUSH0 KECCAK256 SWAP1 POP PUSH1 0x3 PUSH1 0x7 DUP2 GT ISZERO PUSH2 0x44A JUMPI PUSH2 0x449 PUSH2 0x18EB JUMP JUMPDEST JUMPDEST DUP2 PUSH1 0x3 ADD PUSH1 0x14 SWAP1 SLOAD SWAP1 PUSH2 0x100 EXP SWAP1 DIV PUSH1 0xFF AND PUSH1 0x7 DUP2 GT ISZERO PUSH2 0x46E JUMPI PUSH2 0x46D PUSH2 0x18EB JUMP JUMPDEST JUMPDEST EQ PUSH2 0x4AE JUMPI PUSH1 0x40 MLOAD PUSH32 0x8C379A000000000000000000000000000000000000000000000000000000000 DUP2 MSTORE PUSH1 0x4 ADD PUSH2 0x4A5 SWAP1 PUSH2 0x1CAF JUMP JUMPDEST PUSH1 0x40 MLOAD DUP1 SWAP2 SUB SWAP1 REVERT JUMPDEST PUSH1 0x4 DUP2 PUSH1 0x3 ADD PUSH1 0x14 PUSH2 0x100 EXP DUP2 SLOAD DUP2 PUSH1 0xFF MUL NOT AND SWAP1 DUP4 PUSH1 0x7 DUP2 GT ISZERO PUSH2 0x4D6 JUMPI PUSH2 0x4D5 PUSH2 0x18EB JUMP JUMPDEST JUMPDEST MUL OR SWAP1 SSTORE POP DUP1 PUSH1 0x1 ADD SLOAD PUSH1 0x4 PUSH0 DUP4 PUSH1 0x3 ADD PUSH0 SWAP1 SLOAD SWAP1 PUSH2 0x100 EXP SWAP1 DIV PUSH20 0xFFFFFFFFFFFFFFFFFFFFFFFFFFFFFFFFFFFFFFFF AND PUSH20 0xFFFFFFFFFFFFFFFFFFFFFFFFFFFFFFFFFFFFFFFF AND PUSH20 0xFFFFFFFFFFFFFFFFFFFFFFFFFFFFFFFFFFFFFFFF AND DUP2 MSTORE PUSH1 0x20 ADD SWAP1 DUP2 MSTORE PUSH1 0x20 ADD PUSH0 KECCAK256 PUSH0 DUP3 DUP3 SLOAD PUSH2 0x54E SWAP2 SWAP1 PUSH2 0x1CFA JUMP JUMPDEST SWAP3 POP POP DUP2 SWAP1 SSTORE POP DUP3 PUSH32 0x5C1E662F72EE6C85181B65FAC5BEB0390932B8C472F05B257151D041AC9DDFFA PUSH1 0x40 MLOAD PUSH1 0x40 MLOAD DUP1 SWAP2 SUB SWAP1 LOG2 DUP1 PUSH1 0x3 ADD PUSH0 SWAP1 SLOAD SWAP1 PUSH2 0x100 EXP SWAP1 DIV PUSH20 0xFFFFFFFFFFFFFFFFFFFFFFFFFFFFFFFFFFFFFFFF AND PUSH20 0xFFFFFFFFFFFFFFFFFFFFFFFFFFFFFFFFFFFFFFFF AND DUP4 PUSH32 0x21D71DB5BE59BB9FA133895586B7404307DD33FB93B16DB09DC6F1D9D7D231B0 DUP4 PUSH1 0x1 ADD SLOAD PUSH1 0x40 MLOAD PUSH2 0x5F0 SWAP2 SWAP1 PUSH2 0x18D2 JUMP JUMPDEST PUSH1 0x40 MLOAD DUP1 SWAP2 SUB SWAP1 LOG3 POP POP POP JUMP JUMPDEST PUSH1 0x3 SLOAD DUP2 JUMP JUMPDEST PUSH0 PUSH1 0x2 PUSH0 DUP4 DUP2 MSTORE PUSH1 0x20 ADD SWAP1 DUP2 MSTORE PUSH1 0x20 ADD PUSH0 KECCAK256 PUSH1 0x3 ADD PUSH1 0x14 SWAP1 SLOAD SWAP1 PUSH2 0x100 EXP SWAP1 DIV PUSH1 0xFF AND SWAP1 POP SWAP2 SWAP1 POP JUMP JUMPDEST DUP1 PUSH1 0x2 PUSH0 DUP3 DUP2 MSTORE PUSH1 0x20 ADD SWAP1 DUP2 MSTORE PUSH1 0x20 ADD PUSH0 KECCAK256 PUSH1 0x3 ADD PUSH0 SWAP1 SLOAD SWAP1 PUSH2 0x100 EXP SWAP1 DIV PUSH20 0xFFFFFFFFFFFFFFFFFFFFFFFFFFFFFFFFFFFFFFFF AND PUSH20 0xFFFFFFFFFFFFFFFFFFFFFFFFFFFFFFFFFFFFFFFF AND CALLER PUSH20 0xFFFFFFFFFFFFFFFFFFFFFFFFFFFFFFFFFFFFFFFF AND EQ PUSH2 0x6CF JUMPI PUSH1 0x40 MLOAD PUSH32 0x8C379A000000000000000000000000000000000000000000000000000000000 DUP2 MSTORE PUSH1 0x4 ADD PUSH2 0x6C6 SWAP1 PUSH2 0x1D77 JUMP JUMPDEST PUSH1 0x40 MLOAD DUP1 SWAP2 SUB SWAP1 REVERT JUMPDEST DUP2 PUSH1 0x2 PUSH0 DUP3 DUP2 MSTORE PUSH1 0x20 ADD SWAP1 DUP2 MSTORE PUSH1 0x20 ADD PUSH0 KECCAK256 PUSH1 0x2 ADD PUSH0 SWAP1 SLOAD SWAP1 PUSH2 0x100 EXP SWAP1 DIV PUSH20 0xFFFFFFFFFFFFFFFFFFFFFFFFFFFFFFFFFFFFFFFF AND PUSH20 0xFFFFFFFFFFFFFFFFFFFFFFFFFFFFFFFFFFFFFFFF AND CALLER PUSH20 0xFFFFFFFFFFFFFFFFFFFFFFFFFFFFFFFFFFFFFFFF AND EQ PUSH2 0x771 JUMPI PUSH1 0x40 MLOAD PUSH32 0x8C379A000000000000000000000000000000000000000000000000000000000 DUP2 MSTORE PUSH1 0x4 ADD PUSH2 0x768 SWAP1 PUSH2 0x1C47 JUMP JUMPDEST PUSH1 0x40 MLOAD DUP1 SWAP2 SUB SWAP1 REVERT JUMPDEST PUSH0 PUSH1 0x2 PUSH0 DUP6 DUP2 MSTORE PUSH1 0x20 ADD SWAP1 DUP2 MSTORE PUSH1 0x20 ADD PUSH0 KECCAK256 SWAP1 POP PUSH1 0x6 PUSH1 0x7 DUP2 GT ISZERO PUSH2 0x799 JUMPI PUSH2 0x798 PUSH2 0x18EB JUMP JUMPDEST JUMPDEST DUP2 PUSH1 0x3 ADD PUSH1 0x14 SWAP1 SLOAD SWAP1 PUSH2 0x100 EXP SWAP1 DIV PUSH1 0xFF AND PUSH1 0x7 DUP2 GT ISZERO PUSH2 0x7BD JUMPI PUSH2 0x7BC PUSH2 0x18EB JUMP JUMPDEST JUMPDEST EQ PUSH2 0x7FD JUMPI PUSH1 0x40 MLOAD PUSH32 0x8C379A000000000000000000000000000000000000000000000000000000000 DUP2 MSTORE PUSH1 0x4 ADD PUSH2 0x7F4 SWAP1 PUSH2 0x1DDF JUMP JUMPDEST PUSH1 0x40 MLOAD DUP1 SWAP2 SUB SWAP1 REVERT JUMPDEST DUP1 PUSH1 0x4 ADD PUSH0 SWAP1 SSTORE DUP1 PUSH1 0x5 ADD PUSH0 SWAP1 SSTORE PUSH1 0x7 DUP2 PUSH1 0x3 ADD PUSH1 0x14 PUSH2 0x100 EXP DUP2 SLOAD DUP2 PUSH1 0xFF MUL NOT AND SWAP1 DUP4 PUSH1 0x7 DUP2 GT ISZERO PUSH2 0x833 JUMPI PUSH2 0x832 PUSH2 0x18EB JUMP JUMPDEST JUMPDEST MUL OR SWAP1 SSTORE POP DUP4 PUSH32 0x741B099F015E1976CFA72A7448A8FB1D54EAB1D616241B562CFBE603A2B61B42 PUSH1 0x40 MLOAD PUSH1 0x40 MLOAD DUP1 SWAP2 SUB SWAP1 LOG2 POP POP POP POP JUMP JUMPDEST PUSH1 0x2 PUSH1 0x20 MSTORE DUP1 PUSH0 MSTORE PUSH1 0x40 PUSH0 KECCAK256 PUSH0 SWAP2 POP SWAP1 POP DUP1 PUSH0 ADD SLOAD SWAP1 DUP1 PUSH1 0x1 ADD SLOAD SWAP1 DUP1 PUSH1 0x2 ADD PUSH0 SWAP1 SLOAD SWAP1 PUSH2 0x100 EXP SWAP1 DIV PUSH20 0xFFFFFFFFFFFFFFFFFFFFFFFFFFFFFFFFFFFFFFFF AND SWAP1 DUP1 PUSH1 0x3 ADD PUSH0 SWAP1 SLOAD SWAP1 PUSH2 0x100 EXP SWAP1 DIV PUSH20 0xFFFFFFFFFFFFFFFFFFFFFFFFFFFFFFFFFFFFFFFF AND SWAP1 DUP1 PUSH1 0x3 ADD PUSH1 0x14 SWAP1 SLOAD SWAP1 PUSH2 0x100 EXP SWAP1 DIV PUSH1 0xFF AND SWAP1 DUP1 PUSH1 0x4 ADD SLOAD SWAP1 DUP1 PUSH1 0x5 ADD SLOAD SWAP1 DUP1 PUSH1 0x6 ADD PUSH0 SWAP1 SLOAD SWAP1 PUSH2 0x100 EXP SWAP1 DIV PUSH1 0xFF AND SWAP1 POP DUP9 JUMP JUMPDEST PUSH1 0x1 PUSH1 0x14 SWAP1 SLOAD SWAP1 PUSH2 0x100 EXP SWAP1 DIV PUSH1 0xFF AND ISZERO PUSH2 0x956 JUMPI PUSH1 0x40 MLOAD PUSH32 0x8C379A000000000000000000000000000000000000000000000000000000000 DUP2 MSTORE PUSH1 0x4 ADD PUSH2 0x94D SWAP1 PUSH2 0x1E47 JUMP JUMPDEST PUSH1 0x40 MLOAD DUP1 SWAP2 SUB SWAP1 REVERT JUMPDEST PUSH0 PUSH20 0xFFFFFFFFFFFFFFFFFFFFFFFFFFFFFFFFFFFFFFFF AND DUP2 PUSH20 0xFFFFFFFFFFFFFFFFFFFFFFFFFFFFFFFFFFFFFFFF AND SUB PUSH2 0x9C4 JUMPI PUSH1 0x40 MLOAD PUSH32 0x8C379A000000000000000000000000000000000000000000000000000000000 DUP2 MSTORE PUSH1 0x4 ADD PUSH2 0x9BB SWAP1 PUSH2 0x1EAF JUMP JUMPDEST PUSH1 0x40 MLOAD DUP1 SWAP2 SUB SWAP1 REVERT JUMPDEST DUP1 PUSH1 0x1 PUSH0 PUSH2 0x100 EXP DUP2 SLOAD DUP2 PUSH20 0xFFFFFFFFFFFFFFFFFFFFFFFFFFFFFFFFFFFFFFFF MUL NOT AND SWAP1 DUP4 PUSH20 0xFFFFFFFFFFFFFFFFFFFFFFFFFFFFFFFFFFFFFFFF AND MUL OR SWAP1 SSTORE POP PUSH1 0x1 DUP1 PUSH1 0x14 PUSH2 0x100 EXP DUP2 SLOAD DUP2 PUSH1 0xFF MUL NOT AND SWAP1 DUP4 ISZERO ISZERO MUL OR SWAP1 SSTORE POP DUP1 PUSH20 0xFFFFFFFFFFFFFFFFFFFFFFFFFFFFFFFFFFFFFFFF AND PUSH32 0x3F32684A32A11DABDBB8C0177DE80AA3AE36A004D75210335B49E544E48CD0AA PUSH1 0x40 MLOAD PUSH1 0x40 MLOAD DUP1 SWAP2 SUB SWAP1 LOG2 POP JUMP JUMPDEST PUSH1 0x1 PUSH0 SWAP1 SLOAD SWAP1 PUSH2 0x100 EXP SWAP1 DIV PUSH20 0xFFFFFFFFFFFFFFFFFFFFFFFFFFFFFFFFFFFFFFFF AND DUP2 JUMP JUMPDEST DUP1 PUSH1 0x2 PUSH0 DUP3 DUP2 MSTORE PUSH1 0x20 ADD SWAP1 DUP2 MSTORE PUSH1 0x20 ADD PUSH0 KECCAK256 PUSH1 0x2 ADD PUSH0 SWAP1 SLOAD SWAP1 PUSH2 0x100 EXP SWAP1 DIV PUSH20 0xFFFFFFFFFFFFFFFFFFFFFFFFFFFFFFFFFFFFFFFF AND PUSH20 0xFFFFFFFFFFFFFFFFFFFFFFFFFFFFFFFFFFFFFFFF AND CALLER PUSH20 0xFFFFFFFFFFFFFFFFFFFFFFFFFFFFFFFFFFFFFFFF AND EQ PUSH2 0xB2B JUMPI PUSH1 0x40 MLOAD PUSH32 0x8C379A000000000000000000000000000000000000000000000000000000000 DUP2 MSTORE PUSH1 0x4 ADD PUSH2 0xB22 SWAP1 PUSH2 0x1C47 JUMP JUMPDEST PUSH1 0x40 MLOAD DUP1 SWAP2 SUB SWAP1 REVERT JUMPDEST PUSH0 PUSH1 0x2 PUSH0 DUP5 DUP2 MSTORE PUSH1 0x20 ADD SWAP1 DUP2 MSTORE PUSH1 0x20 ADD PUSH0 KECCAK256 SWAP1 POP PUSH1 0x1 PUSH1 0x7 DUP2 GT ISZERO PUSH2 0xB53 JUMPI PUSH2 0xB52 PUSH2 0x18EB JUMP JUMPDEST JUMPDEST DUP2 PUSH1 0x3 ADD PUSH1 0x14 SWAP1 SLOAD SWAP1 PUSH2 0x100 EXP SWAP1 DIV PUSH1 0xFF AND PUSH1 0x7 DUP2 GT ISZERO PUSH2 0xB77 JUMPI PUSH2 0xB76 PUSH2 0x18EB JUMP JUMPDEST JUMPDEST EQ PUSH2 0xBB7 JUMPI PUSH1 0x40 MLOAD PUSH32 0x8C379A000000000000000000000000000000000000000000000000000000000 DUP2 MSTORE PUSH1 0x4 ADD PUSH2 0xBAE SWAP1 PUSH2 0x1F17 JUMP JUMPDEST PUSH1 0x40 MLOAD DUP1 SWAP2 SUB SWAP1 REVERT JUMPDEST DUP1 PUSH1 0x6 ADD PUSH0 SWAP1 SLOAD SWAP1 PUSH2 0x100 EXP SWAP1 DIV PUSH1 0xFF AND ISZERO PUSH2 0xC08 JUMPI PUSH1 0x40 MLOAD PUSH32 0x8C379A000000000000000000000000000000000000000000000000000000000 DUP2 MSTORE PUSH1 0x4 ADD PUSH2 0xBFF SWAP1 PUSH2 0x1F7F JUMP JUMPDEST PUSH1 0x40 MLOAD DUP1 SWAP2 SUB SWAP1 REVERT JUMPDEST PUSH1 0x5 DUP2 PUSH1 0x3 ADD PUSH1 0x14 PUSH2 0x100 EXP DUP2 SLOAD DUP2 PUSH1 0xFF MUL NOT AND SWAP1 DUP4 PUSH1 0x7 DUP2 GT ISZERO PUSH2 0xC30 JUMPI PUSH2 0xC2F PUSH2 0x18EB JUMP JUMPDEST JUMPDEST MUL OR SWAP1 SSTORE POP DUP1 PUSH1 0x1 ADD SLOAD PUSH1 0x4 PUSH0 DUP4 PUSH1 0x3 ADD PUSH0 SWAP1 SLOAD SWAP1 PUSH2 0x100 EXP SWAP1 DIV PUSH20 0xFFFFFFFFFFFFFFFFFFFFFFFFFFFFFFFFFFFFFFFF AND PUSH20 0xFFFFFFFFFFFFFFFFFFFFFFFFFFFFFFFFFFFFFFFF AND PUSH20 0xFFFFFFFFFFFFFFFFFFFFFFFFFFFFFFFFFFFFFFFF AND DUP2 MSTORE PUSH1 0x20 ADD SWAP1 DUP2 MSTORE PUSH1 0x20 ADD PUSH0 KECCAK256 PUSH0 DUP3 DUP3 SLOAD PUSH2 0xCA8 SWAP2 SWAP1 PUSH2 0x1CFA JUMP JUMPDEST SWAP3 POP POP DUP2 SWAP1 SSTORE POP DUP1 PUSH1 0x3 ADD PUSH0 SWAP1 SLOAD SWAP1 PUSH2 0x100 EXP SWAP1 DIV PUSH20 0xFFFFFFFFFFFFFFFFFFFFFFFFFFFFFFFFFFFFFFFF AND PUSH20 0xFFFFFFFFFFFFFFFFFFFFFFFFFFFFFFFFFFFFFFFF AND DUP4 PUSH32 0x21D71DB5BE59BB9FA133895586B7404307DD33FB93B16DB09DC6F1D9D7D231B0 DUP4 PUSH1 0x1 ADD SLOAD PUSH1 0x40 MLOAD PUSH2 0xD1D SWAP2 SWAP1 PUSH2 0x18D2 JUMP JUMPDEST PUSH1 0x40 MLOAD DUP1 SWAP2 SUB SWAP1 LOG3 POP POP POP JUMP JUMPDEST DUP1 PUSH1 0x2 PUSH0 DUP3 DUP2 MSTORE PUSH1 0x20 ADD SWAP1 DUP2 MSTORE PUSH1 0x20 ADD PUSH0 KECCAK256 PUSH1 0x3 ADD PUSH0 SWAP1 SLOAD SWAP1 PUSH2 0x100 EXP SWAP1 DIV PUSH20 0xFFFFFFFFFFFFFFFFFFFFFFFFFFFFFFFFFFFFFFFF AND PUSH20 0xFFFFFFFFFFFFFFFFFFFFFFFFFFFFFFFFFFFFFFFF AND CALLER PUSH20 0xFFFFFFFFFFFFFFFFFFFFFFFFFFFFFFFFFFFFFFFF AND EQ PUSH2 0xDCC JUMPI PUSH1 0x40 MLOAD PUSH32 0x8C379A000000000000000000000000000000000000000000000000000000000 DUP2 MSTORE PUSH1 0x4 ADD PUSH2 0xDC3 SWAP1 PUSH2 0x1D77 JUMP JUMPDEST PUSH1 0x40 MLOAD DUP1 SWAP2 SUB SWAP1 REVERT JUMPDEST PUSH0 PUSH1 0x2 PUSH0 DUP5 DUP2 MSTORE PUSH1 0x20 ADD SWAP1 DUP2 MSTORE PUSH1 0x20 ADD PUSH0 KECCAK256 SWAP1 POP PUSH0 PUSH1 0x7 DUP2 GT ISZERO PUSH2 0xDF3 JUMPI PUSH2 0xDF2 PUSH2 0x18EB JUMP JUMPDEST JUMPDEST DUP2 PUSH1 0x3 ADD PUSH1 0x14 SWAP1 SLOAD SWAP1 PUSH2 0x100 EXP SWAP1 DIV PUSH1 0xFF AND PUSH1 0x7 DUP2 GT ISZERO PUSH2 0xE17 JUMPI PUSH2 0xE16 PUSH2 0x18EB JUMP JUMPDEST JUMPDEST EQ PUSH2 0xE57 JUMPI PUSH1 0x40 MLOAD PUSH32 0x8C379A000000000000000000000000000000000000000000000000000000000 DUP2 MSTORE PUSH1 0x4 ADD PUSH2 0xE4E SWAP1 PUSH2 0x1FE7 JUMP JUMPDEST PUSH1 0x40 MLOAD DUP1 SWAP2 SUB SWAP1 REVERT JUMPDEST PUSH1 0x1 DUP2 PUSH1 0x3 ADD PUSH1 0x14 PUSH2 0x100 EXP DUP2 SLOAD DUP2 PUSH1 0xFF MUL NOT AND SWAP1 DUP4 PUSH1 0x7 DUP2 GT ISZERO PUSH2 0xE7F JUMPI PUSH2 0xE7E PUSH2 0x18EB JUMP JUMPDEST JUMPDEST MUL OR SWAP1 SSTORE POP DUP3 PUSH32 0xAF3C49F5413FD292E2325B0FE214DE144A222B00CB6EC21214FDC04B5D6C5913 PUSH1 0x40 MLOAD PUSH1 0x40 MLOAD DUP1 SWAP2 SUB SWAP1 LOG2 POP POP POP JUMP JUMPDEST PUSH0 PUSH20 0xFFFFFFFFFFFFFFFFFFFFFFFFFFFFFFFFFFFFFFFF AND DUP4 PUSH20 0xFFFFFFFFFFFFFFFFFFFFFFFFFFFFFFFFFFFFFFFF AND SUB PUSH2 0xF24 JUMPI PUSH1 0x40 MLOAD PUSH32 0x8C379A000000000000000000000000000000000000000000000000000000000 DUP2 MSTORE PUSH1 0x4 ADD PUSH2 0xF1B SWAP1 PUSH2 0x204F JUMP JUMPDEST PUSH1 0x40 MLOAD DUP1 SWAP2 SUB SWAP1 REVERT JUMPDEST DUP1 CALLVALUE EQ PUSH2 0xF66 JUMPI PUSH1 0x40 MLOAD PUSH32 0x8C379A000000000000000000000000000000000000000000000000000000000 DUP2 MSTORE PUSH1 0x4 ADD PUSH2 0xF5D SWAP1 PUSH2 0x20B7 JUMP JUMPDEST PUSH1 0x40 MLOAD DUP1 SWAP2 SUB SWAP1 REVERT JUMPDEST PUSH1 0x3 PUSH0 DUP2 SLOAD DUP1 SWAP3 SWAP2 SWAP1 PUSH2 0xF78 SWAP1 PUSH2 0x20D5 JUMP JUMPDEST SWAP2 SWAP1 POP SSTORE POP PUSH0 PUSH1 0x2 PUSH0 PUSH1 0x3 SLOAD DUP2 MSTORE PUSH1 0x20 ADD SWAP1 DUP2 MSTORE PUSH1 0x20 ADD PUSH0 KECCAK256 SWAP1 POP PUSH1 0x3 SLOAD DUP2 PUSH0 ADD DUP2 SWAP1 SSTORE POP DUP2 DUP2 PUSH1 0x1 ADD DUP2 SWAP1 SSTORE POP CALLER DUP2 PUSH1 0x2 ADD PUSH0 PUSH2 0x100 EXP DUP2 SLOAD DUP2 PUSH20 0xFFFFFFFFFFFFFFFFFFFFFFFFFFFFFFFFFFFFFFFF MUL NOT AND SWAP1 DUP4 PUSH20 0xFFFFFFFFFFFFFFFFFFFFFFFFFFFFFFFFFFFFFFFF AND MUL OR SWAP1 SSTORE POP DUP4 DUP2 PUSH1 0x3 ADD PUSH0 PUSH2 0x100 EXP DUP2 SLOAD DUP2 PUSH20 0xFFFFFFFFFFFFFFFFFFFFFFFFFFFFFFFFFFFFFFFF MUL NOT AND SWAP1 DUP4 PUSH20 0xFFFFFFFFFFFFFFFFFFFFFFFFFFFFFFFFFFFFFFFF AND MUL OR SWAP1 SSTORE POP PUSH0 DUP2 PUSH1 0x3 ADD PUSH1 0x14 PUSH2 0x100 EXP DUP2 SLOAD DUP2 PUSH1 0xFF MUL NOT AND SWAP1 DUP4 PUSH1 0x7 DUP2 GT ISZERO PUSH2 0x1051 JUMPI PUSH2 0x1050 PUSH2 0x18EB JUMP JUMPDEST JUMPDEST MUL OR SWAP1 SSTORE POP DUP3 DUP2 PUSH1 0x4 ADD DUP2 SWAP1 SSTORE POP PUSH1 0x3 SLOAD PUSH32 0x56560A52C047ED21FD801BF0F345B23D9AF696F7922FF8E63101AF5D48CADDAB CALLER DUP7 PUSH1 0x40 MLOAD PUSH2 0x1093 SWAP3 SWAP2 SWAP1 PUSH2 0x2177 JUMP JUMPDEST PUSH1 0x40 MLOAD DUP1 SWAP2 SUB SWAP1 LOG2 POP POP POP POP JUMP JUMPDEST PUSH1 0x1 PUSH0 SWAP1 SLOAD SWAP1 PUSH2 0x100 EXP SWAP1 DIV PUSH20 0xFFFFFFFFFFFFFFFFFFFFFFFFFFFFFFFFFFFFFFFF AND PUSH20 0xFFFFFFFFFFFFFFFFFFFFFFFFFFFFFFFFFFFFFFFF AND CALLER PUSH20 0xFFFFFFFFFFFFFFFFFFFFFFFFFFFFFFFFFFFFFFFF AND EQ PUSH2 0x1130 JUMPI PUSH1 0x40 MLOAD PUSH32 0x8C379A000000000000000000000000000000000000000000000000000000000 DUP2 MSTORE PUSH1 0x4 ADD PUSH2 0x1127 SWAP1 PUSH2 0x21E8 JUMP JUMPDEST PUSH1 0x40 MLOAD DUP1 SWAP2 SUB SWAP1 REVERT JUMPDEST PUSH0 PUSH1 0x2 PUSH0 DUP5 DUP2 MSTORE PUSH1 0x20 ADD SWAP1 DUP2 MSTORE PUSH1 0x20 ADD PUSH0 KECCAK256 SWAP1 POP PUSH1 0x2 PUSH1 0x7 DUP2 GT ISZERO PUSH2 0x1158 JUMPI PUSH2 0x1157 PUSH2 0x18EB JUMP JUMPDEST JUMPDEST DUP2 PUSH1 0x3 ADD PUSH1 0x14 SWAP1 SLOAD SWAP1 PUSH2 0x100 EXP SWAP1 DIV PUSH1 0xFF AND PUSH1 0x7 DUP2 GT ISZERO PUSH2 0x117C JUMPI PUSH2 0x117B PUSH2 0x18EB JUMP JUMPDEST JUMPDEST EQ PUSH2 0x11BC JUMPI PUSH1 0x40 MLOAD PUSH32 0x8C379A000000000000000000000000000000000000000000000000000000000 DUP2 MSTORE PUSH1 0x4 ADD PUSH2 0x11B3 SWAP1 PUSH2 0x1CAF JUMP JUMPDEST PUSH1 0x40 MLOAD DUP1 SWAP2 SUB SWAP1 REVERT JUMPDEST DUP1 PUSH1 0x6 ADD PUSH0 SWAP1 SLOAD SWAP1 PUSH2 0x100 EXP SWAP1 DIV PUSH1 0xFF AND PUSH2 0x120C JUMPI PUSH1 0x40 MLOAD PUSH32 0x8C379A000000000000000000000000000000000000000000000000000000000 DUP2 MSTORE PUSH1 0x4 ADD PUSH2 0x1203 SWAP1 PUSH2 0x2250 JUMP JUMPDEST PUSH1 0x40 MLOAD DUP1 SWAP2 SUB SWAP1 REVERT JUMPDEST DUP2 DUP2 PUSH1 0x5 ADD SLOAD EQ PUSH2 0x1252 JUMPI PUSH1 0x40 MLOAD PUSH32 0x8C379A000000000000000000000000000000000000000000000000000000000 DUP2 MSTORE PUSH1 0x4 ADD PUSH2 0x1249 SWAP1 PUSH2 0x22B8 JUMP JUMPDEST PUSH1 0x40 MLOAD DUP1 SWAP2 SUB SWAP1 REVERT JUMPDEST PUSH1 0x3 DUP2 PUSH1 0x3 ADD PUSH1 0x14 PUSH2 0x100 EXP DUP2 SLOAD DUP2 PUSH1 0xFF MUL NOT AND SWAP1 DUP4 PUSH1 0x7 DUP2 GT ISZERO PUSH2 0x127A JUMPI PUSH2 0x1279 PUSH2 0x18EB JUMP JUMPDEST JUMPDEST MUL OR SWAP1 SSTORE POP DUP3 PUSH32 0x375B4005EEAE25D0E37D56E1B3841D3BB394B277EFA2548DE3293F5DCB7A3493 PUSH1 0x40 MLOAD PUSH1 0x40 MLOAD DUP1 SWAP2 SUB SWAP1 LOG2 POP POP POP JUMP JUMPDEST PUSH2 0x12B9 PUSH2 0x180B JUMP JUMPDEST DUP1 PUSH1 0x2 PUSH0 DUP3 DUP2 MSTORE PUSH1 0x20 ADD SWAP1 DUP2 MSTORE PUSH1 0x20 ADD PUSH0 KECCAK256 PUSH1 0x3 ADD PUSH0 SWAP1 SLOAD SWAP1 PUSH2 0x100 EXP SWAP1 DIV PUSH20 0xFFFFFFFFFFFFFFFFFFFFFFFFFFFFFFFFFFFFFFFF AND PUSH20 0xFFFFFFFFFFFFFFFFFFFFFFFFFFFFFFFFFFFFFFFF AND CALLER PUSH20 0xFFFFFFFFFFFFFFFFFFFFFFFFFFFFFFFFFFFFFFFF AND EQ PUSH2 0x135B JUMPI PUSH1 0x40 MLOAD PUSH32 0x8C379A000000000000000000000000000000000000000000000000000000000 DUP2 MSTORE PUSH1 0x4 ADD PUSH2 0x1352 SWAP1 PUSH2 0x1D77 JUMP JUMPDEST PUSH1 0x40 MLOAD DUP1 SWAP2 SUB SWAP1 REVERT JUMPDEST PUSH0 PUSH1 0x2 PUSH0 DUP5 DUP2 MSTORE PUSH1 0x20 ADD SWAP1 DUP2 MSTORE PUSH1 0x20 ADD PUSH0 KECCAK256 SWAP1 POP PUSH1 0x5 PUSH1 0x7 DUP2 GT ISZERO PUSH2 0x1383 JUMPI PUSH2 0x1382 PUSH2 0x18EB JUMP JUMPDEST JUMPDEST DUP2 PUSH1 0x3 ADD PUSH1 0x14 SWAP1 SLOAD SWAP1 PUSH2 0x100 EXP SWAP1 DIV PUSH1 0xFF AND PUSH1 0x7 DUP2 GT ISZERO PUSH2 0x13A7 JUMPI PUSH2 0x13A6 PUSH2 0x18EB JUMP JUMPDEST JUMPDEST EQ DUP1 PUSH2 0x13E8 JUMPI POP PUSH1 0x4 PUSH1 0x7 DUP2 GT ISZERO PUSH2 0x13C2 JUMPI PUSH2 0x13C1 PUSH2 0x18EB JUMP JUMPDEST JUMPDEST DUP2 PUSH1 0x3 ADD PUSH1 0x14 SWAP1 SLOAD SWAP1 PUSH2 0x100 EXP SWAP1 DIV PUSH1 0xFF AND PUSH1 0x7 DUP2 GT ISZERO PUSH2 0x13E6 JUMPI PUSH2 0x13E5 PUSH2 0x18EB JUMP JUMPDEST JUMPDEST EQ JUMPDEST PUSH2 0x1427 JUMPI PUSH1 0x40 MLOAD PUSH32 0x8C379A000000000000000000000000000000000000000000000000000000000 DUP2 MSTORE PUSH1 0x4 ADD PUSH2 0x141E SWAP1 PUSH2 0x2320 JUMP JUMPDEST PUSH1 0x40 MLOAD DUP1 SWAP2 SUB SWAP1 REVERT JUMPDEST PUSH0 DUP2 PUSH1 0x1 ADD SLOAD SWAP1 POP DUP1 PUSH1 0x4 PUSH0 CALLER PUSH20 0xFFFFFFFFFFFFFFFFFFFFFFFFFFFFFFFFFFFFFFFF AND PUSH20 0xFFFFFFFFFFFFFFFFFFFFFFFFFFFFFFFFFFFFFFFF AND DUP2 MSTORE PUSH1 0x20 ADD SWAP1 DUP2 MSTORE PUSH1 0x20 ADD PUSH0 KECCAK256 SLOAD LT ISZERO PUSH2 0x14AF JUMPI PUSH1 0x40 MLOAD PUSH32 0x8C379A000000000000000000000000000000000000000000000000000000000 DUP2 MSTORE PUSH1 0x4 ADD PUSH2 0x14A6 SWAP1 PUSH2 0x2388 JUMP JUMPDEST PUSH1 0x40 MLOAD DUP1 SWAP2 SUB SWAP1 REVERT JUMPDEST DUP1 PUSH1 0x4 PUSH0 CALLER PUSH20 0xFFFFFFFFFFFFFFFFFFFFFFFFFFFFFFFFFFFFFFFF AND PUSH20 0xFFFFFFFFFFFFFFFFFFFFFFFFFFFFFFFFFFFFFFFF AND DUP2 MSTORE PUSH1 0x20 ADD SWAP1 DUP2 MSTORE PUSH1 0x20 ADD PUSH0 KECCAK256 PUSH0 DUP3 DUP3 SLOAD PUSH2 0x14FB SWAP2 SWAP1 PUSH2 0x23A6 JUMP JUMPDEST SWAP3 POP POP DUP2 SWAP1 SSTORE POP PUSH1 0x6 DUP3 PUSH1 0x3 ADD PUSH1 0x14 PUSH2 0x100 EXP DUP2 SLOAD DUP2 PUSH1 0xFF MUL NOT AND SWAP1 DUP4 PUSH1 0x7 DUP2 GT ISZERO PUSH2 0x152A JUMPI PUSH2 0x1529 PUSH2 0x18EB JUMP JUMPDEST JUMPDEST MUL OR SWAP1 SSTORE POP CALLER PUSH20 0xFFFFFFFFFFFFFFFFFFFFFFFFFFFFFFFFFFFFFFFF AND PUSH2 0x8FC DUP3 SWAP1 DUP2 ISZERO MUL SWAP1 PUSH1 0x40 MLOAD PUSH0 PUSH1 0x40 MLOAD DUP1 DUP4 SUB DUP2 DUP6 DUP9 DUP9 CALL SWAP4 POP POP POP POP ISZERO DUP1 ISZERO PUSH2 0x1572 JUMPI RETURNDATASIZE PUSH0 PUSH0 RETURNDATACOPY RETURNDATASIZE PUSH0 REVERT JUMPDEST POP CALLER PUSH20 0xFFFFFFFFFFFFFFFFFFFFFFFFFFFFFFFFFFFFFFFF AND DUP5 PUSH32 0xF440AEC6B52895984D061D622E6EDEBA6210F7C3E059BE920663140C084560D7 DUP4 PUSH1 0x40 MLOAD PUSH2 0x15BA SWAP2 SWAP1 PUSH2 0x18D2 JUMP JUMPDEST PUSH1 0x40 MLOAD DUP1 SWAP2 SUB SWAP1 LOG3 POP POP POP PUSH2 0x15CD PUSH2 0x1858 JUMP JUMPDEST POP JUMP JUMPDEST PUSH1 0x1 PUSH1 0x14 SWAP1 SLOAD SWAP1 PUSH2 0x100 EXP SWAP1 DIV PUSH1 0xFF AND DUP2 JUMP JUMPDEST PUSH1 0x4 PUSH1 0x20 MSTORE DUP1 PUSH0 MSTORE PUSH1 0x40 PUSH0 KECCAK256 PUSH0 SWAP2 POP SWAP1 POP SLOAD DUP2 JUMP JUMPDEST DUP2 PUSH1 0x2 PUSH0 DUP3 DUP2 MSTORE PUSH1 0x20 ADD SWAP1 DUP2 MSTORE PUSH1 0x20 ADD PUSH0 KECCAK256 PUSH1 0x3 ADD PUSH0 SWAP1 SLOAD SWAP1 PUSH2 0x100 EXP SWAP1 DIV PUSH20 0xFFFFFFFFFFFFFFFFFFFFFFFFFFFFFFFFFFFFFFFF AND PUSH20 0xFFFFFFFFFFFFFFFFFFFFFFFFFFFFFFFFFFFFFFFF AND CALLER PUSH20 0xFFFFFFFFFFFFFFFFFFFFFFFFFFFFFFFFFFFFFFFF AND EQ PUSH2 0x169A JUMPI PUSH1 0x40 MLOAD PUSH32 0x8C379A000000000000000000000000000000000000000000000000000000000 DUP2 MSTORE PUSH1 0x4 ADD PUSH2 0x1691 SWAP1 PUSH2 0x1D77 JUMP JUMPDEST PUSH1 0x40 MLOAD DUP1 SWAP2 SUB SWAP1 REVERT JUMPDEST PUSH0 PUSH1 0x2 PUSH0 DUP6 DUP2 MSTORE PUSH1 0x20 ADD SWAP1 DUP2 MSTORE PUSH1 0x20 ADD PUSH0 KECCAK256 SWAP1 POP PUSH1 0x1 PUSH1 0x7 DUP2 GT ISZERO PUSH2 0x16C2 JUMPI PUSH2 0x16C1 PUSH2 0x18EB JUMP JUMPDEST JUMPDEST DUP2 PUSH1 0x3 ADD PUSH1 0x14 SWAP1 SLOAD SWAP1 PUSH2 0x100 EXP SWAP1 DIV PUSH1 0xFF AND PUSH1 0x7 DUP2 GT ISZERO PUSH2 0x16E6 JUMPI PUSH2 0x16E5 PUSH2 0x18EB JUMP JUMPDEST JUMPDEST EQ PUSH2 0x1726 JUMPI PUSH1 0x40 MLOAD PUSH32 0x8C379A000000000000000000000000000000000000000000000000000000000 DUP2 MSTORE PUSH1 0x4 ADD PUSH2 0x171D SWAP1 PUSH2 0x2423 JUMP JUMPDEST PUSH1 0x40 MLOAD DUP1 SWAP2 SUB SWAP1 REVERT JUMPDEST DUP1 PUSH1 0x6 ADD PUSH0 SWAP1 SLOAD SWAP1 PUSH2 0x100 EXP SWAP1 DIV PUSH1 0xFF AND ISZERO PUSH2 0x1777 JUMPI PUSH1 0x40 MLOAD PUSH32 0x8C379A000000000000000000000000000000000000000000000000000000000 DUP2 MSTORE PUSH1 0x4 ADD PUSH2 0x176E SWAP1 PUSH2 0x248B JUMP JUMPDEST PUSH1 0x40 MLOAD DUP1 SWAP2 SUB SWAP1 REVERT JUMPDEST DUP3 DUP2 PUSH1 0x5 ADD DUP2 SWAP1 SSTORE POP PUSH1 0x1 DUP2 PUSH1 0x6 ADD PUSH0 PUSH2 0x100 EXP DUP2 SLOAD DUP2 PUSH1 0xFF MUL NOT AND SWAP1 DUP4 ISZERO ISZERO MUL OR SWAP1 SSTORE POP PUSH1 0x2 DUP2 PUSH1 0x3 ADD PUSH1 0x14 PUSH2 0x100 EXP DUP2 SLOAD DUP2 PUSH1 0xFF MUL NOT AND SWAP1 DUP4 PUSH1 0x7 DUP2 GT ISZERO PUSH2 0x17C4 JUMPI PUSH2 0x17C3 PUSH2 0x18EB JUMP JUMPDEST JUMPDEST MUL OR SWAP1 SSTORE POP DUP4 PUSH32 0x4B70739C5F0BD46E19773020C599342CDBDC3AC59B5E0ABFDD9C1BB441BE59C8 DUP3 PUSH1 0x5 ADD SLOAD PUSH1 0x40 MLOAD PUSH2 0x17FD SWAP2 SWAP1 PUSH2 0x24A9 JUMP JUMPDEST PUSH1 0x40 MLOAD DUP1 SWAP2 SUB SWAP1 LOG2 POP POP POP POP JUMP JUMPDEST PUSH1 0x2 PUSH0 SLOAD SUB PUSH2 0x184F JUMPI PUSH1 0x40 MLOAD PUSH32 0x8C379A000000000000000000000000000000000000000000000000000000000 DUP2 MSTORE PUSH1 0x4 ADD PUSH2 0x1846 SWAP1 PUSH2 0x250C JUMP JUMPDEST PUSH1 0x40 MLOAD DUP1 SWAP2 SUB SWAP1 REVERT JUMPDEST PUSH1 0x2 PUSH0 DUP2 SWAP1 SSTORE POP JUMP JUMPDEST PUSH1 0x1 PUSH0 DUP2 SWAP1 SSTORE POP JUMP JUMPDEST PUSH0 PUSH0 REVERT JUMPDEST PUSH0 DUP2 SWAP1 POP SWAP2 SWAP1 POP JUMP JUMPDEST PUSH2 0x1877 DUP2 PUSH2 0x1865 JUMP JUMPDEST DUP2 EQ PUSH2 0x1881 JUMPI PUSH0 PUSH0 REVERT JUMPDEST POP JUMP JUMPDEST PUSH0 DUP2 CALLDATALOAD SWAP1 POP PUSH2 0x1892 DUP2 PUSH2 0x186E JUMP JUMPDEST SWAP3 SWAP2 POP POP JUMP JUMPDEST PUSH0 PUSH1 0x20 DUP3 DUP5 SUB SLT ISZERO PUSH2 0x18AD JUMPI PUSH2 0x18AC PUSH2 0x1861 JUMP JUMPDEST JUMPDEST PUSH0 PUSH2 0x18BA DUP5 DUP3 DUP6 ADD PUSH2 0x1884 JUMP JUMPDEST SWAP2 POP POP SWAP3 SWAP2 POP POP JUMP JUMPDEST PUSH2 0x18CC DUP2 PUSH2 0x1865 JUMP JUMPDEST DUP3 MSTORE POP POP JUMP JUMPDEST PUSH0 PUSH1 0x20 DUP3 ADD SWAP1 POP PUSH2 0x18E5 PUSH0 DUP4 ADD DUP5 PUSH2 0x18C3 JUMP JUMPDEST SWAP3 SWAP2 POP POP JUMP JUMPDEST PUSH32 0x4E487B7100000000000000000000000000000000000000000000000000000000 PUSH0 MSTORE PUSH1 0x21 PUSH1 0x4 MSTORE PUSH1 0x24 PUSH0 REVERT JUMPDEST PUSH1 0x8 DUP2 LT PUSH2 0x1929 JUMPI PUSH2 0x1928 PUSH2 0x18EB JUMP JUMPDEST JUMPDEST POP JUMP JUMPDEST PUSH0 DUP2 SWAP1 POP PUSH2 0x1939 DUP3 PUSH2 0x1918 JUMP JUMPDEST SWAP2 SWAP1 POP JUMP JUMPDEST PUSH0 PUSH2 0x1948 DUP3 PUSH2 0x192C JUMP JUMPDEST SWAP1 POP SWAP2 SWAP1 POP JUMP JUMPDEST PUSH2 0x1958 DUP2 PUSH2 0x193E JUMP JUMPDEST DUP3 MSTORE POP POP JUMP JUMPDEST PUSH0 PUSH1 0x20 DUP3 ADD SWAP1 POP PUSH2 0x1971 PUSH0 DUP4 ADD DUP5 PUSH2 0x194F JUMP JUMPDEST SWAP3 SWAP2 POP POP JUMP JUMPDEST PUSH0 PUSH20 0xFFFFFFFFFFFFFFFFFFFFFFFFFFFFFFFFFFFFFFFF DUP3 AND SWAP1 POP SWAP2 SWAP1 POP JUMP JUMPDEST PUSH0 PUSH2 0x19A0 DUP3 PUSH2 0x1977 JUMP JUMPDEST SWAP1 POP SWAP2 SWAP1 POP JUMP JUMPDEST PUSH2 0x19B0 DUP2 PUSH2 0x1996 JUMP JUMPDEST DUP3 MSTORE POP POP JUMP JUMPDEST PUSH0 DUP2 SWAP1 POP SWAP2 SWAP1 POP JUMP JUMPDEST PUSH2 0x19C8 DUP2 PUSH2 0x19B6 JUMP JUMPDEST DUP3 MSTORE POP POP JUMP JUMPDEST PUSH0 DUP2 ISZERO ISZERO SWAP1 POP SWAP2 SWAP1 POP JUMP JUMPDEST PUSH2 0x19E2 DUP2 PUSH2 0x19CE JUMP JUMPDEST DUP3 MSTORE POP POP JUMP JUMPDEST PUSH0 PUSH2 0x100 DUP3 ADD SWAP1 POP PUSH2 0x19FC PUSH0 DUP4 ADD DUP12 PUSH2 0x18C3 JUMP JUMPDEST PUSH2 0x1A09 PUSH1 0x20 DUP4 ADD DUP11 PUSH2 0x18C3 JUMP JUMPDEST PUSH2 0x1A16 PUSH1 0x40 DUP4 ADD DUP10 PUSH2 0x19A7 JUMP JUMPDEST PUSH2 0x1A23 PUSH1 0x60 DUP4 ADD DUP9 PUSH2 0x19A7 JUMP JUMPDEST PUSH2 0x1A30 PUSH1 0x80 DUP4 ADD DUP8 PUSH2 0x194F JUMP JUMPDEST PUSH2 0x1A3D PUSH1 0xA0 DUP4 ADD DUP7 PUSH2 0x19BF JUMP JUMPDEST PUSH2 0x1A4A PUSH1 0xC0 DUP4 ADD DUP6 PUSH2 0x19BF JUMP JUMPDEST PUSH2 0x1A57 PUSH1 0xE0 DUP4 ADD DUP5 PUSH2 0x19D9 JUMP JUMPDEST SWAP10 SWAP9 POP POP POP POP POP POP POP POP POP JUMP JUMPDEST PUSH0 PUSH2 0x1A6E DUP3 PUSH2 0x1977 JUMP JUMPDEST SWAP1 POP SWAP2 SWAP1 POP JUMP JUMPDEST PUSH2 0x1A7E DUP2 PUSH2 0x1A64 JUMP JUMPDEST DUP2 EQ PUSH2 0x1A88 JUMPI PUSH0 PUSH0 REVERT JUMPDEST POP JUMP JUMPDEST PUSH0 DUP2 CALLDATALOAD SWAP1 POP PUSH2 0x1A99 DUP2 PUSH2 0x1A75 JUMP JUMPDEST SWAP3 SWAP2 POP POP JUMP JUMPDEST PUSH0 PUSH1 0x20 DUP3 DUP5 SUB SLT ISZERO PUSH2 0x1AB4 JUMPI PUSH2 0x1AB3 PUSH2 0x1861 JUMP JUMPDEST JUMPDEST PUSH0 PUSH2 0x1AC1 DUP5 DUP3 DUP6 ADD PUSH2 0x1A8B JUMP JUMPDEST SWAP2 POP POP SWAP3 SWAP2 POP POP JUMP JUMPDEST PUSH2 0x1AD3 DUP2 PUSH2 0x1A64 JUMP JUMPDEST DUP3 MSTORE POP POP JUMP JUMPDEST PUSH0 PUSH1 0x20 DUP3 ADD SWAP1 POP PUSH2 0x1AEC PUSH0 DUP4 ADD DUP5 PUSH2 0x1ACA JUMP JUMPDEST SWAP3 SWAP2 POP POP JUMP JUMPDEST PUSH2 0x1AFB DUP2 PUSH2 0x1996 JUMP JUMPDEST DUP2 EQ PUSH2 0x1B05 JUMPI PUSH0 PUSH0 REVERT JUMPDEST POP JUMP JUMPDEST PUSH0 DUP2 CALLDATALOAD SWAP1 POP PUSH2 0x1B16 DUP2 PUSH2 0x1AF2 JUMP JUMPDEST SWAP3 SWAP2 POP POP JUMP JUMPDEST PUSH2 0x1B25 DUP2 PUSH2 0x19B6 JUMP JUMPDEST DUP2 EQ PUSH2 0x1B2F JUMPI PUSH0 PUSH0 REVERT JUMPDEST POP JUMP JUMPDEST PUSH0 DUP2 CALLDATALOAD SWAP1 POP PUSH2 0x1B40 DUP2 PUSH2 0x1B1C JUMP JUMPDEST SWAP3 SWAP2 POP POP JUMP JUMPDEST PUSH0 PUSH0 PUSH0 PUSH1 0x60 DUP5 DUP7 SUB SLT ISZERO PUSH2 0x1B5D JUMPI PUSH2 0x1B5C PUSH2 0x1861 JUMP JUMPDEST JUMPDEST PUSH0 PUSH2 0x1B6A DUP7 DUP3 DUP8 ADD PUSH2 0x1B08 JUMP JUMPDEST SWAP4 POP POP PUSH1 0x20 PUSH2 0x1B7B DUP7 DUP3 DUP8 ADD PUSH2 0x1B32 JUMP JUMPDEST SWAP3 POP POP PUSH1 0x40 PUSH2 0x1B8C DUP7 DUP3 DUP8 ADD PUSH2 0x1884 JUMP JUMPDEST SWAP2 POP POP SWAP3 POP SWAP3 POP SWAP3 JUMP JUMPDEST PUSH0 PUSH0 PUSH1 0x40 DUP4 DUP6 SUB SLT ISZERO PUSH2 0x1BAC JUMPI PUSH2 0x1BAB PUSH2 0x1861 JUMP JUMPDEST JUMPDEST PUSH0 PUSH2 0x1BB9 DUP6 DUP3 DUP7 ADD PUSH2 0x1884 JUMP JUMPDEST SWAP3 POP POP PUSH1 0x20 PUSH2 0x1BCA DUP6 DUP3 DUP7 ADD PUSH2 0x1B32 JUMP JUMPDEST SWAP2 POP POP SWAP3 POP SWAP3 SWAP1 POP JUMP JUMPDEST PUSH0 PUSH1 0x20 DUP3 ADD SWAP1 POP PUSH2 0x1BE7 PUSH0 DUP4 ADD DUP5 PUSH2 0x19D9 JUMP JUMPDEST SWAP3 SWAP2 POP POP JUMP JUMPDEST PUSH0 DUP3 DUP3 MSTORE PUSH1 0x20 DUP3 ADD SWAP1 POP SWAP3 SWAP2 POP POP JUMP JUMPDEST PUSH32 0x4E6F742063726561746F72000000000000000000000000000000000000000000 PUSH0 DUP3 ADD MSTORE POP JUMP JUMPDEST PUSH0 PUSH2 0x1C31 PUSH1 0xB DUP4 PUSH2 0x1BED JUMP JUMPDEST SWAP2 POP PUSH2 0x1C3C DUP3 PUSH2 0x1BFD JUMP JUMPDEST PUSH1 0x20 DUP3 ADD SWAP1 POP SWAP2 SWAP1 POP JUMP JUMPDEST PUSH0 PUSH1 0x20 DUP3 ADD SWAP1 POP DUP2 DUP2 SUB PUSH0 DUP4 ADD MSTORE PUSH2 0x1C5E DUP2 PUSH2 0x1C25 JUMP JUMPDEST SWAP1 POP SWAP2 SWAP1 POP JUMP JUMPDEST PUSH32 0x57726F6E67207374617475730000000000000000000000000000000000000000 PUSH0 DUP3 ADD MSTORE POP JUMP JUMPDEST PUSH0 PUSH2 0x1C99 PUSH1 0xC DUP4 PUSH2 0x1BED JUMP JUMPDEST SWAP2 POP PUSH2 0x1CA4 DUP3 PUSH2 0x1C65 JUMP JUMPDEST PUSH1 0x20 DUP3 ADD SWAP1 POP SWAP2 SWAP1 POP JUMP JUMPDEST PUSH0 PUSH1 0x20 DUP3 ADD SWAP1 POP DUP2 DUP2 SUB PUSH0 DUP4 ADD MSTORE PUSH2 0x1CC6 DUP2 PUSH2 0x1C8D JUMP JUMPDEST SWAP1 POP SWAP2 SWAP1 POP JUMP JUMPDEST PUSH32 0x4E487B7100000000000000000000000000000000000000000000000000000000 PUSH0 MSTORE PUSH1 0x11 PUSH1 0x4 MSTORE PUSH1 0x24 PUSH0 REVERT JUMPDEST PUSH0 PUSH2 0x1D04 DUP3 PUSH2 0x1865 JUMP JUMPDEST SWAP2 POP PUSH2 0x1D0F DUP4 PUSH2 0x1865 JUMP JUMPDEST SWAP3 POP DUP3 DUP3 ADD SWAP1 POP DUP1 DUP3 GT ISZERO PUSH2 0x1D27 JUMPI PUSH2 0x1D26 PUSH2 0x1CCD JUMP JUMPDEST JUMPDEST SWAP3 SWAP2 POP POP JUMP JUMPDEST PUSH32 0x4E6F7420636F756E746572706172747900000000000000000000000000000000 PUSH0 DUP3 ADD MSTORE POP JUMP JUMPDEST PUSH0 PUSH2 0x1D61 PUSH1 0x10 DUP4 PUSH2 0x1BED JUMP JUMPDEST SWAP2 POP PUSH2 0x1D6C DUP3 PUSH2 0x1D2D JUMP JUMPDEST PUSH1 0x20 DUP3 ADD SWAP1 POP SWAP2 SWAP1 POP JUMP JUMPDEST PUSH0 PUSH1 0x20 DUP3 ADD SWAP1 POP DUP2 DUP2 SUB PUSH0 DUP4 ADD MSTORE PUSH2 0x1D8E DUP2 PUSH2 0x1D55 JUMP JUMPDEST SWAP1 POP SWAP2 SWAP1 POP JUMP JUMPDEST PUSH32 0x4F6E6C7920436F6D706C65746564000000000000000000000000000000000000 PUSH0 DUP3 ADD MSTORE POP JUMP JUMPDEST PUSH0 PUSH2 0x1DC9 PUSH1 0xE DUP4 PUSH2 0x1BED JUMP JUMPDEST SWAP2 POP PUSH2 0x1DD4 DUP3 PUSH2 0x1D95 JUMP JUMPDEST PUSH1 0x20 DUP3 ADD SWAP1 POP SWAP2 SWAP1 POP JUMP JUMPDEST PUSH0 PUSH1 0x20 DUP3 ADD SWAP1 POP DUP2 DUP2 SUB PUSH0 DUP4 ADD MSTORE PUSH2 0x1DF6 DUP2 PUSH2 0x1DBD JUMP JUMPDEST SWAP1 POP SWAP2 SWAP1 POP JUMP JUMPDEST PUSH32 0x4F7261636C6520616C7265616479207365740000000000000000000000000000 PUSH0 DUP3 ADD MSTORE POP JUMP JUMPDEST PUSH0 PUSH2 0x1E31 PUSH1 0x12 DUP4 PUSH2 0x1BED JUMP JUMPDEST SWAP2 POP PUSH2 0x1E3C DUP3 PUSH2 0x1DFD JUMP JUMPDEST PUSH1 0x20 DUP3 ADD SWAP1 POP SWAP2 SWAP1 POP JUMP JUMPDEST PUSH0 PUSH1 0x20 DUP3 ADD SWAP1 POP DUP2 DUP2 SUB PUSH0 DUP4 ADD MSTORE PUSH2 0x1E5E DUP2 PUSH2 0x1E25 JUMP JUMPDEST SWAP1 POP SWAP2 SWAP1 POP JUMP JUMPDEST PUSH32 0x496E76616C6964206F7261636C65000000000000000000000000000000000000 PUSH0 DUP3 ADD MSTORE POP JUMP JUMPDEST PUSH0 PUSH2 0x1E99 PUSH1 0xE DUP4 PUSH2 0x1BED JUMP JUMPDEST SWAP2 POP PUSH2 0x1EA4 DUP3 PUSH2 0x1E65 JUMP JUMPDEST PUSH1 0x20 DUP3 ADD SWAP1 POP SWAP2 SWAP1 POP JUMP JUMPDEST PUSH0 PUSH1 0x20 DUP3 ADD SWAP1 POP DUP2 DUP2 SUB PUSH0 DUP4 ADD MSTORE PUSH2 0x1EC6 DUP2 PUSH2 0x1E8D JUMP JUMPDEST SWAP1 POP SWAP2 SWAP1 POP JUMP JUMPDEST PUSH32 0x4E6F74207369676E656400000000000000000000000000000000000000000000 PUSH0 DUP3 ADD MSTORE POP JUMP JUMPDEST PUSH0 PUSH2 0x1F01 PUSH1 0xA DUP4 PUSH2 0x1BED JUMP JUMPDEST SWAP2 POP PUSH2 0x1F0C DUP3 PUSH2 0x1ECD JUMP JUMPDEST PUSH1 0x20 DUP3 ADD SWAP1 POP SWAP2 SWAP1 POP JUMP JUMPDEST PUSH0 PUSH1 0x20 DUP3 ADD SWAP1 POP DUP2 DUP2 SUB PUSH0 DUP4 ADD MSTORE PUSH2 0x1F2E DUP2 PUSH2 0x1EF5 JUMP JUMPDEST SWAP1 POP SWAP2 SWAP1 POP JUMP JUMPDEST PUSH32 0x44656C697665727920666C6F7720726571756972656400000000000000000000 PUSH0 DUP3 ADD MSTORE POP JUMP JUMPDEST PUSH0 PUSH2 0x1F69 PUSH1 0x16 DUP4 PUSH2 0x1BED JUMP JUMPDEST SWAP2 POP PUSH2 0x1F74 DUP3 PUSH2 0x1F35 JUMP JUMPDEST PUSH1 0x20 DUP3 ADD SWAP1 POP SWAP2 SWAP1 POP JUMP JUMPDEST PUSH0 PUSH1 0x20 DUP3 ADD SWAP1 POP DUP2 DUP2 SUB PUSH0 DUP4 ADD MSTORE PUSH2 0x1F96 DUP2 PUSH2 0x1F5D JUMP JUMPDEST SWAP1 POP SWAP2 SWAP1 POP JUMP JUMPDEST PUSH32 0x4E6F742043726561746564000000000000000000000000000000000000000000 PUSH0 DUP3 ADD MSTORE POP JUMP JUMPDEST PUSH0 PUSH2 0x1FD1 PUSH1 0xB DUP4 PUSH2 0x1BED JUMP JUMPDEST SWAP2 POP PUSH2 0x1FDC DUP3 PUSH2 0x1F9D JUMP JUMPDEST PUSH1 0x20 DUP3 ADD SWAP1 POP SWAP2 SWAP1 POP JUMP JUMPDEST PUSH0 PUSH1 0x20 DUP3 ADD SWAP1 POP DUP2 DUP2 SUB PUSH0 DUP4 ADD MSTORE PUSH2 0x1FFE DUP2 PUSH2 0x1FC5 JUMP JUMPDEST SWAP1 POP SWAP2 SWAP1 POP JUMP JUMPDEST PUSH32 0x302061646472206E6F7420616C6C6F7765640000000000000000000000000000 PUSH0 DUP3 ADD MSTORE POP JUMP JUMPDEST PUSH0 PUSH2 0x2039 PUSH1 0x12 DUP4 PUSH2 0x1BED JUMP JUMPDEST SWAP2 POP PUSH2 0x2044 DUP3 PUSH2 0x2005 JUMP JUMPDEST PUSH1 0x20 DUP3 ADD SWAP1 POP SWAP2 SWAP1 POP JUMP JUMPDEST PUSH0 PUSH1 0x20 DUP3 ADD SWAP1 POP DUP2 DUP2 SUB PUSH0 DUP4 ADD MSTORE PUSH2 0x2066 DUP2 PUSH2 0x202D JUMP JUMPDEST SWAP1 POP SWAP2 SWAP1 POP JUMP JUMPDEST PUSH32 0x455448206D69736D617463680000000000000000000000000000000000000000 PUSH0 DUP3 ADD MSTORE POP JUMP JUMPDEST PUSH0 PUSH2 0x20A1 PUSH1 0xC DUP4 PUSH2 0x1BED JUMP JUMPDEST SWAP2 POP PUSH2 0x20AC DUP3 PUSH2 0x206D JUMP JUMPDEST PUSH1 0x20 DUP3 ADD SWAP1 POP SWAP2 SWAP1 POP JUMP JUMPDEST PUSH0 PUSH1 0x20 DUP3 ADD SWAP1 POP DUP2 DUP2 SUB PUSH0 DUP4 ADD MSTORE PUSH2 0x20CE DUP2 PUSH2 0x2095 JUMP JUMPDEST SWAP1 POP SWAP2 SWAP1 POP JUMP JUMPDEST PUSH0 PUSH2 0x20DF DUP3 PUSH2 0x1865 JUMP JUMPDEST SWAP2 POP PUSH32 0xFFFFFFFFFFFFFFFFFFFFFFFFFFFFFFFFFFFFFFFFFFFFFFFFFFFFFFFFFFFFFFFF DUP3 SUB PUSH2 0x2111 JUMPI PUSH2 0x2110 PUSH2 0x1CCD JUMP JUMPDEST JUMPDEST PUSH1 0x1 DUP3 ADD SWAP1 POP SWAP2 SWAP1 POP JUMP JUMPDEST PUSH0 DUP2 SWAP1 POP SWAP2 SWAP1 POP JUMP JUMPDEST PUSH0 PUSH2 0x213F PUSH2 0x213A PUSH2 0x2135 DUP5 PUSH2 0x1977 JUMP JUMPDEST PUSH2 0x211C JUMP JUMPDEST PUSH2 0x1977 JUMP JUMPDEST SWAP1 POP SWAP2 SWAP1 POP JUMP JUMPDEST PUSH0 PUSH2 0x2150 DUP3 PUSH2 0x2125 JUMP JUMPDEST SWAP1 POP SWAP2 SWAP1 POP JUMP JUMPDEST PUSH0 PUSH2 0x2161 DUP3 PUSH2 0x2146 JUMP JUMPDEST SWAP1 POP SWAP2 SWAP1 POP JUMP JUMPDEST PUSH2 0x2171 DUP2 PUSH2 0x2157 JUMP JUMPDEST DUP3 MSTORE POP POP JUMP JUMPDEST PUSH0 PUSH1 0x40 DUP3 ADD SWAP1 POP PUSH2 0x218A PUSH0 DUP4 ADD DUP6 PUSH2 0x1ACA JUMP JUMPDEST PUSH2 0x2197 PUSH1 0x20 DUP4 ADD DUP5 PUSH2 0x2168 JUMP JUMPDEST SWAP4 SWAP3 POP POP POP JUMP JUMPDEST PUSH32 0x4E6F74206F7261636C6500000000000000000000000000000000000000000000 PUSH0 DUP3 ADD MSTORE POP JUMP JUMPDEST PUSH0 PUSH2 0x21D2 PUSH1 0xA DUP4 PUSH2 0x1BED JUMP JUMPDEST SWAP2 POP PUSH2 0x21DD DUP3 PUSH2 0x219E JUMP JUMPDEST PUSH1 0x20 DUP3 ADD SWAP1 POP SWAP2 SWAP1 POP JUMP JUMPDEST PUSH0 PUSH1 0x20 DUP3 ADD SWAP1 POP DUP2 DUP2 SUB PUSH0 DUP4 ADD MSTORE PUSH2 0x21FF DUP2 PUSH2 0x21C6 JUMP JUMPDEST SWAP1 POP SWAP2 SWAP1 POP JUMP JUMPDEST PUSH32 0x4E6F2064656C6976657279000000000000000000000000000000000000000000 PUSH0 DUP3 ADD MSTORE POP JUMP JUMPDEST PUSH0 PUSH2 0x223A PUSH1 0xB DUP4 PUSH2 0x1BED JUMP JUMPDEST SWAP2 POP PUSH2 0x2245 DUP3 PUSH2 0x2206 JUMP JUMPDEST PUSH1 0x20 DUP3 ADD SWAP1 POP SWAP2 SWAP1 POP JUMP JUMPDEST PUSH0 PUSH1 0x20 DUP3 ADD SWAP1 POP DUP2 DUP2 SUB PUSH0 DUP4 ADD MSTORE PUSH2 0x2267 DUP2 PUSH2 0x222E JUMP JUMPDEST SWAP1 POP SWAP2 SWAP1 POP JUMP JUMPDEST PUSH32 0x48617368206D69736D6174636800000000000000000000000000000000000000 PUSH0 DUP3 ADD MSTORE POP JUMP JUMPDEST PUSH0 PUSH2 0x22A2 PUSH1 0xD DUP4 PUSH2 0x1BED JUMP JUMPDEST SWAP2 POP PUSH2 0x22AD DUP3 PUSH2 0x226E JUMP JUMPDEST PUSH1 0x20 DUP3 ADD SWAP1 POP SWAP2 SWAP1 POP JUMP JUMPDEST PUSH0 PUSH1 0x20 DUP3 ADD SWAP1 POP DUP2 DUP2 SUB PUSH0 DUP4 ADD MSTORE PUSH2 0x22CF DUP2 PUSH2 0x2296 JUMP JUMPDEST SWAP1 POP SWAP2 SWAP1 POP JUMP JUMPDEST PUSH32 0x4E6F7420776974686472617761626C6500000000000000000000000000000000 PUSH0 DUP3 ADD MSTORE POP JUMP JUMPDEST PUSH0 PUSH2 0x230A PUSH1 0x10 DUP4 PUSH2 0x1BED JUMP JUMPDEST SWAP2 POP PUSH2 0x2315 DUP3 PUSH2 0x22D6 JUMP JUMPDEST PUSH1 0x20 DUP3 ADD SWAP1 POP SWAP2 SWAP1 POP JUMP JUMPDEST PUSH0 PUSH1 0x20 DUP3 ADD SWAP1 POP DUP2 DUP2 SUB PUSH0 DUP4 ADD MSTORE PUSH2 0x2337 DUP2 PUSH2 0x22FE JUMP JUMPDEST SWAP1 POP SWAP2 SWAP1 POP JUMP JUMPDEST PUSH32 0x4E6F2062616C616E636500000000000000000000000000000000000000000000 PUSH0 DUP3 ADD MSTORE POP JUMP JUMPDEST PUSH0 PUSH2 0x2372 PUSH1 0xA DUP4 PUSH2 0x1BED JUMP JUMPDEST SWAP2 POP PUSH2 0x237D DUP3 PUSH2 0x233E JUMP JUMPDEST PUSH1 0x20 DUP3 ADD SWAP1 POP SWAP2 SWAP1 POP JUMP JUMPDEST PUSH0 PUSH1 0x20 DUP3 ADD SWAP1 POP DUP2 DUP2 SUB PUSH0 DUP4 ADD MSTORE PUSH2 0x239F DUP2 PUSH2 0x2366 JUMP JUMPDEST SWAP1 POP SWAP2 SWAP1 POP JUMP JUMPDEST PUSH0 PUSH2 0x23B0 DUP3 PUSH2 0x1865 JUMP JUMPDEST SWAP2 POP PUSH2 0x23BB DUP4 PUSH2 0x1865 JUMP JUMPDEST SWAP3 POP DUP3 DUP3 SUB SWAP1 POP DUP2 DUP2 GT ISZERO PUSH2 0x23D3 JUMPI PUSH2 0x23D2 PUSH2 0x1CCD JUMP JUMPDEST JUMPDEST SWAP3 SWAP2 POP POP JUMP JUMPDEST PUSH32 0x4E6F74205369676E656400000000000000000000000000000000000000000000 PUSH0 DUP3 ADD MSTORE POP JUMP JUMPDEST PUSH0 PUSH2 0x240D PUSH1 0xA DUP4 PUSH2 0x1BED JUMP JUMPDEST SWAP2 POP PUSH2 0x2418 DUP3 PUSH2 0x23D9 JUMP JUMPDEST PUSH1 0x20 DUP3 ADD SWAP1 POP SWAP2 SWAP1 POP JUMP JUMPDEST PUSH0 PUSH1 0x20 DUP3 ADD SWAP1 POP DUP2 DUP2 SUB PUSH0 DUP4 ADD MSTORE PUSH2 0x243A DUP2 PUSH2 0x2401 JUMP JUMPDEST SWAP1 POP SWAP2 SWAP1 POP JUMP JUMPDEST PUSH32 0x416C726561647920736574000000000000000000000000000000000000000000 PUSH0 DUP3 ADD MSTORE POP JUMP JUMPDEST PUSH0 PUSH2 0x2475 PUSH1 0xB DUP4 PUSH2 0x1BED JUMP JUMPDEST SWAP2 POP PUSH2 0x2480 DUP3 PUSH2 0x2441 JUMP JUMPDEST PUSH1 0x20 DUP3 ADD SWAP1 POP SWAP2 SWAP1 POP JUMP JUMPDEST PUSH0 PUSH1 0x20 DUP3 ADD SWAP1 POP DUP2 DUP2 SUB PUSH0 DUP4 ADD MSTORE PUSH2 0x24A2 DUP2 PUSH2 0x2469 JUMP JUMPDEST SWAP1 POP SWAP2 SWAP1 POP JUMP JUMPDEST PUSH0 PUSH1 0x20 DUP3 ADD SWAP1 POP PUSH2 0x24BC PUSH0 DUP4 ADD DUP5 PUSH2 0x19BF JUMP JUMPDEST SWAP3 SWAP2 POP POP JUMP JUMPDEST PUSH32 0x5265656E7472616E637947756172643A207265656E7472616E742063616C6C00 PUSH0 DUP3 ADD MSTORE POP JUMP JUMPDEST PUSH0 PUSH2 0x24F6 PUSH1 0x1F DUP4 PUSH2 0x1BED JUMP JUMPDEST SWAP2 POP PUSH2 0x2501 DUP3 PUSH2 0x24C2 JUMP JUMPDEST PUSH1 0x20 DUP3 ADD SWAP1 POP SWAP2 SWAP1 POP JUMP JUMPDEST PUSH0 PUSH1 0x20 DUP3 ADD SWAP1 POP DUP2 DUP2 SUB PUSH0 DUP4 ADD MSTORE PUSH2 0x2523 DUP2 PUSH2 0x24EA JUMP JUMPDEST SWAP1 POP SWAP2 SWAP1 POP JUMP INVALID LOG2 PUSH5 0x6970667358 0x22 SLT KECCAK256 SWAP11 PC REVERT AND 0x1E PUSH27 0xD3890141E99A7B1ADBAA603BE70BB63BA8A625887C3A38C68FE764 PUSH20 0x6F6C634300081E00330000000000000000000000 "
				},
				"gasEstimates": {
					"creation": {
						"codeDepositCost": "1913600",
						"executionCost": "24130",
						"totalCost": "1937730"
					},
					"external": {
						"approveDeliveryAsCreator(uint256)": "infinite",
						"confirmCompletion(uint256)": "infinite",
						"confirmDeliveryByOracle(uint256,bytes32)": "34969",
						"contractCounter()": "2471",
						"contracts(uint256)": "infinite",
						"createContract(address,bytes32,uint256)": "infinite",
						"deactivateContract(uint256)": "42817",
						"getContractStatus(uint256)": "3023",
						"oracle()": "2597",
						"oracleSet()": "2561",
						"pendingWithdrawals(address)": "2868",
						"setDeliveryTracking(uint256,bytes32)": "infinite",
						"setOracle(address)": "52500",
						"signContract(uint256)": "30554",
						"withdrawFundsFrom(uint256)": "infinite"
					}
				},
				"methodIdentifiers": {
					"approveDeliveryAsCreator(uint256)": "032ca42d",
					"confirmCompletion(uint256)": "94aeb613",
					"confirmDeliveryByOracle(uint256,bytes32)": "a78d9bab",
					"contractCounter()": "067bd3b4",
					"contracts(uint256)": "474da79a",
					"createContract(address,bytes32,uint256)": "9cc437ba",
					"deactivateContract(uint256)": "22a45cd0",
					"getContractStatus(uint256)": "17b18458",
					"oracle()": "7dc0d1d0",
					"oracleSet()": "edb3b27a",
					"pendingWithdrawals(address)": "f3f43703",
					"setDeliveryTracking(uint256,bytes32)": "f436199d",
					"setOracle(address)": "7adbf973",
					"signContract(uint256)": "9537e8d1",
					"withdrawFundsFrom(uint256)": "df5c2980"
				}
			},
			"storageLayout": {
				"storage": [
					{
						"astId": 10,
						"contract": "digital_contract.sol:ContractManager",
						"label": "_status",
						"offset": 0,
						"slot": "0",
						"type": "t_uint256"
					},
					{
						"astId": 98,
						"contract": "digital_contract.sol:ContractManager",
						"label": "oracle",
						"offset": 0,
						"slot": "1",
						"type": "t_address"
					},
					{
						"astId": 100,
						"contract": "digital_contract.sol:ContractManager",
						"label": "oracleSet",
						"offset": 20,
						"slot": "1",
						"type": "t_bool"
					},
					{
						"astId": 105,
						"contract": "digital_contract.sol:ContractManager",
						"label": "contracts",
						"offset": 0,
						"slot": "2",
						"type": "t_mapping(t_uint256,t_struct(ManagedContract)96_storage)"
					},
					{
						"astId": 107,
						"contract": "digital_contract.sol:ContractManager",
						"label": "contractCounter",
						"offset": 0,
						"slot": "3",
						"type": "t_uint256"
					},
					{
						"astId": 111,
						"contract": "digital_contract.sol:ContractManager",
						"label": "pendingWithdrawals",
						"offset": 0,
						"slot": "4",
						"type": "t_mapping(t_address,t_uint256)"
					}
				],
				"types": {
					"t_address": {
						"encoding": "inplace",
						"label": "address",
						"numberOfBytes": "20"
					},
					"t_address_payable": {
						"encoding": "inplace",
						"label": "address payable",
						"numberOfBytes": "20"
					},
					"t_bool": {
						"encoding": "inplace",
						"label": "bool",
						"numberOfBytes": "1"
					},
					"t_bytes32": {
						"encoding": "inplace",
						"label": "bytes32",
						"numberOfBytes": "32"
					},
					"t_enum(ContractStatus)78": {
						"encoding": "inplace",
						"label": "enum ContractManager.ContractStatus",
						"numberOfBytes": "1"
					},
					"t_mapping(t_address,t_uint256)": {
						"encoding": "mapping",
						"key": "t_address",
						"label": "mapping(address => uint256)",
						"numberOfBytes": "32",
						"value": "t_uint256"
					},
					"t_mapping(t_uint256,t_struct(ManagedContract)96_storage)": {
						"encoding": "mapping",
						"key": "t_uint256",
						"label": "mapping(uint256 => struct ContractManager.ManagedContract)",
						"numberOfBytes": "32",
						"value": "t_struct(ManagedContract)96_storage"
					},
					"t_struct(ManagedContract)96_storage": {
						"encoding": "inplace",
						"label": "struct ContractManager.ManagedContract",
						"members": [
							{
								"astId": 80,
								"contract": "digital_contract.sol:ContractManager",
								"label": "id",
								"offset": 0,
								"slot": "0",
								"type": "t_uint256"
							},
							{
								"astId": 82,
								"contract": "digital_contract.sol:ContractManager",
								"label": "amount",
								"offset": 0,
								"slot": "1",
								"type": "t_uint256"
							},
							{
								"astId": 84,
								"contract": "digital_contract.sol:ContractManager",
								"label": "creator",
								"offset": 0,
								"slot": "2",
								"type": "t_address_payable"
							},
							{
								"astId": 86,
								"contract": "digital_contract.sol:ContractManager",
								"label": "counterparty",
								"offset": 0,
								"slot": "3",
								"type": "t_address_payable"
							},
							{
								"astId": 89,
								"contract": "digital_contract.sol:ContractManager",
								"label": "status",
								"offset": 20,
								"slot": "3",
								"type": "t_enum(ContractStatus)78"
							},
							{
								"astId": 91,
								"contract": "digital_contract.sol:ContractManager",
								"label": "contractHash",
								"offset": 0,
								"slot": "4",
								"type": "t_bytes32"
							},
							{
								"astId": 93,
								"contract": "digital_contract.sol:ContractManager",
								"label": "deliveryTrackingHash",
								"offset": 0,
								"slot": "5",
								"type": "t_bytes32"
							},
							{
								"astId": 95,
								"contract": "digital_contract.sol:ContractManager",
								"label": "deliveryRequired",
								"offset": 0,
								"slot": "6",
								"type": "t_bool"
							}
						],
						"numberOfBytes": "224"
					},
					"t_uint256": {
						"encoding": "inplace",
						"label": "uint256",
						"numberOfBytes": "32"
					}
				}
			},
			"userdoc": {
				"kind": "user",
				"methods": {},
				"version": 1
			}
		}
	}
}