{
	"digital_contract.sol": {
		"ContractManager": {
			"abi": [
				{
					"inputs": [],
					"name": "ReentrancyGuardReentrantCall",
					"type": "error"
				},
				{
					"anonymous": false,
					"inputs": [
						{
							"indexed": true,
							"internalType": "uint256",
							"name": "contractId",
							"type": "uint256"
						},
						{
							"indexed": false,
							"internalType": "address",
							"name": "creator",
							"type": "address"
						},
						{
							"indexed": false,
							"internalType": "address",
							"name": "counterparty",
							"type": "address"
						}
					],
					"name": "ContractCreated",
					"type": "event"
				},
				{
					"anonymous": false,
					"inputs": [
						{
							"indexed": true,
							"internalType": "uint256",
							"name": "contractId",
							"type": "uint256"
						}
					],
					"name": "ContractDeactivated",
					"type": "event"
				},
				{
					"anonymous": false,
					"inputs": [
						{
							"indexed": true,
							"internalType": "uint256",
							"name": "contractId",
							"type": "uint256"
						}
					],
					"name": "ContractSigned",
					"type": "event"
				},
				{
					"anonymous": false,
					"inputs": [
						{
							"indexed": true,
							"internalType": "uint256",
							"name": "contractId",
							"type": "uint256"
						}
					],
					"name": "DeliveryApproved",
					"type": "event"
				},
				{
					"anonymous": false,
					"inputs": [
						{
							"indexed": true,
							"internalType": "uint256",
							"name": "contractId",
							"type": "uint256"
						}
					],
					"name": "DeliveryConfirmed",
					"type": "event"
				},
				{
					"anonymous": false,
					"inputs": [
						{
							"indexed": true,
							"internalType": "uint256",
							"name": "contractId",
							"type": "uint256"
						},
						{
							"indexed": true,
							"internalType": "address",
							"name": "account",
							"type": "address"
						},
						{
							"indexed": false,
							"internalType": "uint256",
							"name": "amount",
							"type": "uint256"
						}
					],
					"name": "FundsWithdrawn",
					"type": "event"
				},
				{
					"anonymous": false,
					"inputs": [
						{
							"indexed": true,
							"internalType": "address",
							"name": "oracle",
							"type": "address"
						}
					],
					"name": "OracleSet",
					"type": "event"
				},
				{
					"anonymous": false,
					"inputs": [
						{
							"indexed": true,
							"internalType": "uint256",
							"name": "contractId",
							"type": "uint256"
						},
						{
							"indexed": true,
							"internalType": "address",
							"name": "to",
							"type": "address"
						},
						{
							"indexed": false,
							"internalType": "uint256",
							"name": "amount",
							"type": "uint256"
						}
					],
					"name": "PaymentReleased",
					"type": "event"
				},
				{
					"anonymous": false,
					"inputs": [
						{
							"indexed": true,
							"internalType": "uint256",
							"name": "contractId",
							"type": "uint256"
						},
						{
							"indexed": false,
							"internalType": "bytes32",
							"name": "trackingHash",
							"type": "bytes32"
						}
					],
					"name": "TrackingHashSet",
					"type": "event"
				},
				{
					"inputs": [
						{
							"internalType": "uint256",
							"name": "_contractId",
							"type": "uint256"
						}
					],
					"name": "approveDeliveryAsCreator",
					"outputs": [],
					"stateMutability": "nonpayable",
					"type": "function"
				},
				{
					"inputs": [
						{
							"internalType": "uint256",
							"name": "_contractId",
							"type": "uint256"
						}
					],
					"name": "confirmCompletion",
					"outputs": [],
					"stateMutability": "nonpayable",
					"type": "function"
				},
				{
					"inputs": [
						{
							"internalType": "uint256",
							"name": "_contractId",
							"type": "uint256"
						},
						{
							"internalType": "bytes32",
							"name": "_trackingNumberHash",
							"type": "bytes32"
						}
					],
					"name": "confirmDeliveryByOracle",
					"outputs": [],
					"stateMutability": "nonpayable",
					"type": "function"
				},
				{
					"inputs": [],
					"name": "contractCounter",
					"outputs": [
						{
							"internalType": "uint256",
							"name": "",
							"type": "uint256"
						}
					],
					"stateMutability": "view",
					"type": "function"
				},
				{
					"inputs": [
						{
							"internalType": "uint256",
							"name": "",
							"type": "uint256"
						}
					],
					"name": "contracts",
					"outputs": [
						{
							"internalType": "uint256",
							"name": "id",
							"type": "uint256"
						},
						{
							"internalType": "uint256",
							"name": "amount",
							"type": "uint256"
						},
						{
							"internalType": "address payable",
							"name": "creator",
							"type": "address"
						},
						{
							"internalType": "address payable",
							"name": "counterparty",
							"type": "address"
						},
						{
							"internalType": "enum ContractManager.ContractStatus",
							"name": "status",
							"type": "uint8"
						},
						{
							"internalType": "bytes32",
							"name": "contractHash",
							"type": "bytes32"
						},
						{
							"internalType": "bytes32",
							"name": "deliveryTrackingHash",
							"type": "bytes32"
						},
						{
							"internalType": "bool",
							"name": "deliveryRequired",
							"type": "bool"
						}
					],
					"stateMutability": "view",
					"type": "function"
				},
				{
					"inputs": [
						{
							"internalType": "address payable",
							"name": "_counterparty",
							"type": "address"
						},
						{
							"internalType": "bytes32",
							"name": "_contractHash",
							"type": "bytes32"
						},
						{
							"internalType": "uint256",
							"name": "_amount",
							"type": "uint256"
						}
					],
					"name": "createContract",
					"outputs": [],
					"stateMutability": "payable",
					"type": "function"
				},
				{
					"inputs": [
						{
							"internalType": "uint256",
							"name": "_contractId",
							"type": "uint256"
						}
					],
					"name": "deactivateContract",
					"outputs": [],
					"stateMutability": "nonpayable",
					"type": "function"
				},
				{
					"inputs": [
						{
							"internalType": "uint256",
							"name": "_contractId",
							"type": "uint256"
						}
					],
					"name": "getContractStatus",
					"outputs": [
						{
							"internalType": "enum ContractManager.ContractStatus",
							"name": "",
							"type": "uint8"
						}
					],
					"stateMutability": "view",
					"type": "function"
				},
				{
					"inputs": [],
					"name": "oracle",
					"outputs": [
						{
							"internalType": "address",
							"name": "",
							"type": "address"
						}
					],
					"stateMutability": "view",
					"type": "function"
				},
				{
					"inputs": [],
					"name": "oracleSet",
					"outputs": [
						{
							"internalType": "bool",
							"name": "",
							"type": "bool"
						}
					],
					"stateMutability": "view",
					"type": "function"
				},
				{
					"inputs": [
						{
							"internalType": "address",
							"name": "",
							"type": "address"
						}
					],
					"name": "pendingWithdrawals",
					"outputs": [
						{
							"internalType": "uint256",
							"name": "",
							"type": "uint256"
						}
					],
					"stateMutability": "view",
					"type": "function"
				},
				{
					"inputs": [
						{
							"internalType": "uint256",
							"name": "_contractId",
							"type": "uint256"
						},
						{
							"internalType": "bytes32",
							"name": "_trackingNumberHash",
							"type": "bytes32"
						}
					],
					"name": "setDeliveryTracking",
					"outputs": [],
					"stateMutability": "nonpayable",
					"type": "function"
				},
				{
					"inputs": [
						{
							"internalType": "address",
							"name": "_oracle",
							"type": "address"
						}
					],
					"name": "setOracle",
					"outputs": [],
					"stateMutability": "nonpayable",
					"type": "function"
				},
				{
					"inputs": [
						{
							"internalType": "uint256",
							"name": "_contractId",
							"type": "uint256"
						}
					],
					"name": "signContract",
					"outputs": [],
					"stateMutability": "nonpayable",
					"type": "function"
				},
				{
					"inputs": [
						{
							"internalType": "uint256",
							"name": "_contractId",
							"type": "uint256"
						}
					],
					"name": "withdrawFundsFrom",
					"outputs": [],
					"stateMutability": "nonpayable",
					"type": "function"
				}
			],
			"devdoc": {
				"errors": {
					"ReentrancyGuardReentrantCall()": [
						{
							"details": "Unauthorized reentrant call."
						}
					]
				},
				"kind": "dev",
				"methods": {},
				"version": 1
			},
			"evm": {
				"assembly": "    /* \"digital_contract.sol\":123:6867  contract ContractManager is ReentrancyGuard {... */\n  mstore(0x40, 0x80)\n  callvalue\n  dup1\n  iszero\n  tag_1\n  jumpi\n  revert(0x00, 0x00)\ntag_1:\n  pop\n    /* \"@openzeppelin/contracts/utils/ReentrancyGuard.sol\":1857:1858  1 */\n  0x01\n    /* \"@openzeppelin/contracts/utils/ReentrancyGuard.sol\":2061:2068  _status */\n  0x00\n    /* \"@openzeppelin/contracts/utils/ReentrancyGuard.sol\":2061:2082  _status = NOT_ENTERED */\n  dup2\n  swap1\n  sstore\n  pop\n    /* \"digital_contract.sol\":123:6867  contract ContractManager is ReentrancyGuard {... */\n  dataSize(sub_0)\n  dup1\n  dataOffset(sub_0)\n  0x00\n  codecopy\n  0x00\n  return\nstop\n\nsub_0: assembly {\n        /* \"digital_contract.sol\":123:6867  contract ContractManager is ReentrancyGuard {... */\n      mstore(0x40, 0x80)\n      jumpi(tag_1, lt(calldatasize, 0x04))\n      shr(0xe0, calldataload(0x00))\n      dup1\n      0x94aeb613\n      gt\n      tag_17\n      jumpi\n      dup1\n      0xdf5c2980\n      gt\n      tag_18\n      jumpi\n      dup1\n      0xdf5c2980\n      eq\n      tag_13\n      jumpi\n      dup1\n      0xedb3b27a\n      eq\n      tag_14\n      jumpi\n      dup1\n      0xf3f43703\n      eq\n      tag_15\n      jumpi\n      dup1\n      0xf436199d\n      eq\n      tag_16\n      jumpi\n      jump(tag_1)\n    tag_18:\n      dup1\n      0x94aeb613\n      eq\n      tag_9\n      jumpi\n      dup1\n      0x9537e8d1\n      eq\n      tag_10\n      jumpi\n      dup1\n      0x9cc437ba\n      eq\n      tag_11\n      jumpi\n      dup1\n      0xa78d9bab\n      eq\n      tag_12\n      jumpi\n      jump(tag_1)\n    tag_17:\n      dup1\n      0x22a45cd0\n      gt\n      tag_19\n      jumpi\n      dup1\n      0x22a45cd0\n      eq\n      tag_5\n      jumpi\n      dup1\n      0x474da79a\n      eq\n      tag_6\n      jumpi\n      dup1\n      0x7adbf973\n      eq\n      tag_7\n      jumpi\n      dup1\n      0x7dc0d1d0\n      eq\n      tag_8\n      jumpi\n      jump(tag_1)\n    tag_19:\n      dup1\n      0x032ca42d\n      eq\n      tag_2\n      jumpi\n      dup1\n      0x067bd3b4\n      eq\n      tag_3\n      jumpi\n      dup1\n      0x17b18458\n      eq\n      tag_4\n      jumpi\n    tag_1:\n      revert(0x00, 0x00)\n        /* \"digital_contract.sol\":4460:4981  function approveDeliveryAsCreator(uint256 _contractId) public onlyCreator(_contractId) {... */\n    tag_2:\n      callvalue\n      dup1\n      iszero\n      tag_20\n      jumpi\n      revert(0x00, 0x00)\n    tag_20:\n      pop\n      tag_21\n      0x04\n      dup1\n      calldatasize\n      sub\n      dup2\n      add\n      swap1\n      tag_22\n      swap2\n      swap1\n      tag_23\n      jump\t// in\n    tag_22:\n      tag_24\n      jump\t// in\n    tag_21:\n      stop\n        /* \"digital_contract.sol\":799:829  uint256 public contractCounter */\n    tag_3:\n      callvalue\n      dup1\n      iszero\n      tag_25\n      jumpi\n      revert(0x00, 0x00)\n    tag_25:\n      pop\n      tag_26\n      tag_27\n      jump\t// in\n    tag_26:\n      mload(0x40)\n      tag_28\n      swap2\n      swap1\n      tag_29\n      jump\t// in\n    tag_28:\n      mload(0x40)\n      dup1\n      swap2\n      sub\n      swap1\n      return\n        /* \"digital_contract.sol\":6724:6864  function getContractStatus(uint256 _contractId) public view returns (ContractStatus) {... */\n    tag_4:\n      callvalue\n      dup1\n      iszero\n      tag_30\n      jumpi\n      revert(0x00, 0x00)\n    tag_30:\n      pop\n      tag_31\n      0x04\n      dup1\n      calldatasize\n      sub\n      dup2\n      add\n      swap1\n      tag_32\n      swap2\n      swap1\n      tag_23\n      jump\t// in\n    tag_32:\n      tag_33\n      jump\t// in\n    tag_31:\n      mload(0x40)\n      tag_34\n      swap2\n      swap1\n      tag_35\n      jump\t// in\n    tag_34:\n      mload(0x40)\n      dup1\n      swap2\n      sub\n      swap1\n      return\n        /* \"digital_contract.sol\":6252:6716  function deactivateContract(uint256 _contractId) public onlyCounterparty(_contractId) onlyCreator(_contractId) {... */\n    tag_5:\n      callvalue\n      dup1\n      iszero\n      tag_36\n      jumpi\n      revert(0x00, 0x00)\n    tag_36:\n      pop\n      tag_37\n      0x04\n      dup1\n      calldatasize\n      sub\n      dup2\n      add\n      swap1\n      tag_38\n      swap2\n      swap1\n      tag_23\n      jump\t// in\n    tag_38:\n      tag_39\n      jump\t// in\n    tag_37:\n      stop\n        /* \"digital_contract.sol\":740:792  mapping(uint256 => ManagedContract) public contracts */\n    tag_6:\n      callvalue\n      dup1\n      iszero\n      tag_40\n      jumpi\n      revert(0x00, 0x00)\n    tag_40:\n      pop\n      tag_41\n      0x04\n      dup1\n      calldatasize\n      sub\n      dup2\n      add\n      swap1\n      tag_42\n      swap2\n      swap1\n      tag_23\n      jump\t// in\n    tag_42:\n      tag_43\n      jump\t// in\n    tag_41:\n      mload(0x40)\n      tag_44\n      swap9\n      swap8\n      swap7\n      swap6\n      swap5\n      swap4\n      swap3\n      swap2\n      swap1\n      tag_45\n      jump\t// in\n    tag_44:\n      mload(0x40)\n      dup1\n      swap2\n      sub\n      swap1\n      return\n        /* \"digital_contract.sol\":1956:2208  function setOracle(address _oracle) public {... */\n    tag_7:\n      callvalue\n      dup1\n      iszero\n      tag_46\n      jumpi\n      revert(0x00, 0x00)\n    tag_46:\n      pop\n      tag_47\n      0x04\n      dup1\n      calldatasize\n      sub\n      dup2\n      add\n      swap1\n      tag_48\n      swap2\n      swap1\n      tag_49\n      jump\t// in\n    tag_48:\n      tag_50\n      jump\t// in\n    tag_47:\n      stop\n        /* \"digital_contract.sol\":682:703  address public oracle */\n    tag_8:\n      callvalue\n      dup1\n      iszero\n      tag_51\n      jumpi\n      revert(0x00, 0x00)\n    tag_51:\n      pop\n      tag_52\n      tag_53\n      jump\t// in\n    tag_52:\n      mload(0x40)\n      tag_54\n      swap2\n      swap1\n      tag_55\n      jump\t// in\n    tag_54:\n      mload(0x40)\n      dup1\n      swap2\n      sub\n      swap1\n      return\n        /* \"digital_contract.sol\":4989:5520  function confirmCompletion(uint256 _contractId) public onlyCreator(_contractId) {... */\n    tag_9:\n      callvalue\n      dup1\n      iszero\n      tag_56\n      jumpi\n      revert(0x00, 0x00)\n    tag_56:\n      pop\n      tag_57\n      0x04\n      dup1\n      calldatasize\n      sub\n      dup2\n      add\n      swap1\n      tag_58\n      swap2\n      swap1\n      tag_23\n      jump\t// in\n    tag_58:\n      tag_59\n      jump\t// in\n    tag_57:\n      stop\n        /* \"digital_contract.sol\":2973:3303  function signContract(uint256 _contractId) public onlyCounterparty(_contractId) {... */\n    tag_10:\n      callvalue\n      dup1\n      iszero\n      tag_60\n      jumpi\n      revert(0x00, 0x00)\n    tag_60:\n      pop\n      tag_61\n      0x04\n      dup1\n      calldatasize\n      sub\n      dup2\n      add\n      swap1\n      tag_62\n      swap2\n      swap1\n      tag_23\n      jump\t// in\n    tag_62:\n      tag_63\n      jump\t// in\n    tag_61:\n      stop\n        /* \"digital_contract.sol\":2216:2965  function createContract(... */\n    tag_11:\n      tag_64\n      0x04\n      dup1\n      calldatasize\n      sub\n      dup2\n      add\n      swap1\n      tag_65\n      swap2\n      swap1\n      tag_66\n      jump\t// in\n    tag_65:\n      tag_67\n      jump\t// in\n    tag_64:\n      stop\n        /* \"digital_contract.sol\":3892:4452  function confirmDeliveryByOracle(uint256 _contractId, bytes32 _trackingNumberHash) public onlyOracle {... */\n    tag_12:\n      callvalue\n      dup1\n      iszero\n      tag_68\n      jumpi\n      revert(0x00, 0x00)\n    tag_68:\n      pop\n      tag_69\n      0x04\n      dup1\n      calldatasize\n      sub\n      dup2\n      add\n      swap1\n      tag_70\n      swap2\n      swap1\n      tag_71\n      jump\t// in\n    tag_70:\n      tag_72\n      jump\t// in\n    tag_69:\n      stop\n        /* \"digital_contract.sol\":5528:6244  function withdrawFundsFrom(uint256 _contractId) public nonReentrant onlyCounterparty(_contractId) {... */\n    tag_13:\n      callvalue\n      dup1\n      iszero\n      tag_73\n      jumpi\n      revert(0x00, 0x00)\n    tag_73:\n      pop\n      tag_74\n      0x04\n      dup1\n      calldatasize\n      sub\n      dup2\n      add\n      swap1\n      tag_75\n      swap2\n      swap1\n      tag_23\n      jump\t// in\n    tag_75:\n      tag_76\n      jump\t// in\n    tag_74:\n      stop\n        /* \"digital_contract.sol\":710:731  bool public oracleSet */\n    tag_14:\n      callvalue\n      dup1\n      iszero\n      tag_77\n      jumpi\n      revert(0x00, 0x00)\n    tag_77:\n      pop\n      tag_78\n      tag_79\n      jump\t// in\n    tag_78:\n      mload(0x40)\n      tag_80\n      swap2\n      swap1\n      tag_81\n      jump\t// in\n    tag_80:\n      mload(0x40)\n      dup1\n      swap2\n      sub\n      swap1\n      return\n        /* \"digital_contract.sol\":838:891  mapping(address => uint256) public pendingWithdrawals */\n    tag_15:\n      callvalue\n      dup1\n      iszero\n      tag_82\n      jumpi\n      revert(0x00, 0x00)\n    tag_82:\n      pop\n      tag_83\n      0x04\n      dup1\n      calldatasize\n      sub\n      dup2\n      add\n      swap1\n      tag_84\n      swap2\n      swap1\n      tag_49\n      jump\t// in\n    tag_84:\n      tag_85\n      jump\t// in\n    tag_83:\n      mload(0x40)\n      tag_86\n      swap2\n      swap1\n      tag_29\n      jump\t// in\n    tag_86:\n      mload(0x40)\n      dup1\n      swap2\n      sub\n      swap1\n      return\n        /* \"digital_contract.sol\":3311:3884  function setDeliveryTracking(uint256 _contractId, bytes32 _trackingNumberHash) public onlyCounterparty(_contractId) {... */\n    tag_16:\n      callvalue\n      dup1\n      iszero\n      tag_87\n      jumpi\n      revert(0x00, 0x00)\n    tag_87:\n      pop\n      tag_88\n      0x04\n      dup1\n      calldatasize\n      sub\n      dup2\n      add\n      swap1\n      tag_89\n      swap2\n      swap1\n      tag_71\n      jump\t// in\n    tag_89:\n      tag_90\n      jump\t// in\n    tag_88:\n      stop\n        /* \"digital_contract.sol\":4460:4981  function approveDeliveryAsCreator(uint256 _contractId) public onlyCreator(_contractId) {... */\n    tag_24:\n        /* \"digital_contract.sol\":4534:4545  _contractId */\n      dup1\n        /* \"digital_contract.sol\":1614:1623  contracts */\n      0x02\n        /* \"digital_contract.sol\":1614:1636  contracts[_contractId] */\n      0x00\n        /* \"digital_contract.sol\":1624:1635  _contractId */\n      dup3\n        /* \"digital_contract.sol\":1614:1636  contracts[_contractId] */\n      dup2\n      mstore\n      0x20\n      add\n      swap1\n      dup2\n      mstore\n      0x20\n      add\n      0x00\n      keccak256\n        /* \"digital_contract.sol\":1614:1644  contracts[_contractId].creator */\n      0x02\n      add\n      0x00\n      swap1\n      sload\n      swap1\n      0x0100\n      exp\n      swap1\n      div\n      0xffffffffffffffffffffffffffffffffffffffff\n      and\n        /* \"digital_contract.sol\":1600:1644  msg.sender == contracts[_contractId].creator */\n      0xffffffffffffffffffffffffffffffffffffffff\n      and\n        /* \"digital_contract.sol\":1600:1610  msg.sender */\n      caller\n        /* \"digital_contract.sol\":1600:1644  msg.sender == contracts[_contractId].creator */\n      0xffffffffffffffffffffffffffffffffffffffff\n      and\n      eq\n        /* \"digital_contract.sol\":1592:1660  require(msg.sender == contracts[_contractId].creator, \"Not creator\") */\n      tag_92\n      jumpi\n      mload(0x40)\n      0x08c379a000000000000000000000000000000000000000000000000000000000\n      dup2\n      mstore\n      0x04\n      add\n      tag_93\n      swap1\n      tag_94\n      jump\t// in\n    tag_93:\n      mload(0x40)\n      dup1\n      swap2\n      sub\n      swap1\n      revert\n    tag_92:\n        /* \"digital_contract.sol\":4558:4591  ManagedContract storage mContract */\n      0x00\n        /* \"digital_contract.sol\":4594:4603  contracts */\n      0x02\n        /* \"digital_contract.sol\":4594:4616  contracts[_contractId] */\n      0x00\n        /* \"digital_contract.sol\":4604:4615  _contractId */\n      dup5\n        /* \"digital_contract.sol\":4594:4616  contracts[_contractId] */\n      dup2\n      mstore\n      0x20\n      add\n      swap1\n      dup2\n      mstore\n      0x20\n      add\n      0x00\n      keccak256\n        /* \"digital_contract.sol\":4558:4616  ManagedContract storage mContract = contracts[_contractId] */\n      swap1\n      pop\n        /* \"digital_contract.sol\":4655:4687  ContractStatus.DeliveryConfirmed */\n      0x03\n        /* \"digital_contract.sol\":4635:4687  mContract.status == ContractStatus.DeliveryConfirmed */\n      0x07\n      dup2\n      gt\n      iszero\n      tag_96\n      jumpi\n      tag_97\n      tag_98\n      jump\t// in\n    tag_97:\n    tag_96:\n        /* \"digital_contract.sol\":4635:4644  mContract */\n      dup2\n        /* \"digital_contract.sol\":4635:4651  mContract.status */\n      0x03\n      add\n      0x14\n      swap1\n      sload\n      swap1\n      0x0100\n      exp\n      swap1\n      div\n      0xff\n      and\n        /* \"digital_contract.sol\":4635:4687  mContract.status == ContractStatus.DeliveryConfirmed */\n      0x07\n      dup2\n      gt\n      iszero\n      tag_99\n      jumpi\n      tag_100\n      tag_98\n      jump\t// in\n    tag_100:\n    tag_99:\n      eq\n        /* \"digital_contract.sol\":4627:4704  require(mContract.status == ContractStatus.DeliveryConfirmed, \"Wrong status\") */\n      tag_101\n      jumpi\n      mload(0x40)\n      0x08c379a000000000000000000000000000000000000000000000000000000000\n      dup2\n      mstore\n      0x04\n      add\n      tag_102\n      swap1\n      tag_103\n      jump\t// in\n    tag_102:\n      mload(0x40)\n      dup1\n      swap2\n      sub\n      swap1\n      revert\n    tag_101:\n        /* \"digital_contract.sol\":4736:4767  ContractStatus.DeliveryApproved */\n      0x04\n        /* \"digital_contract.sol\":4717:4726  mContract */\n      dup2\n        /* \"digital_contract.sol\":4717:4733  mContract.status */\n      0x03\n      add\n      0x14\n        /* \"digital_contract.sol\":4717:4767  mContract.status = ContractStatus.DeliveryApproved */\n      0x0100\n      exp\n      dup2\n      sload\n      dup2\n      0xff\n      mul\n      not\n      and\n      swap1\n      dup4\n      0x07\n      dup2\n      gt\n      iszero\n      tag_104\n      jumpi\n      tag_105\n      tag_98\n      jump\t// in\n    tag_105:\n    tag_104:\n      mul\n      or\n      swap1\n      sstore\n      pop\n        /* \"digital_contract.sol\":4824:4833  mContract */\n      dup1\n        /* \"digital_contract.sol\":4824:4840  mContract.amount */\n      0x01\n      add\n      sload\n        /* \"digital_contract.sol\":4778:4796  pendingWithdrawals */\n      0x04\n        /* \"digital_contract.sol\":4778:4820  pendingWithdrawals[mContract.counterparty] */\n      0x00\n        /* \"digital_contract.sol\":4797:4806  mContract */\n      dup4\n        /* \"digital_contract.sol\":4797:4819  mContract.counterparty */\n      0x03\n      add\n      0x00\n      swap1\n      sload\n      swap1\n      0x0100\n      exp\n      swap1\n      div\n      0xffffffffffffffffffffffffffffffffffffffff\n      and\n        /* \"digital_contract.sol\":4778:4820  pendingWithdrawals[mContract.counterparty] */\n      0xffffffffffffffffffffffffffffffffffffffff\n      and\n      0xffffffffffffffffffffffffffffffffffffffff\n      and\n      dup2\n      mstore\n      0x20\n      add\n      swap1\n      dup2\n      mstore\n      0x20\n      add\n      0x00\n      keccak256\n      0x00\n        /* \"digital_contract.sol\":4778:4840  pendingWithdrawals[mContract.counterparty] += mContract.amount */\n      dup3\n      dup3\n      sload\n      tag_106\n      swap2\n      swap1\n      tag_107\n      jump\t// in\n    tag_106:\n      swap3\n      pop\n      pop\n      dup2\n      swap1\n      sstore\n      pop\n        /* \"digital_contract.sol\":4875:4886  _contractId */\n      dup3\n        /* \"digital_contract.sol\":4858:4887  DeliveryApproved(_contractId) */\n      0x5c1e662f72ee6c85181b65fac5beb0390932b8c472f05b257151d041ac9ddffa\n      mload(0x40)\n      mload(0x40)\n      dup1\n      swap2\n      sub\n      swap1\n      log2\n        /* \"digital_contract.sol\":4932:4941  mContract */\n      dup1\n        /* \"digital_contract.sol\":4932:4954  mContract.counterparty */\n      0x03\n      add\n      0x00\n      swap1\n      sload\n      swap1\n      0x0100\n      exp\n      swap1\n      div\n      0xffffffffffffffffffffffffffffffffffffffff\n      and\n        /* \"digital_contract.sol\":4903:4973  PaymentReleased(_contractId, mContract.counterparty, mContract.amount) */\n      0xffffffffffffffffffffffffffffffffffffffff\n      and\n        /* \"digital_contract.sol\":4919:4930  _contractId */\n      dup4\n        /* \"digital_contract.sol\":4903:4973  PaymentReleased(_contractId, mContract.counterparty, mContract.amount) */\n      0x21d71db5be59bb9fa133895586b7404307dd33fb93b16db09dc6f1d9d7d231b0\n        /* \"digital_contract.sol\":4956:4965  mContract */\n      dup4\n        /* \"digital_contract.sol\":4956:4972  mContract.amount */\n      0x01\n      add\n      sload\n        /* \"digital_contract.sol\":4903:4973  PaymentReleased(_contractId, mContract.counterparty, mContract.amount) */\n      mload(0x40)\n      tag_108\n      swap2\n      swap1\n      tag_29\n      jump\t// in\n    tag_108:\n      mload(0x40)\n      dup1\n      swap2\n      sub\n      swap1\n      log3\n        /* \"digital_contract.sol\":4547:4981  {... */\n      pop\n        /* \"digital_contract.sol\":4460:4981  function approveDeliveryAsCreator(uint256 _contractId) public onlyCreator(_contractId) {... */\n      pop\n      pop\n      jump\t// out\n        /* \"digital_contract.sol\":799:829  uint256 public contractCounter */\n    tag_27:\n      sload(0x03)\n      dup2\n      jump\t// out\n        /* \"digital_contract.sol\":6724:6864  function getContractStatus(uint256 _contractId) public view returns (ContractStatus) {... */\n    tag_33:\n        /* \"digital_contract.sol\":6793:6807  ContractStatus */\n      0x00\n        /* \"digital_contract.sol\":6827:6836  contracts */\n      0x02\n        /* \"digital_contract.sol\":6827:6849  contracts[_contractId] */\n      0x00\n        /* \"digital_contract.sol\":6837:6848  _contractId */\n      dup4\n        /* \"digital_contract.sol\":6827:6849  contracts[_contractId] */\n      dup2\n      mstore\n      0x20\n      add\n      swap1\n      dup2\n      mstore\n      0x20\n      add\n      0x00\n      keccak256\n        /* \"digital_contract.sol\":6827:6856  contracts[_contractId].status */\n      0x03\n      add\n      0x14\n      swap1\n      sload\n      swap1\n      0x0100\n      exp\n      swap1\n      div\n      0xff\n      and\n        /* \"digital_contract.sol\":6820:6856  return contracts[_contractId].status */\n      swap1\n      pop\n        /* \"digital_contract.sol\":6724:6864  function getContractStatus(uint256 _contractId) public view returns (ContractStatus) {... */\n      swap2\n      swap1\n      pop\n      jump\t// out\n        /* \"digital_contract.sol\":6252:6716  function deactivateContract(uint256 _contractId) public onlyCounterparty(_contractId) onlyCreator(_contractId) {... */\n    tag_39:\n        /* \"digital_contract.sol\":6325:6336  _contractId */\n      dup1\n        /* \"digital_contract.sol\":1768:1777  contracts */\n      0x02\n        /* \"digital_contract.sol\":1768:1790  contracts[_contractId] */\n      0x00\n        /* \"digital_contract.sol\":1778:1789  _contractId */\n      dup3\n        /* \"digital_contract.sol\":1768:1790  contracts[_contractId] */\n      dup2\n      mstore\n      0x20\n      add\n      swap1\n      dup2\n      mstore\n      0x20\n      add\n      0x00\n      keccak256\n        /* \"digital_contract.sol\":1768:1803  contracts[_contractId].counterparty */\n      0x03\n      add\n      0x00\n      swap1\n      sload\n      swap1\n      0x0100\n      exp\n      swap1\n      div\n      0xffffffffffffffffffffffffffffffffffffffff\n      and\n        /* \"digital_contract.sol\":1754:1803  msg.sender == contracts[_contractId].counterparty */\n      0xffffffffffffffffffffffffffffffffffffffff\n      and\n        /* \"digital_contract.sol\":1754:1764  msg.sender */\n      caller\n        /* \"digital_contract.sol\":1754:1803  msg.sender == contracts[_contractId].counterparty */\n      0xffffffffffffffffffffffffffffffffffffffff\n      and\n      eq\n        /* \"digital_contract.sol\":1746:1824  require(msg.sender == contracts[_contractId].counterparty, \"Not counterparty\") */\n      tag_111\n      jumpi\n      mload(0x40)\n      0x08c379a000000000000000000000000000000000000000000000000000000000\n      dup2\n      mstore\n      0x04\n      add\n      tag_112\n      swap1\n      tag_113\n      jump\t// in\n    tag_112:\n      mload(0x40)\n      dup1\n      swap2\n      sub\n      swap1\n      revert\n    tag_111:\n        /* \"digital_contract.sol\":6350:6361  _contractId */\n      dup2\n        /* \"digital_contract.sol\":1614:1623  contracts */\n      0x02\n        /* \"digital_contract.sol\":1614:1636  contracts[_contractId] */\n      0x00\n        /* \"digital_contract.sol\":1624:1635  _contractId */\n      dup3\n        /* \"digital_contract.sol\":1614:1636  contracts[_contractId] */\n      dup2\n      mstore\n      0x20\n      add\n      swap1\n      dup2\n      mstore\n      0x20\n      add\n      0x00\n      keccak256\n        /* \"digital_contract.sol\":1614:1644  contracts[_contractId].creator */\n      0x02\n      add\n      0x00\n      swap1\n      sload\n      swap1\n      0x0100\n      exp\n      swap1\n      div\n      0xffffffffffffffffffffffffffffffffffffffff\n      and\n        /* \"digital_contract.sol\":1600:1644  msg.sender == contracts[_contractId].creator */\n      0xffffffffffffffffffffffffffffffffffffffff\n      and\n        /* \"digital_contract.sol\":1600:1610  msg.sender */\n      caller\n        /* \"digital_contract.sol\":1600:1644  msg.sender == contracts[_contractId].creator */\n      0xffffffffffffffffffffffffffffffffffffffff\n      and\n      eq\n        /* \"digital_contract.sol\":1592:1660  require(msg.sender == contracts[_contractId].creator, \"Not creator\") */\n      tag_115\n      jumpi\n      mload(0x40)\n      0x08c379a000000000000000000000000000000000000000000000000000000000\n      dup2\n      mstore\n      0x04\n      add\n      tag_116\n      swap1\n      tag_94\n      jump\t// in\n    tag_116:\n      mload(0x40)\n      dup1\n      swap2\n      sub\n      swap1\n      revert\n    tag_115:\n        /* \"digital_contract.sol\":6374:6407  ManagedContract storage mContract */\n      0x00\n        /* \"digital_contract.sol\":6410:6419  contracts */\n      0x02\n        /* \"digital_contract.sol\":6410:6432  contracts[_contractId] */\n      0x00\n        /* \"digital_contract.sol\":6420:6431  _contractId */\n      dup6\n        /* \"digital_contract.sol\":6410:6432  contracts[_contractId] */\n      dup2\n      mstore\n      0x20\n      add\n      swap1\n      dup2\n      mstore\n      0x20\n      add\n      0x00\n      keccak256\n        /* \"digital_contract.sol\":6374:6432  ManagedContract storage mContract = contracts[_contractId] */\n      swap1\n      pop\n        /* \"digital_contract.sol\":6471:6495  ContractStatus.Completed */\n      0x06\n        /* \"digital_contract.sol\":6451:6495  mContract.status == ContractStatus.Completed */\n      0x07\n      dup2\n      gt\n      iszero\n      tag_118\n      jumpi\n      tag_119\n      tag_98\n      jump\t// in\n    tag_119:\n    tag_118:\n        /* \"digital_contract.sol\":6451:6460  mContract */\n      dup2\n        /* \"digital_contract.sol\":6451:6467  mContract.status */\n      0x03\n      add\n      0x14\n      swap1\n      sload\n      swap1\n      0x0100\n      exp\n      swap1\n      div\n      0xff\n      and\n        /* \"digital_contract.sol\":6451:6495  mContract.status == ContractStatus.Completed */\n      0x07\n      dup2\n      gt\n      iszero\n      tag_120\n      jumpi\n      tag_121\n      tag_98\n      jump\t// in\n    tag_121:\n    tag_120:\n      eq\n        /* \"digital_contract.sol\":6443:6514  require(mContract.status == ContractStatus.Completed, \"Only Completed\") */\n      tag_122\n      jumpi\n      mload(0x40)\n      0x08c379a000000000000000000000000000000000000000000000000000000000\n      dup2\n      mstore\n      0x04\n      add\n      tag_123\n      swap1\n      tag_124\n      jump\t// in\n    tag_123:\n      mload(0x40)\n      dup1\n      swap2\n      sub\n      swap1\n      revert\n    tag_122:\n        /* \"digital_contract.sol\":6534:6543  mContract */\n      dup1\n        /* \"digital_contract.sol\":6534:6556  mContract.contractHash */\n      0x04\n      add\n        /* \"digital_contract.sol\":6527:6556  delete mContract.contractHash */\n      0x00\n      swap1\n      sstore\n        /* \"digital_contract.sol\":6574:6583  mContract */\n      dup1\n        /* \"digital_contract.sol\":6574:6604  mContract.deliveryTrackingHash */\n      0x05\n      add\n        /* \"digital_contract.sol\":6567:6604  delete mContract.deliveryTrackingHash */\n      0x00\n      swap1\n      sstore\n        /* \"digital_contract.sol\":6634:6658  ContractStatus.Cancelled */\n      0x07\n        /* \"digital_contract.sol\":6615:6624  mContract */\n      dup2\n        /* \"digital_contract.sol\":6615:6631  mContract.status */\n      0x03\n      add\n      0x14\n        /* \"digital_contract.sol\":6615:6658  mContract.status = ContractStatus.Cancelled */\n      0x0100\n      exp\n      dup2\n      sload\n      dup2\n      0xff\n      mul\n      not\n      and\n      swap1\n      dup4\n      0x07\n      dup2\n      gt\n      iszero\n      tag_125\n      jumpi\n      tag_126\n      tag_98\n      jump\t// in\n    tag_126:\n    tag_125:\n      mul\n      or\n      swap1\n      sstore\n      pop\n        /* \"digital_contract.sol\":6696:6707  _contractId */\n      dup4\n        /* \"digital_contract.sol\":6676:6708  ContractDeactivated(_contractId) */\n      0x741b099f015e1976cfa72a7448a8fb1d54eab1d616241b562cfbe603a2b61b42\n      mload(0x40)\n      mload(0x40)\n      dup1\n      swap2\n      sub\n      swap1\n      log2\n        /* \"digital_contract.sol\":6363:6716  {... */\n      pop\n        /* \"digital_contract.sol\":1835:1836  _ */\n      pop\n        /* \"digital_contract.sol\":6252:6716  function deactivateContract(uint256 _contractId) public onlyCounterparty(_contractId) onlyCreator(_contractId) {... */\n      pop\n      pop\n      jump\t// out\n        /* \"digital_contract.sol\":740:792  mapping(uint256 => ManagedContract) public contracts */\n    tag_43:\n      mstore(0x20, 0x02)\n      dup1\n      0x00\n      mstore\n      keccak256(0x00, 0x40)\n      0x00\n      swap2\n      pop\n      swap1\n      pop\n      dup1\n      0x00\n      add\n      sload\n      swap1\n      dup1\n      0x01\n      add\n      sload\n      swap1\n      dup1\n      0x02\n      add\n      0x00\n      swap1\n      sload\n      swap1\n      0x0100\n      exp\n      swap1\n      div\n      0xffffffffffffffffffffffffffffffffffffffff\n      and\n      swap1\n      dup1\n      0x03\n      add\n      0x00\n      swap1\n      sload\n      swap1\n      0x0100\n      exp\n      swap1\n      div\n      0xffffffffffffffffffffffffffffffffffffffff\n      and\n      swap1\n      dup1\n      0x03\n      add\n      0x14\n      swap1\n      sload\n      swap1\n      0x0100\n      exp\n      swap1\n      div\n      0xff\n      and\n      swap1\n      dup1\n      0x04\n      add\n      sload\n      swap1\n      dup1\n      0x05\n      add\n      sload\n      swap1\n      dup1\n      0x06\n      add\n      0x00\n      swap1\n      sload\n      swap1\n      0x0100\n      exp\n      swap1\n      div\n      0xff\n      and\n      swap1\n      pop\n      dup9\n      jump\t// out\n        /* \"digital_contract.sol\":1956:2208  function setOracle(address _oracle) public {... */\n    tag_50:\n        /* \"digital_contract.sol\":2019:2028  oracleSet */\n      0x01\n      0x14\n      swap1\n      sload\n      swap1\n      0x0100\n      exp\n      swap1\n      div\n      0xff\n      and\n        /* \"digital_contract.sol\":2018:2028  !oracleSet */\n      iszero\n        /* \"digital_contract.sol\":2010:2051  require(!oracleSet, \"Oracle already set\") */\n      tag_128\n      jumpi\n      mload(0x40)\n      0x08c379a000000000000000000000000000000000000000000000000000000000\n      dup2\n      mstore\n      0x04\n      add\n      tag_129\n      swap1\n      tag_130\n      jump\t// in\n    tag_129:\n      mload(0x40)\n      dup1\n      swap2\n      sub\n      swap1\n      revert\n    tag_128:\n        /* \"digital_contract.sol\":2089:2090  0 */\n      0x00\n        /* \"digital_contract.sol\":2070:2091  _oracle != address(0) */\n      0xffffffffffffffffffffffffffffffffffffffff\n      and\n        /* \"digital_contract.sol\":2070:2077  _oracle */\n      dup2\n        /* \"digital_contract.sol\":2070:2091  _oracle != address(0) */\n      0xffffffffffffffffffffffffffffffffffffffff\n      and\n      sub\n        /* \"digital_contract.sol\":2062:2110  require(_oracle != address(0), \"Invalid oracle\") */\n      tag_131\n      jumpi\n      mload(0x40)\n      0x08c379a000000000000000000000000000000000000000000000000000000000\n      dup2\n      mstore\n      0x04\n      add\n      tag_132\n      swap1\n      tag_133\n      jump\t// in\n    tag_132:\n      mload(0x40)\n      dup1\n      swap2\n      sub\n      swap1\n      revert\n    tag_131:\n        /* \"digital_contract.sol\":2132:2139  _oracle */\n      dup1\n        /* \"digital_contract.sol\":2123:2129  oracle */\n      0x01\n      0x00\n        /* \"digital_contract.sol\":2123:2139  oracle = _oracle */\n      0x0100\n      exp\n      dup2\n      sload\n      dup2\n      0xffffffffffffffffffffffffffffffffffffffff\n      mul\n      not\n      and\n      swap1\n      dup4\n      0xffffffffffffffffffffffffffffffffffffffff\n      and\n      mul\n      or\n      swap1\n      sstore\n      pop\n        /* \"digital_contract.sol\":2162:2166  true */\n      0x01\n        /* \"digital_contract.sol\":2150:2159  oracleSet */\n      dup1\n      0x14\n        /* \"digital_contract.sol\":2150:2166  oracleSet = true */\n      0x0100\n      exp\n      dup2\n      sload\n      dup2\n      0xff\n      mul\n      not\n      and\n      swap1\n      dup4\n      iszero\n      iszero\n      mul\n      or\n      swap1\n      sstore\n      pop\n        /* \"digital_contract.sol\":2192:2199  _oracle */\n      dup1\n        /* \"digital_contract.sol\":2182:2200  OracleSet(_oracle) */\n      0xffffffffffffffffffffffffffffffffffffffff\n      and\n      0x3f32684a32a11dabdbb8c0177de80aa3ae36a004d75210335b49e544e48cd0aa\n      mload(0x40)\n      mload(0x40)\n      dup1\n      swap2\n      sub\n      swap1\n      log2\n        /* \"digital_contract.sol\":1956:2208  function setOracle(address _oracle) public {... */\n      pop\n      jump\t// out\n        /* \"digital_contract.sol\":682:703  address public oracle */\n    tag_53:\n      0x01\n      0x00\n      swap1\n      sload\n      swap1\n      0x0100\n      exp\n      swap1\n      div\n      0xffffffffffffffffffffffffffffffffffffffff\n      and\n      dup2\n      jump\t// out\n        /* \"digital_contract.sol\":4989:5520  function confirmCompletion(uint256 _contractId) public onlyCreator(_contractId) {... */\n    tag_59:\n        /* \"digital_contract.sol\":5056:5067  _contractId */\n      dup1\n        /* \"digital_contract.sol\":1614:1623  contracts */\n      0x02\n        /* \"digital_contract.sol\":1614:1636  contracts[_contractId] */\n      0x00\n        /* \"digital_contract.sol\":1624:1635  _contractId */\n      dup3\n        /* \"digital_contract.sol\":1614:1636  contracts[_contractId] */\n      dup2\n      mstore\n      0x20\n      add\n      swap1\n      dup2\n      mstore\n      0x20\n      add\n      0x00\n      keccak256\n        /* \"digital_contract.sol\":1614:1644  contracts[_contractId].creator */\n      0x02\n      add\n      0x00\n      swap1\n      sload\n      swap1\n      0x0100\n      exp\n      swap1\n      div\n      0xffffffffffffffffffffffffffffffffffffffff\n      and\n        /* \"digital_contract.sol\":1600:1644  msg.sender == contracts[_contractId].creator */\n      0xffffffffffffffffffffffffffffffffffffffff\n      and\n        /* \"digital_contract.sol\":1600:1610  msg.sender */\n      caller\n        /* \"digital_contract.sol\":1600:1644  msg.sender == contracts[_contractId].creator */\n      0xffffffffffffffffffffffffffffffffffffffff\n      and\n      eq\n        /* \"digital_contract.sol\":1592:1660  require(msg.sender == contracts[_contractId].creator, \"Not creator\") */\n      tag_135\n      jumpi\n      mload(0x40)\n      0x08c379a000000000000000000000000000000000000000000000000000000000\n      dup2\n      mstore\n      0x04\n      add\n      tag_136\n      swap1\n      tag_94\n      jump\t// in\n    tag_136:\n      mload(0x40)\n      dup1\n      swap2\n      sub\n      swap1\n      revert\n    tag_135:\n        /* \"digital_contract.sol\":5080:5113  ManagedContract storage mContract */\n      0x00\n        /* \"digital_contract.sol\":5116:5125  contracts */\n      0x02\n        /* \"digital_contract.sol\":5116:5138  contracts[_contractId] */\n      0x00\n        /* \"digital_contract.sol\":5126:5137  _contractId */\n      dup5\n        /* \"digital_contract.sol\":5116:5138  contracts[_contractId] */\n      dup2\n      mstore\n      0x20\n      add\n      swap1\n      dup2\n      mstore\n      0x20\n      add\n      0x00\n      keccak256\n        /* \"digital_contract.sol\":5080:5138  ManagedContract storage mContract = contracts[_contractId] */\n      swap1\n      pop\n        /* \"digital_contract.sol\":5177:5198  ContractStatus.Signed */\n      0x01\n        /* \"digital_contract.sol\":5157:5198  mContract.status == ContractStatus.Signed */\n      0x07\n      dup2\n      gt\n      iszero\n      tag_138\n      jumpi\n      tag_139\n      tag_98\n      jump\t// in\n    tag_139:\n    tag_138:\n        /* \"digital_contract.sol\":5157:5166  mContract */\n      dup2\n        /* \"digital_contract.sol\":5157:5173  mContract.status */\n      0x03\n      add\n      0x14\n      swap1\n      sload\n      swap1\n      0x0100\n      exp\n      swap1\n      div\n      0xff\n      and\n        /* \"digital_contract.sol\":5157:5198  mContract.status == ContractStatus.Signed */\n      0x07\n      dup2\n      gt\n      iszero\n      tag_140\n      jumpi\n      tag_141\n      tag_98\n      jump\t// in\n    tag_141:\n    tag_140:\n      eq\n        /* \"digital_contract.sol\":5149:5213  require(mContract.status == ContractStatus.Signed, \"Not signed\") */\n      tag_142\n      jumpi\n      mload(0x40)\n      0x08c379a000000000000000000000000000000000000000000000000000000000\n      dup2\n      mstore\n      0x04\n      add\n      tag_143\n      swap1\n      tag_144\n      jump\t// in\n    tag_143:\n      mload(0x40)\n      dup1\n      swap2\n      sub\n      swap1\n      revert\n    tag_142:\n        /* \"digital_contract.sol\":5233:5242  mContract */\n      dup1\n        /* \"digital_contract.sol\":5233:5259  mContract.deliveryRequired */\n      0x06\n      add\n      0x00\n      swap1\n      sload\n      swap1\n      0x0100\n      exp\n      swap1\n      div\n      0xff\n      and\n        /* \"digital_contract.sol\":5232:5259  !mContract.deliveryRequired */\n      iszero\n        /* \"digital_contract.sol\":5224:5286  require(!mContract.deliveryRequired, \"Delivery flow required\") */\n      tag_145\n      jumpi\n      mload(0x40)\n      0x08c379a000000000000000000000000000000000000000000000000000000000\n      dup2\n      mstore\n      0x04\n      add\n      tag_146\n      swap1\n      tag_147\n      jump\t// in\n    tag_146:\n      mload(0x40)\n      dup1\n      swap2\n      sub\n      swap1\n      revert\n    tag_145:\n        /* \"digital_contract.sol\":5318:5351  ContractStatus.AgreementFulfilled */\n      0x05\n        /* \"digital_contract.sol\":5299:5308  mContract */\n      dup2\n        /* \"digital_contract.sol\":5299:5315  mContract.status */\n      0x03\n      add\n      0x14\n        /* \"digital_contract.sol\":5299:5351  mContract.status = ContractStatus.AgreementFulfilled */\n      0x0100\n      exp\n      dup2\n      sload\n      dup2\n      0xff\n      mul\n      not\n      and\n      swap1\n      dup4\n      0x07\n      dup2\n      gt\n      iszero\n      tag_148\n      jumpi\n      tag_149\n      tag_98\n      jump\t// in\n    tag_149:\n    tag_148:\n      mul\n      or\n      swap1\n      sstore\n      pop\n        /* \"digital_contract.sol\":5408:5417  mContract */\n      dup1\n        /* \"digital_contract.sol\":5408:5424  mContract.amount */\n      0x01\n      add\n      sload\n        /* \"digital_contract.sol\":5362:5380  pendingWithdrawals */\n      0x04\n        /* \"digital_contract.sol\":5362:5404  pendingWithdrawals[mContract.counterparty] */\n      0x00\n        /* \"digital_contract.sol\":5381:5390  mContract */\n      dup4\n        /* \"digital_contract.sol\":5381:5403  mContract.counterparty */\n      0x03\n      add\n      0x00\n      swap1\n      sload\n      swap1\n      0x0100\n      exp\n      swap1\n      div\n      0xffffffffffffffffffffffffffffffffffffffff\n      and\n        /* \"digital_contract.sol\":5362:5404  pendingWithdrawals[mContract.counterparty] */\n      0xffffffffffffffffffffffffffffffffffffffff\n      and\n      0xffffffffffffffffffffffffffffffffffffffff\n      and\n      dup2\n      mstore\n      0x20\n      add\n      swap1\n      dup2\n      mstore\n      0x20\n      add\n      0x00\n      keccak256\n      0x00\n        /* \"digital_contract.sol\":5362:5424  pendingWithdrawals[mContract.counterparty] += mContract.amount */\n      dup3\n      dup3\n      sload\n      tag_150\n      swap2\n      swap1\n      tag_107\n      jump\t// in\n    tag_150:\n      swap3\n      pop\n      pop\n      dup2\n      swap1\n      sstore\n      pop\n        /* \"digital_contract.sol\":5471:5480  mContract */\n      dup1\n        /* \"digital_contract.sol\":5471:5493  mContract.counterparty */\n      0x03\n      add\n      0x00\n      swap1\n      sload\n      swap1\n      0x0100\n      exp\n      swap1\n      div\n      0xffffffffffffffffffffffffffffffffffffffff\n      and\n        /* \"digital_contract.sol\":5442:5512  PaymentReleased(_contractId, mContract.counterparty, mContract.amount) */\n      0xffffffffffffffffffffffffffffffffffffffff\n      and\n        /* \"digital_contract.sol\":5458:5469  _contractId */\n      dup4\n        /* \"digital_contract.sol\":5442:5512  PaymentReleased(_contractId, mContract.counterparty, mContract.amount) */\n      0x21d71db5be59bb9fa133895586b7404307dd33fb93b16db09dc6f1d9d7d231b0\n        /* \"digital_contract.sol\":5495:5504  mContract */\n      dup4\n        /* \"digital_contract.sol\":5495:5511  mContract.amount */\n      0x01\n      add\n      sload\n        /* \"digital_contract.sol\":5442:5512  PaymentReleased(_contractId, mContract.counterparty, mContract.amount) */\n      mload(0x40)\n      tag_151\n      swap2\n      swap1\n      tag_29\n      jump\t// in\n    tag_151:\n      mload(0x40)\n      dup1\n      swap2\n      sub\n      swap1\n      log3\n        /* \"digital_contract.sol\":5069:5520  {... */\n      pop\n        /* \"digital_contract.sol\":4989:5520  function confirmCompletion(uint256 _contractId) public onlyCreator(_contractId) {... */\n      pop\n      pop\n      jump\t// out\n        /* \"digital_contract.sol\":2973:3303  function signContract(uint256 _contractId) public onlyCounterparty(_contractId) {... */\n    tag_63:\n        /* \"digital_contract.sol\":3040:3051  _contractId */\n      dup1\n        /* \"digital_contract.sol\":1768:1777  contracts */\n      0x02\n        /* \"digital_contract.sol\":1768:1790  contracts[_contractId] */\n      0x00\n        /* \"digital_contract.sol\":1778:1789  _contractId */\n      dup3\n        /* \"digital_contract.sol\":1768:1790  contracts[_contractId] */\n      dup2\n      mstore\n      0x20\n      add\n      swap1\n      dup2\n      mstore\n      0x20\n      add\n      0x00\n      keccak256\n        /* \"digital_contract.sol\":1768:1803  contracts[_contractId].counterparty */\n      0x03\n      add\n      0x00\n      swap1\n      sload\n      swap1\n      0x0100\n      exp\n      swap1\n      div\n      0xffffffffffffffffffffffffffffffffffffffff\n      and\n        /* \"digital_contract.sol\":1754:1803  msg.sender == contracts[_contractId].counterparty */\n      0xffffffffffffffffffffffffffffffffffffffff\n      and\n        /* \"digital_contract.sol\":1754:1764  msg.sender */\n      caller\n        /* \"digital_contract.sol\":1754:1803  msg.sender == contracts[_contractId].counterparty */\n      0xffffffffffffffffffffffffffffffffffffffff\n      and\n      eq\n        /* \"digital_contract.sol\":1746:1824  require(msg.sender == contracts[_contractId].counterparty, \"Not counterparty\") */\n      tag_153\n      jumpi\n      mload(0x40)\n      0x08c379a000000000000000000000000000000000000000000000000000000000\n      dup2\n      mstore\n      0x04\n      add\n      tag_154\n      swap1\n      tag_113\n      jump\t// in\n    tag_154:\n      mload(0x40)\n      dup1\n      swap2\n      sub\n      swap1\n      revert\n    tag_153:\n        /* \"digital_contract.sol\":3064:3097  ManagedContract storage mContract */\n      0x00\n        /* \"digital_contract.sol\":3100:3109  contracts */\n      0x02\n        /* \"digital_contract.sol\":3100:3122  contracts[_contractId] */\n      0x00\n        /* \"digital_contract.sol\":3110:3121  _contractId */\n      dup5\n        /* \"digital_contract.sol\":3100:3122  contracts[_contractId] */\n      dup2\n      mstore\n      0x20\n      add\n      swap1\n      dup2\n      mstore\n      0x20\n      add\n      0x00\n      keccak256\n        /* \"digital_contract.sol\":3064:3122  ManagedContract storage mContract = contracts[_contractId] */\n      swap1\n      pop\n        /* \"digital_contract.sol\":3161:3183  ContractStatus.Created */\n      0x00\n        /* \"digital_contract.sol\":3141:3183  mContract.status == ContractStatus.Created */\n      0x07\n      dup2\n      gt\n      iszero\n      tag_156\n      jumpi\n      tag_157\n      tag_98\n      jump\t// in\n    tag_157:\n    tag_156:\n        /* \"digital_contract.sol\":3141:3150  mContract */\n      dup2\n        /* \"digital_contract.sol\":3141:3157  mContract.status */\n      0x03\n      add\n      0x14\n      swap1\n      sload\n      swap1\n      0x0100\n      exp\n      swap1\n      div\n      0xff\n      and\n        /* \"digital_contract.sol\":3141:3183  mContract.status == ContractStatus.Created */\n      0x07\n      dup2\n      gt\n      iszero\n      tag_158\n      jumpi\n      tag_159\n      tag_98\n      jump\t// in\n    tag_159:\n    tag_158:\n      eq\n        /* \"digital_contract.sol\":3133:3199  require(mContract.status == ContractStatus.Created, \"Not Created\") */\n      tag_160\n      jumpi\n      mload(0x40)\n      0x08c379a000000000000000000000000000000000000000000000000000000000\n      dup2\n      mstore\n      0x04\n      add\n      tag_161\n      swap1\n      tag_162\n      jump\t// in\n    tag_161:\n      mload(0x40)\n      dup1\n      swap2\n      sub\n      swap1\n      revert\n    tag_160:\n        /* \"digital_contract.sol\":3231:3252  ContractStatus.Signed */\n      0x01\n        /* \"digital_contract.sol\":3212:3221  mContract */\n      dup2\n        /* \"digital_contract.sol\":3212:3228  mContract.status */\n      0x03\n      add\n      0x14\n        /* \"digital_contract.sol\":3212:3252  mContract.status = ContractStatus.Signed */\n      0x0100\n      exp\n      dup2\n      sload\n      dup2\n      0xff\n      mul\n      not\n      and\n      swap1\n      dup4\n      0x07\n      dup2\n      gt\n      iszero\n      tag_163\n      jumpi\n      tag_164\n      tag_98\n      jump\t// in\n    tag_164:\n    tag_163:\n      mul\n      or\n      swap1\n      sstore\n      pop\n        /* \"digital_contract.sol\":3283:3294  _contractId */\n      dup3\n        /* \"digital_contract.sol\":3268:3295  ContractSigned(_contractId) */\n      0xaf3c49f5413fd292e2325b0fe214de144a222b00cb6ec21214fdc04b5d6c5913\n      mload(0x40)\n      mload(0x40)\n      dup1\n      swap2\n      sub\n      swap1\n      log2\n        /* \"digital_contract.sol\":3053:3303  {... */\n      pop\n        /* \"digital_contract.sol\":2973:3303  function signContract(uint256 _contractId) public onlyCounterparty(_contractId) {... */\n      pop\n      pop\n      jump\t// out\n        /* \"digital_contract.sol\":2216:2965  function createContract(... */\n    tag_67:\n        /* \"digital_contract.sol\":2404:2405  0 */\n      0x00\n        /* \"digital_contract.sol\":2379:2406  _counterparty != address(0) */\n      0xffffffffffffffffffffffffffffffffffffffff\n      and\n        /* \"digital_contract.sol\":2379:2392  _counterparty */\n      dup4\n        /* \"digital_contract.sol\":2379:2406  _counterparty != address(0) */\n      0xffffffffffffffffffffffffffffffffffffffff\n      and\n      sub\n        /* \"digital_contract.sol\":2371:2429  require(_counterparty != address(0), \"0 addr not allowed\") */\n      tag_166\n      jumpi\n      mload(0x40)\n      0x08c379a000000000000000000000000000000000000000000000000000000000\n      dup2\n      mstore\n      0x04\n      add\n      tag_167\n      swap1\n      tag_168\n      jump\t// in\n    tag_167:\n      mload(0x40)\n      dup1\n      swap2\n      sub\n      swap1\n      revert\n    tag_166:\n        /* \"digital_contract.sol\":2461:2468  _amount */\n      dup1\n        /* \"digital_contract.sol\":2448:2457  msg.value */\n      callvalue\n        /* \"digital_contract.sol\":2448:2468  msg.value == _amount */\n      eq\n        /* \"digital_contract.sol\":2440:2485  require(msg.value == _amount, \"ETH mismatch\") */\n      tag_169\n      jumpi\n      mload(0x40)\n      0x08c379a000000000000000000000000000000000000000000000000000000000\n      dup2\n      mstore\n      0x04\n      add\n      tag_170\n      swap1\n      tag_171\n      jump\t// in\n    tag_170:\n      mload(0x40)\n      dup1\n      swap2\n      sub\n      swap1\n      revert\n    tag_169:\n        /* \"digital_contract.sol\":2498:2513  contractCounter */\n      0x03\n      0x00\n        /* \"digital_contract.sol\":2498:2515  contractCounter++ */\n      dup2\n      sload\n      dup1\n      swap3\n      swap2\n      swap1\n      tag_172\n      swap1\n      tag_173\n      jump\t// in\n    tag_172:\n      swap2\n      swap1\n      pop\n      sstore\n      pop\n        /* \"digital_contract.sol\":2526:2561  ManagedContract storage newContract */\n      0x00\n        /* \"digital_contract.sol\":2564:2573  contracts */\n      0x02\n        /* \"digital_contract.sol\":2564:2590  contracts[contractCounter] */\n      0x00\n        /* \"digital_contract.sol\":2574:2589  contractCounter */\n      sload(0x03)\n        /* \"digital_contract.sol\":2564:2590  contracts[contractCounter] */\n      dup2\n      mstore\n      0x20\n      add\n      swap1\n      dup2\n      mstore\n      0x20\n      add\n      0x00\n      keccak256\n        /* \"digital_contract.sol\":2526:2590  ManagedContract storage newContract = contracts[contractCounter] */\n      swap1\n      pop\n        /* \"digital_contract.sol\":2618:2633  contractCounter */\n      sload(0x03)\n        /* \"digital_contract.sol\":2601:2612  newContract */\n      dup2\n        /* \"digital_contract.sol\":2601:2615  newContract.id */\n      0x00\n      add\n        /* \"digital_contract.sol\":2601:2633  newContract.id = contractCounter */\n      dup2\n      swap1\n      sstore\n      pop\n        /* \"digital_contract.sol\":2665:2672  _amount */\n      dup2\n        /* \"digital_contract.sol\":2644:2655  newContract */\n      dup2\n        /* \"digital_contract.sol\":2644:2662  newContract.amount */\n      0x01\n      add\n        /* \"digital_contract.sol\":2644:2672  newContract.amount = _amount */\n      dup2\n      swap1\n      sstore\n      pop\n        /* \"digital_contract.sol\":2713:2723  msg.sender */\n      caller\n        /* \"digital_contract.sol\":2683:2694  newContract */\n      dup2\n        /* \"digital_contract.sol\":2683:2702  newContract.creator */\n      0x02\n      add\n      0x00\n        /* \"digital_contract.sol\":2683:2724  newContract.creator = payable(msg.sender) */\n      0x0100\n      exp\n      dup2\n      sload\n      dup2\n      0xffffffffffffffffffffffffffffffffffffffff\n      mul\n      not\n      and\n      swap1\n      dup4\n      0xffffffffffffffffffffffffffffffffffffffff\n      and\n      mul\n      or\n      swap1\n      sstore\n      pop\n        /* \"digital_contract.sol\":2762:2775  _counterparty */\n      dup4\n        /* \"digital_contract.sol\":2735:2746  newContract */\n      dup2\n        /* \"digital_contract.sol\":2735:2759  newContract.counterparty */\n      0x03\n      add\n      0x00\n        /* \"digital_contract.sol\":2735:2775  newContract.counterparty = _counterparty */\n      0x0100\n      exp\n      dup2\n      sload\n      dup2\n      0xffffffffffffffffffffffffffffffffffffffff\n      mul\n      not\n      and\n      swap1\n      dup4\n      0xffffffffffffffffffffffffffffffffffffffff\n      and\n      mul\n      or\n      swap1\n      sstore\n      pop\n        /* \"digital_contract.sol\":2807:2829  ContractStatus.Created */\n      0x00\n        /* \"digital_contract.sol\":2786:2797  newContract */\n      dup2\n        /* \"digital_contract.sol\":2786:2804  newContract.status */\n      0x03\n      add\n      0x14\n        /* \"digital_contract.sol\":2786:2829  newContract.status = ContractStatus.Created */\n      0x0100\n      exp\n      dup2\n      sload\n      dup2\n      0xff\n      mul\n      not\n      and\n      swap1\n      dup4\n      0x07\n      dup2\n      gt\n      iszero\n      tag_174\n      jumpi\n      tag_175\n      tag_98\n      jump\t// in\n    tag_175:\n    tag_174:\n      mul\n      or\n      swap1\n      sstore\n      pop\n        /* \"digital_contract.sol\":2867:2880  _contractHash */\n      dup3\n        /* \"digital_contract.sol\":2840:2851  newContract */\n      dup2\n        /* \"digital_contract.sol\":2840:2864  newContract.contractHash */\n      0x04\n      add\n        /* \"digital_contract.sol\":2840:2880  newContract.contractHash = _contractHash */\n      dup2\n      swap1\n      sstore\n      pop\n        /* \"digital_contract.sol\":2914:2929  contractCounter */\n      sload(0x03)\n        /* \"digital_contract.sol\":2898:2957  ContractCreated(contractCounter, msg.sender, _counterparty) */\n      0x56560a52c047ed21fd801bf0f345b23d9af696f7922ff8e63101af5d48caddab\n        /* \"digital_contract.sol\":2931:2941  msg.sender */\n      caller\n        /* \"digital_contract.sol\":2943:2956  _counterparty */\n      dup7\n        /* \"digital_contract.sol\":2898:2957  ContractCreated(contractCounter, msg.sender, _counterparty) */\n      mload(0x40)\n      tag_176\n      swap3\n      swap2\n      swap1\n      tag_177\n      jump\t// in\n    tag_176:\n      mload(0x40)\n      dup1\n      swap2\n      sub\n      swap1\n      log2\n        /* \"digital_contract.sol\":2360:2965  {... */\n      pop\n        /* \"digital_contract.sol\":2216:2965  function createContract(... */\n      pop\n      pop\n      pop\n      jump\t// out\n        /* \"digital_contract.sol\":3892:4452  function confirmDeliveryByOracle(uint256 _contractId, bytes32 _trackingNumberHash) public onlyOracle {... */\n    tag_72:\n        /* \"digital_contract.sol\":1907:1913  oracle */\n      0x01\n      0x00\n      swap1\n      sload\n      swap1\n      0x0100\n      exp\n      swap1\n      div\n      0xffffffffffffffffffffffffffffffffffffffff\n      and\n        /* \"digital_contract.sol\":1893:1913  msg.sender == oracle */\n      0xffffffffffffffffffffffffffffffffffffffff\n      and\n        /* \"digital_contract.sol\":1893:1903  msg.sender */\n      caller\n        /* \"digital_contract.sol\":1893:1913  msg.sender == oracle */\n      0xffffffffffffffffffffffffffffffffffffffff\n      and\n      eq\n        /* \"digital_contract.sol\":1885:1928  require(msg.sender == oracle, \"Not oracle\") */\n      tag_179\n      jumpi\n      mload(0x40)\n      0x08c379a000000000000000000000000000000000000000000000000000000000\n      dup2\n      mstore\n      0x04\n      add\n      tag_180\n      swap1\n      tag_181\n      jump\t// in\n    tag_180:\n      mload(0x40)\n      dup1\n      swap2\n      sub\n      swap1\n      revert\n    tag_179:\n        /* \"digital_contract.sol\":4004:4037  ManagedContract storage mContract */\n      0x00\n        /* \"digital_contract.sol\":4040:4049  contracts */\n      0x02\n        /* \"digital_contract.sol\":4040:4062  contracts[_contractId] */\n      0x00\n        /* \"digital_contract.sol\":4050:4061  _contractId */\n      dup5\n        /* \"digital_contract.sol\":4040:4062  contracts[_contractId] */\n      dup2\n      mstore\n      0x20\n      add\n      swap1\n      dup2\n      mstore\n      0x20\n      add\n      0x00\n      keccak256\n        /* \"digital_contract.sol\":4004:4062  ManagedContract storage mContract = contracts[_contractId] */\n      swap1\n      pop\n        /* \"digital_contract.sol\":4101:4127  ContractStatus.DeliverySet */\n      0x02\n        /* \"digital_contract.sol\":4081:4127  mContract.status == ContractStatus.DeliverySet */\n      0x07\n      dup2\n      gt\n      iszero\n      tag_183\n      jumpi\n      tag_184\n      tag_98\n      jump\t// in\n    tag_184:\n    tag_183:\n        /* \"digital_contract.sol\":4081:4090  mContract */\n      dup2\n        /* \"digital_contract.sol\":4081:4097  mContract.status */\n      0x03\n      add\n      0x14\n      swap1\n      sload\n      swap1\n      0x0100\n      exp\n      swap1\n      div\n      0xff\n      and\n        /* \"digital_contract.sol\":4081:4127  mContract.status == ContractStatus.DeliverySet */\n      0x07\n      dup2\n      gt\n      iszero\n      tag_185\n      jumpi\n      tag_186\n      tag_98\n      jump\t// in\n    tag_186:\n    tag_185:\n      eq\n        /* \"digital_contract.sol\":4073:4144  require(mContract.status == ContractStatus.DeliverySet, \"Wrong status\") */\n      tag_187\n      jumpi\n      mload(0x40)\n      0x08c379a000000000000000000000000000000000000000000000000000000000\n      dup2\n      mstore\n      0x04\n      add\n      tag_188\n      swap1\n      tag_103\n      jump\t// in\n    tag_188:\n      mload(0x40)\n      dup1\n      swap2\n      sub\n      swap1\n      revert\n    tag_187:\n        /* \"digital_contract.sol\":4163:4172  mContract */\n      dup1\n        /* \"digital_contract.sol\":4163:4189  mContract.deliveryRequired */\n      0x06\n      add\n      0x00\n      swap1\n      sload\n      swap1\n      0x0100\n      exp\n      swap1\n      div\n      0xff\n      and\n        /* \"digital_contract.sol\":4155:4205  require(mContract.deliveryRequired, \"No delivery\") */\n      tag_189\n      jumpi\n      mload(0x40)\n      0x08c379a000000000000000000000000000000000000000000000000000000000\n      dup2\n      mstore\n      0x04\n      add\n      tag_190\n      swap1\n      tag_191\n      jump\t// in\n    tag_190:\n      mload(0x40)\n      dup1\n      swap2\n      sub\n      swap1\n      revert\n    tag_189:\n        /* \"digital_contract.sol\":4274:4293  _trackingNumberHash */\n      dup2\n        /* \"digital_contract.sol\":4240:4249  mContract */\n      dup2\n        /* \"digital_contract.sol\":4240:4270  mContract.deliveryTrackingHash */\n      0x05\n      add\n      sload\n        /* \"digital_contract.sol\":4240:4293  mContract.deliveryTrackingHash == _trackingNumberHash */\n      eq\n        /* \"digital_contract.sol\":4218:4334  require(... */\n      tag_192\n      jumpi\n      mload(0x40)\n      0x08c379a000000000000000000000000000000000000000000000000000000000\n      dup2\n      mstore\n      0x04\n      add\n      tag_193\n      swap1\n      tag_194\n      jump\t// in\n    tag_193:\n      mload(0x40)\n      dup1\n      swap2\n      sub\n      swap1\n      revert\n    tag_192:\n        /* \"digital_contract.sol\":4366:4398  ContractStatus.DeliveryConfirmed */\n      0x03\n        /* \"digital_contract.sol\":4347:4356  mContract */\n      dup2\n        /* \"digital_contract.sol\":4347:4363  mContract.status */\n      0x03\n      add\n      0x14\n        /* \"digital_contract.sol\":4347:4398  mContract.status = ContractStatus.DeliveryConfirmed */\n      0x0100\n      exp\n      dup2\n      sload\n      dup2\n      0xff\n      mul\n      not\n      and\n      swap1\n      dup4\n      0x07\n      dup2\n      gt\n      iszero\n      tag_195\n      jumpi\n      tag_196\n      tag_98\n      jump\t// in\n    tag_196:\n    tag_195:\n      mul\n      or\n      swap1\n      sstore\n      pop\n        /* \"digital_contract.sol\":4432:4443  _contractId */\n      dup3\n        /* \"digital_contract.sol\":4414:4444  DeliveryConfirmed(_contractId) */\n      0x375b4005eeae25d0e37d56e1b3841d3bb394b277efa2548de3293f5dcb7a3493\n      mload(0x40)\n      mload(0x40)\n      dup1\n      swap2\n      sub\n      swap1\n      log2\n        /* \"digital_contract.sol\":3993:4452  {... */\n      pop\n        /* \"digital_contract.sol\":3892:4452  function confirmDeliveryByOracle(uint256 _contractId, bytes32 _trackingNumberHash) public onlyOracle {... */\n      pop\n      pop\n      jump\t// out\n        /* \"digital_contract.sol\":5528:6244  function withdrawFundsFrom(uint256 _contractId) public nonReentrant onlyCounterparty(_contractId) {... */\n    tag_76:\n        /* \"@openzeppelin/contracts/utils/ReentrancyGuard.sol\":2500:2521  _nonReentrantBefore() */\n      tag_198\n        /* \"@openzeppelin/contracts/utils/ReentrancyGuard.sol\":2500:2519  _nonReentrantBefore */\n      tag_199\n        /* \"@openzeppelin/contracts/utils/ReentrancyGuard.sol\":2500:2521  _nonReentrantBefore() */\n      jump\t// in\n    tag_198:\n        /* \"digital_contract.sol\":5613:5624  _contractId */\n      dup1\n        /* \"digital_contract.sol\":1768:1777  contracts */\n      0x02\n        /* \"digital_contract.sol\":1768:1790  contracts[_contractId] */\n      0x00\n        /* \"digital_contract.sol\":1778:1789  _contractId */\n      dup3\n        /* \"digital_contract.sol\":1768:1790  contracts[_contractId] */\n      dup2\n      mstore\n      0x20\n      add\n      swap1\n      dup2\n      mstore\n      0x20\n      add\n      0x00\n      keccak256\n        /* \"digital_contract.sol\":1768:1803  contracts[_contractId].counterparty */\n      0x03\n      add\n      0x00\n      swap1\n      sload\n      swap1\n      0x0100\n      exp\n      swap1\n      div\n      0xffffffffffffffffffffffffffffffffffffffff\n      and\n        /* \"digital_contract.sol\":1754:1803  msg.sender == contracts[_contractId].counterparty */\n      0xffffffffffffffffffffffffffffffffffffffff\n      and\n        /* \"digital_contract.sol\":1754:1764  msg.sender */\n      caller\n        /* \"digital_contract.sol\":1754:1803  msg.sender == contracts[_contractId].counterparty */\n      0xffffffffffffffffffffffffffffffffffffffff\n      and\n      eq\n        /* \"digital_contract.sol\":1746:1824  require(msg.sender == contracts[_contractId].counterparty, \"Not counterparty\") */\n      tag_201\n      jumpi\n      mload(0x40)\n      0x08c379a000000000000000000000000000000000000000000000000000000000\n      dup2\n      mstore\n      0x04\n      add\n      tag_202\n      swap1\n      tag_113\n      jump\t// in\n    tag_202:\n      mload(0x40)\n      dup1\n      swap2\n      sub\n      swap1\n      revert\n    tag_201:\n        /* \"digital_contract.sol\":5637:5670  ManagedContract storage mContract */\n      0x00\n        /* \"digital_contract.sol\":5673:5682  contracts */\n      0x02\n        /* \"digital_contract.sol\":5673:5695  contracts[_contractId] */\n      0x00\n        /* \"digital_contract.sol\":5683:5694  _contractId */\n      dup5\n        /* \"digital_contract.sol\":5673:5695  contracts[_contractId] */\n      dup2\n      mstore\n      0x20\n      add\n      swap1\n      dup2\n      mstore\n      0x20\n      add\n      0x00\n      keccak256\n        /* \"digital_contract.sol\":5637:5695  ManagedContract storage mContract = contracts[_contractId] */\n      swap1\n      pop\n        /* \"digital_contract.sol\":5748:5781  ContractStatus.AgreementFulfilled */\n      0x05\n        /* \"digital_contract.sol\":5728:5781  mContract.status == ContractStatus.AgreementFulfilled */\n      0x07\n      dup2\n      gt\n      iszero\n      tag_204\n      jumpi\n      tag_205\n      tag_98\n      jump\t// in\n    tag_205:\n    tag_204:\n        /* \"digital_contract.sol\":5728:5737  mContract */\n      dup2\n        /* \"digital_contract.sol\":5728:5744  mContract.status */\n      0x03\n      add\n      0x14\n      swap1\n      sload\n      swap1\n      0x0100\n      exp\n      swap1\n      div\n      0xff\n      and\n        /* \"digital_contract.sol\":5728:5781  mContract.status == ContractStatus.AgreementFulfilled */\n      0x07\n      dup2\n      gt\n      iszero\n      tag_206\n      jumpi\n      tag_207\n      tag_98\n      jump\t// in\n    tag_207:\n    tag_206:\n      eq\n        /* \"digital_contract.sol\":5728:5849  mContract.status == ContractStatus.AgreementFulfilled ||... */\n      dup1\n      tag_208\n      jumpi\n      pop\n        /* \"digital_contract.sol\":5818:5849  ContractStatus.DeliveryApproved */\n      0x04\n        /* \"digital_contract.sol\":5798:5849  mContract.status == ContractStatus.DeliveryApproved */\n      0x07\n      dup2\n      gt\n      iszero\n      tag_209\n      jumpi\n      tag_210\n      tag_98\n      jump\t// in\n    tag_210:\n    tag_209:\n        /* \"digital_contract.sol\":5798:5807  mContract */\n      dup2\n        /* \"digital_contract.sol\":5798:5814  mContract.status */\n      0x03\n      add\n      0x14\n      swap1\n      sload\n      swap1\n      0x0100\n      exp\n      swap1\n      div\n      0xff\n      and\n        /* \"digital_contract.sol\":5798:5849  mContract.status == ContractStatus.DeliveryApproved */\n      0x07\n      dup2\n      gt\n      iszero\n      tag_211\n      jumpi\n      tag_212\n      tag_98\n      jump\t// in\n    tag_212:\n    tag_211:\n      eq\n        /* \"digital_contract.sol\":5728:5849  mContract.status == ContractStatus.AgreementFulfilled ||... */\n    tag_208:\n        /* \"digital_contract.sol\":5706:5893  require(... */\n      tag_213\n      jumpi\n      mload(0x40)\n      0x08c379a000000000000000000000000000000000000000000000000000000000\n      dup2\n      mstore\n      0x04\n      add\n      tag_214\n      swap1\n      tag_215\n      jump\t// in\n    tag_214:\n      mload(0x40)\n      dup1\n      swap2\n      sub\n      swap1\n      revert\n    tag_213:\n        /* \"digital_contract.sol\":5906:5920  uint256 amount */\n      0x00\n        /* \"digital_contract.sol\":5923:5932  mContract */\n      dup2\n        /* \"digital_contract.sol\":5923:5939  mContract.amount */\n      0x01\n      add\n      sload\n        /* \"digital_contract.sol\":5906:5939  uint256 amount = mContract.amount */\n      swap1\n      pop\n        /* \"digital_contract.sol\":5992:5998  amount */\n      dup1\n        /* \"digital_contract.sol\":5958:5976  pendingWithdrawals */\n      0x04\n        /* \"digital_contract.sol\":5958:5988  pendingWithdrawals[msg.sender] */\n      0x00\n        /* \"digital_contract.sol\":5977:5987  msg.sender */\n      caller\n        /* \"digital_contract.sol\":5958:5988  pendingWithdrawals[msg.sender] */\n      0xffffffffffffffffffffffffffffffffffffffff\n      and\n      0xffffffffffffffffffffffffffffffffffffffff\n      and\n      dup2\n      mstore\n      0x20\n      add\n      swap1\n      dup2\n      mstore\n      0x20\n      add\n      0x00\n      keccak256\n      sload\n        /* \"digital_contract.sol\":5958:5998  pendingWithdrawals[msg.sender] >= amount */\n      lt\n      iszero\n        /* \"digital_contract.sol\":5950:6013  require(pendingWithdrawals[msg.sender] >= amount, \"No balance\") */\n      tag_216\n      jumpi\n      mload(0x40)\n      0x08c379a000000000000000000000000000000000000000000000000000000000\n      dup2\n      mstore\n      0x04\n      add\n      tag_217\n      swap1\n      tag_218\n      jump\t// in\n    tag_217:\n      mload(0x40)\n      dup1\n      swap2\n      sub\n      swap1\n      revert\n    tag_216:\n        /* \"digital_contract.sol\":6060:6066  amount */\n      dup1\n        /* \"digital_contract.sol\":6026:6044  pendingWithdrawals */\n      0x04\n        /* \"digital_contract.sol\":6026:6056  pendingWithdrawals[msg.sender] */\n      0x00\n        /* \"digital_contract.sol\":6045:6055  msg.sender */\n      caller\n        /* \"digital_contract.sol\":6026:6056  pendingWithdrawals[msg.sender] */\n      0xffffffffffffffffffffffffffffffffffffffff\n      and\n      0xffffffffffffffffffffffffffffffffffffffff\n      and\n      dup2\n      mstore\n      0x20\n      add\n      swap1\n      dup2\n      mstore\n      0x20\n      add\n      0x00\n      keccak256\n      0x00\n        /* \"digital_contract.sol\":6026:6066  pendingWithdrawals[msg.sender] -= amount */\n      dup3\n      dup3\n      sload\n      tag_219\n      swap2\n      swap1\n      tag_220\n      jump\t// in\n    tag_219:\n      swap3\n      pop\n      pop\n      dup2\n      swap1\n      sstore\n      pop\n        /* \"digital_contract.sol\":6098:6122  ContractStatus.Completed */\n      0x06\n        /* \"digital_contract.sol\":6079:6088  mContract */\n      dup3\n        /* \"digital_contract.sol\":6079:6095  mContract.status */\n      0x03\n      add\n      0x14\n        /* \"digital_contract.sol\":6079:6122  mContract.status = ContractStatus.Completed */\n      0x0100\n      exp\n      dup2\n      sload\n      dup2\n      0xff\n      mul\n      not\n      and\n      swap1\n      dup4\n      0x07\n      dup2\n      gt\n      iszero\n      tag_221\n      jumpi\n      tag_222\n      tag_98\n      jump\t// in\n    tag_222:\n    tag_221:\n      mul\n      or\n      swap1\n      sstore\n      pop\n        /* \"digital_contract.sol\":6143:6153  msg.sender */\n      caller\n        /* \"digital_contract.sol\":6135:6163  payable(msg.sender).transfer */\n      0xffffffffffffffffffffffffffffffffffffffff\n      and\n        /* \"digital_contract.sol\":6135:6171  payable(msg.sender).transfer(amount) */\n      0x08fc\n        /* \"digital_contract.sol\":6164:6170  amount */\n      dup3\n        /* \"digital_contract.sol\":6135:6171  payable(msg.sender).transfer(amount) */\n      swap1\n      dup2\n      iszero\n      mul\n      swap1\n      mload(0x40)\n      0x00\n      mload(0x40)\n      dup1\n      dup4\n      sub\n      dup2\n      dup6\n      dup9\n      dup9\n      call\n      swap4\n      pop\n      pop\n      pop\n      pop\n      iszero\n      dup1\n      iszero\n      tag_224\n      jumpi\n      returndatacopy(0x00, 0x00, returndatasize)\n      revert(0x00, returndatasize)\n    tag_224:\n      pop\n        /* \"digital_contract.sol\":6217:6227  msg.sender */\n      caller\n        /* \"digital_contract.sol\":6189:6236  FundsWithdrawn(_contractId, msg.sender, amount) */\n      0xffffffffffffffffffffffffffffffffffffffff\n      and\n        /* \"digital_contract.sol\":6204:6215  _contractId */\n      dup5\n        /* \"digital_contract.sol\":6189:6236  FundsWithdrawn(_contractId, msg.sender, amount) */\n      0xf440aec6b52895984d061d622e6edeba6210f7c3e059be920663140c084560d7\n        /* \"digital_contract.sol\":6229:6235  amount */\n      dup4\n        /* \"digital_contract.sol\":6189:6236  FundsWithdrawn(_contractId, msg.sender, amount) */\n      mload(0x40)\n      tag_225\n      swap2\n      swap1\n      tag_29\n      jump\t// in\n    tag_225:\n      mload(0x40)\n      dup1\n      swap2\n      sub\n      swap1\n      log3\n        /* \"digital_contract.sol\":5626:6244  {... */\n      pop\n      pop\n        /* \"@openzeppelin/contracts/utils/ReentrancyGuard.sol\":2531:2532  _ */\n      pop\n        /* \"@openzeppelin/contracts/utils/ReentrancyGuard.sol\":2542:2562  _nonReentrantAfter() */\n      tag_226\n        /* \"@openzeppelin/contracts/utils/ReentrancyGuard.sol\":2542:2560  _nonReentrantAfter */\n      tag_227\n        /* \"@openzeppelin/contracts/utils/ReentrancyGuard.sol\":2542:2562  _nonReentrantAfter() */\n      jump\t// in\n    tag_226:\n        /* \"digital_contract.sol\":5528:6244  function withdrawFundsFrom(uint256 _contractId) public nonReentrant onlyCounterparty(_contractId) {... */\n      pop\n      jump\t// out\n        /* \"digital_contract.sol\":710:731  bool public oracleSet */\n    tag_79:\n      0x01\n      0x14\n      swap1\n      sload\n      swap1\n      0x0100\n      exp\n      swap1\n      div\n      0xff\n      and\n      dup2\n      jump\t// out\n        /* \"digital_contract.sol\":838:891  mapping(address => uint256) public pendingWithdrawals */\n    tag_85:\n      mstore(0x20, 0x04)\n      dup1\n      0x00\n      mstore\n      keccak256(0x00, 0x40)\n      0x00\n      swap2\n      pop\n      swap1\n      pop\n      sload\n      dup2\n      jump\t// out\n        /* \"digital_contract.sol\":3311:3884  function setDeliveryTracking(uint256 _contractId, bytes32 _trackingNumberHash) public onlyCounterparty(_contractId) {... */\n    tag_90:\n        /* \"digital_contract.sol\":3414:3425  _contractId */\n      dup2\n        /* \"digital_contract.sol\":1768:1777  contracts */\n      0x02\n        /* \"digital_contract.sol\":1768:1790  contracts[_contractId] */\n      0x00\n        /* \"digital_contract.sol\":1778:1789  _contractId */\n      dup3\n        /* \"digital_contract.sol\":1768:1790  contracts[_contractId] */\n      dup2\n      mstore\n      0x20\n      add\n      swap1\n      dup2\n      mstore\n      0x20\n      add\n      0x00\n      keccak256\n        /* \"digital_contract.sol\":1768:1803  contracts[_contractId].counterparty */\n      0x03\n      add\n      0x00\n      swap1\n      sload\n      swap1\n      0x0100\n      exp\n      swap1\n      div\n      0xffffffffffffffffffffffffffffffffffffffff\n      and\n        /* \"digital_contract.sol\":1754:1803  msg.sender == contracts[_contractId].counterparty */\n      0xffffffffffffffffffffffffffffffffffffffff\n      and\n        /* \"digital_contract.sol\":1754:1764  msg.sender */\n      caller\n        /* \"digital_contract.sol\":1754:1803  msg.sender == contracts[_contractId].counterparty */\n      0xffffffffffffffffffffffffffffffffffffffff\n      and\n      eq\n        /* \"digital_contract.sol\":1746:1824  require(msg.sender == contracts[_contractId].counterparty, \"Not counterparty\") */\n      tag_229\n      jumpi\n      mload(0x40)\n      0x08c379a000000000000000000000000000000000000000000000000000000000\n      dup2\n      mstore\n      0x04\n      add\n      tag_230\n      swap1\n      tag_113\n      jump\t// in\n    tag_230:\n      mload(0x40)\n      dup1\n      swap2\n      sub\n      swap1\n      revert\n    tag_229:\n        /* \"digital_contract.sol\":3438:3471  ManagedContract storage mContract */\n      0x00\n        /* \"digital_contract.sol\":3474:3483  contracts */\n      0x02\n        /* \"digital_contract.sol\":3474:3496  contracts[_contractId] */\n      0x00\n        /* \"digital_contract.sol\":3484:3495  _contractId */\n      dup6\n        /* \"digital_contract.sol\":3474:3496  contracts[_contractId] */\n      dup2\n      mstore\n      0x20\n      add\n      swap1\n      dup2\n      mstore\n      0x20\n      add\n      0x00\n      keccak256\n        /* \"digital_contract.sol\":3438:3496  ManagedContract storage mContract = contracts[_contractId] */\n      swap1\n      pop\n        /* \"digital_contract.sol\":3535:3556  ContractStatus.Signed */\n      0x01\n        /* \"digital_contract.sol\":3515:3556  mContract.status == ContractStatus.Signed */\n      0x07\n      dup2\n      gt\n      iszero\n      tag_232\n      jumpi\n      tag_233\n      tag_98\n      jump\t// in\n    tag_233:\n    tag_232:\n        /* \"digital_contract.sol\":3515:3524  mContract */\n      dup2\n        /* \"digital_contract.sol\":3515:3531  mContract.status */\n      0x03\n      add\n      0x14\n      swap1\n      sload\n      swap1\n      0x0100\n      exp\n      swap1\n      div\n      0xff\n      and\n        /* \"digital_contract.sol\":3515:3556  mContract.status == ContractStatus.Signed */\n      0x07\n      dup2\n      gt\n      iszero\n      tag_234\n      jumpi\n      tag_235\n      tag_98\n      jump\t// in\n    tag_235:\n    tag_234:\n      eq\n        /* \"digital_contract.sol\":3507:3571  require(mContract.status == ContractStatus.Signed, \"Not Signed\") */\n      tag_236\n      jumpi\n      mload(0x40)\n      0x08c379a000000000000000000000000000000000000000000000000000000000\n      dup2\n      mstore\n      0x04\n      add\n      tag_237\n      swap1\n      tag_238\n      jump\t// in\n    tag_237:\n      mload(0x40)\n      dup1\n      swap2\n      sub\n      swap1\n      revert\n    tag_236:\n        /* \"digital_contract.sol\":3591:3600  mContract */\n      dup1\n        /* \"digital_contract.sol\":3591:3617  mContract.deliveryRequired */\n      0x06\n      add\n      0x00\n      swap1\n      sload\n      swap1\n      0x0100\n      exp\n      swap1\n      div\n      0xff\n      and\n        /* \"digital_contract.sol\":3590:3617  !mContract.deliveryRequired */\n      iszero\n        /* \"digital_contract.sol\":3582:3633  require(!mContract.deliveryRequired, \"Already set\") */\n      tag_239\n      jumpi\n      mload(0x40)\n      0x08c379a000000000000000000000000000000000000000000000000000000000\n      dup2\n      mstore\n      0x04\n      add\n      tag_240\n      swap1\n      tag_241\n      jump\t// in\n    tag_240:\n      mload(0x40)\n      dup1\n      swap2\n      sub\n      swap1\n      revert\n    tag_239:\n        /* \"digital_contract.sol\":3679:3698  _trackingNumberHash */\n      dup3\n        /* \"digital_contract.sol\":3646:3655  mContract */\n      dup2\n        /* \"digital_contract.sol\":3646:3676  mContract.deliveryTrackingHash */\n      0x05\n      add\n        /* \"digital_contract.sol\":3646:3698  mContract.deliveryTrackingHash = _trackingNumberHash */\n      dup2\n      swap1\n      sstore\n      pop\n        /* \"digital_contract.sol\":3738:3742  true */\n      0x01\n        /* \"digital_contract.sol\":3709:3718  mContract */\n      dup2\n        /* \"digital_contract.sol\":3709:3735  mContract.deliveryRequired */\n      0x06\n      add\n      0x00\n        /* \"digital_contract.sol\":3709:3742  mContract.deliveryRequired = true */\n      0x0100\n      exp\n      dup2\n      sload\n      dup2\n      0xff\n      mul\n      not\n      and\n      swap1\n      dup4\n      iszero\n      iszero\n      mul\n      or\n      swap1\n      sstore\n      pop\n        /* \"digital_contract.sol\":3772:3798  ContractStatus.DeliverySet */\n      0x02\n        /* \"digital_contract.sol\":3753:3762  mContract */\n      dup2\n        /* \"digital_contract.sol\":3753:3769  mContract.status */\n      0x03\n      add\n      0x14\n        /* \"digital_contract.sol\":3753:3798  mContract.status = ContractStatus.DeliverySet */\n      0x0100\n      exp\n      dup2\n      sload\n      dup2\n      0xff\n      mul\n      not\n      and\n      swap1\n      dup4\n      0x07\n      dup2\n      gt\n      iszero\n      tag_242\n      jumpi\n      tag_243\n      tag_98\n      jump\t// in\n    tag_243:\n    tag_242:\n      mul\n      or\n      swap1\n      sstore\n      pop\n        /* \"digital_contract.sol\":3832:3843  _contractId */\n      dup4\n        /* \"digital_contract.sol\":3816:3876  TrackingHashSet(_contractId, mContract.deliveryTrackingHash) */\n      0x4b70739c5f0bd46e19773020c599342cdbdc3ac59b5e0abfdd9c1bb441be59c8\n        /* \"digital_contract.sol\":3845:3854  mContract */\n      dup3\n        /* \"digital_contract.sol\":3845:3875  mContract.deliveryTrackingHash */\n      0x05\n      add\n      sload\n        /* \"digital_contract.sol\":3816:3876  TrackingHashSet(_contractId, mContract.deliveryTrackingHash) */\n      mload(0x40)\n      tag_244\n      swap2\n      swap1\n      tag_245\n      jump\t// in\n    tag_244:\n      mload(0x40)\n      dup1\n      swap2\n      sub\n      swap1\n      log2\n        /* \"digital_contract.sol\":3427:3884  {... */\n      pop\n        /* \"digital_contract.sol\":3311:3884  function setDeliveryTracking(uint256 _contractId, bytes32 _trackingNumberHash) public onlyCounterparty(_contractId) {... */\n      pop\n      pop\n      pop\n      jump\t// out\n        /* \"@openzeppelin/contracts/utils/ReentrancyGuard.sol\":2575:2882  function _nonReentrantBefore() private {... */\n    tag_199:\n        /* \"@openzeppelin/contracts/utils/ReentrancyGuard.sol\":1899:1900  2 */\n      0x02\n        /* \"@openzeppelin/contracts/utils/ReentrancyGuard.sol\":2702:2709  _status */\n      sload(0x00)\n        /* \"@openzeppelin/contracts/utils/ReentrancyGuard.sol\":2702:2720  _status == ENTERED */\n      sub\n        /* \"@openzeppelin/contracts/utils/ReentrancyGuard.sol\":2698:2784  if (_status == ENTERED) {... */\n      tag_247\n      jumpi\n        /* \"@openzeppelin/contracts/utils/ReentrancyGuard.sol\":2743:2773  ReentrancyGuardReentrantCall() */\n      mload(0x40)\n      0x3ee5aeb500000000000000000000000000000000000000000000000000000000\n      dup2\n      mstore\n      0x04\n      add\n      mload(0x40)\n      dup1\n      swap2\n      sub\n      swap1\n      revert\n        /* \"@openzeppelin/contracts/utils/ReentrancyGuard.sol\":2698:2784  if (_status == ENTERED) {... */\n    tag_247:\n        /* \"@openzeppelin/contracts/utils/ReentrancyGuard.sol\":1899:1900  2 */\n      0x02\n        /* \"@openzeppelin/contracts/utils/ReentrancyGuard.sol\":2858:2865  _status */\n      0x00\n        /* \"@openzeppelin/contracts/utils/ReentrancyGuard.sol\":2858:2875  _status = ENTERED */\n      dup2\n      swap1\n      sstore\n      pop\n        /* \"@openzeppelin/contracts/utils/ReentrancyGuard.sol\":2575:2882  function _nonReentrantBefore() private {... */\n      jump\t// out\n        /* \"@openzeppelin/contracts/utils/ReentrancyGuard.sol\":2888:3096  function _nonReentrantAfter() private {... */\n    tag_227:\n        /* \"@openzeppelin/contracts/utils/ReentrancyGuard.sol\":1857:1858  1 */\n      0x01\n        /* \"@openzeppelin/contracts/utils/ReentrancyGuard.sol\":3068:3075  _status */\n      0x00\n        /* \"@openzeppelin/contracts/utils/ReentrancyGuard.sol\":3068:3089  _status = NOT_ENTERED */\n      dup2\n      swap1\n      sstore\n      pop\n        /* \"@openzeppelin/contracts/utils/ReentrancyGuard.sol\":2888:3096  function _nonReentrantAfter() private {... */\n      jump\t// out\n        /* \"#utility.yul\":88:205   */\n    tag_250:\n        /* \"#utility.yul\":197:198   */\n      0x00\n        /* \"#utility.yul\":194:195   */\n      0x00\n        /* \"#utility.yul\":187:199   */\n      revert\n        /* \"#utility.yul\":334:411   */\n    tag_252:\n        /* \"#utility.yul\":371:378   */\n      0x00\n        /* \"#utility.yul\":400:405   */\n      dup2\n        /* \"#utility.yul\":389:405   */\n      swap1\n      pop\n        /* \"#utility.yul\":334:411   */\n      swap2\n      swap1\n      pop\n      jump\t// out\n        /* \"#utility.yul\":417:539   */\n    tag_253:\n        /* \"#utility.yul\":490:514   */\n      tag_324\n        /* \"#utility.yul\":508:513   */\n      dup2\n        /* \"#utility.yul\":490:514   */\n      tag_252\n      jump\t// in\n    tag_324:\n        /* \"#utility.yul\":483:488   */\n      dup2\n        /* \"#utility.yul\":480:515   */\n      eq\n        /* \"#utility.yul\":470:533   */\n      tag_325\n      jumpi\n        /* \"#utility.yul\":529:530   */\n      0x00\n        /* \"#utility.yul\":526:527   */\n      0x00\n        /* \"#utility.yul\":519:531   */\n      revert\n        /* \"#utility.yul\":470:533   */\n    tag_325:\n        /* \"#utility.yul\":417:539   */\n      pop\n      jump\t// out\n        /* \"#utility.yul\":545:684   */\n    tag_254:\n        /* \"#utility.yul\":591:596   */\n      0x00\n        /* \"#utility.yul\":629:635   */\n      dup2\n        /* \"#utility.yul\":616:636   */\n      calldataload\n        /* \"#utility.yul\":607:636   */\n      swap1\n      pop\n        /* \"#utility.yul\":645:678   */\n      tag_327\n        /* \"#utility.yul\":672:677   */\n      dup2\n        /* \"#utility.yul\":645:678   */\n      tag_253\n      jump\t// in\n    tag_327:\n        /* \"#utility.yul\":545:684   */\n      swap3\n      swap2\n      pop\n      pop\n      jump\t// out\n        /* \"#utility.yul\":690:1019   */\n    tag_23:\n        /* \"#utility.yul\":749:755   */\n      0x00\n        /* \"#utility.yul\":798:800   */\n      0x20\n        /* \"#utility.yul\":786:795   */\n      dup3\n        /* \"#utility.yul\":777:784   */\n      dup5\n        /* \"#utility.yul\":773:796   */\n      sub\n        /* \"#utility.yul\":769:801   */\n      slt\n        /* \"#utility.yul\":766:885   */\n      iszero\n      tag_329\n      jumpi\n        /* \"#utility.yul\":804:883   */\n      tag_330\n      tag_250\n      jump\t// in\n    tag_330:\n        /* \"#utility.yul\":766:885   */\n    tag_329:\n        /* \"#utility.yul\":924:925   */\n      0x00\n        /* \"#utility.yul\":949:1002   */\n      tag_331\n        /* \"#utility.yul\":994:1001   */\n      dup5\n        /* \"#utility.yul\":985:991   */\n      dup3\n        /* \"#utility.yul\":974:983   */\n      dup6\n        /* \"#utility.yul\":970:992   */\n      add\n        /* \"#utility.yul\":949:1002   */\n      tag_254\n      jump\t// in\n    tag_331:\n        /* \"#utility.yul\":939:1002   */\n      swap2\n      pop\n        /* \"#utility.yul\":895:1012   */\n      pop\n        /* \"#utility.yul\":690:1019   */\n      swap3\n      swap2\n      pop\n      pop\n      jump\t// out\n        /* \"#utility.yul\":1025:1143   */\n    tag_255:\n        /* \"#utility.yul\":1112:1136   */\n      tag_333\n        /* \"#utility.yul\":1130:1135   */\n      dup2\n        /* \"#utility.yul\":1112:1136   */\n      tag_252\n      jump\t// in\n    tag_333:\n        /* \"#utility.yul\":1107:1110   */\n      dup3\n        /* \"#utility.yul\":1100:1137   */\n      mstore\n        /* \"#utility.yul\":1025:1143   */\n      pop\n      pop\n      jump\t// out\n        /* \"#utility.yul\":1149:1371   */\n    tag_29:\n        /* \"#utility.yul\":1242:1246   */\n      0x00\n        /* \"#utility.yul\":1280:1282   */\n      0x20\n        /* \"#utility.yul\":1269:1278   */\n      dup3\n        /* \"#utility.yul\":1265:1283   */\n      add\n        /* \"#utility.yul\":1257:1283   */\n      swap1\n      pop\n        /* \"#utility.yul\":1293:1364   */\n      tag_335\n        /* \"#utility.yul\":1361:1362   */\n      0x00\n        /* \"#utility.yul\":1350:1359   */\n      dup4\n        /* \"#utility.yul\":1346:1363   */\n      add\n        /* \"#utility.yul\":1337:1343   */\n      dup5\n        /* \"#utility.yul\":1293:1364   */\n      tag_255\n      jump\t// in\n    tag_335:\n        /* \"#utility.yul\":1149:1371   */\n      swap3\n      swap2\n      pop\n      pop\n      jump\t// out\n        /* \"#utility.yul\":1377:1557   */\n    tag_98:\n        /* \"#utility.yul\":1425:1502   */\n      0x4e487b7100000000000000000000000000000000000000000000000000000000\n        /* \"#utility.yul\":1422:1423   */\n      0x00\n        /* \"#utility.yul\":1415:1503   */\n      mstore\n        /* \"#utility.yul\":1522:1526   */\n      0x21\n        /* \"#utility.yul\":1519:1520   */\n      0x04\n        /* \"#utility.yul\":1512:1527   */\n      mstore\n        /* \"#utility.yul\":1546:1550   */\n      0x24\n        /* \"#utility.yul\":1543:1544   */\n      0x00\n        /* \"#utility.yul\":1536:1551   */\n      revert\n        /* \"#utility.yul\":1563:1685   */\n    tag_256:\n        /* \"#utility.yul\":1653:1654   */\n      0x08\n        /* \"#utility.yul\":1646:1651   */\n      dup2\n        /* \"#utility.yul\":1643:1655   */\n      lt\n        /* \"#utility.yul\":1633:1679   */\n      tag_338\n      jumpi\n        /* \"#utility.yul\":1659:1677   */\n      tag_339\n      tag_98\n      jump\t// in\n    tag_339:\n        /* \"#utility.yul\":1633:1679   */\n    tag_338:\n        /* \"#utility.yul\":1563:1685   */\n      pop\n      jump\t// out\n        /* \"#utility.yul\":1691:1836   */\n    tag_257:\n        /* \"#utility.yul\":1745:1752   */\n      0x00\n        /* \"#utility.yul\":1774:1779   */\n      dup2\n        /* \"#utility.yul\":1763:1779   */\n      swap1\n      pop\n        /* \"#utility.yul\":1780:1830   */\n      tag_341\n        /* \"#utility.yul\":1824:1829   */\n      dup3\n        /* \"#utility.yul\":1780:1830   */\n      tag_256\n      jump\t// in\n    tag_341:\n        /* \"#utility.yul\":1691:1836   */\n      swap2\n      swap1\n      pop\n      jump\t// out\n        /* \"#utility.yul\":1842:1987   */\n    tag_258:\n        /* \"#utility.yul\":1907:1916   */\n      0x00\n        /* \"#utility.yul\":1940:1981   */\n      tag_343\n        /* \"#utility.yul\":1975:1980   */\n      dup3\n        /* \"#utility.yul\":1940:1981   */\n      tag_257\n      jump\t// in\n    tag_343:\n        /* \"#utility.yul\":1927:1981   */\n      swap1\n      pop\n        /* \"#utility.yul\":1842:1987   */\n      swap2\n      swap1\n      pop\n      jump\t// out\n        /* \"#utility.yul\":1993:2154   */\n    tag_259:\n        /* \"#utility.yul\":2095:2147   */\n      tag_345\n        /* \"#utility.yul\":2141:2146   */\n      dup2\n        /* \"#utility.yul\":2095:2147   */\n      tag_258\n      jump\t// in\n    tag_345:\n        /* \"#utility.yul\":2090:2093   */\n      dup3\n        /* \"#utility.yul\":2083:2148   */\n      mstore\n        /* \"#utility.yul\":1993:2154   */\n      pop\n      pop\n      jump\t// out\n        /* \"#utility.yul\":2160:2412   */\n    tag_35:\n        /* \"#utility.yul\":2268:2272   */\n      0x00\n        /* \"#utility.yul\":2306:2308   */\n      0x20\n        /* \"#utility.yul\":2295:2304   */\n      dup3\n        /* \"#utility.yul\":2291:2309   */\n      add\n        /* \"#utility.yul\":2283:2309   */\n      swap1\n      pop\n        /* \"#utility.yul\":2319:2405   */\n      tag_347\n        /* \"#utility.yul\":2402:2403   */\n      0x00\n        /* \"#utility.yul\":2391:2400   */\n      dup4\n        /* \"#utility.yul\":2387:2404   */\n      add\n        /* \"#utility.yul\":2378:2384   */\n      dup5\n        /* \"#utility.yul\":2319:2405   */\n      tag_259\n      jump\t// in\n    tag_347:\n        /* \"#utility.yul\":2160:2412   */\n      swap3\n      swap2\n      pop\n      pop\n      jump\t// out\n        /* \"#utility.yul\":2418:2544   */\n    tag_260:\n        /* \"#utility.yul\":2455:2462   */\n      0x00\n        /* \"#utility.yul\":2495:2537   */\n      0xffffffffffffffffffffffffffffffffffffffff\n        /* \"#utility.yul\":2488:2493   */\n      dup3\n        /* \"#utility.yul\":2484:2538   */\n      and\n        /* \"#utility.yul\":2473:2538   */\n      swap1\n      pop\n        /* \"#utility.yul\":2418:2544   */\n      swap2\n      swap1\n      pop\n      jump\t// out\n        /* \"#utility.yul\":2550:2654   */\n    tag_261:\n        /* \"#utility.yul\":2595:2602   */\n      0x00\n        /* \"#utility.yul\":2624:2648   */\n      tag_350\n        /* \"#utility.yul\":2642:2647   */\n      dup3\n        /* \"#utility.yul\":2624:2648   */\n      tag_260\n      jump\t// in\n    tag_350:\n        /* \"#utility.yul\":2613:2648   */\n      swap1\n      pop\n        /* \"#utility.yul\":2550:2654   */\n      swap2\n      swap1\n      pop\n      jump\t// out\n        /* \"#utility.yul\":2660:2802   */\n    tag_262:\n        /* \"#utility.yul\":2763:2795   */\n      tag_352\n        /* \"#utility.yul\":2789:2794   */\n      dup2\n        /* \"#utility.yul\":2763:2795   */\n      tag_261\n      jump\t// in\n    tag_352:\n        /* \"#utility.yul\":2758:2761   */\n      dup3\n        /* \"#utility.yul\":2751:2796   */\n      mstore\n        /* \"#utility.yul\":2660:2802   */\n      pop\n      pop\n      jump\t// out\n        /* \"#utility.yul\":2808:2885   */\n    tag_263:\n        /* \"#utility.yul\":2845:2852   */\n      0x00\n        /* \"#utility.yul\":2874:2879   */\n      dup2\n        /* \"#utility.yul\":2863:2879   */\n      swap1\n      pop\n        /* \"#utility.yul\":2808:2885   */\n      swap2\n      swap1\n      pop\n      jump\t// out\n        /* \"#utility.yul\":2891:3009   */\n    tag_264:\n        /* \"#utility.yul\":2978:3002   */\n      tag_355\n        /* \"#utility.yul\":2996:3001   */\n      dup2\n        /* \"#utility.yul\":2978:3002   */\n      tag_263\n      jump\t// in\n    tag_355:\n        /* \"#utility.yul\":2973:2976   */\n      dup3\n        /* \"#utility.yul\":2966:3003   */\n      mstore\n        /* \"#utility.yul\":2891:3009   */\n      pop\n      pop\n      jump\t// out\n        /* \"#utility.yul\":3015:3105   */\n    tag_265:\n        /* \"#utility.yul\":3049:3056   */\n      0x00\n        /* \"#utility.yul\":3092:3097   */\n      dup2\n        /* \"#utility.yul\":3085:3098   */\n      iszero\n        /* \"#utility.yul\":3078:3099   */\n      iszero\n        /* \"#utility.yul\":3067:3099   */\n      swap1\n      pop\n        /* \"#utility.yul\":3015:3105   */\n      swap2\n      swap1\n      pop\n      jump\t// out\n        /* \"#utility.yul\":3111:3220   */\n    tag_266:\n        /* \"#utility.yul\":3192:3213   */\n      tag_358\n        /* \"#utility.yul\":3207:3212   */\n      dup2\n        /* \"#utility.yul\":3192:3213   */\n      tag_265\n      jump\t// in\n    tag_358:\n        /* \"#utility.yul\":3187:3190   */\n      dup3\n        /* \"#utility.yul\":3180:3214   */\n      mstore\n        /* \"#utility.yul\":3111:3220   */\n      pop\n      pop\n      jump\t// out\n        /* \"#utility.yul\":3226:4305   */\n    tag_45:\n        /* \"#utility.yul\":3556:3560   */\n      0x00\n        /* \"#utility.yul\":3594:3597   */\n      0x0100\n        /* \"#utility.yul\":3583:3592   */\n      dup3\n        /* \"#utility.yul\":3579:3598   */\n      add\n        /* \"#utility.yul\":3571:3598   */\n      swap1\n      pop\n        /* \"#utility.yul\":3608:3679   */\n      tag_360\n        /* \"#utility.yul\":3676:3677   */\n      0x00\n        /* \"#utility.yul\":3665:3674   */\n      dup4\n        /* \"#utility.yul\":3661:3678   */\n      add\n        /* \"#utility.yul\":3652:3658   */\n      dup12\n        /* \"#utility.yul\":3608:3679   */\n      tag_255\n      jump\t// in\n    tag_360:\n        /* \"#utility.yul\":3689:3761   */\n      tag_361\n        /* \"#utility.yul\":3757:3759   */\n      0x20\n        /* \"#utility.yul\":3746:3755   */\n      dup4\n        /* \"#utility.yul\":3742:3760   */\n      add\n        /* \"#utility.yul\":3733:3739   */\n      dup11\n        /* \"#utility.yul\":3689:3761   */\n      tag_255\n      jump\t// in\n    tag_361:\n        /* \"#utility.yul\":3771:3859   */\n      tag_362\n        /* \"#utility.yul\":3855:3857   */\n      0x40\n        /* \"#utility.yul\":3844:3853   */\n      dup4\n        /* \"#utility.yul\":3840:3858   */\n      add\n        /* \"#utility.yul\":3831:3837   */\n      dup10\n        /* \"#utility.yul\":3771:3859   */\n      tag_262\n      jump\t// in\n    tag_362:\n        /* \"#utility.yul\":3869:3957   */\n      tag_363\n        /* \"#utility.yul\":3953:3955   */\n      0x60\n        /* \"#utility.yul\":3942:3951   */\n      dup4\n        /* \"#utility.yul\":3938:3956   */\n      add\n        /* \"#utility.yul\":3929:3935   */\n      dup9\n        /* \"#utility.yul\":3869:3957   */\n      tag_262\n      jump\t// in\n    tag_363:\n        /* \"#utility.yul\":3967:4055   */\n      tag_364\n        /* \"#utility.yul\":4050:4053   */\n      0x80\n        /* \"#utility.yul\":4039:4048   */\n      dup4\n        /* \"#utility.yul\":4035:4054   */\n      add\n        /* \"#utility.yul\":4026:4032   */\n      dup8\n        /* \"#utility.yul\":3967:4055   */\n      tag_259\n      jump\t// in\n    tag_364:\n        /* \"#utility.yul\":4065:4138   */\n      tag_365\n        /* \"#utility.yul\":4133:4136   */\n      0xa0\n        /* \"#utility.yul\":4122:4131   */\n      dup4\n        /* \"#utility.yul\":4118:4137   */\n      add\n        /* \"#utility.yul\":4109:4115   */\n      dup7\n        /* \"#utility.yul\":4065:4138   */\n      tag_264\n      jump\t// in\n    tag_365:\n        /* \"#utility.yul\":4148:4221   */\n      tag_366\n        /* \"#utility.yul\":4216:4219   */\n      0xc0\n        /* \"#utility.yul\":4205:4214   */\n      dup4\n        /* \"#utility.yul\":4201:4220   */\n      add\n        /* \"#utility.yul\":4192:4198   */\n      dup6\n        /* \"#utility.yul\":4148:4221   */\n      tag_264\n      jump\t// in\n    tag_366:\n        /* \"#utility.yul\":4231:4298   */\n      tag_367\n        /* \"#utility.yul\":4293:4296   */\n      0xe0\n        /* \"#utility.yul\":4282:4291   */\n      dup4\n        /* \"#utility.yul\":4278:4297   */\n      add\n        /* \"#utility.yul\":4269:4275   */\n      dup5\n        /* \"#utility.yul\":4231:4298   */\n      tag_266\n      jump\t// in\n    tag_367:\n        /* \"#utility.yul\":3226:4305   */\n      swap10\n      swap9\n      pop\n      pop\n      pop\n      pop\n      pop\n      pop\n      pop\n      pop\n      pop\n      jump\t// out\n        /* \"#utility.yul\":4311:4407   */\n    tag_267:\n        /* \"#utility.yul\":4348:4355   */\n      0x00\n        /* \"#utility.yul\":4377:4401   */\n      tag_369\n        /* \"#utility.yul\":4395:4400   */\n      dup3\n        /* \"#utility.yul\":4377:4401   */\n      tag_260\n      jump\t// in\n    tag_369:\n        /* \"#utility.yul\":4366:4401   */\n      swap1\n      pop\n        /* \"#utility.yul\":4311:4407   */\n      swap2\n      swap1\n      pop\n      jump\t// out\n        /* \"#utility.yul\":4413:4535   */\n    tag_268:\n        /* \"#utility.yul\":4486:4510   */\n      tag_371\n        /* \"#utility.yul\":4504:4509   */\n      dup2\n        /* \"#utility.yul\":4486:4510   */\n      tag_267\n      jump\t// in\n    tag_371:\n        /* \"#utility.yul\":4479:4484   */\n      dup2\n        /* \"#utility.yul\":4476:4511   */\n      eq\n        /* \"#utility.yul\":4466:4529   */\n      tag_372\n      jumpi\n        /* \"#utility.yul\":4525:4526   */\n      0x00\n        /* \"#utility.yul\":4522:4523   */\n      0x00\n        /* \"#utility.yul\":4515:4527   */\n      revert\n        /* \"#utility.yul\":4466:4529   */\n    tag_372:\n        /* \"#utility.yul\":4413:4535   */\n      pop\n      jump\t// out\n        /* \"#utility.yul\":4541:4680   */\n    tag_269:\n        /* \"#utility.yul\":4587:4592   */\n      0x00\n        /* \"#utility.yul\":4625:4631   */\n      dup2\n        /* \"#utility.yul\":4612:4632   */\n      calldataload\n        /* \"#utility.yul\":4603:4632   */\n      swap1\n      pop\n        /* \"#utility.yul\":4641:4674   */\n      tag_374\n        /* \"#utility.yul\":4668:4673   */\n      dup2\n        /* \"#utility.yul\":4641:4674   */\n      tag_268\n      jump\t// in\n    tag_374:\n        /* \"#utility.yul\":4541:4680   */\n      swap3\n      swap2\n      pop\n      pop\n      jump\t// out\n        /* \"#utility.yul\":4686:5015   */\n    tag_49:\n        /* \"#utility.yul\":4745:4751   */\n      0x00\n        /* \"#utility.yul\":4794:4796   */\n      0x20\n        /* \"#utility.yul\":4782:4791   */\n      dup3\n        /* \"#utility.yul\":4773:4780   */\n      dup5\n        /* \"#utility.yul\":4769:4792   */\n      sub\n        /* \"#utility.yul\":4765:4797   */\n      slt\n        /* \"#utility.yul\":4762:4881   */\n      iszero\n      tag_376\n      jumpi\n        /* \"#utility.yul\":4800:4879   */\n      tag_377\n      tag_250\n      jump\t// in\n    tag_377:\n        /* \"#utility.yul\":4762:4881   */\n    tag_376:\n        /* \"#utility.yul\":4920:4921   */\n      0x00\n        /* \"#utility.yul\":4945:4998   */\n      tag_378\n        /* \"#utility.yul\":4990:4997   */\n      dup5\n        /* \"#utility.yul\":4981:4987   */\n      dup3\n        /* \"#utility.yul\":4970:4979   */\n      dup6\n        /* \"#utility.yul\":4966:4988   */\n      add\n        /* \"#utility.yul\":4945:4998   */\n      tag_269\n      jump\t// in\n    tag_378:\n        /* \"#utility.yul\":4935:4998   */\n      swap2\n      pop\n        /* \"#utility.yul\":4891:5008   */\n      pop\n        /* \"#utility.yul\":4686:5015   */\n      swap3\n      swap2\n      pop\n      pop\n      jump\t// out\n        /* \"#utility.yul\":5021:5139   */\n    tag_270:\n        /* \"#utility.yul\":5108:5132   */\n      tag_380\n        /* \"#utility.yul\":5126:5131   */\n      dup2\n        /* \"#utility.yul\":5108:5132   */\n      tag_267\n      jump\t// in\n    tag_380:\n        /* \"#utility.yul\":5103:5106   */\n      dup3\n        /* \"#utility.yul\":5096:5133   */\n      mstore\n        /* \"#utility.yul\":5021:5139   */\n      pop\n      pop\n      jump\t// out\n        /* \"#utility.yul\":5145:5367   */\n    tag_55:\n        /* \"#utility.yul\":5238:5242   */\n      0x00\n        /* \"#utility.yul\":5276:5278   */\n      0x20\n        /* \"#utility.yul\":5265:5274   */\n      dup3\n        /* \"#utility.yul\":5261:5279   */\n      add\n        /* \"#utility.yul\":5253:5279   */\n      swap1\n      pop\n        /* \"#utility.yul\":5289:5360   */\n      tag_382\n        /* \"#utility.yul\":5357:5358   */\n      0x00\n        /* \"#utility.yul\":5346:5355   */\n      dup4\n        /* \"#utility.yul\":5342:5359   */\n      add\n        /* \"#utility.yul\":5333:5339   */\n      dup5\n        /* \"#utility.yul\":5289:5360   */\n      tag_270\n      jump\t// in\n    tag_382:\n        /* \"#utility.yul\":5145:5367   */\n      swap3\n      swap2\n      pop\n      pop\n      jump\t// out\n        /* \"#utility.yul\":5373:5511   */\n    tag_271:\n        /* \"#utility.yul\":5454:5486   */\n      tag_384\n        /* \"#utility.yul\":5480:5485   */\n      dup2\n        /* \"#utility.yul\":5454:5486   */\n      tag_261\n      jump\t// in\n    tag_384:\n        /* \"#utility.yul\":5447:5452   */\n      dup2\n        /* \"#utility.yul\":5444:5487   */\n      eq\n        /* \"#utility.yul\":5434:5505   */\n      tag_385\n      jumpi\n        /* \"#utility.yul\":5501:5502   */\n      0x00\n        /* \"#utility.yul\":5498:5499   */\n      0x00\n        /* \"#utility.yul\":5491:5503   */\n      revert\n        /* \"#utility.yul\":5434:5505   */\n    tag_385:\n        /* \"#utility.yul\":5373:5511   */\n      pop\n      jump\t// out\n        /* \"#utility.yul\":5517:5672   */\n    tag_272:\n        /* \"#utility.yul\":5571:5576   */\n      0x00\n        /* \"#utility.yul\":5609:5615   */\n      dup2\n        /* \"#utility.yul\":5596:5616   */\n      calldataload\n        /* \"#utility.yul\":5587:5616   */\n      swap1\n      pop\n        /* \"#utility.yul\":5625:5666   */\n      tag_387\n        /* \"#utility.yul\":5660:5665   */\n      dup2\n        /* \"#utility.yul\":5625:5666   */\n      tag_271\n      jump\t// in\n    tag_387:\n        /* \"#utility.yul\":5517:5672   */\n      swap3\n      swap2\n      pop\n      pop\n      jump\t// out\n        /* \"#utility.yul\":5678:5800   */\n    tag_273:\n        /* \"#utility.yul\":5751:5775   */\n      tag_389\n        /* \"#utility.yul\":5769:5774   */\n      dup2\n        /* \"#utility.yul\":5751:5775   */\n      tag_263\n      jump\t// in\n    tag_389:\n        /* \"#utility.yul\":5744:5749   */\n      dup2\n        /* \"#utility.yul\":5741:5776   */\n      eq\n        /* \"#utility.yul\":5731:5794   */\n      tag_390\n      jumpi\n        /* \"#utility.yul\":5790:5791   */\n      0x00\n        /* \"#utility.yul\":5787:5788   */\n      0x00\n        /* \"#utility.yul\":5780:5792   */\n      revert\n        /* \"#utility.yul\":5731:5794   */\n    tag_390:\n        /* \"#utility.yul\":5678:5800   */\n      pop\n      jump\t// out\n        /* \"#utility.yul\":5806:5945   */\n    tag_274:\n        /* \"#utility.yul\":5852:5857   */\n      0x00\n        /* \"#utility.yul\":5890:5896   */\n      dup2\n        /* \"#utility.yul\":5877:5897   */\n      calldataload\n        /* \"#utility.yul\":5868:5897   */\n      swap1\n      pop\n        /* \"#utility.yul\":5906:5939   */\n      tag_392\n        /* \"#utility.yul\":5933:5938   */\n      dup2\n        /* \"#utility.yul\":5906:5939   */\n      tag_273\n      jump\t// in\n    tag_392:\n        /* \"#utility.yul\":5806:5945   */\n      swap3\n      swap2\n      pop\n      pop\n      jump\t// out\n        /* \"#utility.yul\":5951:6586   */\n    tag_66:\n        /* \"#utility.yul\":6036:6042   */\n      0x00\n        /* \"#utility.yul\":6044:6050   */\n      0x00\n        /* \"#utility.yul\":6052:6058   */\n      0x00\n        /* \"#utility.yul\":6101:6103   */\n      0x60\n        /* \"#utility.yul\":6089:6098   */\n      dup5\n        /* \"#utility.yul\":6080:6087   */\n      dup7\n        /* \"#utility.yul\":6076:6099   */\n      sub\n        /* \"#utility.yul\":6072:6104   */\n      slt\n        /* \"#utility.yul\":6069:6188   */\n      iszero\n      tag_394\n      jumpi\n        /* \"#utility.yul\":6107:6186   */\n      tag_395\n      tag_250\n      jump\t// in\n    tag_395:\n        /* \"#utility.yul\":6069:6188   */\n    tag_394:\n        /* \"#utility.yul\":6227:6228   */\n      0x00\n        /* \"#utility.yul\":6252:6313   */\n      tag_396\n        /* \"#utility.yul\":6305:6312   */\n      dup7\n        /* \"#utility.yul\":6296:6302   */\n      dup3\n        /* \"#utility.yul\":6285:6294   */\n      dup8\n        /* \"#utility.yul\":6281:6303   */\n      add\n        /* \"#utility.yul\":6252:6313   */\n      tag_272\n      jump\t// in\n    tag_396:\n        /* \"#utility.yul\":6242:6313   */\n      swap4\n      pop\n        /* \"#utility.yul\":6198:6323   */\n      pop\n        /* \"#utility.yul\":6362:6364   */\n      0x20\n        /* \"#utility.yul\":6388:6441   */\n      tag_397\n        /* \"#utility.yul\":6433:6440   */\n      dup7\n        /* \"#utility.yul\":6424:6430   */\n      dup3\n        /* \"#utility.yul\":6413:6422   */\n      dup8\n        /* \"#utility.yul\":6409:6431   */\n      add\n        /* \"#utility.yul\":6388:6441   */\n      tag_274\n      jump\t// in\n    tag_397:\n        /* \"#utility.yul\":6378:6441   */\n      swap3\n      pop\n        /* \"#utility.yul\":6333:6451   */\n      pop\n        /* \"#utility.yul\":6490:6492   */\n      0x40\n        /* \"#utility.yul\":6516:6569   */\n      tag_398\n        /* \"#utility.yul\":6561:6568   */\n      dup7\n        /* \"#utility.yul\":6552:6558   */\n      dup3\n        /* \"#utility.yul\":6541:6550   */\n      dup8\n        /* \"#utility.yul\":6537:6559   */\n      add\n        /* \"#utility.yul\":6516:6569   */\n      tag_254\n      jump\t// in\n    tag_398:\n        /* \"#utility.yul\":6506:6569   */\n      swap2\n      pop\n        /* \"#utility.yul\":6461:6579   */\n      pop\n        /* \"#utility.yul\":5951:6586   */\n      swap3\n      pop\n      swap3\n      pop\n      swap3\n      jump\t// out\n        /* \"#utility.yul\":6592:7066   */\n    tag_71:\n        /* \"#utility.yul\":6660:6666   */\n      0x00\n        /* \"#utility.yul\":6668:6674   */\n      0x00\n        /* \"#utility.yul\":6717:6719   */\n      0x40\n        /* \"#utility.yul\":6705:6714   */\n      dup4\n        /* \"#utility.yul\":6696:6703   */\n      dup6\n        /* \"#utility.yul\":6692:6715   */\n      sub\n        /* \"#utility.yul\":6688:6720   */\n      slt\n        /* \"#utility.yul\":6685:6804   */\n      iszero\n      tag_400\n      jumpi\n        /* \"#utility.yul\":6723:6802   */\n      tag_401\n      tag_250\n      jump\t// in\n    tag_401:\n        /* \"#utility.yul\":6685:6804   */\n    tag_400:\n        /* \"#utility.yul\":6843:6844   */\n      0x00\n        /* \"#utility.yul\":6868:6921   */\n      tag_402\n        /* \"#utility.yul\":6913:6920   */\n      dup6\n        /* \"#utility.yul\":6904:6910   */\n      dup3\n        /* \"#utility.yul\":6893:6902   */\n      dup7\n        /* \"#utility.yul\":6889:6911   */\n      add\n        /* \"#utility.yul\":6868:6921   */\n      tag_254\n      jump\t// in\n    tag_402:\n        /* \"#utility.yul\":6858:6921   */\n      swap3\n      pop\n        /* \"#utility.yul\":6814:6931   */\n      pop\n        /* \"#utility.yul\":6970:6972   */\n      0x20\n        /* \"#utility.yul\":6996:7049   */\n      tag_403\n        /* \"#utility.yul\":7041:7048   */\n      dup6\n        /* \"#utility.yul\":7032:7038   */\n      dup3\n        /* \"#utility.yul\":7021:7030   */\n      dup7\n        /* \"#utility.yul\":7017:7039   */\n      add\n        /* \"#utility.yul\":6996:7049   */\n      tag_274\n      jump\t// in\n    tag_403:\n        /* \"#utility.yul\":6986:7049   */\n      swap2\n      pop\n        /* \"#utility.yul\":6941:7059   */\n      pop\n        /* \"#utility.yul\":6592:7066   */\n      swap3\n      pop\n      swap3\n      swap1\n      pop\n      jump\t// out\n        /* \"#utility.yul\":7072:7282   */\n    tag_81:\n        /* \"#utility.yul\":7159:7163   */\n      0x00\n        /* \"#utility.yul\":7197:7199   */\n      0x20\n        /* \"#utility.yul\":7186:7195   */\n      dup3\n        /* \"#utility.yul\":7182:7200   */\n      add\n        /* \"#utility.yul\":7174:7200   */\n      swap1\n      pop\n        /* \"#utility.yul\":7210:7275   */\n      tag_405\n        /* \"#utility.yul\":7272:7273   */\n      0x00\n        /* \"#utility.yul\":7261:7270   */\n      dup4\n        /* \"#utility.yul\":7257:7274   */\n      add\n        /* \"#utility.yul\":7248:7254   */\n      dup5\n        /* \"#utility.yul\":7210:7275   */\n      tag_266\n      jump\t// in\n    tag_405:\n        /* \"#utility.yul\":7072:7282   */\n      swap3\n      swap2\n      pop\n      pop\n      jump\t// out\n        /* \"#utility.yul\":7288:7457   */\n    tag_275:\n        /* \"#utility.yul\":7372:7383   */\n      0x00\n        /* \"#utility.yul\":7406:7412   */\n      dup3\n        /* \"#utility.yul\":7401:7404   */\n      dup3\n        /* \"#utility.yul\":7394:7413   */\n      mstore\n        /* \"#utility.yul\":7446:7450   */\n      0x20\n        /* \"#utility.yul\":7441:7444   */\n      dup3\n        /* \"#utility.yul\":7437:7451   */\n      add\n        /* \"#utility.yul\":7422:7451   */\n      swap1\n      pop\n        /* \"#utility.yul\":7288:7457   */\n      swap3\n      swap2\n      pop\n      pop\n      jump\t// out\n        /* \"#utility.yul\":7463:7624   */\n    tag_276:\n        /* \"#utility.yul\":7603:7616   */\n      0x4e6f742063726561746f72000000000000000000000000000000000000000000\n        /* \"#utility.yul\":7599:7600   */\n      0x00\n        /* \"#utility.yul\":7591:7597   */\n      dup3\n        /* \"#utility.yul\":7587:7601   */\n      add\n        /* \"#utility.yul\":7580:7617   */\n      mstore\n        /* \"#utility.yul\":7463:7624   */\n      pop\n      jump\t// out\n        /* \"#utility.yul\":7630:7996   */\n    tag_277:\n        /* \"#utility.yul\":7772:7775   */\n      0x00\n        /* \"#utility.yul\":7793:7860   */\n      tag_409\n        /* \"#utility.yul\":7857:7859   */\n      0x0b\n        /* \"#utility.yul\":7852:7855   */\n      dup4\n        /* \"#utility.yul\":7793:7860   */\n      tag_275\n      jump\t// in\n    tag_409:\n        /* \"#utility.yul\":7786:7860   */\n      swap2\n      pop\n        /* \"#utility.yul\":7869:7962   */\n      tag_410\n        /* \"#utility.yul\":7958:7961   */\n      dup3\n        /* \"#utility.yul\":7869:7962   */\n      tag_276\n      jump\t// in\n    tag_410:\n        /* \"#utility.yul\":7987:7989   */\n      0x20\n        /* \"#utility.yul\":7982:7985   */\n      dup3\n        /* \"#utility.yul\":7978:7990   */\n      add\n        /* \"#utility.yul\":7971:7990   */\n      swap1\n      pop\n        /* \"#utility.yul\":7630:7996   */\n      swap2\n      swap1\n      pop\n      jump\t// out\n        /* \"#utility.yul\":8002:8421   */\n    tag_94:\n        /* \"#utility.yul\":8168:8172   */\n      0x00\n        /* \"#utility.yul\":8206:8208   */\n      0x20\n        /* \"#utility.yul\":8195:8204   */\n      dup3\n        /* \"#utility.yul\":8191:8209   */\n      add\n        /* \"#utility.yul\":8183:8209   */\n      swap1\n      pop\n        /* \"#utility.yul\":8255:8264   */\n      dup2\n        /* \"#utility.yul\":8249:8253   */\n      dup2\n        /* \"#utility.yul\":8245:8265   */\n      sub\n        /* \"#utility.yul\":8241:8242   */\n      0x00\n        /* \"#utility.yul\":8230:8239   */\n      dup4\n        /* \"#utility.yul\":8226:8243   */\n      add\n        /* \"#utility.yul\":8219:8266   */\n      mstore\n        /* \"#utility.yul\":8283:8414   */\n      tag_412\n        /* \"#utility.yul\":8409:8413   */\n      dup2\n        /* \"#utility.yul\":8283:8414   */\n      tag_277\n      jump\t// in\n    tag_412:\n        /* \"#utility.yul\":8275:8414   */\n      swap1\n      pop\n        /* \"#utility.yul\":8002:8421   */\n      swap2\n      swap1\n      pop\n      jump\t// out\n        /* \"#utility.yul\":8427:8589   */\n    tag_278:\n        /* \"#utility.yul\":8567:8581   */\n      0x57726f6e67207374617475730000000000000000000000000000000000000000\n        /* \"#utility.yul\":8563:8564   */\n      0x00\n        /* \"#utility.yul\":8555:8561   */\n      dup3\n        /* \"#utility.yul\":8551:8565   */\n      add\n        /* \"#utility.yul\":8544:8582   */\n      mstore\n        /* \"#utility.yul\":8427:8589   */\n      pop\n      jump\t// out\n        /* \"#utility.yul\":8595:8961   */\n    tag_279:\n        /* \"#utility.yul\":8737:8740   */\n      0x00\n        /* \"#utility.yul\":8758:8825   */\n      tag_415\n        /* \"#utility.yul\":8822:8824   */\n      0x0c\n        /* \"#utility.yul\":8817:8820   */\n      dup4\n        /* \"#utility.yul\":8758:8825   */\n      tag_275\n      jump\t// in\n    tag_415:\n        /* \"#utility.yul\":8751:8825   */\n      swap2\n      pop\n        /* \"#utility.yul\":8834:8927   */\n      tag_416\n        /* \"#utility.yul\":8923:8926   */\n      dup3\n        /* \"#utility.yul\":8834:8927   */\n      tag_278\n      jump\t// in\n    tag_416:\n        /* \"#utility.yul\":8952:8954   */\n      0x20\n        /* \"#utility.yul\":8947:8950   */\n      dup3\n        /* \"#utility.yul\":8943:8955   */\n      add\n        /* \"#utility.yul\":8936:8955   */\n      swap1\n      pop\n        /* \"#utility.yul\":8595:8961   */\n      swap2\n      swap1\n      pop\n      jump\t// out\n        /* \"#utility.yul\":8967:9386   */\n    tag_103:\n        /* \"#utility.yul\":9133:9137   */\n      0x00\n        /* \"#utility.yul\":9171:9173   */\n      0x20\n        /* \"#utility.yul\":9160:9169   */\n      dup3\n        /* \"#utility.yul\":9156:9174   */\n      add\n        /* \"#utility.yul\":9148:9174   */\n      swap1\n      pop\n        /* \"#utility.yul\":9220:9229   */\n      dup2\n        /* \"#utility.yul\":9214:9218   */\n      dup2\n        /* \"#utility.yul\":9210:9230   */\n      sub\n        /* \"#utility.yul\":9206:9207   */\n      0x00\n        /* \"#utility.yul\":9195:9204   */\n      dup4\n        /* \"#utility.yul\":9191:9208   */\n      add\n        /* \"#utility.yul\":9184:9231   */\n      mstore\n        /* \"#utility.yul\":9248:9379   */\n      tag_418\n        /* \"#utility.yul\":9374:9378   */\n      dup2\n        /* \"#utility.yul\":9248:9379   */\n      tag_279\n      jump\t// in\n    tag_418:\n        /* \"#utility.yul\":9240:9379   */\n      swap1\n      pop\n        /* \"#utility.yul\":8967:9386   */\n      swap2\n      swap1\n      pop\n      jump\t// out\n        /* \"#utility.yul\":9392:9572   */\n    tag_280:\n        /* \"#utility.yul\":9440:9517   */\n      0x4e487b7100000000000000000000000000000000000000000000000000000000\n        /* \"#utility.yul\":9437:9438   */\n      0x00\n        /* \"#utility.yul\":9430:9518   */\n      mstore\n        /* \"#utility.yul\":9537:9541   */\n      0x11\n        /* \"#utility.yul\":9534:9535   */\n      0x04\n        /* \"#utility.yul\":9527:9542   */\n      mstore\n        /* \"#utility.yul\":9561:9565   */\n      0x24\n        /* \"#utility.yul\":9558:9559   */\n      0x00\n        /* \"#utility.yul\":9551:9566   */\n      revert\n        /* \"#utility.yul\":9578:9769   */\n    tag_107:\n        /* \"#utility.yul\":9618:9621   */\n      0x00\n        /* \"#utility.yul\":9637:9657   */\n      tag_421\n        /* \"#utility.yul\":9655:9656   */\n      dup3\n        /* \"#utility.yul\":9637:9657   */\n      tag_252\n      jump\t// in\n    tag_421:\n        /* \"#utility.yul\":9632:9657   */\n      swap2\n      pop\n        /* \"#utility.yul\":9671:9691   */\n      tag_422\n        /* \"#utility.yul\":9689:9690   */\n      dup4\n        /* \"#utility.yul\":9671:9691   */\n      tag_252\n      jump\t// in\n    tag_422:\n        /* \"#utility.yul\":9666:9691   */\n      swap3\n      pop\n        /* \"#utility.yul\":9714:9715   */\n      dup3\n        /* \"#utility.yul\":9711:9712   */\n      dup3\n        /* \"#utility.yul\":9707:9716   */\n      add\n        /* \"#utility.yul\":9700:9716   */\n      swap1\n      pop\n        /* \"#utility.yul\":9735:9738   */\n      dup1\n        /* \"#utility.yul\":9732:9733   */\n      dup3\n        /* \"#utility.yul\":9729:9739   */\n      gt\n        /* \"#utility.yul\":9726:9762   */\n      iszero\n      tag_423\n      jumpi\n        /* \"#utility.yul\":9742:9760   */\n      tag_424\n      tag_280\n      jump\t// in\n    tag_424:\n        /* \"#utility.yul\":9726:9762   */\n    tag_423:\n        /* \"#utility.yul\":9578:9769   */\n      swap3\n      swap2\n      pop\n      pop\n      jump\t// out\n        /* \"#utility.yul\":9775:9941   */\n    tag_281:\n        /* \"#utility.yul\":9915:9933   */\n      0x4e6f7420636f756e746572706172747900000000000000000000000000000000\n        /* \"#utility.yul\":9911:9912   */\n      0x00\n        /* \"#utility.yul\":9903:9909   */\n      dup3\n        /* \"#utility.yul\":9899:9913   */\n      add\n        /* \"#utility.yul\":9892:9934   */\n      mstore\n        /* \"#utility.yul\":9775:9941   */\n      pop\n      jump\t// out\n        /* \"#utility.yul\":9947:10313   */\n    tag_282:\n        /* \"#utility.yul\":10089:10092   */\n      0x00\n        /* \"#utility.yul\":10110:10177   */\n      tag_427\n        /* \"#utility.yul\":10174:10176   */\n      0x10\n        /* \"#utility.yul\":10169:10172   */\n      dup4\n        /* \"#utility.yul\":10110:10177   */\n      tag_275\n      jump\t// in\n    tag_427:\n        /* \"#utility.yul\":10103:10177   */\n      swap2\n      pop\n        /* \"#utility.yul\":10186:10279   */\n      tag_428\n        /* \"#utility.yul\":10275:10278   */\n      dup3\n        /* \"#utility.yul\":10186:10279   */\n      tag_281\n      jump\t// in\n    tag_428:\n        /* \"#utility.yul\":10304:10306   */\n      0x20\n        /* \"#utility.yul\":10299:10302   */\n      dup3\n        /* \"#utility.yul\":10295:10307   */\n      add\n        /* \"#utility.yul\":10288:10307   */\n      swap1\n      pop\n        /* \"#utility.yul\":9947:10313   */\n      swap2\n      swap1\n      pop\n      jump\t// out\n        /* \"#utility.yul\":10319:10738   */\n    tag_113:\n        /* \"#utility.yul\":10485:10489   */\n      0x00\n        /* \"#utility.yul\":10523:10525   */\n      0x20\n        /* \"#utility.yul\":10512:10521   */\n      dup3\n        /* \"#utility.yul\":10508:10526   */\n      add\n        /* \"#utility.yul\":10500:10526   */\n      swap1\n      pop\n        /* \"#utility.yul\":10572:10581   */\n      dup2\n        /* \"#utility.yul\":10566:10570   */\n      dup2\n        /* \"#utility.yul\":10562:10582   */\n      sub\n        /* \"#utility.yul\":10558:10559   */\n      0x00\n        /* \"#utility.yul\":10547:10556   */\n      dup4\n        /* \"#utility.yul\":10543:10560   */\n      add\n        /* \"#utility.yul\":10536:10583   */\n      mstore\n        /* \"#utility.yul\":10600:10731   */\n      tag_430\n        /* \"#utility.yul\":10726:10730   */\n      dup2\n        /* \"#utility.yul\":10600:10731   */\n      tag_282\n      jump\t// in\n    tag_430:\n        /* \"#utility.yul\":10592:10731   */\n      swap1\n      pop\n        /* \"#utility.yul\":10319:10738   */\n      swap2\n      swap1\n      pop\n      jump\t// out\n        /* \"#utility.yul\":10744:10908   */\n    tag_283:\n        /* \"#utility.yul\":10884:10900   */\n      0x4f6e6c7920436f6d706c65746564000000000000000000000000000000000000\n        /* \"#utility.yul\":10880:10881   */\n      0x00\n        /* \"#utility.yul\":10872:10878   */\n      dup3\n        /* \"#utility.yul\":10868:10882   */\n      add\n        /* \"#utility.yul\":10861:10901   */\n      mstore\n        /* \"#utility.yul\":10744:10908   */\n      pop\n      jump\t// out\n        /* \"#utility.yul\":10914:11280   */\n    tag_284:\n        /* \"#utility.yul\":11056:11059   */\n      0x00\n        /* \"#utility.yul\":11077:11144   */\n      tag_433\n        /* \"#utility.yul\":11141:11143   */\n      0x0e\n        /* \"#utility.yul\":11136:11139   */\n      dup4\n        /* \"#utility.yul\":11077:11144   */\n      tag_275\n      jump\t// in\n    tag_433:\n        /* \"#utility.yul\":11070:11144   */\n      swap2\n      pop\n        /* \"#utility.yul\":11153:11246   */\n      tag_434\n        /* \"#utility.yul\":11242:11245   */\n      dup3\n        /* \"#utility.yul\":11153:11246   */\n      tag_283\n      jump\t// in\n    tag_434:\n        /* \"#utility.yul\":11271:11273   */\n      0x20\n        /* \"#utility.yul\":11266:11269   */\n      dup3\n        /* \"#utility.yul\":11262:11274   */\n      add\n        /* \"#utility.yul\":11255:11274   */\n      swap1\n      pop\n        /* \"#utility.yul\":10914:11280   */\n      swap2\n      swap1\n      pop\n      jump\t// out\n        /* \"#utility.yul\":11286:11705   */\n    tag_124:\n        /* \"#utility.yul\":11452:11456   */\n      0x00\n        /* \"#utility.yul\":11490:11492   */\n      0x20\n        /* \"#utility.yul\":11479:11488   */\n      dup3\n        /* \"#utility.yul\":11475:11493   */\n      add\n        /* \"#utility.yul\":11467:11493   */\n      swap1\n      pop\n        /* \"#utility.yul\":11539:11548   */\n      dup2\n        /* \"#utility.yul\":11533:11537   */\n      dup2\n        /* \"#utility.yul\":11529:11549   */\n      sub\n        /* \"#utility.yul\":11525:11526   */\n      0x00\n        /* \"#utility.yul\":11514:11523   */\n      dup4\n        /* \"#utility.yul\":11510:11527   */\n      add\n        /* \"#utility.yul\":11503:11550   */\n      mstore\n        /* \"#utility.yul\":11567:11698   */\n      tag_436\n        /* \"#utility.yul\":11693:11697   */\n      dup2\n        /* \"#utility.yul\":11567:11698   */\n      tag_284\n      jump\t// in\n    tag_436:\n        /* \"#utility.yul\":11559:11698   */\n      swap1\n      pop\n        /* \"#utility.yul\":11286:11705   */\n      swap2\n      swap1\n      pop\n      jump\t// out\n        /* \"#utility.yul\":11711:11879   */\n    tag_285:\n        /* \"#utility.yul\":11851:11871   */\n      0x4f7261636c6520616c7265616479207365740000000000000000000000000000\n        /* \"#utility.yul\":11847:11848   */\n      0x00\n        /* \"#utility.yul\":11839:11845   */\n      dup3\n        /* \"#utility.yul\":11835:11849   */\n      add\n        /* \"#utility.yul\":11828:11872   */\n      mstore\n        /* \"#utility.yul\":11711:11879   */\n      pop\n      jump\t// out\n        /* \"#utility.yul\":11885:12251   */\n    tag_286:\n        /* \"#utility.yul\":12027:12030   */\n      0x00\n        /* \"#utility.yul\":12048:12115   */\n      tag_439\n        /* \"#utility.yul\":12112:12114   */\n      0x12\n        /* \"#utility.yul\":12107:12110   */\n      dup4\n        /* \"#utility.yul\":12048:12115   */\n      tag_275\n      jump\t// in\n    tag_439:\n        /* \"#utility.yul\":12041:12115   */\n      swap2\n      pop\n        /* \"#utility.yul\":12124:12217   */\n      tag_440\n        /* \"#utility.yul\":12213:12216   */\n      dup3\n        /* \"#utility.yul\":12124:12217   */\n      tag_285\n      jump\t// in\n    tag_440:\n        /* \"#utility.yul\":12242:12244   */\n      0x20\n        /* \"#utility.yul\":12237:12240   */\n      dup3\n        /* \"#utility.yul\":12233:12245   */\n      add\n        /* \"#utility.yul\":12226:12245   */\n      swap1\n      pop\n        /* \"#utility.yul\":11885:12251   */\n      swap2\n      swap1\n      pop\n      jump\t// out\n        /* \"#utility.yul\":12257:12676   */\n    tag_130:\n        /* \"#utility.yul\":12423:12427   */\n      0x00\n        /* \"#utility.yul\":12461:12463   */\n      0x20\n        /* \"#utility.yul\":12450:12459   */\n      dup3\n        /* \"#utility.yul\":12446:12464   */\n      add\n        /* \"#utility.yul\":12438:12464   */\n      swap1\n      pop\n        /* \"#utility.yul\":12510:12519   */\n      dup2\n        /* \"#utility.yul\":12504:12508   */\n      dup2\n        /* \"#utility.yul\":12500:12520   */\n      sub\n        /* \"#utility.yul\":12496:12497   */\n      0x00\n        /* \"#utility.yul\":12485:12494   */\n      dup4\n        /* \"#utility.yul\":12481:12498   */\n      add\n        /* \"#utility.yul\":12474:12521   */\n      mstore\n        /* \"#utility.yul\":12538:12669   */\n      tag_442\n        /* \"#utility.yul\":12664:12668   */\n      dup2\n        /* \"#utility.yul\":12538:12669   */\n      tag_286\n      jump\t// in\n    tag_442:\n        /* \"#utility.yul\":12530:12669   */\n      swap1\n      pop\n        /* \"#utility.yul\":12257:12676   */\n      swap2\n      swap1\n      pop\n      jump\t// out\n        /* \"#utility.yul\":12682:12846   */\n    tag_287:\n        /* \"#utility.yul\":12822:12838   */\n      0x496e76616c6964206f7261636c65000000000000000000000000000000000000\n        /* \"#utility.yul\":12818:12819   */\n      0x00\n        /* \"#utility.yul\":12810:12816   */\n      dup3\n        /* \"#utility.yul\":12806:12820   */\n      add\n        /* \"#utility.yul\":12799:12839   */\n      mstore\n        /* \"#utility.yul\":12682:12846   */\n      pop\n      jump\t// out\n        /* \"#utility.yul\":12852:13218   */\n    tag_288:\n        /* \"#utility.yul\":12994:12997   */\n      0x00\n        /* \"#utility.yul\":13015:13082   */\n      tag_445\n        /* \"#utility.yul\":13079:13081   */\n      0x0e\n        /* \"#utility.yul\":13074:13077   */\n      dup4\n        /* \"#utility.yul\":13015:13082   */\n      tag_275\n      jump\t// in\n    tag_445:\n        /* \"#utility.yul\":13008:13082   */\n      swap2\n      pop\n        /* \"#utility.yul\":13091:13184   */\n      tag_446\n        /* \"#utility.yul\":13180:13183   */\n      dup3\n        /* \"#utility.yul\":13091:13184   */\n      tag_287\n      jump\t// in\n    tag_446:\n        /* \"#utility.yul\":13209:13211   */\n      0x20\n        /* \"#utility.yul\":13204:13207   */\n      dup3\n        /* \"#utility.yul\":13200:13212   */\n      add\n        /* \"#utility.yul\":13193:13212   */\n      swap1\n      pop\n        /* \"#utility.yul\":12852:13218   */\n      swap2\n      swap1\n      pop\n      jump\t// out\n        /* \"#utility.yul\":13224:13643   */\n    tag_133:\n        /* \"#utility.yul\":13390:13394   */\n      0x00\n        /* \"#utility.yul\":13428:13430   */\n      0x20\n        /* \"#utility.yul\":13417:13426   */\n      dup3\n        /* \"#utility.yul\":13413:13431   */\n      add\n        /* \"#utility.yul\":13405:13431   */\n      swap1\n      pop\n        /* \"#utility.yul\":13477:13486   */\n      dup2\n        /* \"#utility.yul\":13471:13475   */\n      dup2\n        /* \"#utility.yul\":13467:13487   */\n      sub\n        /* \"#utility.yul\":13463:13464   */\n      0x00\n        /* \"#utility.yul\":13452:13461   */\n      dup4\n        /* \"#utility.yul\":13448:13465   */\n      add\n        /* \"#utility.yul\":13441:13488   */\n      mstore\n        /* \"#utility.yul\":13505:13636   */\n      tag_448\n        /* \"#utility.yul\":13631:13635   */\n      dup2\n        /* \"#utility.yul\":13505:13636   */\n      tag_288\n      jump\t// in\n    tag_448:\n        /* \"#utility.yul\":13497:13636   */\n      swap1\n      pop\n        /* \"#utility.yul\":13224:13643   */\n      swap2\n      swap1\n      pop\n      jump\t// out\n        /* \"#utility.yul\":13649:13809   */\n    tag_289:\n        /* \"#utility.yul\":13789:13801   */\n      0x4e6f74207369676e656400000000000000000000000000000000000000000000\n        /* \"#utility.yul\":13785:13786   */\n      0x00\n        /* \"#utility.yul\":13777:13783   */\n      dup3\n        /* \"#utility.yul\":13773:13787   */\n      add\n        /* \"#utility.yul\":13766:13802   */\n      mstore\n        /* \"#utility.yul\":13649:13809   */\n      pop\n      jump\t// out\n        /* \"#utility.yul\":13815:14181   */\n    tag_290:\n        /* \"#utility.yul\":13957:13960   */\n      0x00\n        /* \"#utility.yul\":13978:14045   */\n      tag_451\n        /* \"#utility.yul\":14042:14044   */\n      0x0a\n        /* \"#utility.yul\":14037:14040   */\n      dup4\n        /* \"#utility.yul\":13978:14045   */\n      tag_275\n      jump\t// in\n    tag_451:\n        /* \"#utility.yul\":13971:14045   */\n      swap2\n      pop\n        /* \"#utility.yul\":14054:14147   */\n      tag_452\n        /* \"#utility.yul\":14143:14146   */\n      dup3\n        /* \"#utility.yul\":14054:14147   */\n      tag_289\n      jump\t// in\n    tag_452:\n        /* \"#utility.yul\":14172:14174   */\n      0x20\n        /* \"#utility.yul\":14167:14170   */\n      dup3\n        /* \"#utility.yul\":14163:14175   */\n      add\n        /* \"#utility.yul\":14156:14175   */\n      swap1\n      pop\n        /* \"#utility.yul\":13815:14181   */\n      swap2\n      swap1\n      pop\n      jump\t// out\n        /* \"#utility.yul\":14187:14606   */\n    tag_144:\n        /* \"#utility.yul\":14353:14357   */\n      0x00\n        /* \"#utility.yul\":14391:14393   */\n      0x20\n        /* \"#utility.yul\":14380:14389   */\n      dup3\n        /* \"#utility.yul\":14376:14394   */\n      add\n        /* \"#utility.yul\":14368:14394   */\n      swap1\n      pop\n        /* \"#utility.yul\":14440:14449   */\n      dup2\n        /* \"#utility.yul\":14434:14438   */\n      dup2\n        /* \"#utility.yul\":14430:14450   */\n      sub\n        /* \"#utility.yul\":14426:14427   */\n      0x00\n        /* \"#utility.yul\":14415:14424   */\n      dup4\n        /* \"#utility.yul\":14411:14428   */\n      add\n        /* \"#utility.yul\":14404:14451   */\n      mstore\n        /* \"#utility.yul\":14468:14599   */\n      tag_454\n        /* \"#utility.yul\":14594:14598   */\n      dup2\n        /* \"#utility.yul\":14468:14599   */\n      tag_290\n      jump\t// in\n    tag_454:\n        /* \"#utility.yul\":14460:14599   */\n      swap1\n      pop\n        /* \"#utility.yul\":14187:14606   */\n      swap2\n      swap1\n      pop\n      jump\t// out\n        /* \"#utility.yul\":14612:14784   */\n    tag_291:\n        /* \"#utility.yul\":14752:14776   */\n      0x44656c697665727920666c6f7720726571756972656400000000000000000000\n        /* \"#utility.yul\":14748:14749   */\n      0x00\n        /* \"#utility.yul\":14740:14746   */\n      dup3\n        /* \"#utility.yul\":14736:14750   */\n      add\n        /* \"#utility.yul\":14729:14777   */\n      mstore\n        /* \"#utility.yul\":14612:14784   */\n      pop\n      jump\t// out\n        /* \"#utility.yul\":14790:15156   */\n    tag_292:\n        /* \"#utility.yul\":14932:14935   */\n      0x00\n        /* \"#utility.yul\":14953:15020   */\n      tag_457\n        /* \"#utility.yul\":15017:15019   */\n      0x16\n        /* \"#utility.yul\":15012:15015   */\n      dup4\n        /* \"#utility.yul\":14953:15020   */\n      tag_275\n      jump\t// in\n    tag_457:\n        /* \"#utility.yul\":14946:15020   */\n      swap2\n      pop\n        /* \"#utility.yul\":15029:15122   */\n      tag_458\n        /* \"#utility.yul\":15118:15121   */\n      dup3\n        /* \"#utility.yul\":15029:15122   */\n      tag_291\n      jump\t// in\n    tag_458:\n        /* \"#utility.yul\":15147:15149   */\n      0x20\n        /* \"#utility.yul\":15142:15145   */\n      dup3\n        /* \"#utility.yul\":15138:15150   */\n      add\n        /* \"#utility.yul\":15131:15150   */\n      swap1\n      pop\n        /* \"#utility.yul\":14790:15156   */\n      swap2\n      swap1\n      pop\n      jump\t// out\n        /* \"#utility.yul\":15162:15581   */\n    tag_147:\n        /* \"#utility.yul\":15328:15332   */\n      0x00\n        /* \"#utility.yul\":15366:15368   */\n      0x20\n        /* \"#utility.yul\":15355:15364   */\n      dup3\n        /* \"#utility.yul\":15351:15369   */\n      add\n        /* \"#utility.yul\":15343:15369   */\n      swap1\n      pop\n        /* \"#utility.yul\":15415:15424   */\n      dup2\n        /* \"#utility.yul\":15409:15413   */\n      dup2\n        /* \"#utility.yul\":15405:15425   */\n      sub\n        /* \"#utility.yul\":15401:15402   */\n      0x00\n        /* \"#utility.yul\":15390:15399   */\n      dup4\n        /* \"#utility.yul\":15386:15403   */\n      add\n        /* \"#utility.yul\":15379:15426   */\n      mstore\n        /* \"#utility.yul\":15443:15574   */\n      tag_460\n        /* \"#utility.yul\":15569:15573   */\n      dup2\n        /* \"#utility.yul\":15443:15574   */\n      tag_292\n      jump\t// in\n    tag_460:\n        /* \"#utility.yul\":15435:15574   */\n      swap1\n      pop\n        /* \"#utility.yul\":15162:15581   */\n      swap2\n      swap1\n      pop\n      jump\t// out\n        /* \"#utility.yul\":15587:15748   */\n    tag_293:\n        /* \"#utility.yul\":15727:15740   */\n      0x4e6f742043726561746564000000000000000000000000000000000000000000\n        /* \"#utility.yul\":15723:15724   */\n      0x00\n        /* \"#utility.yul\":15715:15721   */\n      dup3\n        /* \"#utility.yul\":15711:15725   */\n      add\n        /* \"#utility.yul\":15704:15741   */\n      mstore\n        /* \"#utility.yul\":15587:15748   */\n      pop\n      jump\t// out\n        /* \"#utility.yul\":15754:16120   */\n    tag_294:\n        /* \"#utility.yul\":15896:15899   */\n      0x00\n        /* \"#utility.yul\":15917:15984   */\n      tag_463\n        /* \"#utility.yul\":15981:15983   */\n      0x0b\n        /* \"#utility.yul\":15976:15979   */\n      dup4\n        /* \"#utility.yul\":15917:15984   */\n      tag_275\n      jump\t// in\n    tag_463:\n        /* \"#utility.yul\":15910:15984   */\n      swap2\n      pop\n        /* \"#utility.yul\":15993:16086   */\n      tag_464\n        /* \"#utility.yul\":16082:16085   */\n      dup3\n        /* \"#utility.yul\":15993:16086   */\n      tag_293\n      jump\t// in\n    tag_464:\n        /* \"#utility.yul\":16111:16113   */\n      0x20\n        /* \"#utility.yul\":16106:16109   */\n      dup3\n        /* \"#utility.yul\":16102:16114   */\n      add\n        /* \"#utility.yul\":16095:16114   */\n      swap1\n      pop\n        /* \"#utility.yul\":15754:16120   */\n      swap2\n      swap1\n      pop\n      jump\t// out\n        /* \"#utility.yul\":16126:16545   */\n    tag_162:\n        /* \"#utility.yul\":16292:16296   */\n      0x00\n        /* \"#utility.yul\":16330:16332   */\n      0x20\n        /* \"#utility.yul\":16319:16328   */\n      dup3\n        /* \"#utility.yul\":16315:16333   */\n      add\n        /* \"#utility.yul\":16307:16333   */\n      swap1\n      pop\n        /* \"#utility.yul\":16379:16388   */\n      dup2\n        /* \"#utility.yul\":16373:16377   */\n      dup2\n        /* \"#utility.yul\":16369:16389   */\n      sub\n        /* \"#utility.yul\":16365:16366   */\n      0x00\n        /* \"#utility.yul\":16354:16363   */\n      dup4\n        /* \"#utility.yul\":16350:16367   */\n      add\n        /* \"#utility.yul\":16343:16390   */\n      mstore\n        /* \"#utility.yul\":16407:16538   */\n      tag_466\n        /* \"#utility.yul\":16533:16537   */\n      dup2\n        /* \"#utility.yul\":16407:16538   */\n      tag_294\n      jump\t// in\n    tag_466:\n        /* \"#utility.yul\":16399:16538   */\n      swap1\n      pop\n        /* \"#utility.yul\":16126:16545   */\n      swap2\n      swap1\n      pop\n      jump\t// out\n        /* \"#utility.yul\":16551:16719   */\n    tag_295:\n        /* \"#utility.yul\":16691:16711   */\n      0x302061646472206e6f7420616c6c6f7765640000000000000000000000000000\n        /* \"#utility.yul\":16687:16688   */\n      0x00\n        /* \"#utility.yul\":16679:16685   */\n      dup3\n        /* \"#utility.yul\":16675:16689   */\n      add\n        /* \"#utility.yul\":16668:16712   */\n      mstore\n        /* \"#utility.yul\":16551:16719   */\n      pop\n      jump\t// out\n        /* \"#utility.yul\":16725:17091   */\n    tag_296:\n        /* \"#utility.yul\":16867:16870   */\n      0x00\n        /* \"#utility.yul\":16888:16955   */\n      tag_469\n        /* \"#utility.yul\":16952:16954   */\n      0x12\n        /* \"#utility.yul\":16947:16950   */\n      dup4\n        /* \"#utility.yul\":16888:16955   */\n      tag_275\n      jump\t// in\n    tag_469:\n        /* \"#utility.yul\":16881:16955   */\n      swap2\n      pop\n        /* \"#utility.yul\":16964:17057   */\n      tag_470\n        /* \"#utility.yul\":17053:17056   */\n      dup3\n        /* \"#utility.yul\":16964:17057   */\n      tag_295\n      jump\t// in\n    tag_470:\n        /* \"#utility.yul\":17082:17084   */\n      0x20\n        /* \"#utility.yul\":17077:17080   */\n      dup3\n        /* \"#utility.yul\":17073:17085   */\n      add\n        /* \"#utility.yul\":17066:17085   */\n      swap1\n      pop\n        /* \"#utility.yul\":16725:17091   */\n      swap2\n      swap1\n      pop\n      jump\t// out\n        /* \"#utility.yul\":17097:17516   */\n    tag_168:\n        /* \"#utility.yul\":17263:17267   */\n      0x00\n        /* \"#utility.yul\":17301:17303   */\n      0x20\n        /* \"#utility.yul\":17290:17299   */\n      dup3\n        /* \"#utility.yul\":17286:17304   */\n      add\n        /* \"#utility.yul\":17278:17304   */\n      swap1\n      pop\n        /* \"#utility.yul\":17350:17359   */\n      dup2\n        /* \"#utility.yul\":17344:17348   */\n      dup2\n        /* \"#utility.yul\":17340:17360   */\n      sub\n        /* \"#utility.yul\":17336:17337   */\n      0x00\n        /* \"#utility.yul\":17325:17334   */\n      dup4\n        /* \"#utility.yul\":17321:17338   */\n      add\n        /* \"#utility.yul\":17314:17361   */\n      mstore\n        /* \"#utility.yul\":17378:17509   */\n      tag_472\n        /* \"#utility.yul\":17504:17508   */\n      dup2\n        /* \"#utility.yul\":17378:17509   */\n      tag_296\n      jump\t// in\n    tag_472:\n        /* \"#utility.yul\":17370:17509   */\n      swap1\n      pop\n        /* \"#utility.yul\":17097:17516   */\n      swap2\n      swap1\n      pop\n      jump\t// out\n        /* \"#utility.yul\":17522:17684   */\n    tag_297:\n        /* \"#utility.yul\":17662:17676   */\n      0x455448206d69736d617463680000000000000000000000000000000000000000\n        /* \"#utility.yul\":17658:17659   */\n      0x00\n        /* \"#utility.yul\":17650:17656   */\n      dup3\n        /* \"#utility.yul\":17646:17660   */\n      add\n        /* \"#utility.yul\":17639:17677   */\n      mstore\n        /* \"#utility.yul\":17522:17684   */\n      pop\n      jump\t// out\n        /* \"#utility.yul\":17690:18056   */\n    tag_298:\n        /* \"#utility.yul\":17832:17835   */\n      0x00\n        /* \"#utility.yul\":17853:17920   */\n      tag_475\n        /* \"#utility.yul\":17917:17919   */\n      0x0c\n        /* \"#utility.yul\":17912:17915   */\n      dup4\n        /* \"#utility.yul\":17853:17920   */\n      tag_275\n      jump\t// in\n    tag_475:\n        /* \"#utility.yul\":17846:17920   */\n      swap2\n      pop\n        /* \"#utility.yul\":17929:18022   */\n      tag_476\n        /* \"#utility.yul\":18018:18021   */\n      dup3\n        /* \"#utility.yul\":17929:18022   */\n      tag_297\n      jump\t// in\n    tag_476:\n        /* \"#utility.yul\":18047:18049   */\n      0x20\n        /* \"#utility.yul\":18042:18045   */\n      dup3\n        /* \"#utility.yul\":18038:18050   */\n      add\n        /* \"#utility.yul\":18031:18050   */\n      swap1\n      pop\n        /* \"#utility.yul\":17690:18056   */\n      swap2\n      swap1\n      pop\n      jump\t// out\n        /* \"#utility.yul\":18062:18481   */\n    tag_171:\n        /* \"#utility.yul\":18228:18232   */\n      0x00\n        /* \"#utility.yul\":18266:18268   */\n      0x20\n        /* \"#utility.yul\":18255:18264   */\n      dup3\n        /* \"#utility.yul\":18251:18269   */\n      add\n        /* \"#utility.yul\":18243:18269   */\n      swap1\n      pop\n        /* \"#utility.yul\":18315:18324   */\n      dup2\n        /* \"#utility.yul\":18309:18313   */\n      dup2\n        /* \"#utility.yul\":18305:18325   */\n      sub\n        /* \"#utility.yul\":18301:18302   */\n      0x00\n        /* \"#utility.yul\":18290:18299   */\n      dup4\n        /* \"#utility.yul\":18286:18303   */\n      add\n        /* \"#utility.yul\":18279:18326   */\n      mstore\n        /* \"#utility.yul\":18343:18474   */\n      tag_478\n        /* \"#utility.yul\":18469:18473   */\n      dup2\n        /* \"#utility.yul\":18343:18474   */\n      tag_298\n      jump\t// in\n    tag_478:\n        /* \"#utility.yul\":18335:18474   */\n      swap1\n      pop\n        /* \"#utility.yul\":18062:18481   */\n      swap2\n      swap1\n      pop\n      jump\t// out\n        /* \"#utility.yul\":18487:18720   */\n    tag_173:\n        /* \"#utility.yul\":18526:18529   */\n      0x00\n        /* \"#utility.yul\":18549:18573   */\n      tag_480\n        /* \"#utility.yul\":18567:18572   */\n      dup3\n        /* \"#utility.yul\":18549:18573   */\n      tag_252\n      jump\t// in\n    tag_480:\n        /* \"#utility.yul\":18540:18573   */\n      swap2\n      pop\n        /* \"#utility.yul\":18595:18661   */\n      0xffffffffffffffffffffffffffffffffffffffffffffffffffffffffffffffff\n        /* \"#utility.yul\":18588:18593   */\n      dup3\n        /* \"#utility.yul\":18585:18662   */\n      sub\n        /* \"#utility.yul\":18582:18685   */\n      tag_481\n      jumpi\n        /* \"#utility.yul\":18665:18683   */\n      tag_482\n      tag_280\n      jump\t// in\n    tag_482:\n        /* \"#utility.yul\":18582:18685   */\n    tag_481:\n        /* \"#utility.yul\":18712:18713   */\n      0x01\n        /* \"#utility.yul\":18705:18710   */\n      dup3\n        /* \"#utility.yul\":18701:18714   */\n      add\n        /* \"#utility.yul\":18694:18714   */\n      swap1\n      pop\n        /* \"#utility.yul\":18487:18720   */\n      swap2\n      swap1\n      pop\n      jump\t// out\n        /* \"#utility.yul\":18726:18786   */\n    tag_299:\n        /* \"#utility.yul\":18754:18757   */\n      0x00\n        /* \"#utility.yul\":18775:18780   */\n      dup2\n        /* \"#utility.yul\":18768:18780   */\n      swap1\n      pop\n        /* \"#utility.yul\":18726:18786   */\n      swap2\n      swap1\n      pop\n      jump\t// out\n        /* \"#utility.yul\":18792:18934   */\n    tag_300:\n        /* \"#utility.yul\":18842:18851   */\n      0x00\n        /* \"#utility.yul\":18875:18928   */\n      tag_485\n        /* \"#utility.yul\":18893:18927   */\n      tag_486\n        /* \"#utility.yul\":18902:18926   */\n      tag_487\n        /* \"#utility.yul\":18920:18925   */\n      dup5\n        /* \"#utility.yul\":18902:18926   */\n      tag_260\n      jump\t// in\n    tag_487:\n        /* \"#utility.yul\":18893:18927   */\n      tag_299\n      jump\t// in\n    tag_486:\n        /* \"#utility.yul\":18875:18928   */\n      tag_260\n      jump\t// in\n    tag_485:\n        /* \"#utility.yul\":18862:18928   */\n      swap1\n      pop\n        /* \"#utility.yul\":18792:18934   */\n      swap2\n      swap1\n      pop\n      jump\t// out\n        /* \"#utility.yul\":18940:19066   */\n    tag_301:\n        /* \"#utility.yul\":18990:18999   */\n      0x00\n        /* \"#utility.yul\":19023:19060   */\n      tag_489\n        /* \"#utility.yul\":19054:19059   */\n      dup3\n        /* \"#utility.yul\":19023:19060   */\n      tag_300\n      jump\t// in\n    tag_489:\n        /* \"#utility.yul\":19010:19060   */\n      swap1\n      pop\n        /* \"#utility.yul\":18940:19066   */\n      swap2\n      swap1\n      pop\n      jump\t// out\n        /* \"#utility.yul\":19072:19206   */\n    tag_302:\n        /* \"#utility.yul\":19130:19139   */\n      0x00\n        /* \"#utility.yul\":19163:19200   */\n      tag_491\n        /* \"#utility.yul\":19194:19199   */\n      dup3\n        /* \"#utility.yul\":19163:19200   */\n      tag_301\n      jump\t// in\n    tag_491:\n        /* \"#utility.yul\":19150:19200   */\n      swap1\n      pop\n        /* \"#utility.yul\":19072:19206   */\n      swap2\n      swap1\n      pop\n      jump\t// out\n        /* \"#utility.yul\":19212:19359   */\n    tag_303:\n        /* \"#utility.yul\":19307:19352   */\n      tag_493\n        /* \"#utility.yul\":19346:19351   */\n      dup2\n        /* \"#utility.yul\":19307:19352   */\n      tag_302\n      jump\t// in\n    tag_493:\n        /* \"#utility.yul\":19302:19305   */\n      dup3\n        /* \"#utility.yul\":19295:19353   */\n      mstore\n        /* \"#utility.yul\":19212:19359   */\n      pop\n      pop\n      jump\t// out\n        /* \"#utility.yul\":19365:19713   */\n    tag_177:\n        /* \"#utility.yul\":19494:19498   */\n      0x00\n        /* \"#utility.yul\":19532:19534   */\n      0x40\n        /* \"#utility.yul\":19521:19530   */\n      dup3\n        /* \"#utility.yul\":19517:19535   */\n      add\n        /* \"#utility.yul\":19509:19535   */\n      swap1\n      pop\n        /* \"#utility.yul\":19545:19616   */\n      tag_495\n        /* \"#utility.yul\":19613:19614   */\n      0x00\n        /* \"#utility.yul\":19602:19611   */\n      dup4\n        /* \"#utility.yul\":19598:19615   */\n      add\n        /* \"#utility.yul\":19589:19595   */\n      dup6\n        /* \"#utility.yul\":19545:19616   */\n      tag_270\n      jump\t// in\n    tag_495:\n        /* \"#utility.yul\":19626:19706   */\n      tag_496\n        /* \"#utility.yul\":19702:19704   */\n      0x20\n        /* \"#utility.yul\":19691:19700   */\n      dup4\n        /* \"#utility.yul\":19687:19705   */\n      add\n        /* \"#utility.yul\":19678:19684   */\n      dup5\n        /* \"#utility.yul\":19626:19706   */\n      tag_303\n      jump\t// in\n    tag_496:\n        /* \"#utility.yul\":19365:19713   */\n      swap4\n      swap3\n      pop\n      pop\n      pop\n      jump\t// out\n        /* \"#utility.yul\":19719:19879   */\n    tag_304:\n        /* \"#utility.yul\":19859:19871   */\n      0x4e6f74206f7261636c6500000000000000000000000000000000000000000000\n        /* \"#utility.yul\":19855:19856   */\n      0x00\n        /* \"#utility.yul\":19847:19853   */\n      dup3\n        /* \"#utility.yul\":19843:19857   */\n      add\n        /* \"#utility.yul\":19836:19872   */\n      mstore\n        /* \"#utility.yul\":19719:19879   */\n      pop\n      jump\t// out\n        /* \"#utility.yul\":19885:20251   */\n    tag_305:\n        /* \"#utility.yul\":20027:20030   */\n      0x00\n        /* \"#utility.yul\":20048:20115   */\n      tag_499\n        /* \"#utility.yul\":20112:20114   */\n      0x0a\n        /* \"#utility.yul\":20107:20110   */\n      dup4\n        /* \"#utility.yul\":20048:20115   */\n      tag_275\n      jump\t// in\n    tag_499:\n        /* \"#utility.yul\":20041:20115   */\n      swap2\n      pop\n        /* \"#utility.yul\":20124:20217   */\n      tag_500\n        /* \"#utility.yul\":20213:20216   */\n      dup3\n        /* \"#utility.yul\":20124:20217   */\n      tag_304\n      jump\t// in\n    tag_500:\n        /* \"#utility.yul\":20242:20244   */\n      0x20\n        /* \"#utility.yul\":20237:20240   */\n      dup3\n        /* \"#utility.yul\":20233:20245   */\n      add\n        /* \"#utility.yul\":20226:20245   */\n      swap1\n      pop\n        /* \"#utility.yul\":19885:20251   */\n      swap2\n      swap1\n      pop\n      jump\t// out\n        /* \"#utility.yul\":20257:20676   */\n    tag_181:\n        /* \"#utility.yul\":20423:20427   */\n      0x00\n        /* \"#utility.yul\":20461:20463   */\n      0x20\n        /* \"#utility.yul\":20450:20459   */\n      dup3\n        /* \"#utility.yul\":20446:20464   */\n      add\n        /* \"#utility.yul\":20438:20464   */\n      swap1\n      pop\n        /* \"#utility.yul\":20510:20519   */\n      dup2\n        /* \"#utility.yul\":20504:20508   */\n      dup2\n        /* \"#utility.yul\":20500:20520   */\n      sub\n        /* \"#utility.yul\":20496:20497   */\n      0x00\n        /* \"#utility.yul\":20485:20494   */\n      dup4\n        /* \"#utility.yul\":20481:20498   */\n      add\n        /* \"#utility.yul\":20474:20521   */\n      mstore\n        /* \"#utility.yul\":20538:20669   */\n      tag_502\n        /* \"#utility.yul\":20664:20668   */\n      dup2\n        /* \"#utility.yul\":20538:20669   */\n      tag_305\n      jump\t// in\n    tag_502:\n        /* \"#utility.yul\":20530:20669   */\n      swap1\n      pop\n        /* \"#utility.yul\":20257:20676   */\n      swap2\n      swap1\n      pop\n      jump\t// out\n        /* \"#utility.yul\":20682:20843   */\n    tag_306:\n        /* \"#utility.yul\":20822:20835   */\n      0x4e6f2064656c6976657279000000000000000000000000000000000000000000\n        /* \"#utility.yul\":20818:20819   */\n      0x00\n        /* \"#utility.yul\":20810:20816   */\n      dup3\n        /* \"#utility.yul\":20806:20820   */\n      add\n        /* \"#utility.yul\":20799:20836   */\n      mstore\n        /* \"#utility.yul\":20682:20843   */\n      pop\n      jump\t// out\n        /* \"#utility.yul\":20849:21215   */\n    tag_307:\n        /* \"#utility.yul\":20991:20994   */\n      0x00\n        /* \"#utility.yul\":21012:21079   */\n      tag_505\n        /* \"#utility.yul\":21076:21078   */\n      0x0b\n        /* \"#utility.yul\":21071:21074   */\n      dup4\n        /* \"#utility.yul\":21012:21079   */\n      tag_275\n      jump\t// in\n    tag_505:\n        /* \"#utility.yul\":21005:21079   */\n      swap2\n      pop\n        /* \"#utility.yul\":21088:21181   */\n      tag_506\n        /* \"#utility.yul\":21177:21180   */\n      dup3\n        /* \"#utility.yul\":21088:21181   */\n      tag_306\n      jump\t// in\n    tag_506:\n        /* \"#utility.yul\":21206:21208   */\n      0x20\n        /* \"#utility.yul\":21201:21204   */\n      dup3\n        /* \"#utility.yul\":21197:21209   */\n      add\n        /* \"#utility.yul\":21190:21209   */\n      swap1\n      pop\n        /* \"#utility.yul\":20849:21215   */\n      swap2\n      swap1\n      pop\n      jump\t// out\n        /* \"#utility.yul\":21221:21640   */\n    tag_191:\n        /* \"#utility.yul\":21387:21391   */\n      0x00\n        /* \"#utility.yul\":21425:21427   */\n      0x20\n        /* \"#utility.yul\":21414:21423   */\n      dup3\n        /* \"#utility.yul\":21410:21428   */\n      add\n        /* \"#utility.yul\":21402:21428   */\n      swap1\n      pop\n        /* \"#utility.yul\":21474:21483   */\n      dup2\n        /* \"#utility.yul\":21468:21472   */\n      dup2\n        /* \"#utility.yul\":21464:21484   */\n      sub\n        /* \"#utility.yul\":21460:21461   */\n      0x00\n        /* \"#utility.yul\":21449:21458   */\n      dup4\n        /* \"#utility.yul\":21445:21462   */\n      add\n        /* \"#utility.yul\":21438:21485   */\n      mstore\n        /* \"#utility.yul\":21502:21633   */\n      tag_508\n        /* \"#utility.yul\":21628:21632   */\n      dup2\n        /* \"#utility.yul\":21502:21633   */\n      tag_307\n      jump\t// in\n    tag_508:\n        /* \"#utility.yul\":21494:21633   */\n      swap1\n      pop\n        /* \"#utility.yul\":21221:21640   */\n      swap2\n      swap1\n      pop\n      jump\t// out\n        /* \"#utility.yul\":21646:21809   */\n    tag_308:\n        /* \"#utility.yul\":21786:21801   */\n      0x48617368206d69736d6174636800000000000000000000000000000000000000\n        /* \"#utility.yul\":21782:21783   */\n      0x00\n        /* \"#utility.yul\":21774:21780   */\n      dup3\n        /* \"#utility.yul\":21770:21784   */\n      add\n        /* \"#utility.yul\":21763:21802   */\n      mstore\n        /* \"#utility.yul\":21646:21809   */\n      pop\n      jump\t// out\n        /* \"#utility.yul\":21815:22181   */\n    tag_309:\n        /* \"#utility.yul\":21957:21960   */\n      0x00\n        /* \"#utility.yul\":21978:22045   */\n      tag_511\n        /* \"#utility.yul\":22042:22044   */\n      0x0d\n        /* \"#utility.yul\":22037:22040   */\n      dup4\n        /* \"#utility.yul\":21978:22045   */\n      tag_275\n      jump\t// in\n    tag_511:\n        /* \"#utility.yul\":21971:22045   */\n      swap2\n      pop\n        /* \"#utility.yul\":22054:22147   */\n      tag_512\n        /* \"#utility.yul\":22143:22146   */\n      dup3\n        /* \"#utility.yul\":22054:22147   */\n      tag_308\n      jump\t// in\n    tag_512:\n        /* \"#utility.yul\":22172:22174   */\n      0x20\n        /* \"#utility.yul\":22167:22170   */\n      dup3\n        /* \"#utility.yul\":22163:22175   */\n      add\n        /* \"#utility.yul\":22156:22175   */\n      swap1\n      pop\n        /* \"#utility.yul\":21815:22181   */\n      swap2\n      swap1\n      pop\n      jump\t// out\n        /* \"#utility.yul\":22187:22606   */\n    tag_194:\n        /* \"#utility.yul\":22353:22357   */\n      0x00\n        /* \"#utility.yul\":22391:22393   */\n      0x20\n        /* \"#utility.yul\":22380:22389   */\n      dup3\n        /* \"#utility.yul\":22376:22394   */\n      add\n        /* \"#utility.yul\":22368:22394   */\n      swap1\n      pop\n        /* \"#utility.yul\":22440:22449   */\n      dup2\n        /* \"#utility.yul\":22434:22438   */\n      dup2\n        /* \"#utility.yul\":22430:22450   */\n      sub\n        /* \"#utility.yul\":22426:22427   */\n      0x00\n        /* \"#utility.yul\":22415:22424   */\n      dup4\n        /* \"#utility.yul\":22411:22428   */\n      add\n        /* \"#utility.yul\":22404:22451   */\n      mstore\n        /* \"#utility.yul\":22468:22599   */\n      tag_514\n        /* \"#utility.yul\":22594:22598   */\n      dup2\n        /* \"#utility.yul\":22468:22599   */\n      tag_309\n      jump\t// in\n    tag_514:\n        /* \"#utility.yul\":22460:22599   */\n      swap1\n      pop\n        /* \"#utility.yul\":22187:22606   */\n      swap2\n      swap1\n      pop\n      jump\t// out\n        /* \"#utility.yul\":22612:22778   */\n    tag_310:\n        /* \"#utility.yul\":22752:22770   */\n      0x4e6f7420776974686472617761626c6500000000000000000000000000000000\n        /* \"#utility.yul\":22748:22749   */\n      0x00\n        /* \"#utility.yul\":22740:22746   */\n      dup3\n        /* \"#utility.yul\":22736:22750   */\n      add\n        /* \"#utility.yul\":22729:22771   */\n      mstore\n        /* \"#utility.yul\":22612:22778   */\n      pop\n      jump\t// out\n        /* \"#utility.yul\":22784:23150   */\n    tag_311:\n        /* \"#utility.yul\":22926:22929   */\n      0x00\n        /* \"#utility.yul\":22947:23014   */\n      tag_517\n        /* \"#utility.yul\":23011:23013   */\n      0x10\n        /* \"#utility.yul\":23006:23009   */\n      dup4\n        /* \"#utility.yul\":22947:23014   */\n      tag_275\n      jump\t// in\n    tag_517:\n        /* \"#utility.yul\":22940:23014   */\n      swap2\n      pop\n        /* \"#utility.yul\":23023:23116   */\n      tag_518\n        /* \"#utility.yul\":23112:23115   */\n      dup3\n        /* \"#utility.yul\":23023:23116   */\n      tag_310\n      jump\t// in\n    tag_518:\n        /* \"#utility.yul\":23141:23143   */\n      0x20\n        /* \"#utility.yul\":23136:23139   */\n      dup3\n        /* \"#utility.yul\":23132:23144   */\n      add\n        /* \"#utility.yul\":23125:23144   */\n      swap1\n      pop\n        /* \"#utility.yul\":22784:23150   */\n      swap2\n      swap1\n      pop\n      jump\t// out\n        /* \"#utility.yul\":23156:23575   */\n    tag_215:\n        /* \"#utility.yul\":23322:23326   */\n      0x00\n        /* \"#utility.yul\":23360:23362   */\n      0x20\n        /* \"#utility.yul\":23349:23358   */\n      dup3\n        /* \"#utility.yul\":23345:23363   */\n      add\n        /* \"#utility.yul\":23337:23363   */\n      swap1\n      pop\n        /* \"#utility.yul\":23409:23418   */\n      dup2\n        /* \"#utility.yul\":23403:23407   */\n      dup2\n        /* \"#utility.yul\":23399:23419   */\n      sub\n        /* \"#utility.yul\":23395:23396   */\n      0x00\n        /* \"#utility.yul\":23384:23393   */\n      dup4\n        /* \"#utility.yul\":23380:23397   */\n      add\n        /* \"#utility.yul\":23373:23420   */\n      mstore\n        /* \"#utility.yul\":23437:23568   */\n      tag_520\n        /* \"#utility.yul\":23563:23567   */\n      dup2\n        /* \"#utility.yul\":23437:23568   */\n      tag_311\n      jump\t// in\n    tag_520:\n        /* \"#utility.yul\":23429:23568   */\n      swap1\n      pop\n        /* \"#utility.yul\":23156:23575   */\n      swap2\n      swap1\n      pop\n      jump\t// out\n        /* \"#utility.yul\":23581:23741   */\n    tag_312:\n        /* \"#utility.yul\":23721:23733   */\n      0x4e6f2062616c616e636500000000000000000000000000000000000000000000\n        /* \"#utility.yul\":23717:23718   */\n      0x00\n        /* \"#utility.yul\":23709:23715   */\n      dup3\n        /* \"#utility.yul\":23705:23719   */\n      add\n        /* \"#utility.yul\":23698:23734   */\n      mstore\n        /* \"#utility.yul\":23581:23741   */\n      pop\n      jump\t// out\n        /* \"#utility.yul\":23747:24113   */\n    tag_313:\n        /* \"#utility.yul\":23889:23892   */\n      0x00\n        /* \"#utility.yul\":23910:23977   */\n      tag_523\n        /* \"#utility.yul\":23974:23976   */\n      0x0a\n        /* \"#utility.yul\":23969:23972   */\n      dup4\n        /* \"#utility.yul\":23910:23977   */\n      tag_275\n      jump\t// in\n    tag_523:\n        /* \"#utility.yul\":23903:23977   */\n      swap2\n      pop\n        /* \"#utility.yul\":23986:24079   */\n      tag_524\n        /* \"#utility.yul\":24075:24078   */\n      dup3\n        /* \"#utility.yul\":23986:24079   */\n      tag_312\n      jump\t// in\n    tag_524:\n        /* \"#utility.yul\":24104:24106   */\n      0x20\n        /* \"#utility.yul\":24099:24102   */\n      dup3\n        /* \"#utility.yul\":24095:24107   */\n      add\n        /* \"#utility.yul\":24088:24107   */\n      swap1\n      pop\n        /* \"#utility.yul\":23747:24113   */\n      swap2\n      swap1\n      pop\n      jump\t// out\n        /* \"#utility.yul\":24119:24538   */\n    tag_218:\n        /* \"#utility.yul\":24285:24289   */\n      0x00\n        /* \"#utility.yul\":24323:24325   */\n      0x20\n        /* \"#utility.yul\":24312:24321   */\n      dup3\n        /* \"#utility.yul\":24308:24326   */\n      add\n        /* \"#utility.yul\":24300:24326   */\n      swap1\n      pop\n        /* \"#utility.yul\":24372:24381   */\n      dup2\n        /* \"#utility.yul\":24366:24370   */\n      dup2\n        /* \"#utility.yul\":24362:24382   */\n      sub\n        /* \"#utility.yul\":24358:24359   */\n      0x00\n        /* \"#utility.yul\":24347:24356   */\n      dup4\n        /* \"#utility.yul\":24343:24360   */\n      add\n        /* \"#utility.yul\":24336:24383   */\n      mstore\n        /* \"#utility.yul\":24400:24531   */\n      tag_526\n        /* \"#utility.yul\":24526:24530   */\n      dup2\n        /* \"#utility.yul\":24400:24531   */\n      tag_313\n      jump\t// in\n    tag_526:\n        /* \"#utility.yul\":24392:24531   */\n      swap1\n      pop\n        /* \"#utility.yul\":24119:24538   */\n      swap2\n      swap1\n      pop\n      jump\t// out\n        /* \"#utility.yul\":24544:24738   */\n    tag_220:\n        /* \"#utility.yul\":24584:24588   */\n      0x00\n        /* \"#utility.yul\":24604:24624   */\n      tag_528\n        /* \"#utility.yul\":24622:24623   */\n      dup3\n        /* \"#utility.yul\":24604:24624   */\n      tag_252\n      jump\t// in\n    tag_528:\n        /* \"#utility.yul\":24599:24624   */\n      swap2\n      pop\n        /* \"#utility.yul\":24638:24658   */\n      tag_529\n        /* \"#utility.yul\":24656:24657   */\n      dup4\n        /* \"#utility.yul\":24638:24658   */\n      tag_252\n      jump\t// in\n    tag_529:\n        /* \"#utility.yul\":24633:24658   */\n      swap3\n      pop\n        /* \"#utility.yul\":24682:24683   */\n      dup3\n        /* \"#utility.yul\":24679:24680   */\n      dup3\n        /* \"#utility.yul\":24675:24684   */\n      sub\n        /* \"#utility.yul\":24667:24684   */\n      swap1\n      pop\n        /* \"#utility.yul\":24706:24707   */\n      dup2\n        /* \"#utility.yul\":24700:24704   */\n      dup2\n        /* \"#utility.yul\":24697:24708   */\n      gt\n        /* \"#utility.yul\":24694:24731   */\n      iszero\n      tag_530\n      jumpi\n        /* \"#utility.yul\":24711:24729   */\n      tag_531\n      tag_280\n      jump\t// in\n    tag_531:\n        /* \"#utility.yul\":24694:24731   */\n    tag_530:\n        /* \"#utility.yul\":24544:24738   */\n      swap3\n      swap2\n      pop\n      pop\n      jump\t// out\n        /* \"#utility.yul\":24744:24904   */\n    tag_314:\n        /* \"#utility.yul\":24884:24896   */\n      0x4e6f74205369676e656400000000000000000000000000000000000000000000\n        /* \"#utility.yul\":24880:24881   */\n      0x00\n        /* \"#utility.yul\":24872:24878   */\n      dup3\n        /* \"#utility.yul\":24868:24882   */\n      add\n        /* \"#utility.yul\":24861:24897   */\n      mstore\n        /* \"#utility.yul\":24744:24904   */\n      pop\n      jump\t// out\n        /* \"#utility.yul\":24910:25276   */\n    tag_315:\n        /* \"#utility.yul\":25052:25055   */\n      0x00\n        /* \"#utility.yul\":25073:25140   */\n      tag_534\n        /* \"#utility.yul\":25137:25139   */\n      0x0a\n        /* \"#utility.yul\":25132:25135   */\n      dup4\n        /* \"#utility.yul\":25073:25140   */\n      tag_275\n      jump\t// in\n    tag_534:\n        /* \"#utility.yul\":25066:25140   */\n      swap2\n      pop\n        /* \"#utility.yul\":25149:25242   */\n      tag_535\n        /* \"#utility.yul\":25238:25241   */\n      dup3\n        /* \"#utility.yul\":25149:25242   */\n      tag_314\n      jump\t// in\n    tag_535:\n        /* \"#utility.yul\":25267:25269   */\n      0x20\n        /* \"#utility.yul\":25262:25265   */\n      dup3\n        /* \"#utility.yul\":25258:25270   */\n      add\n        /* \"#utility.yul\":25251:25270   */\n      swap1\n      pop\n        /* \"#utility.yul\":24910:25276   */\n      swap2\n      swap1\n      pop\n      jump\t// out\n        /* \"#utility.yul\":25282:25701   */\n    tag_238:\n        /* \"#utility.yul\":25448:25452   */\n      0x00\n        /* \"#utility.yul\":25486:25488   */\n      0x20\n        /* \"#utility.yul\":25475:25484   */\n      dup3\n        /* \"#utility.yul\":25471:25489   */\n      add\n        /* \"#utility.yul\":25463:25489   */\n      swap1\n      pop\n        /* \"#utility.yul\":25535:25544   */\n      dup2\n        /* \"#utility.yul\":25529:25533   */\n      dup2\n        /* \"#utility.yul\":25525:25545   */\n      sub\n        /* \"#utility.yul\":25521:25522   */\n      0x00\n        /* \"#utility.yul\":25510:25519   */\n      dup4\n        /* \"#utility.yul\":25506:25523   */\n      add\n        /* \"#utility.yul\":25499:25546   */\n      mstore\n        /* \"#utility.yul\":25563:25694   */\n      tag_537\n        /* \"#utility.yul\":25689:25693   */\n      dup2\n        /* \"#utility.yul\":25563:25694   */\n      tag_315\n      jump\t// in\n    tag_537:\n        /* \"#utility.yul\":25555:25694   */\n      swap1\n      pop\n        /* \"#utility.yul\":25282:25701   */\n      swap2\n      swap1\n      pop\n      jump\t// out\n        /* \"#utility.yul\":25707:25868   */\n    tag_316:\n        /* \"#utility.yul\":25847:25860   */\n      0x416c726561647920736574000000000000000000000000000000000000000000\n        /* \"#utility.yul\":25843:25844   */\n      0x00\n        /* \"#utility.yul\":25835:25841   */\n      dup3\n        /* \"#utility.yul\":25831:25845   */\n      add\n        /* \"#utility.yul\":25824:25861   */\n      mstore\n        /* \"#utility.yul\":25707:25868   */\n      pop\n      jump\t// out\n        /* \"#utility.yul\":25874:26240   */\n    tag_317:\n        /* \"#utility.yul\":26016:26019   */\n      0x00\n        /* \"#utility.yul\":26037:26104   */\n      tag_540\n        /* \"#utility.yul\":26101:26103   */\n      0x0b\n        /* \"#utility.yul\":26096:26099   */\n      dup4\n        /* \"#utility.yul\":26037:26104   */\n      tag_275\n      jump\t// in\n    tag_540:\n        /* \"#utility.yul\":26030:26104   */\n      swap2\n      pop\n        /* \"#utility.yul\":26113:26206   */\n      tag_541\n        /* \"#utility.yul\":26202:26205   */\n      dup3\n        /* \"#utility.yul\":26113:26206   */\n      tag_316\n      jump\t// in\n    tag_541:\n        /* \"#utility.yul\":26231:26233   */\n      0x20\n        /* \"#utility.yul\":26226:26229   */\n      dup3\n        /* \"#utility.yul\":26222:26234   */\n      add\n        /* \"#utility.yul\":26215:26234   */\n      swap1\n      pop\n        /* \"#utility.yul\":25874:26240   */\n      swap2\n      swap1\n      pop\n      jump\t// out\n        /* \"#utility.yul\":26246:26665   */\n    tag_241:\n        /* \"#utility.yul\":26412:26416   */\n      0x00\n        /* \"#utility.yul\":26450:26452   */\n      0x20\n        /* \"#utility.yul\":26439:26448   */\n      dup3\n        /* \"#utility.yul\":26435:26453   */\n      add\n        /* \"#utility.yul\":26427:26453   */\n      swap1\n      pop\n        /* \"#utility.yul\":26499:26508   */\n      dup2\n        /* \"#utility.yul\":26493:26497   */\n      dup2\n        /* \"#utility.yul\":26489:26509   */\n      sub\n        /* \"#utility.yul\":26485:26486   */\n      0x00\n        /* \"#utility.yul\":26474:26483   */\n      dup4\n        /* \"#utility.yul\":26470:26487   */\n      add\n        /* \"#utility.yul\":26463:26510   */\n      mstore\n        /* \"#utility.yul\":26527:26658   */\n      tag_543\n        /* \"#utility.yul\":26653:26657   */\n      dup2\n        /* \"#utility.yul\":26527:26658   */\n      tag_317\n      jump\t// in\n    tag_543:\n        /* \"#utility.yul\":26519:26658   */\n      swap1\n      pop\n        /* \"#utility.yul\":26246:26665   */\n      swap2\n      swap1\n      pop\n      jump\t// out\n        /* \"#utility.yul\":26671:26893   */\n    tag_245:\n        /* \"#utility.yul\":26764:26768   */\n      0x00\n        /* \"#utility.yul\":26802:26804   */\n      0x20\n        /* \"#utility.yul\":26791:26800   */\n      dup3\n        /* \"#utility.yul\":26787:26805   */\n      add\n        /* \"#utility.yul\":26779:26805   */\n      swap1\n      pop\n        /* \"#utility.yul\":26815:26886   */\n      tag_545\n        /* \"#utility.yul\":26883:26884   */\n      0x00\n        /* \"#utility.yul\":26872:26881   */\n      dup4\n        /* \"#utility.yul\":26868:26885   */\n      add\n        /* \"#utility.yul\":26859:26865   */\n      dup5\n        /* \"#utility.yul\":26815:26886   */\n      tag_264\n      jump\t// in\n    tag_545:\n        /* \"#utility.yul\":26671:26893   */\n      swap3\n      swap2\n      pop\n      pop\n      jump\t// out\n\n    auxdata: 0xa264697066735822122085c84497f995b461897e93cb4a6d84e573d4450cd05033fce2aee8df93bdeb9664736f6c634300081e0033\n}\n",
				"bytecode": {
					"linkReferences": {},
					"object": "6080604052348015600e575f5ffd5b5060015f819055506124ef806100235f395ff3fe6080604052600436106100e7575f3560e01c806394aeb61311610089578063df5c298011610058578063df5c2980146102ca578063edb3b27a146102f2578063f3f437031461031c578063f436199d14610358576100e7565b806394aeb613146102365780639537e8d11461025e5780639cc437ba14610286578063a78d9bab146102a2576100e7565b806322a45cd0116100c557806322a45cd014610179578063474da79a146101a15780637adbf973146101e45780637dc0d1d01461020c576100e7565b8063032ca42d146100eb578063067bd3b41461011357806317b184581461013d575b5f5ffd5b3480156100f6575f5ffd5b50610111600480360381019061010c919061188f565b610380565b005b34801561011e575f5ffd5b506101276105fd565b60405161013491906118c9565b60405180910390f35b348015610148575f5ffd5b50610163600480360381019061015e919061188f565b610603565b6040516101709190611955565b60405180910390f35b348015610184575f5ffd5b5061019f600480360381019061019a919061188f565b61062d565b005b3480156101ac575f5ffd5b506101c760048036038101906101c2919061188f565b61086b565b6040516101db9897969594939291906119df565b60405180910390f35b3480156101ef575f5ffd5b5061020a60048036038101906102059190611a96565b610906565b005b348015610217575f5ffd5b50610220610a64565b60405161022d9190611ad0565b60405180910390f35b348015610241575f5ffd5b5061025c6004803603810190610257919061188f565b610a89565b005b348015610269575f5ffd5b50610284600480360381019061027f919061188f565b610d2a565b005b6102a0600480360381019061029b9190611b3d565b610eb6565b005b3480156102ad575f5ffd5b506102c860048036038101906102c39190611b8d565b6110a1565b005b3480156102d5575f5ffd5b506102f060048036038101906102eb919061188f565b6112b1565b005b3480156102fd575f5ffd5b506103066115d0565b6040516103139190611bcb565b60405180910390f35b348015610327575f5ffd5b50610342600480360381019061033d9190611a96565b6115e3565b60405161034f91906118c9565b60405180910390f35b348015610363575f5ffd5b5061037e60048036038101906103799190611b8d565b6115f8565b005b8060025f8281526020019081526020015f206002015f9054906101000a900473ffffffffffffffffffffffffffffffffffffffff1673ffffffffffffffffffffffffffffffffffffffff163373ffffffffffffffffffffffffffffffffffffffff1614610422576040517f08c379a000000000000000000000000000000000000000000000000000000000815260040161041990611c3e565b60405180910390fd5b5f60025f8481526020019081526020015f2090506003600781111561044a576104496118e2565b5b8160030160149054906101000a900460ff16600781111561046e5761046d6118e2565b5b146104ae576040517f08c379a00000000000000000000000000000000000000000000000000000000081526004016104a590611ca6565b60405180910390fd5b60048160030160146101000a81548160ff021916908360078111156104d6576104d56118e2565b5b0217905550806001015460045f836003015f9054906101000a900473ffffffffffffffffffffffffffffffffffffffff1673ffffffffffffffffffffffffffffffffffffffff1673ffffffffffffffffffffffffffffffffffffffff1681526020019081526020015f205f82825461054e9190611cf1565b92505081905550827f5c1e662f72ee6c85181b65fac5beb0390932b8c472f05b257151d041ac9ddffa60405160405180910390a2806003015f9054906101000a900473ffffffffffffffffffffffffffffffffffffffff1673ffffffffffffffffffffffffffffffffffffffff16837f21d71db5be59bb9fa133895586b7404307dd33fb93b16db09dc6f1d9d7d231b083600101546040516105f091906118c9565b60405180910390a3505050565b60035481565b5f60025f8381526020019081526020015f2060030160149054906101000a900460ff169050919050565b8060025f8281526020019081526020015f206003015f9054906101000a900473ffffffffffffffffffffffffffffffffffffffff1673ffffffffffffffffffffffffffffffffffffffff163373ffffffffffffffffffffffffffffffffffffffff16146106cf576040517f08c379a00000000000000000000000000000000000000000000000000000000081526004016106c690611d6e565b60405180910390fd5b8160025f8281526020019081526020015f206002015f9054906101000a900473ffffffffffffffffffffffffffffffffffffffff1673ffffffffffffffffffffffffffffffffffffffff163373ffffffffffffffffffffffffffffffffffffffff1614610771576040517f08c379a000000000000000000000000000000000000000000000000000000000815260040161076890611c3e565b60405180910390fd5b5f60025f8581526020019081526020015f20905060066007811115610799576107986118e2565b5b8160030160149054906101000a900460ff1660078111156107bd576107bc6118e2565b5b146107fd576040517f08c379a00000000000000000000000000000000000000000000000000000000081526004016107f490611dd6565b60405180910390fd5b806004015f9055806005015f905560078160030160146101000a81548160ff02191690836007811115610833576108326118e2565b5b0217905550837f741b099f015e1976cfa72a7448a8fb1d54eab1d616241b562cfbe603a2b61b4260405160405180910390a250505050565b6002602052805f5260405f205f91509050805f015490806001015490806002015f9054906101000a900473ffffffffffffffffffffffffffffffffffffffff1690806003015f9054906101000a900473ffffffffffffffffffffffffffffffffffffffff16908060030160149054906101000a900460ff1690806004015490806005015490806006015f9054906101000a900460ff16905088565b600160149054906101000a900460ff1615610956576040517f08c379a000000000000000000000000000000000000000000000000000000000815260040161094d90611e3e565b60405180910390fd5b5f73ffffffffffffffffffffffffffffffffffffffff168173ffffffffffffffffffffffffffffffffffffffff16036109c4576040517f08c379a00000000000000000000000000000000000000000000000000000000081526004016109bb90611ea6565b60405180910390fd5b8060015f6101000a81548173ffffffffffffffffffffffffffffffffffffffff021916908373ffffffffffffffffffffffffffffffffffffffff16021790555060018060146101000a81548160ff0219169083151502179055508073ffffffffffffffffffffffffffffffffffffffff167f3f32684a32a11dabdbb8c0177de80aa3ae36a004d75210335b49e544e48cd0aa60405160405180910390a250565b60015f9054906101000a900473ffffffffffffffffffffffffffffffffffffffff1681565b8060025f8281526020019081526020015f206002015f9054906101000a900473ffffffffffffffffffffffffffffffffffffffff1673ffffffffffffffffffffffffffffffffffffffff163373ffffffffffffffffffffffffffffffffffffffff1614610b2b576040517f08c379a0000000000000000000000000000000000000000000000000000000008152600401610b2290611c3e565b60405180910390fd5b5f60025f8481526020019081526020015f20905060016007811115610b5357610b526118e2565b5b8160030160149054906101000a900460ff166007811115610b7757610b766118e2565b5b14610bb7576040517f08c379a0000000000000000000000000000000000000000000000000000000008152600401610bae90611f0e565b60405180910390fd5b806006015f9054906101000a900460ff1615610c08576040517f08c379a0000000000000000000000000000000000000000000000000000000008152600401610bff90611f76565b60405180910390fd5b60058160030160146101000a81548160ff02191690836007811115610c3057610c2f6118e2565b5b0217905550806001015460045f836003015f9054906101000a900473ffffffffffffffffffffffffffffffffffffffff1673ffffffffffffffffffffffffffffffffffffffff1673ffffffffffffffffffffffffffffffffffffffff1681526020019081526020015f205f828254610ca89190611cf1565b92505081905550806003015f9054906101000a900473ffffffffffffffffffffffffffffffffffffffff1673ffffffffffffffffffffffffffffffffffffffff16837f21d71db5be59bb9fa133895586b7404307dd33fb93b16db09dc6f1d9d7d231b08360010154604051610d1d91906118c9565b60405180910390a3505050565b8060025f8281526020019081526020015f206003015f9054906101000a900473ffffffffffffffffffffffffffffffffffffffff1673ffffffffffffffffffffffffffffffffffffffff163373ffffffffffffffffffffffffffffffffffffffff1614610dcc576040517f08c379a0000000000000000000000000000000000000000000000000000000008152600401610dc390611d6e565b60405180910390fd5b5f60025f8481526020019081526020015f2090505f6007811115610df357610df26118e2565b5b8160030160149054906101000a900460ff166007811115610e1757610e166118e2565b5b14610e57576040517f08c379a0000000000000000000000000000000000000000000000000000000008152600401610e4e90611fde565b60405180910390fd5b60018160030160146101000a81548160ff02191690836007811115610e7f57610e7e6118e2565b5b0217905550827faf3c49f5413fd292e2325b0fe214de144a222b00cb6ec21214fdc04b5d6c591360405160405180910390a2505050565b5f73ffffffffffffffffffffffffffffffffffffffff168373ffffffffffffffffffffffffffffffffffffffff1603610f24576040517f08c379a0000000000000000000000000000000000000000000000000000000008152600401610f1b90612046565b60405180910390fd5b803414610f66576040517f08c379a0000000000000000000000000000000000000000000000000000000008152600401610f5d906120ae565b60405180910390fd5b60035f815480929190610f78906120cc565b91905055505f60025f60035481526020019081526020015f209050600354815f018190555081816001018190555033816002015f6101000a81548173ffffffffffffffffffffffffffffffffffffffff021916908373ffffffffffffffffffffffffffffffffffffffff16021790555083816003015f6101000a81548173ffffffffffffffffffffffffffffffffffffffff021916908373ffffffffffffffffffffffffffffffffffffffff1602179055505f8160030160146101000a81548160ff02191690836007811115611051576110506118e2565b5b02179055508281600401819055506003547f56560a52c047ed21fd801bf0f345b23d9af696f7922ff8e63101af5d48caddab338660405161109392919061216e565b60405180910390a250505050565b60015f9054906101000a900473ffffffffffffffffffffffffffffffffffffffff1673ffffffffffffffffffffffffffffffffffffffff163373ffffffffffffffffffffffffffffffffffffffff1614611130576040517f08c379a0000000000000000000000000000000000000000000000000000000008152600401611127906121df565b60405180910390fd5b5f60025f8481526020019081526020015f20905060026007811115611158576111576118e2565b5b8160030160149054906101000a900460ff16600781111561117c5761117b6118e2565b5b146111bc576040517f08c379a00000000000000000000000000000000000000000000000000000000081526004016111b390611ca6565b60405180910390fd5b806006015f9054906101000a900460ff1661120c576040517f08c379a000000000000000000000000000000000000000000000000000000000815260040161120390612247565b60405180910390fd5b81816005015414611252576040517f08c379a0000000000000000000000000000000000000000000000000000000008152600401611249906122af565b60405180910390fd5b60038160030160146101000a81548160ff0219169083600781111561127a576112796118e2565b5b0217905550827f375b4005eeae25d0e37d56e1b3841d3bb394b277efa2548de3293f5dcb7a349360405160405180910390a2505050565b6112b961180b565b8060025f8281526020019081526020015f206003015f9054906101000a900473ffffffffffffffffffffffffffffffffffffffff1673ffffffffffffffffffffffffffffffffffffffff163373ffffffffffffffffffffffffffffffffffffffff161461135b576040517f08c379a000000000000000000000000000000000000000000000000000000000815260040161135290611d6e565b60405180910390fd5b5f60025f8481526020019081526020015f20905060056007811115611383576113826118e2565b5b8160030160149054906101000a900460ff1660078111156113a7576113a66118e2565b5b14806113e85750600460078111156113c2576113c16118e2565b5b8160030160149054906101000a900460ff1660078111156113e6576113e56118e2565b5b145b611427576040517f08c379a000000000000000000000000000000000000000000000000000000000815260040161141e90612317565b60405180910390fd5b5f816001015490508060045f3373ffffffffffffffffffffffffffffffffffffffff1673ffffffffffffffffffffffffffffffffffffffff1681526020019081526020015f205410156114af576040517f08c379a00000000000000000000000000000000000000000000000000000000081526004016114a69061237f565b60405180910390fd5b8060045f3373ffffffffffffffffffffffffffffffffffffffff1673ffffffffffffffffffffffffffffffffffffffff1681526020019081526020015f205f8282546114fb919061239d565b9250508190555060068260030160146101000a81548160ff0219169083600781111561152a576115296118e2565b5b02179055503373ffffffffffffffffffffffffffffffffffffffff166108fc8290811502906040515f60405180830381858888f19350505050158015611572573d5f5f3e3d5ffd5b503373ffffffffffffffffffffffffffffffffffffffff16847ff440aec6b52895984d061d622e6edeba6210f7c3e059be920663140c084560d7836040516115ba91906118c9565b60405180910390a35050506115cd61184f565b50565b600160149054906101000a900460ff1681565b6004602052805f5260405f205f915090505481565b8160025f8281526020019081526020015f206003015f9054906101000a900473ffffffffffffffffffffffffffffffffffffffff1673ffffffffffffffffffffffffffffffffffffffff163373ffffffffffffffffffffffffffffffffffffffff161461169a576040517f08c379a000000000000000000000000000000000000000000000000000000000815260040161169190611d6e565b60405180910390fd5b5f60025f8581526020019081526020015f209050600160078111156116c2576116c16118e2565b5b8160030160149054906101000a900460ff1660078111156116e6576116e56118e2565b5b14611726576040517f08c379a000000000000000000000000000000000000000000000000000000000815260040161171d9061241a565b60405180910390fd5b806006015f9054906101000a900460ff1615611777576040517f08c379a000000000000000000000000000000000000000000000000000000000815260040161176e90612482565b60405180910390fd5b8281600501819055506001816006015f6101000a81548160ff02191690831515021790555060028160030160146101000a81548160ff021916908360078111156117c4576117c36118e2565b5b0217905550837f4b70739c5f0bd46e19773020c599342cdbdc3ac59b5e0abfdd9c1bb441be59c882600501546040516117fd91906124a0565b60405180910390a250505050565b60025f5403611846576040517f3ee5aeb500000000000000000000000000000000000000000000000000000000815260040160405180910390fd5b60025f81905550565b60015f81905550565b5f5ffd5b5f819050919050565b61186e8161185c565b8114611878575f5ffd5b50565b5f8135905061188981611865565b92915050565b5f602082840312156118a4576118a3611858565b5b5f6118b18482850161187b565b91505092915050565b6118c38161185c565b82525050565b5f6020820190506118dc5f8301846118ba565b92915050565b7f4e487b71000000000000000000000000000000000000000000000000000000005f52602160045260245ffd5b600881106119205761191f6118e2565b5b50565b5f8190506119308261190f565b919050565b5f61193f82611923565b9050919050565b61194f81611935565b82525050565b5f6020820190506119685f830184611946565b92915050565b5f73ffffffffffffffffffffffffffffffffffffffff82169050919050565b5f6119978261196e565b9050919050565b6119a78161198d565b82525050565b5f819050919050565b6119bf816119ad565b82525050565b5f8115159050919050565b6119d9816119c5565b82525050565b5f610100820190506119f35f83018b6118ba565b611a00602083018a6118ba565b611a0d604083018961199e565b611a1a606083018861199e565b611a276080830187611946565b611a3460a08301866119b6565b611a4160c08301856119b6565b611a4e60e08301846119d0565b9998505050505050505050565b5f611a658261196e565b9050919050565b611a7581611a5b565b8114611a7f575f5ffd5b50565b5f81359050611a9081611a6c565b92915050565b5f60208284031215611aab57611aaa611858565b5b5f611ab884828501611a82565b91505092915050565b611aca81611a5b565b82525050565b5f602082019050611ae35f830184611ac1565b92915050565b611af28161198d565b8114611afc575f5ffd5b50565b5f81359050611b0d81611ae9565b92915050565b611b1c816119ad565b8114611b26575f5ffd5b50565b5f81359050611b3781611b13565b92915050565b5f5f5f60608486031215611b5457611b53611858565b5b5f611b6186828701611aff565b9350506020611b7286828701611b29565b9250506040611b838682870161187b565b9150509250925092565b5f5f60408385031215611ba357611ba2611858565b5b5f611bb08582860161187b565b9250506020611bc185828601611b29565b9150509250929050565b5f602082019050611bde5f8301846119d0565b92915050565b5f82825260208201905092915050565b7f4e6f742063726561746f720000000000000000000000000000000000000000005f82015250565b5f611c28600b83611be4565b9150611c3382611bf4565b602082019050919050565b5f6020820190508181035f830152611c5581611c1c565b9050919050565b7f57726f6e672073746174757300000000000000000000000000000000000000005f82015250565b5f611c90600c83611be4565b9150611c9b82611c5c565b602082019050919050565b5f6020820190508181035f830152611cbd81611c84565b9050919050565b7f4e487b71000000000000000000000000000000000000000000000000000000005f52601160045260245ffd5b5f611cfb8261185c565b9150611d068361185c565b9250828201905080821115611d1e57611d1d611cc4565b5b92915050565b7f4e6f7420636f756e7465727061727479000000000000000000000000000000005f82015250565b5f611d58601083611be4565b9150611d6382611d24565b602082019050919050565b5f6020820190508181035f830152611d8581611d4c565b9050919050565b7f4f6e6c7920436f6d706c657465640000000000000000000000000000000000005f82015250565b5f611dc0600e83611be4565b9150611dcb82611d8c565b602082019050919050565b5f6020820190508181035f830152611ded81611db4565b9050919050565b7f4f7261636c6520616c72656164792073657400000000000000000000000000005f82015250565b5f611e28601283611be4565b9150611e3382611df4565b602082019050919050565b5f6020820190508181035f830152611e5581611e1c565b9050919050565b7f496e76616c6964206f7261636c650000000000000000000000000000000000005f82015250565b5f611e90600e83611be4565b9150611e9b82611e5c565b602082019050919050565b5f6020820190508181035f830152611ebd81611e84565b9050919050565b7f4e6f74207369676e6564000000000000000000000000000000000000000000005f82015250565b5f611ef8600a83611be4565b9150611f0382611ec4565b602082019050919050565b5f6020820190508181035f830152611f2581611eec565b9050919050565b7f44656c697665727920666c6f77207265717569726564000000000000000000005f82015250565b5f611f60601683611be4565b9150611f6b82611f2c565b602082019050919050565b5f6020820190508181035f830152611f8d81611f54565b9050919050565b7f4e6f7420437265617465640000000000000000000000000000000000000000005f82015250565b5f611fc8600b83611be4565b9150611fd382611f94565b602082019050919050565b5f6020820190508181035f830152611ff581611fbc565b9050919050565b7f302061646472206e6f7420616c6c6f77656400000000000000000000000000005f82015250565b5f612030601283611be4565b915061203b82611ffc565b602082019050919050565b5f6020820190508181035f83015261205d81612024565b9050919050565b7f455448206d69736d6174636800000000000000000000000000000000000000005f82015250565b5f612098600c83611be4565b91506120a382612064565b602082019050919050565b5f6020820190508181035f8301526120c58161208c565b9050919050565b5f6120d68261185c565b91507fffffffffffffffffffffffffffffffffffffffffffffffffffffffffffffffff820361210857612107611cc4565b5b600182019050919050565b5f819050919050565b5f61213661213161212c8461196e565b612113565b61196e565b9050919050565b5f6121478261211c565b9050919050565b5f6121588261213d565b9050919050565b6121688161214e565b82525050565b5f6040820190506121815f830185611ac1565b61218e602083018461215f565b9392505050565b7f4e6f74206f7261636c65000000000000000000000000000000000000000000005f82015250565b5f6121c9600a83611be4565b91506121d482612195565b602082019050919050565b5f6020820190508181035f8301526121f6816121bd565b9050919050565b7f4e6f2064656c69766572790000000000000000000000000000000000000000005f82015250565b5f612231600b83611be4565b915061223c826121fd565b602082019050919050565b5f6020820190508181035f83015261225e81612225565b9050919050565b7f48617368206d69736d61746368000000000000000000000000000000000000005f82015250565b5f612299600d83611be4565b91506122a482612265565b602082019050919050565b5f6020820190508181035f8301526122c68161228d565b9050919050565b7f4e6f7420776974686472617761626c65000000000000000000000000000000005f82015250565b5f612301601083611be4565b915061230c826122cd565b602082019050919050565b5f6020820190508181035f83015261232e816122f5565b9050919050565b7f4e6f2062616c616e6365000000000000000000000000000000000000000000005f82015250565b5f612369600a83611be4565b915061237482612335565b602082019050919050565b5f6020820190508181035f8301526123968161235d565b9050919050565b5f6123a78261185c565b91506123b28361185c565b92508282039050818111156123ca576123c9611cc4565b5b92915050565b7f4e6f74205369676e6564000000000000000000000000000000000000000000005f82015250565b5f612404600a83611be4565b915061240f826123d0565b602082019050919050565b5f6020820190508181035f830152612431816123f8565b9050919050565b7f416c7265616479207365740000000000000000000000000000000000000000005f82015250565b5f61246c600b83611be4565b915061247782612438565b602082019050919050565b5f6020820190508181035f83015261249981612460565b9050919050565b5f6020820190506124b35f8301846119b6565b9291505056fea264697066735822122085c84497f995b461897e93cb4a6d84e573d4450cd05033fce2aee8df93bdeb9664736f6c634300081e0033",
					"opcodes": "PUSH1 0x80 PUSH1 0x40 MSTORE CALLVALUE DUP1 ISZERO PUSH1 0xE JUMPI PUSH0 PUSH0 REVERT JUMPDEST POP PUSH1 0x1 PUSH0 DUP2 SWAP1 SSTORE POP PUSH2 0x24EF DUP1 PUSH2 0x23 PUSH0 CODECOPY PUSH0 RETURN INVALID PUSH1 0x80 PUSH1 0x40 MSTORE PUSH1 0x4 CALLDATASIZE LT PUSH2 0xE7 JUMPI PUSH0 CALLDATALOAD PUSH1 0xE0 SHR DUP1 PUSH4 0x94AEB613 GT PUSH2 0x89 JUMPI DUP1 PUSH4 0xDF5C2980 GT PUSH2 0x58 JUMPI DUP1 PUSH4 0xDF5C2980 EQ PUSH2 0x2CA JUMPI DUP1 PUSH4 0xEDB3B27A EQ PUSH2 0x2F2 JUMPI DUP1 PUSH4 0xF3F43703 EQ PUSH2 0x31C JUMPI DUP1 PUSH4 0xF436199D EQ PUSH2 0x358 JUMPI PUSH2 0xE7 JUMP JUMPDEST DUP1 PUSH4 0x94AEB613 EQ PUSH2 0x236 JUMPI DUP1 PUSH4 0x9537E8D1 EQ PUSH2 0x25E JUMPI DUP1 PUSH4 0x9CC437BA EQ PUSH2 0x286 JUMPI DUP1 PUSH4 0xA78D9BAB EQ PUSH2 0x2A2 JUMPI PUSH2 0xE7 JUMP JUMPDEST DUP1 PUSH4 0x22A45CD0 GT PUSH2 0xC5 JUMPI DUP1 PUSH4 0x22A45CD0 EQ PUSH2 0x179 JUMPI DUP1 PUSH4 0x474DA79A EQ PUSH2 0x1A1 JUMPI DUP1 PUSH4 0x7ADBF973 EQ PUSH2 0x1E4 JUMPI DUP1 PUSH4 0x7DC0D1D0 EQ PUSH2 0x20C JUMPI PUSH2 0xE7 JUMP JUMPDEST DUP1 PUSH4 0x32CA42D EQ PUSH2 0xEB JUMPI DUP1 PUSH4 0x67BD3B4 EQ PUSH2 0x113 JUMPI DUP1 PUSH4 0x17B18458 EQ PUSH2 0x13D JUMPI JUMPDEST PUSH0 PUSH0 REVERT JUMPDEST CALLVALUE DUP1 ISZERO PUSH2 0xF6 JUMPI PUSH0 PUSH0 REVERT JUMPDEST POP PUSH2 0x111 PUSH1 0x4 DUP1 CALLDATASIZE SUB DUP2 ADD SWAP1 PUSH2 0x10C SWAP2 SWAP1 PUSH2 0x188F JUMP JUMPDEST PUSH2 0x380 JUMP JUMPDEST STOP JUMPDEST CALLVALUE DUP1 ISZERO PUSH2 0x11E JUMPI PUSH0 PUSH0 REVERT JUMPDEST POP PUSH2 0x127 PUSH2 0x5FD JUMP JUMPDEST PUSH1 0x40 MLOAD PUSH2 0x134 SWAP2 SWAP1 PUSH2 0x18C9 JUMP JUMPDEST PUSH1 0x40 MLOAD DUP1 SWAP2 SUB SWAP1 RETURN JUMPDEST CALLVALUE DUP1 ISZERO PUSH2 0x148 JUMPI PUSH0 PUSH0 REVERT JUMPDEST POP PUSH2 0x163 PUSH1 0x4 DUP1 CALLDATASIZE SUB DUP2 ADD SWAP1 PUSH2 0x15E SWAP2 SWAP1 PUSH2 0x188F JUMP JUMPDEST PUSH2 0x603 JUMP JUMPDEST PUSH1 0x40 MLOAD PUSH2 0x170 SWAP2 SWAP1 PUSH2 0x1955 JUMP JUMPDEST PUSH1 0x40 MLOAD DUP1 SWAP2 SUB SWAP1 RETURN JUMPDEST CALLVALUE DUP1 ISZERO PUSH2 0x184 JUMPI PUSH0 PUSH0 REVERT JUMPDEST POP PUSH2 0x19F PUSH1 0x4 DUP1 CALLDATASIZE SUB DUP2 ADD SWAP1 PUSH2 0x19A SWAP2 SWAP1 PUSH2 0x188F JUMP JUMPDEST PUSH2 0x62D JUMP JUMPDEST STOP JUMPDEST CALLVALUE DUP1 ISZERO PUSH2 0x1AC JUMPI PUSH0 PUSH0 REVERT JUMPDEST POP PUSH2 0x1C7 PUSH1 0x4 DUP1 CALLDATASIZE SUB DUP2 ADD SWAP1 PUSH2 0x1C2 SWAP2 SWAP1 PUSH2 0x188F JUMP JUMPDEST PUSH2 0x86B JUMP JUMPDEST PUSH1 0x40 MLOAD PUSH2 0x1DB SWAP9 SWAP8 SWAP7 SWAP6 SWAP5 SWAP4 SWAP3 SWAP2 SWAP1 PUSH2 0x19DF JUMP JUMPDEST PUSH1 0x40 MLOAD DUP1 SWAP2 SUB SWAP1 RETURN JUMPDEST CALLVALUE DUP1 ISZERO PUSH2 0x1EF JUMPI PUSH0 PUSH0 REVERT JUMPDEST POP PUSH2 0x20A PUSH1 0x4 DUP1 CALLDATASIZE SUB DUP2 ADD SWAP1 PUSH2 0x205 SWAP2 SWAP1 PUSH2 0x1A96 JUMP JUMPDEST PUSH2 0x906 JUMP JUMPDEST STOP JUMPDEST CALLVALUE DUP1 ISZERO PUSH2 0x217 JUMPI PUSH0 PUSH0 REVERT JUMPDEST POP PUSH2 0x220 PUSH2 0xA64 JUMP JUMPDEST PUSH1 0x40 MLOAD PUSH2 0x22D SWAP2 SWAP1 PUSH2 0x1AD0 JUMP JUMPDEST PUSH1 0x40 MLOAD DUP1 SWAP2 SUB SWAP1 RETURN JUMPDEST CALLVALUE DUP1 ISZERO PUSH2 0x241 JUMPI PUSH0 PUSH0 REVERT JUMPDEST POP PUSH2 0x25C PUSH1 0x4 DUP1 CALLDATASIZE SUB DUP2 ADD SWAP1 PUSH2 0x257 SWAP2 SWAP1 PUSH2 0x188F JUMP JUMPDEST PUSH2 0xA89 JUMP JUMPDEST STOP JUMPDEST CALLVALUE DUP1 ISZERO PUSH2 0x269 JUMPI PUSH0 PUSH0 REVERT JUMPDEST POP PUSH2 0x284 PUSH1 0x4 DUP1 CALLDATASIZE SUB DUP2 ADD SWAP1 PUSH2 0x27F SWAP2 SWAP1 PUSH2 0x188F JUMP JUMPDEST PUSH2 0xD2A JUMP JUMPDEST STOP JUMPDEST PUSH2 0x2A0 PUSH1 0x4 DUP1 CALLDATASIZE SUB DUP2 ADD SWAP1 PUSH2 0x29B SWAP2 SWAP1 PUSH2 0x1B3D JUMP JUMPDEST PUSH2 0xEB6 JUMP JUMPDEST STOP JUMPDEST CALLVALUE DUP1 ISZERO PUSH2 0x2AD JUMPI PUSH0 PUSH0 REVERT JUMPDEST POP PUSH2 0x2C8 PUSH1 0x4 DUP1 CALLDATASIZE SUB DUP2 ADD SWAP1 PUSH2 0x2C3 SWAP2 SWAP1 PUSH2 0x1B8D JUMP JUMPDEST PUSH2 0x10A1 JUMP JUMPDEST STOP JUMPDEST CALLVALUE DUP1 ISZERO PUSH2 0x2D5 JUMPI PUSH0 PUSH0 REVERT JUMPDEST POP PUSH2 0x2F0 PUSH1 0x4 DUP1 CALLDATASIZE SUB DUP2 ADD SWAP1 PUSH2 0x2EB SWAP2 SWAP1 PUSH2 0x188F JUMP JUMPDEST PUSH2 0x12B1 JUMP JUMPDEST STOP JUMPDEST CALLVALUE DUP1 ISZERO PUSH2 0x2FD JUMPI PUSH0 PUSH0 REVERT JUMPDEST POP PUSH2 0x306 PUSH2 0x15D0 JUMP JUMPDEST PUSH1 0x40 MLOAD PUSH2 0x313 SWAP2 SWAP1 PUSH2 0x1BCB JUMP JUMPDEST PUSH1 0x40 MLOAD DUP1 SWAP2 SUB SWAP1 RETURN JUMPDEST CALLVALUE DUP1 ISZERO PUSH2 0x327 JUMPI PUSH0 PUSH0 REVERT JUMPDEST POP PUSH2 0x342 PUSH1 0x4 DUP1 CALLDATASIZE SUB DUP2 ADD SWAP1 PUSH2 0x33D SWAP2 SWAP1 PUSH2 0x1A96 JUMP JUMPDEST PUSH2 0x15E3 JUMP JUMPDEST PUSH1 0x40 MLOAD PUSH2 0x34F SWAP2 SWAP1 PUSH2 0x18C9 JUMP JUMPDEST PUSH1 0x40 MLOAD DUP1 SWAP2 SUB SWAP1 RETURN JUMPDEST CALLVALUE DUP1 ISZERO PUSH2 0x363 JUMPI PUSH0 PUSH0 REVERT JUMPDEST POP PUSH2 0x37E PUSH1 0x4 DUP1 CALLDATASIZE SUB DUP2 ADD SWAP1 PUSH2 0x379 SWAP2 SWAP1 PUSH2 0x1B8D JUMP JUMPDEST PUSH2 0x15F8 JUMP JUMPDEST STOP JUMPDEST DUP1 PUSH1 0x2 PUSH0 DUP3 DUP2 MSTORE PUSH1 0x20 ADD SWAP1 DUP2 MSTORE PUSH1 0x20 ADD PUSH0 KECCAK256 PUSH1 0x2 ADD PUSH0 SWAP1 SLOAD SWAP1 PUSH2 0x100 EXP SWAP1 DIV PUSH20 0xFFFFFFFFFFFFFFFFFFFFFFFFFFFFFFFFFFFFFFFF AND PUSH20 0xFFFFFFFFFFFFFFFFFFFFFFFFFFFFFFFFFFFFFFFF AND CALLER PUSH20 0xFFFFFFFFFFFFFFFFFFFFFFFFFFFFFFFFFFFFFFFF AND EQ PUSH2 0x422 JUMPI PUSH1 0x40 MLOAD PUSH32 0x8C379A000000000000000000000000000000000000000000000000000000000 DUP2 MSTORE PUSH1 0x4 ADD PUSH2 0x419 SWAP1 PUSH2 0x1C3E JUMP JUMPDEST PUSH1 0x40 MLOAD DUP1 SWAP2 SUB SWAP1 REVERT JUMPDEST PUSH0 PUSH1 0x2 PUSH0 DUP5 DUP2 MSTORE PUSH1 0x20 ADD SWAP1 DUP2 MSTORE PUSH1 0x20 ADD PUSH0 KECCAK256 SWAP1 POP PUSH1 0x3 PUSH1 0x7 DUP2 GT ISZERO PUSH2 0x44A JUMPI PUSH2 0x449 PUSH2 0x18E2 JUMP JUMPDEST JUMPDEST DUP2 PUSH1 0x3 ADD PUSH1 0x14 SWAP1 SLOAD SWAP1 PUSH2 0x100 EXP SWAP1 DIV PUSH1 0xFF AND PUSH1 0x7 DUP2 GT ISZERO PUSH2 0x46E JUMPI PUSH2 0x46D PUSH2 0x18E2 JUMP JUMPDEST JUMPDEST EQ PUSH2 0x4AE JUMPI PUSH1 0x40 MLOAD PUSH32 0x8C379A000000000000000000000000000000000000000000000000000000000 DUP2 MSTORE PUSH1 0x4 ADD PUSH2 0x4A5 SWAP1 PUSH2 0x1CA6 JUMP JUMPDEST PUSH1 0x40 MLOAD DUP1 SWAP2 SUB SWAP1 REVERT JUMPDEST PUSH1 0x4 DUP2 PUSH1 0x3 ADD PUSH1 0x14 PUSH2 0x100 EXP DUP2 SLOAD DUP2 PUSH1 0xFF MUL NOT AND SWAP1 DUP4 PUSH1 0x7 DUP2 GT ISZERO PUSH2 0x4D6 JUMPI PUSH2 0x4D5 PUSH2 0x18E2 JUMP JUMPDEST JUMPDEST MUL OR SWAP1 SSTORE POP DUP1 PUSH1 0x1 ADD SLOAD PUSH1 0x4 PUSH0 DUP4 PUSH1 0x3 ADD PUSH0 SWAP1 SLOAD SWAP1 PUSH2 0x100 EXP SWAP1 DIV PUSH20 0xFFFFFFFFFFFFFFFFFFFFFFFFFFFFFFFFFFFFFFFF AND PUSH20 0xFFFFFFFFFFFFFFFFFFFFFFFFFFFFFFFFFFFFFFFF AND PUSH20 0xFFFFFFFFFFFFFFFFFFFFFFFFFFFFFFFFFFFFFFFF AND DUP2 MSTORE PUSH1 0x20 ADD SWAP1 DUP2 MSTORE PUSH1 0x20 ADD PUSH0 KECCAK256 PUSH0 DUP3 DUP3 SLOAD PUSH2 0x54E SWAP2 SWAP1 PUSH2 0x1CF1 JUMP JUMPDEST SWAP3 POP POP DUP2 SWAP1 SSTORE POP DUP3 PUSH32 0x5C1E662F72EE6C85181B65FAC5BEB0390932B8C472F05B257151D041AC9DDFFA PUSH1 0x40 MLOAD PUSH1 0x40 MLOAD DUP1 SWAP2 SUB SWAP1 LOG2 DUP1 PUSH1 0x3 ADD PUSH0 SWAP1 SLOAD SWAP1 PUSH2 0x100 EXP SWAP1 DIV PUSH20 0xFFFFFFFFFFFFFFFFFFFFFFFFFFFFFFFFFFFFFFFF AND PUSH20 0xFFFFFFFFFFFFFFFFFFFFFFFFFFFFFFFFFFFFFFFF AND DUP4 PUSH32 0x21D71DB5BE59BB9FA133895586B7404307DD33FB93B16DB09DC6F1D9D7D231B0 DUP4 PUSH1 0x1 ADD SLOAD PUSH1 0x40 MLOAD PUSH2 0x5F0 SWAP2 SWAP1 PUSH2 0x18C9 JUMP JUMPDEST PUSH1 0x40 MLOAD DUP1 SWAP2 SUB SWAP1 LOG3 POP POP POP JUMP JUMPDEST PUSH1 0x3 SLOAD DUP2 JUMP JUMPDEST PUSH0 PUSH1 0x2 PUSH0 DUP4 DUP2 MSTORE PUSH1 0x20 ADD SWAP1 DUP2 MSTORE PUSH1 0x20 ADD PUSH0 KECCAK256 PUSH1 0x3 ADD PUSH1 0x14 SWAP1 SLOAD SWAP1 PUSH2 0x100 EXP SWAP1 DIV PUSH1 0xFF AND SWAP1 POP SWAP2 SWAP1 POP JUMP JUMPDEST DUP1 PUSH1 0x2 PUSH0 DUP3 DUP2 MSTORE PUSH1 0x20 ADD SWAP1 DUP2 MSTORE PUSH1 0x20 ADD PUSH0 KECCAK256 PUSH1 0x3 ADD PUSH0 SWAP1 SLOAD SWAP1 PUSH2 0x100 EXP SWAP1 DIV PUSH20 0xFFFFFFFFFFFFFFFFFFFFFFFFFFFFFFFFFFFFFFFF AND PUSH20 0xFFFFFFFFFFFFFFFFFFFFFFFFFFFFFFFFFFFFFFFF AND CALLER PUSH20 0xFFFFFFFFFFFFFFFFFFFFFFFFFFFFFFFFFFFFFFFF AND EQ PUSH2 0x6CF JUMPI PUSH1 0x40 MLOAD PUSH32 0x8C379A000000000000000000000000000000000000000000000000000000000 DUP2 MSTORE PUSH1 0x4 ADD PUSH2 0x6C6 SWAP1 PUSH2 0x1D6E JUMP JUMPDEST PUSH1 0x40 MLOAD DUP1 SWAP2 SUB SWAP1 REVERT JUMPDEST DUP2 PUSH1 0x2 PUSH0 DUP3 DUP2 MSTORE PUSH1 0x20 ADD SWAP1 DUP2 MSTORE PUSH1 0x20 ADD PUSH0 KECCAK256 PUSH1 0x2 ADD PUSH0 SWAP1 SLOAD SWAP1 PUSH2 0x100 EXP SWAP1 DIV PUSH20 0xFFFFFFFFFFFFFFFFFFFFFFFFFFFFFFFFFFFFFFFF AND PUSH20 0xFFFFFFFFFFFFFFFFFFFFFFFFFFFFFFFFFFFFFFFF AND CALLER PUSH20 0xFFFFFFFFFFFFFFFFFFFFFFFFFFFFFFFFFFFFFFFF AND EQ PUSH2 0x771 JUMPI PUSH1 0x40 MLOAD PUSH32 0x8C379A000000000000000000000000000000000000000000000000000000000 DUP2 MSTORE PUSH1 0x4 ADD PUSH2 0x768 SWAP1 PUSH2 0x1C3E JUMP JUMPDEST PUSH1 0x40 MLOAD DUP1 SWAP2 SUB SWAP1 REVERT JUMPDEST PUSH0 PUSH1 0x2 PUSH0 DUP6 DUP2 MSTORE PUSH1 0x20 ADD SWAP1 DUP2 MSTORE PUSH1 0x20 ADD PUSH0 KECCAK256 SWAP1 POP PUSH1 0x6 PUSH1 0x7 DUP2 GT ISZERO PUSH2 0x799 JUMPI PUSH2 0x798 PUSH2 0x18E2 JUMP JUMPDEST JUMPDEST DUP2 PUSH1 0x3 ADD PUSH1 0x14 SWAP1 SLOAD SWAP1 PUSH2 0x100 EXP SWAP1 DIV PUSH1 0xFF AND PUSH1 0x7 DUP2 GT ISZERO PUSH2 0x7BD JUMPI PUSH2 0x7BC PUSH2 0x18E2 JUMP JUMPDEST JUMPDEST EQ PUSH2 0x7FD JUMPI PUSH1 0x40 MLOAD PUSH32 0x8C379A000000000000000000000000000000000000000000000000000000000 DUP2 MSTORE PUSH1 0x4 ADD PUSH2 0x7F4 SWAP1 PUSH2 0x1DD6 JUMP JUMPDEST PUSH1 0x40 MLOAD DUP1 SWAP2 SUB SWAP1 REVERT JUMPDEST DUP1 PUSH1 0x4 ADD PUSH0 SWAP1 SSTORE DUP1 PUSH1 0x5 ADD PUSH0 SWAP1 SSTORE PUSH1 0x7 DUP2 PUSH1 0x3 ADD PUSH1 0x14 PUSH2 0x100 EXP DUP2 SLOAD DUP2 PUSH1 0xFF MUL NOT AND SWAP1 DUP4 PUSH1 0x7 DUP2 GT ISZERO PUSH2 0x833 JUMPI PUSH2 0x832 PUSH2 0x18E2 JUMP JUMPDEST JUMPDEST MUL OR SWAP1 SSTORE POP DUP4 PUSH32 0x741B099F015E1976CFA72A7448A8FB1D54EAB1D616241B562CFBE603A2B61B42 PUSH1 0x40 MLOAD PUSH1 0x40 MLOAD DUP1 SWAP2 SUB SWAP1 LOG2 POP POP POP POP JUMP JUMPDEST PUSH1 0x2 PUSH1 0x20 MSTORE DUP1 PUSH0 MSTORE PUSH1 0x40 PUSH0 KECCAK256 PUSH0 SWAP2 POP SWAP1 POP DUP1 PUSH0 ADD SLOAD SWAP1 DUP1 PUSH1 0x1 ADD SLOAD SWAP1 DUP1 PUSH1 0x2 ADD PUSH0 SWAP1 SLOAD SWAP1 PUSH2 0x100 EXP SWAP1 DIV PUSH20 0xFFFFFFFFFFFFFFFFFFFFFFFFFFFFFFFFFFFFFFFF AND SWAP1 DUP1 PUSH1 0x3 ADD PUSH0 SWAP1 SLOAD SWAP1 PUSH2 0x100 EXP SWAP1 DIV PUSH20 0xFFFFFFFFFFFFFFFFFFFFFFFFFFFFFFFFFFFFFFFF AND SWAP1 DUP1 PUSH1 0x3 ADD PUSH1 0x14 SWAP1 SLOAD SWAP1 PUSH2 0x100 EXP SWAP1 DIV PUSH1 0xFF AND SWAP1 DUP1 PUSH1 0x4 ADD SLOAD SWAP1 DUP1 PUSH1 0x5 ADD SLOAD SWAP1 DUP1 PUSH1 0x6 ADD PUSH0 SWAP1 SLOAD SWAP1 PUSH2 0x100 EXP SWAP1 DIV PUSH1 0xFF AND SWAP1 POP DUP9 JUMP JUMPDEST PUSH1 0x1 PUSH1 0x14 SWAP1 SLOAD SWAP1 PUSH2 0x100 EXP SWAP1 DIV PUSH1 0xFF AND ISZERO PUSH2 0x956 JUMPI PUSH1 0x40 MLOAD PUSH32 0x8C379A000000000000000000000000000000000000000000000000000000000 DUP2 MSTORE PUSH1 0x4 ADD PUSH2 0x94D SWAP1 PUSH2 0x1E3E JUMP JUMPDEST PUSH1 0x40 MLOAD DUP1 SWAP2 SUB SWAP1 REVERT JUMPDEST PUSH0 PUSH20 0xFFFFFFFFFFFFFFFFFFFFFFFFFFFFFFFFFFFFFFFF AND DUP2 PUSH20 0xFFFFFFFFFFFFFFFFFFFFFFFFFFFFFFFFFFFFFFFF AND SUB PUSH2 0x9C4 JUMPI PUSH1 0x40 MLOAD PUSH32 0x8C379A000000000000000000000000000000000000000000000000000000000 DUP2 MSTORE PUSH1 0x4 ADD PUSH2 0x9BB SWAP1 PUSH2 0x1EA6 JUMP JUMPDEST PUSH1 0x40 MLOAD DUP1 SWAP2 SUB SWAP1 REVERT JUMPDEST DUP1 PUSH1 0x1 PUSH0 PUSH2 0x100 EXP DUP2 SLOAD DUP2 PUSH20 0xFFFFFFFFFFFFFFFFFFFFFFFFFFFFFFFFFFFFFFFF MUL NOT AND SWAP1 DUP4 PUSH20 0xFFFFFFFFFFFFFFFFFFFFFFFFFFFFFFFFFFFFFFFF AND MUL OR SWAP1 SSTORE POP PUSH1 0x1 DUP1 PUSH1 0x14 PUSH2 0x100 EXP DUP2 SLOAD DUP2 PUSH1 0xFF MUL NOT AND SWAP1 DUP4 ISZERO ISZERO MUL OR SWAP1 SSTORE POP DUP1 PUSH20 0xFFFFFFFFFFFFFFFFFFFFFFFFFFFFFFFFFFFFFFFF AND PUSH32 0x3F32684A32A11DABDBB8C0177DE80AA3AE36A004D75210335B49E544E48CD0AA PUSH1 0x40 MLOAD PUSH1 0x40 MLOAD DUP1 SWAP2 SUB SWAP1 LOG2 POP JUMP JUMPDEST PUSH1 0x1 PUSH0 SWAP1 SLOAD SWAP1 PUSH2 0x100 EXP SWAP1 DIV PUSH20 0xFFFFFFFFFFFFFFFFFFFFFFFFFFFFFFFFFFFFFFFF AND DUP2 JUMP JUMPDEST DUP1 PUSH1 0x2 PUSH0 DUP3 DUP2 MSTORE PUSH1 0x20 ADD SWAP1 DUP2 MSTORE PUSH1 0x20 ADD PUSH0 KECCAK256 PUSH1 0x2 ADD PUSH0 SWAP1 SLOAD SWAP1 PUSH2 0x100 EXP SWAP1 DIV PUSH20 0xFFFFFFFFFFFFFFFFFFFFFFFFFFFFFFFFFFFFFFFF AND PUSH20 0xFFFFFFFFFFFFFFFFFFFFFFFFFFFFFFFFFFFFFFFF AND CALLER PUSH20 0xFFFFFFFFFFFFFFFFFFFFFFFFFFFFFFFFFFFFFFFF AND EQ PUSH2 0xB2B JUMPI PUSH1 0x40 MLOAD PUSH32 0x8C379A000000000000000000000000000000000000000000000000000000000 DUP2 MSTORE PUSH1 0x4 ADD PUSH2 0xB22 SWAP1 PUSH2 0x1C3E JUMP JUMPDEST PUSH1 0x40 MLOAD DUP1 SWAP2 SUB SWAP1 REVERT JUMPDEST PUSH0 PUSH1 0x2 PUSH0 DUP5 DUP2 MSTORE PUSH1 0x20 ADD SWAP1 DUP2 MSTORE PUSH1 0x20 ADD PUSH0 KECCAK256 SWAP1 POP PUSH1 0x1 PUSH1 0x7 DUP2 GT ISZERO PUSH2 0xB53 JUMPI PUSH2 0xB52 PUSH2 0x18E2 JUMP JUMPDEST JUMPDEST DUP2 PUSH1 0x3 ADD PUSH1 0x14 SWAP1 SLOAD SWAP1 PUSH2 0x100 EXP SWAP1 DIV PUSH1 0xFF AND PUSH1 0x7 DUP2 GT ISZERO PUSH2 0xB77 JUMPI PUSH2 0xB76 PUSH2 0x18E2 JUMP JUMPDEST JUMPDEST EQ PUSH2 0xBB7 JUMPI PUSH1 0x40 MLOAD PUSH32 0x8C379A000000000000000000000000000000000000000000000000000000000 DUP2 MSTORE PUSH1 0x4 ADD PUSH2 0xBAE SWAP1 PUSH2 0x1F0E JUMP JUMPDEST PUSH1 0x40 MLOAD DUP1 SWAP2 SUB SWAP1 REVERT JUMPDEST DUP1 PUSH1 0x6 ADD PUSH0 SWAP1 SLOAD SWAP1 PUSH2 0x100 EXP SWAP1 DIV PUSH1 0xFF AND ISZERO PUSH2 0xC08 JUMPI PUSH1 0x40 MLOAD PUSH32 0x8C379A000000000000000000000000000000000000000000000000000000000 DUP2 MSTORE PUSH1 0x4 ADD PUSH2 0xBFF SWAP1 PUSH2 0x1F76 JUMP JUMPDEST PUSH1 0x40 MLOAD DUP1 SWAP2 SUB SWAP1 REVERT JUMPDEST PUSH1 0x5 DUP2 PUSH1 0x3 ADD PUSH1 0x14 PUSH2 0x100 EXP DUP2 SLOAD DUP2 PUSH1 0xFF MUL NOT AND SWAP1 DUP4 PUSH1 0x7 DUP2 GT ISZERO PUSH2 0xC30 JUMPI PUSH2 0xC2F PUSH2 0x18E2 JUMP JUMPDEST JUMPDEST MUL OR SWAP1 SSTORE POP DUP1 PUSH1 0x1 ADD SLOAD PUSH1 0x4 PUSH0 DUP4 PUSH1 0x3 ADD PUSH0 SWAP1 SLOAD SWAP1 PUSH2 0x100 EXP SWAP1 DIV PUSH20 0xFFFFFFFFFFFFFFFFFFFFFFFFFFFFFFFFFFFFFFFF AND PUSH20 0xFFFFFFFFFFFFFFFFFFFFFFFFFFFFFFFFFFFFFFFF AND PUSH20 0xFFFFFFFFFFFFFFFFFFFFFFFFFFFFFFFFFFFFFFFF AND DUP2 MSTORE PUSH1 0x20 ADD SWAP1 DUP2 MSTORE PUSH1 0x20 ADD PUSH0 KECCAK256 PUSH0 DUP3 DUP3 SLOAD PUSH2 0xCA8 SWAP2 SWAP1 PUSH2 0x1CF1 JUMP JUMPDEST SWAP3 POP POP DUP2 SWAP1 SSTORE POP DUP1 PUSH1 0x3 ADD PUSH0 SWAP1 SLOAD SWAP1 PUSH2 0x100 EXP SWAP1 DIV PUSH20 0xFFFFFFFFFFFFFFFFFFFFFFFFFFFFFFFFFFFFFFFF AND PUSH20 0xFFFFFFFFFFFFFFFFFFFFFFFFFFFFFFFFFFFFFFFF AND DUP4 PUSH32 0x21D71DB5BE59BB9FA133895586B7404307DD33FB93B16DB09DC6F1D9D7D231B0 DUP4 PUSH1 0x1 ADD SLOAD PUSH1 0x40 MLOAD PUSH2 0xD1D SWAP2 SWAP1 PUSH2 0x18C9 JUMP JUMPDEST PUSH1 0x40 MLOAD DUP1 SWAP2 SUB SWAP1 LOG3 POP POP POP JUMP JUMPDEST DUP1 PUSH1 0x2 PUSH0 DUP3 DUP2 MSTORE PUSH1 0x20 ADD SWAP1 DUP2 MSTORE PUSH1 0x20 ADD PUSH0 KECCAK256 PUSH1 0x3 ADD PUSH0 SWAP1 SLOAD SWAP1 PUSH2 0x100 EXP SWAP1 DIV PUSH20 0xFFFFFFFFFFFFFFFFFFFFFFFFFFFFFFFFFFFFFFFF AND PUSH20 0xFFFFFFFFFFFFFFFFFFFFFFFFFFFFFFFFFFFFFFFF AND CALLER PUSH20 0xFFFFFFFFFFFFFFFFFFFFFFFFFFFFFFFFFFFFFFFF AND EQ PUSH2 0xDCC JUMPI PUSH1 0x40 MLOAD PUSH32 0x8C379A000000000000000000000000000000000000000000000000000000000 DUP2 MSTORE PUSH1 0x4 ADD PUSH2 0xDC3 SWAP1 PUSH2 0x1D6E JUMP JUMPDEST PUSH1 0x40 MLOAD DUP1 SWAP2 SUB SWAP1 REVERT JUMPDEST PUSH0 PUSH1 0x2 PUSH0 DUP5 DUP2 MSTORE PUSH1 0x20 ADD SWAP1 DUP2 MSTORE PUSH1 0x20 ADD PUSH0 KECCAK256 SWAP1 POP PUSH0 PUSH1 0x7 DUP2 GT ISZERO PUSH2 0xDF3 JUMPI PUSH2 0xDF2 PUSH2 0x18E2 JUMP JUMPDEST JUMPDEST DUP2 PUSH1 0x3 ADD PUSH1 0x14 SWAP1 SLOAD SWAP1 PUSH2 0x100 EXP SWAP1 DIV PUSH1 0xFF AND PUSH1 0x7 DUP2 GT ISZERO PUSH2 0xE17 JUMPI PUSH2 0xE16 PUSH2 0x18E2 JUMP JUMPDEST JUMPDEST EQ PUSH2 0xE57 JUMPI PUSH1 0x40 MLOAD PUSH32 0x8C379A000000000000000000000000000000000000000000000000000000000 DUP2 MSTORE PUSH1 0x4 ADD PUSH2 0xE4E SWAP1 PUSH2 0x1FDE JUMP JUMPDEST PUSH1 0x40 MLOAD DUP1 SWAP2 SUB SWAP1 REVERT JUMPDEST PUSH1 0x1 DUP2 PUSH1 0x3 ADD PUSH1 0x14 PUSH2 0x100 EXP DUP2 SLOAD DUP2 PUSH1 0xFF MUL NOT AND SWAP1 DUP4 PUSH1 0x7 DUP2 GT ISZERO PUSH2 0xE7F JUMPI PUSH2 0xE7E PUSH2 0x18E2 JUMP JUMPDEST JUMPDEST MUL OR SWAP1 SSTORE POP DUP3 PUSH32 0xAF3C49F5413FD292E2325B0FE214DE144A222B00CB6EC21214FDC04B5D6C5913 PUSH1 0x40 MLOAD PUSH1 0x40 MLOAD DUP1 SWAP2 SUB SWAP1 LOG2 POP POP POP JUMP JUMPDEST PUSH0 PUSH20 0xFFFFFFFFFFFFFFFFFFFFFFFFFFFFFFFFFFFFFFFF AND DUP4 PUSH20 0xFFFFFFFFFFFFFFFFFFFFFFFFFFFFFFFFFFFFFFFF AND SUB PUSH2 0xF24 JUMPI PUSH1 0x40 MLOAD PUSH32 0x8C379A000000000000000000000000000000000000000000000000000000000 DUP2 MSTORE PUSH1 0x4 ADD PUSH2 0xF1B SWAP1 PUSH2 0x2046 JUMP JUMPDEST PUSH1 0x40 MLOAD DUP1 SWAP2 SUB SWAP1 REVERT JUMPDEST DUP1 CALLVALUE EQ PUSH2 0xF66 JUMPI PUSH1 0x40 MLOAD PUSH32 0x8C379A000000000000000000000000000000000000000000000000000000000 DUP2 MSTORE PUSH1 0x4 ADD PUSH2 0xF5D SWAP1 PUSH2 0x20AE JUMP JUMPDEST PUSH1 0x40 MLOAD DUP1 SWAP2 SUB SWAP1 REVERT JUMPDEST PUSH1 0x3 PUSH0 DUP2 SLOAD DUP1 SWAP3 SWAP2 SWAP1 PUSH2 0xF78 SWAP1 PUSH2 0x20CC JUMP JUMPDEST SWAP2 SWAP1 POP SSTORE POP PUSH0 PUSH1 0x2 PUSH0 PUSH1 0x3 SLOAD DUP2 MSTORE PUSH1 0x20 ADD SWAP1 DUP2 MSTORE PUSH1 0x20 ADD PUSH0 KECCAK256 SWAP1 POP PUSH1 0x3 SLOAD DUP2 PUSH0 ADD DUP2 SWAP1 SSTORE POP DUP2 DUP2 PUSH1 0x1 ADD DUP2 SWAP1 SSTORE POP CALLER DUP2 PUSH1 0x2 ADD PUSH0 PUSH2 0x100 EXP DUP2 SLOAD DUP2 PUSH20 0xFFFFFFFFFFFFFFFFFFFFFFFFFFFFFFFFFFFFFFFF MUL NOT AND SWAP1 DUP4 PUSH20 0xFFFFFFFFFFFFFFFFFFFFFFFFFFFFFFFFFFFFFFFF AND MUL OR SWAP1 SSTORE POP DUP4 DUP2 PUSH1 0x3 ADD PUSH0 PUSH2 0x100 EXP DUP2 SLOAD DUP2 PUSH20 0xFFFFFFFFFFFFFFFFFFFFFFFFFFFFFFFFFFFFFFFF MUL NOT AND SWAP1 DUP4 PUSH20 0xFFFFFFFFFFFFFFFFFFFFFFFFFFFFFFFFFFFFFFFF AND MUL OR SWAP1 SSTORE POP PUSH0 DUP2 PUSH1 0x3 ADD PUSH1 0x14 PUSH2 0x100 EXP DUP2 SLOAD DUP2 PUSH1 0xFF MUL NOT AND SWAP1 DUP4 PUSH1 0x7 DUP2 GT ISZERO PUSH2 0x1051 JUMPI PUSH2 0x1050 PUSH2 0x18E2 JUMP JUMPDEST JUMPDEST MUL OR SWAP1 SSTORE POP DUP3 DUP2 PUSH1 0x4 ADD DUP2 SWAP1 SSTORE POP PUSH1 0x3 SLOAD PUSH32 0x56560A52C047ED21FD801BF0F345B23D9AF696F7922FF8E63101AF5D48CADDAB CALLER DUP7 PUSH1 0x40 MLOAD PUSH2 0x1093 SWAP3 SWAP2 SWAP1 PUSH2 0x216E JUMP JUMPDEST PUSH1 0x40 MLOAD DUP1 SWAP2 SUB SWAP1 LOG2 POP POP POP POP JUMP JUMPDEST PUSH1 0x1 PUSH0 SWAP1 SLOAD SWAP1 PUSH2 0x100 EXP SWAP1 DIV PUSH20 0xFFFFFFFFFFFFFFFFFFFFFFFFFFFFFFFFFFFFFFFF AND PUSH20 0xFFFFFFFFFFFFFFFFFFFFFFFFFFFFFFFFFFFFFFFF AND CALLER PUSH20 0xFFFFFFFFFFFFFFFFFFFFFFFFFFFFFFFFFFFFFFFF AND EQ PUSH2 0x1130 JUMPI PUSH1 0x40 MLOAD PUSH32 0x8C379A000000000000000000000000000000000000000000000000000000000 DUP2 MSTORE PUSH1 0x4 ADD PUSH2 0x1127 SWAP1 PUSH2 0x21DF JUMP JUMPDEST PUSH1 0x40 MLOAD DUP1 SWAP2 SUB SWAP1 REVERT JUMPDEST PUSH0 PUSH1 0x2 PUSH0 DUP5 DUP2 MSTORE PUSH1 0x20 ADD SWAP1 DUP2 MSTORE PUSH1 0x20 ADD PUSH0 KECCAK256 SWAP1 POP PUSH1 0x2 PUSH1 0x7 DUP2 GT ISZERO PUSH2 0x1158 JUMPI PUSH2 0x1157 PUSH2 0x18E2 JUMP JUMPDEST JUMPDEST DUP2 PUSH1 0x3 ADD PUSH1 0x14 SWAP1 SLOAD SWAP1 PUSH2 0x100 EXP SWAP1 DIV PUSH1 0xFF AND PUSH1 0x7 DUP2 GT ISZERO PUSH2 0x117C JUMPI PUSH2 0x117B PUSH2 0x18E2 JUMP JUMPDEST JUMPDEST EQ PUSH2 0x11BC JUMPI PUSH1 0x40 MLOAD PUSH32 0x8C379A000000000000000000000000000000000000000000000000000000000 DUP2 MSTORE PUSH1 0x4 ADD PUSH2 0x11B3 SWAP1 PUSH2 0x1CA6 JUMP JUMPDEST PUSH1 0x40 MLOAD DUP1 SWAP2 SUB SWAP1 REVERT JUMPDEST DUP1 PUSH1 0x6 ADD PUSH0 SWAP1 SLOAD SWAP1 PUSH2 0x100 EXP SWAP1 DIV PUSH1 0xFF AND PUSH2 0x120C JUMPI PUSH1 0x40 MLOAD PUSH32 0x8C379A000000000000000000000000000000000000000000000000000000000 DUP2 MSTORE PUSH1 0x4 ADD PUSH2 0x1203 SWAP1 PUSH2 0x2247 JUMP JUMPDEST PUSH1 0x40 MLOAD DUP1 SWAP2 SUB SWAP1 REVERT JUMPDEST DUP2 DUP2 PUSH1 0x5 ADD SLOAD EQ PUSH2 0x1252 JUMPI PUSH1 0x40 MLOAD PUSH32 0x8C379A000000000000000000000000000000000000000000000000000000000 DUP2 MSTORE PUSH1 0x4 ADD PUSH2 0x1249 SWAP1 PUSH2 0x22AF JUMP JUMPDEST PUSH1 0x40 MLOAD DUP1 SWAP2 SUB SWAP1 REVERT JUMPDEST PUSH1 0x3 DUP2 PUSH1 0x3 ADD PUSH1 0x14 PUSH2 0x100 EXP DUP2 SLOAD DUP2 PUSH1 0xFF MUL NOT AND SWAP1 DUP4 PUSH1 0x7 DUP2 GT ISZERO PUSH2 0x127A JUMPI PUSH2 0x1279 PUSH2 0x18E2 JUMP JUMPDEST JUMPDEST MUL OR SWAP1 SSTORE POP DUP3 PUSH32 0x375B4005EEAE25D0E37D56E1B3841D3BB394B277EFA2548DE3293F5DCB7A3493 PUSH1 0x40 MLOAD PUSH1 0x40 MLOAD DUP1 SWAP2 SUB SWAP1 LOG2 POP POP POP JUMP JUMPDEST PUSH2 0x12B9 PUSH2 0x180B JUMP JUMPDEST DUP1 PUSH1 0x2 PUSH0 DUP3 DUP2 MSTORE PUSH1 0x20 ADD SWAP1 DUP2 MSTORE PUSH1 0x20 ADD PUSH0 KECCAK256 PUSH1 0x3 ADD PUSH0 SWAP1 SLOAD SWAP1 PUSH2 0x100 EXP SWAP1 DIV PUSH20 0xFFFFFFFFFFFFFFFFFFFFFFFFFFFFFFFFFFFFFFFF AND PUSH20 0xFFFFFFFFFFFFFFFFFFFFFFFFFFFFFFFFFFFFFFFF AND CALLER PUSH20 0xFFFFFFFFFFFFFFFFFFFFFFFFFFFFFFFFFFFFFFFF AND EQ PUSH2 0x135B JUMPI PUSH1 0x40 MLOAD PUSH32 0x8C379A000000000000000000000000000000000000000000000000000000000 DUP2 MSTORE PUSH1 0x4 ADD PUSH2 0x1352 SWAP1 PUSH2 0x1D6E JUMP JUMPDEST PUSH1 0x40 MLOAD DUP1 SWAP2 SUB SWAP1 REVERT JUMPDEST PUSH0 PUSH1 0x2 PUSH0 DUP5 DUP2 MSTORE PUSH1 0x20 ADD SWAP1 DUP2 MSTORE PUSH1 0x20 ADD PUSH0 KECCAK256 SWAP1 POP PUSH1 0x5 PUSH1 0x7 DUP2 GT ISZERO PUSH2 0x1383 JUMPI PUSH2 0x1382 PUSH2 0x18E2 JUMP JUMPDEST JUMPDEST DUP2 PUSH1 0x3 ADD PUSH1 0x14 SWAP1 SLOAD SWAP1 PUSH2 0x100 EXP SWAP1 DIV PUSH1 0xFF AND PUSH1 0x7 DUP2 GT ISZERO PUSH2 0x13A7 JUMPI PUSH2 0x13A6 PUSH2 0x18E2 JUMP JUMPDEST JUMPDEST EQ DUP1 PUSH2 0x13E8 JUMPI POP PUSH1 0x4 PUSH1 0x7 DUP2 GT ISZERO PUSH2 0x13C2 JUMPI PUSH2 0x13C1 PUSH2 0x18E2 JUMP JUMPDEST JUMPDEST DUP2 PUSH1 0x3 ADD PUSH1 0x14 SWAP1 SLOAD SWAP1 PUSH2 0x100 EXP SWAP1 DIV PUSH1 0xFF AND PUSH1 0x7 DUP2 GT ISZERO PUSH2 0x13E6 JUMPI PUSH2 0x13E5 PUSH2 0x18E2 JUMP JUMPDEST JUMPDEST EQ JUMPDEST PUSH2 0x1427 JUMPI PUSH1 0x40 MLOAD PUSH32 0x8C379A000000000000000000000000000000000000000000000000000000000 DUP2 MSTORE PUSH1 0x4 ADD PUSH2 0x141E SWAP1 PUSH2 0x2317 JUMP JUMPDEST PUSH1 0x40 MLOAD DUP1 SWAP2 SUB SWAP1 REVERT JUMPDEST PUSH0 DUP2 PUSH1 0x1 ADD SLOAD SWAP1 POP DUP1 PUSH1 0x4 PUSH0 CALLER PUSH20 0xFFFFFFFFFFFFFFFFFFFFFFFFFFFFFFFFFFFFFFFF AND PUSH20 0xFFFFFFFFFFFFFFFFFFFFFFFFFFFFFFFFFFFFFFFF AND DUP2 MSTORE PUSH1 0x20 ADD SWAP1 DUP2 MSTORE PUSH1 0x20 ADD PUSH0 KECCAK256 SLOAD LT ISZERO PUSH2 0x14AF JUMPI PUSH1 0x40 MLOAD PUSH32 0x8C379A000000000000000000000000000000000000000000000000000000000 DUP2 MSTORE PUSH1 0x4 ADD PUSH2 0x14A6 SWAP1 PUSH2 0x237F JUMP JUMPDEST PUSH1 0x40 MLOAD DUP1 SWAP2 SUB SWAP1 REVERT JUMPDEST DUP1 PUSH1 0x4 PUSH0 CALLER PUSH20 0xFFFFFFFFFFFFFFFFFFFFFFFFFFFFFFFFFFFFFFFF AND PUSH20 0xFFFFFFFFFFFFFFFFFFFFFFFFFFFFFFFFFFFFFFFF AND DUP2 MSTORE PUSH1 0x20 ADD SWAP1 DUP2 MSTORE PUSH1 0x20 ADD PUSH0 KECCAK256 PUSH0 DUP3 DUP3 SLOAD PUSH2 0x14FB SWAP2 SWAP1 PUSH2 0x239D JUMP JUMPDEST SWAP3 POP POP DUP2 SWAP1 SSTORE POP PUSH1 0x6 DUP3 PUSH1 0x3 ADD PUSH1 0x14 PUSH2 0x100 EXP DUP2 SLOAD DUP2 PUSH1 0xFF MUL NOT AND SWAP1 DUP4 PUSH1 0x7 DUP2 GT ISZERO PUSH2 0x152A JUMPI PUSH2 0x1529 PUSH2 0x18E2 JUMP JUMPDEST JUMPDEST MUL OR SWAP1 SSTORE POP CALLER PUSH20 0xFFFFFFFFFFFFFFFFFFFFFFFFFFFFFFFFFFFFFFFF AND PUSH2 0x8FC DUP3 SWAP1 DUP2 ISZERO MUL SWAP1 PUSH1 0x40 MLOAD PUSH0 PUSH1 0x40 MLOAD DUP1 DUP4 SUB DUP2 DUP6 DUP9 DUP9 CALL SWAP4 POP POP POP POP ISZERO DUP1 ISZERO PUSH2 0x1572 JUMPI RETURNDATASIZE PUSH0 PUSH0 RETURNDATACOPY RETURNDATASIZE PUSH0 REVERT JUMPDEST POP CALLER PUSH20 0xFFFFFFFFFFFFFFFFFFFFFFFFFFFFFFFFFFFFFFFF AND DUP5 PUSH32 0xF440AEC6B52895984D061D622E6EDEBA6210F7C3E059BE920663140C084560D7 DUP4 PUSH1 0x40 MLOAD PUSH2 0x15BA SWAP2 SWAP1 PUSH2 0x18C9 JUMP JUMPDEST PUSH1 0x40 MLOAD DUP1 SWAP2 SUB SWAP1 LOG3 POP POP POP PUSH2 0x15CD PUSH2 0x184F JUMP JUMPDEST POP JUMP JUMPDEST PUSH1 0x1 PUSH1 0x14 SWAP1 SLOAD SWAP1 PUSH2 0x100 EXP SWAP1 DIV PUSH1 0xFF AND DUP2 JUMP JUMPDEST PUSH1 0x4 PUSH1 0x20 MSTORE DUP1 PUSH0 MSTORE PUSH1 0x40 PUSH0 KECCAK256 PUSH0 SWAP2 POP SWAP1 POP SLOAD DUP2 JUMP JUMPDEST DUP2 PUSH1 0x2 PUSH0 DUP3 DUP2 MSTORE PUSH1 0x20 ADD SWAP1 DUP2 MSTORE PUSH1 0x20 ADD PUSH0 KECCAK256 PUSH1 0x3 ADD PUSH0 SWAP1 SLOAD SWAP1 PUSH2 0x100 EXP SWAP1 DIV PUSH20 0xFFFFFFFFFFFFFFFFFFFFFFFFFFFFFFFFFFFFFFFF AND PUSH20 0xFFFFFFFFFFFFFFFFFFFFFFFFFFFFFFFFFFFFFFFF AND CALLER PUSH20 0xFFFFFFFFFFFFFFFFFFFFFFFFFFFFFFFFFFFFFFFF AND EQ PUSH2 0x169A JUMPI PUSH1 0x40 MLOAD PUSH32 0x8C379A000000000000000000000000000000000000000000000000000000000 DUP2 MSTORE PUSH1 0x4 ADD PUSH2 0x1691 SWAP1 PUSH2 0x1D6E JUMP JUMPDEST PUSH1 0x40 MLOAD DUP1 SWAP2 SUB SWAP1 REVERT JUMPDEST PUSH0 PUSH1 0x2 PUSH0 DUP6 DUP2 MSTORE PUSH1 0x20 ADD SWAP1 DUP2 MSTORE PUSH1 0x20 ADD PUSH0 KECCAK256 SWAP1 POP PUSH1 0x1 PUSH1 0x7 DUP2 GT ISZERO PUSH2 0x16C2 JUMPI PUSH2 0x16C1 PUSH2 0x18E2 JUMP JUMPDEST JUMPDEST DUP2 PUSH1 0x3 ADD PUSH1 0x14 SWAP1 SLOAD SWAP1 PUSH2 0x100 EXP SWAP1 DIV PUSH1 0xFF AND PUSH1 0x7 DUP2 GT ISZERO PUSH2 0x16E6 JUMPI PUSH2 0x16E5 PUSH2 0x18E2 JUMP JUMPDEST JUMPDEST EQ PUSH2 0x1726 JUMPI PUSH1 0x40 MLOAD PUSH32 0x8C379A000000000000000000000000000000000000000000000000000000000 DUP2 MSTORE PUSH1 0x4 ADD PUSH2 0x171D SWAP1 PUSH2 0x241A JUMP JUMPDEST PUSH1 0x40 MLOAD DUP1 SWAP2 SUB SWAP1 REVERT JUMPDEST DUP1 PUSH1 0x6 ADD PUSH0 SWAP1 SLOAD SWAP1 PUSH2 0x100 EXP SWAP1 DIV PUSH1 0xFF AND ISZERO PUSH2 0x1777 JUMPI PUSH1 0x40 MLOAD PUSH32 0x8C379A000000000000000000000000000000000000000000000000000000000 DUP2 MSTORE PUSH1 0x4 ADD PUSH2 0x176E SWAP1 PUSH2 0x2482 JUMP JUMPDEST PUSH1 0x40 MLOAD DUP1 SWAP2 SUB SWAP1 REVERT JUMPDEST DUP3 DUP2 PUSH1 0x5 ADD DUP2 SWAP1 SSTORE POP PUSH1 0x1 DUP2 PUSH1 0x6 ADD PUSH0 PUSH2 0x100 EXP DUP2 SLOAD DUP2 PUSH1 0xFF MUL NOT AND SWAP1 DUP4 ISZERO ISZERO MUL OR SWAP1 SSTORE POP PUSH1 0x2 DUP2 PUSH1 0x3 ADD PUSH1 0x14 PUSH2 0x100 EXP DUP2 SLOAD DUP2 PUSH1 0xFF MUL NOT AND SWAP1 DUP4 PUSH1 0x7 DUP2 GT ISZERO PUSH2 0x17C4 JUMPI PUSH2 0x17C3 PUSH2 0x18E2 JUMP JUMPDEST JUMPDEST MUL OR SWAP1 SSTORE POP DUP4 PUSH32 0x4B70739C5F0BD46E19773020C599342CDBDC3AC59B5E0ABFDD9C1BB441BE59C8 DUP3 PUSH1 0x5 ADD SLOAD PUSH1 0x40 MLOAD PUSH2 0x17FD SWAP2 SWAP1 PUSH2 0x24A0 JUMP JUMPDEST PUSH1 0x40 MLOAD DUP1 SWAP2 SUB SWAP1 LOG2 POP POP POP POP JUMP JUMPDEST PUSH1 0x2 PUSH0 SLOAD SUB PUSH2 0x1846 JUMPI PUSH1 0x40 MLOAD PUSH32 0x3EE5AEB500000000000000000000000000000000000000000000000000000000 DUP2 MSTORE PUSH1 0x4 ADD PUSH1 0x40 MLOAD DUP1 SWAP2 SUB SWAP1 REVERT JUMPDEST PUSH1 0x2 PUSH0 DUP2 SWAP1 SSTORE POP JUMP JUMPDEST PUSH1 0x1 PUSH0 DUP2 SWAP1 SSTORE POP JUMP JUMPDEST PUSH0 PUSH0 REVERT JUMPDEST PUSH0 DUP2 SWAP1 POP SWAP2 SWAP1 POP JUMP JUMPDEST PUSH2 0x186E DUP2 PUSH2 0x185C JUMP JUMPDEST DUP2 EQ PUSH2 0x1878 JUMPI PUSH0 PUSH0 REVERT JUMPDEST POP JUMP JUMPDEST PUSH0 DUP2 CALLDATALOAD SWAP1 POP PUSH2 0x1889 DUP2 PUSH2 0x1865 JUMP JUMPDEST SWAP3 SWAP2 POP POP JUMP JUMPDEST PUSH0 PUSH1 0x20 DUP3 DUP5 SUB SLT ISZERO PUSH2 0x18A4 JUMPI PUSH2 0x18A3 PUSH2 0x1858 JUMP JUMPDEST JUMPDEST PUSH0 PUSH2 0x18B1 DUP5 DUP3 DUP6 ADD PUSH2 0x187B JUMP JUMPDEST SWAP2 POP POP SWAP3 SWAP2 POP POP JUMP JUMPDEST PUSH2 0x18C3 DUP2 PUSH2 0x185C JUMP JUMPDEST DUP3 MSTORE POP POP JUMP JUMPDEST PUSH0 PUSH1 0x20 DUP3 ADD SWAP1 POP PUSH2 0x18DC PUSH0 DUP4 ADD DUP5 PUSH2 0x18BA JUMP JUMPDEST SWAP3 SWAP2 POP POP JUMP JUMPDEST PUSH32 0x4E487B7100000000000000000000000000000000000000000000000000000000 PUSH0 MSTORE PUSH1 0x21 PUSH1 0x4 MSTORE PUSH1 0x24 PUSH0 REVERT JUMPDEST PUSH1 0x8 DUP2 LT PUSH2 0x1920 JUMPI PUSH2 0x191F PUSH2 0x18E2 JUMP JUMPDEST JUMPDEST POP JUMP JUMPDEST PUSH0 DUP2 SWAP1 POP PUSH2 0x1930 DUP3 PUSH2 0x190F JUMP JUMPDEST SWAP2 SWAP1 POP JUMP JUMPDEST PUSH0 PUSH2 0x193F DUP3 PUSH2 0x1923 JUMP JUMPDEST SWAP1 POP SWAP2 SWAP1 POP JUMP JUMPDEST PUSH2 0x194F DUP2 PUSH2 0x1935 JUMP JUMPDEST DUP3 MSTORE POP POP JUMP JUMPDEST PUSH0 PUSH1 0x20 DUP3 ADD SWAP1 POP PUSH2 0x1968 PUSH0 DUP4 ADD DUP5 PUSH2 0x1946 JUMP JUMPDEST SWAP3 SWAP2 POP POP JUMP JUMPDEST PUSH0 PUSH20 0xFFFFFFFFFFFFFFFFFFFFFFFFFFFFFFFFFFFFFFFF DUP3 AND SWAP1 POP SWAP2 SWAP1 POP JUMP JUMPDEST PUSH0 PUSH2 0x1997 DUP3 PUSH2 0x196E JUMP JUMPDEST SWAP1 POP SWAP2 SWAP1 POP JUMP JUMPDEST PUSH2 0x19A7 DUP2 PUSH2 0x198D JUMP JUMPDEST DUP3 MSTORE POP POP JUMP JUMPDEST PUSH0 DUP2 SWAP1 POP SWAP2 SWAP1 POP JUMP JUMPDEST PUSH2 0x19BF DUP2 PUSH2 0x19AD JUMP JUMPDEST DUP3 MSTORE POP POP JUMP JUMPDEST PUSH0 DUP2 ISZERO ISZERO SWAP1 POP SWAP2 SWAP1 POP JUMP JUMPDEST PUSH2 0x19D9 DUP2 PUSH2 0x19C5 JUMP JUMPDEST DUP3 MSTORE POP POP JUMP JUMPDEST PUSH0 PUSH2 0x100 DUP3 ADD SWAP1 POP PUSH2 0x19F3 PUSH0 DUP4 ADD DUP12 PUSH2 0x18BA JUMP JUMPDEST PUSH2 0x1A00 PUSH1 0x20 DUP4 ADD DUP11 PUSH2 0x18BA JUMP JUMPDEST PUSH2 0x1A0D PUSH1 0x40 DUP4 ADD DUP10 PUSH2 0x199E JUMP JUMPDEST PUSH2 0x1A1A PUSH1 0x60 DUP4 ADD DUP9 PUSH2 0x199E JUMP JUMPDEST PUSH2 0x1A27 PUSH1 0x80 DUP4 ADD DUP8 PUSH2 0x1946 JUMP JUMPDEST PUSH2 0x1A34 PUSH1 0xA0 DUP4 ADD DUP7 PUSH2 0x19B6 JUMP JUMPDEST PUSH2 0x1A41 PUSH1 0xC0 DUP4 ADD DUP6 PUSH2 0x19B6 JUMP JUMPDEST PUSH2 0x1A4E PUSH1 0xE0 DUP4 ADD DUP5 PUSH2 0x19D0 JUMP JUMPDEST SWAP10 SWAP9 POP POP POP POP POP POP POP POP POP JUMP JUMPDEST PUSH0 PUSH2 0x1A65 DUP3 PUSH2 0x196E JUMP JUMPDEST SWAP1 POP SWAP2 SWAP1 POP JUMP JUMPDEST PUSH2 0x1A75 DUP2 PUSH2 0x1A5B JUMP JUMPDEST DUP2 EQ PUSH2 0x1A7F JUMPI PUSH0 PUSH0 REVERT JUMPDEST POP JUMP JUMPDEST PUSH0 DUP2 CALLDATALOAD SWAP1 POP PUSH2 0x1A90 DUP2 PUSH2 0x1A6C JUMP JUMPDEST SWAP3 SWAP2 POP POP JUMP JUMPDEST PUSH0 PUSH1 0x20 DUP3 DUP5 SUB SLT ISZERO PUSH2 0x1AAB JUMPI PUSH2 0x1AAA PUSH2 0x1858 JUMP JUMPDEST JUMPDEST PUSH0 PUSH2 0x1AB8 DUP5 DUP3 DUP6 ADD PUSH2 0x1A82 JUMP JUMPDEST SWAP2 POP POP SWAP3 SWAP2 POP POP JUMP JUMPDEST PUSH2 0x1ACA DUP2 PUSH2 0x1A5B JUMP JUMPDEST DUP3 MSTORE POP POP JUMP JUMPDEST PUSH0 PUSH1 0x20 DUP3 ADD SWAP1 POP PUSH2 0x1AE3 PUSH0 DUP4 ADD DUP5 PUSH2 0x1AC1 JUMP JUMPDEST SWAP3 SWAP2 POP POP JUMP JUMPDEST PUSH2 0x1AF2 DUP2 PUSH2 0x198D JUMP JUMPDEST DUP2 EQ PUSH2 0x1AFC JUMPI PUSH0 PUSH0 REVERT JUMPDEST POP JUMP JUMPDEST PUSH0 DUP2 CALLDATALOAD SWAP1 POP PUSH2 0x1B0D DUP2 PUSH2 0x1AE9 JUMP JUMPDEST SWAP3 SWAP2 POP POP JUMP JUMPDEST PUSH2 0x1B1C DUP2 PUSH2 0x19AD JUMP JUMPDEST DUP2 EQ PUSH2 0x1B26 JUMPI PUSH0 PUSH0 REVERT JUMPDEST POP JUMP JUMPDEST PUSH0 DUP2 CALLDATALOAD SWAP1 POP PUSH2 0x1B37 DUP2 PUSH2 0x1B13 JUMP JUMPDEST SWAP3 SWAP2 POP POP JUMP JUMPDEST PUSH0 PUSH0 PUSH0 PUSH1 0x60 DUP5 DUP7 SUB SLT ISZERO PUSH2 0x1B54 JUMPI PUSH2 0x1B53 PUSH2 0x1858 JUMP JUMPDEST JUMPDEST PUSH0 PUSH2 0x1B61 DUP7 DUP3 DUP8 ADD PUSH2 0x1AFF JUMP JUMPDEST SWAP4 POP POP PUSH1 0x20 PUSH2 0x1B72 DUP7 DUP3 DUP8 ADD PUSH2 0x1B29 JUMP JUMPDEST SWAP3 POP POP PUSH1 0x40 PUSH2 0x1B83 DUP7 DUP3 DUP8 ADD PUSH2 0x187B JUMP JUMPDEST SWAP2 POP POP SWAP3 POP SWAP3 POP SWAP3 JUMP JUMPDEST PUSH0 PUSH0 PUSH1 0x40 DUP4 DUP6 SUB SLT ISZERO PUSH2 0x1BA3 JUMPI PUSH2 0x1BA2 PUSH2 0x1858 JUMP JUMPDEST JUMPDEST PUSH0 PUSH2 0x1BB0 DUP6 DUP3 DUP7 ADD PUSH2 0x187B JUMP JUMPDEST SWAP3 POP POP PUSH1 0x20 PUSH2 0x1BC1 DUP6 DUP3 DUP7 ADD PUSH2 0x1B29 JUMP JUMPDEST SWAP2 POP POP SWAP3 POP SWAP3 SWAP1 POP JUMP JUMPDEST PUSH0 PUSH1 0x20 DUP3 ADD SWAP1 POP PUSH2 0x1BDE PUSH0 DUP4 ADD DUP5 PUSH2 0x19D0 JUMP JUMPDEST SWAP3 SWAP2 POP POP JUMP JUMPDEST PUSH0 DUP3 DUP3 MSTORE PUSH1 0x20 DUP3 ADD SWAP1 POP SWAP3 SWAP2 POP POP JUMP JUMPDEST PUSH32 0x4E6F742063726561746F72000000000000000000000000000000000000000000 PUSH0 DUP3 ADD MSTORE POP JUMP JUMPDEST PUSH0 PUSH2 0x1C28 PUSH1 0xB DUP4 PUSH2 0x1BE4 JUMP JUMPDEST SWAP2 POP PUSH2 0x1C33 DUP3 PUSH2 0x1BF4 JUMP JUMPDEST PUSH1 0x20 DUP3 ADD SWAP1 POP SWAP2 SWAP1 POP JUMP JUMPDEST PUSH0 PUSH1 0x20 DUP3 ADD SWAP1 POP DUP2 DUP2 SUB PUSH0 DUP4 ADD MSTORE PUSH2 0x1C55 DUP2 PUSH2 0x1C1C JUMP JUMPDEST SWAP1 POP SWAP2 SWAP1 POP JUMP JUMPDEST PUSH32 0x57726F6E67207374617475730000000000000000000000000000000000000000 PUSH0 DUP3 ADD MSTORE POP JUMP JUMPDEST PUSH0 PUSH2 0x1C90 PUSH1 0xC DUP4 PUSH2 0x1BE4 JUMP JUMPDEST SWAP2 POP PUSH2 0x1C9B DUP3 PUSH2 0x1C5C JUMP JUMPDEST PUSH1 0x20 DUP3 ADD SWAP1 POP SWAP2 SWAP1 POP JUMP JUMPDEST PUSH0 PUSH1 0x20 DUP3 ADD SWAP1 POP DUP2 DUP2 SUB PUSH0 DUP4 ADD MSTORE PUSH2 0x1CBD DUP2 PUSH2 0x1C84 JUMP JUMPDEST SWAP1 POP SWAP2 SWAP1 POP JUMP JUMPDEST PUSH32 0x4E487B7100000000000000000000000000000000000000000000000000000000 PUSH0 MSTORE PUSH1 0x11 PUSH1 0x4 MSTORE PUSH1 0x24 PUSH0 REVERT JUMPDEST PUSH0 PUSH2 0x1CFB DUP3 PUSH2 0x185C JUMP JUMPDEST SWAP2 POP PUSH2 0x1D06 DUP4 PUSH2 0x185C JUMP JUMPDEST SWAP3 POP DUP3 DUP3 ADD SWAP1 POP DUP1 DUP3 GT ISZERO PUSH2 0x1D1E JUMPI PUSH2 0x1D1D PUSH2 0x1CC4 JUMP JUMPDEST JUMPDEST SWAP3 SWAP2 POP POP JUMP JUMPDEST PUSH32 0x4E6F7420636F756E746572706172747900000000000000000000000000000000 PUSH0 DUP3 ADD MSTORE POP JUMP JUMPDEST PUSH0 PUSH2 0x1D58 PUSH1 0x10 DUP4 PUSH2 0x1BE4 JUMP JUMPDEST SWAP2 POP PUSH2 0x1D63 DUP3 PUSH2 0x1D24 JUMP JUMPDEST PUSH1 0x20 DUP3 ADD SWAP1 POP SWAP2 SWAP1 POP JUMP JUMPDEST PUSH0 PUSH1 0x20 DUP3 ADD SWAP1 POP DUP2 DUP2 SUB PUSH0 DUP4 ADD MSTORE PUSH2 0x1D85 DUP2 PUSH2 0x1D4C JUMP JUMPDEST SWAP1 POP SWAP2 SWAP1 POP JUMP JUMPDEST PUSH32 0x4F6E6C7920436F6D706C65746564000000000000000000000000000000000000 PUSH0 DUP3 ADD MSTORE POP JUMP JUMPDEST PUSH0 PUSH2 0x1DC0 PUSH1 0xE DUP4 PUSH2 0x1BE4 JUMP JUMPDEST SWAP2 POP PUSH2 0x1DCB DUP3 PUSH2 0x1D8C JUMP JUMPDEST PUSH1 0x20 DUP3 ADD SWAP1 POP SWAP2 SWAP1 POP JUMP JUMPDEST PUSH0 PUSH1 0x20 DUP3 ADD SWAP1 POP DUP2 DUP2 SUB PUSH0 DUP4 ADD MSTORE PUSH2 0x1DED DUP2 PUSH2 0x1DB4 JUMP JUMPDEST SWAP1 POP SWAP2 SWAP1 POP JUMP JUMPDEST PUSH32 0x4F7261636C6520616C7265616479207365740000000000000000000000000000 PUSH0 DUP3 ADD MSTORE POP JUMP JUMPDEST PUSH0 PUSH2 0x1E28 PUSH1 0x12 DUP4 PUSH2 0x1BE4 JUMP JUMPDEST SWAP2 POP PUSH2 0x1E33 DUP3 PUSH2 0x1DF4 JUMP JUMPDEST PUSH1 0x20 DUP3 ADD SWAP1 POP SWAP2 SWAP1 POP JUMP JUMPDEST PUSH0 PUSH1 0x20 DUP3 ADD SWAP1 POP DUP2 DUP2 SUB PUSH0 DUP4 ADD MSTORE PUSH2 0x1E55 DUP2 PUSH2 0x1E1C JUMP JUMPDEST SWAP1 POP SWAP2 SWAP1 POP JUMP JUMPDEST PUSH32 0x496E76616C6964206F7261636C65000000000000000000000000000000000000 PUSH0 DUP3 ADD MSTORE POP JUMP JUMPDEST PUSH0 PUSH2 0x1E90 PUSH1 0xE DUP4 PUSH2 0x1BE4 JUMP JUMPDEST SWAP2 POP PUSH2 0x1E9B DUP3 PUSH2 0x1E5C JUMP JUMPDEST PUSH1 0x20 DUP3 ADD SWAP1 POP SWAP2 SWAP1 POP JUMP JUMPDEST PUSH0 PUSH1 0x20 DUP3 ADD SWAP1 POP DUP2 DUP2 SUB PUSH0 DUP4 ADD MSTORE PUSH2 0x1EBD DUP2 PUSH2 0x1E84 JUMP JUMPDEST SWAP1 POP SWAP2 SWAP1 POP JUMP JUMPDEST PUSH32 0x4E6F74207369676E656400000000000000000000000000000000000000000000 PUSH0 DUP3 ADD MSTORE POP JUMP JUMPDEST PUSH0 PUSH2 0x1EF8 PUSH1 0xA DUP4 PUSH2 0x1BE4 JUMP JUMPDEST SWAP2 POP PUSH2 0x1F03 DUP3 PUSH2 0x1EC4 JUMP JUMPDEST PUSH1 0x20 DUP3 ADD SWAP1 POP SWAP2 SWAP1 POP JUMP JUMPDEST PUSH0 PUSH1 0x20 DUP3 ADD SWAP1 POP DUP2 DUP2 SUB PUSH0 DUP4 ADD MSTORE PUSH2 0x1F25 DUP2 PUSH2 0x1EEC JUMP JUMPDEST SWAP1 POP SWAP2 SWAP1 POP JUMP JUMPDEST PUSH32 0x44656C697665727920666C6F7720726571756972656400000000000000000000 PUSH0 DUP3 ADD MSTORE POP JUMP JUMPDEST PUSH0 PUSH2 0x1F60 PUSH1 0x16 DUP4 PUSH2 0x1BE4 JUMP JUMPDEST SWAP2 POP PUSH2 0x1F6B DUP3 PUSH2 0x1F2C JUMP JUMPDEST PUSH1 0x20 DUP3 ADD SWAP1 POP SWAP2 SWAP1 POP JUMP JUMPDEST PUSH0 PUSH1 0x20 DUP3 ADD SWAP1 POP DUP2 DUP2 SUB PUSH0 DUP4 ADD MSTORE PUSH2 0x1F8D DUP2 PUSH2 0x1F54 JUMP JUMPDEST SWAP1 POP SWAP2 SWAP1 POP JUMP JUMPDEST PUSH32 0x4E6F742043726561746564000000000000000000000000000000000000000000 PUSH0 DUP3 ADD MSTORE POP JUMP JUMPDEST PUSH0 PUSH2 0x1FC8 PUSH1 0xB DUP4 PUSH2 0x1BE4 JUMP JUMPDEST SWAP2 POP PUSH2 0x1FD3 DUP3 PUSH2 0x1F94 JUMP JUMPDEST PUSH1 0x20 DUP3 ADD SWAP1 POP SWAP2 SWAP1 POP JUMP JUMPDEST PUSH0 PUSH1 0x20 DUP3 ADD SWAP1 POP DUP2 DUP2 SUB PUSH0 DUP4 ADD MSTORE PUSH2 0x1FF5 DUP2 PUSH2 0x1FBC JUMP JUMPDEST SWAP1 POP SWAP2 SWAP1 POP JUMP JUMPDEST PUSH32 0x302061646472206E6F7420616C6C6F7765640000000000000000000000000000 PUSH0 DUP3 ADD MSTORE POP JUMP JUMPDEST PUSH0 PUSH2 0x2030 PUSH1 0x12 DUP4 PUSH2 0x1BE4 JUMP JUMPDEST SWAP2 POP PUSH2 0x203B DUP3 PUSH2 0x1FFC JUMP JUMPDEST PUSH1 0x20 DUP3 ADD SWAP1 POP SWAP2 SWAP1 POP JUMP JUMPDEST PUSH0 PUSH1 0x20 DUP3 ADD SWAP1 POP DUP2 DUP2 SUB PUSH0 DUP4 ADD MSTORE PUSH2 0x205D DUP2 PUSH2 0x2024 JUMP JUMPDEST SWAP1 POP SWAP2 SWAP1 POP JUMP JUMPDEST PUSH32 0x455448206D69736D617463680000000000000000000000000000000000000000 PUSH0 DUP3 ADD MSTORE POP JUMP JUMPDEST PUSH0 PUSH2 0x2098 PUSH1 0xC DUP4 PUSH2 0x1BE4 JUMP JUMPDEST SWAP2 POP PUSH2 0x20A3 DUP3 PUSH2 0x2064 JUMP JUMPDEST PUSH1 0x20 DUP3 ADD SWAP1 POP SWAP2 SWAP1 POP JUMP JUMPDEST PUSH0 PUSH1 0x20 DUP3 ADD SWAP1 POP DUP2 DUP2 SUB PUSH0 DUP4 ADD MSTORE PUSH2 0x20C5 DUP2 PUSH2 0x208C JUMP JUMPDEST SWAP1 POP SWAP2 SWAP1 POP JUMP JUMPDEST PUSH0 PUSH2 0x20D6 DUP3 PUSH2 0x185C JUMP JUMPDEST SWAP2 POP PUSH32 0xFFFFFFFFFFFFFFFFFFFFFFFFFFFFFFFFFFFFFFFFFFFFFFFFFFFFFFFFFFFFFFFF DUP3 SUB PUSH2 0x2108 JUMPI PUSH2 0x2107 PUSH2 0x1CC4 JUMP JUMPDEST JUMPDEST PUSH1 0x1 DUP3 ADD SWAP1 POP SWAP2 SWAP1 POP JUMP JUMPDEST PUSH0 DUP2 SWAP1 POP SWAP2 SWAP1 POP JUMP JUMPDEST PUSH0 PUSH2 0x2136 PUSH2 0x2131 PUSH2 0x212C DUP5 PUSH2 0x196E JUMP JUMPDEST PUSH2 0x2113 JUMP JUMPDEST PUSH2 0x196E JUMP JUMPDEST SWAP1 POP SWAP2 SWAP1 POP JUMP JUMPDEST PUSH0 PUSH2 0x2147 DUP3 PUSH2 0x211C JUMP JUMPDEST SWAP1 POP SWAP2 SWAP1 POP JUMP JUMPDEST PUSH0 PUSH2 0x2158 DUP3 PUSH2 0x213D JUMP JUMPDEST SWAP1 POP SWAP2 SWAP1 POP JUMP JUMPDEST PUSH2 0x2168 DUP2 PUSH2 0x214E JUMP JUMPDEST DUP3 MSTORE POP POP JUMP JUMPDEST PUSH0 PUSH1 0x40 DUP3 ADD SWAP1 POP PUSH2 0x2181 PUSH0 DUP4 ADD DUP6 PUSH2 0x1AC1 JUMP JUMPDEST PUSH2 0x218E PUSH1 0x20 DUP4 ADD DUP5 PUSH2 0x215F JUMP JUMPDEST SWAP4 SWAP3 POP POP POP JUMP JUMPDEST PUSH32 0x4E6F74206F7261636C6500000000000000000000000000000000000000000000 PUSH0 DUP3 ADD MSTORE POP JUMP JUMPDEST PUSH0 PUSH2 0x21C9 PUSH1 0xA DUP4 PUSH2 0x1BE4 JUMP JUMPDEST SWAP2 POP PUSH2 0x21D4 DUP3 PUSH2 0x2195 JUMP JUMPDEST PUSH1 0x20 DUP3 ADD SWAP1 POP SWAP2 SWAP1 POP JUMP JUMPDEST PUSH0 PUSH1 0x20 DUP3 ADD SWAP1 POP DUP2 DUP2 SUB PUSH0 DUP4 ADD MSTORE PUSH2 0x21F6 DUP2 PUSH2 0x21BD JUMP JUMPDEST SWAP1 POP SWAP2 SWAP1 POP JUMP JUMPDEST PUSH32 0x4E6F2064656C6976657279000000000000000000000000000000000000000000 PUSH0 DUP3 ADD MSTORE POP JUMP JUMPDEST PUSH0 PUSH2 0x2231 PUSH1 0xB DUP4 PUSH2 0x1BE4 JUMP JUMPDEST SWAP2 POP PUSH2 0x223C DUP3 PUSH2 0x21FD JUMP JUMPDEST PUSH1 0x20 DUP3 ADD SWAP1 POP SWAP2 SWAP1 POP JUMP JUMPDEST PUSH0 PUSH1 0x20 DUP3 ADD SWAP1 POP DUP2 DUP2 SUB PUSH0 DUP4 ADD MSTORE PUSH2 0x225E DUP2 PUSH2 0x2225 JUMP JUMPDEST SWAP1 POP SWAP2 SWAP1 POP JUMP JUMPDEST PUSH32 0x48617368206D69736D6174636800000000000000000000000000000000000000 PUSH0 DUP3 ADD MSTORE POP JUMP JUMPDEST PUSH0 PUSH2 0x2299 PUSH1 0xD DUP4 PUSH2 0x1BE4 JUMP JUMPDEST SWAP2 POP PUSH2 0x22A4 DUP3 PUSH2 0x2265 JUMP JUMPDEST PUSH1 0x20 DUP3 ADD SWAP1 POP SWAP2 SWAP1 POP JUMP JUMPDEST PUSH0 PUSH1 0x20 DUP3 ADD SWAP1 POP DUP2 DUP2 SUB PUSH0 DUP4 ADD MSTORE PUSH2 0x22C6 DUP2 PUSH2 0x228D JUMP JUMPDEST SWAP1 POP SWAP2 SWAP1 POP JUMP JUMPDEST PUSH32 0x4E6F7420776974686472617761626C6500000000000000000000000000000000 PUSH0 DUP3 ADD MSTORE POP JUMP JUMPDEST PUSH0 PUSH2 0x2301 PUSH1 0x10 DUP4 PUSH2 0x1BE4 JUMP JUMPDEST SWAP2 POP PUSH2 0x230C DUP3 PUSH2 0x22CD JUMP JUMPDEST PUSH1 0x20 DUP3 ADD SWAP1 POP SWAP2 SWAP1 POP JUMP JUMPDEST PUSH0 PUSH1 0x20 DUP3 ADD SWAP1 POP DUP2 DUP2 SUB PUSH0 DUP4 ADD MSTORE PUSH2 0x232E DUP2 PUSH2 0x22F5 JUMP JUMPDEST SWAP1 POP SWAP2 SWAP1 POP JUMP JUMPDEST PUSH32 0x4E6F2062616C616E636500000000000000000000000000000000000000000000 PUSH0 DUP3 ADD MSTORE POP JUMP JUMPDEST PUSH0 PUSH2 0x2369 PUSH1 0xA DUP4 PUSH2 0x1BE4 JUMP JUMPDEST SWAP2 POP PUSH2 0x2374 DUP3 PUSH2 0x2335 JUMP JUMPDEST PUSH1 0x20 DUP3 ADD SWAP1 POP SWAP2 SWAP1 POP JUMP JUMPDEST PUSH0 PUSH1 0x20 DUP3 ADD SWAP1 POP DUP2 DUP2 SUB PUSH0 DUP4 ADD MSTORE PUSH2 0x2396 DUP2 PUSH2 0x235D JUMP JUMPDEST SWAP1 POP SWAP2 SWAP1 POP JUMP JUMPDEST PUSH0 PUSH2 0x23A7 DUP3 PUSH2 0x185C JUMP JUMPDEST SWAP2 POP PUSH2 0x23B2 DUP4 PUSH2 0x185C JUMP JUMPDEST SWAP3 POP DUP3 DUP3 SUB SWAP1 POP DUP2 DUP2 GT ISZERO PUSH2 0x23CA JUMPI PUSH2 0x23C9 PUSH2 0x1CC4 JUMP JUMPDEST JUMPDEST SWAP3 SWAP2 POP POP JUMP JUMPDEST PUSH32 0x4E6F74205369676E656400000000000000000000000000000000000000000000 PUSH0 DUP3 ADD MSTORE POP JUMP JUMPDEST PUSH0 PUSH2 0x2404 PUSH1 0xA DUP4 PUSH2 0x1BE4 JUMP JUMPDEST SWAP2 POP PUSH2 0x240F DUP3 PUSH2 0x23D0 JUMP JUMPDEST PUSH1 0x20 DUP3 ADD SWAP1 POP SWAP2 SWAP1 POP JUMP JUMPDEST PUSH0 PUSH1 0x20 DUP3 ADD SWAP1 POP DUP2 DUP2 SUB PUSH0 DUP4 ADD MSTORE PUSH2 0x2431 DUP2 PUSH2 0x23F8 JUMP JUMPDEST SWAP1 POP SWAP2 SWAP1 POP JUMP JUMPDEST PUSH32 0x416C726561647920736574000000000000000000000000000000000000000000 PUSH0 DUP3 ADD MSTORE POP JUMP JUMPDEST PUSH0 PUSH2 0x246C PUSH1 0xB DUP4 PUSH2 0x1BE4 JUMP JUMPDEST SWAP2 POP PUSH2 0x2477 DUP3 PUSH2 0x2438 JUMP JUMPDEST PUSH1 0x20 DUP3 ADD SWAP1 POP SWAP2 SWAP1 POP JUMP JUMPDEST PUSH0 PUSH1 0x20 DUP3 ADD SWAP1 POP DUP2 DUP2 SUB PUSH0 DUP4 ADD MSTORE PUSH2 0x2499 DUP2 PUSH2 0x2460 JUMP JUMPDEST SWAP1 POP SWAP2 SWAP1 POP JUMP JUMPDEST PUSH0 PUSH1 0x20 DUP3 ADD SWAP1 POP PUSH2 0x24B3 PUSH0 DUP4 ADD DUP5 PUSH2 0x19B6 JUMP JUMPDEST SWAP3 SWAP2 POP POP JUMP INVALID LOG2 PUSH5 0x6970667358 0x22 SLT KECCAK256 DUP6 0xC8 PREVRANDAO SWAP8 EXTDELEGATECALL SWAP6 0xB4 PUSH2 0x897E SWAP4 0xCB BLOBBASEFEE PUSH14 0x84E573D4450CD05033FCE2AEE8DF SWAP4 0xBD 0xEB SWAP7 PUSH5 0x736F6C6343 STOP ADDMOD 0x1E STOP CALLER "
				},
				"gasEstimates": {
					"creation": {
						"codeDepositCost": "1891000",
						"executionCost": "24109",
						"totalCost": "1915109"
					},
					"external": {
						"approveDeliveryAsCreator(uint256)": "infinite",
						"confirmCompletion(uint256)": "infinite",
						"confirmDeliveryByOracle(uint256,bytes32)": "34969",
						"contractCounter()": "2471",
						"contracts(uint256)": "infinite",
						"createContract(address,bytes32,uint256)": "infinite",
						"deactivateContract(uint256)": "42817",
						"getContractStatus(uint256)": "3023",
						"oracle()": "2597",
						"oracleSet()": "2561",
						"pendingWithdrawals(address)": "2868",
						"setDeliveryTracking(uint256,bytes32)": "infinite",
						"setOracle(address)": "52500",
						"signContract(uint256)": "30554",
						"withdrawFundsFrom(uint256)": "infinite"
					}
				},
				"methodIdentifiers": {
					"approveDeliveryAsCreator(uint256)": "032ca42d",
					"confirmCompletion(uint256)": "94aeb613",
					"confirmDeliveryByOracle(uint256,bytes32)": "a78d9bab",
					"contractCounter()": "067bd3b4",
					"contracts(uint256)": "474da79a",
					"createContract(address,bytes32,uint256)": "9cc437ba",
					"deactivateContract(uint256)": "22a45cd0",
					"getContractStatus(uint256)": "17b18458",
					"oracle()": "7dc0d1d0",
					"oracleSet()": "edb3b27a",
					"pendingWithdrawals(address)": "f3f43703",
					"setDeliveryTracking(uint256,bytes32)": "f436199d",
					"setOracle(address)": "7adbf973",
					"signContract(uint256)": "9537e8d1",
					"withdrawFundsFrom(uint256)": "df5c2980"
				}
			},
			"storageLayout": {
				"storage": [
					{
						"astId": 10,
						"contract": "digital_contract.sol:ContractManager",
						"label": "_status",
						"offset": 0,
						"slot": "0",
						"type": "t_uint256"
					},
					{
						"astId": 102,
						"contract": "digital_contract.sol:ContractManager",
						"label": "oracle",
						"offset": 0,
						"slot": "1",
						"type": "t_address"
					},
					{
						"astId": 104,
						"contract": "digital_contract.sol:ContractManager",
						"label": "oracleSet",
						"offset": 20,
						"slot": "1",
						"type": "t_bool"
					},
					{
						"astId": 109,
						"contract": "digital_contract.sol:ContractManager",
						"label": "contracts",
						"offset": 0,
						"slot": "2",
						"type": "t_mapping(t_uint256,t_struct(ManagedContract)100_storage)"
					},
					{
						"astId": 111,
						"contract": "digital_contract.sol:ContractManager",
						"label": "contractCounter",
						"offset": 0,
						"slot": "3",
						"type": "t_uint256"
					},
					{
						"astId": 115,
						"contract": "digital_contract.sol:ContractManager",
						"label": "pendingWithdrawals",
						"offset": 0,
						"slot": "4",
						"type": "t_mapping(t_address,t_uint256)"
					}
				],
				"types": {
					"t_address": {
						"encoding": "inplace",
						"label": "address",
						"numberOfBytes": "20"
					},
					"t_address_payable": {
						"encoding": "inplace",
						"label": "address payable",
						"numberOfBytes": "20"
					},
					"t_bool": {
						"encoding": "inplace",
						"label": "bool",
						"numberOfBytes": "1"
					},
					"t_bytes32": {
						"encoding": "inplace",
						"label": "bytes32",
						"numberOfBytes": "32"
					},
					"t_enum(ContractStatus)82": {
						"encoding": "inplace",
						"label": "enum ContractManager.ContractStatus",
						"numberOfBytes": "1"
					},
					"t_mapping(t_address,t_uint256)": {
						"encoding": "mapping",
						"key": "t_address",
						"label": "mapping(address => uint256)",
						"numberOfBytes": "32",
						"value": "t_uint256"
					},
					"t_mapping(t_uint256,t_struct(ManagedContract)100_storage)": {
						"encoding": "mapping",
						"key": "t_uint256",
						"label": "mapping(uint256 => struct ContractManager.ManagedContract)",
						"numberOfBytes": "32",
						"value": "t_struct(ManagedContract)100_storage"
					},
					"t_struct(ManagedContract)100_storage": {
						"encoding": "inplace",
						"label": "struct ContractManager.ManagedContract",
						"members": [
							{
								"astId": 84,
								"contract": "digital_contract.sol:ContractManager",
								"label": "id",
								"offset": 0,
								"slot": "0",
								"type": "t_uint256"
							},
							{
								"astId": 86,
								"contract": "digital_contract.sol:ContractManager",
								"label": "amount",
								"offset": 0,
								"slot": "1",
								"type": "t_uint256"
							},
							{
								"astId": 88,
								"contract": "digital_contract.sol:ContractManager",
								"label": "creator",
								"offset": 0,
								"slot": "2",
								"type": "t_address_payable"
							},
							{
								"astId": 90,
								"contract": "digital_contract.sol:ContractManager",
								"label": "counterparty",
								"offset": 0,
								"slot": "3",
								"type": "t_address_payable"
							},
							{
								"astId": 93,
								"contract": "digital_contract.sol:ContractManager",
								"label": "status",
								"offset": 20,
								"slot": "3",
								"type": "t_enum(ContractStatus)82"
							},
							{
								"astId": 95,
								"contract": "digital_contract.sol:ContractManager",
								"label": "contractHash",
								"offset": 0,
								"slot": "4",
								"type": "t_bytes32"
							},
							{
								"astId": 97,
								"contract": "digital_contract.sol:ContractManager",
								"label": "deliveryTrackingHash",
								"offset": 0,
								"slot": "5",
								"type": "t_bytes32"
							},
							{
								"astId": 99,
								"contract": "digital_contract.sol:ContractManager",
								"label": "deliveryRequired",
								"offset": 0,
								"slot": "6",
								"type": "t_bool"
							}
						],
						"numberOfBytes": "224"
					},
					"t_uint256": {
						"encoding": "inplace",
						"label": "uint256",
						"numberOfBytes": "32"
					}
				}
			},
			"userdoc": {
				"kind": "user",
				"methods": {},
				"version": 1
			}
		}
	}
}