{
	"digital_contract.sol": {
		"DigitalContractPlatform": {
			"abi": [
				{
					"anonymous": false,
					"inputs": [
						{
							"indexed": true,
							"internalType": "uint256",
							"name": "contractId",
							"type": "uint256"
						},
						{
							"indexed": false,
							"internalType": "address",
							"name": "creator",
							"type": "address"
						},
						{
							"indexed": false,
							"internalType": "address",
							"name": "counterparty",
							"type": "address"
						}
					],
					"name": "ContractCreated",
					"type": "event"
				},
				{
					"anonymous": false,
					"inputs": [
						{
							"indexed": true,
							"internalType": "uint256",
							"name": "contractId",
							"type": "uint256"
						}
					],
					"name": "ContractSigned",
					"type": "event"
				},
				{
					"anonymous": false,
					"inputs": [
						{
							"indexed": true,
							"internalType": "address",
							"name": "account",
							"type": "address"
						},
						{
							"indexed": false,
							"internalType": "uint256",
							"name": "amount",
							"type": "uint256"
						}
					],
					"name": "FundsWithdrawn",
					"type": "event"
				},
				{
					"anonymous": false,
					"inputs": [
						{
							"indexed": true,
							"internalType": "uint256",
							"name": "contractId",
							"type": "uint256"
						},
						{
							"indexed": false,
							"internalType": "uint256",
							"name": "amount",
							"type": "uint256"
						}
					],
					"name": "PaymentReleased",
					"type": "event"
				},
				{
					"inputs": [
						{
							"internalType": "uint256",
							"name": "_contractId",
							"type": "uint256"
						}
					],
					"name": "confirmCompletion",
					"outputs": [],
					"stateMutability": "nonpayable",
					"type": "function"
				},
				{
					"inputs": [],
					"name": "contractCounter",
					"outputs": [
						{
							"internalType": "uint256",
							"name": "",
							"type": "uint256"
						}
					],
					"stateMutability": "view",
					"type": "function"
				},
				{
					"inputs": [
						{
							"internalType": "uint256",
							"name": "contractId",
							"type": "uint256"
						}
					],
					"name": "contracts",
					"outputs": [
						{
							"internalType": "uint256",
							"name": "id",
							"type": "uint256"
						},
						{
							"internalType": "uint256",
							"name": "amount",
							"type": "uint256"
						},
						{
							"internalType": "address payable",
							"name": "creator",
							"type": "address"
						},
						{
							"internalType": "address payable",
							"name": "counterparty",
							"type": "address"
						},
						{
							"internalType": "enum DigitalContractPlatform.ContractStatus",
							"name": "status",
							"type": "uint8"
						},
						{
							"internalType": "string",
							"name": "contractIPFSHash",
							"type": "string"
						}
					],
					"stateMutability": "view",
					"type": "function"
				},
				{
					"inputs": [
						{
							"internalType": "address payable",
							"name": "_counterparty",
							"type": "address"
						},
						{
							"internalType": "string",
							"name": "_contractIPFSHash",
							"type": "string"
						},
						{
							"internalType": "uint256",
							"name": "_amount",
							"type": "uint256"
						}
					],
					"name": "createContract",
					"outputs": [],
					"stateMutability": "payable",
					"type": "function"
				},
				{
					"inputs": [
						{
							"internalType": "uint256",
							"name": "_contractId",
							"type": "uint256"
						}
					],
					"name": "getContractIPFSHash",
					"outputs": [
						{
							"internalType": "string",
							"name": "",
							"type": "string"
						}
					],
					"stateMutability": "view",
					"type": "function"
				},
				{
					"inputs": [
						{
							"internalType": "uint256",
							"name": "_contractId",
							"type": "uint256"
						}
					],
					"name": "getContractStatus",
					"outputs": [
						{
							"internalType": "enum DigitalContractPlatform.ContractStatus",
							"name": "",
							"type": "uint8"
						}
					],
					"stateMutability": "view",
					"type": "function"
				},
				{
					"inputs": [
						{
							"internalType": "address",
							"name": "account",
							"type": "address"
						}
					],
					"name": "pendingWithdrawals",
					"outputs": [
						{
							"internalType": "uint256",
							"name": "",
							"type": "uint256"
						}
					],
					"stateMutability": "view",
					"type": "function"
				},
				{
					"inputs": [
						{
							"internalType": "uint256",
							"name": "_contractId",
							"type": "uint256"
						}
					],
					"name": "signContract",
					"outputs": [],
					"stateMutability": "nonpayable",
					"type": "function"
				},
				{
					"inputs": [],
					"name": "withdrawFunds",
					"outputs": [],
					"stateMutability": "nonpayable",
					"type": "function"
				}
			],
			"devdoc": {
				"kind": "dev",
				"methods": {},
				"version": 1
			},
			"evm": {
				"assembly": "    /* \"digital_contract.sol\":577:4977  contract DigitalContractPlatform is ReentrancyGuard {... */\n  mstore(0x40, 0x80)\n  callvalue\n  dup1\n  iszero\n  tag_1\n  jumpi\n  0x00\n  dup1\n  revert\ntag_1:\n  pop\n    /* \"digital_contract.sol\":229:230  1 */\n  0x01\n    /* \"digital_contract.sol\":348:355  _status */\n  0x00\n    /* \"digital_contract.sol\":348:370  _status = _NOT_ENTERED */\n  dup2\n  swap1\n  sstore\n  pop\n    /* \"digital_contract.sol\":577:4977  contract DigitalContractPlatform is ReentrancyGuard {... */\n  dataSize(sub_0)\n  dup1\n  dataOffset(sub_0)\n  0x00\n  codecopy\n  0x00\n  return\nstop\n\nsub_0: assembly {\n        /* \"digital_contract.sol\":577:4977  contract DigitalContractPlatform is ReentrancyGuard {... */\n      mstore(0x40, 0x80)\n      jumpi(tag_1, lt(calldatasize, 0x04))\n      shr(0xe0, calldataload(0x00))\n      dup1\n      0x474da79a\n      gt\n      tag_11\n      jumpi\n      dup1\n      0x474da79a\n      eq\n      tag_6\n      jumpi\n      dup1\n      0x94aeb613\n      eq\n      tag_7\n      jumpi\n      dup1\n      0x9537e8d1\n      eq\n      tag_8\n      jumpi\n      dup1\n      0x9ce5b6ca\n      eq\n      tag_9\n      jumpi\n      dup1\n      0xf3f43703\n      eq\n      tag_10\n      jumpi\n      jump(tag_1)\n    tag_11:\n      dup1\n      0x067bd3b4\n      eq\n      tag_2\n      jumpi\n      dup1\n      0x17b18458\n      eq\n      tag_3\n      jumpi\n      dup1\n      0x1ed4af8c\n      eq\n      tag_4\n      jumpi\n      dup1\n      0x24600fc3\n      eq\n      tag_5\n      jumpi\n    tag_1:\n      0x00\n      dup1\n      revert\n        /* \"digital_contract.sol\":1103:1133  uint256 public contractCounter */\n    tag_2:\n      callvalue\n      dup1\n      iszero\n      tag_12\n      jumpi\n      0x00\n      dup1\n      revert\n    tag_12:\n      pop\n      tag_13\n      tag_14\n      jump\t// in\n    tag_13:\n      mload(0x40)\n      tag_15\n      swap2\n      swap1\n      tag_16\n      jump\t// in\n    tag_15:\n      mload(0x40)\n      dup1\n      swap2\n      sub\n      swap1\n      return\n        /* \"digital_contract.sol\":4615:4755  function getContractStatus(uint256 _contractId) public view returns (ContractStatus) {... */\n    tag_3:\n      callvalue\n      dup1\n      iszero\n      tag_17\n      jumpi\n      0x00\n      dup1\n      revert\n    tag_17:\n      pop\n      tag_18\n      0x04\n      dup1\n      calldatasize\n      sub\n      dup2\n      add\n      swap1\n      tag_19\n      swap2\n      swap1\n      tag_20\n      jump\t// in\n    tag_19:\n      tag_21\n      jump\t// in\n    tag_18:\n      mload(0x40)\n      tag_22\n      swap2\n      swap1\n      tag_23\n      jump\t// in\n    tag_22:\n      mload(0x40)\n      dup1\n      swap2\n      sub\n      swap1\n      return\n        /* \"digital_contract.sol\":4823:4974  function getContractIPFSHash(uint256 _contractId) public view returns (string memory) {... */\n    tag_4:\n      callvalue\n      dup1\n      iszero\n      tag_24\n      jumpi\n      0x00\n      dup1\n      revert\n    tag_24:\n      pop\n      tag_25\n      0x04\n      dup1\n      calldatasize\n      sub\n      dup2\n      add\n      swap1\n      tag_26\n      swap2\n      swap1\n      tag_20\n      jump\t// in\n    tag_26:\n      tag_27\n      jump\t// in\n    tag_25:\n      mload(0x40)\n      tag_28\n      swap2\n      swap1\n      tag_29\n      jump\t// in\n    tag_28:\n      mload(0x40)\n      dup1\n      swap2\n      sub\n      swap1\n      return\n        /* \"digital_contract.sol\":4172:4540  function withdrawFunds() public nonReentrant {... */\n    tag_5:\n      callvalue\n      dup1\n      iszero\n      tag_30\n      jumpi\n      0x00\n      dup1\n      revert\n    tag_30:\n      pop\n      tag_31\n      tag_32\n      jump\t// in\n    tag_31:\n      stop\n        /* \"digital_contract.sol\":1040:1096  mapping(uint256 contractId => Contract) public contracts */\n    tag_6:\n      callvalue\n      dup1\n      iszero\n      tag_33\n      jumpi\n      0x00\n      dup1\n      revert\n    tag_33:\n      pop\n      tag_34\n      0x04\n      dup1\n      calldatasize\n      sub\n      dup2\n      add\n      swap1\n      tag_35\n      swap2\n      swap1\n      tag_20\n      jump\t// in\n    tag_35:\n      tag_36\n      jump\t// in\n    tag_34:\n      mload(0x40)\n      tag_37\n      swap7\n      swap6\n      swap5\n      swap4\n      swap3\n      swap2\n      swap1\n      tag_38\n      jump\t// in\n    tag_37:\n      mload(0x40)\n      dup1\n      swap2\n      sub\n      swap1\n      return\n        /* \"digital_contract.sol\":3500:4088  function confirmCompletion(uint256 _contractId) public nonReentrant onlyCreator(_contractId) {... */\n    tag_7:\n      callvalue\n      dup1\n      iszero\n      tag_39\n      jumpi\n      0x00\n      dup1\n      revert\n    tag_39:\n      pop\n      tag_40\n      0x04\n      dup1\n      calldatasize\n      sub\n      dup2\n      add\n      swap1\n      tag_41\n      swap2\n      swap1\n      tag_20\n      jump\t// in\n    tag_41:\n      tag_42\n      jump\t// in\n    tag_40:\n      stop\n        /* \"digital_contract.sol\":2967:3307  function signContract(uint256 _contractId) public onlyCounterparty(_contractId) {... */\n    tag_8:\n      callvalue\n      dup1\n      iszero\n      tag_43\n      jumpi\n      0x00\n      dup1\n      revert\n    tag_43:\n      pop\n      tag_44\n      0x04\n      dup1\n      calldatasize\n      sub\n      dup2\n      add\n      swap1\n      tag_45\n      swap2\n      swap1\n      tag_20\n      jump\t// in\n    tag_45:\n      tag_46\n      jump\t// in\n    tag_44:\n      stop\n        /* \"digital_contract.sol\":2034:2887  function createContract(... */\n    tag_9:\n      tag_47\n      0x04\n      dup1\n      calldatasize\n      sub\n      dup2\n      add\n      swap1\n      tag_48\n      swap2\n      swap1\n      tag_49\n      jump\t// in\n    tag_48:\n      tag_50\n      jump\t// in\n    tag_47:\n      stop\n        /* \"digital_contract.sol\":1223:1284  mapping(address account => uint256) public pendingWithdrawals */\n    tag_10:\n      callvalue\n      dup1\n      iszero\n      tag_51\n      jumpi\n      0x00\n      dup1\n      revert\n    tag_51:\n      pop\n      tag_52\n      0x04\n      dup1\n      calldatasize\n      sub\n      dup2\n      add\n      swap1\n      tag_53\n      swap2\n      swap1\n      tag_54\n      jump\t// in\n    tag_53:\n      tag_55\n      jump\t// in\n    tag_52:\n      mload(0x40)\n      tag_56\n      swap2\n      swap1\n      tag_16\n      jump\t// in\n    tag_56:\n      mload(0x40)\n      dup1\n      swap2\n      sub\n      swap1\n      return\n        /* \"digital_contract.sol\":1103:1133  uint256 public contractCounter */\n    tag_14:\n      sload(0x02)\n      dup2\n      jump\t// out\n        /* \"digital_contract.sol\":4615:4755  function getContractStatus(uint256 _contractId) public view returns (ContractStatus) {... */\n    tag_21:\n        /* \"digital_contract.sol\":4684:4698  ContractStatus */\n      0x00\n        /* \"digital_contract.sol\":4718:4727  contracts */\n      0x01\n        /* \"digital_contract.sol\":4718:4740  contracts[_contractId] */\n      0x00\n        /* \"digital_contract.sol\":4728:4739  _contractId */\n      dup4\n        /* \"digital_contract.sol\":4718:4740  contracts[_contractId] */\n      dup2\n      mstore\n      0x20\n      add\n      swap1\n      dup2\n      mstore\n      0x20\n      add\n      0x00\n      keccak256\n        /* \"digital_contract.sol\":4718:4747  contracts[_contractId].status */\n      0x03\n      add\n      0x14\n      swap1\n      sload\n      swap1\n      0x0100\n      exp\n      swap1\n      div\n      0xff\n      and\n        /* \"digital_contract.sol\":4711:4747  return contracts[_contractId].status */\n      swap1\n      pop\n        /* \"digital_contract.sol\":4615:4755  function getContractStatus(uint256 _contractId) public view returns (ContractStatus) {... */\n      swap2\n      swap1\n      pop\n      jump\t// out\n        /* \"digital_contract.sol\":4823:4974  function getContractIPFSHash(uint256 _contractId) public view returns (string memory) {... */\n    tag_27:\n        /* \"digital_contract.sol\":4894:4907  string memory */\n      0x60\n        /* \"digital_contract.sol\":4927:4936  contracts */\n      0x01\n        /* \"digital_contract.sol\":4927:4949  contracts[_contractId] */\n      0x00\n        /* \"digital_contract.sol\":4937:4948  _contractId */\n      dup4\n        /* \"digital_contract.sol\":4927:4949  contracts[_contractId] */\n      dup2\n      mstore\n      0x20\n      add\n      swap1\n      dup2\n      mstore\n      0x20\n      add\n      0x00\n      keccak256\n        /* \"digital_contract.sol\":4927:4966  contracts[_contractId].contractIPFSHash */\n      0x04\n      add\n        /* \"digital_contract.sol\":4920:4966  return contracts[_contractId].contractIPFSHash */\n      dup1\n      sload\n      tag_59\n      swap1\n      tag_60\n      jump\t// in\n    tag_59:\n      dup1\n      0x1f\n      add\n      0x20\n      dup1\n      swap2\n      div\n      mul\n      0x20\n      add\n      mload(0x40)\n      swap1\n      dup2\n      add\n      0x40\n      mstore\n      dup1\n      swap3\n      swap2\n      swap1\n      dup2\n      dup2\n      mstore\n      0x20\n      add\n      dup3\n      dup1\n      sload\n      tag_61\n      swap1\n      tag_60\n      jump\t// in\n    tag_61:\n      dup1\n      iszero\n      tag_62\n      jumpi\n      dup1\n      0x1f\n      lt\n      tag_63\n      jumpi\n      0x0100\n      dup1\n      dup4\n      sload\n      div\n      mul\n      dup4\n      mstore\n      swap2\n      0x20\n      add\n      swap2\n      jump(tag_62)\n    tag_63:\n      dup3\n      add\n      swap2\n      swap1\n      0x00\n      mstore\n      keccak256(0x00, 0x20)\n      swap1\n    tag_64:\n      dup2\n      sload\n      dup2\n      mstore\n      swap1\n      0x01\n      add\n      swap1\n      0x20\n      add\n      dup1\n      dup4\n      gt\n      tag_64\n      jumpi\n      dup3\n      swap1\n      sub\n      0x1f\n      and\n      dup3\n      add\n      swap2\n    tag_62:\n      pop\n      pop\n      pop\n      pop\n      pop\n      swap1\n      pop\n        /* \"digital_contract.sol\":4823:4974  function getContractIPFSHash(uint256 _contractId) public view returns (string memory) {... */\n      swap2\n      swap1\n      pop\n      jump\t// out\n        /* \"digital_contract.sol\":4172:4540  function withdrawFunds() public nonReentrant {... */\n    tag_32:\n        /* \"digital_contract.sol\":273:274  2 */\n      0x02\n        /* \"digital_contract.sol\":433:440  _status */\n      sload(0x00)\n        /* \"digital_contract.sol\":433:452  _status != _ENTERED */\n      sub\n        /* \"digital_contract.sol\":425:488  require(_status != _ENTERED, \"ReentrancyGuard: reentrant call\") */\n      tag_66\n      jumpi\n      mload(0x40)\n      0x08c379a000000000000000000000000000000000000000000000000000000000\n      dup2\n      mstore\n      0x04\n      add\n      tag_67\n      swap1\n      tag_68\n      jump\t// in\n    tag_67:\n      mload(0x40)\n      dup1\n      swap2\n      sub\n      swap1\n      revert\n    tag_66:\n        /* \"digital_contract.sol\":273:274  2 */\n      0x02\n        /* \"digital_contract.sol\":499:506  _status */\n      0x00\n        /* \"digital_contract.sol\":499:517  _status = _ENTERED */\n      dup2\n      swap1\n      sstore\n      pop\n        /* \"digital_contract.sol\":4228:4242  uint256 amount */\n      0x00\n        /* \"digital_contract.sol\":4245:4263  pendingWithdrawals */\n      0x03\n        /* \"digital_contract.sol\":4245:4275  pendingWithdrawals[msg.sender] */\n      0x00\n        /* \"digital_contract.sol\":4264:4274  msg.sender */\n      caller\n        /* \"digital_contract.sol\":4245:4275  pendingWithdrawals[msg.sender] */\n      0xffffffffffffffffffffffffffffffffffffffff\n      and\n      0xffffffffffffffffffffffffffffffffffffffff\n      and\n      dup2\n      mstore\n      0x20\n      add\n      swap1\n      dup2\n      mstore\n      0x20\n      add\n      0x00\n      keccak256\n      sload\n        /* \"digital_contract.sol\":4228:4275  uint256 amount = pendingWithdrawals[msg.sender] */\n      swap1\n      pop\n        /* \"digital_contract.sol\":4304:4305  0 */\n      0x00\n        /* \"digital_contract.sol\":4294:4300  amount */\n      dup2\n        /* \"digital_contract.sol\":4294:4305  amount != 0 */\n      sub\n        /* \"digital_contract.sol\":4286:4318  require(amount != 0, \"No funds\") */\n      tag_70\n      jumpi\n      mload(0x40)\n      0x08c379a000000000000000000000000000000000000000000000000000000000\n      dup2\n      mstore\n      0x04\n      add\n      tag_71\n      swap1\n      tag_72\n      jump\t// in\n    tag_71:\n      mload(0x40)\n      dup1\n      swap2\n      sub\n      swap1\n      revert\n    tag_70:\n        /* \"digital_contract.sol\":4364:4365  0 */\n      0x00\n        /* \"digital_contract.sol\":4331:4349  pendingWithdrawals */\n      0x03\n        /* \"digital_contract.sol\":4331:4361  pendingWithdrawals[msg.sender] */\n      0x00\n        /* \"digital_contract.sol\":4350:4360  msg.sender */\n      caller\n        /* \"digital_contract.sol\":4331:4361  pendingWithdrawals[msg.sender] */\n      0xffffffffffffffffffffffffffffffffffffffff\n      and\n      0xffffffffffffffffffffffffffffffffffffffff\n      and\n      dup2\n      mstore\n      0x20\n      add\n      swap1\n      dup2\n      mstore\n      0x20\n      add\n      0x00\n      keccak256\n        /* \"digital_contract.sol\":4331:4365  pendingWithdrawals[msg.sender] = 0 */\n      dup2\n      swap1\n      sstore\n      pop\n        /* \"digital_contract.sol\":4377:4389  bool success */\n      0x00\n        /* \"digital_contract.sol\":4403:4413  msg.sender */\n      caller\n        /* \"digital_contract.sol\":4395:4419  payable(msg.sender).call */\n      0xffffffffffffffffffffffffffffffffffffffff\n      and\n        /* \"digital_contract.sol\":4427:4433  amount */\n      dup3\n        /* \"digital_contract.sol\":4395:4438  payable(msg.sender).call{value: amount}(\"\") */\n      mload(0x40)\n      tag_73\n      swap1\n      tag_74\n      jump\t// in\n    tag_73:\n      0x00\n      mload(0x40)\n      dup1\n      dup4\n      sub\n      dup2\n      dup6\n      dup8\n      gas\n      call\n      swap3\n      pop\n      pop\n      pop\n      returndatasize\n      dup1\n      0x00\n      dup2\n      eq\n      tag_77\n      jumpi\n      mload(0x40)\n      swap2\n      pop\n      and(add(returndatasize, 0x3f), not(0x1f))\n      dup3\n      add\n      0x40\n      mstore\n      returndatasize\n      dup3\n      mstore\n      returndatasize\n      0x00\n      0x20\n      dup5\n      add\n      returndatacopy\n      jump(tag_76)\n    tag_77:\n      0x60\n      swap2\n      pop\n    tag_76:\n      pop\n        /* \"digital_contract.sol\":4376:4438  (bool success, ) = payable(msg.sender).call{value: amount}(\"\") */\n      pop\n      swap1\n      pop\n        /* \"digital_contract.sol\":4457:4464  success */\n      dup1\n        /* \"digital_contract.sol\":4449:4482  require(success, \"Withdraw fail\") */\n      tag_78\n      jumpi\n      mload(0x40)\n      0x08c379a000000000000000000000000000000000000000000000000000000000\n      dup2\n      mstore\n      0x04\n      add\n      tag_79\n      swap1\n      tag_80\n      jump\t// in\n    tag_79:\n      mload(0x40)\n      dup1\n      swap2\n      sub\n      swap1\n      revert\n    tag_78:\n        /* \"digital_contract.sol\":4513:4523  msg.sender */\n      caller\n        /* \"digital_contract.sol\":4498:4532  FundsWithdrawn(msg.sender, amount) */\n      0xffffffffffffffffffffffffffffffffffffffff\n      and\n      0xeaff4b37086828766ad3268786972c0cd24259d4c87a80f9d3963a3c3d999b0d\n        /* \"digital_contract.sol\":4525:4531  amount */\n      dup4\n        /* \"digital_contract.sol\":4498:4532  FundsWithdrawn(msg.sender, amount) */\n      mload(0x40)\n      tag_81\n      swap2\n      swap1\n      tag_16\n      jump\t// in\n    tag_81:\n      mload(0x40)\n      dup1\n      swap2\n      sub\n      swap1\n      log2\n        /* \"digital_contract.sol\":4217:4540  {... */\n      pop\n      pop\n        /* \"digital_contract.sol\":229:230  1 */\n      0x01\n        /* \"digital_contract.sol\":540:547  _status */\n      0x00\n        /* \"digital_contract.sol\":540:562  _status = _NOT_ENTERED */\n      dup2\n      swap1\n      sstore\n      pop\n        /* \"digital_contract.sol\":4172:4540  function withdrawFunds() public nonReentrant {... */\n      jump\t// out\n        /* \"digital_contract.sol\":1040:1096  mapping(uint256 contractId => Contract) public contracts */\n    tag_36:\n      mstore(0x20, 0x01)\n      dup1\n      0x00\n      mstore\n      keccak256(0x00, 0x40)\n      0x00\n      swap2\n      pop\n      swap1\n      pop\n      dup1\n      0x00\n      add\n      sload\n      swap1\n      dup1\n      0x01\n      add\n      sload\n      swap1\n      dup1\n      0x02\n      add\n      0x00\n      swap1\n      sload\n      swap1\n      0x0100\n      exp\n      swap1\n      div\n      0xffffffffffffffffffffffffffffffffffffffff\n      and\n      swap1\n      dup1\n      0x03\n      add\n      0x00\n      swap1\n      sload\n      swap1\n      0x0100\n      exp\n      swap1\n      div\n      0xffffffffffffffffffffffffffffffffffffffff\n      and\n      swap1\n      dup1\n      0x03\n      add\n      0x14\n      swap1\n      sload\n      swap1\n      0x0100\n      exp\n      swap1\n      div\n      0xff\n      and\n      swap1\n      dup1\n      0x04\n      add\n      dup1\n      sload\n      tag_82\n      swap1\n      tag_60\n      jump\t// in\n    tag_82:\n      dup1\n      0x1f\n      add\n      0x20\n      dup1\n      swap2\n      div\n      mul\n      0x20\n      add\n      mload(0x40)\n      swap1\n      dup2\n      add\n      0x40\n      mstore\n      dup1\n      swap3\n      swap2\n      swap1\n      dup2\n      dup2\n      mstore\n      0x20\n      add\n      dup3\n      dup1\n      sload\n      tag_83\n      swap1\n      tag_60\n      jump\t// in\n    tag_83:\n      dup1\n      iszero\n      tag_84\n      jumpi\n      dup1\n      0x1f\n      lt\n      tag_85\n      jumpi\n      0x0100\n      dup1\n      dup4\n      sload\n      div\n      mul\n      dup4\n      mstore\n      swap2\n      0x20\n      add\n      swap2\n      jump(tag_84)\n    tag_85:\n      dup3\n      add\n      swap2\n      swap1\n      0x00\n      mstore\n      keccak256(0x00, 0x20)\n      swap1\n    tag_86:\n      dup2\n      sload\n      dup2\n      mstore\n      swap1\n      0x01\n      add\n      swap1\n      0x20\n      add\n      dup1\n      dup4\n      gt\n      tag_86\n      jumpi\n      dup3\n      swap1\n      sub\n      0x1f\n      and\n      dup3\n      add\n      swap2\n    tag_84:\n      pop\n      pop\n      pop\n      pop\n      pop\n      swap1\n      pop\n      dup7\n      jump\t// out\n        /* \"digital_contract.sol\":3500:4088  function confirmCompletion(uint256 _contractId) public nonReentrant onlyCreator(_contractId) {... */\n    tag_42:\n        /* \"digital_contract.sol\":273:274  2 */\n      0x02\n        /* \"digital_contract.sol\":433:440  _status */\n      sload(0x00)\n        /* \"digital_contract.sol\":433:452  _status != _ENTERED */\n      sub\n        /* \"digital_contract.sol\":425:488  require(_status != _ENTERED, \"ReentrancyGuard: reentrant call\") */\n      tag_88\n      jumpi\n      mload(0x40)\n      0x08c379a000000000000000000000000000000000000000000000000000000000\n      dup2\n      mstore\n      0x04\n      add\n      tag_89\n      swap1\n      tag_68\n      jump\t// in\n    tag_89:\n      mload(0x40)\n      dup1\n      swap2\n      sub\n      swap1\n      revert\n    tag_88:\n        /* \"digital_contract.sol\":273:274  2 */\n      0x02\n        /* \"digital_contract.sol\":499:506  _status */\n      0x00\n        /* \"digital_contract.sol\":499:517  _status = _ENTERED */\n      dup2\n      swap1\n      sstore\n      pop\n        /* \"digital_contract.sol\":3580:3591  _contractId */\n      dup1\n        /* \"digital_contract.sol\":1703:1712  contracts */\n      0x01\n        /* \"digital_contract.sol\":1703:1725  contracts[_contractId] */\n      0x00\n        /* \"digital_contract.sol\":1713:1724  _contractId */\n      dup3\n        /* \"digital_contract.sol\":1703:1725  contracts[_contractId] */\n      dup2\n      mstore\n      0x20\n      add\n      swap1\n      dup2\n      mstore\n      0x20\n      add\n      0x00\n      keccak256\n        /* \"digital_contract.sol\":1703:1733  contracts[_contractId].creator */\n      0x02\n      add\n      0x00\n      swap1\n      sload\n      swap1\n      0x0100\n      exp\n      swap1\n      div\n      0xffffffffffffffffffffffffffffffffffffffff\n      and\n        /* \"digital_contract.sol\":1689:1733  msg.sender == contracts[_contractId].creator */\n      0xffffffffffffffffffffffffffffffffffffffff\n      and\n        /* \"digital_contract.sol\":1689:1699  msg.sender */\n      caller\n        /* \"digital_contract.sol\":1689:1733  msg.sender == contracts[_contractId].creator */\n      0xffffffffffffffffffffffffffffffffffffffff\n      and\n      eq\n        /* \"digital_contract.sol\":1681:1749  require(msg.sender == contracts[_contractId].creator, \"Not creator\") */\n      tag_91\n      jumpi\n      mload(0x40)\n      0x08c379a000000000000000000000000000000000000000000000000000000000\n      dup2\n      mstore\n      0x04\n      add\n      tag_92\n      swap1\n      tag_93\n      jump\t// in\n    tag_92:\n      mload(0x40)\n      dup1\n      swap2\n      sub\n      swap1\n      revert\n    tag_91:\n        /* \"digital_contract.sol\":3604:3636  Contract storage digitalContract */\n      0x00\n        /* \"digital_contract.sol\":3639:3648  contracts */\n      0x01\n        /* \"digital_contract.sol\":3639:3661  contracts[_contractId] */\n      0x00\n        /* \"digital_contract.sol\":3649:3660  _contractId */\n      dup5\n        /* \"digital_contract.sol\":3639:3661  contracts[_contractId] */\n      dup2\n      mstore\n      0x20\n      add\n      swap1\n      dup2\n      mstore\n      0x20\n      add\n      0x00\n      keccak256\n        /* \"digital_contract.sol\":3604:3661  Contract storage digitalContract = contracts[_contractId] */\n      swap1\n      pop\n        /* \"digital_contract.sol\":3706:3727  ContractStatus.Signed */\n      0x01\n        /* \"digital_contract.sol\":3680:3727  digitalContract.status == ContractStatus.Signed */\n      0x03\n      dup2\n      gt\n      iszero\n      tag_95\n      jumpi\n      tag_96\n      tag_97\n      jump\t// in\n    tag_96:\n    tag_95:\n        /* \"digital_contract.sol\":3680:3695  digitalContract */\n      dup2\n        /* \"digital_contract.sol\":3680:3702  digitalContract.status */\n      0x03\n      add\n      0x14\n      swap1\n      sload\n      swap1\n      0x0100\n      exp\n      swap1\n      div\n      0xff\n      and\n        /* \"digital_contract.sol\":3680:3727  digitalContract.status == ContractStatus.Signed */\n      0x03\n      dup2\n      gt\n      iszero\n      tag_98\n      jumpi\n      tag_99\n      tag_97\n      jump\t// in\n    tag_99:\n    tag_98:\n      eq\n        /* \"digital_contract.sol\":3672:3742  require(digitalContract.status == ContractStatus.Signed, \"Not signed\") */\n      tag_100\n      jumpi\n      mload(0x40)\n      0x08c379a000000000000000000000000000000000000000000000000000000000\n      dup2\n      mstore\n      0x04\n      add\n      tag_101\n      swap1\n      tag_102\n      jump\t// in\n    tag_101:\n      mload(0x40)\n      dup1\n      swap2\n      sub\n      swap1\n      revert\n    tag_100:\n        /* \"digital_contract.sol\":3780:3804  ContractStatus.Completed */\n      0x02\n        /* \"digital_contract.sol\":3755:3770  digitalContract */\n      dup2\n        /* \"digital_contract.sol\":3755:3777  digitalContract.status */\n      0x03\n      add\n      0x14\n        /* \"digital_contract.sol\":3755:3804  digitalContract.status = ContractStatus.Completed */\n      0x0100\n      exp\n      dup2\n      sload\n      dup2\n      0xff\n      mul\n      not\n      and\n      swap1\n      dup4\n      0x03\n      dup2\n      gt\n      iszero\n      tag_103\n      jumpi\n      tag_104\n      tag_97\n      jump\t// in\n    tag_104:\n    tag_103:\n      mul\n      or\n      swap1\n      sstore\n      pop\n        /* \"digital_contract.sol\":3990:4005  digitalContract */\n      dup1\n        /* \"digital_contract.sol\":3990:4012  digitalContract.amount */\n      0x01\n      add\n      sload\n        /* \"digital_contract.sol\":3939:3957  pendingWithdrawals */\n      0x03\n        /* \"digital_contract.sol\":3939:3987  pendingWithdrawals[digitalContract.counterparty] */\n      0x00\n        /* \"digital_contract.sol\":3958:3973  digitalContract */\n      dup4\n        /* \"digital_contract.sol\":3958:3986  digitalContract.counterparty */\n      0x03\n      add\n      0x00\n      swap1\n      sload\n      swap1\n      0x0100\n      exp\n      swap1\n      div\n      0xffffffffffffffffffffffffffffffffffffffff\n      and\n        /* \"digital_contract.sol\":3939:3987  pendingWithdrawals[digitalContract.counterparty] */\n      0xffffffffffffffffffffffffffffffffffffffff\n      and\n      0xffffffffffffffffffffffffffffffffffffffff\n      and\n      dup2\n      mstore\n      0x20\n      add\n      swap1\n      dup2\n      mstore\n      0x20\n      add\n      0x00\n      keccak256\n      sload\n        /* \"digital_contract.sol\":3939:4012  pendingWithdrawals[digitalContract.counterparty] + digitalContract.amount */\n      tag_105\n      swap2\n      swap1\n      tag_106\n      jump\t// in\n    tag_105:\n        /* \"digital_contract.sol\":3888:3906  pendingWithdrawals */\n      0x03\n        /* \"digital_contract.sol\":3888:3936  pendingWithdrawals[digitalContract.counterparty] */\n      0x00\n        /* \"digital_contract.sol\":3907:3922  digitalContract */\n      dup4\n        /* \"digital_contract.sol\":3907:3935  digitalContract.counterparty */\n      0x03\n      add\n      0x00\n      swap1\n      sload\n      swap1\n      0x0100\n      exp\n      swap1\n      div\n      0xffffffffffffffffffffffffffffffffffffffff\n      and\n        /* \"digital_contract.sol\":3888:3936  pendingWithdrawals[digitalContract.counterparty] */\n      0xffffffffffffffffffffffffffffffffffffffff\n      and\n      0xffffffffffffffffffffffffffffffffffffffff\n      and\n      dup2\n      mstore\n      0x20\n      add\n      swap1\n      dup2\n      mstore\n      0x20\n      add\n      0x00\n      keccak256\n        /* \"digital_contract.sol\":3888:4012  pendingWithdrawals[digitalContract.counterparty] = pendingWithdrawals[digitalContract.counterparty] + digitalContract.amount */\n      dup2\n      swap1\n      sstore\n      pop\n        /* \"digital_contract.sol\":4044:4055  _contractId */\n      dup3\n        /* \"digital_contract.sol\":4028:4080  PaymentReleased(_contractId, digitalContract.amount) */\n      0xc8ef479acdbffd729d96117b951d1c3ee85d98ef42699aec806bc4f0b522461d\n        /* \"digital_contract.sol\":4057:4072  digitalContract */\n      dup3\n        /* \"digital_contract.sol\":4057:4079  digitalContract.amount */\n      0x01\n      add\n      sload\n        /* \"digital_contract.sol\":4028:4080  PaymentReleased(_contractId, digitalContract.amount) */\n      mload(0x40)\n      tag_107\n      swap2\n      swap1\n      tag_16\n      jump\t// in\n    tag_107:\n      mload(0x40)\n      dup1\n      swap2\n      sub\n      swap1\n      log2\n        /* \"digital_contract.sol\":3593:4088  {... */\n      pop\n        /* \"digital_contract.sol\":528:529  _ */\n      pop\n        /* \"digital_contract.sol\":229:230  1 */\n      0x01\n        /* \"digital_contract.sol\":540:547  _status */\n      0x00\n        /* \"digital_contract.sol\":540:562  _status = _NOT_ENTERED */\n      dup2\n      swap1\n      sstore\n      pop\n        /* \"digital_contract.sol\":3500:4088  function confirmCompletion(uint256 _contractId) public nonReentrant onlyCreator(_contractId) {... */\n      pop\n      jump\t// out\n        /* \"digital_contract.sol\":2967:3307  function signContract(uint256 _contractId) public onlyCounterparty(_contractId) {... */\n    tag_46:\n        /* \"digital_contract.sol\":3034:3045  _contractId */\n      dup1\n        /* \"digital_contract.sol\":1857:1866  contracts */\n      0x01\n        /* \"digital_contract.sol\":1857:1879  contracts[_contractId] */\n      0x00\n        /* \"digital_contract.sol\":1867:1878  _contractId */\n      dup3\n        /* \"digital_contract.sol\":1857:1879  contracts[_contractId] */\n      dup2\n      mstore\n      0x20\n      add\n      swap1\n      dup2\n      mstore\n      0x20\n      add\n      0x00\n      keccak256\n        /* \"digital_contract.sol\":1857:1892  contracts[_contractId].counterparty */\n      0x03\n      add\n      0x00\n      swap1\n      sload\n      swap1\n      0x0100\n      exp\n      swap1\n      div\n      0xffffffffffffffffffffffffffffffffffffffff\n      and\n        /* \"digital_contract.sol\":1843:1892  msg.sender == contracts[_contractId].counterparty */\n      0xffffffffffffffffffffffffffffffffffffffff\n      and\n        /* \"digital_contract.sol\":1843:1853  msg.sender */\n      caller\n        /* \"digital_contract.sol\":1843:1892  msg.sender == contracts[_contractId].counterparty */\n      0xffffffffffffffffffffffffffffffffffffffff\n      and\n      eq\n        /* \"digital_contract.sol\":1835:1913  require(msg.sender == contracts[_contractId].counterparty, \"Not counterparty\") */\n      tag_109\n      jumpi\n      mload(0x40)\n      0x08c379a000000000000000000000000000000000000000000000000000000000\n      dup2\n      mstore\n      0x04\n      add\n      tag_110\n      swap1\n      tag_111\n      jump\t// in\n    tag_110:\n      mload(0x40)\n      dup1\n      swap2\n      sub\n      swap1\n      revert\n    tag_109:\n        /* \"digital_contract.sol\":3058:3090  Contract storage digitalContract */\n      0x00\n        /* \"digital_contract.sol\":3093:3102  contracts */\n      0x01\n        /* \"digital_contract.sol\":3093:3115  contracts[_contractId] */\n      0x00\n        /* \"digital_contract.sol\":3103:3114  _contractId */\n      dup5\n        /* \"digital_contract.sol\":3093:3115  contracts[_contractId] */\n      dup2\n      mstore\n      0x20\n      add\n      swap1\n      dup2\n      mstore\n      0x20\n      add\n      0x00\n      keccak256\n        /* \"digital_contract.sol\":3058:3115  Contract storage digitalContract = contracts[_contractId] */\n      swap1\n      pop\n        /* \"digital_contract.sol\":3160:3182  ContractStatus.Created */\n      0x00\n        /* \"digital_contract.sol\":3134:3182  digitalContract.status == ContractStatus.Created */\n      0x03\n      dup2\n      gt\n      iszero\n      tag_113\n      jumpi\n      tag_114\n      tag_97\n      jump\t// in\n    tag_114:\n    tag_113:\n        /* \"digital_contract.sol\":3134:3149  digitalContract */\n      dup2\n        /* \"digital_contract.sol\":3134:3156  digitalContract.status */\n      0x03\n      add\n      0x14\n      swap1\n      sload\n      swap1\n      0x0100\n      exp\n      swap1\n      div\n      0xff\n      and\n        /* \"digital_contract.sol\":3134:3182  digitalContract.status == ContractStatus.Created */\n      0x03\n      dup2\n      gt\n      iszero\n      tag_115\n      jumpi\n      tag_116\n      tag_97\n      jump\t// in\n    tag_116:\n    tag_115:\n      eq\n        /* \"digital_contract.sol\":3126:3197  require(digitalContract.status == ContractStatus.Created, \"Status err\") */\n      tag_117\n      jumpi\n      mload(0x40)\n      0x08c379a000000000000000000000000000000000000000000000000000000000\n      dup2\n      mstore\n      0x04\n      add\n      tag_118\n      swap1\n      tag_119\n      jump\t// in\n    tag_118:\n      mload(0x40)\n      dup1\n      swap2\n      sub\n      swap1\n      revert\n    tag_117:\n        /* \"digital_contract.sol\":3235:3256  ContractStatus.Signed */\n      0x01\n        /* \"digital_contract.sol\":3210:3225  digitalContract */\n      dup2\n        /* \"digital_contract.sol\":3210:3232  digitalContract.status */\n      0x03\n      add\n      0x14\n        /* \"digital_contract.sol\":3210:3256  digitalContract.status = ContractStatus.Signed */\n      0x0100\n      exp\n      dup2\n      sload\n      dup2\n      0xff\n      mul\n      not\n      and\n      swap1\n      dup4\n      0x03\n      dup2\n      gt\n      iszero\n      tag_120\n      jumpi\n      tag_121\n      tag_97\n      jump\t// in\n    tag_121:\n    tag_120:\n      mul\n      or\n      swap1\n      sstore\n      pop\n        /* \"digital_contract.sol\":3287:3298  _contractId */\n      dup3\n        /* \"digital_contract.sol\":3272:3299  ContractSigned(_contractId) */\n      0xaf3c49f5413fd292e2325b0fe214de144a222b00cb6ec21214fdc04b5d6c5913\n      mload(0x40)\n      mload(0x40)\n      dup1\n      swap2\n      sub\n      swap1\n      log2\n        /* \"digital_contract.sol\":3047:3307  {... */\n      pop\n        /* \"digital_contract.sol\":2967:3307  function signContract(uint256 _contractId) public onlyCounterparty(_contractId) {... */\n      pop\n      pop\n      jump\t// out\n        /* \"digital_contract.sol\":2034:2887  function createContract(... */\n    tag_50:\n        /* \"digital_contract.sol\":2260:2261  0 */\n      0x00\n        /* \"digital_contract.sol\":2235:2262  _counterparty != address(0) */\n      0xffffffffffffffffffffffffffffffffffffffff\n      and\n        /* \"digital_contract.sol\":2235:2248  _counterparty */\n      dup4\n        /* \"digital_contract.sol\":2235:2262  _counterparty != address(0) */\n      0xffffffffffffffffffffffffffffffffffffffff\n      and\n      sub\n        /* \"digital_contract.sol\":2227:2273  require(_counterparty != address(0), \"0 addr\") */\n      tag_123\n      jumpi\n      mload(0x40)\n      0x08c379a000000000000000000000000000000000000000000000000000000000\n      dup2\n      mstore\n      0x04\n      add\n      tag_124\n      swap1\n      tag_125\n      jump\t// in\n    tag_124:\n      mload(0x40)\n      dup1\n      swap2\n      sub\n      swap1\n      revert\n    tag_123:\n        /* \"digital_contract.sol\":2305:2312  _amount */\n      dup1\n        /* \"digital_contract.sol\":2292:2301  msg.value */\n      callvalue\n        /* \"digital_contract.sol\":2292:2312  msg.value == _amount */\n      eq\n        /* \"digital_contract.sol\":2284:2329  require(msg.value == _amount, \"ETH mismatch\") */\n      tag_126\n      jumpi\n      mload(0x40)\n      0x08c379a000000000000000000000000000000000000000000000000000000000\n      dup2\n      mstore\n      0x04\n      add\n      tag_127\n      swap1\n      tag_128\n      jump\t// in\n    tag_127:\n      mload(0x40)\n      dup1\n      swap2\n      sub\n      swap1\n      revert\n    tag_126:\n        /* \"digital_contract.sol\":2342:2357  contractCounter */\n      0x02\n      0x00\n        /* \"digital_contract.sol\":2342:2359  contractCounter++ */\n      dup2\n      sload\n      dup1\n      swap3\n      swap2\n      swap1\n      tag_129\n      swap1\n      tag_130\n      jump\t// in\n    tag_129:\n      swap2\n      swap1\n      pop\n      sstore\n      pop\n        /* \"digital_contract.sol\":2447:2475  Contract storage newContract */\n      0x00\n        /* \"digital_contract.sol\":2478:2487  contracts */\n      0x01\n        /* \"digital_contract.sol\":2478:2504  contracts[contractCounter] */\n      0x00\n        /* \"digital_contract.sol\":2488:2503  contractCounter */\n      sload(0x02)\n        /* \"digital_contract.sol\":2478:2504  contracts[contractCounter] */\n      dup2\n      mstore\n      0x20\n      add\n      swap1\n      dup2\n      mstore\n      0x20\n      add\n      0x00\n      keccak256\n        /* \"digital_contract.sol\":2447:2504  Contract storage newContract = contracts[contractCounter] */\n      swap1\n      pop\n        /* \"digital_contract.sol\":2532:2547  contractCounter */\n      sload(0x02)\n        /* \"digital_contract.sol\":2515:2526  newContract */\n      dup2\n        /* \"digital_contract.sol\":2515:2529  newContract.id */\n      0x00\n      add\n        /* \"digital_contract.sol\":2515:2547  newContract.id = contractCounter */\n      dup2\n      swap1\n      sstore\n      pop\n        /* \"digital_contract.sol\":2579:2586  _amount */\n      dup2\n        /* \"digital_contract.sol\":2558:2569  newContract */\n      dup2\n        /* \"digital_contract.sol\":2558:2576  newContract.amount */\n      0x01\n      add\n        /* \"digital_contract.sol\":2558:2586  newContract.amount = _amount */\n      dup2\n      swap1\n      sstore\n      pop\n        /* \"digital_contract.sol\":2627:2637  msg.sender */\n      caller\n        /* \"digital_contract.sol\":2597:2608  newContract */\n      dup2\n        /* \"digital_contract.sol\":2597:2616  newContract.creator */\n      0x02\n      add\n      0x00\n        /* \"digital_contract.sol\":2597:2638  newContract.creator = payable(msg.sender) */\n      0x0100\n      exp\n      dup2\n      sload\n      dup2\n      0xffffffffffffffffffffffffffffffffffffffff\n      mul\n      not\n      and\n      swap1\n      dup4\n      0xffffffffffffffffffffffffffffffffffffffff\n      and\n      mul\n      or\n      swap1\n      sstore\n      pop\n        /* \"digital_contract.sol\":2676:2689  _counterparty */\n      dup4\n        /* \"digital_contract.sol\":2649:2660  newContract */\n      dup2\n        /* \"digital_contract.sol\":2649:2673  newContract.counterparty */\n      0x03\n      add\n      0x00\n        /* \"digital_contract.sol\":2649:2689  newContract.counterparty = _counterparty */\n      0x0100\n      exp\n      dup2\n      sload\n      dup2\n      0xffffffffffffffffffffffffffffffffffffffff\n      mul\n      not\n      and\n      swap1\n      dup4\n      0xffffffffffffffffffffffffffffffffffffffff\n      and\n      mul\n      or\n      swap1\n      sstore\n      pop\n        /* \"digital_contract.sol\":2731:2748  _contractIPFSHash */\n      dup3\n        /* \"digital_contract.sol\":2700:2711  newContract */\n      dup2\n        /* \"digital_contract.sol\":2700:2728  newContract.contractIPFSHash */\n      0x04\n      add\n        /* \"digital_contract.sol\":2700:2748  newContract.contractIPFSHash = _contractIPFSHash */\n      swap1\n      dup2\n      tag_131\n      swap2\n      swap1\n      tag_132\n      jump\t// in\n    tag_131:\n      pop\n        /* \"digital_contract.sol\":2780:2802  ContractStatus.Created */\n      0x00\n        /* \"digital_contract.sol\":2759:2770  newContract */\n      dup2\n        /* \"digital_contract.sol\":2759:2777  newContract.status */\n      0x03\n      add\n      0x14\n        /* \"digital_contract.sol\":2759:2802  newContract.status = ContractStatus.Created */\n      0x0100\n      exp\n      dup2\n      sload\n      dup2\n      0xff\n      mul\n      not\n      and\n      swap1\n      dup4\n      0x03\n      dup2\n      gt\n      iszero\n      tag_133\n      jumpi\n      tag_134\n      tag_97\n      jump\t// in\n    tag_134:\n    tag_133:\n      mul\n      or\n      swap1\n      sstore\n      pop\n        /* \"digital_contract.sol\":2836:2851  contractCounter */\n      sload(0x02)\n        /* \"digital_contract.sol\":2820:2879  ContractCreated(contractCounter, msg.sender, _counterparty) */\n      0x56560a52c047ed21fd801bf0f345b23d9af696f7922ff8e63101af5d48caddab\n        /* \"digital_contract.sol\":2853:2863  msg.sender */\n      caller\n        /* \"digital_contract.sol\":2865:2878  _counterparty */\n      dup7\n        /* \"digital_contract.sol\":2820:2879  ContractCreated(contractCounter, msg.sender, _counterparty) */\n      mload(0x40)\n      tag_135\n      swap3\n      swap2\n      swap1\n      tag_136\n      jump\t// in\n    tag_135:\n      mload(0x40)\n      dup1\n      swap2\n      sub\n      swap1\n      log2\n        /* \"digital_contract.sol\":2216:2887  {... */\n      pop\n        /* \"digital_contract.sol\":2034:2887  function createContract(... */\n      pop\n      pop\n      pop\n      jump\t// out\n        /* \"digital_contract.sol\":1223:1284  mapping(address account => uint256) public pendingWithdrawals */\n    tag_55:\n      mstore(0x20, 0x03)\n      dup1\n      0x00\n      mstore\n      keccak256(0x00, 0x40)\n      0x00\n      swap2\n      pop\n      swap1\n      pop\n      sload\n      dup2\n      jump\t// out\n        /* \"#utility.yul\":7:84   */\n    tag_137:\n        /* \"#utility.yul\":44:51   */\n      0x00\n        /* \"#utility.yul\":73:78   */\n      dup2\n        /* \"#utility.yul\":62:78   */\n      swap1\n      pop\n        /* \"#utility.yul\":7:84   */\n      swap2\n      swap1\n      pop\n      jump\t// out\n        /* \"#utility.yul\":90:208   */\n    tag_138:\n        /* \"#utility.yul\":177:201   */\n      tag_216\n        /* \"#utility.yul\":195:200   */\n      dup2\n        /* \"#utility.yul\":177:201   */\n      tag_137\n      jump\t// in\n    tag_216:\n        /* \"#utility.yul\":172:175   */\n      dup3\n        /* \"#utility.yul\":165:202   */\n      mstore\n        /* \"#utility.yul\":90:208   */\n      pop\n      pop\n      jump\t// out\n        /* \"#utility.yul\":214:436   */\n    tag_16:\n        /* \"#utility.yul\":307:311   */\n      0x00\n        /* \"#utility.yul\":345:347   */\n      0x20\n        /* \"#utility.yul\":334:343   */\n      dup3\n        /* \"#utility.yul\":330:348   */\n      add\n        /* \"#utility.yul\":322:348   */\n      swap1\n      pop\n        /* \"#utility.yul\":358:429   */\n      tag_218\n        /* \"#utility.yul\":426:427   */\n      0x00\n        /* \"#utility.yul\":415:424   */\n      dup4\n        /* \"#utility.yul\":411:428   */\n      add\n        /* \"#utility.yul\":402:408   */\n      dup5\n        /* \"#utility.yul\":358:429   */\n      tag_138\n      jump\t// in\n    tag_218:\n        /* \"#utility.yul\":214:436   */\n      swap3\n      swap2\n      pop\n      pop\n      jump\t// out\n        /* \"#utility.yul\":442:517   */\n    tag_139:\n        /* \"#utility.yul\":475:481   */\n      0x00\n        /* \"#utility.yul\":508:510   */\n      0x40\n        /* \"#utility.yul\":502:511   */\n      mload\n        /* \"#utility.yul\":492:511   */\n      swap1\n      pop\n        /* \"#utility.yul\":442:517   */\n      swap1\n      jump\t// out\n        /* \"#utility.yul\":523:640   */\n    tag_140:\n        /* \"#utility.yul\":632:633   */\n      0x00\n        /* \"#utility.yul\":629:630   */\n      dup1\n        /* \"#utility.yul\":622:634   */\n      revert\n        /* \"#utility.yul\":646:763   */\n    tag_141:\n        /* \"#utility.yul\":755:756   */\n      0x00\n        /* \"#utility.yul\":752:753   */\n      dup1\n        /* \"#utility.yul\":745:757   */\n      revert\n        /* \"#utility.yul\":769:891   */\n    tag_142:\n        /* \"#utility.yul\":842:866   */\n      tag_223\n        /* \"#utility.yul\":860:865   */\n      dup2\n        /* \"#utility.yul\":842:866   */\n      tag_137\n      jump\t// in\n    tag_223:\n        /* \"#utility.yul\":835:840   */\n      dup2\n        /* \"#utility.yul\":832:867   */\n      eq\n        /* \"#utility.yul\":822:885   */\n      tag_224\n      jumpi\n        /* \"#utility.yul\":881:882   */\n      0x00\n        /* \"#utility.yul\":878:879   */\n      dup1\n        /* \"#utility.yul\":871:883   */\n      revert\n        /* \"#utility.yul\":822:885   */\n    tag_224:\n        /* \"#utility.yul\":769:891   */\n      pop\n      jump\t// out\n        /* \"#utility.yul\":897:1036   */\n    tag_143:\n        /* \"#utility.yul\":943:948   */\n      0x00\n        /* \"#utility.yul\":981:987   */\n      dup2\n        /* \"#utility.yul\":968:988   */\n      calldataload\n        /* \"#utility.yul\":959:988   */\n      swap1\n      pop\n        /* \"#utility.yul\":997:1030   */\n      tag_226\n        /* \"#utility.yul\":1024:1029   */\n      dup2\n        /* \"#utility.yul\":997:1030   */\n      tag_142\n      jump\t// in\n    tag_226:\n        /* \"#utility.yul\":897:1036   */\n      swap3\n      swap2\n      pop\n      pop\n      jump\t// out\n        /* \"#utility.yul\":1042:1371   */\n    tag_20:\n        /* \"#utility.yul\":1101:1107   */\n      0x00\n        /* \"#utility.yul\":1150:1152   */\n      0x20\n        /* \"#utility.yul\":1138:1147   */\n      dup3\n        /* \"#utility.yul\":1129:1136   */\n      dup5\n        /* \"#utility.yul\":1125:1148   */\n      sub\n        /* \"#utility.yul\":1121:1153   */\n      slt\n        /* \"#utility.yul\":1118:1237   */\n      iszero\n      tag_228\n      jumpi\n        /* \"#utility.yul\":1156:1235   */\n      tag_229\n      tag_140\n      jump\t// in\n    tag_229:\n        /* \"#utility.yul\":1118:1237   */\n    tag_228:\n        /* \"#utility.yul\":1276:1277   */\n      0x00\n        /* \"#utility.yul\":1301:1354   */\n      tag_230\n        /* \"#utility.yul\":1346:1353   */\n      dup5\n        /* \"#utility.yul\":1337:1343   */\n      dup3\n        /* \"#utility.yul\":1326:1335   */\n      dup6\n        /* \"#utility.yul\":1322:1344   */\n      add\n        /* \"#utility.yul\":1301:1354   */\n      tag_143\n      jump\t// in\n    tag_230:\n        /* \"#utility.yul\":1291:1354   */\n      swap2\n      pop\n        /* \"#utility.yul\":1247:1364   */\n      pop\n        /* \"#utility.yul\":1042:1371   */\n      swap3\n      swap2\n      pop\n      pop\n      jump\t// out\n        /* \"#utility.yul\":1377:1557   */\n    tag_97:\n        /* \"#utility.yul\":1425:1502   */\n      0x4e487b7100000000000000000000000000000000000000000000000000000000\n        /* \"#utility.yul\":1422:1423   */\n      0x00\n        /* \"#utility.yul\":1415:1503   */\n      mstore\n        /* \"#utility.yul\":1522:1526   */\n      0x21\n        /* \"#utility.yul\":1519:1520   */\n      0x04\n        /* \"#utility.yul\":1512:1527   */\n      mstore\n        /* \"#utility.yul\":1546:1550   */\n      0x24\n        /* \"#utility.yul\":1543:1544   */\n      0x00\n        /* \"#utility.yul\":1536:1551   */\n      revert\n        /* \"#utility.yul\":1563:1685   */\n    tag_144:\n        /* \"#utility.yul\":1653:1654   */\n      0x04\n        /* \"#utility.yul\":1646:1651   */\n      dup2\n        /* \"#utility.yul\":1643:1655   */\n      lt\n        /* \"#utility.yul\":1633:1679   */\n      tag_233\n      jumpi\n        /* \"#utility.yul\":1659:1677   */\n      tag_234\n      tag_97\n      jump\t// in\n    tag_234:\n        /* \"#utility.yul\":1633:1679   */\n    tag_233:\n        /* \"#utility.yul\":1563:1685   */\n      pop\n      jump\t// out\n        /* \"#utility.yul\":1691:1836   */\n    tag_145:\n        /* \"#utility.yul\":1745:1752   */\n      0x00\n        /* \"#utility.yul\":1774:1779   */\n      dup2\n        /* \"#utility.yul\":1763:1779   */\n      swap1\n      pop\n        /* \"#utility.yul\":1780:1830   */\n      tag_236\n        /* \"#utility.yul\":1824:1829   */\n      dup3\n        /* \"#utility.yul\":1780:1830   */\n      tag_144\n      jump\t// in\n    tag_236:\n        /* \"#utility.yul\":1691:1836   */\n      swap2\n      swap1\n      pop\n      jump\t// out\n        /* \"#utility.yul\":1842:1987   */\n    tag_146:\n        /* \"#utility.yul\":1907:1916   */\n      0x00\n        /* \"#utility.yul\":1940:1981   */\n      tag_238\n        /* \"#utility.yul\":1975:1980   */\n      dup3\n        /* \"#utility.yul\":1940:1981   */\n      tag_145\n      jump\t// in\n    tag_238:\n        /* \"#utility.yul\":1927:1981   */\n      swap1\n      pop\n        /* \"#utility.yul\":1842:1987   */\n      swap2\n      swap1\n      pop\n      jump\t// out\n        /* \"#utility.yul\":1993:2154   */\n    tag_147:\n        /* \"#utility.yul\":2095:2147   */\n      tag_240\n        /* \"#utility.yul\":2141:2146   */\n      dup2\n        /* \"#utility.yul\":2095:2147   */\n      tag_146\n      jump\t// in\n    tag_240:\n        /* \"#utility.yul\":2090:2093   */\n      dup3\n        /* \"#utility.yul\":2083:2148   */\n      mstore\n        /* \"#utility.yul\":1993:2154   */\n      pop\n      pop\n      jump\t// out\n        /* \"#utility.yul\":2160:2412   */\n    tag_23:\n        /* \"#utility.yul\":2268:2272   */\n      0x00\n        /* \"#utility.yul\":2306:2308   */\n      0x20\n        /* \"#utility.yul\":2295:2304   */\n      dup3\n        /* \"#utility.yul\":2291:2309   */\n      add\n        /* \"#utility.yul\":2283:2309   */\n      swap1\n      pop\n        /* \"#utility.yul\":2319:2405   */\n      tag_242\n        /* \"#utility.yul\":2402:2403   */\n      0x00\n        /* \"#utility.yul\":2391:2400   */\n      dup4\n        /* \"#utility.yul\":2387:2404   */\n      add\n        /* \"#utility.yul\":2378:2384   */\n      dup5\n        /* \"#utility.yul\":2319:2405   */\n      tag_147\n      jump\t// in\n    tag_242:\n        /* \"#utility.yul\":2160:2412   */\n      swap3\n      swap2\n      pop\n      pop\n      jump\t// out\n        /* \"#utility.yul\":2418:2517   */\n    tag_148:\n        /* \"#utility.yul\":2470:2476   */\n      0x00\n        /* \"#utility.yul\":2504:2509   */\n      dup2\n        /* \"#utility.yul\":2498:2510   */\n      mload\n        /* \"#utility.yul\":2488:2510   */\n      swap1\n      pop\n        /* \"#utility.yul\":2418:2517   */\n      swap2\n      swap1\n      pop\n      jump\t// out\n        /* \"#utility.yul\":2523:2692   */\n    tag_149:\n        /* \"#utility.yul\":2607:2618   */\n      0x00\n        /* \"#utility.yul\":2641:2647   */\n      dup3\n        /* \"#utility.yul\":2636:2639   */\n      dup3\n        /* \"#utility.yul\":2629:2648   */\n      mstore\n        /* \"#utility.yul\":2681:2685   */\n      0x20\n        /* \"#utility.yul\":2676:2679   */\n      dup3\n        /* \"#utility.yul\":2672:2686   */\n      add\n        /* \"#utility.yul\":2657:2686   */\n      swap1\n      pop\n        /* \"#utility.yul\":2523:2692   */\n      swap3\n      swap2\n      pop\n      pop\n      jump\t// out\n        /* \"#utility.yul\":2698:2944   */\n    tag_150:\n        /* \"#utility.yul\":2779:2780   */\n      0x00\n        /* \"#utility.yul\":2789:2902   */\n    tag_246:\n        /* \"#utility.yul\":2803:2809   */\n      dup4\n        /* \"#utility.yul\":2800:2801   */\n      dup2\n        /* \"#utility.yul\":2797:2810   */\n      lt\n        /* \"#utility.yul\":2789:2902   */\n      iszero\n      tag_248\n      jumpi\n        /* \"#utility.yul\":2888:2889   */\n      dup1\n        /* \"#utility.yul\":2883:2886   */\n      dup3\n        /* \"#utility.yul\":2879:2890   */\n      add\n        /* \"#utility.yul\":2873:2891   */\n      mload\n        /* \"#utility.yul\":2869:2870   */\n      dup2\n        /* \"#utility.yul\":2864:2867   */\n      dup5\n        /* \"#utility.yul\":2860:2871   */\n      add\n        /* \"#utility.yul\":2853:2892   */\n      mstore\n        /* \"#utility.yul\":2825:2827   */\n      0x20\n        /* \"#utility.yul\":2822:2823   */\n      dup2\n        /* \"#utility.yul\":2818:2828   */\n      add\n        /* \"#utility.yul\":2813:2828   */\n      swap1\n      pop\n        /* \"#utility.yul\":2789:2902   */\n      jump(tag_246)\n    tag_248:\n        /* \"#utility.yul\":2936:2937   */\n      0x00\n        /* \"#utility.yul\":2927:2933   */\n      dup5\n        /* \"#utility.yul\":2922:2925   */\n      dup5\n        /* \"#utility.yul\":2918:2934   */\n      add\n        /* \"#utility.yul\":2911:2938   */\n      mstore\n        /* \"#utility.yul\":2760:2944   */\n      pop\n        /* \"#utility.yul\":2698:2944   */\n      pop\n      pop\n      pop\n      jump\t// out\n        /* \"#utility.yul\":2950:3052   */\n    tag_151:\n        /* \"#utility.yul\":2991:2997   */\n      0x00\n        /* \"#utility.yul\":3042:3044   */\n      0x1f\n        /* \"#utility.yul\":3038:3045   */\n      not\n        /* \"#utility.yul\":3033:3035   */\n      0x1f\n        /* \"#utility.yul\":3026:3031   */\n      dup4\n        /* \"#utility.yul\":3022:3036   */\n      add\n        /* \"#utility.yul\":3018:3046   */\n      and\n        /* \"#utility.yul\":3008:3046   */\n      swap1\n      pop\n        /* \"#utility.yul\":2950:3052   */\n      swap2\n      swap1\n      pop\n      jump\t// out\n        /* \"#utility.yul\":3058:3435   */\n    tag_152:\n        /* \"#utility.yul\":3146:3149   */\n      0x00\n        /* \"#utility.yul\":3174:3213   */\n      tag_251\n        /* \"#utility.yul\":3207:3212   */\n      dup3\n        /* \"#utility.yul\":3174:3213   */\n      tag_148\n      jump\t// in\n    tag_251:\n        /* \"#utility.yul\":3229:3300   */\n      tag_252\n        /* \"#utility.yul\":3293:3299   */\n      dup2\n        /* \"#utility.yul\":3288:3291   */\n      dup6\n        /* \"#utility.yul\":3229:3300   */\n      tag_149\n      jump\t// in\n    tag_252:\n        /* \"#utility.yul\":3222:3300   */\n      swap4\n      pop\n        /* \"#utility.yul\":3309:3374   */\n      tag_253\n        /* \"#utility.yul\":3367:3373   */\n      dup2\n        /* \"#utility.yul\":3362:3365   */\n      dup6\n        /* \"#utility.yul\":3355:3359   */\n      0x20\n        /* \"#utility.yul\":3348:3353   */\n      dup7\n        /* \"#utility.yul\":3344:3360   */\n      add\n        /* \"#utility.yul\":3309:3374   */\n      tag_150\n      jump\t// in\n    tag_253:\n        /* \"#utility.yul\":3399:3428   */\n      tag_254\n        /* \"#utility.yul\":3421:3427   */\n      dup2\n        /* \"#utility.yul\":3399:3428   */\n      tag_151\n      jump\t// in\n    tag_254:\n        /* \"#utility.yul\":3394:3397   */\n      dup5\n        /* \"#utility.yul\":3390:3429   */\n      add\n        /* \"#utility.yul\":3383:3429   */\n      swap2\n      pop\n        /* \"#utility.yul\":3150:3435   */\n      pop\n        /* \"#utility.yul\":3058:3435   */\n      swap3\n      swap2\n      pop\n      pop\n      jump\t// out\n        /* \"#utility.yul\":3441:3754   */\n    tag_29:\n        /* \"#utility.yul\":3554:3558   */\n      0x00\n        /* \"#utility.yul\":3592:3594   */\n      0x20\n        /* \"#utility.yul\":3581:3590   */\n      dup3\n        /* \"#utility.yul\":3577:3595   */\n      add\n        /* \"#utility.yul\":3569:3595   */\n      swap1\n      pop\n        /* \"#utility.yul\":3641:3650   */\n      dup2\n        /* \"#utility.yul\":3635:3639   */\n      dup2\n        /* \"#utility.yul\":3631:3651   */\n      sub\n        /* \"#utility.yul\":3627:3628   */\n      0x00\n        /* \"#utility.yul\":3616:3625   */\n      dup4\n        /* \"#utility.yul\":3612:3629   */\n      add\n        /* \"#utility.yul\":3605:3652   */\n      mstore\n        /* \"#utility.yul\":3669:3747   */\n      tag_256\n        /* \"#utility.yul\":3742:3746   */\n      dup2\n        /* \"#utility.yul\":3733:3739   */\n      dup5\n        /* \"#utility.yul\":3669:3747   */\n      tag_152\n      jump\t// in\n    tag_256:\n        /* \"#utility.yul\":3661:3747   */\n      swap1\n      pop\n        /* \"#utility.yul\":3441:3754   */\n      swap3\n      swap2\n      pop\n      pop\n      jump\t// out\n        /* \"#utility.yul\":3760:3886   */\n    tag_153:\n        /* \"#utility.yul\":3797:3804   */\n      0x00\n        /* \"#utility.yul\":3837:3879   */\n      0xffffffffffffffffffffffffffffffffffffffff\n        /* \"#utility.yul\":3830:3835   */\n      dup3\n        /* \"#utility.yul\":3826:3880   */\n      and\n        /* \"#utility.yul\":3815:3880   */\n      swap1\n      pop\n        /* \"#utility.yul\":3760:3886   */\n      swap2\n      swap1\n      pop\n      jump\t// out\n        /* \"#utility.yul\":3892:3996   */\n    tag_154:\n        /* \"#utility.yul\":3937:3944   */\n      0x00\n        /* \"#utility.yul\":3966:3990   */\n      tag_259\n        /* \"#utility.yul\":3984:3989   */\n      dup3\n        /* \"#utility.yul\":3966:3990   */\n      tag_153\n      jump\t// in\n    tag_259:\n        /* \"#utility.yul\":3955:3990   */\n      swap1\n      pop\n        /* \"#utility.yul\":3892:3996   */\n      swap2\n      swap1\n      pop\n      jump\t// out\n        /* \"#utility.yul\":4002:4144   */\n    tag_155:\n        /* \"#utility.yul\":4105:4137   */\n      tag_261\n        /* \"#utility.yul\":4131:4136   */\n      dup2\n        /* \"#utility.yul\":4105:4137   */\n      tag_154\n      jump\t// in\n    tag_261:\n        /* \"#utility.yul\":4100:4103   */\n      dup3\n        /* \"#utility.yul\":4093:4138   */\n      mstore\n        /* \"#utility.yul\":4002:4144   */\n      pop\n      pop\n      jump\t// out\n        /* \"#utility.yul\":4150:5110   */\n    tag_38:\n        /* \"#utility.yul\":4450:4454   */\n      0x00\n        /* \"#utility.yul\":4488:4491   */\n      0xc0\n        /* \"#utility.yul\":4477:4486   */\n      dup3\n        /* \"#utility.yul\":4473:4492   */\n      add\n        /* \"#utility.yul\":4465:4492   */\n      swap1\n      pop\n        /* \"#utility.yul\":4502:4573   */\n      tag_263\n        /* \"#utility.yul\":4570:4571   */\n      0x00\n        /* \"#utility.yul\":4559:4568   */\n      dup4\n        /* \"#utility.yul\":4555:4572   */\n      add\n        /* \"#utility.yul\":4546:4552   */\n      dup10\n        /* \"#utility.yul\":4502:4573   */\n      tag_138\n      jump\t// in\n    tag_263:\n        /* \"#utility.yul\":4583:4655   */\n      tag_264\n        /* \"#utility.yul\":4651:4653   */\n      0x20\n        /* \"#utility.yul\":4640:4649   */\n      dup4\n        /* \"#utility.yul\":4636:4654   */\n      add\n        /* \"#utility.yul\":4627:4633   */\n      dup9\n        /* \"#utility.yul\":4583:4655   */\n      tag_138\n      jump\t// in\n    tag_264:\n        /* \"#utility.yul\":4665:4753   */\n      tag_265\n        /* \"#utility.yul\":4749:4751   */\n      0x40\n        /* \"#utility.yul\":4738:4747   */\n      dup4\n        /* \"#utility.yul\":4734:4752   */\n      add\n        /* \"#utility.yul\":4725:4731   */\n      dup8\n        /* \"#utility.yul\":4665:4753   */\n      tag_155\n      jump\t// in\n    tag_265:\n        /* \"#utility.yul\":4763:4851   */\n      tag_266\n        /* \"#utility.yul\":4847:4849   */\n      0x60\n        /* \"#utility.yul\":4836:4845   */\n      dup4\n        /* \"#utility.yul\":4832:4850   */\n      add\n        /* \"#utility.yul\":4823:4829   */\n      dup7\n        /* \"#utility.yul\":4763:4851   */\n      tag_155\n      jump\t// in\n    tag_266:\n        /* \"#utility.yul\":4861:4949   */\n      tag_267\n        /* \"#utility.yul\":4944:4947   */\n      0x80\n        /* \"#utility.yul\":4933:4942   */\n      dup4\n        /* \"#utility.yul\":4929:4948   */\n      add\n        /* \"#utility.yul\":4920:4926   */\n      dup6\n        /* \"#utility.yul\":4861:4949   */\n      tag_147\n      jump\t// in\n    tag_267:\n        /* \"#utility.yul\":4997:5006   */\n      dup2\n        /* \"#utility.yul\":4991:4995   */\n      dup2\n        /* \"#utility.yul\":4987:5007   */\n      sub\n        /* \"#utility.yul\":4981:4984   */\n      0xa0\n        /* \"#utility.yul\":4970:4979   */\n      dup4\n        /* \"#utility.yul\":4966:4985   */\n      add\n        /* \"#utility.yul\":4959:5008   */\n      mstore\n        /* \"#utility.yul\":5025:5103   */\n      tag_268\n        /* \"#utility.yul\":5098:5102   */\n      dup2\n        /* \"#utility.yul\":5089:5095   */\n      dup5\n        /* \"#utility.yul\":5025:5103   */\n      tag_152\n      jump\t// in\n    tag_268:\n        /* \"#utility.yul\":5017:5103   */\n      swap1\n      pop\n        /* \"#utility.yul\":4150:5110   */\n      swap8\n      swap7\n      pop\n      pop\n      pop\n      pop\n      pop\n      pop\n      pop\n      jump\t// out\n        /* \"#utility.yul\":5116:5254   */\n    tag_156:\n        /* \"#utility.yul\":5197:5229   */\n      tag_270\n        /* \"#utility.yul\":5223:5228   */\n      dup2\n        /* \"#utility.yul\":5197:5229   */\n      tag_154\n      jump\t// in\n    tag_270:\n        /* \"#utility.yul\":5190:5195   */\n      dup2\n        /* \"#utility.yul\":5187:5230   */\n      eq\n        /* \"#utility.yul\":5177:5248   */\n      tag_271\n      jumpi\n        /* \"#utility.yul\":5244:5245   */\n      0x00\n        /* \"#utility.yul\":5241:5242   */\n      dup1\n        /* \"#utility.yul\":5234:5246   */\n      revert\n        /* \"#utility.yul\":5177:5248   */\n    tag_271:\n        /* \"#utility.yul\":5116:5254   */\n      pop\n      jump\t// out\n        /* \"#utility.yul\":5260:5415   */\n    tag_157:\n        /* \"#utility.yul\":5314:5319   */\n      0x00\n        /* \"#utility.yul\":5352:5358   */\n      dup2\n        /* \"#utility.yul\":5339:5359   */\n      calldataload\n        /* \"#utility.yul\":5330:5359   */\n      swap1\n      pop\n        /* \"#utility.yul\":5368:5409   */\n      tag_273\n        /* \"#utility.yul\":5403:5408   */\n      dup2\n        /* \"#utility.yul\":5368:5409   */\n      tag_156\n      jump\t// in\n    tag_273:\n        /* \"#utility.yul\":5260:5415   */\n      swap3\n      swap2\n      pop\n      pop\n      jump\t// out\n        /* \"#utility.yul\":5421:5538   */\n    tag_158:\n        /* \"#utility.yul\":5530:5531   */\n      0x00\n        /* \"#utility.yul\":5527:5528   */\n      dup1\n        /* \"#utility.yul\":5520:5532   */\n      revert\n        /* \"#utility.yul\":5544:5661   */\n    tag_159:\n        /* \"#utility.yul\":5653:5654   */\n      0x00\n        /* \"#utility.yul\":5650:5651   */\n      dup1\n        /* \"#utility.yul\":5643:5655   */\n      revert\n        /* \"#utility.yul\":5667:5847   */\n    tag_160:\n        /* \"#utility.yul\":5715:5792   */\n      0x4e487b7100000000000000000000000000000000000000000000000000000000\n        /* \"#utility.yul\":5712:5713   */\n      0x00\n        /* \"#utility.yul\":5705:5793   */\n      mstore\n        /* \"#utility.yul\":5812:5816   */\n      0x41\n        /* \"#utility.yul\":5809:5810   */\n      0x04\n        /* \"#utility.yul\":5802:5817   */\n      mstore\n        /* \"#utility.yul\":5836:5840   */\n      0x24\n        /* \"#utility.yul\":5833:5834   */\n      0x00\n        /* \"#utility.yul\":5826:5841   */\n      revert\n        /* \"#utility.yul\":5853:6134   */\n    tag_161:\n        /* \"#utility.yul\":5936:5963   */\n      tag_278\n        /* \"#utility.yul\":5958:5962   */\n      dup3\n        /* \"#utility.yul\":5936:5963   */\n      tag_151\n      jump\t// in\n    tag_278:\n        /* \"#utility.yul\":5928:5934   */\n      dup2\n        /* \"#utility.yul\":5924:5964   */\n      add\n        /* \"#utility.yul\":6066:6072   */\n      dup2\n        /* \"#utility.yul\":6054:6064   */\n      dup2\n        /* \"#utility.yul\":6051:6073   */\n      lt\n        /* \"#utility.yul\":6030:6048   */\n      0xffffffffffffffff\n        /* \"#utility.yul\":6018:6028   */\n      dup3\n        /* \"#utility.yul\":6015:6049   */\n      gt\n        /* \"#utility.yul\":6012:6074   */\n      or\n        /* \"#utility.yul\":6009:6097   */\n      iszero\n      tag_279\n      jumpi\n        /* \"#utility.yul\":6077:6095   */\n      tag_280\n      tag_160\n      jump\t// in\n    tag_280:\n        /* \"#utility.yul\":6009:6097   */\n    tag_279:\n        /* \"#utility.yul\":6117:6127   */\n      dup1\n        /* \"#utility.yul\":6113:6115   */\n      0x40\n        /* \"#utility.yul\":6106:6128   */\n      mstore\n        /* \"#utility.yul\":5896:6134   */\n      pop\n        /* \"#utility.yul\":5853:6134   */\n      pop\n      pop\n      jump\t// out\n        /* \"#utility.yul\":6140:6269   */\n    tag_162:\n        /* \"#utility.yul\":6174:6180   */\n      0x00\n        /* \"#utility.yul\":6201:6221   */\n      tag_282\n      tag_139\n      jump\t// in\n    tag_282:\n        /* \"#utility.yul\":6191:6221   */\n      swap1\n      pop\n        /* \"#utility.yul\":6230:6263   */\n      tag_283\n        /* \"#utility.yul\":6258:6262   */\n      dup3\n        /* \"#utility.yul\":6250:6256   */\n      dup3\n        /* \"#utility.yul\":6230:6263   */\n      tag_161\n      jump\t// in\n    tag_283:\n        /* \"#utility.yul\":6140:6269   */\n      swap2\n      swap1\n      pop\n      jump\t// out\n        /* \"#utility.yul\":6275:6583   */\n    tag_163:\n        /* \"#utility.yul\":6337:6341   */\n      0x00\n        /* \"#utility.yul\":6427:6445   */\n      0xffffffffffffffff\n        /* \"#utility.yul\":6419:6425   */\n      dup3\n        /* \"#utility.yul\":6416:6446   */\n      gt\n        /* \"#utility.yul\":6413:6469   */\n      iszero\n      tag_285\n      jumpi\n        /* \"#utility.yul\":6449:6467   */\n      tag_286\n      tag_160\n      jump\t// in\n    tag_286:\n        /* \"#utility.yul\":6413:6469   */\n    tag_285:\n        /* \"#utility.yul\":6487:6516   */\n      tag_287\n        /* \"#utility.yul\":6509:6515   */\n      dup3\n        /* \"#utility.yul\":6487:6516   */\n      tag_151\n      jump\t// in\n    tag_287:\n        /* \"#utility.yul\":6479:6516   */\n      swap1\n      pop\n        /* \"#utility.yul\":6571:6575   */\n      0x20\n        /* \"#utility.yul\":6565:6569   */\n      dup2\n        /* \"#utility.yul\":6561:6576   */\n      add\n        /* \"#utility.yul\":6553:6576   */\n      swap1\n      pop\n        /* \"#utility.yul\":6275:6583   */\n      swap2\n      swap1\n      pop\n      jump\t// out\n        /* \"#utility.yul\":6589:6735   */\n    tag_164:\n        /* \"#utility.yul\":6686:6692   */\n      dup3\n        /* \"#utility.yul\":6681:6684   */\n      dup2\n        /* \"#utility.yul\":6676:6679   */\n      dup4\n        /* \"#utility.yul\":6663:6693   */\n      calldatacopy\n        /* \"#utility.yul\":6727:6728   */\n      0x00\n        /* \"#utility.yul\":6718:6724   */\n      dup4\n        /* \"#utility.yul\":6713:6716   */\n      dup4\n        /* \"#utility.yul\":6709:6725   */\n      add\n        /* \"#utility.yul\":6702:6729   */\n      mstore\n        /* \"#utility.yul\":6589:6735   */\n      pop\n      pop\n      pop\n      jump\t// out\n        /* \"#utility.yul\":6741:7166   */\n    tag_165:\n        /* \"#utility.yul\":6819:6824   */\n      0x00\n        /* \"#utility.yul\":6844:6910   */\n      tag_290\n        /* \"#utility.yul\":6860:6909   */\n      tag_291\n        /* \"#utility.yul\":6902:6908   */\n      dup5\n        /* \"#utility.yul\":6860:6909   */\n      tag_163\n      jump\t// in\n    tag_291:\n        /* \"#utility.yul\":6844:6910   */\n      tag_162\n      jump\t// in\n    tag_290:\n        /* \"#utility.yul\":6835:6910   */\n      swap1\n      pop\n        /* \"#utility.yul\":6933:6939   */\n      dup3\n        /* \"#utility.yul\":6926:6931   */\n      dup2\n        /* \"#utility.yul\":6919:6940   */\n      mstore\n        /* \"#utility.yul\":6971:6975   */\n      0x20\n        /* \"#utility.yul\":6964:6969   */\n      dup2\n        /* \"#utility.yul\":6960:6976   */\n      add\n        /* \"#utility.yul\":7009:7012   */\n      dup5\n        /* \"#utility.yul\":7000:7006   */\n      dup5\n        /* \"#utility.yul\":6995:6998   */\n      dup5\n        /* \"#utility.yul\":6991:7007   */\n      add\n        /* \"#utility.yul\":6988:7013   */\n      gt\n        /* \"#utility.yul\":6985:7097   */\n      iszero\n      tag_292\n      jumpi\n        /* \"#utility.yul\":7016:7095   */\n      tag_293\n      tag_159\n      jump\t// in\n    tag_293:\n        /* \"#utility.yul\":6985:7097   */\n    tag_292:\n        /* \"#utility.yul\":7106:7160   */\n      tag_294\n        /* \"#utility.yul\":7153:7159   */\n      dup5\n        /* \"#utility.yul\":7148:7151   */\n      dup3\n        /* \"#utility.yul\":7143:7146   */\n      dup6\n        /* \"#utility.yul\":7106:7160   */\n      tag_164\n      jump\t// in\n    tag_294:\n        /* \"#utility.yul\":6825:7166   */\n      pop\n        /* \"#utility.yul\":6741:7166   */\n      swap4\n      swap3\n      pop\n      pop\n      pop\n      jump\t// out\n        /* \"#utility.yul\":7186:7526   */\n    tag_166:\n        /* \"#utility.yul\":7242:7247   */\n      0x00\n        /* \"#utility.yul\":7291:7294   */\n      dup3\n        /* \"#utility.yul\":7284:7288   */\n      0x1f\n        /* \"#utility.yul\":7276:7282   */\n      dup4\n        /* \"#utility.yul\":7272:7289   */\n      add\n        /* \"#utility.yul\":7268:7295   */\n      slt\n        /* \"#utility.yul\":7258:7380   */\n      tag_296\n      jumpi\n        /* \"#utility.yul\":7299:7378   */\n      tag_297\n      tag_158\n      jump\t// in\n    tag_297:\n        /* \"#utility.yul\":7258:7380   */\n    tag_296:\n        /* \"#utility.yul\":7416:7422   */\n      dup2\n        /* \"#utility.yul\":7403:7423   */\n      calldataload\n        /* \"#utility.yul\":7441:7520   */\n      tag_298\n        /* \"#utility.yul\":7516:7519   */\n      dup5\n        /* \"#utility.yul\":7508:7514   */\n      dup3\n        /* \"#utility.yul\":7501:7505   */\n      0x20\n        /* \"#utility.yul\":7493:7499   */\n      dup7\n        /* \"#utility.yul\":7489:7506   */\n      add\n        /* \"#utility.yul\":7441:7520   */\n      tag_165\n      jump\t// in\n    tag_298:\n        /* \"#utility.yul\":7432:7520   */\n      swap2\n      pop\n        /* \"#utility.yul\":7248:7526   */\n      pop\n        /* \"#utility.yul\":7186:7526   */\n      swap3\n      swap2\n      pop\n      pop\n      jump\t// out\n        /* \"#utility.yul\":7532:8347   */\n    tag_49:\n        /* \"#utility.yul\":7627:7633   */\n      0x00\n        /* \"#utility.yul\":7635:7641   */\n      dup1\n        /* \"#utility.yul\":7643:7649   */\n      0x00\n        /* \"#utility.yul\":7692:7694   */\n      0x60\n        /* \"#utility.yul\":7680:7689   */\n      dup5\n        /* \"#utility.yul\":7671:7678   */\n      dup7\n        /* \"#utility.yul\":7667:7690   */\n      sub\n        /* \"#utility.yul\":7663:7695   */\n      slt\n        /* \"#utility.yul\":7660:7779   */\n      iszero\n      tag_300\n      jumpi\n        /* \"#utility.yul\":7698:7777   */\n      tag_301\n      tag_140\n      jump\t// in\n    tag_301:\n        /* \"#utility.yul\":7660:7779   */\n    tag_300:\n        /* \"#utility.yul\":7818:7819   */\n      0x00\n        /* \"#utility.yul\":7843:7904   */\n      tag_302\n        /* \"#utility.yul\":7896:7903   */\n      dup7\n        /* \"#utility.yul\":7887:7893   */\n      dup3\n        /* \"#utility.yul\":7876:7885   */\n      dup8\n        /* \"#utility.yul\":7872:7894   */\n      add\n        /* \"#utility.yul\":7843:7904   */\n      tag_157\n      jump\t// in\n    tag_302:\n        /* \"#utility.yul\":7833:7904   */\n      swap4\n      pop\n        /* \"#utility.yul\":7789:7914   */\n      pop\n        /* \"#utility.yul\":7981:7983   */\n      0x20\n        /* \"#utility.yul\":7970:7979   */\n      dup5\n        /* \"#utility.yul\":7966:7984   */\n      add\n        /* \"#utility.yul\":7953:7985   */\n      calldataload\n        /* \"#utility.yul\":8012:8030   */\n      0xffffffffffffffff\n        /* \"#utility.yul\":8004:8010   */\n      dup2\n        /* \"#utility.yul\":8001:8031   */\n      gt\n        /* \"#utility.yul\":7998:8115   */\n      iszero\n      tag_303\n      jumpi\n        /* \"#utility.yul\":8034:8113   */\n      tag_304\n      tag_141\n      jump\t// in\n    tag_304:\n        /* \"#utility.yul\":7998:8115   */\n    tag_303:\n        /* \"#utility.yul\":8139:8202   */\n      tag_305\n        /* \"#utility.yul\":8194:8201   */\n      dup7\n        /* \"#utility.yul\":8185:8191   */\n      dup3\n        /* \"#utility.yul\":8174:8183   */\n      dup8\n        /* \"#utility.yul\":8170:8192   */\n      add\n        /* \"#utility.yul\":8139:8202   */\n      tag_166\n      jump\t// in\n    tag_305:\n        /* \"#utility.yul\":8129:8202   */\n      swap3\n      pop\n        /* \"#utility.yul\":7924:8212   */\n      pop\n        /* \"#utility.yul\":8251:8253   */\n      0x40\n        /* \"#utility.yul\":8277:8330   */\n      tag_306\n        /* \"#utility.yul\":8322:8329   */\n      dup7\n        /* \"#utility.yul\":8313:8319   */\n      dup3\n        /* \"#utility.yul\":8302:8311   */\n      dup8\n        /* \"#utility.yul\":8298:8320   */\n      add\n        /* \"#utility.yul\":8277:8330   */\n      tag_143\n      jump\t// in\n    tag_306:\n        /* \"#utility.yul\":8267:8330   */\n      swap2\n      pop\n        /* \"#utility.yul\":8222:8340   */\n      pop\n        /* \"#utility.yul\":7532:8347   */\n      swap3\n      pop\n      swap3\n      pop\n      swap3\n      jump\t// out\n        /* \"#utility.yul\":8353:8449   */\n    tag_167:\n        /* \"#utility.yul\":8390:8397   */\n      0x00\n        /* \"#utility.yul\":8419:8443   */\n      tag_308\n        /* \"#utility.yul\":8437:8442   */\n      dup3\n        /* \"#utility.yul\":8419:8443   */\n      tag_153\n      jump\t// in\n    tag_308:\n        /* \"#utility.yul\":8408:8443   */\n      swap1\n      pop\n        /* \"#utility.yul\":8353:8449   */\n      swap2\n      swap1\n      pop\n      jump\t// out\n        /* \"#utility.yul\":8455:8577   */\n    tag_168:\n        /* \"#utility.yul\":8528:8552   */\n      tag_310\n        /* \"#utility.yul\":8546:8551   */\n      dup2\n        /* \"#utility.yul\":8528:8552   */\n      tag_167\n      jump\t// in\n    tag_310:\n        /* \"#utility.yul\":8521:8526   */\n      dup2\n        /* \"#utility.yul\":8518:8553   */\n      eq\n        /* \"#utility.yul\":8508:8571   */\n      tag_311\n      jumpi\n        /* \"#utility.yul\":8567:8568   */\n      0x00\n        /* \"#utility.yul\":8564:8565   */\n      dup1\n        /* \"#utility.yul\":8557:8569   */\n      revert\n        /* \"#utility.yul\":8508:8571   */\n    tag_311:\n        /* \"#utility.yul\":8455:8577   */\n      pop\n      jump\t// out\n        /* \"#utility.yul\":8583:8722   */\n    tag_169:\n        /* \"#utility.yul\":8629:8634   */\n      0x00\n        /* \"#utility.yul\":8667:8673   */\n      dup2\n        /* \"#utility.yul\":8654:8674   */\n      calldataload\n        /* \"#utility.yul\":8645:8674   */\n      swap1\n      pop\n        /* \"#utility.yul\":8683:8716   */\n      tag_313\n        /* \"#utility.yul\":8710:8715   */\n      dup2\n        /* \"#utility.yul\":8683:8716   */\n      tag_168\n      jump\t// in\n    tag_313:\n        /* \"#utility.yul\":8583:8722   */\n      swap3\n      swap2\n      pop\n      pop\n      jump\t// out\n        /* \"#utility.yul\":8728:9057   */\n    tag_54:\n        /* \"#utility.yul\":8787:8793   */\n      0x00\n        /* \"#utility.yul\":8836:8838   */\n      0x20\n        /* \"#utility.yul\":8824:8833   */\n      dup3\n        /* \"#utility.yul\":8815:8822   */\n      dup5\n        /* \"#utility.yul\":8811:8834   */\n      sub\n        /* \"#utility.yul\":8807:8839   */\n      slt\n        /* \"#utility.yul\":8804:8923   */\n      iszero\n      tag_315\n      jumpi\n        /* \"#utility.yul\":8842:8921   */\n      tag_316\n      tag_140\n      jump\t// in\n    tag_316:\n        /* \"#utility.yul\":8804:8923   */\n    tag_315:\n        /* \"#utility.yul\":8962:8963   */\n      0x00\n        /* \"#utility.yul\":8987:9040   */\n      tag_317\n        /* \"#utility.yul\":9032:9039   */\n      dup5\n        /* \"#utility.yul\":9023:9029   */\n      dup3\n        /* \"#utility.yul\":9012:9021   */\n      dup6\n        /* \"#utility.yul\":9008:9030   */\n      add\n        /* \"#utility.yul\":8987:9040   */\n      tag_169\n      jump\t// in\n    tag_317:\n        /* \"#utility.yul\":8977:9040   */\n      swap2\n      pop\n        /* \"#utility.yul\":8933:9050   */\n      pop\n        /* \"#utility.yul\":8728:9057   */\n      swap3\n      swap2\n      pop\n      pop\n      jump\t// out\n        /* \"#utility.yul\":9063:9243   */\n    tag_170:\n        /* \"#utility.yul\":9111:9188   */\n      0x4e487b7100000000000000000000000000000000000000000000000000000000\n        /* \"#utility.yul\":9108:9109   */\n      0x00\n        /* \"#utility.yul\":9101:9189   */\n      mstore\n        /* \"#utility.yul\":9208:9212   */\n      0x22\n        /* \"#utility.yul\":9205:9206   */\n      0x04\n        /* \"#utility.yul\":9198:9213   */\n      mstore\n        /* \"#utility.yul\":9232:9236   */\n      0x24\n        /* \"#utility.yul\":9229:9230   */\n      0x00\n        /* \"#utility.yul\":9222:9237   */\n      revert\n        /* \"#utility.yul\":9249:9569   */\n    tag_60:\n        /* \"#utility.yul\":9293:9299   */\n      0x00\n        /* \"#utility.yul\":9330:9331   */\n      0x02\n        /* \"#utility.yul\":9324:9328   */\n      dup3\n        /* \"#utility.yul\":9320:9332   */\n      div\n        /* \"#utility.yul\":9310:9332   */\n      swap1\n      pop\n        /* \"#utility.yul\":9377:9378   */\n      0x01\n        /* \"#utility.yul\":9371:9375   */\n      dup3\n        /* \"#utility.yul\":9367:9379   */\n      and\n        /* \"#utility.yul\":9398:9416   */\n      dup1\n        /* \"#utility.yul\":9388:9469   */\n      tag_320\n      jumpi\n        /* \"#utility.yul\":9454:9458   */\n      0x7f\n        /* \"#utility.yul\":9446:9452   */\n      dup3\n        /* \"#utility.yul\":9442:9459   */\n      and\n        /* \"#utility.yul\":9432:9459   */\n      swap2\n      pop\n        /* \"#utility.yul\":9388:9469   */\n    tag_320:\n        /* \"#utility.yul\":9516:9518   */\n      0x20\n        /* \"#utility.yul\":9508:9514   */\n      dup3\n        /* \"#utility.yul\":9505:9519   */\n      lt\n        /* \"#utility.yul\":9485:9503   */\n      dup2\n        /* \"#utility.yul\":9482:9520   */\n      sub\n        /* \"#utility.yul\":9479:9563   */\n      tag_321\n      jumpi\n        /* \"#utility.yul\":9535:9553   */\n      tag_322\n      tag_170\n      jump\t// in\n    tag_322:\n        /* \"#utility.yul\":9479:9563   */\n    tag_321:\n        /* \"#utility.yul\":9300:9569   */\n      pop\n        /* \"#utility.yul\":9249:9569   */\n      swap2\n      swap1\n      pop\n      jump\t// out\n        /* \"#utility.yul\":9575:9756   */\n    tag_171:\n        /* \"#utility.yul\":9715:9748   */\n      0x5265656e7472616e637947756172643a207265656e7472616e742063616c6c00\n        /* \"#utility.yul\":9711:9712   */\n      0x00\n        /* \"#utility.yul\":9703:9709   */\n      dup3\n        /* \"#utility.yul\":9699:9713   */\n      add\n        /* \"#utility.yul\":9692:9749   */\n      mstore\n        /* \"#utility.yul\":9575:9756   */\n      pop\n      jump\t// out\n        /* \"#utility.yul\":9762:10128   */\n    tag_172:\n        /* \"#utility.yul\":9904:9907   */\n      0x00\n        /* \"#utility.yul\":9925:9992   */\n      tag_325\n        /* \"#utility.yul\":9989:9991   */\n      0x1f\n        /* \"#utility.yul\":9984:9987   */\n      dup4\n        /* \"#utility.yul\":9925:9992   */\n      tag_149\n      jump\t// in\n    tag_325:\n        /* \"#utility.yul\":9918:9992   */\n      swap2\n      pop\n        /* \"#utility.yul\":10001:10094   */\n      tag_326\n        /* \"#utility.yul\":10090:10093   */\n      dup3\n        /* \"#utility.yul\":10001:10094   */\n      tag_171\n      jump\t// in\n    tag_326:\n        /* \"#utility.yul\":10119:10121   */\n      0x20\n        /* \"#utility.yul\":10114:10117   */\n      dup3\n        /* \"#utility.yul\":10110:10122   */\n      add\n        /* \"#utility.yul\":10103:10122   */\n      swap1\n      pop\n        /* \"#utility.yul\":9762:10128   */\n      swap2\n      swap1\n      pop\n      jump\t// out\n        /* \"#utility.yul\":10134:10553   */\n    tag_68:\n        /* \"#utility.yul\":10300:10304   */\n      0x00\n        /* \"#utility.yul\":10338:10340   */\n      0x20\n        /* \"#utility.yul\":10327:10336   */\n      dup3\n        /* \"#utility.yul\":10323:10341   */\n      add\n        /* \"#utility.yul\":10315:10341   */\n      swap1\n      pop\n        /* \"#utility.yul\":10387:10396   */\n      dup2\n        /* \"#utility.yul\":10381:10385   */\n      dup2\n        /* \"#utility.yul\":10377:10397   */\n      sub\n        /* \"#utility.yul\":10373:10374   */\n      0x00\n        /* \"#utility.yul\":10362:10371   */\n      dup4\n        /* \"#utility.yul\":10358:10375   */\n      add\n        /* \"#utility.yul\":10351:10398   */\n      mstore\n        /* \"#utility.yul\":10415:10546   */\n      tag_328\n        /* \"#utility.yul\":10541:10545   */\n      dup2\n        /* \"#utility.yul\":10415:10546   */\n      tag_172\n      jump\t// in\n    tag_328:\n        /* \"#utility.yul\":10407:10546   */\n      swap1\n      pop\n        /* \"#utility.yul\":10134:10553   */\n      swap2\n      swap1\n      pop\n      jump\t// out\n        /* \"#utility.yul\":10559:10717   */\n    tag_173:\n        /* \"#utility.yul\":10699:10709   */\n      0x4e6f2066756e6473000000000000000000000000000000000000000000000000\n        /* \"#utility.yul\":10695:10696   */\n      0x00\n        /* \"#utility.yul\":10687:10693   */\n      dup3\n        /* \"#utility.yul\":10683:10697   */\n      add\n        /* \"#utility.yul\":10676:10710   */\n      mstore\n        /* \"#utility.yul\":10559:10717   */\n      pop\n      jump\t// out\n        /* \"#utility.yul\":10723:11088   */\n    tag_174:\n        /* \"#utility.yul\":10865:10868   */\n      0x00\n        /* \"#utility.yul\":10886:10952   */\n      tag_331\n        /* \"#utility.yul\":10950:10951   */\n      0x08\n        /* \"#utility.yul\":10945:10948   */\n      dup4\n        /* \"#utility.yul\":10886:10952   */\n      tag_149\n      jump\t// in\n    tag_331:\n        /* \"#utility.yul\":10879:10952   */\n      swap2\n      pop\n        /* \"#utility.yul\":10961:11054   */\n      tag_332\n        /* \"#utility.yul\":11050:11053   */\n      dup3\n        /* \"#utility.yul\":10961:11054   */\n      tag_173\n      jump\t// in\n    tag_332:\n        /* \"#utility.yul\":11079:11081   */\n      0x20\n        /* \"#utility.yul\":11074:11077   */\n      dup3\n        /* \"#utility.yul\":11070:11082   */\n      add\n        /* \"#utility.yul\":11063:11082   */\n      swap1\n      pop\n        /* \"#utility.yul\":10723:11088   */\n      swap2\n      swap1\n      pop\n      jump\t// out\n        /* \"#utility.yul\":11094:11513   */\n    tag_72:\n        /* \"#utility.yul\":11260:11264   */\n      0x00\n        /* \"#utility.yul\":11298:11300   */\n      0x20\n        /* \"#utility.yul\":11287:11296   */\n      dup3\n        /* \"#utility.yul\":11283:11301   */\n      add\n        /* \"#utility.yul\":11275:11301   */\n      swap1\n      pop\n        /* \"#utility.yul\":11347:11356   */\n      dup2\n        /* \"#utility.yul\":11341:11345   */\n      dup2\n        /* \"#utility.yul\":11337:11357   */\n      sub\n        /* \"#utility.yul\":11333:11334   */\n      0x00\n        /* \"#utility.yul\":11322:11331   */\n      dup4\n        /* \"#utility.yul\":11318:11335   */\n      add\n        /* \"#utility.yul\":11311:11358   */\n      mstore\n        /* \"#utility.yul\":11375:11506   */\n      tag_334\n        /* \"#utility.yul\":11501:11505   */\n      dup2\n        /* \"#utility.yul\":11375:11506   */\n      tag_174\n      jump\t// in\n    tag_334:\n        /* \"#utility.yul\":11367:11506   */\n      swap1\n      pop\n        /* \"#utility.yul\":11094:11513   */\n      swap2\n      swap1\n      pop\n      jump\t// out\n        /* \"#utility.yul\":11519:11666   */\n    tag_175:\n        /* \"#utility.yul\":11620:11631   */\n      0x00\n        /* \"#utility.yul\":11657:11660   */\n      dup2\n        /* \"#utility.yul\":11642:11660   */\n      swap1\n      pop\n        /* \"#utility.yul\":11519:11666   */\n      swap3\n      swap2\n      pop\n      pop\n      jump\t// out\n        /* \"#utility.yul\":11672:11786   */\n    tag_176:\n      pop\n      jump\t// out\n        /* \"#utility.yul\":11792:12190   */\n    tag_177:\n        /* \"#utility.yul\":11951:11954   */\n      0x00\n        /* \"#utility.yul\":11972:12055   */\n      tag_338\n        /* \"#utility.yul\":12053:12054   */\n      0x00\n        /* \"#utility.yul\":12048:12051   */\n      dup4\n        /* \"#utility.yul\":11972:12055   */\n      tag_175\n      jump\t// in\n    tag_338:\n        /* \"#utility.yul\":11965:12055   */\n      swap2\n      pop\n        /* \"#utility.yul\":12064:12157   */\n      tag_339\n        /* \"#utility.yul\":12153:12156   */\n      dup3\n        /* \"#utility.yul\":12064:12157   */\n      tag_176\n      jump\t// in\n    tag_339:\n        /* \"#utility.yul\":12182:12183   */\n      0x00\n        /* \"#utility.yul\":12177:12180   */\n      dup3\n        /* \"#utility.yul\":12173:12184   */\n      add\n        /* \"#utility.yul\":12166:12184   */\n      swap1\n      pop\n        /* \"#utility.yul\":11792:12190   */\n      swap2\n      swap1\n      pop\n      jump\t// out\n        /* \"#utility.yul\":12196:12575   */\n    tag_74:\n        /* \"#utility.yul\":12380:12383   */\n      0x00\n        /* \"#utility.yul\":12402:12549   */\n      tag_341\n        /* \"#utility.yul\":12545:12548   */\n      dup3\n        /* \"#utility.yul\":12402:12549   */\n      tag_177\n      jump\t// in\n    tag_341:\n        /* \"#utility.yul\":12395:12549   */\n      swap2\n      pop\n        /* \"#utility.yul\":12566:12569   */\n      dup2\n        /* \"#utility.yul\":12559:12569   */\n      swap1\n      pop\n        /* \"#utility.yul\":12196:12575   */\n      swap2\n      swap1\n      pop\n      jump\t// out\n        /* \"#utility.yul\":12581:12744   */\n    tag_178:\n        /* \"#utility.yul\":12721:12736   */\n      0x5769746864726177206661696c00000000000000000000000000000000000000\n        /* \"#utility.yul\":12717:12718   */\n      0x00\n        /* \"#utility.yul\":12709:12715   */\n      dup3\n        /* \"#utility.yul\":12705:12719   */\n      add\n        /* \"#utility.yul\":12698:12737   */\n      mstore\n        /* \"#utility.yul\":12581:12744   */\n      pop\n      jump\t// out\n        /* \"#utility.yul\":12750:13116   */\n    tag_179:\n        /* \"#utility.yul\":12892:12895   */\n      0x00\n        /* \"#utility.yul\":12913:12980   */\n      tag_344\n        /* \"#utility.yul\":12977:12979   */\n      0x0d\n        /* \"#utility.yul\":12972:12975   */\n      dup4\n        /* \"#utility.yul\":12913:12980   */\n      tag_149\n      jump\t// in\n    tag_344:\n        /* \"#utility.yul\":12906:12980   */\n      swap2\n      pop\n        /* \"#utility.yul\":12989:13082   */\n      tag_345\n        /* \"#utility.yul\":13078:13081   */\n      dup3\n        /* \"#utility.yul\":12989:13082   */\n      tag_178\n      jump\t// in\n    tag_345:\n        /* \"#utility.yul\":13107:13109   */\n      0x20\n        /* \"#utility.yul\":13102:13105   */\n      dup3\n        /* \"#utility.yul\":13098:13110   */\n      add\n        /* \"#utility.yul\":13091:13110   */\n      swap1\n      pop\n        /* \"#utility.yul\":12750:13116   */\n      swap2\n      swap1\n      pop\n      jump\t// out\n        /* \"#utility.yul\":13122:13541   */\n    tag_80:\n        /* \"#utility.yul\":13288:13292   */\n      0x00\n        /* \"#utility.yul\":13326:13328   */\n      0x20\n        /* \"#utility.yul\":13315:13324   */\n      dup3\n        /* \"#utility.yul\":13311:13329   */\n      add\n        /* \"#utility.yul\":13303:13329   */\n      swap1\n      pop\n        /* \"#utility.yul\":13375:13384   */\n      dup2\n        /* \"#utility.yul\":13369:13373   */\n      dup2\n        /* \"#utility.yul\":13365:13385   */\n      sub\n        /* \"#utility.yul\":13361:13362   */\n      0x00\n        /* \"#utility.yul\":13350:13359   */\n      dup4\n        /* \"#utility.yul\":13346:13363   */\n      add\n        /* \"#utility.yul\":13339:13386   */\n      mstore\n        /* \"#utility.yul\":13403:13534   */\n      tag_347\n        /* \"#utility.yul\":13529:13533   */\n      dup2\n        /* \"#utility.yul\":13403:13534   */\n      tag_179\n      jump\t// in\n    tag_347:\n        /* \"#utility.yul\":13395:13534   */\n      swap1\n      pop\n        /* \"#utility.yul\":13122:13541   */\n      swap2\n      swap1\n      pop\n      jump\t// out\n        /* \"#utility.yul\":13547:13708   */\n    tag_180:\n        /* \"#utility.yul\":13687:13700   */\n      0x4e6f742063726561746f72000000000000000000000000000000000000000000\n        /* \"#utility.yul\":13683:13684   */\n      0x00\n        /* \"#utility.yul\":13675:13681   */\n      dup3\n        /* \"#utility.yul\":13671:13685   */\n      add\n        /* \"#utility.yul\":13664:13701   */\n      mstore\n        /* \"#utility.yul\":13547:13708   */\n      pop\n      jump\t// out\n        /* \"#utility.yul\":13714:14080   */\n    tag_181:\n        /* \"#utility.yul\":13856:13859   */\n      0x00\n        /* \"#utility.yul\":13877:13944   */\n      tag_350\n        /* \"#utility.yul\":13941:13943   */\n      0x0b\n        /* \"#utility.yul\":13936:13939   */\n      dup4\n        /* \"#utility.yul\":13877:13944   */\n      tag_149\n      jump\t// in\n    tag_350:\n        /* \"#utility.yul\":13870:13944   */\n      swap2\n      pop\n        /* \"#utility.yul\":13953:14046   */\n      tag_351\n        /* \"#utility.yul\":14042:14045   */\n      dup3\n        /* \"#utility.yul\":13953:14046   */\n      tag_180\n      jump\t// in\n    tag_351:\n        /* \"#utility.yul\":14071:14073   */\n      0x20\n        /* \"#utility.yul\":14066:14069   */\n      dup3\n        /* \"#utility.yul\":14062:14074   */\n      add\n        /* \"#utility.yul\":14055:14074   */\n      swap1\n      pop\n        /* \"#utility.yul\":13714:14080   */\n      swap2\n      swap1\n      pop\n      jump\t// out\n        /* \"#utility.yul\":14086:14505   */\n    tag_93:\n        /* \"#utility.yul\":14252:14256   */\n      0x00\n        /* \"#utility.yul\":14290:14292   */\n      0x20\n        /* \"#utility.yul\":14279:14288   */\n      dup3\n        /* \"#utility.yul\":14275:14293   */\n      add\n        /* \"#utility.yul\":14267:14293   */\n      swap1\n      pop\n        /* \"#utility.yul\":14339:14348   */\n      dup2\n        /* \"#utility.yul\":14333:14337   */\n      dup2\n        /* \"#utility.yul\":14329:14349   */\n      sub\n        /* \"#utility.yul\":14325:14326   */\n      0x00\n        /* \"#utility.yul\":14314:14323   */\n      dup4\n        /* \"#utility.yul\":14310:14327   */\n      add\n        /* \"#utility.yul\":14303:14350   */\n      mstore\n        /* \"#utility.yul\":14367:14498   */\n      tag_353\n        /* \"#utility.yul\":14493:14497   */\n      dup2\n        /* \"#utility.yul\":14367:14498   */\n      tag_181\n      jump\t// in\n    tag_353:\n        /* \"#utility.yul\":14359:14498   */\n      swap1\n      pop\n        /* \"#utility.yul\":14086:14505   */\n      swap2\n      swap1\n      pop\n      jump\t// out\n        /* \"#utility.yul\":14511:14671   */\n    tag_182:\n        /* \"#utility.yul\":14651:14663   */\n      0x4e6f74207369676e656400000000000000000000000000000000000000000000\n        /* \"#utility.yul\":14647:14648   */\n      0x00\n        /* \"#utility.yul\":14639:14645   */\n      dup3\n        /* \"#utility.yul\":14635:14649   */\n      add\n        /* \"#utility.yul\":14628:14664   */\n      mstore\n        /* \"#utility.yul\":14511:14671   */\n      pop\n      jump\t// out\n        /* \"#utility.yul\":14677:15043   */\n    tag_183:\n        /* \"#utility.yul\":14819:14822   */\n      0x00\n        /* \"#utility.yul\":14840:14907   */\n      tag_356\n        /* \"#utility.yul\":14904:14906   */\n      0x0a\n        /* \"#utility.yul\":14899:14902   */\n      dup4\n        /* \"#utility.yul\":14840:14907   */\n      tag_149\n      jump\t// in\n    tag_356:\n        /* \"#utility.yul\":14833:14907   */\n      swap2\n      pop\n        /* \"#utility.yul\":14916:15009   */\n      tag_357\n        /* \"#utility.yul\":15005:15008   */\n      dup3\n        /* \"#utility.yul\":14916:15009   */\n      tag_182\n      jump\t// in\n    tag_357:\n        /* \"#utility.yul\":15034:15036   */\n      0x20\n        /* \"#utility.yul\":15029:15032   */\n      dup3\n        /* \"#utility.yul\":15025:15037   */\n      add\n        /* \"#utility.yul\":15018:15037   */\n      swap1\n      pop\n        /* \"#utility.yul\":14677:15043   */\n      swap2\n      swap1\n      pop\n      jump\t// out\n        /* \"#utility.yul\":15049:15468   */\n    tag_102:\n        /* \"#utility.yul\":15215:15219   */\n      0x00\n        /* \"#utility.yul\":15253:15255   */\n      0x20\n        /* \"#utility.yul\":15242:15251   */\n      dup3\n        /* \"#utility.yul\":15238:15256   */\n      add\n        /* \"#utility.yul\":15230:15256   */\n      swap1\n      pop\n        /* \"#utility.yul\":15302:15311   */\n      dup2\n        /* \"#utility.yul\":15296:15300   */\n      dup2\n        /* \"#utility.yul\":15292:15312   */\n      sub\n        /* \"#utility.yul\":15288:15289   */\n      0x00\n        /* \"#utility.yul\":15277:15286   */\n      dup4\n        /* \"#utility.yul\":15273:15290   */\n      add\n        /* \"#utility.yul\":15266:15313   */\n      mstore\n        /* \"#utility.yul\":15330:15461   */\n      tag_359\n        /* \"#utility.yul\":15456:15460   */\n      dup2\n        /* \"#utility.yul\":15330:15461   */\n      tag_183\n      jump\t// in\n    tag_359:\n        /* \"#utility.yul\":15322:15461   */\n      swap1\n      pop\n        /* \"#utility.yul\":15049:15468   */\n      swap2\n      swap1\n      pop\n      jump\t// out\n        /* \"#utility.yul\":15474:15654   */\n    tag_184:\n        /* \"#utility.yul\":15522:15599   */\n      0x4e487b7100000000000000000000000000000000000000000000000000000000\n        /* \"#utility.yul\":15519:15520   */\n      0x00\n        /* \"#utility.yul\":15512:15600   */\n      mstore\n        /* \"#utility.yul\":15619:15623   */\n      0x11\n        /* \"#utility.yul\":15616:15617   */\n      0x04\n        /* \"#utility.yul\":15609:15624   */\n      mstore\n        /* \"#utility.yul\":15643:15647   */\n      0x24\n        /* \"#utility.yul\":15640:15641   */\n      0x00\n        /* \"#utility.yul\":15633:15648   */\n      revert\n        /* \"#utility.yul\":15660:15851   */\n    tag_106:\n        /* \"#utility.yul\":15700:15703   */\n      0x00\n        /* \"#utility.yul\":15719:15739   */\n      tag_362\n        /* \"#utility.yul\":15737:15738   */\n      dup3\n        /* \"#utility.yul\":15719:15739   */\n      tag_137\n      jump\t// in\n    tag_362:\n        /* \"#utility.yul\":15714:15739   */\n      swap2\n      pop\n        /* \"#utility.yul\":15753:15773   */\n      tag_363\n        /* \"#utility.yul\":15771:15772   */\n      dup4\n        /* \"#utility.yul\":15753:15773   */\n      tag_137\n      jump\t// in\n    tag_363:\n        /* \"#utility.yul\":15748:15773   */\n      swap3\n      pop\n        /* \"#utility.yul\":15796:15797   */\n      dup3\n        /* \"#utility.yul\":15793:15794   */\n      dup3\n        /* \"#utility.yul\":15789:15798   */\n      add\n        /* \"#utility.yul\":15782:15798   */\n      swap1\n      pop\n        /* \"#utility.yul\":15817:15820   */\n      dup1\n        /* \"#utility.yul\":15814:15815   */\n      dup3\n        /* \"#utility.yul\":15811:15821   */\n      gt\n        /* \"#utility.yul\":15808:15844   */\n      iszero\n      tag_364\n      jumpi\n        /* \"#utility.yul\":15824:15842   */\n      tag_365\n      tag_184\n      jump\t// in\n    tag_365:\n        /* \"#utility.yul\":15808:15844   */\n    tag_364:\n        /* \"#utility.yul\":15660:15851   */\n      swap3\n      swap2\n      pop\n      pop\n      jump\t// out\n        /* \"#utility.yul\":15857:16023   */\n    tag_185:\n        /* \"#utility.yul\":15997:16015   */\n      0x4e6f7420636f756e746572706172747900000000000000000000000000000000\n        /* \"#utility.yul\":15993:15994   */\n      0x00\n        /* \"#utility.yul\":15985:15991   */\n      dup3\n        /* \"#utility.yul\":15981:15995   */\n      add\n        /* \"#utility.yul\":15974:16016   */\n      mstore\n        /* \"#utility.yul\":15857:16023   */\n      pop\n      jump\t// out\n        /* \"#utility.yul\":16029:16395   */\n    tag_186:\n        /* \"#utility.yul\":16171:16174   */\n      0x00\n        /* \"#utility.yul\":16192:16259   */\n      tag_368\n        /* \"#utility.yul\":16256:16258   */\n      0x10\n        /* \"#utility.yul\":16251:16254   */\n      dup4\n        /* \"#utility.yul\":16192:16259   */\n      tag_149\n      jump\t// in\n    tag_368:\n        /* \"#utility.yul\":16185:16259   */\n      swap2\n      pop\n        /* \"#utility.yul\":16268:16361   */\n      tag_369\n        /* \"#utility.yul\":16357:16360   */\n      dup3\n        /* \"#utility.yul\":16268:16361   */\n      tag_185\n      jump\t// in\n    tag_369:\n        /* \"#utility.yul\":16386:16388   */\n      0x20\n        /* \"#utility.yul\":16381:16384   */\n      dup3\n        /* \"#utility.yul\":16377:16389   */\n      add\n        /* \"#utility.yul\":16370:16389   */\n      swap1\n      pop\n        /* \"#utility.yul\":16029:16395   */\n      swap2\n      swap1\n      pop\n      jump\t// out\n        /* \"#utility.yul\":16401:16820   */\n    tag_111:\n        /* \"#utility.yul\":16567:16571   */\n      0x00\n        /* \"#utility.yul\":16605:16607   */\n      0x20\n        /* \"#utility.yul\":16594:16603   */\n      dup3\n        /* \"#utility.yul\":16590:16608   */\n      add\n        /* \"#utility.yul\":16582:16608   */\n      swap1\n      pop\n        /* \"#utility.yul\":16654:16663   */\n      dup2\n        /* \"#utility.yul\":16648:16652   */\n      dup2\n        /* \"#utility.yul\":16644:16664   */\n      sub\n        /* \"#utility.yul\":16640:16641   */\n      0x00\n        /* \"#utility.yul\":16629:16638   */\n      dup4\n        /* \"#utility.yul\":16625:16642   */\n      add\n        /* \"#utility.yul\":16618:16665   */\n      mstore\n        /* \"#utility.yul\":16682:16813   */\n      tag_371\n        /* \"#utility.yul\":16808:16812   */\n      dup2\n        /* \"#utility.yul\":16682:16813   */\n      tag_186\n      jump\t// in\n    tag_371:\n        /* \"#utility.yul\":16674:16813   */\n      swap1\n      pop\n        /* \"#utility.yul\":16401:16820   */\n      swap2\n      swap1\n      pop\n      jump\t// out\n        /* \"#utility.yul\":16826:16986   */\n    tag_187:\n        /* \"#utility.yul\":16966:16978   */\n      0x5374617475732065727200000000000000000000000000000000000000000000\n        /* \"#utility.yul\":16962:16963   */\n      0x00\n        /* \"#utility.yul\":16954:16960   */\n      dup3\n        /* \"#utility.yul\":16950:16964   */\n      add\n        /* \"#utility.yul\":16943:16979   */\n      mstore\n        /* \"#utility.yul\":16826:16986   */\n      pop\n      jump\t// out\n        /* \"#utility.yul\":16992:17358   */\n    tag_188:\n        /* \"#utility.yul\":17134:17137   */\n      0x00\n        /* \"#utility.yul\":17155:17222   */\n      tag_374\n        /* \"#utility.yul\":17219:17221   */\n      0x0a\n        /* \"#utility.yul\":17214:17217   */\n      dup4\n        /* \"#utility.yul\":17155:17222   */\n      tag_149\n      jump\t// in\n    tag_374:\n        /* \"#utility.yul\":17148:17222   */\n      swap2\n      pop\n        /* \"#utility.yul\":17231:17324   */\n      tag_375\n        /* \"#utility.yul\":17320:17323   */\n      dup3\n        /* \"#utility.yul\":17231:17324   */\n      tag_187\n      jump\t// in\n    tag_375:\n        /* \"#utility.yul\":17349:17351   */\n      0x20\n        /* \"#utility.yul\":17344:17347   */\n      dup3\n        /* \"#utility.yul\":17340:17352   */\n      add\n        /* \"#utility.yul\":17333:17352   */\n      swap1\n      pop\n        /* \"#utility.yul\":16992:17358   */\n      swap2\n      swap1\n      pop\n      jump\t// out\n        /* \"#utility.yul\":17364:17783   */\n    tag_119:\n        /* \"#utility.yul\":17530:17534   */\n      0x00\n        /* \"#utility.yul\":17568:17570   */\n      0x20\n        /* \"#utility.yul\":17557:17566   */\n      dup3\n        /* \"#utility.yul\":17553:17571   */\n      add\n        /* \"#utility.yul\":17545:17571   */\n      swap1\n      pop\n        /* \"#utility.yul\":17617:17626   */\n      dup2\n        /* \"#utility.yul\":17611:17615   */\n      dup2\n        /* \"#utility.yul\":17607:17627   */\n      sub\n        /* \"#utility.yul\":17603:17604   */\n      0x00\n        /* \"#utility.yul\":17592:17601   */\n      dup4\n        /* \"#utility.yul\":17588:17605   */\n      add\n        /* \"#utility.yul\":17581:17628   */\n      mstore\n        /* \"#utility.yul\":17645:17776   */\n      tag_377\n        /* \"#utility.yul\":17771:17775   */\n      dup2\n        /* \"#utility.yul\":17645:17776   */\n      tag_188\n      jump\t// in\n    tag_377:\n        /* \"#utility.yul\":17637:17776   */\n      swap1\n      pop\n        /* \"#utility.yul\":17364:17783   */\n      swap2\n      swap1\n      pop\n      jump\t// out\n        /* \"#utility.yul\":17789:17945   */\n    tag_189:\n        /* \"#utility.yul\":17929:17937   */\n      0x3020616464720000000000000000000000000000000000000000000000000000\n        /* \"#utility.yul\":17925:17926   */\n      0x00\n        /* \"#utility.yul\":17917:17923   */\n      dup3\n        /* \"#utility.yul\":17913:17927   */\n      add\n        /* \"#utility.yul\":17906:17938   */\n      mstore\n        /* \"#utility.yul\":17789:17945   */\n      pop\n      jump\t// out\n        /* \"#utility.yul\":17951:18316   */\n    tag_190:\n        /* \"#utility.yul\":18093:18096   */\n      0x00\n        /* \"#utility.yul\":18114:18180   */\n      tag_380\n        /* \"#utility.yul\":18178:18179   */\n      0x06\n        /* \"#utility.yul\":18173:18176   */\n      dup4\n        /* \"#utility.yul\":18114:18180   */\n      tag_149\n      jump\t// in\n    tag_380:\n        /* \"#utility.yul\":18107:18180   */\n      swap2\n      pop\n        /* \"#utility.yul\":18189:18282   */\n      tag_381\n        /* \"#utility.yul\":18278:18281   */\n      dup3\n        /* \"#utility.yul\":18189:18282   */\n      tag_189\n      jump\t// in\n    tag_381:\n        /* \"#utility.yul\":18307:18309   */\n      0x20\n        /* \"#utility.yul\":18302:18305   */\n      dup3\n        /* \"#utility.yul\":18298:18310   */\n      add\n        /* \"#utility.yul\":18291:18310   */\n      swap1\n      pop\n        /* \"#utility.yul\":17951:18316   */\n      swap2\n      swap1\n      pop\n      jump\t// out\n        /* \"#utility.yul\":18322:18741   */\n    tag_125:\n        /* \"#utility.yul\":18488:18492   */\n      0x00\n        /* \"#utility.yul\":18526:18528   */\n      0x20\n        /* \"#utility.yul\":18515:18524   */\n      dup3\n        /* \"#utility.yul\":18511:18529   */\n      add\n        /* \"#utility.yul\":18503:18529   */\n      swap1\n      pop\n        /* \"#utility.yul\":18575:18584   */\n      dup2\n        /* \"#utility.yul\":18569:18573   */\n      dup2\n        /* \"#utility.yul\":18565:18585   */\n      sub\n        /* \"#utility.yul\":18561:18562   */\n      0x00\n        /* \"#utility.yul\":18550:18559   */\n      dup4\n        /* \"#utility.yul\":18546:18563   */\n      add\n        /* \"#utility.yul\":18539:18586   */\n      mstore\n        /* \"#utility.yul\":18603:18734   */\n      tag_383\n        /* \"#utility.yul\":18729:18733   */\n      dup2\n        /* \"#utility.yul\":18603:18734   */\n      tag_190\n      jump\t// in\n    tag_383:\n        /* \"#utility.yul\":18595:18734   */\n      swap1\n      pop\n        /* \"#utility.yul\":18322:18741   */\n      swap2\n      swap1\n      pop\n      jump\t// out\n        /* \"#utility.yul\":18747:18909   */\n    tag_191:\n        /* \"#utility.yul\":18887:18901   */\n      0x455448206d69736d617463680000000000000000000000000000000000000000\n        /* \"#utility.yul\":18883:18884   */\n      0x00\n        /* \"#utility.yul\":18875:18881   */\n      dup3\n        /* \"#utility.yul\":18871:18885   */\n      add\n        /* \"#utility.yul\":18864:18902   */\n      mstore\n        /* \"#utility.yul\":18747:18909   */\n      pop\n      jump\t// out\n        /* \"#utility.yul\":18915:19281   */\n    tag_192:\n        /* \"#utility.yul\":19057:19060   */\n      0x00\n        /* \"#utility.yul\":19078:19145   */\n      tag_386\n        /* \"#utility.yul\":19142:19144   */\n      0x0c\n        /* \"#utility.yul\":19137:19140   */\n      dup4\n        /* \"#utility.yul\":19078:19145   */\n      tag_149\n      jump\t// in\n    tag_386:\n        /* \"#utility.yul\":19071:19145   */\n      swap2\n      pop\n        /* \"#utility.yul\":19154:19247   */\n      tag_387\n        /* \"#utility.yul\":19243:19246   */\n      dup3\n        /* \"#utility.yul\":19154:19247   */\n      tag_191\n      jump\t// in\n    tag_387:\n        /* \"#utility.yul\":19272:19274   */\n      0x20\n        /* \"#utility.yul\":19267:19270   */\n      dup3\n        /* \"#utility.yul\":19263:19275   */\n      add\n        /* \"#utility.yul\":19256:19275   */\n      swap1\n      pop\n        /* \"#utility.yul\":18915:19281   */\n      swap2\n      swap1\n      pop\n      jump\t// out\n        /* \"#utility.yul\":19287:19706   */\n    tag_128:\n        /* \"#utility.yul\":19453:19457   */\n      0x00\n        /* \"#utility.yul\":19491:19493   */\n      0x20\n        /* \"#utility.yul\":19480:19489   */\n      dup3\n        /* \"#utility.yul\":19476:19494   */\n      add\n        /* \"#utility.yul\":19468:19494   */\n      swap1\n      pop\n        /* \"#utility.yul\":19540:19549   */\n      dup2\n        /* \"#utility.yul\":19534:19538   */\n      dup2\n        /* \"#utility.yul\":19530:19550   */\n      sub\n        /* \"#utility.yul\":19526:19527   */\n      0x00\n        /* \"#utility.yul\":19515:19524   */\n      dup4\n        /* \"#utility.yul\":19511:19528   */\n      add\n        /* \"#utility.yul\":19504:19551   */\n      mstore\n        /* \"#utility.yul\":19568:19699   */\n      tag_389\n        /* \"#utility.yul\":19694:19698   */\n      dup2\n        /* \"#utility.yul\":19568:19699   */\n      tag_192\n      jump\t// in\n    tag_389:\n        /* \"#utility.yul\":19560:19699   */\n      swap1\n      pop\n        /* \"#utility.yul\":19287:19706   */\n      swap2\n      swap1\n      pop\n      jump\t// out\n        /* \"#utility.yul\":19712:19945   */\n    tag_130:\n        /* \"#utility.yul\":19751:19754   */\n      0x00\n        /* \"#utility.yul\":19774:19798   */\n      tag_391\n        /* \"#utility.yul\":19792:19797   */\n      dup3\n        /* \"#utility.yul\":19774:19798   */\n      tag_137\n      jump\t// in\n    tag_391:\n        /* \"#utility.yul\":19765:19798   */\n      swap2\n      pop\n        /* \"#utility.yul\":19820:19886   */\n      0xffffffffffffffffffffffffffffffffffffffffffffffffffffffffffffffff\n        /* \"#utility.yul\":19813:19818   */\n      dup3\n        /* \"#utility.yul\":19810:19887   */\n      sub\n        /* \"#utility.yul\":19807:19910   */\n      tag_392\n      jumpi\n        /* \"#utility.yul\":19890:19908   */\n      tag_393\n      tag_184\n      jump\t// in\n    tag_393:\n        /* \"#utility.yul\":19807:19910   */\n    tag_392:\n        /* \"#utility.yul\":19937:19938   */\n      0x01\n        /* \"#utility.yul\":19930:19935   */\n      dup3\n        /* \"#utility.yul\":19926:19939   */\n      add\n        /* \"#utility.yul\":19919:19939   */\n      swap1\n      pop\n        /* \"#utility.yul\":19712:19945   */\n      swap2\n      swap1\n      pop\n      jump\t// out\n        /* \"#utility.yul\":19951:20092   */\n    tag_193:\n        /* \"#utility.yul\":20000:20004   */\n      0x00\n        /* \"#utility.yul\":20023:20026   */\n      dup2\n        /* \"#utility.yul\":20015:20026   */\n      swap1\n      pop\n        /* \"#utility.yul\":20046:20049   */\n      dup2\n        /* \"#utility.yul\":20043:20044   */\n      0x00\n        /* \"#utility.yul\":20036:20050   */\n      mstore\n        /* \"#utility.yul\":20080:20084   */\n      0x20\n        /* \"#utility.yul\":20077:20078   */\n      0x00\n        /* \"#utility.yul\":20067:20085   */\n      keccak256\n        /* \"#utility.yul\":20059:20085   */\n      swap1\n      pop\n        /* \"#utility.yul\":19951:20092   */\n      swap2\n      swap1\n      pop\n      jump\t// out\n        /* \"#utility.yul\":20098:20191   */\n    tag_194:\n        /* \"#utility.yul\":20135:20141   */\n      0x00\n        /* \"#utility.yul\":20182:20184   */\n      0x20\n        /* \"#utility.yul\":20177:20179   */\n      0x1f\n        /* \"#utility.yul\":20170:20175   */\n      dup4\n        /* \"#utility.yul\":20166:20180   */\n      add\n        /* \"#utility.yul\":20162:20185   */\n      div\n        /* \"#utility.yul\":20152:20185   */\n      swap1\n      pop\n        /* \"#utility.yul\":20098:20191   */\n      swap2\n      swap1\n      pop\n      jump\t// out\n        /* \"#utility.yul\":20197:20304   */\n    tag_195:\n        /* \"#utility.yul\":20241:20249   */\n      0x00\n        /* \"#utility.yul\":20291:20296   */\n      dup3\n        /* \"#utility.yul\":20285:20289   */\n      dup3\n        /* \"#utility.yul\":20281:20297   */\n      shl\n        /* \"#utility.yul\":20260:20297   */\n      swap1\n      pop\n        /* \"#utility.yul\":20197:20304   */\n      swap3\n      swap2\n      pop\n      pop\n      jump\t// out\n        /* \"#utility.yul\":20310:20703   */\n    tag_196:\n        /* \"#utility.yul\":20379:20385   */\n      0x00\n        /* \"#utility.yul\":20429:20430   */\n      0x08\n        /* \"#utility.yul\":20417:20427   */\n      dup4\n        /* \"#utility.yul\":20413:20431   */\n      mul\n        /* \"#utility.yul\":20452:20549   */\n      tag_398\n        /* \"#utility.yul\":20482:20548   */\n      0xffffffffffffffffffffffffffffffffffffffffffffffffffffffffffffffff\n        /* \"#utility.yul\":20471:20480   */\n      dup3\n        /* \"#utility.yul\":20452:20549   */\n      tag_195\n      jump\t// in\n    tag_398:\n        /* \"#utility.yul\":20570:20609   */\n      tag_399\n        /* \"#utility.yul\":20600:20608   */\n      dup7\n        /* \"#utility.yul\":20589:20598   */\n      dup4\n        /* \"#utility.yul\":20570:20609   */\n      tag_195\n      jump\t// in\n    tag_399:\n        /* \"#utility.yul\":20558:20609   */\n      swap6\n      pop\n        /* \"#utility.yul\":20642:20646   */\n      dup1\n        /* \"#utility.yul\":20638:20647   */\n      not\n        /* \"#utility.yul\":20631:20636   */\n      dup5\n        /* \"#utility.yul\":20627:20648   */\n      and\n        /* \"#utility.yul\":20618:20648   */\n      swap4\n      pop\n        /* \"#utility.yul\":20691:20695   */\n      dup1\n        /* \"#utility.yul\":20681:20689   */\n      dup7\n        /* \"#utility.yul\":20677:20696   */\n      and\n        /* \"#utility.yul\":20670:20675   */\n      dup5\n        /* \"#utility.yul\":20667:20697   */\n      or\n        /* \"#utility.yul\":20657:20697   */\n      swap3\n      pop\n        /* \"#utility.yul\":20386:20703   */\n      pop\n      pop\n        /* \"#utility.yul\":20310:20703   */\n      swap4\n      swap3\n      pop\n      pop\n      pop\n      jump\t// out\n        /* \"#utility.yul\":20709:20769   */\n    tag_197:\n        /* \"#utility.yul\":20737:20740   */\n      0x00\n        /* \"#utility.yul\":20758:20763   */\n      dup2\n        /* \"#utility.yul\":20751:20763   */\n      swap1\n      pop\n        /* \"#utility.yul\":20709:20769   */\n      swap2\n      swap1\n      pop\n      jump\t// out\n        /* \"#utility.yul\":20775:20917   */\n    tag_198:\n        /* \"#utility.yul\":20825:20834   */\n      0x00\n        /* \"#utility.yul\":20858:20911   */\n      tag_402\n        /* \"#utility.yul\":20876:20910   */\n      tag_403\n        /* \"#utility.yul\":20885:20909   */\n      tag_404\n        /* \"#utility.yul\":20903:20908   */\n      dup5\n        /* \"#utility.yul\":20885:20909   */\n      tag_137\n      jump\t// in\n    tag_404:\n        /* \"#utility.yul\":20876:20910   */\n      tag_197\n      jump\t// in\n    tag_403:\n        /* \"#utility.yul\":20858:20911   */\n      tag_137\n      jump\t// in\n    tag_402:\n        /* \"#utility.yul\":20845:20911   */\n      swap1\n      pop\n        /* \"#utility.yul\":20775:20917   */\n      swap2\n      swap1\n      pop\n      jump\t// out\n        /* \"#utility.yul\":20923:20998   */\n    tag_199:\n        /* \"#utility.yul\":20966:20969   */\n      0x00\n        /* \"#utility.yul\":20987:20992   */\n      dup2\n        /* \"#utility.yul\":20980:20992   */\n      swap1\n      pop\n        /* \"#utility.yul\":20923:20998   */\n      swap2\n      swap1\n      pop\n      jump\t// out\n        /* \"#utility.yul\":21004:21273   */\n    tag_200:\n        /* \"#utility.yul\":21114:21153   */\n      tag_407\n        /* \"#utility.yul\":21145:21152   */\n      dup4\n        /* \"#utility.yul\":21114:21153   */\n      tag_198\n      jump\t// in\n    tag_407:\n        /* \"#utility.yul\":21175:21266   */\n      tag_408\n        /* \"#utility.yul\":21224:21265   */\n      tag_409\n        /* \"#utility.yul\":21248:21264   */\n      dup3\n        /* \"#utility.yul\":21224:21265   */\n      tag_199\n      jump\t// in\n    tag_409:\n        /* \"#utility.yul\":21216:21222   */\n      dup5\n        /* \"#utility.yul\":21209:21213   */\n      dup5\n        /* \"#utility.yul\":21203:21214   */\n      sload\n        /* \"#utility.yul\":21175:21266   */\n      tag_196\n      jump\t// in\n    tag_408:\n        /* \"#utility.yul\":21169:21173   */\n      dup3\n        /* \"#utility.yul\":21162:21267   */\n      sstore\n        /* \"#utility.yul\":21080:21273   */\n      pop\n        /* \"#utility.yul\":21004:21273   */\n      pop\n      pop\n      pop\n      jump\t// out\n        /* \"#utility.yul\":21279:21352   */\n    tag_201:\n        /* \"#utility.yul\":21324:21327   */\n      0x00\n        /* \"#utility.yul\":21279:21352   */\n      swap1\n      jump\t// out\n        /* \"#utility.yul\":21358:21547   */\n    tag_202:\n        /* \"#utility.yul\":21435:21467   */\n      tag_412\n      tag_201\n      jump\t// in\n    tag_412:\n        /* \"#utility.yul\":21476:21541   */\n      tag_413\n        /* \"#utility.yul\":21534:21540   */\n      dup2\n        /* \"#utility.yul\":21526:21532   */\n      dup5\n        /* \"#utility.yul\":21520:21524   */\n      dup5\n        /* \"#utility.yul\":21476:21541   */\n      tag_200\n      jump\t// in\n    tag_413:\n        /* \"#utility.yul\":21411:21547   */\n      pop\n        /* \"#utility.yul\":21358:21547   */\n      pop\n      pop\n      jump\t// out\n        /* \"#utility.yul\":21553:21739   */\n    tag_203:\n        /* \"#utility.yul\":21613:21733   */\n    tag_415:\n        /* \"#utility.yul\":21630:21633   */\n      dup2\n        /* \"#utility.yul\":21623:21628   */\n      dup2\n        /* \"#utility.yul\":21620:21634   */\n      lt\n        /* \"#utility.yul\":21613:21733   */\n      iszero\n      tag_417\n      jumpi\n        /* \"#utility.yul\":21684:21723   */\n      tag_418\n        /* \"#utility.yul\":21721:21722   */\n      0x00\n        /* \"#utility.yul\":21714:21719   */\n      dup3\n        /* \"#utility.yul\":21684:21723   */\n      tag_202\n      jump\t// in\n    tag_418:\n        /* \"#utility.yul\":21657:21658   */\n      0x01\n        /* \"#utility.yul\":21650:21655   */\n      dup2\n        /* \"#utility.yul\":21646:21659   */\n      add\n        /* \"#utility.yul\":21637:21659   */\n      swap1\n      pop\n        /* \"#utility.yul\":21613:21733   */\n      jump(tag_415)\n    tag_417:\n        /* \"#utility.yul\":21553:21739   */\n      pop\n      pop\n      jump\t// out\n        /* \"#utility.yul\":21745:22288   */\n    tag_204:\n        /* \"#utility.yul\":21846:21848   */\n      0x1f\n        /* \"#utility.yul\":21841:21844   */\n      dup3\n        /* \"#utility.yul\":21838:21849   */\n      gt\n        /* \"#utility.yul\":21835:22281   */\n      iszero\n      tag_420\n      jumpi\n        /* \"#utility.yul\":21880:21918   */\n      tag_421\n        /* \"#utility.yul\":21912:21917   */\n      dup2\n        /* \"#utility.yul\":21880:21918   */\n      tag_193\n      jump\t// in\n    tag_421:\n        /* \"#utility.yul\":21964:21993   */\n      tag_422\n        /* \"#utility.yul\":21982:21992   */\n      dup5\n        /* \"#utility.yul\":21964:21993   */\n      tag_194\n      jump\t// in\n    tag_422:\n        /* \"#utility.yul\":21954:21962   */\n      dup2\n        /* \"#utility.yul\":21950:21994   */\n      add\n        /* \"#utility.yul\":22147:22149   */\n      0x20\n        /* \"#utility.yul\":22135:22145   */\n      dup6\n        /* \"#utility.yul\":22132:22150   */\n      lt\n        /* \"#utility.yul\":22129:22178   */\n      iszero\n      tag_423\n      jumpi\n        /* \"#utility.yul\":22168:22176   */\n      dup2\n        /* \"#utility.yul\":22153:22176   */\n      swap1\n      pop\n        /* \"#utility.yul\":22129:22178   */\n    tag_423:\n        /* \"#utility.yul\":22191:22271   */\n      tag_424\n        /* \"#utility.yul\":22247:22269   */\n      tag_425\n        /* \"#utility.yul\":22265:22268   */\n      dup6\n        /* \"#utility.yul\":22247:22269   */\n      tag_194\n      jump\t// in\n    tag_425:\n        /* \"#utility.yul\":22237:22245   */\n      dup4\n        /* \"#utility.yul\":22233:22270   */\n      add\n        /* \"#utility.yul\":22220:22231   */\n      dup3\n        /* \"#utility.yul\":22191:22271   */\n      tag_203\n      jump\t// in\n    tag_424:\n        /* \"#utility.yul\":21850:22281   */\n      pop\n      pop\n        /* \"#utility.yul\":21835:22281   */\n    tag_420:\n        /* \"#utility.yul\":21745:22288   */\n      pop\n      pop\n      pop\n      jump\t// out\n        /* \"#utility.yul\":22294:22411   */\n    tag_205:\n        /* \"#utility.yul\":22348:22356   */\n      0x00\n        /* \"#utility.yul\":22398:22403   */\n      dup3\n        /* \"#utility.yul\":22392:22396   */\n      dup3\n        /* \"#utility.yul\":22388:22404   */\n      shr\n        /* \"#utility.yul\":22367:22404   */\n      swap1\n      pop\n        /* \"#utility.yul\":22294:22411   */\n      swap3\n      swap2\n      pop\n      pop\n      jump\t// out\n        /* \"#utility.yul\":22417:22586   */\n    tag_206:\n        /* \"#utility.yul\":22461:22467   */\n      0x00\n        /* \"#utility.yul\":22494:22545   */\n      tag_428\n        /* \"#utility.yul\":22542:22543   */\n      0x00\n        /* \"#utility.yul\":22538:22544   */\n      not\n        /* \"#utility.yul\":22530:22535   */\n      dup5\n        /* \"#utility.yul\":22527:22528   */\n      0x08\n        /* \"#utility.yul\":22523:22536   */\n      mul\n        /* \"#utility.yul\":22494:22545   */\n      tag_205\n      jump\t// in\n    tag_428:\n        /* \"#utility.yul\":22490:22546   */\n      not\n        /* \"#utility.yul\":22575:22579   */\n      dup1\n        /* \"#utility.yul\":22569:22573   */\n      dup4\n        /* \"#utility.yul\":22565:22580   */\n      and\n        /* \"#utility.yul\":22555:22580   */\n      swap2\n      pop\n        /* \"#utility.yul\":22468:22586   */\n      pop\n        /* \"#utility.yul\":22417:22586   */\n      swap3\n      swap2\n      pop\n      pop\n      jump\t// out\n        /* \"#utility.yul\":22591:22886   */\n    tag_207:\n        /* \"#utility.yul\":22667:22671   */\n      0x00\n        /* \"#utility.yul\":22813:22842   */\n      tag_430\n        /* \"#utility.yul\":22838:22841   */\n      dup4\n        /* \"#utility.yul\":22832:22836   */\n      dup4\n        /* \"#utility.yul\":22813:22842   */\n      tag_206\n      jump\t// in\n    tag_430:\n        /* \"#utility.yul\":22805:22842   */\n      swap2\n      pop\n        /* \"#utility.yul\":22875:22878   */\n      dup3\n        /* \"#utility.yul\":22872:22873   */\n      0x02\n        /* \"#utility.yul\":22868:22879   */\n      mul\n        /* \"#utility.yul\":22862:22866   */\n      dup3\n        /* \"#utility.yul\":22859:22880   */\n      or\n        /* \"#utility.yul\":22851:22880   */\n      swap1\n      pop\n        /* \"#utility.yul\":22591:22886   */\n      swap3\n      swap2\n      pop\n      pop\n      jump\t// out\n        /* \"#utility.yul\":22891:24286   */\n    tag_132:\n        /* \"#utility.yul\":23008:23045   */\n      tag_432\n        /* \"#utility.yul\":23041:23044   */\n      dup3\n        /* \"#utility.yul\":23008:23045   */\n      tag_148\n      jump\t// in\n    tag_432:\n        /* \"#utility.yul\":23110:23128   */\n      0xffffffffffffffff\n        /* \"#utility.yul\":23102:23108   */\n      dup2\n        /* \"#utility.yul\":23099:23129   */\n      gt\n        /* \"#utility.yul\":23096:23152   */\n      iszero\n      tag_433\n      jumpi\n        /* \"#utility.yul\":23132:23150   */\n      tag_434\n      tag_160\n      jump\t// in\n    tag_434:\n        /* \"#utility.yul\":23096:23152   */\n    tag_433:\n        /* \"#utility.yul\":23176:23214   */\n      tag_435\n        /* \"#utility.yul\":23208:23212   */\n      dup3\n        /* \"#utility.yul\":23202:23213   */\n      sload\n        /* \"#utility.yul\":23176:23214   */\n      tag_60\n      jump\t// in\n    tag_435:\n        /* \"#utility.yul\":23261:23328   */\n      tag_436\n        /* \"#utility.yul\":23321:23327   */\n      dup3\n        /* \"#utility.yul\":23313:23319   */\n      dup3\n        /* \"#utility.yul\":23307:23311   */\n      dup6\n        /* \"#utility.yul\":23261:23328   */\n      tag_204\n      jump\t// in\n    tag_436:\n        /* \"#utility.yul\":23355:23356   */\n      0x00\n        /* \"#utility.yul\":23379:23383   */\n      0x20\n        /* \"#utility.yul\":23366:23383   */\n      swap1\n      pop\n        /* \"#utility.yul\":23411:23413   */\n      0x1f\n        /* \"#utility.yul\":23403:23409   */\n      dup4\n        /* \"#utility.yul\":23400:23414   */\n      gt\n        /* \"#utility.yul\":23428:23429   */\n      0x01\n        /* \"#utility.yul\":23423:24041   */\n      dup2\n      eq\n      tag_438\n      jumpi\n        /* \"#utility.yul\":24085:24086   */\n      0x00\n        /* \"#utility.yul\":24102:24108   */\n      dup5\n        /* \"#utility.yul\":24099:24176   */\n      iszero\n      tag_439\n      jumpi\n        /* \"#utility.yul\":24151:24160   */\n      dup3\n        /* \"#utility.yul\":24146:24149   */\n      dup8\n        /* \"#utility.yul\":24142:24161   */\n      add\n        /* \"#utility.yul\":24136:24162   */\n      mload\n        /* \"#utility.yul\":24127:24162   */\n      swap1\n      pop\n        /* \"#utility.yul\":24099:24176   */\n    tag_439:\n        /* \"#utility.yul\":24202:24269   */\n      tag_440\n        /* \"#utility.yul\":24262:24268   */\n      dup6\n        /* \"#utility.yul\":24255:24260   */\n      dup3\n        /* \"#utility.yul\":24202:24269   */\n      tag_207\n      jump\t// in\n    tag_440:\n        /* \"#utility.yul\":24196:24200   */\n      dup7\n        /* \"#utility.yul\":24189:24270   */\n      sstore\n        /* \"#utility.yul\":24058:24280   */\n      pop\n        /* \"#utility.yul\":23393:24280   */\n      jump(tag_437)\n        /* \"#utility.yul\":23423:24041   */\n    tag_438:\n        /* \"#utility.yul\":23475:23479   */\n      0x1f\n        /* \"#utility.yul\":23471:23480   */\n      not\n        /* \"#utility.yul\":23463:23469   */\n      dup5\n        /* \"#utility.yul\":23459:23481   */\n      and\n        /* \"#utility.yul\":23509:23546   */\n      tag_441\n        /* \"#utility.yul\":23541:23545   */\n      dup7\n        /* \"#utility.yul\":23509:23546   */\n      tag_193\n      jump\t// in\n    tag_441:\n        /* \"#utility.yul\":23568:23569   */\n      0x00\n        /* \"#utility.yul\":23582:23790   */\n    tag_442:\n        /* \"#utility.yul\":23596:23603   */\n      dup3\n        /* \"#utility.yul\":23593:23594   */\n      dup2\n        /* \"#utility.yul\":23590:23604   */\n      lt\n        /* \"#utility.yul\":23582:23790   */\n      iszero\n      tag_444\n      jumpi\n        /* \"#utility.yul\":23675:23684   */\n      dup5\n        /* \"#utility.yul\":23670:23673   */\n      dup10\n        /* \"#utility.yul\":23666:23685   */\n      add\n        /* \"#utility.yul\":23660:23686   */\n      mload\n        /* \"#utility.yul\":23652:23658   */\n      dup3\n        /* \"#utility.yul\":23645:23687   */\n      sstore\n        /* \"#utility.yul\":23726:23727   */\n      0x01\n        /* \"#utility.yul\":23718:23724   */\n      dup3\n        /* \"#utility.yul\":23714:23728   */\n      add\n        /* \"#utility.yul\":23704:23728   */\n      swap2\n      pop\n        /* \"#utility.yul\":23773:23775   */\n      0x20\n        /* \"#utility.yul\":23762:23771   */\n      dup6\n        /* \"#utility.yul\":23758:23776   */\n      add\n        /* \"#utility.yul\":23745:23776   */\n      swap5\n      pop\n        /* \"#utility.yul\":23619:23623   */\n      0x20\n        /* \"#utility.yul\":23616:23617   */\n      dup2\n        /* \"#utility.yul\":23612:23624   */\n      add\n        /* \"#utility.yul\":23607:23624   */\n      swap1\n      pop\n        /* \"#utility.yul\":23582:23790   */\n      jump(tag_442)\n    tag_444:\n        /* \"#utility.yul\":23818:23824   */\n      dup7\n        /* \"#utility.yul\":23809:23816   */\n      dup4\n        /* \"#utility.yul\":23806:23825   */\n      lt\n        /* \"#utility.yul\":23803:23982   */\n      iszero\n      tag_445\n      jumpi\n        /* \"#utility.yul\":23876:23885   */\n      dup5\n        /* \"#utility.yul\":23871:23874   */\n      dup10\n        /* \"#utility.yul\":23867:23886   */\n      add\n        /* \"#utility.yul\":23861:23887   */\n      mload\n        /* \"#utility.yul\":23919:23967   */\n      tag_446\n        /* \"#utility.yul\":23961:23965   */\n      0x1f\n        /* \"#utility.yul\":23953:23959   */\n      dup10\n        /* \"#utility.yul\":23949:23966   */\n      and\n        /* \"#utility.yul\":23938:23947   */\n      dup3\n        /* \"#utility.yul\":23919:23967   */\n      tag_206\n      jump\t// in\n    tag_446:\n        /* \"#utility.yul\":23911:23917   */\n      dup4\n        /* \"#utility.yul\":23904:23968   */\n      sstore\n        /* \"#utility.yul\":23826:23982   */\n      pop\n        /* \"#utility.yul\":23803:23982   */\n    tag_445:\n        /* \"#utility.yul\":24028:24029   */\n      0x01\n        /* \"#utility.yul\":24024:24025   */\n      0x02\n        /* \"#utility.yul\":24016:24022   */\n      dup9\n        /* \"#utility.yul\":24012:24026   */\n      mul\n        /* \"#utility.yul\":24008:24030   */\n      add\n        /* \"#utility.yul\":24002:24006   */\n      dup9\n        /* \"#utility.yul\":23995:24031   */\n      sstore\n        /* \"#utility.yul\":23430:24041   */\n      pop\n      pop\n      pop\n        /* \"#utility.yul\":23393:24280   */\n    tag_437:\n      pop\n        /* \"#utility.yul\":22983:24286   */\n      pop\n      pop\n      pop\n        /* \"#utility.yul\":22891:24286   */\n      pop\n      pop\n      jump\t// out\n        /* \"#utility.yul\":24292:24410   */\n    tag_208:\n        /* \"#utility.yul\":24379:24403   */\n      tag_448\n        /* \"#utility.yul\":24397:24402   */\n      dup2\n        /* \"#utility.yul\":24379:24403   */\n      tag_167\n      jump\t// in\n    tag_448:\n        /* \"#utility.yul\":24374:24377   */\n      dup3\n        /* \"#utility.yul\":24367:24404   */\n      mstore\n        /* \"#utility.yul\":24292:24410   */\n      pop\n      pop\n      jump\t// out\n        /* \"#utility.yul\":24416:24558   */\n    tag_209:\n        /* \"#utility.yul\":24466:24475   */\n      0x00\n        /* \"#utility.yul\":24499:24552   */\n      tag_450\n        /* \"#utility.yul\":24517:24551   */\n      tag_451\n        /* \"#utility.yul\":24526:24550   */\n      tag_452\n        /* \"#utility.yul\":24544:24549   */\n      dup5\n        /* \"#utility.yul\":24526:24550   */\n      tag_153\n      jump\t// in\n    tag_452:\n        /* \"#utility.yul\":24517:24551   */\n      tag_197\n      jump\t// in\n    tag_451:\n        /* \"#utility.yul\":24499:24552   */\n      tag_153\n      jump\t// in\n    tag_450:\n        /* \"#utility.yul\":24486:24552   */\n      swap1\n      pop\n        /* \"#utility.yul\":24416:24558   */\n      swap2\n      swap1\n      pop\n      jump\t// out\n        /* \"#utility.yul\":24564:24690   */\n    tag_210:\n        /* \"#utility.yul\":24614:24623   */\n      0x00\n        /* \"#utility.yul\":24647:24684   */\n      tag_454\n        /* \"#utility.yul\":24678:24683   */\n      dup3\n        /* \"#utility.yul\":24647:24684   */\n      tag_209\n      jump\t// in\n    tag_454:\n        /* \"#utility.yul\":24634:24684   */\n      swap1\n      pop\n        /* \"#utility.yul\":24564:24690   */\n      swap2\n      swap1\n      pop\n      jump\t// out\n        /* \"#utility.yul\":24696:24830   */\n    tag_211:\n        /* \"#utility.yul\":24754:24763   */\n      0x00\n        /* \"#utility.yul\":24787:24824   */\n      tag_456\n        /* \"#utility.yul\":24818:24823   */\n      dup3\n        /* \"#utility.yul\":24787:24824   */\n      tag_210\n      jump\t// in\n    tag_456:\n        /* \"#utility.yul\":24774:24824   */\n      swap1\n      pop\n        /* \"#utility.yul\":24696:24830   */\n      swap2\n      swap1\n      pop\n      jump\t// out\n        /* \"#utility.yul\":24836:24983   */\n    tag_212:\n        /* \"#utility.yul\":24931:24976   */\n      tag_458\n        /* \"#utility.yul\":24970:24975   */\n      dup2\n        /* \"#utility.yul\":24931:24976   */\n      tag_211\n      jump\t// in\n    tag_458:\n        /* \"#utility.yul\":24926:24929   */\n      dup3\n        /* \"#utility.yul\":24919:24977   */\n      mstore\n        /* \"#utility.yul\":24836:24983   */\n      pop\n      pop\n      jump\t// out\n        /* \"#utility.yul\":24989:25337   */\n    tag_136:\n        /* \"#utility.yul\":25118:25122   */\n      0x00\n        /* \"#utility.yul\":25156:25158   */\n      0x40\n        /* \"#utility.yul\":25145:25154   */\n      dup3\n        /* \"#utility.yul\":25141:25159   */\n      add\n        /* \"#utility.yul\":25133:25159   */\n      swap1\n      pop\n        /* \"#utility.yul\":25169:25240   */\n      tag_460\n        /* \"#utility.yul\":25237:25238   */\n      0x00\n        /* \"#utility.yul\":25226:25235   */\n      dup4\n        /* \"#utility.yul\":25222:25239   */\n      add\n        /* \"#utility.yul\":25213:25219   */\n      dup6\n        /* \"#utility.yul\":25169:25240   */\n      tag_208\n      jump\t// in\n    tag_460:\n        /* \"#utility.yul\":25250:25330   */\n      tag_461\n        /* \"#utility.yul\":25326:25328   */\n      0x20\n        /* \"#utility.yul\":25315:25324   */\n      dup4\n        /* \"#utility.yul\":25311:25329   */\n      add\n        /* \"#utility.yul\":25302:25308   */\n      dup5\n        /* \"#utility.yul\":25250:25330   */\n      tag_212\n      jump\t// in\n    tag_461:\n        /* \"#utility.yul\":24989:25337   */\n      swap4\n      swap3\n      pop\n      pop\n      pop\n      jump\t// out\n\n    auxdata: 0xa2646970667358221220c2ff27ab86e4d03f181925a72ae8b4419a266800ccf0c3fb764b7748a40b880364736f6c63430008150033\n}\n",
				"bytecode": {
					"linkReferences": {},
					"object": "608060405234801561000f575f80fd5b5060015f81905550611920806100245f395ff3fe608060405260043610610085575f3560e01c8063474da79a11610058578063474da79a1461014157806394aeb613146101825780639537e8d1146101aa5780639ce5b6ca146101d2578063f3f43703146101ee57610085565b8063067bd3b41461008957806317b18458146100b35780631ed4af8c146100ef57806324600fc31461012b575b5f80fd5b348015610094575f80fd5b5061009d61022a565b6040516100aa9190610c87565b60405180910390f35b3480156100be575f80fd5b506100d960048036038101906100d49190610cdb565b610230565b6040516100e69190610d79565b60405180910390f35b3480156100fa575f80fd5b5061011560048036038101906101109190610cdb565b61025a565b6040516101229190610e1c565b60405180910390f35b348015610136575f80fd5b5061013f6102fe565b005b34801561014c575f80fd5b5061016760048036038101906101629190610cdb565b61050f565b60405161017996959493929190610e7b565b60405180910390f35b34801561018d575f80fd5b506101a860048036038101906101a39190610cdb565b610618565b005b3480156101b5575f80fd5b506101d060048036038101906101cb9190610cdb565b6108da565b005b6101ec60048036038101906101e79190611037565b610a66565b005b3480156101f9575f80fd5b50610214600480360381019061020f91906110de565b610c5a565b6040516102219190610c87565b60405180910390f35b60025481565b5f60015f8381526020019081526020015f2060030160149054906101000a900460ff169050919050565b606060015f8381526020019081526020015f20600401805461027b90611136565b80601f01602080910402602001604051908101604052809291908181526020018280546102a790611136565b80156102f25780601f106102c9576101008083540402835291602001916102f2565b820191905f5260205f20905b8154815290600101906020018083116102d557829003601f168201915b50505050509050919050565b60025f5403610342576040517f08c379a0000000000000000000000000000000000000000000000000000000008152600401610339906111b0565b60405180910390fd5b60025f819055505f60035f3373ffffffffffffffffffffffffffffffffffffffff1673ffffffffffffffffffffffffffffffffffffffff1681526020019081526020015f205490505f81036103cc576040517f08c379a00000000000000000000000000000000000000000000000000000000081526004016103c390611218565b60405180910390fd5b5f60035f3373ffffffffffffffffffffffffffffffffffffffff1673ffffffffffffffffffffffffffffffffffffffff1681526020019081526020015f20819055505f3373ffffffffffffffffffffffffffffffffffffffff168260405161043390611263565b5f6040518083038185875af1925050503d805f811461046d576040519150601f19603f3d011682016040523d82523d5f602084013e610472565b606091505b50509050806104b6576040517f08c379a00000000000000000000000000000000000000000000000000000000081526004016104ad906112c1565b60405180910390fd5b3373ffffffffffffffffffffffffffffffffffffffff167feaff4b37086828766ad3268786972c0cd24259d4c87a80f9d3963a3c3d999b0d836040516104fc9190610c87565b60405180910390a2505060015f81905550565b6001602052805f5260405f205f91509050805f015490806001015490806002015f9054906101000a900473ffffffffffffffffffffffffffffffffffffffff1690806003015f9054906101000a900473ffffffffffffffffffffffffffffffffffffffff16908060030160149054906101000a900460ff169080600401805461059790611136565b80601f01602080910402602001604051908101604052809291908181526020018280546105c390611136565b801561060e5780601f106105e55761010080835404028352916020019161060e565b820191905f5260205f20905b8154815290600101906020018083116105f157829003601f168201915b5050505050905086565b60025f540361065c576040517f08c379a0000000000000000000000000000000000000000000000000000000008152600401610653906111b0565b60405180910390fd5b60025f819055508060015f8281526020019081526020015f206002015f9054906101000a900473ffffffffffffffffffffffffffffffffffffffff1673ffffffffffffffffffffffffffffffffffffffff163373ffffffffffffffffffffffffffffffffffffffff1614610705576040517f08c379a00000000000000000000000000000000000000000000000000000000081526004016106fc90611329565b60405180910390fd5b5f60015f8481526020019081526020015f2090506001600381111561072d5761072c610d06565b5b8160030160149054906101000a900460ff16600381111561075157610750610d06565b5b14610791576040517f08c379a000000000000000000000000000000000000000000000000000000000815260040161078890611391565b60405180910390fd5b60028160030160146101000a81548160ff021916908360038111156107b9576107b8610d06565b5b0217905550806001015460035f836003015f9054906101000a900473ffffffffffffffffffffffffffffffffffffffff1673ffffffffffffffffffffffffffffffffffffffff1673ffffffffffffffffffffffffffffffffffffffff1681526020019081526020015f205461082e91906113dc565b60035f836003015f9054906101000a900473ffffffffffffffffffffffffffffffffffffffff1673ffffffffffffffffffffffffffffffffffffffff1673ffffffffffffffffffffffffffffffffffffffff1681526020019081526020015f2081905550827fc8ef479acdbffd729d96117b951d1c3ee85d98ef42699aec806bc4f0b522461d82600101546040516108c69190610c87565b60405180910390a2505060015f8190555050565b8060015f8281526020019081526020015f206003015f9054906101000a900473ffffffffffffffffffffffffffffffffffffffff1673ffffffffffffffffffffffffffffffffffffffff163373ffffffffffffffffffffffffffffffffffffffff161461097c576040517f08c379a000000000000000000000000000000000000000000000000000000000815260040161097390611459565b60405180910390fd5b5f60015f8481526020019081526020015f2090505f60038111156109a3576109a2610d06565b5b8160030160149054906101000a900460ff1660038111156109c7576109c6610d06565b5b14610a07576040517f08c379a00000000000000000000000000000000000000000000000000000000081526004016109fe906114c1565b60405180910390fd5b60018160030160146101000a81548160ff02191690836003811115610a2f57610a2e610d06565b5b0217905550827faf3c49f5413fd292e2325b0fe214de144a222b00cb6ec21214fdc04b5d6c591360405160405180910390a2505050565b5f73ffffffffffffffffffffffffffffffffffffffff168373ffffffffffffffffffffffffffffffffffffffff1603610ad4576040517f08c379a0000000000000000000000000000000000000000000000000000000008152600401610acb90611529565b60405180910390fd5b803414610b16576040517f08c379a0000000000000000000000000000000000000000000000000000000008152600401610b0d90611591565b60405180910390fd5b60025f815480929190610b28906115af565b91905055505f60015f60025481526020019081526020015f209050600254815f018190555081816001018190555033816002015f6101000a81548173ffffffffffffffffffffffffffffffffffffffff021916908373ffffffffffffffffffffffffffffffffffffffff16021790555083816003015f6101000a81548173ffffffffffffffffffffffffffffffffffffffff021916908373ffffffffffffffffffffffffffffffffffffffff16021790555082816004019081610beb9190611793565b505f8160030160146101000a81548160ff02191690836003811115610c1357610c12610d06565b5b02179055506002547f56560a52c047ed21fd801bf0f345b23d9af696f7922ff8e63101af5d48caddab3386604051610c4c9291906118c3565b60405180910390a250505050565b6003602052805f5260405f205f915090505481565b5f819050919050565b610c8181610c6f565b82525050565b5f602082019050610c9a5f830184610c78565b92915050565b5f604051905090565b5f80fd5b5f80fd5b610cba81610c6f565b8114610cc4575f80fd5b50565b5f81359050610cd581610cb1565b92915050565b5f60208284031215610cf057610cef610ca9565b5b5f610cfd84828501610cc7565b91505092915050565b7f4e487b71000000000000000000000000000000000000000000000000000000005f52602160045260245ffd5b60048110610d4457610d43610d06565b5b50565b5f819050610d5482610d33565b919050565b5f610d6382610d47565b9050919050565b610d7381610d59565b82525050565b5f602082019050610d8c5f830184610d6a565b92915050565b5f81519050919050565b5f82825260208201905092915050565b5f5b83811015610dc9578082015181840152602081019050610dae565b5f8484015250505050565b5f601f19601f8301169050919050565b5f610dee82610d92565b610df88185610d9c565b9350610e08818560208601610dac565b610e1181610dd4565b840191505092915050565b5f6020820190508181035f830152610e348184610de4565b905092915050565b5f73ffffffffffffffffffffffffffffffffffffffff82169050919050565b5f610e6582610e3c565b9050919050565b610e7581610e5b565b82525050565b5f60c082019050610e8e5f830189610c78565b610e9b6020830188610c78565b610ea86040830187610e6c565b610eb56060830186610e6c565b610ec26080830185610d6a565b81810360a0830152610ed48184610de4565b9050979650505050505050565b610eea81610e5b565b8114610ef4575f80fd5b50565b5f81359050610f0581610ee1565b92915050565b5f80fd5b5f80fd5b7f4e487b71000000000000000000000000000000000000000000000000000000005f52604160045260245ffd5b610f4982610dd4565b810181811067ffffffffffffffff82111715610f6857610f67610f13565b5b80604052505050565b5f610f7a610ca0565b9050610f868282610f40565b919050565b5f67ffffffffffffffff821115610fa557610fa4610f13565b5b610fae82610dd4565b9050602081019050919050565b828183375f83830152505050565b5f610fdb610fd684610f8b565b610f71565b905082815260208101848484011115610ff757610ff6610f0f565b5b611002848285610fbb565b509392505050565b5f82601f83011261101e5761101d610f0b565b5b813561102e848260208601610fc9565b91505092915050565b5f805f6060848603121561104e5761104d610ca9565b5b5f61105b86828701610ef7565b935050602084013567ffffffffffffffff81111561107c5761107b610cad565b5b6110888682870161100a565b925050604061109986828701610cc7565b9150509250925092565b5f6110ad82610e3c565b9050919050565b6110bd816110a3565b81146110c7575f80fd5b50565b5f813590506110d8816110b4565b92915050565b5f602082840312156110f3576110f2610ca9565b5b5f611100848285016110ca565b91505092915050565b7f4e487b71000000000000000000000000000000000000000000000000000000005f52602260045260245ffd5b5f600282049050600182168061114d57607f821691505b6020821081036111605761115f611109565b5b50919050565b7f5265656e7472616e637947756172643a207265656e7472616e742063616c6c005f82015250565b5f61119a601f83610d9c565b91506111a582611166565b602082019050919050565b5f6020820190508181035f8301526111c78161118e565b9050919050565b7f4e6f2066756e64730000000000000000000000000000000000000000000000005f82015250565b5f611202600883610d9c565b915061120d826111ce565b602082019050919050565b5f6020820190508181035f83015261122f816111f6565b9050919050565b5f81905092915050565b50565b5f61124e5f83611236565b915061125982611240565b5f82019050919050565b5f61126d82611243565b9150819050919050565b7f5769746864726177206661696c000000000000000000000000000000000000005f82015250565b5f6112ab600d83610d9c565b91506112b682611277565b602082019050919050565b5f6020820190508181035f8301526112d88161129f565b9050919050565b7f4e6f742063726561746f720000000000000000000000000000000000000000005f82015250565b5f611313600b83610d9c565b915061131e826112df565b602082019050919050565b5f6020820190508181035f83015261134081611307565b9050919050565b7f4e6f74207369676e6564000000000000000000000000000000000000000000005f82015250565b5f61137b600a83610d9c565b915061138682611347565b602082019050919050565b5f6020820190508181035f8301526113a88161136f565b9050919050565b7f4e487b71000000000000000000000000000000000000000000000000000000005f52601160045260245ffd5b5f6113e682610c6f565b91506113f183610c6f565b9250828201905080821115611409576114086113af565b5b92915050565b7f4e6f7420636f756e7465727061727479000000000000000000000000000000005f82015250565b5f611443601083610d9c565b915061144e8261140f565b602082019050919050565b5f6020820190508181035f83015261147081611437565b9050919050565b7f53746174757320657272000000000000000000000000000000000000000000005f82015250565b5f6114ab600a83610d9c565b91506114b682611477565b602082019050919050565b5f6020820190508181035f8301526114d88161149f565b9050919050565b7f30206164647200000000000000000000000000000000000000000000000000005f82015250565b5f611513600683610d9c565b915061151e826114df565b602082019050919050565b5f6020820190508181035f83015261154081611507565b9050919050565b7f455448206d69736d6174636800000000000000000000000000000000000000005f82015250565b5f61157b600c83610d9c565b915061158682611547565b602082019050919050565b5f6020820190508181035f8301526115a88161156f565b9050919050565b5f6115b982610c6f565b91507fffffffffffffffffffffffffffffffffffffffffffffffffffffffffffffffff82036115eb576115ea6113af565b5b600182019050919050565b5f819050815f5260205f209050919050565b5f6020601f8301049050919050565b5f82821b905092915050565b5f600883026116527fffffffffffffffffffffffffffffffffffffffffffffffffffffffffffffffff82611617565b61165c8683611617565b95508019841693508086168417925050509392505050565b5f819050919050565b5f61169761169261168d84610c6f565b611674565b610c6f565b9050919050565b5f819050919050565b6116b08361167d565b6116c46116bc8261169e565b848454611623565b825550505050565b5f90565b6116d86116cc565b6116e38184846116a7565b505050565b5b81811015611706576116fb5f826116d0565b6001810190506116e9565b5050565b601f82111561174b5761171c816115f6565b61172584611608565b81016020851015611734578190505b61174861174085611608565b8301826116e8565b50505b505050565b5f82821c905092915050565b5f61176b5f1984600802611750565b1980831691505092915050565b5f611783838361175c565b9150826002028217905092915050565b61179c82610d92565b67ffffffffffffffff8111156117b5576117b4610f13565b5b6117bf8254611136565b6117ca82828561170a565b5f60209050601f8311600181146117fb575f84156117e9578287015190505b6117f38582611778565b86555061185a565b601f198416611809866115f6565b5f5b828110156118305784890151825560018201915060208501945060208101905061180b565b8683101561184d5784890151611849601f89168261175c565b8355505b6001600288020188555050505b505050505050565b61186b816110a3565b82525050565b5f61188b61188661188184610e3c565b611674565b610e3c565b9050919050565b5f61189c82611871565b9050919050565b5f6118ad82611892565b9050919050565b6118bd816118a3565b82525050565b5f6040820190506118d65f830185611862565b6118e360208301846118b4565b939250505056fea2646970667358221220c2ff27ab86e4d03f181925a72ae8b4419a266800ccf0c3fb764b7748a40b880364736f6c63430008150033",
					"opcodes": "PUSH1 0x80 PUSH1 0x40 MSTORE CALLVALUE DUP1 ISZERO PUSH2 0xF JUMPI PUSH0 DUP1 REVERT JUMPDEST POP PUSH1 0x1 PUSH0 DUP2 SWAP1 SSTORE POP PUSH2 0x1920 DUP1 PUSH2 0x24 PUSH0 CODECOPY PUSH0 RETURN INVALID PUSH1 0x80 PUSH1 0x40 MSTORE PUSH1 0x4 CALLDATASIZE LT PUSH2 0x85 JUMPI PUSH0 CALLDATALOAD PUSH1 0xE0 SHR DUP1 PUSH4 0x474DA79A GT PUSH2 0x58 JUMPI DUP1 PUSH4 0x474DA79A EQ PUSH2 0x141 JUMPI DUP1 PUSH4 0x94AEB613 EQ PUSH2 0x182 JUMPI DUP1 PUSH4 0x9537E8D1 EQ PUSH2 0x1AA JUMPI DUP1 PUSH4 0x9CE5B6CA EQ PUSH2 0x1D2 JUMPI DUP1 PUSH4 0xF3F43703 EQ PUSH2 0x1EE JUMPI PUSH2 0x85 JUMP JUMPDEST DUP1 PUSH4 0x67BD3B4 EQ PUSH2 0x89 JUMPI DUP1 PUSH4 0x17B18458 EQ PUSH2 0xB3 JUMPI DUP1 PUSH4 0x1ED4AF8C EQ PUSH2 0xEF JUMPI DUP1 PUSH4 0x24600FC3 EQ PUSH2 0x12B JUMPI JUMPDEST PUSH0 DUP1 REVERT JUMPDEST CALLVALUE DUP1 ISZERO PUSH2 0x94 JUMPI PUSH0 DUP1 REVERT JUMPDEST POP PUSH2 0x9D PUSH2 0x22A JUMP JUMPDEST PUSH1 0x40 MLOAD PUSH2 0xAA SWAP2 SWAP1 PUSH2 0xC87 JUMP JUMPDEST PUSH1 0x40 MLOAD DUP1 SWAP2 SUB SWAP1 RETURN JUMPDEST CALLVALUE DUP1 ISZERO PUSH2 0xBE JUMPI PUSH0 DUP1 REVERT JUMPDEST POP PUSH2 0xD9 PUSH1 0x4 DUP1 CALLDATASIZE SUB DUP2 ADD SWAP1 PUSH2 0xD4 SWAP2 SWAP1 PUSH2 0xCDB JUMP JUMPDEST PUSH2 0x230 JUMP JUMPDEST PUSH1 0x40 MLOAD PUSH2 0xE6 SWAP2 SWAP1 PUSH2 0xD79 JUMP JUMPDEST PUSH1 0x40 MLOAD DUP1 SWAP2 SUB SWAP1 RETURN JUMPDEST CALLVALUE DUP1 ISZERO PUSH2 0xFA JUMPI PUSH0 DUP1 REVERT JUMPDEST POP PUSH2 0x115 PUSH1 0x4 DUP1 CALLDATASIZE SUB DUP2 ADD SWAP1 PUSH2 0x110 SWAP2 SWAP1 PUSH2 0xCDB JUMP JUMPDEST PUSH2 0x25A JUMP JUMPDEST PUSH1 0x40 MLOAD PUSH2 0x122 SWAP2 SWAP1 PUSH2 0xE1C JUMP JUMPDEST PUSH1 0x40 MLOAD DUP1 SWAP2 SUB SWAP1 RETURN JUMPDEST CALLVALUE DUP1 ISZERO PUSH2 0x136 JUMPI PUSH0 DUP1 REVERT JUMPDEST POP PUSH2 0x13F PUSH2 0x2FE JUMP JUMPDEST STOP JUMPDEST CALLVALUE DUP1 ISZERO PUSH2 0x14C JUMPI PUSH0 DUP1 REVERT JUMPDEST POP PUSH2 0x167 PUSH1 0x4 DUP1 CALLDATASIZE SUB DUP2 ADD SWAP1 PUSH2 0x162 SWAP2 SWAP1 PUSH2 0xCDB JUMP JUMPDEST PUSH2 0x50F JUMP JUMPDEST PUSH1 0x40 MLOAD PUSH2 0x179 SWAP7 SWAP6 SWAP5 SWAP4 SWAP3 SWAP2 SWAP1 PUSH2 0xE7B JUMP JUMPDEST PUSH1 0x40 MLOAD DUP1 SWAP2 SUB SWAP1 RETURN JUMPDEST CALLVALUE DUP1 ISZERO PUSH2 0x18D JUMPI PUSH0 DUP1 REVERT JUMPDEST POP PUSH2 0x1A8 PUSH1 0x4 DUP1 CALLDATASIZE SUB DUP2 ADD SWAP1 PUSH2 0x1A3 SWAP2 SWAP1 PUSH2 0xCDB JUMP JUMPDEST PUSH2 0x618 JUMP JUMPDEST STOP JUMPDEST CALLVALUE DUP1 ISZERO PUSH2 0x1B5 JUMPI PUSH0 DUP1 REVERT JUMPDEST POP PUSH2 0x1D0 PUSH1 0x4 DUP1 CALLDATASIZE SUB DUP2 ADD SWAP1 PUSH2 0x1CB SWAP2 SWAP1 PUSH2 0xCDB JUMP JUMPDEST PUSH2 0x8DA JUMP JUMPDEST STOP JUMPDEST PUSH2 0x1EC PUSH1 0x4 DUP1 CALLDATASIZE SUB DUP2 ADD SWAP1 PUSH2 0x1E7 SWAP2 SWAP1 PUSH2 0x1037 JUMP JUMPDEST PUSH2 0xA66 JUMP JUMPDEST STOP JUMPDEST CALLVALUE DUP1 ISZERO PUSH2 0x1F9 JUMPI PUSH0 DUP1 REVERT JUMPDEST POP PUSH2 0x214 PUSH1 0x4 DUP1 CALLDATASIZE SUB DUP2 ADD SWAP1 PUSH2 0x20F SWAP2 SWAP1 PUSH2 0x10DE JUMP JUMPDEST PUSH2 0xC5A JUMP JUMPDEST PUSH1 0x40 MLOAD PUSH2 0x221 SWAP2 SWAP1 PUSH2 0xC87 JUMP JUMPDEST PUSH1 0x40 MLOAD DUP1 SWAP2 SUB SWAP1 RETURN JUMPDEST PUSH1 0x2 SLOAD DUP2 JUMP JUMPDEST PUSH0 PUSH1 0x1 PUSH0 DUP4 DUP2 MSTORE PUSH1 0x20 ADD SWAP1 DUP2 MSTORE PUSH1 0x20 ADD PUSH0 KECCAK256 PUSH1 0x3 ADD PUSH1 0x14 SWAP1 SLOAD SWAP1 PUSH2 0x100 EXP SWAP1 DIV PUSH1 0xFF AND SWAP1 POP SWAP2 SWAP1 POP JUMP JUMPDEST PUSH1 0x60 PUSH1 0x1 PUSH0 DUP4 DUP2 MSTORE PUSH1 0x20 ADD SWAP1 DUP2 MSTORE PUSH1 0x20 ADD PUSH0 KECCAK256 PUSH1 0x4 ADD DUP1 SLOAD PUSH2 0x27B SWAP1 PUSH2 0x1136 JUMP JUMPDEST DUP1 PUSH1 0x1F ADD PUSH1 0x20 DUP1 SWAP2 DIV MUL PUSH1 0x20 ADD PUSH1 0x40 MLOAD SWAP1 DUP2 ADD PUSH1 0x40 MSTORE DUP1 SWAP3 SWAP2 SWAP1 DUP2 DUP2 MSTORE PUSH1 0x20 ADD DUP3 DUP1 SLOAD PUSH2 0x2A7 SWAP1 PUSH2 0x1136 JUMP JUMPDEST DUP1 ISZERO PUSH2 0x2F2 JUMPI DUP1 PUSH1 0x1F LT PUSH2 0x2C9 JUMPI PUSH2 0x100 DUP1 DUP4 SLOAD DIV MUL DUP4 MSTORE SWAP2 PUSH1 0x20 ADD SWAP2 PUSH2 0x2F2 JUMP JUMPDEST DUP3 ADD SWAP2 SWAP1 PUSH0 MSTORE PUSH1 0x20 PUSH0 KECCAK256 SWAP1 JUMPDEST DUP2 SLOAD DUP2 MSTORE SWAP1 PUSH1 0x1 ADD SWAP1 PUSH1 0x20 ADD DUP1 DUP4 GT PUSH2 0x2D5 JUMPI DUP3 SWAP1 SUB PUSH1 0x1F AND DUP3 ADD SWAP2 JUMPDEST POP POP POP POP POP SWAP1 POP SWAP2 SWAP1 POP JUMP JUMPDEST PUSH1 0x2 PUSH0 SLOAD SUB PUSH2 0x342 JUMPI PUSH1 0x40 MLOAD PUSH32 0x8C379A000000000000000000000000000000000000000000000000000000000 DUP2 MSTORE PUSH1 0x4 ADD PUSH2 0x339 SWAP1 PUSH2 0x11B0 JUMP JUMPDEST PUSH1 0x40 MLOAD DUP1 SWAP2 SUB SWAP1 REVERT JUMPDEST PUSH1 0x2 PUSH0 DUP2 SWAP1 SSTORE POP PUSH0 PUSH1 0x3 PUSH0 CALLER PUSH20 0xFFFFFFFFFFFFFFFFFFFFFFFFFFFFFFFFFFFFFFFF AND PUSH20 0xFFFFFFFFFFFFFFFFFFFFFFFFFFFFFFFFFFFFFFFF AND DUP2 MSTORE PUSH1 0x20 ADD SWAP1 DUP2 MSTORE PUSH1 0x20 ADD PUSH0 KECCAK256 SLOAD SWAP1 POP PUSH0 DUP2 SUB PUSH2 0x3CC JUMPI PUSH1 0x40 MLOAD PUSH32 0x8C379A000000000000000000000000000000000000000000000000000000000 DUP2 MSTORE PUSH1 0x4 ADD PUSH2 0x3C3 SWAP1 PUSH2 0x1218 JUMP JUMPDEST PUSH1 0x40 MLOAD DUP1 SWAP2 SUB SWAP1 REVERT JUMPDEST PUSH0 PUSH1 0x3 PUSH0 CALLER PUSH20 0xFFFFFFFFFFFFFFFFFFFFFFFFFFFFFFFFFFFFFFFF AND PUSH20 0xFFFFFFFFFFFFFFFFFFFFFFFFFFFFFFFFFFFFFFFF AND DUP2 MSTORE PUSH1 0x20 ADD SWAP1 DUP2 MSTORE PUSH1 0x20 ADD PUSH0 KECCAK256 DUP2 SWAP1 SSTORE POP PUSH0 CALLER PUSH20 0xFFFFFFFFFFFFFFFFFFFFFFFFFFFFFFFFFFFFFFFF AND DUP3 PUSH1 0x40 MLOAD PUSH2 0x433 SWAP1 PUSH2 0x1263 JUMP JUMPDEST PUSH0 PUSH1 0x40 MLOAD DUP1 DUP4 SUB DUP2 DUP6 DUP8 GAS CALL SWAP3 POP POP POP RETURNDATASIZE DUP1 PUSH0 DUP2 EQ PUSH2 0x46D JUMPI PUSH1 0x40 MLOAD SWAP2 POP PUSH1 0x1F NOT PUSH1 0x3F RETURNDATASIZE ADD AND DUP3 ADD PUSH1 0x40 MSTORE RETURNDATASIZE DUP3 MSTORE RETURNDATASIZE PUSH0 PUSH1 0x20 DUP5 ADD RETURNDATACOPY PUSH2 0x472 JUMP JUMPDEST PUSH1 0x60 SWAP2 POP JUMPDEST POP POP SWAP1 POP DUP1 PUSH2 0x4B6 JUMPI PUSH1 0x40 MLOAD PUSH32 0x8C379A000000000000000000000000000000000000000000000000000000000 DUP2 MSTORE PUSH1 0x4 ADD PUSH2 0x4AD SWAP1 PUSH2 0x12C1 JUMP JUMPDEST PUSH1 0x40 MLOAD DUP1 SWAP2 SUB SWAP1 REVERT JUMPDEST CALLER PUSH20 0xFFFFFFFFFFFFFFFFFFFFFFFFFFFFFFFFFFFFFFFF AND PUSH32 0xEAFF4B37086828766AD3268786972C0CD24259D4C87A80F9D3963A3C3D999B0D DUP4 PUSH1 0x40 MLOAD PUSH2 0x4FC SWAP2 SWAP1 PUSH2 0xC87 JUMP JUMPDEST PUSH1 0x40 MLOAD DUP1 SWAP2 SUB SWAP1 LOG2 POP POP PUSH1 0x1 PUSH0 DUP2 SWAP1 SSTORE POP JUMP JUMPDEST PUSH1 0x1 PUSH1 0x20 MSTORE DUP1 PUSH0 MSTORE PUSH1 0x40 PUSH0 KECCAK256 PUSH0 SWAP2 POP SWAP1 POP DUP1 PUSH0 ADD SLOAD SWAP1 DUP1 PUSH1 0x1 ADD SLOAD SWAP1 DUP1 PUSH1 0x2 ADD PUSH0 SWAP1 SLOAD SWAP1 PUSH2 0x100 EXP SWAP1 DIV PUSH20 0xFFFFFFFFFFFFFFFFFFFFFFFFFFFFFFFFFFFFFFFF AND SWAP1 DUP1 PUSH1 0x3 ADD PUSH0 SWAP1 SLOAD SWAP1 PUSH2 0x100 EXP SWAP1 DIV PUSH20 0xFFFFFFFFFFFFFFFFFFFFFFFFFFFFFFFFFFFFFFFF AND SWAP1 DUP1 PUSH1 0x3 ADD PUSH1 0x14 SWAP1 SLOAD SWAP1 PUSH2 0x100 EXP SWAP1 DIV PUSH1 0xFF AND SWAP1 DUP1 PUSH1 0x4 ADD DUP1 SLOAD PUSH2 0x597 SWAP1 PUSH2 0x1136 JUMP JUMPDEST DUP1 PUSH1 0x1F ADD PUSH1 0x20 DUP1 SWAP2 DIV MUL PUSH1 0x20 ADD PUSH1 0x40 MLOAD SWAP1 DUP2 ADD PUSH1 0x40 MSTORE DUP1 SWAP3 SWAP2 SWAP1 DUP2 DUP2 MSTORE PUSH1 0x20 ADD DUP3 DUP1 SLOAD PUSH2 0x5C3 SWAP1 PUSH2 0x1136 JUMP JUMPDEST DUP1 ISZERO PUSH2 0x60E JUMPI DUP1 PUSH1 0x1F LT PUSH2 0x5E5 JUMPI PUSH2 0x100 DUP1 DUP4 SLOAD DIV MUL DUP4 MSTORE SWAP2 PUSH1 0x20 ADD SWAP2 PUSH2 0x60E JUMP JUMPDEST DUP3 ADD SWAP2 SWAP1 PUSH0 MSTORE PUSH1 0x20 PUSH0 KECCAK256 SWAP1 JUMPDEST DUP2 SLOAD DUP2 MSTORE SWAP1 PUSH1 0x1 ADD SWAP1 PUSH1 0x20 ADD DUP1 DUP4 GT PUSH2 0x5F1 JUMPI DUP3 SWAP1 SUB PUSH1 0x1F AND DUP3 ADD SWAP2 JUMPDEST POP POP POP POP POP SWAP1 POP DUP7 JUMP JUMPDEST PUSH1 0x2 PUSH0 SLOAD SUB PUSH2 0x65C JUMPI PUSH1 0x40 MLOAD PUSH32 0x8C379A000000000000000000000000000000000000000000000000000000000 DUP2 MSTORE PUSH1 0x4 ADD PUSH2 0x653 SWAP1 PUSH2 0x11B0 JUMP JUMPDEST PUSH1 0x40 MLOAD DUP1 SWAP2 SUB SWAP1 REVERT JUMPDEST PUSH1 0x2 PUSH0 DUP2 SWAP1 SSTORE POP DUP1 PUSH1 0x1 PUSH0 DUP3 DUP2 MSTORE PUSH1 0x20 ADD SWAP1 DUP2 MSTORE PUSH1 0x20 ADD PUSH0 KECCAK256 PUSH1 0x2 ADD PUSH0 SWAP1 SLOAD SWAP1 PUSH2 0x100 EXP SWAP1 DIV PUSH20 0xFFFFFFFFFFFFFFFFFFFFFFFFFFFFFFFFFFFFFFFF AND PUSH20 0xFFFFFFFFFFFFFFFFFFFFFFFFFFFFFFFFFFFFFFFF AND CALLER PUSH20 0xFFFFFFFFFFFFFFFFFFFFFFFFFFFFFFFFFFFFFFFF AND EQ PUSH2 0x705 JUMPI PUSH1 0x40 MLOAD PUSH32 0x8C379A000000000000000000000000000000000000000000000000000000000 DUP2 MSTORE PUSH1 0x4 ADD PUSH2 0x6FC SWAP1 PUSH2 0x1329 JUMP JUMPDEST PUSH1 0x40 MLOAD DUP1 SWAP2 SUB SWAP1 REVERT JUMPDEST PUSH0 PUSH1 0x1 PUSH0 DUP5 DUP2 MSTORE PUSH1 0x20 ADD SWAP1 DUP2 MSTORE PUSH1 0x20 ADD PUSH0 KECCAK256 SWAP1 POP PUSH1 0x1 PUSH1 0x3 DUP2 GT ISZERO PUSH2 0x72D JUMPI PUSH2 0x72C PUSH2 0xD06 JUMP JUMPDEST JUMPDEST DUP2 PUSH1 0x3 ADD PUSH1 0x14 SWAP1 SLOAD SWAP1 PUSH2 0x100 EXP SWAP1 DIV PUSH1 0xFF AND PUSH1 0x3 DUP2 GT ISZERO PUSH2 0x751 JUMPI PUSH2 0x750 PUSH2 0xD06 JUMP JUMPDEST JUMPDEST EQ PUSH2 0x791 JUMPI PUSH1 0x40 MLOAD PUSH32 0x8C379A000000000000000000000000000000000000000000000000000000000 DUP2 MSTORE PUSH1 0x4 ADD PUSH2 0x788 SWAP1 PUSH2 0x1391 JUMP JUMPDEST PUSH1 0x40 MLOAD DUP1 SWAP2 SUB SWAP1 REVERT JUMPDEST PUSH1 0x2 DUP2 PUSH1 0x3 ADD PUSH1 0x14 PUSH2 0x100 EXP DUP2 SLOAD DUP2 PUSH1 0xFF MUL NOT AND SWAP1 DUP4 PUSH1 0x3 DUP2 GT ISZERO PUSH2 0x7B9 JUMPI PUSH2 0x7B8 PUSH2 0xD06 JUMP JUMPDEST JUMPDEST MUL OR SWAP1 SSTORE POP DUP1 PUSH1 0x1 ADD SLOAD PUSH1 0x3 PUSH0 DUP4 PUSH1 0x3 ADD PUSH0 SWAP1 SLOAD SWAP1 PUSH2 0x100 EXP SWAP1 DIV PUSH20 0xFFFFFFFFFFFFFFFFFFFFFFFFFFFFFFFFFFFFFFFF AND PUSH20 0xFFFFFFFFFFFFFFFFFFFFFFFFFFFFFFFFFFFFFFFF AND PUSH20 0xFFFFFFFFFFFFFFFFFFFFFFFFFFFFFFFFFFFFFFFF AND DUP2 MSTORE PUSH1 0x20 ADD SWAP1 DUP2 MSTORE PUSH1 0x20 ADD PUSH0 KECCAK256 SLOAD PUSH2 0x82E SWAP2 SWAP1 PUSH2 0x13DC JUMP JUMPDEST PUSH1 0x3 PUSH0 DUP4 PUSH1 0x3 ADD PUSH0 SWAP1 SLOAD SWAP1 PUSH2 0x100 EXP SWAP1 DIV PUSH20 0xFFFFFFFFFFFFFFFFFFFFFFFFFFFFFFFFFFFFFFFF AND PUSH20 0xFFFFFFFFFFFFFFFFFFFFFFFFFFFFFFFFFFFFFFFF AND PUSH20 0xFFFFFFFFFFFFFFFFFFFFFFFFFFFFFFFFFFFFFFFF AND DUP2 MSTORE PUSH1 0x20 ADD SWAP1 DUP2 MSTORE PUSH1 0x20 ADD PUSH0 KECCAK256 DUP2 SWAP1 SSTORE POP DUP3 PUSH32 0xC8EF479ACDBFFD729D96117B951D1C3EE85D98EF42699AEC806BC4F0B522461D DUP3 PUSH1 0x1 ADD SLOAD PUSH1 0x40 MLOAD PUSH2 0x8C6 SWAP2 SWAP1 PUSH2 0xC87 JUMP JUMPDEST PUSH1 0x40 MLOAD DUP1 SWAP2 SUB SWAP1 LOG2 POP POP PUSH1 0x1 PUSH0 DUP2 SWAP1 SSTORE POP POP JUMP JUMPDEST DUP1 PUSH1 0x1 PUSH0 DUP3 DUP2 MSTORE PUSH1 0x20 ADD SWAP1 DUP2 MSTORE PUSH1 0x20 ADD PUSH0 KECCAK256 PUSH1 0x3 ADD PUSH0 SWAP1 SLOAD SWAP1 PUSH2 0x100 EXP SWAP1 DIV PUSH20 0xFFFFFFFFFFFFFFFFFFFFFFFFFFFFFFFFFFFFFFFF AND PUSH20 0xFFFFFFFFFFFFFFFFFFFFFFFFFFFFFFFFFFFFFFFF AND CALLER PUSH20 0xFFFFFFFFFFFFFFFFFFFFFFFFFFFFFFFFFFFFFFFF AND EQ PUSH2 0x97C JUMPI PUSH1 0x40 MLOAD PUSH32 0x8C379A000000000000000000000000000000000000000000000000000000000 DUP2 MSTORE PUSH1 0x4 ADD PUSH2 0x973 SWAP1 PUSH2 0x1459 JUMP JUMPDEST PUSH1 0x40 MLOAD DUP1 SWAP2 SUB SWAP1 REVERT JUMPDEST PUSH0 PUSH1 0x1 PUSH0 DUP5 DUP2 MSTORE PUSH1 0x20 ADD SWAP1 DUP2 MSTORE PUSH1 0x20 ADD PUSH0 KECCAK256 SWAP1 POP PUSH0 PUSH1 0x3 DUP2 GT ISZERO PUSH2 0x9A3 JUMPI PUSH2 0x9A2 PUSH2 0xD06 JUMP JUMPDEST JUMPDEST DUP2 PUSH1 0x3 ADD PUSH1 0x14 SWAP1 SLOAD SWAP1 PUSH2 0x100 EXP SWAP1 DIV PUSH1 0xFF AND PUSH1 0x3 DUP2 GT ISZERO PUSH2 0x9C7 JUMPI PUSH2 0x9C6 PUSH2 0xD06 JUMP JUMPDEST JUMPDEST EQ PUSH2 0xA07 JUMPI PUSH1 0x40 MLOAD PUSH32 0x8C379A000000000000000000000000000000000000000000000000000000000 DUP2 MSTORE PUSH1 0x4 ADD PUSH2 0x9FE SWAP1 PUSH2 0x14C1 JUMP JUMPDEST PUSH1 0x40 MLOAD DUP1 SWAP2 SUB SWAP1 REVERT JUMPDEST PUSH1 0x1 DUP2 PUSH1 0x3 ADD PUSH1 0x14 PUSH2 0x100 EXP DUP2 SLOAD DUP2 PUSH1 0xFF MUL NOT AND SWAP1 DUP4 PUSH1 0x3 DUP2 GT ISZERO PUSH2 0xA2F JUMPI PUSH2 0xA2E PUSH2 0xD06 JUMP JUMPDEST JUMPDEST MUL OR SWAP1 SSTORE POP DUP3 PUSH32 0xAF3C49F5413FD292E2325B0FE214DE144A222B00CB6EC21214FDC04B5D6C5913 PUSH1 0x40 MLOAD PUSH1 0x40 MLOAD DUP1 SWAP2 SUB SWAP1 LOG2 POP POP POP JUMP JUMPDEST PUSH0 PUSH20 0xFFFFFFFFFFFFFFFFFFFFFFFFFFFFFFFFFFFFFFFF AND DUP4 PUSH20 0xFFFFFFFFFFFFFFFFFFFFFFFFFFFFFFFFFFFFFFFF AND SUB PUSH2 0xAD4 JUMPI PUSH1 0x40 MLOAD PUSH32 0x8C379A000000000000000000000000000000000000000000000000000000000 DUP2 MSTORE PUSH1 0x4 ADD PUSH2 0xACB SWAP1 PUSH2 0x1529 JUMP JUMPDEST PUSH1 0x40 MLOAD DUP1 SWAP2 SUB SWAP1 REVERT JUMPDEST DUP1 CALLVALUE EQ PUSH2 0xB16 JUMPI PUSH1 0x40 MLOAD PUSH32 0x8C379A000000000000000000000000000000000000000000000000000000000 DUP2 MSTORE PUSH1 0x4 ADD PUSH2 0xB0D SWAP1 PUSH2 0x1591 JUMP JUMPDEST PUSH1 0x40 MLOAD DUP1 SWAP2 SUB SWAP1 REVERT JUMPDEST PUSH1 0x2 PUSH0 DUP2 SLOAD DUP1 SWAP3 SWAP2 SWAP1 PUSH2 0xB28 SWAP1 PUSH2 0x15AF JUMP JUMPDEST SWAP2 SWAP1 POP SSTORE POP PUSH0 PUSH1 0x1 PUSH0 PUSH1 0x2 SLOAD DUP2 MSTORE PUSH1 0x20 ADD SWAP1 DUP2 MSTORE PUSH1 0x20 ADD PUSH0 KECCAK256 SWAP1 POP PUSH1 0x2 SLOAD DUP2 PUSH0 ADD DUP2 SWAP1 SSTORE POP DUP2 DUP2 PUSH1 0x1 ADD DUP2 SWAP1 SSTORE POP CALLER DUP2 PUSH1 0x2 ADD PUSH0 PUSH2 0x100 EXP DUP2 SLOAD DUP2 PUSH20 0xFFFFFFFFFFFFFFFFFFFFFFFFFFFFFFFFFFFFFFFF MUL NOT AND SWAP1 DUP4 PUSH20 0xFFFFFFFFFFFFFFFFFFFFFFFFFFFFFFFFFFFFFFFF AND MUL OR SWAP1 SSTORE POP DUP4 DUP2 PUSH1 0x3 ADD PUSH0 PUSH2 0x100 EXP DUP2 SLOAD DUP2 PUSH20 0xFFFFFFFFFFFFFFFFFFFFFFFFFFFFFFFFFFFFFFFF MUL NOT AND SWAP1 DUP4 PUSH20 0xFFFFFFFFFFFFFFFFFFFFFFFFFFFFFFFFFFFFFFFF AND MUL OR SWAP1 SSTORE POP DUP3 DUP2 PUSH1 0x4 ADD SWAP1 DUP2 PUSH2 0xBEB SWAP2 SWAP1 PUSH2 0x1793 JUMP JUMPDEST POP PUSH0 DUP2 PUSH1 0x3 ADD PUSH1 0x14 PUSH2 0x100 EXP DUP2 SLOAD DUP2 PUSH1 0xFF MUL NOT AND SWAP1 DUP4 PUSH1 0x3 DUP2 GT ISZERO PUSH2 0xC13 JUMPI PUSH2 0xC12 PUSH2 0xD06 JUMP JUMPDEST JUMPDEST MUL OR SWAP1 SSTORE POP PUSH1 0x2 SLOAD PUSH32 0x56560A52C047ED21FD801BF0F345B23D9AF696F7922FF8E63101AF5D48CADDAB CALLER DUP7 PUSH1 0x40 MLOAD PUSH2 0xC4C SWAP3 SWAP2 SWAP1 PUSH2 0x18C3 JUMP JUMPDEST PUSH1 0x40 MLOAD DUP1 SWAP2 SUB SWAP1 LOG2 POP POP POP POP JUMP JUMPDEST PUSH1 0x3 PUSH1 0x20 MSTORE DUP1 PUSH0 MSTORE PUSH1 0x40 PUSH0 KECCAK256 PUSH0 SWAP2 POP SWAP1 POP SLOAD DUP2 JUMP JUMPDEST PUSH0 DUP2 SWAP1 POP SWAP2 SWAP1 POP JUMP JUMPDEST PUSH2 0xC81 DUP2 PUSH2 0xC6F JUMP JUMPDEST DUP3 MSTORE POP POP JUMP JUMPDEST PUSH0 PUSH1 0x20 DUP3 ADD SWAP1 POP PUSH2 0xC9A PUSH0 DUP4 ADD DUP5 PUSH2 0xC78 JUMP JUMPDEST SWAP3 SWAP2 POP POP JUMP JUMPDEST PUSH0 PUSH1 0x40 MLOAD SWAP1 POP SWAP1 JUMP JUMPDEST PUSH0 DUP1 REVERT JUMPDEST PUSH0 DUP1 REVERT JUMPDEST PUSH2 0xCBA DUP2 PUSH2 0xC6F JUMP JUMPDEST DUP2 EQ PUSH2 0xCC4 JUMPI PUSH0 DUP1 REVERT JUMPDEST POP JUMP JUMPDEST PUSH0 DUP2 CALLDATALOAD SWAP1 POP PUSH2 0xCD5 DUP2 PUSH2 0xCB1 JUMP JUMPDEST SWAP3 SWAP2 POP POP JUMP JUMPDEST PUSH0 PUSH1 0x20 DUP3 DUP5 SUB SLT ISZERO PUSH2 0xCF0 JUMPI PUSH2 0xCEF PUSH2 0xCA9 JUMP JUMPDEST JUMPDEST PUSH0 PUSH2 0xCFD DUP5 DUP3 DUP6 ADD PUSH2 0xCC7 JUMP JUMPDEST SWAP2 POP POP SWAP3 SWAP2 POP POP JUMP JUMPDEST PUSH32 0x4E487B7100000000000000000000000000000000000000000000000000000000 PUSH0 MSTORE PUSH1 0x21 PUSH1 0x4 MSTORE PUSH1 0x24 PUSH0 REVERT JUMPDEST PUSH1 0x4 DUP2 LT PUSH2 0xD44 JUMPI PUSH2 0xD43 PUSH2 0xD06 JUMP JUMPDEST JUMPDEST POP JUMP JUMPDEST PUSH0 DUP2 SWAP1 POP PUSH2 0xD54 DUP3 PUSH2 0xD33 JUMP JUMPDEST SWAP2 SWAP1 POP JUMP JUMPDEST PUSH0 PUSH2 0xD63 DUP3 PUSH2 0xD47 JUMP JUMPDEST SWAP1 POP SWAP2 SWAP1 POP JUMP JUMPDEST PUSH2 0xD73 DUP2 PUSH2 0xD59 JUMP JUMPDEST DUP3 MSTORE POP POP JUMP JUMPDEST PUSH0 PUSH1 0x20 DUP3 ADD SWAP1 POP PUSH2 0xD8C PUSH0 DUP4 ADD DUP5 PUSH2 0xD6A JUMP JUMPDEST SWAP3 SWAP2 POP POP JUMP JUMPDEST PUSH0 DUP2 MLOAD SWAP1 POP SWAP2 SWAP1 POP JUMP JUMPDEST PUSH0 DUP3 DUP3 MSTORE PUSH1 0x20 DUP3 ADD SWAP1 POP SWAP3 SWAP2 POP POP JUMP JUMPDEST PUSH0 JUMPDEST DUP4 DUP2 LT ISZERO PUSH2 0xDC9 JUMPI DUP1 DUP3 ADD MLOAD DUP2 DUP5 ADD MSTORE PUSH1 0x20 DUP2 ADD SWAP1 POP PUSH2 0xDAE JUMP JUMPDEST PUSH0 DUP5 DUP5 ADD MSTORE POP POP POP POP JUMP JUMPDEST PUSH0 PUSH1 0x1F NOT PUSH1 0x1F DUP4 ADD AND SWAP1 POP SWAP2 SWAP1 POP JUMP JUMPDEST PUSH0 PUSH2 0xDEE DUP3 PUSH2 0xD92 JUMP JUMPDEST PUSH2 0xDF8 DUP2 DUP6 PUSH2 0xD9C JUMP JUMPDEST SWAP4 POP PUSH2 0xE08 DUP2 DUP6 PUSH1 0x20 DUP7 ADD PUSH2 0xDAC JUMP JUMPDEST PUSH2 0xE11 DUP2 PUSH2 0xDD4 JUMP JUMPDEST DUP5 ADD SWAP2 POP POP SWAP3 SWAP2 POP POP JUMP JUMPDEST PUSH0 PUSH1 0x20 DUP3 ADD SWAP1 POP DUP2 DUP2 SUB PUSH0 DUP4 ADD MSTORE PUSH2 0xE34 DUP2 DUP5 PUSH2 0xDE4 JUMP JUMPDEST SWAP1 POP SWAP3 SWAP2 POP POP JUMP JUMPDEST PUSH0 PUSH20 0xFFFFFFFFFFFFFFFFFFFFFFFFFFFFFFFFFFFFFFFF DUP3 AND SWAP1 POP SWAP2 SWAP1 POP JUMP JUMPDEST PUSH0 PUSH2 0xE65 DUP3 PUSH2 0xE3C JUMP JUMPDEST SWAP1 POP SWAP2 SWAP1 POP JUMP JUMPDEST PUSH2 0xE75 DUP2 PUSH2 0xE5B JUMP JUMPDEST DUP3 MSTORE POP POP JUMP JUMPDEST PUSH0 PUSH1 0xC0 DUP3 ADD SWAP1 POP PUSH2 0xE8E PUSH0 DUP4 ADD DUP10 PUSH2 0xC78 JUMP JUMPDEST PUSH2 0xE9B PUSH1 0x20 DUP4 ADD DUP9 PUSH2 0xC78 JUMP JUMPDEST PUSH2 0xEA8 PUSH1 0x40 DUP4 ADD DUP8 PUSH2 0xE6C JUMP JUMPDEST PUSH2 0xEB5 PUSH1 0x60 DUP4 ADD DUP7 PUSH2 0xE6C JUMP JUMPDEST PUSH2 0xEC2 PUSH1 0x80 DUP4 ADD DUP6 PUSH2 0xD6A JUMP JUMPDEST DUP2 DUP2 SUB PUSH1 0xA0 DUP4 ADD MSTORE PUSH2 0xED4 DUP2 DUP5 PUSH2 0xDE4 JUMP JUMPDEST SWAP1 POP SWAP8 SWAP7 POP POP POP POP POP POP POP JUMP JUMPDEST PUSH2 0xEEA DUP2 PUSH2 0xE5B JUMP JUMPDEST DUP2 EQ PUSH2 0xEF4 JUMPI PUSH0 DUP1 REVERT JUMPDEST POP JUMP JUMPDEST PUSH0 DUP2 CALLDATALOAD SWAP1 POP PUSH2 0xF05 DUP2 PUSH2 0xEE1 JUMP JUMPDEST SWAP3 SWAP2 POP POP JUMP JUMPDEST PUSH0 DUP1 REVERT JUMPDEST PUSH0 DUP1 REVERT JUMPDEST PUSH32 0x4E487B7100000000000000000000000000000000000000000000000000000000 PUSH0 MSTORE PUSH1 0x41 PUSH1 0x4 MSTORE PUSH1 0x24 PUSH0 REVERT JUMPDEST PUSH2 0xF49 DUP3 PUSH2 0xDD4 JUMP JUMPDEST DUP2 ADD DUP2 DUP2 LT PUSH8 0xFFFFFFFFFFFFFFFF DUP3 GT OR ISZERO PUSH2 0xF68 JUMPI PUSH2 0xF67 PUSH2 0xF13 JUMP JUMPDEST JUMPDEST DUP1 PUSH1 0x40 MSTORE POP POP POP JUMP JUMPDEST PUSH0 PUSH2 0xF7A PUSH2 0xCA0 JUMP JUMPDEST SWAP1 POP PUSH2 0xF86 DUP3 DUP3 PUSH2 0xF40 JUMP JUMPDEST SWAP2 SWAP1 POP JUMP JUMPDEST PUSH0 PUSH8 0xFFFFFFFFFFFFFFFF DUP3 GT ISZERO PUSH2 0xFA5 JUMPI PUSH2 0xFA4 PUSH2 0xF13 JUMP JUMPDEST JUMPDEST PUSH2 0xFAE DUP3 PUSH2 0xDD4 JUMP JUMPDEST SWAP1 POP PUSH1 0x20 DUP2 ADD SWAP1 POP SWAP2 SWAP1 POP JUMP JUMPDEST DUP3 DUP2 DUP4 CALLDATACOPY PUSH0 DUP4 DUP4 ADD MSTORE POP POP POP JUMP JUMPDEST PUSH0 PUSH2 0xFDB PUSH2 0xFD6 DUP5 PUSH2 0xF8B JUMP JUMPDEST PUSH2 0xF71 JUMP JUMPDEST SWAP1 POP DUP3 DUP2 MSTORE PUSH1 0x20 DUP2 ADD DUP5 DUP5 DUP5 ADD GT ISZERO PUSH2 0xFF7 JUMPI PUSH2 0xFF6 PUSH2 0xF0F JUMP JUMPDEST JUMPDEST PUSH2 0x1002 DUP5 DUP3 DUP6 PUSH2 0xFBB JUMP JUMPDEST POP SWAP4 SWAP3 POP POP POP JUMP JUMPDEST PUSH0 DUP3 PUSH1 0x1F DUP4 ADD SLT PUSH2 0x101E JUMPI PUSH2 0x101D PUSH2 0xF0B JUMP JUMPDEST JUMPDEST DUP2 CALLDATALOAD PUSH2 0x102E DUP5 DUP3 PUSH1 0x20 DUP7 ADD PUSH2 0xFC9 JUMP JUMPDEST SWAP2 POP POP SWAP3 SWAP2 POP POP JUMP JUMPDEST PUSH0 DUP1 PUSH0 PUSH1 0x60 DUP5 DUP7 SUB SLT ISZERO PUSH2 0x104E JUMPI PUSH2 0x104D PUSH2 0xCA9 JUMP JUMPDEST JUMPDEST PUSH0 PUSH2 0x105B DUP7 DUP3 DUP8 ADD PUSH2 0xEF7 JUMP JUMPDEST SWAP4 POP POP PUSH1 0x20 DUP5 ADD CALLDATALOAD PUSH8 0xFFFFFFFFFFFFFFFF DUP2 GT ISZERO PUSH2 0x107C JUMPI PUSH2 0x107B PUSH2 0xCAD JUMP JUMPDEST JUMPDEST PUSH2 0x1088 DUP7 DUP3 DUP8 ADD PUSH2 0x100A JUMP JUMPDEST SWAP3 POP POP PUSH1 0x40 PUSH2 0x1099 DUP7 DUP3 DUP8 ADD PUSH2 0xCC7 JUMP JUMPDEST SWAP2 POP POP SWAP3 POP SWAP3 POP SWAP3 JUMP JUMPDEST PUSH0 PUSH2 0x10AD DUP3 PUSH2 0xE3C JUMP JUMPDEST SWAP1 POP SWAP2 SWAP1 POP JUMP JUMPDEST PUSH2 0x10BD DUP2 PUSH2 0x10A3 JUMP JUMPDEST DUP2 EQ PUSH2 0x10C7 JUMPI PUSH0 DUP1 REVERT JUMPDEST POP JUMP JUMPDEST PUSH0 DUP2 CALLDATALOAD SWAP1 POP PUSH2 0x10D8 DUP2 PUSH2 0x10B4 JUMP JUMPDEST SWAP3 SWAP2 POP POP JUMP JUMPDEST PUSH0 PUSH1 0x20 DUP3 DUP5 SUB SLT ISZERO PUSH2 0x10F3 JUMPI PUSH2 0x10F2 PUSH2 0xCA9 JUMP JUMPDEST JUMPDEST PUSH0 PUSH2 0x1100 DUP5 DUP3 DUP6 ADD PUSH2 0x10CA JUMP JUMPDEST SWAP2 POP POP SWAP3 SWAP2 POP POP JUMP JUMPDEST PUSH32 0x4E487B7100000000000000000000000000000000000000000000000000000000 PUSH0 MSTORE PUSH1 0x22 PUSH1 0x4 MSTORE PUSH1 0x24 PUSH0 REVERT JUMPDEST PUSH0 PUSH1 0x2 DUP3 DIV SWAP1 POP PUSH1 0x1 DUP3 AND DUP1 PUSH2 0x114D JUMPI PUSH1 0x7F DUP3 AND SWAP2 POP JUMPDEST PUSH1 0x20 DUP3 LT DUP2 SUB PUSH2 0x1160 JUMPI PUSH2 0x115F PUSH2 0x1109 JUMP JUMPDEST JUMPDEST POP SWAP2 SWAP1 POP JUMP JUMPDEST PUSH32 0x5265656E7472616E637947756172643A207265656E7472616E742063616C6C00 PUSH0 DUP3 ADD MSTORE POP JUMP JUMPDEST PUSH0 PUSH2 0x119A PUSH1 0x1F DUP4 PUSH2 0xD9C JUMP JUMPDEST SWAP2 POP PUSH2 0x11A5 DUP3 PUSH2 0x1166 JUMP JUMPDEST PUSH1 0x20 DUP3 ADD SWAP1 POP SWAP2 SWAP1 POP JUMP JUMPDEST PUSH0 PUSH1 0x20 DUP3 ADD SWAP1 POP DUP2 DUP2 SUB PUSH0 DUP4 ADD MSTORE PUSH2 0x11C7 DUP2 PUSH2 0x118E JUMP JUMPDEST SWAP1 POP SWAP2 SWAP1 POP JUMP JUMPDEST PUSH32 0x4E6F2066756E6473000000000000000000000000000000000000000000000000 PUSH0 DUP3 ADD MSTORE POP JUMP JUMPDEST PUSH0 PUSH2 0x1202 PUSH1 0x8 DUP4 PUSH2 0xD9C JUMP JUMPDEST SWAP2 POP PUSH2 0x120D DUP3 PUSH2 0x11CE JUMP JUMPDEST PUSH1 0x20 DUP3 ADD SWAP1 POP SWAP2 SWAP1 POP JUMP JUMPDEST PUSH0 PUSH1 0x20 DUP3 ADD SWAP1 POP DUP2 DUP2 SUB PUSH0 DUP4 ADD MSTORE PUSH2 0x122F DUP2 PUSH2 0x11F6 JUMP JUMPDEST SWAP1 POP SWAP2 SWAP1 POP JUMP JUMPDEST PUSH0 DUP2 SWAP1 POP SWAP3 SWAP2 POP POP JUMP JUMPDEST POP JUMP JUMPDEST PUSH0 PUSH2 0x124E PUSH0 DUP4 PUSH2 0x1236 JUMP JUMPDEST SWAP2 POP PUSH2 0x1259 DUP3 PUSH2 0x1240 JUMP JUMPDEST PUSH0 DUP3 ADD SWAP1 POP SWAP2 SWAP1 POP JUMP JUMPDEST PUSH0 PUSH2 0x126D DUP3 PUSH2 0x1243 JUMP JUMPDEST SWAP2 POP DUP2 SWAP1 POP SWAP2 SWAP1 POP JUMP JUMPDEST PUSH32 0x5769746864726177206661696C00000000000000000000000000000000000000 PUSH0 DUP3 ADD MSTORE POP JUMP JUMPDEST PUSH0 PUSH2 0x12AB PUSH1 0xD DUP4 PUSH2 0xD9C JUMP JUMPDEST SWAP2 POP PUSH2 0x12B6 DUP3 PUSH2 0x1277 JUMP JUMPDEST PUSH1 0x20 DUP3 ADD SWAP1 POP SWAP2 SWAP1 POP JUMP JUMPDEST PUSH0 PUSH1 0x20 DUP3 ADD SWAP1 POP DUP2 DUP2 SUB PUSH0 DUP4 ADD MSTORE PUSH2 0x12D8 DUP2 PUSH2 0x129F JUMP JUMPDEST SWAP1 POP SWAP2 SWAP1 POP JUMP JUMPDEST PUSH32 0x4E6F742063726561746F72000000000000000000000000000000000000000000 PUSH0 DUP3 ADD MSTORE POP JUMP JUMPDEST PUSH0 PUSH2 0x1313 PUSH1 0xB DUP4 PUSH2 0xD9C JUMP JUMPDEST SWAP2 POP PUSH2 0x131E DUP3 PUSH2 0x12DF JUMP JUMPDEST PUSH1 0x20 DUP3 ADD SWAP1 POP SWAP2 SWAP1 POP JUMP JUMPDEST PUSH0 PUSH1 0x20 DUP3 ADD SWAP1 POP DUP2 DUP2 SUB PUSH0 DUP4 ADD MSTORE PUSH2 0x1340 DUP2 PUSH2 0x1307 JUMP JUMPDEST SWAP1 POP SWAP2 SWAP1 POP JUMP JUMPDEST PUSH32 0x4E6F74207369676E656400000000000000000000000000000000000000000000 PUSH0 DUP3 ADD MSTORE POP JUMP JUMPDEST PUSH0 PUSH2 0x137B PUSH1 0xA DUP4 PUSH2 0xD9C JUMP JUMPDEST SWAP2 POP PUSH2 0x1386 DUP3 PUSH2 0x1347 JUMP JUMPDEST PUSH1 0x20 DUP3 ADD SWAP1 POP SWAP2 SWAP1 POP JUMP JUMPDEST PUSH0 PUSH1 0x20 DUP3 ADD SWAP1 POP DUP2 DUP2 SUB PUSH0 DUP4 ADD MSTORE PUSH2 0x13A8 DUP2 PUSH2 0x136F JUMP JUMPDEST SWAP1 POP SWAP2 SWAP1 POP JUMP JUMPDEST PUSH32 0x4E487B7100000000000000000000000000000000000000000000000000000000 PUSH0 MSTORE PUSH1 0x11 PUSH1 0x4 MSTORE PUSH1 0x24 PUSH0 REVERT JUMPDEST PUSH0 PUSH2 0x13E6 DUP3 PUSH2 0xC6F JUMP JUMPDEST SWAP2 POP PUSH2 0x13F1 DUP4 PUSH2 0xC6F JUMP JUMPDEST SWAP3 POP DUP3 DUP3 ADD SWAP1 POP DUP1 DUP3 GT ISZERO PUSH2 0x1409 JUMPI PUSH2 0x1408 PUSH2 0x13AF JUMP JUMPDEST JUMPDEST SWAP3 SWAP2 POP POP JUMP JUMPDEST PUSH32 0x4E6F7420636F756E746572706172747900000000000000000000000000000000 PUSH0 DUP3 ADD MSTORE POP JUMP JUMPDEST PUSH0 PUSH2 0x1443 PUSH1 0x10 DUP4 PUSH2 0xD9C JUMP JUMPDEST SWAP2 POP PUSH2 0x144E DUP3 PUSH2 0x140F JUMP JUMPDEST PUSH1 0x20 DUP3 ADD SWAP1 POP SWAP2 SWAP1 POP JUMP JUMPDEST PUSH0 PUSH1 0x20 DUP3 ADD SWAP1 POP DUP2 DUP2 SUB PUSH0 DUP4 ADD MSTORE PUSH2 0x1470 DUP2 PUSH2 0x1437 JUMP JUMPDEST SWAP1 POP SWAP2 SWAP1 POP JUMP JUMPDEST PUSH32 0x5374617475732065727200000000000000000000000000000000000000000000 PUSH0 DUP3 ADD MSTORE POP JUMP JUMPDEST PUSH0 PUSH2 0x14AB PUSH1 0xA DUP4 PUSH2 0xD9C JUMP JUMPDEST SWAP2 POP PUSH2 0x14B6 DUP3 PUSH2 0x1477 JUMP JUMPDEST PUSH1 0x20 DUP3 ADD SWAP1 POP SWAP2 SWAP1 POP JUMP JUMPDEST PUSH0 PUSH1 0x20 DUP3 ADD SWAP1 POP DUP2 DUP2 SUB PUSH0 DUP4 ADD MSTORE PUSH2 0x14D8 DUP2 PUSH2 0x149F JUMP JUMPDEST SWAP1 POP SWAP2 SWAP1 POP JUMP JUMPDEST PUSH32 0x3020616464720000000000000000000000000000000000000000000000000000 PUSH0 DUP3 ADD MSTORE POP JUMP JUMPDEST PUSH0 PUSH2 0x1513 PUSH1 0x6 DUP4 PUSH2 0xD9C JUMP JUMPDEST SWAP2 POP PUSH2 0x151E DUP3 PUSH2 0x14DF JUMP JUMPDEST PUSH1 0x20 DUP3 ADD SWAP1 POP SWAP2 SWAP1 POP JUMP JUMPDEST PUSH0 PUSH1 0x20 DUP3 ADD SWAP1 POP DUP2 DUP2 SUB PUSH0 DUP4 ADD MSTORE PUSH2 0x1540 DUP2 PUSH2 0x1507 JUMP JUMPDEST SWAP1 POP SWAP2 SWAP1 POP JUMP JUMPDEST PUSH32 0x455448206D69736D617463680000000000000000000000000000000000000000 PUSH0 DUP3 ADD MSTORE POP JUMP JUMPDEST PUSH0 PUSH2 0x157B PUSH1 0xC DUP4 PUSH2 0xD9C JUMP JUMPDEST SWAP2 POP PUSH2 0x1586 DUP3 PUSH2 0x1547 JUMP JUMPDEST PUSH1 0x20 DUP3 ADD SWAP1 POP SWAP2 SWAP1 POP JUMP JUMPDEST PUSH0 PUSH1 0x20 DUP3 ADD SWAP1 POP DUP2 DUP2 SUB PUSH0 DUP4 ADD MSTORE PUSH2 0x15A8 DUP2 PUSH2 0x156F JUMP JUMPDEST SWAP1 POP SWAP2 SWAP1 POP JUMP JUMPDEST PUSH0 PUSH2 0x15B9 DUP3 PUSH2 0xC6F JUMP JUMPDEST SWAP2 POP PUSH32 0xFFFFFFFFFFFFFFFFFFFFFFFFFFFFFFFFFFFFFFFFFFFFFFFFFFFFFFFFFFFFFFFF DUP3 SUB PUSH2 0x15EB JUMPI PUSH2 0x15EA PUSH2 0x13AF JUMP JUMPDEST JUMPDEST PUSH1 0x1 DUP3 ADD SWAP1 POP SWAP2 SWAP1 POP JUMP JUMPDEST PUSH0 DUP2 SWAP1 POP DUP2 PUSH0 MSTORE PUSH1 0x20 PUSH0 KECCAK256 SWAP1 POP SWAP2 SWAP1 POP JUMP JUMPDEST PUSH0 PUSH1 0x20 PUSH1 0x1F DUP4 ADD DIV SWAP1 POP SWAP2 SWAP1 POP JUMP JUMPDEST PUSH0 DUP3 DUP3 SHL SWAP1 POP SWAP3 SWAP2 POP POP JUMP JUMPDEST PUSH0 PUSH1 0x8 DUP4 MUL PUSH2 0x1652 PUSH32 0xFFFFFFFFFFFFFFFFFFFFFFFFFFFFFFFFFFFFFFFFFFFFFFFFFFFFFFFFFFFFFFFF DUP3 PUSH2 0x1617 JUMP JUMPDEST PUSH2 0x165C DUP7 DUP4 PUSH2 0x1617 JUMP JUMPDEST SWAP6 POP DUP1 NOT DUP5 AND SWAP4 POP DUP1 DUP7 AND DUP5 OR SWAP3 POP POP POP SWAP4 SWAP3 POP POP POP JUMP JUMPDEST PUSH0 DUP2 SWAP1 POP SWAP2 SWAP1 POP JUMP JUMPDEST PUSH0 PUSH2 0x1697 PUSH2 0x1692 PUSH2 0x168D DUP5 PUSH2 0xC6F JUMP JUMPDEST PUSH2 0x1674 JUMP JUMPDEST PUSH2 0xC6F JUMP JUMPDEST SWAP1 POP SWAP2 SWAP1 POP JUMP JUMPDEST PUSH0 DUP2 SWAP1 POP SWAP2 SWAP1 POP JUMP JUMPDEST PUSH2 0x16B0 DUP4 PUSH2 0x167D JUMP JUMPDEST PUSH2 0x16C4 PUSH2 0x16BC DUP3 PUSH2 0x169E JUMP JUMPDEST DUP5 DUP5 SLOAD PUSH2 0x1623 JUMP JUMPDEST DUP3 SSTORE POP POP POP POP JUMP JUMPDEST PUSH0 SWAP1 JUMP JUMPDEST PUSH2 0x16D8 PUSH2 0x16CC JUMP JUMPDEST PUSH2 0x16E3 DUP2 DUP5 DUP5 PUSH2 0x16A7 JUMP JUMPDEST POP POP POP JUMP JUMPDEST JUMPDEST DUP2 DUP2 LT ISZERO PUSH2 0x1706 JUMPI PUSH2 0x16FB PUSH0 DUP3 PUSH2 0x16D0 JUMP JUMPDEST PUSH1 0x1 DUP2 ADD SWAP1 POP PUSH2 0x16E9 JUMP JUMPDEST POP POP JUMP JUMPDEST PUSH1 0x1F DUP3 GT ISZERO PUSH2 0x174B JUMPI PUSH2 0x171C DUP2 PUSH2 0x15F6 JUMP JUMPDEST PUSH2 0x1725 DUP5 PUSH2 0x1608 JUMP JUMPDEST DUP2 ADD PUSH1 0x20 DUP6 LT ISZERO PUSH2 0x1734 JUMPI DUP2 SWAP1 POP JUMPDEST PUSH2 0x1748 PUSH2 0x1740 DUP6 PUSH2 0x1608 JUMP JUMPDEST DUP4 ADD DUP3 PUSH2 0x16E8 JUMP JUMPDEST POP POP JUMPDEST POP POP POP JUMP JUMPDEST PUSH0 DUP3 DUP3 SHR SWAP1 POP SWAP3 SWAP2 POP POP JUMP JUMPDEST PUSH0 PUSH2 0x176B PUSH0 NOT DUP5 PUSH1 0x8 MUL PUSH2 0x1750 JUMP JUMPDEST NOT DUP1 DUP4 AND SWAP2 POP POP SWAP3 SWAP2 POP POP JUMP JUMPDEST PUSH0 PUSH2 0x1783 DUP4 DUP4 PUSH2 0x175C JUMP JUMPDEST SWAP2 POP DUP3 PUSH1 0x2 MUL DUP3 OR SWAP1 POP SWAP3 SWAP2 POP POP JUMP JUMPDEST PUSH2 0x179C DUP3 PUSH2 0xD92 JUMP JUMPDEST PUSH8 0xFFFFFFFFFFFFFFFF DUP2 GT ISZERO PUSH2 0x17B5 JUMPI PUSH2 0x17B4 PUSH2 0xF13 JUMP JUMPDEST JUMPDEST PUSH2 0x17BF DUP3 SLOAD PUSH2 0x1136 JUMP JUMPDEST PUSH2 0x17CA DUP3 DUP3 DUP6 PUSH2 0x170A JUMP JUMPDEST PUSH0 PUSH1 0x20 SWAP1 POP PUSH1 0x1F DUP4 GT PUSH1 0x1 DUP2 EQ PUSH2 0x17FB JUMPI PUSH0 DUP5 ISZERO PUSH2 0x17E9 JUMPI DUP3 DUP8 ADD MLOAD SWAP1 POP JUMPDEST PUSH2 0x17F3 DUP6 DUP3 PUSH2 0x1778 JUMP JUMPDEST DUP7 SSTORE POP PUSH2 0x185A JUMP JUMPDEST PUSH1 0x1F NOT DUP5 AND PUSH2 0x1809 DUP7 PUSH2 0x15F6 JUMP JUMPDEST PUSH0 JUMPDEST DUP3 DUP2 LT ISZERO PUSH2 0x1830 JUMPI DUP5 DUP10 ADD MLOAD DUP3 SSTORE PUSH1 0x1 DUP3 ADD SWAP2 POP PUSH1 0x20 DUP6 ADD SWAP5 POP PUSH1 0x20 DUP2 ADD SWAP1 POP PUSH2 0x180B JUMP JUMPDEST DUP7 DUP4 LT ISZERO PUSH2 0x184D JUMPI DUP5 DUP10 ADD MLOAD PUSH2 0x1849 PUSH1 0x1F DUP10 AND DUP3 PUSH2 0x175C JUMP JUMPDEST DUP4 SSTORE POP JUMPDEST PUSH1 0x1 PUSH1 0x2 DUP9 MUL ADD DUP9 SSTORE POP POP POP JUMPDEST POP POP POP POP POP POP JUMP JUMPDEST PUSH2 0x186B DUP2 PUSH2 0x10A3 JUMP JUMPDEST DUP3 MSTORE POP POP JUMP JUMPDEST PUSH0 PUSH2 0x188B PUSH2 0x1886 PUSH2 0x1881 DUP5 PUSH2 0xE3C JUMP JUMPDEST PUSH2 0x1674 JUMP JUMPDEST PUSH2 0xE3C JUMP JUMPDEST SWAP1 POP SWAP2 SWAP1 POP JUMP JUMPDEST PUSH0 PUSH2 0x189C DUP3 PUSH2 0x1871 JUMP JUMPDEST SWAP1 POP SWAP2 SWAP1 POP JUMP JUMPDEST PUSH0 PUSH2 0x18AD DUP3 PUSH2 0x1892 JUMP JUMPDEST SWAP1 POP SWAP2 SWAP1 POP JUMP JUMPDEST PUSH2 0x18BD DUP2 PUSH2 0x18A3 JUMP JUMPDEST DUP3 MSTORE POP POP JUMP JUMPDEST PUSH0 PUSH1 0x40 DUP3 ADD SWAP1 POP PUSH2 0x18D6 PUSH0 DUP4 ADD DUP6 PUSH2 0x1862 JUMP JUMPDEST PUSH2 0x18E3 PUSH1 0x20 DUP4 ADD DUP5 PUSH2 0x18B4 JUMP JUMPDEST SWAP4 SWAP3 POP POP POP JUMP INVALID LOG2 PUSH5 0x6970667358 0x22 SLT KECCAK256 0xC2 SELFDESTRUCT 0x27 0xAB DUP7 0xE4 0xD0 EXTCODEHASH XOR NOT 0x25 0xA7 0x2A 0xE8 0xB4 COINBASE SWAP11 0x26 PUSH9 0xCCF0C3FB764B7748 LOG4 SIGNEXTEND DUP9 SUB PUSH5 0x736F6C6343 STOP ADDMOD ISZERO STOP CALLER "
				},
				"gasEstimates": {
					"creation": {
						"codeDepositCost": "1286400",
						"executionCost": "23446",
						"totalCost": "1309846"
					},
					"external": {
						"confirmCompletion(uint256)": "infinite",
						"contractCounter()": "2426",
						"contracts(uint256)": "infinite",
						"createContract(address,string,uint256)": "infinite",
						"getContractIPFSHash(uint256)": "infinite",
						"getContractStatus(uint256)": "2978",
						"pendingWithdrawals(address)": "2890",
						"signContract(uint256)": "30553",
						"withdrawFunds()": "infinite"
					}
				},
				"methodIdentifiers": {
					"confirmCompletion(uint256)": "94aeb613",
					"contractCounter()": "067bd3b4",
					"contracts(uint256)": "474da79a",
					"createContract(address,string,uint256)": "9ce5b6ca",
					"getContractIPFSHash(uint256)": "1ed4af8c",
					"getContractStatus(uint256)": "17b18458",
					"pendingWithdrawals(address)": "f3f43703",
					"signContract(uint256)": "9537e8d1",
					"withdrawFunds()": "24600fc3"
				}
			},
			"storageLayout": {
				"storage": [
					{
						"astId": 10,
						"contract": "digital_contract.sol:DigitalContractPlatform",
						"label": "_status",
						"offset": 0,
						"slot": "0",
						"type": "t_uint256"
					},
					{
						"astId": 64,
						"contract": "digital_contract.sol:DigitalContractPlatform",
						"label": "contracts",
						"offset": 0,
						"slot": "1",
						"type": "t_mapping(t_uint256,t_struct(Contract)59_storage)"
					},
					{
						"astId": 66,
						"contract": "digital_contract.sol:DigitalContractPlatform",
						"label": "contractCounter",
						"offset": 0,
						"slot": "2",
						"type": "t_uint256"
					},
					{
						"astId": 70,
						"contract": "digital_contract.sol:DigitalContractPlatform",
						"label": "pendingWithdrawals",
						"offset": 0,
						"slot": "3",
						"type": "t_mapping(t_address,t_uint256)"
					}
				],
				"types": {
					"t_address": {
						"encoding": "inplace",
						"label": "address",
						"numberOfBytes": "20"
					},
					"t_address_payable": {
						"encoding": "inplace",
						"label": "address payable",
						"numberOfBytes": "20"
					},
					"t_enum(ContractStatus)45": {
						"encoding": "inplace",
						"label": "enum DigitalContractPlatform.ContractStatus",
						"numberOfBytes": "1"
					},
					"t_mapping(t_address,t_uint256)": {
						"encoding": "mapping",
						"key": "t_address",
						"label": "mapping(address => uint256)",
						"numberOfBytes": "32",
						"value": "t_uint256"
					},
					"t_mapping(t_uint256,t_struct(Contract)59_storage)": {
						"encoding": "mapping",
						"key": "t_uint256",
						"label": "mapping(uint256 => struct DigitalContractPlatform.Contract)",
						"numberOfBytes": "32",
						"value": "t_struct(Contract)59_storage"
					},
					"t_string_storage": {
						"encoding": "bytes",
						"label": "string",
						"numberOfBytes": "32"
					},
					"t_struct(Contract)59_storage": {
						"encoding": "inplace",
						"label": "struct DigitalContractPlatform.Contract",
						"members": [
							{
								"astId": 47,
								"contract": "digital_contract.sol:DigitalContractPlatform",
								"label": "id",
								"offset": 0,
								"slot": "0",
								"type": "t_uint256"
							},
							{
								"astId": 49,
								"contract": "digital_contract.sol:DigitalContractPlatform",
								"label": "amount",
								"offset": 0,
								"slot": "1",
								"type": "t_uint256"
							},
							{
								"astId": 51,
								"contract": "digital_contract.sol:DigitalContractPlatform",
								"label": "creator",
								"offset": 0,
								"slot": "2",
								"type": "t_address_payable"
							},
							{
								"astId": 53,
								"contract": "digital_contract.sol:DigitalContractPlatform",
								"label": "counterparty",
								"offset": 0,
								"slot": "3",
								"type": "t_address_payable"
							},
							{
								"astId": 56,
								"contract": "digital_contract.sol:DigitalContractPlatform",
								"label": "status",
								"offset": 20,
								"slot": "3",
								"type": "t_enum(ContractStatus)45"
							},
							{
								"astId": 58,
								"contract": "digital_contract.sol:DigitalContractPlatform",
								"label": "contractIPFSHash",
								"offset": 0,
								"slot": "4",
								"type": "t_string_storage"
							}
						],
						"numberOfBytes": "160"
					},
					"t_uint256": {
						"encoding": "inplace",
						"label": "uint256",
						"numberOfBytes": "32"
					}
				}
			},
			"userdoc": {
				"kind": "user",
				"methods": {
					"confirmCompletion(uint256)": {
						"notice": "Der Ersteller bestätigt die Vertragserfüllung. Der Betrag wird nicht sofort überwiesen, sondern für eine spätere Abhebung durch die Gegenpartei verbucht."
					},
					"createContract(address,string,uint256)": {
						"notice": "Erstelle einen neuen Vertrag. Der Ersteller muss den exakten Betrag senden."
					},
					"getContractIPFSHash(uint256)": {
						"notice": "Gibt den IPFS-Hash eines Vertrags zurück."
					},
					"getContractStatus(uint256)": {
						"notice": "Gibt den aktuellen Status eines Vertrags zurück."
					},
					"signContract(uint256)": {
						"notice": "Die vorgesehene Gegenpartei unterzeichnet den Vertrag."
					},
					"withdrawFunds()": {
						"notice": "Ermöglicht es Nutzern, ihnen zustehende Gelder abzuheben."
					}
				},
				"version": 1
			}
		}
	}
}