{
	"digital_contract.sol": {
		"ContractManager": {
			"abi": [
				{
					"anonymous": false,
					"inputs": [
						{
							"indexed": true,
							"internalType": "uint256",
							"name": "contractId",
							"type": "uint256"
						},
						{
							"indexed": false,
							"internalType": "address",
							"name": "creator",
							"type": "address"
						},
						{
							"indexed": false,
							"internalType": "address",
							"name": "counterparty",
							"type": "address"
						}
					],
					"name": "ContractCreated",
					"type": "event"
				},
				{
					"anonymous": false,
					"inputs": [
						{
							"indexed": true,
							"internalType": "uint256",
							"name": "contractId",
							"type": "uint256"
						}
					],
					"name": "ContractDeactivated",
					"type": "event"
				},
				{
					"anonymous": false,
					"inputs": [
						{
							"indexed": true,
							"internalType": "uint256",
							"name": "contractId",
							"type": "uint256"
						}
					],
					"name": "ContractSigned",
					"type": "event"
				},
				{
					"anonymous": false,
					"inputs": [
						{
							"indexed": true,
							"internalType": "uint256",
							"name": "contractId",
							"type": "uint256"
						}
					],
					"name": "DeliveryApproved",
					"type": "event"
				},
				{
					"anonymous": false,
					"inputs": [
						{
							"indexed": true,
							"internalType": "uint256",
							"name": "contractId",
							"type": "uint256"
						}
					],
					"name": "DeliveryConfirmed",
					"type": "event"
				},
				{
					"anonymous": false,
					"inputs": [
						{
							"indexed": true,
							"internalType": "uint256",
							"name": "contractId",
							"type": "uint256"
						},
						{
							"indexed": true,
							"internalType": "address",
							"name": "account",
							"type": "address"
						},
						{
							"indexed": false,
							"internalType": "uint256",
							"name": "amount",
							"type": "uint256"
						}
					],
					"name": "FundsWithdrawn",
					"type": "event"
				},
				{
					"anonymous": false,
					"inputs": [
						{
							"indexed": true,
							"internalType": "address",
							"name": "oracle",
							"type": "address"
						}
					],
					"name": "OracleSet",
					"type": "event"
				},
				{
					"anonymous": false,
					"inputs": [
						{
							"indexed": true,
							"internalType": "uint256",
							"name": "contractId",
							"type": "uint256"
						},
						{
							"indexed": true,
							"internalType": "address",
							"name": "to",
							"type": "address"
						},
						{
							"indexed": false,
							"internalType": "uint256",
							"name": "amount",
							"type": "uint256"
						}
					],
					"name": "PaymentReleased",
					"type": "event"
				},
				{
					"anonymous": false,
					"inputs": [
						{
							"indexed": true,
							"internalType": "uint256",
							"name": "contractId",
							"type": "uint256"
						},
						{
							"indexed": false,
							"internalType": "bytes32",
							"name": "trackingHash",
							"type": "bytes32"
						}
					],
					"name": "TrackingHashSet",
					"type": "event"
				},
				{
					"inputs": [
						{
							"internalType": "uint256",
							"name": "_contractId",
							"type": "uint256"
						}
					],
					"name": "approveDeliveryAsCreator",
					"outputs": [],
					"stateMutability": "nonpayable",
					"type": "function"
				},
				{
					"inputs": [
						{
							"internalType": "uint256",
							"name": "_contractId",
							"type": "uint256"
						}
					],
					"name": "confirmCompletion",
					"outputs": [],
					"stateMutability": "nonpayable",
					"type": "function"
				},
				{
					"inputs": [
						{
							"internalType": "uint256",
							"name": "_contractId",
							"type": "uint256"
						},
						{
							"internalType": "string",
							"name": "_trackingNumber",
							"type": "string"
						}
					],
					"name": "confirmDeliveryByOracle",
					"outputs": [],
					"stateMutability": "nonpayable",
					"type": "function"
				},
				{
					"inputs": [],
					"name": "contractCounter",
					"outputs": [
						{
							"internalType": "uint256",
							"name": "",
							"type": "uint256"
						}
					],
					"stateMutability": "view",
					"type": "function"
				},
				{
					"inputs": [
						{
							"internalType": "uint256",
							"name": "",
							"type": "uint256"
						}
					],
					"name": "contracts",
					"outputs": [
						{
							"internalType": "uint256",
							"name": "id",
							"type": "uint256"
						},
						{
							"internalType": "uint256",
							"name": "amount",
							"type": "uint256"
						},
						{
							"internalType": "address payable",
							"name": "creator",
							"type": "address"
						},
						{
							"internalType": "address payable",
							"name": "counterparty",
							"type": "address"
						},
						{
							"internalType": "enum ContractManager.ContractStatus",
							"name": "status",
							"type": "uint8"
						},
						{
							"internalType": "string",
							"name": "contractHash",
							"type": "string"
						},
						{
							"internalType": "bytes32",
							"name": "deliveryTrackingHash",
							"type": "bytes32"
						},
						{
							"internalType": "bool",
							"name": "deliveryRequired",
							"type": "bool"
						}
					],
					"stateMutability": "view",
					"type": "function"
				},
				{
					"inputs": [
						{
							"internalType": "address payable",
							"name": "_counterparty",
							"type": "address"
						},
						{
							"internalType": "string",
							"name": "_contractHash",
							"type": "string"
						},
						{
							"internalType": "uint256",
							"name": "_amount",
							"type": "uint256"
						}
					],
					"name": "createContract",
					"outputs": [],
					"stateMutability": "payable",
					"type": "function"
				},
				{
					"inputs": [
						{
							"internalType": "uint256",
							"name": "_contractId",
							"type": "uint256"
						}
					],
					"name": "deactivateContract",
					"outputs": [],
					"stateMutability": "nonpayable",
					"type": "function"
				},
				{
					"inputs": [
						{
							"internalType": "uint256",
							"name": "_contractId",
							"type": "uint256"
						}
					],
					"name": "getContractHash",
					"outputs": [
						{
							"internalType": "string",
							"name": "",
							"type": "string"
						}
					],
					"stateMutability": "view",
					"type": "function"
				},
				{
					"inputs": [
						{
							"internalType": "uint256",
							"name": "_contractId",
							"type": "uint256"
						}
					],
					"name": "getContractStatus",
					"outputs": [
						{
							"internalType": "enum ContractManager.ContractStatus",
							"name": "",
							"type": "uint8"
						}
					],
					"stateMutability": "view",
					"type": "function"
				},
				{
					"inputs": [],
					"name": "oracle",
					"outputs": [
						{
							"internalType": "address",
							"name": "",
							"type": "address"
						}
					],
					"stateMutability": "view",
					"type": "function"
				},
				{
					"inputs": [],
					"name": "oracleSet",
					"outputs": [
						{
							"internalType": "bool",
							"name": "",
							"type": "bool"
						}
					],
					"stateMutability": "view",
					"type": "function"
				},
				{
					"inputs": [
						{
							"internalType": "address",
							"name": "",
							"type": "address"
						}
					],
					"name": "pendingWithdrawals",
					"outputs": [
						{
							"internalType": "uint256",
							"name": "",
							"type": "uint256"
						}
					],
					"stateMutability": "view",
					"type": "function"
				},
				{
					"inputs": [
						{
							"internalType": "uint256",
							"name": "_contractId",
							"type": "uint256"
						},
						{
							"internalType": "string",
							"name": "_trackingNumber",
							"type": "string"
						}
					],
					"name": "setDeliveryTracking",
					"outputs": [],
					"stateMutability": "nonpayable",
					"type": "function"
				},
				{
					"inputs": [
						{
							"internalType": "address",
							"name": "_oracle",
							"type": "address"
						}
					],
					"name": "setOracle",
					"outputs": [],
					"stateMutability": "nonpayable",
					"type": "function"
				},
				{
					"inputs": [
						{
							"internalType": "uint256",
							"name": "_contractId",
							"type": "uint256"
						}
					],
					"name": "signContract",
					"outputs": [],
					"stateMutability": "nonpayable",
					"type": "function"
				},
				{
					"inputs": [
						{
							"internalType": "uint256",
							"name": "_contractId",
							"type": "uint256"
						}
					],
					"name": "withdrawFundsFrom",
					"outputs": [],
					"stateMutability": "nonpayable",
					"type": "function"
				}
			],
			"devdoc": {
				"kind": "dev",
				"methods": {},
				"version": 1
			},
			"evm": {
				"assembly": "    /* \"digital_contract.sol\":126:7152  contract ContractManager is ReentrancyGuard {... */\n  mstore(0x40, 0x80)\n  callvalue\n  dup1\n  iszero\n  tag_1\n  jumpi\n  revert(0x00, 0x00)\ntag_1:\n  pop\n    /* \"@openzeppelin/contracts/security/ReentrancyGuard.sol\":1716:1717  1 */\n  0x01\n    /* \"@openzeppelin/contracts/security/ReentrancyGuard.sol\":1821:1828  _status */\n  0x00\n    /* \"@openzeppelin/contracts/security/ReentrancyGuard.sol\":1821:1843  _status = _NOT_ENTERED */\n  dup2\n  swap1\n  sstore\n  pop\n    /* \"digital_contract.sol\":126:7152  contract ContractManager is ReentrancyGuard {... */\n  dataSize(sub_0)\n  dup1\n  dataOffset(sub_0)\n  0x00\n  codecopy\n  0x00\n  return\nstop\n\nsub_0: assembly {\n        /* \"digital_contract.sol\":126:7152  contract ContractManager is ReentrancyGuard {... */\n      mstore(0x40, 0x80)\n      jumpi(tag_1, lt(calldatasize, 0x04))\n      shr(0xe0, calldataload(0x00))\n      dup1\n      0x7dc0d1d0\n      gt\n      tag_18\n      jumpi\n      dup1\n      0xc43bf3c2\n      gt\n      tag_19\n      jumpi\n      dup1\n      0xc43bf3c2\n      eq\n      tag_14\n      jumpi\n      dup1\n      0xdf5c2980\n      eq\n      tag_15\n      jumpi\n      dup1\n      0xedb3b27a\n      eq\n      tag_16\n      jumpi\n      dup1\n      0xf3f43703\n      eq\n      tag_17\n      jumpi\n      jump(tag_1)\n    tag_19:\n      dup1\n      0x7dc0d1d0\n      eq\n      tag_10\n      jumpi\n      dup1\n      0x94aeb613\n      eq\n      tag_11\n      jumpi\n      dup1\n      0x9537e8d1\n      eq\n      tag_12\n      jumpi\n      dup1\n      0x9ce5b6ca\n      eq\n      tag_13\n      jumpi\n      jump(tag_1)\n    tag_18:\n      dup1\n      0x22a45cd0\n      gt\n      tag_20\n      jumpi\n      dup1\n      0x22a45cd0\n      eq\n      tag_6\n      jumpi\n      dup1\n      0x474da79a\n      eq\n      tag_7\n      jumpi\n      dup1\n      0x54b7b6d3\n      eq\n      tag_8\n      jumpi\n      dup1\n      0x7adbf973\n      eq\n      tag_9\n      jumpi\n      jump(tag_1)\n    tag_20:\n      dup1\n      0x032ca42d\n      eq\n      tag_2\n      jumpi\n      dup1\n      0x067bd3b4\n      eq\n      tag_3\n      jumpi\n      dup1\n      0x0e9f0816\n      eq\n      tag_4\n      jumpi\n      dup1\n      0x17b18458\n      eq\n      tag_5\n      jumpi\n    tag_1:\n      revert(0x00, 0x00)\n        /* \"digital_contract.sol\":4627:5148  function approveDeliveryAsCreator(uint256 _contractId) public onlyCreator(_contractId) {... */\n    tag_2:\n      callvalue\n      dup1\n      iszero\n      tag_21\n      jumpi\n      revert(0x00, 0x00)\n    tag_21:\n      pop\n      tag_22\n      0x04\n      dup1\n      calldatasize\n      sub\n      dup2\n      add\n      swap1\n      tag_23\n      swap2\n      swap1\n      tag_24\n      jump\t// in\n    tag_23:\n      tag_25\n      jump\t// in\n    tag_22:\n      stop\n        /* \"digital_contract.sol\":801:831  uint256 public contractCounter */\n    tag_3:\n      callvalue\n      dup1\n      iszero\n      tag_26\n      jumpi\n      revert(0x00, 0x00)\n    tag_26:\n      pop\n      tag_27\n      tag_28\n      jump\t// in\n    tag_27:\n      mload(0x40)\n      tag_29\n      swap2\n      swap1\n      tag_30\n      jump\t// in\n    tag_29:\n      mload(0x40)\n      dup1\n      swap2\n      sub\n      swap1\n      return\n        /* \"digital_contract.sol\":7006:7149  function getContractHash(uint256 _contractId) public view returns (string memory) {... */\n    tag_4:\n      callvalue\n      dup1\n      iszero\n      tag_31\n      jumpi\n      revert(0x00, 0x00)\n    tag_31:\n      pop\n      tag_32\n      0x04\n      dup1\n      calldatasize\n      sub\n      dup2\n      add\n      swap1\n      tag_33\n      swap2\n      swap1\n      tag_24\n      jump\t// in\n    tag_33:\n      tag_34\n      jump\t// in\n    tag_32:\n      mload(0x40)\n      tag_35\n      swap2\n      swap1\n      tag_36\n      jump\t// in\n    tag_35:\n      mload(0x40)\n      dup1\n      swap2\n      sub\n      swap1\n      return\n        /* \"digital_contract.sol\":6858:6998  function getContractStatus(uint256 _contractId) public view returns (ContractStatus) {... */\n    tag_5:\n      callvalue\n      dup1\n      iszero\n      tag_37\n      jumpi\n      revert(0x00, 0x00)\n    tag_37:\n      pop\n      tag_38\n      0x04\n      dup1\n      calldatasize\n      sub\n      dup2\n      add\n      swap1\n      tag_39\n      swap2\n      swap1\n      tag_24\n      jump\t// in\n    tag_39:\n      tag_40\n      jump\t// in\n    tag_38:\n      mload(0x40)\n      tag_41\n      swap2\n      swap1\n      tag_42\n      jump\t// in\n    tag_41:\n      mload(0x40)\n      dup1\n      swap2\n      sub\n      swap1\n      return\n        /* \"digital_contract.sol\":6417:6850  function deactivateContract(uint256 _contractId) public onlyCreator(_contractId) {... */\n    tag_6:\n      callvalue\n      dup1\n      iszero\n      tag_43\n      jumpi\n      revert(0x00, 0x00)\n    tag_43:\n      pop\n      tag_44\n      0x04\n      dup1\n      calldatasize\n      sub\n      dup2\n      add\n      swap1\n      tag_45\n      swap2\n      swap1\n      tag_24\n      jump\t// in\n    tag_45:\n      tag_46\n      jump\t// in\n    tag_44:\n      stop\n        /* \"digital_contract.sol\":742:794  mapping(uint256 => ManagedContract) public contracts */\n    tag_7:\n      callvalue\n      dup1\n      iszero\n      tag_47\n      jumpi\n      revert(0x00, 0x00)\n    tag_47:\n      pop\n      tag_48\n      0x04\n      dup1\n      calldatasize\n      sub\n      dup2\n      add\n      swap1\n      tag_49\n      swap2\n      swap1\n      tag_24\n      jump\t// in\n    tag_49:\n      tag_50\n      jump\t// in\n    tag_48:\n      mload(0x40)\n      tag_51\n      swap9\n      swap8\n      swap7\n      swap6\n      swap5\n      swap4\n      swap3\n      swap2\n      swap1\n      tag_52\n      jump\t// in\n    tag_51:\n      mload(0x40)\n      dup1\n      swap2\n      sub\n      swap1\n      return\n        /* \"digital_contract.sol\":3397:4004  function setDeliveryTracking(uint256 _contractId, string memory _trackingNumber) public onlyCounterparty(_contractId) {... */\n    tag_8:\n      callvalue\n      dup1\n      iszero\n      tag_53\n      jumpi\n      revert(0x00, 0x00)\n    tag_53:\n      pop\n      tag_54\n      0x04\n      dup1\n      calldatasize\n      sub\n      dup2\n      add\n      swap1\n      tag_55\n      swap2\n      swap1\n      tag_56\n      jump\t// in\n    tag_55:\n      tag_57\n      jump\t// in\n    tag_54:\n      stop\n        /* \"digital_contract.sol\":1958:2210  function setOracle(address _oracle) public {... */\n    tag_9:\n      callvalue\n      dup1\n      iszero\n      tag_58\n      jumpi\n      revert(0x00, 0x00)\n    tag_58:\n      pop\n      tag_59\n      0x04\n      dup1\n      calldatasize\n      sub\n      dup2\n      add\n      swap1\n      tag_60\n      swap2\n      swap1\n      tag_61\n      jump\t// in\n    tag_60:\n      tag_62\n      jump\t// in\n    tag_59:\n      stop\n        /* \"digital_contract.sol\":684:705  address public oracle */\n    tag_10:\n      callvalue\n      dup1\n      iszero\n      tag_63\n      jumpi\n      revert(0x00, 0x00)\n    tag_63:\n      pop\n      tag_64\n      tag_65\n      jump\t// in\n    tag_64:\n      mload(0x40)\n      tag_66\n      swap2\n      swap1\n      tag_67\n      jump\t// in\n    tag_66:\n      mload(0x40)\n      dup1\n      swap2\n      sub\n      swap1\n      return\n        /* \"digital_contract.sol\":5156:5687  function confirmCompletion(uint256 _contractId) public onlyCreator(_contractId) {... */\n    tag_11:\n      callvalue\n      dup1\n      iszero\n      tag_68\n      jumpi\n      revert(0x00, 0x00)\n    tag_68:\n      pop\n      tag_69\n      0x04\n      dup1\n      calldatasize\n      sub\n      dup2\n      add\n      swap1\n      tag_70\n      swap2\n      swap1\n      tag_24\n      jump\t// in\n    tag_70:\n      tag_71\n      jump\t// in\n    tag_69:\n      stop\n        /* \"digital_contract.sol\":3059:3389  function signContract(uint256 _contractId) public onlyCounterparty(_contractId) {... */\n    tag_12:\n      callvalue\n      dup1\n      iszero\n      tag_72\n      jumpi\n      revert(0x00, 0x00)\n    tag_72:\n      pop\n      tag_73\n      0x04\n      dup1\n      calldatasize\n      sub\n      dup2\n      add\n      swap1\n      tag_74\n      swap2\n      swap1\n      tag_24\n      jump\t// in\n    tag_74:\n      tag_75\n      jump\t// in\n    tag_73:\n      stop\n        /* \"digital_contract.sol\":2218:3051  function createContract(... */\n    tag_13:\n      tag_76\n      0x04\n      dup1\n      calldatasize\n      sub\n      dup2\n      add\n      swap1\n      tag_77\n      swap2\n      swap1\n      tag_78\n      jump\t// in\n    tag_77:\n      tag_79\n      jump\t// in\n    tag_76:\n      stop\n        /* \"digital_contract.sol\":4012:4619  function confirmDeliveryByOracle(uint256 _contractId, string memory _trackingNumber) public nonReentrant onlyOracle {... */\n    tag_14:\n      callvalue\n      dup1\n      iszero\n      tag_80\n      jumpi\n      revert(0x00, 0x00)\n    tag_80:\n      pop\n      tag_81\n      0x04\n      dup1\n      calldatasize\n      sub\n      dup2\n      add\n      swap1\n      tag_82\n      swap2\n      swap1\n      tag_56\n      jump\t// in\n    tag_82:\n      tag_83\n      jump\t// in\n    tag_81:\n      stop\n        /* \"digital_contract.sol\":5695:6409  function withdrawFundsFrom(uint256 _contractId) public nonReentrant onlyCounterparty(_contractId) {... */\n    tag_15:\n      callvalue\n      dup1\n      iszero\n      tag_84\n      jumpi\n      revert(0x00, 0x00)\n    tag_84:\n      pop\n      tag_85\n      0x04\n      dup1\n      calldatasize\n      sub\n      dup2\n      add\n      swap1\n      tag_86\n      swap2\n      swap1\n      tag_24\n      jump\t// in\n    tag_86:\n      tag_87\n      jump\t// in\n    tag_85:\n      stop\n        /* \"digital_contract.sol\":712:733  bool public oracleSet */\n    tag_16:\n      callvalue\n      dup1\n      iszero\n      tag_88\n      jumpi\n      revert(0x00, 0x00)\n    tag_88:\n      pop\n      tag_89\n      tag_90\n      jump\t// in\n    tag_89:\n      mload(0x40)\n      tag_91\n      swap2\n      swap1\n      tag_92\n      jump\t// in\n    tag_91:\n      mload(0x40)\n      dup1\n      swap2\n      sub\n      swap1\n      return\n        /* \"digital_contract.sol\":840:893  mapping(address => uint256) public pendingWithdrawals */\n    tag_17:\n      callvalue\n      dup1\n      iszero\n      tag_93\n      jumpi\n      revert(0x00, 0x00)\n    tag_93:\n      pop\n      tag_94\n      0x04\n      dup1\n      calldatasize\n      sub\n      dup2\n      add\n      swap1\n      tag_95\n      swap2\n      swap1\n      tag_61\n      jump\t// in\n    tag_95:\n      tag_96\n      jump\t// in\n    tag_94:\n      mload(0x40)\n      tag_97\n      swap2\n      swap1\n      tag_30\n      jump\t// in\n    tag_97:\n      mload(0x40)\n      dup1\n      swap2\n      sub\n      swap1\n      return\n        /* \"digital_contract.sol\":4627:5148  function approveDeliveryAsCreator(uint256 _contractId) public onlyCreator(_contractId) {... */\n    tag_25:\n        /* \"digital_contract.sol\":4701:4712  _contractId */\n      dup1\n        /* \"digital_contract.sol\":1616:1625  contracts */\n      0x02\n        /* \"digital_contract.sol\":1616:1638  contracts[_contractId] */\n      0x00\n        /* \"digital_contract.sol\":1626:1637  _contractId */\n      dup3\n        /* \"digital_contract.sol\":1616:1638  contracts[_contractId] */\n      dup2\n      mstore\n      0x20\n      add\n      swap1\n      dup2\n      mstore\n      0x20\n      add\n      0x00\n      keccak256\n        /* \"digital_contract.sol\":1616:1646  contracts[_contractId].creator */\n      0x02\n      add\n      0x00\n      swap1\n      sload\n      swap1\n      0x0100\n      exp\n      swap1\n      div\n      0xffffffffffffffffffffffffffffffffffffffff\n      and\n        /* \"digital_contract.sol\":1602:1646  msg.sender == contracts[_contractId].creator */\n      0xffffffffffffffffffffffffffffffffffffffff\n      and\n        /* \"digital_contract.sol\":1602:1612  msg.sender */\n      caller\n        /* \"digital_contract.sol\":1602:1646  msg.sender == contracts[_contractId].creator */\n      0xffffffffffffffffffffffffffffffffffffffff\n      and\n      eq\n        /* \"digital_contract.sol\":1594:1662  require(msg.sender == contracts[_contractId].creator, \"Not creator\") */\n      tag_99\n      jumpi\n      mload(0x40)\n      0x08c379a000000000000000000000000000000000000000000000000000000000\n      dup2\n      mstore\n      0x04\n      add\n      tag_100\n      swap1\n      tag_101\n      jump\t// in\n    tag_100:\n      mload(0x40)\n      dup1\n      swap2\n      sub\n      swap1\n      revert\n    tag_99:\n        /* \"digital_contract.sol\":4725:4758  ManagedContract storage mContract */\n      0x00\n        /* \"digital_contract.sol\":4761:4770  contracts */\n      0x02\n        /* \"digital_contract.sol\":4761:4783  contracts[_contractId] */\n      0x00\n        /* \"digital_contract.sol\":4771:4782  _contractId */\n      dup5\n        /* \"digital_contract.sol\":4761:4783  contracts[_contractId] */\n      dup2\n      mstore\n      0x20\n      add\n      swap1\n      dup2\n      mstore\n      0x20\n      add\n      0x00\n      keccak256\n        /* \"digital_contract.sol\":4725:4783  ManagedContract storage mContract = contracts[_contractId] */\n      swap1\n      pop\n        /* \"digital_contract.sol\":4822:4854  ContractStatus.DeliveryConfirmed */\n      0x03\n        /* \"digital_contract.sol\":4802:4854  mContract.status == ContractStatus.DeliveryConfirmed */\n      0x07\n      dup2\n      gt\n      iszero\n      tag_103\n      jumpi\n      tag_104\n      tag_105\n      jump\t// in\n    tag_104:\n    tag_103:\n        /* \"digital_contract.sol\":4802:4811  mContract */\n      dup2\n        /* \"digital_contract.sol\":4802:4818  mContract.status */\n      0x03\n      add\n      0x14\n      swap1\n      sload\n      swap1\n      0x0100\n      exp\n      swap1\n      div\n      0xff\n      and\n        /* \"digital_contract.sol\":4802:4854  mContract.status == ContractStatus.DeliveryConfirmed */\n      0x07\n      dup2\n      gt\n      iszero\n      tag_106\n      jumpi\n      tag_107\n      tag_105\n      jump\t// in\n    tag_107:\n    tag_106:\n      eq\n        /* \"digital_contract.sol\":4794:4871  require(mContract.status == ContractStatus.DeliveryConfirmed, \"Wrong status\") */\n      tag_108\n      jumpi\n      mload(0x40)\n      0x08c379a000000000000000000000000000000000000000000000000000000000\n      dup2\n      mstore\n      0x04\n      add\n      tag_109\n      swap1\n      tag_110\n      jump\t// in\n    tag_109:\n      mload(0x40)\n      dup1\n      swap2\n      sub\n      swap1\n      revert\n    tag_108:\n        /* \"digital_contract.sol\":4903:4934  ContractStatus.DeliveryApproved */\n      0x04\n        /* \"digital_contract.sol\":4884:4893  mContract */\n      dup2\n        /* \"digital_contract.sol\":4884:4900  mContract.status */\n      0x03\n      add\n      0x14\n        /* \"digital_contract.sol\":4884:4934  mContract.status = ContractStatus.DeliveryApproved */\n      0x0100\n      exp\n      dup2\n      sload\n      dup2\n      0xff\n      mul\n      not\n      and\n      swap1\n      dup4\n      0x07\n      dup2\n      gt\n      iszero\n      tag_111\n      jumpi\n      tag_112\n      tag_105\n      jump\t// in\n    tag_112:\n    tag_111:\n      mul\n      or\n      swap1\n      sstore\n      pop\n        /* \"digital_contract.sol\":4991:5000  mContract */\n      dup1\n        /* \"digital_contract.sol\":4991:5007  mContract.amount */\n      0x01\n      add\n      sload\n        /* \"digital_contract.sol\":4945:4963  pendingWithdrawals */\n      0x04\n        /* \"digital_contract.sol\":4945:4987  pendingWithdrawals[mContract.counterparty] */\n      0x00\n        /* \"digital_contract.sol\":4964:4973  mContract */\n      dup4\n        /* \"digital_contract.sol\":4964:4986  mContract.counterparty */\n      0x03\n      add\n      0x00\n      swap1\n      sload\n      swap1\n      0x0100\n      exp\n      swap1\n      div\n      0xffffffffffffffffffffffffffffffffffffffff\n      and\n        /* \"digital_contract.sol\":4945:4987  pendingWithdrawals[mContract.counterparty] */\n      0xffffffffffffffffffffffffffffffffffffffff\n      and\n      0xffffffffffffffffffffffffffffffffffffffff\n      and\n      dup2\n      mstore\n      0x20\n      add\n      swap1\n      dup2\n      mstore\n      0x20\n      add\n      0x00\n      keccak256\n      0x00\n        /* \"digital_contract.sol\":4945:5007  pendingWithdrawals[mContract.counterparty] += mContract.amount */\n      dup3\n      dup3\n      sload\n      tag_113\n      swap2\n      swap1\n      tag_114\n      jump\t// in\n    tag_113:\n      swap3\n      pop\n      pop\n      dup2\n      swap1\n      sstore\n      pop\n        /* \"digital_contract.sol\":5042:5053  _contractId */\n      dup3\n        /* \"digital_contract.sol\":5025:5054  DeliveryApproved(_contractId) */\n      0x5c1e662f72ee6c85181b65fac5beb0390932b8c472f05b257151d041ac9ddffa\n      mload(0x40)\n      mload(0x40)\n      dup1\n      swap2\n      sub\n      swap1\n      log2\n        /* \"digital_contract.sol\":5099:5108  mContract */\n      dup1\n        /* \"digital_contract.sol\":5099:5121  mContract.counterparty */\n      0x03\n      add\n      0x00\n      swap1\n      sload\n      swap1\n      0x0100\n      exp\n      swap1\n      div\n      0xffffffffffffffffffffffffffffffffffffffff\n      and\n        /* \"digital_contract.sol\":5070:5140  PaymentReleased(_contractId, mContract.counterparty, mContract.amount) */\n      0xffffffffffffffffffffffffffffffffffffffff\n      and\n        /* \"digital_contract.sol\":5086:5097  _contractId */\n      dup4\n        /* \"digital_contract.sol\":5070:5140  PaymentReleased(_contractId, mContract.counterparty, mContract.amount) */\n      0x21d71db5be59bb9fa133895586b7404307dd33fb93b16db09dc6f1d9d7d231b0\n        /* \"digital_contract.sol\":5123:5132  mContract */\n      dup4\n        /* \"digital_contract.sol\":5123:5139  mContract.amount */\n      0x01\n      add\n      sload\n        /* \"digital_contract.sol\":5070:5140  PaymentReleased(_contractId, mContract.counterparty, mContract.amount) */\n      mload(0x40)\n      tag_115\n      swap2\n      swap1\n      tag_30\n      jump\t// in\n    tag_115:\n      mload(0x40)\n      dup1\n      swap2\n      sub\n      swap1\n      log3\n        /* \"digital_contract.sol\":4714:5148  {... */\n      pop\n        /* \"digital_contract.sol\":4627:5148  function approveDeliveryAsCreator(uint256 _contractId) public onlyCreator(_contractId) {... */\n      pop\n      pop\n      jump\t// out\n        /* \"digital_contract.sol\":801:831  uint256 public contractCounter */\n    tag_28:\n      sload(0x03)\n      dup2\n      jump\t// out\n        /* \"digital_contract.sol\":7006:7149  function getContractHash(uint256 _contractId) public view returns (string memory) {... */\n    tag_34:\n        /* \"digital_contract.sol\":7073:7086  string memory */\n      0x60\n        /* \"digital_contract.sol\":7106:7115  contracts */\n      0x02\n        /* \"digital_contract.sol\":7106:7128  contracts[_contractId] */\n      0x00\n        /* \"digital_contract.sol\":7116:7127  _contractId */\n      dup4\n        /* \"digital_contract.sol\":7106:7128  contracts[_contractId] */\n      dup2\n      mstore\n      0x20\n      add\n      swap1\n      dup2\n      mstore\n      0x20\n      add\n      0x00\n      keccak256\n        /* \"digital_contract.sol\":7106:7141  contracts[_contractId].contractHash */\n      0x04\n      add\n        /* \"digital_contract.sol\":7099:7141  return contracts[_contractId].contractHash */\n      dup1\n      sload\n      tag_117\n      swap1\n      tag_118\n      jump\t// in\n    tag_117:\n      dup1\n      0x1f\n      add\n      0x20\n      dup1\n      swap2\n      div\n      mul\n      0x20\n      add\n      mload(0x40)\n      swap1\n      dup2\n      add\n      0x40\n      mstore\n      dup1\n      swap3\n      swap2\n      swap1\n      dup2\n      dup2\n      mstore\n      0x20\n      add\n      dup3\n      dup1\n      sload\n      tag_119\n      swap1\n      tag_118\n      jump\t// in\n    tag_119:\n      dup1\n      iszero\n      tag_120\n      jumpi\n      dup1\n      0x1f\n      lt\n      tag_121\n      jumpi\n      0x0100\n      dup1\n      dup4\n      sload\n      div\n      mul\n      dup4\n      mstore\n      swap2\n      0x20\n      add\n      swap2\n      jump(tag_120)\n    tag_121:\n      dup3\n      add\n      swap2\n      swap1\n      0x00\n      mstore\n      keccak256(0x00, 0x20)\n      swap1\n    tag_122:\n      dup2\n      sload\n      dup2\n      mstore\n      swap1\n      0x01\n      add\n      swap1\n      0x20\n      add\n      dup1\n      dup4\n      gt\n      tag_122\n      jumpi\n      dup3\n      swap1\n      sub\n      0x1f\n      and\n      dup3\n      add\n      swap2\n    tag_120:\n      pop\n      pop\n      pop\n      pop\n      pop\n      swap1\n      pop\n        /* \"digital_contract.sol\":7006:7149  function getContractHash(uint256 _contractId) public view returns (string memory) {... */\n      swap2\n      swap1\n      pop\n      jump\t// out\n        /* \"digital_contract.sol\":6858:6998  function getContractStatus(uint256 _contractId) public view returns (ContractStatus) {... */\n    tag_40:\n        /* \"digital_contract.sol\":6927:6941  ContractStatus */\n      0x00\n        /* \"digital_contract.sol\":6961:6970  contracts */\n      0x02\n        /* \"digital_contract.sol\":6961:6983  contracts[_contractId] */\n      0x00\n        /* \"digital_contract.sol\":6971:6982  _contractId */\n      dup4\n        /* \"digital_contract.sol\":6961:6983  contracts[_contractId] */\n      dup2\n      mstore\n      0x20\n      add\n      swap1\n      dup2\n      mstore\n      0x20\n      add\n      0x00\n      keccak256\n        /* \"digital_contract.sol\":6961:6990  contracts[_contractId].status */\n      0x03\n      add\n      0x14\n      swap1\n      sload\n      swap1\n      0x0100\n      exp\n      swap1\n      div\n      0xff\n      and\n        /* \"digital_contract.sol\":6954:6990  return contracts[_contractId].status */\n      swap1\n      pop\n        /* \"digital_contract.sol\":6858:6998  function getContractStatus(uint256 _contractId) public view returns (ContractStatus) {... */\n      swap2\n      swap1\n      pop\n      jump\t// out\n        /* \"digital_contract.sol\":6417:6850  function deactivateContract(uint256 _contractId) public onlyCreator(_contractId) {... */\n    tag_46:\n        /* \"digital_contract.sol\":6485:6496  _contractId */\n      dup1\n        /* \"digital_contract.sol\":1616:1625  contracts */\n      0x02\n        /* \"digital_contract.sol\":1616:1638  contracts[_contractId] */\n      0x00\n        /* \"digital_contract.sol\":1626:1637  _contractId */\n      dup3\n        /* \"digital_contract.sol\":1616:1638  contracts[_contractId] */\n      dup2\n      mstore\n      0x20\n      add\n      swap1\n      dup2\n      mstore\n      0x20\n      add\n      0x00\n      keccak256\n        /* \"digital_contract.sol\":1616:1646  contracts[_contractId].creator */\n      0x02\n      add\n      0x00\n      swap1\n      sload\n      swap1\n      0x0100\n      exp\n      swap1\n      div\n      0xffffffffffffffffffffffffffffffffffffffff\n      and\n        /* \"digital_contract.sol\":1602:1646  msg.sender == contracts[_contractId].creator */\n      0xffffffffffffffffffffffffffffffffffffffff\n      and\n        /* \"digital_contract.sol\":1602:1612  msg.sender */\n      caller\n        /* \"digital_contract.sol\":1602:1646  msg.sender == contracts[_contractId].creator */\n      0xffffffffffffffffffffffffffffffffffffffff\n      and\n      eq\n        /* \"digital_contract.sol\":1594:1662  require(msg.sender == contracts[_contractId].creator, \"Not creator\") */\n      tag_125\n      jumpi\n      mload(0x40)\n      0x08c379a000000000000000000000000000000000000000000000000000000000\n      dup2\n      mstore\n      0x04\n      add\n      tag_126\n      swap1\n      tag_101\n      jump\t// in\n    tag_126:\n      mload(0x40)\n      dup1\n      swap2\n      sub\n      swap1\n      revert\n    tag_125:\n        /* \"digital_contract.sol\":6509:6542  ManagedContract storage mContract */\n      0x00\n        /* \"digital_contract.sol\":6545:6554  contracts */\n      0x02\n        /* \"digital_contract.sol\":6545:6567  contracts[_contractId] */\n      0x00\n        /* \"digital_contract.sol\":6555:6566  _contractId */\n      dup5\n        /* \"digital_contract.sol\":6545:6567  contracts[_contractId] */\n      dup2\n      mstore\n      0x20\n      add\n      swap1\n      dup2\n      mstore\n      0x20\n      add\n      0x00\n      keccak256\n        /* \"digital_contract.sol\":6509:6567  ManagedContract storage mContract = contracts[_contractId] */\n      swap1\n      pop\n        /* \"digital_contract.sol\":6606:6630  ContractStatus.Completed */\n      0x06\n        /* \"digital_contract.sol\":6586:6630  mContract.status != ContractStatus.Completed */\n      0x07\n      dup2\n      gt\n      iszero\n      tag_128\n      jumpi\n      tag_129\n      tag_105\n      jump\t// in\n    tag_129:\n    tag_128:\n        /* \"digital_contract.sol\":6586:6595  mContract */\n      dup2\n        /* \"digital_contract.sol\":6586:6602  mContract.status */\n      0x03\n      add\n      0x14\n      swap1\n      sload\n      swap1\n      0x0100\n      exp\n      swap1\n      div\n      0xff\n      and\n        /* \"digital_contract.sol\":6586:6630  mContract.status != ContractStatus.Completed */\n      0x07\n      dup2\n      gt\n      iszero\n      tag_130\n      jumpi\n      tag_131\n      tag_105\n      jump\t// in\n    tag_131:\n    tag_130:\n      sub\n        /* \"digital_contract.sol\":6578:6652  require(mContract.status != ContractStatus.Completed, \"Already completed\") */\n      tag_132\n      jumpi\n      mload(0x40)\n      0x08c379a000000000000000000000000000000000000000000000000000000000\n      dup2\n      mstore\n      0x04\n      add\n      tag_133\n      swap1\n      tag_134\n      jump\t// in\n    tag_133:\n      mload(0x40)\n      dup1\n      swap2\n      sub\n      swap1\n      revert\n    tag_132:\n        /* \"digital_contract.sol\":6665:6692  mContract.contractHash = \"\" */\n      mload(0x40)\n      dup1\n      0x20\n      add\n      0x40\n      mstore\n      dup1\n      0x00\n      dup2\n      mstore\n      pop\n        /* \"digital_contract.sol\":6665:6674  mContract */\n      dup2\n        /* \"digital_contract.sol\":6665:6687  mContract.contractHash */\n      0x04\n      add\n        /* \"digital_contract.sol\":6665:6692  mContract.contractHash = \"\" */\n      swap1\n      dup2\n      tag_135\n      swap2\n      swap1\n      tag_136\n      jump\t// in\n    tag_135:\n      pop\n        /* \"digital_contract.sol\":6703:6738  mContract.deliveryTrackingHash = \"\" */\n      0x00\n        /* \"digital_contract.sol\":6703:6712  mContract */\n      dup2\n        /* \"digital_contract.sol\":6703:6733  mContract.deliveryTrackingHash */\n      0x05\n      add\n        /* \"digital_contract.sol\":6703:6738  mContract.deliveryTrackingHash = \"\" */\n      dup2\n      swap1\n      sstore\n      pop\n        /* \"digital_contract.sol\":6768:6792  ContractStatus.Cancelled */\n      0x07\n        /* \"digital_contract.sol\":6749:6758  mContract */\n      dup2\n        /* \"digital_contract.sol\":6749:6765  mContract.status */\n      0x03\n      add\n      0x14\n        /* \"digital_contract.sol\":6749:6792  mContract.status = ContractStatus.Cancelled */\n      0x0100\n      exp\n      dup2\n      sload\n      dup2\n      0xff\n      mul\n      not\n      and\n      swap1\n      dup4\n      0x07\n      dup2\n      gt\n      iszero\n      tag_137\n      jumpi\n      tag_138\n      tag_105\n      jump\t// in\n    tag_138:\n    tag_137:\n      mul\n      or\n      swap1\n      sstore\n      pop\n        /* \"digital_contract.sol\":6830:6841  _contractId */\n      dup3\n        /* \"digital_contract.sol\":6810:6842  ContractDeactivated(_contractId) */\n      0x741b099f015e1976cfa72a7448a8fb1d54eab1d616241b562cfbe603a2b61b42\n      mload(0x40)\n      mload(0x40)\n      dup1\n      swap2\n      sub\n      swap1\n      log2\n        /* \"digital_contract.sol\":6498:6850  {... */\n      pop\n        /* \"digital_contract.sol\":6417:6850  function deactivateContract(uint256 _contractId) public onlyCreator(_contractId) {... */\n      pop\n      pop\n      jump\t// out\n        /* \"digital_contract.sol\":742:794  mapping(uint256 => ManagedContract) public contracts */\n    tag_50:\n      mstore(0x20, 0x02)\n      dup1\n      0x00\n      mstore\n      keccak256(0x00, 0x40)\n      0x00\n      swap2\n      pop\n      swap1\n      pop\n      dup1\n      0x00\n      add\n      sload\n      swap1\n      dup1\n      0x01\n      add\n      sload\n      swap1\n      dup1\n      0x02\n      add\n      0x00\n      swap1\n      sload\n      swap1\n      0x0100\n      exp\n      swap1\n      div\n      0xffffffffffffffffffffffffffffffffffffffff\n      and\n      swap1\n      dup1\n      0x03\n      add\n      0x00\n      swap1\n      sload\n      swap1\n      0x0100\n      exp\n      swap1\n      div\n      0xffffffffffffffffffffffffffffffffffffffff\n      and\n      swap1\n      dup1\n      0x03\n      add\n      0x14\n      swap1\n      sload\n      swap1\n      0x0100\n      exp\n      swap1\n      div\n      0xff\n      and\n      swap1\n      dup1\n      0x04\n      add\n      dup1\n      sload\n      tag_139\n      swap1\n      tag_118\n      jump\t// in\n    tag_139:\n      dup1\n      0x1f\n      add\n      0x20\n      dup1\n      swap2\n      div\n      mul\n      0x20\n      add\n      mload(0x40)\n      swap1\n      dup2\n      add\n      0x40\n      mstore\n      dup1\n      swap3\n      swap2\n      swap1\n      dup2\n      dup2\n      mstore\n      0x20\n      add\n      dup3\n      dup1\n      sload\n      tag_140\n      swap1\n      tag_118\n      jump\t// in\n    tag_140:\n      dup1\n      iszero\n      tag_141\n      jumpi\n      dup1\n      0x1f\n      lt\n      tag_142\n      jumpi\n      0x0100\n      dup1\n      dup4\n      sload\n      div\n      mul\n      dup4\n      mstore\n      swap2\n      0x20\n      add\n      swap2\n      jump(tag_141)\n    tag_142:\n      dup3\n      add\n      swap2\n      swap1\n      0x00\n      mstore\n      keccak256(0x00, 0x20)\n      swap1\n    tag_143:\n      dup2\n      sload\n      dup2\n      mstore\n      swap1\n      0x01\n      add\n      swap1\n      0x20\n      add\n      dup1\n      dup4\n      gt\n      tag_143\n      jumpi\n      dup3\n      swap1\n      sub\n      0x1f\n      and\n      dup3\n      add\n      swap2\n    tag_141:\n      pop\n      pop\n      pop\n      pop\n      pop\n      swap1\n      dup1\n      0x05\n      add\n      sload\n      swap1\n      dup1\n      0x06\n      add\n      0x00\n      swap1\n      sload\n      swap1\n      0x0100\n      exp\n      swap1\n      div\n      0xff\n      and\n      swap1\n      pop\n      dup9\n      jump\t// out\n        /* \"digital_contract.sol\":3397:4004  function setDeliveryTracking(uint256 _contractId, string memory _trackingNumber) public onlyCounterparty(_contractId) {... */\n    tag_57:\n        /* \"digital_contract.sol\":3502:3513  _contractId */\n      dup2\n        /* \"digital_contract.sol\":1770:1779  contracts */\n      0x02\n        /* \"digital_contract.sol\":1770:1792  contracts[_contractId] */\n      0x00\n        /* \"digital_contract.sol\":1780:1791  _contractId */\n      dup3\n        /* \"digital_contract.sol\":1770:1792  contracts[_contractId] */\n      dup2\n      mstore\n      0x20\n      add\n      swap1\n      dup2\n      mstore\n      0x20\n      add\n      0x00\n      keccak256\n        /* \"digital_contract.sol\":1770:1805  contracts[_contractId].counterparty */\n      0x03\n      add\n      0x00\n      swap1\n      sload\n      swap1\n      0x0100\n      exp\n      swap1\n      div\n      0xffffffffffffffffffffffffffffffffffffffff\n      and\n        /* \"digital_contract.sol\":1756:1805  msg.sender == contracts[_contractId].counterparty */\n      0xffffffffffffffffffffffffffffffffffffffff\n      and\n        /* \"digital_contract.sol\":1756:1766  msg.sender */\n      caller\n        /* \"digital_contract.sol\":1756:1805  msg.sender == contracts[_contractId].counterparty */\n      0xffffffffffffffffffffffffffffffffffffffff\n      and\n      eq\n        /* \"digital_contract.sol\":1748:1826  require(msg.sender == contracts[_contractId].counterparty, \"Not counterparty\") */\n      tag_145\n      jumpi\n      mload(0x40)\n      0x08c379a000000000000000000000000000000000000000000000000000000000\n      dup2\n      mstore\n      0x04\n      add\n      tag_146\n      swap1\n      tag_147\n      jump\t// in\n    tag_146:\n      mload(0x40)\n      dup1\n      swap2\n      sub\n      swap1\n      revert\n    tag_145:\n        /* \"digital_contract.sol\":3526:3559  ManagedContract storage mContract */\n      0x00\n        /* \"digital_contract.sol\":3562:3571  contracts */\n      0x02\n        /* \"digital_contract.sol\":3562:3584  contracts[_contractId] */\n      0x00\n        /* \"digital_contract.sol\":3572:3583  _contractId */\n      dup6\n        /* \"digital_contract.sol\":3562:3584  contracts[_contractId] */\n      dup2\n      mstore\n      0x20\n      add\n      swap1\n      dup2\n      mstore\n      0x20\n      add\n      0x00\n      keccak256\n        /* \"digital_contract.sol\":3526:3584  ManagedContract storage mContract = contracts[_contractId] */\n      swap1\n      pop\n        /* \"digital_contract.sol\":3623:3644  ContractStatus.Signed */\n      0x01\n        /* \"digital_contract.sol\":3603:3644  mContract.status == ContractStatus.Signed */\n      0x07\n      dup2\n      gt\n      iszero\n      tag_149\n      jumpi\n      tag_150\n      tag_105\n      jump\t// in\n    tag_150:\n    tag_149:\n        /* \"digital_contract.sol\":3603:3612  mContract */\n      dup2\n        /* \"digital_contract.sol\":3603:3619  mContract.status */\n      0x03\n      add\n      0x14\n      swap1\n      sload\n      swap1\n      0x0100\n      exp\n      swap1\n      div\n      0xff\n      and\n        /* \"digital_contract.sol\":3603:3644  mContract.status == ContractStatus.Signed */\n      0x07\n      dup2\n      gt\n      iszero\n      tag_151\n      jumpi\n      tag_152\n      tag_105\n      jump\t// in\n    tag_152:\n    tag_151:\n      eq\n        /* \"digital_contract.sol\":3595:3659  require(mContract.status == ContractStatus.Signed, \"Not Signed\") */\n      tag_153\n      jumpi\n      mload(0x40)\n      0x08c379a000000000000000000000000000000000000000000000000000000000\n      dup2\n      mstore\n      0x04\n      add\n      tag_154\n      swap1\n      tag_155\n      jump\t// in\n    tag_154:\n      mload(0x40)\n      dup1\n      swap2\n      sub\n      swap1\n      revert\n    tag_153:\n        /* \"digital_contract.sol\":3679:3688  mContract */\n      dup1\n        /* \"digital_contract.sol\":3679:3705  mContract.deliveryRequired */\n      0x06\n      add\n      0x00\n      swap1\n      sload\n      swap1\n      0x0100\n      exp\n      swap1\n      div\n      0xff\n      and\n        /* \"digital_contract.sol\":3678:3705  !mContract.deliveryRequired */\n      iszero\n        /* \"digital_contract.sol\":3670:3721  require(!mContract.deliveryRequired, \"Already set\") */\n      tag_156\n      jumpi\n      mload(0x40)\n      0x08c379a000000000000000000000000000000000000000000000000000000000\n      dup2\n      mstore\n      0x04\n      add\n      tag_157\n      swap1\n      tag_158\n      jump\t// in\n    tag_157:\n      mload(0x40)\n      dup1\n      swap2\n      sub\n      swap1\n      revert\n    tag_156:\n        /* \"digital_contract.sol\":3788:3799  _contractId */\n      dup4\n        /* \"digital_contract.sol\":3801:3816  _trackingNumber */\n      dup4\n        /* \"digital_contract.sol\":3777:3817  abi.encode(_contractId, _trackingNumber) */\n      add(0x20, mload(0x40))\n      tag_159\n      swap3\n      swap2\n      swap1\n      tag_160\n      jump\t// in\n    tag_159:\n      mload(0x40)\n      0x20\n      dup2\n      dup4\n      sub\n      sub\n      dup2\n      mstore\n      swap1\n      0x40\n      mstore\n        /* \"digital_contract.sol\":3767:3818  keccak256(abi.encode(_contractId, _trackingNumber)) */\n      dup1\n      mload\n      swap1\n      0x20\n      add\n      keccak256\n        /* \"digital_contract.sol\":3734:3743  mContract */\n      dup2\n        /* \"digital_contract.sol\":3734:3764  mContract.deliveryTrackingHash */\n      0x05\n      add\n        /* \"digital_contract.sol\":3734:3818  mContract.deliveryTrackingHash = keccak256(abi.encode(_contractId, _trackingNumber)) */\n      dup2\n      swap1\n      sstore\n      pop\n        /* \"digital_contract.sol\":3858:3862  true */\n      0x01\n        /* \"digital_contract.sol\":3829:3838  mContract */\n      dup2\n        /* \"digital_contract.sol\":3829:3855  mContract.deliveryRequired */\n      0x06\n      add\n      0x00\n        /* \"digital_contract.sol\":3829:3862  mContract.deliveryRequired = true */\n      0x0100\n      exp\n      dup2\n      sload\n      dup2\n      0xff\n      mul\n      not\n      and\n      swap1\n      dup4\n      iszero\n      iszero\n      mul\n      or\n      swap1\n      sstore\n      pop\n        /* \"digital_contract.sol\":3892:3918  ContractStatus.DeliverySet */\n      0x02\n        /* \"digital_contract.sol\":3873:3882  mContract */\n      dup2\n        /* \"digital_contract.sol\":3873:3889  mContract.status */\n      0x03\n      add\n      0x14\n        /* \"digital_contract.sol\":3873:3918  mContract.status = ContractStatus.DeliverySet */\n      0x0100\n      exp\n      dup2\n      sload\n      dup2\n      0xff\n      mul\n      not\n      and\n      swap1\n      dup4\n      0x07\n      dup2\n      gt\n      iszero\n      tag_161\n      jumpi\n      tag_162\n      tag_105\n      jump\t// in\n    tag_162:\n    tag_161:\n      mul\n      or\n      swap1\n      sstore\n      pop\n        /* \"digital_contract.sol\":3952:3963  _contractId */\n      dup4\n        /* \"digital_contract.sol\":3936:3996  TrackingHashSet(_contractId, mContract.deliveryTrackingHash) */\n      0x4b70739c5f0bd46e19773020c599342cdbdc3ac59b5e0abfdd9c1bb441be59c8\n        /* \"digital_contract.sol\":3965:3974  mContract */\n      dup3\n        /* \"digital_contract.sol\":3965:3995  mContract.deliveryTrackingHash */\n      0x05\n      add\n      sload\n        /* \"digital_contract.sol\":3936:3996  TrackingHashSet(_contractId, mContract.deliveryTrackingHash) */\n      mload(0x40)\n      tag_163\n      swap2\n      swap1\n      tag_164\n      jump\t// in\n    tag_163:\n      mload(0x40)\n      dup1\n      swap2\n      sub\n      swap1\n      log2\n        /* \"digital_contract.sol\":3515:4004  {... */\n      pop\n        /* \"digital_contract.sol\":3397:4004  function setDeliveryTracking(uint256 _contractId, string memory _trackingNumber) public onlyCounterparty(_contractId) {... */\n      pop\n      pop\n      pop\n      jump\t// out\n        /* \"digital_contract.sol\":1958:2210  function setOracle(address _oracle) public {... */\n    tag_62:\n        /* \"digital_contract.sol\":2021:2030  oracleSet */\n      0x01\n      0x14\n      swap1\n      sload\n      swap1\n      0x0100\n      exp\n      swap1\n      div\n      0xff\n      and\n        /* \"digital_contract.sol\":2020:2030  !oracleSet */\n      iszero\n        /* \"digital_contract.sol\":2012:2053  require(!oracleSet, \"Oracle already set\") */\n      tag_166\n      jumpi\n      mload(0x40)\n      0x08c379a000000000000000000000000000000000000000000000000000000000\n      dup2\n      mstore\n      0x04\n      add\n      tag_167\n      swap1\n      tag_168\n      jump\t// in\n    tag_167:\n      mload(0x40)\n      dup1\n      swap2\n      sub\n      swap1\n      revert\n    tag_166:\n        /* \"digital_contract.sol\":2091:2092  0 */\n      0x00\n        /* \"digital_contract.sol\":2072:2093  _oracle != address(0) */\n      0xffffffffffffffffffffffffffffffffffffffff\n      and\n        /* \"digital_contract.sol\":2072:2079  _oracle */\n      dup2\n        /* \"digital_contract.sol\":2072:2093  _oracle != address(0) */\n      0xffffffffffffffffffffffffffffffffffffffff\n      and\n      sub\n        /* \"digital_contract.sol\":2064:2112  require(_oracle != address(0), \"Invalid oracle\") */\n      tag_169\n      jumpi\n      mload(0x40)\n      0x08c379a000000000000000000000000000000000000000000000000000000000\n      dup2\n      mstore\n      0x04\n      add\n      tag_170\n      swap1\n      tag_171\n      jump\t// in\n    tag_170:\n      mload(0x40)\n      dup1\n      swap2\n      sub\n      swap1\n      revert\n    tag_169:\n        /* \"digital_contract.sol\":2134:2141  _oracle */\n      dup1\n        /* \"digital_contract.sol\":2125:2131  oracle */\n      0x01\n      0x00\n        /* \"digital_contract.sol\":2125:2141  oracle = _oracle */\n      0x0100\n      exp\n      dup2\n      sload\n      dup2\n      0xffffffffffffffffffffffffffffffffffffffff\n      mul\n      not\n      and\n      swap1\n      dup4\n      0xffffffffffffffffffffffffffffffffffffffff\n      and\n      mul\n      or\n      swap1\n      sstore\n      pop\n        /* \"digital_contract.sol\":2164:2168  true */\n      0x01\n        /* \"digital_contract.sol\":2152:2161  oracleSet */\n      dup1\n      0x14\n        /* \"digital_contract.sol\":2152:2168  oracleSet = true */\n      0x0100\n      exp\n      dup2\n      sload\n      dup2\n      0xff\n      mul\n      not\n      and\n      swap1\n      dup4\n      iszero\n      iszero\n      mul\n      or\n      swap1\n      sstore\n      pop\n        /* \"digital_contract.sol\":2194:2201  _oracle */\n      dup1\n        /* \"digital_contract.sol\":2184:2202  OracleSet(_oracle) */\n      0xffffffffffffffffffffffffffffffffffffffff\n      and\n      0x3f32684a32a11dabdbb8c0177de80aa3ae36a004d75210335b49e544e48cd0aa\n      mload(0x40)\n      mload(0x40)\n      dup1\n      swap2\n      sub\n      swap1\n      log2\n        /* \"digital_contract.sol\":1958:2210  function setOracle(address _oracle) public {... */\n      pop\n      jump\t// out\n        /* \"digital_contract.sol\":684:705  address public oracle */\n    tag_65:\n      0x01\n      0x00\n      swap1\n      sload\n      swap1\n      0x0100\n      exp\n      swap1\n      div\n      0xffffffffffffffffffffffffffffffffffffffff\n      and\n      dup2\n      jump\t// out\n        /* \"digital_contract.sol\":5156:5687  function confirmCompletion(uint256 _contractId) public onlyCreator(_contractId) {... */\n    tag_71:\n        /* \"digital_contract.sol\":5223:5234  _contractId */\n      dup1\n        /* \"digital_contract.sol\":1616:1625  contracts */\n      0x02\n        /* \"digital_contract.sol\":1616:1638  contracts[_contractId] */\n      0x00\n        /* \"digital_contract.sol\":1626:1637  _contractId */\n      dup3\n        /* \"digital_contract.sol\":1616:1638  contracts[_contractId] */\n      dup2\n      mstore\n      0x20\n      add\n      swap1\n      dup2\n      mstore\n      0x20\n      add\n      0x00\n      keccak256\n        /* \"digital_contract.sol\":1616:1646  contracts[_contractId].creator */\n      0x02\n      add\n      0x00\n      swap1\n      sload\n      swap1\n      0x0100\n      exp\n      swap1\n      div\n      0xffffffffffffffffffffffffffffffffffffffff\n      and\n        /* \"digital_contract.sol\":1602:1646  msg.sender == contracts[_contractId].creator */\n      0xffffffffffffffffffffffffffffffffffffffff\n      and\n        /* \"digital_contract.sol\":1602:1612  msg.sender */\n      caller\n        /* \"digital_contract.sol\":1602:1646  msg.sender == contracts[_contractId].creator */\n      0xffffffffffffffffffffffffffffffffffffffff\n      and\n      eq\n        /* \"digital_contract.sol\":1594:1662  require(msg.sender == contracts[_contractId].creator, \"Not creator\") */\n      tag_173\n      jumpi\n      mload(0x40)\n      0x08c379a000000000000000000000000000000000000000000000000000000000\n      dup2\n      mstore\n      0x04\n      add\n      tag_174\n      swap1\n      tag_101\n      jump\t// in\n    tag_174:\n      mload(0x40)\n      dup1\n      swap2\n      sub\n      swap1\n      revert\n    tag_173:\n        /* \"digital_contract.sol\":5247:5280  ManagedContract storage mContract */\n      0x00\n        /* \"digital_contract.sol\":5283:5292  contracts */\n      0x02\n        /* \"digital_contract.sol\":5283:5305  contracts[_contractId] */\n      0x00\n        /* \"digital_contract.sol\":5293:5304  _contractId */\n      dup5\n        /* \"digital_contract.sol\":5283:5305  contracts[_contractId] */\n      dup2\n      mstore\n      0x20\n      add\n      swap1\n      dup2\n      mstore\n      0x20\n      add\n      0x00\n      keccak256\n        /* \"digital_contract.sol\":5247:5305  ManagedContract storage mContract = contracts[_contractId] */\n      swap1\n      pop\n        /* \"digital_contract.sol\":5344:5365  ContractStatus.Signed */\n      0x01\n        /* \"digital_contract.sol\":5324:5365  mContract.status == ContractStatus.Signed */\n      0x07\n      dup2\n      gt\n      iszero\n      tag_176\n      jumpi\n      tag_177\n      tag_105\n      jump\t// in\n    tag_177:\n    tag_176:\n        /* \"digital_contract.sol\":5324:5333  mContract */\n      dup2\n        /* \"digital_contract.sol\":5324:5340  mContract.status */\n      0x03\n      add\n      0x14\n      swap1\n      sload\n      swap1\n      0x0100\n      exp\n      swap1\n      div\n      0xff\n      and\n        /* \"digital_contract.sol\":5324:5365  mContract.status == ContractStatus.Signed */\n      0x07\n      dup2\n      gt\n      iszero\n      tag_178\n      jumpi\n      tag_179\n      tag_105\n      jump\t// in\n    tag_179:\n    tag_178:\n      eq\n        /* \"digital_contract.sol\":5316:5380  require(mContract.status == ContractStatus.Signed, \"Not signed\") */\n      tag_180\n      jumpi\n      mload(0x40)\n      0x08c379a000000000000000000000000000000000000000000000000000000000\n      dup2\n      mstore\n      0x04\n      add\n      tag_181\n      swap1\n      tag_182\n      jump\t// in\n    tag_181:\n      mload(0x40)\n      dup1\n      swap2\n      sub\n      swap1\n      revert\n    tag_180:\n        /* \"digital_contract.sol\":5400:5409  mContract */\n      dup1\n        /* \"digital_contract.sol\":5400:5426  mContract.deliveryRequired */\n      0x06\n      add\n      0x00\n      swap1\n      sload\n      swap1\n      0x0100\n      exp\n      swap1\n      div\n      0xff\n      and\n        /* \"digital_contract.sol\":5399:5426  !mContract.deliveryRequired */\n      iszero\n        /* \"digital_contract.sol\":5391:5453  require(!mContract.deliveryRequired, \"Delivery flow required\") */\n      tag_183\n      jumpi\n      mload(0x40)\n      0x08c379a000000000000000000000000000000000000000000000000000000000\n      dup2\n      mstore\n      0x04\n      add\n      tag_184\n      swap1\n      tag_185\n      jump\t// in\n    tag_184:\n      mload(0x40)\n      dup1\n      swap2\n      sub\n      swap1\n      revert\n    tag_183:\n        /* \"digital_contract.sol\":5485:5518  ContractStatus.AgreementFulfilled */\n      0x05\n        /* \"digital_contract.sol\":5466:5475  mContract */\n      dup2\n        /* \"digital_contract.sol\":5466:5482  mContract.status */\n      0x03\n      add\n      0x14\n        /* \"digital_contract.sol\":5466:5518  mContract.status = ContractStatus.AgreementFulfilled */\n      0x0100\n      exp\n      dup2\n      sload\n      dup2\n      0xff\n      mul\n      not\n      and\n      swap1\n      dup4\n      0x07\n      dup2\n      gt\n      iszero\n      tag_186\n      jumpi\n      tag_187\n      tag_105\n      jump\t// in\n    tag_187:\n    tag_186:\n      mul\n      or\n      swap1\n      sstore\n      pop\n        /* \"digital_contract.sol\":5575:5584  mContract */\n      dup1\n        /* \"digital_contract.sol\":5575:5591  mContract.amount */\n      0x01\n      add\n      sload\n        /* \"digital_contract.sol\":5529:5547  pendingWithdrawals */\n      0x04\n        /* \"digital_contract.sol\":5529:5571  pendingWithdrawals[mContract.counterparty] */\n      0x00\n        /* \"digital_contract.sol\":5548:5557  mContract */\n      dup4\n        /* \"digital_contract.sol\":5548:5570  mContract.counterparty */\n      0x03\n      add\n      0x00\n      swap1\n      sload\n      swap1\n      0x0100\n      exp\n      swap1\n      div\n      0xffffffffffffffffffffffffffffffffffffffff\n      and\n        /* \"digital_contract.sol\":5529:5571  pendingWithdrawals[mContract.counterparty] */\n      0xffffffffffffffffffffffffffffffffffffffff\n      and\n      0xffffffffffffffffffffffffffffffffffffffff\n      and\n      dup2\n      mstore\n      0x20\n      add\n      swap1\n      dup2\n      mstore\n      0x20\n      add\n      0x00\n      keccak256\n      0x00\n        /* \"digital_contract.sol\":5529:5591  pendingWithdrawals[mContract.counterparty] += mContract.amount */\n      dup3\n      dup3\n      sload\n      tag_188\n      swap2\n      swap1\n      tag_114\n      jump\t// in\n    tag_188:\n      swap3\n      pop\n      pop\n      dup2\n      swap1\n      sstore\n      pop\n        /* \"digital_contract.sol\":5638:5647  mContract */\n      dup1\n        /* \"digital_contract.sol\":5638:5660  mContract.counterparty */\n      0x03\n      add\n      0x00\n      swap1\n      sload\n      swap1\n      0x0100\n      exp\n      swap1\n      div\n      0xffffffffffffffffffffffffffffffffffffffff\n      and\n        /* \"digital_contract.sol\":5609:5679  PaymentReleased(_contractId, mContract.counterparty, mContract.amount) */\n      0xffffffffffffffffffffffffffffffffffffffff\n      and\n        /* \"digital_contract.sol\":5625:5636  _contractId */\n      dup4\n        /* \"digital_contract.sol\":5609:5679  PaymentReleased(_contractId, mContract.counterparty, mContract.amount) */\n      0x21d71db5be59bb9fa133895586b7404307dd33fb93b16db09dc6f1d9d7d231b0\n        /* \"digital_contract.sol\":5662:5671  mContract */\n      dup4\n        /* \"digital_contract.sol\":5662:5678  mContract.amount */\n      0x01\n      add\n      sload\n        /* \"digital_contract.sol\":5609:5679  PaymentReleased(_contractId, mContract.counterparty, mContract.amount) */\n      mload(0x40)\n      tag_189\n      swap2\n      swap1\n      tag_30\n      jump\t// in\n    tag_189:\n      mload(0x40)\n      dup1\n      swap2\n      sub\n      swap1\n      log3\n        /* \"digital_contract.sol\":5236:5687  {... */\n      pop\n        /* \"digital_contract.sol\":5156:5687  function confirmCompletion(uint256 _contractId) public onlyCreator(_contractId) {... */\n      pop\n      pop\n      jump\t// out\n        /* \"digital_contract.sol\":3059:3389  function signContract(uint256 _contractId) public onlyCounterparty(_contractId) {... */\n    tag_75:\n        /* \"digital_contract.sol\":3126:3137  _contractId */\n      dup1\n        /* \"digital_contract.sol\":1770:1779  contracts */\n      0x02\n        /* \"digital_contract.sol\":1770:1792  contracts[_contractId] */\n      0x00\n        /* \"digital_contract.sol\":1780:1791  _contractId */\n      dup3\n        /* \"digital_contract.sol\":1770:1792  contracts[_contractId] */\n      dup2\n      mstore\n      0x20\n      add\n      swap1\n      dup2\n      mstore\n      0x20\n      add\n      0x00\n      keccak256\n        /* \"digital_contract.sol\":1770:1805  contracts[_contractId].counterparty */\n      0x03\n      add\n      0x00\n      swap1\n      sload\n      swap1\n      0x0100\n      exp\n      swap1\n      div\n      0xffffffffffffffffffffffffffffffffffffffff\n      and\n        /* \"digital_contract.sol\":1756:1805  msg.sender == contracts[_contractId].counterparty */\n      0xffffffffffffffffffffffffffffffffffffffff\n      and\n        /* \"digital_contract.sol\":1756:1766  msg.sender */\n      caller\n        /* \"digital_contract.sol\":1756:1805  msg.sender == contracts[_contractId].counterparty */\n      0xffffffffffffffffffffffffffffffffffffffff\n      and\n      eq\n        /* \"digital_contract.sol\":1748:1826  require(msg.sender == contracts[_contractId].counterparty, \"Not counterparty\") */\n      tag_191\n      jumpi\n      mload(0x40)\n      0x08c379a000000000000000000000000000000000000000000000000000000000\n      dup2\n      mstore\n      0x04\n      add\n      tag_192\n      swap1\n      tag_147\n      jump\t// in\n    tag_192:\n      mload(0x40)\n      dup1\n      swap2\n      sub\n      swap1\n      revert\n    tag_191:\n        /* \"digital_contract.sol\":3150:3183  ManagedContract storage mContract */\n      0x00\n        /* \"digital_contract.sol\":3186:3195  contracts */\n      0x02\n        /* \"digital_contract.sol\":3186:3208  contracts[_contractId] */\n      0x00\n        /* \"digital_contract.sol\":3196:3207  _contractId */\n      dup5\n        /* \"digital_contract.sol\":3186:3208  contracts[_contractId] */\n      dup2\n      mstore\n      0x20\n      add\n      swap1\n      dup2\n      mstore\n      0x20\n      add\n      0x00\n      keccak256\n        /* \"digital_contract.sol\":3150:3208  ManagedContract storage mContract = contracts[_contractId] */\n      swap1\n      pop\n        /* \"digital_contract.sol\":3247:3269  ContractStatus.Created */\n      0x00\n        /* \"digital_contract.sol\":3227:3269  mContract.status == ContractStatus.Created */\n      0x07\n      dup2\n      gt\n      iszero\n      tag_194\n      jumpi\n      tag_195\n      tag_105\n      jump\t// in\n    tag_195:\n    tag_194:\n        /* \"digital_contract.sol\":3227:3236  mContract */\n      dup2\n        /* \"digital_contract.sol\":3227:3243  mContract.status */\n      0x03\n      add\n      0x14\n      swap1\n      sload\n      swap1\n      0x0100\n      exp\n      swap1\n      div\n      0xff\n      and\n        /* \"digital_contract.sol\":3227:3269  mContract.status == ContractStatus.Created */\n      0x07\n      dup2\n      gt\n      iszero\n      tag_196\n      jumpi\n      tag_197\n      tag_105\n      jump\t// in\n    tag_197:\n    tag_196:\n      eq\n        /* \"digital_contract.sol\":3219:3285  require(mContract.status == ContractStatus.Created, \"Not Created\") */\n      tag_198\n      jumpi\n      mload(0x40)\n      0x08c379a000000000000000000000000000000000000000000000000000000000\n      dup2\n      mstore\n      0x04\n      add\n      tag_199\n      swap1\n      tag_200\n      jump\t// in\n    tag_199:\n      mload(0x40)\n      dup1\n      swap2\n      sub\n      swap1\n      revert\n    tag_198:\n        /* \"digital_contract.sol\":3317:3338  ContractStatus.Signed */\n      0x01\n        /* \"digital_contract.sol\":3298:3307  mContract */\n      dup2\n        /* \"digital_contract.sol\":3298:3314  mContract.status */\n      0x03\n      add\n      0x14\n        /* \"digital_contract.sol\":3298:3338  mContract.status = ContractStatus.Signed */\n      0x0100\n      exp\n      dup2\n      sload\n      dup2\n      0xff\n      mul\n      not\n      and\n      swap1\n      dup4\n      0x07\n      dup2\n      gt\n      iszero\n      tag_201\n      jumpi\n      tag_202\n      tag_105\n      jump\t// in\n    tag_202:\n    tag_201:\n      mul\n      or\n      swap1\n      sstore\n      pop\n        /* \"digital_contract.sol\":3369:3380  _contractId */\n      dup3\n        /* \"digital_contract.sol\":3354:3381  ContractSigned(_contractId) */\n      0xaf3c49f5413fd292e2325b0fe214de144a222b00cb6ec21214fdc04b5d6c5913\n      mload(0x40)\n      mload(0x40)\n      dup1\n      swap2\n      sub\n      swap1\n      log2\n        /* \"digital_contract.sol\":3139:3389  {... */\n      pop\n        /* \"digital_contract.sol\":3059:3389  function signContract(uint256 _contractId) public onlyCounterparty(_contractId) {... */\n      pop\n      pop\n      jump\t// out\n        /* \"digital_contract.sol\":2218:3051  function createContract(... */\n    tag_79:\n        /* \"digital_contract.sol\":2412:2413  0 */\n      0x00\n        /* \"digital_contract.sol\":2387:2414  _counterparty != address(0) */\n      0xffffffffffffffffffffffffffffffffffffffff\n      and\n        /* \"digital_contract.sol\":2387:2400  _counterparty */\n      dup4\n        /* \"digital_contract.sol\":2387:2414  _counterparty != address(0) */\n      0xffffffffffffffffffffffffffffffffffffffff\n      and\n      sub\n        /* \"digital_contract.sol\":2379:2437  require(_counterparty != address(0), \"0 addr not allowed\") */\n      tag_204\n      jumpi\n      mload(0x40)\n      0x08c379a000000000000000000000000000000000000000000000000000000000\n      dup2\n      mstore\n      0x04\n      add\n      tag_205\n      swap1\n      tag_206\n      jump\t// in\n    tag_205:\n      mload(0x40)\n      dup1\n      swap2\n      sub\n      swap1\n      revert\n    tag_204:\n        /* \"digital_contract.sol\":2469:2476  _amount */\n      dup1\n        /* \"digital_contract.sol\":2456:2465  msg.value */\n      callvalue\n        /* \"digital_contract.sol\":2456:2476  msg.value == _amount */\n      eq\n        /* \"digital_contract.sol\":2448:2493  require(msg.value == _amount, \"ETH mismatch\") */\n      tag_207\n      jumpi\n      mload(0x40)\n      0x08c379a000000000000000000000000000000000000000000000000000000000\n      dup2\n      mstore\n      0x04\n      add\n      tag_208\n      swap1\n      tag_209\n      jump\t// in\n    tag_208:\n      mload(0x40)\n      dup1\n      swap2\n      sub\n      swap1\n      revert\n    tag_207:\n        /* \"digital_contract.sol\":2543:2545  66 */\n      0x42\n        /* \"digital_contract.sol\":2518:2531  _contractHash */\n      dup3\n        /* \"digital_contract.sol\":2512:2539  bytes(_contractHash).length */\n      mload\n        /* \"digital_contract.sol\":2512:2545  bytes(_contractHash).length == 66 */\n      eq\n        /* \"digital_contract.sol\":2504:2571  require(bytes(_contractHash).length == 66, \"Invalid contract hash\") */\n      tag_210\n      jumpi\n      mload(0x40)\n      0x08c379a000000000000000000000000000000000000000000000000000000000\n      dup2\n      mstore\n      0x04\n      add\n      tag_211\n      swap1\n      tag_212\n      jump\t// in\n    tag_211:\n      mload(0x40)\n      dup1\n      swap2\n      sub\n      swap1\n      revert\n    tag_210:\n        /* \"digital_contract.sol\":2584:2599  contractCounter */\n      0x03\n      0x00\n        /* \"digital_contract.sol\":2584:2601  contractCounter++ */\n      dup2\n      sload\n      dup1\n      swap3\n      swap2\n      swap1\n      tag_213\n      swap1\n      tag_214\n      jump\t// in\n    tag_213:\n      swap2\n      swap1\n      pop\n      sstore\n      pop\n        /* \"digital_contract.sol\":2612:2647  ManagedContract storage newContract */\n      0x00\n        /* \"digital_contract.sol\":2650:2659  contracts */\n      0x02\n        /* \"digital_contract.sol\":2650:2676  contracts[contractCounter] */\n      0x00\n        /* \"digital_contract.sol\":2660:2675  contractCounter */\n      sload(0x03)\n        /* \"digital_contract.sol\":2650:2676  contracts[contractCounter] */\n      dup2\n      mstore\n      0x20\n      add\n      swap1\n      dup2\n      mstore\n      0x20\n      add\n      0x00\n      keccak256\n        /* \"digital_contract.sol\":2612:2676  ManagedContract storage newContract = contracts[contractCounter] */\n      swap1\n      pop\n        /* \"digital_contract.sol\":2704:2719  contractCounter */\n      sload(0x03)\n        /* \"digital_contract.sol\":2687:2698  newContract */\n      dup2\n        /* \"digital_contract.sol\":2687:2701  newContract.id */\n      0x00\n      add\n        /* \"digital_contract.sol\":2687:2719  newContract.id = contractCounter */\n      dup2\n      swap1\n      sstore\n      pop\n        /* \"digital_contract.sol\":2751:2758  _amount */\n      dup2\n        /* \"digital_contract.sol\":2730:2741  newContract */\n      dup2\n        /* \"digital_contract.sol\":2730:2748  newContract.amount */\n      0x01\n      add\n        /* \"digital_contract.sol\":2730:2758  newContract.amount = _amount */\n      dup2\n      swap1\n      sstore\n      pop\n        /* \"digital_contract.sol\":2799:2809  msg.sender */\n      caller\n        /* \"digital_contract.sol\":2769:2780  newContract */\n      dup2\n        /* \"digital_contract.sol\":2769:2788  newContract.creator */\n      0x02\n      add\n      0x00\n        /* \"digital_contract.sol\":2769:2810  newContract.creator = payable(msg.sender) */\n      0x0100\n      exp\n      dup2\n      sload\n      dup2\n      0xffffffffffffffffffffffffffffffffffffffff\n      mul\n      not\n      and\n      swap1\n      dup4\n      0xffffffffffffffffffffffffffffffffffffffff\n      and\n      mul\n      or\n      swap1\n      sstore\n      pop\n        /* \"digital_contract.sol\":2848:2861  _counterparty */\n      dup4\n        /* \"digital_contract.sol\":2821:2832  newContract */\n      dup2\n        /* \"digital_contract.sol\":2821:2845  newContract.counterparty */\n      0x03\n      add\n      0x00\n        /* \"digital_contract.sol\":2821:2861  newContract.counterparty = _counterparty */\n      0x0100\n      exp\n      dup2\n      sload\n      dup2\n      0xffffffffffffffffffffffffffffffffffffffff\n      mul\n      not\n      and\n      swap1\n      dup4\n      0xffffffffffffffffffffffffffffffffffffffff\n      and\n      mul\n      or\n      swap1\n      sstore\n      pop\n        /* \"digital_contract.sol\":2893:2915  ContractStatus.Created */\n      0x00\n        /* \"digital_contract.sol\":2872:2883  newContract */\n      dup2\n        /* \"digital_contract.sol\":2872:2890  newContract.status */\n      0x03\n      add\n      0x14\n        /* \"digital_contract.sol\":2872:2915  newContract.status = ContractStatus.Created */\n      0x0100\n      exp\n      dup2\n      sload\n      dup2\n      0xff\n      mul\n      not\n      and\n      swap1\n      dup4\n      0x07\n      dup2\n      gt\n      iszero\n      tag_215\n      jumpi\n      tag_216\n      tag_105\n      jump\t// in\n    tag_216:\n    tag_215:\n      mul\n      or\n      swap1\n      sstore\n      pop\n        /* \"digital_contract.sol\":2953:2966  _contractHash */\n      dup3\n        /* \"digital_contract.sol\":2926:2937  newContract */\n      dup2\n        /* \"digital_contract.sol\":2926:2950  newContract.contractHash */\n      0x04\n      add\n        /* \"digital_contract.sol\":2926:2966  newContract.contractHash = _contractHash */\n      swap1\n      dup2\n      tag_217\n      swap2\n      swap1\n      tag_136\n      jump\t// in\n    tag_217:\n      pop\n        /* \"digital_contract.sol\":3000:3015  contractCounter */\n      sload(0x03)\n        /* \"digital_contract.sol\":2984:3043  ContractCreated(contractCounter, msg.sender, _counterparty) */\n      0x56560a52c047ed21fd801bf0f345b23d9af696f7922ff8e63101af5d48caddab\n        /* \"digital_contract.sol\":3017:3027  msg.sender */\n      caller\n        /* \"digital_contract.sol\":3029:3042  _counterparty */\n      dup7\n        /* \"digital_contract.sol\":2984:3043  ContractCreated(contractCounter, msg.sender, _counterparty) */\n      mload(0x40)\n      tag_218\n      swap3\n      swap2\n      swap1\n      tag_219\n      jump\t// in\n    tag_218:\n      mload(0x40)\n      dup1\n      swap2\n      sub\n      swap1\n      log2\n        /* \"digital_contract.sol\":2368:3051  {... */\n      pop\n        /* \"digital_contract.sol\":2218:3051  function createContract(... */\n      pop\n      pop\n      pop\n      jump\t// out\n        /* \"digital_contract.sol\":4012:4619  function confirmDeliveryByOracle(uint256 _contractId, string memory _trackingNumber) public nonReentrant onlyOracle {... */\n    tag_83:\n        /* \"@openzeppelin/contracts/security/ReentrancyGuard.sol\":2261:2282  _nonReentrantBefore() */\n      tag_221\n        /* \"@openzeppelin/contracts/security/ReentrancyGuard.sol\":2261:2280  _nonReentrantBefore */\n      tag_222\n        /* \"@openzeppelin/contracts/security/ReentrancyGuard.sol\":2261:2282  _nonReentrantBefore() */\n      jump\t// in\n    tag_221:\n        /* \"digital_contract.sol\":1909:1915  oracle */\n      0x01\n      0x00\n      swap1\n      sload\n      swap1\n      0x0100\n      exp\n      swap1\n      div\n      0xffffffffffffffffffffffffffffffffffffffff\n      and\n        /* \"digital_contract.sol\":1895:1915  msg.sender == oracle */\n      0xffffffffffffffffffffffffffffffffffffffff\n      and\n        /* \"digital_contract.sol\":1895:1905  msg.sender */\n      caller\n        /* \"digital_contract.sol\":1895:1915  msg.sender == oracle */\n      0xffffffffffffffffffffffffffffffffffffffff\n      and\n      eq\n        /* \"digital_contract.sol\":1887:1930  require(msg.sender == oracle, \"Not oracle\") */\n      tag_224\n      jumpi\n      mload(0x40)\n      0x08c379a000000000000000000000000000000000000000000000000000000000\n      dup2\n      mstore\n      0x04\n      add\n      tag_225\n      swap1\n      tag_226\n      jump\t// in\n    tag_225:\n      mload(0x40)\n      dup1\n      swap2\n      sub\n      swap1\n      revert\n    tag_224:\n        /* \"digital_contract.sol\":4139:4172  ManagedContract storage mContract */\n      0x00\n        /* \"digital_contract.sol\":4175:4184  contracts */\n      0x02\n        /* \"digital_contract.sol\":4175:4197  contracts[_contractId] */\n      0x00\n        /* \"digital_contract.sol\":4185:4196  _contractId */\n      dup5\n        /* \"digital_contract.sol\":4175:4197  contracts[_contractId] */\n      dup2\n      mstore\n      0x20\n      add\n      swap1\n      dup2\n      mstore\n      0x20\n      add\n      0x00\n      keccak256\n        /* \"digital_contract.sol\":4139:4197  ManagedContract storage mContract = contracts[_contractId] */\n      swap1\n      pop\n        /* \"digital_contract.sol\":4236:4262  ContractStatus.DeliverySet */\n      0x02\n        /* \"digital_contract.sol\":4216:4262  mContract.status == ContractStatus.DeliverySet */\n      0x07\n      dup2\n      gt\n      iszero\n      tag_228\n      jumpi\n      tag_229\n      tag_105\n      jump\t// in\n    tag_229:\n    tag_228:\n        /* \"digital_contract.sol\":4216:4225  mContract */\n      dup2\n        /* \"digital_contract.sol\":4216:4232  mContract.status */\n      0x03\n      add\n      0x14\n      swap1\n      sload\n      swap1\n      0x0100\n      exp\n      swap1\n      div\n      0xff\n      and\n        /* \"digital_contract.sol\":4216:4262  mContract.status == ContractStatus.DeliverySet */\n      0x07\n      dup2\n      gt\n      iszero\n      tag_230\n      jumpi\n      tag_231\n      tag_105\n      jump\t// in\n    tag_231:\n    tag_230:\n      eq\n        /* \"digital_contract.sol\":4208:4279  require(mContract.status == ContractStatus.DeliverySet, \"Wrong status\") */\n      tag_232\n      jumpi\n      mload(0x40)\n      0x08c379a000000000000000000000000000000000000000000000000000000000\n      dup2\n      mstore\n      0x04\n      add\n      tag_233\n      swap1\n      tag_110\n      jump\t// in\n    tag_233:\n      mload(0x40)\n      dup1\n      swap2\n      sub\n      swap1\n      revert\n    tag_232:\n        /* \"digital_contract.sol\":4298:4307  mContract */\n      dup1\n        /* \"digital_contract.sol\":4298:4324  mContract.deliveryRequired */\n      0x06\n      add\n      0x00\n      swap1\n      sload\n      swap1\n      0x0100\n      exp\n      swap1\n      div\n      0xff\n      and\n        /* \"digital_contract.sol\":4290:4340  require(mContract.deliveryRequired, \"No delivery\") */\n      tag_234\n      jumpi\n      mload(0x40)\n      0x08c379a000000000000000000000000000000000000000000000000000000000\n      dup2\n      mstore\n      0x04\n      add\n      tag_235\n      swap1\n      tag_236\n      jump\t// in\n    tag_235:\n      mload(0x40)\n      dup1\n      swap2\n      sub\n      swap1\n      revert\n    tag_234:\n        /* \"digital_contract.sol\":4430:4441  _contractId */\n      dup3\n        /* \"digital_contract.sol\":4443:4458  _trackingNumber */\n      dup3\n        /* \"digital_contract.sol\":4419:4459  abi.encode(_contractId, _trackingNumber) */\n      add(0x20, mload(0x40))\n      tag_237\n      swap3\n      swap2\n      swap1\n      tag_160\n      jump\t// in\n    tag_237:\n      mload(0x40)\n      0x20\n      dup2\n      dup4\n      sub\n      sub\n      dup2\n      mstore\n      swap1\n      0x40\n      mstore\n        /* \"digital_contract.sol\":4409:4460  keccak256(abi.encode(_contractId, _trackingNumber)) */\n      dup1\n      mload\n      swap1\n      0x20\n      add\n      keccak256\n        /* \"digital_contract.sol\":4375:4384  mContract */\n      dup2\n        /* \"digital_contract.sol\":4375:4405  mContract.deliveryTrackingHash */\n      0x05\n      add\n      sload\n        /* \"digital_contract.sol\":4375:4460  mContract.deliveryTrackingHash == keccak256(abi.encode(_contractId, _trackingNumber)) */\n      eq\n        /* \"digital_contract.sol\":4353:4501  require(... */\n      tag_238\n      jumpi\n      mload(0x40)\n      0x08c379a000000000000000000000000000000000000000000000000000000000\n      dup2\n      mstore\n      0x04\n      add\n      tag_239\n      swap1\n      tag_240\n      jump\t// in\n    tag_239:\n      mload(0x40)\n      dup1\n      swap2\n      sub\n      swap1\n      revert\n    tag_238:\n        /* \"digital_contract.sol\":4533:4565  ContractStatus.DeliveryConfirmed */\n      0x03\n        /* \"digital_contract.sol\":4514:4523  mContract */\n      dup2\n        /* \"digital_contract.sol\":4514:4530  mContract.status */\n      0x03\n      add\n      0x14\n        /* \"digital_contract.sol\":4514:4565  mContract.status = ContractStatus.DeliveryConfirmed */\n      0x0100\n      exp\n      dup2\n      sload\n      dup2\n      0xff\n      mul\n      not\n      and\n      swap1\n      dup4\n      0x07\n      dup2\n      gt\n      iszero\n      tag_241\n      jumpi\n      tag_242\n      tag_105\n      jump\t// in\n    tag_242:\n    tag_241:\n      mul\n      or\n      swap1\n      sstore\n      pop\n        /* \"digital_contract.sol\":4599:4610  _contractId */\n      dup3\n        /* \"digital_contract.sol\":4581:4611  DeliveryConfirmed(_contractId) */\n      0x375b4005eeae25d0e37d56e1b3841d3bb394b277efa2548de3293f5dcb7a3493\n      mload(0x40)\n      mload(0x40)\n      dup1\n      swap2\n      sub\n      swap1\n      log2\n        /* \"digital_contract.sol\":4128:4619  {... */\n      pop\n        /* \"@openzeppelin/contracts/security/ReentrancyGuard.sol\":2303:2323  _nonReentrantAfter() */\n      tag_243\n        /* \"@openzeppelin/contracts/security/ReentrancyGuard.sol\":2303:2321  _nonReentrantAfter */\n      tag_244\n        /* \"@openzeppelin/contracts/security/ReentrancyGuard.sol\":2303:2323  _nonReentrantAfter() */\n      jump\t// in\n    tag_243:\n        /* \"digital_contract.sol\":4012:4619  function confirmDeliveryByOracle(uint256 _contractId, string memory _trackingNumber) public nonReentrant onlyOracle {... */\n      pop\n      pop\n      jump\t// out\n        /* \"digital_contract.sol\":5695:6409  function withdrawFundsFrom(uint256 _contractId) public nonReentrant onlyCounterparty(_contractId) {... */\n    tag_87:\n        /* \"@openzeppelin/contracts/security/ReentrancyGuard.sol\":2261:2282  _nonReentrantBefore() */\n      tag_246\n        /* \"@openzeppelin/contracts/security/ReentrancyGuard.sol\":2261:2280  _nonReentrantBefore */\n      tag_222\n        /* \"@openzeppelin/contracts/security/ReentrancyGuard.sol\":2261:2282  _nonReentrantBefore() */\n      jump\t// in\n    tag_246:\n        /* \"digital_contract.sol\":5780:5791  _contractId */\n      dup1\n        /* \"digital_contract.sol\":1770:1779  contracts */\n      0x02\n        /* \"digital_contract.sol\":1770:1792  contracts[_contractId] */\n      0x00\n        /* \"digital_contract.sol\":1780:1791  _contractId */\n      dup3\n        /* \"digital_contract.sol\":1770:1792  contracts[_contractId] */\n      dup2\n      mstore\n      0x20\n      add\n      swap1\n      dup2\n      mstore\n      0x20\n      add\n      0x00\n      keccak256\n        /* \"digital_contract.sol\":1770:1805  contracts[_contractId].counterparty */\n      0x03\n      add\n      0x00\n      swap1\n      sload\n      swap1\n      0x0100\n      exp\n      swap1\n      div\n      0xffffffffffffffffffffffffffffffffffffffff\n      and\n        /* \"digital_contract.sol\":1756:1805  msg.sender == contracts[_contractId].counterparty */\n      0xffffffffffffffffffffffffffffffffffffffff\n      and\n        /* \"digital_contract.sol\":1756:1766  msg.sender */\n      caller\n        /* \"digital_contract.sol\":1756:1805  msg.sender == contracts[_contractId].counterparty */\n      0xffffffffffffffffffffffffffffffffffffffff\n      and\n      eq\n        /* \"digital_contract.sol\":1748:1826  require(msg.sender == contracts[_contractId].counterparty, \"Not counterparty\") */\n      tag_248\n      jumpi\n      mload(0x40)\n      0x08c379a000000000000000000000000000000000000000000000000000000000\n      dup2\n      mstore\n      0x04\n      add\n      tag_249\n      swap1\n      tag_147\n      jump\t// in\n    tag_249:\n      mload(0x40)\n      dup1\n      swap2\n      sub\n      swap1\n      revert\n    tag_248:\n        /* \"digital_contract.sol\":5804:5837  ManagedContract storage mContract */\n      0x00\n        /* \"digital_contract.sol\":5840:5849  contracts */\n      0x02\n        /* \"digital_contract.sol\":5840:5862  contracts[_contractId] */\n      0x00\n        /* \"digital_contract.sol\":5850:5861  _contractId */\n      dup5\n        /* \"digital_contract.sol\":5840:5862  contracts[_contractId] */\n      dup2\n      mstore\n      0x20\n      add\n      swap1\n      dup2\n      mstore\n      0x20\n      add\n      0x00\n      keccak256\n        /* \"digital_contract.sol\":5804:5862  ManagedContract storage mContract = contracts[_contractId] */\n      swap1\n      pop\n        /* \"digital_contract.sol\":5915:5948  ContractStatus.AgreementFulfilled */\n      0x05\n        /* \"digital_contract.sol\":5895:5948  mContract.status == ContractStatus.AgreementFulfilled */\n      0x07\n      dup2\n      gt\n      iszero\n      tag_251\n      jumpi\n      tag_252\n      tag_105\n      jump\t// in\n    tag_252:\n    tag_251:\n        /* \"digital_contract.sol\":5895:5904  mContract */\n      dup2\n        /* \"digital_contract.sol\":5895:5911  mContract.status */\n      0x03\n      add\n      0x14\n      swap1\n      sload\n      swap1\n      0x0100\n      exp\n      swap1\n      div\n      0xff\n      and\n        /* \"digital_contract.sol\":5895:5948  mContract.status == ContractStatus.AgreementFulfilled */\n      0x07\n      dup2\n      gt\n      iszero\n      tag_253\n      jumpi\n      tag_254\n      tag_105\n      jump\t// in\n    tag_254:\n    tag_253:\n      eq\n        /* \"digital_contract.sol\":5895:6016  mContract.status == ContractStatus.AgreementFulfilled ||... */\n      dup1\n      tag_255\n      jumpi\n      pop\n        /* \"digital_contract.sol\":5985:6016  ContractStatus.DeliveryApproved */\n      0x04\n        /* \"digital_contract.sol\":5965:6016  mContract.status == ContractStatus.DeliveryApproved */\n      0x07\n      dup2\n      gt\n      iszero\n      tag_256\n      jumpi\n      tag_257\n      tag_105\n      jump\t// in\n    tag_257:\n    tag_256:\n        /* \"digital_contract.sol\":5965:5974  mContract */\n      dup2\n        /* \"digital_contract.sol\":5965:5981  mContract.status */\n      0x03\n      add\n      0x14\n      swap1\n      sload\n      swap1\n      0x0100\n      exp\n      swap1\n      div\n      0xff\n      and\n        /* \"digital_contract.sol\":5965:6016  mContract.status == ContractStatus.DeliveryApproved */\n      0x07\n      dup2\n      gt\n      iszero\n      tag_258\n      jumpi\n      tag_259\n      tag_105\n      jump\t// in\n    tag_259:\n    tag_258:\n      eq\n        /* \"digital_contract.sol\":5895:6016  mContract.status == ContractStatus.AgreementFulfilled ||... */\n    tag_255:\n        /* \"digital_contract.sol\":5873:6060  require(... */\n      tag_260\n      jumpi\n      mload(0x40)\n      0x08c379a000000000000000000000000000000000000000000000000000000000\n      dup2\n      mstore\n      0x04\n      add\n      tag_261\n      swap1\n      tag_262\n      jump\t// in\n    tag_261:\n      mload(0x40)\n      dup1\n      swap2\n      sub\n      swap1\n      revert\n    tag_260:\n        /* \"digital_contract.sol\":6073:6087  uint256 amount */\n      0x00\n        /* \"digital_contract.sol\":6090:6099  mContract */\n      dup2\n        /* \"digital_contract.sol\":6090:6106  mContract.amount */\n      0x01\n      add\n      sload\n        /* \"digital_contract.sol\":6073:6106  uint256 amount = mContract.amount */\n      swap1\n      pop\n        /* \"digital_contract.sol\":6159:6165  amount */\n      dup1\n        /* \"digital_contract.sol\":6125:6143  pendingWithdrawals */\n      0x04\n        /* \"digital_contract.sol\":6125:6155  pendingWithdrawals[msg.sender] */\n      0x00\n        /* \"digital_contract.sol\":6144:6154  msg.sender */\n      caller\n        /* \"digital_contract.sol\":6125:6155  pendingWithdrawals[msg.sender] */\n      0xffffffffffffffffffffffffffffffffffffffff\n      and\n      0xffffffffffffffffffffffffffffffffffffffff\n      and\n      dup2\n      mstore\n      0x20\n      add\n      swap1\n      dup2\n      mstore\n      0x20\n      add\n      0x00\n      keccak256\n      sload\n        /* \"digital_contract.sol\":6125:6165  pendingWithdrawals[msg.sender] >= amount */\n      lt\n      iszero\n        /* \"digital_contract.sol\":6117:6180  require(pendingWithdrawals[msg.sender] >= amount, \"No balance\") */\n      tag_263\n      jumpi\n      mload(0x40)\n      0x08c379a000000000000000000000000000000000000000000000000000000000\n      dup2\n      mstore\n      0x04\n      add\n      tag_264\n      swap1\n      tag_265\n      jump\t// in\n    tag_264:\n      mload(0x40)\n      dup1\n      swap2\n      sub\n      swap1\n      revert\n    tag_263:\n        /* \"digital_contract.sol\":6227:6233  amount */\n      dup1\n        /* \"digital_contract.sol\":6193:6211  pendingWithdrawals */\n      0x04\n        /* \"digital_contract.sol\":6193:6223  pendingWithdrawals[msg.sender] */\n      0x00\n        /* \"digital_contract.sol\":6212:6222  msg.sender */\n      caller\n        /* \"digital_contract.sol\":6193:6223  pendingWithdrawals[msg.sender] */\n      0xffffffffffffffffffffffffffffffffffffffff\n      and\n      0xffffffffffffffffffffffffffffffffffffffff\n      and\n      dup2\n      mstore\n      0x20\n      add\n      swap1\n      dup2\n      mstore\n      0x20\n      add\n      0x00\n      keccak256\n      0x00\n        /* \"digital_contract.sol\":6193:6233  pendingWithdrawals[msg.sender] -= amount */\n      dup3\n      dup3\n      sload\n      tag_266\n      swap2\n      swap1\n      tag_267\n      jump\t// in\n    tag_266:\n      swap3\n      pop\n      pop\n      dup2\n      swap1\n      sstore\n      pop\n        /* \"digital_contract.sol\":6252:6262  msg.sender */\n      caller\n        /* \"digital_contract.sol\":6244:6272  payable(msg.sender).transfer */\n      0xffffffffffffffffffffffffffffffffffffffff\n      and\n        /* \"digital_contract.sol\":6244:6280  payable(msg.sender).transfer(amount) */\n      0x08fc\n        /* \"digital_contract.sol\":6273:6279  amount */\n      dup3\n        /* \"digital_contract.sol\":6244:6280  payable(msg.sender).transfer(amount) */\n      swap1\n      dup2\n      iszero\n      mul\n      swap1\n      mload(0x40)\n      0x00\n      mload(0x40)\n      dup1\n      dup4\n      sub\n      dup2\n      dup6\n      dup9\n      dup9\n      call\n      swap4\n      pop\n      pop\n      pop\n      pop\n      iszero\n      dup1\n      iszero\n      tag_269\n      jumpi\n      returndatacopy(0x00, 0x00, returndatasize)\n      revert(0x00, returndatasize)\n    tag_269:\n      pop\n        /* \"digital_contract.sol\":6312:6336  ContractStatus.Completed */\n      0x06\n        /* \"digital_contract.sol\":6293:6302  mContract */\n      dup3\n        /* \"digital_contract.sol\":6293:6309  mContract.status */\n      0x03\n      add\n      0x14\n        /* \"digital_contract.sol\":6293:6336  mContract.status = ContractStatus.Completed */\n      0x0100\n      exp\n      dup2\n      sload\n      dup2\n      0xff\n      mul\n      not\n      and\n      swap1\n      dup4\n      0x07\n      dup2\n      gt\n      iszero\n      tag_270\n      jumpi\n      tag_271\n      tag_105\n      jump\t// in\n    tag_271:\n    tag_270:\n      mul\n      or\n      swap1\n      sstore\n      pop\n        /* \"digital_contract.sol\":6382:6392  msg.sender */\n      caller\n        /* \"digital_contract.sol\":6354:6401  FundsWithdrawn(_contractId, msg.sender, amount) */\n      0xffffffffffffffffffffffffffffffffffffffff\n      and\n        /* \"digital_contract.sol\":6369:6380  _contractId */\n      dup5\n        /* \"digital_contract.sol\":6354:6401  FundsWithdrawn(_contractId, msg.sender, amount) */\n      0xf440aec6b52895984d061d622e6edeba6210f7c3e059be920663140c084560d7\n        /* \"digital_contract.sol\":6394:6400  amount */\n      dup4\n        /* \"digital_contract.sol\":6354:6401  FundsWithdrawn(_contractId, msg.sender, amount) */\n      mload(0x40)\n      tag_272\n      swap2\n      swap1\n      tag_30\n      jump\t// in\n    tag_272:\n      mload(0x40)\n      dup1\n      swap2\n      sub\n      swap1\n      log3\n        /* \"digital_contract.sol\":5793:6409  {... */\n      pop\n      pop\n        /* \"@openzeppelin/contracts/security/ReentrancyGuard.sol\":2292:2293  _ */\n      pop\n        /* \"@openzeppelin/contracts/security/ReentrancyGuard.sol\":2303:2323  _nonReentrantAfter() */\n      tag_273\n        /* \"@openzeppelin/contracts/security/ReentrancyGuard.sol\":2303:2321  _nonReentrantAfter */\n      tag_244\n        /* \"@openzeppelin/contracts/security/ReentrancyGuard.sol\":2303:2323  _nonReentrantAfter() */\n      jump\t// in\n    tag_273:\n        /* \"digital_contract.sol\":5695:6409  function withdrawFundsFrom(uint256 _contractId) public nonReentrant onlyCounterparty(_contractId) {... */\n      pop\n      jump\t// out\n        /* \"digital_contract.sol\":712:733  bool public oracleSet */\n    tag_90:\n      0x01\n      0x14\n      swap1\n      sload\n      swap1\n      0x0100\n      exp\n      swap1\n      div\n      0xff\n      and\n      dup2\n      jump\t// out\n        /* \"digital_contract.sol\":840:893  mapping(address => uint256) public pendingWithdrawals */\n    tag_96:\n      mstore(0x20, 0x04)\n      dup1\n      0x00\n      mstore\n      keccak256(0x00, 0x40)\n      0x00\n      swap2\n      pop\n      swap1\n      pop\n      sload\n      dup2\n      jump\t// out\n        /* \"@openzeppelin/contracts/security/ReentrancyGuard.sol\":2336:2623  function _nonReentrantBefore() private {... */\n    tag_222:\n        /* \"@openzeppelin/contracts/security/ReentrancyGuard.sol\":1759:1760  2 */\n      0x02\n        /* \"@openzeppelin/contracts/security/ReentrancyGuard.sol\":2468:2475  _status */\n      sload(0x00)\n        /* \"@openzeppelin/contracts/security/ReentrancyGuard.sol\":2468:2487  _status != _ENTERED */\n      sub\n        /* \"@openzeppelin/contracts/security/ReentrancyGuard.sol\":2460:2523  require(_status != _ENTERED, \"ReentrancyGuard: reentrant call\") */\n      tag_275\n      jumpi\n      mload(0x40)\n      0x08c379a000000000000000000000000000000000000000000000000000000000\n      dup2\n      mstore\n      0x04\n      add\n      tag_276\n      swap1\n      tag_277\n      jump\t// in\n    tag_276:\n      mload(0x40)\n      dup1\n      swap2\n      sub\n      swap1\n      revert\n    tag_275:\n        /* \"@openzeppelin/contracts/security/ReentrancyGuard.sol\":1759:1760  2 */\n      0x02\n        /* \"@openzeppelin/contracts/security/ReentrancyGuard.sol\":2598:2605  _status */\n      0x00\n        /* \"@openzeppelin/contracts/security/ReentrancyGuard.sol\":2598:2616  _status = _ENTERED */\n      dup2\n      swap1\n      sstore\n      pop\n        /* \"@openzeppelin/contracts/security/ReentrancyGuard.sol\":2336:2623  function _nonReentrantBefore() private {... */\n      jump\t// out\n        /* \"@openzeppelin/contracts/security/ReentrancyGuard.sol\":2629:2838  function _nonReentrantAfter() private {... */\n    tag_244:\n        /* \"@openzeppelin/contracts/security/ReentrancyGuard.sol\":1716:1717  1 */\n      0x01\n        /* \"@openzeppelin/contracts/security/ReentrancyGuard.sol\":2809:2816  _status */\n      0x00\n        /* \"@openzeppelin/contracts/security/ReentrancyGuard.sol\":2809:2831  _status = _NOT_ENTERED */\n      dup2\n      swap1\n      sstore\n      pop\n        /* \"@openzeppelin/contracts/security/ReentrancyGuard.sol\":2629:2838  function _nonReentrantAfter() private {... */\n      jump\t// out\n        /* \"#utility.yul\":7:82   */\n    tag_279:\n        /* \"#utility.yul\":40:46   */\n      0x00\n        /* \"#utility.yul\":73:75   */\n      0x40\n        /* \"#utility.yul\":67:76   */\n      mload\n        /* \"#utility.yul\":57:76   */\n      swap1\n      pop\n        /* \"#utility.yul\":7:82   */\n      swap1\n      jump\t// out\n        /* \"#utility.yul\":88:205   */\n    tag_280:\n        /* \"#utility.yul\":197:198   */\n      0x00\n        /* \"#utility.yul\":194:195   */\n      0x00\n        /* \"#utility.yul\":187:199   */\n      revert\n        /* \"#utility.yul\":211:328   */\n    tag_281:\n        /* \"#utility.yul\":320:321   */\n      0x00\n        /* \"#utility.yul\":317:318   */\n      0x00\n        /* \"#utility.yul\":310:322   */\n      revert\n        /* \"#utility.yul\":334:411   */\n    tag_282:\n        /* \"#utility.yul\":371:378   */\n      0x00\n        /* \"#utility.yul\":400:405   */\n      dup2\n        /* \"#utility.yul\":389:405   */\n      swap1\n      pop\n        /* \"#utility.yul\":334:411   */\n      swap2\n      swap1\n      pop\n      jump\t// out\n        /* \"#utility.yul\":417:539   */\n    tag_283:\n        /* \"#utility.yul\":490:514   */\n      tag_384\n        /* \"#utility.yul\":508:513   */\n      dup2\n        /* \"#utility.yul\":490:514   */\n      tag_282\n      jump\t// in\n    tag_384:\n        /* \"#utility.yul\":483:488   */\n      dup2\n        /* \"#utility.yul\":480:515   */\n      eq\n        /* \"#utility.yul\":470:533   */\n      tag_385\n      jumpi\n        /* \"#utility.yul\":529:530   */\n      0x00\n        /* \"#utility.yul\":526:527   */\n      0x00\n        /* \"#utility.yul\":519:531   */\n      revert\n        /* \"#utility.yul\":470:533   */\n    tag_385:\n        /* \"#utility.yul\":417:539   */\n      pop\n      jump\t// out\n        /* \"#utility.yul\":545:684   */\n    tag_284:\n        /* \"#utility.yul\":591:596   */\n      0x00\n        /* \"#utility.yul\":629:635   */\n      dup2\n        /* \"#utility.yul\":616:636   */\n      calldataload\n        /* \"#utility.yul\":607:636   */\n      swap1\n      pop\n        /* \"#utility.yul\":645:678   */\n      tag_387\n        /* \"#utility.yul\":672:677   */\n      dup2\n        /* \"#utility.yul\":645:678   */\n      tag_283\n      jump\t// in\n    tag_387:\n        /* \"#utility.yul\":545:684   */\n      swap3\n      swap2\n      pop\n      pop\n      jump\t// out\n        /* \"#utility.yul\":690:1019   */\n    tag_24:\n        /* \"#utility.yul\":749:755   */\n      0x00\n        /* \"#utility.yul\":798:800   */\n      0x20\n        /* \"#utility.yul\":786:795   */\n      dup3\n        /* \"#utility.yul\":777:784   */\n      dup5\n        /* \"#utility.yul\":773:796   */\n      sub\n        /* \"#utility.yul\":769:801   */\n      slt\n        /* \"#utility.yul\":766:885   */\n      iszero\n      tag_389\n      jumpi\n        /* \"#utility.yul\":804:883   */\n      tag_390\n      tag_280\n      jump\t// in\n    tag_390:\n        /* \"#utility.yul\":766:885   */\n    tag_389:\n        /* \"#utility.yul\":924:925   */\n      0x00\n        /* \"#utility.yul\":949:1002   */\n      tag_391\n        /* \"#utility.yul\":994:1001   */\n      dup5\n        /* \"#utility.yul\":985:991   */\n      dup3\n        /* \"#utility.yul\":974:983   */\n      dup6\n        /* \"#utility.yul\":970:992   */\n      add\n        /* \"#utility.yul\":949:1002   */\n      tag_284\n      jump\t// in\n    tag_391:\n        /* \"#utility.yul\":939:1002   */\n      swap2\n      pop\n        /* \"#utility.yul\":895:1012   */\n      pop\n        /* \"#utility.yul\":690:1019   */\n      swap3\n      swap2\n      pop\n      pop\n      jump\t// out\n        /* \"#utility.yul\":1025:1143   */\n    tag_285:\n        /* \"#utility.yul\":1112:1136   */\n      tag_393\n        /* \"#utility.yul\":1130:1135   */\n      dup2\n        /* \"#utility.yul\":1112:1136   */\n      tag_282\n      jump\t// in\n    tag_393:\n        /* \"#utility.yul\":1107:1110   */\n      dup3\n        /* \"#utility.yul\":1100:1137   */\n      mstore\n        /* \"#utility.yul\":1025:1143   */\n      pop\n      pop\n      jump\t// out\n        /* \"#utility.yul\":1149:1371   */\n    tag_30:\n        /* \"#utility.yul\":1242:1246   */\n      0x00\n        /* \"#utility.yul\":1280:1282   */\n      0x20\n        /* \"#utility.yul\":1269:1278   */\n      dup3\n        /* \"#utility.yul\":1265:1283   */\n      add\n        /* \"#utility.yul\":1257:1283   */\n      swap1\n      pop\n        /* \"#utility.yul\":1293:1364   */\n      tag_395\n        /* \"#utility.yul\":1361:1362   */\n      0x00\n        /* \"#utility.yul\":1350:1359   */\n      dup4\n        /* \"#utility.yul\":1346:1363   */\n      add\n        /* \"#utility.yul\":1337:1343   */\n      dup5\n        /* \"#utility.yul\":1293:1364   */\n      tag_285\n      jump\t// in\n    tag_395:\n        /* \"#utility.yul\":1149:1371   */\n      swap3\n      swap2\n      pop\n      pop\n      jump\t// out\n        /* \"#utility.yul\":1377:1476   */\n    tag_286:\n        /* \"#utility.yul\":1429:1435   */\n      0x00\n        /* \"#utility.yul\":1463:1468   */\n      dup2\n        /* \"#utility.yul\":1457:1469   */\n      mload\n        /* \"#utility.yul\":1447:1469   */\n      swap1\n      pop\n        /* \"#utility.yul\":1377:1476   */\n      swap2\n      swap1\n      pop\n      jump\t// out\n        /* \"#utility.yul\":1482:1651   */\n    tag_287:\n        /* \"#utility.yul\":1566:1577   */\n      0x00\n        /* \"#utility.yul\":1600:1606   */\n      dup3\n        /* \"#utility.yul\":1595:1598   */\n      dup3\n        /* \"#utility.yul\":1588:1607   */\n      mstore\n        /* \"#utility.yul\":1640:1644   */\n      0x20\n        /* \"#utility.yul\":1635:1638   */\n      dup3\n        /* \"#utility.yul\":1631:1645   */\n      add\n        /* \"#utility.yul\":1616:1645   */\n      swap1\n      pop\n        /* \"#utility.yul\":1482:1651   */\n      swap3\n      swap2\n      pop\n      pop\n      jump\t// out\n        /* \"#utility.yul\":1657:1796   */\n    tag_288:\n        /* \"#utility.yul\":1746:1752   */\n      dup3\n        /* \"#utility.yul\":1741:1744   */\n      dup2\n        /* \"#utility.yul\":1736:1739   */\n      dup4\n        /* \"#utility.yul\":1730:1753   */\n      mcopy\n        /* \"#utility.yul\":1787:1788   */\n      0x00\n        /* \"#utility.yul\":1778:1784   */\n      dup4\n        /* \"#utility.yul\":1773:1776   */\n      dup4\n        /* \"#utility.yul\":1769:1785   */\n      add\n        /* \"#utility.yul\":1762:1789   */\n      mstore\n        /* \"#utility.yul\":1657:1796   */\n      pop\n      pop\n      pop\n      jump\t// out\n        /* \"#utility.yul\":1802:1904   */\n    tag_289:\n        /* \"#utility.yul\":1843:1849   */\n      0x00\n        /* \"#utility.yul\":1894:1896   */\n      0x1f\n        /* \"#utility.yul\":1890:1897   */\n      not\n        /* \"#utility.yul\":1885:1887   */\n      0x1f\n        /* \"#utility.yul\":1878:1883   */\n      dup4\n        /* \"#utility.yul\":1874:1888   */\n      add\n        /* \"#utility.yul\":1870:1898   */\n      and\n        /* \"#utility.yul\":1860:1898   */\n      swap1\n      pop\n        /* \"#utility.yul\":1802:1904   */\n      swap2\n      swap1\n      pop\n      jump\t// out\n        /* \"#utility.yul\":1910:2287   */\n    tag_290:\n        /* \"#utility.yul\":1998:2001   */\n      0x00\n        /* \"#utility.yul\":2026:2065   */\n      tag_401\n        /* \"#utility.yul\":2059:2064   */\n      dup3\n        /* \"#utility.yul\":2026:2065   */\n      tag_286\n      jump\t// in\n    tag_401:\n        /* \"#utility.yul\":2081:2152   */\n      tag_402\n        /* \"#utility.yul\":2145:2151   */\n      dup2\n        /* \"#utility.yul\":2140:2143   */\n      dup6\n        /* \"#utility.yul\":2081:2152   */\n      tag_287\n      jump\t// in\n    tag_402:\n        /* \"#utility.yul\":2074:2152   */\n      swap4\n      pop\n        /* \"#utility.yul\":2161:2226   */\n      tag_403\n        /* \"#utility.yul\":2219:2225   */\n      dup2\n        /* \"#utility.yul\":2214:2217   */\n      dup6\n        /* \"#utility.yul\":2207:2211   */\n      0x20\n        /* \"#utility.yul\":2200:2205   */\n      dup7\n        /* \"#utility.yul\":2196:2212   */\n      add\n        /* \"#utility.yul\":2161:2226   */\n      tag_288\n      jump\t// in\n    tag_403:\n        /* \"#utility.yul\":2251:2280   */\n      tag_404\n        /* \"#utility.yul\":2273:2279   */\n      dup2\n        /* \"#utility.yul\":2251:2280   */\n      tag_289\n      jump\t// in\n    tag_404:\n        /* \"#utility.yul\":2246:2249   */\n      dup5\n        /* \"#utility.yul\":2242:2281   */\n      add\n        /* \"#utility.yul\":2235:2281   */\n      swap2\n      pop\n        /* \"#utility.yul\":2002:2287   */\n      pop\n        /* \"#utility.yul\":1910:2287   */\n      swap3\n      swap2\n      pop\n      pop\n      jump\t// out\n        /* \"#utility.yul\":2293:2606   */\n    tag_36:\n        /* \"#utility.yul\":2406:2410   */\n      0x00\n        /* \"#utility.yul\":2444:2446   */\n      0x20\n        /* \"#utility.yul\":2433:2442   */\n      dup3\n        /* \"#utility.yul\":2429:2447   */\n      add\n        /* \"#utility.yul\":2421:2447   */\n      swap1\n      pop\n        /* \"#utility.yul\":2493:2502   */\n      dup2\n        /* \"#utility.yul\":2487:2491   */\n      dup2\n        /* \"#utility.yul\":2483:2503   */\n      sub\n        /* \"#utility.yul\":2479:2480   */\n      0x00\n        /* \"#utility.yul\":2468:2477   */\n      dup4\n        /* \"#utility.yul\":2464:2481   */\n      add\n        /* \"#utility.yul\":2457:2504   */\n      mstore\n        /* \"#utility.yul\":2521:2599   */\n      tag_406\n        /* \"#utility.yul\":2594:2598   */\n      dup2\n        /* \"#utility.yul\":2585:2591   */\n      dup5\n        /* \"#utility.yul\":2521:2599   */\n      tag_290\n      jump\t// in\n    tag_406:\n        /* \"#utility.yul\":2513:2599   */\n      swap1\n      pop\n        /* \"#utility.yul\":2293:2606   */\n      swap3\n      swap2\n      pop\n      pop\n      jump\t// out\n        /* \"#utility.yul\":2612:2792   */\n    tag_105:\n        /* \"#utility.yul\":2660:2737   */\n      0x4e487b7100000000000000000000000000000000000000000000000000000000\n        /* \"#utility.yul\":2657:2658   */\n      0x00\n        /* \"#utility.yul\":2650:2738   */\n      mstore\n        /* \"#utility.yul\":2757:2761   */\n      0x21\n        /* \"#utility.yul\":2754:2755   */\n      0x04\n        /* \"#utility.yul\":2747:2762   */\n      mstore\n        /* \"#utility.yul\":2781:2785   */\n      0x24\n        /* \"#utility.yul\":2778:2779   */\n      0x00\n        /* \"#utility.yul\":2771:2786   */\n      revert\n        /* \"#utility.yul\":2798:2920   */\n    tag_291:\n        /* \"#utility.yul\":2888:2889   */\n      0x08\n        /* \"#utility.yul\":2881:2886   */\n      dup2\n        /* \"#utility.yul\":2878:2890   */\n      lt\n        /* \"#utility.yul\":2868:2914   */\n      tag_409\n      jumpi\n        /* \"#utility.yul\":2894:2912   */\n      tag_410\n      tag_105\n      jump\t// in\n    tag_410:\n        /* \"#utility.yul\":2868:2914   */\n    tag_409:\n        /* \"#utility.yul\":2798:2920   */\n      pop\n      jump\t// out\n        /* \"#utility.yul\":2926:3071   */\n    tag_292:\n        /* \"#utility.yul\":2980:2987   */\n      0x00\n        /* \"#utility.yul\":3009:3014   */\n      dup2\n        /* \"#utility.yul\":2998:3014   */\n      swap1\n      pop\n        /* \"#utility.yul\":3015:3065   */\n      tag_412\n        /* \"#utility.yul\":3059:3064   */\n      dup3\n        /* \"#utility.yul\":3015:3065   */\n      tag_291\n      jump\t// in\n    tag_412:\n        /* \"#utility.yul\":2926:3071   */\n      swap2\n      swap1\n      pop\n      jump\t// out\n        /* \"#utility.yul\":3077:3222   */\n    tag_293:\n        /* \"#utility.yul\":3142:3151   */\n      0x00\n        /* \"#utility.yul\":3175:3216   */\n      tag_414\n        /* \"#utility.yul\":3210:3215   */\n      dup3\n        /* \"#utility.yul\":3175:3216   */\n      tag_292\n      jump\t// in\n    tag_414:\n        /* \"#utility.yul\":3162:3216   */\n      swap1\n      pop\n        /* \"#utility.yul\":3077:3222   */\n      swap2\n      swap1\n      pop\n      jump\t// out\n        /* \"#utility.yul\":3228:3389   */\n    tag_294:\n        /* \"#utility.yul\":3330:3382   */\n      tag_416\n        /* \"#utility.yul\":3376:3381   */\n      dup2\n        /* \"#utility.yul\":3330:3382   */\n      tag_293\n      jump\t// in\n    tag_416:\n        /* \"#utility.yul\":3325:3328   */\n      dup3\n        /* \"#utility.yul\":3318:3383   */\n      mstore\n        /* \"#utility.yul\":3228:3389   */\n      pop\n      pop\n      jump\t// out\n        /* \"#utility.yul\":3395:3647   */\n    tag_42:\n        /* \"#utility.yul\":3503:3507   */\n      0x00\n        /* \"#utility.yul\":3541:3543   */\n      0x20\n        /* \"#utility.yul\":3530:3539   */\n      dup3\n        /* \"#utility.yul\":3526:3544   */\n      add\n        /* \"#utility.yul\":3518:3544   */\n      swap1\n      pop\n        /* \"#utility.yul\":3554:3640   */\n      tag_418\n        /* \"#utility.yul\":3637:3638   */\n      0x00\n        /* \"#utility.yul\":3626:3635   */\n      dup4\n        /* \"#utility.yul\":3622:3639   */\n      add\n        /* \"#utility.yul\":3613:3619   */\n      dup5\n        /* \"#utility.yul\":3554:3640   */\n      tag_294\n      jump\t// in\n    tag_418:\n        /* \"#utility.yul\":3395:3647   */\n      swap3\n      swap2\n      pop\n      pop\n      jump\t// out\n        /* \"#utility.yul\":3653:3779   */\n    tag_295:\n        /* \"#utility.yul\":3690:3697   */\n      0x00\n        /* \"#utility.yul\":3730:3772   */\n      0xffffffffffffffffffffffffffffffffffffffff\n        /* \"#utility.yul\":3723:3728   */\n      dup3\n        /* \"#utility.yul\":3719:3773   */\n      and\n        /* \"#utility.yul\":3708:3773   */\n      swap1\n      pop\n        /* \"#utility.yul\":3653:3779   */\n      swap2\n      swap1\n      pop\n      jump\t// out\n        /* \"#utility.yul\":3785:3889   */\n    tag_296:\n        /* \"#utility.yul\":3830:3837   */\n      0x00\n        /* \"#utility.yul\":3859:3883   */\n      tag_421\n        /* \"#utility.yul\":3877:3882   */\n      dup3\n        /* \"#utility.yul\":3859:3883   */\n      tag_295\n      jump\t// in\n    tag_421:\n        /* \"#utility.yul\":3848:3883   */\n      swap1\n      pop\n        /* \"#utility.yul\":3785:3889   */\n      swap2\n      swap1\n      pop\n      jump\t// out\n        /* \"#utility.yul\":3895:4037   */\n    tag_297:\n        /* \"#utility.yul\":3998:4030   */\n      tag_423\n        /* \"#utility.yul\":4024:4029   */\n      dup2\n        /* \"#utility.yul\":3998:4030   */\n      tag_296\n      jump\t// in\n    tag_423:\n        /* \"#utility.yul\":3993:3996   */\n      dup3\n        /* \"#utility.yul\":3986:4031   */\n      mstore\n        /* \"#utility.yul\":3895:4037   */\n      pop\n      pop\n      jump\t// out\n        /* \"#utility.yul\":4043:4120   */\n    tag_298:\n        /* \"#utility.yul\":4080:4087   */\n      0x00\n        /* \"#utility.yul\":4109:4114   */\n      dup2\n        /* \"#utility.yul\":4098:4114   */\n      swap1\n      pop\n        /* \"#utility.yul\":4043:4120   */\n      swap2\n      swap1\n      pop\n      jump\t// out\n        /* \"#utility.yul\":4126:4244   */\n    tag_299:\n        /* \"#utility.yul\":4213:4237   */\n      tag_426\n        /* \"#utility.yul\":4231:4236   */\n      dup2\n        /* \"#utility.yul\":4213:4237   */\n      tag_298\n      jump\t// in\n    tag_426:\n        /* \"#utility.yul\":4208:4211   */\n      dup3\n        /* \"#utility.yul\":4201:4238   */\n      mstore\n        /* \"#utility.yul\":4126:4244   */\n      pop\n      pop\n      jump\t// out\n        /* \"#utility.yul\":4250:4340   */\n    tag_300:\n        /* \"#utility.yul\":4284:4291   */\n      0x00\n        /* \"#utility.yul\":4327:4332   */\n      dup2\n        /* \"#utility.yul\":4320:4333   */\n      iszero\n        /* \"#utility.yul\":4313:4334   */\n      iszero\n        /* \"#utility.yul\":4302:4334   */\n      swap1\n      pop\n        /* \"#utility.yul\":4250:4340   */\n      swap2\n      swap1\n      pop\n      jump\t// out\n        /* \"#utility.yul\":4346:4455   */\n    tag_301:\n        /* \"#utility.yul\":4427:4448   */\n      tag_429\n        /* \"#utility.yul\":4442:4447   */\n      dup2\n        /* \"#utility.yul\":4427:4448   */\n      tag_300\n      jump\t// in\n    tag_429:\n        /* \"#utility.yul\":4422:4425   */\n      dup3\n        /* \"#utility.yul\":4415:4449   */\n      mstore\n        /* \"#utility.yul\":4346:4455   */\n      pop\n      pop\n      jump\t// out\n        /* \"#utility.yul\":4461:5631   */\n    tag_52:\n        /* \"#utility.yul\":4811:4815   */\n      0x00\n        /* \"#utility.yul\":4849:4852   */\n      0x0100\n        /* \"#utility.yul\":4838:4847   */\n      dup3\n        /* \"#utility.yul\":4834:4853   */\n      add\n        /* \"#utility.yul\":4826:4853   */\n      swap1\n      pop\n        /* \"#utility.yul\":4863:4934   */\n      tag_431\n        /* \"#utility.yul\":4931:4932   */\n      0x00\n        /* \"#utility.yul\":4920:4929   */\n      dup4\n        /* \"#utility.yul\":4916:4933   */\n      add\n        /* \"#utility.yul\":4907:4913   */\n      dup12\n        /* \"#utility.yul\":4863:4934   */\n      tag_285\n      jump\t// in\n    tag_431:\n        /* \"#utility.yul\":4944:5016   */\n      tag_432\n        /* \"#utility.yul\":5012:5014   */\n      0x20\n        /* \"#utility.yul\":5001:5010   */\n      dup4\n        /* \"#utility.yul\":4997:5015   */\n      add\n        /* \"#utility.yul\":4988:4994   */\n      dup11\n        /* \"#utility.yul\":4944:5016   */\n      tag_285\n      jump\t// in\n    tag_432:\n        /* \"#utility.yul\":5026:5114   */\n      tag_433\n        /* \"#utility.yul\":5110:5112   */\n      0x40\n        /* \"#utility.yul\":5099:5108   */\n      dup4\n        /* \"#utility.yul\":5095:5113   */\n      add\n        /* \"#utility.yul\":5086:5092   */\n      dup10\n        /* \"#utility.yul\":5026:5114   */\n      tag_297\n      jump\t// in\n    tag_433:\n        /* \"#utility.yul\":5124:5212   */\n      tag_434\n        /* \"#utility.yul\":5208:5210   */\n      0x60\n        /* \"#utility.yul\":5197:5206   */\n      dup4\n        /* \"#utility.yul\":5193:5211   */\n      add\n        /* \"#utility.yul\":5184:5190   */\n      dup9\n        /* \"#utility.yul\":5124:5212   */\n      tag_297\n      jump\t// in\n    tag_434:\n        /* \"#utility.yul\":5222:5310   */\n      tag_435\n        /* \"#utility.yul\":5305:5308   */\n      0x80\n        /* \"#utility.yul\":5294:5303   */\n      dup4\n        /* \"#utility.yul\":5290:5309   */\n      add\n        /* \"#utility.yul\":5281:5287   */\n      dup8\n        /* \"#utility.yul\":5222:5310   */\n      tag_294\n      jump\t// in\n    tag_435:\n        /* \"#utility.yul\":5358:5367   */\n      dup2\n        /* \"#utility.yul\":5352:5356   */\n      dup2\n        /* \"#utility.yul\":5348:5368   */\n      sub\n        /* \"#utility.yul\":5342:5345   */\n      0xa0\n        /* \"#utility.yul\":5331:5340   */\n      dup4\n        /* \"#utility.yul\":5327:5346   */\n      add\n        /* \"#utility.yul\":5320:5369   */\n      mstore\n        /* \"#utility.yul\":5386:5464   */\n      tag_436\n        /* \"#utility.yul\":5459:5463   */\n      dup2\n        /* \"#utility.yul\":5450:5456   */\n      dup7\n        /* \"#utility.yul\":5386:5464   */\n      tag_290\n      jump\t// in\n    tag_436:\n        /* \"#utility.yul\":5378:5464   */\n      swap1\n      pop\n        /* \"#utility.yul\":5474:5547   */\n      tag_437\n        /* \"#utility.yul\":5542:5545   */\n      0xc0\n        /* \"#utility.yul\":5531:5540   */\n      dup4\n        /* \"#utility.yul\":5527:5546   */\n      add\n        /* \"#utility.yul\":5518:5524   */\n      dup6\n        /* \"#utility.yul\":5474:5547   */\n      tag_299\n      jump\t// in\n    tag_437:\n        /* \"#utility.yul\":5557:5624   */\n      tag_438\n        /* \"#utility.yul\":5619:5622   */\n      0xe0\n        /* \"#utility.yul\":5608:5617   */\n      dup4\n        /* \"#utility.yul\":5604:5623   */\n      add\n        /* \"#utility.yul\":5595:5601   */\n      dup5\n        /* \"#utility.yul\":5557:5624   */\n      tag_301\n      jump\t// in\n    tag_438:\n        /* \"#utility.yul\":4461:5631   */\n      swap10\n      swap9\n      pop\n      pop\n      pop\n      pop\n      pop\n      pop\n      pop\n      pop\n      pop\n      jump\t// out\n        /* \"#utility.yul\":5637:5754   */\n    tag_302:\n        /* \"#utility.yul\":5746:5747   */\n      0x00\n        /* \"#utility.yul\":5743:5744   */\n      0x00\n        /* \"#utility.yul\":5736:5748   */\n      revert\n        /* \"#utility.yul\":5760:5877   */\n    tag_303:\n        /* \"#utility.yul\":5869:5870   */\n      0x00\n        /* \"#utility.yul\":5866:5867   */\n      0x00\n        /* \"#utility.yul\":5859:5871   */\n      revert\n        /* \"#utility.yul\":5883:6063   */\n    tag_304:\n        /* \"#utility.yul\":5931:6008   */\n      0x4e487b7100000000000000000000000000000000000000000000000000000000\n        /* \"#utility.yul\":5928:5929   */\n      0x00\n        /* \"#utility.yul\":5921:6009   */\n      mstore\n        /* \"#utility.yul\":6028:6032   */\n      0x41\n        /* \"#utility.yul\":6025:6026   */\n      0x04\n        /* \"#utility.yul\":6018:6033   */\n      mstore\n        /* \"#utility.yul\":6052:6056   */\n      0x24\n        /* \"#utility.yul\":6049:6050   */\n      0x00\n        /* \"#utility.yul\":6042:6057   */\n      revert\n        /* \"#utility.yul\":6069:6350   */\n    tag_305:\n        /* \"#utility.yul\":6152:6179   */\n      tag_443\n        /* \"#utility.yul\":6174:6178   */\n      dup3\n        /* \"#utility.yul\":6152:6179   */\n      tag_289\n      jump\t// in\n    tag_443:\n        /* \"#utility.yul\":6144:6150   */\n      dup2\n        /* \"#utility.yul\":6140:6180   */\n      add\n        /* \"#utility.yul\":6282:6288   */\n      dup2\n        /* \"#utility.yul\":6270:6280   */\n      dup2\n        /* \"#utility.yul\":6267:6289   */\n      lt\n        /* \"#utility.yul\":6246:6264   */\n      0xffffffffffffffff\n        /* \"#utility.yul\":6234:6244   */\n      dup3\n        /* \"#utility.yul\":6231:6265   */\n      gt\n        /* \"#utility.yul\":6228:6290   */\n      or\n        /* \"#utility.yul\":6225:6313   */\n      iszero\n      tag_444\n      jumpi\n        /* \"#utility.yul\":6293:6311   */\n      tag_445\n      tag_304\n      jump\t// in\n    tag_445:\n        /* \"#utility.yul\":6225:6313   */\n    tag_444:\n        /* \"#utility.yul\":6333:6343   */\n      dup1\n        /* \"#utility.yul\":6329:6331   */\n      0x40\n        /* \"#utility.yul\":6322:6344   */\n      mstore\n        /* \"#utility.yul\":6112:6350   */\n      pop\n        /* \"#utility.yul\":6069:6350   */\n      pop\n      pop\n      jump\t// out\n        /* \"#utility.yul\":6356:6485   */\n    tag_306:\n        /* \"#utility.yul\":6390:6396   */\n      0x00\n        /* \"#utility.yul\":6417:6437   */\n      tag_447\n      tag_279\n      jump\t// in\n    tag_447:\n        /* \"#utility.yul\":6407:6437   */\n      swap1\n      pop\n        /* \"#utility.yul\":6446:6479   */\n      tag_448\n        /* \"#utility.yul\":6474:6478   */\n      dup3\n        /* \"#utility.yul\":6466:6472   */\n      dup3\n        /* \"#utility.yul\":6446:6479   */\n      tag_305\n      jump\t// in\n    tag_448:\n        /* \"#utility.yul\":6356:6485   */\n      swap2\n      swap1\n      pop\n      jump\t// out\n        /* \"#utility.yul\":6491:6799   */\n    tag_307:\n        /* \"#utility.yul\":6553:6557   */\n      0x00\n        /* \"#utility.yul\":6643:6661   */\n      0xffffffffffffffff\n        /* \"#utility.yul\":6635:6641   */\n      dup3\n        /* \"#utility.yul\":6632:6662   */\n      gt\n        /* \"#utility.yul\":6629:6685   */\n      iszero\n      tag_450\n      jumpi\n        /* \"#utility.yul\":6665:6683   */\n      tag_451\n      tag_304\n      jump\t// in\n    tag_451:\n        /* \"#utility.yul\":6629:6685   */\n    tag_450:\n        /* \"#utility.yul\":6703:6732   */\n      tag_452\n        /* \"#utility.yul\":6725:6731   */\n      dup3\n        /* \"#utility.yul\":6703:6732   */\n      tag_289\n      jump\t// in\n    tag_452:\n        /* \"#utility.yul\":6695:6732   */\n      swap1\n      pop\n        /* \"#utility.yul\":6787:6791   */\n      0x20\n        /* \"#utility.yul\":6781:6785   */\n      dup2\n        /* \"#utility.yul\":6777:6792   */\n      add\n        /* \"#utility.yul\":6769:6792   */\n      swap1\n      pop\n        /* \"#utility.yul\":6491:6799   */\n      swap2\n      swap1\n      pop\n      jump\t// out\n        /* \"#utility.yul\":6805:6953   */\n    tag_308:\n        /* \"#utility.yul\":6903:6909   */\n      dup3\n        /* \"#utility.yul\":6898:6901   */\n      dup2\n        /* \"#utility.yul\":6893:6896   */\n      dup4\n        /* \"#utility.yul\":6880:6910   */\n      calldatacopy\n        /* \"#utility.yul\":6944:6945   */\n      0x00\n        /* \"#utility.yul\":6935:6941   */\n      dup4\n        /* \"#utility.yul\":6930:6933   */\n      dup4\n        /* \"#utility.yul\":6926:6942   */\n      add\n        /* \"#utility.yul\":6919:6946   */\n      mstore\n        /* \"#utility.yul\":6805:6953   */\n      pop\n      pop\n      pop\n      jump\t// out\n        /* \"#utility.yul\":6959:7384   */\n    tag_309:\n        /* \"#utility.yul\":7037:7042   */\n      0x00\n        /* \"#utility.yul\":7062:7128   */\n      tag_455\n        /* \"#utility.yul\":7078:7127   */\n      tag_456\n        /* \"#utility.yul\":7120:7126   */\n      dup5\n        /* \"#utility.yul\":7078:7127   */\n      tag_307\n      jump\t// in\n    tag_456:\n        /* \"#utility.yul\":7062:7128   */\n      tag_306\n      jump\t// in\n    tag_455:\n        /* \"#utility.yul\":7053:7128   */\n      swap1\n      pop\n        /* \"#utility.yul\":7151:7157   */\n      dup3\n        /* \"#utility.yul\":7144:7149   */\n      dup2\n        /* \"#utility.yul\":7137:7158   */\n      mstore\n        /* \"#utility.yul\":7189:7193   */\n      0x20\n        /* \"#utility.yul\":7182:7187   */\n      dup2\n        /* \"#utility.yul\":7178:7194   */\n      add\n        /* \"#utility.yul\":7227:7230   */\n      dup5\n        /* \"#utility.yul\":7218:7224   */\n      dup5\n        /* \"#utility.yul\":7213:7216   */\n      dup5\n        /* \"#utility.yul\":7209:7225   */\n      add\n        /* \"#utility.yul\":7206:7231   */\n      gt\n        /* \"#utility.yul\":7203:7315   */\n      iszero\n      tag_457\n      jumpi\n        /* \"#utility.yul\":7234:7313   */\n      tag_458\n      tag_303\n      jump\t// in\n    tag_458:\n        /* \"#utility.yul\":7203:7315   */\n    tag_457:\n        /* \"#utility.yul\":7324:7378   */\n      tag_459\n        /* \"#utility.yul\":7371:7377   */\n      dup5\n        /* \"#utility.yul\":7366:7369   */\n      dup3\n        /* \"#utility.yul\":7361:7364   */\n      dup6\n        /* \"#utility.yul\":7324:7378   */\n      tag_308\n      jump\t// in\n    tag_459:\n        /* \"#utility.yul\":7043:7384   */\n      pop\n        /* \"#utility.yul\":6959:7384   */\n      swap4\n      swap3\n      pop\n      pop\n      pop\n      jump\t// out\n        /* \"#utility.yul\":7404:7744   */\n    tag_310:\n        /* \"#utility.yul\":7460:7465   */\n      0x00\n        /* \"#utility.yul\":7509:7512   */\n      dup3\n        /* \"#utility.yul\":7502:7506   */\n      0x1f\n        /* \"#utility.yul\":7494:7500   */\n      dup4\n        /* \"#utility.yul\":7490:7507   */\n      add\n        /* \"#utility.yul\":7486:7513   */\n      slt\n        /* \"#utility.yul\":7476:7598   */\n      tag_461\n      jumpi\n        /* \"#utility.yul\":7517:7596   */\n      tag_462\n      tag_302\n      jump\t// in\n    tag_462:\n        /* \"#utility.yul\":7476:7598   */\n    tag_461:\n        /* \"#utility.yul\":7634:7640   */\n      dup2\n        /* \"#utility.yul\":7621:7641   */\n      calldataload\n        /* \"#utility.yul\":7659:7738   */\n      tag_463\n        /* \"#utility.yul\":7734:7737   */\n      dup5\n        /* \"#utility.yul\":7726:7732   */\n      dup3\n        /* \"#utility.yul\":7719:7723   */\n      0x20\n        /* \"#utility.yul\":7711:7717   */\n      dup7\n        /* \"#utility.yul\":7707:7724   */\n      add\n        /* \"#utility.yul\":7659:7738   */\n      tag_309\n      jump\t// in\n    tag_463:\n        /* \"#utility.yul\":7650:7738   */\n      swap2\n      pop\n        /* \"#utility.yul\":7466:7744   */\n      pop\n        /* \"#utility.yul\":7404:7744   */\n      swap3\n      swap2\n      pop\n      pop\n      jump\t// out\n        /* \"#utility.yul\":7750:8404   */\n    tag_56:\n        /* \"#utility.yul\":7828:7834   */\n      0x00\n        /* \"#utility.yul\":7836:7842   */\n      0x00\n        /* \"#utility.yul\":7885:7887   */\n      0x40\n        /* \"#utility.yul\":7873:7882   */\n      dup4\n        /* \"#utility.yul\":7864:7871   */\n      dup6\n        /* \"#utility.yul\":7860:7883   */\n      sub\n        /* \"#utility.yul\":7856:7888   */\n      slt\n        /* \"#utility.yul\":7853:7972   */\n      iszero\n      tag_465\n      jumpi\n        /* \"#utility.yul\":7891:7970   */\n      tag_466\n      tag_280\n      jump\t// in\n    tag_466:\n        /* \"#utility.yul\":7853:7972   */\n    tag_465:\n        /* \"#utility.yul\":8011:8012   */\n      0x00\n        /* \"#utility.yul\":8036:8089   */\n      tag_467\n        /* \"#utility.yul\":8081:8088   */\n      dup6\n        /* \"#utility.yul\":8072:8078   */\n      dup3\n        /* \"#utility.yul\":8061:8070   */\n      dup7\n        /* \"#utility.yul\":8057:8079   */\n      add\n        /* \"#utility.yul\":8036:8089   */\n      tag_284\n      jump\t// in\n    tag_467:\n        /* \"#utility.yul\":8026:8089   */\n      swap3\n      pop\n        /* \"#utility.yul\":7982:8099   */\n      pop\n        /* \"#utility.yul\":8166:8168   */\n      0x20\n        /* \"#utility.yul\":8155:8164   */\n      dup4\n        /* \"#utility.yul\":8151:8169   */\n      add\n        /* \"#utility.yul\":8138:8170   */\n      calldataload\n        /* \"#utility.yul\":8197:8215   */\n      0xffffffffffffffff\n        /* \"#utility.yul\":8189:8195   */\n      dup2\n        /* \"#utility.yul\":8186:8216   */\n      gt\n        /* \"#utility.yul\":8183:8300   */\n      iszero\n      tag_468\n      jumpi\n        /* \"#utility.yul\":8219:8298   */\n      tag_469\n      tag_281\n      jump\t// in\n    tag_469:\n        /* \"#utility.yul\":8183:8300   */\n    tag_468:\n        /* \"#utility.yul\":8324:8387   */\n      tag_470\n        /* \"#utility.yul\":8379:8386   */\n      dup6\n        /* \"#utility.yul\":8370:8376   */\n      dup3\n        /* \"#utility.yul\":8359:8368   */\n      dup7\n        /* \"#utility.yul\":8355:8377   */\n      add\n        /* \"#utility.yul\":8324:8387   */\n      tag_310\n      jump\t// in\n    tag_470:\n        /* \"#utility.yul\":8314:8387   */\n      swap2\n      pop\n        /* \"#utility.yul\":8109:8397   */\n      pop\n        /* \"#utility.yul\":7750:8404   */\n      swap3\n      pop\n      swap3\n      swap1\n      pop\n      jump\t// out\n        /* \"#utility.yul\":8410:8506   */\n    tag_311:\n        /* \"#utility.yul\":8447:8454   */\n      0x00\n        /* \"#utility.yul\":8476:8500   */\n      tag_472\n        /* \"#utility.yul\":8494:8499   */\n      dup3\n        /* \"#utility.yul\":8476:8500   */\n      tag_295\n      jump\t// in\n    tag_472:\n        /* \"#utility.yul\":8465:8500   */\n      swap1\n      pop\n        /* \"#utility.yul\":8410:8506   */\n      swap2\n      swap1\n      pop\n      jump\t// out\n        /* \"#utility.yul\":8512:8634   */\n    tag_312:\n        /* \"#utility.yul\":8585:8609   */\n      tag_474\n        /* \"#utility.yul\":8603:8608   */\n      dup2\n        /* \"#utility.yul\":8585:8609   */\n      tag_311\n      jump\t// in\n    tag_474:\n        /* \"#utility.yul\":8578:8583   */\n      dup2\n        /* \"#utility.yul\":8575:8610   */\n      eq\n        /* \"#utility.yul\":8565:8628   */\n      tag_475\n      jumpi\n        /* \"#utility.yul\":8624:8625   */\n      0x00\n        /* \"#utility.yul\":8621:8622   */\n      0x00\n        /* \"#utility.yul\":8614:8626   */\n      revert\n        /* \"#utility.yul\":8565:8628   */\n    tag_475:\n        /* \"#utility.yul\":8512:8634   */\n      pop\n      jump\t// out\n        /* \"#utility.yul\":8640:8779   */\n    tag_313:\n        /* \"#utility.yul\":8686:8691   */\n      0x00\n        /* \"#utility.yul\":8724:8730   */\n      dup2\n        /* \"#utility.yul\":8711:8731   */\n      calldataload\n        /* \"#utility.yul\":8702:8731   */\n      swap1\n      pop\n        /* \"#utility.yul\":8740:8773   */\n      tag_477\n        /* \"#utility.yul\":8767:8772   */\n      dup2\n        /* \"#utility.yul\":8740:8773   */\n      tag_312\n      jump\t// in\n    tag_477:\n        /* \"#utility.yul\":8640:8779   */\n      swap3\n      swap2\n      pop\n      pop\n      jump\t// out\n        /* \"#utility.yul\":8785:9114   */\n    tag_61:\n        /* \"#utility.yul\":8844:8850   */\n      0x00\n        /* \"#utility.yul\":8893:8895   */\n      0x20\n        /* \"#utility.yul\":8881:8890   */\n      dup3\n        /* \"#utility.yul\":8872:8879   */\n      dup5\n        /* \"#utility.yul\":8868:8891   */\n      sub\n        /* \"#utility.yul\":8864:8896   */\n      slt\n        /* \"#utility.yul\":8861:8980   */\n      iszero\n      tag_479\n      jumpi\n        /* \"#utility.yul\":8899:8978   */\n      tag_480\n      tag_280\n      jump\t// in\n    tag_480:\n        /* \"#utility.yul\":8861:8980   */\n    tag_479:\n        /* \"#utility.yul\":9019:9020   */\n      0x00\n        /* \"#utility.yul\":9044:9097   */\n      tag_481\n        /* \"#utility.yul\":9089:9096   */\n      dup5\n        /* \"#utility.yul\":9080:9086   */\n      dup3\n        /* \"#utility.yul\":9069:9078   */\n      dup6\n        /* \"#utility.yul\":9065:9087   */\n      add\n        /* \"#utility.yul\":9044:9097   */\n      tag_313\n      jump\t// in\n    tag_481:\n        /* \"#utility.yul\":9034:9097   */\n      swap2\n      pop\n        /* \"#utility.yul\":8990:9107   */\n      pop\n        /* \"#utility.yul\":8785:9114   */\n      swap3\n      swap2\n      pop\n      pop\n      jump\t// out\n        /* \"#utility.yul\":9120:9238   */\n    tag_314:\n        /* \"#utility.yul\":9207:9231   */\n      tag_483\n        /* \"#utility.yul\":9225:9230   */\n      dup2\n        /* \"#utility.yul\":9207:9231   */\n      tag_311\n      jump\t// in\n    tag_483:\n        /* \"#utility.yul\":9202:9205   */\n      dup3\n        /* \"#utility.yul\":9195:9232   */\n      mstore\n        /* \"#utility.yul\":9120:9238   */\n      pop\n      pop\n      jump\t// out\n        /* \"#utility.yul\":9244:9466   */\n    tag_67:\n        /* \"#utility.yul\":9337:9341   */\n      0x00\n        /* \"#utility.yul\":9375:9377   */\n      0x20\n        /* \"#utility.yul\":9364:9373   */\n      dup3\n        /* \"#utility.yul\":9360:9378   */\n      add\n        /* \"#utility.yul\":9352:9378   */\n      swap1\n      pop\n        /* \"#utility.yul\":9388:9459   */\n      tag_485\n        /* \"#utility.yul\":9456:9457   */\n      0x00\n        /* \"#utility.yul\":9445:9454   */\n      dup4\n        /* \"#utility.yul\":9441:9458   */\n      add\n        /* \"#utility.yul\":9432:9438   */\n      dup5\n        /* \"#utility.yul\":9388:9459   */\n      tag_314\n      jump\t// in\n    tag_485:\n        /* \"#utility.yul\":9244:9466   */\n      swap3\n      swap2\n      pop\n      pop\n      jump\t// out\n        /* \"#utility.yul\":9472:9610   */\n    tag_315:\n        /* \"#utility.yul\":9553:9585   */\n      tag_487\n        /* \"#utility.yul\":9579:9584   */\n      dup2\n        /* \"#utility.yul\":9553:9585   */\n      tag_296\n      jump\t// in\n    tag_487:\n        /* \"#utility.yul\":9546:9551   */\n      dup2\n        /* \"#utility.yul\":9543:9586   */\n      eq\n        /* \"#utility.yul\":9533:9604   */\n      tag_488\n      jumpi\n        /* \"#utility.yul\":9600:9601   */\n      0x00\n        /* \"#utility.yul\":9597:9598   */\n      0x00\n        /* \"#utility.yul\":9590:9602   */\n      revert\n        /* \"#utility.yul\":9533:9604   */\n    tag_488:\n        /* \"#utility.yul\":9472:9610   */\n      pop\n      jump\t// out\n        /* \"#utility.yul\":9616:9771   */\n    tag_316:\n        /* \"#utility.yul\":9670:9675   */\n      0x00\n        /* \"#utility.yul\":9708:9714   */\n      dup2\n        /* \"#utility.yul\":9695:9715   */\n      calldataload\n        /* \"#utility.yul\":9686:9715   */\n      swap1\n      pop\n        /* \"#utility.yul\":9724:9765   */\n      tag_490\n        /* \"#utility.yul\":9759:9764   */\n      dup2\n        /* \"#utility.yul\":9724:9765   */\n      tag_315\n      jump\t// in\n    tag_490:\n        /* \"#utility.yul\":9616:9771   */\n      swap3\n      swap2\n      pop\n      pop\n      jump\t// out\n        /* \"#utility.yul\":9777:10592   */\n    tag_78:\n        /* \"#utility.yul\":9872:9878   */\n      0x00\n        /* \"#utility.yul\":9880:9886   */\n      0x00\n        /* \"#utility.yul\":9888:9894   */\n      0x00\n        /* \"#utility.yul\":9937:9939   */\n      0x60\n        /* \"#utility.yul\":9925:9934   */\n      dup5\n        /* \"#utility.yul\":9916:9923   */\n      dup7\n        /* \"#utility.yul\":9912:9935   */\n      sub\n        /* \"#utility.yul\":9908:9940   */\n      slt\n        /* \"#utility.yul\":9905:10024   */\n      iszero\n      tag_492\n      jumpi\n        /* \"#utility.yul\":9943:10022   */\n      tag_493\n      tag_280\n      jump\t// in\n    tag_493:\n        /* \"#utility.yul\":9905:10024   */\n    tag_492:\n        /* \"#utility.yul\":10063:10064   */\n      0x00\n        /* \"#utility.yul\":10088:10149   */\n      tag_494\n        /* \"#utility.yul\":10141:10148   */\n      dup7\n        /* \"#utility.yul\":10132:10138   */\n      dup3\n        /* \"#utility.yul\":10121:10130   */\n      dup8\n        /* \"#utility.yul\":10117:10139   */\n      add\n        /* \"#utility.yul\":10088:10149   */\n      tag_316\n      jump\t// in\n    tag_494:\n        /* \"#utility.yul\":10078:10149   */\n      swap4\n      pop\n        /* \"#utility.yul\":10034:10159   */\n      pop\n        /* \"#utility.yul\":10226:10228   */\n      0x20\n        /* \"#utility.yul\":10215:10224   */\n      dup5\n        /* \"#utility.yul\":10211:10229   */\n      add\n        /* \"#utility.yul\":10198:10230   */\n      calldataload\n        /* \"#utility.yul\":10257:10275   */\n      0xffffffffffffffff\n        /* \"#utility.yul\":10249:10255   */\n      dup2\n        /* \"#utility.yul\":10246:10276   */\n      gt\n        /* \"#utility.yul\":10243:10360   */\n      iszero\n      tag_495\n      jumpi\n        /* \"#utility.yul\":10279:10358   */\n      tag_496\n      tag_281\n      jump\t// in\n    tag_496:\n        /* \"#utility.yul\":10243:10360   */\n    tag_495:\n        /* \"#utility.yul\":10384:10447   */\n      tag_497\n        /* \"#utility.yul\":10439:10446   */\n      dup7\n        /* \"#utility.yul\":10430:10436   */\n      dup3\n        /* \"#utility.yul\":10419:10428   */\n      dup8\n        /* \"#utility.yul\":10415:10437   */\n      add\n        /* \"#utility.yul\":10384:10447   */\n      tag_310\n      jump\t// in\n    tag_497:\n        /* \"#utility.yul\":10374:10447   */\n      swap3\n      pop\n        /* \"#utility.yul\":10169:10457   */\n      pop\n        /* \"#utility.yul\":10496:10498   */\n      0x40\n        /* \"#utility.yul\":10522:10575   */\n      tag_498\n        /* \"#utility.yul\":10567:10574   */\n      dup7\n        /* \"#utility.yul\":10558:10564   */\n      dup3\n        /* \"#utility.yul\":10547:10556   */\n      dup8\n        /* \"#utility.yul\":10543:10565   */\n      add\n        /* \"#utility.yul\":10522:10575   */\n      tag_284\n      jump\t// in\n    tag_498:\n        /* \"#utility.yul\":10512:10575   */\n      swap2\n      pop\n        /* \"#utility.yul\":10467:10585   */\n      pop\n        /* \"#utility.yul\":9777:10592   */\n      swap3\n      pop\n      swap3\n      pop\n      swap3\n      jump\t// out\n        /* \"#utility.yul\":10598:10808   */\n    tag_92:\n        /* \"#utility.yul\":10685:10689   */\n      0x00\n        /* \"#utility.yul\":10723:10725   */\n      0x20\n        /* \"#utility.yul\":10712:10721   */\n      dup3\n        /* \"#utility.yul\":10708:10726   */\n      add\n        /* \"#utility.yul\":10700:10726   */\n      swap1\n      pop\n        /* \"#utility.yul\":10736:10801   */\n      tag_500\n        /* \"#utility.yul\":10798:10799   */\n      0x00\n        /* \"#utility.yul\":10787:10796   */\n      dup4\n        /* \"#utility.yul\":10783:10800   */\n      add\n        /* \"#utility.yul\":10774:10780   */\n      dup5\n        /* \"#utility.yul\":10736:10801   */\n      tag_301\n      jump\t// in\n    tag_500:\n        /* \"#utility.yul\":10598:10808   */\n      swap3\n      swap2\n      pop\n      pop\n      jump\t// out\n        /* \"#utility.yul\":10814:10975   */\n    tag_317:\n        /* \"#utility.yul\":10954:10967   */\n      0x4e6f742063726561746f72000000000000000000000000000000000000000000\n        /* \"#utility.yul\":10950:10951   */\n      0x00\n        /* \"#utility.yul\":10942:10948   */\n      dup3\n        /* \"#utility.yul\":10938:10952   */\n      add\n        /* \"#utility.yul\":10931:10968   */\n      mstore\n        /* \"#utility.yul\":10814:10975   */\n      pop\n      jump\t// out\n        /* \"#utility.yul\":10981:11347   */\n    tag_318:\n        /* \"#utility.yul\":11123:11126   */\n      0x00\n        /* \"#utility.yul\":11144:11211   */\n      tag_503\n        /* \"#utility.yul\":11208:11210   */\n      0x0b\n        /* \"#utility.yul\":11203:11206   */\n      dup4\n        /* \"#utility.yul\":11144:11211   */\n      tag_287\n      jump\t// in\n    tag_503:\n        /* \"#utility.yul\":11137:11211   */\n      swap2\n      pop\n        /* \"#utility.yul\":11220:11313   */\n      tag_504\n        /* \"#utility.yul\":11309:11312   */\n      dup3\n        /* \"#utility.yul\":11220:11313   */\n      tag_317\n      jump\t// in\n    tag_504:\n        /* \"#utility.yul\":11338:11340   */\n      0x20\n        /* \"#utility.yul\":11333:11336   */\n      dup3\n        /* \"#utility.yul\":11329:11341   */\n      add\n        /* \"#utility.yul\":11322:11341   */\n      swap1\n      pop\n        /* \"#utility.yul\":10981:11347   */\n      swap2\n      swap1\n      pop\n      jump\t// out\n        /* \"#utility.yul\":11353:11772   */\n    tag_101:\n        /* \"#utility.yul\":11519:11523   */\n      0x00\n        /* \"#utility.yul\":11557:11559   */\n      0x20\n        /* \"#utility.yul\":11546:11555   */\n      dup3\n        /* \"#utility.yul\":11542:11560   */\n      add\n        /* \"#utility.yul\":11534:11560   */\n      swap1\n      pop\n        /* \"#utility.yul\":11606:11615   */\n      dup2\n        /* \"#utility.yul\":11600:11604   */\n      dup2\n        /* \"#utility.yul\":11596:11616   */\n      sub\n        /* \"#utility.yul\":11592:11593   */\n      0x00\n        /* \"#utility.yul\":11581:11590   */\n      dup4\n        /* \"#utility.yul\":11577:11594   */\n      add\n        /* \"#utility.yul\":11570:11617   */\n      mstore\n        /* \"#utility.yul\":11634:11765   */\n      tag_506\n        /* \"#utility.yul\":11760:11764   */\n      dup2\n        /* \"#utility.yul\":11634:11765   */\n      tag_318\n      jump\t// in\n    tag_506:\n        /* \"#utility.yul\":11626:11765   */\n      swap1\n      pop\n        /* \"#utility.yul\":11353:11772   */\n      swap2\n      swap1\n      pop\n      jump\t// out\n        /* \"#utility.yul\":11778:11940   */\n    tag_319:\n        /* \"#utility.yul\":11918:11932   */\n      0x57726f6e67207374617475730000000000000000000000000000000000000000\n        /* \"#utility.yul\":11914:11915   */\n      0x00\n        /* \"#utility.yul\":11906:11912   */\n      dup3\n        /* \"#utility.yul\":11902:11916   */\n      add\n        /* \"#utility.yul\":11895:11933   */\n      mstore\n        /* \"#utility.yul\":11778:11940   */\n      pop\n      jump\t// out\n        /* \"#utility.yul\":11946:12312   */\n    tag_320:\n        /* \"#utility.yul\":12088:12091   */\n      0x00\n        /* \"#utility.yul\":12109:12176   */\n      tag_509\n        /* \"#utility.yul\":12173:12175   */\n      0x0c\n        /* \"#utility.yul\":12168:12171   */\n      dup4\n        /* \"#utility.yul\":12109:12176   */\n      tag_287\n      jump\t// in\n    tag_509:\n        /* \"#utility.yul\":12102:12176   */\n      swap2\n      pop\n        /* \"#utility.yul\":12185:12278   */\n      tag_510\n        /* \"#utility.yul\":12274:12277   */\n      dup3\n        /* \"#utility.yul\":12185:12278   */\n      tag_319\n      jump\t// in\n    tag_510:\n        /* \"#utility.yul\":12303:12305   */\n      0x20\n        /* \"#utility.yul\":12298:12301   */\n      dup3\n        /* \"#utility.yul\":12294:12306   */\n      add\n        /* \"#utility.yul\":12287:12306   */\n      swap1\n      pop\n        /* \"#utility.yul\":11946:12312   */\n      swap2\n      swap1\n      pop\n      jump\t// out\n        /* \"#utility.yul\":12318:12737   */\n    tag_110:\n        /* \"#utility.yul\":12484:12488   */\n      0x00\n        /* \"#utility.yul\":12522:12524   */\n      0x20\n        /* \"#utility.yul\":12511:12520   */\n      dup3\n        /* \"#utility.yul\":12507:12525   */\n      add\n        /* \"#utility.yul\":12499:12525   */\n      swap1\n      pop\n        /* \"#utility.yul\":12571:12580   */\n      dup2\n        /* \"#utility.yul\":12565:12569   */\n      dup2\n        /* \"#utility.yul\":12561:12581   */\n      sub\n        /* \"#utility.yul\":12557:12558   */\n      0x00\n        /* \"#utility.yul\":12546:12555   */\n      dup4\n        /* \"#utility.yul\":12542:12559   */\n      add\n        /* \"#utility.yul\":12535:12582   */\n      mstore\n        /* \"#utility.yul\":12599:12730   */\n      tag_512\n        /* \"#utility.yul\":12725:12729   */\n      dup2\n        /* \"#utility.yul\":12599:12730   */\n      tag_320\n      jump\t// in\n    tag_512:\n        /* \"#utility.yul\":12591:12730   */\n      swap1\n      pop\n        /* \"#utility.yul\":12318:12737   */\n      swap2\n      swap1\n      pop\n      jump\t// out\n        /* \"#utility.yul\":12743:12923   */\n    tag_321:\n        /* \"#utility.yul\":12791:12868   */\n      0x4e487b7100000000000000000000000000000000000000000000000000000000\n        /* \"#utility.yul\":12788:12789   */\n      0x00\n        /* \"#utility.yul\":12781:12869   */\n      mstore\n        /* \"#utility.yul\":12888:12892   */\n      0x11\n        /* \"#utility.yul\":12885:12886   */\n      0x04\n        /* \"#utility.yul\":12878:12893   */\n      mstore\n        /* \"#utility.yul\":12912:12916   */\n      0x24\n        /* \"#utility.yul\":12909:12910   */\n      0x00\n        /* \"#utility.yul\":12902:12917   */\n      revert\n        /* \"#utility.yul\":12929:13120   */\n    tag_114:\n        /* \"#utility.yul\":12969:12972   */\n      0x00\n        /* \"#utility.yul\":12988:13008   */\n      tag_515\n        /* \"#utility.yul\":13006:13007   */\n      dup3\n        /* \"#utility.yul\":12988:13008   */\n      tag_282\n      jump\t// in\n    tag_515:\n        /* \"#utility.yul\":12983:13008   */\n      swap2\n      pop\n        /* \"#utility.yul\":13022:13042   */\n      tag_516\n        /* \"#utility.yul\":13040:13041   */\n      dup4\n        /* \"#utility.yul\":13022:13042   */\n      tag_282\n      jump\t// in\n    tag_516:\n        /* \"#utility.yul\":13017:13042   */\n      swap3\n      pop\n        /* \"#utility.yul\":13065:13066   */\n      dup3\n        /* \"#utility.yul\":13062:13063   */\n      dup3\n        /* \"#utility.yul\":13058:13067   */\n      add\n        /* \"#utility.yul\":13051:13067   */\n      swap1\n      pop\n        /* \"#utility.yul\":13086:13089   */\n      dup1\n        /* \"#utility.yul\":13083:13084   */\n      dup3\n        /* \"#utility.yul\":13080:13090   */\n      gt\n        /* \"#utility.yul\":13077:13113   */\n      iszero\n      tag_517\n      jumpi\n        /* \"#utility.yul\":13093:13111   */\n      tag_518\n      tag_321\n      jump\t// in\n    tag_518:\n        /* \"#utility.yul\":13077:13113   */\n    tag_517:\n        /* \"#utility.yul\":12929:13120   */\n      swap3\n      swap2\n      pop\n      pop\n      jump\t// out\n        /* \"#utility.yul\":13126:13306   */\n    tag_322:\n        /* \"#utility.yul\":13174:13251   */\n      0x4e487b7100000000000000000000000000000000000000000000000000000000\n        /* \"#utility.yul\":13171:13172   */\n      0x00\n        /* \"#utility.yul\":13164:13252   */\n      mstore\n        /* \"#utility.yul\":13271:13275   */\n      0x22\n        /* \"#utility.yul\":13268:13269   */\n      0x04\n        /* \"#utility.yul\":13261:13276   */\n      mstore\n        /* \"#utility.yul\":13295:13299   */\n      0x24\n        /* \"#utility.yul\":13292:13293   */\n      0x00\n        /* \"#utility.yul\":13285:13300   */\n      revert\n        /* \"#utility.yul\":13312:13632   */\n    tag_118:\n        /* \"#utility.yul\":13356:13362   */\n      0x00\n        /* \"#utility.yul\":13393:13394   */\n      0x02\n        /* \"#utility.yul\":13387:13391   */\n      dup3\n        /* \"#utility.yul\":13383:13395   */\n      div\n        /* \"#utility.yul\":13373:13395   */\n      swap1\n      pop\n        /* \"#utility.yul\":13440:13441   */\n      0x01\n        /* \"#utility.yul\":13434:13438   */\n      dup3\n        /* \"#utility.yul\":13430:13442   */\n      and\n        /* \"#utility.yul\":13461:13479   */\n      dup1\n        /* \"#utility.yul\":13451:13532   */\n      tag_521\n      jumpi\n        /* \"#utility.yul\":13517:13521   */\n      0x7f\n        /* \"#utility.yul\":13509:13515   */\n      dup3\n        /* \"#utility.yul\":13505:13522   */\n      and\n        /* \"#utility.yul\":13495:13522   */\n      swap2\n      pop\n        /* \"#utility.yul\":13451:13532   */\n    tag_521:\n        /* \"#utility.yul\":13579:13581   */\n      0x20\n        /* \"#utility.yul\":13571:13577   */\n      dup3\n        /* \"#utility.yul\":13568:13582   */\n      lt\n        /* \"#utility.yul\":13548:13566   */\n      dup2\n        /* \"#utility.yul\":13545:13583   */\n      sub\n        /* \"#utility.yul\":13542:13626   */\n      tag_522\n      jumpi\n        /* \"#utility.yul\":13598:13616   */\n      tag_523\n      tag_322\n      jump\t// in\n    tag_523:\n        /* \"#utility.yul\":13542:13626   */\n    tag_522:\n        /* \"#utility.yul\":13363:13632   */\n      pop\n        /* \"#utility.yul\":13312:13632   */\n      swap2\n      swap1\n      pop\n      jump\t// out\n        /* \"#utility.yul\":13638:13805   */\n    tag_323:\n        /* \"#utility.yul\":13778:13797   */\n      0x416c726561647920636f6d706c65746564000000000000000000000000000000\n        /* \"#utility.yul\":13774:13775   */\n      0x00\n        /* \"#utility.yul\":13766:13772   */\n      dup3\n        /* \"#utility.yul\":13762:13776   */\n      add\n        /* \"#utility.yul\":13755:13798   */\n      mstore\n        /* \"#utility.yul\":13638:13805   */\n      pop\n      jump\t// out\n        /* \"#utility.yul\":13811:14177   */\n    tag_324:\n        /* \"#utility.yul\":13953:13956   */\n      0x00\n        /* \"#utility.yul\":13974:14041   */\n      tag_526\n        /* \"#utility.yul\":14038:14040   */\n      0x11\n        /* \"#utility.yul\":14033:14036   */\n      dup4\n        /* \"#utility.yul\":13974:14041   */\n      tag_287\n      jump\t// in\n    tag_526:\n        /* \"#utility.yul\":13967:14041   */\n      swap2\n      pop\n        /* \"#utility.yul\":14050:14143   */\n      tag_527\n        /* \"#utility.yul\":14139:14142   */\n      dup3\n        /* \"#utility.yul\":14050:14143   */\n      tag_323\n      jump\t// in\n    tag_527:\n        /* \"#utility.yul\":14168:14170   */\n      0x20\n        /* \"#utility.yul\":14163:14166   */\n      dup3\n        /* \"#utility.yul\":14159:14171   */\n      add\n        /* \"#utility.yul\":14152:14171   */\n      swap1\n      pop\n        /* \"#utility.yul\":13811:14177   */\n      swap2\n      swap1\n      pop\n      jump\t// out\n        /* \"#utility.yul\":14183:14602   */\n    tag_134:\n        /* \"#utility.yul\":14349:14353   */\n      0x00\n        /* \"#utility.yul\":14387:14389   */\n      0x20\n        /* \"#utility.yul\":14376:14385   */\n      dup3\n        /* \"#utility.yul\":14372:14390   */\n      add\n        /* \"#utility.yul\":14364:14390   */\n      swap1\n      pop\n        /* \"#utility.yul\":14436:14445   */\n      dup2\n        /* \"#utility.yul\":14430:14434   */\n      dup2\n        /* \"#utility.yul\":14426:14446   */\n      sub\n        /* \"#utility.yul\":14422:14423   */\n      0x00\n        /* \"#utility.yul\":14411:14420   */\n      dup4\n        /* \"#utility.yul\":14407:14424   */\n      add\n        /* \"#utility.yul\":14400:14447   */\n      mstore\n        /* \"#utility.yul\":14464:14595   */\n      tag_529\n        /* \"#utility.yul\":14590:14594   */\n      dup2\n        /* \"#utility.yul\":14464:14595   */\n      tag_324\n      jump\t// in\n    tag_529:\n        /* \"#utility.yul\":14456:14595   */\n      swap1\n      pop\n        /* \"#utility.yul\":14183:14602   */\n      swap2\n      swap1\n      pop\n      jump\t// out\n        /* \"#utility.yul\":14608:14749   */\n    tag_325:\n        /* \"#utility.yul\":14657:14661   */\n      0x00\n        /* \"#utility.yul\":14680:14683   */\n      dup2\n        /* \"#utility.yul\":14672:14683   */\n      swap1\n      pop\n        /* \"#utility.yul\":14703:14706   */\n      dup2\n        /* \"#utility.yul\":14700:14701   */\n      0x00\n        /* \"#utility.yul\":14693:14707   */\n      mstore\n        /* \"#utility.yul\":14737:14741   */\n      0x20\n        /* \"#utility.yul\":14734:14735   */\n      0x00\n        /* \"#utility.yul\":14724:14742   */\n      keccak256\n        /* \"#utility.yul\":14716:14742   */\n      swap1\n      pop\n        /* \"#utility.yul\":14608:14749   */\n      swap2\n      swap1\n      pop\n      jump\t// out\n        /* \"#utility.yul\":14755:14848   */\n    tag_326:\n        /* \"#utility.yul\":14792:14798   */\n      0x00\n        /* \"#utility.yul\":14839:14841   */\n      0x20\n        /* \"#utility.yul\":14834:14836   */\n      0x1f\n        /* \"#utility.yul\":14827:14832   */\n      dup4\n        /* \"#utility.yul\":14823:14837   */\n      add\n        /* \"#utility.yul\":14819:14842   */\n      div\n        /* \"#utility.yul\":14809:14842   */\n      swap1\n      pop\n        /* \"#utility.yul\":14755:14848   */\n      swap2\n      swap1\n      pop\n      jump\t// out\n        /* \"#utility.yul\":14854:14961   */\n    tag_327:\n        /* \"#utility.yul\":14898:14906   */\n      0x00\n        /* \"#utility.yul\":14948:14953   */\n      dup3\n        /* \"#utility.yul\":14942:14946   */\n      dup3\n        /* \"#utility.yul\":14938:14954   */\n      shl\n        /* \"#utility.yul\":14917:14954   */\n      swap1\n      pop\n        /* \"#utility.yul\":14854:14961   */\n      swap3\n      swap2\n      pop\n      pop\n      jump\t// out\n        /* \"#utility.yul\":14967:15360   */\n    tag_328:\n        /* \"#utility.yul\":15036:15042   */\n      0x00\n        /* \"#utility.yul\":15086:15087   */\n      0x08\n        /* \"#utility.yul\":15074:15084   */\n      dup4\n        /* \"#utility.yul\":15070:15088   */\n      mul\n        /* \"#utility.yul\":15109:15206   */\n      tag_534\n        /* \"#utility.yul\":15139:15205   */\n      0xffffffffffffffffffffffffffffffffffffffffffffffffffffffffffffffff\n        /* \"#utility.yul\":15128:15137   */\n      dup3\n        /* \"#utility.yul\":15109:15206   */\n      tag_327\n      jump\t// in\n    tag_534:\n        /* \"#utility.yul\":15227:15266   */\n      tag_535\n        /* \"#utility.yul\":15257:15265   */\n      dup7\n        /* \"#utility.yul\":15246:15255   */\n      dup4\n        /* \"#utility.yul\":15227:15266   */\n      tag_327\n      jump\t// in\n    tag_535:\n        /* \"#utility.yul\":15215:15266   */\n      swap6\n      pop\n        /* \"#utility.yul\":15299:15303   */\n      dup1\n        /* \"#utility.yul\":15295:15304   */\n      not\n        /* \"#utility.yul\":15288:15293   */\n      dup5\n        /* \"#utility.yul\":15284:15305   */\n      and\n        /* \"#utility.yul\":15275:15305   */\n      swap4\n      pop\n        /* \"#utility.yul\":15348:15352   */\n      dup1\n        /* \"#utility.yul\":15338:15346   */\n      dup7\n        /* \"#utility.yul\":15334:15353   */\n      and\n        /* \"#utility.yul\":15327:15332   */\n      dup5\n        /* \"#utility.yul\":15324:15354   */\n      or\n        /* \"#utility.yul\":15314:15354   */\n      swap3\n      pop\n        /* \"#utility.yul\":15043:15360   */\n      pop\n      pop\n        /* \"#utility.yul\":14967:15360   */\n      swap4\n      swap3\n      pop\n      pop\n      pop\n      jump\t// out\n        /* \"#utility.yul\":15366:15426   */\n    tag_329:\n        /* \"#utility.yul\":15394:15397   */\n      0x00\n        /* \"#utility.yul\":15415:15420   */\n      dup2\n        /* \"#utility.yul\":15408:15420   */\n      swap1\n      pop\n        /* \"#utility.yul\":15366:15426   */\n      swap2\n      swap1\n      pop\n      jump\t// out\n        /* \"#utility.yul\":15432:15574   */\n    tag_330:\n        /* \"#utility.yul\":15482:15491   */\n      0x00\n        /* \"#utility.yul\":15515:15568   */\n      tag_538\n        /* \"#utility.yul\":15533:15567   */\n      tag_539\n        /* \"#utility.yul\":15542:15566   */\n      tag_540\n        /* \"#utility.yul\":15560:15565   */\n      dup5\n        /* \"#utility.yul\":15542:15566   */\n      tag_282\n      jump\t// in\n    tag_540:\n        /* \"#utility.yul\":15533:15567   */\n      tag_329\n      jump\t// in\n    tag_539:\n        /* \"#utility.yul\":15515:15568   */\n      tag_282\n      jump\t// in\n    tag_538:\n        /* \"#utility.yul\":15502:15568   */\n      swap1\n      pop\n        /* \"#utility.yul\":15432:15574   */\n      swap2\n      swap1\n      pop\n      jump\t// out\n        /* \"#utility.yul\":15580:15655   */\n    tag_331:\n        /* \"#utility.yul\":15623:15626   */\n      0x00\n        /* \"#utility.yul\":15644:15649   */\n      dup2\n        /* \"#utility.yul\":15637:15649   */\n      swap1\n      pop\n        /* \"#utility.yul\":15580:15655   */\n      swap2\n      swap1\n      pop\n      jump\t// out\n        /* \"#utility.yul\":15661:15930   */\n    tag_332:\n        /* \"#utility.yul\":15771:15810   */\n      tag_543\n        /* \"#utility.yul\":15802:15809   */\n      dup4\n        /* \"#utility.yul\":15771:15810   */\n      tag_330\n      jump\t// in\n    tag_543:\n        /* \"#utility.yul\":15832:15923   */\n      tag_544\n        /* \"#utility.yul\":15881:15922   */\n      tag_545\n        /* \"#utility.yul\":15905:15921   */\n      dup3\n        /* \"#utility.yul\":15881:15922   */\n      tag_331\n      jump\t// in\n    tag_545:\n        /* \"#utility.yul\":15873:15879   */\n      dup5\n        /* \"#utility.yul\":15866:15870   */\n      dup5\n        /* \"#utility.yul\":15860:15871   */\n      sload\n        /* \"#utility.yul\":15832:15923   */\n      tag_328\n      jump\t// in\n    tag_544:\n        /* \"#utility.yul\":15826:15830   */\n      dup3\n        /* \"#utility.yul\":15819:15924   */\n      sstore\n        /* \"#utility.yul\":15737:15930   */\n      pop\n        /* \"#utility.yul\":15661:15930   */\n      pop\n      pop\n      pop\n      jump\t// out\n        /* \"#utility.yul\":15936:16009   */\n    tag_333:\n        /* \"#utility.yul\":15981:15984   */\n      0x00\n        /* \"#utility.yul\":16002:16003   */\n      0x00\n        /* \"#utility.yul\":15995:16003   */\n      swap1\n      pop\n        /* \"#utility.yul\":15936:16009   */\n      swap1\n      jump\t// out\n        /* \"#utility.yul\":16015:16204   */\n    tag_334:\n        /* \"#utility.yul\":16092:16124   */\n      tag_548\n      tag_333\n      jump\t// in\n    tag_548:\n        /* \"#utility.yul\":16133:16198   */\n      tag_549\n        /* \"#utility.yul\":16191:16197   */\n      dup2\n        /* \"#utility.yul\":16183:16189   */\n      dup5\n        /* \"#utility.yul\":16177:16181   */\n      dup5\n        /* \"#utility.yul\":16133:16198   */\n      tag_332\n      jump\t// in\n    tag_549:\n        /* \"#utility.yul\":16068:16204   */\n      pop\n        /* \"#utility.yul\":16015:16204   */\n      pop\n      pop\n      jump\t// out\n        /* \"#utility.yul\":16210:16396   */\n    tag_335:\n        /* \"#utility.yul\":16270:16390   */\n    tag_551:\n        /* \"#utility.yul\":16287:16290   */\n      dup2\n        /* \"#utility.yul\":16280:16285   */\n      dup2\n        /* \"#utility.yul\":16277:16291   */\n      lt\n        /* \"#utility.yul\":16270:16390   */\n      iszero\n      tag_553\n      jumpi\n        /* \"#utility.yul\":16341:16380   */\n      tag_554\n        /* \"#utility.yul\":16378:16379   */\n      0x00\n        /* \"#utility.yul\":16371:16376   */\n      dup3\n        /* \"#utility.yul\":16341:16380   */\n      tag_334\n      jump\t// in\n    tag_554:\n        /* \"#utility.yul\":16314:16315   */\n      0x01\n        /* \"#utility.yul\":16307:16312   */\n      dup2\n        /* \"#utility.yul\":16303:16316   */\n      add\n        /* \"#utility.yul\":16294:16316   */\n      swap1\n      pop\n        /* \"#utility.yul\":16270:16390   */\n      jump(tag_551)\n    tag_553:\n        /* \"#utility.yul\":16210:16396   */\n      pop\n      pop\n      jump\t// out\n        /* \"#utility.yul\":16402:16945   */\n    tag_336:\n        /* \"#utility.yul\":16503:16505   */\n      0x1f\n        /* \"#utility.yul\":16498:16501   */\n      dup3\n        /* \"#utility.yul\":16495:16506   */\n      gt\n        /* \"#utility.yul\":16492:16938   */\n      iszero\n      tag_556\n      jumpi\n        /* \"#utility.yul\":16537:16575   */\n      tag_557\n        /* \"#utility.yul\":16569:16574   */\n      dup2\n        /* \"#utility.yul\":16537:16575   */\n      tag_325\n      jump\t// in\n    tag_557:\n        /* \"#utility.yul\":16621:16650   */\n      tag_558\n        /* \"#utility.yul\":16639:16649   */\n      dup5\n        /* \"#utility.yul\":16621:16650   */\n      tag_326\n      jump\t// in\n    tag_558:\n        /* \"#utility.yul\":16611:16619   */\n      dup2\n        /* \"#utility.yul\":16607:16651   */\n      add\n        /* \"#utility.yul\":16804:16806   */\n      0x20\n        /* \"#utility.yul\":16792:16802   */\n      dup6\n        /* \"#utility.yul\":16789:16807   */\n      lt\n        /* \"#utility.yul\":16786:16835   */\n      iszero\n      tag_559\n      jumpi\n        /* \"#utility.yul\":16825:16833   */\n      dup2\n        /* \"#utility.yul\":16810:16833   */\n      swap1\n      pop\n        /* \"#utility.yul\":16786:16835   */\n    tag_559:\n        /* \"#utility.yul\":16848:16928   */\n      tag_560\n        /* \"#utility.yul\":16904:16926   */\n      tag_561\n        /* \"#utility.yul\":16922:16925   */\n      dup6\n        /* \"#utility.yul\":16904:16926   */\n      tag_326\n      jump\t// in\n    tag_561:\n        /* \"#utility.yul\":16894:16902   */\n      dup4\n        /* \"#utility.yul\":16890:16927   */\n      add\n        /* \"#utility.yul\":16877:16888   */\n      dup3\n        /* \"#utility.yul\":16848:16928   */\n      tag_335\n      jump\t// in\n    tag_560:\n        /* \"#utility.yul\":16507:16938   */\n      pop\n      pop\n        /* \"#utility.yul\":16492:16938   */\n    tag_556:\n        /* \"#utility.yul\":16402:16945   */\n      pop\n      pop\n      pop\n      jump\t// out\n        /* \"#utility.yul\":16951:17068   */\n    tag_337:\n        /* \"#utility.yul\":17005:17013   */\n      0x00\n        /* \"#utility.yul\":17055:17060   */\n      dup3\n        /* \"#utility.yul\":17049:17053   */\n      dup3\n        /* \"#utility.yul\":17045:17061   */\n      shr\n        /* \"#utility.yul\":17024:17061   */\n      swap1\n      pop\n        /* \"#utility.yul\":16951:17068   */\n      swap3\n      swap2\n      pop\n      pop\n      jump\t// out\n        /* \"#utility.yul\":17074:17243   */\n    tag_338:\n        /* \"#utility.yul\":17118:17124   */\n      0x00\n        /* \"#utility.yul\":17151:17202   */\n      tag_564\n        /* \"#utility.yul\":17199:17200   */\n      0x00\n        /* \"#utility.yul\":17195:17201   */\n      not\n        /* \"#utility.yul\":17187:17192   */\n      dup5\n        /* \"#utility.yul\":17184:17185   */\n      0x08\n        /* \"#utility.yul\":17180:17193   */\n      mul\n        /* \"#utility.yul\":17151:17202   */\n      tag_337\n      jump\t// in\n    tag_564:\n        /* \"#utility.yul\":17147:17203   */\n      not\n        /* \"#utility.yul\":17232:17236   */\n      dup1\n        /* \"#utility.yul\":17226:17230   */\n      dup4\n        /* \"#utility.yul\":17222:17237   */\n      and\n        /* \"#utility.yul\":17212:17237   */\n      swap2\n      pop\n        /* \"#utility.yul\":17125:17243   */\n      pop\n        /* \"#utility.yul\":17074:17243   */\n      swap3\n      swap2\n      pop\n      pop\n      jump\t// out\n        /* \"#utility.yul\":17248:17543   */\n    tag_339:\n        /* \"#utility.yul\":17324:17328   */\n      0x00\n        /* \"#utility.yul\":17470:17499   */\n      tag_566\n        /* \"#utility.yul\":17495:17498   */\n      dup4\n        /* \"#utility.yul\":17489:17493   */\n      dup4\n        /* \"#utility.yul\":17470:17499   */\n      tag_338\n      jump\t// in\n    tag_566:\n        /* \"#utility.yul\":17462:17499   */\n      swap2\n      pop\n        /* \"#utility.yul\":17532:17535   */\n      dup3\n        /* \"#utility.yul\":17529:17530   */\n      0x02\n        /* \"#utility.yul\":17525:17536   */\n      mul\n        /* \"#utility.yul\":17519:17523   */\n      dup3\n        /* \"#utility.yul\":17516:17537   */\n      or\n        /* \"#utility.yul\":17508:17537   */\n      swap1\n      pop\n        /* \"#utility.yul\":17248:17543   */\n      swap3\n      swap2\n      pop\n      pop\n      jump\t// out\n        /* \"#utility.yul\":17548:18943   */\n    tag_136:\n        /* \"#utility.yul\":17665:17702   */\n      tag_568\n        /* \"#utility.yul\":17698:17701   */\n      dup3\n        /* \"#utility.yul\":17665:17702   */\n      tag_286\n      jump\t// in\n    tag_568:\n        /* \"#utility.yul\":17767:17785   */\n      0xffffffffffffffff\n        /* \"#utility.yul\":17759:17765   */\n      dup2\n        /* \"#utility.yul\":17756:17786   */\n      gt\n        /* \"#utility.yul\":17753:17809   */\n      iszero\n      tag_569\n      jumpi\n        /* \"#utility.yul\":17789:17807   */\n      tag_570\n      tag_304\n      jump\t// in\n    tag_570:\n        /* \"#utility.yul\":17753:17809   */\n    tag_569:\n        /* \"#utility.yul\":17833:17871   */\n      tag_571\n        /* \"#utility.yul\":17865:17869   */\n      dup3\n        /* \"#utility.yul\":17859:17870   */\n      sload\n        /* \"#utility.yul\":17833:17871   */\n      tag_118\n      jump\t// in\n    tag_571:\n        /* \"#utility.yul\":17918:17985   */\n      tag_572\n        /* \"#utility.yul\":17978:17984   */\n      dup3\n        /* \"#utility.yul\":17970:17976   */\n      dup3\n        /* \"#utility.yul\":17964:17968   */\n      dup6\n        /* \"#utility.yul\":17918:17985   */\n      tag_336\n      jump\t// in\n    tag_572:\n        /* \"#utility.yul\":18012:18013   */\n      0x00\n        /* \"#utility.yul\":18036:18040   */\n      0x20\n        /* \"#utility.yul\":18023:18040   */\n      swap1\n      pop\n        /* \"#utility.yul\":18068:18070   */\n      0x1f\n        /* \"#utility.yul\":18060:18066   */\n      dup4\n        /* \"#utility.yul\":18057:18071   */\n      gt\n        /* \"#utility.yul\":18085:18086   */\n      0x01\n        /* \"#utility.yul\":18080:18698   */\n      dup2\n      eq\n      tag_574\n      jumpi\n        /* \"#utility.yul\":18742:18743   */\n      0x00\n        /* \"#utility.yul\":18759:18765   */\n      dup5\n        /* \"#utility.yul\":18756:18833   */\n      iszero\n      tag_575\n      jumpi\n        /* \"#utility.yul\":18808:18817   */\n      dup3\n        /* \"#utility.yul\":18803:18806   */\n      dup8\n        /* \"#utility.yul\":18799:18818   */\n      add\n        /* \"#utility.yul\":18793:18819   */\n      mload\n        /* \"#utility.yul\":18784:18819   */\n      swap1\n      pop\n        /* \"#utility.yul\":18756:18833   */\n    tag_575:\n        /* \"#utility.yul\":18859:18926   */\n      tag_576\n        /* \"#utility.yul\":18919:18925   */\n      dup6\n        /* \"#utility.yul\":18912:18917   */\n      dup3\n        /* \"#utility.yul\":18859:18926   */\n      tag_339\n      jump\t// in\n    tag_576:\n        /* \"#utility.yul\":18853:18857   */\n      dup7\n        /* \"#utility.yul\":18846:18927   */\n      sstore\n        /* \"#utility.yul\":18715:18937   */\n      pop\n        /* \"#utility.yul\":18050:18937   */\n      jump(tag_573)\n        /* \"#utility.yul\":18080:18698   */\n    tag_574:\n        /* \"#utility.yul\":18132:18136   */\n      0x1f\n        /* \"#utility.yul\":18128:18137   */\n      not\n        /* \"#utility.yul\":18120:18126   */\n      dup5\n        /* \"#utility.yul\":18116:18138   */\n      and\n        /* \"#utility.yul\":18166:18203   */\n      tag_577\n        /* \"#utility.yul\":18198:18202   */\n      dup7\n        /* \"#utility.yul\":18166:18203   */\n      tag_325\n      jump\t// in\n    tag_577:\n        /* \"#utility.yul\":18225:18226   */\n      0x00\n        /* \"#utility.yul\":18239:18447   */\n    tag_578:\n        /* \"#utility.yul\":18253:18260   */\n      dup3\n        /* \"#utility.yul\":18250:18251   */\n      dup2\n        /* \"#utility.yul\":18247:18261   */\n      lt\n        /* \"#utility.yul\":18239:18447   */\n      iszero\n      tag_580\n      jumpi\n        /* \"#utility.yul\":18332:18341   */\n      dup5\n        /* \"#utility.yul\":18327:18330   */\n      dup10\n        /* \"#utility.yul\":18323:18342   */\n      add\n        /* \"#utility.yul\":18317:18343   */\n      mload\n        /* \"#utility.yul\":18309:18315   */\n      dup3\n        /* \"#utility.yul\":18302:18344   */\n      sstore\n        /* \"#utility.yul\":18383:18384   */\n      0x01\n        /* \"#utility.yul\":18375:18381   */\n      dup3\n        /* \"#utility.yul\":18371:18385   */\n      add\n        /* \"#utility.yul\":18361:18385   */\n      swap2\n      pop\n        /* \"#utility.yul\":18430:18432   */\n      0x20\n        /* \"#utility.yul\":18419:18428   */\n      dup6\n        /* \"#utility.yul\":18415:18433   */\n      add\n        /* \"#utility.yul\":18402:18433   */\n      swap5\n      pop\n        /* \"#utility.yul\":18276:18280   */\n      0x20\n        /* \"#utility.yul\":18273:18274   */\n      dup2\n        /* \"#utility.yul\":18269:18281   */\n      add\n        /* \"#utility.yul\":18264:18281   */\n      swap1\n      pop\n        /* \"#utility.yul\":18239:18447   */\n      jump(tag_578)\n    tag_580:\n        /* \"#utility.yul\":18475:18481   */\n      dup7\n        /* \"#utility.yul\":18466:18473   */\n      dup4\n        /* \"#utility.yul\":18463:18482   */\n      lt\n        /* \"#utility.yul\":18460:18639   */\n      iszero\n      tag_581\n      jumpi\n        /* \"#utility.yul\":18533:18542   */\n      dup5\n        /* \"#utility.yul\":18528:18531   */\n      dup10\n        /* \"#utility.yul\":18524:18543   */\n      add\n        /* \"#utility.yul\":18518:18544   */\n      mload\n        /* \"#utility.yul\":18576:18624   */\n      tag_582\n        /* \"#utility.yul\":18618:18622   */\n      0x1f\n        /* \"#utility.yul\":18610:18616   */\n      dup10\n        /* \"#utility.yul\":18606:18623   */\n      and\n        /* \"#utility.yul\":18595:18604   */\n      dup3\n        /* \"#utility.yul\":18576:18624   */\n      tag_338\n      jump\t// in\n    tag_582:\n        /* \"#utility.yul\":18568:18574   */\n      dup4\n        /* \"#utility.yul\":18561:18625   */\n      sstore\n        /* \"#utility.yul\":18483:18639   */\n      pop\n        /* \"#utility.yul\":18460:18639   */\n    tag_581:\n        /* \"#utility.yul\":18685:18686   */\n      0x01\n        /* \"#utility.yul\":18681:18682   */\n      0x02\n        /* \"#utility.yul\":18673:18679   */\n      dup9\n        /* \"#utility.yul\":18669:18683   */\n      mul\n        /* \"#utility.yul\":18665:18687   */\n      add\n        /* \"#utility.yul\":18659:18663   */\n      dup9\n        /* \"#utility.yul\":18652:18688   */\n      sstore\n        /* \"#utility.yul\":18087:18698   */\n      pop\n      pop\n      pop\n        /* \"#utility.yul\":18050:18937   */\n    tag_573:\n      pop\n        /* \"#utility.yul\":17640:18943   */\n      pop\n      pop\n      pop\n        /* \"#utility.yul\":17548:18943   */\n      pop\n      pop\n      jump\t// out\n        /* \"#utility.yul\":18949:19115   */\n    tag_340:\n        /* \"#utility.yul\":19089:19107   */\n      0x4e6f7420636f756e746572706172747900000000000000000000000000000000\n        /* \"#utility.yul\":19085:19086   */\n      0x00\n        /* \"#utility.yul\":19077:19083   */\n      dup3\n        /* \"#utility.yul\":19073:19087   */\n      add\n        /* \"#utility.yul\":19066:19108   */\n      mstore\n        /* \"#utility.yul\":18949:19115   */\n      pop\n      jump\t// out\n        /* \"#utility.yul\":19121:19487   */\n    tag_341:\n        /* \"#utility.yul\":19263:19266   */\n      0x00\n        /* \"#utility.yul\":19284:19351   */\n      tag_585\n        /* \"#utility.yul\":19348:19350   */\n      0x10\n        /* \"#utility.yul\":19343:19346   */\n      dup4\n        /* \"#utility.yul\":19284:19351   */\n      tag_287\n      jump\t// in\n    tag_585:\n        /* \"#utility.yul\":19277:19351   */\n      swap2\n      pop\n        /* \"#utility.yul\":19360:19453   */\n      tag_586\n        /* \"#utility.yul\":19449:19452   */\n      dup3\n        /* \"#utility.yul\":19360:19453   */\n      tag_340\n      jump\t// in\n    tag_586:\n        /* \"#utility.yul\":19478:19480   */\n      0x20\n        /* \"#utility.yul\":19473:19476   */\n      dup3\n        /* \"#utility.yul\":19469:19481   */\n      add\n        /* \"#utility.yul\":19462:19481   */\n      swap1\n      pop\n        /* \"#utility.yul\":19121:19487   */\n      swap2\n      swap1\n      pop\n      jump\t// out\n        /* \"#utility.yul\":19493:19912   */\n    tag_147:\n        /* \"#utility.yul\":19659:19663   */\n      0x00\n        /* \"#utility.yul\":19697:19699   */\n      0x20\n        /* \"#utility.yul\":19686:19695   */\n      dup3\n        /* \"#utility.yul\":19682:19700   */\n      add\n        /* \"#utility.yul\":19674:19700   */\n      swap1\n      pop\n        /* \"#utility.yul\":19746:19755   */\n      dup2\n        /* \"#utility.yul\":19740:19744   */\n      dup2\n        /* \"#utility.yul\":19736:19756   */\n      sub\n        /* \"#utility.yul\":19732:19733   */\n      0x00\n        /* \"#utility.yul\":19721:19730   */\n      dup4\n        /* \"#utility.yul\":19717:19734   */\n      add\n        /* \"#utility.yul\":19710:19757   */\n      mstore\n        /* \"#utility.yul\":19774:19905   */\n      tag_588\n        /* \"#utility.yul\":19900:19904   */\n      dup2\n        /* \"#utility.yul\":19774:19905   */\n      tag_341\n      jump\t// in\n    tag_588:\n        /* \"#utility.yul\":19766:19905   */\n      swap1\n      pop\n        /* \"#utility.yul\":19493:19912   */\n      swap2\n      swap1\n      pop\n      jump\t// out\n        /* \"#utility.yul\":19918:20078   */\n    tag_342:\n        /* \"#utility.yul\":20058:20070   */\n      0x4e6f74205369676e656400000000000000000000000000000000000000000000\n        /* \"#utility.yul\":20054:20055   */\n      0x00\n        /* \"#utility.yul\":20046:20052   */\n      dup3\n        /* \"#utility.yul\":20042:20056   */\n      add\n        /* \"#utility.yul\":20035:20071   */\n      mstore\n        /* \"#utility.yul\":19918:20078   */\n      pop\n      jump\t// out\n        /* \"#utility.yul\":20084:20450   */\n    tag_343:\n        /* \"#utility.yul\":20226:20229   */\n      0x00\n        /* \"#utility.yul\":20247:20314   */\n      tag_591\n        /* \"#utility.yul\":20311:20313   */\n      0x0a\n        /* \"#utility.yul\":20306:20309   */\n      dup4\n        /* \"#utility.yul\":20247:20314   */\n      tag_287\n      jump\t// in\n    tag_591:\n        /* \"#utility.yul\":20240:20314   */\n      swap2\n      pop\n        /* \"#utility.yul\":20323:20416   */\n      tag_592\n        /* \"#utility.yul\":20412:20415   */\n      dup3\n        /* \"#utility.yul\":20323:20416   */\n      tag_342\n      jump\t// in\n    tag_592:\n        /* \"#utility.yul\":20441:20443   */\n      0x20\n        /* \"#utility.yul\":20436:20439   */\n      dup3\n        /* \"#utility.yul\":20432:20444   */\n      add\n        /* \"#utility.yul\":20425:20444   */\n      swap1\n      pop\n        /* \"#utility.yul\":20084:20450   */\n      swap2\n      swap1\n      pop\n      jump\t// out\n        /* \"#utility.yul\":20456:20875   */\n    tag_155:\n        /* \"#utility.yul\":20622:20626   */\n      0x00\n        /* \"#utility.yul\":20660:20662   */\n      0x20\n        /* \"#utility.yul\":20649:20658   */\n      dup3\n        /* \"#utility.yul\":20645:20663   */\n      add\n        /* \"#utility.yul\":20637:20663   */\n      swap1\n      pop\n        /* \"#utility.yul\":20709:20718   */\n      dup2\n        /* \"#utility.yul\":20703:20707   */\n      dup2\n        /* \"#utility.yul\":20699:20719   */\n      sub\n        /* \"#utility.yul\":20695:20696   */\n      0x00\n        /* \"#utility.yul\":20684:20693   */\n      dup4\n        /* \"#utility.yul\":20680:20697   */\n      add\n        /* \"#utility.yul\":20673:20720   */\n      mstore\n        /* \"#utility.yul\":20737:20868   */\n      tag_594\n        /* \"#utility.yul\":20863:20867   */\n      dup2\n        /* \"#utility.yul\":20737:20868   */\n      tag_343\n      jump\t// in\n    tag_594:\n        /* \"#utility.yul\":20729:20868   */\n      swap1\n      pop\n        /* \"#utility.yul\":20456:20875   */\n      swap2\n      swap1\n      pop\n      jump\t// out\n        /* \"#utility.yul\":20881:21042   */\n    tag_344:\n        /* \"#utility.yul\":21021:21034   */\n      0x416c726561647920736574000000000000000000000000000000000000000000\n        /* \"#utility.yul\":21017:21018   */\n      0x00\n        /* \"#utility.yul\":21009:21015   */\n      dup3\n        /* \"#utility.yul\":21005:21019   */\n      add\n        /* \"#utility.yul\":20998:21035   */\n      mstore\n        /* \"#utility.yul\":20881:21042   */\n      pop\n      jump\t// out\n        /* \"#utility.yul\":21048:21414   */\n    tag_345:\n        /* \"#utility.yul\":21190:21193   */\n      0x00\n        /* \"#utility.yul\":21211:21278   */\n      tag_597\n        /* \"#utility.yul\":21275:21277   */\n      0x0b\n        /* \"#utility.yul\":21270:21273   */\n      dup4\n        /* \"#utility.yul\":21211:21278   */\n      tag_287\n      jump\t// in\n    tag_597:\n        /* \"#utility.yul\":21204:21278   */\n      swap2\n      pop\n        /* \"#utility.yul\":21287:21380   */\n      tag_598\n        /* \"#utility.yul\":21376:21379   */\n      dup3\n        /* \"#utility.yul\":21287:21380   */\n      tag_344\n      jump\t// in\n    tag_598:\n        /* \"#utility.yul\":21405:21407   */\n      0x20\n        /* \"#utility.yul\":21400:21403   */\n      dup3\n        /* \"#utility.yul\":21396:21408   */\n      add\n        /* \"#utility.yul\":21389:21408   */\n      swap1\n      pop\n        /* \"#utility.yul\":21048:21414   */\n      swap2\n      swap1\n      pop\n      jump\t// out\n        /* \"#utility.yul\":21420:21839   */\n    tag_158:\n        /* \"#utility.yul\":21586:21590   */\n      0x00\n        /* \"#utility.yul\":21624:21626   */\n      0x20\n        /* \"#utility.yul\":21613:21622   */\n      dup3\n        /* \"#utility.yul\":21609:21627   */\n      add\n        /* \"#utility.yul\":21601:21627   */\n      swap1\n      pop\n        /* \"#utility.yul\":21673:21682   */\n      dup2\n        /* \"#utility.yul\":21667:21671   */\n      dup2\n        /* \"#utility.yul\":21663:21683   */\n      sub\n        /* \"#utility.yul\":21659:21660   */\n      0x00\n        /* \"#utility.yul\":21648:21657   */\n      dup4\n        /* \"#utility.yul\":21644:21661   */\n      add\n        /* \"#utility.yul\":21637:21684   */\n      mstore\n        /* \"#utility.yul\":21701:21832   */\n      tag_600\n        /* \"#utility.yul\":21827:21831   */\n      dup2\n        /* \"#utility.yul\":21701:21832   */\n      tag_345\n      jump\t// in\n    tag_600:\n        /* \"#utility.yul\":21693:21832   */\n      swap1\n      pop\n        /* \"#utility.yul\":21420:21839   */\n      swap2\n      swap1\n      pop\n      jump\t// out\n        /* \"#utility.yul\":21845:22268   */\n    tag_160:\n        /* \"#utility.yul\":21986:21990   */\n      0x00\n        /* \"#utility.yul\":22024:22026   */\n      0x40\n        /* \"#utility.yul\":22013:22022   */\n      dup3\n        /* \"#utility.yul\":22009:22027   */\n      add\n        /* \"#utility.yul\":22001:22027   */\n      swap1\n      pop\n        /* \"#utility.yul\":22037:22108   */\n      tag_602\n        /* \"#utility.yul\":22105:22106   */\n      0x00\n        /* \"#utility.yul\":22094:22103   */\n      dup4\n        /* \"#utility.yul\":22090:22107   */\n      add\n        /* \"#utility.yul\":22081:22087   */\n      dup6\n        /* \"#utility.yul\":22037:22108   */\n      tag_285\n      jump\t// in\n    tag_602:\n        /* \"#utility.yul\":22155:22164   */\n      dup2\n        /* \"#utility.yul\":22149:22153   */\n      dup2\n        /* \"#utility.yul\":22145:22165   */\n      sub\n        /* \"#utility.yul\":22140:22142   */\n      0x20\n        /* \"#utility.yul\":22129:22138   */\n      dup4\n        /* \"#utility.yul\":22125:22143   */\n      add\n        /* \"#utility.yul\":22118:22166   */\n      mstore\n        /* \"#utility.yul\":22183:22261   */\n      tag_603\n        /* \"#utility.yul\":22256:22260   */\n      dup2\n        /* \"#utility.yul\":22247:22253   */\n      dup5\n        /* \"#utility.yul\":22183:22261   */\n      tag_290\n      jump\t// in\n    tag_603:\n        /* \"#utility.yul\":22175:22261   */\n      swap1\n      pop\n        /* \"#utility.yul\":21845:22268   */\n      swap4\n      swap3\n      pop\n      pop\n      pop\n      jump\t// out\n        /* \"#utility.yul\":22274:22496   */\n    tag_164:\n        /* \"#utility.yul\":22367:22371   */\n      0x00\n        /* \"#utility.yul\":22405:22407   */\n      0x20\n        /* \"#utility.yul\":22394:22403   */\n      dup3\n        /* \"#utility.yul\":22390:22408   */\n      add\n        /* \"#utility.yul\":22382:22408   */\n      swap1\n      pop\n        /* \"#utility.yul\":22418:22489   */\n      tag_605\n        /* \"#utility.yul\":22486:22487   */\n      0x00\n        /* \"#utility.yul\":22475:22484   */\n      dup4\n        /* \"#utility.yul\":22471:22488   */\n      add\n        /* \"#utility.yul\":22462:22468   */\n      dup5\n        /* \"#utility.yul\":22418:22489   */\n      tag_299\n      jump\t// in\n    tag_605:\n        /* \"#utility.yul\":22274:22496   */\n      swap3\n      swap2\n      pop\n      pop\n      jump\t// out\n        /* \"#utility.yul\":22502:22670   */\n    tag_346:\n        /* \"#utility.yul\":22642:22662   */\n      0x4f7261636c6520616c7265616479207365740000000000000000000000000000\n        /* \"#utility.yul\":22638:22639   */\n      0x00\n        /* \"#utility.yul\":22630:22636   */\n      dup3\n        /* \"#utility.yul\":22626:22640   */\n      add\n        /* \"#utility.yul\":22619:22663   */\n      mstore\n        /* \"#utility.yul\":22502:22670   */\n      pop\n      jump\t// out\n        /* \"#utility.yul\":22676:23042   */\n    tag_347:\n        /* \"#utility.yul\":22818:22821   */\n      0x00\n        /* \"#utility.yul\":22839:22906   */\n      tag_608\n        /* \"#utility.yul\":22903:22905   */\n      0x12\n        /* \"#utility.yul\":22898:22901   */\n      dup4\n        /* \"#utility.yul\":22839:22906   */\n      tag_287\n      jump\t// in\n    tag_608:\n        /* \"#utility.yul\":22832:22906   */\n      swap2\n      pop\n        /* \"#utility.yul\":22915:23008   */\n      tag_609\n        /* \"#utility.yul\":23004:23007   */\n      dup3\n        /* \"#utility.yul\":22915:23008   */\n      tag_346\n      jump\t// in\n    tag_609:\n        /* \"#utility.yul\":23033:23035   */\n      0x20\n        /* \"#utility.yul\":23028:23031   */\n      dup3\n        /* \"#utility.yul\":23024:23036   */\n      add\n        /* \"#utility.yul\":23017:23036   */\n      swap1\n      pop\n        /* \"#utility.yul\":22676:23042   */\n      swap2\n      swap1\n      pop\n      jump\t// out\n        /* \"#utility.yul\":23048:23467   */\n    tag_168:\n        /* \"#utility.yul\":23214:23218   */\n      0x00\n        /* \"#utility.yul\":23252:23254   */\n      0x20\n        /* \"#utility.yul\":23241:23250   */\n      dup3\n        /* \"#utility.yul\":23237:23255   */\n      add\n        /* \"#utility.yul\":23229:23255   */\n      swap1\n      pop\n        /* \"#utility.yul\":23301:23310   */\n      dup2\n        /* \"#utility.yul\":23295:23299   */\n      dup2\n        /* \"#utility.yul\":23291:23311   */\n      sub\n        /* \"#utility.yul\":23287:23288   */\n      0x00\n        /* \"#utility.yul\":23276:23285   */\n      dup4\n        /* \"#utility.yul\":23272:23289   */\n      add\n        /* \"#utility.yul\":23265:23312   */\n      mstore\n        /* \"#utility.yul\":23329:23460   */\n      tag_611\n        /* \"#utility.yul\":23455:23459   */\n      dup2\n        /* \"#utility.yul\":23329:23460   */\n      tag_347\n      jump\t// in\n    tag_611:\n        /* \"#utility.yul\":23321:23460   */\n      swap1\n      pop\n        /* \"#utility.yul\":23048:23467   */\n      swap2\n      swap1\n      pop\n      jump\t// out\n        /* \"#utility.yul\":23473:23637   */\n    tag_348:\n        /* \"#utility.yul\":23613:23629   */\n      0x496e76616c6964206f7261636c65000000000000000000000000000000000000\n        /* \"#utility.yul\":23609:23610   */\n      0x00\n        /* \"#utility.yul\":23601:23607   */\n      dup3\n        /* \"#utility.yul\":23597:23611   */\n      add\n        /* \"#utility.yul\":23590:23630   */\n      mstore\n        /* \"#utility.yul\":23473:23637   */\n      pop\n      jump\t// out\n        /* \"#utility.yul\":23643:24009   */\n    tag_349:\n        /* \"#utility.yul\":23785:23788   */\n      0x00\n        /* \"#utility.yul\":23806:23873   */\n      tag_614\n        /* \"#utility.yul\":23870:23872   */\n      0x0e\n        /* \"#utility.yul\":23865:23868   */\n      dup4\n        /* \"#utility.yul\":23806:23873   */\n      tag_287\n      jump\t// in\n    tag_614:\n        /* \"#utility.yul\":23799:23873   */\n      swap2\n      pop\n        /* \"#utility.yul\":23882:23975   */\n      tag_615\n        /* \"#utility.yul\":23971:23974   */\n      dup3\n        /* \"#utility.yul\":23882:23975   */\n      tag_348\n      jump\t// in\n    tag_615:\n        /* \"#utility.yul\":24000:24002   */\n      0x20\n        /* \"#utility.yul\":23995:23998   */\n      dup3\n        /* \"#utility.yul\":23991:24003   */\n      add\n        /* \"#utility.yul\":23984:24003   */\n      swap1\n      pop\n        /* \"#utility.yul\":23643:24009   */\n      swap2\n      swap1\n      pop\n      jump\t// out\n        /* \"#utility.yul\":24015:24434   */\n    tag_171:\n        /* \"#utility.yul\":24181:24185   */\n      0x00\n        /* \"#utility.yul\":24219:24221   */\n      0x20\n        /* \"#utility.yul\":24208:24217   */\n      dup3\n        /* \"#utility.yul\":24204:24222   */\n      add\n        /* \"#utility.yul\":24196:24222   */\n      swap1\n      pop\n        /* \"#utility.yul\":24268:24277   */\n      dup2\n        /* \"#utility.yul\":24262:24266   */\n      dup2\n        /* \"#utility.yul\":24258:24278   */\n      sub\n        /* \"#utility.yul\":24254:24255   */\n      0x00\n        /* \"#utility.yul\":24243:24252   */\n      dup4\n        /* \"#utility.yul\":24239:24256   */\n      add\n        /* \"#utility.yul\":24232:24279   */\n      mstore\n        /* \"#utility.yul\":24296:24427   */\n      tag_617\n        /* \"#utility.yul\":24422:24426   */\n      dup2\n        /* \"#utility.yul\":24296:24427   */\n      tag_349\n      jump\t// in\n    tag_617:\n        /* \"#utility.yul\":24288:24427   */\n      swap1\n      pop\n        /* \"#utility.yul\":24015:24434   */\n      swap2\n      swap1\n      pop\n      jump\t// out\n        /* \"#utility.yul\":24440:24600   */\n    tag_350:\n        /* \"#utility.yul\":24580:24592   */\n      0x4e6f74207369676e656400000000000000000000000000000000000000000000\n        /* \"#utility.yul\":24576:24577   */\n      0x00\n        /* \"#utility.yul\":24568:24574   */\n      dup3\n        /* \"#utility.yul\":24564:24578   */\n      add\n        /* \"#utility.yul\":24557:24593   */\n      mstore\n        /* \"#utility.yul\":24440:24600   */\n      pop\n      jump\t// out\n        /* \"#utility.yul\":24606:24972   */\n    tag_351:\n        /* \"#utility.yul\":24748:24751   */\n      0x00\n        /* \"#utility.yul\":24769:24836   */\n      tag_620\n        /* \"#utility.yul\":24833:24835   */\n      0x0a\n        /* \"#utility.yul\":24828:24831   */\n      dup4\n        /* \"#utility.yul\":24769:24836   */\n      tag_287\n      jump\t// in\n    tag_620:\n        /* \"#utility.yul\":24762:24836   */\n      swap2\n      pop\n        /* \"#utility.yul\":24845:24938   */\n      tag_621\n        /* \"#utility.yul\":24934:24937   */\n      dup3\n        /* \"#utility.yul\":24845:24938   */\n      tag_350\n      jump\t// in\n    tag_621:\n        /* \"#utility.yul\":24963:24965   */\n      0x20\n        /* \"#utility.yul\":24958:24961   */\n      dup3\n        /* \"#utility.yul\":24954:24966   */\n      add\n        /* \"#utility.yul\":24947:24966   */\n      swap1\n      pop\n        /* \"#utility.yul\":24606:24972   */\n      swap2\n      swap1\n      pop\n      jump\t// out\n        /* \"#utility.yul\":24978:25397   */\n    tag_182:\n        /* \"#utility.yul\":25144:25148   */\n      0x00\n        /* \"#utility.yul\":25182:25184   */\n      0x20\n        /* \"#utility.yul\":25171:25180   */\n      dup3\n        /* \"#utility.yul\":25167:25185   */\n      add\n        /* \"#utility.yul\":25159:25185   */\n      swap1\n      pop\n        /* \"#utility.yul\":25231:25240   */\n      dup2\n        /* \"#utility.yul\":25225:25229   */\n      dup2\n        /* \"#utility.yul\":25221:25241   */\n      sub\n        /* \"#utility.yul\":25217:25218   */\n      0x00\n        /* \"#utility.yul\":25206:25215   */\n      dup4\n        /* \"#utility.yul\":25202:25219   */\n      add\n        /* \"#utility.yul\":25195:25242   */\n      mstore\n        /* \"#utility.yul\":25259:25390   */\n      tag_623\n        /* \"#utility.yul\":25385:25389   */\n      dup2\n        /* \"#utility.yul\":25259:25390   */\n      tag_351\n      jump\t// in\n    tag_623:\n        /* \"#utility.yul\":25251:25390   */\n      swap1\n      pop\n        /* \"#utility.yul\":24978:25397   */\n      swap2\n      swap1\n      pop\n      jump\t// out\n        /* \"#utility.yul\":25403:25575   */\n    tag_352:\n        /* \"#utility.yul\":25543:25567   */\n      0x44656c697665727920666c6f7720726571756972656400000000000000000000\n        /* \"#utility.yul\":25539:25540   */\n      0x00\n        /* \"#utility.yul\":25531:25537   */\n      dup3\n        /* \"#utility.yul\":25527:25541   */\n      add\n        /* \"#utility.yul\":25520:25568   */\n      mstore\n        /* \"#utility.yul\":25403:25575   */\n      pop\n      jump\t// out\n        /* \"#utility.yul\":25581:25947   */\n    tag_353:\n        /* \"#utility.yul\":25723:25726   */\n      0x00\n        /* \"#utility.yul\":25744:25811   */\n      tag_626\n        /* \"#utility.yul\":25808:25810   */\n      0x16\n        /* \"#utility.yul\":25803:25806   */\n      dup4\n        /* \"#utility.yul\":25744:25811   */\n      tag_287\n      jump\t// in\n    tag_626:\n        /* \"#utility.yul\":25737:25811   */\n      swap2\n      pop\n        /* \"#utility.yul\":25820:25913   */\n      tag_627\n        /* \"#utility.yul\":25909:25912   */\n      dup3\n        /* \"#utility.yul\":25820:25913   */\n      tag_352\n      jump\t// in\n    tag_627:\n        /* \"#utility.yul\":25938:25940   */\n      0x20\n        /* \"#utility.yul\":25933:25936   */\n      dup3\n        /* \"#utility.yul\":25929:25941   */\n      add\n        /* \"#utility.yul\":25922:25941   */\n      swap1\n      pop\n        /* \"#utility.yul\":25581:25947   */\n      swap2\n      swap1\n      pop\n      jump\t// out\n        /* \"#utility.yul\":25953:26372   */\n    tag_185:\n        /* \"#utility.yul\":26119:26123   */\n      0x00\n        /* \"#utility.yul\":26157:26159   */\n      0x20\n        /* \"#utility.yul\":26146:26155   */\n      dup3\n        /* \"#utility.yul\":26142:26160   */\n      add\n        /* \"#utility.yul\":26134:26160   */\n      swap1\n      pop\n        /* \"#utility.yul\":26206:26215   */\n      dup2\n        /* \"#utility.yul\":26200:26204   */\n      dup2\n        /* \"#utility.yul\":26196:26216   */\n      sub\n        /* \"#utility.yul\":26192:26193   */\n      0x00\n        /* \"#utility.yul\":26181:26190   */\n      dup4\n        /* \"#utility.yul\":26177:26194   */\n      add\n        /* \"#utility.yul\":26170:26217   */\n      mstore\n        /* \"#utility.yul\":26234:26365   */\n      tag_629\n        /* \"#utility.yul\":26360:26364   */\n      dup2\n        /* \"#utility.yul\":26234:26365   */\n      tag_353\n      jump\t// in\n    tag_629:\n        /* \"#utility.yul\":26226:26365   */\n      swap1\n      pop\n        /* \"#utility.yul\":25953:26372   */\n      swap2\n      swap1\n      pop\n      jump\t// out\n        /* \"#utility.yul\":26378:26539   */\n    tag_354:\n        /* \"#utility.yul\":26518:26531   */\n      0x4e6f742043726561746564000000000000000000000000000000000000000000\n        /* \"#utility.yul\":26514:26515   */\n      0x00\n        /* \"#utility.yul\":26506:26512   */\n      dup3\n        /* \"#utility.yul\":26502:26516   */\n      add\n        /* \"#utility.yul\":26495:26532   */\n      mstore\n        /* \"#utility.yul\":26378:26539   */\n      pop\n      jump\t// out\n        /* \"#utility.yul\":26545:26911   */\n    tag_355:\n        /* \"#utility.yul\":26687:26690   */\n      0x00\n        /* \"#utility.yul\":26708:26775   */\n      tag_632\n        /* \"#utility.yul\":26772:26774   */\n      0x0b\n        /* \"#utility.yul\":26767:26770   */\n      dup4\n        /* \"#utility.yul\":26708:26775   */\n      tag_287\n      jump\t// in\n    tag_632:\n        /* \"#utility.yul\":26701:26775   */\n      swap2\n      pop\n        /* \"#utility.yul\":26784:26877   */\n      tag_633\n        /* \"#utility.yul\":26873:26876   */\n      dup3\n        /* \"#utility.yul\":26784:26877   */\n      tag_354\n      jump\t// in\n    tag_633:\n        /* \"#utility.yul\":26902:26904   */\n      0x20\n        /* \"#utility.yul\":26897:26900   */\n      dup3\n        /* \"#utility.yul\":26893:26905   */\n      add\n        /* \"#utility.yul\":26886:26905   */\n      swap1\n      pop\n        /* \"#utility.yul\":26545:26911   */\n      swap2\n      swap1\n      pop\n      jump\t// out\n        /* \"#utility.yul\":26917:27336   */\n    tag_200:\n        /* \"#utility.yul\":27083:27087   */\n      0x00\n        /* \"#utility.yul\":27121:27123   */\n      0x20\n        /* \"#utility.yul\":27110:27119   */\n      dup3\n        /* \"#utility.yul\":27106:27124   */\n      add\n        /* \"#utility.yul\":27098:27124   */\n      swap1\n      pop\n        /* \"#utility.yul\":27170:27179   */\n      dup2\n        /* \"#utility.yul\":27164:27168   */\n      dup2\n        /* \"#utility.yul\":27160:27180   */\n      sub\n        /* \"#utility.yul\":27156:27157   */\n      0x00\n        /* \"#utility.yul\":27145:27154   */\n      dup4\n        /* \"#utility.yul\":27141:27158   */\n      add\n        /* \"#utility.yul\":27134:27181   */\n      mstore\n        /* \"#utility.yul\":27198:27329   */\n      tag_635\n        /* \"#utility.yul\":27324:27328   */\n      dup2\n        /* \"#utility.yul\":27198:27329   */\n      tag_355\n      jump\t// in\n    tag_635:\n        /* \"#utility.yul\":27190:27329   */\n      swap1\n      pop\n        /* \"#utility.yul\":26917:27336   */\n      swap2\n      swap1\n      pop\n      jump\t// out\n        /* \"#utility.yul\":27342:27510   */\n    tag_356:\n        /* \"#utility.yul\":27482:27502   */\n      0x302061646472206e6f7420616c6c6f7765640000000000000000000000000000\n        /* \"#utility.yul\":27478:27479   */\n      0x00\n        /* \"#utility.yul\":27470:27476   */\n      dup3\n        /* \"#utility.yul\":27466:27480   */\n      add\n        /* \"#utility.yul\":27459:27503   */\n      mstore\n        /* \"#utility.yul\":27342:27510   */\n      pop\n      jump\t// out\n        /* \"#utility.yul\":27516:27882   */\n    tag_357:\n        /* \"#utility.yul\":27658:27661   */\n      0x00\n        /* \"#utility.yul\":27679:27746   */\n      tag_638\n        /* \"#utility.yul\":27743:27745   */\n      0x12\n        /* \"#utility.yul\":27738:27741   */\n      dup4\n        /* \"#utility.yul\":27679:27746   */\n      tag_287\n      jump\t// in\n    tag_638:\n        /* \"#utility.yul\":27672:27746   */\n      swap2\n      pop\n        /* \"#utility.yul\":27755:27848   */\n      tag_639\n        /* \"#utility.yul\":27844:27847   */\n      dup3\n        /* \"#utility.yul\":27755:27848   */\n      tag_356\n      jump\t// in\n    tag_639:\n        /* \"#utility.yul\":27873:27875   */\n      0x20\n        /* \"#utility.yul\":27868:27871   */\n      dup3\n        /* \"#utility.yul\":27864:27876   */\n      add\n        /* \"#utility.yul\":27857:27876   */\n      swap1\n      pop\n        /* \"#utility.yul\":27516:27882   */\n      swap2\n      swap1\n      pop\n      jump\t// out\n        /* \"#utility.yul\":27888:28307   */\n    tag_206:\n        /* \"#utility.yul\":28054:28058   */\n      0x00\n        /* \"#utility.yul\":28092:28094   */\n      0x20\n        /* \"#utility.yul\":28081:28090   */\n      dup3\n        /* \"#utility.yul\":28077:28095   */\n      add\n        /* \"#utility.yul\":28069:28095   */\n      swap1\n      pop\n        /* \"#utility.yul\":28141:28150   */\n      dup2\n        /* \"#utility.yul\":28135:28139   */\n      dup2\n        /* \"#utility.yul\":28131:28151   */\n      sub\n        /* \"#utility.yul\":28127:28128   */\n      0x00\n        /* \"#utility.yul\":28116:28125   */\n      dup4\n        /* \"#utility.yul\":28112:28129   */\n      add\n        /* \"#utility.yul\":28105:28152   */\n      mstore\n        /* \"#utility.yul\":28169:28300   */\n      tag_641\n        /* \"#utility.yul\":28295:28299   */\n      dup2\n        /* \"#utility.yul\":28169:28300   */\n      tag_357\n      jump\t// in\n    tag_641:\n        /* \"#utility.yul\":28161:28300   */\n      swap1\n      pop\n        /* \"#utility.yul\":27888:28307   */\n      swap2\n      swap1\n      pop\n      jump\t// out\n        /* \"#utility.yul\":28313:28475   */\n    tag_358:\n        /* \"#utility.yul\":28453:28467   */\n      0x455448206d69736d617463680000000000000000000000000000000000000000\n        /* \"#utility.yul\":28449:28450   */\n      0x00\n        /* \"#utility.yul\":28441:28447   */\n      dup3\n        /* \"#utility.yul\":28437:28451   */\n      add\n        /* \"#utility.yul\":28430:28468   */\n      mstore\n        /* \"#utility.yul\":28313:28475   */\n      pop\n      jump\t// out\n        /* \"#utility.yul\":28481:28847   */\n    tag_359:\n        /* \"#utility.yul\":28623:28626   */\n      0x00\n        /* \"#utility.yul\":28644:28711   */\n      tag_644\n        /* \"#utility.yul\":28708:28710   */\n      0x0c\n        /* \"#utility.yul\":28703:28706   */\n      dup4\n        /* \"#utility.yul\":28644:28711   */\n      tag_287\n      jump\t// in\n    tag_644:\n        /* \"#utility.yul\":28637:28711   */\n      swap2\n      pop\n        /* \"#utility.yul\":28720:28813   */\n      tag_645\n        /* \"#utility.yul\":28809:28812   */\n      dup3\n        /* \"#utility.yul\":28720:28813   */\n      tag_358\n      jump\t// in\n    tag_645:\n        /* \"#utility.yul\":28838:28840   */\n      0x20\n        /* \"#utility.yul\":28833:28836   */\n      dup3\n        /* \"#utility.yul\":28829:28841   */\n      add\n        /* \"#utility.yul\":28822:28841   */\n      swap1\n      pop\n        /* \"#utility.yul\":28481:28847   */\n      swap2\n      swap1\n      pop\n      jump\t// out\n        /* \"#utility.yul\":28853:29272   */\n    tag_209:\n        /* \"#utility.yul\":29019:29023   */\n      0x00\n        /* \"#utility.yul\":29057:29059   */\n      0x20\n        /* \"#utility.yul\":29046:29055   */\n      dup3\n        /* \"#utility.yul\":29042:29060   */\n      add\n        /* \"#utility.yul\":29034:29060   */\n      swap1\n      pop\n        /* \"#utility.yul\":29106:29115   */\n      dup2\n        /* \"#utility.yul\":29100:29104   */\n      dup2\n        /* \"#utility.yul\":29096:29116   */\n      sub\n        /* \"#utility.yul\":29092:29093   */\n      0x00\n        /* \"#utility.yul\":29081:29090   */\n      dup4\n        /* \"#utility.yul\":29077:29094   */\n      add\n        /* \"#utility.yul\":29070:29117   */\n      mstore\n        /* \"#utility.yul\":29134:29265   */\n      tag_647\n        /* \"#utility.yul\":29260:29264   */\n      dup2\n        /* \"#utility.yul\":29134:29265   */\n      tag_359\n      jump\t// in\n    tag_647:\n        /* \"#utility.yul\":29126:29265   */\n      swap1\n      pop\n        /* \"#utility.yul\":28853:29272   */\n      swap2\n      swap1\n      pop\n      jump\t// out\n        /* \"#utility.yul\":29278:29449   */\n    tag_360:\n        /* \"#utility.yul\":29418:29441   */\n      0x496e76616c696420636f6e747261637420686173680000000000000000000000\n        /* \"#utility.yul\":29414:29415   */\n      0x00\n        /* \"#utility.yul\":29406:29412   */\n      dup3\n        /* \"#utility.yul\":29402:29416   */\n      add\n        /* \"#utility.yul\":29395:29442   */\n      mstore\n        /* \"#utility.yul\":29278:29449   */\n      pop\n      jump\t// out\n        /* \"#utility.yul\":29455:29821   */\n    tag_361:\n        /* \"#utility.yul\":29597:29600   */\n      0x00\n        /* \"#utility.yul\":29618:29685   */\n      tag_650\n        /* \"#utility.yul\":29682:29684   */\n      0x15\n        /* \"#utility.yul\":29677:29680   */\n      dup4\n        /* \"#utility.yul\":29618:29685   */\n      tag_287\n      jump\t// in\n    tag_650:\n        /* \"#utility.yul\":29611:29685   */\n      swap2\n      pop\n        /* \"#utility.yul\":29694:29787   */\n      tag_651\n        /* \"#utility.yul\":29783:29786   */\n      dup3\n        /* \"#utility.yul\":29694:29787   */\n      tag_360\n      jump\t// in\n    tag_651:\n        /* \"#utility.yul\":29812:29814   */\n      0x20\n        /* \"#utility.yul\":29807:29810   */\n      dup3\n        /* \"#utility.yul\":29803:29815   */\n      add\n        /* \"#utility.yul\":29796:29815   */\n      swap1\n      pop\n        /* \"#utility.yul\":29455:29821   */\n      swap2\n      swap1\n      pop\n      jump\t// out\n        /* \"#utility.yul\":29827:30246   */\n    tag_212:\n        /* \"#utility.yul\":29993:29997   */\n      0x00\n        /* \"#utility.yul\":30031:30033   */\n      0x20\n        /* \"#utility.yul\":30020:30029   */\n      dup3\n        /* \"#utility.yul\":30016:30034   */\n      add\n        /* \"#utility.yul\":30008:30034   */\n      swap1\n      pop\n        /* \"#utility.yul\":30080:30089   */\n      dup2\n        /* \"#utility.yul\":30074:30078   */\n      dup2\n        /* \"#utility.yul\":30070:30090   */\n      sub\n        /* \"#utility.yul\":30066:30067   */\n      0x00\n        /* \"#utility.yul\":30055:30064   */\n      dup4\n        /* \"#utility.yul\":30051:30068   */\n      add\n        /* \"#utility.yul\":30044:30091   */\n      mstore\n        /* \"#utility.yul\":30108:30239   */\n      tag_653\n        /* \"#utility.yul\":30234:30238   */\n      dup2\n        /* \"#utility.yul\":30108:30239   */\n      tag_361\n      jump\t// in\n    tag_653:\n        /* \"#utility.yul\":30100:30239   */\n      swap1\n      pop\n        /* \"#utility.yul\":29827:30246   */\n      swap2\n      swap1\n      pop\n      jump\t// out\n        /* \"#utility.yul\":30252:30485   */\n    tag_214:\n        /* \"#utility.yul\":30291:30294   */\n      0x00\n        /* \"#utility.yul\":30314:30338   */\n      tag_655\n        /* \"#utility.yul\":30332:30337   */\n      dup3\n        /* \"#utility.yul\":30314:30338   */\n      tag_282\n      jump\t// in\n    tag_655:\n        /* \"#utility.yul\":30305:30338   */\n      swap2\n      pop\n        /* \"#utility.yul\":30360:30426   */\n      0xffffffffffffffffffffffffffffffffffffffffffffffffffffffffffffffff\n        /* \"#utility.yul\":30353:30358   */\n      dup3\n        /* \"#utility.yul\":30350:30427   */\n      sub\n        /* \"#utility.yul\":30347:30450   */\n      tag_656\n      jumpi\n        /* \"#utility.yul\":30430:30448   */\n      tag_657\n      tag_321\n      jump\t// in\n    tag_657:\n        /* \"#utility.yul\":30347:30450   */\n    tag_656:\n        /* \"#utility.yul\":30477:30478   */\n      0x01\n        /* \"#utility.yul\":30470:30475   */\n      dup3\n        /* \"#utility.yul\":30466:30479   */\n      add\n        /* \"#utility.yul\":30459:30479   */\n      swap1\n      pop\n        /* \"#utility.yul\":30252:30485   */\n      swap2\n      swap1\n      pop\n      jump\t// out\n        /* \"#utility.yul\":30491:30633   */\n    tag_362:\n        /* \"#utility.yul\":30541:30550   */\n      0x00\n        /* \"#utility.yul\":30574:30627   */\n      tag_659\n        /* \"#utility.yul\":30592:30626   */\n      tag_660\n        /* \"#utility.yul\":30601:30625   */\n      tag_661\n        /* \"#utility.yul\":30619:30624   */\n      dup5\n        /* \"#utility.yul\":30601:30625   */\n      tag_295\n      jump\t// in\n    tag_661:\n        /* \"#utility.yul\":30592:30626   */\n      tag_329\n      jump\t// in\n    tag_660:\n        /* \"#utility.yul\":30574:30627   */\n      tag_295\n      jump\t// in\n    tag_659:\n        /* \"#utility.yul\":30561:30627   */\n      swap1\n      pop\n        /* \"#utility.yul\":30491:30633   */\n      swap2\n      swap1\n      pop\n      jump\t// out\n        /* \"#utility.yul\":30639:30765   */\n    tag_363:\n        /* \"#utility.yul\":30689:30698   */\n      0x00\n        /* \"#utility.yul\":30722:30759   */\n      tag_663\n        /* \"#utility.yul\":30753:30758   */\n      dup3\n        /* \"#utility.yul\":30722:30759   */\n      tag_362\n      jump\t// in\n    tag_663:\n        /* \"#utility.yul\":30709:30759   */\n      swap1\n      pop\n        /* \"#utility.yul\":30639:30765   */\n      swap2\n      swap1\n      pop\n      jump\t// out\n        /* \"#utility.yul\":30771:30905   */\n    tag_364:\n        /* \"#utility.yul\":30829:30838   */\n      0x00\n        /* \"#utility.yul\":30862:30899   */\n      tag_665\n        /* \"#utility.yul\":30893:30898   */\n      dup3\n        /* \"#utility.yul\":30862:30899   */\n      tag_363\n      jump\t// in\n    tag_665:\n        /* \"#utility.yul\":30849:30899   */\n      swap1\n      pop\n        /* \"#utility.yul\":30771:30905   */\n      swap2\n      swap1\n      pop\n      jump\t// out\n        /* \"#utility.yul\":30911:31058   */\n    tag_365:\n        /* \"#utility.yul\":31006:31051   */\n      tag_667\n        /* \"#utility.yul\":31045:31050   */\n      dup2\n        /* \"#utility.yul\":31006:31051   */\n      tag_364\n      jump\t// in\n    tag_667:\n        /* \"#utility.yul\":31001:31004   */\n      dup3\n        /* \"#utility.yul\":30994:31052   */\n      mstore\n        /* \"#utility.yul\":30911:31058   */\n      pop\n      pop\n      jump\t// out\n        /* \"#utility.yul\":31064:31412   */\n    tag_219:\n        /* \"#utility.yul\":31193:31197   */\n      0x00\n        /* \"#utility.yul\":31231:31233   */\n      0x40\n        /* \"#utility.yul\":31220:31229   */\n      dup3\n        /* \"#utility.yul\":31216:31234   */\n      add\n        /* \"#utility.yul\":31208:31234   */\n      swap1\n      pop\n        /* \"#utility.yul\":31244:31315   */\n      tag_669\n        /* \"#utility.yul\":31312:31313   */\n      0x00\n        /* \"#utility.yul\":31301:31310   */\n      dup4\n        /* \"#utility.yul\":31297:31314   */\n      add\n        /* \"#utility.yul\":31288:31294   */\n      dup6\n        /* \"#utility.yul\":31244:31315   */\n      tag_314\n      jump\t// in\n    tag_669:\n        /* \"#utility.yul\":31325:31405   */\n      tag_670\n        /* \"#utility.yul\":31401:31403   */\n      0x20\n        /* \"#utility.yul\":31390:31399   */\n      dup4\n        /* \"#utility.yul\":31386:31404   */\n      add\n        /* \"#utility.yul\":31377:31383   */\n      dup5\n        /* \"#utility.yul\":31325:31405   */\n      tag_365\n      jump\t// in\n    tag_670:\n        /* \"#utility.yul\":31064:31412   */\n      swap4\n      swap3\n      pop\n      pop\n      pop\n      jump\t// out\n        /* \"#utility.yul\":31418:31578   */\n    tag_366:\n        /* \"#utility.yul\":31558:31570   */\n      0x4e6f74206f7261636c6500000000000000000000000000000000000000000000\n        /* \"#utility.yul\":31554:31555   */\n      0x00\n        /* \"#utility.yul\":31546:31552   */\n      dup3\n        /* \"#utility.yul\":31542:31556   */\n      add\n        /* \"#utility.yul\":31535:31571   */\n      mstore\n        /* \"#utility.yul\":31418:31578   */\n      pop\n      jump\t// out\n        /* \"#utility.yul\":31584:31950   */\n    tag_367:\n        /* \"#utility.yul\":31726:31729   */\n      0x00\n        /* \"#utility.yul\":31747:31814   */\n      tag_673\n        /* \"#utility.yul\":31811:31813   */\n      0x0a\n        /* \"#utility.yul\":31806:31809   */\n      dup4\n        /* \"#utility.yul\":31747:31814   */\n      tag_287\n      jump\t// in\n    tag_673:\n        /* \"#utility.yul\":31740:31814   */\n      swap2\n      pop\n        /* \"#utility.yul\":31823:31916   */\n      tag_674\n        /* \"#utility.yul\":31912:31915   */\n      dup3\n        /* \"#utility.yul\":31823:31916   */\n      tag_366\n      jump\t// in\n    tag_674:\n        /* \"#utility.yul\":31941:31943   */\n      0x20\n        /* \"#utility.yul\":31936:31939   */\n      dup3\n        /* \"#utility.yul\":31932:31944   */\n      add\n        /* \"#utility.yul\":31925:31944   */\n      swap1\n      pop\n        /* \"#utility.yul\":31584:31950   */\n      swap2\n      swap1\n      pop\n      jump\t// out\n        /* \"#utility.yul\":31956:32375   */\n    tag_226:\n        /* \"#utility.yul\":32122:32126   */\n      0x00\n        /* \"#utility.yul\":32160:32162   */\n      0x20\n        /* \"#utility.yul\":32149:32158   */\n      dup3\n        /* \"#utility.yul\":32145:32163   */\n      add\n        /* \"#utility.yul\":32137:32163   */\n      swap1\n      pop\n        /* \"#utility.yul\":32209:32218   */\n      dup2\n        /* \"#utility.yul\":32203:32207   */\n      dup2\n        /* \"#utility.yul\":32199:32219   */\n      sub\n        /* \"#utility.yul\":32195:32196   */\n      0x00\n        /* \"#utility.yul\":32184:32193   */\n      dup4\n        /* \"#utility.yul\":32180:32197   */\n      add\n        /* \"#utility.yul\":32173:32220   */\n      mstore\n        /* \"#utility.yul\":32237:32368   */\n      tag_676\n        /* \"#utility.yul\":32363:32367   */\n      dup2\n        /* \"#utility.yul\":32237:32368   */\n      tag_367\n      jump\t// in\n    tag_676:\n        /* \"#utility.yul\":32229:32368   */\n      swap1\n      pop\n        /* \"#utility.yul\":31956:32375   */\n      swap2\n      swap1\n      pop\n      jump\t// out\n        /* \"#utility.yul\":32381:32542   */\n    tag_368:\n        /* \"#utility.yul\":32521:32534   */\n      0x4e6f2064656c6976657279000000000000000000000000000000000000000000\n        /* \"#utility.yul\":32517:32518   */\n      0x00\n        /* \"#utility.yul\":32509:32515   */\n      dup3\n        /* \"#utility.yul\":32505:32519   */\n      add\n        /* \"#utility.yul\":32498:32535   */\n      mstore\n        /* \"#utility.yul\":32381:32542   */\n      pop\n      jump\t// out\n        /* \"#utility.yul\":32548:32914   */\n    tag_369:\n        /* \"#utility.yul\":32690:32693   */\n      0x00\n        /* \"#utility.yul\":32711:32778   */\n      tag_679\n        /* \"#utility.yul\":32775:32777   */\n      0x0b\n        /* \"#utility.yul\":32770:32773   */\n      dup4\n        /* \"#utility.yul\":32711:32778   */\n      tag_287\n      jump\t// in\n    tag_679:\n        /* \"#utility.yul\":32704:32778   */\n      swap2\n      pop\n        /* \"#utility.yul\":32787:32880   */\n      tag_680\n        /* \"#utility.yul\":32876:32879   */\n      dup3\n        /* \"#utility.yul\":32787:32880   */\n      tag_368\n      jump\t// in\n    tag_680:\n        /* \"#utility.yul\":32905:32907   */\n      0x20\n        /* \"#utility.yul\":32900:32903   */\n      dup3\n        /* \"#utility.yul\":32896:32908   */\n      add\n        /* \"#utility.yul\":32889:32908   */\n      swap1\n      pop\n        /* \"#utility.yul\":32548:32914   */\n      swap2\n      swap1\n      pop\n      jump\t// out\n        /* \"#utility.yul\":32920:33339   */\n    tag_236:\n        /* \"#utility.yul\":33086:33090   */\n      0x00\n        /* \"#utility.yul\":33124:33126   */\n      0x20\n        /* \"#utility.yul\":33113:33122   */\n      dup3\n        /* \"#utility.yul\":33109:33127   */\n      add\n        /* \"#utility.yul\":33101:33127   */\n      swap1\n      pop\n        /* \"#utility.yul\":33173:33182   */\n      dup2\n        /* \"#utility.yul\":33167:33171   */\n      dup2\n        /* \"#utility.yul\":33163:33183   */\n      sub\n        /* \"#utility.yul\":33159:33160   */\n      0x00\n        /* \"#utility.yul\":33148:33157   */\n      dup4\n        /* \"#utility.yul\":33144:33161   */\n      add\n        /* \"#utility.yul\":33137:33184   */\n      mstore\n        /* \"#utility.yul\":33201:33332   */\n      tag_682\n        /* \"#utility.yul\":33327:33331   */\n      dup2\n        /* \"#utility.yul\":33201:33332   */\n      tag_369\n      jump\t// in\n    tag_682:\n        /* \"#utility.yul\":33193:33332   */\n      swap1\n      pop\n        /* \"#utility.yul\":32920:33339   */\n      swap2\n      swap1\n      pop\n      jump\t// out\n        /* \"#utility.yul\":33345:33508   */\n    tag_370:\n        /* \"#utility.yul\":33485:33500   */\n      0x48617368206d69736d6174636800000000000000000000000000000000000000\n        /* \"#utility.yul\":33481:33482   */\n      0x00\n        /* \"#utility.yul\":33473:33479   */\n      dup3\n        /* \"#utility.yul\":33469:33483   */\n      add\n        /* \"#utility.yul\":33462:33501   */\n      mstore\n        /* \"#utility.yul\":33345:33508   */\n      pop\n      jump\t// out\n        /* \"#utility.yul\":33514:33880   */\n    tag_371:\n        /* \"#utility.yul\":33656:33659   */\n      0x00\n        /* \"#utility.yul\":33677:33744   */\n      tag_685\n        /* \"#utility.yul\":33741:33743   */\n      0x0d\n        /* \"#utility.yul\":33736:33739   */\n      dup4\n        /* \"#utility.yul\":33677:33744   */\n      tag_287\n      jump\t// in\n    tag_685:\n        /* \"#utility.yul\":33670:33744   */\n      swap2\n      pop\n        /* \"#utility.yul\":33753:33846   */\n      tag_686\n        /* \"#utility.yul\":33842:33845   */\n      dup3\n        /* \"#utility.yul\":33753:33846   */\n      tag_370\n      jump\t// in\n    tag_686:\n        /* \"#utility.yul\":33871:33873   */\n      0x20\n        /* \"#utility.yul\":33866:33869   */\n      dup3\n        /* \"#utility.yul\":33862:33874   */\n      add\n        /* \"#utility.yul\":33855:33874   */\n      swap1\n      pop\n        /* \"#utility.yul\":33514:33880   */\n      swap2\n      swap1\n      pop\n      jump\t// out\n        /* \"#utility.yul\":33886:34305   */\n    tag_240:\n        /* \"#utility.yul\":34052:34056   */\n      0x00\n        /* \"#utility.yul\":34090:34092   */\n      0x20\n        /* \"#utility.yul\":34079:34088   */\n      dup3\n        /* \"#utility.yul\":34075:34093   */\n      add\n        /* \"#utility.yul\":34067:34093   */\n      swap1\n      pop\n        /* \"#utility.yul\":34139:34148   */\n      dup2\n        /* \"#utility.yul\":34133:34137   */\n      dup2\n        /* \"#utility.yul\":34129:34149   */\n      sub\n        /* \"#utility.yul\":34125:34126   */\n      0x00\n        /* \"#utility.yul\":34114:34123   */\n      dup4\n        /* \"#utility.yul\":34110:34127   */\n      add\n        /* \"#utility.yul\":34103:34150   */\n      mstore\n        /* \"#utility.yul\":34167:34298   */\n      tag_688\n        /* \"#utility.yul\":34293:34297   */\n      dup2\n        /* \"#utility.yul\":34167:34298   */\n      tag_371\n      jump\t// in\n    tag_688:\n        /* \"#utility.yul\":34159:34298   */\n      swap1\n      pop\n        /* \"#utility.yul\":33886:34305   */\n      swap2\n      swap1\n      pop\n      jump\t// out\n        /* \"#utility.yul\":34311:34477   */\n    tag_372:\n        /* \"#utility.yul\":34451:34469   */\n      0x4e6f7420776974686472617761626c6500000000000000000000000000000000\n        /* \"#utility.yul\":34447:34448   */\n      0x00\n        /* \"#utility.yul\":34439:34445   */\n      dup3\n        /* \"#utility.yul\":34435:34449   */\n      add\n        /* \"#utility.yul\":34428:34470   */\n      mstore\n        /* \"#utility.yul\":34311:34477   */\n      pop\n      jump\t// out\n        /* \"#utility.yul\":34483:34849   */\n    tag_373:\n        /* \"#utility.yul\":34625:34628   */\n      0x00\n        /* \"#utility.yul\":34646:34713   */\n      tag_691\n        /* \"#utility.yul\":34710:34712   */\n      0x10\n        /* \"#utility.yul\":34705:34708   */\n      dup4\n        /* \"#utility.yul\":34646:34713   */\n      tag_287\n      jump\t// in\n    tag_691:\n        /* \"#utility.yul\":34639:34713   */\n      swap2\n      pop\n        /* \"#utility.yul\":34722:34815   */\n      tag_692\n        /* \"#utility.yul\":34811:34814   */\n      dup3\n        /* \"#utility.yul\":34722:34815   */\n      tag_372\n      jump\t// in\n    tag_692:\n        /* \"#utility.yul\":34840:34842   */\n      0x20\n        /* \"#utility.yul\":34835:34838   */\n      dup3\n        /* \"#utility.yul\":34831:34843   */\n      add\n        /* \"#utility.yul\":34824:34843   */\n      swap1\n      pop\n        /* \"#utility.yul\":34483:34849   */\n      swap2\n      swap1\n      pop\n      jump\t// out\n        /* \"#utility.yul\":34855:35274   */\n    tag_262:\n        /* \"#utility.yul\":35021:35025   */\n      0x00\n        /* \"#utility.yul\":35059:35061   */\n      0x20\n        /* \"#utility.yul\":35048:35057   */\n      dup3\n        /* \"#utility.yul\":35044:35062   */\n      add\n        /* \"#utility.yul\":35036:35062   */\n      swap1\n      pop\n        /* \"#utility.yul\":35108:35117   */\n      dup2\n        /* \"#utility.yul\":35102:35106   */\n      dup2\n        /* \"#utility.yul\":35098:35118   */\n      sub\n        /* \"#utility.yul\":35094:35095   */\n      0x00\n        /* \"#utility.yul\":35083:35092   */\n      dup4\n        /* \"#utility.yul\":35079:35096   */\n      add\n        /* \"#utility.yul\":35072:35119   */\n      mstore\n        /* \"#utility.yul\":35136:35267   */\n      tag_694\n        /* \"#utility.yul\":35262:35266   */\n      dup2\n        /* \"#utility.yul\":35136:35267   */\n      tag_373\n      jump\t// in\n    tag_694:\n        /* \"#utility.yul\":35128:35267   */\n      swap1\n      pop\n        /* \"#utility.yul\":34855:35274   */\n      swap2\n      swap1\n      pop\n      jump\t// out\n        /* \"#utility.yul\":35280:35440   */\n    tag_374:\n        /* \"#utility.yul\":35420:35432   */\n      0x4e6f2062616c616e636500000000000000000000000000000000000000000000\n        /* \"#utility.yul\":35416:35417   */\n      0x00\n        /* \"#utility.yul\":35408:35414   */\n      dup3\n        /* \"#utility.yul\":35404:35418   */\n      add\n        /* \"#utility.yul\":35397:35433   */\n      mstore\n        /* \"#utility.yul\":35280:35440   */\n      pop\n      jump\t// out\n        /* \"#utility.yul\":35446:35812   */\n    tag_375:\n        /* \"#utility.yul\":35588:35591   */\n      0x00\n        /* \"#utility.yul\":35609:35676   */\n      tag_697\n        /* \"#utility.yul\":35673:35675   */\n      0x0a\n        /* \"#utility.yul\":35668:35671   */\n      dup4\n        /* \"#utility.yul\":35609:35676   */\n      tag_287\n      jump\t// in\n    tag_697:\n        /* \"#utility.yul\":35602:35676   */\n      swap2\n      pop\n        /* \"#utility.yul\":35685:35778   */\n      tag_698\n        /* \"#utility.yul\":35774:35777   */\n      dup3\n        /* \"#utility.yul\":35685:35778   */\n      tag_374\n      jump\t// in\n    tag_698:\n        /* \"#utility.yul\":35803:35805   */\n      0x20\n        /* \"#utility.yul\":35798:35801   */\n      dup3\n        /* \"#utility.yul\":35794:35806   */\n      add\n        /* \"#utility.yul\":35787:35806   */\n      swap1\n      pop\n        /* \"#utility.yul\":35446:35812   */\n      swap2\n      swap1\n      pop\n      jump\t// out\n        /* \"#utility.yul\":35818:36237   */\n    tag_265:\n        /* \"#utility.yul\":35984:35988   */\n      0x00\n        /* \"#utility.yul\":36022:36024   */\n      0x20\n        /* \"#utility.yul\":36011:36020   */\n      dup3\n        /* \"#utility.yul\":36007:36025   */\n      add\n        /* \"#utility.yul\":35999:36025   */\n      swap1\n      pop\n        /* \"#utility.yul\":36071:36080   */\n      dup2\n        /* \"#utility.yul\":36065:36069   */\n      dup2\n        /* \"#utility.yul\":36061:36081   */\n      sub\n        /* \"#utility.yul\":36057:36058   */\n      0x00\n        /* \"#utility.yul\":36046:36055   */\n      dup4\n        /* \"#utility.yul\":36042:36059   */\n      add\n        /* \"#utility.yul\":36035:36082   */\n      mstore\n        /* \"#utility.yul\":36099:36230   */\n      tag_700\n        /* \"#utility.yul\":36225:36229   */\n      dup2\n        /* \"#utility.yul\":36099:36230   */\n      tag_375\n      jump\t// in\n    tag_700:\n        /* \"#utility.yul\":36091:36230   */\n      swap1\n      pop\n        /* \"#utility.yul\":35818:36237   */\n      swap2\n      swap1\n      pop\n      jump\t// out\n        /* \"#utility.yul\":36243:36437   */\n    tag_267:\n        /* \"#utility.yul\":36283:36287   */\n      0x00\n        /* \"#utility.yul\":36303:36323   */\n      tag_702\n        /* \"#utility.yul\":36321:36322   */\n      dup3\n        /* \"#utility.yul\":36303:36323   */\n      tag_282\n      jump\t// in\n    tag_702:\n        /* \"#utility.yul\":36298:36323   */\n      swap2\n      pop\n        /* \"#utility.yul\":36337:36357   */\n      tag_703\n        /* \"#utility.yul\":36355:36356   */\n      dup4\n        /* \"#utility.yul\":36337:36357   */\n      tag_282\n      jump\t// in\n    tag_703:\n        /* \"#utility.yul\":36332:36357   */\n      swap3\n      pop\n        /* \"#utility.yul\":36381:36382   */\n      dup3\n        /* \"#utility.yul\":36378:36379   */\n      dup3\n        /* \"#utility.yul\":36374:36383   */\n      sub\n        /* \"#utility.yul\":36366:36383   */\n      swap1\n      pop\n        /* \"#utility.yul\":36405:36406   */\n      dup2\n        /* \"#utility.yul\":36399:36403   */\n      dup2\n        /* \"#utility.yul\":36396:36407   */\n      gt\n        /* \"#utility.yul\":36393:36430   */\n      iszero\n      tag_704\n      jumpi\n        /* \"#utility.yul\":36410:36428   */\n      tag_705\n      tag_321\n      jump\t// in\n    tag_705:\n        /* \"#utility.yul\":36393:36430   */\n    tag_704:\n        /* \"#utility.yul\":36243:36437   */\n      swap3\n      swap2\n      pop\n      pop\n      jump\t// out\n        /* \"#utility.yul\":36443:36624   */\n    tag_376:\n        /* \"#utility.yul\":36583:36616   */\n      0x5265656e7472616e637947756172643a207265656e7472616e742063616c6c00\n        /* \"#utility.yul\":36579:36580   */\n      0x00\n        /* \"#utility.yul\":36571:36577   */\n      dup3\n        /* \"#utility.yul\":36567:36581   */\n      add\n        /* \"#utility.yul\":36560:36617   */\n      mstore\n        /* \"#utility.yul\":36443:36624   */\n      pop\n      jump\t// out\n        /* \"#utility.yul\":36630:36996   */\n    tag_377:\n        /* \"#utility.yul\":36772:36775   */\n      0x00\n        /* \"#utility.yul\":36793:36860   */\n      tag_708\n        /* \"#utility.yul\":36857:36859   */\n      0x1f\n        /* \"#utility.yul\":36852:36855   */\n      dup4\n        /* \"#utility.yul\":36793:36860   */\n      tag_287\n      jump\t// in\n    tag_708:\n        /* \"#utility.yul\":36786:36860   */\n      swap2\n      pop\n        /* \"#utility.yul\":36869:36962   */\n      tag_709\n        /* \"#utility.yul\":36958:36961   */\n      dup3\n        /* \"#utility.yul\":36869:36962   */\n      tag_376\n      jump\t// in\n    tag_709:\n        /* \"#utility.yul\":36987:36989   */\n      0x20\n        /* \"#utility.yul\":36982:36985   */\n      dup3\n        /* \"#utility.yul\":36978:36990   */\n      add\n        /* \"#utility.yul\":36971:36990   */\n      swap1\n      pop\n        /* \"#utility.yul\":36630:36996   */\n      swap2\n      swap1\n      pop\n      jump\t// out\n        /* \"#utility.yul\":37002:37421   */\n    tag_277:\n        /* \"#utility.yul\":37168:37172   */\n      0x00\n        /* \"#utility.yul\":37206:37208   */\n      0x20\n        /* \"#utility.yul\":37195:37204   */\n      dup3\n        /* \"#utility.yul\":37191:37209   */\n      add\n        /* \"#utility.yul\":37183:37209   */\n      swap1\n      pop\n        /* \"#utility.yul\":37255:37264   */\n      dup2\n        /* \"#utility.yul\":37249:37253   */\n      dup2\n        /* \"#utility.yul\":37245:37265   */\n      sub\n        /* \"#utility.yul\":37241:37242   */\n      0x00\n        /* \"#utility.yul\":37230:37239   */\n      dup4\n        /* \"#utility.yul\":37226:37243   */\n      add\n        /* \"#utility.yul\":37219:37266   */\n      mstore\n        /* \"#utility.yul\":37283:37414   */\n      tag_711\n        /* \"#utility.yul\":37409:37413   */\n      dup2\n        /* \"#utility.yul\":37283:37414   */\n      tag_377\n      jump\t// in\n    tag_711:\n        /* \"#utility.yul\":37275:37414   */\n      swap1\n      pop\n        /* \"#utility.yul\":37002:37421   */\n      swap2\n      swap1\n      pop\n      jump\t// out\n\n    auxdata: 0xa264697066735822122009c6103572b564d3793f773a7a664b72bf9178821b32f4ca0d05725c9a8410f564736f6c634300081e0033\n}\n",
				"bytecode": {
					"linkReferences": {},
					"object": "6080604052348015600e575f5ffd5b5060015f81905550612c1d806100235f395ff3fe6080604052600436106100f2575f3560e01c80637dc0d1d011610089578063c43bf3c211610058578063c43bf3c214610311578063df5c298014610339578063edb3b27a14610361578063f3f437031461038b576100f2565b80637dc0d1d01461027b57806394aeb613146102a55780639537e8d1146102cd5780639ce5b6ca146102f5576100f2565b806322a45cd0116100c557806322a45cd0146101c0578063474da79a146101e857806354b7b6d31461022b5780637adbf97314610253576100f2565b8063032ca42d146100f6578063067bd3b41461011e5780630e9f08161461014857806317b1845814610184575b5f5ffd5b348015610101575f5ffd5b5061011c60048036038101906101179190611a3b565b6103c7565b005b348015610129575f5ffd5b50610132610644565b60405161013f9190611a75565b60405180910390f35b348015610153575f5ffd5b5061016e60048036038101906101699190611a3b565b61064a565b60405161017b9190611afe565b60405180910390f35b34801561018f575f5ffd5b506101aa60048036038101906101a59190611a3b565b6106ee565b6040516101b79190611b91565b60405180910390f35b3480156101cb575f5ffd5b506101e660048036038101906101e19190611a3b565b610718565b005b3480156101f3575f5ffd5b5061020e60048036038101906102099190611a3b565b6108ce565b604051610222989796959493929190611c1b565b60405180910390f35b348015610236575f5ffd5b50610251600480360381019061024c9190611dca565b6109ef565b005b34801561025e575f5ffd5b5061027960048036038101906102749190611e5f565b610c2a565b005b348015610286575f5ffd5b5061028f610d88565b60405161029c9190611e99565b60405180910390f35b3480156102b0575f5ffd5b506102cb60048036038101906102c69190611a3b565b610dad565b005b3480156102d8575f5ffd5b506102f360048036038101906102ee9190611a3b565b61104e565b005b61030f600480360381019061030a9190611edc565b6111da565b005b34801561031c575f5ffd5b5061033760048036038101906103329190611dca565b611412565b005b348015610344575f5ffd5b5061035f600480360381019061035a9190611a3b565b61165a565b005b34801561036c575f5ffd5b50610375611979565b6040516103829190611f48565b60405180910390f35b348015610396575f5ffd5b506103b160048036038101906103ac9190611e5f565b61198c565b6040516103be9190611a75565b60405180910390f35b8060025f8281526020019081526020015f206002015f9054906101000a900473ffffffffffffffffffffffffffffffffffffffff1673ffffffffffffffffffffffffffffffffffffffff163373ffffffffffffffffffffffffffffffffffffffff1614610469576040517f08c379a000000000000000000000000000000000000000000000000000000000815260040161046090611fab565b60405180910390fd5b5f60025f8481526020019081526020015f2090506003600781111561049157610490611b1e565b5b8160030160149054906101000a900460ff1660078111156104b5576104b4611b1e565b5b146104f5576040517f08c379a00000000000000000000000000000000000000000000000000000000081526004016104ec90612013565b60405180910390fd5b60048160030160146101000a81548160ff0219169083600781111561051d5761051c611b1e565b5b0217905550806001015460045f836003015f9054906101000a900473ffffffffffffffffffffffffffffffffffffffff1673ffffffffffffffffffffffffffffffffffffffff1673ffffffffffffffffffffffffffffffffffffffff1681526020019081526020015f205f828254610595919061205e565b92505081905550827f5c1e662f72ee6c85181b65fac5beb0390932b8c472f05b257151d041ac9ddffa60405160405180910390a2806003015f9054906101000a900473ffffffffffffffffffffffffffffffffffffffff1673ffffffffffffffffffffffffffffffffffffffff16837f21d71db5be59bb9fa133895586b7404307dd33fb93b16db09dc6f1d9d7d231b083600101546040516106379190611a75565b60405180910390a3505050565b60035481565b606060025f8381526020019081526020015f20600401805461066b906120be565b80601f0160208091040260200160405190810160405280929190818152602001828054610697906120be565b80156106e25780601f106106b9576101008083540402835291602001916106e2565b820191905f5260205f20905b8154815290600101906020018083116106c557829003601f168201915b50505050509050919050565b5f60025f8381526020019081526020015f2060030160149054906101000a900460ff169050919050565b8060025f8281526020019081526020015f206002015f9054906101000a900473ffffffffffffffffffffffffffffffffffffffff1673ffffffffffffffffffffffffffffffffffffffff163373ffffffffffffffffffffffffffffffffffffffff16146107ba576040517f08c379a00000000000000000000000000000000000000000000000000000000081526004016107b190611fab565b60405180910390fd5b5f60025f8481526020019081526020015f209050600660078111156107e2576107e1611b1e565b5b8160030160149054906101000a900460ff16600781111561080657610805611b1e565b5b03610846576040517f08c379a000000000000000000000000000000000000000000000000000000000815260040161083d90612138565b60405180910390fd5b60405180602001604052805f81525081600401908161086591906122f6565b505f816005018190555060078160030160146101000a81548160ff0219169083600781111561089757610896611b1e565b5b0217905550827f741b099f015e1976cfa72a7448a8fb1d54eab1d616241b562cfbe603a2b61b4260405160405180910390a2505050565b6002602052805f5260405f205f91509050805f015490806001015490806002015f9054906101000a900473ffffffffffffffffffffffffffffffffffffffff1690806003015f9054906101000a900473ffffffffffffffffffffffffffffffffffffffff16908060030160149054906101000a900460ff1690806004018054610956906120be565b80601f0160208091040260200160405190810160405280929190818152602001828054610982906120be565b80156109cd5780601f106109a4576101008083540402835291602001916109cd565b820191905f5260205f20905b8154815290600101906020018083116109b057829003601f168201915b505050505090806005015490806006015f9054906101000a900460ff16905088565b8160025f8281526020019081526020015f206003015f9054906101000a900473ffffffffffffffffffffffffffffffffffffffff1673ffffffffffffffffffffffffffffffffffffffff163373ffffffffffffffffffffffffffffffffffffffff1614610a91576040517f08c379a0000000000000000000000000000000000000000000000000000000008152600401610a889061240f565b60405180910390fd5b5f60025f8581526020019081526020015f20905060016007811115610ab957610ab8611b1e565b5b8160030160149054906101000a900460ff166007811115610add57610adc611b1e565b5b14610b1d576040517f08c379a0000000000000000000000000000000000000000000000000000000008152600401610b1490612477565b60405180910390fd5b806006015f9054906101000a900460ff1615610b6e576040517f08c379a0000000000000000000000000000000000000000000000000000000008152600401610b65906124df565b60405180910390fd5b8383604051602001610b819291906124fd565b6040516020818303038152906040528051906020012081600501819055506001816006015f6101000a81548160ff02191690831515021790555060028160030160146101000a81548160ff02191690836007811115610be357610be2611b1e565b5b0217905550837f4b70739c5f0bd46e19773020c599342cdbdc3ac59b5e0abfdd9c1bb441be59c88260050154604051610c1c919061252b565b60405180910390a250505050565b600160149054906101000a900460ff1615610c7a576040517f08c379a0000000000000000000000000000000000000000000000000000000008152600401610c719061258e565b60405180910390fd5b5f73ffffffffffffffffffffffffffffffffffffffff168173ffffffffffffffffffffffffffffffffffffffff1603610ce8576040517f08c379a0000000000000000000000000000000000000000000000000000000008152600401610cdf906125f6565b60405180910390fd5b8060015f6101000a81548173ffffffffffffffffffffffffffffffffffffffff021916908373ffffffffffffffffffffffffffffffffffffffff16021790555060018060146101000a81548160ff0219169083151502179055508073ffffffffffffffffffffffffffffffffffffffff167f3f32684a32a11dabdbb8c0177de80aa3ae36a004d75210335b49e544e48cd0aa60405160405180910390a250565b60015f9054906101000a900473ffffffffffffffffffffffffffffffffffffffff1681565b8060025f8281526020019081526020015f206002015f9054906101000a900473ffffffffffffffffffffffffffffffffffffffff1673ffffffffffffffffffffffffffffffffffffffff163373ffffffffffffffffffffffffffffffffffffffff1614610e4f576040517f08c379a0000000000000000000000000000000000000000000000000000000008152600401610e4690611fab565b60405180910390fd5b5f60025f8481526020019081526020015f20905060016007811115610e7757610e76611b1e565b5b8160030160149054906101000a900460ff166007811115610e9b57610e9a611b1e565b5b14610edb576040517f08c379a0000000000000000000000000000000000000000000000000000000008152600401610ed29061265e565b60405180910390fd5b806006015f9054906101000a900460ff1615610f2c576040517f08c379a0000000000000000000000000000000000000000000000000000000008152600401610f23906126c6565b60405180910390fd5b60058160030160146101000a81548160ff02191690836007811115610f5457610f53611b1e565b5b0217905550806001015460045f836003015f9054906101000a900473ffffffffffffffffffffffffffffffffffffffff1673ffffffffffffffffffffffffffffffffffffffff1673ffffffffffffffffffffffffffffffffffffffff1681526020019081526020015f205f828254610fcc919061205e565b92505081905550806003015f9054906101000a900473ffffffffffffffffffffffffffffffffffffffff1673ffffffffffffffffffffffffffffffffffffffff16837f21d71db5be59bb9fa133895586b7404307dd33fb93b16db09dc6f1d9d7d231b083600101546040516110419190611a75565b60405180910390a3505050565b8060025f8281526020019081526020015f206003015f9054906101000a900473ffffffffffffffffffffffffffffffffffffffff1673ffffffffffffffffffffffffffffffffffffffff163373ffffffffffffffffffffffffffffffffffffffff16146110f0576040517f08c379a00000000000000000000000000000000000000000000000000000000081526004016110e79061240f565b60405180910390fd5b5f60025f8481526020019081526020015f2090505f600781111561111757611116611b1e565b5b8160030160149054906101000a900460ff16600781111561113b5761113a611b1e565b5b1461117b576040517f08c379a00000000000000000000000000000000000000000000000000000000081526004016111729061272e565b60405180910390fd5b60018160030160146101000a81548160ff021916908360078111156111a3576111a2611b1e565b5b0217905550827faf3c49f5413fd292e2325b0fe214de144a222b00cb6ec21214fdc04b5d6c591360405160405180910390a2505050565b5f73ffffffffffffffffffffffffffffffffffffffff168373ffffffffffffffffffffffffffffffffffffffff1603611248576040517f08c379a000000000000000000000000000000000000000000000000000000000815260040161123f90612796565b60405180910390fd5b80341461128a576040517f08c379a0000000000000000000000000000000000000000000000000000000008152600401611281906127fe565b60405180910390fd5b60428251146112ce576040517f08c379a00000000000000000000000000000000000000000000000000000000081526004016112c590612866565b60405180910390fd5b60035f8154809291906112e090612884565b91905055505f60025f60035481526020019081526020015f209050600354815f018190555081816001018190555033816002015f6101000a81548173ffffffffffffffffffffffffffffffffffffffff021916908373ffffffffffffffffffffffffffffffffffffffff16021790555083816003015f6101000a81548173ffffffffffffffffffffffffffffffffffffffff021916908373ffffffffffffffffffffffffffffffffffffffff1602179055505f8160030160146101000a81548160ff021916908360078111156113b9576113b8611b1e565b5b0217905550828160040190816113cf91906122f6565b506003547f56560a52c047ed21fd801bf0f345b23d9af696f7922ff8e63101af5d48caddab338660405161140492919061291d565b60405180910390a250505050565b61141a6119a1565b60015f9054906101000a900473ffffffffffffffffffffffffffffffffffffffff1673ffffffffffffffffffffffffffffffffffffffff163373ffffffffffffffffffffffffffffffffffffffff16146114a9576040517f08c379a00000000000000000000000000000000000000000000000000000000081526004016114a09061298e565b60405180910390fd5b5f60025f8481526020019081526020015f209050600260078111156114d1576114d0611b1e565b5b8160030160149054906101000a900460ff1660078111156114f5576114f4611b1e565b5b14611535576040517f08c379a000000000000000000000000000000000000000000000000000000000815260040161152c90612013565b60405180910390fd5b806006015f9054906101000a900460ff16611585576040517f08c379a000000000000000000000000000000000000000000000000000000000815260040161157c906129f6565b60405180910390fd5b82826040516020016115989291906124fd565b604051602081830303815290604052805190602001208160050154146115f3576040517f08c379a00000000000000000000000000000000000000000000000000000000081526004016115ea90612a5e565b60405180910390fd5b60038160030160146101000a81548160ff0219169083600781111561161b5761161a611b1e565b5b0217905550827f375b4005eeae25d0e37d56e1b3841d3bb394b277efa2548de3293f5dcb7a349360405160405180910390a2506116566119ee565b5050565b6116626119a1565b8060025f8281526020019081526020015f206003015f9054906101000a900473ffffffffffffffffffffffffffffffffffffffff1673ffffffffffffffffffffffffffffffffffffffff163373ffffffffffffffffffffffffffffffffffffffff1614611704576040517f08c379a00000000000000000000000000000000000000000000000000000000081526004016116fb9061240f565b60405180910390fd5b5f60025f8481526020019081526020015f2090506005600781111561172c5761172b611b1e565b5b8160030160149054906101000a900460ff1660078111156117505761174f611b1e565b5b148061179157506004600781111561176b5761176a611b1e565b5b8160030160149054906101000a900460ff16600781111561178f5761178e611b1e565b5b145b6117d0576040517f08c379a00000000000000000000000000000000000000000000000000000000081526004016117c790612ac6565b60405180910390fd5b5f816001015490508060045f3373ffffffffffffffffffffffffffffffffffffffff1673ffffffffffffffffffffffffffffffffffffffff1681526020019081526020015f20541015611858576040517f08c379a000000000000000000000000000000000000000000000000000000000815260040161184f90612b2e565b60405180910390fd5b8060045f3373ffffffffffffffffffffffffffffffffffffffff1673ffffffffffffffffffffffffffffffffffffffff1681526020019081526020015f205f8282546118a49190612b4c565b925050819055503373ffffffffffffffffffffffffffffffffffffffff166108fc8290811502906040515f60405180830381858888f193505050501580156118ee573d5f5f3e3d5ffd5b5060068260030160146101000a81548160ff0219169083600781111561191757611916611b1e565b5b02179055503373ffffffffffffffffffffffffffffffffffffffff16847ff440aec6b52895984d061d622e6edeba6210f7c3e059be920663140c084560d7836040516119639190611a75565b60405180910390a35050506119766119ee565b50565b600160149054906101000a900460ff1681565b6004602052805f5260405f205f915090505481565b60025f54036119e5576040517f08c379a00000000000000000000000000000000000000000000000000000000081526004016119dc90612bc9565b60405180910390fd5b60025f81905550565b60015f81905550565b5f604051905090565b5f5ffd5b5f5ffd5b5f819050919050565b611a1a81611a08565b8114611a24575f5ffd5b50565b5f81359050611a3581611a11565b92915050565b5f60208284031215611a5057611a4f611a00565b5b5f611a5d84828501611a27565b91505092915050565b611a6f81611a08565b82525050565b5f602082019050611a885f830184611a66565b92915050565b5f81519050919050565b5f82825260208201905092915050565b8281835e5f83830152505050565b5f601f19601f8301169050919050565b5f611ad082611a8e565b611ada8185611a98565b9350611aea818560208601611aa8565b611af381611ab6565b840191505092915050565b5f6020820190508181035f830152611b168184611ac6565b905092915050565b7f4e487b71000000000000000000000000000000000000000000000000000000005f52602160045260245ffd5b60088110611b5c57611b5b611b1e565b5b50565b5f819050611b6c82611b4b565b919050565b5f611b7b82611b5f565b9050919050565b611b8b81611b71565b82525050565b5f602082019050611ba45f830184611b82565b92915050565b5f73ffffffffffffffffffffffffffffffffffffffff82169050919050565b5f611bd382611baa565b9050919050565b611be381611bc9565b82525050565b5f819050919050565b611bfb81611be9565b82525050565b5f8115159050919050565b611c1581611c01565b82525050565b5f61010082019050611c2f5f83018b611a66565b611c3c602083018a611a66565b611c496040830189611bda565b611c566060830188611bda565b611c636080830187611b82565b81810360a0830152611c758186611ac6565b9050611c8460c0830185611bf2565b611c9160e0830184611c0c565b9998505050505050505050565b5f5ffd5b5f5ffd5b7f4e487b71000000000000000000000000000000000000000000000000000000005f52604160045260245ffd5b611cdc82611ab6565b810181811067ffffffffffffffff82111715611cfb57611cfa611ca6565b5b80604052505050565b5f611d0d6119f7565b9050611d198282611cd3565b919050565b5f67ffffffffffffffff821115611d3857611d37611ca6565b5b611d4182611ab6565b9050602081019050919050565b828183375f83830152505050565b5f611d6e611d6984611d1e565b611d04565b905082815260208101848484011115611d8a57611d89611ca2565b5b611d95848285611d4e565b509392505050565b5f82601f830112611db157611db0611c9e565b5b8135611dc1848260208601611d5c565b91505092915050565b5f5f60408385031215611de057611ddf611a00565b5b5f611ded85828601611a27565b925050602083013567ffffffffffffffff811115611e0e57611e0d611a04565b5b611e1a85828601611d9d565b9150509250929050565b5f611e2e82611baa565b9050919050565b611e3e81611e24565b8114611e48575f5ffd5b50565b5f81359050611e5981611e35565b92915050565b5f60208284031215611e7457611e73611a00565b5b5f611e8184828501611e4b565b91505092915050565b611e9381611e24565b82525050565b5f602082019050611eac5f830184611e8a565b92915050565b611ebb81611bc9565b8114611ec5575f5ffd5b50565b5f81359050611ed681611eb2565b92915050565b5f5f5f60608486031215611ef357611ef2611a00565b5b5f611f0086828701611ec8565b935050602084013567ffffffffffffffff811115611f2157611f20611a04565b5b611f2d86828701611d9d565b9250506040611f3e86828701611a27565b9150509250925092565b5f602082019050611f5b5f830184611c0c565b92915050565b7f4e6f742063726561746f720000000000000000000000000000000000000000005f82015250565b5f611f95600b83611a98565b9150611fa082611f61565b602082019050919050565b5f6020820190508181035f830152611fc281611f89565b9050919050565b7f57726f6e672073746174757300000000000000000000000000000000000000005f82015250565b5f611ffd600c83611a98565b915061200882611fc9565b602082019050919050565b5f6020820190508181035f83015261202a81611ff1565b9050919050565b7f4e487b71000000000000000000000000000000000000000000000000000000005f52601160045260245ffd5b5f61206882611a08565b915061207383611a08565b925082820190508082111561208b5761208a612031565b5b92915050565b7f4e487b71000000000000000000000000000000000000000000000000000000005f52602260045260245ffd5b5f60028204905060018216806120d557607f821691505b6020821081036120e8576120e7612091565b5b50919050565b7f416c726561647920636f6d706c657465640000000000000000000000000000005f82015250565b5f612122601183611a98565b915061212d826120ee565b602082019050919050565b5f6020820190508181035f83015261214f81612116565b9050919050565b5f819050815f5260205f209050919050565b5f6020601f8301049050919050565b5f82821b905092915050565b5f600883026121b27fffffffffffffffffffffffffffffffffffffffffffffffffffffffffffffffff82612177565b6121bc8683612177565b95508019841693508086168417925050509392505050565b5f819050919050565b5f6121f76121f26121ed84611a08565b6121d4565b611a08565b9050919050565b5f819050919050565b612210836121dd565b61222461221c826121fe565b848454612183565b825550505050565b5f5f905090565b61223b61222c565b612246818484612207565b505050565b5b818110156122695761225e5f82612233565b60018101905061224c565b5050565b601f8211156122ae5761227f81612156565b61228884612168565b81016020851015612297578190505b6122ab6122a385612168565b83018261224b565b50505b505050565b5f82821c905092915050565b5f6122ce5f19846008026122b3565b1980831691505092915050565b5f6122e683836122bf565b9150826002028217905092915050565b6122ff82611a8e565b67ffffffffffffffff81111561231857612317611ca6565b5b61232282546120be565b61232d82828561226d565b5f60209050601f83116001811461235e575f841561234c578287015190505b61235685826122db565b8655506123bd565b601f19841661236c86612156565b5f5b828110156123935784890151825560018201915060208501945060208101905061236e565b868310156123b057848901516123ac601f8916826122bf565b8355505b6001600288020188555050505b505050505050565b7f4e6f7420636f756e7465727061727479000000000000000000000000000000005f82015250565b5f6123f9601083611a98565b9150612404826123c5565b602082019050919050565b5f6020820190508181035f830152612426816123ed565b9050919050565b7f4e6f74205369676e6564000000000000000000000000000000000000000000005f82015250565b5f612461600a83611a98565b915061246c8261242d565b602082019050919050565b5f6020820190508181035f83015261248e81612455565b9050919050565b7f416c7265616479207365740000000000000000000000000000000000000000005f82015250565b5f6124c9600b83611a98565b91506124d482612495565b602082019050919050565b5f6020820190508181035f8301526124f6816124bd565b9050919050565b5f6040820190506125105f830185611a66565b81810360208301526125228184611ac6565b90509392505050565b5f60208201905061253e5f830184611bf2565b92915050565b7f4f7261636c6520616c72656164792073657400000000000000000000000000005f82015250565b5f612578601283611a98565b915061258382612544565b602082019050919050565b5f6020820190508181035f8301526125a58161256c565b9050919050565b7f496e76616c6964206f7261636c650000000000000000000000000000000000005f82015250565b5f6125e0600e83611a98565b91506125eb826125ac565b602082019050919050565b5f6020820190508181035f83015261260d816125d4565b9050919050565b7f4e6f74207369676e6564000000000000000000000000000000000000000000005f82015250565b5f612648600a83611a98565b915061265382612614565b602082019050919050565b5f6020820190508181035f8301526126758161263c565b9050919050565b7f44656c697665727920666c6f77207265717569726564000000000000000000005f82015250565b5f6126b0601683611a98565b91506126bb8261267c565b602082019050919050565b5f6020820190508181035f8301526126dd816126a4565b9050919050565b7f4e6f7420437265617465640000000000000000000000000000000000000000005f82015250565b5f612718600b83611a98565b9150612723826126e4565b602082019050919050565b5f6020820190508181035f8301526127458161270c565b9050919050565b7f302061646472206e6f7420616c6c6f77656400000000000000000000000000005f82015250565b5f612780601283611a98565b915061278b8261274c565b602082019050919050565b5f6020820190508181035f8301526127ad81612774565b9050919050565b7f455448206d69736d6174636800000000000000000000000000000000000000005f82015250565b5f6127e8600c83611a98565b91506127f3826127b4565b602082019050919050565b5f6020820190508181035f830152612815816127dc565b9050919050565b7f496e76616c696420636f6e7472616374206861736800000000000000000000005f82015250565b5f612850601583611a98565b915061285b8261281c565b602082019050919050565b5f6020820190508181035f83015261287d81612844565b9050919050565b5f61288e82611a08565b91507fffffffffffffffffffffffffffffffffffffffffffffffffffffffffffffffff82036128c0576128bf612031565b5b600182019050919050565b5f6128e56128e06128db84611baa565b6121d4565b611baa565b9050919050565b5f6128f6826128cb565b9050919050565b5f612907826128ec565b9050919050565b612917816128fd565b82525050565b5f6040820190506129305f830185611e8a565b61293d602083018461290e565b9392505050565b7f4e6f74206f7261636c65000000000000000000000000000000000000000000005f82015250565b5f612978600a83611a98565b915061298382612944565b602082019050919050565b5f6020820190508181035f8301526129a58161296c565b9050919050565b7f4e6f2064656c69766572790000000000000000000000000000000000000000005f82015250565b5f6129e0600b83611a98565b91506129eb826129ac565b602082019050919050565b5f6020820190508181035f830152612a0d816129d4565b9050919050565b7f48617368206d69736d61746368000000000000000000000000000000000000005f82015250565b5f612a48600d83611a98565b9150612a5382612a14565b602082019050919050565b5f6020820190508181035f830152612a7581612a3c565b9050919050565b7f4e6f7420776974686472617761626c65000000000000000000000000000000005f82015250565b5f612ab0601083611a98565b9150612abb82612a7c565b602082019050919050565b5f6020820190508181035f830152612add81612aa4565b9050919050565b7f4e6f2062616c616e6365000000000000000000000000000000000000000000005f82015250565b5f612b18600a83611a98565b9150612b2382612ae4565b602082019050919050565b5f6020820190508181035f830152612b4581612b0c565b9050919050565b5f612b5682611a08565b9150612b6183611a08565b9250828203905081811115612b7957612b78612031565b5b92915050565b7f5265656e7472616e637947756172643a207265656e7472616e742063616c6c005f82015250565b5f612bb3601f83611a98565b9150612bbe82612b7f565b602082019050919050565b5f6020820190508181035f830152612be081612ba7565b905091905056fea264697066735822122009c6103572b564d3793f773a7a664b72bf9178821b32f4ca0d05725c9a8410f564736f6c634300081e0033",
					"opcodes": "PUSH1 0x80 PUSH1 0x40 MSTORE CALLVALUE DUP1 ISZERO PUSH1 0xE JUMPI PUSH0 PUSH0 REVERT JUMPDEST POP PUSH1 0x1 PUSH0 DUP2 SWAP1 SSTORE POP PUSH2 0x2C1D DUP1 PUSH2 0x23 PUSH0 CODECOPY PUSH0 RETURN INVALID PUSH1 0x80 PUSH1 0x40 MSTORE PUSH1 0x4 CALLDATASIZE LT PUSH2 0xF2 JUMPI PUSH0 CALLDATALOAD PUSH1 0xE0 SHR DUP1 PUSH4 0x7DC0D1D0 GT PUSH2 0x89 JUMPI DUP1 PUSH4 0xC43BF3C2 GT PUSH2 0x58 JUMPI DUP1 PUSH4 0xC43BF3C2 EQ PUSH2 0x311 JUMPI DUP1 PUSH4 0xDF5C2980 EQ PUSH2 0x339 JUMPI DUP1 PUSH4 0xEDB3B27A EQ PUSH2 0x361 JUMPI DUP1 PUSH4 0xF3F43703 EQ PUSH2 0x38B JUMPI PUSH2 0xF2 JUMP JUMPDEST DUP1 PUSH4 0x7DC0D1D0 EQ PUSH2 0x27B JUMPI DUP1 PUSH4 0x94AEB613 EQ PUSH2 0x2A5 JUMPI DUP1 PUSH4 0x9537E8D1 EQ PUSH2 0x2CD JUMPI DUP1 PUSH4 0x9CE5B6CA EQ PUSH2 0x2F5 JUMPI PUSH2 0xF2 JUMP JUMPDEST DUP1 PUSH4 0x22A45CD0 GT PUSH2 0xC5 JUMPI DUP1 PUSH4 0x22A45CD0 EQ PUSH2 0x1C0 JUMPI DUP1 PUSH4 0x474DA79A EQ PUSH2 0x1E8 JUMPI DUP1 PUSH4 0x54B7B6D3 EQ PUSH2 0x22B JUMPI DUP1 PUSH4 0x7ADBF973 EQ PUSH2 0x253 JUMPI PUSH2 0xF2 JUMP JUMPDEST DUP1 PUSH4 0x32CA42D EQ PUSH2 0xF6 JUMPI DUP1 PUSH4 0x67BD3B4 EQ PUSH2 0x11E JUMPI DUP1 PUSH4 0xE9F0816 EQ PUSH2 0x148 JUMPI DUP1 PUSH4 0x17B18458 EQ PUSH2 0x184 JUMPI JUMPDEST PUSH0 PUSH0 REVERT JUMPDEST CALLVALUE DUP1 ISZERO PUSH2 0x101 JUMPI PUSH0 PUSH0 REVERT JUMPDEST POP PUSH2 0x11C PUSH1 0x4 DUP1 CALLDATASIZE SUB DUP2 ADD SWAP1 PUSH2 0x117 SWAP2 SWAP1 PUSH2 0x1A3B JUMP JUMPDEST PUSH2 0x3C7 JUMP JUMPDEST STOP JUMPDEST CALLVALUE DUP1 ISZERO PUSH2 0x129 JUMPI PUSH0 PUSH0 REVERT JUMPDEST POP PUSH2 0x132 PUSH2 0x644 JUMP JUMPDEST PUSH1 0x40 MLOAD PUSH2 0x13F SWAP2 SWAP1 PUSH2 0x1A75 JUMP JUMPDEST PUSH1 0x40 MLOAD DUP1 SWAP2 SUB SWAP1 RETURN JUMPDEST CALLVALUE DUP1 ISZERO PUSH2 0x153 JUMPI PUSH0 PUSH0 REVERT JUMPDEST POP PUSH2 0x16E PUSH1 0x4 DUP1 CALLDATASIZE SUB DUP2 ADD SWAP1 PUSH2 0x169 SWAP2 SWAP1 PUSH2 0x1A3B JUMP JUMPDEST PUSH2 0x64A JUMP JUMPDEST PUSH1 0x40 MLOAD PUSH2 0x17B SWAP2 SWAP1 PUSH2 0x1AFE JUMP JUMPDEST PUSH1 0x40 MLOAD DUP1 SWAP2 SUB SWAP1 RETURN JUMPDEST CALLVALUE DUP1 ISZERO PUSH2 0x18F JUMPI PUSH0 PUSH0 REVERT JUMPDEST POP PUSH2 0x1AA PUSH1 0x4 DUP1 CALLDATASIZE SUB DUP2 ADD SWAP1 PUSH2 0x1A5 SWAP2 SWAP1 PUSH2 0x1A3B JUMP JUMPDEST PUSH2 0x6EE JUMP JUMPDEST PUSH1 0x40 MLOAD PUSH2 0x1B7 SWAP2 SWAP1 PUSH2 0x1B91 JUMP JUMPDEST PUSH1 0x40 MLOAD DUP1 SWAP2 SUB SWAP1 RETURN JUMPDEST CALLVALUE DUP1 ISZERO PUSH2 0x1CB JUMPI PUSH0 PUSH0 REVERT JUMPDEST POP PUSH2 0x1E6 PUSH1 0x4 DUP1 CALLDATASIZE SUB DUP2 ADD SWAP1 PUSH2 0x1E1 SWAP2 SWAP1 PUSH2 0x1A3B JUMP JUMPDEST PUSH2 0x718 JUMP JUMPDEST STOP JUMPDEST CALLVALUE DUP1 ISZERO PUSH2 0x1F3 JUMPI PUSH0 PUSH0 REVERT JUMPDEST POP PUSH2 0x20E PUSH1 0x4 DUP1 CALLDATASIZE SUB DUP2 ADD SWAP1 PUSH2 0x209 SWAP2 SWAP1 PUSH2 0x1A3B JUMP JUMPDEST PUSH2 0x8CE JUMP JUMPDEST PUSH1 0x40 MLOAD PUSH2 0x222 SWAP9 SWAP8 SWAP7 SWAP6 SWAP5 SWAP4 SWAP3 SWAP2 SWAP1 PUSH2 0x1C1B JUMP JUMPDEST PUSH1 0x40 MLOAD DUP1 SWAP2 SUB SWAP1 RETURN JUMPDEST CALLVALUE DUP1 ISZERO PUSH2 0x236 JUMPI PUSH0 PUSH0 REVERT JUMPDEST POP PUSH2 0x251 PUSH1 0x4 DUP1 CALLDATASIZE SUB DUP2 ADD SWAP1 PUSH2 0x24C SWAP2 SWAP1 PUSH2 0x1DCA JUMP JUMPDEST PUSH2 0x9EF JUMP JUMPDEST STOP JUMPDEST CALLVALUE DUP1 ISZERO PUSH2 0x25E JUMPI PUSH0 PUSH0 REVERT JUMPDEST POP PUSH2 0x279 PUSH1 0x4 DUP1 CALLDATASIZE SUB DUP2 ADD SWAP1 PUSH2 0x274 SWAP2 SWAP1 PUSH2 0x1E5F JUMP JUMPDEST PUSH2 0xC2A JUMP JUMPDEST STOP JUMPDEST CALLVALUE DUP1 ISZERO PUSH2 0x286 JUMPI PUSH0 PUSH0 REVERT JUMPDEST POP PUSH2 0x28F PUSH2 0xD88 JUMP JUMPDEST PUSH1 0x40 MLOAD PUSH2 0x29C SWAP2 SWAP1 PUSH2 0x1E99 JUMP JUMPDEST PUSH1 0x40 MLOAD DUP1 SWAP2 SUB SWAP1 RETURN JUMPDEST CALLVALUE DUP1 ISZERO PUSH2 0x2B0 JUMPI PUSH0 PUSH0 REVERT JUMPDEST POP PUSH2 0x2CB PUSH1 0x4 DUP1 CALLDATASIZE SUB DUP2 ADD SWAP1 PUSH2 0x2C6 SWAP2 SWAP1 PUSH2 0x1A3B JUMP JUMPDEST PUSH2 0xDAD JUMP JUMPDEST STOP JUMPDEST CALLVALUE DUP1 ISZERO PUSH2 0x2D8 JUMPI PUSH0 PUSH0 REVERT JUMPDEST POP PUSH2 0x2F3 PUSH1 0x4 DUP1 CALLDATASIZE SUB DUP2 ADD SWAP1 PUSH2 0x2EE SWAP2 SWAP1 PUSH2 0x1A3B JUMP JUMPDEST PUSH2 0x104E JUMP JUMPDEST STOP JUMPDEST PUSH2 0x30F PUSH1 0x4 DUP1 CALLDATASIZE SUB DUP2 ADD SWAP1 PUSH2 0x30A SWAP2 SWAP1 PUSH2 0x1EDC JUMP JUMPDEST PUSH2 0x11DA JUMP JUMPDEST STOP JUMPDEST CALLVALUE DUP1 ISZERO PUSH2 0x31C JUMPI PUSH0 PUSH0 REVERT JUMPDEST POP PUSH2 0x337 PUSH1 0x4 DUP1 CALLDATASIZE SUB DUP2 ADD SWAP1 PUSH2 0x332 SWAP2 SWAP1 PUSH2 0x1DCA JUMP JUMPDEST PUSH2 0x1412 JUMP JUMPDEST STOP JUMPDEST CALLVALUE DUP1 ISZERO PUSH2 0x344 JUMPI PUSH0 PUSH0 REVERT JUMPDEST POP PUSH2 0x35F PUSH1 0x4 DUP1 CALLDATASIZE SUB DUP2 ADD SWAP1 PUSH2 0x35A SWAP2 SWAP1 PUSH2 0x1A3B JUMP JUMPDEST PUSH2 0x165A JUMP JUMPDEST STOP JUMPDEST CALLVALUE DUP1 ISZERO PUSH2 0x36C JUMPI PUSH0 PUSH0 REVERT JUMPDEST POP PUSH2 0x375 PUSH2 0x1979 JUMP JUMPDEST PUSH1 0x40 MLOAD PUSH2 0x382 SWAP2 SWAP1 PUSH2 0x1F48 JUMP JUMPDEST PUSH1 0x40 MLOAD DUP1 SWAP2 SUB SWAP1 RETURN JUMPDEST CALLVALUE DUP1 ISZERO PUSH2 0x396 JUMPI PUSH0 PUSH0 REVERT JUMPDEST POP PUSH2 0x3B1 PUSH1 0x4 DUP1 CALLDATASIZE SUB DUP2 ADD SWAP1 PUSH2 0x3AC SWAP2 SWAP1 PUSH2 0x1E5F JUMP JUMPDEST PUSH2 0x198C JUMP JUMPDEST PUSH1 0x40 MLOAD PUSH2 0x3BE SWAP2 SWAP1 PUSH2 0x1A75 JUMP JUMPDEST PUSH1 0x40 MLOAD DUP1 SWAP2 SUB SWAP1 RETURN JUMPDEST DUP1 PUSH1 0x2 PUSH0 DUP3 DUP2 MSTORE PUSH1 0x20 ADD SWAP1 DUP2 MSTORE PUSH1 0x20 ADD PUSH0 KECCAK256 PUSH1 0x2 ADD PUSH0 SWAP1 SLOAD SWAP1 PUSH2 0x100 EXP SWAP1 DIV PUSH20 0xFFFFFFFFFFFFFFFFFFFFFFFFFFFFFFFFFFFFFFFF AND PUSH20 0xFFFFFFFFFFFFFFFFFFFFFFFFFFFFFFFFFFFFFFFF AND CALLER PUSH20 0xFFFFFFFFFFFFFFFFFFFFFFFFFFFFFFFFFFFFFFFF AND EQ PUSH2 0x469 JUMPI PUSH1 0x40 MLOAD PUSH32 0x8C379A000000000000000000000000000000000000000000000000000000000 DUP2 MSTORE PUSH1 0x4 ADD PUSH2 0x460 SWAP1 PUSH2 0x1FAB JUMP JUMPDEST PUSH1 0x40 MLOAD DUP1 SWAP2 SUB SWAP1 REVERT JUMPDEST PUSH0 PUSH1 0x2 PUSH0 DUP5 DUP2 MSTORE PUSH1 0x20 ADD SWAP1 DUP2 MSTORE PUSH1 0x20 ADD PUSH0 KECCAK256 SWAP1 POP PUSH1 0x3 PUSH1 0x7 DUP2 GT ISZERO PUSH2 0x491 JUMPI PUSH2 0x490 PUSH2 0x1B1E JUMP JUMPDEST JUMPDEST DUP2 PUSH1 0x3 ADD PUSH1 0x14 SWAP1 SLOAD SWAP1 PUSH2 0x100 EXP SWAP1 DIV PUSH1 0xFF AND PUSH1 0x7 DUP2 GT ISZERO PUSH2 0x4B5 JUMPI PUSH2 0x4B4 PUSH2 0x1B1E JUMP JUMPDEST JUMPDEST EQ PUSH2 0x4F5 JUMPI PUSH1 0x40 MLOAD PUSH32 0x8C379A000000000000000000000000000000000000000000000000000000000 DUP2 MSTORE PUSH1 0x4 ADD PUSH2 0x4EC SWAP1 PUSH2 0x2013 JUMP JUMPDEST PUSH1 0x40 MLOAD DUP1 SWAP2 SUB SWAP1 REVERT JUMPDEST PUSH1 0x4 DUP2 PUSH1 0x3 ADD PUSH1 0x14 PUSH2 0x100 EXP DUP2 SLOAD DUP2 PUSH1 0xFF MUL NOT AND SWAP1 DUP4 PUSH1 0x7 DUP2 GT ISZERO PUSH2 0x51D JUMPI PUSH2 0x51C PUSH2 0x1B1E JUMP JUMPDEST JUMPDEST MUL OR SWAP1 SSTORE POP DUP1 PUSH1 0x1 ADD SLOAD PUSH1 0x4 PUSH0 DUP4 PUSH1 0x3 ADD PUSH0 SWAP1 SLOAD SWAP1 PUSH2 0x100 EXP SWAP1 DIV PUSH20 0xFFFFFFFFFFFFFFFFFFFFFFFFFFFFFFFFFFFFFFFF AND PUSH20 0xFFFFFFFFFFFFFFFFFFFFFFFFFFFFFFFFFFFFFFFF AND PUSH20 0xFFFFFFFFFFFFFFFFFFFFFFFFFFFFFFFFFFFFFFFF AND DUP2 MSTORE PUSH1 0x20 ADD SWAP1 DUP2 MSTORE PUSH1 0x20 ADD PUSH0 KECCAK256 PUSH0 DUP3 DUP3 SLOAD PUSH2 0x595 SWAP2 SWAP1 PUSH2 0x205E JUMP JUMPDEST SWAP3 POP POP DUP2 SWAP1 SSTORE POP DUP3 PUSH32 0x5C1E662F72EE6C85181B65FAC5BEB0390932B8C472F05B257151D041AC9DDFFA PUSH1 0x40 MLOAD PUSH1 0x40 MLOAD DUP1 SWAP2 SUB SWAP1 LOG2 DUP1 PUSH1 0x3 ADD PUSH0 SWAP1 SLOAD SWAP1 PUSH2 0x100 EXP SWAP1 DIV PUSH20 0xFFFFFFFFFFFFFFFFFFFFFFFFFFFFFFFFFFFFFFFF AND PUSH20 0xFFFFFFFFFFFFFFFFFFFFFFFFFFFFFFFFFFFFFFFF AND DUP4 PUSH32 0x21D71DB5BE59BB9FA133895586B7404307DD33FB93B16DB09DC6F1D9D7D231B0 DUP4 PUSH1 0x1 ADD SLOAD PUSH1 0x40 MLOAD PUSH2 0x637 SWAP2 SWAP1 PUSH2 0x1A75 JUMP JUMPDEST PUSH1 0x40 MLOAD DUP1 SWAP2 SUB SWAP1 LOG3 POP POP POP JUMP JUMPDEST PUSH1 0x3 SLOAD DUP2 JUMP JUMPDEST PUSH1 0x60 PUSH1 0x2 PUSH0 DUP4 DUP2 MSTORE PUSH1 0x20 ADD SWAP1 DUP2 MSTORE PUSH1 0x20 ADD PUSH0 KECCAK256 PUSH1 0x4 ADD DUP1 SLOAD PUSH2 0x66B SWAP1 PUSH2 0x20BE JUMP JUMPDEST DUP1 PUSH1 0x1F ADD PUSH1 0x20 DUP1 SWAP2 DIV MUL PUSH1 0x20 ADD PUSH1 0x40 MLOAD SWAP1 DUP2 ADD PUSH1 0x40 MSTORE DUP1 SWAP3 SWAP2 SWAP1 DUP2 DUP2 MSTORE PUSH1 0x20 ADD DUP3 DUP1 SLOAD PUSH2 0x697 SWAP1 PUSH2 0x20BE JUMP JUMPDEST DUP1 ISZERO PUSH2 0x6E2 JUMPI DUP1 PUSH1 0x1F LT PUSH2 0x6B9 JUMPI PUSH2 0x100 DUP1 DUP4 SLOAD DIV MUL DUP4 MSTORE SWAP2 PUSH1 0x20 ADD SWAP2 PUSH2 0x6E2 JUMP JUMPDEST DUP3 ADD SWAP2 SWAP1 PUSH0 MSTORE PUSH1 0x20 PUSH0 KECCAK256 SWAP1 JUMPDEST DUP2 SLOAD DUP2 MSTORE SWAP1 PUSH1 0x1 ADD SWAP1 PUSH1 0x20 ADD DUP1 DUP4 GT PUSH2 0x6C5 JUMPI DUP3 SWAP1 SUB PUSH1 0x1F AND DUP3 ADD SWAP2 JUMPDEST POP POP POP POP POP SWAP1 POP SWAP2 SWAP1 POP JUMP JUMPDEST PUSH0 PUSH1 0x2 PUSH0 DUP4 DUP2 MSTORE PUSH1 0x20 ADD SWAP1 DUP2 MSTORE PUSH1 0x20 ADD PUSH0 KECCAK256 PUSH1 0x3 ADD PUSH1 0x14 SWAP1 SLOAD SWAP1 PUSH2 0x100 EXP SWAP1 DIV PUSH1 0xFF AND SWAP1 POP SWAP2 SWAP1 POP JUMP JUMPDEST DUP1 PUSH1 0x2 PUSH0 DUP3 DUP2 MSTORE PUSH1 0x20 ADD SWAP1 DUP2 MSTORE PUSH1 0x20 ADD PUSH0 KECCAK256 PUSH1 0x2 ADD PUSH0 SWAP1 SLOAD SWAP1 PUSH2 0x100 EXP SWAP1 DIV PUSH20 0xFFFFFFFFFFFFFFFFFFFFFFFFFFFFFFFFFFFFFFFF AND PUSH20 0xFFFFFFFFFFFFFFFFFFFFFFFFFFFFFFFFFFFFFFFF AND CALLER PUSH20 0xFFFFFFFFFFFFFFFFFFFFFFFFFFFFFFFFFFFFFFFF AND EQ PUSH2 0x7BA JUMPI PUSH1 0x40 MLOAD PUSH32 0x8C379A000000000000000000000000000000000000000000000000000000000 DUP2 MSTORE PUSH1 0x4 ADD PUSH2 0x7B1 SWAP1 PUSH2 0x1FAB JUMP JUMPDEST PUSH1 0x40 MLOAD DUP1 SWAP2 SUB SWAP1 REVERT JUMPDEST PUSH0 PUSH1 0x2 PUSH0 DUP5 DUP2 MSTORE PUSH1 0x20 ADD SWAP1 DUP2 MSTORE PUSH1 0x20 ADD PUSH0 KECCAK256 SWAP1 POP PUSH1 0x6 PUSH1 0x7 DUP2 GT ISZERO PUSH2 0x7E2 JUMPI PUSH2 0x7E1 PUSH2 0x1B1E JUMP JUMPDEST JUMPDEST DUP2 PUSH1 0x3 ADD PUSH1 0x14 SWAP1 SLOAD SWAP1 PUSH2 0x100 EXP SWAP1 DIV PUSH1 0xFF AND PUSH1 0x7 DUP2 GT ISZERO PUSH2 0x806 JUMPI PUSH2 0x805 PUSH2 0x1B1E JUMP JUMPDEST JUMPDEST SUB PUSH2 0x846 JUMPI PUSH1 0x40 MLOAD PUSH32 0x8C379A000000000000000000000000000000000000000000000000000000000 DUP2 MSTORE PUSH1 0x4 ADD PUSH2 0x83D SWAP1 PUSH2 0x2138 JUMP JUMPDEST PUSH1 0x40 MLOAD DUP1 SWAP2 SUB SWAP1 REVERT JUMPDEST PUSH1 0x40 MLOAD DUP1 PUSH1 0x20 ADD PUSH1 0x40 MSTORE DUP1 PUSH0 DUP2 MSTORE POP DUP2 PUSH1 0x4 ADD SWAP1 DUP2 PUSH2 0x865 SWAP2 SWAP1 PUSH2 0x22F6 JUMP JUMPDEST POP PUSH0 DUP2 PUSH1 0x5 ADD DUP2 SWAP1 SSTORE POP PUSH1 0x7 DUP2 PUSH1 0x3 ADD PUSH1 0x14 PUSH2 0x100 EXP DUP2 SLOAD DUP2 PUSH1 0xFF MUL NOT AND SWAP1 DUP4 PUSH1 0x7 DUP2 GT ISZERO PUSH2 0x897 JUMPI PUSH2 0x896 PUSH2 0x1B1E JUMP JUMPDEST JUMPDEST MUL OR SWAP1 SSTORE POP DUP3 PUSH32 0x741B099F015E1976CFA72A7448A8FB1D54EAB1D616241B562CFBE603A2B61B42 PUSH1 0x40 MLOAD PUSH1 0x40 MLOAD DUP1 SWAP2 SUB SWAP1 LOG2 POP POP POP JUMP JUMPDEST PUSH1 0x2 PUSH1 0x20 MSTORE DUP1 PUSH0 MSTORE PUSH1 0x40 PUSH0 KECCAK256 PUSH0 SWAP2 POP SWAP1 POP DUP1 PUSH0 ADD SLOAD SWAP1 DUP1 PUSH1 0x1 ADD SLOAD SWAP1 DUP1 PUSH1 0x2 ADD PUSH0 SWAP1 SLOAD SWAP1 PUSH2 0x100 EXP SWAP1 DIV PUSH20 0xFFFFFFFFFFFFFFFFFFFFFFFFFFFFFFFFFFFFFFFF AND SWAP1 DUP1 PUSH1 0x3 ADD PUSH0 SWAP1 SLOAD SWAP1 PUSH2 0x100 EXP SWAP1 DIV PUSH20 0xFFFFFFFFFFFFFFFFFFFFFFFFFFFFFFFFFFFFFFFF AND SWAP1 DUP1 PUSH1 0x3 ADD PUSH1 0x14 SWAP1 SLOAD SWAP1 PUSH2 0x100 EXP SWAP1 DIV PUSH1 0xFF AND SWAP1 DUP1 PUSH1 0x4 ADD DUP1 SLOAD PUSH2 0x956 SWAP1 PUSH2 0x20BE JUMP JUMPDEST DUP1 PUSH1 0x1F ADD PUSH1 0x20 DUP1 SWAP2 DIV MUL PUSH1 0x20 ADD PUSH1 0x40 MLOAD SWAP1 DUP2 ADD PUSH1 0x40 MSTORE DUP1 SWAP3 SWAP2 SWAP1 DUP2 DUP2 MSTORE PUSH1 0x20 ADD DUP3 DUP1 SLOAD PUSH2 0x982 SWAP1 PUSH2 0x20BE JUMP JUMPDEST DUP1 ISZERO PUSH2 0x9CD JUMPI DUP1 PUSH1 0x1F LT PUSH2 0x9A4 JUMPI PUSH2 0x100 DUP1 DUP4 SLOAD DIV MUL DUP4 MSTORE SWAP2 PUSH1 0x20 ADD SWAP2 PUSH2 0x9CD JUMP JUMPDEST DUP3 ADD SWAP2 SWAP1 PUSH0 MSTORE PUSH1 0x20 PUSH0 KECCAK256 SWAP1 JUMPDEST DUP2 SLOAD DUP2 MSTORE SWAP1 PUSH1 0x1 ADD SWAP1 PUSH1 0x20 ADD DUP1 DUP4 GT PUSH2 0x9B0 JUMPI DUP3 SWAP1 SUB PUSH1 0x1F AND DUP3 ADD SWAP2 JUMPDEST POP POP POP POP POP SWAP1 DUP1 PUSH1 0x5 ADD SLOAD SWAP1 DUP1 PUSH1 0x6 ADD PUSH0 SWAP1 SLOAD SWAP1 PUSH2 0x100 EXP SWAP1 DIV PUSH1 0xFF AND SWAP1 POP DUP9 JUMP JUMPDEST DUP2 PUSH1 0x2 PUSH0 DUP3 DUP2 MSTORE PUSH1 0x20 ADD SWAP1 DUP2 MSTORE PUSH1 0x20 ADD PUSH0 KECCAK256 PUSH1 0x3 ADD PUSH0 SWAP1 SLOAD SWAP1 PUSH2 0x100 EXP SWAP1 DIV PUSH20 0xFFFFFFFFFFFFFFFFFFFFFFFFFFFFFFFFFFFFFFFF AND PUSH20 0xFFFFFFFFFFFFFFFFFFFFFFFFFFFFFFFFFFFFFFFF AND CALLER PUSH20 0xFFFFFFFFFFFFFFFFFFFFFFFFFFFFFFFFFFFFFFFF AND EQ PUSH2 0xA91 JUMPI PUSH1 0x40 MLOAD PUSH32 0x8C379A000000000000000000000000000000000000000000000000000000000 DUP2 MSTORE PUSH1 0x4 ADD PUSH2 0xA88 SWAP1 PUSH2 0x240F JUMP JUMPDEST PUSH1 0x40 MLOAD DUP1 SWAP2 SUB SWAP1 REVERT JUMPDEST PUSH0 PUSH1 0x2 PUSH0 DUP6 DUP2 MSTORE PUSH1 0x20 ADD SWAP1 DUP2 MSTORE PUSH1 0x20 ADD PUSH0 KECCAK256 SWAP1 POP PUSH1 0x1 PUSH1 0x7 DUP2 GT ISZERO PUSH2 0xAB9 JUMPI PUSH2 0xAB8 PUSH2 0x1B1E JUMP JUMPDEST JUMPDEST DUP2 PUSH1 0x3 ADD PUSH1 0x14 SWAP1 SLOAD SWAP1 PUSH2 0x100 EXP SWAP1 DIV PUSH1 0xFF AND PUSH1 0x7 DUP2 GT ISZERO PUSH2 0xADD JUMPI PUSH2 0xADC PUSH2 0x1B1E JUMP JUMPDEST JUMPDEST EQ PUSH2 0xB1D JUMPI PUSH1 0x40 MLOAD PUSH32 0x8C379A000000000000000000000000000000000000000000000000000000000 DUP2 MSTORE PUSH1 0x4 ADD PUSH2 0xB14 SWAP1 PUSH2 0x2477 JUMP JUMPDEST PUSH1 0x40 MLOAD DUP1 SWAP2 SUB SWAP1 REVERT JUMPDEST DUP1 PUSH1 0x6 ADD PUSH0 SWAP1 SLOAD SWAP1 PUSH2 0x100 EXP SWAP1 DIV PUSH1 0xFF AND ISZERO PUSH2 0xB6E JUMPI PUSH1 0x40 MLOAD PUSH32 0x8C379A000000000000000000000000000000000000000000000000000000000 DUP2 MSTORE PUSH1 0x4 ADD PUSH2 0xB65 SWAP1 PUSH2 0x24DF JUMP JUMPDEST PUSH1 0x40 MLOAD DUP1 SWAP2 SUB SWAP1 REVERT JUMPDEST DUP4 DUP4 PUSH1 0x40 MLOAD PUSH1 0x20 ADD PUSH2 0xB81 SWAP3 SWAP2 SWAP1 PUSH2 0x24FD JUMP JUMPDEST PUSH1 0x40 MLOAD PUSH1 0x20 DUP2 DUP4 SUB SUB DUP2 MSTORE SWAP1 PUSH1 0x40 MSTORE DUP1 MLOAD SWAP1 PUSH1 0x20 ADD KECCAK256 DUP2 PUSH1 0x5 ADD DUP2 SWAP1 SSTORE POP PUSH1 0x1 DUP2 PUSH1 0x6 ADD PUSH0 PUSH2 0x100 EXP DUP2 SLOAD DUP2 PUSH1 0xFF MUL NOT AND SWAP1 DUP4 ISZERO ISZERO MUL OR SWAP1 SSTORE POP PUSH1 0x2 DUP2 PUSH1 0x3 ADD PUSH1 0x14 PUSH2 0x100 EXP DUP2 SLOAD DUP2 PUSH1 0xFF MUL NOT AND SWAP1 DUP4 PUSH1 0x7 DUP2 GT ISZERO PUSH2 0xBE3 JUMPI PUSH2 0xBE2 PUSH2 0x1B1E JUMP JUMPDEST JUMPDEST MUL OR SWAP1 SSTORE POP DUP4 PUSH32 0x4B70739C5F0BD46E19773020C599342CDBDC3AC59B5E0ABFDD9C1BB441BE59C8 DUP3 PUSH1 0x5 ADD SLOAD PUSH1 0x40 MLOAD PUSH2 0xC1C SWAP2 SWAP1 PUSH2 0x252B JUMP JUMPDEST PUSH1 0x40 MLOAD DUP1 SWAP2 SUB SWAP1 LOG2 POP POP POP POP JUMP JUMPDEST PUSH1 0x1 PUSH1 0x14 SWAP1 SLOAD SWAP1 PUSH2 0x100 EXP SWAP1 DIV PUSH1 0xFF AND ISZERO PUSH2 0xC7A JUMPI PUSH1 0x40 MLOAD PUSH32 0x8C379A000000000000000000000000000000000000000000000000000000000 DUP2 MSTORE PUSH1 0x4 ADD PUSH2 0xC71 SWAP1 PUSH2 0x258E JUMP JUMPDEST PUSH1 0x40 MLOAD DUP1 SWAP2 SUB SWAP1 REVERT JUMPDEST PUSH0 PUSH20 0xFFFFFFFFFFFFFFFFFFFFFFFFFFFFFFFFFFFFFFFF AND DUP2 PUSH20 0xFFFFFFFFFFFFFFFFFFFFFFFFFFFFFFFFFFFFFFFF AND SUB PUSH2 0xCE8 JUMPI PUSH1 0x40 MLOAD PUSH32 0x8C379A000000000000000000000000000000000000000000000000000000000 DUP2 MSTORE PUSH1 0x4 ADD PUSH2 0xCDF SWAP1 PUSH2 0x25F6 JUMP JUMPDEST PUSH1 0x40 MLOAD DUP1 SWAP2 SUB SWAP1 REVERT JUMPDEST DUP1 PUSH1 0x1 PUSH0 PUSH2 0x100 EXP DUP2 SLOAD DUP2 PUSH20 0xFFFFFFFFFFFFFFFFFFFFFFFFFFFFFFFFFFFFFFFF MUL NOT AND SWAP1 DUP4 PUSH20 0xFFFFFFFFFFFFFFFFFFFFFFFFFFFFFFFFFFFFFFFF AND MUL OR SWAP1 SSTORE POP PUSH1 0x1 DUP1 PUSH1 0x14 PUSH2 0x100 EXP DUP2 SLOAD DUP2 PUSH1 0xFF MUL NOT AND SWAP1 DUP4 ISZERO ISZERO MUL OR SWAP1 SSTORE POP DUP1 PUSH20 0xFFFFFFFFFFFFFFFFFFFFFFFFFFFFFFFFFFFFFFFF AND PUSH32 0x3F32684A32A11DABDBB8C0177DE80AA3AE36A004D75210335B49E544E48CD0AA PUSH1 0x40 MLOAD PUSH1 0x40 MLOAD DUP1 SWAP2 SUB SWAP1 LOG2 POP JUMP JUMPDEST PUSH1 0x1 PUSH0 SWAP1 SLOAD SWAP1 PUSH2 0x100 EXP SWAP1 DIV PUSH20 0xFFFFFFFFFFFFFFFFFFFFFFFFFFFFFFFFFFFFFFFF AND DUP2 JUMP JUMPDEST DUP1 PUSH1 0x2 PUSH0 DUP3 DUP2 MSTORE PUSH1 0x20 ADD SWAP1 DUP2 MSTORE PUSH1 0x20 ADD PUSH0 KECCAK256 PUSH1 0x2 ADD PUSH0 SWAP1 SLOAD SWAP1 PUSH2 0x100 EXP SWAP1 DIV PUSH20 0xFFFFFFFFFFFFFFFFFFFFFFFFFFFFFFFFFFFFFFFF AND PUSH20 0xFFFFFFFFFFFFFFFFFFFFFFFFFFFFFFFFFFFFFFFF AND CALLER PUSH20 0xFFFFFFFFFFFFFFFFFFFFFFFFFFFFFFFFFFFFFFFF AND EQ PUSH2 0xE4F JUMPI PUSH1 0x40 MLOAD PUSH32 0x8C379A000000000000000000000000000000000000000000000000000000000 DUP2 MSTORE PUSH1 0x4 ADD PUSH2 0xE46 SWAP1 PUSH2 0x1FAB JUMP JUMPDEST PUSH1 0x40 MLOAD DUP1 SWAP2 SUB SWAP1 REVERT JUMPDEST PUSH0 PUSH1 0x2 PUSH0 DUP5 DUP2 MSTORE PUSH1 0x20 ADD SWAP1 DUP2 MSTORE PUSH1 0x20 ADD PUSH0 KECCAK256 SWAP1 POP PUSH1 0x1 PUSH1 0x7 DUP2 GT ISZERO PUSH2 0xE77 JUMPI PUSH2 0xE76 PUSH2 0x1B1E JUMP JUMPDEST JUMPDEST DUP2 PUSH1 0x3 ADD PUSH1 0x14 SWAP1 SLOAD SWAP1 PUSH2 0x100 EXP SWAP1 DIV PUSH1 0xFF AND PUSH1 0x7 DUP2 GT ISZERO PUSH2 0xE9B JUMPI PUSH2 0xE9A PUSH2 0x1B1E JUMP JUMPDEST JUMPDEST EQ PUSH2 0xEDB JUMPI PUSH1 0x40 MLOAD PUSH32 0x8C379A000000000000000000000000000000000000000000000000000000000 DUP2 MSTORE PUSH1 0x4 ADD PUSH2 0xED2 SWAP1 PUSH2 0x265E JUMP JUMPDEST PUSH1 0x40 MLOAD DUP1 SWAP2 SUB SWAP1 REVERT JUMPDEST DUP1 PUSH1 0x6 ADD PUSH0 SWAP1 SLOAD SWAP1 PUSH2 0x100 EXP SWAP1 DIV PUSH1 0xFF AND ISZERO PUSH2 0xF2C JUMPI PUSH1 0x40 MLOAD PUSH32 0x8C379A000000000000000000000000000000000000000000000000000000000 DUP2 MSTORE PUSH1 0x4 ADD PUSH2 0xF23 SWAP1 PUSH2 0x26C6 JUMP JUMPDEST PUSH1 0x40 MLOAD DUP1 SWAP2 SUB SWAP1 REVERT JUMPDEST PUSH1 0x5 DUP2 PUSH1 0x3 ADD PUSH1 0x14 PUSH2 0x100 EXP DUP2 SLOAD DUP2 PUSH1 0xFF MUL NOT AND SWAP1 DUP4 PUSH1 0x7 DUP2 GT ISZERO PUSH2 0xF54 JUMPI PUSH2 0xF53 PUSH2 0x1B1E JUMP JUMPDEST JUMPDEST MUL OR SWAP1 SSTORE POP DUP1 PUSH1 0x1 ADD SLOAD PUSH1 0x4 PUSH0 DUP4 PUSH1 0x3 ADD PUSH0 SWAP1 SLOAD SWAP1 PUSH2 0x100 EXP SWAP1 DIV PUSH20 0xFFFFFFFFFFFFFFFFFFFFFFFFFFFFFFFFFFFFFFFF AND PUSH20 0xFFFFFFFFFFFFFFFFFFFFFFFFFFFFFFFFFFFFFFFF AND PUSH20 0xFFFFFFFFFFFFFFFFFFFFFFFFFFFFFFFFFFFFFFFF AND DUP2 MSTORE PUSH1 0x20 ADD SWAP1 DUP2 MSTORE PUSH1 0x20 ADD PUSH0 KECCAK256 PUSH0 DUP3 DUP3 SLOAD PUSH2 0xFCC SWAP2 SWAP1 PUSH2 0x205E JUMP JUMPDEST SWAP3 POP POP DUP2 SWAP1 SSTORE POP DUP1 PUSH1 0x3 ADD PUSH0 SWAP1 SLOAD SWAP1 PUSH2 0x100 EXP SWAP1 DIV PUSH20 0xFFFFFFFFFFFFFFFFFFFFFFFFFFFFFFFFFFFFFFFF AND PUSH20 0xFFFFFFFFFFFFFFFFFFFFFFFFFFFFFFFFFFFFFFFF AND DUP4 PUSH32 0x21D71DB5BE59BB9FA133895586B7404307DD33FB93B16DB09DC6F1D9D7D231B0 DUP4 PUSH1 0x1 ADD SLOAD PUSH1 0x40 MLOAD PUSH2 0x1041 SWAP2 SWAP1 PUSH2 0x1A75 JUMP JUMPDEST PUSH1 0x40 MLOAD DUP1 SWAP2 SUB SWAP1 LOG3 POP POP POP JUMP JUMPDEST DUP1 PUSH1 0x2 PUSH0 DUP3 DUP2 MSTORE PUSH1 0x20 ADD SWAP1 DUP2 MSTORE PUSH1 0x20 ADD PUSH0 KECCAK256 PUSH1 0x3 ADD PUSH0 SWAP1 SLOAD SWAP1 PUSH2 0x100 EXP SWAP1 DIV PUSH20 0xFFFFFFFFFFFFFFFFFFFFFFFFFFFFFFFFFFFFFFFF AND PUSH20 0xFFFFFFFFFFFFFFFFFFFFFFFFFFFFFFFFFFFFFFFF AND CALLER PUSH20 0xFFFFFFFFFFFFFFFFFFFFFFFFFFFFFFFFFFFFFFFF AND EQ PUSH2 0x10F0 JUMPI PUSH1 0x40 MLOAD PUSH32 0x8C379A000000000000000000000000000000000000000000000000000000000 DUP2 MSTORE PUSH1 0x4 ADD PUSH2 0x10E7 SWAP1 PUSH2 0x240F JUMP JUMPDEST PUSH1 0x40 MLOAD DUP1 SWAP2 SUB SWAP1 REVERT JUMPDEST PUSH0 PUSH1 0x2 PUSH0 DUP5 DUP2 MSTORE PUSH1 0x20 ADD SWAP1 DUP2 MSTORE PUSH1 0x20 ADD PUSH0 KECCAK256 SWAP1 POP PUSH0 PUSH1 0x7 DUP2 GT ISZERO PUSH2 0x1117 JUMPI PUSH2 0x1116 PUSH2 0x1B1E JUMP JUMPDEST JUMPDEST DUP2 PUSH1 0x3 ADD PUSH1 0x14 SWAP1 SLOAD SWAP1 PUSH2 0x100 EXP SWAP1 DIV PUSH1 0xFF AND PUSH1 0x7 DUP2 GT ISZERO PUSH2 0x113B JUMPI PUSH2 0x113A PUSH2 0x1B1E JUMP JUMPDEST JUMPDEST EQ PUSH2 0x117B JUMPI PUSH1 0x40 MLOAD PUSH32 0x8C379A000000000000000000000000000000000000000000000000000000000 DUP2 MSTORE PUSH1 0x4 ADD PUSH2 0x1172 SWAP1 PUSH2 0x272E JUMP JUMPDEST PUSH1 0x40 MLOAD DUP1 SWAP2 SUB SWAP1 REVERT JUMPDEST PUSH1 0x1 DUP2 PUSH1 0x3 ADD PUSH1 0x14 PUSH2 0x100 EXP DUP2 SLOAD DUP2 PUSH1 0xFF MUL NOT AND SWAP1 DUP4 PUSH1 0x7 DUP2 GT ISZERO PUSH2 0x11A3 JUMPI PUSH2 0x11A2 PUSH2 0x1B1E JUMP JUMPDEST JUMPDEST MUL OR SWAP1 SSTORE POP DUP3 PUSH32 0xAF3C49F5413FD292E2325B0FE214DE144A222B00CB6EC21214FDC04B5D6C5913 PUSH1 0x40 MLOAD PUSH1 0x40 MLOAD DUP1 SWAP2 SUB SWAP1 LOG2 POP POP POP JUMP JUMPDEST PUSH0 PUSH20 0xFFFFFFFFFFFFFFFFFFFFFFFFFFFFFFFFFFFFFFFF AND DUP4 PUSH20 0xFFFFFFFFFFFFFFFFFFFFFFFFFFFFFFFFFFFFFFFF AND SUB PUSH2 0x1248 JUMPI PUSH1 0x40 MLOAD PUSH32 0x8C379A000000000000000000000000000000000000000000000000000000000 DUP2 MSTORE PUSH1 0x4 ADD PUSH2 0x123F SWAP1 PUSH2 0x2796 JUMP JUMPDEST PUSH1 0x40 MLOAD DUP1 SWAP2 SUB SWAP1 REVERT JUMPDEST DUP1 CALLVALUE EQ PUSH2 0x128A JUMPI PUSH1 0x40 MLOAD PUSH32 0x8C379A000000000000000000000000000000000000000000000000000000000 DUP2 MSTORE PUSH1 0x4 ADD PUSH2 0x1281 SWAP1 PUSH2 0x27FE JUMP JUMPDEST PUSH1 0x40 MLOAD DUP1 SWAP2 SUB SWAP1 REVERT JUMPDEST PUSH1 0x42 DUP3 MLOAD EQ PUSH2 0x12CE JUMPI PUSH1 0x40 MLOAD PUSH32 0x8C379A000000000000000000000000000000000000000000000000000000000 DUP2 MSTORE PUSH1 0x4 ADD PUSH2 0x12C5 SWAP1 PUSH2 0x2866 JUMP JUMPDEST PUSH1 0x40 MLOAD DUP1 SWAP2 SUB SWAP1 REVERT JUMPDEST PUSH1 0x3 PUSH0 DUP2 SLOAD DUP1 SWAP3 SWAP2 SWAP1 PUSH2 0x12E0 SWAP1 PUSH2 0x2884 JUMP JUMPDEST SWAP2 SWAP1 POP SSTORE POP PUSH0 PUSH1 0x2 PUSH0 PUSH1 0x3 SLOAD DUP2 MSTORE PUSH1 0x20 ADD SWAP1 DUP2 MSTORE PUSH1 0x20 ADD PUSH0 KECCAK256 SWAP1 POP PUSH1 0x3 SLOAD DUP2 PUSH0 ADD DUP2 SWAP1 SSTORE POP DUP2 DUP2 PUSH1 0x1 ADD DUP2 SWAP1 SSTORE POP CALLER DUP2 PUSH1 0x2 ADD PUSH0 PUSH2 0x100 EXP DUP2 SLOAD DUP2 PUSH20 0xFFFFFFFFFFFFFFFFFFFFFFFFFFFFFFFFFFFFFFFF MUL NOT AND SWAP1 DUP4 PUSH20 0xFFFFFFFFFFFFFFFFFFFFFFFFFFFFFFFFFFFFFFFF AND MUL OR SWAP1 SSTORE POP DUP4 DUP2 PUSH1 0x3 ADD PUSH0 PUSH2 0x100 EXP DUP2 SLOAD DUP2 PUSH20 0xFFFFFFFFFFFFFFFFFFFFFFFFFFFFFFFFFFFFFFFF MUL NOT AND SWAP1 DUP4 PUSH20 0xFFFFFFFFFFFFFFFFFFFFFFFFFFFFFFFFFFFFFFFF AND MUL OR SWAP1 SSTORE POP PUSH0 DUP2 PUSH1 0x3 ADD PUSH1 0x14 PUSH2 0x100 EXP DUP2 SLOAD DUP2 PUSH1 0xFF MUL NOT AND SWAP1 DUP4 PUSH1 0x7 DUP2 GT ISZERO PUSH2 0x13B9 JUMPI PUSH2 0x13B8 PUSH2 0x1B1E JUMP JUMPDEST JUMPDEST MUL OR SWAP1 SSTORE POP DUP3 DUP2 PUSH1 0x4 ADD SWAP1 DUP2 PUSH2 0x13CF SWAP2 SWAP1 PUSH2 0x22F6 JUMP JUMPDEST POP PUSH1 0x3 SLOAD PUSH32 0x56560A52C047ED21FD801BF0F345B23D9AF696F7922FF8E63101AF5D48CADDAB CALLER DUP7 PUSH1 0x40 MLOAD PUSH2 0x1404 SWAP3 SWAP2 SWAP1 PUSH2 0x291D JUMP JUMPDEST PUSH1 0x40 MLOAD DUP1 SWAP2 SUB SWAP1 LOG2 POP POP POP POP JUMP JUMPDEST PUSH2 0x141A PUSH2 0x19A1 JUMP JUMPDEST PUSH1 0x1 PUSH0 SWAP1 SLOAD SWAP1 PUSH2 0x100 EXP SWAP1 DIV PUSH20 0xFFFFFFFFFFFFFFFFFFFFFFFFFFFFFFFFFFFFFFFF AND PUSH20 0xFFFFFFFFFFFFFFFFFFFFFFFFFFFFFFFFFFFFFFFF AND CALLER PUSH20 0xFFFFFFFFFFFFFFFFFFFFFFFFFFFFFFFFFFFFFFFF AND EQ PUSH2 0x14A9 JUMPI PUSH1 0x40 MLOAD PUSH32 0x8C379A000000000000000000000000000000000000000000000000000000000 DUP2 MSTORE PUSH1 0x4 ADD PUSH2 0x14A0 SWAP1 PUSH2 0x298E JUMP JUMPDEST PUSH1 0x40 MLOAD DUP1 SWAP2 SUB SWAP1 REVERT JUMPDEST PUSH0 PUSH1 0x2 PUSH0 DUP5 DUP2 MSTORE PUSH1 0x20 ADD SWAP1 DUP2 MSTORE PUSH1 0x20 ADD PUSH0 KECCAK256 SWAP1 POP PUSH1 0x2 PUSH1 0x7 DUP2 GT ISZERO PUSH2 0x14D1 JUMPI PUSH2 0x14D0 PUSH2 0x1B1E JUMP JUMPDEST JUMPDEST DUP2 PUSH1 0x3 ADD PUSH1 0x14 SWAP1 SLOAD SWAP1 PUSH2 0x100 EXP SWAP1 DIV PUSH1 0xFF AND PUSH1 0x7 DUP2 GT ISZERO PUSH2 0x14F5 JUMPI PUSH2 0x14F4 PUSH2 0x1B1E JUMP JUMPDEST JUMPDEST EQ PUSH2 0x1535 JUMPI PUSH1 0x40 MLOAD PUSH32 0x8C379A000000000000000000000000000000000000000000000000000000000 DUP2 MSTORE PUSH1 0x4 ADD PUSH2 0x152C SWAP1 PUSH2 0x2013 JUMP JUMPDEST PUSH1 0x40 MLOAD DUP1 SWAP2 SUB SWAP1 REVERT JUMPDEST DUP1 PUSH1 0x6 ADD PUSH0 SWAP1 SLOAD SWAP1 PUSH2 0x100 EXP SWAP1 DIV PUSH1 0xFF AND PUSH2 0x1585 JUMPI PUSH1 0x40 MLOAD PUSH32 0x8C379A000000000000000000000000000000000000000000000000000000000 DUP2 MSTORE PUSH1 0x4 ADD PUSH2 0x157C SWAP1 PUSH2 0x29F6 JUMP JUMPDEST PUSH1 0x40 MLOAD DUP1 SWAP2 SUB SWAP1 REVERT JUMPDEST DUP3 DUP3 PUSH1 0x40 MLOAD PUSH1 0x20 ADD PUSH2 0x1598 SWAP3 SWAP2 SWAP1 PUSH2 0x24FD JUMP JUMPDEST PUSH1 0x40 MLOAD PUSH1 0x20 DUP2 DUP4 SUB SUB DUP2 MSTORE SWAP1 PUSH1 0x40 MSTORE DUP1 MLOAD SWAP1 PUSH1 0x20 ADD KECCAK256 DUP2 PUSH1 0x5 ADD SLOAD EQ PUSH2 0x15F3 JUMPI PUSH1 0x40 MLOAD PUSH32 0x8C379A000000000000000000000000000000000000000000000000000000000 DUP2 MSTORE PUSH1 0x4 ADD PUSH2 0x15EA SWAP1 PUSH2 0x2A5E JUMP JUMPDEST PUSH1 0x40 MLOAD DUP1 SWAP2 SUB SWAP1 REVERT JUMPDEST PUSH1 0x3 DUP2 PUSH1 0x3 ADD PUSH1 0x14 PUSH2 0x100 EXP DUP2 SLOAD DUP2 PUSH1 0xFF MUL NOT AND SWAP1 DUP4 PUSH1 0x7 DUP2 GT ISZERO PUSH2 0x161B JUMPI PUSH2 0x161A PUSH2 0x1B1E JUMP JUMPDEST JUMPDEST MUL OR SWAP1 SSTORE POP DUP3 PUSH32 0x375B4005EEAE25D0E37D56E1B3841D3BB394B277EFA2548DE3293F5DCB7A3493 PUSH1 0x40 MLOAD PUSH1 0x40 MLOAD DUP1 SWAP2 SUB SWAP1 LOG2 POP PUSH2 0x1656 PUSH2 0x19EE JUMP JUMPDEST POP POP JUMP JUMPDEST PUSH2 0x1662 PUSH2 0x19A1 JUMP JUMPDEST DUP1 PUSH1 0x2 PUSH0 DUP3 DUP2 MSTORE PUSH1 0x20 ADD SWAP1 DUP2 MSTORE PUSH1 0x20 ADD PUSH0 KECCAK256 PUSH1 0x3 ADD PUSH0 SWAP1 SLOAD SWAP1 PUSH2 0x100 EXP SWAP1 DIV PUSH20 0xFFFFFFFFFFFFFFFFFFFFFFFFFFFFFFFFFFFFFFFF AND PUSH20 0xFFFFFFFFFFFFFFFFFFFFFFFFFFFFFFFFFFFFFFFF AND CALLER PUSH20 0xFFFFFFFFFFFFFFFFFFFFFFFFFFFFFFFFFFFFFFFF AND EQ PUSH2 0x1704 JUMPI PUSH1 0x40 MLOAD PUSH32 0x8C379A000000000000000000000000000000000000000000000000000000000 DUP2 MSTORE PUSH1 0x4 ADD PUSH2 0x16FB SWAP1 PUSH2 0x240F JUMP JUMPDEST PUSH1 0x40 MLOAD DUP1 SWAP2 SUB SWAP1 REVERT JUMPDEST PUSH0 PUSH1 0x2 PUSH0 DUP5 DUP2 MSTORE PUSH1 0x20 ADD SWAP1 DUP2 MSTORE PUSH1 0x20 ADD PUSH0 KECCAK256 SWAP1 POP PUSH1 0x5 PUSH1 0x7 DUP2 GT ISZERO PUSH2 0x172C JUMPI PUSH2 0x172B PUSH2 0x1B1E JUMP JUMPDEST JUMPDEST DUP2 PUSH1 0x3 ADD PUSH1 0x14 SWAP1 SLOAD SWAP1 PUSH2 0x100 EXP SWAP1 DIV PUSH1 0xFF AND PUSH1 0x7 DUP2 GT ISZERO PUSH2 0x1750 JUMPI PUSH2 0x174F PUSH2 0x1B1E JUMP JUMPDEST JUMPDEST EQ DUP1 PUSH2 0x1791 JUMPI POP PUSH1 0x4 PUSH1 0x7 DUP2 GT ISZERO PUSH2 0x176B JUMPI PUSH2 0x176A PUSH2 0x1B1E JUMP JUMPDEST JUMPDEST DUP2 PUSH1 0x3 ADD PUSH1 0x14 SWAP1 SLOAD SWAP1 PUSH2 0x100 EXP SWAP1 DIV PUSH1 0xFF AND PUSH1 0x7 DUP2 GT ISZERO PUSH2 0x178F JUMPI PUSH2 0x178E PUSH2 0x1B1E JUMP JUMPDEST JUMPDEST EQ JUMPDEST PUSH2 0x17D0 JUMPI PUSH1 0x40 MLOAD PUSH32 0x8C379A000000000000000000000000000000000000000000000000000000000 DUP2 MSTORE PUSH1 0x4 ADD PUSH2 0x17C7 SWAP1 PUSH2 0x2AC6 JUMP JUMPDEST PUSH1 0x40 MLOAD DUP1 SWAP2 SUB SWAP1 REVERT JUMPDEST PUSH0 DUP2 PUSH1 0x1 ADD SLOAD SWAP1 POP DUP1 PUSH1 0x4 PUSH0 CALLER PUSH20 0xFFFFFFFFFFFFFFFFFFFFFFFFFFFFFFFFFFFFFFFF AND PUSH20 0xFFFFFFFFFFFFFFFFFFFFFFFFFFFFFFFFFFFFFFFF AND DUP2 MSTORE PUSH1 0x20 ADD SWAP1 DUP2 MSTORE PUSH1 0x20 ADD PUSH0 KECCAK256 SLOAD LT ISZERO PUSH2 0x1858 JUMPI PUSH1 0x40 MLOAD PUSH32 0x8C379A000000000000000000000000000000000000000000000000000000000 DUP2 MSTORE PUSH1 0x4 ADD PUSH2 0x184F SWAP1 PUSH2 0x2B2E JUMP JUMPDEST PUSH1 0x40 MLOAD DUP1 SWAP2 SUB SWAP1 REVERT JUMPDEST DUP1 PUSH1 0x4 PUSH0 CALLER PUSH20 0xFFFFFFFFFFFFFFFFFFFFFFFFFFFFFFFFFFFFFFFF AND PUSH20 0xFFFFFFFFFFFFFFFFFFFFFFFFFFFFFFFFFFFFFFFF AND DUP2 MSTORE PUSH1 0x20 ADD SWAP1 DUP2 MSTORE PUSH1 0x20 ADD PUSH0 KECCAK256 PUSH0 DUP3 DUP3 SLOAD PUSH2 0x18A4 SWAP2 SWAP1 PUSH2 0x2B4C JUMP JUMPDEST SWAP3 POP POP DUP2 SWAP1 SSTORE POP CALLER PUSH20 0xFFFFFFFFFFFFFFFFFFFFFFFFFFFFFFFFFFFFFFFF AND PUSH2 0x8FC DUP3 SWAP1 DUP2 ISZERO MUL SWAP1 PUSH1 0x40 MLOAD PUSH0 PUSH1 0x40 MLOAD DUP1 DUP4 SUB DUP2 DUP6 DUP9 DUP9 CALL SWAP4 POP POP POP POP ISZERO DUP1 ISZERO PUSH2 0x18EE JUMPI RETURNDATASIZE PUSH0 PUSH0 RETURNDATACOPY RETURNDATASIZE PUSH0 REVERT JUMPDEST POP PUSH1 0x6 DUP3 PUSH1 0x3 ADD PUSH1 0x14 PUSH2 0x100 EXP DUP2 SLOAD DUP2 PUSH1 0xFF MUL NOT AND SWAP1 DUP4 PUSH1 0x7 DUP2 GT ISZERO PUSH2 0x1917 JUMPI PUSH2 0x1916 PUSH2 0x1B1E JUMP JUMPDEST JUMPDEST MUL OR SWAP1 SSTORE POP CALLER PUSH20 0xFFFFFFFFFFFFFFFFFFFFFFFFFFFFFFFFFFFFFFFF AND DUP5 PUSH32 0xF440AEC6B52895984D061D622E6EDEBA6210F7C3E059BE920663140C084560D7 DUP4 PUSH1 0x40 MLOAD PUSH2 0x1963 SWAP2 SWAP1 PUSH2 0x1A75 JUMP JUMPDEST PUSH1 0x40 MLOAD DUP1 SWAP2 SUB SWAP1 LOG3 POP POP POP PUSH2 0x1976 PUSH2 0x19EE JUMP JUMPDEST POP JUMP JUMPDEST PUSH1 0x1 PUSH1 0x14 SWAP1 SLOAD SWAP1 PUSH2 0x100 EXP SWAP1 DIV PUSH1 0xFF AND DUP2 JUMP JUMPDEST PUSH1 0x4 PUSH1 0x20 MSTORE DUP1 PUSH0 MSTORE PUSH1 0x40 PUSH0 KECCAK256 PUSH0 SWAP2 POP SWAP1 POP SLOAD DUP2 JUMP JUMPDEST PUSH1 0x2 PUSH0 SLOAD SUB PUSH2 0x19E5 JUMPI PUSH1 0x40 MLOAD PUSH32 0x8C379A000000000000000000000000000000000000000000000000000000000 DUP2 MSTORE PUSH1 0x4 ADD PUSH2 0x19DC SWAP1 PUSH2 0x2BC9 JUMP JUMPDEST PUSH1 0x40 MLOAD DUP1 SWAP2 SUB SWAP1 REVERT JUMPDEST PUSH1 0x2 PUSH0 DUP2 SWAP1 SSTORE POP JUMP JUMPDEST PUSH1 0x1 PUSH0 DUP2 SWAP1 SSTORE POP JUMP JUMPDEST PUSH0 PUSH1 0x40 MLOAD SWAP1 POP SWAP1 JUMP JUMPDEST PUSH0 PUSH0 REVERT JUMPDEST PUSH0 PUSH0 REVERT JUMPDEST PUSH0 DUP2 SWAP1 POP SWAP2 SWAP1 POP JUMP JUMPDEST PUSH2 0x1A1A DUP2 PUSH2 0x1A08 JUMP JUMPDEST DUP2 EQ PUSH2 0x1A24 JUMPI PUSH0 PUSH0 REVERT JUMPDEST POP JUMP JUMPDEST PUSH0 DUP2 CALLDATALOAD SWAP1 POP PUSH2 0x1A35 DUP2 PUSH2 0x1A11 JUMP JUMPDEST SWAP3 SWAP2 POP POP JUMP JUMPDEST PUSH0 PUSH1 0x20 DUP3 DUP5 SUB SLT ISZERO PUSH2 0x1A50 JUMPI PUSH2 0x1A4F PUSH2 0x1A00 JUMP JUMPDEST JUMPDEST PUSH0 PUSH2 0x1A5D DUP5 DUP3 DUP6 ADD PUSH2 0x1A27 JUMP JUMPDEST SWAP2 POP POP SWAP3 SWAP2 POP POP JUMP JUMPDEST PUSH2 0x1A6F DUP2 PUSH2 0x1A08 JUMP JUMPDEST DUP3 MSTORE POP POP JUMP JUMPDEST PUSH0 PUSH1 0x20 DUP3 ADD SWAP1 POP PUSH2 0x1A88 PUSH0 DUP4 ADD DUP5 PUSH2 0x1A66 JUMP JUMPDEST SWAP3 SWAP2 POP POP JUMP JUMPDEST PUSH0 DUP2 MLOAD SWAP1 POP SWAP2 SWAP1 POP JUMP JUMPDEST PUSH0 DUP3 DUP3 MSTORE PUSH1 0x20 DUP3 ADD SWAP1 POP SWAP3 SWAP2 POP POP JUMP JUMPDEST DUP3 DUP2 DUP4 MCOPY PUSH0 DUP4 DUP4 ADD MSTORE POP POP POP JUMP JUMPDEST PUSH0 PUSH1 0x1F NOT PUSH1 0x1F DUP4 ADD AND SWAP1 POP SWAP2 SWAP1 POP JUMP JUMPDEST PUSH0 PUSH2 0x1AD0 DUP3 PUSH2 0x1A8E JUMP JUMPDEST PUSH2 0x1ADA DUP2 DUP6 PUSH2 0x1A98 JUMP JUMPDEST SWAP4 POP PUSH2 0x1AEA DUP2 DUP6 PUSH1 0x20 DUP7 ADD PUSH2 0x1AA8 JUMP JUMPDEST PUSH2 0x1AF3 DUP2 PUSH2 0x1AB6 JUMP JUMPDEST DUP5 ADD SWAP2 POP POP SWAP3 SWAP2 POP POP JUMP JUMPDEST PUSH0 PUSH1 0x20 DUP3 ADD SWAP1 POP DUP2 DUP2 SUB PUSH0 DUP4 ADD MSTORE PUSH2 0x1B16 DUP2 DUP5 PUSH2 0x1AC6 JUMP JUMPDEST SWAP1 POP SWAP3 SWAP2 POP POP JUMP JUMPDEST PUSH32 0x4E487B7100000000000000000000000000000000000000000000000000000000 PUSH0 MSTORE PUSH1 0x21 PUSH1 0x4 MSTORE PUSH1 0x24 PUSH0 REVERT JUMPDEST PUSH1 0x8 DUP2 LT PUSH2 0x1B5C JUMPI PUSH2 0x1B5B PUSH2 0x1B1E JUMP JUMPDEST JUMPDEST POP JUMP JUMPDEST PUSH0 DUP2 SWAP1 POP PUSH2 0x1B6C DUP3 PUSH2 0x1B4B JUMP JUMPDEST SWAP2 SWAP1 POP JUMP JUMPDEST PUSH0 PUSH2 0x1B7B DUP3 PUSH2 0x1B5F JUMP JUMPDEST SWAP1 POP SWAP2 SWAP1 POP JUMP JUMPDEST PUSH2 0x1B8B DUP2 PUSH2 0x1B71 JUMP JUMPDEST DUP3 MSTORE POP POP JUMP JUMPDEST PUSH0 PUSH1 0x20 DUP3 ADD SWAP1 POP PUSH2 0x1BA4 PUSH0 DUP4 ADD DUP5 PUSH2 0x1B82 JUMP JUMPDEST SWAP3 SWAP2 POP POP JUMP JUMPDEST PUSH0 PUSH20 0xFFFFFFFFFFFFFFFFFFFFFFFFFFFFFFFFFFFFFFFF DUP3 AND SWAP1 POP SWAP2 SWAP1 POP JUMP JUMPDEST PUSH0 PUSH2 0x1BD3 DUP3 PUSH2 0x1BAA JUMP JUMPDEST SWAP1 POP SWAP2 SWAP1 POP JUMP JUMPDEST PUSH2 0x1BE3 DUP2 PUSH2 0x1BC9 JUMP JUMPDEST DUP3 MSTORE POP POP JUMP JUMPDEST PUSH0 DUP2 SWAP1 POP SWAP2 SWAP1 POP JUMP JUMPDEST PUSH2 0x1BFB DUP2 PUSH2 0x1BE9 JUMP JUMPDEST DUP3 MSTORE POP POP JUMP JUMPDEST PUSH0 DUP2 ISZERO ISZERO SWAP1 POP SWAP2 SWAP1 POP JUMP JUMPDEST PUSH2 0x1C15 DUP2 PUSH2 0x1C01 JUMP JUMPDEST DUP3 MSTORE POP POP JUMP JUMPDEST PUSH0 PUSH2 0x100 DUP3 ADD SWAP1 POP PUSH2 0x1C2F PUSH0 DUP4 ADD DUP12 PUSH2 0x1A66 JUMP JUMPDEST PUSH2 0x1C3C PUSH1 0x20 DUP4 ADD DUP11 PUSH2 0x1A66 JUMP JUMPDEST PUSH2 0x1C49 PUSH1 0x40 DUP4 ADD DUP10 PUSH2 0x1BDA JUMP JUMPDEST PUSH2 0x1C56 PUSH1 0x60 DUP4 ADD DUP9 PUSH2 0x1BDA JUMP JUMPDEST PUSH2 0x1C63 PUSH1 0x80 DUP4 ADD DUP8 PUSH2 0x1B82 JUMP JUMPDEST DUP2 DUP2 SUB PUSH1 0xA0 DUP4 ADD MSTORE PUSH2 0x1C75 DUP2 DUP7 PUSH2 0x1AC6 JUMP JUMPDEST SWAP1 POP PUSH2 0x1C84 PUSH1 0xC0 DUP4 ADD DUP6 PUSH2 0x1BF2 JUMP JUMPDEST PUSH2 0x1C91 PUSH1 0xE0 DUP4 ADD DUP5 PUSH2 0x1C0C JUMP JUMPDEST SWAP10 SWAP9 POP POP POP POP POP POP POP POP POP JUMP JUMPDEST PUSH0 PUSH0 REVERT JUMPDEST PUSH0 PUSH0 REVERT JUMPDEST PUSH32 0x4E487B7100000000000000000000000000000000000000000000000000000000 PUSH0 MSTORE PUSH1 0x41 PUSH1 0x4 MSTORE PUSH1 0x24 PUSH0 REVERT JUMPDEST PUSH2 0x1CDC DUP3 PUSH2 0x1AB6 JUMP JUMPDEST DUP2 ADD DUP2 DUP2 LT PUSH8 0xFFFFFFFFFFFFFFFF DUP3 GT OR ISZERO PUSH2 0x1CFB JUMPI PUSH2 0x1CFA PUSH2 0x1CA6 JUMP JUMPDEST JUMPDEST DUP1 PUSH1 0x40 MSTORE POP POP POP JUMP JUMPDEST PUSH0 PUSH2 0x1D0D PUSH2 0x19F7 JUMP JUMPDEST SWAP1 POP PUSH2 0x1D19 DUP3 DUP3 PUSH2 0x1CD3 JUMP JUMPDEST SWAP2 SWAP1 POP JUMP JUMPDEST PUSH0 PUSH8 0xFFFFFFFFFFFFFFFF DUP3 GT ISZERO PUSH2 0x1D38 JUMPI PUSH2 0x1D37 PUSH2 0x1CA6 JUMP JUMPDEST JUMPDEST PUSH2 0x1D41 DUP3 PUSH2 0x1AB6 JUMP JUMPDEST SWAP1 POP PUSH1 0x20 DUP2 ADD SWAP1 POP SWAP2 SWAP1 POP JUMP JUMPDEST DUP3 DUP2 DUP4 CALLDATACOPY PUSH0 DUP4 DUP4 ADD MSTORE POP POP POP JUMP JUMPDEST PUSH0 PUSH2 0x1D6E PUSH2 0x1D69 DUP5 PUSH2 0x1D1E JUMP JUMPDEST PUSH2 0x1D04 JUMP JUMPDEST SWAP1 POP DUP3 DUP2 MSTORE PUSH1 0x20 DUP2 ADD DUP5 DUP5 DUP5 ADD GT ISZERO PUSH2 0x1D8A JUMPI PUSH2 0x1D89 PUSH2 0x1CA2 JUMP JUMPDEST JUMPDEST PUSH2 0x1D95 DUP5 DUP3 DUP6 PUSH2 0x1D4E JUMP JUMPDEST POP SWAP4 SWAP3 POP POP POP JUMP JUMPDEST PUSH0 DUP3 PUSH1 0x1F DUP4 ADD SLT PUSH2 0x1DB1 JUMPI PUSH2 0x1DB0 PUSH2 0x1C9E JUMP JUMPDEST JUMPDEST DUP2 CALLDATALOAD PUSH2 0x1DC1 DUP5 DUP3 PUSH1 0x20 DUP7 ADD PUSH2 0x1D5C JUMP JUMPDEST SWAP2 POP POP SWAP3 SWAP2 POP POP JUMP JUMPDEST PUSH0 PUSH0 PUSH1 0x40 DUP4 DUP6 SUB SLT ISZERO PUSH2 0x1DE0 JUMPI PUSH2 0x1DDF PUSH2 0x1A00 JUMP JUMPDEST JUMPDEST PUSH0 PUSH2 0x1DED DUP6 DUP3 DUP7 ADD PUSH2 0x1A27 JUMP JUMPDEST SWAP3 POP POP PUSH1 0x20 DUP4 ADD CALLDATALOAD PUSH8 0xFFFFFFFFFFFFFFFF DUP2 GT ISZERO PUSH2 0x1E0E JUMPI PUSH2 0x1E0D PUSH2 0x1A04 JUMP JUMPDEST JUMPDEST PUSH2 0x1E1A DUP6 DUP3 DUP7 ADD PUSH2 0x1D9D JUMP JUMPDEST SWAP2 POP POP SWAP3 POP SWAP3 SWAP1 POP JUMP JUMPDEST PUSH0 PUSH2 0x1E2E DUP3 PUSH2 0x1BAA JUMP JUMPDEST SWAP1 POP SWAP2 SWAP1 POP JUMP JUMPDEST PUSH2 0x1E3E DUP2 PUSH2 0x1E24 JUMP JUMPDEST DUP2 EQ PUSH2 0x1E48 JUMPI PUSH0 PUSH0 REVERT JUMPDEST POP JUMP JUMPDEST PUSH0 DUP2 CALLDATALOAD SWAP1 POP PUSH2 0x1E59 DUP2 PUSH2 0x1E35 JUMP JUMPDEST SWAP3 SWAP2 POP POP JUMP JUMPDEST PUSH0 PUSH1 0x20 DUP3 DUP5 SUB SLT ISZERO PUSH2 0x1E74 JUMPI PUSH2 0x1E73 PUSH2 0x1A00 JUMP JUMPDEST JUMPDEST PUSH0 PUSH2 0x1E81 DUP5 DUP3 DUP6 ADD PUSH2 0x1E4B JUMP JUMPDEST SWAP2 POP POP SWAP3 SWAP2 POP POP JUMP JUMPDEST PUSH2 0x1E93 DUP2 PUSH2 0x1E24 JUMP JUMPDEST DUP3 MSTORE POP POP JUMP JUMPDEST PUSH0 PUSH1 0x20 DUP3 ADD SWAP1 POP PUSH2 0x1EAC PUSH0 DUP4 ADD DUP5 PUSH2 0x1E8A JUMP JUMPDEST SWAP3 SWAP2 POP POP JUMP JUMPDEST PUSH2 0x1EBB DUP2 PUSH2 0x1BC9 JUMP JUMPDEST DUP2 EQ PUSH2 0x1EC5 JUMPI PUSH0 PUSH0 REVERT JUMPDEST POP JUMP JUMPDEST PUSH0 DUP2 CALLDATALOAD SWAP1 POP PUSH2 0x1ED6 DUP2 PUSH2 0x1EB2 JUMP JUMPDEST SWAP3 SWAP2 POP POP JUMP JUMPDEST PUSH0 PUSH0 PUSH0 PUSH1 0x60 DUP5 DUP7 SUB SLT ISZERO PUSH2 0x1EF3 JUMPI PUSH2 0x1EF2 PUSH2 0x1A00 JUMP JUMPDEST JUMPDEST PUSH0 PUSH2 0x1F00 DUP7 DUP3 DUP8 ADD PUSH2 0x1EC8 JUMP JUMPDEST SWAP4 POP POP PUSH1 0x20 DUP5 ADD CALLDATALOAD PUSH8 0xFFFFFFFFFFFFFFFF DUP2 GT ISZERO PUSH2 0x1F21 JUMPI PUSH2 0x1F20 PUSH2 0x1A04 JUMP JUMPDEST JUMPDEST PUSH2 0x1F2D DUP7 DUP3 DUP8 ADD PUSH2 0x1D9D JUMP JUMPDEST SWAP3 POP POP PUSH1 0x40 PUSH2 0x1F3E DUP7 DUP3 DUP8 ADD PUSH2 0x1A27 JUMP JUMPDEST SWAP2 POP POP SWAP3 POP SWAP3 POP SWAP3 JUMP JUMPDEST PUSH0 PUSH1 0x20 DUP3 ADD SWAP1 POP PUSH2 0x1F5B PUSH0 DUP4 ADD DUP5 PUSH2 0x1C0C JUMP JUMPDEST SWAP3 SWAP2 POP POP JUMP JUMPDEST PUSH32 0x4E6F742063726561746F72000000000000000000000000000000000000000000 PUSH0 DUP3 ADD MSTORE POP JUMP JUMPDEST PUSH0 PUSH2 0x1F95 PUSH1 0xB DUP4 PUSH2 0x1A98 JUMP JUMPDEST SWAP2 POP PUSH2 0x1FA0 DUP3 PUSH2 0x1F61 JUMP JUMPDEST PUSH1 0x20 DUP3 ADD SWAP1 POP SWAP2 SWAP1 POP JUMP JUMPDEST PUSH0 PUSH1 0x20 DUP3 ADD SWAP1 POP DUP2 DUP2 SUB PUSH0 DUP4 ADD MSTORE PUSH2 0x1FC2 DUP2 PUSH2 0x1F89 JUMP JUMPDEST SWAP1 POP SWAP2 SWAP1 POP JUMP JUMPDEST PUSH32 0x57726F6E67207374617475730000000000000000000000000000000000000000 PUSH0 DUP3 ADD MSTORE POP JUMP JUMPDEST PUSH0 PUSH2 0x1FFD PUSH1 0xC DUP4 PUSH2 0x1A98 JUMP JUMPDEST SWAP2 POP PUSH2 0x2008 DUP3 PUSH2 0x1FC9 JUMP JUMPDEST PUSH1 0x20 DUP3 ADD SWAP1 POP SWAP2 SWAP1 POP JUMP JUMPDEST PUSH0 PUSH1 0x20 DUP3 ADD SWAP1 POP DUP2 DUP2 SUB PUSH0 DUP4 ADD MSTORE PUSH2 0x202A DUP2 PUSH2 0x1FF1 JUMP JUMPDEST SWAP1 POP SWAP2 SWAP1 POP JUMP JUMPDEST PUSH32 0x4E487B7100000000000000000000000000000000000000000000000000000000 PUSH0 MSTORE PUSH1 0x11 PUSH1 0x4 MSTORE PUSH1 0x24 PUSH0 REVERT JUMPDEST PUSH0 PUSH2 0x2068 DUP3 PUSH2 0x1A08 JUMP JUMPDEST SWAP2 POP PUSH2 0x2073 DUP4 PUSH2 0x1A08 JUMP JUMPDEST SWAP3 POP DUP3 DUP3 ADD SWAP1 POP DUP1 DUP3 GT ISZERO PUSH2 0x208B JUMPI PUSH2 0x208A PUSH2 0x2031 JUMP JUMPDEST JUMPDEST SWAP3 SWAP2 POP POP JUMP JUMPDEST PUSH32 0x4E487B7100000000000000000000000000000000000000000000000000000000 PUSH0 MSTORE PUSH1 0x22 PUSH1 0x4 MSTORE PUSH1 0x24 PUSH0 REVERT JUMPDEST PUSH0 PUSH1 0x2 DUP3 DIV SWAP1 POP PUSH1 0x1 DUP3 AND DUP1 PUSH2 0x20D5 JUMPI PUSH1 0x7F DUP3 AND SWAP2 POP JUMPDEST PUSH1 0x20 DUP3 LT DUP2 SUB PUSH2 0x20E8 JUMPI PUSH2 0x20E7 PUSH2 0x2091 JUMP JUMPDEST JUMPDEST POP SWAP2 SWAP1 POP JUMP JUMPDEST PUSH32 0x416C726561647920636F6D706C65746564000000000000000000000000000000 PUSH0 DUP3 ADD MSTORE POP JUMP JUMPDEST PUSH0 PUSH2 0x2122 PUSH1 0x11 DUP4 PUSH2 0x1A98 JUMP JUMPDEST SWAP2 POP PUSH2 0x212D DUP3 PUSH2 0x20EE JUMP JUMPDEST PUSH1 0x20 DUP3 ADD SWAP1 POP SWAP2 SWAP1 POP JUMP JUMPDEST PUSH0 PUSH1 0x20 DUP3 ADD SWAP1 POP DUP2 DUP2 SUB PUSH0 DUP4 ADD MSTORE PUSH2 0x214F DUP2 PUSH2 0x2116 JUMP JUMPDEST SWAP1 POP SWAP2 SWAP1 POP JUMP JUMPDEST PUSH0 DUP2 SWAP1 POP DUP2 PUSH0 MSTORE PUSH1 0x20 PUSH0 KECCAK256 SWAP1 POP SWAP2 SWAP1 POP JUMP JUMPDEST PUSH0 PUSH1 0x20 PUSH1 0x1F DUP4 ADD DIV SWAP1 POP SWAP2 SWAP1 POP JUMP JUMPDEST PUSH0 DUP3 DUP3 SHL SWAP1 POP SWAP3 SWAP2 POP POP JUMP JUMPDEST PUSH0 PUSH1 0x8 DUP4 MUL PUSH2 0x21B2 PUSH32 0xFFFFFFFFFFFFFFFFFFFFFFFFFFFFFFFFFFFFFFFFFFFFFFFFFFFFFFFFFFFFFFFF DUP3 PUSH2 0x2177 JUMP JUMPDEST PUSH2 0x21BC DUP7 DUP4 PUSH2 0x2177 JUMP JUMPDEST SWAP6 POP DUP1 NOT DUP5 AND SWAP4 POP DUP1 DUP7 AND DUP5 OR SWAP3 POP POP POP SWAP4 SWAP3 POP POP POP JUMP JUMPDEST PUSH0 DUP2 SWAP1 POP SWAP2 SWAP1 POP JUMP JUMPDEST PUSH0 PUSH2 0x21F7 PUSH2 0x21F2 PUSH2 0x21ED DUP5 PUSH2 0x1A08 JUMP JUMPDEST PUSH2 0x21D4 JUMP JUMPDEST PUSH2 0x1A08 JUMP JUMPDEST SWAP1 POP SWAP2 SWAP1 POP JUMP JUMPDEST PUSH0 DUP2 SWAP1 POP SWAP2 SWAP1 POP JUMP JUMPDEST PUSH2 0x2210 DUP4 PUSH2 0x21DD JUMP JUMPDEST PUSH2 0x2224 PUSH2 0x221C DUP3 PUSH2 0x21FE JUMP JUMPDEST DUP5 DUP5 SLOAD PUSH2 0x2183 JUMP JUMPDEST DUP3 SSTORE POP POP POP POP JUMP JUMPDEST PUSH0 PUSH0 SWAP1 POP SWAP1 JUMP JUMPDEST PUSH2 0x223B PUSH2 0x222C JUMP JUMPDEST PUSH2 0x2246 DUP2 DUP5 DUP5 PUSH2 0x2207 JUMP JUMPDEST POP POP POP JUMP JUMPDEST JUMPDEST DUP2 DUP2 LT ISZERO PUSH2 0x2269 JUMPI PUSH2 0x225E PUSH0 DUP3 PUSH2 0x2233 JUMP JUMPDEST PUSH1 0x1 DUP2 ADD SWAP1 POP PUSH2 0x224C JUMP JUMPDEST POP POP JUMP JUMPDEST PUSH1 0x1F DUP3 GT ISZERO PUSH2 0x22AE JUMPI PUSH2 0x227F DUP2 PUSH2 0x2156 JUMP JUMPDEST PUSH2 0x2288 DUP5 PUSH2 0x2168 JUMP JUMPDEST DUP2 ADD PUSH1 0x20 DUP6 LT ISZERO PUSH2 0x2297 JUMPI DUP2 SWAP1 POP JUMPDEST PUSH2 0x22AB PUSH2 0x22A3 DUP6 PUSH2 0x2168 JUMP JUMPDEST DUP4 ADD DUP3 PUSH2 0x224B JUMP JUMPDEST POP POP JUMPDEST POP POP POP JUMP JUMPDEST PUSH0 DUP3 DUP3 SHR SWAP1 POP SWAP3 SWAP2 POP POP JUMP JUMPDEST PUSH0 PUSH2 0x22CE PUSH0 NOT DUP5 PUSH1 0x8 MUL PUSH2 0x22B3 JUMP JUMPDEST NOT DUP1 DUP4 AND SWAP2 POP POP SWAP3 SWAP2 POP POP JUMP JUMPDEST PUSH0 PUSH2 0x22E6 DUP4 DUP4 PUSH2 0x22BF JUMP JUMPDEST SWAP2 POP DUP3 PUSH1 0x2 MUL DUP3 OR SWAP1 POP SWAP3 SWAP2 POP POP JUMP JUMPDEST PUSH2 0x22FF DUP3 PUSH2 0x1A8E JUMP JUMPDEST PUSH8 0xFFFFFFFFFFFFFFFF DUP2 GT ISZERO PUSH2 0x2318 JUMPI PUSH2 0x2317 PUSH2 0x1CA6 JUMP JUMPDEST JUMPDEST PUSH2 0x2322 DUP3 SLOAD PUSH2 0x20BE JUMP JUMPDEST PUSH2 0x232D DUP3 DUP3 DUP6 PUSH2 0x226D JUMP JUMPDEST PUSH0 PUSH1 0x20 SWAP1 POP PUSH1 0x1F DUP4 GT PUSH1 0x1 DUP2 EQ PUSH2 0x235E JUMPI PUSH0 DUP5 ISZERO PUSH2 0x234C JUMPI DUP3 DUP8 ADD MLOAD SWAP1 POP JUMPDEST PUSH2 0x2356 DUP6 DUP3 PUSH2 0x22DB JUMP JUMPDEST DUP7 SSTORE POP PUSH2 0x23BD JUMP JUMPDEST PUSH1 0x1F NOT DUP5 AND PUSH2 0x236C DUP7 PUSH2 0x2156 JUMP JUMPDEST PUSH0 JUMPDEST DUP3 DUP2 LT ISZERO PUSH2 0x2393 JUMPI DUP5 DUP10 ADD MLOAD DUP3 SSTORE PUSH1 0x1 DUP3 ADD SWAP2 POP PUSH1 0x20 DUP6 ADD SWAP5 POP PUSH1 0x20 DUP2 ADD SWAP1 POP PUSH2 0x236E JUMP JUMPDEST DUP7 DUP4 LT ISZERO PUSH2 0x23B0 JUMPI DUP5 DUP10 ADD MLOAD PUSH2 0x23AC PUSH1 0x1F DUP10 AND DUP3 PUSH2 0x22BF JUMP JUMPDEST DUP4 SSTORE POP JUMPDEST PUSH1 0x1 PUSH1 0x2 DUP9 MUL ADD DUP9 SSTORE POP POP POP JUMPDEST POP POP POP POP POP POP JUMP JUMPDEST PUSH32 0x4E6F7420636F756E746572706172747900000000000000000000000000000000 PUSH0 DUP3 ADD MSTORE POP JUMP JUMPDEST PUSH0 PUSH2 0x23F9 PUSH1 0x10 DUP4 PUSH2 0x1A98 JUMP JUMPDEST SWAP2 POP PUSH2 0x2404 DUP3 PUSH2 0x23C5 JUMP JUMPDEST PUSH1 0x20 DUP3 ADD SWAP1 POP SWAP2 SWAP1 POP JUMP JUMPDEST PUSH0 PUSH1 0x20 DUP3 ADD SWAP1 POP DUP2 DUP2 SUB PUSH0 DUP4 ADD MSTORE PUSH2 0x2426 DUP2 PUSH2 0x23ED JUMP JUMPDEST SWAP1 POP SWAP2 SWAP1 POP JUMP JUMPDEST PUSH32 0x4E6F74205369676E656400000000000000000000000000000000000000000000 PUSH0 DUP3 ADD MSTORE POP JUMP JUMPDEST PUSH0 PUSH2 0x2461 PUSH1 0xA DUP4 PUSH2 0x1A98 JUMP JUMPDEST SWAP2 POP PUSH2 0x246C DUP3 PUSH2 0x242D JUMP JUMPDEST PUSH1 0x20 DUP3 ADD SWAP1 POP SWAP2 SWAP1 POP JUMP JUMPDEST PUSH0 PUSH1 0x20 DUP3 ADD SWAP1 POP DUP2 DUP2 SUB PUSH0 DUP4 ADD MSTORE PUSH2 0x248E DUP2 PUSH2 0x2455 JUMP JUMPDEST SWAP1 POP SWAP2 SWAP1 POP JUMP JUMPDEST PUSH32 0x416C726561647920736574000000000000000000000000000000000000000000 PUSH0 DUP3 ADD MSTORE POP JUMP JUMPDEST PUSH0 PUSH2 0x24C9 PUSH1 0xB DUP4 PUSH2 0x1A98 JUMP JUMPDEST SWAP2 POP PUSH2 0x24D4 DUP3 PUSH2 0x2495 JUMP JUMPDEST PUSH1 0x20 DUP3 ADD SWAP1 POP SWAP2 SWAP1 POP JUMP JUMPDEST PUSH0 PUSH1 0x20 DUP3 ADD SWAP1 POP DUP2 DUP2 SUB PUSH0 DUP4 ADD MSTORE PUSH2 0x24F6 DUP2 PUSH2 0x24BD JUMP JUMPDEST SWAP1 POP SWAP2 SWAP1 POP JUMP JUMPDEST PUSH0 PUSH1 0x40 DUP3 ADD SWAP1 POP PUSH2 0x2510 PUSH0 DUP4 ADD DUP6 PUSH2 0x1A66 JUMP JUMPDEST DUP2 DUP2 SUB PUSH1 0x20 DUP4 ADD MSTORE PUSH2 0x2522 DUP2 DUP5 PUSH2 0x1AC6 JUMP JUMPDEST SWAP1 POP SWAP4 SWAP3 POP POP POP JUMP JUMPDEST PUSH0 PUSH1 0x20 DUP3 ADD SWAP1 POP PUSH2 0x253E PUSH0 DUP4 ADD DUP5 PUSH2 0x1BF2 JUMP JUMPDEST SWAP3 SWAP2 POP POP JUMP JUMPDEST PUSH32 0x4F7261636C6520616C7265616479207365740000000000000000000000000000 PUSH0 DUP3 ADD MSTORE POP JUMP JUMPDEST PUSH0 PUSH2 0x2578 PUSH1 0x12 DUP4 PUSH2 0x1A98 JUMP JUMPDEST SWAP2 POP PUSH2 0x2583 DUP3 PUSH2 0x2544 JUMP JUMPDEST PUSH1 0x20 DUP3 ADD SWAP1 POP SWAP2 SWAP1 POP JUMP JUMPDEST PUSH0 PUSH1 0x20 DUP3 ADD SWAP1 POP DUP2 DUP2 SUB PUSH0 DUP4 ADD MSTORE PUSH2 0x25A5 DUP2 PUSH2 0x256C JUMP JUMPDEST SWAP1 POP SWAP2 SWAP1 POP JUMP JUMPDEST PUSH32 0x496E76616C6964206F7261636C65000000000000000000000000000000000000 PUSH0 DUP3 ADD MSTORE POP JUMP JUMPDEST PUSH0 PUSH2 0x25E0 PUSH1 0xE DUP4 PUSH2 0x1A98 JUMP JUMPDEST SWAP2 POP PUSH2 0x25EB DUP3 PUSH2 0x25AC JUMP JUMPDEST PUSH1 0x20 DUP3 ADD SWAP1 POP SWAP2 SWAP1 POP JUMP JUMPDEST PUSH0 PUSH1 0x20 DUP3 ADD SWAP1 POP DUP2 DUP2 SUB PUSH0 DUP4 ADD MSTORE PUSH2 0x260D DUP2 PUSH2 0x25D4 JUMP JUMPDEST SWAP1 POP SWAP2 SWAP1 POP JUMP JUMPDEST PUSH32 0x4E6F74207369676E656400000000000000000000000000000000000000000000 PUSH0 DUP3 ADD MSTORE POP JUMP JUMPDEST PUSH0 PUSH2 0x2648 PUSH1 0xA DUP4 PUSH2 0x1A98 JUMP JUMPDEST SWAP2 POP PUSH2 0x2653 DUP3 PUSH2 0x2614 JUMP JUMPDEST PUSH1 0x20 DUP3 ADD SWAP1 POP SWAP2 SWAP1 POP JUMP JUMPDEST PUSH0 PUSH1 0x20 DUP3 ADD SWAP1 POP DUP2 DUP2 SUB PUSH0 DUP4 ADD MSTORE PUSH2 0x2675 DUP2 PUSH2 0x263C JUMP JUMPDEST SWAP1 POP SWAP2 SWAP1 POP JUMP JUMPDEST PUSH32 0x44656C697665727920666C6F7720726571756972656400000000000000000000 PUSH0 DUP3 ADD MSTORE POP JUMP JUMPDEST PUSH0 PUSH2 0x26B0 PUSH1 0x16 DUP4 PUSH2 0x1A98 JUMP JUMPDEST SWAP2 POP PUSH2 0x26BB DUP3 PUSH2 0x267C JUMP JUMPDEST PUSH1 0x20 DUP3 ADD SWAP1 POP SWAP2 SWAP1 POP JUMP JUMPDEST PUSH0 PUSH1 0x20 DUP3 ADD SWAP1 POP DUP2 DUP2 SUB PUSH0 DUP4 ADD MSTORE PUSH2 0x26DD DUP2 PUSH2 0x26A4 JUMP JUMPDEST SWAP1 POP SWAP2 SWAP1 POP JUMP JUMPDEST PUSH32 0x4E6F742043726561746564000000000000000000000000000000000000000000 PUSH0 DUP3 ADD MSTORE POP JUMP JUMPDEST PUSH0 PUSH2 0x2718 PUSH1 0xB DUP4 PUSH2 0x1A98 JUMP JUMPDEST SWAP2 POP PUSH2 0x2723 DUP3 PUSH2 0x26E4 JUMP JUMPDEST PUSH1 0x20 DUP3 ADD SWAP1 POP SWAP2 SWAP1 POP JUMP JUMPDEST PUSH0 PUSH1 0x20 DUP3 ADD SWAP1 POP DUP2 DUP2 SUB PUSH0 DUP4 ADD MSTORE PUSH2 0x2745 DUP2 PUSH2 0x270C JUMP JUMPDEST SWAP1 POP SWAP2 SWAP1 POP JUMP JUMPDEST PUSH32 0x302061646472206E6F7420616C6C6F7765640000000000000000000000000000 PUSH0 DUP3 ADD MSTORE POP JUMP JUMPDEST PUSH0 PUSH2 0x2780 PUSH1 0x12 DUP4 PUSH2 0x1A98 JUMP JUMPDEST SWAP2 POP PUSH2 0x278B DUP3 PUSH2 0x274C JUMP JUMPDEST PUSH1 0x20 DUP3 ADD SWAP1 POP SWAP2 SWAP1 POP JUMP JUMPDEST PUSH0 PUSH1 0x20 DUP3 ADD SWAP1 POP DUP2 DUP2 SUB PUSH0 DUP4 ADD MSTORE PUSH2 0x27AD DUP2 PUSH2 0x2774 JUMP JUMPDEST SWAP1 POP SWAP2 SWAP1 POP JUMP JUMPDEST PUSH32 0x455448206D69736D617463680000000000000000000000000000000000000000 PUSH0 DUP3 ADD MSTORE POP JUMP JUMPDEST PUSH0 PUSH2 0x27E8 PUSH1 0xC DUP4 PUSH2 0x1A98 JUMP JUMPDEST SWAP2 POP PUSH2 0x27F3 DUP3 PUSH2 0x27B4 JUMP JUMPDEST PUSH1 0x20 DUP3 ADD SWAP1 POP SWAP2 SWAP1 POP JUMP JUMPDEST PUSH0 PUSH1 0x20 DUP3 ADD SWAP1 POP DUP2 DUP2 SUB PUSH0 DUP4 ADD MSTORE PUSH2 0x2815 DUP2 PUSH2 0x27DC JUMP JUMPDEST SWAP1 POP SWAP2 SWAP1 POP JUMP JUMPDEST PUSH32 0x496E76616C696420636F6E747261637420686173680000000000000000000000 PUSH0 DUP3 ADD MSTORE POP JUMP JUMPDEST PUSH0 PUSH2 0x2850 PUSH1 0x15 DUP4 PUSH2 0x1A98 JUMP JUMPDEST SWAP2 POP PUSH2 0x285B DUP3 PUSH2 0x281C JUMP JUMPDEST PUSH1 0x20 DUP3 ADD SWAP1 POP SWAP2 SWAP1 POP JUMP JUMPDEST PUSH0 PUSH1 0x20 DUP3 ADD SWAP1 POP DUP2 DUP2 SUB PUSH0 DUP4 ADD MSTORE PUSH2 0x287D DUP2 PUSH2 0x2844 JUMP JUMPDEST SWAP1 POP SWAP2 SWAP1 POP JUMP JUMPDEST PUSH0 PUSH2 0x288E DUP3 PUSH2 0x1A08 JUMP JUMPDEST SWAP2 POP PUSH32 0xFFFFFFFFFFFFFFFFFFFFFFFFFFFFFFFFFFFFFFFFFFFFFFFFFFFFFFFFFFFFFFFF DUP3 SUB PUSH2 0x28C0 JUMPI PUSH2 0x28BF PUSH2 0x2031 JUMP JUMPDEST JUMPDEST PUSH1 0x1 DUP3 ADD SWAP1 POP SWAP2 SWAP1 POP JUMP JUMPDEST PUSH0 PUSH2 0x28E5 PUSH2 0x28E0 PUSH2 0x28DB DUP5 PUSH2 0x1BAA JUMP JUMPDEST PUSH2 0x21D4 JUMP JUMPDEST PUSH2 0x1BAA JUMP JUMPDEST SWAP1 POP SWAP2 SWAP1 POP JUMP JUMPDEST PUSH0 PUSH2 0x28F6 DUP3 PUSH2 0x28CB JUMP JUMPDEST SWAP1 POP SWAP2 SWAP1 POP JUMP JUMPDEST PUSH0 PUSH2 0x2907 DUP3 PUSH2 0x28EC JUMP JUMPDEST SWAP1 POP SWAP2 SWAP1 POP JUMP JUMPDEST PUSH2 0x2917 DUP2 PUSH2 0x28FD JUMP JUMPDEST DUP3 MSTORE POP POP JUMP JUMPDEST PUSH0 PUSH1 0x40 DUP3 ADD SWAP1 POP PUSH2 0x2930 PUSH0 DUP4 ADD DUP6 PUSH2 0x1E8A JUMP JUMPDEST PUSH2 0x293D PUSH1 0x20 DUP4 ADD DUP5 PUSH2 0x290E JUMP JUMPDEST SWAP4 SWAP3 POP POP POP JUMP JUMPDEST PUSH32 0x4E6F74206F7261636C6500000000000000000000000000000000000000000000 PUSH0 DUP3 ADD MSTORE POP JUMP JUMPDEST PUSH0 PUSH2 0x2978 PUSH1 0xA DUP4 PUSH2 0x1A98 JUMP JUMPDEST SWAP2 POP PUSH2 0x2983 DUP3 PUSH2 0x2944 JUMP JUMPDEST PUSH1 0x20 DUP3 ADD SWAP1 POP SWAP2 SWAP1 POP JUMP JUMPDEST PUSH0 PUSH1 0x20 DUP3 ADD SWAP1 POP DUP2 DUP2 SUB PUSH0 DUP4 ADD MSTORE PUSH2 0x29A5 DUP2 PUSH2 0x296C JUMP JUMPDEST SWAP1 POP SWAP2 SWAP1 POP JUMP JUMPDEST PUSH32 0x4E6F2064656C6976657279000000000000000000000000000000000000000000 PUSH0 DUP3 ADD MSTORE POP JUMP JUMPDEST PUSH0 PUSH2 0x29E0 PUSH1 0xB DUP4 PUSH2 0x1A98 JUMP JUMPDEST SWAP2 POP PUSH2 0x29EB DUP3 PUSH2 0x29AC JUMP JUMPDEST PUSH1 0x20 DUP3 ADD SWAP1 POP SWAP2 SWAP1 POP JUMP JUMPDEST PUSH0 PUSH1 0x20 DUP3 ADD SWAP1 POP DUP2 DUP2 SUB PUSH0 DUP4 ADD MSTORE PUSH2 0x2A0D DUP2 PUSH2 0x29D4 JUMP JUMPDEST SWAP1 POP SWAP2 SWAP1 POP JUMP JUMPDEST PUSH32 0x48617368206D69736D6174636800000000000000000000000000000000000000 PUSH0 DUP3 ADD MSTORE POP JUMP JUMPDEST PUSH0 PUSH2 0x2A48 PUSH1 0xD DUP4 PUSH2 0x1A98 JUMP JUMPDEST SWAP2 POP PUSH2 0x2A53 DUP3 PUSH2 0x2A14 JUMP JUMPDEST PUSH1 0x20 DUP3 ADD SWAP1 POP SWAP2 SWAP1 POP JUMP JUMPDEST PUSH0 PUSH1 0x20 DUP3 ADD SWAP1 POP DUP2 DUP2 SUB PUSH0 DUP4 ADD MSTORE PUSH2 0x2A75 DUP2 PUSH2 0x2A3C JUMP JUMPDEST SWAP1 POP SWAP2 SWAP1 POP JUMP JUMPDEST PUSH32 0x4E6F7420776974686472617761626C6500000000000000000000000000000000 PUSH0 DUP3 ADD MSTORE POP JUMP JUMPDEST PUSH0 PUSH2 0x2AB0 PUSH1 0x10 DUP4 PUSH2 0x1A98 JUMP JUMPDEST SWAP2 POP PUSH2 0x2ABB DUP3 PUSH2 0x2A7C JUMP JUMPDEST PUSH1 0x20 DUP3 ADD SWAP1 POP SWAP2 SWAP1 POP JUMP JUMPDEST PUSH0 PUSH1 0x20 DUP3 ADD SWAP1 POP DUP2 DUP2 SUB PUSH0 DUP4 ADD MSTORE PUSH2 0x2ADD DUP2 PUSH2 0x2AA4 JUMP JUMPDEST SWAP1 POP SWAP2 SWAP1 POP JUMP JUMPDEST PUSH32 0x4E6F2062616C616E636500000000000000000000000000000000000000000000 PUSH0 DUP3 ADD MSTORE POP JUMP JUMPDEST PUSH0 PUSH2 0x2B18 PUSH1 0xA DUP4 PUSH2 0x1A98 JUMP JUMPDEST SWAP2 POP PUSH2 0x2B23 DUP3 PUSH2 0x2AE4 JUMP JUMPDEST PUSH1 0x20 DUP3 ADD SWAP1 POP SWAP2 SWAP1 POP JUMP JUMPDEST PUSH0 PUSH1 0x20 DUP3 ADD SWAP1 POP DUP2 DUP2 SUB PUSH0 DUP4 ADD MSTORE PUSH2 0x2B45 DUP2 PUSH2 0x2B0C JUMP JUMPDEST SWAP1 POP SWAP2 SWAP1 POP JUMP JUMPDEST PUSH0 PUSH2 0x2B56 DUP3 PUSH2 0x1A08 JUMP JUMPDEST SWAP2 POP PUSH2 0x2B61 DUP4 PUSH2 0x1A08 JUMP JUMPDEST SWAP3 POP DUP3 DUP3 SUB SWAP1 POP DUP2 DUP2 GT ISZERO PUSH2 0x2B79 JUMPI PUSH2 0x2B78 PUSH2 0x2031 JUMP JUMPDEST JUMPDEST SWAP3 SWAP2 POP POP JUMP JUMPDEST PUSH32 0x5265656E7472616E637947756172643A207265656E7472616E742063616C6C00 PUSH0 DUP3 ADD MSTORE POP JUMP JUMPDEST PUSH0 PUSH2 0x2BB3 PUSH1 0x1F DUP4 PUSH2 0x1A98 JUMP JUMPDEST SWAP2 POP PUSH2 0x2BBE DUP3 PUSH2 0x2B7F JUMP JUMPDEST PUSH1 0x20 DUP3 ADD SWAP1 POP SWAP2 SWAP1 POP JUMP JUMPDEST PUSH0 PUSH1 0x20 DUP3 ADD SWAP1 POP DUP2 DUP2 SUB PUSH0 DUP4 ADD MSTORE PUSH2 0x2BE0 DUP2 PUSH2 0x2BA7 JUMP JUMPDEST SWAP1 POP SWAP2 SWAP1 POP JUMP INVALID LOG2 PUSH5 0x6970667358 0x22 SLT KECCAK256 MULMOD 0xC6 LT CALLDATALOAD PUSH19 0xB564D3793F773A7A664B72BF9178821B32F4CA 0xD SDIV PUSH19 0x5C9A8410F564736F6C634300081E0033000000 "
				},
				"gasEstimates": {
					"creation": {
						"codeDepositCost": "2258600",
						"executionCost": "24523",
						"totalCost": "2283123"
					},
					"external": {
						"approveDeliveryAsCreator(uint256)": "infinite",
						"confirmCompletion(uint256)": "infinite",
						"confirmDeliveryByOracle(uint256,string)": "infinite",
						"contractCounter()": "2471",
						"contracts(uint256)": "infinite",
						"createContract(address,string,uint256)": "infinite",
						"deactivateContract(uint256)": "infinite",
						"getContractHash(uint256)": "infinite",
						"getContractStatus(uint256)": "3045",
						"oracle()": "2531",
						"oracleSet()": "2583",
						"pendingWithdrawals(address)": "2890",
						"setDeliveryTracking(uint256,string)": "infinite",
						"setOracle(address)": "52522",
						"signContract(uint256)": "30576",
						"withdrawFundsFrom(uint256)": "infinite"
					}
				},
				"methodIdentifiers": {
					"approveDeliveryAsCreator(uint256)": "032ca42d",
					"confirmCompletion(uint256)": "94aeb613",
					"confirmDeliveryByOracle(uint256,string)": "c43bf3c2",
					"contractCounter()": "067bd3b4",
					"contracts(uint256)": "474da79a",
					"createContract(address,string,uint256)": "9ce5b6ca",
					"deactivateContract(uint256)": "22a45cd0",
					"getContractHash(uint256)": "0e9f0816",
					"getContractStatus(uint256)": "17b18458",
					"oracle()": "7dc0d1d0",
					"oracleSet()": "edb3b27a",
					"pendingWithdrawals(address)": "f3f43703",
					"setDeliveryTracking(uint256,string)": "54b7b6d3",
					"setOracle(address)": "7adbf973",
					"signContract(uint256)": "9537e8d1",
					"withdrawFundsFrom(uint256)": "df5c2980"
				}
			},
			"storageLayout": {
				"storage": [
					{
						"astId": 10,
						"contract": "digital_contract.sol:ContractManager",
						"label": "_status",
						"offset": 0,
						"slot": "0",
						"type": "t_uint256"
					},
					{
						"astId": 98,
						"contract": "digital_contract.sol:ContractManager",
						"label": "oracle",
						"offset": 0,
						"slot": "1",
						"type": "t_address"
					},
					{
						"astId": 100,
						"contract": "digital_contract.sol:ContractManager",
						"label": "oracleSet",
						"offset": 20,
						"slot": "1",
						"type": "t_bool"
					},
					{
						"astId": 105,
						"contract": "digital_contract.sol:ContractManager",
						"label": "contracts",
						"offset": 0,
						"slot": "2",
						"type": "t_mapping(t_uint256,t_struct(ManagedContract)96_storage)"
					},
					{
						"astId": 107,
						"contract": "digital_contract.sol:ContractManager",
						"label": "contractCounter",
						"offset": 0,
						"slot": "3",
						"type": "t_uint256"
					},
					{
						"astId": 111,
						"contract": "digital_contract.sol:ContractManager",
						"label": "pendingWithdrawals",
						"offset": 0,
						"slot": "4",
						"type": "t_mapping(t_address,t_uint256)"
					}
				],
				"types": {
					"t_address": {
						"encoding": "inplace",
						"label": "address",
						"numberOfBytes": "20"
					},
					"t_address_payable": {
						"encoding": "inplace",
						"label": "address payable",
						"numberOfBytes": "20"
					},
					"t_bool": {
						"encoding": "inplace",
						"label": "bool",
						"numberOfBytes": "1"
					},
					"t_bytes32": {
						"encoding": "inplace",
						"label": "bytes32",
						"numberOfBytes": "32"
					},
					"t_enum(ContractStatus)78": {
						"encoding": "inplace",
						"label": "enum ContractManager.ContractStatus",
						"numberOfBytes": "1"
					},
					"t_mapping(t_address,t_uint256)": {
						"encoding": "mapping",
						"key": "t_address",
						"label": "mapping(address => uint256)",
						"numberOfBytes": "32",
						"value": "t_uint256"
					},
					"t_mapping(t_uint256,t_struct(ManagedContract)96_storage)": {
						"encoding": "mapping",
						"key": "t_uint256",
						"label": "mapping(uint256 => struct ContractManager.ManagedContract)",
						"numberOfBytes": "32",
						"value": "t_struct(ManagedContract)96_storage"
					},
					"t_string_storage": {
						"encoding": "bytes",
						"label": "string",
						"numberOfBytes": "32"
					},
					"t_struct(ManagedContract)96_storage": {
						"encoding": "inplace",
						"label": "struct ContractManager.ManagedContract",
						"members": [
							{
								"astId": 80,
								"contract": "digital_contract.sol:ContractManager",
								"label": "id",
								"offset": 0,
								"slot": "0",
								"type": "t_uint256"
							},
							{
								"astId": 82,
								"contract": "digital_contract.sol:ContractManager",
								"label": "amount",
								"offset": 0,
								"slot": "1",
								"type": "t_uint256"
							},
							{
								"astId": 84,
								"contract": "digital_contract.sol:ContractManager",
								"label": "creator",
								"offset": 0,
								"slot": "2",
								"type": "t_address_payable"
							},
							{
								"astId": 86,
								"contract": "digital_contract.sol:ContractManager",
								"label": "counterparty",
								"offset": 0,
								"slot": "3",
								"type": "t_address_payable"
							},
							{
								"astId": 89,
								"contract": "digital_contract.sol:ContractManager",
								"label": "status",
								"offset": 20,
								"slot": "3",
								"type": "t_enum(ContractStatus)78"
							},
							{
								"astId": 91,
								"contract": "digital_contract.sol:ContractManager",
								"label": "contractHash",
								"offset": 0,
								"slot": "4",
								"type": "t_string_storage"
							},
							{
								"astId": 93,
								"contract": "digital_contract.sol:ContractManager",
								"label": "deliveryTrackingHash",
								"offset": 0,
								"slot": "5",
								"type": "t_bytes32"
							},
							{
								"astId": 95,
								"contract": "digital_contract.sol:ContractManager",
								"label": "deliveryRequired",
								"offset": 0,
								"slot": "6",
								"type": "t_bool"
							}
						],
						"numberOfBytes": "224"
					},
					"t_uint256": {
						"encoding": "inplace",
						"label": "uint256",
						"numberOfBytes": "32"
					}
				}
			},
			"userdoc": {
				"kind": "user",
				"methods": {},
				"version": 1
			}
		}
	}
}