{
	"data": {
		"bytecode": {
			"linkReferences": {},
			"object": "6080604052348015600e575f5ffd5b5060015f819055506130d5806100235f395ff3fe6080604052600436106100f2575f3560e01c80637dc0d1d011610089578063c43bf3c211610058578063c43bf3c214610313578063df5c29801461033b578063edb3b27a14610363578063f3f437031461038d576100f2565b80637dc0d1d01461027d57806394aeb613146102a75780639537e8d1146102cf5780639ce5b6ca146102f7576100f2565b806322a45cd0116100c557806322a45cd0146101c0578063474da79a146101e857806354b7b6d31461022d5780637adbf97314610255576100f2565b8063032ca42d146100f6578063067bd3b41461011e5780630e9f08161461014857806317b1845814610184575b5f5ffd5b348015610101575f5ffd5b5061011c60048036038101906101179190611cf4565b6103c9565b005b348015610129575f5ffd5b506101326107b0565b60405161013f9190611d2e565b60405180910390f35b348015610153575f5ffd5b5061016e60048036038101906101699190611cf4565b6107b6565b60405161017b9190611db7565b60405180910390f35b34801561018f575f5ffd5b506101aa60048036038101906101a59190611cf4565b61085a565b6040516101b79190611e4a565b60405180910390f35b3480156101cb575f5ffd5b506101e660048036038101906101e19190611cf4565b610884565b005b3480156101f3575f5ffd5b5061020e60048036038101906102099190611cf4565b610ab1565b6040516102249a99989796959493929190611ed4565b60405180910390f35b348015610238575f5ffd5b50610253600480360381019061024e91906120a1565b610bf8565b005b348015610260575f5ffd5b5061027b60048036038101906102769190612136565b610e06565b005b348015610288575f5ffd5b50610291610f79565b60405161029e9190612170565b60405180910390f35b3480156102b2575f5ffd5b506102cd60048036038101906102c89190611cf4565b610f9e565b005b3480156102da575f5ffd5b506102f560048036038101906102f09190611cf4565b6112a9565b005b610311600480360381019061030c91906121b3565b611435565b005b34801561031e575f5ffd5b50610339600480360381019061033491906120a1565b61166d565b005b348015610346575f5ffd5b50610361600480360381019061035c9190611cf4565b6118f7565b005b34801561036e575f5ffd5b50610377611c32565b604051610384919061221f565b60405180910390f35b348015610398575f5ffd5b506103b360048036038101906103ae9190612136565b611c45565b6040516103c09190611d2e565b60405180910390f35b8060025f8281526020019081526020015f206002015f9054906101000a900473ffffffffffffffffffffffffffffffffffffffff1673ffffffffffffffffffffffffffffffffffffffff163373ffffffffffffffffffffffffffffffffffffffff161461046b576040517f08c379a000000000000000000000000000000000000000000000000000000000815260040161046290612282565b60405180910390fd5b5f60025f8481526020019081526020015f209050806006015f9054906101000a900460ff166104cf576040517f08c379a00000000000000000000000000000000000000000000000000000000081526004016104c6906122ea565b60405180910390fd5b600160038111156104e3576104e2611dd7565b5b8160030160149054906101000a900460ff16600381111561050757610506611dd7565b5b14610547576040517f08c379a000000000000000000000000000000000000000000000000000000000815260040161053e90612352565b60405180910390fd5b8060060160019054906101000a900460ff16610598576040517f08c379a000000000000000000000000000000000000000000000000000000000815260040161058f906123ba565b60405180910390fd5b8060060160029054906101000a900460ff16156105ea576040517f08c379a00000000000000000000000000000000000000000000000000000000081526004016105e190612422565b60405180910390fd5b60018160060160026101000a81548160ff02191690831515021790555060028160030160146101000a81548160ff0219169083600381111561062f5761062e611dd7565b5b0217905550806001015460045f836003015f9054906101000a900473ffffffffffffffffffffffffffffffffffffffff1673ffffffffffffffffffffffffffffffffffffffff1673ffffffffffffffffffffffffffffffffffffffff1681526020019081526020015f20546106a4919061246d565b60045f836003015f9054906101000a900473ffffffffffffffffffffffffffffffffffffffff1673ffffffffffffffffffffffffffffffffffffffff1673ffffffffffffffffffffffffffffffffffffffff1681526020019081526020015f2081905550827f5c1e662f72ee6c85181b65fac5beb0390932b8c472f05b257151d041ac9ddffa60405160405180910390a2806003015f9054906101000a900473ffffffffffffffffffffffffffffffffffffffff1673ffffffffffffffffffffffffffffffffffffffff16837f21d71db5be59bb9fa133895586b7404307dd33fb93b16db09dc6f1d9d7d231b083600101546040516107a39190611d2e565b60405180910390a3505050565b60035481565b606060025f8381526020019081526020015f2060040180546107d7906124cd565b80601f0160208091040260200160405190810160405280929190818152602001828054610803906124cd565b801561084e5780601f106108255761010080835404028352916020019161084e565b820191905f5260205f20905b81548152906001019060200180831161083157829003601f168201915b50505050509050919050565b5f60025f8381526020019081526020015f2060030160149054906101000a900460ff169050919050565b8060025f8281526020019081526020015f206002015f9054906101000a900473ffffffffffffffffffffffffffffffffffffffff1673ffffffffffffffffffffffffffffffffffffffff163373ffffffffffffffffffffffffffffffffffffffff1614610926576040517f08c379a000000000000000000000000000000000000000000000000000000000815260040161091d90612282565b60405180910390fd5b5f60025f8481526020019081526020015f2090506002600381111561094e5761094d611dd7565b5b8160030160149054906101000a900460ff16600381111561097257610971611dd7565b5b036109b2576040517f08c379a00000000000000000000000000000000000000000000000000000000081526004016109a990612547565b60405180910390fd5b6003808111156109c5576109c4611dd7565b5b8160030160149054906101000a900460ff1660038111156109e9576109e8611dd7565b5b03610a29576040517f08c379a0000000000000000000000000000000000000000000000000000000008152600401610a20906125af565b60405180910390fd5b60405180602001604052805f815250816004019081610a48919061276d565b505f816005018190555060038160030160146101000a81548160ff02191690836003811115610a7a57610a79611dd7565b5b0217905550827f741b099f015e1976cfa72a7448a8fb1d54eab1d616241b562cfbe603a2b61b4260405160405180910390a2505050565b6002602052805f5260405f205f91509050805f015490806001015490806002015f9054906101000a900473ffffffffffffffffffffffffffffffffffffffff1690806003015f9054906101000a900473ffffffffffffffffffffffffffffffffffffffff16908060030160149054906101000a900460ff1690806004018054610b39906124cd565b80601f0160208091040260200160405190810160405280929190818152602001828054610b65906124cd565b8015610bb05780601f10610b8757610100808354040283529160200191610bb0565b820191905f5260205f20905b815481529060010190602001808311610b9357829003601f168201915b505050505090806005015490806006015f9054906101000a900460ff16908060060160019054906101000a900460ff16908060060160029054906101000a900460ff1690508a565b8160025f8281526020019081526020015f206003015f9054906101000a900473ffffffffffffffffffffffffffffffffffffffff1673ffffffffffffffffffffffffffffffffffffffff163373ffffffffffffffffffffffffffffffffffffffff1614610c9a576040517f08c379a0000000000000000000000000000000000000000000000000000000008152600401610c9190612886565b60405180910390fd5b5f60025f8581526020019081526020015f20905060016003811115610cc257610cc1611dd7565b5b8160030160149054906101000a900460ff166003811115610ce657610ce5611dd7565b5b14610d26576040517f08c379a0000000000000000000000000000000000000000000000000000000008152600401610d1d90612352565b60405180910390fd5b806006015f9054906101000a900460ff1615610d77576040517f08c379a0000000000000000000000000000000000000000000000000000000008152600401610d6e906128ee565b60405180910390fd5b8383604051602001610d8a92919061290c565b6040516020818303038152906040528051906020012081600501819055506001816006015f6101000a81548160ff021916908315150217905550837f4b70739c5f0bd46e19773020c599342cdbdc3ac59b5e0abfdd9c1bb441be59c88260050154604051610df8919061293a565b60405180910390a250505050565b600160149054906101000a900460ff1615610e56576040517f08c379a0000000000000000000000000000000000000000000000000000000008152600401610e4d9061299d565b60405180910390fd5b5f73ffffffffffffffffffffffffffffffffffffffff168173ffffffffffffffffffffffffffffffffffffffff1603610ec4576040517f08c379a0000000000000000000000000000000000000000000000000000000008152600401610ebb90612a05565b60405180910390fd5b600160149054906101000a900460ff16610f76578060015f6101000a81548173ffffffffffffffffffffffffffffffffffffffff021916908373ffffffffffffffffffffffffffffffffffffffff16021790555060018060146101000a81548160ff0219169083151502179055508073ffffffffffffffffffffffffffffffffffffffff167f3f32684a32a11dabdbb8c0177de80aa3ae36a004d75210335b49e544e48cd0aa60405160405180910390a25b50565b60015f9054906101000a900473ffffffffffffffffffffffffffffffffffffffff1681565b610fa6611c5a565b8060025f8281526020019081526020015f206002015f9054906101000a900473ffffffffffffffffffffffffffffffffffffffff1673ffffffffffffffffffffffffffffffffffffffff163373ffffffffffffffffffffffffffffffffffffffff1614611048576040517f08c379a000000000000000000000000000000000000000000000000000000000815260040161103f90612282565b60405180910390fd5b5f60025f8481526020019081526020015f209050600160038111156110705761106f611dd7565b5b8160030160149054906101000a900460ff16600381111561109457611093611dd7565b5b146110d4576040517f08c379a00000000000000000000000000000000000000000000000000000000081526004016110cb90612352565b60405180910390fd5b806006015f9054906101000a900460ff1615611125576040517f08c379a000000000000000000000000000000000000000000000000000000000815260040161111c90612a6d565b60405180910390fd5b60028160030160146101000a81548160ff0219169083600381111561114d5761114c611dd7565b5b0217905550806001015460045f836003015f9054906101000a900473ffffffffffffffffffffffffffffffffffffffff1673ffffffffffffffffffffffffffffffffffffffff1673ffffffffffffffffffffffffffffffffffffffff1681526020019081526020015f20546111c2919061246d565b60045f836003015f9054906101000a900473ffffffffffffffffffffffffffffffffffffffff1673ffffffffffffffffffffffffffffffffffffffff1673ffffffffffffffffffffffffffffffffffffffff1681526020019081526020015f2081905550806003015f9054906101000a900473ffffffffffffffffffffffffffffffffffffffff1673ffffffffffffffffffffffffffffffffffffffff16837f21d71db5be59bb9fa133895586b7404307dd33fb93b16db09dc6f1d9d7d231b083600101546040516112949190611d2e565b60405180910390a350506112a6611ca7565b50565b8060025f8281526020019081526020015f206003015f9054906101000a900473ffffffffffffffffffffffffffffffffffffffff1673ffffffffffffffffffffffffffffffffffffffff163373ffffffffffffffffffffffffffffffffffffffff161461134b576040517f08c379a000000000000000000000000000000000000000000000000000000000815260040161134290612886565b60405180910390fd5b5f60025f8481526020019081526020015f2090505f600381111561137257611371611dd7565b5b8160030160149054906101000a900460ff16600381111561139657611395611dd7565b5b146113d6576040517f08c379a00000000000000000000000000000000000000000000000000000000081526004016113cd90612ad5565b60405180910390fd5b60018160030160146101000a81548160ff021916908360038111156113fe576113fd611dd7565b5b0217905550827faf3c49f5413fd292e2325b0fe214de144a222b00cb6ec21214fdc04b5d6c591360405160405180910390a2505050565b5f73ffffffffffffffffffffffffffffffffffffffff168373ffffffffffffffffffffffffffffffffffffffff16036114a3576040517f08c379a000000000000000000000000000000000000000000000000000000000815260040161149a90612b3d565b60405180910390fd5b8034146114e5576040517f08c379a00000000000000000000000000000000000000000000000000000000081526004016114dc90612ba5565b60405180910390fd5b600a825111611529576040517f08c379a000000000000000000000000000000000000000000000000000000000815260040161152090612c0d565b60405180910390fd5b60035f81548092919061153b90612c2b565b91905055505f60025f60035481526020019081526020015f209050600354815f018190555081816001018190555033816002015f6101000a81548173ffffffffffffffffffffffffffffffffffffffff021916908373ffffffffffffffffffffffffffffffffffffffff16021790555083816003015f6101000a81548173ffffffffffffffffffffffffffffffffffffffff021916908373ffffffffffffffffffffffffffffffffffffffff1602179055505f8160030160146101000a81548160ff0219169083600381111561161457611613611dd7565b5b02179055508281600401908161162a919061276d565b506003547f56560a52c047ed21fd801bf0f345b23d9af696f7922ff8e63101af5d48caddab338660405161165f929190612cc4565b60405180910390a250505050565b611675611c5a565b60015f9054906101000a900473ffffffffffffffffffffffffffffffffffffffff1673ffffffffffffffffffffffffffffffffffffffff163373ffffffffffffffffffffffffffffffffffffffff1614611704576040517f08c379a00000000000000000000000000000000000000000000000000000000081526004016116fb90612d35565b60405180910390fd5b5f60025f8481526020019081526020015f209050806006015f9054906101000a900460ff16611768576040517f08c379a000000000000000000000000000000000000000000000000000000000815260040161175f906122ea565b60405180910390fd5b6001600381111561177c5761177b611dd7565b5b8160030160149054906101000a900460ff1660038111156117a05761179f611dd7565b5b146117e0576040517f08c379a00000000000000000000000000000000000000000000000000000000081526004016117d790612352565b60405180910390fd5b8060060160019054906101000a900460ff1615611832576040517f08c379a000000000000000000000000000000000000000000000000000000000815260040161182990612d9d565b60405180910390fd5b828260405160200161184592919061290c565b604051602081830303815290604052805190602001208160050154146118a0576040517f08c379a000000000000000000000000000000000000000000000000000000000815260040161189790612e05565b60405180910390fd5b60018160060160016101000a81548160ff021916908315150217905550827f375b4005eeae25d0e37d56e1b3841d3bb394b277efa2548de3293f5dcb7a349360405160405180910390a2506118f3611ca7565b5050565b6118ff611c5a565b5f60025f8381526020019081526020015f2090506002600381111561192757611926611dd7565b5b8160030160149054906101000a900460ff16600381111561194b5761194a611dd7565b5b1461198b576040517f08c379a000000000000000000000000000000000000000000000000000000000815260040161198290612e6d565b60405180910390fd5b3373ffffffffffffffffffffffffffffffffffffffff16816003015f9054906101000a900473ffffffffffffffffffffffffffffffffffffffff1673ffffffffffffffffffffffffffffffffffffffff1614611a1c576040517f08c379a0000000000000000000000000000000000000000000000000000000008152600401611a1390612ed5565b60405180910390fd5b5f816001015490505f60045f3373ffffffffffffffffffffffffffffffffffffffff1673ffffffffffffffffffffffffffffffffffffffff1681526020019081526020015f205403611aa3576040517f08c379a0000000000000000000000000000000000000000000000000000000008152600401611a9a90612f3d565b60405180910390fd5b8060045f3373ffffffffffffffffffffffffffffffffffffffff1673ffffffffffffffffffffffffffffffffffffffff1681526020019081526020015f2054611aec9190612f5b565b60045f3373ffffffffffffffffffffffffffffffffffffffff1673ffffffffffffffffffffffffffffffffffffffff1681526020019081526020015f20819055505f3373ffffffffffffffffffffffffffffffffffffffff1682604051611b5290612fbb565b5f6040518083038185875af1925050503d805f8114611b8c576040519150601f19603f3d011682016040523d82523d5f602084013e611b91565b606091505b5050905080611bd5576040517f08c379a0000000000000000000000000000000000000000000000000000000008152600401611bcc90613019565b60405180910390fd5b3373ffffffffffffffffffffffffffffffffffffffff16847ff440aec6b52895984d061d622e6edeba6210f7c3e059be920663140c084560d784604051611c1c9190611d2e565b60405180910390a3505050611c2f611ca7565b50565b600160149054906101000a900460ff1681565b6004602052805f5260405f205f915090505481565b60025f5403611c9e576040517f08c379a0000000000000000000000000000000000000000000000000000000008152600401611c9590613081565b60405180910390fd5b60025f81905550565b60015f81905550565b5f604051905090565b5f5ffd5b5f5ffd5b5f819050919050565b611cd381611cc1565b8114611cdd575f5ffd5b50565b5f81359050611cee81611cca565b92915050565b5f60208284031215611d0957611d08611cb9565b5b5f611d1684828501611ce0565b91505092915050565b611d2881611cc1565b82525050565b5f602082019050611d415f830184611d1f565b92915050565b5f81519050919050565b5f82825260208201905092915050565b8281835e5f83830152505050565b5f601f19601f8301169050919050565b5f611d8982611d47565b611d938185611d51565b9350611da3818560208601611d61565b611dac81611d6f565b840191505092915050565b5f6020820190508181035f830152611dcf8184611d7f565b905092915050565b7f4e487b71000000000000000000000000000000000000000000000000000000005f52602160045260245ffd5b60048110611e1557611e14611dd7565b5b50565b5f819050611e2582611e04565b919050565b5f611e3482611e18565b9050919050565b611e4481611e2a565b82525050565b5f602082019050611e5d5f830184611e3b565b92915050565b5f73ffffffffffffffffffffffffffffffffffffffff82169050919050565b5f611e8c82611e63565b9050919050565b611e9c81611e82565b82525050565b5f819050919050565b611eb481611ea2565b82525050565b5f8115159050919050565b611ece81611eba565b82525050565b5f61014082019050611ee85f83018d611d1f565b611ef5602083018c611d1f565b611f02604083018b611e93565b611f0f606083018a611e93565b611f1c6080830189611e3b565b81810360a0830152611f2e8188611d7f565b9050611f3d60c0830187611eab565b611f4a60e0830186611ec5565b611f58610100830185611ec5565b611f66610120830184611ec5565b9b9a5050505050505050505050565b5f5ffd5b5f5ffd5b7f4e487b71000000000000000000000000000000000000000000000000000000005f52604160045260245ffd5b611fb382611d6f565b810181811067ffffffffffffffff82111715611fd257611fd1611f7d565b5b80604052505050565b5f611fe4611cb0565b9050611ff08282611faa565b919050565b5f67ffffffffffffffff82111561200f5761200e611f7d565b5b61201882611d6f565b9050602081019050919050565b828183375f83830152505050565b5f61204561204084611ff5565b611fdb565b90508281526020810184848401111561206157612060611f79565b5b61206c848285612025565b509392505050565b5f82601f83011261208857612087611f75565b5b8135612098848260208601612033565b91505092915050565b5f5f604083850312156120b7576120b6611cb9565b5b5f6120c485828601611ce0565b925050602083013567ffffffffffffffff8111156120e5576120e4611cbd565b5b6120f185828601612074565b9150509250929050565b5f61210582611e63565b9050919050565b612115816120fb565b811461211f575f5ffd5b50565b5f813590506121308161210c565b92915050565b5f6020828403121561214b5761214a611cb9565b5b5f61215884828501612122565b91505092915050565b61216a816120fb565b82525050565b5f6020820190506121835f830184612161565b92915050565b61219281611e82565b811461219c575f5ffd5b50565b5f813590506121ad81612189565b92915050565b5f5f5f606084860312156121ca576121c9611cb9565b5b5f6121d78682870161219f565b935050602084013567ffffffffffffffff8111156121f8576121f7611cbd565b5b61220486828701612074565b925050604061221586828701611ce0565b9150509250925092565b5f6020820190506122325f830184611ec5565b92915050565b7f4e6f742063726561746f720000000000000000000000000000000000000000005f82015250565b5f61226c600b83611d51565b915061227782612238565b602082019050919050565b5f6020820190508181035f83015261229981612260565b9050919050565b7f4e6f2064656c69766572790000000000000000000000000000000000000000005f82015250565b5f6122d4600b83611d51565b91506122df826122a0565b602082019050919050565b5f6020820190508181035f830152612301816122c8565b9050919050565b7f4e6f74205369676e6564000000000000000000000000000000000000000000005f82015250565b5f61233c600a83611d51565b915061234782612308565b602082019050919050565b5f6020820190508181035f83015261236981612330565b9050919050565b7f44656c6976657279206d697373696e67000000000000000000000000000000005f82015250565b5f6123a4601083611d51565b91506123af82612370565b602082019050919050565b5f6020820190508181035f8301526123d181612398565b9050919050565b7f416c726561647920617070726f766564000000000000000000000000000000005f82015250565b5f61240c601083611d51565b9150612417826123d8565b602082019050919050565b5f6020820190508181035f83015261243981612400565b9050919050565b7f4e487b71000000000000000000000000000000000000000000000000000000005f52601160045260245ffd5b5f61247782611cc1565b915061248283611cc1565b925082820190508082111561249a57612499612440565b5b92915050565b7f4e487b71000000000000000000000000000000000000000000000000000000005f52602260045260245ffd5b5f60028204905060018216806124e457607f821691505b6020821081036124f7576124f66124a0565b5b50919050565b7f416c726561647920636f6d706c657465640000000000000000000000000000005f82015250565b5f612531601183611d51565b915061253c826124fd565b602082019050919050565b5f6020820190508181035f83015261255e81612525565b9050919050565b7f416c72656164792063616e63656c6c65640000000000000000000000000000005f82015250565b5f612599601183611d51565b91506125a482612565565b602082019050919050565b5f6020820190508181035f8301526125c68161258d565b9050919050565b5f819050815f5260205f209050919050565b5f6020601f8301049050919050565b5f82821b905092915050565b5f600883026126297fffffffffffffffffffffffffffffffffffffffffffffffffffffffffffffffff826125ee565b61263386836125ee565b95508019841693508086168417925050509392505050565b5f819050919050565b5f61266e61266961266484611cc1565b61264b565b611cc1565b9050919050565b5f819050919050565b61268783612654565b61269b61269382612675565b8484546125fa565b825550505050565b5f5f905090565b6126b26126a3565b6126bd81848461267e565b505050565b5b818110156126e0576126d55f826126aa565b6001810190506126c3565b5050565b601f821115612725576126f6816125cd565b6126ff846125df565b8101602085101561270e578190505b61272261271a856125df565b8301826126c2565b50505b505050565b5f82821c905092915050565b5f6127455f198460080261272a565b1980831691505092915050565b5f61275d8383612736565b9150826002028217905092915050565b61277682611d47565b67ffffffffffffffff81111561278f5761278e611f7d565b5b61279982546124cd565b6127a48282856126e4565b5f60209050601f8311600181146127d5575f84156127c3578287015190505b6127cd8582612752565b865550612834565b601f1984166127e3866125cd565b5f5b8281101561280a578489015182556001820191506020850194506020810190506127e5565b868310156128275784890151612823601f891682612736565b8355505b6001600288020188555050505b505050505050565b7f4e6f7420636f756e7465727061727479000000000000000000000000000000005f82015250565b5f612870601083611d51565b915061287b8261283c565b602082019050919050565b5f6020820190508181035f83015261289d81612864565b9050919050565b7f416c7265616479207365740000000000000000000000000000000000000000005f82015250565b5f6128d8600b83611d51565b91506128e3826128a4565b602082019050919050565b5f6020820190508181035f830152612905816128cc565b9050919050565b5f60408201905061291f5f830185611d1f565b81810360208301526129318184611d7f565b90509392505050565b5f60208201905061294d5f830184611eab565b92915050565b7f4f7261636c6520616c72656164792073657400000000000000000000000000005f82015250565b5f612987601283611d51565b915061299282612953565b602082019050919050565b5f6020820190508181035f8301526129b48161297b565b9050919050565b7f496e76616c6964206f7261636c650000000000000000000000000000000000005f82015250565b5f6129ef600e83611d51565b91506129fa826129bb565b602082019050919050565b5f6020820190508181035f830152612a1c816129e3565b9050919050565b7f5573652064656c697665727920666c6f770000000000000000000000000000005f82015250565b5f612a57601183611d51565b9150612a6282612a23565b602082019050919050565b5f6020820190508181035f830152612a8481612a4b565b9050919050565b7f4e6f7420437265617465640000000000000000000000000000000000000000005f82015250565b5f612abf600b83611d51565b9150612aca82612a8b565b602082019050919050565b5f6020820190508181035f830152612aec81612ab3565b9050919050565b7f302061646472206e6f7420616c6c6f77656400000000000000000000000000005f82015250565b5f612b27601283611d51565b9150612b3282612af3565b602082019050919050565b5f6020820190508181035f830152612b5481612b1b565b9050919050565b7f455448206d69736d6174636800000000000000000000000000000000000000005f82015250565b5f612b8f600c83611d51565b9150612b9a82612b5b565b602082019050919050565b5f6020820190508181035f830152612bbc81612b83565b9050919050565b7f496e76616c696420636f6e7472616374206861736800000000000000000000005f82015250565b5f612bf7601583611d51565b9150612c0282612bc3565b602082019050919050565b5f6020820190508181035f830152612c2481612beb565b9050919050565b5f612c3582611cc1565b91507fffffffffffffffffffffffffffffffffffffffffffffffffffffffffffffffff8203612c6757612c66612440565b5b600182019050919050565b5f612c8c612c87612c8284611e63565b61264b565b611e63565b9050919050565b5f612c9d82612c72565b9050919050565b5f612cae82612c93565b9050919050565b612cbe81612ca4565b82525050565b5f604082019050612cd75f830185612161565b612ce46020830184612cb5565b9392505050565b7f4e6f74206f7261636c65000000000000000000000000000000000000000000005f82015250565b5f612d1f600a83611d51565b9150612d2a82612ceb565b602082019050919050565b5f6020820190508181035f830152612d4c81612d13565b9050919050565b7f416c726561647920636f6e6669726d65640000000000000000000000000000005f82015250565b5f612d87601183611d51565b9150612d9282612d53565b602082019050919050565b5f6020820190508181035f830152612db481612d7b565b9050919050565b7f48617368206d69736d61746368000000000000000000000000000000000000005f82015250565b5f612def600d83611d51565b9150612dfa82612dbb565b602082019050919050565b5f6020820190508181035f830152612e1c81612de3565b9050919050565b7f4e6f7420636f6d706c65746564000000000000000000000000000000000000005f82015250565b5f612e57600d83611d51565b9150612e6282612e23565b602082019050919050565b5f6020820190508181035f830152612e8481612e4b565b9050919050565b7f4e6f7420726563697069656e74000000000000000000000000000000000000005f82015250565b5f612ebf600d83611d51565b9150612eca82612e8b565b602082019050919050565b5f6020820190508181035f830152612eec81612eb3565b9050919050565b7f4e6f2062616c616e6365000000000000000000000000000000000000000000005f82015250565b5f612f27600a83611d51565b9150612f3282612ef3565b602082019050919050565b5f6020820190508181035f830152612f5481612f1b565b9050919050565b5f612f6582611cc1565b9150612f7083611cc1565b9250828203905081811115612f8857612f87612440565b5b92915050565b5f81905092915050565b50565b5f612fa65f83612f8e565b9150612fb182612f98565b5f82019050919050565b5f612fc582612f9b565b9150819050919050565b7f5769746864726177206661696c656400000000000000000000000000000000005f82015250565b5f613003600f83611d51565b915061300e82612fcf565b602082019050919050565b5f6020820190508181035f83015261303081612ff7565b9050919050565b7f5265656e7472616e637947756172643a207265656e7472616e742063616c6c005f82015250565b5f61306b601f83611d51565b915061307682613037565b602082019050919050565b5f6020820190508181035f8301526130988161305f565b905091905056fea2646970667358221220b58e72a855a0f2c905c5e2e60e14427e9b407c42b50588c93b63145d247655dd64736f6c634300081e0033",
			"opcodes": "PUSH1 0x80 PUSH1 0x40 MSTORE CALLVALUE DUP1 ISZERO PUSH1 0xE JUMPI PUSH0 PUSH0 REVERT JUMPDEST POP PUSH1 0x1 PUSH0 DUP2 SWAP1 SSTORE POP PUSH2 0x30D5 DUP1 PUSH2 0x23 PUSH0 CODECOPY PUSH0 RETURN INVALID PUSH1 0x80 PUSH1 0x40 MSTORE PUSH1 0x4 CALLDATASIZE LT PUSH2 0xF2 JUMPI PUSH0 CALLDATALOAD PUSH1 0xE0 SHR DUP1 PUSH4 0x7DC0D1D0 GT PUSH2 0x89 JUMPI DUP1 PUSH4 0xC43BF3C2 GT PUSH2 0x58 JUMPI DUP1 PUSH4 0xC43BF3C2 EQ PUSH2 0x313 JUMPI DUP1 PUSH4 0xDF5C2980 EQ PUSH2 0x33B JUMPI DUP1 PUSH4 0xEDB3B27A EQ PUSH2 0x363 JUMPI DUP1 PUSH4 0xF3F43703 EQ PUSH2 0x38D JUMPI PUSH2 0xF2 JUMP JUMPDEST DUP1 PUSH4 0x7DC0D1D0 EQ PUSH2 0x27D JUMPI DUP1 PUSH4 0x94AEB613 EQ PUSH2 0x2A7 JUMPI DUP1 PUSH4 0x9537E8D1 EQ PUSH2 0x2CF JUMPI DUP1 PUSH4 0x9CE5B6CA EQ PUSH2 0x2F7 JUMPI PUSH2 0xF2 JUMP JUMPDEST DUP1 PUSH4 0x22A45CD0 GT PUSH2 0xC5 JUMPI DUP1 PUSH4 0x22A45CD0 EQ PUSH2 0x1C0 JUMPI DUP1 PUSH4 0x474DA79A EQ PUSH2 0x1E8 JUMPI DUP1 PUSH4 0x54B7B6D3 EQ PUSH2 0x22D JUMPI DUP1 PUSH4 0x7ADBF973 EQ PUSH2 0x255 JUMPI PUSH2 0xF2 JUMP JUMPDEST DUP1 PUSH4 0x32CA42D EQ PUSH2 0xF6 JUMPI DUP1 PUSH4 0x67BD3B4 EQ PUSH2 0x11E JUMPI DUP1 PUSH4 0xE9F0816 EQ PUSH2 0x148 JUMPI DUP1 PUSH4 0x17B18458 EQ PUSH2 0x184 JUMPI JUMPDEST PUSH0 PUSH0 REVERT JUMPDEST CALLVALUE DUP1 ISZERO PUSH2 0x101 JUMPI PUSH0 PUSH0 REVERT JUMPDEST POP PUSH2 0x11C PUSH1 0x4 DUP1 CALLDATASIZE SUB DUP2 ADD SWAP1 PUSH2 0x117 SWAP2 SWAP1 PUSH2 0x1CF4 JUMP JUMPDEST PUSH2 0x3C9 JUMP JUMPDEST STOP JUMPDEST CALLVALUE DUP1 ISZERO PUSH2 0x129 JUMPI PUSH0 PUSH0 REVERT JUMPDEST POP PUSH2 0x132 PUSH2 0x7B0 JUMP JUMPDEST PUSH1 0x40 MLOAD PUSH2 0x13F SWAP2 SWAP1 PUSH2 0x1D2E JUMP JUMPDEST PUSH1 0x40 MLOAD DUP1 SWAP2 SUB SWAP1 RETURN JUMPDEST CALLVALUE DUP1 ISZERO PUSH2 0x153 JUMPI PUSH0 PUSH0 REVERT JUMPDEST POP PUSH2 0x16E PUSH1 0x4 DUP1 CALLDATASIZE SUB DUP2 ADD SWAP1 PUSH2 0x169 SWAP2 SWAP1 PUSH2 0x1CF4 JUMP JUMPDEST PUSH2 0x7B6 JUMP JUMPDEST PUSH1 0x40 MLOAD PUSH2 0x17B SWAP2 SWAP1 PUSH2 0x1DB7 JUMP JUMPDEST PUSH1 0x40 MLOAD DUP1 SWAP2 SUB SWAP1 RETURN JUMPDEST CALLVALUE DUP1 ISZERO PUSH2 0x18F JUMPI PUSH0 PUSH0 REVERT JUMPDEST POP PUSH2 0x1AA PUSH1 0x4 DUP1 CALLDATASIZE SUB DUP2 ADD SWAP1 PUSH2 0x1A5 SWAP2 SWAP1 PUSH2 0x1CF4 JUMP JUMPDEST PUSH2 0x85A JUMP JUMPDEST PUSH1 0x40 MLOAD PUSH2 0x1B7 SWAP2 SWAP1 PUSH2 0x1E4A JUMP JUMPDEST PUSH1 0x40 MLOAD DUP1 SWAP2 SUB SWAP1 RETURN JUMPDEST CALLVALUE DUP1 ISZERO PUSH2 0x1CB JUMPI PUSH0 PUSH0 REVERT JUMPDEST POP PUSH2 0x1E6 PUSH1 0x4 DUP1 CALLDATASIZE SUB DUP2 ADD SWAP1 PUSH2 0x1E1 SWAP2 SWAP1 PUSH2 0x1CF4 JUMP JUMPDEST PUSH2 0x884 JUMP JUMPDEST STOP JUMPDEST CALLVALUE DUP1 ISZERO PUSH2 0x1F3 JUMPI PUSH0 PUSH0 REVERT JUMPDEST POP PUSH2 0x20E PUSH1 0x4 DUP1 CALLDATASIZE SUB DUP2 ADD SWAP1 PUSH2 0x209 SWAP2 SWAP1 PUSH2 0x1CF4 JUMP JUMPDEST PUSH2 0xAB1 JUMP JUMPDEST PUSH1 0x40 MLOAD PUSH2 0x224 SWAP11 SWAP10 SWAP9 SWAP8 SWAP7 SWAP6 SWAP5 SWAP4 SWAP3 SWAP2 SWAP1 PUSH2 0x1ED4 JUMP JUMPDEST PUSH1 0x40 MLOAD DUP1 SWAP2 SUB SWAP1 RETURN JUMPDEST CALLVALUE DUP1 ISZERO PUSH2 0x238 JUMPI PUSH0 PUSH0 REVERT JUMPDEST POP PUSH2 0x253 PUSH1 0x4 DUP1 CALLDATASIZE SUB DUP2 ADD SWAP1 PUSH2 0x24E SWAP2 SWAP1 PUSH2 0x20A1 JUMP JUMPDEST PUSH2 0xBF8 JUMP JUMPDEST STOP JUMPDEST CALLVALUE DUP1 ISZERO PUSH2 0x260 JUMPI PUSH0 PUSH0 REVERT JUMPDEST POP PUSH2 0x27B PUSH1 0x4 DUP1 CALLDATASIZE SUB DUP2 ADD SWAP1 PUSH2 0x276 SWAP2 SWAP1 PUSH2 0x2136 JUMP JUMPDEST PUSH2 0xE06 JUMP JUMPDEST STOP JUMPDEST CALLVALUE DUP1 ISZERO PUSH2 0x288 JUMPI PUSH0 PUSH0 REVERT JUMPDEST POP PUSH2 0x291 PUSH2 0xF79 JUMP JUMPDEST PUSH1 0x40 MLOAD PUSH2 0x29E SWAP2 SWAP1 PUSH2 0x2170 JUMP JUMPDEST PUSH1 0x40 MLOAD DUP1 SWAP2 SUB SWAP1 RETURN JUMPDEST CALLVALUE DUP1 ISZERO PUSH2 0x2B2 JUMPI PUSH0 PUSH0 REVERT JUMPDEST POP PUSH2 0x2CD PUSH1 0x4 DUP1 CALLDATASIZE SUB DUP2 ADD SWAP1 PUSH2 0x2C8 SWAP2 SWAP1 PUSH2 0x1CF4 JUMP JUMPDEST PUSH2 0xF9E JUMP JUMPDEST STOP JUMPDEST CALLVALUE DUP1 ISZERO PUSH2 0x2DA JUMPI PUSH0 PUSH0 REVERT JUMPDEST POP PUSH2 0x2F5 PUSH1 0x4 DUP1 CALLDATASIZE SUB DUP2 ADD SWAP1 PUSH2 0x2F0 SWAP2 SWAP1 PUSH2 0x1CF4 JUMP JUMPDEST PUSH2 0x12A9 JUMP JUMPDEST STOP JUMPDEST PUSH2 0x311 PUSH1 0x4 DUP1 CALLDATASIZE SUB DUP2 ADD SWAP1 PUSH2 0x30C SWAP2 SWAP1 PUSH2 0x21B3 JUMP JUMPDEST PUSH2 0x1435 JUMP JUMPDEST STOP JUMPDEST CALLVALUE DUP1 ISZERO PUSH2 0x31E JUMPI PUSH0 PUSH0 REVERT JUMPDEST POP PUSH2 0x339 PUSH1 0x4 DUP1 CALLDATASIZE SUB DUP2 ADD SWAP1 PUSH2 0x334 SWAP2 SWAP1 PUSH2 0x20A1 JUMP JUMPDEST PUSH2 0x166D JUMP JUMPDEST STOP JUMPDEST CALLVALUE DUP1 ISZERO PUSH2 0x346 JUMPI PUSH0 PUSH0 REVERT JUMPDEST POP PUSH2 0x361 PUSH1 0x4 DUP1 CALLDATASIZE SUB DUP2 ADD SWAP1 PUSH2 0x35C SWAP2 SWAP1 PUSH2 0x1CF4 JUMP JUMPDEST PUSH2 0x18F7 JUMP JUMPDEST STOP JUMPDEST CALLVALUE DUP1 ISZERO PUSH2 0x36E JUMPI PUSH0 PUSH0 REVERT JUMPDEST POP PUSH2 0x377 PUSH2 0x1C32 JUMP JUMPDEST PUSH1 0x40 MLOAD PUSH2 0x384 SWAP2 SWAP1 PUSH2 0x221F JUMP JUMPDEST PUSH1 0x40 MLOAD DUP1 SWAP2 SUB SWAP1 RETURN JUMPDEST CALLVALUE DUP1 ISZERO PUSH2 0x398 JUMPI PUSH0 PUSH0 REVERT JUMPDEST POP PUSH2 0x3B3 PUSH1 0x4 DUP1 CALLDATASIZE SUB DUP2 ADD SWAP1 PUSH2 0x3AE SWAP2 SWAP1 PUSH2 0x2136 JUMP JUMPDEST PUSH2 0x1C45 JUMP JUMPDEST PUSH1 0x40 MLOAD PUSH2 0x3C0 SWAP2 SWAP1 PUSH2 0x1D2E JUMP JUMPDEST PUSH1 0x40 MLOAD DUP1 SWAP2 SUB SWAP1 RETURN JUMPDEST DUP1 PUSH1 0x2 PUSH0 DUP3 DUP2 MSTORE PUSH1 0x20 ADD SWAP1 DUP2 MSTORE PUSH1 0x20 ADD PUSH0 KECCAK256 PUSH1 0x2 ADD PUSH0 SWAP1 SLOAD SWAP1 PUSH2 0x100 EXP SWAP1 DIV PUSH20 0xFFFFFFFFFFFFFFFFFFFFFFFFFFFFFFFFFFFFFFFF AND PUSH20 0xFFFFFFFFFFFFFFFFFFFFFFFFFFFFFFFFFFFFFFFF AND CALLER PUSH20 0xFFFFFFFFFFFFFFFFFFFFFFFFFFFFFFFFFFFFFFFF AND EQ PUSH2 0x46B JUMPI PUSH1 0x40 MLOAD PUSH32 0x8C379A000000000000000000000000000000000000000000000000000000000 DUP2 MSTORE PUSH1 0x4 ADD PUSH2 0x462 SWAP1 PUSH2 0x2282 JUMP JUMPDEST PUSH1 0x40 MLOAD DUP1 SWAP2 SUB SWAP1 REVERT JUMPDEST PUSH0 PUSH1 0x2 PUSH0 DUP5 DUP2 MSTORE PUSH1 0x20 ADD SWAP1 DUP2 MSTORE PUSH1 0x20 ADD PUSH0 KECCAK256 SWAP1 POP DUP1 PUSH1 0x6 ADD PUSH0 SWAP1 SLOAD SWAP1 PUSH2 0x100 EXP SWAP1 DIV PUSH1 0xFF AND PUSH2 0x4CF JUMPI PUSH1 0x40 MLOAD PUSH32 0x8C379A000000000000000000000000000000000000000000000000000000000 DUP2 MSTORE PUSH1 0x4 ADD PUSH2 0x4C6 SWAP1 PUSH2 0x22EA JUMP JUMPDEST PUSH1 0x40 MLOAD DUP1 SWAP2 SUB SWAP1 REVERT JUMPDEST PUSH1 0x1 PUSH1 0x3 DUP2 GT ISZERO PUSH2 0x4E3 JUMPI PUSH2 0x4E2 PUSH2 0x1DD7 JUMP JUMPDEST JUMPDEST DUP2 PUSH1 0x3 ADD PUSH1 0x14 SWAP1 SLOAD SWAP1 PUSH2 0x100 EXP SWAP1 DIV PUSH1 0xFF AND PUSH1 0x3 DUP2 GT ISZERO PUSH2 0x507 JUMPI PUSH2 0x506 PUSH2 0x1DD7 JUMP JUMPDEST JUMPDEST EQ PUSH2 0x547 JUMPI PUSH1 0x40 MLOAD PUSH32 0x8C379A000000000000000000000000000000000000000000000000000000000 DUP2 MSTORE PUSH1 0x4 ADD PUSH2 0x53E SWAP1 PUSH2 0x2352 JUMP JUMPDEST PUSH1 0x40 MLOAD DUP1 SWAP2 SUB SWAP1 REVERT JUMPDEST DUP1 PUSH1 0x6 ADD PUSH1 0x1 SWAP1 SLOAD SWAP1 PUSH2 0x100 EXP SWAP1 DIV PUSH1 0xFF AND PUSH2 0x598 JUMPI PUSH1 0x40 MLOAD PUSH32 0x8C379A000000000000000000000000000000000000000000000000000000000 DUP2 MSTORE PUSH1 0x4 ADD PUSH2 0x58F SWAP1 PUSH2 0x23BA JUMP JUMPDEST PUSH1 0x40 MLOAD DUP1 SWAP2 SUB SWAP1 REVERT JUMPDEST DUP1 PUSH1 0x6 ADD PUSH1 0x2 SWAP1 SLOAD SWAP1 PUSH2 0x100 EXP SWAP1 DIV PUSH1 0xFF AND ISZERO PUSH2 0x5EA JUMPI PUSH1 0x40 MLOAD PUSH32 0x8C379A000000000000000000000000000000000000000000000000000000000 DUP2 MSTORE PUSH1 0x4 ADD PUSH2 0x5E1 SWAP1 PUSH2 0x2422 JUMP JUMPDEST PUSH1 0x40 MLOAD DUP1 SWAP2 SUB SWAP1 REVERT JUMPDEST PUSH1 0x1 DUP2 PUSH1 0x6 ADD PUSH1 0x2 PUSH2 0x100 EXP DUP2 SLOAD DUP2 PUSH1 0xFF MUL NOT AND SWAP1 DUP4 ISZERO ISZERO MUL OR SWAP1 SSTORE POP PUSH1 0x2 DUP2 PUSH1 0x3 ADD PUSH1 0x14 PUSH2 0x100 EXP DUP2 SLOAD DUP2 PUSH1 0xFF MUL NOT AND SWAP1 DUP4 PUSH1 0x3 DUP2 GT ISZERO PUSH2 0x62F JUMPI PUSH2 0x62E PUSH2 0x1DD7 JUMP JUMPDEST JUMPDEST MUL OR SWAP1 SSTORE POP DUP1 PUSH1 0x1 ADD SLOAD PUSH1 0x4 PUSH0 DUP4 PUSH1 0x3 ADD PUSH0 SWAP1 SLOAD SWAP1 PUSH2 0x100 EXP SWAP1 DIV PUSH20 0xFFFFFFFFFFFFFFFFFFFFFFFFFFFFFFFFFFFFFFFF AND PUSH20 0xFFFFFFFFFFFFFFFFFFFFFFFFFFFFFFFFFFFFFFFF AND PUSH20 0xFFFFFFFFFFFFFFFFFFFFFFFFFFFFFFFFFFFFFFFF AND DUP2 MSTORE PUSH1 0x20 ADD SWAP1 DUP2 MSTORE PUSH1 0x20 ADD PUSH0 KECCAK256 SLOAD PUSH2 0x6A4 SWAP2 SWAP1 PUSH2 0x246D JUMP JUMPDEST PUSH1 0x4 PUSH0 DUP4 PUSH1 0x3 ADD PUSH0 SWAP1 SLOAD SWAP1 PUSH2 0x100 EXP SWAP1 DIV PUSH20 0xFFFFFFFFFFFFFFFFFFFFFFFFFFFFFFFFFFFFFFFF AND PUSH20 0xFFFFFFFFFFFFFFFFFFFFFFFFFFFFFFFFFFFFFFFF AND PUSH20 0xFFFFFFFFFFFFFFFFFFFFFFFFFFFFFFFFFFFFFFFF AND DUP2 MSTORE PUSH1 0x20 ADD SWAP1 DUP2 MSTORE PUSH1 0x20 ADD PUSH0 KECCAK256 DUP2 SWAP1 SSTORE POP DUP3 PUSH32 0x5C1E662F72EE6C85181B65FAC5BEB0390932B8C472F05B257151D041AC9DDFFA PUSH1 0x40 MLOAD PUSH1 0x40 MLOAD DUP1 SWAP2 SUB SWAP1 LOG2 DUP1 PUSH1 0x3 ADD PUSH0 SWAP1 SLOAD SWAP1 PUSH2 0x100 EXP SWAP1 DIV PUSH20 0xFFFFFFFFFFFFFFFFFFFFFFFFFFFFFFFFFFFFFFFF AND PUSH20 0xFFFFFFFFFFFFFFFFFFFFFFFFFFFFFFFFFFFFFFFF AND DUP4 PUSH32 0x21D71DB5BE59BB9FA133895586B7404307DD33FB93B16DB09DC6F1D9D7D231B0 DUP4 PUSH1 0x1 ADD SLOAD PUSH1 0x40 MLOAD PUSH2 0x7A3 SWAP2 SWAP1 PUSH2 0x1D2E JUMP JUMPDEST PUSH1 0x40 MLOAD DUP1 SWAP2 SUB SWAP1 LOG3 POP POP POP JUMP JUMPDEST PUSH1 0x3 SLOAD DUP2 JUMP JUMPDEST PUSH1 0x60 PUSH1 0x2 PUSH0 DUP4 DUP2 MSTORE PUSH1 0x20 ADD SWAP1 DUP2 MSTORE PUSH1 0x20 ADD PUSH0 KECCAK256 PUSH1 0x4 ADD DUP1 SLOAD PUSH2 0x7D7 SWAP1 PUSH2 0x24CD JUMP JUMPDEST DUP1 PUSH1 0x1F ADD PUSH1 0x20 DUP1 SWAP2 DIV MUL PUSH1 0x20 ADD PUSH1 0x40 MLOAD SWAP1 DUP2 ADD PUSH1 0x40 MSTORE DUP1 SWAP3 SWAP2 SWAP1 DUP2 DUP2 MSTORE PUSH1 0x20 ADD DUP3 DUP1 SLOAD PUSH2 0x803 SWAP1 PUSH2 0x24CD JUMP JUMPDEST DUP1 ISZERO PUSH2 0x84E JUMPI DUP1 PUSH1 0x1F LT PUSH2 0x825 JUMPI PUSH2 0x100 DUP1 DUP4 SLOAD DIV MUL DUP4 MSTORE SWAP2 PUSH1 0x20 ADD SWAP2 PUSH2 0x84E JUMP JUMPDEST DUP3 ADD SWAP2 SWAP1 PUSH0 MSTORE PUSH1 0x20 PUSH0 KECCAK256 SWAP1 JUMPDEST DUP2 SLOAD DUP2 MSTORE SWAP1 PUSH1 0x1 ADD SWAP1 PUSH1 0x20 ADD DUP1 DUP4 GT PUSH2 0x831 JUMPI DUP3 SWAP1 SUB PUSH1 0x1F AND DUP3 ADD SWAP2 JUMPDEST POP POP POP POP POP SWAP1 POP SWAP2 SWAP1 POP JUMP JUMPDEST PUSH0 PUSH1 0x2 PUSH0 DUP4 DUP2 MSTORE PUSH1 0x20 ADD SWAP1 DUP2 MSTORE PUSH1 0x20 ADD PUSH0 KECCAK256 PUSH1 0x3 ADD PUSH1 0x14 SWAP1 SLOAD SWAP1 PUSH2 0x100 EXP SWAP1 DIV PUSH1 0xFF AND SWAP1 POP SWAP2 SWAP1 POP JUMP JUMPDEST DUP1 PUSH1 0x2 PUSH0 DUP3 DUP2 MSTORE PUSH1 0x20 ADD SWAP1 DUP2 MSTORE PUSH1 0x20 ADD PUSH0 KECCAK256 PUSH1 0x2 ADD PUSH0 SWAP1 SLOAD SWAP1 PUSH2 0x100 EXP SWAP1 DIV PUSH20 0xFFFFFFFFFFFFFFFFFFFFFFFFFFFFFFFFFFFFFFFF AND PUSH20 0xFFFFFFFFFFFFFFFFFFFFFFFFFFFFFFFFFFFFFFFF AND CALLER PUSH20 0xFFFFFFFFFFFFFFFFFFFFFFFFFFFFFFFFFFFFFFFF AND EQ PUSH2 0x926 JUMPI PUSH1 0x40 MLOAD PUSH32 0x8C379A000000000000000000000000000000000000000000000000000000000 DUP2 MSTORE PUSH1 0x4 ADD PUSH2 0x91D SWAP1 PUSH2 0x2282 JUMP JUMPDEST PUSH1 0x40 MLOAD DUP1 SWAP2 SUB SWAP1 REVERT JUMPDEST PUSH0 PUSH1 0x2 PUSH0 DUP5 DUP2 MSTORE PUSH1 0x20 ADD SWAP1 DUP2 MSTORE PUSH1 0x20 ADD PUSH0 KECCAK256 SWAP1 POP PUSH1 0x2 PUSH1 0x3 DUP2 GT ISZERO PUSH2 0x94E JUMPI PUSH2 0x94D PUSH2 0x1DD7 JUMP JUMPDEST JUMPDEST DUP2 PUSH1 0x3 ADD PUSH1 0x14 SWAP1 SLOAD SWAP1 PUSH2 0x100 EXP SWAP1 DIV PUSH1 0xFF AND PUSH1 0x3 DUP2 GT ISZERO PUSH2 0x972 JUMPI PUSH2 0x971 PUSH2 0x1DD7 JUMP JUMPDEST JUMPDEST SUB PUSH2 0x9B2 JUMPI PUSH1 0x40 MLOAD PUSH32 0x8C379A000000000000000000000000000000000000000000000000000000000 DUP2 MSTORE PUSH1 0x4 ADD PUSH2 0x9A9 SWAP1 PUSH2 0x2547 JUMP JUMPDEST PUSH1 0x40 MLOAD DUP1 SWAP2 SUB SWAP1 REVERT JUMPDEST PUSH1 0x3 DUP1 DUP2 GT ISZERO PUSH2 0x9C5 JUMPI PUSH2 0x9C4 PUSH2 0x1DD7 JUMP JUMPDEST JUMPDEST DUP2 PUSH1 0x3 ADD PUSH1 0x14 SWAP1 SLOAD SWAP1 PUSH2 0x100 EXP SWAP1 DIV PUSH1 0xFF AND PUSH1 0x3 DUP2 GT ISZERO PUSH2 0x9E9 JUMPI PUSH2 0x9E8 PUSH2 0x1DD7 JUMP JUMPDEST JUMPDEST SUB PUSH2 0xA29 JUMPI PUSH1 0x40 MLOAD PUSH32 0x8C379A000000000000000000000000000000000000000000000000000000000 DUP2 MSTORE PUSH1 0x4 ADD PUSH2 0xA20 SWAP1 PUSH2 0x25AF JUMP JUMPDEST PUSH1 0x40 MLOAD DUP1 SWAP2 SUB SWAP1 REVERT JUMPDEST PUSH1 0x40 MLOAD DUP1 PUSH1 0x20 ADD PUSH1 0x40 MSTORE DUP1 PUSH0 DUP2 MSTORE POP DUP2 PUSH1 0x4 ADD SWAP1 DUP2 PUSH2 0xA48 SWAP2 SWAP1 PUSH2 0x276D JUMP JUMPDEST POP PUSH0 DUP2 PUSH1 0x5 ADD DUP2 SWAP1 SSTORE POP PUSH1 0x3 DUP2 PUSH1 0x3 ADD PUSH1 0x14 PUSH2 0x100 EXP DUP2 SLOAD DUP2 PUSH1 0xFF MUL NOT AND SWAP1 DUP4 PUSH1 0x3 DUP2 GT ISZERO PUSH2 0xA7A JUMPI PUSH2 0xA79 PUSH2 0x1DD7 JUMP JUMPDEST JUMPDEST MUL OR SWAP1 SSTORE POP DUP3 PUSH32 0x741B099F015E1976CFA72A7448A8FB1D54EAB1D616241B562CFBE603A2B61B42 PUSH1 0x40 MLOAD PUSH1 0x40 MLOAD DUP1 SWAP2 SUB SWAP1 LOG2 POP POP POP JUMP JUMPDEST PUSH1 0x2 PUSH1 0x20 MSTORE DUP1 PUSH0 MSTORE PUSH1 0x40 PUSH0 KECCAK256 PUSH0 SWAP2 POP SWAP1 POP DUP1 PUSH0 ADD SLOAD SWAP1 DUP1 PUSH1 0x1 ADD SLOAD SWAP1 DUP1 PUSH1 0x2 ADD PUSH0 SWAP1 SLOAD SWAP1 PUSH2 0x100 EXP SWAP1 DIV PUSH20 0xFFFFFFFFFFFFFFFFFFFFFFFFFFFFFFFFFFFFFFFF AND SWAP1 DUP1 PUSH1 0x3 ADD PUSH0 SWAP1 SLOAD SWAP1 PUSH2 0x100 EXP SWAP1 DIV PUSH20 0xFFFFFFFFFFFFFFFFFFFFFFFFFFFFFFFFFFFFFFFF AND SWAP1 DUP1 PUSH1 0x3 ADD PUSH1 0x14 SWAP1 SLOAD SWAP1 PUSH2 0x100 EXP SWAP1 DIV PUSH1 0xFF AND SWAP1 DUP1 PUSH1 0x4 ADD DUP1 SLOAD PUSH2 0xB39 SWAP1 PUSH2 0x24CD JUMP JUMPDEST DUP1 PUSH1 0x1F ADD PUSH1 0x20 DUP1 SWAP2 DIV MUL PUSH1 0x20 ADD PUSH1 0x40 MLOAD SWAP1 DUP2 ADD PUSH1 0x40 MSTORE DUP1 SWAP3 SWAP2 SWAP1 DUP2 DUP2 MSTORE PUSH1 0x20 ADD DUP3 DUP1 SLOAD PUSH2 0xB65 SWAP1 PUSH2 0x24CD JUMP JUMPDEST DUP1 ISZERO PUSH2 0xBB0 JUMPI DUP1 PUSH1 0x1F LT PUSH2 0xB87 JUMPI PUSH2 0x100 DUP1 DUP4 SLOAD DIV MUL DUP4 MSTORE SWAP2 PUSH1 0x20 ADD SWAP2 PUSH2 0xBB0 JUMP JUMPDEST DUP3 ADD SWAP2 SWAP1 PUSH0 MSTORE PUSH1 0x20 PUSH0 KECCAK256 SWAP1 JUMPDEST DUP2 SLOAD DUP2 MSTORE SWAP1 PUSH1 0x1 ADD SWAP1 PUSH1 0x20 ADD DUP1 DUP4 GT PUSH2 0xB93 JUMPI DUP3 SWAP1 SUB PUSH1 0x1F AND DUP3 ADD SWAP2 JUMPDEST POP POP POP POP POP SWAP1 DUP1 PUSH1 0x5 ADD SLOAD SWAP1 DUP1 PUSH1 0x6 ADD PUSH0 SWAP1 SLOAD SWAP1 PUSH2 0x100 EXP SWAP1 DIV PUSH1 0xFF AND SWAP1 DUP1 PUSH1 0x6 ADD PUSH1 0x1 SWAP1 SLOAD SWAP1 PUSH2 0x100 EXP SWAP1 DIV PUSH1 0xFF AND SWAP1 DUP1 PUSH1 0x6 ADD PUSH1 0x2 SWAP1 SLOAD SWAP1 PUSH2 0x100 EXP SWAP1 DIV PUSH1 0xFF AND SWAP1 POP DUP11 JUMP JUMPDEST DUP2 PUSH1 0x2 PUSH0 DUP3 DUP2 MSTORE PUSH1 0x20 ADD SWAP1 DUP2 MSTORE PUSH1 0x20 ADD PUSH0 KECCAK256 PUSH1 0x3 ADD PUSH0 SWAP1 SLOAD SWAP1 PUSH2 0x100 EXP SWAP1 DIV PUSH20 0xFFFFFFFFFFFFFFFFFFFFFFFFFFFFFFFFFFFFFFFF AND PUSH20 0xFFFFFFFFFFFFFFFFFFFFFFFFFFFFFFFFFFFFFFFF AND CALLER PUSH20 0xFFFFFFFFFFFFFFFFFFFFFFFFFFFFFFFFFFFFFFFF AND EQ PUSH2 0xC9A JUMPI PUSH1 0x40 MLOAD PUSH32 0x8C379A000000000000000000000000000000000000000000000000000000000 DUP2 MSTORE PUSH1 0x4 ADD PUSH2 0xC91 SWAP1 PUSH2 0x2886 JUMP JUMPDEST PUSH1 0x40 MLOAD DUP1 SWAP2 SUB SWAP1 REVERT JUMPDEST PUSH0 PUSH1 0x2 PUSH0 DUP6 DUP2 MSTORE PUSH1 0x20 ADD SWAP1 DUP2 MSTORE PUSH1 0x20 ADD PUSH0 KECCAK256 SWAP1 POP PUSH1 0x1 PUSH1 0x3 DUP2 GT ISZERO PUSH2 0xCC2 JUMPI PUSH2 0xCC1 PUSH2 0x1DD7 JUMP JUMPDEST JUMPDEST DUP2 PUSH1 0x3 ADD PUSH1 0x14 SWAP1 SLOAD SWAP1 PUSH2 0x100 EXP SWAP1 DIV PUSH1 0xFF AND PUSH1 0x3 DUP2 GT ISZERO PUSH2 0xCE6 JUMPI PUSH2 0xCE5 PUSH2 0x1DD7 JUMP JUMPDEST JUMPDEST EQ PUSH2 0xD26 JUMPI PUSH1 0x40 MLOAD PUSH32 0x8C379A000000000000000000000000000000000000000000000000000000000 DUP2 MSTORE PUSH1 0x4 ADD PUSH2 0xD1D SWAP1 PUSH2 0x2352 JUMP JUMPDEST PUSH1 0x40 MLOAD DUP1 SWAP2 SUB SWAP1 REVERT JUMPDEST DUP1 PUSH1 0x6 ADD PUSH0 SWAP1 SLOAD SWAP1 PUSH2 0x100 EXP SWAP1 DIV PUSH1 0xFF AND ISZERO PUSH2 0xD77 JUMPI PUSH1 0x40 MLOAD PUSH32 0x8C379A000000000000000000000000000000000000000000000000000000000 DUP2 MSTORE PUSH1 0x4 ADD PUSH2 0xD6E SWAP1 PUSH2 0x28EE JUMP JUMPDEST PUSH1 0x40 MLOAD DUP1 SWAP2 SUB SWAP1 REVERT JUMPDEST DUP4 DUP4 PUSH1 0x40 MLOAD PUSH1 0x20 ADD PUSH2 0xD8A SWAP3 SWAP2 SWAP1 PUSH2 0x290C JUMP JUMPDEST PUSH1 0x40 MLOAD PUSH1 0x20 DUP2 DUP4 SUB SUB DUP2 MSTORE SWAP1 PUSH1 0x40 MSTORE DUP1 MLOAD SWAP1 PUSH1 0x20 ADD KECCAK256 DUP2 PUSH1 0x5 ADD DUP2 SWAP1 SSTORE POP PUSH1 0x1 DUP2 PUSH1 0x6 ADD PUSH0 PUSH2 0x100 EXP DUP2 SLOAD DUP2 PUSH1 0xFF MUL NOT AND SWAP1 DUP4 ISZERO ISZERO MUL OR SWAP1 SSTORE POP DUP4 PUSH32 0x4B70739C5F0BD46E19773020C599342CDBDC3AC59B5E0ABFDD9C1BB441BE59C8 DUP3 PUSH1 0x5 ADD SLOAD PUSH1 0x40 MLOAD PUSH2 0xDF8 SWAP2 SWAP1 PUSH2 0x293A JUMP JUMPDEST PUSH1 0x40 MLOAD DUP1 SWAP2 SUB SWAP1 LOG2 POP POP POP POP JUMP JUMPDEST PUSH1 0x1 PUSH1 0x14 SWAP1 SLOAD SWAP1 PUSH2 0x100 EXP SWAP1 DIV PUSH1 0xFF AND ISZERO PUSH2 0xE56 JUMPI PUSH1 0x40 MLOAD PUSH32 0x8C379A000000000000000000000000000000000000000000000000000000000 DUP2 MSTORE PUSH1 0x4 ADD PUSH2 0xE4D SWAP1 PUSH2 0x299D JUMP JUMPDEST PUSH1 0x40 MLOAD DUP1 SWAP2 SUB SWAP1 REVERT JUMPDEST PUSH0 PUSH20 0xFFFFFFFFFFFFFFFFFFFFFFFFFFFFFFFFFFFFFFFF AND DUP2 PUSH20 0xFFFFFFFFFFFFFFFFFFFFFFFFFFFFFFFFFFFFFFFF AND SUB PUSH2 0xEC4 JUMPI PUSH1 0x40 MLOAD PUSH32 0x8C379A000000000000000000000000000000000000000000000000000000000 DUP2 MSTORE PUSH1 0x4 ADD PUSH2 0xEBB SWAP1 PUSH2 0x2A05 JUMP JUMPDEST PUSH1 0x40 MLOAD DUP1 SWAP2 SUB SWAP1 REVERT JUMPDEST PUSH1 0x1 PUSH1 0x14 SWAP1 SLOAD SWAP1 PUSH2 0x100 EXP SWAP1 DIV PUSH1 0xFF AND PUSH2 0xF76 JUMPI DUP1 PUSH1 0x1 PUSH0 PUSH2 0x100 EXP DUP2 SLOAD DUP2 PUSH20 0xFFFFFFFFFFFFFFFFFFFFFFFFFFFFFFFFFFFFFFFF MUL NOT AND SWAP1 DUP4 PUSH20 0xFFFFFFFFFFFFFFFFFFFFFFFFFFFFFFFFFFFFFFFF AND MUL OR SWAP1 SSTORE POP PUSH1 0x1 DUP1 PUSH1 0x14 PUSH2 0x100 EXP DUP2 SLOAD DUP2 PUSH1 0xFF MUL NOT AND SWAP1 DUP4 ISZERO ISZERO MUL OR SWAP1 SSTORE POP DUP1 PUSH20 0xFFFFFFFFFFFFFFFFFFFFFFFFFFFFFFFFFFFFFFFF AND PUSH32 0x3F32684A32A11DABDBB8C0177DE80AA3AE36A004D75210335B49E544E48CD0AA PUSH1 0x40 MLOAD PUSH1 0x40 MLOAD DUP1 SWAP2 SUB SWAP1 LOG2 JUMPDEST POP JUMP JUMPDEST PUSH1 0x1 PUSH0 SWAP1 SLOAD SWAP1 PUSH2 0x100 EXP SWAP1 DIV PUSH20 0xFFFFFFFFFFFFFFFFFFFFFFFFFFFFFFFFFFFFFFFF AND DUP2 JUMP JUMPDEST PUSH2 0xFA6 PUSH2 0x1C5A JUMP JUMPDEST DUP1 PUSH1 0x2 PUSH0 DUP3 DUP2 MSTORE PUSH1 0x20 ADD SWAP1 DUP2 MSTORE PUSH1 0x20 ADD PUSH0 KECCAK256 PUSH1 0x2 ADD PUSH0 SWAP1 SLOAD SWAP1 PUSH2 0x100 EXP SWAP1 DIV PUSH20 0xFFFFFFFFFFFFFFFFFFFFFFFFFFFFFFFFFFFFFFFF AND PUSH20 0xFFFFFFFFFFFFFFFFFFFFFFFFFFFFFFFFFFFFFFFF AND CALLER PUSH20 0xFFFFFFFFFFFFFFFFFFFFFFFFFFFFFFFFFFFFFFFF AND EQ PUSH2 0x1048 JUMPI PUSH1 0x40 MLOAD PUSH32 0x8C379A000000000000000000000000000000000000000000000000000000000 DUP2 MSTORE PUSH1 0x4 ADD PUSH2 0x103F SWAP1 PUSH2 0x2282 JUMP JUMPDEST PUSH1 0x40 MLOAD DUP1 SWAP2 SUB SWAP1 REVERT JUMPDEST PUSH0 PUSH1 0x2 PUSH0 DUP5 DUP2 MSTORE PUSH1 0x20 ADD SWAP1 DUP2 MSTORE PUSH1 0x20 ADD PUSH0 KECCAK256 SWAP1 POP PUSH1 0x1 PUSH1 0x3 DUP2 GT ISZERO PUSH2 0x1070 JUMPI PUSH2 0x106F PUSH2 0x1DD7 JUMP JUMPDEST JUMPDEST DUP2 PUSH1 0x3 ADD PUSH1 0x14 SWAP1 SLOAD SWAP1 PUSH2 0x100 EXP SWAP1 DIV PUSH1 0xFF AND PUSH1 0x3 DUP2 GT ISZERO PUSH2 0x1094 JUMPI PUSH2 0x1093 PUSH2 0x1DD7 JUMP JUMPDEST JUMPDEST EQ PUSH2 0x10D4 JUMPI PUSH1 0x40 MLOAD PUSH32 0x8C379A000000000000000000000000000000000000000000000000000000000 DUP2 MSTORE PUSH1 0x4 ADD PUSH2 0x10CB SWAP1 PUSH2 0x2352 JUMP JUMPDEST PUSH1 0x40 MLOAD DUP1 SWAP2 SUB SWAP1 REVERT JUMPDEST DUP1 PUSH1 0x6 ADD PUSH0 SWAP1 SLOAD SWAP1 PUSH2 0x100 EXP SWAP1 DIV PUSH1 0xFF AND ISZERO PUSH2 0x1125 JUMPI PUSH1 0x40 MLOAD PUSH32 0x8C379A000000000000000000000000000000000000000000000000000000000 DUP2 MSTORE PUSH1 0x4 ADD PUSH2 0x111C SWAP1 PUSH2 0x2A6D JUMP JUMPDEST PUSH1 0x40 MLOAD DUP1 SWAP2 SUB SWAP1 REVERT JUMPDEST PUSH1 0x2 DUP2 PUSH1 0x3 ADD PUSH1 0x14 PUSH2 0x100 EXP DUP2 SLOAD DUP2 PUSH1 0xFF MUL NOT AND SWAP1 DUP4 PUSH1 0x3 DUP2 GT ISZERO PUSH2 0x114D JUMPI PUSH2 0x114C PUSH2 0x1DD7 JUMP JUMPDEST JUMPDEST MUL OR SWAP1 SSTORE POP DUP1 PUSH1 0x1 ADD SLOAD PUSH1 0x4 PUSH0 DUP4 PUSH1 0x3 ADD PUSH0 SWAP1 SLOAD SWAP1 PUSH2 0x100 EXP SWAP1 DIV PUSH20 0xFFFFFFFFFFFFFFFFFFFFFFFFFFFFFFFFFFFFFFFF AND PUSH20 0xFFFFFFFFFFFFFFFFFFFFFFFFFFFFFFFFFFFFFFFF AND PUSH20 0xFFFFFFFFFFFFFFFFFFFFFFFFFFFFFFFFFFFFFFFF AND DUP2 MSTORE PUSH1 0x20 ADD SWAP1 DUP2 MSTORE PUSH1 0x20 ADD PUSH0 KECCAK256 SLOAD PUSH2 0x11C2 SWAP2 SWAP1 PUSH2 0x246D JUMP JUMPDEST PUSH1 0x4 PUSH0 DUP4 PUSH1 0x3 ADD PUSH0 SWAP1 SLOAD SWAP1 PUSH2 0x100 EXP SWAP1 DIV PUSH20 0xFFFFFFFFFFFFFFFFFFFFFFFFFFFFFFFFFFFFFFFF AND PUSH20 0xFFFFFFFFFFFFFFFFFFFFFFFFFFFFFFFFFFFFFFFF AND PUSH20 0xFFFFFFFFFFFFFFFFFFFFFFFFFFFFFFFFFFFFFFFF AND DUP2 MSTORE PUSH1 0x20 ADD SWAP1 DUP2 MSTORE PUSH1 0x20 ADD PUSH0 KECCAK256 DUP2 SWAP1 SSTORE POP DUP1 PUSH1 0x3 ADD PUSH0 SWAP1 SLOAD SWAP1 PUSH2 0x100 EXP SWAP1 DIV PUSH20 0xFFFFFFFFFFFFFFFFFFFFFFFFFFFFFFFFFFFFFFFF AND PUSH20 0xFFFFFFFFFFFFFFFFFFFFFFFFFFFFFFFFFFFFFFFF AND DUP4 PUSH32 0x21D71DB5BE59BB9FA133895586B7404307DD33FB93B16DB09DC6F1D9D7D231B0 DUP4 PUSH1 0x1 ADD SLOAD PUSH1 0x40 MLOAD PUSH2 0x1294 SWAP2 SWAP1 PUSH2 0x1D2E JUMP JUMPDEST PUSH1 0x40 MLOAD DUP1 SWAP2 SUB SWAP1 LOG3 POP POP PUSH2 0x12A6 PUSH2 0x1CA7 JUMP JUMPDEST POP JUMP JUMPDEST DUP1 PUSH1 0x2 PUSH0 DUP3 DUP2 MSTORE PUSH1 0x20 ADD SWAP1 DUP2 MSTORE PUSH1 0x20 ADD PUSH0 KECCAK256 PUSH1 0x3 ADD PUSH0 SWAP1 SLOAD SWAP1 PUSH2 0x100 EXP SWAP1 DIV PUSH20 0xFFFFFFFFFFFFFFFFFFFFFFFFFFFFFFFFFFFFFFFF AND PUSH20 0xFFFFFFFFFFFFFFFFFFFFFFFFFFFFFFFFFFFFFFFF AND CALLER PUSH20 0xFFFFFFFFFFFFFFFFFFFFFFFFFFFFFFFFFFFFFFFF AND EQ PUSH2 0x134B JUMPI PUSH1 0x40 MLOAD PUSH32 0x8C379A000000000000000000000000000000000000000000000000000000000 DUP2 MSTORE PUSH1 0x4 ADD PUSH2 0x1342 SWAP1 PUSH2 0x2886 JUMP JUMPDEST PUSH1 0x40 MLOAD DUP1 SWAP2 SUB SWAP1 REVERT JUMPDEST PUSH0 PUSH1 0x2 PUSH0 DUP5 DUP2 MSTORE PUSH1 0x20 ADD SWAP1 DUP2 MSTORE PUSH1 0x20 ADD PUSH0 KECCAK256 SWAP1 POP PUSH0 PUSH1 0x3 DUP2 GT ISZERO PUSH2 0x1372 JUMPI PUSH2 0x1371 PUSH2 0x1DD7 JUMP JUMPDEST JUMPDEST DUP2 PUSH1 0x3 ADD PUSH1 0x14 SWAP1 SLOAD SWAP1 PUSH2 0x100 EXP SWAP1 DIV PUSH1 0xFF AND PUSH1 0x3 DUP2 GT ISZERO PUSH2 0x1396 JUMPI PUSH2 0x1395 PUSH2 0x1DD7 JUMP JUMPDEST JUMPDEST EQ PUSH2 0x13D6 JUMPI PUSH1 0x40 MLOAD PUSH32 0x8C379A000000000000000000000000000000000000000000000000000000000 DUP2 MSTORE PUSH1 0x4 ADD PUSH2 0x13CD SWAP1 PUSH2 0x2AD5 JUMP JUMPDEST PUSH1 0x40 MLOAD DUP1 SWAP2 SUB SWAP1 REVERT JUMPDEST PUSH1 0x1 DUP2 PUSH1 0x3 ADD PUSH1 0x14 PUSH2 0x100 EXP DUP2 SLOAD DUP2 PUSH1 0xFF MUL NOT AND SWAP1 DUP4 PUSH1 0x3 DUP2 GT ISZERO PUSH2 0x13FE JUMPI PUSH2 0x13FD PUSH2 0x1DD7 JUMP JUMPDEST JUMPDEST MUL OR SWAP1 SSTORE POP DUP3 PUSH32 0xAF3C49F5413FD292E2325B0FE214DE144A222B00CB6EC21214FDC04B5D6C5913 PUSH1 0x40 MLOAD PUSH1 0x40 MLOAD DUP1 SWAP2 SUB SWAP1 LOG2 POP POP POP JUMP JUMPDEST PUSH0 PUSH20 0xFFFFFFFFFFFFFFFFFFFFFFFFFFFFFFFFFFFFFFFF AND DUP4 PUSH20 0xFFFFFFFFFFFFFFFFFFFFFFFFFFFFFFFFFFFFFFFF AND SUB PUSH2 0x14A3 JUMPI PUSH1 0x40 MLOAD PUSH32 0x8C379A000000000000000000000000000000000000000000000000000000000 DUP2 MSTORE PUSH1 0x4 ADD PUSH2 0x149A SWAP1 PUSH2 0x2B3D JUMP JUMPDEST PUSH1 0x40 MLOAD DUP1 SWAP2 SUB SWAP1 REVERT JUMPDEST DUP1 CALLVALUE EQ PUSH2 0x14E5 JUMPI PUSH1 0x40 MLOAD PUSH32 0x8C379A000000000000000000000000000000000000000000000000000000000 DUP2 MSTORE PUSH1 0x4 ADD PUSH2 0x14DC SWAP1 PUSH2 0x2BA5 JUMP JUMPDEST PUSH1 0x40 MLOAD DUP1 SWAP2 SUB SWAP1 REVERT JUMPDEST PUSH1 0xA DUP3 MLOAD GT PUSH2 0x1529 JUMPI PUSH1 0x40 MLOAD PUSH32 0x8C379A000000000000000000000000000000000000000000000000000000000 DUP2 MSTORE PUSH1 0x4 ADD PUSH2 0x1520 SWAP1 PUSH2 0x2C0D JUMP JUMPDEST PUSH1 0x40 MLOAD DUP1 SWAP2 SUB SWAP1 REVERT JUMPDEST PUSH1 0x3 PUSH0 DUP2 SLOAD DUP1 SWAP3 SWAP2 SWAP1 PUSH2 0x153B SWAP1 PUSH2 0x2C2B JUMP JUMPDEST SWAP2 SWAP1 POP SSTORE POP PUSH0 PUSH1 0x2 PUSH0 PUSH1 0x3 SLOAD DUP2 MSTORE PUSH1 0x20 ADD SWAP1 DUP2 MSTORE PUSH1 0x20 ADD PUSH0 KECCAK256 SWAP1 POP PUSH1 0x3 SLOAD DUP2 PUSH0 ADD DUP2 SWAP1 SSTORE POP DUP2 DUP2 PUSH1 0x1 ADD DUP2 SWAP1 SSTORE POP CALLER DUP2 PUSH1 0x2 ADD PUSH0 PUSH2 0x100 EXP DUP2 SLOAD DUP2 PUSH20 0xFFFFFFFFFFFFFFFFFFFFFFFFFFFFFFFFFFFFFFFF MUL NOT AND SWAP1 DUP4 PUSH20 0xFFFFFFFFFFFFFFFFFFFFFFFFFFFFFFFFFFFFFFFF AND MUL OR SWAP1 SSTORE POP DUP4 DUP2 PUSH1 0x3 ADD PUSH0 PUSH2 0x100 EXP DUP2 SLOAD DUP2 PUSH20 0xFFFFFFFFFFFFFFFFFFFFFFFFFFFFFFFFFFFFFFFF MUL NOT AND SWAP1 DUP4 PUSH20 0xFFFFFFFFFFFFFFFFFFFFFFFFFFFFFFFFFFFFFFFF AND MUL OR SWAP1 SSTORE POP PUSH0 DUP2 PUSH1 0x3 ADD PUSH1 0x14 PUSH2 0x100 EXP DUP2 SLOAD DUP2 PUSH1 0xFF MUL NOT AND SWAP1 DUP4 PUSH1 0x3 DUP2 GT ISZERO PUSH2 0x1614 JUMPI PUSH2 0x1613 PUSH2 0x1DD7 JUMP JUMPDEST JUMPDEST MUL OR SWAP1 SSTORE POP DUP3 DUP2 PUSH1 0x4 ADD SWAP1 DUP2 PUSH2 0x162A SWAP2 SWAP1 PUSH2 0x276D JUMP JUMPDEST POP PUSH1 0x3 SLOAD PUSH32 0x56560A52C047ED21FD801BF0F345B23D9AF696F7922FF8E63101AF5D48CADDAB CALLER DUP7 PUSH1 0x40 MLOAD PUSH2 0x165F SWAP3 SWAP2 SWAP1 PUSH2 0x2CC4 JUMP JUMPDEST PUSH1 0x40 MLOAD DUP1 SWAP2 SUB SWAP1 LOG2 POP POP POP POP JUMP JUMPDEST PUSH2 0x1675 PUSH2 0x1C5A JUMP JUMPDEST PUSH1 0x1 PUSH0 SWAP1 SLOAD SWAP1 PUSH2 0x100 EXP SWAP1 DIV PUSH20 0xFFFFFFFFFFFFFFFFFFFFFFFFFFFFFFFFFFFFFFFF AND PUSH20 0xFFFFFFFFFFFFFFFFFFFFFFFFFFFFFFFFFFFFFFFF AND CALLER PUSH20 0xFFFFFFFFFFFFFFFFFFFFFFFFFFFFFFFFFFFFFFFF AND EQ PUSH2 0x1704 JUMPI PUSH1 0x40 MLOAD PUSH32 0x8C379A000000000000000000000000000000000000000000000000000000000 DUP2 MSTORE PUSH1 0x4 ADD PUSH2 0x16FB SWAP1 PUSH2 0x2D35 JUMP JUMPDEST PUSH1 0x40 MLOAD DUP1 SWAP2 SUB SWAP1 REVERT JUMPDEST PUSH0 PUSH1 0x2 PUSH0 DUP5 DUP2 MSTORE PUSH1 0x20 ADD SWAP1 DUP2 MSTORE PUSH1 0x20 ADD PUSH0 KECCAK256 SWAP1 POP DUP1 PUSH1 0x6 ADD PUSH0 SWAP1 SLOAD SWAP1 PUSH2 0x100 EXP SWAP1 DIV PUSH1 0xFF AND PUSH2 0x1768 JUMPI PUSH1 0x40 MLOAD PUSH32 0x8C379A000000000000000000000000000000000000000000000000000000000 DUP2 MSTORE PUSH1 0x4 ADD PUSH2 0x175F SWAP1 PUSH2 0x22EA JUMP JUMPDEST PUSH1 0x40 MLOAD DUP1 SWAP2 SUB SWAP1 REVERT JUMPDEST PUSH1 0x1 PUSH1 0x3 DUP2 GT ISZERO PUSH2 0x177C JUMPI PUSH2 0x177B PUSH2 0x1DD7 JUMP JUMPDEST JUMPDEST DUP2 PUSH1 0x3 ADD PUSH1 0x14 SWAP1 SLOAD SWAP1 PUSH2 0x100 EXP SWAP1 DIV PUSH1 0xFF AND PUSH1 0x3 DUP2 GT ISZERO PUSH2 0x17A0 JUMPI PUSH2 0x179F PUSH2 0x1DD7 JUMP JUMPDEST JUMPDEST EQ PUSH2 0x17E0 JUMPI PUSH1 0x40 MLOAD PUSH32 0x8C379A000000000000000000000000000000000000000000000000000000000 DUP2 MSTORE PUSH1 0x4 ADD PUSH2 0x17D7 SWAP1 PUSH2 0x2352 JUMP JUMPDEST PUSH1 0x40 MLOAD DUP1 SWAP2 SUB SWAP1 REVERT JUMPDEST DUP1 PUSH1 0x6 ADD PUSH1 0x1 SWAP1 SLOAD SWAP1 PUSH2 0x100 EXP SWAP1 DIV PUSH1 0xFF AND ISZERO PUSH2 0x1832 JUMPI PUSH1 0x40 MLOAD PUSH32 0x8C379A000000000000000000000000000000000000000000000000000000000 DUP2 MSTORE PUSH1 0x4 ADD PUSH2 0x1829 SWAP1 PUSH2 0x2D9D JUMP JUMPDEST PUSH1 0x40 MLOAD DUP1 SWAP2 SUB SWAP1 REVERT JUMPDEST DUP3 DUP3 PUSH1 0x40 MLOAD PUSH1 0x20 ADD PUSH2 0x1845 SWAP3 SWAP2 SWAP1 PUSH2 0x290C JUMP JUMPDEST PUSH1 0x40 MLOAD PUSH1 0x20 DUP2 DUP4 SUB SUB DUP2 MSTORE SWAP1 PUSH1 0x40 MSTORE DUP1 MLOAD SWAP1 PUSH1 0x20 ADD KECCAK256 DUP2 PUSH1 0x5 ADD SLOAD EQ PUSH2 0x18A0 JUMPI PUSH1 0x40 MLOAD PUSH32 0x8C379A000000000000000000000000000000000000000000000000000000000 DUP2 MSTORE PUSH1 0x4 ADD PUSH2 0x1897 SWAP1 PUSH2 0x2E05 JUMP JUMPDEST PUSH1 0x40 MLOAD DUP1 SWAP2 SUB SWAP1 REVERT JUMPDEST PUSH1 0x1 DUP2 PUSH1 0x6 ADD PUSH1 0x1 PUSH2 0x100 EXP DUP2 SLOAD DUP2 PUSH1 0xFF MUL NOT AND SWAP1 DUP4 ISZERO ISZERO MUL OR SWAP1 SSTORE POP DUP3 PUSH32 0x375B4005EEAE25D0E37D56E1B3841D3BB394B277EFA2548DE3293F5DCB7A3493 PUSH1 0x40 MLOAD PUSH1 0x40 MLOAD DUP1 SWAP2 SUB SWAP1 LOG2 POP PUSH2 0x18F3 PUSH2 0x1CA7 JUMP JUMPDEST POP POP JUMP JUMPDEST PUSH2 0x18FF PUSH2 0x1C5A JUMP JUMPDEST PUSH0 PUSH1 0x2 PUSH0 DUP4 DUP2 MSTORE PUSH1 0x20 ADD SWAP1 DUP2 MSTORE PUSH1 0x20 ADD PUSH0 KECCAK256 SWAP1 POP PUSH1 0x2 PUSH1 0x3 DUP2 GT ISZERO PUSH2 0x1927 JUMPI PUSH2 0x1926 PUSH2 0x1DD7 JUMP JUMPDEST JUMPDEST DUP2 PUSH1 0x3 ADD PUSH1 0x14 SWAP1 SLOAD SWAP1 PUSH2 0x100 EXP SWAP1 DIV PUSH1 0xFF AND PUSH1 0x3 DUP2 GT ISZERO PUSH2 0x194B JUMPI PUSH2 0x194A PUSH2 0x1DD7 JUMP JUMPDEST JUMPDEST EQ PUSH2 0x198B JUMPI PUSH1 0x40 MLOAD PUSH32 0x8C379A000000000000000000000000000000000000000000000000000000000 DUP2 MSTORE PUSH1 0x4 ADD PUSH2 0x1982 SWAP1 PUSH2 0x2E6D JUMP JUMPDEST PUSH1 0x40 MLOAD DUP1 SWAP2 SUB SWAP1 REVERT JUMPDEST CALLER PUSH20 0xFFFFFFFFFFFFFFFFFFFFFFFFFFFFFFFFFFFFFFFF AND DUP2 PUSH1 0x3 ADD PUSH0 SWAP1 SLOAD SWAP1 PUSH2 0x100 EXP SWAP1 DIV PUSH20 0xFFFFFFFFFFFFFFFFFFFFFFFFFFFFFFFFFFFFFFFF AND PUSH20 0xFFFFFFFFFFFFFFFFFFFFFFFFFFFFFFFFFFFFFFFF AND EQ PUSH2 0x1A1C JUMPI PUSH1 0x40 MLOAD PUSH32 0x8C379A000000000000000000000000000000000000000000000000000000000 DUP2 MSTORE PUSH1 0x4 ADD PUSH2 0x1A13 SWAP1 PUSH2 0x2ED5 JUMP JUMPDEST PUSH1 0x40 MLOAD DUP1 SWAP2 SUB SWAP1 REVERT JUMPDEST PUSH0 DUP2 PUSH1 0x1 ADD SLOAD SWAP1 POP PUSH0 PUSH1 0x4 PUSH0 CALLER PUSH20 0xFFFFFFFFFFFFFFFFFFFFFFFFFFFFFFFFFFFFFFFF AND PUSH20 0xFFFFFFFFFFFFFFFFFFFFFFFFFFFFFFFFFFFFFFFF AND DUP2 MSTORE PUSH1 0x20 ADD SWAP1 DUP2 MSTORE PUSH1 0x20 ADD PUSH0 KECCAK256 SLOAD SUB PUSH2 0x1AA3 JUMPI PUSH1 0x40 MLOAD PUSH32 0x8C379A000000000000000000000000000000000000000000000000000000000 DUP2 MSTORE PUSH1 0x4 ADD PUSH2 0x1A9A SWAP1 PUSH2 0x2F3D JUMP JUMPDEST PUSH1 0x40 MLOAD DUP1 SWAP2 SUB SWAP1 REVERT JUMPDEST DUP1 PUSH1 0x4 PUSH0 CALLER PUSH20 0xFFFFFFFFFFFFFFFFFFFFFFFFFFFFFFFFFFFFFFFF AND PUSH20 0xFFFFFFFFFFFFFFFFFFFFFFFFFFFFFFFFFFFFFFFF AND DUP2 MSTORE PUSH1 0x20 ADD SWAP1 DUP2 MSTORE PUSH1 0x20 ADD PUSH0 KECCAK256 SLOAD PUSH2 0x1AEC SWAP2 SWAP1 PUSH2 0x2F5B JUMP JUMPDEST PUSH1 0x4 PUSH0 CALLER PUSH20 0xFFFFFFFFFFFFFFFFFFFFFFFFFFFFFFFFFFFFFFFF AND PUSH20 0xFFFFFFFFFFFFFFFFFFFFFFFFFFFFFFFFFFFFFFFF AND DUP2 MSTORE PUSH1 0x20 ADD SWAP1 DUP2 MSTORE PUSH1 0x20 ADD PUSH0 KECCAK256 DUP2 SWAP1 SSTORE POP PUSH0 CALLER PUSH20 0xFFFFFFFFFFFFFFFFFFFFFFFFFFFFFFFFFFFFFFFF AND DUP3 PUSH1 0x40 MLOAD PUSH2 0x1B52 SWAP1 PUSH2 0x2FBB JUMP JUMPDEST PUSH0 PUSH1 0x40 MLOAD DUP1 DUP4 SUB DUP2 DUP6 DUP8 GAS CALL SWAP3 POP POP POP RETURNDATASIZE DUP1 PUSH0 DUP2 EQ PUSH2 0x1B8C JUMPI PUSH1 0x40 MLOAD SWAP2 POP PUSH1 0x1F NOT PUSH1 0x3F RETURNDATASIZE ADD AND DUP3 ADD PUSH1 0x40 MSTORE RETURNDATASIZE DUP3 MSTORE RETURNDATASIZE PUSH0 PUSH1 0x20 DUP5 ADD RETURNDATACOPY PUSH2 0x1B91 JUMP JUMPDEST PUSH1 0x60 SWAP2 POP JUMPDEST POP POP SWAP1 POP DUP1 PUSH2 0x1BD5 JUMPI PUSH1 0x40 MLOAD PUSH32 0x8C379A000000000000000000000000000000000000000000000000000000000 DUP2 MSTORE PUSH1 0x4 ADD PUSH2 0x1BCC SWAP1 PUSH2 0x3019 JUMP JUMPDEST PUSH1 0x40 MLOAD DUP1 SWAP2 SUB SWAP1 REVERT JUMPDEST CALLER PUSH20 0xFFFFFFFFFFFFFFFFFFFFFFFFFFFFFFFFFFFFFFFF AND DUP5 PUSH32 0xF440AEC6B52895984D061D622E6EDEBA6210F7C3E059BE920663140C084560D7 DUP5 PUSH1 0x40 MLOAD PUSH2 0x1C1C SWAP2 SWAP1 PUSH2 0x1D2E JUMP JUMPDEST PUSH1 0x40 MLOAD DUP1 SWAP2 SUB SWAP1 LOG3 POP POP POP PUSH2 0x1C2F PUSH2 0x1CA7 JUMP JUMPDEST POP JUMP JUMPDEST PUSH1 0x1 PUSH1 0x14 SWAP1 SLOAD SWAP1 PUSH2 0x100 EXP SWAP1 DIV PUSH1 0xFF AND DUP2 JUMP JUMPDEST PUSH1 0x4 PUSH1 0x20 MSTORE DUP1 PUSH0 MSTORE PUSH1 0x40 PUSH0 KECCAK256 PUSH0 SWAP2 POP SWAP1 POP SLOAD DUP2 JUMP JUMPDEST PUSH1 0x2 PUSH0 SLOAD SUB PUSH2 0x1C9E JUMPI PUSH1 0x40 MLOAD PUSH32 0x8C379A000000000000000000000000000000000000000000000000000000000 DUP2 MSTORE PUSH1 0x4 ADD PUSH2 0x1C95 SWAP1 PUSH2 0x3081 JUMP JUMPDEST PUSH1 0x40 MLOAD DUP1 SWAP2 SUB SWAP1 REVERT JUMPDEST PUSH1 0x2 PUSH0 DUP2 SWAP1 SSTORE POP JUMP JUMPDEST PUSH1 0x1 PUSH0 DUP2 SWAP1 SSTORE POP JUMP JUMPDEST PUSH0 PUSH1 0x40 MLOAD SWAP1 POP SWAP1 JUMP JUMPDEST PUSH0 PUSH0 REVERT JUMPDEST PUSH0 PUSH0 REVERT JUMPDEST PUSH0 DUP2 SWAP1 POP SWAP2 SWAP1 POP JUMP JUMPDEST PUSH2 0x1CD3 DUP2 PUSH2 0x1CC1 JUMP JUMPDEST DUP2 EQ PUSH2 0x1CDD JUMPI PUSH0 PUSH0 REVERT JUMPDEST POP JUMP JUMPDEST PUSH0 DUP2 CALLDATALOAD SWAP1 POP PUSH2 0x1CEE DUP2 PUSH2 0x1CCA JUMP JUMPDEST SWAP3 SWAP2 POP POP JUMP JUMPDEST PUSH0 PUSH1 0x20 DUP3 DUP5 SUB SLT ISZERO PUSH2 0x1D09 JUMPI PUSH2 0x1D08 PUSH2 0x1CB9 JUMP JUMPDEST JUMPDEST PUSH0 PUSH2 0x1D16 DUP5 DUP3 DUP6 ADD PUSH2 0x1CE0 JUMP JUMPDEST SWAP2 POP POP SWAP3 SWAP2 POP POP JUMP JUMPDEST PUSH2 0x1D28 DUP2 PUSH2 0x1CC1 JUMP JUMPDEST DUP3 MSTORE POP POP JUMP JUMPDEST PUSH0 PUSH1 0x20 DUP3 ADD SWAP1 POP PUSH2 0x1D41 PUSH0 DUP4 ADD DUP5 PUSH2 0x1D1F JUMP JUMPDEST SWAP3 SWAP2 POP POP JUMP JUMPDEST PUSH0 DUP2 MLOAD SWAP1 POP SWAP2 SWAP1 POP JUMP JUMPDEST PUSH0 DUP3 DUP3 MSTORE PUSH1 0x20 DUP3 ADD SWAP1 POP SWAP3 SWAP2 POP POP JUMP JUMPDEST DUP3 DUP2 DUP4 MCOPY PUSH0 DUP4 DUP4 ADD MSTORE POP POP POP JUMP JUMPDEST PUSH0 PUSH1 0x1F NOT PUSH1 0x1F DUP4 ADD AND SWAP1 POP SWAP2 SWAP1 POP JUMP JUMPDEST PUSH0 PUSH2 0x1D89 DUP3 PUSH2 0x1D47 JUMP JUMPDEST PUSH2 0x1D93 DUP2 DUP6 PUSH2 0x1D51 JUMP JUMPDEST SWAP4 POP PUSH2 0x1DA3 DUP2 DUP6 PUSH1 0x20 DUP7 ADD PUSH2 0x1D61 JUMP JUMPDEST PUSH2 0x1DAC DUP2 PUSH2 0x1D6F JUMP JUMPDEST DUP5 ADD SWAP2 POP POP SWAP3 SWAP2 POP POP JUMP JUMPDEST PUSH0 PUSH1 0x20 DUP3 ADD SWAP1 POP DUP2 DUP2 SUB PUSH0 DUP4 ADD MSTORE PUSH2 0x1DCF DUP2 DUP5 PUSH2 0x1D7F JUMP JUMPDEST SWAP1 POP SWAP3 SWAP2 POP POP JUMP JUMPDEST PUSH32 0x4E487B7100000000000000000000000000000000000000000000000000000000 PUSH0 MSTORE PUSH1 0x21 PUSH1 0x4 MSTORE PUSH1 0x24 PUSH0 REVERT JUMPDEST PUSH1 0x4 DUP2 LT PUSH2 0x1E15 JUMPI PUSH2 0x1E14 PUSH2 0x1DD7 JUMP JUMPDEST JUMPDEST POP JUMP JUMPDEST PUSH0 DUP2 SWAP1 POP PUSH2 0x1E25 DUP3 PUSH2 0x1E04 JUMP JUMPDEST SWAP2 SWAP1 POP JUMP JUMPDEST PUSH0 PUSH2 0x1E34 DUP3 PUSH2 0x1E18 JUMP JUMPDEST SWAP1 POP SWAP2 SWAP1 POP JUMP JUMPDEST PUSH2 0x1E44 DUP2 PUSH2 0x1E2A JUMP JUMPDEST DUP3 MSTORE POP POP JUMP JUMPDEST PUSH0 PUSH1 0x20 DUP3 ADD SWAP1 POP PUSH2 0x1E5D PUSH0 DUP4 ADD DUP5 PUSH2 0x1E3B JUMP JUMPDEST SWAP3 SWAP2 POP POP JUMP JUMPDEST PUSH0 PUSH20 0xFFFFFFFFFFFFFFFFFFFFFFFFFFFFFFFFFFFFFFFF DUP3 AND SWAP1 POP SWAP2 SWAP1 POP JUMP JUMPDEST PUSH0 PUSH2 0x1E8C DUP3 PUSH2 0x1E63 JUMP JUMPDEST SWAP1 POP SWAP2 SWAP1 POP JUMP JUMPDEST PUSH2 0x1E9C DUP2 PUSH2 0x1E82 JUMP JUMPDEST DUP3 MSTORE POP POP JUMP JUMPDEST PUSH0 DUP2 SWAP1 POP SWAP2 SWAP1 POP JUMP JUMPDEST PUSH2 0x1EB4 DUP2 PUSH2 0x1EA2 JUMP JUMPDEST DUP3 MSTORE POP POP JUMP JUMPDEST PUSH0 DUP2 ISZERO ISZERO SWAP1 POP SWAP2 SWAP1 POP JUMP JUMPDEST PUSH2 0x1ECE DUP2 PUSH2 0x1EBA JUMP JUMPDEST DUP3 MSTORE POP POP JUMP JUMPDEST PUSH0 PUSH2 0x140 DUP3 ADD SWAP1 POP PUSH2 0x1EE8 PUSH0 DUP4 ADD DUP14 PUSH2 0x1D1F JUMP JUMPDEST PUSH2 0x1EF5 PUSH1 0x20 DUP4 ADD DUP13 PUSH2 0x1D1F JUMP JUMPDEST PUSH2 0x1F02 PUSH1 0x40 DUP4 ADD DUP12 PUSH2 0x1E93 JUMP JUMPDEST PUSH2 0x1F0F PUSH1 0x60 DUP4 ADD DUP11 PUSH2 0x1E93 JUMP JUMPDEST PUSH2 0x1F1C PUSH1 0x80 DUP4 ADD DUP10 PUSH2 0x1E3B JUMP JUMPDEST DUP2 DUP2 SUB PUSH1 0xA0 DUP4 ADD MSTORE PUSH2 0x1F2E DUP2 DUP9 PUSH2 0x1D7F JUMP JUMPDEST SWAP1 POP PUSH2 0x1F3D PUSH1 0xC0 DUP4 ADD DUP8 PUSH2 0x1EAB JUMP JUMPDEST PUSH2 0x1F4A PUSH1 0xE0 DUP4 ADD DUP7 PUSH2 0x1EC5 JUMP JUMPDEST PUSH2 0x1F58 PUSH2 0x100 DUP4 ADD DUP6 PUSH2 0x1EC5 JUMP JUMPDEST PUSH2 0x1F66 PUSH2 0x120 DUP4 ADD DUP5 PUSH2 0x1EC5 JUMP JUMPDEST SWAP12 SWAP11 POP POP POP POP POP POP POP POP POP POP POP JUMP JUMPDEST PUSH0 PUSH0 REVERT JUMPDEST PUSH0 PUSH0 REVERT JUMPDEST PUSH32 0x4E487B7100000000000000000000000000000000000000000000000000000000 PUSH0 MSTORE PUSH1 0x41 PUSH1 0x4 MSTORE PUSH1 0x24 PUSH0 REVERT JUMPDEST PUSH2 0x1FB3 DUP3 PUSH2 0x1D6F JUMP JUMPDEST DUP2 ADD DUP2 DUP2 LT PUSH8 0xFFFFFFFFFFFFFFFF DUP3 GT OR ISZERO PUSH2 0x1FD2 JUMPI PUSH2 0x1FD1 PUSH2 0x1F7D JUMP JUMPDEST JUMPDEST DUP1 PUSH1 0x40 MSTORE POP POP POP JUMP JUMPDEST PUSH0 PUSH2 0x1FE4 PUSH2 0x1CB0 JUMP JUMPDEST SWAP1 POP PUSH2 0x1FF0 DUP3 DUP3 PUSH2 0x1FAA JUMP JUMPDEST SWAP2 SWAP1 POP JUMP JUMPDEST PUSH0 PUSH8 0xFFFFFFFFFFFFFFFF DUP3 GT ISZERO PUSH2 0x200F JUMPI PUSH2 0x200E PUSH2 0x1F7D JUMP JUMPDEST JUMPDEST PUSH2 0x2018 DUP3 PUSH2 0x1D6F JUMP JUMPDEST SWAP1 POP PUSH1 0x20 DUP2 ADD SWAP1 POP SWAP2 SWAP1 POP JUMP JUMPDEST DUP3 DUP2 DUP4 CALLDATACOPY PUSH0 DUP4 DUP4 ADD MSTORE POP POP POP JUMP JUMPDEST PUSH0 PUSH2 0x2045 PUSH2 0x2040 DUP5 PUSH2 0x1FF5 JUMP JUMPDEST PUSH2 0x1FDB JUMP JUMPDEST SWAP1 POP DUP3 DUP2 MSTORE PUSH1 0x20 DUP2 ADD DUP5 DUP5 DUP5 ADD GT ISZERO PUSH2 0x2061 JUMPI PUSH2 0x2060 PUSH2 0x1F79 JUMP JUMPDEST JUMPDEST PUSH2 0x206C DUP5 DUP3 DUP6 PUSH2 0x2025 JUMP JUMPDEST POP SWAP4 SWAP3 POP POP POP JUMP JUMPDEST PUSH0 DUP3 PUSH1 0x1F DUP4 ADD SLT PUSH2 0x2088 JUMPI PUSH2 0x2087 PUSH2 0x1F75 JUMP JUMPDEST JUMPDEST DUP2 CALLDATALOAD PUSH2 0x2098 DUP5 DUP3 PUSH1 0x20 DUP7 ADD PUSH2 0x2033 JUMP JUMPDEST SWAP2 POP POP SWAP3 SWAP2 POP POP JUMP JUMPDEST PUSH0 PUSH0 PUSH1 0x40 DUP4 DUP6 SUB SLT ISZERO PUSH2 0x20B7 JUMPI PUSH2 0x20B6 PUSH2 0x1CB9 JUMP JUMPDEST JUMPDEST PUSH0 PUSH2 0x20C4 DUP6 DUP3 DUP7 ADD PUSH2 0x1CE0 JUMP JUMPDEST SWAP3 POP POP PUSH1 0x20 DUP4 ADD CALLDATALOAD PUSH8 0xFFFFFFFFFFFFFFFF DUP2 GT ISZERO PUSH2 0x20E5 JUMPI PUSH2 0x20E4 PUSH2 0x1CBD JUMP JUMPDEST JUMPDEST PUSH2 0x20F1 DUP6 DUP3 DUP7 ADD PUSH2 0x2074 JUMP JUMPDEST SWAP2 POP POP SWAP3 POP SWAP3 SWAP1 POP JUMP JUMPDEST PUSH0 PUSH2 0x2105 DUP3 PUSH2 0x1E63 JUMP JUMPDEST SWAP1 POP SWAP2 SWAP1 POP JUMP JUMPDEST PUSH2 0x2115 DUP2 PUSH2 0x20FB JUMP JUMPDEST DUP2 EQ PUSH2 0x211F JUMPI PUSH0 PUSH0 REVERT JUMPDEST POP JUMP JUMPDEST PUSH0 DUP2 CALLDATALOAD SWAP1 POP PUSH2 0x2130 DUP2 PUSH2 0x210C JUMP JUMPDEST SWAP3 SWAP2 POP POP JUMP JUMPDEST PUSH0 PUSH1 0x20 DUP3 DUP5 SUB SLT ISZERO PUSH2 0x214B JUMPI PUSH2 0x214A PUSH2 0x1CB9 JUMP JUMPDEST JUMPDEST PUSH0 PUSH2 0x2158 DUP5 DUP3 DUP6 ADD PUSH2 0x2122 JUMP JUMPDEST SWAP2 POP POP SWAP3 SWAP2 POP POP JUMP JUMPDEST PUSH2 0x216A DUP2 PUSH2 0x20FB JUMP JUMPDEST DUP3 MSTORE POP POP JUMP JUMPDEST PUSH0 PUSH1 0x20 DUP3 ADD SWAP1 POP PUSH2 0x2183 PUSH0 DUP4 ADD DUP5 PUSH2 0x2161 JUMP JUMPDEST SWAP3 SWAP2 POP POP JUMP JUMPDEST PUSH2 0x2192 DUP2 PUSH2 0x1E82 JUMP JUMPDEST DUP2 EQ PUSH2 0x219C JUMPI PUSH0 PUSH0 REVERT JUMPDEST POP JUMP JUMPDEST PUSH0 DUP2 CALLDATALOAD SWAP1 POP PUSH2 0x21AD DUP2 PUSH2 0x2189 JUMP JUMPDEST SWAP3 SWAP2 POP POP JUMP JUMPDEST PUSH0 PUSH0 PUSH0 PUSH1 0x60 DUP5 DUP7 SUB SLT ISZERO PUSH2 0x21CA JUMPI PUSH2 0x21C9 PUSH2 0x1CB9 JUMP JUMPDEST JUMPDEST PUSH0 PUSH2 0x21D7 DUP7 DUP3 DUP8 ADD PUSH2 0x219F JUMP JUMPDEST SWAP4 POP POP PUSH1 0x20 DUP5 ADD CALLDATALOAD PUSH8 0xFFFFFFFFFFFFFFFF DUP2 GT ISZERO PUSH2 0x21F8 JUMPI PUSH2 0x21F7 PUSH2 0x1CBD JUMP JUMPDEST JUMPDEST PUSH2 0x2204 DUP7 DUP3 DUP8 ADD PUSH2 0x2074 JUMP JUMPDEST SWAP3 POP POP PUSH1 0x40 PUSH2 0x2215 DUP7 DUP3 DUP8 ADD PUSH2 0x1CE0 JUMP JUMPDEST SWAP2 POP POP SWAP3 POP SWAP3 POP SWAP3 JUMP JUMPDEST PUSH0 PUSH1 0x20 DUP3 ADD SWAP1 POP PUSH2 0x2232 PUSH0 DUP4 ADD DUP5 PUSH2 0x1EC5 JUMP JUMPDEST SWAP3 SWAP2 POP POP JUMP JUMPDEST PUSH32 0x4E6F742063726561746F72000000000000000000000000000000000000000000 PUSH0 DUP3 ADD MSTORE POP JUMP JUMPDEST PUSH0 PUSH2 0x226C PUSH1 0xB DUP4 PUSH2 0x1D51 JUMP JUMPDEST SWAP2 POP PUSH2 0x2277 DUP3 PUSH2 0x2238 JUMP JUMPDEST PUSH1 0x20 DUP3 ADD SWAP1 POP SWAP2 SWAP1 POP JUMP JUMPDEST PUSH0 PUSH1 0x20 DUP3 ADD SWAP1 POP DUP2 DUP2 SUB PUSH0 DUP4 ADD MSTORE PUSH2 0x2299 DUP2 PUSH2 0x2260 JUMP JUMPDEST SWAP1 POP SWAP2 SWAP1 POP JUMP JUMPDEST PUSH32 0x4E6F2064656C6976657279000000000000000000000000000000000000000000 PUSH0 DUP3 ADD MSTORE POP JUMP JUMPDEST PUSH0 PUSH2 0x22D4 PUSH1 0xB DUP4 PUSH2 0x1D51 JUMP JUMPDEST SWAP2 POP PUSH2 0x22DF DUP3 PUSH2 0x22A0 JUMP JUMPDEST PUSH1 0x20 DUP3 ADD SWAP1 POP SWAP2 SWAP1 POP JUMP JUMPDEST PUSH0 PUSH1 0x20 DUP3 ADD SWAP1 POP DUP2 DUP2 SUB PUSH0 DUP4 ADD MSTORE PUSH2 0x2301 DUP2 PUSH2 0x22C8 JUMP JUMPDEST SWAP1 POP SWAP2 SWAP1 POP JUMP JUMPDEST PUSH32 0x4E6F74205369676E656400000000000000000000000000000000000000000000 PUSH0 DUP3 ADD MSTORE POP JUMP JUMPDEST PUSH0 PUSH2 0x233C PUSH1 0xA DUP4 PUSH2 0x1D51 JUMP JUMPDEST SWAP2 POP PUSH2 0x2347 DUP3 PUSH2 0x2308 JUMP JUMPDEST PUSH1 0x20 DUP3 ADD SWAP1 POP SWAP2 SWAP1 POP JUMP JUMPDEST PUSH0 PUSH1 0x20 DUP3 ADD SWAP1 POP DUP2 DUP2 SUB PUSH0 DUP4 ADD MSTORE PUSH2 0x2369 DUP2 PUSH2 0x2330 JUMP JUMPDEST SWAP1 POP SWAP2 SWAP1 POP JUMP JUMPDEST PUSH32 0x44656C6976657279206D697373696E6700000000000000000000000000000000 PUSH0 DUP3 ADD MSTORE POP JUMP JUMPDEST PUSH0 PUSH2 0x23A4 PUSH1 0x10 DUP4 PUSH2 0x1D51 JUMP JUMPDEST SWAP2 POP PUSH2 0x23AF DUP3 PUSH2 0x2370 JUMP JUMPDEST PUSH1 0x20 DUP3 ADD SWAP1 POP SWAP2 SWAP1 POP JUMP JUMPDEST PUSH0 PUSH1 0x20 DUP3 ADD SWAP1 POP DUP2 DUP2 SUB PUSH0 DUP4 ADD MSTORE PUSH2 0x23D1 DUP2 PUSH2 0x2398 JUMP JUMPDEST SWAP1 POP SWAP2 SWAP1 POP JUMP JUMPDEST PUSH32 0x416C726561647920617070726F76656400000000000000000000000000000000 PUSH0 DUP3 ADD MSTORE POP JUMP JUMPDEST PUSH0 PUSH2 0x240C PUSH1 0x10 DUP4 PUSH2 0x1D51 JUMP JUMPDEST SWAP2 POP PUSH2 0x2417 DUP3 PUSH2 0x23D8 JUMP JUMPDEST PUSH1 0x20 DUP3 ADD SWAP1 POP SWAP2 SWAP1 POP JUMP JUMPDEST PUSH0 PUSH1 0x20 DUP3 ADD SWAP1 POP DUP2 DUP2 SUB PUSH0 DUP4 ADD MSTORE PUSH2 0x2439 DUP2 PUSH2 0x2400 JUMP JUMPDEST SWAP1 POP SWAP2 SWAP1 POP JUMP JUMPDEST PUSH32 0x4E487B7100000000000000000000000000000000000000000000000000000000 PUSH0 MSTORE PUSH1 0x11 PUSH1 0x4 MSTORE PUSH1 0x24 PUSH0 REVERT JUMPDEST PUSH0 PUSH2 0x2477 DUP3 PUSH2 0x1CC1 JUMP JUMPDEST SWAP2 POP PUSH2 0x2482 DUP4 PUSH2 0x1CC1 JUMP JUMPDEST SWAP3 POP DUP3 DUP3 ADD SWAP1 POP DUP1 DUP3 GT ISZERO PUSH2 0x249A JUMPI PUSH2 0x2499 PUSH2 0x2440 JUMP JUMPDEST JUMPDEST SWAP3 SWAP2 POP POP JUMP JUMPDEST PUSH32 0x4E487B7100000000000000000000000000000000000000000000000000000000 PUSH0 MSTORE PUSH1 0x22 PUSH1 0x4 MSTORE PUSH1 0x24 PUSH0 REVERT JUMPDEST PUSH0 PUSH1 0x2 DUP3 DIV SWAP1 POP PUSH1 0x1 DUP3 AND DUP1 PUSH2 0x24E4 JUMPI PUSH1 0x7F DUP3 AND SWAP2 POP JUMPDEST PUSH1 0x20 DUP3 LT DUP2 SUB PUSH2 0x24F7 JUMPI PUSH2 0x24F6 PUSH2 0x24A0 JUMP JUMPDEST JUMPDEST POP SWAP2 SWAP1 POP JUMP JUMPDEST PUSH32 0x416C726561647920636F6D706C65746564000000000000000000000000000000 PUSH0 DUP3 ADD MSTORE POP JUMP JUMPDEST PUSH0 PUSH2 0x2531 PUSH1 0x11 DUP4 PUSH2 0x1D51 JUMP JUMPDEST SWAP2 POP PUSH2 0x253C DUP3 PUSH2 0x24FD JUMP JUMPDEST PUSH1 0x20 DUP3 ADD SWAP1 POP SWAP2 SWAP1 POP JUMP JUMPDEST PUSH0 PUSH1 0x20 DUP3 ADD SWAP1 POP DUP2 DUP2 SUB PUSH0 DUP4 ADD MSTORE PUSH2 0x255E DUP2 PUSH2 0x2525 JUMP JUMPDEST SWAP1 POP SWAP2 SWAP1 POP JUMP JUMPDEST PUSH32 0x416C72656164792063616E63656C6C6564000000000000000000000000000000 PUSH0 DUP3 ADD MSTORE POP JUMP JUMPDEST PUSH0 PUSH2 0x2599 PUSH1 0x11 DUP4 PUSH2 0x1D51 JUMP JUMPDEST SWAP2 POP PUSH2 0x25A4 DUP3 PUSH2 0x2565 JUMP JUMPDEST PUSH1 0x20 DUP3 ADD SWAP1 POP SWAP2 SWAP1 POP JUMP JUMPDEST PUSH0 PUSH1 0x20 DUP3 ADD SWAP1 POP DUP2 DUP2 SUB PUSH0 DUP4 ADD MSTORE PUSH2 0x25C6 DUP2 PUSH2 0x258D JUMP JUMPDEST SWAP1 POP SWAP2 SWAP1 POP JUMP JUMPDEST PUSH0 DUP2 SWAP1 POP DUP2 PUSH0 MSTORE PUSH1 0x20 PUSH0 KECCAK256 SWAP1 POP SWAP2 SWAP1 POP JUMP JUMPDEST PUSH0 PUSH1 0x20 PUSH1 0x1F DUP4 ADD DIV SWAP1 POP SWAP2 SWAP1 POP JUMP JUMPDEST PUSH0 DUP3 DUP3 SHL SWAP1 POP SWAP3 SWAP2 POP POP JUMP JUMPDEST PUSH0 PUSH1 0x8 DUP4 MUL PUSH2 0x2629 PUSH32 0xFFFFFFFFFFFFFFFFFFFFFFFFFFFFFFFFFFFFFFFFFFFFFFFFFFFFFFFFFFFFFFFF DUP3 PUSH2 0x25EE JUMP JUMPDEST PUSH2 0x2633 DUP7 DUP4 PUSH2 0x25EE JUMP JUMPDEST SWAP6 POP DUP1 NOT DUP5 AND SWAP4 POP DUP1 DUP7 AND DUP5 OR SWAP3 POP POP POP SWAP4 SWAP3 POP POP POP JUMP JUMPDEST PUSH0 DUP2 SWAP1 POP SWAP2 SWAP1 POP JUMP JUMPDEST PUSH0 PUSH2 0x266E PUSH2 0x2669 PUSH2 0x2664 DUP5 PUSH2 0x1CC1 JUMP JUMPDEST PUSH2 0x264B JUMP JUMPDEST PUSH2 0x1CC1 JUMP JUMPDEST SWAP1 POP SWAP2 SWAP1 POP JUMP JUMPDEST PUSH0 DUP2 SWAP1 POP SWAP2 SWAP1 POP JUMP JUMPDEST PUSH2 0x2687 DUP4 PUSH2 0x2654 JUMP JUMPDEST PUSH2 0x269B PUSH2 0x2693 DUP3 PUSH2 0x2675 JUMP JUMPDEST DUP5 DUP5 SLOAD PUSH2 0x25FA JUMP JUMPDEST DUP3 SSTORE POP POP POP POP JUMP JUMPDEST PUSH0 PUSH0 SWAP1 POP SWAP1 JUMP JUMPDEST PUSH2 0x26B2 PUSH2 0x26A3 JUMP JUMPDEST PUSH2 0x26BD DUP2 DUP5 DUP5 PUSH2 0x267E JUMP JUMPDEST POP POP POP JUMP JUMPDEST JUMPDEST DUP2 DUP2 LT ISZERO PUSH2 0x26E0 JUMPI PUSH2 0x26D5 PUSH0 DUP3 PUSH2 0x26AA JUMP JUMPDEST PUSH1 0x1 DUP2 ADD SWAP1 POP PUSH2 0x26C3 JUMP JUMPDEST POP POP JUMP JUMPDEST PUSH1 0x1F DUP3 GT ISZERO PUSH2 0x2725 JUMPI PUSH2 0x26F6 DUP2 PUSH2 0x25CD JUMP JUMPDEST PUSH2 0x26FF DUP5 PUSH2 0x25DF JUMP JUMPDEST DUP2 ADD PUSH1 0x20 DUP6 LT ISZERO PUSH2 0x270E JUMPI DUP2 SWAP1 POP JUMPDEST PUSH2 0x2722 PUSH2 0x271A DUP6 PUSH2 0x25DF JUMP JUMPDEST DUP4 ADD DUP3 PUSH2 0x26C2 JUMP JUMPDEST POP POP JUMPDEST POP POP POP JUMP JUMPDEST PUSH0 DUP3 DUP3 SHR SWAP1 POP SWAP3 SWAP2 POP POP JUMP JUMPDEST PUSH0 PUSH2 0x2745 PUSH0 NOT DUP5 PUSH1 0x8 MUL PUSH2 0x272A JUMP JUMPDEST NOT DUP1 DUP4 AND SWAP2 POP POP SWAP3 SWAP2 POP POP JUMP JUMPDEST PUSH0 PUSH2 0x275D DUP4 DUP4 PUSH2 0x2736 JUMP JUMPDEST SWAP2 POP DUP3 PUSH1 0x2 MUL DUP3 OR SWAP1 POP SWAP3 SWAP2 POP POP JUMP JUMPDEST PUSH2 0x2776 DUP3 PUSH2 0x1D47 JUMP JUMPDEST PUSH8 0xFFFFFFFFFFFFFFFF DUP2 GT ISZERO PUSH2 0x278F JUMPI PUSH2 0x278E PUSH2 0x1F7D JUMP JUMPDEST JUMPDEST PUSH2 0x2799 DUP3 SLOAD PUSH2 0x24CD JUMP JUMPDEST PUSH2 0x27A4 DUP3 DUP3 DUP6 PUSH2 0x26E4 JUMP JUMPDEST PUSH0 PUSH1 0x20 SWAP1 POP PUSH1 0x1F DUP4 GT PUSH1 0x1 DUP2 EQ PUSH2 0x27D5 JUMPI PUSH0 DUP5 ISZERO PUSH2 0x27C3 JUMPI DUP3 DUP8 ADD MLOAD SWAP1 POP JUMPDEST PUSH2 0x27CD DUP6 DUP3 PUSH2 0x2752 JUMP JUMPDEST DUP7 SSTORE POP PUSH2 0x2834 JUMP JUMPDEST PUSH1 0x1F NOT DUP5 AND PUSH2 0x27E3 DUP7 PUSH2 0x25CD JUMP JUMPDEST PUSH0 JUMPDEST DUP3 DUP2 LT ISZERO PUSH2 0x280A JUMPI DUP5 DUP10 ADD MLOAD DUP3 SSTORE PUSH1 0x1 DUP3 ADD SWAP2 POP PUSH1 0x20 DUP6 ADD SWAP5 POP PUSH1 0x20 DUP2 ADD SWAP1 POP PUSH2 0x27E5 JUMP JUMPDEST DUP7 DUP4 LT ISZERO PUSH2 0x2827 JUMPI DUP5 DUP10 ADD MLOAD PUSH2 0x2823 PUSH1 0x1F DUP10 AND DUP3 PUSH2 0x2736 JUMP JUMPDEST DUP4 SSTORE POP JUMPDEST PUSH1 0x1 PUSH1 0x2 DUP9 MUL ADD DUP9 SSTORE POP POP POP JUMPDEST POP POP POP POP POP POP JUMP JUMPDEST PUSH32 0x4E6F7420636F756E746572706172747900000000000000000000000000000000 PUSH0 DUP3 ADD MSTORE POP JUMP JUMPDEST PUSH0 PUSH2 0x2870 PUSH1 0x10 DUP4 PUSH2 0x1D51 JUMP JUMPDEST SWAP2 POP PUSH2 0x287B DUP3 PUSH2 0x283C JUMP JUMPDEST PUSH1 0x20 DUP3 ADD SWAP1 POP SWAP2 SWAP1 POP JUMP JUMPDEST PUSH0 PUSH1 0x20 DUP3 ADD SWAP1 POP DUP2 DUP2 SUB PUSH0 DUP4 ADD MSTORE PUSH2 0x289D DUP2 PUSH2 0x2864 JUMP JUMPDEST SWAP1 POP SWAP2 SWAP1 POP JUMP JUMPDEST PUSH32 0x416C726561647920736574000000000000000000000000000000000000000000 PUSH0 DUP3 ADD MSTORE POP JUMP JUMPDEST PUSH0 PUSH2 0x28D8 PUSH1 0xB DUP4 PUSH2 0x1D51 JUMP JUMPDEST SWAP2 POP PUSH2 0x28E3 DUP3 PUSH2 0x28A4 JUMP JUMPDEST PUSH1 0x20 DUP3 ADD SWAP1 POP SWAP2 SWAP1 POP JUMP JUMPDEST PUSH0 PUSH1 0x20 DUP3 ADD SWAP1 POP DUP2 DUP2 SUB PUSH0 DUP4 ADD MSTORE PUSH2 0x2905 DUP2 PUSH2 0x28CC JUMP JUMPDEST SWAP1 POP SWAP2 SWAP1 POP JUMP JUMPDEST PUSH0 PUSH1 0x40 DUP3 ADD SWAP1 POP PUSH2 0x291F PUSH0 DUP4 ADD DUP6 PUSH2 0x1D1F JUMP JUMPDEST DUP2 DUP2 SUB PUSH1 0x20 DUP4 ADD MSTORE PUSH2 0x2931 DUP2 DUP5 PUSH2 0x1D7F JUMP JUMPDEST SWAP1 POP SWAP4 SWAP3 POP POP POP JUMP JUMPDEST PUSH0 PUSH1 0x20 DUP3 ADD SWAP1 POP PUSH2 0x294D PUSH0 DUP4 ADD DUP5 PUSH2 0x1EAB JUMP JUMPDEST SWAP3 SWAP2 POP POP JUMP JUMPDEST PUSH32 0x4F7261636C6520616C7265616479207365740000000000000000000000000000 PUSH0 DUP3 ADD MSTORE POP JUMP JUMPDEST PUSH0 PUSH2 0x2987 PUSH1 0x12 DUP4 PUSH2 0x1D51 JUMP JUMPDEST SWAP2 POP PUSH2 0x2992 DUP3 PUSH2 0x2953 JUMP JUMPDEST PUSH1 0x20 DUP3 ADD SWAP1 POP SWAP2 SWAP1 POP JUMP JUMPDEST PUSH0 PUSH1 0x20 DUP3 ADD SWAP1 POP DUP2 DUP2 SUB PUSH0 DUP4 ADD MSTORE PUSH2 0x29B4 DUP2 PUSH2 0x297B JUMP JUMPDEST SWAP1 POP SWAP2 SWAP1 POP JUMP JUMPDEST PUSH32 0x496E76616C6964206F7261636C65000000000000000000000000000000000000 PUSH0 DUP3 ADD MSTORE POP JUMP JUMPDEST PUSH0 PUSH2 0x29EF PUSH1 0xE DUP4 PUSH2 0x1D51 JUMP JUMPDEST SWAP2 POP PUSH2 0x29FA DUP3 PUSH2 0x29BB JUMP JUMPDEST PUSH1 0x20 DUP3 ADD SWAP1 POP SWAP2 SWAP1 POP JUMP JUMPDEST PUSH0 PUSH1 0x20 DUP3 ADD SWAP1 POP DUP2 DUP2 SUB PUSH0 DUP4 ADD MSTORE PUSH2 0x2A1C DUP2 PUSH2 0x29E3 JUMP JUMPDEST SWAP1 POP SWAP2 SWAP1 POP JUMP JUMPDEST PUSH32 0x5573652064656C697665727920666C6F77000000000000000000000000000000 PUSH0 DUP3 ADD MSTORE POP JUMP JUMPDEST PUSH0 PUSH2 0x2A57 PUSH1 0x11 DUP4 PUSH2 0x1D51 JUMP JUMPDEST SWAP2 POP PUSH2 0x2A62 DUP3 PUSH2 0x2A23 JUMP JUMPDEST PUSH1 0x20 DUP3 ADD SWAP1 POP SWAP2 SWAP1 POP JUMP JUMPDEST PUSH0 PUSH1 0x20 DUP3 ADD SWAP1 POP DUP2 DUP2 SUB PUSH0 DUP4 ADD MSTORE PUSH2 0x2A84 DUP2 PUSH2 0x2A4B JUMP JUMPDEST SWAP1 POP SWAP2 SWAP1 POP JUMP JUMPDEST PUSH32 0x4E6F742043726561746564000000000000000000000000000000000000000000 PUSH0 DUP3 ADD MSTORE POP JUMP JUMPDEST PUSH0 PUSH2 0x2ABF PUSH1 0xB DUP4 PUSH2 0x1D51 JUMP JUMPDEST SWAP2 POP PUSH2 0x2ACA DUP3 PUSH2 0x2A8B JUMP JUMPDEST PUSH1 0x20 DUP3 ADD SWAP1 POP SWAP2 SWAP1 POP JUMP JUMPDEST PUSH0 PUSH1 0x20 DUP3 ADD SWAP1 POP DUP2 DUP2 SUB PUSH0 DUP4 ADD MSTORE PUSH2 0x2AEC DUP2 PUSH2 0x2AB3 JUMP JUMPDEST SWAP1 POP SWAP2 SWAP1 POP JUMP JUMPDEST PUSH32 0x302061646472206E6F7420616C6C6F7765640000000000000000000000000000 PUSH0 DUP3 ADD MSTORE POP JUMP JUMPDEST PUSH0 PUSH2 0x2B27 PUSH1 0x12 DUP4 PUSH2 0x1D51 JUMP JUMPDEST SWAP2 POP PUSH2 0x2B32 DUP3 PUSH2 0x2AF3 JUMP JUMPDEST PUSH1 0x20 DUP3 ADD SWAP1 POP SWAP2 SWAP1 POP JUMP JUMPDEST PUSH0 PUSH1 0x20 DUP3 ADD SWAP1 POP DUP2 DUP2 SUB PUSH0 DUP4 ADD MSTORE PUSH2 0x2B54 DUP2 PUSH2 0x2B1B JUMP JUMPDEST SWAP1 POP SWAP2 SWAP1 POP JUMP JUMPDEST PUSH32 0x455448206D69736D617463680000000000000000000000000000000000000000 PUSH0 DUP3 ADD MSTORE POP JUMP JUMPDEST PUSH0 PUSH2 0x2B8F PUSH1 0xC DUP4 PUSH2 0x1D51 JUMP JUMPDEST SWAP2 POP PUSH2 0x2B9A DUP3 PUSH2 0x2B5B JUMP JUMPDEST PUSH1 0x20 DUP3 ADD SWAP1 POP SWAP2 SWAP1 POP JUMP JUMPDEST PUSH0 PUSH1 0x20 DUP3 ADD SWAP1 POP DUP2 DUP2 SUB PUSH0 DUP4 ADD MSTORE PUSH2 0x2BBC DUP2 PUSH2 0x2B83 JUMP JUMPDEST SWAP1 POP SWAP2 SWAP1 POP JUMP JUMPDEST PUSH32 0x496E76616C696420636F6E747261637420686173680000000000000000000000 PUSH0 DUP3 ADD MSTORE POP JUMP JUMPDEST PUSH0 PUSH2 0x2BF7 PUSH1 0x15 DUP4 PUSH2 0x1D51 JUMP JUMPDEST SWAP2 POP PUSH2 0x2C02 DUP3 PUSH2 0x2BC3 JUMP JUMPDEST PUSH1 0x20 DUP3 ADD SWAP1 POP SWAP2 SWAP1 POP JUMP JUMPDEST PUSH0 PUSH1 0x20 DUP3 ADD SWAP1 POP DUP2 DUP2 SUB PUSH0 DUP4 ADD MSTORE PUSH2 0x2C24 DUP2 PUSH2 0x2BEB JUMP JUMPDEST SWAP1 POP SWAP2 SWAP1 POP JUMP JUMPDEST PUSH0 PUSH2 0x2C35 DUP3 PUSH2 0x1CC1 JUMP JUMPDEST SWAP2 POP PUSH32 0xFFFFFFFFFFFFFFFFFFFFFFFFFFFFFFFFFFFFFFFFFFFFFFFFFFFFFFFFFFFFFFFF DUP3 SUB PUSH2 0x2C67 JUMPI PUSH2 0x2C66 PUSH2 0x2440 JUMP JUMPDEST JUMPDEST PUSH1 0x1 DUP3 ADD SWAP1 POP SWAP2 SWAP1 POP JUMP JUMPDEST PUSH0 PUSH2 0x2C8C PUSH2 0x2C87 PUSH2 0x2C82 DUP5 PUSH2 0x1E63 JUMP JUMPDEST PUSH2 0x264B JUMP JUMPDEST PUSH2 0x1E63 JUMP JUMPDEST SWAP1 POP SWAP2 SWAP1 POP JUMP JUMPDEST PUSH0 PUSH2 0x2C9D DUP3 PUSH2 0x2C72 JUMP JUMPDEST SWAP1 POP SWAP2 SWAP1 POP JUMP JUMPDEST PUSH0 PUSH2 0x2CAE DUP3 PUSH2 0x2C93 JUMP JUMPDEST SWAP1 POP SWAP2 SWAP1 POP JUMP JUMPDEST PUSH2 0x2CBE DUP2 PUSH2 0x2CA4 JUMP JUMPDEST DUP3 MSTORE POP POP JUMP JUMPDEST PUSH0 PUSH1 0x40 DUP3 ADD SWAP1 POP PUSH2 0x2CD7 PUSH0 DUP4 ADD DUP6 PUSH2 0x2161 JUMP JUMPDEST PUSH2 0x2CE4 PUSH1 0x20 DUP4 ADD DUP5 PUSH2 0x2CB5 JUMP JUMPDEST SWAP4 SWAP3 POP POP POP JUMP JUMPDEST PUSH32 0x4E6F74206F7261636C6500000000000000000000000000000000000000000000 PUSH0 DUP3 ADD MSTORE POP JUMP JUMPDEST PUSH0 PUSH2 0x2D1F PUSH1 0xA DUP4 PUSH2 0x1D51 JUMP JUMPDEST SWAP2 POP PUSH2 0x2D2A DUP3 PUSH2 0x2CEB JUMP JUMPDEST PUSH1 0x20 DUP3 ADD SWAP1 POP SWAP2 SWAP1 POP JUMP JUMPDEST PUSH0 PUSH1 0x20 DUP3 ADD SWAP1 POP DUP2 DUP2 SUB PUSH0 DUP4 ADD MSTORE PUSH2 0x2D4C DUP2 PUSH2 0x2D13 JUMP JUMPDEST SWAP1 POP SWAP2 SWAP1 POP JUMP JUMPDEST PUSH32 0x416C726561647920636F6E6669726D6564000000000000000000000000000000 PUSH0 DUP3 ADD MSTORE POP JUMP JUMPDEST PUSH0 PUSH2 0x2D87 PUSH1 0x11 DUP4 PUSH2 0x1D51 JUMP JUMPDEST SWAP2 POP PUSH2 0x2D92 DUP3 PUSH2 0x2D53 JUMP JUMPDEST PUSH1 0x20 DUP3 ADD SWAP1 POP SWAP2 SWAP1 POP JUMP JUMPDEST PUSH0 PUSH1 0x20 DUP3 ADD SWAP1 POP DUP2 DUP2 SUB PUSH0 DUP4 ADD MSTORE PUSH2 0x2DB4 DUP2 PUSH2 0x2D7B JUMP JUMPDEST SWAP1 POP SWAP2 SWAP1 POP JUMP JUMPDEST PUSH32 0x48617368206D69736D6174636800000000000000000000000000000000000000 PUSH0 DUP3 ADD MSTORE POP JUMP JUMPDEST PUSH0 PUSH2 0x2DEF PUSH1 0xD DUP4 PUSH2 0x1D51 JUMP JUMPDEST SWAP2 POP PUSH2 0x2DFA DUP3 PUSH2 0x2DBB JUMP JUMPDEST PUSH1 0x20 DUP3 ADD SWAP1 POP SWAP2 SWAP1 POP JUMP JUMPDEST PUSH0 PUSH1 0x20 DUP3 ADD SWAP1 POP DUP2 DUP2 SUB PUSH0 DUP4 ADD MSTORE PUSH2 0x2E1C DUP2 PUSH2 0x2DE3 JUMP JUMPDEST SWAP1 POP SWAP2 SWAP1 POP JUMP JUMPDEST PUSH32 0x4E6F7420636F6D706C6574656400000000000000000000000000000000000000 PUSH0 DUP3 ADD MSTORE POP JUMP JUMPDEST PUSH0 PUSH2 0x2E57 PUSH1 0xD DUP4 PUSH2 0x1D51 JUMP JUMPDEST SWAP2 POP PUSH2 0x2E62 DUP3 PUSH2 0x2E23 JUMP JUMPDEST PUSH1 0x20 DUP3 ADD SWAP1 POP SWAP2 SWAP1 POP JUMP JUMPDEST PUSH0 PUSH1 0x20 DUP3 ADD SWAP1 POP DUP2 DUP2 SUB PUSH0 DUP4 ADD MSTORE PUSH2 0x2E84 DUP2 PUSH2 0x2E4B JUMP JUMPDEST SWAP1 POP SWAP2 SWAP1 POP JUMP JUMPDEST PUSH32 0x4E6F7420726563697069656E7400000000000000000000000000000000000000 PUSH0 DUP3 ADD MSTORE POP JUMP JUMPDEST PUSH0 PUSH2 0x2EBF PUSH1 0xD DUP4 PUSH2 0x1D51 JUMP JUMPDEST SWAP2 POP PUSH2 0x2ECA DUP3 PUSH2 0x2E8B JUMP JUMPDEST PUSH1 0x20 DUP3 ADD SWAP1 POP SWAP2 SWAP1 POP JUMP JUMPDEST PUSH0 PUSH1 0x20 DUP3 ADD SWAP1 POP DUP2 DUP2 SUB PUSH0 DUP4 ADD MSTORE PUSH2 0x2EEC DUP2 PUSH2 0x2EB3 JUMP JUMPDEST SWAP1 POP SWAP2 SWAP1 POP JUMP JUMPDEST PUSH32 0x4E6F2062616C616E636500000000000000000000000000000000000000000000 PUSH0 DUP3 ADD MSTORE POP JUMP JUMPDEST PUSH0 PUSH2 0x2F27 PUSH1 0xA DUP4 PUSH2 0x1D51 JUMP JUMPDEST SWAP2 POP PUSH2 0x2F32 DUP3 PUSH2 0x2EF3 JUMP JUMPDEST PUSH1 0x20 DUP3 ADD SWAP1 POP SWAP2 SWAP1 POP JUMP JUMPDEST PUSH0 PUSH1 0x20 DUP3 ADD SWAP1 POP DUP2 DUP2 SUB PUSH0 DUP4 ADD MSTORE PUSH2 0x2F54 DUP2 PUSH2 0x2F1B JUMP JUMPDEST SWAP1 POP SWAP2 SWAP1 POP JUMP JUMPDEST PUSH0 PUSH2 0x2F65 DUP3 PUSH2 0x1CC1 JUMP JUMPDEST SWAP2 POP PUSH2 0x2F70 DUP4 PUSH2 0x1CC1 JUMP JUMPDEST SWAP3 POP DUP3 DUP3 SUB SWAP1 POP DUP2 DUP2 GT ISZERO PUSH2 0x2F88 JUMPI PUSH2 0x2F87 PUSH2 0x2440 JUMP JUMPDEST JUMPDEST SWAP3 SWAP2 POP POP JUMP JUMPDEST PUSH0 DUP2 SWAP1 POP SWAP3 SWAP2 POP POP JUMP JUMPDEST POP JUMP JUMPDEST PUSH0 PUSH2 0x2FA6 PUSH0 DUP4 PUSH2 0x2F8E JUMP JUMPDEST SWAP2 POP PUSH2 0x2FB1 DUP3 PUSH2 0x2F98 JUMP JUMPDEST PUSH0 DUP3 ADD SWAP1 POP SWAP2 SWAP1 POP JUMP JUMPDEST PUSH0 PUSH2 0x2FC5 DUP3 PUSH2 0x2F9B JUMP JUMPDEST SWAP2 POP DUP2 SWAP1 POP SWAP2 SWAP1 POP JUMP JUMPDEST PUSH32 0x5769746864726177206661696C65640000000000000000000000000000000000 PUSH0 DUP3 ADD MSTORE POP JUMP JUMPDEST PUSH0 PUSH2 0x3003 PUSH1 0xF DUP4 PUSH2 0x1D51 JUMP JUMPDEST SWAP2 POP PUSH2 0x300E DUP3 PUSH2 0x2FCF JUMP JUMPDEST PUSH1 0x20 DUP3 ADD SWAP1 POP SWAP2 SWAP1 POP JUMP JUMPDEST PUSH0 PUSH1 0x20 DUP3 ADD SWAP1 POP DUP2 DUP2 SUB PUSH0 DUP4 ADD MSTORE PUSH2 0x3030 DUP2 PUSH2 0x2FF7 JUMP JUMPDEST SWAP1 POP SWAP2 SWAP1 POP JUMP JUMPDEST PUSH32 0x5265656E7472616E637947756172643A207265656E7472616E742063616C6C00 PUSH0 DUP3 ADD MSTORE POP JUMP JUMPDEST PUSH0 PUSH2 0x306B PUSH1 0x1F DUP4 PUSH2 0x1D51 JUMP JUMPDEST SWAP2 POP PUSH2 0x3076 DUP3 PUSH2 0x3037 JUMP JUMPDEST PUSH1 0x20 DUP3 ADD SWAP1 POP SWAP2 SWAP1 POP JUMP JUMPDEST PUSH0 PUSH1 0x20 DUP3 ADD SWAP1 POP DUP2 DUP2 SUB PUSH0 DUP4 ADD MSTORE PUSH2 0x3098 DUP2 PUSH2 0x305F JUMP JUMPDEST SWAP1 POP SWAP2 SWAP1 POP JUMP INVALID LOG2 PUSH5 0x6970667358 0x22 SLT KECCAK256 0xB5 DUP15 PUSH19 0xA855A0F2C905C5E2E60E14427E9B407C42B505 DUP9 0xC9 EXTCODESIZE PUSH4 0x145D2476 SSTORE 0xDD PUSH5 0x736F6C6343 STOP ADDMOD 0x1E STOP CALLER "
		},
		"gasEstimates": {
			"creation": {
				"codeDepositCost": "2500200",
				"executionCost": "24806",
				"totalCost": "2525006"
			},
			"external": {
				"approveDeliveryAsCreator(uint256)": "infinite",
				"confirmCompletion(uint256)": "infinite",
				"confirmDeliveryByOracle(uint256,string)": "infinite",
				"contractCounter()": "2471",
				"contracts(uint256)": "infinite",
				"createContract(address,string,uint256)": "infinite",
				"deactivateContract(uint256)": "infinite",
				"getContractHash(uint256)": "infinite",
				"getContractStatus(uint256)": "3045",
				"oracle()": "2531",
				"oracleSet()": "2583",
				"pendingWithdrawals(address)": "2890",
				"setDeliveryTracking(uint256,string)": "infinite",
				"setOracle(address)": "54725",
				"signContract(uint256)": "30576",
				"withdrawFundsFrom(uint256)": "infinite"
			}
		},
		"methodIdentifiers": {
			"approveDeliveryAsCreator(uint256)": "032ca42d",
			"confirmCompletion(uint256)": "94aeb613",
			"confirmDeliveryByOracle(uint256,string)": "c43bf3c2",
			"contractCounter()": "067bd3b4",
			"contracts(uint256)": "474da79a",
			"createContract(address,string,uint256)": "9ce5b6ca",
			"deactivateContract(uint256)": "22a45cd0",
			"getContractHash(uint256)": "0e9f0816",
			"getContractStatus(uint256)": "17b18458",
			"oracle()": "7dc0d1d0",
			"oracleSet()": "edb3b27a",
			"pendingWithdrawals(address)": "f3f43703",
			"setDeliveryTracking(uint256,string)": "54b7b6d3",
			"setOracle(address)": "7adbf973",
			"signContract(uint256)": "9537e8d1",
			"withdrawFundsFrom(uint256)": "df5c2980"
		}
	},
	"abi": [
		{
			"anonymous": false,
			"inputs": [
				{
					"indexed": true,
					"internalType": "uint256",
					"name": "contractId",
					"type": "uint256"
				},
				{
					"indexed": false,
					"internalType": "address",
					"name": "creator",
					"type": "address"
				},
				{
					"indexed": false,
					"internalType": "address",
					"name": "counterparty",
					"type": "address"
				}
			],
			"name": "ContractCreated",
			"type": "event"
		},
		{
			"anonymous": false,
			"inputs": [
				{
					"indexed": true,
					"internalType": "uint256",
					"name": "contractId",
					"type": "uint256"
				}
			],
			"name": "ContractDeactivated",
			"type": "event"
		},
		{
			"anonymous": false,
			"inputs": [
				{
					"indexed": true,
					"internalType": "uint256",
					"name": "contractId",
					"type": "uint256"
				}
			],
			"name": "ContractSigned",
			"type": "event"
		},
		{
			"anonymous": false,
			"inputs": [
				{
					"indexed": true,
					"internalType": "uint256",
					"name": "contractId",
					"type": "uint256"
				}
			],
			"name": "DeliveryApproved",
			"type": "event"
		},
		{
			"anonymous": false,
			"inputs": [
				{
					"indexed": true,
					"internalType": "uint256",
					"name": "contractId",
					"type": "uint256"
				}
			],
			"name": "DeliveryConfirmed",
			"type": "event"
		},
		{
			"anonymous": false,
			"inputs": [
				{
					"indexed": true,
					"internalType": "uint256",
					"name": "contractId",
					"type": "uint256"
				},
				{
					"indexed": true,
					"internalType": "address",
					"name": "account",
					"type": "address"
				},
				{
					"indexed": false,
					"internalType": "uint256",
					"name": "amount",
					"type": "uint256"
				}
			],
			"name": "FundsWithdrawn",
			"type": "event"
		},
		{
			"anonymous": false,
			"inputs": [
				{
					"indexed": true,
					"internalType": "address",
					"name": "oracle",
					"type": "address"
				}
			],
			"name": "OracleSet",
			"type": "event"
		},
		{
			"anonymous": false,
			"inputs": [
				{
					"indexed": true,
					"internalType": "uint256",
					"name": "contractId",
					"type": "uint256"
				},
				{
					"indexed": true,
					"internalType": "address",
					"name": "to",
					"type": "address"
				},
				{
					"indexed": false,
					"internalType": "uint256",
					"name": "amount",
					"type": "uint256"
				}
			],
			"name": "PaymentReleased",
			"type": "event"
		},
		{
			"anonymous": false,
			"inputs": [
				{
					"indexed": true,
					"internalType": "uint256",
					"name": "contractId",
					"type": "uint256"
				},
				{
					"indexed": false,
					"internalType": "bytes32",
					"name": "trackingHash",
					"type": "bytes32"
				}
			],
			"name": "TrackingHashSet",
			"type": "event"
		},
		{
			"inputs": [
				{
					"internalType": "uint256",
					"name": "_contractId",
					"type": "uint256"
				}
			],
			"name": "approveDeliveryAsCreator",
			"outputs": [],
			"stateMutability": "nonpayable",
			"type": "function"
		},
		{
			"inputs": [
				{
					"internalType": "uint256",
					"name": "_contractId",
					"type": "uint256"
				}
			],
			"name": "confirmCompletion",
			"outputs": [],
			"stateMutability": "nonpayable",
			"type": "function"
		},
		{
			"inputs": [
				{
					"internalType": "uint256",
					"name": "_contractId",
					"type": "uint256"
				},
				{
					"internalType": "string",
					"name": "_trackingNumber",
					"type": "string"
				}
			],
			"name": "confirmDeliveryByOracle",
			"outputs": [],
			"stateMutability": "nonpayable",
			"type": "function"
		},
		{
			"inputs": [],
			"name": "contractCounter",
			"outputs": [
				{
					"internalType": "uint256",
					"name": "",
					"type": "uint256"
				}
			],
			"stateMutability": "view",
			"type": "function"
		},
		{
			"inputs": [
				{
					"internalType": "uint256",
					"name": "",
					"type": "uint256"
				}
			],
			"name": "contracts",
			"outputs": [
				{
					"internalType": "uint256",
					"name": "id",
					"type": "uint256"
				},
				{
					"internalType": "uint256",
					"name": "amount",
					"type": "uint256"
				},
				{
					"internalType": "address payable",
					"name": "creator",
					"type": "address"
				},
				{
					"internalType": "address payable",
					"name": "counterparty",
					"type": "address"
				},
				{
					"internalType": "enum ContractManager.ContractStatus",
					"name": "status",
					"type": "uint8"
				},
				{
					"internalType": "string",
					"name": "contractHash",
					"type": "string"
				},
				{
					"internalType": "bytes32",
					"name": "deliveryTrackingHash",
					"type": "bytes32"
				},
				{
					"internalType": "bool",
					"name": "deliveryRequired",
					"type": "bool"
				},
				{
					"internalType": "bool",
					"name": "deliveryConfirmed",
					"type": "bool"
				},
				{
					"internalType": "bool",
					"name": "deliveryApprovedByCreator",
					"type": "bool"
				}
			],
			"stateMutability": "view",
			"type": "function"
		},
		{
			"inputs": [
				{
					"internalType": "address payable",
					"name": "_counterparty",
					"type": "address"
				},
				{
					"internalType": "string",
					"name": "_contractHash",
					"type": "string"
				},
				{
					"internalType": "uint256",
					"name": "_amount",
					"type": "uint256"
				}
			],
			"name": "createContract",
			"outputs": [],
			"stateMutability": "payable",
			"type": "function"
		},
		{
			"inputs": [
				{
					"internalType": "uint256",
					"name": "_contractId",
					"type": "uint256"
				}
			],
			"name": "deactivateContract",
			"outputs": [],
			"stateMutability": "nonpayable",
			"type": "function"
		},
		{
			"inputs": [
				{
					"internalType": "uint256",
					"name": "_contractId",
					"type": "uint256"
				}
			],
			"name": "getContractHash",
			"outputs": [
				{
					"internalType": "string",
					"name": "",
					"type": "string"
				}
			],
			"stateMutability": "view",
			"type": "function"
		},
		{
			"inputs": [
				{
					"internalType": "uint256",
					"name": "_contractId",
					"type": "uint256"
				}
			],
			"name": "getContractStatus",
			"outputs": [
				{
					"internalType": "enum ContractManager.ContractStatus",
					"name": "",
					"type": "uint8"
				}
			],
			"stateMutability": "view",
			"type": "function"
		},
		{
			"inputs": [],
			"name": "oracle",
			"outputs": [
				{
					"internalType": "address",
					"name": "",
					"type": "address"
				}
			],
			"stateMutability": "view",
			"type": "function"
		},
		{
			"inputs": [],
			"name": "oracleSet",
			"outputs": [
				{
					"internalType": "bool",
					"name": "",
					"type": "bool"
				}
			],
			"stateMutability": "view",
			"type": "function"
		},
		{
			"inputs": [
				{
					"internalType": "address",
					"name": "",
					"type": "address"
				}
			],
			"name": "pendingWithdrawals",
			"outputs": [
				{
					"internalType": "uint256",
					"name": "",
					"type": "uint256"
				}
			],
			"stateMutability": "view",
			"type": "function"
		},
		{
			"inputs": [
				{
					"internalType": "uint256",
					"name": "_contractId",
					"type": "uint256"
				},
				{
					"internalType": "string",
					"name": "_trackingNumber",
					"type": "string"
				}
			],
			"name": "setDeliveryTracking",
			"outputs": [],
			"stateMutability": "nonpayable",
			"type": "function"
		},
		{
			"inputs": [
				{
					"internalType": "address",
					"name": "_oracle",
					"type": "address"
				}
			],
			"name": "setOracle",
			"outputs": [],
			"stateMutability": "nonpayable",
			"type": "function"
		},
		{
			"inputs": [
				{
					"internalType": "uint256",
					"name": "_contractId",
					"type": "uint256"
				}
			],
			"name": "signContract",
			"outputs": [],
			"stateMutability": "nonpayable",
			"type": "function"
		},
		{
			"inputs": [
				{
					"internalType": "uint256",
					"name": "_contractId",
					"type": "uint256"
				}
			],
			"name": "withdrawFundsFrom",
			"outputs": [],
			"stateMutability": "nonpayable",
			"type": "function"
		}
	]
}