{
	"data": {
		"bytecode": {
			"linkReferences": {},
			"object": "6080604052348015600e575f5ffd5b5060015f819055506124ef806100235f395ff3fe6080604052600436106100e7575f3560e01c806394aeb61311610089578063df5c298011610058578063df5c2980146102ca578063edb3b27a146102f2578063f3f437031461031c578063f436199d14610358576100e7565b806394aeb613146102365780639537e8d11461025e5780639cc437ba14610286578063a78d9bab146102a2576100e7565b806322a45cd0116100c557806322a45cd014610179578063474da79a146101a15780637adbf973146101e45780637dc0d1d01461020c576100e7565b8063032ca42d146100eb578063067bd3b41461011357806317b184581461013d575b5f5ffd5b3480156100f6575f5ffd5b50610111600480360381019061010c919061188f565b610380565b005b34801561011e575f5ffd5b506101276105fd565b60405161013491906118c9565b60405180910390f35b348015610148575f5ffd5b50610163600480360381019061015e919061188f565b610603565b6040516101709190611955565b60405180910390f35b348015610184575f5ffd5b5061019f600480360381019061019a919061188f565b61062d565b005b3480156101ac575f5ffd5b506101c760048036038101906101c2919061188f565b61086b565b6040516101db9897969594939291906119df565b60405180910390f35b3480156101ef575f5ffd5b5061020a60048036038101906102059190611a96565b610906565b005b348015610217575f5ffd5b50610220610a64565b60405161022d9190611ad0565b60405180910390f35b348015610241575f5ffd5b5061025c6004803603810190610257919061188f565b610a89565b005b348015610269575f5ffd5b50610284600480360381019061027f919061188f565b610d2a565b005b6102a0600480360381019061029b9190611b3d565b610eb6565b005b3480156102ad575f5ffd5b506102c860048036038101906102c39190611b8d565b6110a1565b005b3480156102d5575f5ffd5b506102f060048036038101906102eb919061188f565b6112b1565b005b3480156102fd575f5ffd5b506103066115d0565b6040516103139190611bcb565b60405180910390f35b348015610327575f5ffd5b50610342600480360381019061033d9190611a96565b6115e3565b60405161034f91906118c9565b60405180910390f35b348015610363575f5ffd5b5061037e60048036038101906103799190611b8d565b6115f8565b005b8060025f8281526020019081526020015f206002015f9054906101000a900473ffffffffffffffffffffffffffffffffffffffff1673ffffffffffffffffffffffffffffffffffffffff163373ffffffffffffffffffffffffffffffffffffffff1614610422576040517f08c379a000000000000000000000000000000000000000000000000000000000815260040161041990611c3e565b60405180910390fd5b5f60025f8481526020019081526020015f2090506003600781111561044a576104496118e2565b5b8160030160149054906101000a900460ff16600781111561046e5761046d6118e2565b5b146104ae576040517f08c379a00000000000000000000000000000000000000000000000000000000081526004016104a590611ca6565b60405180910390fd5b60048160030160146101000a81548160ff021916908360078111156104d6576104d56118e2565b5b0217905550806001015460045f836003015f9054906101000a900473ffffffffffffffffffffffffffffffffffffffff1673ffffffffffffffffffffffffffffffffffffffff1673ffffffffffffffffffffffffffffffffffffffff1681526020019081526020015f205f82825461054e9190611cf1565b92505081905550827f5c1e662f72ee6c85181b65fac5beb0390932b8c472f05b257151d041ac9ddffa60405160405180910390a2806003015f9054906101000a900473ffffffffffffffffffffffffffffffffffffffff1673ffffffffffffffffffffffffffffffffffffffff16837f21d71db5be59bb9fa133895586b7404307dd33fb93b16db09dc6f1d9d7d231b083600101546040516105f091906118c9565b60405180910390a3505050565b60035481565b5f60025f8381526020019081526020015f2060030160149054906101000a900460ff169050919050565b8060025f8281526020019081526020015f206003015f9054906101000a900473ffffffffffffffffffffffffffffffffffffffff1673ffffffffffffffffffffffffffffffffffffffff163373ffffffffffffffffffffffffffffffffffffffff16146106cf576040517f08c379a00000000000000000000000000000000000000000000000000000000081526004016106c690611d6e565b60405180910390fd5b8160025f8281526020019081526020015f206002015f9054906101000a900473ffffffffffffffffffffffffffffffffffffffff1673ffffffffffffffffffffffffffffffffffffffff163373ffffffffffffffffffffffffffffffffffffffff1614610771576040517f08c379a000000000000000000000000000000000000000000000000000000000815260040161076890611c3e565b60405180910390fd5b5f60025f8581526020019081526020015f20905060066007811115610799576107986118e2565b5b8160030160149054906101000a900460ff1660078111156107bd576107bc6118e2565b5b146107fd576040517f08c379a00000000000000000000000000000000000000000000000000000000081526004016107f490611dd6565b60405180910390fd5b806004015f9055806005015f905560078160030160146101000a81548160ff02191690836007811115610833576108326118e2565b5b0217905550837f741b099f015e1976cfa72a7448a8fb1d54eab1d616241b562cfbe603a2b61b4260405160405180910390a250505050565b6002602052805f5260405f205f91509050805f015490806001015490806002015f9054906101000a900473ffffffffffffffffffffffffffffffffffffffff1690806003015f9054906101000a900473ffffffffffffffffffffffffffffffffffffffff16908060030160149054906101000a900460ff1690806004015490806005015490806006015f9054906101000a900460ff16905088565b600160149054906101000a900460ff1615610956576040517f08c379a000000000000000000000000000000000000000000000000000000000815260040161094d90611e3e565b60405180910390fd5b5f73ffffffffffffffffffffffffffffffffffffffff168173ffffffffffffffffffffffffffffffffffffffff16036109c4576040517f08c379a00000000000000000000000000000000000000000000000000000000081526004016109bb90611ea6565b60405180910390fd5b8060015f6101000a81548173ffffffffffffffffffffffffffffffffffffffff021916908373ffffffffffffffffffffffffffffffffffffffff16021790555060018060146101000a81548160ff0219169083151502179055508073ffffffffffffffffffffffffffffffffffffffff167f3f32684a32a11dabdbb8c0177de80aa3ae36a004d75210335b49e544e48cd0aa60405160405180910390a250565b60015f9054906101000a900473ffffffffffffffffffffffffffffffffffffffff1681565b8060025f8281526020019081526020015f206002015f9054906101000a900473ffffffffffffffffffffffffffffffffffffffff1673ffffffffffffffffffffffffffffffffffffffff163373ffffffffffffffffffffffffffffffffffffffff1614610b2b576040517f08c379a0000000000000000000000000000000000000000000000000000000008152600401610b2290611c3e565b60405180910390fd5b5f60025f8481526020019081526020015f20905060016007811115610b5357610b526118e2565b5b8160030160149054906101000a900460ff166007811115610b7757610b766118e2565b5b14610bb7576040517f08c379a0000000000000000000000000000000000000000000000000000000008152600401610bae90611f0e565b60405180910390fd5b806006015f9054906101000a900460ff1615610c08576040517f08c379a0000000000000000000000000000000000000000000000000000000008152600401610bff90611f76565b60405180910390fd5b60058160030160146101000a81548160ff02191690836007811115610c3057610c2f6118e2565b5b0217905550806001015460045f836003015f9054906101000a900473ffffffffffffffffffffffffffffffffffffffff1673ffffffffffffffffffffffffffffffffffffffff1673ffffffffffffffffffffffffffffffffffffffff1681526020019081526020015f205f828254610ca89190611cf1565b92505081905550806003015f9054906101000a900473ffffffffffffffffffffffffffffffffffffffff1673ffffffffffffffffffffffffffffffffffffffff16837f21d71db5be59bb9fa133895586b7404307dd33fb93b16db09dc6f1d9d7d231b08360010154604051610d1d91906118c9565b60405180910390a3505050565b8060025f8281526020019081526020015f206003015f9054906101000a900473ffffffffffffffffffffffffffffffffffffffff1673ffffffffffffffffffffffffffffffffffffffff163373ffffffffffffffffffffffffffffffffffffffff1614610dcc576040517f08c379a0000000000000000000000000000000000000000000000000000000008152600401610dc390611d6e565b60405180910390fd5b5f60025f8481526020019081526020015f2090505f6007811115610df357610df26118e2565b5b8160030160149054906101000a900460ff166007811115610e1757610e166118e2565b5b14610e57576040517f08c379a0000000000000000000000000000000000000000000000000000000008152600401610e4e90611fde565b60405180910390fd5b60018160030160146101000a81548160ff02191690836007811115610e7f57610e7e6118e2565b5b0217905550827faf3c49f5413fd292e2325b0fe214de144a222b00cb6ec21214fdc04b5d6c591360405160405180910390a2505050565b5f73ffffffffffffffffffffffffffffffffffffffff168373ffffffffffffffffffffffffffffffffffffffff1603610f24576040517f08c379a0000000000000000000000000000000000000000000000000000000008152600401610f1b90612046565b60405180910390fd5b803414610f66576040517f08c379a0000000000000000000000000000000000000000000000000000000008152600401610f5d906120ae565b60405180910390fd5b60035f815480929190610f78906120cc565b91905055505f60025f60035481526020019081526020015f209050600354815f018190555081816001018190555033816002015f6101000a81548173ffffffffffffffffffffffffffffffffffffffff021916908373ffffffffffffffffffffffffffffffffffffffff16021790555083816003015f6101000a81548173ffffffffffffffffffffffffffffffffffffffff021916908373ffffffffffffffffffffffffffffffffffffffff1602179055505f8160030160146101000a81548160ff02191690836007811115611051576110506118e2565b5b02179055508281600401819055506003547f56560a52c047ed21fd801bf0f345b23d9af696f7922ff8e63101af5d48caddab338660405161109392919061216e565b60405180910390a250505050565b60015f9054906101000a900473ffffffffffffffffffffffffffffffffffffffff1673ffffffffffffffffffffffffffffffffffffffff163373ffffffffffffffffffffffffffffffffffffffff1614611130576040517f08c379a0000000000000000000000000000000000000000000000000000000008152600401611127906121df565b60405180910390fd5b5f60025f8481526020019081526020015f20905060026007811115611158576111576118e2565b5b8160030160149054906101000a900460ff16600781111561117c5761117b6118e2565b5b146111bc576040517f08c379a00000000000000000000000000000000000000000000000000000000081526004016111b390611ca6565b60405180910390fd5b806006015f9054906101000a900460ff1661120c576040517f08c379a000000000000000000000000000000000000000000000000000000000815260040161120390612247565b60405180910390fd5b81816005015414611252576040517f08c379a0000000000000000000000000000000000000000000000000000000008152600401611249906122af565b60405180910390fd5b60038160030160146101000a81548160ff0219169083600781111561127a576112796118e2565b5b0217905550827f375b4005eeae25d0e37d56e1b3841d3bb394b277efa2548de3293f5dcb7a349360405160405180910390a2505050565b6112b961180b565b8060025f8281526020019081526020015f206003015f9054906101000a900473ffffffffffffffffffffffffffffffffffffffff1673ffffffffffffffffffffffffffffffffffffffff163373ffffffffffffffffffffffffffffffffffffffff161461135b576040517f08c379a000000000000000000000000000000000000000000000000000000000815260040161135290611d6e565b60405180910390fd5b5f60025f8481526020019081526020015f20905060056007811115611383576113826118e2565b5b8160030160149054906101000a900460ff1660078111156113a7576113a66118e2565b5b14806113e85750600460078111156113c2576113c16118e2565b5b8160030160149054906101000a900460ff1660078111156113e6576113e56118e2565b5b145b611427576040517f08c379a000000000000000000000000000000000000000000000000000000000815260040161141e90612317565b60405180910390fd5b5f816001015490508060045f3373ffffffffffffffffffffffffffffffffffffffff1673ffffffffffffffffffffffffffffffffffffffff1681526020019081526020015f205410156114af576040517f08c379a00000000000000000000000000000000000000000000000000000000081526004016114a69061237f565b60405180910390fd5b8060045f3373ffffffffffffffffffffffffffffffffffffffff1673ffffffffffffffffffffffffffffffffffffffff1681526020019081526020015f205f8282546114fb919061239d565b9250508190555060068260030160146101000a81548160ff0219169083600781111561152a576115296118e2565b5b02179055503373ffffffffffffffffffffffffffffffffffffffff166108fc8290811502906040515f60405180830381858888f19350505050158015611572573d5f5f3e3d5ffd5b503373ffffffffffffffffffffffffffffffffffffffff16847ff440aec6b52895984d061d622e6edeba6210f7c3e059be920663140c084560d7836040516115ba91906118c9565b60405180910390a35050506115cd61184f565b50565b600160149054906101000a900460ff1681565b6004602052805f5260405f205f915090505481565b8160025f8281526020019081526020015f206003015f9054906101000a900473ffffffffffffffffffffffffffffffffffffffff1673ffffffffffffffffffffffffffffffffffffffff163373ffffffffffffffffffffffffffffffffffffffff161461169a576040517f08c379a000000000000000000000000000000000000000000000000000000000815260040161169190611d6e565b60405180910390fd5b5f60025f8581526020019081526020015f209050600160078111156116c2576116c16118e2565b5b8160030160149054906101000a900460ff1660078111156116e6576116e56118e2565b5b14611726576040517f08c379a000000000000000000000000000000000000000000000000000000000815260040161171d9061241a565b60405180910390fd5b806006015f9054906101000a900460ff1615611777576040517f08c379a000000000000000000000000000000000000000000000000000000000815260040161176e90612482565b60405180910390fd5b8281600501819055506001816006015f6101000a81548160ff02191690831515021790555060028160030160146101000a81548160ff021916908360078111156117c4576117c36118e2565b5b0217905550837f4b70739c5f0bd46e19773020c599342cdbdc3ac59b5e0abfdd9c1bb441be59c882600501546040516117fd91906124a0565b60405180910390a250505050565b60025f5403611846576040517f3ee5aeb500000000000000000000000000000000000000000000000000000000815260040160405180910390fd5b60025f81905550565b60015f81905550565b5f5ffd5b5f819050919050565b61186e8161185c565b8114611878575f5ffd5b50565b5f8135905061188981611865565b92915050565b5f602082840312156118a4576118a3611858565b5b5f6118b18482850161187b565b91505092915050565b6118c38161185c565b82525050565b5f6020820190506118dc5f8301846118ba565b92915050565b7f4e487b71000000000000000000000000000000000000000000000000000000005f52602160045260245ffd5b600881106119205761191f6118e2565b5b50565b5f8190506119308261190f565b919050565b5f61193f82611923565b9050919050565b61194f81611935565b82525050565b5f6020820190506119685f830184611946565b92915050565b5f73ffffffffffffffffffffffffffffffffffffffff82169050919050565b5f6119978261196e565b9050919050565b6119a78161198d565b82525050565b5f819050919050565b6119bf816119ad565b82525050565b5f8115159050919050565b6119d9816119c5565b82525050565b5f610100820190506119f35f83018b6118ba565b611a00602083018a6118ba565b611a0d604083018961199e565b611a1a606083018861199e565b611a276080830187611946565b611a3460a08301866119b6565b611a4160c08301856119b6565b611a4e60e08301846119d0565b9998505050505050505050565b5f611a658261196e565b9050919050565b611a7581611a5b565b8114611a7f575f5ffd5b50565b5f81359050611a9081611a6c565b92915050565b5f60208284031215611aab57611aaa611858565b5b5f611ab884828501611a82565b91505092915050565b611aca81611a5b565b82525050565b5f602082019050611ae35f830184611ac1565b92915050565b611af28161198d565b8114611afc575f5ffd5b50565b5f81359050611b0d81611ae9565b92915050565b611b1c816119ad565b8114611b26575f5ffd5b50565b5f81359050611b3781611b13565b92915050565b5f5f5f60608486031215611b5457611b53611858565b5b5f611b6186828701611aff565b9350506020611b7286828701611b29565b9250506040611b838682870161187b565b9150509250925092565b5f5f60408385031215611ba357611ba2611858565b5b5f611bb08582860161187b565b9250506020611bc185828601611b29565b9150509250929050565b5f602082019050611bde5f8301846119d0565b92915050565b5f82825260208201905092915050565b7f4e6f742063726561746f720000000000000000000000000000000000000000005f82015250565b5f611c28600b83611be4565b9150611c3382611bf4565b602082019050919050565b5f6020820190508181035f830152611c5581611c1c565b9050919050565b7f57726f6e672073746174757300000000000000000000000000000000000000005f82015250565b5f611c90600c83611be4565b9150611c9b82611c5c565b602082019050919050565b5f6020820190508181035f830152611cbd81611c84565b9050919050565b7f4e487b71000000000000000000000000000000000000000000000000000000005f52601160045260245ffd5b5f611cfb8261185c565b9150611d068361185c565b9250828201905080821115611d1e57611d1d611cc4565b5b92915050565b7f4e6f7420636f756e7465727061727479000000000000000000000000000000005f82015250565b5f611d58601083611be4565b9150611d6382611d24565b602082019050919050565b5f6020820190508181035f830152611d8581611d4c565b9050919050565b7f4f6e6c7920436f6d706c657465640000000000000000000000000000000000005f82015250565b5f611dc0600e83611be4565b9150611dcb82611d8c565b602082019050919050565b5f6020820190508181035f830152611ded81611db4565b9050919050565b7f4f7261636c6520616c72656164792073657400000000000000000000000000005f82015250565b5f611e28601283611be4565b9150611e3382611df4565b602082019050919050565b5f6020820190508181035f830152611e5581611e1c565b9050919050565b7f496e76616c6964206f7261636c650000000000000000000000000000000000005f82015250565b5f611e90600e83611be4565b9150611e9b82611e5c565b602082019050919050565b5f6020820190508181035f830152611ebd81611e84565b9050919050565b7f4e6f74207369676e6564000000000000000000000000000000000000000000005f82015250565b5f611ef8600a83611be4565b9150611f0382611ec4565b602082019050919050565b5f6020820190508181035f830152611f2581611eec565b9050919050565b7f44656c697665727920666c6f77207265717569726564000000000000000000005f82015250565b5f611f60601683611be4565b9150611f6b82611f2c565b602082019050919050565b5f6020820190508181035f830152611f8d81611f54565b9050919050565b7f4e6f7420437265617465640000000000000000000000000000000000000000005f82015250565b5f611fc8600b83611be4565b9150611fd382611f94565b602082019050919050565b5f6020820190508181035f830152611ff581611fbc565b9050919050565b7f302061646472206e6f7420616c6c6f77656400000000000000000000000000005f82015250565b5f612030601283611be4565b915061203b82611ffc565b602082019050919050565b5f6020820190508181035f83015261205d81612024565b9050919050565b7f455448206d69736d6174636800000000000000000000000000000000000000005f82015250565b5f612098600c83611be4565b91506120a382612064565b602082019050919050565b5f6020820190508181035f8301526120c58161208c565b9050919050565b5f6120d68261185c565b91507fffffffffffffffffffffffffffffffffffffffffffffffffffffffffffffffff820361210857612107611cc4565b5b600182019050919050565b5f819050919050565b5f61213661213161212c8461196e565b612113565b61196e565b9050919050565b5f6121478261211c565b9050919050565b5f6121588261213d565b9050919050565b6121688161214e565b82525050565b5f6040820190506121815f830185611ac1565b61218e602083018461215f565b9392505050565b7f4e6f74206f7261636c65000000000000000000000000000000000000000000005f82015250565b5f6121c9600a83611be4565b91506121d482612195565b602082019050919050565b5f6020820190508181035f8301526121f6816121bd565b9050919050565b7f4e6f2064656c69766572790000000000000000000000000000000000000000005f82015250565b5f612231600b83611be4565b915061223c826121fd565b602082019050919050565b5f6020820190508181035f83015261225e81612225565b9050919050565b7f48617368206d69736d61746368000000000000000000000000000000000000005f82015250565b5f612299600d83611be4565b91506122a482612265565b602082019050919050565b5f6020820190508181035f8301526122c68161228d565b9050919050565b7f4e6f7420776974686472617761626c65000000000000000000000000000000005f82015250565b5f612301601083611be4565b915061230c826122cd565b602082019050919050565b5f6020820190508181035f83015261232e816122f5565b9050919050565b7f4e6f2062616c616e6365000000000000000000000000000000000000000000005f82015250565b5f612369600a83611be4565b915061237482612335565b602082019050919050565b5f6020820190508181035f8301526123968161235d565b9050919050565b5f6123a78261185c565b91506123b28361185c565b92508282039050818111156123ca576123c9611cc4565b5b92915050565b7f4e6f74205369676e6564000000000000000000000000000000000000000000005f82015250565b5f612404600a83611be4565b915061240f826123d0565b602082019050919050565b5f6020820190508181035f830152612431816123f8565b9050919050565b7f416c7265616479207365740000000000000000000000000000000000000000005f82015250565b5f61246c600b83611be4565b915061247782612438565b602082019050919050565b5f6020820190508181035f83015261249981612460565b9050919050565b5f6020820190506124b35f8301846119b6565b9291505056fea264697066735822122085c84497f995b461897e93cb4a6d84e573d4450cd05033fce2aee8df93bdeb9664736f6c634300081e0033",
			"opcodes": "PUSH1 0x80 PUSH1 0x40 MSTORE CALLVALUE DUP1 ISZERO PUSH1 0xE JUMPI PUSH0 PUSH0 REVERT JUMPDEST POP PUSH1 0x1 PUSH0 DUP2 SWAP1 SSTORE POP PUSH2 0x24EF DUP1 PUSH2 0x23 PUSH0 CODECOPY PUSH0 RETURN INVALID PUSH1 0x80 PUSH1 0x40 MSTORE PUSH1 0x4 CALLDATASIZE LT PUSH2 0xE7 JUMPI PUSH0 CALLDATALOAD PUSH1 0xE0 SHR DUP1 PUSH4 0x94AEB613 GT PUSH2 0x89 JUMPI DUP1 PUSH4 0xDF5C2980 GT PUSH2 0x58 JUMPI DUP1 PUSH4 0xDF5C2980 EQ PUSH2 0x2CA JUMPI DUP1 PUSH4 0xEDB3B27A EQ PUSH2 0x2F2 JUMPI DUP1 PUSH4 0xF3F43703 EQ PUSH2 0x31C JUMPI DUP1 PUSH4 0xF436199D EQ PUSH2 0x358 JUMPI PUSH2 0xE7 JUMP JUMPDEST DUP1 PUSH4 0x94AEB613 EQ PUSH2 0x236 JUMPI DUP1 PUSH4 0x9537E8D1 EQ PUSH2 0x25E JUMPI DUP1 PUSH4 0x9CC437BA EQ PUSH2 0x286 JUMPI DUP1 PUSH4 0xA78D9BAB EQ PUSH2 0x2A2 JUMPI PUSH2 0xE7 JUMP JUMPDEST DUP1 PUSH4 0x22A45CD0 GT PUSH2 0xC5 JUMPI DUP1 PUSH4 0x22A45CD0 EQ PUSH2 0x179 JUMPI DUP1 PUSH4 0x474DA79A EQ PUSH2 0x1A1 JUMPI DUP1 PUSH4 0x7ADBF973 EQ PUSH2 0x1E4 JUMPI DUP1 PUSH4 0x7DC0D1D0 EQ PUSH2 0x20C JUMPI PUSH2 0xE7 JUMP JUMPDEST DUP1 PUSH4 0x32CA42D EQ PUSH2 0xEB JUMPI DUP1 PUSH4 0x67BD3B4 EQ PUSH2 0x113 JUMPI DUP1 PUSH4 0x17B18458 EQ PUSH2 0x13D JUMPI JUMPDEST PUSH0 PUSH0 REVERT JUMPDEST CALLVALUE DUP1 ISZERO PUSH2 0xF6 JUMPI PUSH0 PUSH0 REVERT JUMPDEST POP PUSH2 0x111 PUSH1 0x4 DUP1 CALLDATASIZE SUB DUP2 ADD SWAP1 PUSH2 0x10C SWAP2 SWAP1 PUSH2 0x188F JUMP JUMPDEST PUSH2 0x380 JUMP JUMPDEST STOP JUMPDEST CALLVALUE DUP1 ISZERO PUSH2 0x11E JUMPI PUSH0 PUSH0 REVERT JUMPDEST POP PUSH2 0x127 PUSH2 0x5FD JUMP JUMPDEST PUSH1 0x40 MLOAD PUSH2 0x134 SWAP2 SWAP1 PUSH2 0x18C9 JUMP JUMPDEST PUSH1 0x40 MLOAD DUP1 SWAP2 SUB SWAP1 RETURN JUMPDEST CALLVALUE DUP1 ISZERO PUSH2 0x148 JUMPI PUSH0 PUSH0 REVERT JUMPDEST POP PUSH2 0x163 PUSH1 0x4 DUP1 CALLDATASIZE SUB DUP2 ADD SWAP1 PUSH2 0x15E SWAP2 SWAP1 PUSH2 0x188F JUMP JUMPDEST PUSH2 0x603 JUMP JUMPDEST PUSH1 0x40 MLOAD PUSH2 0x170 SWAP2 SWAP1 PUSH2 0x1955 JUMP JUMPDEST PUSH1 0x40 MLOAD DUP1 SWAP2 SUB SWAP1 RETURN JUMPDEST CALLVALUE DUP1 ISZERO PUSH2 0x184 JUMPI PUSH0 PUSH0 REVERT JUMPDEST POP PUSH2 0x19F PUSH1 0x4 DUP1 CALLDATASIZE SUB DUP2 ADD SWAP1 PUSH2 0x19A SWAP2 SWAP1 PUSH2 0x188F JUMP JUMPDEST PUSH2 0x62D JUMP JUMPDEST STOP JUMPDEST CALLVALUE DUP1 ISZERO PUSH2 0x1AC JUMPI PUSH0 PUSH0 REVERT JUMPDEST POP PUSH2 0x1C7 PUSH1 0x4 DUP1 CALLDATASIZE SUB DUP2 ADD SWAP1 PUSH2 0x1C2 SWAP2 SWAP1 PUSH2 0x188F JUMP JUMPDEST PUSH2 0x86B JUMP JUMPDEST PUSH1 0x40 MLOAD PUSH2 0x1DB SWAP9 SWAP8 SWAP7 SWAP6 SWAP5 SWAP4 SWAP3 SWAP2 SWAP1 PUSH2 0x19DF JUMP JUMPDEST PUSH1 0x40 MLOAD DUP1 SWAP2 SUB SWAP1 RETURN JUMPDEST CALLVALUE DUP1 ISZERO PUSH2 0x1EF JUMPI PUSH0 PUSH0 REVERT JUMPDEST POP PUSH2 0x20A PUSH1 0x4 DUP1 CALLDATASIZE SUB DUP2 ADD SWAP1 PUSH2 0x205 SWAP2 SWAP1 PUSH2 0x1A96 JUMP JUMPDEST PUSH2 0x906 JUMP JUMPDEST STOP JUMPDEST CALLVALUE DUP1 ISZERO PUSH2 0x217 JUMPI PUSH0 PUSH0 REVERT JUMPDEST POP PUSH2 0x220 PUSH2 0xA64 JUMP JUMPDEST PUSH1 0x40 MLOAD PUSH2 0x22D SWAP2 SWAP1 PUSH2 0x1AD0 JUMP JUMPDEST PUSH1 0x40 MLOAD DUP1 SWAP2 SUB SWAP1 RETURN JUMPDEST CALLVALUE DUP1 ISZERO PUSH2 0x241 JUMPI PUSH0 PUSH0 REVERT JUMPDEST POP PUSH2 0x25C PUSH1 0x4 DUP1 CALLDATASIZE SUB DUP2 ADD SWAP1 PUSH2 0x257 SWAP2 SWAP1 PUSH2 0x188F JUMP JUMPDEST PUSH2 0xA89 JUMP JUMPDEST STOP JUMPDEST CALLVALUE DUP1 ISZERO PUSH2 0x269 JUMPI PUSH0 PUSH0 REVERT JUMPDEST POP PUSH2 0x284 PUSH1 0x4 DUP1 CALLDATASIZE SUB DUP2 ADD SWAP1 PUSH2 0x27F SWAP2 SWAP1 PUSH2 0x188F JUMP JUMPDEST PUSH2 0xD2A JUMP JUMPDEST STOP JUMPDEST PUSH2 0x2A0 PUSH1 0x4 DUP1 CALLDATASIZE SUB DUP2 ADD SWAP1 PUSH2 0x29B SWAP2 SWAP1 PUSH2 0x1B3D JUMP JUMPDEST PUSH2 0xEB6 JUMP JUMPDEST STOP JUMPDEST CALLVALUE DUP1 ISZERO PUSH2 0x2AD JUMPI PUSH0 PUSH0 REVERT JUMPDEST POP PUSH2 0x2C8 PUSH1 0x4 DUP1 CALLDATASIZE SUB DUP2 ADD SWAP1 PUSH2 0x2C3 SWAP2 SWAP1 PUSH2 0x1B8D JUMP JUMPDEST PUSH2 0x10A1 JUMP JUMPDEST STOP JUMPDEST CALLVALUE DUP1 ISZERO PUSH2 0x2D5 JUMPI PUSH0 PUSH0 REVERT JUMPDEST POP PUSH2 0x2F0 PUSH1 0x4 DUP1 CALLDATASIZE SUB DUP2 ADD SWAP1 PUSH2 0x2EB SWAP2 SWAP1 PUSH2 0x188F JUMP JUMPDEST PUSH2 0x12B1 JUMP JUMPDEST STOP JUMPDEST CALLVALUE DUP1 ISZERO PUSH2 0x2FD JUMPI PUSH0 PUSH0 REVERT JUMPDEST POP PUSH2 0x306 PUSH2 0x15D0 JUMP JUMPDEST PUSH1 0x40 MLOAD PUSH2 0x313 SWAP2 SWAP1 PUSH2 0x1BCB JUMP JUMPDEST PUSH1 0x40 MLOAD DUP1 SWAP2 SUB SWAP1 RETURN JUMPDEST CALLVALUE DUP1 ISZERO PUSH2 0x327 JUMPI PUSH0 PUSH0 REVERT JUMPDEST POP PUSH2 0x342 PUSH1 0x4 DUP1 CALLDATASIZE SUB DUP2 ADD SWAP1 PUSH2 0x33D SWAP2 SWAP1 PUSH2 0x1A96 JUMP JUMPDEST PUSH2 0x15E3 JUMP JUMPDEST PUSH1 0x40 MLOAD PUSH2 0x34F SWAP2 SWAP1 PUSH2 0x18C9 JUMP JUMPDEST PUSH1 0x40 MLOAD DUP1 SWAP2 SUB SWAP1 RETURN JUMPDEST CALLVALUE DUP1 ISZERO PUSH2 0x363 JUMPI PUSH0 PUSH0 REVERT JUMPDEST POP PUSH2 0x37E PUSH1 0x4 DUP1 CALLDATASIZE SUB DUP2 ADD SWAP1 PUSH2 0x379 SWAP2 SWAP1 PUSH2 0x1B8D JUMP JUMPDEST PUSH2 0x15F8 JUMP JUMPDEST STOP JUMPDEST DUP1 PUSH1 0x2 PUSH0 DUP3 DUP2 MSTORE PUSH1 0x20 ADD SWAP1 DUP2 MSTORE PUSH1 0x20 ADD PUSH0 KECCAK256 PUSH1 0x2 ADD PUSH0 SWAP1 SLOAD SWAP1 PUSH2 0x100 EXP SWAP1 DIV PUSH20 0xFFFFFFFFFFFFFFFFFFFFFFFFFFFFFFFFFFFFFFFF AND PUSH20 0xFFFFFFFFFFFFFFFFFFFFFFFFFFFFFFFFFFFFFFFF AND CALLER PUSH20 0xFFFFFFFFFFFFFFFFFFFFFFFFFFFFFFFFFFFFFFFF AND EQ PUSH2 0x422 JUMPI PUSH1 0x40 MLOAD PUSH32 0x8C379A000000000000000000000000000000000000000000000000000000000 DUP2 MSTORE PUSH1 0x4 ADD PUSH2 0x419 SWAP1 PUSH2 0x1C3E JUMP JUMPDEST PUSH1 0x40 MLOAD DUP1 SWAP2 SUB SWAP1 REVERT JUMPDEST PUSH0 PUSH1 0x2 PUSH0 DUP5 DUP2 MSTORE PUSH1 0x20 ADD SWAP1 DUP2 MSTORE PUSH1 0x20 ADD PUSH0 KECCAK256 SWAP1 POP PUSH1 0x3 PUSH1 0x7 DUP2 GT ISZERO PUSH2 0x44A JUMPI PUSH2 0x449 PUSH2 0x18E2 JUMP JUMPDEST JUMPDEST DUP2 PUSH1 0x3 ADD PUSH1 0x14 SWAP1 SLOAD SWAP1 PUSH2 0x100 EXP SWAP1 DIV PUSH1 0xFF AND PUSH1 0x7 DUP2 GT ISZERO PUSH2 0x46E JUMPI PUSH2 0x46D PUSH2 0x18E2 JUMP JUMPDEST JUMPDEST EQ PUSH2 0x4AE JUMPI PUSH1 0x40 MLOAD PUSH32 0x8C379A000000000000000000000000000000000000000000000000000000000 DUP2 MSTORE PUSH1 0x4 ADD PUSH2 0x4A5 SWAP1 PUSH2 0x1CA6 JUMP JUMPDEST PUSH1 0x40 MLOAD DUP1 SWAP2 SUB SWAP1 REVERT JUMPDEST PUSH1 0x4 DUP2 PUSH1 0x3 ADD PUSH1 0x14 PUSH2 0x100 EXP DUP2 SLOAD DUP2 PUSH1 0xFF MUL NOT AND SWAP1 DUP4 PUSH1 0x7 DUP2 GT ISZERO PUSH2 0x4D6 JUMPI PUSH2 0x4D5 PUSH2 0x18E2 JUMP JUMPDEST JUMPDEST MUL OR SWAP1 SSTORE POP DUP1 PUSH1 0x1 ADD SLOAD PUSH1 0x4 PUSH0 DUP4 PUSH1 0x3 ADD PUSH0 SWAP1 SLOAD SWAP1 PUSH2 0x100 EXP SWAP1 DIV PUSH20 0xFFFFFFFFFFFFFFFFFFFFFFFFFFFFFFFFFFFFFFFF AND PUSH20 0xFFFFFFFFFFFFFFFFFFFFFFFFFFFFFFFFFFFFFFFF AND PUSH20 0xFFFFFFFFFFFFFFFFFFFFFFFFFFFFFFFFFFFFFFFF AND DUP2 MSTORE PUSH1 0x20 ADD SWAP1 DUP2 MSTORE PUSH1 0x20 ADD PUSH0 KECCAK256 PUSH0 DUP3 DUP3 SLOAD PUSH2 0x54E SWAP2 SWAP1 PUSH2 0x1CF1 JUMP JUMPDEST SWAP3 POP POP DUP2 SWAP1 SSTORE POP DUP3 PUSH32 0x5C1E662F72EE6C85181B65FAC5BEB0390932B8C472F05B257151D041AC9DDFFA PUSH1 0x40 MLOAD PUSH1 0x40 MLOAD DUP1 SWAP2 SUB SWAP1 LOG2 DUP1 PUSH1 0x3 ADD PUSH0 SWAP1 SLOAD SWAP1 PUSH2 0x100 EXP SWAP1 DIV PUSH20 0xFFFFFFFFFFFFFFFFFFFFFFFFFFFFFFFFFFFFFFFF AND PUSH20 0xFFFFFFFFFFFFFFFFFFFFFFFFFFFFFFFFFFFFFFFF AND DUP4 PUSH32 0x21D71DB5BE59BB9FA133895586B7404307DD33FB93B16DB09DC6F1D9D7D231B0 DUP4 PUSH1 0x1 ADD SLOAD PUSH1 0x40 MLOAD PUSH2 0x5F0 SWAP2 SWAP1 PUSH2 0x18C9 JUMP JUMPDEST PUSH1 0x40 MLOAD DUP1 SWAP2 SUB SWAP1 LOG3 POP POP POP JUMP JUMPDEST PUSH1 0x3 SLOAD DUP2 JUMP JUMPDEST PUSH0 PUSH1 0x2 PUSH0 DUP4 DUP2 MSTORE PUSH1 0x20 ADD SWAP1 DUP2 MSTORE PUSH1 0x20 ADD PUSH0 KECCAK256 PUSH1 0x3 ADD PUSH1 0x14 SWAP1 SLOAD SWAP1 PUSH2 0x100 EXP SWAP1 DIV PUSH1 0xFF AND SWAP1 POP SWAP2 SWAP1 POP JUMP JUMPDEST DUP1 PUSH1 0x2 PUSH0 DUP3 DUP2 MSTORE PUSH1 0x20 ADD SWAP1 DUP2 MSTORE PUSH1 0x20 ADD PUSH0 KECCAK256 PUSH1 0x3 ADD PUSH0 SWAP1 SLOAD SWAP1 PUSH2 0x100 EXP SWAP1 DIV PUSH20 0xFFFFFFFFFFFFFFFFFFFFFFFFFFFFFFFFFFFFFFFF AND PUSH20 0xFFFFFFFFFFFFFFFFFFFFFFFFFFFFFFFFFFFFFFFF AND CALLER PUSH20 0xFFFFFFFFFFFFFFFFFFFFFFFFFFFFFFFFFFFFFFFF AND EQ PUSH2 0x6CF JUMPI PUSH1 0x40 MLOAD PUSH32 0x8C379A000000000000000000000000000000000000000000000000000000000 DUP2 MSTORE PUSH1 0x4 ADD PUSH2 0x6C6 SWAP1 PUSH2 0x1D6E JUMP JUMPDEST PUSH1 0x40 MLOAD DUP1 SWAP2 SUB SWAP1 REVERT JUMPDEST DUP2 PUSH1 0x2 PUSH0 DUP3 DUP2 MSTORE PUSH1 0x20 ADD SWAP1 DUP2 MSTORE PUSH1 0x20 ADD PUSH0 KECCAK256 PUSH1 0x2 ADD PUSH0 SWAP1 SLOAD SWAP1 PUSH2 0x100 EXP SWAP1 DIV PUSH20 0xFFFFFFFFFFFFFFFFFFFFFFFFFFFFFFFFFFFFFFFF AND PUSH20 0xFFFFFFFFFFFFFFFFFFFFFFFFFFFFFFFFFFFFFFFF AND CALLER PUSH20 0xFFFFFFFFFFFFFFFFFFFFFFFFFFFFFFFFFFFFFFFF AND EQ PUSH2 0x771 JUMPI PUSH1 0x40 MLOAD PUSH32 0x8C379A000000000000000000000000000000000000000000000000000000000 DUP2 MSTORE PUSH1 0x4 ADD PUSH2 0x768 SWAP1 PUSH2 0x1C3E JUMP JUMPDEST PUSH1 0x40 MLOAD DUP1 SWAP2 SUB SWAP1 REVERT JUMPDEST PUSH0 PUSH1 0x2 PUSH0 DUP6 DUP2 MSTORE PUSH1 0x20 ADD SWAP1 DUP2 MSTORE PUSH1 0x20 ADD PUSH0 KECCAK256 SWAP1 POP PUSH1 0x6 PUSH1 0x7 DUP2 GT ISZERO PUSH2 0x799 JUMPI PUSH2 0x798 PUSH2 0x18E2 JUMP JUMPDEST JUMPDEST DUP2 PUSH1 0x3 ADD PUSH1 0x14 SWAP1 SLOAD SWAP1 PUSH2 0x100 EXP SWAP1 DIV PUSH1 0xFF AND PUSH1 0x7 DUP2 GT ISZERO PUSH2 0x7BD JUMPI PUSH2 0x7BC PUSH2 0x18E2 JUMP JUMPDEST JUMPDEST EQ PUSH2 0x7FD JUMPI PUSH1 0x40 MLOAD PUSH32 0x8C379A000000000000000000000000000000000000000000000000000000000 DUP2 MSTORE PUSH1 0x4 ADD PUSH2 0x7F4 SWAP1 PUSH2 0x1DD6 JUMP JUMPDEST PUSH1 0x40 MLOAD DUP1 SWAP2 SUB SWAP1 REVERT JUMPDEST DUP1 PUSH1 0x4 ADD PUSH0 SWAP1 SSTORE DUP1 PUSH1 0x5 ADD PUSH0 SWAP1 SSTORE PUSH1 0x7 DUP2 PUSH1 0x3 ADD PUSH1 0x14 PUSH2 0x100 EXP DUP2 SLOAD DUP2 PUSH1 0xFF MUL NOT AND SWAP1 DUP4 PUSH1 0x7 DUP2 GT ISZERO PUSH2 0x833 JUMPI PUSH2 0x832 PUSH2 0x18E2 JUMP JUMPDEST JUMPDEST MUL OR SWAP1 SSTORE POP DUP4 PUSH32 0x741B099F015E1976CFA72A7448A8FB1D54EAB1D616241B562CFBE603A2B61B42 PUSH1 0x40 MLOAD PUSH1 0x40 MLOAD DUP1 SWAP2 SUB SWAP1 LOG2 POP POP POP POP JUMP JUMPDEST PUSH1 0x2 PUSH1 0x20 MSTORE DUP1 PUSH0 MSTORE PUSH1 0x40 PUSH0 KECCAK256 PUSH0 SWAP2 POP SWAP1 POP DUP1 PUSH0 ADD SLOAD SWAP1 DUP1 PUSH1 0x1 ADD SLOAD SWAP1 DUP1 PUSH1 0x2 ADD PUSH0 SWAP1 SLOAD SWAP1 PUSH2 0x100 EXP SWAP1 DIV PUSH20 0xFFFFFFFFFFFFFFFFFFFFFFFFFFFFFFFFFFFFFFFF AND SWAP1 DUP1 PUSH1 0x3 ADD PUSH0 SWAP1 SLOAD SWAP1 PUSH2 0x100 EXP SWAP1 DIV PUSH20 0xFFFFFFFFFFFFFFFFFFFFFFFFFFFFFFFFFFFFFFFF AND SWAP1 DUP1 PUSH1 0x3 ADD PUSH1 0x14 SWAP1 SLOAD SWAP1 PUSH2 0x100 EXP SWAP1 DIV PUSH1 0xFF AND SWAP1 DUP1 PUSH1 0x4 ADD SLOAD SWAP1 DUP1 PUSH1 0x5 ADD SLOAD SWAP1 DUP1 PUSH1 0x6 ADD PUSH0 SWAP1 SLOAD SWAP1 PUSH2 0x100 EXP SWAP1 DIV PUSH1 0xFF AND SWAP1 POP DUP9 JUMP JUMPDEST PUSH1 0x1 PUSH1 0x14 SWAP1 SLOAD SWAP1 PUSH2 0x100 EXP SWAP1 DIV PUSH1 0xFF AND ISZERO PUSH2 0x956 JUMPI PUSH1 0x40 MLOAD PUSH32 0x8C379A000000000000000000000000000000000000000000000000000000000 DUP2 MSTORE PUSH1 0x4 ADD PUSH2 0x94D SWAP1 PUSH2 0x1E3E JUMP JUMPDEST PUSH1 0x40 MLOAD DUP1 SWAP2 SUB SWAP1 REVERT JUMPDEST PUSH0 PUSH20 0xFFFFFFFFFFFFFFFFFFFFFFFFFFFFFFFFFFFFFFFF AND DUP2 PUSH20 0xFFFFFFFFFFFFFFFFFFFFFFFFFFFFFFFFFFFFFFFF AND SUB PUSH2 0x9C4 JUMPI PUSH1 0x40 MLOAD PUSH32 0x8C379A000000000000000000000000000000000000000000000000000000000 DUP2 MSTORE PUSH1 0x4 ADD PUSH2 0x9BB SWAP1 PUSH2 0x1EA6 JUMP JUMPDEST PUSH1 0x40 MLOAD DUP1 SWAP2 SUB SWAP1 REVERT JUMPDEST DUP1 PUSH1 0x1 PUSH0 PUSH2 0x100 EXP DUP2 SLOAD DUP2 PUSH20 0xFFFFFFFFFFFFFFFFFFFFFFFFFFFFFFFFFFFFFFFF MUL NOT AND SWAP1 DUP4 PUSH20 0xFFFFFFFFFFFFFFFFFFFFFFFFFFFFFFFFFFFFFFFF AND MUL OR SWAP1 SSTORE POP PUSH1 0x1 DUP1 PUSH1 0x14 PUSH2 0x100 EXP DUP2 SLOAD DUP2 PUSH1 0xFF MUL NOT AND SWAP1 DUP4 ISZERO ISZERO MUL OR SWAP1 SSTORE POP DUP1 PUSH20 0xFFFFFFFFFFFFFFFFFFFFFFFFFFFFFFFFFFFFFFFF AND PUSH32 0x3F32684A32A11DABDBB8C0177DE80AA3AE36A004D75210335B49E544E48CD0AA PUSH1 0x40 MLOAD PUSH1 0x40 MLOAD DUP1 SWAP2 SUB SWAP1 LOG2 POP JUMP JUMPDEST PUSH1 0x1 PUSH0 SWAP1 SLOAD SWAP1 PUSH2 0x100 EXP SWAP1 DIV PUSH20 0xFFFFFFFFFFFFFFFFFFFFFFFFFFFFFFFFFFFFFFFF AND DUP2 JUMP JUMPDEST DUP1 PUSH1 0x2 PUSH0 DUP3 DUP2 MSTORE PUSH1 0x20 ADD SWAP1 DUP2 MSTORE PUSH1 0x20 ADD PUSH0 KECCAK256 PUSH1 0x2 ADD PUSH0 SWAP1 SLOAD SWAP1 PUSH2 0x100 EXP SWAP1 DIV PUSH20 0xFFFFFFFFFFFFFFFFFFFFFFFFFFFFFFFFFFFFFFFF AND PUSH20 0xFFFFFFFFFFFFFFFFFFFFFFFFFFFFFFFFFFFFFFFF AND CALLER PUSH20 0xFFFFFFFFFFFFFFFFFFFFFFFFFFFFFFFFFFFFFFFF AND EQ PUSH2 0xB2B JUMPI PUSH1 0x40 MLOAD PUSH32 0x8C379A000000000000000000000000000000000000000000000000000000000 DUP2 MSTORE PUSH1 0x4 ADD PUSH2 0xB22 SWAP1 PUSH2 0x1C3E JUMP JUMPDEST PUSH1 0x40 MLOAD DUP1 SWAP2 SUB SWAP1 REVERT JUMPDEST PUSH0 PUSH1 0x2 PUSH0 DUP5 DUP2 MSTORE PUSH1 0x20 ADD SWAP1 DUP2 MSTORE PUSH1 0x20 ADD PUSH0 KECCAK256 SWAP1 POP PUSH1 0x1 PUSH1 0x7 DUP2 GT ISZERO PUSH2 0xB53 JUMPI PUSH2 0xB52 PUSH2 0x18E2 JUMP JUMPDEST JUMPDEST DUP2 PUSH1 0x3 ADD PUSH1 0x14 SWAP1 SLOAD SWAP1 PUSH2 0x100 EXP SWAP1 DIV PUSH1 0xFF AND PUSH1 0x7 DUP2 GT ISZERO PUSH2 0xB77 JUMPI PUSH2 0xB76 PUSH2 0x18E2 JUMP JUMPDEST JUMPDEST EQ PUSH2 0xBB7 JUMPI PUSH1 0x40 MLOAD PUSH32 0x8C379A000000000000000000000000000000000000000000000000000000000 DUP2 MSTORE PUSH1 0x4 ADD PUSH2 0xBAE SWAP1 PUSH2 0x1F0E JUMP JUMPDEST PUSH1 0x40 MLOAD DUP1 SWAP2 SUB SWAP1 REVERT JUMPDEST DUP1 PUSH1 0x6 ADD PUSH0 SWAP1 SLOAD SWAP1 PUSH2 0x100 EXP SWAP1 DIV PUSH1 0xFF AND ISZERO PUSH2 0xC08 JUMPI PUSH1 0x40 MLOAD PUSH32 0x8C379A000000000000000000000000000000000000000000000000000000000 DUP2 MSTORE PUSH1 0x4 ADD PUSH2 0xBFF SWAP1 PUSH2 0x1F76 JUMP JUMPDEST PUSH1 0x40 MLOAD DUP1 SWAP2 SUB SWAP1 REVERT JUMPDEST PUSH1 0x5 DUP2 PUSH1 0x3 ADD PUSH1 0x14 PUSH2 0x100 EXP DUP2 SLOAD DUP2 PUSH1 0xFF MUL NOT AND SWAP1 DUP4 PUSH1 0x7 DUP2 GT ISZERO PUSH2 0xC30 JUMPI PUSH2 0xC2F PUSH2 0x18E2 JUMP JUMPDEST JUMPDEST MUL OR SWAP1 SSTORE POP DUP1 PUSH1 0x1 ADD SLOAD PUSH1 0x4 PUSH0 DUP4 PUSH1 0x3 ADD PUSH0 SWAP1 SLOAD SWAP1 PUSH2 0x100 EXP SWAP1 DIV PUSH20 0xFFFFFFFFFFFFFFFFFFFFFFFFFFFFFFFFFFFFFFFF AND PUSH20 0xFFFFFFFFFFFFFFFFFFFFFFFFFFFFFFFFFFFFFFFF AND PUSH20 0xFFFFFFFFFFFFFFFFFFFFFFFFFFFFFFFFFFFFFFFF AND DUP2 MSTORE PUSH1 0x20 ADD SWAP1 DUP2 MSTORE PUSH1 0x20 ADD PUSH0 KECCAK256 PUSH0 DUP3 DUP3 SLOAD PUSH2 0xCA8 SWAP2 SWAP1 PUSH2 0x1CF1 JUMP JUMPDEST SWAP3 POP POP DUP2 SWAP1 SSTORE POP DUP1 PUSH1 0x3 ADD PUSH0 SWAP1 SLOAD SWAP1 PUSH2 0x100 EXP SWAP1 DIV PUSH20 0xFFFFFFFFFFFFFFFFFFFFFFFFFFFFFFFFFFFFFFFF AND PUSH20 0xFFFFFFFFFFFFFFFFFFFFFFFFFFFFFFFFFFFFFFFF AND DUP4 PUSH32 0x21D71DB5BE59BB9FA133895586B7404307DD33FB93B16DB09DC6F1D9D7D231B0 DUP4 PUSH1 0x1 ADD SLOAD PUSH1 0x40 MLOAD PUSH2 0xD1D SWAP2 SWAP1 PUSH2 0x18C9 JUMP JUMPDEST PUSH1 0x40 MLOAD DUP1 SWAP2 SUB SWAP1 LOG3 POP POP POP JUMP JUMPDEST DUP1 PUSH1 0x2 PUSH0 DUP3 DUP2 MSTORE PUSH1 0x20 ADD SWAP1 DUP2 MSTORE PUSH1 0x20 ADD PUSH0 KECCAK256 PUSH1 0x3 ADD PUSH0 SWAP1 SLOAD SWAP1 PUSH2 0x100 EXP SWAP1 DIV PUSH20 0xFFFFFFFFFFFFFFFFFFFFFFFFFFFFFFFFFFFFFFFF AND PUSH20 0xFFFFFFFFFFFFFFFFFFFFFFFFFFFFFFFFFFFFFFFF AND CALLER PUSH20 0xFFFFFFFFFFFFFFFFFFFFFFFFFFFFFFFFFFFFFFFF AND EQ PUSH2 0xDCC JUMPI PUSH1 0x40 MLOAD PUSH32 0x8C379A000000000000000000000000000000000000000000000000000000000 DUP2 MSTORE PUSH1 0x4 ADD PUSH2 0xDC3 SWAP1 PUSH2 0x1D6E JUMP JUMPDEST PUSH1 0x40 MLOAD DUP1 SWAP2 SUB SWAP1 REVERT JUMPDEST PUSH0 PUSH1 0x2 PUSH0 DUP5 DUP2 MSTORE PUSH1 0x20 ADD SWAP1 DUP2 MSTORE PUSH1 0x20 ADD PUSH0 KECCAK256 SWAP1 POP PUSH0 PUSH1 0x7 DUP2 GT ISZERO PUSH2 0xDF3 JUMPI PUSH2 0xDF2 PUSH2 0x18E2 JUMP JUMPDEST JUMPDEST DUP2 PUSH1 0x3 ADD PUSH1 0x14 SWAP1 SLOAD SWAP1 PUSH2 0x100 EXP SWAP1 DIV PUSH1 0xFF AND PUSH1 0x7 DUP2 GT ISZERO PUSH2 0xE17 JUMPI PUSH2 0xE16 PUSH2 0x18E2 JUMP JUMPDEST JUMPDEST EQ PUSH2 0xE57 JUMPI PUSH1 0x40 MLOAD PUSH32 0x8C379A000000000000000000000000000000000000000000000000000000000 DUP2 MSTORE PUSH1 0x4 ADD PUSH2 0xE4E SWAP1 PUSH2 0x1FDE JUMP JUMPDEST PUSH1 0x40 MLOAD DUP1 SWAP2 SUB SWAP1 REVERT JUMPDEST PUSH1 0x1 DUP2 PUSH1 0x3 ADD PUSH1 0x14 PUSH2 0x100 EXP DUP2 SLOAD DUP2 PUSH1 0xFF MUL NOT AND SWAP1 DUP4 PUSH1 0x7 DUP2 GT ISZERO PUSH2 0xE7F JUMPI PUSH2 0xE7E PUSH2 0x18E2 JUMP JUMPDEST JUMPDEST MUL OR SWAP1 SSTORE POP DUP3 PUSH32 0xAF3C49F5413FD292E2325B0FE214DE144A222B00CB6EC21214FDC04B5D6C5913 PUSH1 0x40 MLOAD PUSH1 0x40 MLOAD DUP1 SWAP2 SUB SWAP1 LOG2 POP POP POP JUMP JUMPDEST PUSH0 PUSH20 0xFFFFFFFFFFFFFFFFFFFFFFFFFFFFFFFFFFFFFFFF AND DUP4 PUSH20 0xFFFFFFFFFFFFFFFFFFFFFFFFFFFFFFFFFFFFFFFF AND SUB PUSH2 0xF24 JUMPI PUSH1 0x40 MLOAD PUSH32 0x8C379A000000000000000000000000000000000000000000000000000000000 DUP2 MSTORE PUSH1 0x4 ADD PUSH2 0xF1B SWAP1 PUSH2 0x2046 JUMP JUMPDEST PUSH1 0x40 MLOAD DUP1 SWAP2 SUB SWAP1 REVERT JUMPDEST DUP1 CALLVALUE EQ PUSH2 0xF66 JUMPI PUSH1 0x40 MLOAD PUSH32 0x8C379A000000000000000000000000000000000000000000000000000000000 DUP2 MSTORE PUSH1 0x4 ADD PUSH2 0xF5D SWAP1 PUSH2 0x20AE JUMP JUMPDEST PUSH1 0x40 MLOAD DUP1 SWAP2 SUB SWAP1 REVERT JUMPDEST PUSH1 0x3 PUSH0 DUP2 SLOAD DUP1 SWAP3 SWAP2 SWAP1 PUSH2 0xF78 SWAP1 PUSH2 0x20CC JUMP JUMPDEST SWAP2 SWAP1 POP SSTORE POP PUSH0 PUSH1 0x2 PUSH0 PUSH1 0x3 SLOAD DUP2 MSTORE PUSH1 0x20 ADD SWAP1 DUP2 MSTORE PUSH1 0x20 ADD PUSH0 KECCAK256 SWAP1 POP PUSH1 0x3 SLOAD DUP2 PUSH0 ADD DUP2 SWAP1 SSTORE POP DUP2 DUP2 PUSH1 0x1 ADD DUP2 SWAP1 SSTORE POP CALLER DUP2 PUSH1 0x2 ADD PUSH0 PUSH2 0x100 EXP DUP2 SLOAD DUP2 PUSH20 0xFFFFFFFFFFFFFFFFFFFFFFFFFFFFFFFFFFFFFFFF MUL NOT AND SWAP1 DUP4 PUSH20 0xFFFFFFFFFFFFFFFFFFFFFFFFFFFFFFFFFFFFFFFF AND MUL OR SWAP1 SSTORE POP DUP4 DUP2 PUSH1 0x3 ADD PUSH0 PUSH2 0x100 EXP DUP2 SLOAD DUP2 PUSH20 0xFFFFFFFFFFFFFFFFFFFFFFFFFFFFFFFFFFFFFFFF MUL NOT AND SWAP1 DUP4 PUSH20 0xFFFFFFFFFFFFFFFFFFFFFFFFFFFFFFFFFFFFFFFF AND MUL OR SWAP1 SSTORE POP PUSH0 DUP2 PUSH1 0x3 ADD PUSH1 0x14 PUSH2 0x100 EXP DUP2 SLOAD DUP2 PUSH1 0xFF MUL NOT AND SWAP1 DUP4 PUSH1 0x7 DUP2 GT ISZERO PUSH2 0x1051 JUMPI PUSH2 0x1050 PUSH2 0x18E2 JUMP JUMPDEST JUMPDEST MUL OR SWAP1 SSTORE POP DUP3 DUP2 PUSH1 0x4 ADD DUP2 SWAP1 SSTORE POP PUSH1 0x3 SLOAD PUSH32 0x56560A52C047ED21FD801BF0F345B23D9AF696F7922FF8E63101AF5D48CADDAB CALLER DUP7 PUSH1 0x40 MLOAD PUSH2 0x1093 SWAP3 SWAP2 SWAP1 PUSH2 0x216E JUMP JUMPDEST PUSH1 0x40 MLOAD DUP1 SWAP2 SUB SWAP1 LOG2 POP POP POP POP JUMP JUMPDEST PUSH1 0x1 PUSH0 SWAP1 SLOAD SWAP1 PUSH2 0x100 EXP SWAP1 DIV PUSH20 0xFFFFFFFFFFFFFFFFFFFFFFFFFFFFFFFFFFFFFFFF AND PUSH20 0xFFFFFFFFFFFFFFFFFFFFFFFFFFFFFFFFFFFFFFFF AND CALLER PUSH20 0xFFFFFFFFFFFFFFFFFFFFFFFFFFFFFFFFFFFFFFFF AND EQ PUSH2 0x1130 JUMPI PUSH1 0x40 MLOAD PUSH32 0x8C379A000000000000000000000000000000000000000000000000000000000 DUP2 MSTORE PUSH1 0x4 ADD PUSH2 0x1127 SWAP1 PUSH2 0x21DF JUMP JUMPDEST PUSH1 0x40 MLOAD DUP1 SWAP2 SUB SWAP1 REVERT JUMPDEST PUSH0 PUSH1 0x2 PUSH0 DUP5 DUP2 MSTORE PUSH1 0x20 ADD SWAP1 DUP2 MSTORE PUSH1 0x20 ADD PUSH0 KECCAK256 SWAP1 POP PUSH1 0x2 PUSH1 0x7 DUP2 GT ISZERO PUSH2 0x1158 JUMPI PUSH2 0x1157 PUSH2 0x18E2 JUMP JUMPDEST JUMPDEST DUP2 PUSH1 0x3 ADD PUSH1 0x14 SWAP1 SLOAD SWAP1 PUSH2 0x100 EXP SWAP1 DIV PUSH1 0xFF AND PUSH1 0x7 DUP2 GT ISZERO PUSH2 0x117C JUMPI PUSH2 0x117B PUSH2 0x18E2 JUMP JUMPDEST JUMPDEST EQ PUSH2 0x11BC JUMPI PUSH1 0x40 MLOAD PUSH32 0x8C379A000000000000000000000000000000000000000000000000000000000 DUP2 MSTORE PUSH1 0x4 ADD PUSH2 0x11B3 SWAP1 PUSH2 0x1CA6 JUMP JUMPDEST PUSH1 0x40 MLOAD DUP1 SWAP2 SUB SWAP1 REVERT JUMPDEST DUP1 PUSH1 0x6 ADD PUSH0 SWAP1 SLOAD SWAP1 PUSH2 0x100 EXP SWAP1 DIV PUSH1 0xFF AND PUSH2 0x120C JUMPI PUSH1 0x40 MLOAD PUSH32 0x8C379A000000000000000000000000000000000000000000000000000000000 DUP2 MSTORE PUSH1 0x4 ADD PUSH2 0x1203 SWAP1 PUSH2 0x2247 JUMP JUMPDEST PUSH1 0x40 MLOAD DUP1 SWAP2 SUB SWAP1 REVERT JUMPDEST DUP2 DUP2 PUSH1 0x5 ADD SLOAD EQ PUSH2 0x1252 JUMPI PUSH1 0x40 MLOAD PUSH32 0x8C379A000000000000000000000000000000000000000000000000000000000 DUP2 MSTORE PUSH1 0x4 ADD PUSH2 0x1249 SWAP1 PUSH2 0x22AF JUMP JUMPDEST PUSH1 0x40 MLOAD DUP1 SWAP2 SUB SWAP1 REVERT JUMPDEST PUSH1 0x3 DUP2 PUSH1 0x3 ADD PUSH1 0x14 PUSH2 0x100 EXP DUP2 SLOAD DUP2 PUSH1 0xFF MUL NOT AND SWAP1 DUP4 PUSH1 0x7 DUP2 GT ISZERO PUSH2 0x127A JUMPI PUSH2 0x1279 PUSH2 0x18E2 JUMP JUMPDEST JUMPDEST MUL OR SWAP1 SSTORE POP DUP3 PUSH32 0x375B4005EEAE25D0E37D56E1B3841D3BB394B277EFA2548DE3293F5DCB7A3493 PUSH1 0x40 MLOAD PUSH1 0x40 MLOAD DUP1 SWAP2 SUB SWAP1 LOG2 POP POP POP JUMP JUMPDEST PUSH2 0x12B9 PUSH2 0x180B JUMP JUMPDEST DUP1 PUSH1 0x2 PUSH0 DUP3 DUP2 MSTORE PUSH1 0x20 ADD SWAP1 DUP2 MSTORE PUSH1 0x20 ADD PUSH0 KECCAK256 PUSH1 0x3 ADD PUSH0 SWAP1 SLOAD SWAP1 PUSH2 0x100 EXP SWAP1 DIV PUSH20 0xFFFFFFFFFFFFFFFFFFFFFFFFFFFFFFFFFFFFFFFF AND PUSH20 0xFFFFFFFFFFFFFFFFFFFFFFFFFFFFFFFFFFFFFFFF AND CALLER PUSH20 0xFFFFFFFFFFFFFFFFFFFFFFFFFFFFFFFFFFFFFFFF AND EQ PUSH2 0x135B JUMPI PUSH1 0x40 MLOAD PUSH32 0x8C379A000000000000000000000000000000000000000000000000000000000 DUP2 MSTORE PUSH1 0x4 ADD PUSH2 0x1352 SWAP1 PUSH2 0x1D6E JUMP JUMPDEST PUSH1 0x40 MLOAD DUP1 SWAP2 SUB SWAP1 REVERT JUMPDEST PUSH0 PUSH1 0x2 PUSH0 DUP5 DUP2 MSTORE PUSH1 0x20 ADD SWAP1 DUP2 MSTORE PUSH1 0x20 ADD PUSH0 KECCAK256 SWAP1 POP PUSH1 0x5 PUSH1 0x7 DUP2 GT ISZERO PUSH2 0x1383 JUMPI PUSH2 0x1382 PUSH2 0x18E2 JUMP JUMPDEST JUMPDEST DUP2 PUSH1 0x3 ADD PUSH1 0x14 SWAP1 SLOAD SWAP1 PUSH2 0x100 EXP SWAP1 DIV PUSH1 0xFF AND PUSH1 0x7 DUP2 GT ISZERO PUSH2 0x13A7 JUMPI PUSH2 0x13A6 PUSH2 0x18E2 JUMP JUMPDEST JUMPDEST EQ DUP1 PUSH2 0x13E8 JUMPI POP PUSH1 0x4 PUSH1 0x7 DUP2 GT ISZERO PUSH2 0x13C2 JUMPI PUSH2 0x13C1 PUSH2 0x18E2 JUMP JUMPDEST JUMPDEST DUP2 PUSH1 0x3 ADD PUSH1 0x14 SWAP1 SLOAD SWAP1 PUSH2 0x100 EXP SWAP1 DIV PUSH1 0xFF AND PUSH1 0x7 DUP2 GT ISZERO PUSH2 0x13E6 JUMPI PUSH2 0x13E5 PUSH2 0x18E2 JUMP JUMPDEST JUMPDEST EQ JUMPDEST PUSH2 0x1427 JUMPI PUSH1 0x40 MLOAD PUSH32 0x8C379A000000000000000000000000000000000000000000000000000000000 DUP2 MSTORE PUSH1 0x4 ADD PUSH2 0x141E SWAP1 PUSH2 0x2317 JUMP JUMPDEST PUSH1 0x40 MLOAD DUP1 SWAP2 SUB SWAP1 REVERT JUMPDEST PUSH0 DUP2 PUSH1 0x1 ADD SLOAD SWAP1 POP DUP1 PUSH1 0x4 PUSH0 CALLER PUSH20 0xFFFFFFFFFFFFFFFFFFFFFFFFFFFFFFFFFFFFFFFF AND PUSH20 0xFFFFFFFFFFFFFFFFFFFFFFFFFFFFFFFFFFFFFFFF AND DUP2 MSTORE PUSH1 0x20 ADD SWAP1 DUP2 MSTORE PUSH1 0x20 ADD PUSH0 KECCAK256 SLOAD LT ISZERO PUSH2 0x14AF JUMPI PUSH1 0x40 MLOAD PUSH32 0x8C379A000000000000000000000000000000000000000000000000000000000 DUP2 MSTORE PUSH1 0x4 ADD PUSH2 0x14A6 SWAP1 PUSH2 0x237F JUMP JUMPDEST PUSH1 0x40 MLOAD DUP1 SWAP2 SUB SWAP1 REVERT JUMPDEST DUP1 PUSH1 0x4 PUSH0 CALLER PUSH20 0xFFFFFFFFFFFFFFFFFFFFFFFFFFFFFFFFFFFFFFFF AND PUSH20 0xFFFFFFFFFFFFFFFFFFFFFFFFFFFFFFFFFFFFFFFF AND DUP2 MSTORE PUSH1 0x20 ADD SWAP1 DUP2 MSTORE PUSH1 0x20 ADD PUSH0 KECCAK256 PUSH0 DUP3 DUP3 SLOAD PUSH2 0x14FB SWAP2 SWAP1 PUSH2 0x239D JUMP JUMPDEST SWAP3 POP POP DUP2 SWAP1 SSTORE POP PUSH1 0x6 DUP3 PUSH1 0x3 ADD PUSH1 0x14 PUSH2 0x100 EXP DUP2 SLOAD DUP2 PUSH1 0xFF MUL NOT AND SWAP1 DUP4 PUSH1 0x7 DUP2 GT ISZERO PUSH2 0x152A JUMPI PUSH2 0x1529 PUSH2 0x18E2 JUMP JUMPDEST JUMPDEST MUL OR SWAP1 SSTORE POP CALLER PUSH20 0xFFFFFFFFFFFFFFFFFFFFFFFFFFFFFFFFFFFFFFFF AND PUSH2 0x8FC DUP3 SWAP1 DUP2 ISZERO MUL SWAP1 PUSH1 0x40 MLOAD PUSH0 PUSH1 0x40 MLOAD DUP1 DUP4 SUB DUP2 DUP6 DUP9 DUP9 CALL SWAP4 POP POP POP POP ISZERO DUP1 ISZERO PUSH2 0x1572 JUMPI RETURNDATASIZE PUSH0 PUSH0 RETURNDATACOPY RETURNDATASIZE PUSH0 REVERT JUMPDEST POP CALLER PUSH20 0xFFFFFFFFFFFFFFFFFFFFFFFFFFFFFFFFFFFFFFFF AND DUP5 PUSH32 0xF440AEC6B52895984D061D622E6EDEBA6210F7C3E059BE920663140C084560D7 DUP4 PUSH1 0x40 MLOAD PUSH2 0x15BA SWAP2 SWAP1 PUSH2 0x18C9 JUMP JUMPDEST PUSH1 0x40 MLOAD DUP1 SWAP2 SUB SWAP1 LOG3 POP POP POP PUSH2 0x15CD PUSH2 0x184F JUMP JUMPDEST POP JUMP JUMPDEST PUSH1 0x1 PUSH1 0x14 SWAP1 SLOAD SWAP1 PUSH2 0x100 EXP SWAP1 DIV PUSH1 0xFF AND DUP2 JUMP JUMPDEST PUSH1 0x4 PUSH1 0x20 MSTORE DUP1 PUSH0 MSTORE PUSH1 0x40 PUSH0 KECCAK256 PUSH0 SWAP2 POP SWAP1 POP SLOAD DUP2 JUMP JUMPDEST DUP2 PUSH1 0x2 PUSH0 DUP3 DUP2 MSTORE PUSH1 0x20 ADD SWAP1 DUP2 MSTORE PUSH1 0x20 ADD PUSH0 KECCAK256 PUSH1 0x3 ADD PUSH0 SWAP1 SLOAD SWAP1 PUSH2 0x100 EXP SWAP1 DIV PUSH20 0xFFFFFFFFFFFFFFFFFFFFFFFFFFFFFFFFFFFFFFFF AND PUSH20 0xFFFFFFFFFFFFFFFFFFFFFFFFFFFFFFFFFFFFFFFF AND CALLER PUSH20 0xFFFFFFFFFFFFFFFFFFFFFFFFFFFFFFFFFFFFFFFF AND EQ PUSH2 0x169A JUMPI PUSH1 0x40 MLOAD PUSH32 0x8C379A000000000000000000000000000000000000000000000000000000000 DUP2 MSTORE PUSH1 0x4 ADD PUSH2 0x1691 SWAP1 PUSH2 0x1D6E JUMP JUMPDEST PUSH1 0x40 MLOAD DUP1 SWAP2 SUB SWAP1 REVERT JUMPDEST PUSH0 PUSH1 0x2 PUSH0 DUP6 DUP2 MSTORE PUSH1 0x20 ADD SWAP1 DUP2 MSTORE PUSH1 0x20 ADD PUSH0 KECCAK256 SWAP1 POP PUSH1 0x1 PUSH1 0x7 DUP2 GT ISZERO PUSH2 0x16C2 JUMPI PUSH2 0x16C1 PUSH2 0x18E2 JUMP JUMPDEST JUMPDEST DUP2 PUSH1 0x3 ADD PUSH1 0x14 SWAP1 SLOAD SWAP1 PUSH2 0x100 EXP SWAP1 DIV PUSH1 0xFF AND PUSH1 0x7 DUP2 GT ISZERO PUSH2 0x16E6 JUMPI PUSH2 0x16E5 PUSH2 0x18E2 JUMP JUMPDEST JUMPDEST EQ PUSH2 0x1726 JUMPI PUSH1 0x40 MLOAD PUSH32 0x8C379A000000000000000000000000000000000000000000000000000000000 DUP2 MSTORE PUSH1 0x4 ADD PUSH2 0x171D SWAP1 PUSH2 0x241A JUMP JUMPDEST PUSH1 0x40 MLOAD DUP1 SWAP2 SUB SWAP1 REVERT JUMPDEST DUP1 PUSH1 0x6 ADD PUSH0 SWAP1 SLOAD SWAP1 PUSH2 0x100 EXP SWAP1 DIV PUSH1 0xFF AND ISZERO PUSH2 0x1777 JUMPI PUSH1 0x40 MLOAD PUSH32 0x8C379A000000000000000000000000000000000000000000000000000000000 DUP2 MSTORE PUSH1 0x4 ADD PUSH2 0x176E SWAP1 PUSH2 0x2482 JUMP JUMPDEST PUSH1 0x40 MLOAD DUP1 SWAP2 SUB SWAP1 REVERT JUMPDEST DUP3 DUP2 PUSH1 0x5 ADD DUP2 SWAP1 SSTORE POP PUSH1 0x1 DUP2 PUSH1 0x6 ADD PUSH0 PUSH2 0x100 EXP DUP2 SLOAD DUP2 PUSH1 0xFF MUL NOT AND SWAP1 DUP4 ISZERO ISZERO MUL OR SWAP1 SSTORE POP PUSH1 0x2 DUP2 PUSH1 0x3 ADD PUSH1 0x14 PUSH2 0x100 EXP DUP2 SLOAD DUP2 PUSH1 0xFF MUL NOT AND SWAP1 DUP4 PUSH1 0x7 DUP2 GT ISZERO PUSH2 0x17C4 JUMPI PUSH2 0x17C3 PUSH2 0x18E2 JUMP JUMPDEST JUMPDEST MUL OR SWAP1 SSTORE POP DUP4 PUSH32 0x4B70739C5F0BD46E19773020C599342CDBDC3AC59B5E0ABFDD9C1BB441BE59C8 DUP3 PUSH1 0x5 ADD SLOAD PUSH1 0x40 MLOAD PUSH2 0x17FD SWAP2 SWAP1 PUSH2 0x24A0 JUMP JUMPDEST PUSH1 0x40 MLOAD DUP1 SWAP2 SUB SWAP1 LOG2 POP POP POP POP JUMP JUMPDEST PUSH1 0x2 PUSH0 SLOAD SUB PUSH2 0x1846 JUMPI PUSH1 0x40 MLOAD PUSH32 0x3EE5AEB500000000000000000000000000000000000000000000000000000000 DUP2 MSTORE PUSH1 0x4 ADD PUSH1 0x40 MLOAD DUP1 SWAP2 SUB SWAP1 REVERT JUMPDEST PUSH1 0x2 PUSH0 DUP2 SWAP1 SSTORE POP JUMP JUMPDEST PUSH1 0x1 PUSH0 DUP2 SWAP1 SSTORE POP JUMP JUMPDEST PUSH0 PUSH0 REVERT JUMPDEST PUSH0 DUP2 SWAP1 POP SWAP2 SWAP1 POP JUMP JUMPDEST PUSH2 0x186E DUP2 PUSH2 0x185C JUMP JUMPDEST DUP2 EQ PUSH2 0x1878 JUMPI PUSH0 PUSH0 REVERT JUMPDEST POP JUMP JUMPDEST PUSH0 DUP2 CALLDATALOAD SWAP1 POP PUSH2 0x1889 DUP2 PUSH2 0x1865 JUMP JUMPDEST SWAP3 SWAP2 POP POP JUMP JUMPDEST PUSH0 PUSH1 0x20 DUP3 DUP5 SUB SLT ISZERO PUSH2 0x18A4 JUMPI PUSH2 0x18A3 PUSH2 0x1858 JUMP JUMPDEST JUMPDEST PUSH0 PUSH2 0x18B1 DUP5 DUP3 DUP6 ADD PUSH2 0x187B JUMP JUMPDEST SWAP2 POP POP SWAP3 SWAP2 POP POP JUMP JUMPDEST PUSH2 0x18C3 DUP2 PUSH2 0x185C JUMP JUMPDEST DUP3 MSTORE POP POP JUMP JUMPDEST PUSH0 PUSH1 0x20 DUP3 ADD SWAP1 POP PUSH2 0x18DC PUSH0 DUP4 ADD DUP5 PUSH2 0x18BA JUMP JUMPDEST SWAP3 SWAP2 POP POP JUMP JUMPDEST PUSH32 0x4E487B7100000000000000000000000000000000000000000000000000000000 PUSH0 MSTORE PUSH1 0x21 PUSH1 0x4 MSTORE PUSH1 0x24 PUSH0 REVERT JUMPDEST PUSH1 0x8 DUP2 LT PUSH2 0x1920 JUMPI PUSH2 0x191F PUSH2 0x18E2 JUMP JUMPDEST JUMPDEST POP JUMP JUMPDEST PUSH0 DUP2 SWAP1 POP PUSH2 0x1930 DUP3 PUSH2 0x190F JUMP JUMPDEST SWAP2 SWAP1 POP JUMP JUMPDEST PUSH0 PUSH2 0x193F DUP3 PUSH2 0x1923 JUMP JUMPDEST SWAP1 POP SWAP2 SWAP1 POP JUMP JUMPDEST PUSH2 0x194F DUP2 PUSH2 0x1935 JUMP JUMPDEST DUP3 MSTORE POP POP JUMP JUMPDEST PUSH0 PUSH1 0x20 DUP3 ADD SWAP1 POP PUSH2 0x1968 PUSH0 DUP4 ADD DUP5 PUSH2 0x1946 JUMP JUMPDEST SWAP3 SWAP2 POP POP JUMP JUMPDEST PUSH0 PUSH20 0xFFFFFFFFFFFFFFFFFFFFFFFFFFFFFFFFFFFFFFFF DUP3 AND SWAP1 POP SWAP2 SWAP1 POP JUMP JUMPDEST PUSH0 PUSH2 0x1997 DUP3 PUSH2 0x196E JUMP JUMPDEST SWAP1 POP SWAP2 SWAP1 POP JUMP JUMPDEST PUSH2 0x19A7 DUP2 PUSH2 0x198D JUMP JUMPDEST DUP3 MSTORE POP POP JUMP JUMPDEST PUSH0 DUP2 SWAP1 POP SWAP2 SWAP1 POP JUMP JUMPDEST PUSH2 0x19BF DUP2 PUSH2 0x19AD JUMP JUMPDEST DUP3 MSTORE POP POP JUMP JUMPDEST PUSH0 DUP2 ISZERO ISZERO SWAP1 POP SWAP2 SWAP1 POP JUMP JUMPDEST PUSH2 0x19D9 DUP2 PUSH2 0x19C5 JUMP JUMPDEST DUP3 MSTORE POP POP JUMP JUMPDEST PUSH0 PUSH2 0x100 DUP3 ADD SWAP1 POP PUSH2 0x19F3 PUSH0 DUP4 ADD DUP12 PUSH2 0x18BA JUMP JUMPDEST PUSH2 0x1A00 PUSH1 0x20 DUP4 ADD DUP11 PUSH2 0x18BA JUMP JUMPDEST PUSH2 0x1A0D PUSH1 0x40 DUP4 ADD DUP10 PUSH2 0x199E JUMP JUMPDEST PUSH2 0x1A1A PUSH1 0x60 DUP4 ADD DUP9 PUSH2 0x199E JUMP JUMPDEST PUSH2 0x1A27 PUSH1 0x80 DUP4 ADD DUP8 PUSH2 0x1946 JUMP JUMPDEST PUSH2 0x1A34 PUSH1 0xA0 DUP4 ADD DUP7 PUSH2 0x19B6 JUMP JUMPDEST PUSH2 0x1A41 PUSH1 0xC0 DUP4 ADD DUP6 PUSH2 0x19B6 JUMP JUMPDEST PUSH2 0x1A4E PUSH1 0xE0 DUP4 ADD DUP5 PUSH2 0x19D0 JUMP JUMPDEST SWAP10 SWAP9 POP POP POP POP POP POP POP POP POP JUMP JUMPDEST PUSH0 PUSH2 0x1A65 DUP3 PUSH2 0x196E JUMP JUMPDEST SWAP1 POP SWAP2 SWAP1 POP JUMP JUMPDEST PUSH2 0x1A75 DUP2 PUSH2 0x1A5B JUMP JUMPDEST DUP2 EQ PUSH2 0x1A7F JUMPI PUSH0 PUSH0 REVERT JUMPDEST POP JUMP JUMPDEST PUSH0 DUP2 CALLDATALOAD SWAP1 POP PUSH2 0x1A90 DUP2 PUSH2 0x1A6C JUMP JUMPDEST SWAP3 SWAP2 POP POP JUMP JUMPDEST PUSH0 PUSH1 0x20 DUP3 DUP5 SUB SLT ISZERO PUSH2 0x1AAB JUMPI PUSH2 0x1AAA PUSH2 0x1858 JUMP JUMPDEST JUMPDEST PUSH0 PUSH2 0x1AB8 DUP5 DUP3 DUP6 ADD PUSH2 0x1A82 JUMP JUMPDEST SWAP2 POP POP SWAP3 SWAP2 POP POP JUMP JUMPDEST PUSH2 0x1ACA DUP2 PUSH2 0x1A5B JUMP JUMPDEST DUP3 MSTORE POP POP JUMP JUMPDEST PUSH0 PUSH1 0x20 DUP3 ADD SWAP1 POP PUSH2 0x1AE3 PUSH0 DUP4 ADD DUP5 PUSH2 0x1AC1 JUMP JUMPDEST SWAP3 SWAP2 POP POP JUMP JUMPDEST PUSH2 0x1AF2 DUP2 PUSH2 0x198D JUMP JUMPDEST DUP2 EQ PUSH2 0x1AFC JUMPI PUSH0 PUSH0 REVERT JUMPDEST POP JUMP JUMPDEST PUSH0 DUP2 CALLDATALOAD SWAP1 POP PUSH2 0x1B0D DUP2 PUSH2 0x1AE9 JUMP JUMPDEST SWAP3 SWAP2 POP POP JUMP JUMPDEST PUSH2 0x1B1C DUP2 PUSH2 0x19AD JUMP JUMPDEST DUP2 EQ PUSH2 0x1B26 JUMPI PUSH0 PUSH0 REVERT JUMPDEST POP JUMP JUMPDEST PUSH0 DUP2 CALLDATALOAD SWAP1 POP PUSH2 0x1B37 DUP2 PUSH2 0x1B13 JUMP JUMPDEST SWAP3 SWAP2 POP POP JUMP JUMPDEST PUSH0 PUSH0 PUSH0 PUSH1 0x60 DUP5 DUP7 SUB SLT ISZERO PUSH2 0x1B54 JUMPI PUSH2 0x1B53 PUSH2 0x1858 JUMP JUMPDEST JUMPDEST PUSH0 PUSH2 0x1B61 DUP7 DUP3 DUP8 ADD PUSH2 0x1AFF JUMP JUMPDEST SWAP4 POP POP PUSH1 0x20 PUSH2 0x1B72 DUP7 DUP3 DUP8 ADD PUSH2 0x1B29 JUMP JUMPDEST SWAP3 POP POP PUSH1 0x40 PUSH2 0x1B83 DUP7 DUP3 DUP8 ADD PUSH2 0x187B JUMP JUMPDEST SWAP2 POP POP SWAP3 POP SWAP3 POP SWAP3 JUMP JUMPDEST PUSH0 PUSH0 PUSH1 0x40 DUP4 DUP6 SUB SLT ISZERO PUSH2 0x1BA3 JUMPI PUSH2 0x1BA2 PUSH2 0x1858 JUMP JUMPDEST JUMPDEST PUSH0 PUSH2 0x1BB0 DUP6 DUP3 DUP7 ADD PUSH2 0x187B JUMP JUMPDEST SWAP3 POP POP PUSH1 0x20 PUSH2 0x1BC1 DUP6 DUP3 DUP7 ADD PUSH2 0x1B29 JUMP JUMPDEST SWAP2 POP POP SWAP3 POP SWAP3 SWAP1 POP JUMP JUMPDEST PUSH0 PUSH1 0x20 DUP3 ADD SWAP1 POP PUSH2 0x1BDE PUSH0 DUP4 ADD DUP5 PUSH2 0x19D0 JUMP JUMPDEST SWAP3 SWAP2 POP POP JUMP JUMPDEST PUSH0 DUP3 DUP3 MSTORE PUSH1 0x20 DUP3 ADD SWAP1 POP SWAP3 SWAP2 POP POP JUMP JUMPDEST PUSH32 0x4E6F742063726561746F72000000000000000000000000000000000000000000 PUSH0 DUP3 ADD MSTORE POP JUMP JUMPDEST PUSH0 PUSH2 0x1C28 PUSH1 0xB DUP4 PUSH2 0x1BE4 JUMP JUMPDEST SWAP2 POP PUSH2 0x1C33 DUP3 PUSH2 0x1BF4 JUMP JUMPDEST PUSH1 0x20 DUP3 ADD SWAP1 POP SWAP2 SWAP1 POP JUMP JUMPDEST PUSH0 PUSH1 0x20 DUP3 ADD SWAP1 POP DUP2 DUP2 SUB PUSH0 DUP4 ADD MSTORE PUSH2 0x1C55 DUP2 PUSH2 0x1C1C JUMP JUMPDEST SWAP1 POP SWAP2 SWAP1 POP JUMP JUMPDEST PUSH32 0x57726F6E67207374617475730000000000000000000000000000000000000000 PUSH0 DUP3 ADD MSTORE POP JUMP JUMPDEST PUSH0 PUSH2 0x1C90 PUSH1 0xC DUP4 PUSH2 0x1BE4 JUMP JUMPDEST SWAP2 POP PUSH2 0x1C9B DUP3 PUSH2 0x1C5C JUMP JUMPDEST PUSH1 0x20 DUP3 ADD SWAP1 POP SWAP2 SWAP1 POP JUMP JUMPDEST PUSH0 PUSH1 0x20 DUP3 ADD SWAP1 POP DUP2 DUP2 SUB PUSH0 DUP4 ADD MSTORE PUSH2 0x1CBD DUP2 PUSH2 0x1C84 JUMP JUMPDEST SWAP1 POP SWAP2 SWAP1 POP JUMP JUMPDEST PUSH32 0x4E487B7100000000000000000000000000000000000000000000000000000000 PUSH0 MSTORE PUSH1 0x11 PUSH1 0x4 MSTORE PUSH1 0x24 PUSH0 REVERT JUMPDEST PUSH0 PUSH2 0x1CFB DUP3 PUSH2 0x185C JUMP JUMPDEST SWAP2 POP PUSH2 0x1D06 DUP4 PUSH2 0x185C JUMP JUMPDEST SWAP3 POP DUP3 DUP3 ADD SWAP1 POP DUP1 DUP3 GT ISZERO PUSH2 0x1D1E JUMPI PUSH2 0x1D1D PUSH2 0x1CC4 JUMP JUMPDEST JUMPDEST SWAP3 SWAP2 POP POP JUMP JUMPDEST PUSH32 0x4E6F7420636F756E746572706172747900000000000000000000000000000000 PUSH0 DUP3 ADD MSTORE POP JUMP JUMPDEST PUSH0 PUSH2 0x1D58 PUSH1 0x10 DUP4 PUSH2 0x1BE4 JUMP JUMPDEST SWAP2 POP PUSH2 0x1D63 DUP3 PUSH2 0x1D24 JUMP JUMPDEST PUSH1 0x20 DUP3 ADD SWAP1 POP SWAP2 SWAP1 POP JUMP JUMPDEST PUSH0 PUSH1 0x20 DUP3 ADD SWAP1 POP DUP2 DUP2 SUB PUSH0 DUP4 ADD MSTORE PUSH2 0x1D85 DUP2 PUSH2 0x1D4C JUMP JUMPDEST SWAP1 POP SWAP2 SWAP1 POP JUMP JUMPDEST PUSH32 0x4F6E6C7920436F6D706C65746564000000000000000000000000000000000000 PUSH0 DUP3 ADD MSTORE POP JUMP JUMPDEST PUSH0 PUSH2 0x1DC0 PUSH1 0xE DUP4 PUSH2 0x1BE4 JUMP JUMPDEST SWAP2 POP PUSH2 0x1DCB DUP3 PUSH2 0x1D8C JUMP JUMPDEST PUSH1 0x20 DUP3 ADD SWAP1 POP SWAP2 SWAP1 POP JUMP JUMPDEST PUSH0 PUSH1 0x20 DUP3 ADD SWAP1 POP DUP2 DUP2 SUB PUSH0 DUP4 ADD MSTORE PUSH2 0x1DED DUP2 PUSH2 0x1DB4 JUMP JUMPDEST SWAP1 POP SWAP2 SWAP1 POP JUMP JUMPDEST PUSH32 0x4F7261636C6520616C7265616479207365740000000000000000000000000000 PUSH0 DUP3 ADD MSTORE POP JUMP JUMPDEST PUSH0 PUSH2 0x1E28 PUSH1 0x12 DUP4 PUSH2 0x1BE4 JUMP JUMPDEST SWAP2 POP PUSH2 0x1E33 DUP3 PUSH2 0x1DF4 JUMP JUMPDEST PUSH1 0x20 DUP3 ADD SWAP1 POP SWAP2 SWAP1 POP JUMP JUMPDEST PUSH0 PUSH1 0x20 DUP3 ADD SWAP1 POP DUP2 DUP2 SUB PUSH0 DUP4 ADD MSTORE PUSH2 0x1E55 DUP2 PUSH2 0x1E1C JUMP JUMPDEST SWAP1 POP SWAP2 SWAP1 POP JUMP JUMPDEST PUSH32 0x496E76616C6964206F7261636C65000000000000000000000000000000000000 PUSH0 DUP3 ADD MSTORE POP JUMP JUMPDEST PUSH0 PUSH2 0x1E90 PUSH1 0xE DUP4 PUSH2 0x1BE4 JUMP JUMPDEST SWAP2 POP PUSH2 0x1E9B DUP3 PUSH2 0x1E5C JUMP JUMPDEST PUSH1 0x20 DUP3 ADD SWAP1 POP SWAP2 SWAP1 POP JUMP JUMPDEST PUSH0 PUSH1 0x20 DUP3 ADD SWAP1 POP DUP2 DUP2 SUB PUSH0 DUP4 ADD MSTORE PUSH2 0x1EBD DUP2 PUSH2 0x1E84 JUMP JUMPDEST SWAP1 POP SWAP2 SWAP1 POP JUMP JUMPDEST PUSH32 0x4E6F74207369676E656400000000000000000000000000000000000000000000 PUSH0 DUP3 ADD MSTORE POP JUMP JUMPDEST PUSH0 PUSH2 0x1EF8 PUSH1 0xA DUP4 PUSH2 0x1BE4 JUMP JUMPDEST SWAP2 POP PUSH2 0x1F03 DUP3 PUSH2 0x1EC4 JUMP JUMPDEST PUSH1 0x20 DUP3 ADD SWAP1 POP SWAP2 SWAP1 POP JUMP JUMPDEST PUSH0 PUSH1 0x20 DUP3 ADD SWAP1 POP DUP2 DUP2 SUB PUSH0 DUP4 ADD MSTORE PUSH2 0x1F25 DUP2 PUSH2 0x1EEC JUMP JUMPDEST SWAP1 POP SWAP2 SWAP1 POP JUMP JUMPDEST PUSH32 0x44656C697665727920666C6F7720726571756972656400000000000000000000 PUSH0 DUP3 ADD MSTORE POP JUMP JUMPDEST PUSH0 PUSH2 0x1F60 PUSH1 0x16 DUP4 PUSH2 0x1BE4 JUMP JUMPDEST SWAP2 POP PUSH2 0x1F6B DUP3 PUSH2 0x1F2C JUMP JUMPDEST PUSH1 0x20 DUP3 ADD SWAP1 POP SWAP2 SWAP1 POP JUMP JUMPDEST PUSH0 PUSH1 0x20 DUP3 ADD SWAP1 POP DUP2 DUP2 SUB PUSH0 DUP4 ADD MSTORE PUSH2 0x1F8D DUP2 PUSH2 0x1F54 JUMP JUMPDEST SWAP1 POP SWAP2 SWAP1 POP JUMP JUMPDEST PUSH32 0x4E6F742043726561746564000000000000000000000000000000000000000000 PUSH0 DUP3 ADD MSTORE POP JUMP JUMPDEST PUSH0 PUSH2 0x1FC8 PUSH1 0xB DUP4 PUSH2 0x1BE4 JUMP JUMPDEST SWAP2 POP PUSH2 0x1FD3 DUP3 PUSH2 0x1F94 JUMP JUMPDEST PUSH1 0x20 DUP3 ADD SWAP1 POP SWAP2 SWAP1 POP JUMP JUMPDEST PUSH0 PUSH1 0x20 DUP3 ADD SWAP1 POP DUP2 DUP2 SUB PUSH0 DUP4 ADD MSTORE PUSH2 0x1FF5 DUP2 PUSH2 0x1FBC JUMP JUMPDEST SWAP1 POP SWAP2 SWAP1 POP JUMP JUMPDEST PUSH32 0x302061646472206E6F7420616C6C6F7765640000000000000000000000000000 PUSH0 DUP3 ADD MSTORE POP JUMP JUMPDEST PUSH0 PUSH2 0x2030 PUSH1 0x12 DUP4 PUSH2 0x1BE4 JUMP JUMPDEST SWAP2 POP PUSH2 0x203B DUP3 PUSH2 0x1FFC JUMP JUMPDEST PUSH1 0x20 DUP3 ADD SWAP1 POP SWAP2 SWAP1 POP JUMP JUMPDEST PUSH0 PUSH1 0x20 DUP3 ADD SWAP1 POP DUP2 DUP2 SUB PUSH0 DUP4 ADD MSTORE PUSH2 0x205D DUP2 PUSH2 0x2024 JUMP JUMPDEST SWAP1 POP SWAP2 SWAP1 POP JUMP JUMPDEST PUSH32 0x455448206D69736D617463680000000000000000000000000000000000000000 PUSH0 DUP3 ADD MSTORE POP JUMP JUMPDEST PUSH0 PUSH2 0x2098 PUSH1 0xC DUP4 PUSH2 0x1BE4 JUMP JUMPDEST SWAP2 POP PUSH2 0x20A3 DUP3 PUSH2 0x2064 JUMP JUMPDEST PUSH1 0x20 DUP3 ADD SWAP1 POP SWAP2 SWAP1 POP JUMP JUMPDEST PUSH0 PUSH1 0x20 DUP3 ADD SWAP1 POP DUP2 DUP2 SUB PUSH0 DUP4 ADD MSTORE PUSH2 0x20C5 DUP2 PUSH2 0x208C JUMP JUMPDEST SWAP1 POP SWAP2 SWAP1 POP JUMP JUMPDEST PUSH0 PUSH2 0x20D6 DUP3 PUSH2 0x185C JUMP JUMPDEST SWAP2 POP PUSH32 0xFFFFFFFFFFFFFFFFFFFFFFFFFFFFFFFFFFFFFFFFFFFFFFFFFFFFFFFFFFFFFFFF DUP3 SUB PUSH2 0x2108 JUMPI PUSH2 0x2107 PUSH2 0x1CC4 JUMP JUMPDEST JUMPDEST PUSH1 0x1 DUP3 ADD SWAP1 POP SWAP2 SWAP1 POP JUMP JUMPDEST PUSH0 DUP2 SWAP1 POP SWAP2 SWAP1 POP JUMP JUMPDEST PUSH0 PUSH2 0x2136 PUSH2 0x2131 PUSH2 0x212C DUP5 PUSH2 0x196E JUMP JUMPDEST PUSH2 0x2113 JUMP JUMPDEST PUSH2 0x196E JUMP JUMPDEST SWAP1 POP SWAP2 SWAP1 POP JUMP JUMPDEST PUSH0 PUSH2 0x2147 DUP3 PUSH2 0x211C JUMP JUMPDEST SWAP1 POP SWAP2 SWAP1 POP JUMP JUMPDEST PUSH0 PUSH2 0x2158 DUP3 PUSH2 0x213D JUMP JUMPDEST SWAP1 POP SWAP2 SWAP1 POP JUMP JUMPDEST PUSH2 0x2168 DUP2 PUSH2 0x214E JUMP JUMPDEST DUP3 MSTORE POP POP JUMP JUMPDEST PUSH0 PUSH1 0x40 DUP3 ADD SWAP1 POP PUSH2 0x2181 PUSH0 DUP4 ADD DUP6 PUSH2 0x1AC1 JUMP JUMPDEST PUSH2 0x218E PUSH1 0x20 DUP4 ADD DUP5 PUSH2 0x215F JUMP JUMPDEST SWAP4 SWAP3 POP POP POP JUMP JUMPDEST PUSH32 0x4E6F74206F7261636C6500000000000000000000000000000000000000000000 PUSH0 DUP3 ADD MSTORE POP JUMP JUMPDEST PUSH0 PUSH2 0x21C9 PUSH1 0xA DUP4 PUSH2 0x1BE4 JUMP JUMPDEST SWAP2 POP PUSH2 0x21D4 DUP3 PUSH2 0x2195 JUMP JUMPDEST PUSH1 0x20 DUP3 ADD SWAP1 POP SWAP2 SWAP1 POP JUMP JUMPDEST PUSH0 PUSH1 0x20 DUP3 ADD SWAP1 POP DUP2 DUP2 SUB PUSH0 DUP4 ADD MSTORE PUSH2 0x21F6 DUP2 PUSH2 0x21BD JUMP JUMPDEST SWAP1 POP SWAP2 SWAP1 POP JUMP JUMPDEST PUSH32 0x4E6F2064656C6976657279000000000000000000000000000000000000000000 PUSH0 DUP3 ADD MSTORE POP JUMP JUMPDEST PUSH0 PUSH2 0x2231 PUSH1 0xB DUP4 PUSH2 0x1BE4 JUMP JUMPDEST SWAP2 POP PUSH2 0x223C DUP3 PUSH2 0x21FD JUMP JUMPDEST PUSH1 0x20 DUP3 ADD SWAP1 POP SWAP2 SWAP1 POP JUMP JUMPDEST PUSH0 PUSH1 0x20 DUP3 ADD SWAP1 POP DUP2 DUP2 SUB PUSH0 DUP4 ADD MSTORE PUSH2 0x225E DUP2 PUSH2 0x2225 JUMP JUMPDEST SWAP1 POP SWAP2 SWAP1 POP JUMP JUMPDEST PUSH32 0x48617368206D69736D6174636800000000000000000000000000000000000000 PUSH0 DUP3 ADD MSTORE POP JUMP JUMPDEST PUSH0 PUSH2 0x2299 PUSH1 0xD DUP4 PUSH2 0x1BE4 JUMP JUMPDEST SWAP2 POP PUSH2 0x22A4 DUP3 PUSH2 0x2265 JUMP JUMPDEST PUSH1 0x20 DUP3 ADD SWAP1 POP SWAP2 SWAP1 POP JUMP JUMPDEST PUSH0 PUSH1 0x20 DUP3 ADD SWAP1 POP DUP2 DUP2 SUB PUSH0 DUP4 ADD MSTORE PUSH2 0x22C6 DUP2 PUSH2 0x228D JUMP JUMPDEST SWAP1 POP SWAP2 SWAP1 POP JUMP JUMPDEST PUSH32 0x4E6F7420776974686472617761626C6500000000000000000000000000000000 PUSH0 DUP3 ADD MSTORE POP JUMP JUMPDEST PUSH0 PUSH2 0x2301 PUSH1 0x10 DUP4 PUSH2 0x1BE4 JUMP JUMPDEST SWAP2 POP PUSH2 0x230C DUP3 PUSH2 0x22CD JUMP JUMPDEST PUSH1 0x20 DUP3 ADD SWAP1 POP SWAP2 SWAP1 POP JUMP JUMPDEST PUSH0 PUSH1 0x20 DUP3 ADD SWAP1 POP DUP2 DUP2 SUB PUSH0 DUP4 ADD MSTORE PUSH2 0x232E DUP2 PUSH2 0x22F5 JUMP JUMPDEST SWAP1 POP SWAP2 SWAP1 POP JUMP JUMPDEST PUSH32 0x4E6F2062616C616E636500000000000000000000000000000000000000000000 PUSH0 DUP3 ADD MSTORE POP JUMP JUMPDEST PUSH0 PUSH2 0x2369 PUSH1 0xA DUP4 PUSH2 0x1BE4 JUMP JUMPDEST SWAP2 POP PUSH2 0x2374 DUP3 PUSH2 0x2335 JUMP JUMPDEST PUSH1 0x20 DUP3 ADD SWAP1 POP SWAP2 SWAP1 POP JUMP JUMPDEST PUSH0 PUSH1 0x20 DUP3 ADD SWAP1 POP DUP2 DUP2 SUB PUSH0 DUP4 ADD MSTORE PUSH2 0x2396 DUP2 PUSH2 0x235D JUMP JUMPDEST SWAP1 POP SWAP2 SWAP1 POP JUMP JUMPDEST PUSH0 PUSH2 0x23A7 DUP3 PUSH2 0x185C JUMP JUMPDEST SWAP2 POP PUSH2 0x23B2 DUP4 PUSH2 0x185C JUMP JUMPDEST SWAP3 POP DUP3 DUP3 SUB SWAP1 POP DUP2 DUP2 GT ISZERO PUSH2 0x23CA JUMPI PUSH2 0x23C9 PUSH2 0x1CC4 JUMP JUMPDEST JUMPDEST SWAP3 SWAP2 POP POP JUMP JUMPDEST PUSH32 0x4E6F74205369676E656400000000000000000000000000000000000000000000 PUSH0 DUP3 ADD MSTORE POP JUMP JUMPDEST PUSH0 PUSH2 0x2404 PUSH1 0xA DUP4 PUSH2 0x1BE4 JUMP JUMPDEST SWAP2 POP PUSH2 0x240F DUP3 PUSH2 0x23D0 JUMP JUMPDEST PUSH1 0x20 DUP3 ADD SWAP1 POP SWAP2 SWAP1 POP JUMP JUMPDEST PUSH0 PUSH1 0x20 DUP3 ADD SWAP1 POP DUP2 DUP2 SUB PUSH0 DUP4 ADD MSTORE PUSH2 0x2431 DUP2 PUSH2 0x23F8 JUMP JUMPDEST SWAP1 POP SWAP2 SWAP1 POP JUMP JUMPDEST PUSH32 0x416C726561647920736574000000000000000000000000000000000000000000 PUSH0 DUP3 ADD MSTORE POP JUMP JUMPDEST PUSH0 PUSH2 0x246C PUSH1 0xB DUP4 PUSH2 0x1BE4 JUMP JUMPDEST SWAP2 POP PUSH2 0x2477 DUP3 PUSH2 0x2438 JUMP JUMPDEST PUSH1 0x20 DUP3 ADD SWAP1 POP SWAP2 SWAP1 POP JUMP JUMPDEST PUSH0 PUSH1 0x20 DUP3 ADD SWAP1 POP DUP2 DUP2 SUB PUSH0 DUP4 ADD MSTORE PUSH2 0x2499 DUP2 PUSH2 0x2460 JUMP JUMPDEST SWAP1 POP SWAP2 SWAP1 POP JUMP JUMPDEST PUSH0 PUSH1 0x20 DUP3 ADD SWAP1 POP PUSH2 0x24B3 PUSH0 DUP4 ADD DUP5 PUSH2 0x19B6 JUMP JUMPDEST SWAP3 SWAP2 POP POP JUMP INVALID LOG2 PUSH5 0x6970667358 0x22 SLT KECCAK256 DUP6 0xC8 PREVRANDAO SWAP8 EXTDELEGATECALL SWAP6 0xB4 PUSH2 0x897E SWAP4 0xCB BLOBBASEFEE PUSH14 0x84E573D4450CD05033FCE2AEE8DF SWAP4 0xBD 0xEB SWAP7 PUSH5 0x736F6C6343 STOP ADDMOD 0x1E STOP CALLER "
		},
		"gasEstimates": {
			"creation": {
				"codeDepositCost": "1891000",
				"executionCost": "24109",
				"totalCost": "1915109"
			},
			"external": {
				"approveDeliveryAsCreator(uint256)": "infinite",
				"confirmCompletion(uint256)": "infinite",
				"confirmDeliveryByOracle(uint256,bytes32)": "34969",
				"contractCounter()": "2471",
				"contracts(uint256)": "infinite",
				"createContract(address,bytes32,uint256)": "infinite",
				"deactivateContract(uint256)": "42817",
				"getContractStatus(uint256)": "3023",
				"oracle()": "2597",
				"oracleSet()": "2561",
				"pendingWithdrawals(address)": "2868",
				"setDeliveryTracking(uint256,bytes32)": "infinite",
				"setOracle(address)": "52500",
				"signContract(uint256)": "30554",
				"withdrawFundsFrom(uint256)": "infinite"
			}
		},
		"methodIdentifiers": {
			"approveDeliveryAsCreator(uint256)": "032ca42d",
			"confirmCompletion(uint256)": "94aeb613",
			"confirmDeliveryByOracle(uint256,bytes32)": "a78d9bab",
			"contractCounter()": "067bd3b4",
			"contracts(uint256)": "474da79a",
			"createContract(address,bytes32,uint256)": "9cc437ba",
			"deactivateContract(uint256)": "22a45cd0",
			"getContractStatus(uint256)": "17b18458",
			"oracle()": "7dc0d1d0",
			"oracleSet()": "edb3b27a",
			"pendingWithdrawals(address)": "f3f43703",
			"setDeliveryTracking(uint256,bytes32)": "f436199d",
			"setOracle(address)": "7adbf973",
			"signContract(uint256)": "9537e8d1",
			"withdrawFundsFrom(uint256)": "df5c2980"
		}
	},
	"abi": [
		{
			"inputs": [],
			"name": "ReentrancyGuardReentrantCall",
			"type": "error"
		},
		{
			"anonymous": false,
			"inputs": [
				{
					"indexed": true,
					"internalType": "uint256",
					"name": "contractId",
					"type": "uint256"
				},
				{
					"indexed": false,
					"internalType": "address",
					"name": "creator",
					"type": "address"
				},
				{
					"indexed": false,
					"internalType": "address",
					"name": "counterparty",
					"type": "address"
				}
			],
			"name": "ContractCreated",
			"type": "event"
		},
		{
			"anonymous": false,
			"inputs": [
				{
					"indexed": true,
					"internalType": "uint256",
					"name": "contractId",
					"type": "uint256"
				}
			],
			"name": "ContractDeactivated",
			"type": "event"
		},
		{
			"anonymous": false,
			"inputs": [
				{
					"indexed": true,
					"internalType": "uint256",
					"name": "contractId",
					"type": "uint256"
				}
			],
			"name": "ContractSigned",
			"type": "event"
		},
		{
			"anonymous": false,
			"inputs": [
				{
					"indexed": true,
					"internalType": "uint256",
					"name": "contractId",
					"type": "uint256"
				}
			],
			"name": "DeliveryApproved",
			"type": "event"
		},
		{
			"anonymous": false,
			"inputs": [
				{
					"indexed": true,
					"internalType": "uint256",
					"name": "contractId",
					"type": "uint256"
				}
			],
			"name": "DeliveryConfirmed",
			"type": "event"
		},
		{
			"anonymous": false,
			"inputs": [
				{
					"indexed": true,
					"internalType": "uint256",
					"name": "contractId",
					"type": "uint256"
				},
				{
					"indexed": true,
					"internalType": "address",
					"name": "account",
					"type": "address"
				},
				{
					"indexed": false,
					"internalType": "uint256",
					"name": "amount",
					"type": "uint256"
				}
			],
			"name": "FundsWithdrawn",
			"type": "event"
		},
		{
			"anonymous": false,
			"inputs": [
				{
					"indexed": true,
					"internalType": "address",
					"name": "oracle",
					"type": "address"
				}
			],
			"name": "OracleSet",
			"type": "event"
		},
		{
			"anonymous": false,
			"inputs": [
				{
					"indexed": true,
					"internalType": "uint256",
					"name": "contractId",
					"type": "uint256"
				},
				{
					"indexed": true,
					"internalType": "address",
					"name": "to",
					"type": "address"
				},
				{
					"indexed": false,
					"internalType": "uint256",
					"name": "amount",
					"type": "uint256"
				}
			],
			"name": "PaymentReleased",
			"type": "event"
		},
		{
			"anonymous": false,
			"inputs": [
				{
					"indexed": true,
					"internalType": "uint256",
					"name": "contractId",
					"type": "uint256"
				},
				{
					"indexed": false,
					"internalType": "bytes32",
					"name": "trackingHash",
					"type": "bytes32"
				}
			],
			"name": "TrackingHashSet",
			"type": "event"
		},
		{
			"inputs": [
				{
					"internalType": "uint256",
					"name": "_contractId",
					"type": "uint256"
				}
			],
			"name": "approveDeliveryAsCreator",
			"outputs": [],
			"stateMutability": "nonpayable",
			"type": "function"
		},
		{
			"inputs": [
				{
					"internalType": "uint256",
					"name": "_contractId",
					"type": "uint256"
				}
			],
			"name": "confirmCompletion",
			"outputs": [],
			"stateMutability": "nonpayable",
			"type": "function"
		},
		{
			"inputs": [
				{
					"internalType": "uint256",
					"name": "_contractId",
					"type": "uint256"
				},
				{
					"internalType": "bytes32",
					"name": "_trackingNumberHash",
					"type": "bytes32"
				}
			],
			"name": "confirmDeliveryByOracle",
			"outputs": [],
			"stateMutability": "nonpayable",
			"type": "function"
		},
		{
			"inputs": [],
			"name": "contractCounter",
			"outputs": [
				{
					"internalType": "uint256",
					"name": "",
					"type": "uint256"
				}
			],
			"stateMutability": "view",
			"type": "function"
		},
		{
			"inputs": [
				{
					"internalType": "uint256",
					"name": "",
					"type": "uint256"
				}
			],
			"name": "contracts",
			"outputs": [
				{
					"internalType": "uint256",
					"name": "id",
					"type": "uint256"
				},
				{
					"internalType": "uint256",
					"name": "amount",
					"type": "uint256"
				},
				{
					"internalType": "address payable",
					"name": "creator",
					"type": "address"
				},
				{
					"internalType": "address payable",
					"name": "counterparty",
					"type": "address"
				},
				{
					"internalType": "enum ContractManager.ContractStatus",
					"name": "status",
					"type": "uint8"
				},
				{
					"internalType": "bytes32",
					"name": "contractHash",
					"type": "bytes32"
				},
				{
					"internalType": "bytes32",
					"name": "deliveryTrackingHash",
					"type": "bytes32"
				},
				{
					"internalType": "bool",
					"name": "deliveryRequired",
					"type": "bool"
				}
			],
			"stateMutability": "view",
			"type": "function"
		},
		{
			"inputs": [
				{
					"internalType": "address payable",
					"name": "_counterparty",
					"type": "address"
				},
				{
					"internalType": "bytes32",
					"name": "_contractHash",
					"type": "bytes32"
				},
				{
					"internalType": "uint256",
					"name": "_amount",
					"type": "uint256"
				}
			],
			"name": "createContract",
			"outputs": [],
			"stateMutability": "payable",
			"type": "function"
		},
		{
			"inputs": [
				{
					"internalType": "uint256",
					"name": "_contractId",
					"type": "uint256"
				}
			],
			"name": "deactivateContract",
			"outputs": [],
			"stateMutability": "nonpayable",
			"type": "function"
		},
		{
			"inputs": [
				{
					"internalType": "uint256",
					"name": "_contractId",
					"type": "uint256"
				}
			],
			"name": "getContractStatus",
			"outputs": [
				{
					"internalType": "enum ContractManager.ContractStatus",
					"name": "",
					"type": "uint8"
				}
			],
			"stateMutability": "view",
			"type": "function"
		},
		{
			"inputs": [],
			"name": "oracle",
			"outputs": [
				{
					"internalType": "address",
					"name": "",
					"type": "address"
				}
			],
			"stateMutability": "view",
			"type": "function"
		},
		{
			"inputs": [],
			"name": "oracleSet",
			"outputs": [
				{
					"internalType": "bool",
					"name": "",
					"type": "bool"
				}
			],
			"stateMutability": "view",
			"type": "function"
		},
		{
			"inputs": [
				{
					"internalType": "address",
					"name": "",
					"type": "address"
				}
			],
			"name": "pendingWithdrawals",
			"outputs": [
				{
					"internalType": "uint256",
					"name": "",
					"type": "uint256"
				}
			],
			"stateMutability": "view",
			"type": "function"
		},
		{
			"inputs": [
				{
					"internalType": "uint256",
					"name": "_contractId",
					"type": "uint256"
				},
				{
					"internalType": "bytes32",
					"name": "_trackingNumberHash",
					"type": "bytes32"
				}
			],
			"name": "setDeliveryTracking",
			"outputs": [],
			"stateMutability": "nonpayable",
			"type": "function"
		},
		{
			"inputs": [
				{
					"internalType": "address",
					"name": "_oracle",
					"type": "address"
				}
			],
			"name": "setOracle",
			"outputs": [],
			"stateMutability": "nonpayable",
			"type": "function"
		},
		{
			"inputs": [
				{
					"internalType": "uint256",
					"name": "_contractId",
					"type": "uint256"
				}
			],
			"name": "signContract",
			"outputs": [],
			"stateMutability": "nonpayable",
			"type": "function"
		},
		{
			"inputs": [
				{
					"internalType": "uint256",
					"name": "_contractId",
					"type": "uint256"
				}
			],
			"name": "withdrawFundsFrom",
			"outputs": [],
			"stateMutability": "nonpayable",
			"type": "function"
		}
	]
}