{
	"data": {
		"bytecode": {
			"linkReferences": {},
			"object": "6080604052348015600e575f80fd5b5060015f8190555061184a806100235f395ff3fe608060405260043610610085575f3560e01c8063474da79a11610058578063474da79a1461014157806394aeb613146101825780639537e8d1146101aa5780639ce5b6ca146101d2578063f3f43703146101ee57610085565b8063067bd3b41461008957806317b18458146100b35780631ed4af8c146100ef57806324600fc31461012b575b5f80fd5b348015610094575f80fd5b5061009d61022a565b6040516100aa9190610bc1565b60405180910390f35b3480156100be575f80fd5b506100d960048036038101906100d49190610c15565b610230565b6040516100e69190610cb3565b60405180910390f35b3480156100fa575f80fd5b5061011560048036038101906101109190610c15565b610259565b6040516101229190610d3c565b60405180910390f35b348015610136575f80fd5b5061013f6102fd565b005b34801561014c575f80fd5b5061016760048036038101906101629190610c15565b6104c0565b60405161017996959493929190610d9b565b60405180910390f35b34801561018d575f80fd5b506101a860048036038101906101a39190610c15565b6105c8565b005b3480156101b5575f80fd5b506101d060048036038101906101cb9190610c15565b61081c565b005b6101ec60048036038101906101e79190610f57565b610994565b005b3480156101f9575f80fd5b50610214600480360381019061020f9190610ffe565b610b94565b6040516102219190610bc1565b60405180910390f35b60025481565b5f60015f8381526020019081526020015f206005015f9054906101000a900460ff169050919050565b606060015f8381526020019081526020015f20600301805461027a90611056565b80601f01602080910402602001604051908101604052809291908181526020018280546102a690611056565b80156102f15780601f106102c8576101008083540402835291602001916102f1565b820191905f5260205f20905b8154815290600101906020018083116102d457829003601f168201915b50505050509050919050565b60025f5403610341576040517f08c379a0000000000000000000000000000000000000000000000000000000008152600401610338906110d0565b60405180910390fd5b60025f819055505f60035f3373ffffffffffffffffffffffffffffffffffffffff1673ffffffffffffffffffffffffffffffffffffffff1681526020019081526020015f205490505f81116103cb576040517f08c379a00000000000000000000000000000000000000000000000000000000081526004016103c290611138565b60405180910390fd5b5f60035f3373ffffffffffffffffffffffffffffffffffffffff1673ffffffffffffffffffffffffffffffffffffffff1681526020019081526020015f20819055505f3373ffffffffffffffffffffffffffffffffffffffff168260405161043290611183565b5f6040518083038185875af1925050503d805f811461046c576040519150601f19603f3d011682016040523d82523d5f602084013e610471565b606091505b50509050806104b5576040517f08c379a00000000000000000000000000000000000000000000000000000000081526004016104ac906111e1565b60405180910390fd5b505060015f81905550565b6001602052805f5260405f205f91509050805f015490806001015f9054906101000a900473ffffffffffffffffffffffffffffffffffffffff1690806002015f9054906101000a900473ffffffffffffffffffffffffffffffffffffffff169080600301805461052f90611056565b80601f016020809104026020016040519081016040528092919081815260200182805461055b90611056565b80156105a65780601f1061057d576101008083540402835291602001916105a6565b820191905f5260205f20905b81548152906001019060200180831161058957829003601f168201915b505050505090806004015490806005015f9054906101000a900460ff16905086565b60025f540361060c576040517f08c379a0000000000000000000000000000000000000000000000000000000008152600401610603906110d0565b60405180910390fd5b60025f819055505f60015f8381526020019081526020015f209050806001015f9054906101000a900473ffffffffffffffffffffffffffffffffffffffff1673ffffffffffffffffffffffffffffffffffffffff163373ffffffffffffffffffffffffffffffffffffffff16146106b8576040517f08c379a00000000000000000000000000000000000000000000000000000000081526004016106af9061126f565b60405180910390fd5b600160038111156106cc576106cb610c40565b5b816005015f9054906101000a900460ff1660038111156106ef576106ee610c40565b5b1461072f576040517f08c379a0000000000000000000000000000000000000000000000000000000008152600401610726906112d7565b60405180910390fd5b6002816005015f6101000a81548160ff0219169083600381111561075657610755610c40565b5b0217905550806004015460035f836002015f9054906101000a900473ffffffffffffffffffffffffffffffffffffffff1673ffffffffffffffffffffffffffffffffffffffff1673ffffffffffffffffffffffffffffffffffffffff1681526020019081526020015f205f8282546107ce9190611322565b92505081905550817fc8ef479acdbffd729d96117b951d1c3ee85d98ef42699aec806bc4f0b522461d82600401546040516108099190610bc1565b60405180910390a25060015f8190555050565b5f60015f8381526020019081526020015f209050806002015f9054906101000a900473ffffffffffffffffffffffffffffffffffffffff1673ffffffffffffffffffffffffffffffffffffffff163373ffffffffffffffffffffffffffffffffffffffff16146108c1576040517f08c379a00000000000000000000000000000000000000000000000000000000081526004016108b89061139f565b60405180910390fd5b5f60038111156108d4576108d3610c40565b5b816005015f9054906101000a900460ff1660038111156108f7576108f6610c40565b5b14610937576040517f08c379a000000000000000000000000000000000000000000000000000000000815260040161092e9061142d565b60405180910390fd5b6001816005015f6101000a81548160ff0219169083600381111561095e5761095d610c40565b5b0217905550817faf3c49f5413fd292e2325b0fe214de144a222b00cb6ec21214fdc04b5d6c591360405160405180910390a25050565b8034146109d6576040517f08c379a00000000000000000000000000000000000000000000000000000000081526004016109cd906114bb565b60405180910390fd5b60025f8154809291906109e8906114d9565b91905055506040518060c0016040528060025481526020013373ffffffffffffffffffffffffffffffffffffffff1681526020018473ffffffffffffffffffffffffffffffffffffffff1681526020018381526020018281526020015f6003811115610a5757610a56610c40565b5b81525060015f60025481526020019081526020015f205f820151815f01556020820151816001015f6101000a81548173ffffffffffffffffffffffffffffffffffffffff021916908373ffffffffffffffffffffffffffffffffffffffff1602179055506040820151816002015f6101000a81548173ffffffffffffffffffffffffffffffffffffffff021916908373ffffffffffffffffffffffffffffffffffffffff1602179055506060820151816003019081610b1691906116bd565b506080820151816004015560a0820151816005015f6101000a81548160ff02191690836003811115610b4b57610b4a610c40565b5b02179055509050506002547f56560a52c047ed21fd801bf0f345b23d9af696f7922ff8e63101af5d48caddab3385604051610b879291906117ed565b60405180910390a2505050565b6003602052805f5260405f205f915090505481565b5f819050919050565b610bbb81610ba9565b82525050565b5f602082019050610bd45f830184610bb2565b92915050565b5f604051905090565b5f80fd5b5f80fd5b610bf481610ba9565b8114610bfe575f80fd5b50565b5f81359050610c0f81610beb565b92915050565b5f60208284031215610c2a57610c29610be3565b5b5f610c3784828501610c01565b91505092915050565b7f4e487b71000000000000000000000000000000000000000000000000000000005f52602160045260245ffd5b60048110610c7e57610c7d610c40565b5b50565b5f819050610c8e82610c6d565b919050565b5f610c9d82610c81565b9050919050565b610cad81610c93565b82525050565b5f602082019050610cc65f830184610ca4565b92915050565b5f81519050919050565b5f82825260208201905092915050565b8281835e5f83830152505050565b5f601f19601f8301169050919050565b5f610d0e82610ccc565b610d188185610cd6565b9350610d28818560208601610ce6565b610d3181610cf4565b840191505092915050565b5f6020820190508181035f830152610d548184610d04565b905092915050565b5f73ffffffffffffffffffffffffffffffffffffffff82169050919050565b5f610d8582610d5c565b9050919050565b610d9581610d7b565b82525050565b5f60c082019050610dae5f830189610bb2565b610dbb6020830188610d8c565b610dc86040830187610d8c565b8181036060830152610dda8186610d04565b9050610de96080830185610bb2565b610df660a0830184610ca4565b979650505050505050565b610e0a81610d7b565b8114610e14575f80fd5b50565b5f81359050610e2581610e01565b92915050565b5f80fd5b5f80fd5b7f4e487b71000000000000000000000000000000000000000000000000000000005f52604160045260245ffd5b610e6982610cf4565b810181811067ffffffffffffffff82111715610e8857610e87610e33565b5b80604052505050565b5f610e9a610bda565b9050610ea68282610e60565b919050565b5f67ffffffffffffffff821115610ec557610ec4610e33565b5b610ece82610cf4565b9050602081019050919050565b828183375f83830152505050565b5f610efb610ef684610eab565b610e91565b905082815260208101848484011115610f1757610f16610e2f565b5b610f22848285610edb565b509392505050565b5f82601f830112610f3e57610f3d610e2b565b5b8135610f4e848260208601610ee9565b91505092915050565b5f805f60608486031215610f6e57610f6d610be3565b5b5f610f7b86828701610e17565b935050602084013567ffffffffffffffff811115610f9c57610f9b610be7565b5b610fa886828701610f2a565b9250506040610fb986828701610c01565b9150509250925092565b5f610fcd82610d5c565b9050919050565b610fdd81610fc3565b8114610fe7575f80fd5b50565b5f81359050610ff881610fd4565b92915050565b5f6020828403121561101357611012610be3565b5b5f61102084828501610fea565b91505092915050565b7f4e487b71000000000000000000000000000000000000000000000000000000005f52602260045260245ffd5b5f600282049050600182168061106d57607f821691505b6020821081036110805761107f611029565b5b50919050565b7f5265656e7472616e637947756172643a207265656e7472616e742063616c6c005f82015250565b5f6110ba601f83610cd6565b91506110c582611086565b602082019050919050565b5f6020820190508181035f8301526110e7816110ae565b9050919050565b7f4e6f2066756e647320746f2077697468647261770000000000000000000000005f82015250565b5f611122601483610cd6565b915061112d826110ee565b602082019050919050565b5f6020820190508181035f83015261114f81611116565b9050919050565b5f81905092915050565b50565b5f61116e5f83611156565b915061117982611160565b5f82019050919050565b5f61118d82611163565b9150819050919050565b7f5769746864726177616c206661696c65640000000000000000000000000000005f82015250565b5f6111cb601183610cd6565b91506111d682611197565b602082019050919050565b5f6020820190508181035f8301526111f8816111bf565b9050919050565b7f4f6e6c792063726561746f722063616e20636f6e6669726d20636f6d706c65745f8201527f696f6e0000000000000000000000000000000000000000000000000000000000602082015250565b5f611259602383610cd6565b9150611264826111ff565b604082019050919050565b5f6020820190508181035f8301526112868161124d565b9050919050565b7f436f6e7472616374206d757374206265207369676e65640000000000000000005f82015250565b5f6112c1601783610cd6565b91506112cc8261128d565b602082019050919050565b5f6020820190508181035f8301526112ee816112b5565b9050919050565b7f4e487b71000000000000000000000000000000000000000000000000000000005f52601160045260245ffd5b5f61132c82610ba9565b915061133783610ba9565b925082820190508082111561134f5761134e6112f5565b5b92915050565b7f4f6e6c7920636f756e74657270617274792063616e207369676e0000000000005f82015250565b5f611389601a83610cd6565b915061139482611355565b602082019050919050565b5f6020820190508181035f8301526113b68161137d565b9050919050565b7f436f6e7472616374206d75737420626520696e202743726561746564272073745f8201527f6174757300000000000000000000000000000000000000000000000000000000602082015250565b5f611417602483610cd6565b9150611422826113bd565b604082019050919050565b5f6020820190508181035f8301526114448161140b565b9050919050565b7f53656e74206574686572206d757374206d617463682074686520636f6e7472615f8201527f637420616d6f756e740000000000000000000000000000000000000000000000602082015250565b5f6114a5602983610cd6565b91506114b08261144b565b604082019050919050565b5f6020820190508181035f8301526114d281611499565b9050919050565b5f6114e382610ba9565b91507fffffffffffffffffffffffffffffffffffffffffffffffffffffffffffffffff8203611515576115146112f5565b5b600182019050919050565b5f819050815f5260205f209050919050565b5f6020601f8301049050919050565b5f82821b905092915050565b5f6008830261157c7fffffffffffffffffffffffffffffffffffffffffffffffffffffffffffffffff82611541565b6115868683611541565b95508019841693508086168417925050509392505050565b5f819050919050565b5f6115c16115bc6115b784610ba9565b61159e565b610ba9565b9050919050565b5f819050919050565b6115da836115a7565b6115ee6115e6826115c8565b84845461154d565b825550505050565b5f90565b6116026115f6565b61160d8184846115d1565b505050565b5b81811015611630576116255f826115fa565b600181019050611613565b5050565b601f8211156116755761164681611520565b61164f84611532565b8101602085101561165e578190505b61167261166a85611532565b830182611612565b50505b505050565b5f82821c905092915050565b5f6116955f198460080261167a565b1980831691505092915050565b5f6116ad8383611686565b9150826002028217905092915050565b6116c682610ccc565b67ffffffffffffffff8111156116df576116de610e33565b5b6116e98254611056565b6116f4828285611634565b5f60209050601f831160018114611725575f8415611713578287015190505b61171d85826116a2565b865550611784565b601f19841661173386611520565b5f5b8281101561175a57848901518255600182019150602085019450602081019050611735565b868310156117775784890151611773601f891682611686565b8355505b6001600288020188555050505b505050505050565b61179581610fc3565b82525050565b5f6117b56117b06117ab84610d5c565b61159e565b610d5c565b9050919050565b5f6117c68261179b565b9050919050565b5f6117d7826117bc565b9050919050565b6117e7816117cd565b82525050565b5f6040820190506118005f83018561178c565b61180d60208301846117de565b939250505056fea2646970667358221220330603aa6bbf8e06fb402684b5cddb755d7e2fe6869515fb79f1a8ed1cafb03264736f6c634300081a0033",
			"opcodes": "PUSH1 0x80 PUSH1 0x40 MSTORE CALLVALUE DUP1 ISZERO PUSH1 0xE JUMPI PUSH0 DUP1 REVERT JUMPDEST POP PUSH1 0x1 PUSH0 DUP2 SWAP1 SSTORE POP PUSH2 0x184A DUP1 PUSH2 0x23 PUSH0 CODECOPY PUSH0 RETURN INVALID PUSH1 0x80 PUSH1 0x40 MSTORE PUSH1 0x4 CALLDATASIZE LT PUSH2 0x85 JUMPI PUSH0 CALLDATALOAD PUSH1 0xE0 SHR DUP1 PUSH4 0x474DA79A GT PUSH2 0x58 JUMPI DUP1 PUSH4 0x474DA79A EQ PUSH2 0x141 JUMPI DUP1 PUSH4 0x94AEB613 EQ PUSH2 0x182 JUMPI DUP1 PUSH4 0x9537E8D1 EQ PUSH2 0x1AA JUMPI DUP1 PUSH4 0x9CE5B6CA EQ PUSH2 0x1D2 JUMPI DUP1 PUSH4 0xF3F43703 EQ PUSH2 0x1EE JUMPI PUSH2 0x85 JUMP JUMPDEST DUP1 PUSH4 0x67BD3B4 EQ PUSH2 0x89 JUMPI DUP1 PUSH4 0x17B18458 EQ PUSH2 0xB3 JUMPI DUP1 PUSH4 0x1ED4AF8C EQ PUSH2 0xEF JUMPI DUP1 PUSH4 0x24600FC3 EQ PUSH2 0x12B JUMPI JUMPDEST PUSH0 DUP1 REVERT JUMPDEST CALLVALUE DUP1 ISZERO PUSH2 0x94 JUMPI PUSH0 DUP1 REVERT JUMPDEST POP PUSH2 0x9D PUSH2 0x22A JUMP JUMPDEST PUSH1 0x40 MLOAD PUSH2 0xAA SWAP2 SWAP1 PUSH2 0xBC1 JUMP JUMPDEST PUSH1 0x40 MLOAD DUP1 SWAP2 SUB SWAP1 RETURN JUMPDEST CALLVALUE DUP1 ISZERO PUSH2 0xBE JUMPI PUSH0 DUP1 REVERT JUMPDEST POP PUSH2 0xD9 PUSH1 0x4 DUP1 CALLDATASIZE SUB DUP2 ADD SWAP1 PUSH2 0xD4 SWAP2 SWAP1 PUSH2 0xC15 JUMP JUMPDEST PUSH2 0x230 JUMP JUMPDEST PUSH1 0x40 MLOAD PUSH2 0xE6 SWAP2 SWAP1 PUSH2 0xCB3 JUMP JUMPDEST PUSH1 0x40 MLOAD DUP1 SWAP2 SUB SWAP1 RETURN JUMPDEST CALLVALUE DUP1 ISZERO PUSH2 0xFA JUMPI PUSH0 DUP1 REVERT JUMPDEST POP PUSH2 0x115 PUSH1 0x4 DUP1 CALLDATASIZE SUB DUP2 ADD SWAP1 PUSH2 0x110 SWAP2 SWAP1 PUSH2 0xC15 JUMP JUMPDEST PUSH2 0x259 JUMP JUMPDEST PUSH1 0x40 MLOAD PUSH2 0x122 SWAP2 SWAP1 PUSH2 0xD3C JUMP JUMPDEST PUSH1 0x40 MLOAD DUP1 SWAP2 SUB SWAP1 RETURN JUMPDEST CALLVALUE DUP1 ISZERO PUSH2 0x136 JUMPI PUSH0 DUP1 REVERT JUMPDEST POP PUSH2 0x13F PUSH2 0x2FD JUMP JUMPDEST STOP JUMPDEST CALLVALUE DUP1 ISZERO PUSH2 0x14C JUMPI PUSH0 DUP1 REVERT JUMPDEST POP PUSH2 0x167 PUSH1 0x4 DUP1 CALLDATASIZE SUB DUP2 ADD SWAP1 PUSH2 0x162 SWAP2 SWAP1 PUSH2 0xC15 JUMP JUMPDEST PUSH2 0x4C0 JUMP JUMPDEST PUSH1 0x40 MLOAD PUSH2 0x179 SWAP7 SWAP6 SWAP5 SWAP4 SWAP3 SWAP2 SWAP1 PUSH2 0xD9B JUMP JUMPDEST PUSH1 0x40 MLOAD DUP1 SWAP2 SUB SWAP1 RETURN JUMPDEST CALLVALUE DUP1 ISZERO PUSH2 0x18D JUMPI PUSH0 DUP1 REVERT JUMPDEST POP PUSH2 0x1A8 PUSH1 0x4 DUP1 CALLDATASIZE SUB DUP2 ADD SWAP1 PUSH2 0x1A3 SWAP2 SWAP1 PUSH2 0xC15 JUMP JUMPDEST PUSH2 0x5C8 JUMP JUMPDEST STOP JUMPDEST CALLVALUE DUP1 ISZERO PUSH2 0x1B5 JUMPI PUSH0 DUP1 REVERT JUMPDEST POP PUSH2 0x1D0 PUSH1 0x4 DUP1 CALLDATASIZE SUB DUP2 ADD SWAP1 PUSH2 0x1CB SWAP2 SWAP1 PUSH2 0xC15 JUMP JUMPDEST PUSH2 0x81C JUMP JUMPDEST STOP JUMPDEST PUSH2 0x1EC PUSH1 0x4 DUP1 CALLDATASIZE SUB DUP2 ADD SWAP1 PUSH2 0x1E7 SWAP2 SWAP1 PUSH2 0xF57 JUMP JUMPDEST PUSH2 0x994 JUMP JUMPDEST STOP JUMPDEST CALLVALUE DUP1 ISZERO PUSH2 0x1F9 JUMPI PUSH0 DUP1 REVERT JUMPDEST POP PUSH2 0x214 PUSH1 0x4 DUP1 CALLDATASIZE SUB DUP2 ADD SWAP1 PUSH2 0x20F SWAP2 SWAP1 PUSH2 0xFFE JUMP JUMPDEST PUSH2 0xB94 JUMP JUMPDEST PUSH1 0x40 MLOAD PUSH2 0x221 SWAP2 SWAP1 PUSH2 0xBC1 JUMP JUMPDEST PUSH1 0x40 MLOAD DUP1 SWAP2 SUB SWAP1 RETURN JUMPDEST PUSH1 0x2 SLOAD DUP2 JUMP JUMPDEST PUSH0 PUSH1 0x1 PUSH0 DUP4 DUP2 MSTORE PUSH1 0x20 ADD SWAP1 DUP2 MSTORE PUSH1 0x20 ADD PUSH0 KECCAK256 PUSH1 0x5 ADD PUSH0 SWAP1 SLOAD SWAP1 PUSH2 0x100 EXP SWAP1 DIV PUSH1 0xFF AND SWAP1 POP SWAP2 SWAP1 POP JUMP JUMPDEST PUSH1 0x60 PUSH1 0x1 PUSH0 DUP4 DUP2 MSTORE PUSH1 0x20 ADD SWAP1 DUP2 MSTORE PUSH1 0x20 ADD PUSH0 KECCAK256 PUSH1 0x3 ADD DUP1 SLOAD PUSH2 0x27A SWAP1 PUSH2 0x1056 JUMP JUMPDEST DUP1 PUSH1 0x1F ADD PUSH1 0x20 DUP1 SWAP2 DIV MUL PUSH1 0x20 ADD PUSH1 0x40 MLOAD SWAP1 DUP2 ADD PUSH1 0x40 MSTORE DUP1 SWAP3 SWAP2 SWAP1 DUP2 DUP2 MSTORE PUSH1 0x20 ADD DUP3 DUP1 SLOAD PUSH2 0x2A6 SWAP1 PUSH2 0x1056 JUMP JUMPDEST DUP1 ISZERO PUSH2 0x2F1 JUMPI DUP1 PUSH1 0x1F LT PUSH2 0x2C8 JUMPI PUSH2 0x100 DUP1 DUP4 SLOAD DIV MUL DUP4 MSTORE SWAP2 PUSH1 0x20 ADD SWAP2 PUSH2 0x2F1 JUMP JUMPDEST DUP3 ADD SWAP2 SWAP1 PUSH0 MSTORE PUSH1 0x20 PUSH0 KECCAK256 SWAP1 JUMPDEST DUP2 SLOAD DUP2 MSTORE SWAP1 PUSH1 0x1 ADD SWAP1 PUSH1 0x20 ADD DUP1 DUP4 GT PUSH2 0x2D4 JUMPI DUP3 SWAP1 SUB PUSH1 0x1F AND DUP3 ADD SWAP2 JUMPDEST POP POP POP POP POP SWAP1 POP SWAP2 SWAP1 POP JUMP JUMPDEST PUSH1 0x2 PUSH0 SLOAD SUB PUSH2 0x341 JUMPI PUSH1 0x40 MLOAD PUSH32 0x8C379A000000000000000000000000000000000000000000000000000000000 DUP2 MSTORE PUSH1 0x4 ADD PUSH2 0x338 SWAP1 PUSH2 0x10D0 JUMP JUMPDEST PUSH1 0x40 MLOAD DUP1 SWAP2 SUB SWAP1 REVERT JUMPDEST PUSH1 0x2 PUSH0 DUP2 SWAP1 SSTORE POP PUSH0 PUSH1 0x3 PUSH0 CALLER PUSH20 0xFFFFFFFFFFFFFFFFFFFFFFFFFFFFFFFFFFFFFFFF AND PUSH20 0xFFFFFFFFFFFFFFFFFFFFFFFFFFFFFFFFFFFFFFFF AND DUP2 MSTORE PUSH1 0x20 ADD SWAP1 DUP2 MSTORE PUSH1 0x20 ADD PUSH0 KECCAK256 SLOAD SWAP1 POP PUSH0 DUP2 GT PUSH2 0x3CB JUMPI PUSH1 0x40 MLOAD PUSH32 0x8C379A000000000000000000000000000000000000000000000000000000000 DUP2 MSTORE PUSH1 0x4 ADD PUSH2 0x3C2 SWAP1 PUSH2 0x1138 JUMP JUMPDEST PUSH1 0x40 MLOAD DUP1 SWAP2 SUB SWAP1 REVERT JUMPDEST PUSH0 PUSH1 0x3 PUSH0 CALLER PUSH20 0xFFFFFFFFFFFFFFFFFFFFFFFFFFFFFFFFFFFFFFFF AND PUSH20 0xFFFFFFFFFFFFFFFFFFFFFFFFFFFFFFFFFFFFFFFF AND DUP2 MSTORE PUSH1 0x20 ADD SWAP1 DUP2 MSTORE PUSH1 0x20 ADD PUSH0 KECCAK256 DUP2 SWAP1 SSTORE POP PUSH0 CALLER PUSH20 0xFFFFFFFFFFFFFFFFFFFFFFFFFFFFFFFFFFFFFFFF AND DUP3 PUSH1 0x40 MLOAD PUSH2 0x432 SWAP1 PUSH2 0x1183 JUMP JUMPDEST PUSH0 PUSH1 0x40 MLOAD DUP1 DUP4 SUB DUP2 DUP6 DUP8 GAS CALL SWAP3 POP POP POP RETURNDATASIZE DUP1 PUSH0 DUP2 EQ PUSH2 0x46C JUMPI PUSH1 0x40 MLOAD SWAP2 POP PUSH1 0x1F NOT PUSH1 0x3F RETURNDATASIZE ADD AND DUP3 ADD PUSH1 0x40 MSTORE RETURNDATASIZE DUP3 MSTORE RETURNDATASIZE PUSH0 PUSH1 0x20 DUP5 ADD RETURNDATACOPY PUSH2 0x471 JUMP JUMPDEST PUSH1 0x60 SWAP2 POP JUMPDEST POP POP SWAP1 POP DUP1 PUSH2 0x4B5 JUMPI PUSH1 0x40 MLOAD PUSH32 0x8C379A000000000000000000000000000000000000000000000000000000000 DUP2 MSTORE PUSH1 0x4 ADD PUSH2 0x4AC SWAP1 PUSH2 0x11E1 JUMP JUMPDEST PUSH1 0x40 MLOAD DUP1 SWAP2 SUB SWAP1 REVERT JUMPDEST POP POP PUSH1 0x1 PUSH0 DUP2 SWAP1 SSTORE POP JUMP JUMPDEST PUSH1 0x1 PUSH1 0x20 MSTORE DUP1 PUSH0 MSTORE PUSH1 0x40 PUSH0 KECCAK256 PUSH0 SWAP2 POP SWAP1 POP DUP1 PUSH0 ADD SLOAD SWAP1 DUP1 PUSH1 0x1 ADD PUSH0 SWAP1 SLOAD SWAP1 PUSH2 0x100 EXP SWAP1 DIV PUSH20 0xFFFFFFFFFFFFFFFFFFFFFFFFFFFFFFFFFFFFFFFF AND SWAP1 DUP1 PUSH1 0x2 ADD PUSH0 SWAP1 SLOAD SWAP1 PUSH2 0x100 EXP SWAP1 DIV PUSH20 0xFFFFFFFFFFFFFFFFFFFFFFFFFFFFFFFFFFFFFFFF AND SWAP1 DUP1 PUSH1 0x3 ADD DUP1 SLOAD PUSH2 0x52F SWAP1 PUSH2 0x1056 JUMP JUMPDEST DUP1 PUSH1 0x1F ADD PUSH1 0x20 DUP1 SWAP2 DIV MUL PUSH1 0x20 ADD PUSH1 0x40 MLOAD SWAP1 DUP2 ADD PUSH1 0x40 MSTORE DUP1 SWAP3 SWAP2 SWAP1 DUP2 DUP2 MSTORE PUSH1 0x20 ADD DUP3 DUP1 SLOAD PUSH2 0x55B SWAP1 PUSH2 0x1056 JUMP JUMPDEST DUP1 ISZERO PUSH2 0x5A6 JUMPI DUP1 PUSH1 0x1F LT PUSH2 0x57D JUMPI PUSH2 0x100 DUP1 DUP4 SLOAD DIV MUL DUP4 MSTORE SWAP2 PUSH1 0x20 ADD SWAP2 PUSH2 0x5A6 JUMP JUMPDEST DUP3 ADD SWAP2 SWAP1 PUSH0 MSTORE PUSH1 0x20 PUSH0 KECCAK256 SWAP1 JUMPDEST DUP2 SLOAD DUP2 MSTORE SWAP1 PUSH1 0x1 ADD SWAP1 PUSH1 0x20 ADD DUP1 DUP4 GT PUSH2 0x589 JUMPI DUP3 SWAP1 SUB PUSH1 0x1F AND DUP3 ADD SWAP2 JUMPDEST POP POP POP POP POP SWAP1 DUP1 PUSH1 0x4 ADD SLOAD SWAP1 DUP1 PUSH1 0x5 ADD PUSH0 SWAP1 SLOAD SWAP1 PUSH2 0x100 EXP SWAP1 DIV PUSH1 0xFF AND SWAP1 POP DUP7 JUMP JUMPDEST PUSH1 0x2 PUSH0 SLOAD SUB PUSH2 0x60C JUMPI PUSH1 0x40 MLOAD PUSH32 0x8C379A000000000000000000000000000000000000000000000000000000000 DUP2 MSTORE PUSH1 0x4 ADD PUSH2 0x603 SWAP1 PUSH2 0x10D0 JUMP JUMPDEST PUSH1 0x40 MLOAD DUP1 SWAP2 SUB SWAP1 REVERT JUMPDEST PUSH1 0x2 PUSH0 DUP2 SWAP1 SSTORE POP PUSH0 PUSH1 0x1 PUSH0 DUP4 DUP2 MSTORE PUSH1 0x20 ADD SWAP1 DUP2 MSTORE PUSH1 0x20 ADD PUSH0 KECCAK256 SWAP1 POP DUP1 PUSH1 0x1 ADD PUSH0 SWAP1 SLOAD SWAP1 PUSH2 0x100 EXP SWAP1 DIV PUSH20 0xFFFFFFFFFFFFFFFFFFFFFFFFFFFFFFFFFFFFFFFF AND PUSH20 0xFFFFFFFFFFFFFFFFFFFFFFFFFFFFFFFFFFFFFFFF AND CALLER PUSH20 0xFFFFFFFFFFFFFFFFFFFFFFFFFFFFFFFFFFFFFFFF AND EQ PUSH2 0x6B8 JUMPI PUSH1 0x40 MLOAD PUSH32 0x8C379A000000000000000000000000000000000000000000000000000000000 DUP2 MSTORE PUSH1 0x4 ADD PUSH2 0x6AF SWAP1 PUSH2 0x126F JUMP JUMPDEST PUSH1 0x40 MLOAD DUP1 SWAP2 SUB SWAP1 REVERT JUMPDEST PUSH1 0x1 PUSH1 0x3 DUP2 GT ISZERO PUSH2 0x6CC JUMPI PUSH2 0x6CB PUSH2 0xC40 JUMP JUMPDEST JUMPDEST DUP2 PUSH1 0x5 ADD PUSH0 SWAP1 SLOAD SWAP1 PUSH2 0x100 EXP SWAP1 DIV PUSH1 0xFF AND PUSH1 0x3 DUP2 GT ISZERO PUSH2 0x6EF JUMPI PUSH2 0x6EE PUSH2 0xC40 JUMP JUMPDEST JUMPDEST EQ PUSH2 0x72F JUMPI PUSH1 0x40 MLOAD PUSH32 0x8C379A000000000000000000000000000000000000000000000000000000000 DUP2 MSTORE PUSH1 0x4 ADD PUSH2 0x726 SWAP1 PUSH2 0x12D7 JUMP JUMPDEST PUSH1 0x40 MLOAD DUP1 SWAP2 SUB SWAP1 REVERT JUMPDEST PUSH1 0x2 DUP2 PUSH1 0x5 ADD PUSH0 PUSH2 0x100 EXP DUP2 SLOAD DUP2 PUSH1 0xFF MUL NOT AND SWAP1 DUP4 PUSH1 0x3 DUP2 GT ISZERO PUSH2 0x756 JUMPI PUSH2 0x755 PUSH2 0xC40 JUMP JUMPDEST JUMPDEST MUL OR SWAP1 SSTORE POP DUP1 PUSH1 0x4 ADD SLOAD PUSH1 0x3 PUSH0 DUP4 PUSH1 0x2 ADD PUSH0 SWAP1 SLOAD SWAP1 PUSH2 0x100 EXP SWAP1 DIV PUSH20 0xFFFFFFFFFFFFFFFFFFFFFFFFFFFFFFFFFFFFFFFF AND PUSH20 0xFFFFFFFFFFFFFFFFFFFFFFFFFFFFFFFFFFFFFFFF AND PUSH20 0xFFFFFFFFFFFFFFFFFFFFFFFFFFFFFFFFFFFFFFFF AND DUP2 MSTORE PUSH1 0x20 ADD SWAP1 DUP2 MSTORE PUSH1 0x20 ADD PUSH0 KECCAK256 PUSH0 DUP3 DUP3 SLOAD PUSH2 0x7CE SWAP2 SWAP1 PUSH2 0x1322 JUMP JUMPDEST SWAP3 POP POP DUP2 SWAP1 SSTORE POP DUP2 PUSH32 0xC8EF479ACDBFFD729D96117B951D1C3EE85D98EF42699AEC806BC4F0B522461D DUP3 PUSH1 0x4 ADD SLOAD PUSH1 0x40 MLOAD PUSH2 0x809 SWAP2 SWAP1 PUSH2 0xBC1 JUMP JUMPDEST PUSH1 0x40 MLOAD DUP1 SWAP2 SUB SWAP1 LOG2 POP PUSH1 0x1 PUSH0 DUP2 SWAP1 SSTORE POP POP JUMP JUMPDEST PUSH0 PUSH1 0x1 PUSH0 DUP4 DUP2 MSTORE PUSH1 0x20 ADD SWAP1 DUP2 MSTORE PUSH1 0x20 ADD PUSH0 KECCAK256 SWAP1 POP DUP1 PUSH1 0x2 ADD PUSH0 SWAP1 SLOAD SWAP1 PUSH2 0x100 EXP SWAP1 DIV PUSH20 0xFFFFFFFFFFFFFFFFFFFFFFFFFFFFFFFFFFFFFFFF AND PUSH20 0xFFFFFFFFFFFFFFFFFFFFFFFFFFFFFFFFFFFFFFFF AND CALLER PUSH20 0xFFFFFFFFFFFFFFFFFFFFFFFFFFFFFFFFFFFFFFFF AND EQ PUSH2 0x8C1 JUMPI PUSH1 0x40 MLOAD PUSH32 0x8C379A000000000000000000000000000000000000000000000000000000000 DUP2 MSTORE PUSH1 0x4 ADD PUSH2 0x8B8 SWAP1 PUSH2 0x139F JUMP JUMPDEST PUSH1 0x40 MLOAD DUP1 SWAP2 SUB SWAP1 REVERT JUMPDEST PUSH0 PUSH1 0x3 DUP2 GT ISZERO PUSH2 0x8D4 JUMPI PUSH2 0x8D3 PUSH2 0xC40 JUMP JUMPDEST JUMPDEST DUP2 PUSH1 0x5 ADD PUSH0 SWAP1 SLOAD SWAP1 PUSH2 0x100 EXP SWAP1 DIV PUSH1 0xFF AND PUSH1 0x3 DUP2 GT ISZERO PUSH2 0x8F7 JUMPI PUSH2 0x8F6 PUSH2 0xC40 JUMP JUMPDEST JUMPDEST EQ PUSH2 0x937 JUMPI PUSH1 0x40 MLOAD PUSH32 0x8C379A000000000000000000000000000000000000000000000000000000000 DUP2 MSTORE PUSH1 0x4 ADD PUSH2 0x92E SWAP1 PUSH2 0x142D JUMP JUMPDEST PUSH1 0x40 MLOAD DUP1 SWAP2 SUB SWAP1 REVERT JUMPDEST PUSH1 0x1 DUP2 PUSH1 0x5 ADD PUSH0 PUSH2 0x100 EXP DUP2 SLOAD DUP2 PUSH1 0xFF MUL NOT AND SWAP1 DUP4 PUSH1 0x3 DUP2 GT ISZERO PUSH2 0x95E JUMPI PUSH2 0x95D PUSH2 0xC40 JUMP JUMPDEST JUMPDEST MUL OR SWAP1 SSTORE POP DUP2 PUSH32 0xAF3C49F5413FD292E2325B0FE214DE144A222B00CB6EC21214FDC04B5D6C5913 PUSH1 0x40 MLOAD PUSH1 0x40 MLOAD DUP1 SWAP2 SUB SWAP1 LOG2 POP POP JUMP JUMPDEST DUP1 CALLVALUE EQ PUSH2 0x9D6 JUMPI PUSH1 0x40 MLOAD PUSH32 0x8C379A000000000000000000000000000000000000000000000000000000000 DUP2 MSTORE PUSH1 0x4 ADD PUSH2 0x9CD SWAP1 PUSH2 0x14BB JUMP JUMPDEST PUSH1 0x40 MLOAD DUP1 SWAP2 SUB SWAP1 REVERT JUMPDEST PUSH1 0x2 PUSH0 DUP2 SLOAD DUP1 SWAP3 SWAP2 SWAP1 PUSH2 0x9E8 SWAP1 PUSH2 0x14D9 JUMP JUMPDEST SWAP2 SWAP1 POP SSTORE POP PUSH1 0x40 MLOAD DUP1 PUSH1 0xC0 ADD PUSH1 0x40 MSTORE DUP1 PUSH1 0x2 SLOAD DUP2 MSTORE PUSH1 0x20 ADD CALLER PUSH20 0xFFFFFFFFFFFFFFFFFFFFFFFFFFFFFFFFFFFFFFFF AND DUP2 MSTORE PUSH1 0x20 ADD DUP5 PUSH20 0xFFFFFFFFFFFFFFFFFFFFFFFFFFFFFFFFFFFFFFFF AND DUP2 MSTORE PUSH1 0x20 ADD DUP4 DUP2 MSTORE PUSH1 0x20 ADD DUP3 DUP2 MSTORE PUSH1 0x20 ADD PUSH0 PUSH1 0x3 DUP2 GT ISZERO PUSH2 0xA57 JUMPI PUSH2 0xA56 PUSH2 0xC40 JUMP JUMPDEST JUMPDEST DUP2 MSTORE POP PUSH1 0x1 PUSH0 PUSH1 0x2 SLOAD DUP2 MSTORE PUSH1 0x20 ADD SWAP1 DUP2 MSTORE PUSH1 0x20 ADD PUSH0 KECCAK256 PUSH0 DUP3 ADD MLOAD DUP2 PUSH0 ADD SSTORE PUSH1 0x20 DUP3 ADD MLOAD DUP2 PUSH1 0x1 ADD PUSH0 PUSH2 0x100 EXP DUP2 SLOAD DUP2 PUSH20 0xFFFFFFFFFFFFFFFFFFFFFFFFFFFFFFFFFFFFFFFF MUL NOT AND SWAP1 DUP4 PUSH20 0xFFFFFFFFFFFFFFFFFFFFFFFFFFFFFFFFFFFFFFFF AND MUL OR SWAP1 SSTORE POP PUSH1 0x40 DUP3 ADD MLOAD DUP2 PUSH1 0x2 ADD PUSH0 PUSH2 0x100 EXP DUP2 SLOAD DUP2 PUSH20 0xFFFFFFFFFFFFFFFFFFFFFFFFFFFFFFFFFFFFFFFF MUL NOT AND SWAP1 DUP4 PUSH20 0xFFFFFFFFFFFFFFFFFFFFFFFFFFFFFFFFFFFFFFFF AND MUL OR SWAP1 SSTORE POP PUSH1 0x60 DUP3 ADD MLOAD DUP2 PUSH1 0x3 ADD SWAP1 DUP2 PUSH2 0xB16 SWAP2 SWAP1 PUSH2 0x16BD JUMP JUMPDEST POP PUSH1 0x80 DUP3 ADD MLOAD DUP2 PUSH1 0x4 ADD SSTORE PUSH1 0xA0 DUP3 ADD MLOAD DUP2 PUSH1 0x5 ADD PUSH0 PUSH2 0x100 EXP DUP2 SLOAD DUP2 PUSH1 0xFF MUL NOT AND SWAP1 DUP4 PUSH1 0x3 DUP2 GT ISZERO PUSH2 0xB4B JUMPI PUSH2 0xB4A PUSH2 0xC40 JUMP JUMPDEST JUMPDEST MUL OR SWAP1 SSTORE POP SWAP1 POP POP PUSH1 0x2 SLOAD PUSH32 0x56560A52C047ED21FD801BF0F345B23D9AF696F7922FF8E63101AF5D48CADDAB CALLER DUP6 PUSH1 0x40 MLOAD PUSH2 0xB87 SWAP3 SWAP2 SWAP1 PUSH2 0x17ED JUMP JUMPDEST PUSH1 0x40 MLOAD DUP1 SWAP2 SUB SWAP1 LOG2 POP POP POP JUMP JUMPDEST PUSH1 0x3 PUSH1 0x20 MSTORE DUP1 PUSH0 MSTORE PUSH1 0x40 PUSH0 KECCAK256 PUSH0 SWAP2 POP SWAP1 POP SLOAD DUP2 JUMP JUMPDEST PUSH0 DUP2 SWAP1 POP SWAP2 SWAP1 POP JUMP JUMPDEST PUSH2 0xBBB DUP2 PUSH2 0xBA9 JUMP JUMPDEST DUP3 MSTORE POP POP JUMP JUMPDEST PUSH0 PUSH1 0x20 DUP3 ADD SWAP1 POP PUSH2 0xBD4 PUSH0 DUP4 ADD DUP5 PUSH2 0xBB2 JUMP JUMPDEST SWAP3 SWAP2 POP POP JUMP JUMPDEST PUSH0 PUSH1 0x40 MLOAD SWAP1 POP SWAP1 JUMP JUMPDEST PUSH0 DUP1 REVERT JUMPDEST PUSH0 DUP1 REVERT JUMPDEST PUSH2 0xBF4 DUP2 PUSH2 0xBA9 JUMP JUMPDEST DUP2 EQ PUSH2 0xBFE JUMPI PUSH0 DUP1 REVERT JUMPDEST POP JUMP JUMPDEST PUSH0 DUP2 CALLDATALOAD SWAP1 POP PUSH2 0xC0F DUP2 PUSH2 0xBEB JUMP JUMPDEST SWAP3 SWAP2 POP POP JUMP JUMPDEST PUSH0 PUSH1 0x20 DUP3 DUP5 SUB SLT ISZERO PUSH2 0xC2A JUMPI PUSH2 0xC29 PUSH2 0xBE3 JUMP JUMPDEST JUMPDEST PUSH0 PUSH2 0xC37 DUP5 DUP3 DUP6 ADD PUSH2 0xC01 JUMP JUMPDEST SWAP2 POP POP SWAP3 SWAP2 POP POP JUMP JUMPDEST PUSH32 0x4E487B7100000000000000000000000000000000000000000000000000000000 PUSH0 MSTORE PUSH1 0x21 PUSH1 0x4 MSTORE PUSH1 0x24 PUSH0 REVERT JUMPDEST PUSH1 0x4 DUP2 LT PUSH2 0xC7E JUMPI PUSH2 0xC7D PUSH2 0xC40 JUMP JUMPDEST JUMPDEST POP JUMP JUMPDEST PUSH0 DUP2 SWAP1 POP PUSH2 0xC8E DUP3 PUSH2 0xC6D JUMP JUMPDEST SWAP2 SWAP1 POP JUMP JUMPDEST PUSH0 PUSH2 0xC9D DUP3 PUSH2 0xC81 JUMP JUMPDEST SWAP1 POP SWAP2 SWAP1 POP JUMP JUMPDEST PUSH2 0xCAD DUP2 PUSH2 0xC93 JUMP JUMPDEST DUP3 MSTORE POP POP JUMP JUMPDEST PUSH0 PUSH1 0x20 DUP3 ADD SWAP1 POP PUSH2 0xCC6 PUSH0 DUP4 ADD DUP5 PUSH2 0xCA4 JUMP JUMPDEST SWAP3 SWAP2 POP POP JUMP JUMPDEST PUSH0 DUP2 MLOAD SWAP1 POP SWAP2 SWAP1 POP JUMP JUMPDEST PUSH0 DUP3 DUP3 MSTORE PUSH1 0x20 DUP3 ADD SWAP1 POP SWAP3 SWAP2 POP POP JUMP JUMPDEST DUP3 DUP2 DUP4 MCOPY PUSH0 DUP4 DUP4 ADD MSTORE POP POP POP JUMP JUMPDEST PUSH0 PUSH1 0x1F NOT PUSH1 0x1F DUP4 ADD AND SWAP1 POP SWAP2 SWAP1 POP JUMP JUMPDEST PUSH0 PUSH2 0xD0E DUP3 PUSH2 0xCCC JUMP JUMPDEST PUSH2 0xD18 DUP2 DUP6 PUSH2 0xCD6 JUMP JUMPDEST SWAP4 POP PUSH2 0xD28 DUP2 DUP6 PUSH1 0x20 DUP7 ADD PUSH2 0xCE6 JUMP JUMPDEST PUSH2 0xD31 DUP2 PUSH2 0xCF4 JUMP JUMPDEST DUP5 ADD SWAP2 POP POP SWAP3 SWAP2 POP POP JUMP JUMPDEST PUSH0 PUSH1 0x20 DUP3 ADD SWAP1 POP DUP2 DUP2 SUB PUSH0 DUP4 ADD MSTORE PUSH2 0xD54 DUP2 DUP5 PUSH2 0xD04 JUMP JUMPDEST SWAP1 POP SWAP3 SWAP2 POP POP JUMP JUMPDEST PUSH0 PUSH20 0xFFFFFFFFFFFFFFFFFFFFFFFFFFFFFFFFFFFFFFFF DUP3 AND SWAP1 POP SWAP2 SWAP1 POP JUMP JUMPDEST PUSH0 PUSH2 0xD85 DUP3 PUSH2 0xD5C JUMP JUMPDEST SWAP1 POP SWAP2 SWAP1 POP JUMP JUMPDEST PUSH2 0xD95 DUP2 PUSH2 0xD7B JUMP JUMPDEST DUP3 MSTORE POP POP JUMP JUMPDEST PUSH0 PUSH1 0xC0 DUP3 ADD SWAP1 POP PUSH2 0xDAE PUSH0 DUP4 ADD DUP10 PUSH2 0xBB2 JUMP JUMPDEST PUSH2 0xDBB PUSH1 0x20 DUP4 ADD DUP9 PUSH2 0xD8C JUMP JUMPDEST PUSH2 0xDC8 PUSH1 0x40 DUP4 ADD DUP8 PUSH2 0xD8C JUMP JUMPDEST DUP2 DUP2 SUB PUSH1 0x60 DUP4 ADD MSTORE PUSH2 0xDDA DUP2 DUP7 PUSH2 0xD04 JUMP JUMPDEST SWAP1 POP PUSH2 0xDE9 PUSH1 0x80 DUP4 ADD DUP6 PUSH2 0xBB2 JUMP JUMPDEST PUSH2 0xDF6 PUSH1 0xA0 DUP4 ADD DUP5 PUSH2 0xCA4 JUMP JUMPDEST SWAP8 SWAP7 POP POP POP POP POP POP POP JUMP JUMPDEST PUSH2 0xE0A DUP2 PUSH2 0xD7B JUMP JUMPDEST DUP2 EQ PUSH2 0xE14 JUMPI PUSH0 DUP1 REVERT JUMPDEST POP JUMP JUMPDEST PUSH0 DUP2 CALLDATALOAD SWAP1 POP PUSH2 0xE25 DUP2 PUSH2 0xE01 JUMP JUMPDEST SWAP3 SWAP2 POP POP JUMP JUMPDEST PUSH0 DUP1 REVERT JUMPDEST PUSH0 DUP1 REVERT JUMPDEST PUSH32 0x4E487B7100000000000000000000000000000000000000000000000000000000 PUSH0 MSTORE PUSH1 0x41 PUSH1 0x4 MSTORE PUSH1 0x24 PUSH0 REVERT JUMPDEST PUSH2 0xE69 DUP3 PUSH2 0xCF4 JUMP JUMPDEST DUP2 ADD DUP2 DUP2 LT PUSH8 0xFFFFFFFFFFFFFFFF DUP3 GT OR ISZERO PUSH2 0xE88 JUMPI PUSH2 0xE87 PUSH2 0xE33 JUMP JUMPDEST JUMPDEST DUP1 PUSH1 0x40 MSTORE POP POP POP JUMP JUMPDEST PUSH0 PUSH2 0xE9A PUSH2 0xBDA JUMP JUMPDEST SWAP1 POP PUSH2 0xEA6 DUP3 DUP3 PUSH2 0xE60 JUMP JUMPDEST SWAP2 SWAP1 POP JUMP JUMPDEST PUSH0 PUSH8 0xFFFFFFFFFFFFFFFF DUP3 GT ISZERO PUSH2 0xEC5 JUMPI PUSH2 0xEC4 PUSH2 0xE33 JUMP JUMPDEST JUMPDEST PUSH2 0xECE DUP3 PUSH2 0xCF4 JUMP JUMPDEST SWAP1 POP PUSH1 0x20 DUP2 ADD SWAP1 POP SWAP2 SWAP1 POP JUMP JUMPDEST DUP3 DUP2 DUP4 CALLDATACOPY PUSH0 DUP4 DUP4 ADD MSTORE POP POP POP JUMP JUMPDEST PUSH0 PUSH2 0xEFB PUSH2 0xEF6 DUP5 PUSH2 0xEAB JUMP JUMPDEST PUSH2 0xE91 JUMP JUMPDEST SWAP1 POP DUP3 DUP2 MSTORE PUSH1 0x20 DUP2 ADD DUP5 DUP5 DUP5 ADD GT ISZERO PUSH2 0xF17 JUMPI PUSH2 0xF16 PUSH2 0xE2F JUMP JUMPDEST JUMPDEST PUSH2 0xF22 DUP5 DUP3 DUP6 PUSH2 0xEDB JUMP JUMPDEST POP SWAP4 SWAP3 POP POP POP JUMP JUMPDEST PUSH0 DUP3 PUSH1 0x1F DUP4 ADD SLT PUSH2 0xF3E JUMPI PUSH2 0xF3D PUSH2 0xE2B JUMP JUMPDEST JUMPDEST DUP2 CALLDATALOAD PUSH2 0xF4E DUP5 DUP3 PUSH1 0x20 DUP7 ADD PUSH2 0xEE9 JUMP JUMPDEST SWAP2 POP POP SWAP3 SWAP2 POP POP JUMP JUMPDEST PUSH0 DUP1 PUSH0 PUSH1 0x60 DUP5 DUP7 SUB SLT ISZERO PUSH2 0xF6E JUMPI PUSH2 0xF6D PUSH2 0xBE3 JUMP JUMPDEST JUMPDEST PUSH0 PUSH2 0xF7B DUP7 DUP3 DUP8 ADD PUSH2 0xE17 JUMP JUMPDEST SWAP4 POP POP PUSH1 0x20 DUP5 ADD CALLDATALOAD PUSH8 0xFFFFFFFFFFFFFFFF DUP2 GT ISZERO PUSH2 0xF9C JUMPI PUSH2 0xF9B PUSH2 0xBE7 JUMP JUMPDEST JUMPDEST PUSH2 0xFA8 DUP7 DUP3 DUP8 ADD PUSH2 0xF2A JUMP JUMPDEST SWAP3 POP POP PUSH1 0x40 PUSH2 0xFB9 DUP7 DUP3 DUP8 ADD PUSH2 0xC01 JUMP JUMPDEST SWAP2 POP POP SWAP3 POP SWAP3 POP SWAP3 JUMP JUMPDEST PUSH0 PUSH2 0xFCD DUP3 PUSH2 0xD5C JUMP JUMPDEST SWAP1 POP SWAP2 SWAP1 POP JUMP JUMPDEST PUSH2 0xFDD DUP2 PUSH2 0xFC3 JUMP JUMPDEST DUP2 EQ PUSH2 0xFE7 JUMPI PUSH0 DUP1 REVERT JUMPDEST POP JUMP JUMPDEST PUSH0 DUP2 CALLDATALOAD SWAP1 POP PUSH2 0xFF8 DUP2 PUSH2 0xFD4 JUMP JUMPDEST SWAP3 SWAP2 POP POP JUMP JUMPDEST PUSH0 PUSH1 0x20 DUP3 DUP5 SUB SLT ISZERO PUSH2 0x1013 JUMPI PUSH2 0x1012 PUSH2 0xBE3 JUMP JUMPDEST JUMPDEST PUSH0 PUSH2 0x1020 DUP5 DUP3 DUP6 ADD PUSH2 0xFEA JUMP JUMPDEST SWAP2 POP POP SWAP3 SWAP2 POP POP JUMP JUMPDEST PUSH32 0x4E487B7100000000000000000000000000000000000000000000000000000000 PUSH0 MSTORE PUSH1 0x22 PUSH1 0x4 MSTORE PUSH1 0x24 PUSH0 REVERT JUMPDEST PUSH0 PUSH1 0x2 DUP3 DIV SWAP1 POP PUSH1 0x1 DUP3 AND DUP1 PUSH2 0x106D JUMPI PUSH1 0x7F DUP3 AND SWAP2 POP JUMPDEST PUSH1 0x20 DUP3 LT DUP2 SUB PUSH2 0x1080 JUMPI PUSH2 0x107F PUSH2 0x1029 JUMP JUMPDEST JUMPDEST POP SWAP2 SWAP1 POP JUMP JUMPDEST PUSH32 0x5265656E7472616E637947756172643A207265656E7472616E742063616C6C00 PUSH0 DUP3 ADD MSTORE POP JUMP JUMPDEST PUSH0 PUSH2 0x10BA PUSH1 0x1F DUP4 PUSH2 0xCD6 JUMP JUMPDEST SWAP2 POP PUSH2 0x10C5 DUP3 PUSH2 0x1086 JUMP JUMPDEST PUSH1 0x20 DUP3 ADD SWAP1 POP SWAP2 SWAP1 POP JUMP JUMPDEST PUSH0 PUSH1 0x20 DUP3 ADD SWAP1 POP DUP2 DUP2 SUB PUSH0 DUP4 ADD MSTORE PUSH2 0x10E7 DUP2 PUSH2 0x10AE JUMP JUMPDEST SWAP1 POP SWAP2 SWAP1 POP JUMP JUMPDEST PUSH32 0x4E6F2066756E647320746F207769746864726177000000000000000000000000 PUSH0 DUP3 ADD MSTORE POP JUMP JUMPDEST PUSH0 PUSH2 0x1122 PUSH1 0x14 DUP4 PUSH2 0xCD6 JUMP JUMPDEST SWAP2 POP PUSH2 0x112D DUP3 PUSH2 0x10EE JUMP JUMPDEST PUSH1 0x20 DUP3 ADD SWAP1 POP SWAP2 SWAP1 POP JUMP JUMPDEST PUSH0 PUSH1 0x20 DUP3 ADD SWAP1 POP DUP2 DUP2 SUB PUSH0 DUP4 ADD MSTORE PUSH2 0x114F DUP2 PUSH2 0x1116 JUMP JUMPDEST SWAP1 POP SWAP2 SWAP1 POP JUMP JUMPDEST PUSH0 DUP2 SWAP1 POP SWAP3 SWAP2 POP POP JUMP JUMPDEST POP JUMP JUMPDEST PUSH0 PUSH2 0x116E PUSH0 DUP4 PUSH2 0x1156 JUMP JUMPDEST SWAP2 POP PUSH2 0x1179 DUP3 PUSH2 0x1160 JUMP JUMPDEST PUSH0 DUP3 ADD SWAP1 POP SWAP2 SWAP1 POP JUMP JUMPDEST PUSH0 PUSH2 0x118D DUP3 PUSH2 0x1163 JUMP JUMPDEST SWAP2 POP DUP2 SWAP1 POP SWAP2 SWAP1 POP JUMP JUMPDEST PUSH32 0x5769746864726177616C206661696C6564000000000000000000000000000000 PUSH0 DUP3 ADD MSTORE POP JUMP JUMPDEST PUSH0 PUSH2 0x11CB PUSH1 0x11 DUP4 PUSH2 0xCD6 JUMP JUMPDEST SWAP2 POP PUSH2 0x11D6 DUP3 PUSH2 0x1197 JUMP JUMPDEST PUSH1 0x20 DUP3 ADD SWAP1 POP SWAP2 SWAP1 POP JUMP JUMPDEST PUSH0 PUSH1 0x20 DUP3 ADD SWAP1 POP DUP2 DUP2 SUB PUSH0 DUP4 ADD MSTORE PUSH2 0x11F8 DUP2 PUSH2 0x11BF JUMP JUMPDEST SWAP1 POP SWAP2 SWAP1 POP JUMP JUMPDEST PUSH32 0x4F6E6C792063726561746F722063616E20636F6E6669726D20636F6D706C6574 PUSH0 DUP3 ADD MSTORE PUSH32 0x696F6E0000000000000000000000000000000000000000000000000000000000 PUSH1 0x20 DUP3 ADD MSTORE POP JUMP JUMPDEST PUSH0 PUSH2 0x1259 PUSH1 0x23 DUP4 PUSH2 0xCD6 JUMP JUMPDEST SWAP2 POP PUSH2 0x1264 DUP3 PUSH2 0x11FF JUMP JUMPDEST PUSH1 0x40 DUP3 ADD SWAP1 POP SWAP2 SWAP1 POP JUMP JUMPDEST PUSH0 PUSH1 0x20 DUP3 ADD SWAP1 POP DUP2 DUP2 SUB PUSH0 DUP4 ADD MSTORE PUSH2 0x1286 DUP2 PUSH2 0x124D JUMP JUMPDEST SWAP1 POP SWAP2 SWAP1 POP JUMP JUMPDEST PUSH32 0x436F6E7472616374206D757374206265207369676E6564000000000000000000 PUSH0 DUP3 ADD MSTORE POP JUMP JUMPDEST PUSH0 PUSH2 0x12C1 PUSH1 0x17 DUP4 PUSH2 0xCD6 JUMP JUMPDEST SWAP2 POP PUSH2 0x12CC DUP3 PUSH2 0x128D JUMP JUMPDEST PUSH1 0x20 DUP3 ADD SWAP1 POP SWAP2 SWAP1 POP JUMP JUMPDEST PUSH0 PUSH1 0x20 DUP3 ADD SWAP1 POP DUP2 DUP2 SUB PUSH0 DUP4 ADD MSTORE PUSH2 0x12EE DUP2 PUSH2 0x12B5 JUMP JUMPDEST SWAP1 POP SWAP2 SWAP1 POP JUMP JUMPDEST PUSH32 0x4E487B7100000000000000000000000000000000000000000000000000000000 PUSH0 MSTORE PUSH1 0x11 PUSH1 0x4 MSTORE PUSH1 0x24 PUSH0 REVERT JUMPDEST PUSH0 PUSH2 0x132C DUP3 PUSH2 0xBA9 JUMP JUMPDEST SWAP2 POP PUSH2 0x1337 DUP4 PUSH2 0xBA9 JUMP JUMPDEST SWAP3 POP DUP3 DUP3 ADD SWAP1 POP DUP1 DUP3 GT ISZERO PUSH2 0x134F JUMPI PUSH2 0x134E PUSH2 0x12F5 JUMP JUMPDEST JUMPDEST SWAP3 SWAP2 POP POP JUMP JUMPDEST PUSH32 0x4F6E6C7920636F756E74657270617274792063616E207369676E000000000000 PUSH0 DUP3 ADD MSTORE POP JUMP JUMPDEST PUSH0 PUSH2 0x1389 PUSH1 0x1A DUP4 PUSH2 0xCD6 JUMP JUMPDEST SWAP2 POP PUSH2 0x1394 DUP3 PUSH2 0x1355 JUMP JUMPDEST PUSH1 0x20 DUP3 ADD SWAP1 POP SWAP2 SWAP1 POP JUMP JUMPDEST PUSH0 PUSH1 0x20 DUP3 ADD SWAP1 POP DUP2 DUP2 SUB PUSH0 DUP4 ADD MSTORE PUSH2 0x13B6 DUP2 PUSH2 0x137D JUMP JUMPDEST SWAP1 POP SWAP2 SWAP1 POP JUMP JUMPDEST PUSH32 0x436F6E7472616374206D75737420626520696E20274372656174656427207374 PUSH0 DUP3 ADD MSTORE PUSH32 0x6174757300000000000000000000000000000000000000000000000000000000 PUSH1 0x20 DUP3 ADD MSTORE POP JUMP JUMPDEST PUSH0 PUSH2 0x1417 PUSH1 0x24 DUP4 PUSH2 0xCD6 JUMP JUMPDEST SWAP2 POP PUSH2 0x1422 DUP3 PUSH2 0x13BD JUMP JUMPDEST PUSH1 0x40 DUP3 ADD SWAP1 POP SWAP2 SWAP1 POP JUMP JUMPDEST PUSH0 PUSH1 0x20 DUP3 ADD SWAP1 POP DUP2 DUP2 SUB PUSH0 DUP4 ADD MSTORE PUSH2 0x1444 DUP2 PUSH2 0x140B JUMP JUMPDEST SWAP1 POP SWAP2 SWAP1 POP JUMP JUMPDEST PUSH32 0x53656E74206574686572206D757374206D617463682074686520636F6E747261 PUSH0 DUP3 ADD MSTORE PUSH32 0x637420616D6F756E740000000000000000000000000000000000000000000000 PUSH1 0x20 DUP3 ADD MSTORE POP JUMP JUMPDEST PUSH0 PUSH2 0x14A5 PUSH1 0x29 DUP4 PUSH2 0xCD6 JUMP JUMPDEST SWAP2 POP PUSH2 0x14B0 DUP3 PUSH2 0x144B JUMP JUMPDEST PUSH1 0x40 DUP3 ADD SWAP1 POP SWAP2 SWAP1 POP JUMP JUMPDEST PUSH0 PUSH1 0x20 DUP3 ADD SWAP1 POP DUP2 DUP2 SUB PUSH0 DUP4 ADD MSTORE PUSH2 0x14D2 DUP2 PUSH2 0x1499 JUMP JUMPDEST SWAP1 POP SWAP2 SWAP1 POP JUMP JUMPDEST PUSH0 PUSH2 0x14E3 DUP3 PUSH2 0xBA9 JUMP JUMPDEST SWAP2 POP PUSH32 0xFFFFFFFFFFFFFFFFFFFFFFFFFFFFFFFFFFFFFFFFFFFFFFFFFFFFFFFFFFFFFFFF DUP3 SUB PUSH2 0x1515 JUMPI PUSH2 0x1514 PUSH2 0x12F5 JUMP JUMPDEST JUMPDEST PUSH1 0x1 DUP3 ADD SWAP1 POP SWAP2 SWAP1 POP JUMP JUMPDEST PUSH0 DUP2 SWAP1 POP DUP2 PUSH0 MSTORE PUSH1 0x20 PUSH0 KECCAK256 SWAP1 POP SWAP2 SWAP1 POP JUMP JUMPDEST PUSH0 PUSH1 0x20 PUSH1 0x1F DUP4 ADD DIV SWAP1 POP SWAP2 SWAP1 POP JUMP JUMPDEST PUSH0 DUP3 DUP3 SHL SWAP1 POP SWAP3 SWAP2 POP POP JUMP JUMPDEST PUSH0 PUSH1 0x8 DUP4 MUL PUSH2 0x157C PUSH32 0xFFFFFFFFFFFFFFFFFFFFFFFFFFFFFFFFFFFFFFFFFFFFFFFFFFFFFFFFFFFFFFFF DUP3 PUSH2 0x1541 JUMP JUMPDEST PUSH2 0x1586 DUP7 DUP4 PUSH2 0x1541 JUMP JUMPDEST SWAP6 POP DUP1 NOT DUP5 AND SWAP4 POP DUP1 DUP7 AND DUP5 OR SWAP3 POP POP POP SWAP4 SWAP3 POP POP POP JUMP JUMPDEST PUSH0 DUP2 SWAP1 POP SWAP2 SWAP1 POP JUMP JUMPDEST PUSH0 PUSH2 0x15C1 PUSH2 0x15BC PUSH2 0x15B7 DUP5 PUSH2 0xBA9 JUMP JUMPDEST PUSH2 0x159E JUMP JUMPDEST PUSH2 0xBA9 JUMP JUMPDEST SWAP1 POP SWAP2 SWAP1 POP JUMP JUMPDEST PUSH0 DUP2 SWAP1 POP SWAP2 SWAP1 POP JUMP JUMPDEST PUSH2 0x15DA DUP4 PUSH2 0x15A7 JUMP JUMPDEST PUSH2 0x15EE PUSH2 0x15E6 DUP3 PUSH2 0x15C8 JUMP JUMPDEST DUP5 DUP5 SLOAD PUSH2 0x154D JUMP JUMPDEST DUP3 SSTORE POP POP POP POP JUMP JUMPDEST PUSH0 SWAP1 JUMP JUMPDEST PUSH2 0x1602 PUSH2 0x15F6 JUMP JUMPDEST PUSH2 0x160D DUP2 DUP5 DUP5 PUSH2 0x15D1 JUMP JUMPDEST POP POP POP JUMP JUMPDEST JUMPDEST DUP2 DUP2 LT ISZERO PUSH2 0x1630 JUMPI PUSH2 0x1625 PUSH0 DUP3 PUSH2 0x15FA JUMP JUMPDEST PUSH1 0x1 DUP2 ADD SWAP1 POP PUSH2 0x1613 JUMP JUMPDEST POP POP JUMP JUMPDEST PUSH1 0x1F DUP3 GT ISZERO PUSH2 0x1675 JUMPI PUSH2 0x1646 DUP2 PUSH2 0x1520 JUMP JUMPDEST PUSH2 0x164F DUP5 PUSH2 0x1532 JUMP JUMPDEST DUP2 ADD PUSH1 0x20 DUP6 LT ISZERO PUSH2 0x165E JUMPI DUP2 SWAP1 POP JUMPDEST PUSH2 0x1672 PUSH2 0x166A DUP6 PUSH2 0x1532 JUMP JUMPDEST DUP4 ADD DUP3 PUSH2 0x1612 JUMP JUMPDEST POP POP JUMPDEST POP POP POP JUMP JUMPDEST PUSH0 DUP3 DUP3 SHR SWAP1 POP SWAP3 SWAP2 POP POP JUMP JUMPDEST PUSH0 PUSH2 0x1695 PUSH0 NOT DUP5 PUSH1 0x8 MUL PUSH2 0x167A JUMP JUMPDEST NOT DUP1 DUP4 AND SWAP2 POP POP SWAP3 SWAP2 POP POP JUMP JUMPDEST PUSH0 PUSH2 0x16AD DUP4 DUP4 PUSH2 0x1686 JUMP JUMPDEST SWAP2 POP DUP3 PUSH1 0x2 MUL DUP3 OR SWAP1 POP SWAP3 SWAP2 POP POP JUMP JUMPDEST PUSH2 0x16C6 DUP3 PUSH2 0xCCC JUMP JUMPDEST PUSH8 0xFFFFFFFFFFFFFFFF DUP2 GT ISZERO PUSH2 0x16DF JUMPI PUSH2 0x16DE PUSH2 0xE33 JUMP JUMPDEST JUMPDEST PUSH2 0x16E9 DUP3 SLOAD PUSH2 0x1056 JUMP JUMPDEST PUSH2 0x16F4 DUP3 DUP3 DUP6 PUSH2 0x1634 JUMP JUMPDEST PUSH0 PUSH1 0x20 SWAP1 POP PUSH1 0x1F DUP4 GT PUSH1 0x1 DUP2 EQ PUSH2 0x1725 JUMPI PUSH0 DUP5 ISZERO PUSH2 0x1713 JUMPI DUP3 DUP8 ADD MLOAD SWAP1 POP JUMPDEST PUSH2 0x171D DUP6 DUP3 PUSH2 0x16A2 JUMP JUMPDEST DUP7 SSTORE POP PUSH2 0x1784 JUMP JUMPDEST PUSH1 0x1F NOT DUP5 AND PUSH2 0x1733 DUP7 PUSH2 0x1520 JUMP JUMPDEST PUSH0 JUMPDEST DUP3 DUP2 LT ISZERO PUSH2 0x175A JUMPI DUP5 DUP10 ADD MLOAD DUP3 SSTORE PUSH1 0x1 DUP3 ADD SWAP2 POP PUSH1 0x20 DUP6 ADD SWAP5 POP PUSH1 0x20 DUP2 ADD SWAP1 POP PUSH2 0x1735 JUMP JUMPDEST DUP7 DUP4 LT ISZERO PUSH2 0x1777 JUMPI DUP5 DUP10 ADD MLOAD PUSH2 0x1773 PUSH1 0x1F DUP10 AND DUP3 PUSH2 0x1686 JUMP JUMPDEST DUP4 SSTORE POP JUMPDEST PUSH1 0x1 PUSH1 0x2 DUP9 MUL ADD DUP9 SSTORE POP POP POP JUMPDEST POP POP POP POP POP POP JUMP JUMPDEST PUSH2 0x1795 DUP2 PUSH2 0xFC3 JUMP JUMPDEST DUP3 MSTORE POP POP JUMP JUMPDEST PUSH0 PUSH2 0x17B5 PUSH2 0x17B0 PUSH2 0x17AB DUP5 PUSH2 0xD5C JUMP JUMPDEST PUSH2 0x159E JUMP JUMPDEST PUSH2 0xD5C JUMP JUMPDEST SWAP1 POP SWAP2 SWAP1 POP JUMP JUMPDEST PUSH0 PUSH2 0x17C6 DUP3 PUSH2 0x179B JUMP JUMPDEST SWAP1 POP SWAP2 SWAP1 POP JUMP JUMPDEST PUSH0 PUSH2 0x17D7 DUP3 PUSH2 0x17BC JUMP JUMPDEST SWAP1 POP SWAP2 SWAP1 POP JUMP JUMPDEST PUSH2 0x17E7 DUP2 PUSH2 0x17CD JUMP JUMPDEST DUP3 MSTORE POP POP JUMP JUMPDEST PUSH0 PUSH1 0x40 DUP3 ADD SWAP1 POP PUSH2 0x1800 PUSH0 DUP4 ADD DUP6 PUSH2 0x178C JUMP JUMPDEST PUSH2 0x180D PUSH1 0x20 DUP4 ADD DUP5 PUSH2 0x17DE JUMP JUMPDEST SWAP4 SWAP3 POP POP POP JUMP INVALID LOG2 PUSH5 0x6970667358 0x22 SLT KECCAK256 CALLER MOD SUB 0xAA PUSH12 0xBF8E06FB402684B5CDDB755D PUSH31 0x2FE6869515FB79F1A8ED1CAFB03264736F6C634300081A0033000000000000 "
		},
		"gasEstimates": {
			"creation": {
				"codeDepositCost": "1243600",
				"executionCost": "23406",
				"totalCost": "1267006"
			},
			"external": {
				"confirmCompletion(uint256)": "infinite",
				"contractCounter()": "2426",
				"contracts(uint256)": "infinite",
				"createContract(address,string,uint256)": "infinite",
				"getContractIPFSHash(uint256)": "infinite",
				"getContractStatus(uint256)": "2927",
				"pendingWithdrawals(address)": "2890",
				"signContract(uint256)": "30370",
				"withdrawFunds()": "infinite"
			}
		},
		"methodIdentifiers": {
			"confirmCompletion(uint256)": "94aeb613",
			"contractCounter()": "067bd3b4",
			"contracts(uint256)": "474da79a",
			"createContract(address,string,uint256)": "9ce5b6ca",
			"getContractIPFSHash(uint256)": "1ed4af8c",
			"getContractStatus(uint256)": "17b18458",
			"pendingWithdrawals(address)": "f3f43703",
			"signContract(uint256)": "9537e8d1",
			"withdrawFunds()": "24600fc3"
		}
	},
	"abi": [
		{
			"anonymous": false,
			"inputs": [
				{
					"indexed": true,
					"internalType": "uint256",
					"name": "contractId",
					"type": "uint256"
				},
				{
					"indexed": false,
					"internalType": "address",
					"name": "creator",
					"type": "address"
				},
				{
					"indexed": false,
					"internalType": "address",
					"name": "counterparty",
					"type": "address"
				}
			],
			"name": "ContractCreated",
			"type": "event"
		},
		{
			"anonymous": false,
			"inputs": [
				{
					"indexed": true,
					"internalType": "uint256",
					"name": "contractId",
					"type": "uint256"
				}
			],
			"name": "ContractSigned",
			"type": "event"
		},
		{
			"anonymous": false,
			"inputs": [
				{
					"indexed": true,
					"internalType": "uint256",
					"name": "contractId",
					"type": "uint256"
				},
				{
					"indexed": false,
					"internalType": "uint256",
					"name": "amount",
					"type": "uint256"
				}
			],
			"name": "PaymentReleased",
			"type": "event"
		},
		{
			"inputs": [
				{
					"internalType": "uint256",
					"name": "_contractId",
					"type": "uint256"
				}
			],
			"name": "confirmCompletion",
			"outputs": [],
			"stateMutability": "nonpayable",
			"type": "function"
		},
		{
			"inputs": [],
			"name": "contractCounter",
			"outputs": [
				{
					"internalType": "uint256",
					"name": "",
					"type": "uint256"
				}
			],
			"stateMutability": "view",
			"type": "function"
		},
		{
			"inputs": [
				{
					"internalType": "uint256",
					"name": "",
					"type": "uint256"
				}
			],
			"name": "contracts",
			"outputs": [
				{
					"internalType": "uint256",
					"name": "id",
					"type": "uint256"
				},
				{
					"internalType": "address payable",
					"name": "creator",
					"type": "address"
				},
				{
					"internalType": "address payable",
					"name": "counterparty",
					"type": "address"
				},
				{
					"internalType": "string",
					"name": "contractIPFSHash",
					"type": "string"
				},
				{
					"internalType": "uint256",
					"name": "amount",
					"type": "uint256"
				},
				{
					"internalType": "enum DigitalContractPlatform.ContractStatus",
					"name": "status",
					"type": "uint8"
				}
			],
			"stateMutability": "view",
			"type": "function"
		},
		{
			"inputs": [
				{
					"internalType": "address payable",
					"name": "_counterparty",
					"type": "address"
				},
				{
					"internalType": "string",
					"name": "_contractIPFSHash",
					"type": "string"
				},
				{
					"internalType": "uint256",
					"name": "_amount",
					"type": "uint256"
				}
			],
			"name": "createContract",
			"outputs": [],
			"stateMutability": "payable",
			"type": "function"
		},
		{
			"inputs": [
				{
					"internalType": "uint256",
					"name": "_contractId",
					"type": "uint256"
				}
			],
			"name": "getContractIPFSHash",
			"outputs": [
				{
					"internalType": "string",
					"name": "",
					"type": "string"
				}
			],
			"stateMutability": "view",
			"type": "function"
		},
		{
			"inputs": [
				{
					"internalType": "uint256",
					"name": "_contractId",
					"type": "uint256"
				}
			],
			"name": "getContractStatus",
			"outputs": [
				{
					"internalType": "enum DigitalContractPlatform.ContractStatus",
					"name": "",
					"type": "uint8"
				}
			],
			"stateMutability": "view",
			"type": "function"
		},
		{
			"inputs": [
				{
					"internalType": "address",
					"name": "",
					"type": "address"
				}
			],
			"name": "pendingWithdrawals",
			"outputs": [
				{
					"internalType": "uint256",
					"name": "",
					"type": "uint256"
				}
			],
			"stateMutability": "view",
			"type": "function"
		},
		{
			"inputs": [
				{
					"internalType": "uint256",
					"name": "_contractId",
					"type": "uint256"
				}
			],
			"name": "signContract",
			"outputs": [],
			"stateMutability": "nonpayable",
			"type": "function"
		},
		{
			"inputs": [],
			"name": "withdrawFunds",
			"outputs": [],
			"stateMutability": "nonpayable",
			"type": "function"
		}
	]
}